{
  "contractName": "BlacklistTransferManagerFactory",
  "abi": [
    {
      "constant": true,
      "inputs": [],
      "name": "monthlySubscriptionCost",
      "outputs": [
        {
          "name": "",
          "type": "uint256"
        }
      ],
      "payable": false,
      "stateMutability": "view",
      "type": "function"
    },
    {
      "constant": true,
      "inputs": [],
      "name": "name",
      "outputs": [
        {
          "name": "",
          "type": "bytes32"
        }
      ],
      "payable": false,
      "stateMutability": "view",
      "type": "function"
    },
    {
      "constant": true,
      "inputs": [],
      "name": "getName",
      "outputs": [
        {
          "name": "",
          "type": "bytes32"
        }
      ],
      "payable": false,
      "stateMutability": "view",
      "type": "function"
    },
    {
      "constant": false,
      "inputs": [
        {
          "name": "_newTitle",
          "type": "string"
        }
      ],
      "name": "changeTitle",
      "outputs": [],
      "payable": false,
      "stateMutability": "nonpayable",
      "type": "function"
    },
    {
      "constant": false,
      "inputs": [
        {
          "name": "_newSubscriptionCost",
          "type": "uint256"
        }
      ],
      "name": "changeFactorySubscriptionFee",
      "outputs": [],
      "payable": false,
      "stateMutability": "nonpayable",
      "type": "function"
    },
    {
      "constant": true,
      "inputs": [],
      "name": "title",
      "outputs": [
        {
          "name": "",
          "type": "string"
        }
      ],
      "payable": false,
      "stateMutability": "view",
      "type": "function"
    },
    {
      "constant": true,
      "inputs": [],
      "name": "version",
      "outputs": [
        {
          "name": "",
          "type": "string"
        }
      ],
      "payable": false,
      "stateMutability": "view",
      "type": "function"
    },
    {
      "constant": false,
      "inputs": [
        {
          "name": "_newSetupCost",
          "type": "uint256"
        }
      ],
      "name": "changeFactorySetupFee",
      "outputs": [],
      "payable": false,
      "stateMutability": "nonpayable",
      "type": "function"
    },
    {
      "constant": false,
      "inputs": [
        {
          "name": "_newVersion",
          "type": "string"
        }
      ],
      "name": "changeVersion",
      "outputs": [],
      "payable": false,
      "stateMutability": "nonpayable",
      "type": "function"
    },
    {
      "constant": true,
      "inputs": [],
      "name": "polyToken",
      "outputs": [
        {
          "name": "",
          "type": "address"
        }
      ],
      "payable": false,
      "stateMutability": "view",
      "type": "function"
    },
    {
      "constant": false,
      "inputs": [],
      "name": "renounceOwnership",
      "outputs": [],
      "payable": false,
      "stateMutability": "nonpayable",
      "type": "function"
    },
    {
      "constant": true,
      "inputs": [],
      "name": "description",
      "outputs": [
        {
          "name": "",
          "type": "string"
        }
      ],
      "payable": false,
      "stateMutability": "view",
      "type": "function"
    },
    {
      "constant": true,
      "inputs": [],
      "name": "setupCost",
      "outputs": [
        {
          "name": "",
          "type": "uint256"
        }
      ],
      "payable": false,
      "stateMutability": "view",
      "type": "function"
    },
    {
      "constant": true,
      "inputs": [],
      "name": "getLowerSTVersionBounds",
      "outputs": [
        {
          "name": "",
          "type": "uint8[]"
        }
      ],
      "payable": false,
      "stateMutability": "view",
      "type": "function"
    },
    {
      "constant": false,
      "inputs": [
        {
          "name": "_newName",
          "type": "bytes32"
        }
      ],
      "name": "changeName",
      "outputs": [],
      "payable": false,
      "stateMutability": "nonpayable",
      "type": "function"
    },
    {
      "constant": true,
      "inputs": [],
      "name": "owner",
      "outputs": [
        {
          "name": "",
          "type": "address"
        }
      ],
      "payable": false,
      "stateMutability": "view",
      "type": "function"
    },
    {
      "constant": true,
      "inputs": [],
      "name": "getSetupCost",
      "outputs": [
        {
          "name": "",
          "type": "uint256"
        }
      ],
      "payable": false,
      "stateMutability": "view",
      "type": "function"
    },
    {
      "constant": false,
      "inputs": [
        {
          "name": "_newUsageCost",
          "type": "uint256"
        }
      ],
      "name": "changeFactoryUsageFee",
      "outputs": [],
      "payable": false,
      "stateMutability": "nonpayable",
      "type": "function"
    },
    {
      "constant": true,
      "inputs": [],
      "name": "usageCost",
      "outputs": [
        {
          "name": "",
          "type": "uint256"
        }
      ],
      "payable": false,
      "stateMutability": "view",
      "type": "function"
    },
    {
      "constant": false,
      "inputs": [
        {
          "name": "_newDesc",
          "type": "string"
        }
      ],
      "name": "changeDescription",
      "outputs": [],
      "payable": false,
      "stateMutability": "nonpayable",
      "type": "function"
    },
    {
      "constant": false,
      "inputs": [
        {
          "name": "_newOwner",
          "type": "address"
        }
      ],
      "name": "transferOwnership",
      "outputs": [],
      "payable": false,
      "stateMutability": "nonpayable",
      "type": "function"
    },
    {
      "constant": true,
      "inputs": [],
      "name": "getUpperSTVersionBounds",
      "outputs": [
        {
          "name": "",
          "type": "uint8[]"
        }
      ],
      "payable": false,
      "stateMutability": "view",
      "type": "function"
    },
    {
      "constant": false,
      "inputs": [
        {
          "name": "_boundType",
          "type": "string"
        },
        {
          "name": "_newVersion",
          "type": "uint8[]"
        }
      ],
      "name": "changeSTVersionBounds",
      "outputs": [],
      "payable": false,
      "stateMutability": "nonpayable",
      "type": "function"
    },
    {
      "inputs": [
        {
          "name": "_polyAddress",
          "type": "address"
        },
        {
          "name": "_setupCost",
          "type": "uint256"
        },
        {
          "name": "_usageCost",
          "type": "uint256"
        },
        {
          "name": "_subscriptionCost",
          "type": "uint256"
        }
      ],
      "payable": false,
      "stateMutability": "nonpayable",
      "type": "constructor"
    },
    {
      "anonymous": false,
      "inputs": [
        {
          "indexed": true,
          "name": "previousOwner",
          "type": "address"
        }
      ],
      "name": "OwnershipRenounced",
      "type": "event"
    },
    {
      "anonymous": false,
      "inputs": [
        {
          "indexed": true,
          "name": "previousOwner",
          "type": "address"
        },
        {
          "indexed": true,
          "name": "newOwner",
          "type": "address"
        }
      ],
      "name": "OwnershipTransferred",
      "type": "event"
    },
    {
      "anonymous": false,
      "inputs": [
        {
          "indexed": false,
          "name": "_oldSetupCost",
          "type": "uint256"
        },
        {
          "indexed": false,
          "name": "_newSetupCost",
          "type": "uint256"
        },
        {
          "indexed": false,
          "name": "_moduleFactory",
          "type": "address"
        }
      ],
      "name": "ChangeFactorySetupFee",
      "type": "event"
    },
    {
      "anonymous": false,
      "inputs": [
        {
          "indexed": false,
          "name": "_oldUsageCost",
          "type": "uint256"
        },
        {
          "indexed": false,
          "name": "_newUsageCost",
          "type": "uint256"
        },
        {
          "indexed": false,
          "name": "_moduleFactory",
          "type": "address"
        }
      ],
      "name": "ChangeFactoryUsageFee",
      "type": "event"
    },
    {
      "anonymous": false,
      "inputs": [
        {
          "indexed": false,
          "name": "_oldSubscriptionCost",
          "type": "uint256"
        },
        {
          "indexed": false,
          "name": "_newMonthlySubscriptionCost",
          "type": "uint256"
        },
        {
          "indexed": false,
          "name": "_moduleFactory",
          "type": "address"
        }
      ],
      "name": "ChangeFactorySubscriptionFee",
      "type": "event"
    },
    {
      "anonymous": false,
      "inputs": [
        {
          "indexed": false,
          "name": "_module",
          "type": "address"
        },
        {
          "indexed": true,
          "name": "_moduleName",
          "type": "bytes32"
        },
        {
          "indexed": true,
          "name": "_moduleFactory",
          "type": "address"
        },
        {
          "indexed": false,
          "name": "_creator",
          "type": "address"
        },
        {
          "indexed": false,
          "name": "_setupCost",
          "type": "uint256"
        },
        {
          "indexed": false,
          "name": "_timestamp",
          "type": "uint256"
        }
      ],
      "name": "GenerateModuleFromFactory",
      "type": "event"
    },
    {
      "anonymous": false,
      "inputs": [
        {
          "indexed": false,
          "name": "_boundType",
          "type": "string"
        },
        {
          "indexed": false,
          "name": "_major",
          "type": "uint8"
        },
        {
          "indexed": false,
          "name": "_minor",
          "type": "uint8"
        },
        {
          "indexed": false,
          "name": "_patch",
          "type": "uint8"
        }
      ],
      "name": "ChangeSTVersionBound",
      "type": "event"
    },
    {
      "constant": false,
      "inputs": [
        {
          "name": "",
          "type": "bytes"
        }
      ],
      "name": "deploy",
      "outputs": [
        {
          "name": "",
          "type": "address"
        }
      ],
      "payable": false,
      "stateMutability": "nonpayable",
      "type": "function"
    },
    {
      "constant": true,
      "inputs": [],
      "name": "getTypes",
      "outputs": [
        {
          "name": "",
          "type": "uint8[]"
        }
      ],
      "payable": false,
      "stateMutability": "view",
      "type": "function"
    },
    {
      "constant": true,
      "inputs": [],
      "name": "getInstructions",
      "outputs": [
        {
          "name": "",
          "type": "string"
        }
      ],
      "payable": false,
      "stateMutability": "view",
      "type": "function"
    },
    {
      "constant": true,
      "inputs": [],
      "name": "getTags",
      "outputs": [
        {
          "name": "",
          "type": "bytes32[]"
        }
      ],
      "payable": false,
      "stateMutability": "view",
      "type": "function"
    }
  ],
  "bytecode": "0x60806040523480156200001157600080fd5b50604051608080620055be8339810160408181528251602080850151838601516060909601516000805433600160a060020a03199182161790915560018054909116600160a060020a03861617905560048290556002879055600381905584860190945260058086527f322e312e300000000000000000000000000000000000000000000000000000009290950191825291949193919291620000b79160069162000292565b507f426c61636b6c6973745472616e736665724d616e61676572000000000000000060075560408051808201909152601a8082527f426c61636b6c697374205472616e73666572204d616e616765720000000000006020909201918252620001229160089162000292565b506040805160608101825260268082527f4175746f6d61746520626c61636b6c69737420746f2072657374726963742073602083019081527f656c6c696e6700000000000000000000000000000000000000000000000000009290930191909152620001919160059162000292565b50620001ae60008080640100000000620017276200027782021704565b604080517f6c6f776572426f756e640000000000000000000000000000000000000000000081526009600a820152905190819003602a019020805462ffffff9290921662ffffff199092169190911790556200021b60008080640100000000620017276200027782021704565b604080517f7570706572426f756e640000000000000000000000000000000000000000000081526009600a820152905190819003602a019020805462ffffff9290921662ffffff19909216919091179055506200033792505050565b60ff9081169181166101000292166201000002919091171790565b828054600181600116156101000203166002900490600052602060002090601f016020900481019282601f10620002d557805160ff191683800117855562000305565b8280016001018555821562000305579182015b8281111562000305578251825591602001919060010190620002e8565b506200031392915062000317565b5090565b6200033491905b808211156200031357600081556001016200031e565b90565b61527780620003476000396000f30060806040526004361061015d5763ffffffff7c0100000000000000000000000000000000000000000000000000000000600035041662774360811461016257806306184a251461019e57806306fdde03146101c557806317d7de7c146101da5780632dbe07c7146101ef5780633ae192bd1461024a5780634a79d50c1461026257806354fd4d50146102ec57806358a191c31461030157806364bb432c146103195780636faa22a514610372578063715018a6146103875780637284e4161461039c5780637e363ffa146103b15780638677768f146103c6578063898855ed1461042b5780638da5cb5b14610443578063995d9ab714610458578063a5e9d7c91461046d578063aac67b0514610482578063b4579d601461049a578063d54c4726146104af578063e0d54970146104c4578063e6120413146104d9578063f2fde38b14610532578063f786299914610553578063fb97245614610568575b600080fd5b34801561016e57600080fd5b506101826004803560248101910135610594565b60408051600160a060020a039092168252519081900360200190f35b3480156101aa57600080fd5b506101b361079f565b60408051918252519081900360200190f35b3480156101d157600080fd5b506101b36107a5565b3480156101e657600080fd5b506101b36107ab565b3480156101fb57600080fd5b506040805160206004803580820135601f81018490048402850184019095528484526102489436949293602493928401919081908401838280828437509497506107b29650505050505050565b005b34801561025657600080fd5b50610248600435610839565b34801561026e57600080fd5b50610277610896565b6040805160208082528351818301528351919283929083019185019080838360005b838110156102b1578181015183820152602001610299565b50505050905090810190601f1680156102de5780820380516001836020036101000a031916815260200191505b509250505060405180910390f35b3480156102f857600080fd5b50610277610924565b34801561030d57600080fd5b5061024860043561097f565b34801561032557600080fd5b506040805160206004803580820135601f81018490048402850184019095528484526102489436949293602493928401919081908401838280828437509497506109dc9650505050505050565b34801561037e57600080fd5b50610182610a5f565b34801561039357600080fd5b50610248610a6e565b3480156103a857600080fd5b50610277610ada565b3480156103bd57600080fd5b506101b3610b35565b3480156103d257600080fd5b506103db610b3b565b60408051602080825283518183015283519192839290830191858101910280838360005b838110156104175781810151838201526020016103ff565b505050509050019250505060405180910390f35b34801561043757600080fd5b50610248600435610b8b565b34801561044f57600080fd5b50610182610bfe565b34801561046457600080fd5b506103db610c0d565b34801561047957600080fd5b506101b3610cae565b34801561048e57600080fd5b50610248600435610cb4565b3480156104a657600080fd5b506103db610d11565b3480156104bb57600080fd5b506101b3610d5d565b3480156104d057600080fd5b50610277610d63565b3480156104e557600080fd5b506040805160206004803580820135601f8101849004840285018401909552848452610248943694929360249392840191908190840183828082843750949750610dc29650505050505050565b34801561053e57600080fd5b50610248600160a060020a0360043516610e45565b34801561055f57600080fd5b506103db610e68565b34801561057457600080fd5b506102486024600480358281019290820135918135918201910135610eb3565b600080600060045411156106f2576001546000805460048054604080517f23b872dd0000000000000000000000000000000000000000000000000000000081523393810193909352600160a060020a03938416602484015260448301919091525191909316926323b872dd9260648083019360209390929083900390910190829087803b15801561062457600080fd5b505af1158015610638573d6000803e3d6000fd5b505050506040513d602081101561064e57600080fd5b505115156106f2576040805160e560020a62461bcd02815260206004820152604260248201527f4661696c6564207472616e7366657246726f6d2062656361757365206f66207360448201527f7566666963656e7420416c6c6f77616e6365206973206e6f742070726f76696460648201527f6564000000000000000000000000000000000000000000000000000000000000608482015290519081900360a40190fd5b6001543390600160a060020a0316610708611742565b600160a060020a03928316815291166020820152604080519182900301906000f08015801561073b573d6000803e3d6000fd5b509050306107476107ab565b60045460408051600160a060020a038616815233602082015280820192909252426060830152517fb68b4973fbce93f056103272c1f3f53b607527138d7e323b7b94f7ac169ebf779181900360800190a39392505050565b60035481565b60075481565b6007545b90565b600054600160a060020a031633146107c957600080fd5b8051600010610822576040805160e560020a62461bcd02815260206004820152600d60248201527f496e76616c6964207469746c6500000000000000000000000000000000000000604482015290519081900360640190fd5b8051610835906008906020840190611752565b5050565b600054600160a060020a0316331461085057600080fd5b60035460408051918252602082018390523082820152517fb14468ff50b0c356f5373be0ef0791de71449aaf8ac5ca096049b7ac79d0b1139181900360600190a1600355565b6008805460408051602060026001851615610100026000190190941693909304601f8101849004840282018401909252818152929183018282801561091c5780601f106108f15761010080835404028352916020019161091c565b820191906000526020600020905b8154815290600101906020018083116108ff57829003601f168201915b505050505081565b6006805460408051602060026001851615610100026000190190941693909304601f8101849004840282018401909252818152929183018282801561091c5780601f106108f15761010080835404028352916020019161091c565b600054600160a060020a0316331461099657600080fd5b60045460408051918252602082018390523082820152517f9672983540fb671cd7c0c946255b4dc769a3e557a25ef91ca7c98995c8d694b69181900360600190a1600455565b600054600160a060020a031633146109f357600080fd5b8051600010610a4c576040805160e560020a62461bcd02815260206004820152600f60248201527f496e76616c69642076657273696f6e0000000000000000000000000000000000604482015290519081900360640190fd5b8051610835906006906020840190611752565b600154600160a060020a031681565b600054600160a060020a03163314610a8557600080fd5b60008054604051600160a060020a03909116917ff8df31144d9c2f0f6b59d69b8b98abd5459d07f2742c4df920b25aae33c6482091a26000805473ffffffffffffffffffffffffffffffffffffffff19169055565b6005805460408051602060026001851615610100026000190190941693909304601f8101849004840282018401909252818152929183018282801561091c5780601f106108f15761010080835404028352916020019161091c565b60045481565b604080517f6c6f776572426f756e640000000000000000000000000000000000000000000081526009600a820152905190819003602a01902054606090610b869062ffffff166113f2565b905090565b600054600160a060020a03163314610ba257600080fd5b801515610bf9576040805160e560020a62461bcd02815260206004820152600c60248201527f496e76616c6964206e616d650000000000000000000000000000000000000000604482015290519081900360640190fd5b600755565b600054600160a060020a031681565b6040805160028082526060808301845292839291906020830190803883390190505090507f426c61636b6c6973740000000000000000000000000000000000000000000000816000815181101515610c6157fe5b6020908102909101015280517f52657374726963746564207472616e73666572000000000000000000000000009082906001908110610c9c57fe5b602090810290910101529050805b5090565b60045490565b600054600160a060020a03163314610ccb57600080fd5b60025460408051918252602082018390523082820152517fc39ec4e85127e00b5b203f9c40814616d5977d8de85e6e0717e5ca4b0896206c9181900360600190a1600255565b604080516001808252818301909252606091829190602080830190803883390190505090506002816000815181101515610d4757fe5b60ff909216602092830290910190910152905090565b60025481565b60408051606081018252602c81527f416c6c6f777320616e2069737375657220746f20626c61636b6c69737420746860208201527f65206164647265737365732e00000000000000000000000000000000000000009181019190915290565b600054600160a060020a03163314610dd957600080fd5b8051600010610e32576040805160e560020a62461bcd02815260206004820152601360248201527f496e76616c6964206465736372697074696f6e00000000000000000000000000604482015290519081900360640190fd5b8051610835906005906020840190611752565b600054600160a060020a03163314610e5c57600080fd5b610e6581611497565b50565b604080517f7570706572426f756e640000000000000000000000000000000000000000000081526009600a820152905190819003602a01902054606090610b869062ffffff166113f2565b600054606090600160a060020a03163314610ecd57600080fd5b60405160200180807f6c6f776572426f756e6400000000000000000000000000000000000000000000815250600a0190506040516020818303038152906040526040518082805190602001908083835b60208310610f3c5780518252601f199092019160209182019101610f1d565b51815160209384036101000a600019018019909216911617905260405191909301819003812094508993508892019050808383808284378201915050925050506040516020818303038152906040526040518082805190602001908083835b60208310610fba5780518252601f199092019160209182019101610f9b565b6001836020036101000a0380198251168184511680821785525050505050509050019150506040518091039020600019161480611112575060405160200180807f7570706572426f756e6400000000000000000000000000000000000000000000815250600a0190506040516020818303038152906040526040518082805190602001908083835b602083106110615780518252601f199092019160209182019101611042565b51815160209384036101000a600019018019909216911617905260405191909301819003812094508993508892019050808383808284378201915050925050506040516020818303038152906040526040518082805190602001908083835b602083106110df5780518252601f1990920191602091820191016110c0565b6001836020036101000a038019825116818451168082178552505050505050905001915050604051809103902060001916145b1515611168576040805160e560020a62461bcd02815260206004820152601a60248201527f4d75737420626520612076616c696420626f756e642074797065000000000000604482015290519081900360640190fd5b6003821461117557600080fd5b600062ffffff1660098686604051808383808284379091019485525050604051928390036020019092205462ffffff1692909214915061129b9050576111e660098686604051808383808284379091019485525050604051928390036020019092205462ffffff1691506113f29050565b905061121f8184848080602002602001604051908101604052809392919081815260200183836020028082843750611514945050505050565b151561129b576040805160e560020a62461bcd02815260206004820152602260248201527f4661696c65642062656361757365206f6620696e2d76616c696420766572736960448201527f6f6e000000000000000000000000000000000000000000000000000000000000606482015290519081900360840190fd5b6112ec838360008181106112ab57fe5b9050602002013560ff168484600181811015156112c457fe5b9050602002013560ff168585600281811015156112dd57fe5b9050602002013560ff16611727565b6009868660405180838380828437909101948552505060405192839003602001909220805462ffffff9490941662ffffff1990941693909317909255507f5b67e16edaf7fc70c8d065ea6e70b97ed944d98fe593b04d682216615a3b04db905085858585600081811061135b57fe5b9050602002013560ff1686866001818110151561137457fe5b9050602002013560ff1687876002818110151561138d57fe5b9050602002013560ff1660405180806020018560ff1660ff1681526020018460ff1660ff1681526020018360ff1660ff168152602001828103825287878281815260200192508082843760405192018290039850909650505050505050a15050505050565b6040805160038082526080820190925260609182919060208201838038833950508151919250506201000062ffffff851604908290600090811061143257fe5b60ff909216602092830290910190910152805161010062ffffff851604908290600190811061145d57fe5b60ff909216602092830290910190910152805183908290600290811061147f57fe5b60ff9092166020928302909101909101529050919050565b600160a060020a03811615156114ac57600080fd5b60008054604051600160a060020a03808516939216917f8be0079c531659141344cd1fd0a4f28419497f9722a3daafe3b4186f6b6457e091a36000805473ffffffffffffffffffffffffffffffffffffffff1916600160a060020a0392909216919091179055565b600060606000808551604051908082528060200260200182016040528015611546578160200160208202803883390190505b50925060009150600090505b85518160ff1610156115f257848160ff1681518110151561156f57fe5b9060200190602002015160ff16868260ff1681518110151561158d57fe5b9060200190602002015160ff1610156115c7576001838260ff168151811015156115b357fe5b9115156020928302909101909101526115ea565b6000838260ff168151811015156115da57fe5b9115156020928302909101909101525b600101611552565b5060005b85518160ff16101561170d5760ff8116151561168f57848160ff1681518110151561161d57fe5b9060200190602002015160ff16868260ff1681518110151561163b57fe5b6020908102909101015160ff16116116815782600081518110151561165c57fe5b90602001906020020151156116765781600301915061170d565b60019091019061168a565b6000935061171e565b611705565b826001820360ff168151811015156116a357fe5b90602001906020020151156116bd57600190910190611705565b848160ff168151811015156116ce57fe5b9060200190602002015160ff16868260ff168151811015156116ec57fe5b6020908102909101015160ff1611611681576001909101905b6001016115f6565b85518260ff16141561171e57600193505b50505092915050565b60ff9081169181166101000292166201000002919091171790565b604051613a6b806117e183390190565b828054600181600116156101000203166002900490600052602060002090601f016020900481019282601f1061179357805160ff19168380011785556117c0565b828001600101855582156117c0579182015b828111156117c05782518255916020019190600101906117a5565b50610caa926107af9250905b80821115610caa57600081556001016117cc560060806040526002805460a060020a60ff021916905534801561002057600080fd5b50604051604080613a6b83398101604052805160209091015160018054600160a060020a03938416600160a060020a03199182161790915560008054821633179055600280549390921692169190911790556139ea806100816000396000f3006080604052600436106101665763ffffffff60e060020a60003504166311e0f35a811461016b5780631613ec9d146101d357806318c8bf001461021d578063195ffe1f146102435780631bf2d88f146102645780631ecb1a2a146102905780631f8e8e99146102d45780632598fd71146102f85780632a0acc6a1461032e5780632feea1fc146103555780633f4ba83a1461036d5780634c81dbab146103825780634da43462146103a35780635c975abb146103e75780635f7619a41461041057806364770d66146104285780636faa22a51461044c57806370ed53911461047d57806372a817621461049d57806379212819146104c95780638456cb59146104ea578063ad8d542d146104ff578063b84dfbd21461051f578063c3a07df614610534578063c45a015514610549578063cf2bd3a81461055e578063d26413051461058b578063d70afa96146105a0578063de6ee1bc146105b5578063e0d7b0441461064c575b600080fd5b34801561017757600080fd5b5061018360043561066d565b60408051602080825283518183015283519192839290830191858101910280838360005b838110156101bf5781810151838201526020016101a7565b505050509050019250505060405180910390f35b3480156101df57600080fd5b506101e8610742565b604080517fffffffff000000000000000000000000000000000000000000000000000000009092168252519081900360200190f35b34801561022957600080fd5b50610241600160a060020a0360043516602435610748565b005b34801561024f57600080fd5b50610241600160a060020a0360043516610c5f565b34801561027057600080fd5b506102416024600480358281019290820135918135918201910135610f61565b34801561029c57600080fd5b50610241602460048035828101929082013591813580830192908201359160443580830192908201359160643591820191013561118a565b3480156102e057600080fd5b50610241600160a060020a03600435166024356113ed565b34801561030457600080fd5b506103106004356119b4565b60408051938452602084019290925282820152519081900360600190f35b34801561033a57600080fd5b506103436119d5565b60408051918252519081900360200190f35b34801561036157600080fd5b506102416004356119e4565b34801561037957600080fd5b50610241611d4d565b34801561038e57600080fd5b50610241600435602435604435606435611e35565b3480156103af57600080fd5b5061024160246004803582810192908201359181358083019290820135916044358083019290820135916064359182019101356120b4565b3480156103f357600080fd5b506103fc612309565b604080519115158252519081900360200190f35b34801561041c57600080fd5b506103fc60043561232a565b34801561043457600080fd5b50610241602460048035828101929101359035612646565b34801561045857600080fd5b50610461612811565b60408051600160a060020a039092168252519081900360200190f35b34801561048957600080fd5b506102416004803560248101910135612820565b3480156104a957600080fd5b5061024160246004803582810192908201359181359182019101356129dc565b3480156104d557600080fd5b50610183600160a060020a0360043516612bfb565b3480156104f657600080fd5b50610241612c67565b34801561050b57600080fd5b506102416004803560248101910135612d4d565b34801561052b57600080fd5b50610461612f0e565b34801561054057600080fd5b50610183612f1d565b34801561055557600080fd5b50610461612f6f565b34801561056a57600080fd5b50610241600435602435604435606435600160a060020a0360843516612f7e565b34801561059757600080fd5b50610183613117565b3480156105ac57600080fd5b50610343613170565b3480156105c157600080fd5b50604080516020601f60643560048181013592830184900484028501840190955281845261062894600160a060020a038135811695602480359092169560443595369560849401918190840183828082843750949750505050913515159250613194915050565b6040518082600381111561063857fe5b60ff16815260200191505060405180910390f35b34801561065857600080fd5b5061024160043560243560443560643561337c565b60008181526003602052604090206001015460609015156106d8576040805160e560020a62461bcd02815260206004820152601c60248201527f426c61636b6c697374207479706520646f65736e277420657869737400000000604482015290519081900360640190fd5b6000828152600560209081526040918290208054835181840281018401909452808452909183018282801561073657602002820191906000526020600020905b8154600160a060020a03168152600190910190602001808311610718575b50505050509050919050565b60005b90565b600080600060d960020a6420a226a4a702600080600160009054906101000a9004600160a060020a0316600160a060020a0316638da5cb5b6040518163ffffffff1660e060020a028152600401602060405180830381600087803b1580156107af57600080fd5b505af11580156107c3573d6000803e3d6000fd5b505050506040513d60208110156107d957600080fd5b505160005433600160a060020a0392831681149450911614905081806107fc5750805b8061088c57506001546040805160e060020a638658b8b9028152336004820152306024820152604481018690529051600160a060020a0390921691638658b8b9916064808201926020929091908290030181600087803b15801561085f57600080fd5b505af1158015610873573d6000803e3d6000fd5b505050506040513d602081101561088957600080fd5b50515b15156108d0576040805160e560020a62461bcd028152602060048201526017602482015260008051602061399f833981519152604482015290519081900360640190fd5b6000878152600360205260409020600101541515610938576040805160e560020a62461bcd02815260206004820152601c60248201527f426c61636b6c697374207479706520646f65736e277420657869737400000000604482015290519081900360640190fd5b600160a060020a0388161515610998576040805160e560020a62461bcd02815260206004820152601860248201527f496e76616c696420696e766573746f7220616464726573730000000000000000604482015290519081900360640190fd5b600160a060020a03881660008181526006602090815260408083208b84528252808320549383526004909152902054909650861015610a8057600160a060020a03881660009081526004602052604090208054889190889081106109f857fe5b6000918252602090912001541415610a80576040805160e560020a62461bcd02815260206004820152602360248201527f426c61636b6c69737420616c726561647920616464656420746f20696e76657360448201527f746f720000000000000000000000000000000000000000000000000000000000606482015290519081900360840190fd5b6004600089600160a060020a0316600160a060020a0316815260200190815260200160002080549050945084600660008a600160a060020a0316600160a060020a0316815260200190815260200160002060008960001916600019168152602001908152602001600020819055506005600088600019166000191681526020019081526020016000208054905093508360076000896000191660001916815260200190815260200160002060008a600160a060020a0316600160a060020a03168152602001908152602001600020819055506004600089600160a060020a0316600160a060020a031681526020019081526020016000208790806001815401808255809150509060018203906000526020600020016000909192909190915090600019169055506005600088600019166000191681526020019081526020016000208890806001815401808255809150509060018203906000526020600020016000909192909190916101000a815481600160a060020a030219169083600160a060020a031602179055505087600160a060020a03167f5b953084d787f15ed1eddff977ee0d88fbf63e433c3cde8fbea7a4fc349d5f208860405180826000191660001916815260200191505060405180910390a25050505050505050565b60008060d960020a6420a226a4a702600080600160009054906101000a9004600160a060020a0316600160a060020a0316638da5cb5b6040518163ffffffff1660e060020a028152600401602060405180830381600087803b158015610cc457600080fd5b505af1158015610cd8573d6000803e3d6000fd5b505050506040513d6020811015610cee57600080fd5b505160005433600160a060020a039283168114945091161490508180610d115750805b80610da157506001546040805160e060020a638658b8b9028152336004820152306024820152604481018690529051600160a060020a0390921691638658b8b9916064808201926020929091908290030181600087803b158015610d7457600080fd5b505af1158015610d88573d6000803e3d6000fd5b505050506040513d6020811015610d9e57600080fd5b50515b1515610de5576040805160e560020a62461bcd028152602060048201526017602482015260008051602061399f833981519152604482015290519081900360640190fd5b600160a060020a0386161515610e45576040805160e560020a62461bcd02815260206004820152601860248201527f496e76616c696420696e766573746f7220616464726573730000000000000000604482015290519081900360640190fd5b600160a060020a0386166000908152600460205260409020541515610eda576040805160e560020a62461bcd02815260206004820152603060248201527f496e766573746f72206973206e6f74206173736f63696174656420746f20616e60448201527f7920626c61636b6c697374207479706500000000000000000000000000000000606482015290519081900360840190fd5b600160a060020a0386166000908152600460205260409020546000190194508493505b60008410158015610f0e5750848411155b15610f5957600160a060020a03861660009081526004602052604090208054610f4d91889187908110610f3d57fe5b90600052602060002001546113ed565b60001990930192610efd565b505050505050565b600060d960020a6420a226a4a702600080600160009054906101000a9004600160a060020a0316600160a060020a0316638da5cb5b6040518163ffffffff1660e060020a028152600401602060405180830381600087803b158015610fc557600080fd5b505af1158015610fd9573d6000803e3d6000fd5b505050506040513d6020811015610fef57600080fd5b505160005433600160a060020a0392831681149450911614905081806110125750805b806110a257506001546040805160e060020a638658b8b9028152336004820152306024820152604481018690529051600160a060020a0390921691638658b8b9916064808201926020929091908290030181600087803b15801561107557600080fd5b505af1158015611089573d6000803e3d6000fd5b505050506040513d602081101561109f57600080fd5b50515b15156110e6576040805160e560020a62461bcd028152602060048201526017602482015260008051602061399f833981519152604482015290519081900360640190fd5b86851461112b576040805160e560020a62461bcd02815260206004820152601d602482015260008051602061397f833981519152604482015290519081900360640190fd5b600093505b868410156111805761117588888681811061114757fe5b90506020020135600160a060020a0316878787818110151561116557fe5b9050602002013560001916610748565b600190930192611130565b5050505050505050565b600060d960020a6420a226a4a702600080600160009054906101000a9004600160a060020a0316600160a060020a0316638da5cb5b6040518163ffffffff1660e060020a028152600401602060405180830381600087803b1580156111ee57600080fd5b505af1158015611202573d6000803e3d6000fd5b505050506040513d602081101561121857600080fd5b505160005433600160a060020a03928316811494509116149050818061123b5750805b806112cb57506001546040805160e060020a638658b8b9028152336004820152306024820152604481018690529051600160a060020a0390921691638658b8b9916064808201926020929091908290030181600087803b15801561129e57600080fd5b505af11580156112b2573d6000803e3d6000fd5b505050506040513d60208110156112c857600080fd5b50515b151561130f576040805160e560020a62461bcd028152602060048201526017602482015260008051602061399f833981519152604482015290519081900360640190fd5b8a8914801561131d57508887145b801561132857508685145b151561136c576040805160e560020a62461bcd02815260206004820152601d602482015260008051602061397f833981519152604482015290519081900360640190fd5b600093505b8a8410156113df576113d48c8c8681811061138857fe5b905060200201358b8b87818110151561139d57fe5b905060200201358a8a8881811015156113b257fe5b602002919091013590508989898181106113c857fe5b90506020020135611e35565b600190930192611371565b505050505050505050505050565b600080600060d960020a6420a226a4a702600080600160009054906101000a9004600160a060020a0316600160a060020a0316638da5cb5b6040518163ffffffff1660e060020a028152600401602060405180830381600087803b15801561145457600080fd5b505af1158015611468573d6000803e3d6000fd5b505050506040513d602081101561147e57600080fd5b505160005433600160a060020a0392831681149450911614905081806114a15750805b8061153157506001546040805160e060020a638658b8b9028152336004820152306024820152604481018690529051600160a060020a0390921691638658b8b9916064808201926020929091908290030181600087803b15801561150457600080fd5b505af1158015611518573d6000803e3d6000fd5b505050506040513d602081101561152e57600080fd5b50515b1515611575576040805160e560020a62461bcd028152602060048201526017602482015260008051602061399f833981519152604482015290519081900360640190fd5b600160a060020a03881615156115d5576040805160e560020a62461bcd02815260206004820152601860248201527f496e76616c696420696e766573746f7220616464726573730000000000000000604482015290519081900360640190fd5b86151561162c576040805160e560020a62461bcd02815260206004820152601660248201527f496e76616c696420626c61636b6c697374206e616d6500000000000000000000604482015290519081900360640190fd5b600160a060020a0388166000908152600460209081526040808320600683528184208b855290925290912054815489929190811061166657fe5b600091825260209091200154146116ed576040805160e560020a62461bcd02815260206004820152602860248201527f496e766573746f72206e6f74206173736f63696174656420746f20746865206260448201527f6c61636b6c697374000000000000000000000000000000000000000000000000606482015290519081900360840190fd5b6000878152600760209081526040808320600160a060020a038c1684528252808320548a8452600590925290912054909650945060001985018610156118025760008781526005602052604090208054600019870190811061174b57fe5b6000918252602080832090910154898352600590915260409091208054600160a060020a03909216918890811061177e57fe5b6000918252602080832091909101805473ffffffffffffffffffffffffffffffffffffffff1916600160a060020a0394909416939093179092558881526007825260408082206005909352812080548993929190849081106117dc57fe5b6000918252602080832090910154600160a060020a031683528201929092526040019020555b600087815260056020526040902080549061182190600019830161393b565b506000878152600760209081526040808320600160a060020a038c16808552908352818420849055600683528184208b855283528184205490845260049092529091205495509350600019850184101561192857600160a060020a03881660009081526004602052604090208054600019870190811061189d57fe5b6000918252602080832090910154600160a060020a038b168352600490915260409091208054869081106118cd57fe5b6000918252602080832090910192909255600160a060020a038a16815260068252604080822060049093528120805487939291908490811061190b57fe5b600091825260208083209091015483528201929092526040019020555b600160a060020a038816600090815260046020526040902080549061195190600019830161393b565b50600160a060020a03881660008181526006602090815260408083208b845282528083209290925581518a815291517fdc247bce63fa5a88389ddfd97f7b059027da8b117fc802b3ebb5ec71b66a577a9281900390910190a25050505050505050565b60036020526000908152604090208054600182015460029092015490919083565b60d960020a6420a226a4a70281565b600060d960020a6420a226a4a702600080600160009054906101000a9004600160a060020a0316600160a060020a0316638da5cb5b6040518163ffffffff1660e060020a028152600401602060405180830381600087803b158015611a4857600080fd5b505af1158015611a5c573d6000803e3d6000fd5b505050506040513d6020811015611a7257600080fd5b505160005433600160a060020a039283168114945091161490508180611a955750805b80611b2557506001546040805160e060020a638658b8b9028152336004820152306024820152604481018690529051600160a060020a0390921691638658b8b9916064808201926020929091908290030181600087803b158015611af857600080fd5b505af1158015611b0c573d6000803e3d6000fd5b505050506040513d6020811015611b2257600080fd5b50515b1515611b69576040805160e560020a62461bcd028152602060048201526017602482015260008051602061399f833981519152604482015290519081900360640190fd5b6000858152600360205260409020600101541515611bd1576040805160e560020a62461bcd02815260206004820152601e60248201527f426c61636b6c697374207479706520646f65736ee28099742065786973740000604482015290519081900360640190fd5b60008581526005602052604090205415611c5b576040805160e560020a62461bcd02815260206004820152602b60248201527f496e766573746f727320617265206173736f636961746564207769746820746860448201527f6520626c61636b6c697374000000000000000000000000000000000000000000606482015290519081900360840190fd5b60008581526003602052604081208181556001810182905560020181905593505b600854841015611cb9576008805486919086908110611c9757fe5b6000918252602090912001541415611cae57611cb9565b600190930192611c7c565b600854600019018414611cff57600880546000198101908110611cd857fe5b9060005260206000200154600885815481101515611cf257fe5b6000918252602090912001555b6008805490611d1290600019830161393b565b506040805186815290517f9082b227000155e1d3efc115db206d54e4e64e204057aa3f1c7ad1ae0f5be0129181900360200190a15050505050565b600160009054906101000a9004600160a060020a0316600160a060020a0316638da5cb5b6040518163ffffffff1660e060020a028152600401602060405180830381600087803b158015611da057600080fd5b505af1158015611db4573d6000803e3d6000fd5b505050506040513d6020811015611dca57600080fd5b5051600160a060020a03163314611e2b576040805160e560020a62461bcd02815260206004820152601360248201527f53656e646572206973206e6f74206f776e657200000000000000000000000000604482015290519081900360640190fd5b611e3361350b565b565b60d960020a6420a226a4a702600080600160009054906101000a9004600160a060020a0316600160a060020a0316638da5cb5b6040518163ffffffff1660e060020a028152600401602060405180830381600087803b158015611e9757600080fd5b505af1158015611eab573d6000803e3d6000fd5b505050506040513d6020811015611ec157600080fd5b505160005433600160a060020a039283168114945091161490508180611ee45750805b80611f7457506001546040805160e060020a638658b8b9028152336004820152306024820152604481018690529051600160a060020a0390921691638658b8b9916064808201926020929091908290030181600087803b158015611f4757600080fd5b505af1158015611f5b573d6000803e3d6000fd5b505050506040513d6020811015611f7157600080fd5b50515b1515611fb8576040805160e560020a62461bcd028152602060048201526017602482015260008051602061399f833981519152604482015290519081900360640190fd5b6000858152600360205260409020600101541515612020576040805160e560020a62461bcd02815260206004820152601c60248201527f426c61636b6c697374207479706520646f65736e277420657869737400000000604482015290519081900360640190fd5b61202c878787876135d2565b604080516060818101835289825260208083018a815283850189815260008b81526003845286902094518555905160018501555160029093019290925582518a8152918201899052818301889052810186905290517fb2c5bdf700e8743e7bddfaad6079f28da0b312190dd5dc1d5dfe9860fd963be89181900360800190a150505050505050565b600060d960020a6420a226a4a702600080600160009054906101000a9004600160a060020a0316600160a060020a0316638da5cb5b6040518163ffffffff1660e060020a028152600401602060405180830381600087803b15801561211857600080fd5b505af115801561212c573d6000803e3d6000fd5b505050506040513d602081101561214257600080fd5b505160005433600160a060020a0392831681149450911614905081806121655750805b806121f557506001546040805160e060020a638658b8b9028152336004820152306024820152604481018690529051600160a060020a0390921691638658b8b9916064808201926020929091908290030181600087803b1580156121c857600080fd5b505af11580156121dc573d6000803e3d6000fd5b505050506040513d60208110156121f257600080fd5b50515b1515612239576040805160e560020a62461bcd028152602060048201526017602482015260008051602061399f833981519152604482015290519081900360640190fd5b8a8914801561224757508887145b801561225257508685145b1515612296576040805160e560020a62461bcd02815260206004820152601d602482015260008051602061397f833981519152604482015290519081900360640190fd5b600093505b8a8410156113df576122fe8c8c868181106122b257fe5b905060200201358b8b8781811015156122c757fe5b905060200201358a8a8881811015156122dc57fe5b602002919091013590508989898181106122f257fe5b905060200201356136cd565b60019093019261229b565b60025474010000000000000000000000000000000000000000900460ff1681565b60007f4645455f41444d494e0000000000000000000000000000000000000000000000600080600160009054906101000a9004600160a060020a0316600160a060020a0316638da5cb5b6040518163ffffffff1660e060020a028152600401602060405180830381600087803b1580156123a357600080fd5b505af11580156123b7573d6000803e3d6000fd5b505050506040513d60208110156123cd57600080fd5b505160005433600160a060020a0392831681149450911614905081806123f05750805b8061248057506001546040805160e060020a638658b8b9028152336004820152306024820152604481018690529051600160a060020a0390921691638658b8b9916064808201926020929091908290030181600087803b15801561245357600080fd5b505af1158015612467573d6000803e3d6000fd5b505050506040513d602081101561247d57600080fd5b50515b15156124c4576040805160e560020a62461bcd028152602060048201526017602482015260008051602061399f833981519152604482015290519081900360640190fd5b60025460015460008054604080517f8da5cb5b0000000000000000000000000000000000000000000000000000000081529051600160a060020a03958616956323b872dd95811694931692638da5cb5b92600480820193602093909283900390910190829087803b15801561253857600080fd5b505af115801561254c573d6000803e3d6000fd5b505050506040513d602081101561256257600080fd5b50516040805160e060020a63ffffffff8616028152600160a060020a039384166004820152929091166024830152604482018990525160648083019260209291908290030181600087803b1580156125b957600080fd5b505af11580156125cd573d6000803e3d6000fd5b505050506040513d60208110156125e357600080fd5b5051151561263b576040805160e560020a62461bcd02815260206004820152601260248201527f556e61626c6520746f2074616b65206665650000000000000000000000000000604482015290519081900360640190fd5b506001949350505050565b600060d960020a6420a226a4a702600080600160009054906101000a9004600160a060020a0316600160a060020a0316638da5cb5b6040518163ffffffff1660e060020a028152600401602060405180830381600087803b1580156126aa57600080fd5b505af11580156126be573d6000803e3d6000fd5b505050506040513d60208110156126d457600080fd5b505160005433600160a060020a0392831681149450911614905081806126f75750805b8061278757506001546040805160e060020a638658b8b9028152336004820152306024820152604481018690529051600160a060020a0390921691638658b8b9916064808201926020929091908290030181600087803b15801561275a57600080fd5b505af115801561276e573d6000803e3d6000fd5b505050506040513d602081101561278457600080fd5b50515b15156127cb576040805160e560020a62461bcd028152602060048201526017602482015260008051602061399f833981519152604482015290519081900360640190fd5b600093505b85841015612808576127fd8787868181106127e757fe5b90506020020135600160a060020a031686610748565b6001909301926127d0565b50505050505050565b600254600160a060020a031681565b600060d960020a6420a226a4a702600080600160009054906101000a9004600160a060020a0316600160a060020a0316638da5cb5b6040518163ffffffff1660e060020a028152600401602060405180830381600087803b15801561288457600080fd5b505af1158015612898573d6000803e3d6000fd5b505050506040513d60208110156128ae57600080fd5b505160005433600160a060020a0392831681149450911614905081806128d15750805b8061296157506001546040805160e060020a638658b8b9028152336004820152306024820152604481018690529051600160a060020a0390921691638658b8b9916064808201926020929091908290030181600087803b15801561293457600080fd5b505af1158015612948573d6000803e3d6000fd5b505050506040513d602081101561295e57600080fd5b50515b15156129a5576040805160e560020a62461bcd028152602060048201526017602482015260008051602061399f833981519152604482015290519081900360640190fd5b600093505b84841015610f59576129d18686868181106129c157fe5b90506020020135600019166119e4565b6001909301926129aa565b600060d960020a6420a226a4a702600080600160009054906101000a9004600160a060020a0316600160a060020a0316638da5cb5b6040518163ffffffff1660e060020a028152600401602060405180830381600087803b158015612a4057600080fd5b505af1158015612a54573d6000803e3d6000fd5b505050506040513d6020811015612a6a57600080fd5b505160005433600160a060020a039283168114945091161490508180612a8d5750805b80612b1d57506001546040805160e060020a638658b8b9028152336004820152306024820152604481018690529051600160a060020a0390921691638658b8b9916064808201926020929091908290030181600087803b158015612af057600080fd5b505af1158015612b04573d6000803e3d6000fd5b505050506040513d6020811015612b1a57600080fd5b50515b1515612b61576040805160e560020a62461bcd028152602060048201526017602482015260008051602061399f833981519152604482015290519081900360640190fd5b868514612ba6576040805160e560020a62461bcd02815260206004820152601d602482015260008051602061397f833981519152604482015290519081900360640190fd5b600093505b8684101561118057612bf0888886818110612bc257fe5b90506020020135600160a060020a03168787878181101515612be057fe5b90506020020135600019166113ed565b600190930192612bab565b600160a060020a03811660009081526004602090815260409182902080548351818402810184019094528084526060939283018282801561073657602002820191906000526020600020905b81548152600190910190602001808311612c475750505050509050919050565b600160009054906101000a9004600160a060020a0316600160a060020a0316638da5cb5b6040518163ffffffff1660e060020a028152600401602060405180830381600087803b158015612cba57600080fd5b505af1158015612cce573d6000803e3d6000fd5b505050506040513d6020811015612ce457600080fd5b5051600160a060020a03163314612d45576040805160e560020a62461bcd02815260206004820152601360248201527f53656e646572206973206e6f74206f776e657200000000000000000000000000604482015290519081900360640190fd5b611e336137fc565b600060d960020a6420a226a4a702600080600160009054906101000a9004600160a060020a0316600160a060020a0316638da5cb5b6040518163ffffffff1660e060020a028152600401602060405180830381600087803b158015612db157600080fd5b505af1158015612dc5573d6000803e3d6000fd5b505050506040513d6020811015612ddb57600080fd5b505160005433600160a060020a039283168114945091161490508180612dfe5750805b80612e8e57506001546040805160e060020a638658b8b9028152336004820152306024820152604481018690529051600160a060020a0390921691638658b8b9916064808201926020929091908290030181600087803b158015612e6157600080fd5b505af1158015612e75573d6000803e3d6000fd5b505050506040513d6020811015612e8b57600080fd5b50515b1515612ed2576040805160e560020a62461bcd028152602060048201526017602482015260008051602061399f833981519152604482015290519081900360640190fd5b600093505b84841015610f5957612f03868686818110612eee57fe5b90506020020135600160a060020a0316610c5f565b600190930192612ed7565b600154600160a060020a031681565b6040805160018082528183019092526060918291906020808301908038833901905050905060d960020a6420a226a4a702816000815181101515612f5d57fe5b602090810290910101529050805b5090565b600054600160a060020a031681565b60d960020a6420a226a4a702600080600160009054906101000a9004600160a060020a0316600160a060020a0316638da5cb5b6040518163ffffffff1660e060020a028152600401602060405180830381600087803b158015612fe057600080fd5b505af1158015612ff4573d6000803e3d6000fd5b505050506040513d602081101561300a57600080fd5b505160005433600160a060020a03928316811494509116149050818061302d5750805b806130bd57506001546040805160e060020a638658b8b9028152336004820152306024820152604481018690529051600160a060020a0390921691638658b8b9916064808201926020929091908290030181600087803b15801561309057600080fd5b505af11580156130a4573d6000803e3d6000fd5b505050506040513d60208110156130ba57600080fd5b50515b1515613101576040805160e560020a62461bcd028152602060048201526017602482015260008051602061399f833981519152604482015290519081900360640190fd5b61310d888888886136cd565b6111808487610748565b6060600880548060200260200160405190810160405280929190818152602001828054801561316657602002820191906000526020600020905b81548152600190910190602001808311613151575b5050505050905090565b7f4645455f41444d494e000000000000000000000000000000000000000000000081565b600080600080600080600260149054906101000a900460ff16151561336957600160a060020a038b166000908152600460205260409020541561336957600094505b600160a060020a038b1660009081526004602052604090205485101561336957600160a060020a038b166000908152600460205260408120805460039291908890811061321f57fe5b60009182526020808320909101548352828101939093526040918201812060010154600160a060020a038f168252600490935290812080549296506003928890811061326757fe5b60009182526020808320909101548352828101939093526040918201812054600160a060020a038f16825260049093529081208054929550600392889081106132ac57fe5b90600052602060002001546000191660001916815260200190815260200160002060020154620151800291508242111561335e57613300826132f4428663ffffffff6138d916565b9063ffffffff6138f016565b905042613323613316848463ffffffff61390516565b859063ffffffff61392e16565b1115801561335057504261334d613340848463ffffffff61390516565b869063ffffffff61392e16565b10155b1561335e576000955061336e565b6001909401936131d6565b600195505b505050505095945050505050565b60d960020a6420a226a4a702600080600160009054906101000a9004600160a060020a0316600160a060020a0316638da5cb5b6040518163ffffffff1660e060020a028152600401602060405180830381600087803b1580156133de57600080fd5b505af11580156133f2573d6000803e3d6000fd5b505050506040513d602081101561340857600080fd5b505160005433600160a060020a03928316811494509116149050818061342b5750805b806134bb57506001546040805160e060020a638658b8b9028152336004820152306024820152604481018690529051600160a060020a0390921691638658b8b9916064808201926020929091908290030181600087803b15801561348e57600080fd5b505af11580156134a2573d6000803e3d6000fd5b505050506040513d60208110156134b857600080fd5b50515b15156134ff576040805160e560020a62461bcd028152602060048201526017602482015260008051602061399f833981519152604482015290519081900360640190fd5b612808878787876136cd565b60025474010000000000000000000000000000000000000000900460ff16151561357f576040805160e560020a62461bcd02815260206004820152601660248201527f436f6e7472616374206973206e6f742070617573656400000000000000000000604482015290519081900360640190fd5b6002805474ff0000000000000000000000000000000000000000191690556040805142815290517faaa520fdd7d2c83061d632fa017b0432407e798818af63ea908589fceda39ab79181900360200190a1565b811515613629576040805160e560020a62461bcd02815260206004820152601660248201527f496e76616c696420626c61636b6c697374206e616d6500000000000000000000604482015290519081900360640190fd5b42841015801561363857508284105b151561368e576040805160e560020a62461bcd02815260206004820152601960248201527f496e76616c6964207374617274206f7220656e64206461746500000000000000604482015290519081900360640190fd5b61369e838563ffffffff6138d916565b6136b1826201518063ffffffff61390516565b1015806136bc575080155b15156136c757600080fd5b50505050565b60008281526003602052604090206001015415613734576040805160e560020a62461bcd02815260206004820152601c60248201527f426c61636b6c697374207479706520616c726561647920657869737400000000604482015290519081900360640190fd5b613740848484846135d2565b60408051606081810183528682526020808301878152838501868152600088815260038452868120955186559151600180870191909155905160029095019490945560088054948501815590527ff3f7a9fe364faab93b216da50a3214154f22a0a2b415b23a84c8169e8b636ee39092018590558251878152918201869052818301859052810183905290517f6af458baec4e7aafeafbdc22a9f909eb7c410cd0dbb2bf6759d9c95476dc2ef29181900360800190a150505050565b60025474010000000000000000000000000000000000000000900460ff161561386f576040805160e560020a62461bcd02815260206004820152601260248201527f436f6e7472616374206973207061757365640000000000000000000000000000604482015290519081900360640190fd5b6002805474ff00000000000000000000000000000000000000001916740100000000000000000000000000000000000000001790556040805142815290517f68b095021b1f40fe513109f513c66692f0b3219aee674a69f4efc57badb8201d9181900360200190a1565b6000828211156138e557fe5b508082035b92915050565b600081838115156138fd57fe5b049392505050565b6000821515613916575060006138ea565b5081810281838281151561392657fe5b04146138ea57fe5b818101828110156138ea57fe5b81548183558181111561395f5760008381526020902061395f918101908301613964565b505050565b61074591905b80821115612f6b576000815560010161396a5600496e7075742061727261792773206c656e677468206d69736d617463680000005065726d697373696f6e20636865636b206661696c6564000000000000000000a165627a7a723058206eac12fd8aee477df3605c63bdb588f1d228593c4ecf66a02290c6c2180b81ab0029a165627a7a723058202d0da77a2dffe32f8256e8ba1fd7cf47761cad544aa4de2a681925e1a53cfd780029",
  "source": "pragma solidity ^0.4.24;\n\nimport \"./BlacklistTransferManager.sol\";\nimport \"../../ModuleFactory.sol\";\nimport \"../../../libraries/Util.sol\";\n\n/**\n * @title Factory for deploying BlacklistManager module\n */\ncontract BlacklistTransferManagerFactory is ModuleFactory {\n\n    /**\n     * @notice Constructor\n     * @param _polyAddress Address of the polytoken\n     * @param _setupCost Setup cost of the module\n     * @param _usageCost Usage cost of the module\n     * @param _subscriptionCost Subscription cost of the module\n     */\n    constructor (address _polyAddress, uint256 _setupCost, uint256 _usageCost, uint256 _subscriptionCost) public\n    ModuleFactory(_polyAddress, _setupCost, _usageCost, _subscriptionCost)\n    {   \n        version = \"2.1.0\";\n        name = \"BlacklistTransferManager\";\n        title = \"Blacklist Transfer Manager\";\n        description = \"Automate blacklist to restrict selling\";\n        compatibleSTVersionRange[\"lowerBound\"] = VersionUtils.pack(uint8(0), uint8(0), uint8(0));\n        compatibleSTVersionRange[\"upperBound\"] = VersionUtils.pack(uint8(0), uint8(0), uint8(0));\n    }\n\n     /**\n     * @notice used to launch the Module with the help of factory\n     * @return address Contract address of the Module\n     */\n    function deploy(bytes /* _data */) external returns(address) {\n        if (setupCost > 0)\n            require(polyToken.transferFrom(msg.sender, owner, setupCost), \"Failed transferFrom because of sufficent Allowance is not provided\");\n        address blacklistTransferManager = new BlacklistTransferManager(msg.sender, address(polyToken));\n        /*solium-disable-next-line security/no-block-members*/\n        emit GenerateModuleFromFactory(address(blacklistTransferManager), getName(), address(this), msg.sender, setupCost, now);\n        return address(blacklistTransferManager);\n    }\n\n    /**\n     * @notice Type of the Module factory\n     */\n    function getTypes() external view returns(uint8[]) {\n        uint8[] memory res = new uint8[](1);\n        res[0] = 2;\n        return res;\n    }\n\n    /**\n     * @notice Get the Instructions that helped to used the module\n     */\n    function getInstructions() public view returns(string) {\n        return \"Allows an issuer to blacklist the addresses.\";\n    }\n\n    /**\n     * @notice Get the tags related to the module factory\n     */\n    function getTags() public view returns(bytes32[]) {\n        bytes32[] memory availableTags = new bytes32[](2);\n        availableTags[0] = \"Blacklist\";\n        availableTags[1] = \"Restricted transfer\";\n        return availableTags;\n    }\n\n\n}\n",
  "sourcePath": "/Users/jere/Code/polymath-apps/packages/new-polymath-scripts/src/generateLocalBlockchain/contracts/modules/Experimental/TransferManager/BlacklistTransferManagerFactory.sol",
  "compiler": {
    "name": "solc",
    "version": "0.4.24+commit.e67f0147.Emscripten.clang"
  },
  "schemaVersion": "2.0.1",
  "updatedAt": "2019-02-06T16:02:42.800Z"
}