{
  "contractName": "BlacklistTransferManager",
  "abi": [
    {
      "constant": true,
      "inputs": [
        {
          "name": "",
          "type": "bytes32"
        }
      ],
      "name": "blacklists",
      "outputs": [
        {
          "name": "startTime",
          "type": "uint256"
        },
        {
          "name": "endTime",
          "type": "uint256"
        },
        {
          "name": "repeatPeriodTime",
          "type": "uint256"
        }
      ],
      "payable": false,
      "stateMutability": "view",
      "type": "function"
    },
    {
      "constant": true,
      "inputs": [],
      "name": "ADMIN",
      "outputs": [
        {
          "name": "",
          "type": "bytes32"
        }
      ],
      "payable": false,
      "stateMutability": "view",
      "type": "function"
    },
    {
      "constant": false,
      "inputs": [],
      "name": "unpause",
      "outputs": [],
      "payable": false,
      "stateMutability": "nonpayable",
      "type": "function"
    },
    {
      "constant": true,
      "inputs": [],
      "name": "paused",
      "outputs": [
        {
          "name": "",
          "type": "bool"
        }
      ],
      "payable": false,
      "stateMutability": "view",
      "type": "function"
    },
    {
      "constant": false,
      "inputs": [
        {
          "name": "_amount",
          "type": "uint256"
        }
      ],
      "name": "takeFee",
      "outputs": [
        {
          "name": "",
          "type": "bool"
        }
      ],
      "payable": false,
      "stateMutability": "nonpayable",
      "type": "function"
    },
    {
      "constant": true,
      "inputs": [],
      "name": "polyToken",
      "outputs": [
        {
          "name": "",
          "type": "address"
        }
      ],
      "payable": false,
      "stateMutability": "view",
      "type": "function"
    },
    {
      "constant": false,
      "inputs": [],
      "name": "pause",
      "outputs": [],
      "payable": false,
      "stateMutability": "nonpayable",
      "type": "function"
    },
    {
      "constant": true,
      "inputs": [],
      "name": "securityToken",
      "outputs": [
        {
          "name": "",
          "type": "address"
        }
      ],
      "payable": false,
      "stateMutability": "view",
      "type": "function"
    },
    {
      "constant": true,
      "inputs": [],
      "name": "factory",
      "outputs": [
        {
          "name": "",
          "type": "address"
        }
      ],
      "payable": false,
      "stateMutability": "view",
      "type": "function"
    },
    {
      "constant": true,
      "inputs": [],
      "name": "FEE_ADMIN",
      "outputs": [
        {
          "name": "",
          "type": "bytes32"
        }
      ],
      "payable": false,
      "stateMutability": "view",
      "type": "function"
    },
    {
      "inputs": [
        {
          "name": "_securityToken",
          "type": "address"
        },
        {
          "name": "_polyAddress",
          "type": "address"
        }
      ],
      "payable": false,
      "stateMutability": "nonpayable",
      "type": "constructor"
    },
    {
      "anonymous": false,
      "inputs": [
        {
          "indexed": false,
          "name": "_startTime",
          "type": "uint256"
        },
        {
          "indexed": false,
          "name": "_endTime",
          "type": "uint256"
        },
        {
          "indexed": false,
          "name": "_blacklistName",
          "type": "bytes32"
        },
        {
          "indexed": false,
          "name": "_repeatPeriodTime",
          "type": "uint256"
        }
      ],
      "name": "AddBlacklistType",
      "type": "event"
    },
    {
      "anonymous": false,
      "inputs": [
        {
          "indexed": false,
          "name": "_startTime",
          "type": "uint256"
        },
        {
          "indexed": false,
          "name": "_endTime",
          "type": "uint256"
        },
        {
          "indexed": false,
          "name": "_blacklistName",
          "type": "bytes32"
        },
        {
          "indexed": false,
          "name": "_repeatPeriodTime",
          "type": "uint256"
        }
      ],
      "name": "ModifyBlacklistType",
      "type": "event"
    },
    {
      "anonymous": false,
      "inputs": [
        {
          "indexed": false,
          "name": "_blacklistName",
          "type": "bytes32"
        }
      ],
      "name": "DeleteBlacklistType",
      "type": "event"
    },
    {
      "anonymous": false,
      "inputs": [
        {
          "indexed": true,
          "name": "_investor",
          "type": "address"
        },
        {
          "indexed": false,
          "name": "_blacklistName",
          "type": "bytes32"
        }
      ],
      "name": "AddInvestorToBlacklist",
      "type": "event"
    },
    {
      "anonymous": false,
      "inputs": [
        {
          "indexed": true,
          "name": "_investor",
          "type": "address"
        },
        {
          "indexed": false,
          "name": "_blacklistName",
          "type": "bytes32"
        }
      ],
      "name": "DeleteInvestorFromBlacklist",
      "type": "event"
    },
    {
      "anonymous": false,
      "inputs": [
        {
          "indexed": false,
          "name": "_timestammp",
          "type": "uint256"
        }
      ],
      "name": "Pause",
      "type": "event"
    },
    {
      "anonymous": false,
      "inputs": [
        {
          "indexed": false,
          "name": "_timestamp",
          "type": "uint256"
        }
      ],
      "name": "Unpause",
      "type": "event"
    },
    {
      "constant": true,
      "inputs": [],
      "name": "getInitFunction",
      "outputs": [
        {
          "name": "",
          "type": "bytes4"
        }
      ],
      "payable": false,
      "stateMutability": "pure",
      "type": "function"
    },
    {
      "constant": false,
      "inputs": [
        {
          "name": "_from",
          "type": "address"
        },
        {
          "name": "",
          "type": "address"
        },
        {
          "name": "",
          "type": "uint256"
        },
        {
          "name": "",
          "type": "bytes"
        },
        {
          "name": "",
          "type": "bool"
        }
      ],
      "name": "verifyTransfer",
      "outputs": [
        {
          "name": "",
          "type": "uint8"
        }
      ],
      "payable": false,
      "stateMutability": "nonpayable",
      "type": "function"
    },
    {
      "constant": false,
      "inputs": [
        {
          "name": "_startTime",
          "type": "uint256"
        },
        {
          "name": "_endTime",
          "type": "uint256"
        },
        {
          "name": "_blacklistName",
          "type": "bytes32"
        },
        {
          "name": "_repeatPeriodTime",
          "type": "uint256"
        }
      ],
      "name": "addBlacklistType",
      "outputs": [],
      "payable": false,
      "stateMutability": "nonpayable",
      "type": "function"
    },
    {
      "constant": false,
      "inputs": [
        {
          "name": "_startTimes",
          "type": "uint256[]"
        },
        {
          "name": "_endTimes",
          "type": "uint256[]"
        },
        {
          "name": "_blacklistNames",
          "type": "bytes32[]"
        },
        {
          "name": "_repeatPeriodTimes",
          "type": "uint256[]"
        }
      ],
      "name": "addBlacklistTypeMulti",
      "outputs": [],
      "payable": false,
      "stateMutability": "nonpayable",
      "type": "function"
    },
    {
      "constant": false,
      "inputs": [
        {
          "name": "_startTime",
          "type": "uint256"
        },
        {
          "name": "_endTime",
          "type": "uint256"
        },
        {
          "name": "_blacklistName",
          "type": "bytes32"
        },
        {
          "name": "_repeatPeriodTime",
          "type": "uint256"
        }
      ],
      "name": "modifyBlacklistType",
      "outputs": [],
      "payable": false,
      "stateMutability": "nonpayable",
      "type": "function"
    },
    {
      "constant": false,
      "inputs": [
        {
          "name": "_startTimes",
          "type": "uint256[]"
        },
        {
          "name": "_endTimes",
          "type": "uint256[]"
        },
        {
          "name": "_blacklistNames",
          "type": "bytes32[]"
        },
        {
          "name": "_repeatPeriodTimes",
          "type": "uint256[]"
        }
      ],
      "name": "modifyBlacklistTypeMulti",
      "outputs": [],
      "payable": false,
      "stateMutability": "nonpayable",
      "type": "function"
    },
    {
      "constant": false,
      "inputs": [
        {
          "name": "_blacklistName",
          "type": "bytes32"
        }
      ],
      "name": "deleteBlacklistType",
      "outputs": [],
      "payable": false,
      "stateMutability": "nonpayable",
      "type": "function"
    },
    {
      "constant": false,
      "inputs": [
        {
          "name": "_blacklistNames",
          "type": "bytes32[]"
        }
      ],
      "name": "deleteBlacklistTypeMulti",
      "outputs": [],
      "payable": false,
      "stateMutability": "nonpayable",
      "type": "function"
    },
    {
      "constant": false,
      "inputs": [
        {
          "name": "_investor",
          "type": "address"
        },
        {
          "name": "_blacklistName",
          "type": "bytes32"
        }
      ],
      "name": "addInvestorToBlacklist",
      "outputs": [],
      "payable": false,
      "stateMutability": "nonpayable",
      "type": "function"
    },
    {
      "constant": false,
      "inputs": [
        {
          "name": "_investors",
          "type": "address[]"
        },
        {
          "name": "_blacklistName",
          "type": "bytes32"
        }
      ],
      "name": "addInvestorToBlacklistMulti",
      "outputs": [],
      "payable": false,
      "stateMutability": "nonpayable",
      "type": "function"
    },
    {
      "constant": false,
      "inputs": [
        {
          "name": "_investors",
          "type": "address[]"
        },
        {
          "name": "_blacklistNames",
          "type": "bytes32[]"
        }
      ],
      "name": "addMultiInvestorToBlacklistMulti",
      "outputs": [],
      "payable": false,
      "stateMutability": "nonpayable",
      "type": "function"
    },
    {
      "constant": false,
      "inputs": [
        {
          "name": "_startTime",
          "type": "uint256"
        },
        {
          "name": "_endTime",
          "type": "uint256"
        },
        {
          "name": "_blacklistName",
          "type": "bytes32"
        },
        {
          "name": "_repeatPeriodTime",
          "type": "uint256"
        },
        {
          "name": "_investor",
          "type": "address"
        }
      ],
      "name": "addInvestorToNewBlacklist",
      "outputs": [],
      "payable": false,
      "stateMutability": "nonpayable",
      "type": "function"
    },
    {
      "constant": false,
      "inputs": [
        {
          "name": "_investor",
          "type": "address"
        }
      ],
      "name": "deleteInvestorFromAllBlacklist",
      "outputs": [],
      "payable": false,
      "stateMutability": "nonpayable",
      "type": "function"
    },
    {
      "constant": false,
      "inputs": [
        {
          "name": "_investor",
          "type": "address[]"
        }
      ],
      "name": "deleteInvestorFromAllBlacklistMulti",
      "outputs": [],
      "payable": false,
      "stateMutability": "nonpayable",
      "type": "function"
    },
    {
      "constant": false,
      "inputs": [
        {
          "name": "_investor",
          "type": "address"
        },
        {
          "name": "_blacklistName",
          "type": "bytes32"
        }
      ],
      "name": "deleteInvestorFromBlacklist",
      "outputs": [],
      "payable": false,
      "stateMutability": "nonpayable",
      "type": "function"
    },
    {
      "constant": false,
      "inputs": [
        {
          "name": "_investors",
          "type": "address[]"
        },
        {
          "name": "_blacklistNames",
          "type": "bytes32[]"
        }
      ],
      "name": "deleteMultiInvestorsFromBlacklistMulti",
      "outputs": [],
      "payable": false,
      "stateMutability": "nonpayable",
      "type": "function"
    },
    {
      "constant": true,
      "inputs": [
        {
          "name": "_blacklistName",
          "type": "bytes32"
        }
      ],
      "name": "getListOfAddresses",
      "outputs": [
        {
          "name": "",
          "type": "address[]"
        }
      ],
      "payable": false,
      "stateMutability": "view",
      "type": "function"
    },
    {
      "constant": true,
      "inputs": [
        {
          "name": "_user",
          "type": "address"
        }
      ],
      "name": "getBlacklistNamesToUser",
      "outputs": [
        {
          "name": "",
          "type": "bytes32[]"
        }
      ],
      "payable": false,
      "stateMutability": "view",
      "type": "function"
    },
    {
      "constant": true,
      "inputs": [],
      "name": "getAllBlacklists",
      "outputs": [
        {
          "name": "",
          "type": "bytes32[]"
        }
      ],
      "payable": false,
      "stateMutability": "view",
      "type": "function"
    },
    {
      "constant": true,
      "inputs": [],
      "name": "getPermissions",
      "outputs": [
        {
          "name": "",
          "type": "bytes32[]"
        }
      ],
      "payable": false,
      "stateMutability": "view",
      "type": "function"
    }
  ],
  "bytecode": "0x60806040526002805460a060020a60ff021916905534801561002057600080fd5b50604051604080613a6b83398101604052805160209091015160018054600160a060020a03938416600160a060020a03199182161790915560008054821633179055600280549390921692169190911790556139ea806100816000396000f3006080604052600436106101665763ffffffff60e060020a60003504166311e0f35a811461016b5780631613ec9d146101d357806318c8bf001461021d578063195ffe1f146102435780631bf2d88f146102645780631ecb1a2a146102905780631f8e8e99146102d45780632598fd71146102f85780632a0acc6a1461032e5780632feea1fc146103555780633f4ba83a1461036d5780634c81dbab146103825780634da43462146103a35780635c975abb146103e75780635f7619a41461041057806364770d66146104285780636faa22a51461044c57806370ed53911461047d57806372a817621461049d57806379212819146104c95780638456cb59146104ea578063ad8d542d146104ff578063b84dfbd21461051f578063c3a07df614610534578063c45a015514610549578063cf2bd3a81461055e578063d26413051461058b578063d70afa96146105a0578063de6ee1bc146105b5578063e0d7b0441461064c575b600080fd5b34801561017757600080fd5b5061018360043561066d565b60408051602080825283518183015283519192839290830191858101910280838360005b838110156101bf5781810151838201526020016101a7565b505050509050019250505060405180910390f35b3480156101df57600080fd5b506101e8610742565b604080517fffffffff000000000000000000000000000000000000000000000000000000009092168252519081900360200190f35b34801561022957600080fd5b50610241600160a060020a0360043516602435610748565b005b34801561024f57600080fd5b50610241600160a060020a0360043516610c5f565b34801561027057600080fd5b506102416024600480358281019290820135918135918201910135610f61565b34801561029c57600080fd5b50610241602460048035828101929082013591813580830192908201359160443580830192908201359160643591820191013561118a565b3480156102e057600080fd5b50610241600160a060020a03600435166024356113ed565b34801561030457600080fd5b506103106004356119b4565b60408051938452602084019290925282820152519081900360600190f35b34801561033a57600080fd5b506103436119d5565b60408051918252519081900360200190f35b34801561036157600080fd5b506102416004356119e4565b34801561037957600080fd5b50610241611d4d565b34801561038e57600080fd5b50610241600435602435604435606435611e35565b3480156103af57600080fd5b5061024160246004803582810192908201359181358083019290820135916044358083019290820135916064359182019101356120b4565b3480156103f357600080fd5b506103fc612309565b604080519115158252519081900360200190f35b34801561041c57600080fd5b506103fc60043561232a565b34801561043457600080fd5b50610241602460048035828101929101359035612646565b34801561045857600080fd5b50610461612811565b60408051600160a060020a039092168252519081900360200190f35b34801561048957600080fd5b506102416004803560248101910135612820565b3480156104a957600080fd5b5061024160246004803582810192908201359181359182019101356129dc565b3480156104d557600080fd5b50610183600160a060020a0360043516612bfb565b3480156104f657600080fd5b50610241612c67565b34801561050b57600080fd5b506102416004803560248101910135612d4d565b34801561052b57600080fd5b50610461612f0e565b34801561054057600080fd5b50610183612f1d565b34801561055557600080fd5b50610461612f6f565b34801561056a57600080fd5b50610241600435602435604435606435600160a060020a0360843516612f7e565b34801561059757600080fd5b50610183613117565b3480156105ac57600080fd5b50610343613170565b3480156105c157600080fd5b50604080516020601f60643560048181013592830184900484028501840190955281845261062894600160a060020a038135811695602480359092169560443595369560849401918190840183828082843750949750505050913515159250613194915050565b6040518082600381111561063857fe5b60ff16815260200191505060405180910390f35b34801561065857600080fd5b5061024160043560243560443560643561337c565b60008181526003602052604090206001015460609015156106d8576040805160e560020a62461bcd02815260206004820152601c60248201527f426c61636b6c697374207479706520646f65736e277420657869737400000000604482015290519081900360640190fd5b6000828152600560209081526040918290208054835181840281018401909452808452909183018282801561073657602002820191906000526020600020905b8154600160a060020a03168152600190910190602001808311610718575b50505050509050919050565b60005b90565b600080600060d960020a6420a226a4a702600080600160009054906101000a9004600160a060020a0316600160a060020a0316638da5cb5b6040518163ffffffff1660e060020a028152600401602060405180830381600087803b1580156107af57600080fd5b505af11580156107c3573d6000803e3d6000fd5b505050506040513d60208110156107d957600080fd5b505160005433600160a060020a0392831681149450911614905081806107fc5750805b8061088c57506001546040805160e060020a638658b8b9028152336004820152306024820152604481018690529051600160a060020a0390921691638658b8b9916064808201926020929091908290030181600087803b15801561085f57600080fd5b505af1158015610873573d6000803e3d6000fd5b505050506040513d602081101561088957600080fd5b50515b15156108d0576040805160e560020a62461bcd028152602060048201526017602482015260008051602061399f833981519152604482015290519081900360640190fd5b6000878152600360205260409020600101541515610938576040805160e560020a62461bcd02815260206004820152601c60248201527f426c61636b6c697374207479706520646f65736e277420657869737400000000604482015290519081900360640190fd5b600160a060020a0388161515610998576040805160e560020a62461bcd02815260206004820152601860248201527f496e76616c696420696e766573746f7220616464726573730000000000000000604482015290519081900360640190fd5b600160a060020a03881660008181526006602090815260408083208b84528252808320549383526004909152902054909650861015610a8057600160a060020a03881660009081526004602052604090208054889190889081106109f857fe5b6000918252602090912001541415610a80576040805160e560020a62461bcd02815260206004820152602360248201527f426c61636b6c69737420616c726561647920616464656420746f20696e76657360448201527f746f720000000000000000000000000000000000000000000000000000000000606482015290519081900360840190fd5b6004600089600160a060020a0316600160a060020a0316815260200190815260200160002080549050945084600660008a600160a060020a0316600160a060020a0316815260200190815260200160002060008960001916600019168152602001908152602001600020819055506005600088600019166000191681526020019081526020016000208054905093508360076000896000191660001916815260200190815260200160002060008a600160a060020a0316600160a060020a03168152602001908152602001600020819055506004600089600160a060020a0316600160a060020a031681526020019081526020016000208790806001815401808255809150509060018203906000526020600020016000909192909190915090600019169055506005600088600019166000191681526020019081526020016000208890806001815401808255809150509060018203906000526020600020016000909192909190916101000a815481600160a060020a030219169083600160a060020a031602179055505087600160a060020a03167f5b953084d787f15ed1eddff977ee0d88fbf63e433c3cde8fbea7a4fc349d5f208860405180826000191660001916815260200191505060405180910390a25050505050505050565b60008060d960020a6420a226a4a702600080600160009054906101000a9004600160a060020a0316600160a060020a0316638da5cb5b6040518163ffffffff1660e060020a028152600401602060405180830381600087803b158015610cc457600080fd5b505af1158015610cd8573d6000803e3d6000fd5b505050506040513d6020811015610cee57600080fd5b505160005433600160a060020a039283168114945091161490508180610d115750805b80610da157506001546040805160e060020a638658b8b9028152336004820152306024820152604481018690529051600160a060020a0390921691638658b8b9916064808201926020929091908290030181600087803b158015610d7457600080fd5b505af1158015610d88573d6000803e3d6000fd5b505050506040513d6020811015610d9e57600080fd5b50515b1515610de5576040805160e560020a62461bcd028152602060048201526017602482015260008051602061399f833981519152604482015290519081900360640190fd5b600160a060020a0386161515610e45576040805160e560020a62461bcd02815260206004820152601860248201527f496e76616c696420696e766573746f7220616464726573730000000000000000604482015290519081900360640190fd5b600160a060020a0386166000908152600460205260409020541515610eda576040805160e560020a62461bcd02815260206004820152603060248201527f496e766573746f72206973206e6f74206173736f63696174656420746f20616e60448201527f7920626c61636b6c697374207479706500000000000000000000000000000000606482015290519081900360840190fd5b600160a060020a0386166000908152600460205260409020546000190194508493505b60008410158015610f0e5750848411155b15610f5957600160a060020a03861660009081526004602052604090208054610f4d91889187908110610f3d57fe5b90600052602060002001546113ed565b60001990930192610efd565b505050505050565b600060d960020a6420a226a4a702600080600160009054906101000a9004600160a060020a0316600160a060020a0316638da5cb5b6040518163ffffffff1660e060020a028152600401602060405180830381600087803b158015610fc557600080fd5b505af1158015610fd9573d6000803e3d6000fd5b505050506040513d6020811015610fef57600080fd5b505160005433600160a060020a0392831681149450911614905081806110125750805b806110a257506001546040805160e060020a638658b8b9028152336004820152306024820152604481018690529051600160a060020a0390921691638658b8b9916064808201926020929091908290030181600087803b15801561107557600080fd5b505af1158015611089573d6000803e3d6000fd5b505050506040513d602081101561109f57600080fd5b50515b15156110e6576040805160e560020a62461bcd028152602060048201526017602482015260008051602061399f833981519152604482015290519081900360640190fd5b86851461112b576040805160e560020a62461bcd02815260206004820152601d602482015260008051602061397f833981519152604482015290519081900360640190fd5b600093505b868410156111805761117588888681811061114757fe5b90506020020135600160a060020a0316878787818110151561116557fe5b9050602002013560001916610748565b600190930192611130565b5050505050505050565b600060d960020a6420a226a4a702600080600160009054906101000a9004600160a060020a0316600160a060020a0316638da5cb5b6040518163ffffffff1660e060020a028152600401602060405180830381600087803b1580156111ee57600080fd5b505af1158015611202573d6000803e3d6000fd5b505050506040513d602081101561121857600080fd5b505160005433600160a060020a03928316811494509116149050818061123b5750805b806112cb57506001546040805160e060020a638658b8b9028152336004820152306024820152604481018690529051600160a060020a0390921691638658b8b9916064808201926020929091908290030181600087803b15801561129e57600080fd5b505af11580156112b2573d6000803e3d6000fd5b505050506040513d60208110156112c857600080fd5b50515b151561130f576040805160e560020a62461bcd028152602060048201526017602482015260008051602061399f833981519152604482015290519081900360640190fd5b8a8914801561131d57508887145b801561132857508685145b151561136c576040805160e560020a62461bcd02815260206004820152601d602482015260008051602061397f833981519152604482015290519081900360640190fd5b600093505b8a8410156113df576113d48c8c8681811061138857fe5b905060200201358b8b87818110151561139d57fe5b905060200201358a8a8881811015156113b257fe5b602002919091013590508989898181106113c857fe5b90506020020135611e35565b600190930192611371565b505050505050505050505050565b600080600060d960020a6420a226a4a702600080600160009054906101000a9004600160a060020a0316600160a060020a0316638da5cb5b6040518163ffffffff1660e060020a028152600401602060405180830381600087803b15801561145457600080fd5b505af1158015611468573d6000803e3d6000fd5b505050506040513d602081101561147e57600080fd5b505160005433600160a060020a0392831681149450911614905081806114a15750805b8061153157506001546040805160e060020a638658b8b9028152336004820152306024820152604481018690529051600160a060020a0390921691638658b8b9916064808201926020929091908290030181600087803b15801561150457600080fd5b505af1158015611518573d6000803e3d6000fd5b505050506040513d602081101561152e57600080fd5b50515b1515611575576040805160e560020a62461bcd028152602060048201526017602482015260008051602061399f833981519152604482015290519081900360640190fd5b600160a060020a03881615156115d5576040805160e560020a62461bcd02815260206004820152601860248201527f496e76616c696420696e766573746f7220616464726573730000000000000000604482015290519081900360640190fd5b86151561162c576040805160e560020a62461bcd02815260206004820152601660248201527f496e76616c696420626c61636b6c697374206e616d6500000000000000000000604482015290519081900360640190fd5b600160a060020a0388166000908152600460209081526040808320600683528184208b855290925290912054815489929190811061166657fe5b600091825260209091200154146116ed576040805160e560020a62461bcd02815260206004820152602860248201527f496e766573746f72206e6f74206173736f63696174656420746f20746865206260448201527f6c61636b6c697374000000000000000000000000000000000000000000000000606482015290519081900360840190fd5b6000878152600760209081526040808320600160a060020a038c1684528252808320548a8452600590925290912054909650945060001985018610156118025760008781526005602052604090208054600019870190811061174b57fe5b6000918252602080832090910154898352600590915260409091208054600160a060020a03909216918890811061177e57fe5b6000918252602080832091909101805473ffffffffffffffffffffffffffffffffffffffff1916600160a060020a0394909416939093179092558881526007825260408082206005909352812080548993929190849081106117dc57fe5b6000918252602080832090910154600160a060020a031683528201929092526040019020555b600087815260056020526040902080549061182190600019830161393b565b506000878152600760209081526040808320600160a060020a038c16808552908352818420849055600683528184208b855283528184205490845260049092529091205495509350600019850184101561192857600160a060020a03881660009081526004602052604090208054600019870190811061189d57fe5b6000918252602080832090910154600160a060020a038b168352600490915260409091208054869081106118cd57fe5b6000918252602080832090910192909255600160a060020a038a16815260068252604080822060049093528120805487939291908490811061190b57fe5b600091825260208083209091015483528201929092526040019020555b600160a060020a038816600090815260046020526040902080549061195190600019830161393b565b50600160a060020a03881660008181526006602090815260408083208b845282528083209290925581518a815291517fdc247bce63fa5a88389ddfd97f7b059027da8b117fc802b3ebb5ec71b66a577a9281900390910190a25050505050505050565b60036020526000908152604090208054600182015460029092015490919083565b60d960020a6420a226a4a70281565b600060d960020a6420a226a4a702600080600160009054906101000a9004600160a060020a0316600160a060020a0316638da5cb5b6040518163ffffffff1660e060020a028152600401602060405180830381600087803b158015611a4857600080fd5b505af1158015611a5c573d6000803e3d6000fd5b505050506040513d6020811015611a7257600080fd5b505160005433600160a060020a039283168114945091161490508180611a955750805b80611b2557506001546040805160e060020a638658b8b9028152336004820152306024820152604481018690529051600160a060020a0390921691638658b8b9916064808201926020929091908290030181600087803b158015611af857600080fd5b505af1158015611b0c573d6000803e3d6000fd5b505050506040513d6020811015611b2257600080fd5b50515b1515611b69576040805160e560020a62461bcd028152602060048201526017602482015260008051602061399f833981519152604482015290519081900360640190fd5b6000858152600360205260409020600101541515611bd1576040805160e560020a62461bcd02815260206004820152601e60248201527f426c61636b6c697374207479706520646f65736ee28099742065786973740000604482015290519081900360640190fd5b60008581526005602052604090205415611c5b576040805160e560020a62461bcd02815260206004820152602b60248201527f496e766573746f727320617265206173736f636961746564207769746820746860448201527f6520626c61636b6c697374000000000000000000000000000000000000000000606482015290519081900360840190fd5b60008581526003602052604081208181556001810182905560020181905593505b600854841015611cb9576008805486919086908110611c9757fe5b6000918252602090912001541415611cae57611cb9565b600190930192611c7c565b600854600019018414611cff57600880546000198101908110611cd857fe5b9060005260206000200154600885815481101515611cf257fe5b6000918252602090912001555b6008805490611d1290600019830161393b565b506040805186815290517f9082b227000155e1d3efc115db206d54e4e64e204057aa3f1c7ad1ae0f5be0129181900360200190a15050505050565b600160009054906101000a9004600160a060020a0316600160a060020a0316638da5cb5b6040518163ffffffff1660e060020a028152600401602060405180830381600087803b158015611da057600080fd5b505af1158015611db4573d6000803e3d6000fd5b505050506040513d6020811015611dca57600080fd5b5051600160a060020a03163314611e2b576040805160e560020a62461bcd02815260206004820152601360248201527f53656e646572206973206e6f74206f776e657200000000000000000000000000604482015290519081900360640190fd5b611e3361350b565b565b60d960020a6420a226a4a702600080600160009054906101000a9004600160a060020a0316600160a060020a0316638da5cb5b6040518163ffffffff1660e060020a028152600401602060405180830381600087803b158015611e9757600080fd5b505af1158015611eab573d6000803e3d6000fd5b505050506040513d6020811015611ec157600080fd5b505160005433600160a060020a039283168114945091161490508180611ee45750805b80611f7457506001546040805160e060020a638658b8b9028152336004820152306024820152604481018690529051600160a060020a0390921691638658b8b9916064808201926020929091908290030181600087803b158015611f4757600080fd5b505af1158015611f5b573d6000803e3d6000fd5b505050506040513d6020811015611f7157600080fd5b50515b1515611fb8576040805160e560020a62461bcd028152602060048201526017602482015260008051602061399f833981519152604482015290519081900360640190fd5b6000858152600360205260409020600101541515612020576040805160e560020a62461bcd02815260206004820152601c60248201527f426c61636b6c697374207479706520646f65736e277420657869737400000000604482015290519081900360640190fd5b61202c878787876135d2565b604080516060818101835289825260208083018a815283850189815260008b81526003845286902094518555905160018501555160029093019290925582518a8152918201899052818301889052810186905290517fb2c5bdf700e8743e7bddfaad6079f28da0b312190dd5dc1d5dfe9860fd963be89181900360800190a150505050505050565b600060d960020a6420a226a4a702600080600160009054906101000a9004600160a060020a0316600160a060020a0316638da5cb5b6040518163ffffffff1660e060020a028152600401602060405180830381600087803b15801561211857600080fd5b505af115801561212c573d6000803e3d6000fd5b505050506040513d602081101561214257600080fd5b505160005433600160a060020a0392831681149450911614905081806121655750805b806121f557506001546040805160e060020a638658b8b9028152336004820152306024820152604481018690529051600160a060020a0390921691638658b8b9916064808201926020929091908290030181600087803b1580156121c857600080fd5b505af11580156121dc573d6000803e3d6000fd5b505050506040513d60208110156121f257600080fd5b50515b1515612239576040805160e560020a62461bcd028152602060048201526017602482015260008051602061399f833981519152604482015290519081900360640190fd5b8a8914801561224757508887145b801561225257508685145b1515612296576040805160e560020a62461bcd02815260206004820152601d602482015260008051602061397f833981519152604482015290519081900360640190fd5b600093505b8a8410156113df576122fe8c8c868181106122b257fe5b905060200201358b8b8781811015156122c757fe5b905060200201358a8a8881811015156122dc57fe5b602002919091013590508989898181106122f257fe5b905060200201356136cd565b60019093019261229b565b60025474010000000000000000000000000000000000000000900460ff1681565b60007f4645455f41444d494e0000000000000000000000000000000000000000000000600080600160009054906101000a9004600160a060020a0316600160a060020a0316638da5cb5b6040518163ffffffff1660e060020a028152600401602060405180830381600087803b1580156123a357600080fd5b505af11580156123b7573d6000803e3d6000fd5b505050506040513d60208110156123cd57600080fd5b505160005433600160a060020a0392831681149450911614905081806123f05750805b8061248057506001546040805160e060020a638658b8b9028152336004820152306024820152604481018690529051600160a060020a0390921691638658b8b9916064808201926020929091908290030181600087803b15801561245357600080fd5b505af1158015612467573d6000803e3d6000fd5b505050506040513d602081101561247d57600080fd5b50515b15156124c4576040805160e560020a62461bcd028152602060048201526017602482015260008051602061399f833981519152604482015290519081900360640190fd5b60025460015460008054604080517f8da5cb5b0000000000000000000000000000000000000000000000000000000081529051600160a060020a03958616956323b872dd95811694931692638da5cb5b92600480820193602093909283900390910190829087803b15801561253857600080fd5b505af115801561254c573d6000803e3d6000fd5b505050506040513d602081101561256257600080fd5b50516040805160e060020a63ffffffff8616028152600160a060020a039384166004820152929091166024830152604482018990525160648083019260209291908290030181600087803b1580156125b957600080fd5b505af11580156125cd573d6000803e3d6000fd5b505050506040513d60208110156125e357600080fd5b5051151561263b576040805160e560020a62461bcd02815260206004820152601260248201527f556e61626c6520746f2074616b65206665650000000000000000000000000000604482015290519081900360640190fd5b506001949350505050565b600060d960020a6420a226a4a702600080600160009054906101000a9004600160a060020a0316600160a060020a0316638da5cb5b6040518163ffffffff1660e060020a028152600401602060405180830381600087803b1580156126aa57600080fd5b505af11580156126be573d6000803e3d6000fd5b505050506040513d60208110156126d457600080fd5b505160005433600160a060020a0392831681149450911614905081806126f75750805b8061278757506001546040805160e060020a638658b8b9028152336004820152306024820152604481018690529051600160a060020a0390921691638658b8b9916064808201926020929091908290030181600087803b15801561275a57600080fd5b505af115801561276e573d6000803e3d6000fd5b505050506040513d602081101561278457600080fd5b50515b15156127cb576040805160e560020a62461bcd028152602060048201526017602482015260008051602061399f833981519152604482015290519081900360640190fd5b600093505b85841015612808576127fd8787868181106127e757fe5b90506020020135600160a060020a031686610748565b6001909301926127d0565b50505050505050565b600254600160a060020a031681565b600060d960020a6420a226a4a702600080600160009054906101000a9004600160a060020a0316600160a060020a0316638da5cb5b6040518163ffffffff1660e060020a028152600401602060405180830381600087803b15801561288457600080fd5b505af1158015612898573d6000803e3d6000fd5b505050506040513d60208110156128ae57600080fd5b505160005433600160a060020a0392831681149450911614905081806128d15750805b8061296157506001546040805160e060020a638658b8b9028152336004820152306024820152604481018690529051600160a060020a0390921691638658b8b9916064808201926020929091908290030181600087803b15801561293457600080fd5b505af1158015612948573d6000803e3d6000fd5b505050506040513d602081101561295e57600080fd5b50515b15156129a5576040805160e560020a62461bcd028152602060048201526017602482015260008051602061399f833981519152604482015290519081900360640190fd5b600093505b84841015610f59576129d18686868181106129c157fe5b90506020020135600019166119e4565b6001909301926129aa565b600060d960020a6420a226a4a702600080600160009054906101000a9004600160a060020a0316600160a060020a0316638da5cb5b6040518163ffffffff1660e060020a028152600401602060405180830381600087803b158015612a4057600080fd5b505af1158015612a54573d6000803e3d6000fd5b505050506040513d6020811015612a6a57600080fd5b505160005433600160a060020a039283168114945091161490508180612a8d5750805b80612b1d57506001546040805160e060020a638658b8b9028152336004820152306024820152604481018690529051600160a060020a0390921691638658b8b9916064808201926020929091908290030181600087803b158015612af057600080fd5b505af1158015612b04573d6000803e3d6000fd5b505050506040513d6020811015612b1a57600080fd5b50515b1515612b61576040805160e560020a62461bcd028152602060048201526017602482015260008051602061399f833981519152604482015290519081900360640190fd5b868514612ba6576040805160e560020a62461bcd02815260206004820152601d602482015260008051602061397f833981519152604482015290519081900360640190fd5b600093505b8684101561118057612bf0888886818110612bc257fe5b90506020020135600160a060020a03168787878181101515612be057fe5b90506020020135600019166113ed565b600190930192612bab565b600160a060020a03811660009081526004602090815260409182902080548351818402810184019094528084526060939283018282801561073657602002820191906000526020600020905b81548152600190910190602001808311612c475750505050509050919050565b600160009054906101000a9004600160a060020a0316600160a060020a0316638da5cb5b6040518163ffffffff1660e060020a028152600401602060405180830381600087803b158015612cba57600080fd5b505af1158015612cce573d6000803e3d6000fd5b505050506040513d6020811015612ce457600080fd5b5051600160a060020a03163314612d45576040805160e560020a62461bcd02815260206004820152601360248201527f53656e646572206973206e6f74206f776e657200000000000000000000000000604482015290519081900360640190fd5b611e336137fc565b600060d960020a6420a226a4a702600080600160009054906101000a9004600160a060020a0316600160a060020a0316638da5cb5b6040518163ffffffff1660e060020a028152600401602060405180830381600087803b158015612db157600080fd5b505af1158015612dc5573d6000803e3d6000fd5b505050506040513d6020811015612ddb57600080fd5b505160005433600160a060020a039283168114945091161490508180612dfe5750805b80612e8e57506001546040805160e060020a638658b8b9028152336004820152306024820152604481018690529051600160a060020a0390921691638658b8b9916064808201926020929091908290030181600087803b158015612e6157600080fd5b505af1158015612e75573d6000803e3d6000fd5b505050506040513d6020811015612e8b57600080fd5b50515b1515612ed2576040805160e560020a62461bcd028152602060048201526017602482015260008051602061399f833981519152604482015290519081900360640190fd5b600093505b84841015610f5957612f03868686818110612eee57fe5b90506020020135600160a060020a0316610c5f565b600190930192612ed7565b600154600160a060020a031681565b6040805160018082528183019092526060918291906020808301908038833901905050905060d960020a6420a226a4a702816000815181101515612f5d57fe5b602090810290910101529050805b5090565b600054600160a060020a031681565b60d960020a6420a226a4a702600080600160009054906101000a9004600160a060020a0316600160a060020a0316638da5cb5b6040518163ffffffff1660e060020a028152600401602060405180830381600087803b158015612fe057600080fd5b505af1158015612ff4573d6000803e3d6000fd5b505050506040513d602081101561300a57600080fd5b505160005433600160a060020a03928316811494509116149050818061302d5750805b806130bd57506001546040805160e060020a638658b8b9028152336004820152306024820152604481018690529051600160a060020a0390921691638658b8b9916064808201926020929091908290030181600087803b15801561309057600080fd5b505af11580156130a4573d6000803e3d6000fd5b505050506040513d60208110156130ba57600080fd5b50515b1515613101576040805160e560020a62461bcd028152602060048201526017602482015260008051602061399f833981519152604482015290519081900360640190fd5b61310d888888886136cd565b6111808487610748565b6060600880548060200260200160405190810160405280929190818152602001828054801561316657602002820191906000526020600020905b81548152600190910190602001808311613151575b5050505050905090565b7f4645455f41444d494e000000000000000000000000000000000000000000000081565b600080600080600080600260149054906101000a900460ff16151561336957600160a060020a038b166000908152600460205260409020541561336957600094505b600160a060020a038b1660009081526004602052604090205485101561336957600160a060020a038b166000908152600460205260408120805460039291908890811061321f57fe5b60009182526020808320909101548352828101939093526040918201812060010154600160a060020a038f168252600490935290812080549296506003928890811061326757fe5b60009182526020808320909101548352828101939093526040918201812054600160a060020a038f16825260049093529081208054929550600392889081106132ac57fe5b90600052602060002001546000191660001916815260200190815260200160002060020154620151800291508242111561335e57613300826132f4428663ffffffff6138d916565b9063ffffffff6138f016565b905042613323613316848463ffffffff61390516565b859063ffffffff61392e16565b1115801561335057504261334d613340848463ffffffff61390516565b869063ffffffff61392e16565b10155b1561335e576000955061336e565b6001909401936131d6565b600195505b505050505095945050505050565b60d960020a6420a226a4a702600080600160009054906101000a9004600160a060020a0316600160a060020a0316638da5cb5b6040518163ffffffff1660e060020a028152600401602060405180830381600087803b1580156133de57600080fd5b505af11580156133f2573d6000803e3d6000fd5b505050506040513d602081101561340857600080fd5b505160005433600160a060020a03928316811494509116149050818061342b5750805b806134bb57506001546040805160e060020a638658b8b9028152336004820152306024820152604481018690529051600160a060020a0390921691638658b8b9916064808201926020929091908290030181600087803b15801561348e57600080fd5b505af11580156134a2573d6000803e3d6000fd5b505050506040513d60208110156134b857600080fd5b50515b15156134ff576040805160e560020a62461bcd028152602060048201526017602482015260008051602061399f833981519152604482015290519081900360640190fd5b612808878787876136cd565b60025474010000000000000000000000000000000000000000900460ff16151561357f576040805160e560020a62461bcd02815260206004820152601660248201527f436f6e7472616374206973206e6f742070617573656400000000000000000000604482015290519081900360640190fd5b6002805474ff0000000000000000000000000000000000000000191690556040805142815290517faaa520fdd7d2c83061d632fa017b0432407e798818af63ea908589fceda39ab79181900360200190a1565b811515613629576040805160e560020a62461bcd02815260206004820152601660248201527f496e76616c696420626c61636b6c697374206e616d6500000000000000000000604482015290519081900360640190fd5b42841015801561363857508284105b151561368e576040805160e560020a62461bcd02815260206004820152601960248201527f496e76616c6964207374617274206f7220656e64206461746500000000000000604482015290519081900360640190fd5b61369e838563ffffffff6138d916565b6136b1826201518063ffffffff61390516565b1015806136bc575080155b15156136c757600080fd5b50505050565b60008281526003602052604090206001015415613734576040805160e560020a62461bcd02815260206004820152601c60248201527f426c61636b6c697374207479706520616c726561647920657869737400000000604482015290519081900360640190fd5b613740848484846135d2565b60408051606081810183528682526020808301878152838501868152600088815260038452868120955186559151600180870191909155905160029095019490945560088054948501815590527ff3f7a9fe364faab93b216da50a3214154f22a0a2b415b23a84c8169e8b636ee39092018590558251878152918201869052818301859052810183905290517f6af458baec4e7aafeafbdc22a9f909eb7c410cd0dbb2bf6759d9c95476dc2ef29181900360800190a150505050565b60025474010000000000000000000000000000000000000000900460ff161561386f576040805160e560020a62461bcd02815260206004820152601260248201527f436f6e7472616374206973207061757365640000000000000000000000000000604482015290519081900360640190fd5b6002805474ff00000000000000000000000000000000000000001916740100000000000000000000000000000000000000001790556040805142815290517f68b095021b1f40fe513109f513c66692f0b3219aee674a69f4efc57badb8201d9181900360200190a1565b6000828211156138e557fe5b508082035b92915050565b600081838115156138fd57fe5b049392505050565b6000821515613916575060006138ea565b5081810281838281151561392657fe5b04146138ea57fe5b818101828110156138ea57fe5b81548183558181111561395f5760008381526020902061395f918101908301613964565b505050565b61074591905b80821115612f6b576000815560010161396a5600496e7075742061727261792773206c656e677468206d69736d617463680000005065726d697373696f6e20636865636b206661696c6564000000000000000000a165627a7a723058206eac12fd8aee477df3605c63bdb588f1d228593c4ecf66a02290c6c2180b81ab0029",
  "source": "pragma solidity ^0.4.24;\n\nimport \"../../TransferManager/ITransferManager.sol\";\nimport \"openzeppelin-solidity/contracts/math/SafeMath.sol\";\n\n/**\n * @title Transfer Manager module to automate blacklist and restrict transfers\n */\ncontract BlacklistTransferManager is ITransferManager {\n    using SafeMath for uint256;\n\n    bytes32 public constant ADMIN = \"ADMIN\";\n    \n    struct BlacklistsDetails {\n        uint256 startTime;\n        uint256 endTime;\n        uint256 repeatPeriodTime;\n    }\n\n    //hold the different blacklist details corresponds to its name\n    mapping(bytes32 => BlacklistsDetails) public blacklists;\n\n    //hold the different name of blacklist corresponds to a investor\n    mapping(address => bytes32[]) investorToBlacklist;\n\n    //get list of the addresses for a particular blacklist\n    mapping(bytes32 => address[]) blacklistToInvestor;\n\n    //mapping use to store the indexes for different blacklist types for a investor\n    mapping(address => mapping(bytes32 => uint256)) investorToIndex;\n\n    //mapping use to store the indexes for different investor for a blacklist type\n    mapping(bytes32 => mapping(address => uint256)) blacklistToIndex;\n\n    bytes32[] allBlacklists;\n   \n    // Emit when new blacklist type is added\n    event AddBlacklistType(\n        uint256 _startTime, \n        uint256 _endTime, \n        bytes32 _blacklistName, \n        uint256 _repeatPeriodTime\n    );\n    \n    // Emit when there is a change in the blacklist type\n    event ModifyBlacklistType(\n        uint256 _startTime,\n        uint256 _endTime, \n        bytes32 _blacklistName, \n        uint256 _repeatPeriodTime\n    );\n    \n    // Emit when the added blacklist type is deleted\n    event DeleteBlacklistType(\n        bytes32 _blacklistName\n    );\n\n    // Emit when new investor is added to the blacklist type\n    event AddInvestorToBlacklist(\n        address indexed _investor, \n        bytes32 _blacklistName\n    );\n    \n    // Emit when investor is deleted from the blacklist type\n    event DeleteInvestorFromBlacklist(\n        address indexed _investor,\n        bytes32 _blacklistName\n    );\n\n   \n    /**\n     * @notice Constructor\n     * @param _securityToken Address of the security token\n     * @param _polyAddress Address of the polytoken\n     */\n    constructor (address _securityToken, address _polyAddress)\n    public\n    Module(_securityToken, _polyAddress)\n    {\n    }\n\n    /**\n    * @notice This function returns the signature of configure function\n    */\n    function getInitFunction() public pure returns (bytes4) {\n        return bytes4(0);\n    }\n\n\n    /** \n    * @notice Used to verify the transfer transaction\n    * @param _from Address of the sender\n    * @dev Restrict the blacklist address to transfer tokens \n    * if the current time is between the timeframe define for the \n    * blacklist type associated with the _from address\n    */\n    function verifyTransfer(address _from, address /* _to */, uint256 /* _amount */, bytes /* _data */, bool /* _isTransfer */) public returns(Result) {\n        if (!paused) {\n            if (investorToBlacklist[_from].length != 0) {\n                for (uint256 i = 0; i < investorToBlacklist[_from].length; i++) {\n                    uint256 endTimeTemp = blacklists[investorToBlacklist[_from][i]].endTime;\n                    uint256 startTimeTemp = blacklists[investorToBlacklist[_from][i]].startTime;\n                    uint256 repeatPeriodTimeTemp = blacklists[investorToBlacklist[_from][i]].repeatPeriodTime * 1 days;\n                    /*solium-disable-next-line security/no-block-members*/\n                    if (now > startTimeTemp) {\n                    // Find the repeating parameter that will be used to calculate the new startTime and endTime\n                    // based on the new current time value   \n                    /*solium-disable-next-line security/no-block-members*/\n                        uint256 repeater = (now.sub(startTimeTemp)).div(repeatPeriodTimeTemp); \n                        /*solium-disable-next-line security/no-block-members*/\n                        if (startTimeTemp.add(repeatPeriodTimeTemp.mul(repeater)) <= now && endTimeTemp.add(repeatPeriodTimeTemp.mul(repeater)) >= now) {\n                            return Result.INVALID;\n                        }    \n                    }   \n                }    \n            }     \n        }\n        return Result.NA;\n    }\n\n    /**\n    * @notice Used to add the blacklist type\n    * @param _startTime Start date of the blacklist type\n    * @param _endTime End date of the blacklist type\n    * @param _blacklistName Name of the blacklist type\n    * @param _repeatPeriodTime Repeat period of the blacklist type\n    */\n    function addBlacklistType(uint256 _startTime, uint256 _endTime, bytes32 _blacklistName, uint256 _repeatPeriodTime) public withPerm(ADMIN) {\n        _addBlacklistType(_startTime, _endTime, _blacklistName, _repeatPeriodTime);\n    }\n    \n    /**\n    * @notice Used to add the multiple blacklist type\n    * @param _startTimes Start date of the blacklist type\n    * @param _endTimes End date of the blacklist type\n    * @param _blacklistNames Name of the blacklist type\n    * @param _repeatPeriodTimes Repeat period of the blacklist type\n    */\n    function addBlacklistTypeMulti(uint256[] _startTimes, uint256[] _endTimes, bytes32[] _blacklistNames, uint256[] _repeatPeriodTimes) external withPerm(ADMIN) {\n        require (_startTimes.length == _endTimes.length && _endTimes.length == _blacklistNames.length && _blacklistNames.length == _repeatPeriodTimes.length, \"Input array's length mismatch\"); \n        for (uint256 i = 0; i < _startTimes.length; i++){\n            _addBlacklistType(_startTimes[i], _endTimes[i], _blacklistNames[i], _repeatPeriodTimes[i]);\n        }\n    }\n\n    /**\n     * @notice Internal function \n     */\n    function _validParams(uint256 _startTime, uint256 _endTime, bytes32 _blacklistName, uint256 _repeatPeriodTime) internal view {\n        require(_blacklistName != bytes32(0), \"Invalid blacklist name\"); \n        require(_startTime >= now && _startTime < _endTime, \"Invalid start or end date\");\n        require(_repeatPeriodTime.mul(1 days) >= _endTime.sub(_startTime) || _repeatPeriodTime == 0);\n    }\n\n    /**\n    * @notice Used to modify the details of a given blacklist type\n    * @param _startTime Start date of the blacklist type\n    * @param _endTime End date of the blacklist type\n    * @param _blacklistName Name of the blacklist type\n    * @param _repeatPeriodTime Repeat period of the blacklist type\n    */\n    function modifyBlacklistType(uint256 _startTime, uint256 _endTime, bytes32 _blacklistName, uint256 _repeatPeriodTime) public withPerm(ADMIN) {\n        require(blacklists[_blacklistName].endTime != 0, \"Blacklist type doesn't exist\"); \n        _validParams(_startTime, _endTime, _blacklistName, _repeatPeriodTime);\n        blacklists[_blacklistName] = BlacklistsDetails(_startTime, _endTime, _repeatPeriodTime);\n        emit ModifyBlacklistType(_startTime, _endTime, _blacklistName, _repeatPeriodTime);\n    }\n\n    /**\n    * @notice Used to modify the details of a given multpile blacklist types\n    * @param _startTimes Start date of the blacklist type\n    * @param _endTimes End date of the blacklist type\n    * @param _blacklistNames Name of the blacklist type\n    * @param _repeatPeriodTimes Repeat period of the blacklist type\n    */\n    function modifyBlacklistTypeMulti(uint256[] _startTimes, uint256[] _endTimes, bytes32[] _blacklistNames, uint256[] _repeatPeriodTimes) external withPerm(ADMIN) {\n        require (_startTimes.length == _endTimes.length && _endTimes.length == _blacklistNames.length && _blacklistNames.length == _repeatPeriodTimes.length, \"Input array's length mismatch\"); \n        for (uint256 i = 0; i < _startTimes.length; i++){\n            modifyBlacklistType(_startTimes[i], _endTimes[i], _blacklistNames[i], _repeatPeriodTimes[i]);\n        }\n    }\n\n    /**\n    * @notice Used to delete the blacklist type\n    * @param _blacklistName Name of the blacklist type\n    */\n    function deleteBlacklistType(bytes32 _blacklistName) public withPerm(ADMIN) {\n        require(blacklists[_blacklistName].endTime != 0, \"Blacklist type doesnt exist\");\n        require(blacklistToInvestor[_blacklistName].length == 0, \"Investors are associated with the blacklist\");\n        // delete blacklist type \n        delete(blacklists[_blacklistName]);\n        uint256 i = 0;\n        for (i = 0; i < allBlacklists.length; i++) {\n            if (allBlacklists[i] == _blacklistName) {\n                break;\n            }\n        }\n        if (i != allBlacklists.length -1) {\n            allBlacklists[i] = allBlacklists[allBlacklists.length -1];\n        }\n        allBlacklists.length--;\n        emit DeleteBlacklistType(_blacklistName);\n    }\n\n    /**\n    * @notice Used to delete the multiple blacklist type\n    * @param _blacklistNames Name of the blacklist type\n    */\n    function deleteBlacklistTypeMulti(bytes32[] _blacklistNames) external withPerm(ADMIN) {\n        for(uint256 i = 0; i < _blacklistNames.length; i++){\n            deleteBlacklistType(_blacklistNames[i]);\n        }\n    }\n\n    /**\n    * @notice Used to assign the blacklist type to the investor\n    * @param _investor Address of the investor\n    * @param _blacklistName Name of the blacklist\n    */\n    function addInvestorToBlacklist(address _investor, bytes32 _blacklistName) public withPerm(ADMIN) {\n        require(blacklists[_blacklistName].endTime != 0, \"Blacklist type doesn't exist\");\n        require(_investor != address(0), \"Invalid investor address\");\n        uint256 index = investorToIndex[_investor][_blacklistName];\n        if (index < investorToBlacklist[_investor].length)\n            require(investorToBlacklist[_investor][index] != _blacklistName, \"Blacklist already added to investor\");\n        uint256 investorIndex = investorToBlacklist[_investor].length;\n        // Add blacklist index to the investor \n        investorToIndex[_investor][_blacklistName] = investorIndex;\n        uint256 blacklistIndex = blacklistToInvestor[_blacklistName].length;\n        // Add investor index to the blacklist\n        blacklistToIndex[_blacklistName][_investor] = blacklistIndex;\n        investorToBlacklist[_investor].push(_blacklistName);\n        blacklistToInvestor[_blacklistName].push(_investor);\n        emit AddInvestorToBlacklist(_investor, _blacklistName);\n    }\n\n    /**\n    * @notice Used to assign the blacklist type to the multiple investor\n    * @param _investors Address of the investor\n    * @param _blacklistName Name of the blacklist\n    */\n    function addInvestorToBlacklistMulti(address[] _investors, bytes32 _blacklistName) external withPerm(ADMIN){\n        for(uint256 i = 0; i < _investors.length; i++){\n            addInvestorToBlacklist(_investors[i], _blacklistName);\n        }\n    }\n\n    /**\n    * @notice Used to assign the multiple blacklist type to the multiple investor\n    * @param _investors Address of the investor\n    * @param _blacklistNames Name of the blacklist\n    */\n    function addMultiInvestorToBlacklistMulti(address[] _investors, bytes32[] _blacklistNames) external withPerm(ADMIN){\n        require (_investors.length == _blacklistNames.length, \"Input array's length mismatch\"); \n        for(uint256 i = 0; i < _investors.length; i++){\n            addInvestorToBlacklist(_investors[i], _blacklistNames[i]);\n        }\n    }\n\n    /**\n    * @notice Used to assign the new blacklist type to the investor\n    * @param _startTime Start date of the blacklist type\n    * @param _endTime End date of the blacklist type\n    * @param _blacklistName Name of the blacklist type\n    * @param _repeatPeriodTime Repeat period of the blacklist type\n    * @param _investor Address of the investor\n    */\n    function addInvestorToNewBlacklist(uint256 _startTime, uint256 _endTime, bytes32 _blacklistName, uint256 _repeatPeriodTime, address _investor) external withPerm(ADMIN){\n        _addBlacklistType(_startTime, _endTime, _blacklistName, _repeatPeriodTime);\n        addInvestorToBlacklist(_investor, _blacklistName);\n    }\n\n    /**\n    * @notice Used to delete the investor from all the associated blacklist types\n    * @param _investor Address of the investor\n    */\n    function deleteInvestorFromAllBlacklist(address _investor) public withPerm(ADMIN) {\n        require(_investor != address(0), \"Invalid investor address\");\n        require(investorToBlacklist[_investor].length != 0, \"Investor is not associated to any blacklist type\");\n        uint256 index = investorToBlacklist[_investor].length - 1;\n        for (uint256 i = index; i >= 0 && i <= index; i--){\n            deleteInvestorFromBlacklist(_investor, investorToBlacklist[_investor][i]);\n        }\n    }\n\n     /**\n    * @notice Used to delete the multiple investor from all the associated blacklist types\n    * @param _investor Address of the investor\n    */\n    function deleteInvestorFromAllBlacklistMulti(address[] _investor) external withPerm(ADMIN) {\n        for(uint256 i = 0; i < _investor.length; i++){\n            deleteInvestorFromAllBlacklist(_investor[i]);\n        }\n    }\n\n    /**\n    * @notice Used to delete the investor from the blacklist\n    * @param _investor Address of the investor\n    * @param _blacklistName Name of the blacklist\n    */\n    function deleteInvestorFromBlacklist(address _investor, bytes32 _blacklistName) public withPerm(ADMIN) {\n        require(_investor != address(0), \"Invalid investor address\");\n        require(_blacklistName != bytes32(0),\"Invalid blacklist name\");\n        require(investorToBlacklist[_investor][investorToIndex[_investor][_blacklistName]] == _blacklistName, \"Investor not associated to the blacklist\");\n        // delete the investor from the blacklist type\n        uint256 _blacklistIndex = blacklistToIndex[_blacklistName][_investor];\n        uint256 _len = blacklistToInvestor[_blacklistName].length;\n        if ( _blacklistIndex < _len -1) {\n            blacklistToInvestor[_blacklistName][_blacklistIndex] = blacklistToInvestor[_blacklistName][_len - 1];\n            blacklistToIndex[_blacklistName][blacklistToInvestor[_blacklistName][_blacklistIndex]] = _blacklistIndex;\n        }\n        blacklistToInvestor[_blacklistName].length--;\n        // delete the investor index from the blacklist\n        delete(blacklistToIndex[_blacklistName][_investor]);\n        // delete the blacklist from the investor\n        uint256 _investorIndex = investorToIndex[_investor][_blacklistName];\n        _len = investorToBlacklist[_investor].length;\n        if ( _investorIndex < _len -1) {\n            investorToBlacklist[_investor][_investorIndex] = investorToBlacklist[_investor][_len - 1];\n            investorToIndex[_investor][investorToBlacklist[_investor][_investorIndex]] = _investorIndex;\n        }\n        investorToBlacklist[_investor].length--;\n        // delete the blacklist index from the invetsor\n        delete(investorToIndex[_investor][_blacklistName]);\n        emit DeleteInvestorFromBlacklist(_investor, _blacklistName);\n    }\n\n     /**\n    * @notice Used to delete the multiple investor from the blacklist\n    * @param _investors address of the investor\n    * @param _blacklistNames name of the blacklist\n    */\n    function deleteMultiInvestorsFromBlacklistMulti(address[] _investors, bytes32[] _blacklistNames) external withPerm(ADMIN) {\n        require (_investors.length == _blacklistNames.length, \"Input array's length mismatch\"); \n        for(uint256 i = 0; i < _investors.length; i++){\n            deleteInvestorFromBlacklist(_investors[i], _blacklistNames[i]);\n        }\n    }\n\n    function _addBlacklistType(uint256 _startTime, uint256 _endTime, bytes32 _blacklistName, uint256 _repeatPeriodTime) internal {\n        require(blacklists[_blacklistName].endTime == 0, \"Blacklist type already exist\"); \n        _validParams(_startTime, _endTime, _blacklistName, _repeatPeriodTime);\n        blacklists[_blacklistName] = BlacklistsDetails(_startTime, _endTime, _repeatPeriodTime);\n        allBlacklists.push(_blacklistName);\n        emit AddBlacklistType(_startTime, _endTime, _blacklistName, _repeatPeriodTime);\n    }\n    \n    /**\n    * @notice get the list of the investors of a blacklist type\n    * @param _blacklistName Name of the blacklist type\n    * @return address List of investors associated with the blacklist\n    */\n    function getListOfAddresses(bytes32 _blacklistName) external view returns(address[]) {\n        require(blacklists[_blacklistName].endTime != 0, \"Blacklist type doesn't exist\");\n        return blacklistToInvestor[_blacklistName];\n    }\n\n    /**\n    * @notice get the list of the investors of a blacklist type\n    * @param _user Address of the user\n    * @return bytes32 List of blacklist names associated with the given address\n    */\n    function getBlacklistNamesToUser(address _user) external view returns(bytes32[]) {\n        return investorToBlacklist[_user];\n    }\n\n    /**\n     * @notice get the list of blacklist names\n     * @return bytes32 Array of blacklist names\n     */\n    function getAllBlacklists() external view returns(bytes32[]) {\n        return allBlacklists;\n    }\n\n    /**\n    * @notice Return the permissions flag that are associated with blacklist transfer manager\n    */\n    function getPermissions() public view returns(bytes32[]) {\n        bytes32[] memory allPermissions = new bytes32[](1);\n        allPermissions[0] = ADMIN;\n        return allPermissions;\n    }\n}\n\n\n",
  "sourcePath": "/Users/jere/Code/polymath-apps/packages/new-polymath-scripts/src/generateLocalBlockchain/contracts/modules/Experimental/TransferManager/BlacklistTransferManager.sol",
  "compiler": {
    "name": "solc",
    "version": "0.4.24+commit.e67f0147.Emscripten.clang"
  },
  "schemaVersion": "2.0.1",
  "updatedAt": "2019-01-29T19:35:51.500Z"
}