{
  "contractName": "DividendCheckpointStorage",
  "abi": [
    {
      "constant": true,
      "inputs": [],
      "name": "EXCLUDED_ADDRESS_LIMIT",
      "outputs": [
        {
          "name": "",
          "type": "uint256"
        }
      ],
      "payable": false,
      "stateMutability": "view",
      "type": "function"
    },
    {
      "constant": true,
      "inputs": [],
      "name": "CHECKPOINT",
      "outputs": [
        {
          "name": "",
          "type": "bytes32"
        }
      ],
      "payable": false,
      "stateMutability": "view",
      "type": "function"
    },
    {
      "constant": true,
      "inputs": [],
      "name": "wallet",
      "outputs": [
        {
          "name": "",
          "type": "address"
        }
      ],
      "payable": false,
      "stateMutability": "view",
      "type": "function"
    },
    {
      "constant": true,
      "inputs": [],
      "name": "MANAGE",
      "outputs": [
        {
          "name": "",
          "type": "bytes32"
        }
      ],
      "payable": false,
      "stateMutability": "view",
      "type": "function"
    },
    {
      "constant": true,
      "inputs": [
        {
          "name": "",
          "type": "address"
        }
      ],
      "name": "withholdingTax",
      "outputs": [
        {
          "name": "",
          "type": "uint256"
        }
      ],
      "payable": false,
      "stateMutability": "view",
      "type": "function"
    },
    {
      "constant": true,
      "inputs": [],
      "name": "DISTRIBUTE",
      "outputs": [
        {
          "name": "",
          "type": "bytes32"
        }
      ],
      "payable": false,
      "stateMutability": "view",
      "type": "function"
    },
    {
      "constant": true,
      "inputs": [
        {
          "name": "",
          "type": "uint256"
        }
      ],
      "name": "dividends",
      "outputs": [
        {
          "name": "checkpointId",
          "type": "uint256"
        },
        {
          "name": "created",
          "type": "uint256"
        },
        {
          "name": "maturity",
          "type": "uint256"
        },
        {
          "name": "expiry",
          "type": "uint256"
        },
        {
          "name": "amount",
          "type": "uint256"
        },
        {
          "name": "claimedAmount",
          "type": "uint256"
        },
        {
          "name": "totalSupply",
          "type": "uint256"
        },
        {
          "name": "reclaimed",
          "type": "bool"
        },
        {
          "name": "totalWithheld",
          "type": "uint256"
        },
        {
          "name": "totalWithheldWithdrawn",
          "type": "uint256"
        },
        {
          "name": "name",
          "type": "bytes32"
        }
      ],
      "payable": false,
      "stateMutability": "view",
      "type": "function"
    },
    {
      "constant": true,
      "inputs": [
        {
          "name": "",
          "type": "uint256"
        }
      ],
      "name": "excluded",
      "outputs": [
        {
          "name": "",
          "type": "address"
        }
      ],
      "payable": false,
      "stateMutability": "view",
      "type": "function"
    }
  ],
  "bytecode": "0x6080604052609660015534801561001557600080fd5b5061035a806100256000396000f30060806040526004361061008d5763ffffffff7c01000000000000000000000000000000000000000000000000000000006000350416630a29f591811461009257806335d806f8146100b9578063521eb273146100ce5780635bf341c11461010c5780637a3e23fd1461012157806380fef5af1461014f578063814b3fe014610164578063bee2ddc2146101d4575b600080fd5b34801561009e57600080fd5b506100a76101ec565b60408051918252519081900360200190f35b3480156100c557600080fd5b506100a76101f2565b3480156100da57600080fd5b506100e3610216565b6040805173ffffffffffffffffffffffffffffffffffffffff9092168252519081900360200190f35b34801561011857600080fd5b506100a7610232565b34801561012d57600080fd5b506100a773ffffffffffffffffffffffffffffffffffffffff60043516610256565b34801561015b57600080fd5b506100a7610268565b34801561017057600080fd5b5061017c60043561028c565b604080519b8c5260208c019a909a528a8a019890985260608a0196909652608089019490945260a088019290925260c0870152151560e086015261010085015261012084015261014083015251908190036101600190f35b3480156101e057600080fd5b506100e36004356102f9565b60015481565b7f434845434b504f494e540000000000000000000000000000000000000000000081565b60005473ffffffffffffffffffffffffffffffffffffffff1681565b7f4d414e414745000000000000000000000000000000000000000000000000000081565b60046020526000908152604090205481565b7f444953545249425554450000000000000000000000000000000000000000000081565b600280548290811061029a57fe5b60009182526020909120600e9091020180546001820154600283015460038401546004850154600586015460068701546007880154600889015460098a0154600d909a0154989a5096989597949693959294919360ff9091169290918b565b600380548290811061030757fe5b60009182526020909120015473ffffffffffffffffffffffffffffffffffffffff169050815600a165627a7a7230582086e9614aa285ac0c2c31c85ada38c41049f817b24064f6defdfd2b12f138068f0029",
  "source": "pragma solidity ^0.4.24;\n\n/**\n * @title Holds the storage variable for the DividendCheckpoint modules (i.e ERC20, Ether)\n * @dev abstract contract\n */\ncontract DividendCheckpointStorage {\n\n    // Address to which reclaimed dividends and withholding tax is sent\n    address public wallet;\n    uint256 public EXCLUDED_ADDRESS_LIMIT = 150;\n    bytes32 public constant DISTRIBUTE = \"DISTRIBUTE\";\n    bytes32 public constant MANAGE = \"MANAGE\";\n    bytes32 public constant CHECKPOINT = \"CHECKPOINT\";\n\n    struct Dividend {\n        uint256 checkpointId;\n        uint256 created; // Time at which the dividend was created\n        uint256 maturity; // Time after which dividend can be claimed - set to 0 to bypass\n        uint256 expiry;  // Time until which dividend can be claimed - after this time any remaining amount can be withdrawn by issuer -\n                         // set to very high value to bypass\n        uint256 amount; // Dividend amount in WEI\n        uint256 claimedAmount; // Amount of dividend claimed so far\n        uint256 totalSupply; // Total supply at the associated checkpoint (avoids recalculating this)\n        bool reclaimed;  // True if expiry has passed and issuer has reclaimed remaining dividend\n        uint256 totalWithheld;\n        uint256 totalWithheldWithdrawn;\n        mapping (address => bool) claimed; // List of addresses which have claimed dividend\n        mapping (address => bool) dividendExcluded; // List of addresses which cannot claim dividends\n        mapping (address => uint256) withheld; // Amount of tax withheld from claim\n        bytes32 name; // Name/title - used for identification\n    }\n\n    // List of all dividends\n    Dividend[] public dividends;\n\n    // List of addresses which cannot claim dividends\n    address[] public excluded;\n\n    // Mapping from address to withholding tax as a percentage * 10**16\n    mapping (address => uint256) public withholdingTax;\n\n}\n",
  "sourcePath": "/Users/jere/Code/polymath-apps/packages/new-polymath-scripts/src/generateLocalBlockchain/contracts/modules/Checkpoint/DividendCheckpointStorage.sol",
  "compiler": {
    "name": "solc",
    "version": "0.4.24+commit.e67f0147.Emscripten.clang"
  },
  "schemaVersion": "2.0.1",
  "updatedAt": "2019-02-06T00:34:32.220Z"
}