{
  "contractName": "ERC20DividendCheckpoint",
  "abi": [
    {
      "constant": false,
      "inputs": [
        {
          "name": "_investors",
          "type": "address[]"
        },
        {
          "name": "_withholding",
          "type": "uint256"
        }
      ],
      "name": "setWithholdingFixed",
      "outputs": [],
      "payable": false,
      "stateMutability": "nonpayable",
      "type": "function"
    },
    {
      "constant": true,
      "inputs": [],
      "name": "EXCLUDED_ADDRESS_LIMIT",
      "outputs": [
        {
          "name": "",
          "type": "uint256"
        }
      ],
      "payable": false,
      "stateMutability": "view",
      "type": "function"
    },
    {
      "constant": true,
      "inputs": [],
      "name": "getInitFunction",
      "outputs": [
        {
          "name": "",
          "type": "bytes4"
        }
      ],
      "payable": false,
      "stateMutability": "pure",
      "type": "function"
    },
    {
      "constant": true,
      "inputs": [
        {
          "name": "_dividendIndex",
          "type": "uint256"
        }
      ],
      "name": "getDividendData",
      "outputs": [
        {
          "name": "created",
          "type": "uint256"
        },
        {
          "name": "maturity",
          "type": "uint256"
        },
        {
          "name": "expiry",
          "type": "uint256"
        },
        {
          "name": "amount",
          "type": "uint256"
        },
        {
          "name": "claimedAmount",
          "type": "uint256"
        },
        {
          "name": "name",
          "type": "bytes32"
        }
      ],
      "payable": false,
      "stateMutability": "view",
      "type": "function"
    },
    {
      "constant": false,
      "inputs": [
        {
          "name": "_dividendIndex",
          "type": "uint256"
        }
      ],
      "name": "pullDividendPayment",
      "outputs": [],
      "payable": false,
      "stateMutability": "nonpayable",
      "type": "function"
    },
    {
      "constant": true,
      "inputs": [],
      "name": "CHECKPOINT",
      "outputs": [
        {
          "name": "",
          "type": "bytes32"
        }
      ],
      "payable": false,
      "stateMutability": "view",
      "type": "function"
    },
    {
      "constant": false,
      "inputs": [
        {
          "name": "_dividendIndex",
          "type": "uint256"
        },
        {
          "name": "_payees",
          "type": "address[]"
        }
      ],
      "name": "pushDividendPaymentToAddresses",
      "outputs": [],
      "payable": false,
      "stateMutability": "nonpayable",
      "type": "function"
    },
    {
      "constant": true,
      "inputs": [],
      "name": "wallet",
      "outputs": [
        {
          "name": "",
          "type": "address"
        }
      ],
      "payable": false,
      "stateMutability": "view",
      "type": "function"
    },
    {
      "constant": true,
      "inputs": [
        {
          "name": "_investor",
          "type": "address"
        },
        {
          "name": "_dividendIndex",
          "type": "uint256"
        }
      ],
      "name": "isClaimed",
      "outputs": [
        {
          "name": "",
          "type": "bool"
        }
      ],
      "payable": false,
      "stateMutability": "view",
      "type": "function"
    },
    {
      "constant": true,
      "inputs": [
        {
          "name": "_dividendIndex",
          "type": "uint256"
        },
        {
          "name": "_payee",
          "type": "address"
        }
      ],
      "name": "calculateDividend",
      "outputs": [
        {
          "name": "",
          "type": "uint256"
        },
        {
          "name": "",
          "type": "uint256"
        }
      ],
      "payable": false,
      "stateMutability": "view",
      "type": "function"
    },
    {
      "constant": true,
      "inputs": [],
      "name": "MANAGE",
      "outputs": [
        {
          "name": "",
          "type": "bytes32"
        }
      ],
      "payable": false,
      "stateMutability": "view",
      "type": "function"
    },
    {
      "constant": true,
      "inputs": [
        {
          "name": "_checkpointId",
          "type": "uint256"
        }
      ],
      "name": "getDividendIndex",
      "outputs": [
        {
          "name": "",
          "type": "uint256[]"
        }
      ],
      "payable": false,
      "stateMutability": "view",
      "type": "function"
    },
    {
      "constant": false,
      "inputs": [
        {
          "name": "_amount",
          "type": "uint256"
        }
      ],
      "name": "takeFee",
      "outputs": [
        {
          "name": "",
          "type": "bool"
        }
      ],
      "payable": false,
      "stateMutability": "nonpayable",
      "type": "function"
    },
    {
      "constant": true,
      "inputs": [],
      "name": "polyToken",
      "outputs": [
        {
          "name": "",
          "type": "address"
        }
      ],
      "payable": false,
      "stateMutability": "view",
      "type": "function"
    },
    {
      "constant": false,
      "inputs": [
        {
          "name": "_wallet",
          "type": "address"
        }
      ],
      "name": "configure",
      "outputs": [],
      "payable": false,
      "stateMutability": "nonpayable",
      "type": "function"
    },
    {
      "constant": true,
      "inputs": [
        {
          "name": "",
          "type": "address"
        }
      ],
      "name": "withholdingTax",
      "outputs": [
        {
          "name": "",
          "type": "uint256"
        }
      ],
      "payable": false,
      "stateMutability": "view",
      "type": "function"
    },
    {
      "constant": true,
      "inputs": [
        {
          "name": "_checkpointId",
          "type": "uint256"
        }
      ],
      "name": "getCheckpointData",
      "outputs": [
        {
          "name": "investors",
          "type": "address[]"
        },
        {
          "name": "balances",
          "type": "uint256[]"
        },
        {
          "name": "withholdings",
          "type": "uint256[]"
        }
      ],
      "payable": false,
      "stateMutability": "view",
      "type": "function"
    },
    {
      "constant": true,
      "inputs": [],
      "name": "DISTRIBUTE",
      "outputs": [
        {
          "name": "",
          "type": "bytes32"
        }
      ],
      "payable": false,
      "stateMutability": "view",
      "type": "function"
    },
    {
      "constant": true,
      "inputs": [
        {
          "name": "",
          "type": "uint256"
        }
      ],
      "name": "dividends",
      "outputs": [
        {
          "name": "checkpointId",
          "type": "uint256"
        },
        {
          "name": "created",
          "type": "uint256"
        },
        {
          "name": "maturity",
          "type": "uint256"
        },
        {
          "name": "expiry",
          "type": "uint256"
        },
        {
          "name": "amount",
          "type": "uint256"
        },
        {
          "name": "claimedAmount",
          "type": "uint256"
        },
        {
          "name": "totalSupply",
          "type": "uint256"
        },
        {
          "name": "reclaimed",
          "type": "bool"
        },
        {
          "name": "totalWithheld",
          "type": "uint256"
        },
        {
          "name": "totalWithheldWithdrawn",
          "type": "uint256"
        },
        {
          "name": "name",
          "type": "bytes32"
        }
      ],
      "payable": false,
      "stateMutability": "view",
      "type": "function"
    },
    {
      "constant": true,
      "inputs": [
        {
          "name": "_investor",
          "type": "address"
        },
        {
          "name": "_dividendIndex",
          "type": "uint256"
        }
      ],
      "name": "isExcluded",
      "outputs": [
        {
          "name": "",
          "type": "bool"
        }
      ],
      "payable": false,
      "stateMutability": "view",
      "type": "function"
    },
    {
      "constant": false,
      "inputs": [
        {
          "name": "_investors",
          "type": "address[]"
        },
        {
          "name": "_withholding",
          "type": "uint256[]"
        }
      ],
      "name": "setWithholding",
      "outputs": [],
      "payable": false,
      "stateMutability": "nonpayable",
      "type": "function"
    },
    {
      "constant": true,
      "inputs": [
        {
          "name": "",
          "type": "uint256"
        }
      ],
      "name": "dividendTokens",
      "outputs": [
        {
          "name": "",
          "type": "address"
        }
      ],
      "payable": false,
      "stateMutability": "view",
      "type": "function"
    },
    {
      "constant": false,
      "inputs": [
        {
          "name": "_wallet",
          "type": "address"
        }
      ],
      "name": "changeWallet",
      "outputs": [],
      "payable": false,
      "stateMutability": "nonpayable",
      "type": "function"
    },
    {
      "constant": true,
      "inputs": [],
      "name": "getDividendsData",
      "outputs": [
        {
          "name": "createds",
          "type": "uint256[]"
        },
        {
          "name": "maturitys",
          "type": "uint256[]"
        },
        {
          "name": "expirys",
          "type": "uint256[]"
        },
        {
          "name": "amounts",
          "type": "uint256[]"
        },
        {
          "name": "claimedAmounts",
          "type": "uint256[]"
        },
        {
          "name": "names",
          "type": "bytes32[]"
        }
      ],
      "payable": false,
      "stateMutability": "view",
      "type": "function"
    },
    {
      "constant": true,
      "inputs": [],
      "name": "securityToken",
      "outputs": [
        {
          "name": "",
          "type": "address"
        }
      ],
      "payable": false,
      "stateMutability": "view",
      "type": "function"
    },
    {
      "constant": true,
      "inputs": [
        {
          "name": "",
          "type": "uint256"
        }
      ],
      "name": "excluded",
      "outputs": [
        {
          "name": "",
          "type": "address"
        }
      ],
      "payable": false,
      "stateMutability": "view",
      "type": "function"
    },
    {
      "constant": true,
      "inputs": [],
      "name": "getPermissions",
      "outputs": [
        {
          "name": "",
          "type": "bytes32[]"
        }
      ],
      "payable": false,
      "stateMutability": "view",
      "type": "function"
    },
    {
      "constant": true,
      "inputs": [],
      "name": "factory",
      "outputs": [
        {
          "name": "",
          "type": "address"
        }
      ],
      "payable": false,
      "stateMutability": "view",
      "type": "function"
    },
    {
      "constant": false,
      "inputs": [
        {
          "name": "_excluded",
          "type": "address[]"
        }
      ],
      "name": "setDefaultExcluded",
      "outputs": [],
      "payable": false,
      "stateMutability": "nonpayable",
      "type": "function"
    },
    {
      "constant": true,
      "inputs": [],
      "name": "FEE_ADMIN",
      "outputs": [
        {
          "name": "",
          "type": "bytes32"
        }
      ],
      "payable": false,
      "stateMutability": "view",
      "type": "function"
    },
    {
      "constant": false,
      "inputs": [
        {
          "name": "_dividendIndex",
          "type": "uint256"
        },
        {
          "name": "_start",
          "type": "uint256"
        },
        {
          "name": "_iterations",
          "type": "uint256"
        }
      ],
      "name": "pushDividendPayment",
      "outputs": [],
      "payable": false,
      "stateMutability": "nonpayable",
      "type": "function"
    },
    {
      "constant": true,
      "inputs": [],
      "name": "getDefaultExcluded",
      "outputs": [
        {
          "name": "",
          "type": "address[]"
        }
      ],
      "payable": false,
      "stateMutability": "view",
      "type": "function"
    },
    {
      "constant": true,
      "inputs": [
        {
          "name": "_dividendIndex",
          "type": "uint256"
        }
      ],
      "name": "getDividendProgress",
      "outputs": [
        {
          "name": "investors",
          "type": "address[]"
        },
        {
          "name": "resultClaimed",
          "type": "bool[]"
        },
        {
          "name": "resultExcluded",
          "type": "bool[]"
        },
        {
          "name": "resultWithheld",
          "type": "uint256[]"
        },
        {
          "name": "resultAmount",
          "type": "uint256[]"
        },
        {
          "name": "resultBalance",
          "type": "uint256[]"
        }
      ],
      "payable": false,
      "stateMutability": "view",
      "type": "function"
    },
    {
      "constant": false,
      "inputs": [],
      "name": "createCheckpoint",
      "outputs": [
        {
          "name": "",
          "type": "uint256"
        }
      ],
      "payable": false,
      "stateMutability": "nonpayable",
      "type": "function"
    },
    {
      "inputs": [
        {
          "name": "_securityToken",
          "type": "address"
        },
        {
          "name": "_polyAddress",
          "type": "address"
        }
      ],
      "payable": false,
      "stateMutability": "nonpayable",
      "type": "constructor"
    },
    {
      "anonymous": false,
      "inputs": [
        {
          "indexed": true,
          "name": "_depositor",
          "type": "address"
        },
        {
          "indexed": false,
          "name": "_checkpointId",
          "type": "uint256"
        },
        {
          "indexed": false,
          "name": "_created",
          "type": "uint256"
        },
        {
          "indexed": false,
          "name": "_maturity",
          "type": "uint256"
        },
        {
          "indexed": false,
          "name": "_expiry",
          "type": "uint256"
        },
        {
          "indexed": true,
          "name": "_token",
          "type": "address"
        },
        {
          "indexed": false,
          "name": "_amount",
          "type": "uint256"
        },
        {
          "indexed": false,
          "name": "_totalSupply",
          "type": "uint256"
        },
        {
          "indexed": false,
          "name": "_dividendIndex",
          "type": "uint256"
        },
        {
          "indexed": true,
          "name": "_name",
          "type": "bytes32"
        }
      ],
      "name": "ERC20DividendDeposited",
      "type": "event"
    },
    {
      "anonymous": false,
      "inputs": [
        {
          "indexed": true,
          "name": "_payee",
          "type": "address"
        },
        {
          "indexed": true,
          "name": "_dividendIndex",
          "type": "uint256"
        },
        {
          "indexed": true,
          "name": "_token",
          "type": "address"
        },
        {
          "indexed": false,
          "name": "_amount",
          "type": "uint256"
        },
        {
          "indexed": false,
          "name": "_withheld",
          "type": "uint256"
        }
      ],
      "name": "ERC20DividendClaimed",
      "type": "event"
    },
    {
      "anonymous": false,
      "inputs": [
        {
          "indexed": true,
          "name": "_claimer",
          "type": "address"
        },
        {
          "indexed": true,
          "name": "_dividendIndex",
          "type": "uint256"
        },
        {
          "indexed": true,
          "name": "_token",
          "type": "address"
        },
        {
          "indexed": false,
          "name": "_claimedAmount",
          "type": "uint256"
        }
      ],
      "name": "ERC20DividendReclaimed",
      "type": "event"
    },
    {
      "anonymous": false,
      "inputs": [
        {
          "indexed": true,
          "name": "_claimer",
          "type": "address"
        },
        {
          "indexed": true,
          "name": "_dividendIndex",
          "type": "uint256"
        },
        {
          "indexed": true,
          "name": "_token",
          "type": "address"
        },
        {
          "indexed": false,
          "name": "_withheldAmount",
          "type": "uint256"
        }
      ],
      "name": "ERC20DividendWithholdingWithdrawn",
      "type": "event"
    },
    {
      "anonymous": false,
      "inputs": [
        {
          "indexed": false,
          "name": "_excluded",
          "type": "address[]"
        },
        {
          "indexed": false,
          "name": "_timestamp",
          "type": "uint256"
        }
      ],
      "name": "SetDefaultExcludedAddresses",
      "type": "event"
    },
    {
      "anonymous": false,
      "inputs": [
        {
          "indexed": false,
          "name": "_investors",
          "type": "address[]"
        },
        {
          "indexed": false,
          "name": "_withholding",
          "type": "uint256[]"
        },
        {
          "indexed": false,
          "name": "_timestamp",
          "type": "uint256"
        }
      ],
      "name": "SetWithholding",
      "type": "event"
    },
    {
      "anonymous": false,
      "inputs": [
        {
          "indexed": false,
          "name": "_investors",
          "type": "address[]"
        },
        {
          "indexed": false,
          "name": "_withholding",
          "type": "uint256"
        },
        {
          "indexed": false,
          "name": "_timestamp",
          "type": "uint256"
        }
      ],
      "name": "SetWithholdingFixed",
      "type": "event"
    },
    {
      "anonymous": false,
      "inputs": [
        {
          "indexed": true,
          "name": "_oldWallet",
          "type": "address"
        },
        {
          "indexed": true,
          "name": "_newWallet",
          "type": "address"
        },
        {
          "indexed": false,
          "name": "_timestamp",
          "type": "uint256"
        }
      ],
      "name": "SetWallet",
      "type": "event"
    },
    {
      "constant": false,
      "inputs": [
        {
          "name": "_maturity",
          "type": "uint256"
        },
        {
          "name": "_expiry",
          "type": "uint256"
        },
        {
          "name": "_token",
          "type": "address"
        },
        {
          "name": "_amount",
          "type": "uint256"
        },
        {
          "name": "_name",
          "type": "bytes32"
        }
      ],
      "name": "createDividend",
      "outputs": [],
      "payable": false,
      "stateMutability": "nonpayable",
      "type": "function"
    },
    {
      "constant": false,
      "inputs": [
        {
          "name": "_maturity",
          "type": "uint256"
        },
        {
          "name": "_expiry",
          "type": "uint256"
        },
        {
          "name": "_token",
          "type": "address"
        },
        {
          "name": "_amount",
          "type": "uint256"
        },
        {
          "name": "_checkpointId",
          "type": "uint256"
        },
        {
          "name": "_name",
          "type": "bytes32"
        }
      ],
      "name": "createDividendWithCheckpoint",
      "outputs": [],
      "payable": false,
      "stateMutability": "nonpayable",
      "type": "function"
    },
    {
      "constant": false,
      "inputs": [
        {
          "name": "_maturity",
          "type": "uint256"
        },
        {
          "name": "_expiry",
          "type": "uint256"
        },
        {
          "name": "_token",
          "type": "address"
        },
        {
          "name": "_amount",
          "type": "uint256"
        },
        {
          "name": "_excluded",
          "type": "address[]"
        },
        {
          "name": "_name",
          "type": "bytes32"
        }
      ],
      "name": "createDividendWithExclusions",
      "outputs": [],
      "payable": false,
      "stateMutability": "nonpayable",
      "type": "function"
    },
    {
      "constant": false,
      "inputs": [
        {
          "name": "_maturity",
          "type": "uint256"
        },
        {
          "name": "_expiry",
          "type": "uint256"
        },
        {
          "name": "_token",
          "type": "address"
        },
        {
          "name": "_amount",
          "type": "uint256"
        },
        {
          "name": "_checkpointId",
          "type": "uint256"
        },
        {
          "name": "_excluded",
          "type": "address[]"
        },
        {
          "name": "_name",
          "type": "bytes32"
        }
      ],
      "name": "createDividendWithCheckpointAndExclusions",
      "outputs": [],
      "payable": false,
      "stateMutability": "nonpayable",
      "type": "function"
    },
    {
      "constant": false,
      "inputs": [
        {
          "name": "_dividendIndex",
          "type": "uint256"
        }
      ],
      "name": "reclaimDividend",
      "outputs": [],
      "payable": false,
      "stateMutability": "nonpayable",
      "type": "function"
    },
    {
      "constant": false,
      "inputs": [
        {
          "name": "_dividendIndex",
          "type": "uint256"
        }
      ],
      "name": "withdrawWithholding",
      "outputs": [],
      "payable": false,
      "stateMutability": "nonpayable",
      "type": "function"
    }
  ],
  "bytecode": "0x6080604052609660025534801561001557600080fd5b506040516040806200575e83398101604052805160209091015160078054600160a060020a03938416600160a060020a03199182161790915560068054821633179055600880549390921692169190911790556156e680620000786000396000f3006080604052600436106101d45763ffffffff60e060020a6000350416630945812e81146101d95780630a29f591146102325780631613ec9d1461025957806322018ce7146102a357806328d1feda1461031557806330008b4814610360578063333cffe51461037857806335d806f81461039057806343647a62146103a55780634d58e41314610419578063521eb27314610473578063562beba8146104a45780635bea0e1c146104dc5780635bf341c1146105195780635daff64e1461052e5780635f7619a4146105965780636e742c77146105ae5780636faa22a5146105de57806375cb2672146105f35780637a3e23fd146106145780637b4a223b1461063557806380fef5af1461072b578063814b3fe01461074057806381e97b66146107b05780638596e6e6146107d457806395ec5bbe1461086257806398b9a2dc1461087a578063aa8b76ea1461089b578063ac121dbf146108b3578063b7e1fd9b14610a75578063b84dfbd214610aa2578063bee2ddc214610ab7578063c3a07df614610acf578063c45a015514610ae4578063cc1556dc14610af9578063d70afa9614610b4e578063e1726faa14610b63578063f1e9d10014610b81578063fa67a7bb14610b96578063ff0b9c9014610bae575b600080fd5b3480156101e557600080fd5b5060408051602060048035808201358381028086018501909652808552610230953695939460249493850192918291850190849080828437509497505093359450610bc39350505050565b005b34801561023e57600080fd5b50610247610e85565b60408051918252519081900360200190f35b34801561026557600080fd5b5061026e610e8b565b604080517fffffffff000000000000000000000000000000000000000000000000000000009092168252519081900360200190f35b3480156102af57600080fd5b506040805160206004608435818101358381028086018501909652808552610230958335956024803596604435600160a060020a031696606435963696919560a4959490910192829190850190849080828437509497505093359450610eb09350505050565b34801561032157600080fd5b5061032d6004356110d2565b604080519687526020870195909552858501939093526060850191909152608084015260a0830152519081900360c00190f35b34801561036c57600080fd5b506102306004356111b6565b34801561038457600080fd5b50610230600435611496565b34801561039c57600080fd5b50610247611800565b3480156103b157600080fd5b506040805160a43560048181013560208181028581018201909652818552610230958335956024803596600160a060020a03604435169660643596608435963696929560c4959094019282918501908490808284375094975050933594506118249350505050565b34801561042557600080fd5b50604080516020600460248035828101358481028087018601909752808652610230968435963696604495919490910192918291850190849080828437509497506119b79650505050505050565b34801561047f57600080fd5b50610488611dda565b60408051600160a060020a039092168252519081900360200190f35b3480156104b057600080fd5b506104c8600160a060020a0360043516602435611de9565b604080519115158252519081900360200190f35b3480156104e857600080fd5b50610500600435600160a060020a0360243516611e76565b6040805192835260208301919091528051918290030190f35b34801561052557600080fd5b50610247612059565b34801561053a57600080fd5b50610546600435612069565b60408051602080825283518183015283519192839290830191858101910280838360005b8381101561058257818101518382015260200161056a565b505050509050019250505060405180910390f35b3480156105a257600080fd5b506104c860043561214e565b3480156105ba57600080fd5b50610230600435602435600160a060020a036044351660643560843560a435612466565b3480156105ea57600080fd5b5061048861265e565b3480156105ff57600080fd5b50610230600160a060020a036004351661266d565b34801561062057600080fd5b50610247600160a060020a03600435166126db565b34801561064157600080fd5b5061064d6004356126ed565b60405180806020018060200180602001848103845287818151815260200191508051906020019060200280838360005b8381101561069557818101518382015260200161067d565b50505050905001848103835286818151815260200191508051906020019060200280838360005b838110156106d45781810151838201526020016106bc565b50505050905001848103825285818151815260200191508051906020019060200280838360005b838110156107135781810151838201526020016106fb565b50505050905001965050505050505060405180910390f35b34801561073757600080fd5b50610247612a50565b34801561074c57600080fd5b50610758600435612a62565b604080519b8c5260208c019a909a528a8a019890985260608a0196909652608089019490945260a088019290925260c0870152151560e086015261010085015261012084015261014083015251908190036101600190f35b3480156107bc57600080fd5b506104c8600160a060020a0360043516602435612acf565b3480156107e057600080fd5b506040805160206004803580820135838102808601850190965280855261023095369593946024949385019291829185019084908082843750506040805187358901803560208181028481018201909552818452989b9a998901989297509082019550935083925085019084908082843750949750612b5b9650505050505050565b34801561086e57600080fd5b50610488600435612eda565b34801561088657600080fd5b50610230600160a060020a0360043516612ef5565b3480156108a757600080fd5b50610230600435612fd3565b3480156108bf57600080fd5b506108c8613459565b6040518080602001806020018060200180602001806020018060200187810387528d818151815260200191508051906020019060200280838360005b8381101561091c578181015183820152602001610904565b5050505090500187810386528c818151815260200191508051906020019060200280838360005b8381101561095b578181015183820152602001610943565b5050505090500187810385528b818151815260200191508051906020019060200280838360005b8381101561099a578181015183820152602001610982565b5050505090500187810384528a818151815260200191508051906020019060200280838360005b838110156109d95781810151838201526020016109c1565b50505050905001878103835289818151815260200191508051906020019060200280838360005b83811015610a18578181015183820152602001610a00565b50505050905001878103825288818151815260200191508051906020019060200280838360005b83811015610a57578181015183820152602001610a3f565b505050509050019c5050505050505050505050505060405180910390f35b348015610a8157600080fd5b50610230600435602435600160a060020a0360443516606435608435613649565b348015610aae57600080fd5b50610488613835565b348015610ac357600080fd5b50610488600435613844565b348015610adb57600080fd5b5061054661386c565b348015610af057600080fd5b506104886138e7565b348015610b0557600080fd5b5060408051602060048035808201358381028086018501909652808552610230953695939460249493850192918291850190849080828437509497506138f69650505050505050565b348015610b5a57600080fd5b50610247613cc2565b348015610b6f57600080fd5b50610230600435602435604435613ce6565b348015610b8d57600080fd5b506105466141f2565b348015610ba257600080fd5b506108c8600435614254565b348015610bba57600080fd5b506102476147bc565b600060d060020a654d414e41474502600080600760009054906101000a9004600160a060020a0316600160a060020a0316638da5cb5b6040518163ffffffff1660e060020a028152600401602060405180830381600087803b158015610c2857600080fd5b505af1158015610c3c573d6000803e3d6000fd5b505050506040513d6020811015610c5257600080fd5b505160065433600160a060020a039283168114945091161490508180610c755750805b80610d0557506007546040805160e060020a638658b8b9028152336004820152306024820152604481018690529051600160a060020a0390921691638658b8b9916064808201926020929091908290030181600087803b158015610cd857600080fd5b505af1158015610cec573d6000803e3d6000fd5b505050506040513d6020811015610d0257600080fd5b50515b1515610d49576040805160e560020a62461bcd028152602060048201526017602482015260008051602061569b833981519152604482015290519081900360640190fd5b670de0b6b3a7640000851115610da9576040805160e560020a62461bcd02815260206004820152601960248201527f496e636f72726563742077697468686f6c64696e672074617800000000000000604482015290519081900360640190fd5b7f3587f82979516528f7ce51509410f4d49aaed2fe4c2661c07a02cc17ea1410278686426040518080602001848152602001838152602001828103825285818151815260200191508051906020019060200280838360005b83811015610e19578181015183820152602001610e01565b5050505090500194505050505060405180910390a1600093505b8551841015610e7d5784600560008887815181101515610e4f57fe5b6020908102909101810151600160a060020a0316825281019190915260400160002055600190930192610e33565b505050505050565b60025481565b7f75cb2672000000000000000000000000000000000000000000000000000000005b90565b600060d060020a654d414e41474502600080600760009054906101000a9004600160a060020a0316600160a060020a0316638da5cb5b6040518163ffffffff1660e060020a028152600401602060405180830381600087803b158015610f1557600080fd5b505af1158015610f29573d6000803e3d6000fd5b505050506040513d6020811015610f3f57600080fd5b505160065433600160a060020a039283168114945091161490508180610f625750805b80610ff257506007546040805160e060020a638658b8b9028152336004820152306024820152604481018690529051600160a060020a0390921691638658b8b9916064808201926020929091908290030181600087803b158015610fc557600080fd5b505af1158015610fd9573d6000803e3d6000fd5b505050506040513d6020811015610fef57600080fd5b50515b1515611036576040805160e560020a62461bcd028152602060048201526017602482015260008051602061569b833981519152604482015290519081900360640190fd5b600760009054906101000a9004600160a060020a0316600160a060020a031663ff0b9c906040518163ffffffff1660e060020a028152600401602060405180830381600087803b15801561108957600080fd5b505af115801561109d573d6000803e3d6000fd5b505050506040513d60208110156110b357600080fd5b505193506110c68a8a8a8a888b8b6149dd565b50505050505050505050565b6000806000806000806003878154811015156110ea57fe5b90600052602060002090600e020160010154955060038781548110151561110d57fe5b90600052602060002090600e020160020154945060038781548110151561113057fe5b90600052602060002090600e020160030154935060038781548110151561115357fe5b90600052602060002090600e020160040154925060038781548110151561117657fe5b90600052602060002090600e020160050154915060038781548110151561119957fe5b90600052602060002090600e0201600d0154905091939550919395565b60035460009082908110611202576040805160e560020a62461bcd028152602060048201526010602482015260008051602061565b833981519152604482015290519081900360640190fd5b600380548290811061121057fe5b600091825260209091206007600e90920201015460ff161561127c576040805160e560020a62461bcd02815260206004820152601260248201527f4469766964656e64207265636c61696d65640000000000000000000000000000604482015290519081900360640190fd5b600380548290811061128a57fe5b90600052602060002090600e02016002015442101515156112f5576040805160e560020a62461bcd02815260206004820152601b60248201527f4469766964656e64206d6174757269747920696e206675747572650000000000604482015290519081900360640190fd5b600380548290811061130357fe5b90600052602060002090600e0201600301544210151561136d576040805160e560020a62461bcd02815260206004820152601760248201527f4469766964656e642065787069727920696e2070617374000000000000000000604482015290519081900360640190fd5b600380548490811061137b57fe5b60009182526020808320338452600a600e90930201918201905260409091205490925060ff16156113f6576040805160e560020a62461bcd02815260206004820152601860248201527f4469766964656e6420616c726561647920636c61696d65640000000000000000604482015290519081900360640190fd5b336000908152600b8301602052604090205460ff1615611486576040805160e560020a62461bcd02815260206004820152602160248201527f6d73672e73656e646572206578636c756465642066726f6d204469766964656e60448201527f6400000000000000000000000000000000000000000000000000000000000000606482015290519081900360840190fd5b61149133838561523f565b505050565b60008060d060020a654d414e41474502600080600760009054906101000a9004600160a060020a0316600160a060020a0316638da5cb5b6040518163ffffffff1660e060020a028152600401602060405180830381600087803b1580156114fc57600080fd5b505af1158015611510573d6000803e3d6000fd5b505050506040513d602081101561152657600080fd5b505160065433600160a060020a0392831681149450911614905081806115495750805b806115d957506007546040805160e060020a638658b8b9028152336004820152306024820152604481018690529051600160a060020a0390921691638658b8b9916064808201926020929091908290030181600087803b1580156115ac57600080fd5b505af11580156115c0573d6000803e3d6000fd5b505050506040513d60208110156115d657600080fd5b50515b151561161d576040805160e560020a62461bcd028152602060048201526017602482015260008051602061569b833981519152604482015290519081900360640190fd5b6003548610611664576040805160e560020a62461bcd028152602060048201526010602482015260008051602061565b833981519152604482015290519081900360640190fd5b600380548790811061167257fe5b90600052602060002090600e0201945061169d8560090154866008015461544e90919063ffffffff16565b600886015460098701556000878152602081815260408083205460015482517fa9059cbb000000000000000000000000000000000000000000000000000000008152600160a060020a039182166004820152602481018790529251959950169363a9059cbb93604480840194938390030190829087803b15801561172057600080fd5b505af1158015611734573d6000803e3d6000fd5b505050506040513d602081101561174a57600080fd5b505115156117a2576040805160e560020a62461bcd02815260206004820152600f60248201527f7472616e73666572206661696c65640000000000000000000000000000000000604482015290519081900360640190fd5b600086815260208181526040918290205460015483518881529351600160a060020a03928316948b9493909216927f31342482aee689b025c9cbe348134fefee05df6d6ac65a91dd6b0abdf454539f928290030190a4505050505050565b7f434845434b504f494e540000000000000000000000000000000000000000000081565b60d060020a654d414e41474502600080600760009054906101000a9004600160a060020a0316600160a060020a0316638da5cb5b6040518163ffffffff1660e060020a028152600401602060405180830381600087803b15801561188757600080fd5b505af115801561189b573d6000803e3d6000fd5b505050506040513d60208110156118b157600080fd5b505160065433600160a060020a0392831681149450911614905081806118d45750805b8061196457506007546040805160e060020a638658b8b9028152336004820152306024820152604481018690529051600160a060020a0390921691638658b8b9916064808201926020929091908290030181600087803b15801561193757600080fd5b505af115801561194b573d6000803e3d6000fd5b505050506040513d602081101561196157600080fd5b50515b15156119a8576040805160e560020a62461bcd028152602060048201526017602482015260008051602061569b833981519152604482015290519081900360640190fd5b6110c68a8a8a8a8a8a8a6149dd565b60008060008051602061567b833981519152600080600760009054906101000a9004600160a060020a0316600160a060020a0316638da5cb5b6040518163ffffffff1660e060020a028152600401602060405180830381600087803b158015611a1f57600080fd5b505af1158015611a33573d6000803e3d6000fd5b505050506040513d6020811015611a4957600080fd5b505160065433600160a060020a039283168114945091161490508180611a6c5750805b80611afc57506007546040805160e060020a638658b8b9028152336004820152306024820152604481018690529051600160a060020a0390921691638658b8b9916064808201926020929091908290030181600087803b158015611acf57600080fd5b505af1158015611ae3573d6000803e3d6000fd5b505050506040513d6020811015611af957600080fd5b50515b1515611b40576040805160e560020a62461bcd028152602060048201526017602482015260008051602061569b833981519152604482015290519081900360640190fd5b60035487908110611b89576040805160e560020a62461bcd028152602060048201526010602482015260008051602061565b833981519152604482015290519081900360640190fd5b6003805482908110611b9757fe5b600091825260209091206007600e90920201015460ff1615611c03576040805160e560020a62461bcd02815260206004820152601260248201527f4469766964656e64207265636c61696d65640000000000000000000000000000604482015290519081900360640190fd5b6003805482908110611c1157fe5b90600052602060002090600e0201600201544210151515611c7c576040805160e560020a62461bcd02815260206004820152601b60248201527f4469766964656e64206d6174757269747920696e206675747572650000000000604482015290519081900360640190fd5b6003805482908110611c8a57fe5b90600052602060002090600e02016003015442101515611cf4576040805160e560020a62461bcd02815260206004820152601760248201527f4469766964656e642065787069727920696e2070617374000000000000000000604482015290519081900360640190fd5b6003805489908110611d0257fe5b90600052602060002090600e02019550600094505b8651851015611dd05785600a0160008887815181101515611d3457fe5b6020908102909101810151600160a060020a031682528101919091526040016000205460ff16158015611d9e575085600b0160008887815181101515611d7657fe5b6020908102909101810151600160a060020a031682528101919091526040016000205460ff16155b15611dc557611dc58786815181101515611db457fe5b90602001906020020151878a61523f565b600190940193611d17565b5050505050505050565b600154600160a060020a031681565b6003546000908210611e33576040805160e560020a62461bcd028152602060048201526010602482015260008051602061565b833981519152604482015290519081900360640190fd5b6003805483908110611e4157fe5b60009182526020808320600160a060020a0387168452600a600e90930201919091019052604090205460ff1690505b92915050565b60008060008060008060038054905088101515611ecb576040805160e560020a62461bcd028152602060048201526010602482015260008051602061565b833981519152604482015290519081900360640190fd5b6003805489908110611ed957fe5b60009182526020808320600160a060020a038b168452600a600e90930201918201905260409091205490945060ff1680611f2d5750600160a060020a0387166000908152600b8501602052604090205460ff165b15611f3e576000955085945061204e565b6007548454604080517f4ee2cd7e000000000000000000000000000000000000000000000000000000008152600160a060020a038b81166004830152602482019390935290519190921691634ee2cd7e9160448083019260209291908290030181600087803b158015611fb057600080fd5b505af1158015611fc4573d6000803e3d6000fd5b505050506040513d6020811015611fda57600080fd5b50516006850154600486015491945061200a91611ffe90869063ffffffff61546016565b9063ffffffff61548916565b600160a060020a03881660009081526005602052604090205490925061204590670de0b6b3a764000090611ffe90859063ffffffff61546016565b90508181955095505b505050509250929050565b60d060020a654d414e4147450281565b606060008082815b6003548310156120b5578560038481548110151561208b57fe5b90600052602060002090600e02016000015414156120aa576001909301925b600190920191612071565b836040519080825280602002602001820160405280156120df578160200160208202803883390190505b50915060009350600090505b600354811015612145578560038281548110151561210557fe5b90600052602060002090600e020160000154141561213d5780828581518110151561212c57fe5b602090810290910101526001909301925b6001016120eb565b50949350505050565b60007f4645455f41444d494e0000000000000000000000000000000000000000000000600080600760009054906101000a9004600160a060020a0316600160a060020a0316638da5cb5b6040518163ffffffff1660e060020a028152600401602060405180830381600087803b1580156121c757600080fd5b505af11580156121db573d6000803e3d6000fd5b505050506040513d60208110156121f157600080fd5b505160065433600160a060020a0392831681149450911614905081806122145750805b806122a457506007546040805160e060020a638658b8b9028152336004820152306024820152604481018690529051600160a060020a0390921691638658b8b9916064808201926020929091908290030181600087803b15801561227757600080fd5b505af115801561228b573d6000803e3d6000fd5b505050506040513d60208110156122a157600080fd5b50515b15156122e8576040805160e560020a62461bcd028152602060048201526017602482015260008051602061569b833981519152604482015290519081900360640190fd5b600854600754600654604080517f8da5cb5b0000000000000000000000000000000000000000000000000000000081529051600160a060020a03948516946323b872dd948116931691638da5cb5b9160048083019260209291908290030181600087803b15801561235857600080fd5b505af115801561236c573d6000803e3d6000fd5b505050506040513d602081101561238257600080fd5b50516040805160e060020a63ffffffff8616028152600160a060020a039384166004820152929091166024830152604482018990525160648083019260209291908290030181600087803b1580156123d957600080fd5b505af11580156123ed573d6000803e3d6000fd5b505050506040513d602081101561240357600080fd5b5051151561245b576040805160e560020a62461bcd02815260206004820152601260248201527f556e61626c6520746f2074616b65206665650000000000000000000000000000604482015290519081900360640190fd5b506001949350505050565b60d060020a654d414e41474502600080600760009054906101000a9004600160a060020a0316600160a060020a0316638da5cb5b6040518163ffffffff1660e060020a028152600401602060405180830381600087803b1580156124c957600080fd5b505af11580156124dd573d6000803e3d6000fd5b505050506040513d60208110156124f357600080fd5b505160065433600160a060020a0392831681149450911614905081806125165750805b806125a657506007546040805160e060020a638658b8b9028152336004820152306024820152604481018690529051600160a060020a0390921691638658b8b9916064808201926020929091908290030181600087803b15801561257957600080fd5b505af115801561258d573d6000803e3d6000fd5b505050506040513d60208110156125a357600080fd5b50515b15156125ea576040805160e560020a62461bcd028152602060048201526017602482015260008051602061569b833981519152604482015290519081900360640190fd5b6126538989898989600480548060200260200160405190810160405280929190818152602001828054801561264857602002820191906000526020600020905b8154600160a060020a0316815260019091019060200180831161262a575b50505050508a6149dd565b505050505050505050565b600854600160a060020a031681565b600654600160a060020a031633146126cf576040805160e560020a62461bcd02815260206004820152601560248201527f53656e646572206973206e6f7420666163746f72790000000000000000000000604482015290519081900360640190fd5b6126d88161549e565b50565b60056020526000908152604090205481565b60608060606000600760009054906101000a9004600160a060020a0316600160a060020a0316635488cc806040518163ffffffff1660e060020a028152600401602060405180830381600087803b15801561274757600080fd5b505af115801561275b573d6000803e3d6000fd5b505050506040513d602081101561277157600080fd5b50518511156127ca576040805160e560020a62461bcd02815260206004820152601260248201527f496e76616c696420636865636b706f696e740000000000000000000000000000604482015290519081900360640190fd5b600754604080517f3f553586000000000000000000000000000000000000000000000000000000008152600481018890529051600160a060020a0390921691633f5535869160248082019260009290919082900301818387803b15801561283057600080fd5b505af1158015612844573d6000803e3d6000fd5b505050506040513d6000823e601f3d908101601f19168201604052602081101561286d57600080fd5b81019080805164010000000081111561288557600080fd5b8201602081018481111561289857600080fd5b81518560208202830111640100000000821117156128b557600080fd5b5050929190505050935083516040519080825280602002602001820160405280156128ea578160200160208202803883390190505b5092508351604051908082528060200260200182016040528015612918578160200160208202803883390190505b5091505b8351811015612a48576007548451600160a060020a0390911690634ee2cd7e9086908490811061294857fe5b90602001906020020151876040518363ffffffff1660e060020a0281526004018083600160a060020a0316600160a060020a0316815260200182815260200192505050602060405180830381600087803b1580156129a557600080fd5b505af11580156129b9573d6000803e3d6000fd5b505050506040513d60208110156129cf57600080fd5b505183518490839081106129df57fe5b6020908102909101015283516005906000908690849081106129fd57fe5b90602001906020020151600160a060020a0316600160a060020a03168152602001908152602001600020548282815181101515612a3657fe5b6020908102909101015260010161291c565b509193909250565b60008051602061567b83398151915281565b6003805482908110612a7057fe5b60009182526020909120600e9091020180546001820154600283015460038401546004850154600586015460068701546007880154600889015460098a0154600d909a0154989a5096989597949693959294919360ff9091169290918b565b6003546000908210612b19576040805160e560020a62461bcd028152602060048201526010602482015260008051602061565b833981519152604482015290519081900360640190fd5b6003805483908110612b2757fe5b60009182526020808320600160a060020a0387168452600b600e90930201919091019052604090205460ff16905092915050565b600060d060020a654d414e41474502600080600760009054906101000a9004600160a060020a0316600160a060020a0316638da5cb5b6040518163ffffffff1660e060020a028152600401602060405180830381600087803b158015612bc057600080fd5b505af1158015612bd4573d6000803e3d6000fd5b505050506040513d6020811015612bea57600080fd5b505160065433600160a060020a039283168114945091161490508180612c0d5750805b80612c9d57506007546040805160e060020a638658b8b9028152336004820152306024820152604481018690529051600160a060020a0390921691638658b8b9916064808201926020929091908290030181600087803b158015612c7057600080fd5b505af1158015612c84573d6000803e3d6000fd5b505050506040513d6020811015612c9a57600080fd5b50515b1515612ce1576040805160e560020a62461bcd028152602060048201526017602482015260008051602061569b833981519152604482015290519081900360640190fd5b8451865114612d3a576040805160e560020a62461bcd02815260206004820152601860248201527f4d69736d61746368656420696e707574206c656e677468730000000000000000604482015290519081900360640190fd5b7f8e6f19b496a634d6fb5faea10ece2675995b6f7a0946a7509885eb76889e1213868642604051808060200180602001848152602001838103835286818151815260200191508051906020019060200280838360005b83811015612da8578181015183820152602001612d90565b50505050905001838103825285818151815260200191508051906020019060200280838360005b83811015612de7578181015183820152602001612dcf565b505050509050019550505050505060405180910390a1600093505b8551841015610e7d57670de0b6b3a76400008585815181101515612e2257fe5b602090810290910101511115612e82576040805160e560020a62461bcd02815260206004820152601960248201527f496e636f72726563742077697468686f6c64696e672074617800000000000000604482015290519081900360640190fd5b8484815181101515612e9057fe5b90602001906020020151600560008887815181101515612eac57fe5b6020908102909101810151600160a060020a0316825281019190915260400160002055600190930192612e02565b600060208190529081526040902054600160a060020a031681565b600760009054906101000a9004600160a060020a0316600160a060020a0316638da5cb5b6040518163ffffffff1660e060020a028152600401602060405180830381600087803b158015612f4857600080fd5b505af1158015612f5c573d6000803e3d6000fd5b505050506040513d6020811015612f7257600080fd5b5051600160a060020a031633146126cf576040805160e560020a62461bcd02815260206004820152601360248201527f53656e646572206973206e6f74206f776e657200000000000000000000000000604482015290519081900360640190fd5b60008060d060020a654d414e41474502600080600760009054906101000a9004600160a060020a0316600160a060020a0316638da5cb5b6040518163ffffffff1660e060020a028152600401602060405180830381600087803b15801561303957600080fd5b505af115801561304d573d6000803e3d6000fd5b505050506040513d602081101561306357600080fd5b505160065433600160a060020a0392831681149450911614905081806130865750805b8061311657506007546040805160e060020a638658b8b9028152336004820152306024820152604481018690529051600160a060020a0390921691638658b8b9916064808201926020929091908290030181600087803b1580156130e957600080fd5b505af11580156130fd573d6000803e3d6000fd5b505050506040513d602081101561311357600080fd5b50515b151561315a576040805160e560020a62461bcd028152602060048201526017602482015260008051602061569b833981519152604482015290519081900360640190fd5b60035486106131a1576040805160e560020a62461bcd028152602060048201526010602482015260008051602061565b833981519152604482015290519081900360640190fd5b60038054879081106131af57fe5b90600052602060002090600e020160030154421015151561321a576040805160e560020a62461bcd02815260206004820152601960248201527f4469766964656e642065787069727920696e2066757475726500000000000000604482015290519081900360640190fd5b600380548790811061322857fe5b600091825260209091206007600e90920201015460ff1615613294576040805160e560020a62461bcd02815260206004820152600f60248201527f616c726561647920636c61696d65640000000000000000000000000000000000604482015290519081900360640190fd5b60016003878154811015156132a557fe5b60009182526020909120600e90910201600701805460ff191691151591909117905560038054879081106132d557fe5b90600052602060002090600e020194506133008560050154866004015461544e90919063ffffffff16565b6000878152602081815260408083205460015482517fa9059cbb000000000000000000000000000000000000000000000000000000008152600160a060020a039182166004820152602481018790529251959950169363a9059cbb93604480840194938390030190829087803b15801561337957600080fd5b505af115801561338d573d6000803e3d6000fd5b505050506040513d60208110156133a357600080fd5b505115156133fb576040805160e560020a62461bcd02815260206004820152600f60248201527f7472616e73666572206661696c65640000000000000000000000000000000000604482015290519081900360640190fd5b600086815260208181526040918290205460015483518881529351600160a060020a03928316948b9493909216927f9766d0325a2a3c017f6cf974bfd1bd0b26e705570ce8250fe5e078a3e832d52d928290030190a4505050505050565b6060806060806060806000600380549050604051908082528060200260200182016040528015613493578160200160208202803883390190505b5060035460408051828152602080840282010190915291985080156134c2578160200160208202803883390190505b5060035460408051828152602080840282010190915291975080156134f1578160200160208202803883390190505b506003546040805182815260208084028201019091529196508015613520578160200160208202803883390190505b50600354604080518281526020808402820101909152919550801561354f578160200160208202803883390190505b50600354604080518281526020808402820101909152919450801561357e578160200160208202803883390190505b509150600090505b60035481101561364057613599816110d2565b8c878151811015156135a757fe5b9060200190602002018c888151811015156135be57fe5b9060200190602002018c898151811015156135d557fe5b9060200190602002018c8a8151811015156135ec57fe5b9060200190602002018c8b81518110151561360357fe5b9060200190602002018c8c81518110151561361a57fe5b602090810290910101959095529490935293909252929092529190915252600101613586565b50909192939495565b60d060020a654d414e41474502600080600760009054906101000a9004600160a060020a0316600160a060020a0316638da5cb5b6040518163ffffffff1660e060020a028152600401602060405180830381600087803b1580156136ac57600080fd5b505af11580156136c0573d6000803e3d6000fd5b505050506040513d60208110156136d657600080fd5b505160065433600160a060020a0392831681149450911614905081806136f95750805b8061378957506007546040805160e060020a638658b8b9028152336004820152306024820152604481018690529051600160a060020a0390921691638658b8b9916064808201926020929091908290030181600087803b15801561375c57600080fd5b505af1158015613770573d6000803e3d6000fd5b505050506040513d602081101561378657600080fd5b50515b15156137cd576040805160e560020a62461bcd028152602060048201526017602482015260008051602061569b833981519152604482015290519081900360640190fd5b611dd088888888600480548060200260200160405190810160405280929190818152602001828054801561382a57602002820191906000526020600020905b8154600160a060020a0316815260019091019060200180831161380c575b505050505089610eb0565b600754600160a060020a031681565b600480548290811061385257fe5b600091825260209091200154600160a060020a0316905081565b60408051600280825260608083018452928392919060208301908038833901905050905060008051602061567b8339815191528160008151811015156138ae57fe5b60209081029091010152805160d060020a654d414e4147450290829060019081106138d557fe5b602090810290910101529050805b5090565b600654600160a060020a031681565b60008060d060020a654d414e41474502600080600760009054906101000a9004600160a060020a0316600160a060020a0316638da5cb5b6040518163ffffffff1660e060020a028152600401602060405180830381600087803b15801561395c57600080fd5b505af1158015613970573d6000803e3d6000fd5b505050506040513d602081101561398657600080fd5b505160065433600160a060020a0392831681149450911614905081806139a95750805b80613a3957506007546040805160e060020a638658b8b9028152336004820152306024820152604481018690529051600160a060020a0390921691638658b8b9916064808201926020929091908290030181600087803b158015613a0c57600080fd5b505af1158015613a20573d6000803e3d6000fd5b505050506040513d6020811015613a3657600080fd5b50515b1515613a7d576040805160e560020a62461bcd028152602060048201526017602482015260008051602061569b833981519152604482015290519081900360640190fd5b60025486511115613ad8576040805160e560020a62461bcd02815260206004820152601b60248201527f546f6f206d616e79206578636c75646564206164647265737365730000000000604482015290519081900360640190fd5b600094505b8551851015613c1e578551600090879087908110613af757fe5b60209081029091010151600160a060020a03161415613b60576040805160e560020a62461bcd02815260206004820152600f60248201527f496e76616c696420616464726573730000000000000000000000000000000000604482015290519081900360640190fd5b8460010193505b8551841015613c13578584815181101515613b7e57fe5b90602001906020020151600160a060020a03168686815181101515613b9f57fe5b60209081029091010151600160a060020a03161415613c08576040805160e560020a62461bcd02815260206004820152601960248201527f4475706c6963617465206578636c756465206164647265737300000000000000604482015290519081900360640190fd5b600190930192613b67565b600190940193613add565b8551613c319060049060208901906155c1565b507f6f7d61057c8835d8bd9272c926f638242a70f6441466ae91cd272872ed84151f60044260405180806020018381526020018281038252848181548152602001915080548015613cab57602002820191906000526020600020905b8154600160a060020a03168152600190910190602001808311613c8d575b5050935050505060405180910390a1505050505050565b7f4645455f41444d494e000000000000000000000000000000000000000000000081565b6000806060600080600060008051602061567b833981519152600080600760009054906101000a9004600160a060020a0316600160a060020a0316638da5cb5b6040518163ffffffff1660e060020a028152600401602060405180830381600087803b158015613d5557600080fd5b505af1158015613d69573d6000803e3d6000fd5b505050506040513d6020811015613d7f57600080fd5b505160065433600160a060020a039283168114945091161490508180613da25750805b80613e3257506007546040805160e060020a638658b8b9028152336004820152306024820152604481018690529051600160a060020a0390921691638658b8b9916064808201926020929091908290030181600087803b158015613e0557600080fd5b505af1158015613e19573d6000803e3d6000fd5b505050506040513d6020811015613e2f57600080fd5b50515b1515613e76576040805160e560020a62461bcd028152602060048201526017602482015260008051602061569b833981519152604482015290519081900360640190fd5b6003548c908110613ebf576040805160e560020a62461bcd028152602060048201526010602482015260008051602061565b833981519152604482015290519081900360640190fd5b6003805482908110613ecd57fe5b600091825260209091206007600e90920201015460ff1615613f39576040805160e560020a62461bcd02815260206004820152601260248201527f4469766964656e64207265636c61696d65640000000000000000000000000000604482015290519081900360640190fd5b6003805482908110613f4757fe5b90600052602060002090600e0201600201544210151515613fb2576040805160e560020a62461bcd02815260206004820152601b60248201527f4469766964656e64206d6174757269747920696e206675747572650000000000604482015290519081900360640190fd5b6003805482908110613fc057fe5b90600052602060002090600e0201600301544210151561402a576040805160e560020a62461bcd02815260206004820152601760248201527f4469766964656e642065787069727920696e2070617374000000000000000000604482015290519081900360640190fd5b600380548e90811061403857fe5b600091825260208220600e909102018054600754604080517f3f553586000000000000000000000000000000000000000000000000000000008152600481018490529051939e50919c50600160a060020a031692633f5535869260248084019382900301818387803b1580156140ad57600080fd5b505af11580156140c1573d6000803e3d6000fd5b505050506040513d6000823e601f3d908101601f1916820160405260208110156140ea57600080fd5b81019080805164010000000081111561410257600080fd5b8201602081018481111561411557600080fd5b815185602082028301116401000000008211171561413257600080fd5b50508051909b506141579350915061415290508e8e63ffffffff61552716565b615534565b96508b95505b868610156141e357878681518110151561417357fe5b6020908102909101810151600160a060020a0381166000908152600a8d0190925260409091205490955060ff161580156141c85750600160a060020a0385166000908152600b8b01602052604090205460ff16155b156141d8576141d8858b8f61523f565b60019095019461415d565b50505050505050505050505050565b6060600480548060200260200160405190810160405280929190818152602001828054801561424a57602002820191906000526020600020905b8154600160a060020a0316815260019091019060200180831161422c575b5050505050905090565b60608060608060608060008060008060006003805490508c1015156142b1576040805160e560020a62461bcd028152602060048201526010602482015260008051602061565b833981519152604482015290519081900360640190fd5b600380548d9081106142bf57fe5b600091825260208220600e909102018054600754604080517f3f553586000000000000000000000000000000000000000000000000000000008152600481018490529051939950919750600160a060020a031692633f5535869260248084019382900301818387803b15801561433457600080fd5b505af1158015614348573d6000803e3d6000fd5b505050506040513d6000823e601f3d908101601f19168201604052602081101561437157600080fd5b81019080805164010000000081111561438957600080fd5b8201602081018481111561439c57600080fd5b81518560208202830111640100000000821117156143b957600080fd5b50509291905050509a508a516040519080825280602002602001820160405280156143ee578160200160208202803883390190505b5099508a5160405190808252806020026020018201604052801561441c578160200160208202803883390190505b5098508a5160405190808252806020026020018201604052801561444a578160200160208202803883390190505b5097508a51604051908082528060200260200182016040528015614478578160200160208202803883390190505b5096508a516040519080825280602002602001820160405280156144a6578160200160208202803883390190505b5095505b8a518310156147ae5784600a0160008c858151811015156144c757fe5b6020908102909101810151600160a060020a03168252810191909152604001600020548a5160ff909116908b90859081106144fe57fe5b9115156020928302909101909101528a51600b8601906000908d908690811061452357fe5b6020908102909101810151600160a060020a0316825281019190915260400160002054895160ff909116908a908590811061455a57fe5b9115156020928302909101909101526007548b51600160a060020a0390911690634ee2cd7e908d908690811061458c57fe5b9060200190602002015187600001546040518363ffffffff1660e060020a0281526004018083600160a060020a0316600160a060020a0316815260200182815260200192505050602060405180830381600087803b1580156145ed57600080fd5b505af1158015614601573d6000803e3d6000fd5b505050506040513d602081101561461757600080fd5b5051865187908590811061462757fe5b60209081029091010152885189908490811061463f57fe5b9060200190602002015115156147a357898381518110151561465d57fe5b906020019060200201511561473c5784600c0160008c8581518110151561468057fe5b90602001906020020151600160a060020a0316600160a060020a031681526020019081526020016000205488848151811015156146b957fe5b60209081029091010152875161471f908990859081106146d557fe5b906020019060200201516147138760060154611ffe89600401548b898151811015156146fd57fe5b602090810290910101519063ffffffff61546016565b9063ffffffff61544e16565b878481518110151561472d57fe5b602090810290910101526147a3565b61475d8c8c8581518110151561474e57fe5b90602001906020020151611e76565b9150915080888481518110151561477057fe5b6020908102909101015261478a828263ffffffff61544e16565b878481518110151561479857fe5b602090810290910101525b6001909201916144aa565b505050505091939550919395565b60007f434845434b504f494e5400000000000000000000000000000000000000000000600080600760009054906101000a9004600160a060020a0316600160a060020a0316638da5cb5b6040518163ffffffff1660e060020a028152600401602060405180830381600087803b15801561483557600080fd5b505af1158015614849573d6000803e3d6000fd5b505050506040513d602081101561485f57600080fd5b505160065433600160a060020a0392831681149450911614905081806148825750805b8061491257506007546040805160e060020a638658b8b9028152336004820152306024820152604481018690529051600160a060020a0390921691638658b8b9916064808201926020929091908290030181600087803b1580156148e557600080fd5b505af11580156148f9573d6000803e3d6000fd5b505050506040513d602081101561490f57600080fd5b50515b1515614956576040805160e560020a62461bcd028152602060048201526017602482015260008051602061569b833981519152604482015290519081900360640190fd5b600760009054906101000a9004600160a060020a0316600160a060020a031663ff0b9c906040518163ffffffff1660e060020a028152600401602060405180830381600087803b1580156149a957600080fd5b505af11580156149bd573d6000803e3d6000fd5b505050506040513d60208110156149d357600080fd5b5051935050505090565b6007546002548351600160a060020a03909216916000918291829182911115614a50576040805160e560020a62461bcd02815260206004820152601b60248201527f546f6f206d616e7920616464726573736573206578636c756465640000000000604482015290519081900360640190fd5b8b8b11614aa7576040805160e560020a62461bcd02815260206004820152601660248201527f457870697279206265666f7265206d6174757269747900000000000000000000604482015290519081900360640190fd5b428b11614afe576040805160e560020a62461bcd02815260206004820152600e60248201527f45787069727920696e2070617374000000000000000000000000000000000000604482015290519081900360640190fd5b60008911614b56576040805160e560020a62461bcd02815260206004820152601060248201527f4e6f206469766964656e642073656e7400000000000000000000000000000000604482015290519081900360640190fd5b600160a060020a038a161515614bb6576040805160e560020a62461bcd02815260206004820152600d60248201527f496e76616c696420746f6b656e00000000000000000000000000000000000000604482015290519081900360640190fd5b84600160a060020a0316635488cc806040518163ffffffff1660e060020a028152600401602060405180830381600087803b158015614bf457600080fd5b505af1158015614c08573d6000803e3d6000fd5b505050506040513d6020811015614c1e57600080fd5b5051881115614c77576040805160e560020a62461bcd02815260206004820152601260248201527f496e76616c696420636865636b706f696e740000000000000000000000000000604482015290519081900360640190fd5b604080517f23b872dd000000000000000000000000000000000000000000000000000000008152336004820152306024820152604481018b90529051600160a060020a038c16916323b872dd9160648083019260209291908290030181600087803b158015614ce557600080fd5b505af1158015614cf9573d6000803e3d6000fd5b505050506040513d6020811015614d0f57600080fd5b50511515614d67576040805160e560020a62461bcd02815260206004820152601560248201527f696e737566666963656e7420616c6c6f77616e63650000000000000000000000604482015290519081900360640190fd5b7fff000000000000000000000000000000000000000000000000000000000000007f0100000000000000000000000000000000000000000000000000000000000000600088901a02161515614dbb57600080fd5b600380549050935084600160a060020a031663981b24d0896040518263ffffffff1660e060020a02815260040180828152602001915050602060405180830381600087803b158015614e0c57600080fd5b505af1158015614e20573d6000803e3d6000fd5b505050506040513d6020811015614e3657600080fd5b81019080805190602001909291905050509250600091506003610160604051908101604052808a81526020014281526020018e81526020018d81526020018b81526020016000815260200160008152602001600015158152602001600081526020016000815260200188600019168152509080600181540180825580915050906001820390600052602060002090600e020160009091929091909150600082015181600001556020820151816001015560408201518160020155606082015181600301556080820151816004015560a0820151816005015560c0820151816006015560e08201518160070160006101000a81548160ff0219169083151502179055506101008201518160080155610120820151816009015561014082015181600d0190600019169055505050600090505b86518110156151b8578651600090889083908110614f8157fe5b60209081029091010151600160a060020a03161415614fea576040805160e560020a62461bcd02815260206004820152600f60248201527f496e76616c696420616464726573730000000000000000000000000000000000604482015290519081900360640190fd5b6003805485908110614ff857fe5b90600052602060002090600e0201600b016000888381518110151561501957fe5b6020908102909101810151600160a060020a031682528101919091526040016000205460ff1615615094576040805160e560020a62461bcd02815260206004820152601560248201527f6475706564206578636c75646520616464726573730000000000000000000000604482015290519081900360640190fd5b61514a85600160a060020a0316634ee2cd7e89848151811015156150b457fe5b906020019060200201518b6040518363ffffffff1660e060020a0281526004018083600160a060020a0316600160a060020a0316815260200182815260200192505050602060405180830381600087803b15801561511157600080fd5b505af1158015615125573d6000803e3d6000fd5b505050506040513d602081101561513b57600080fd5b5051839063ffffffff61552716565b9150600160038581548110151561515d57fe5b90600052602060002090600e0201600b016000898481518110151561517e57fe5b602090810291909101810151600160a060020a03168252810191909152604001600020805460ff1916911515919091179055600101614f67565b6151c8838363ffffffff61544e16565b60038054869081106151d657fe5b60009182526020808320600e92909202909101600601929092558581529081905260409020805473ffffffffffffffffffffffffffffffffffffffff1916600160a060020a038c16179055615231888d8d8d8d888a8d61554c565b505050505050505050505050565b600080600061524e8487611e76565b600160a060020a0388166000908152600a880160205260409020805460ff191660011790556005870154919450925061528e90849063ffffffff61552716565b60058601556152a3838363ffffffff61544e16565b90506000811115610e7d576000848152602081815260408083205481517fa9059cbb000000000000000000000000000000000000000000000000000000008152600160a060020a038b81166004830152602482018790529251929091169363a9059cbb9360448084019491939192918390030190829087803b15801561532857600080fd5b505af115801561533c573d6000803e3d6000fd5b505050506040513d602081101561535257600080fd5b505115156153aa576040805160e560020a62461bcd02815260206004820152600f60248201527f7472616e73666572206661696c65640000000000000000000000000000000000604482015290519081900360640190fd5b60008211156153eb5760088501546153c8908363ffffffff61552716565b6008860155600160a060020a0386166000908152600c8601602052604090208290555b600084815260208181526040918290205482518681529182018590528251600160a060020a03918216938893928b16927fced5aaa2960f7fd397627b6d68ccb25eae2d3db92a459182962e6f9b5786241a929081900390910190a4505050505050565b60008282111561545a57fe5b50900390565b600082151561547157506000611e70565b5081810281838281151561548157fe5b0414611e7057fe5b6000818381151561549657fe5b049392505050565b600160a060020a03811615156154b357600080fd5b600154604080514281529051600160a060020a038085169316917ffc2c92d63470564c67e93b5d868cba9e923476aae9ad9718920da95f48eb8695919081900360200190a36001805473ffffffffffffffffffffffffffffffffffffffff1916600160a060020a0392909216919091179055565b81810182811015611e7057fe5b60008183106155435781615545565b825b9392505050565b60408051898152426020820152808201899052606081018890526080810186905260a0810185905260c0810184905290518291600160a060020a0388169133917f66944b9b992875f1854a548c80939651e27d9b825c50b81aee55a2882807e116919081900360e00190a45050505050505050565b828054828255906000526020600020908101928215615623579160200282015b82811115615623578251825473ffffffffffffffffffffffffffffffffffffffff1916600160a060020a039091161782556020909201916001909101906155e1565b506138e392610ead9250905b808211156138e357805473ffffffffffffffffffffffffffffffffffffffff1916815560010161562f5600496e76616c6964206469766964656e640000000000000000000000000000000044495354524942555445000000000000000000000000000000000000000000005065726d697373696f6e20636865636b206661696c6564000000000000000000a165627a7a723058200697026244fb9aa18cc6d11f830abe47b88367b6f3a88da482689ac135361f6f0029",
  "source": "pragma solidity ^0.4.24;\r\n\r\nimport \"./DividendCheckpoint.sol\";\r\nimport \"./ERC20DividendCheckpointStorage.sol\";\r\nimport \"../../interfaces/IOwnable.sol\";\r\nimport \"../../interfaces/IERC20.sol\";\r\n\r\n/**\r\n * @title Checkpoint module for issuing ERC20 dividends\r\n */\r\ncontract ERC20DividendCheckpoint is ERC20DividendCheckpointStorage, DividendCheckpoint {\r\n    using SafeMath for uint256;\r\n\r\n    event ERC20DividendDeposited(\r\n        address indexed _depositor,\r\n        uint256 _checkpointId,\r\n        uint256 _created,\r\n        uint256 _maturity,\r\n        uint256 _expiry,\r\n        address indexed _token,\r\n        uint256 _amount,\r\n        uint256 _totalSupply,\r\n        uint256 _dividendIndex,\r\n        bytes32 indexed _name\r\n    );\r\n    event ERC20DividendClaimed(\r\n        address indexed _payee,\r\n        uint256 indexed _dividendIndex,\r\n        address indexed _token,\r\n        uint256 _amount,\r\n        uint256 _withheld\r\n    );\r\n    event ERC20DividendReclaimed(\r\n        address indexed _claimer,\r\n        uint256 indexed _dividendIndex,\r\n        address indexed _token,\r\n        uint256 _claimedAmount\r\n    );\r\n    event ERC20DividendWithholdingWithdrawn(\r\n        address indexed _claimer,\r\n        uint256 indexed _dividendIndex,\r\n        address indexed _token,\r\n        uint256 _withheldAmount\r\n    );\r\n\r\n    /**\r\n     * @notice Constructor\r\n     * @param _securityToken Address of the security token\r\n     * @param _polyAddress Address of the polytoken\r\n     */\r\n    constructor (address _securityToken, address _polyAddress) public\r\n    Module(_securityToken, _polyAddress)\r\n    {\r\n    }\r\n\r\n    /**\r\n     * @notice Creates a dividend and checkpoint for the dividend\r\n     * @param _maturity Time from which dividend can be paid\r\n     * @param _expiry Time until dividend can no longer be paid, and can be reclaimed by issuer\r\n     * @param _token Address of ERC20 token in which dividend is to be denominated\r\n     * @param _amount Amount of specified token for dividend\r\n     * @param _name Name/Title for identification\r\n     */\r\n    function createDividend(\r\n        uint256 _maturity,\r\n        uint256 _expiry,\r\n        address _token,\r\n        uint256 _amount,\r\n        bytes32 _name\r\n    )\r\n        external\r\n        withPerm(MANAGE)\r\n    {\r\n        createDividendWithExclusions(_maturity, _expiry, _token, _amount, excluded, _name);\r\n    }\r\n\r\n    /**\r\n     * @notice Creates a dividend with a provided checkpoint\r\n     * @param _maturity Time from which dividend can be paid\r\n     * @param _expiry Time until dividend can no longer be paid, and can be reclaimed by issuer\r\n     * @param _token Address of ERC20 token in which dividend is to be denominated\r\n     * @param _amount Amount of specified token for dividend\r\n     * @param _checkpointId Checkpoint id from which to create dividends\r\n     * @param _name Name/Title for identification\r\n     */\r\n    function createDividendWithCheckpoint(\r\n        uint256 _maturity,\r\n        uint256 _expiry,\r\n        address _token,\r\n        uint256 _amount,\r\n        uint256 _checkpointId,\r\n        bytes32 _name\r\n    )\r\n        external\r\n        withPerm(MANAGE)\r\n    {\r\n        _createDividendWithCheckpointAndExclusions(_maturity, _expiry, _token, _amount, _checkpointId, excluded, _name);\r\n    }\r\n\r\n    /**\r\n     * @notice Creates a dividend and checkpoint for the dividend\r\n     * @param _maturity Time from which dividend can be paid\r\n     * @param _expiry Time until dividend can no longer be paid, and can be reclaimed by issuer\r\n     * @param _token Address of ERC20 token in which dividend is to be denominated\r\n     * @param _amount Amount of specified token for dividend\r\n     * @param _excluded List of addresses to exclude\r\n     * @param _name Name/Title for identification\r\n     */\r\n    function createDividendWithExclusions(\r\n        uint256 _maturity,\r\n        uint256 _expiry,\r\n        address _token,\r\n        uint256 _amount,\r\n        address[] _excluded,\r\n        bytes32 _name\r\n    )\r\n        public\r\n        withPerm(MANAGE)\r\n    {\r\n        uint256 checkpointId = ISecurityToken(securityToken).createCheckpoint();\r\n        _createDividendWithCheckpointAndExclusions(_maturity, _expiry, _token, _amount, checkpointId, _excluded, _name);\r\n    }\r\n\r\n    /**\r\n     * @notice Creates a dividend with a provided checkpoint\r\n     * @param _maturity Time from which dividend can be paid\r\n     * @param _expiry Time until dividend can no longer be paid, and can be reclaimed by issuer\r\n     * @param _token Address of ERC20 token in which dividend is to be denominated\r\n     * @param _amount Amount of specified token for dividend\r\n     * @param _checkpointId Checkpoint id from which to create dividends\r\n     * @param _excluded List of addresses to exclude\r\n     * @param _name Name/Title for identification\r\n     */\r\n    function createDividendWithCheckpointAndExclusions(\r\n        uint256 _maturity,\r\n        uint256 _expiry,\r\n        address _token,\r\n        uint256 _amount,\r\n        uint256 _checkpointId,\r\n        address[] _excluded,\r\n        bytes32 _name\r\n    )\r\n        public\r\n        withPerm(MANAGE)\r\n    {\r\n        _createDividendWithCheckpointAndExclusions(_maturity, _expiry, _token, _amount, _checkpointId, _excluded, _name);\r\n    }\r\n\r\n    /**\r\n     * @notice Creates a dividend with a provided checkpoint\r\n     * @param _maturity Time from which dividend can be paid\r\n     * @param _expiry Time until dividend can no longer be paid, and can be reclaimed by issuer\r\n     * @param _token Address of ERC20 token in which dividend is to be denominated\r\n     * @param _amount Amount of specified token for dividend\r\n     * @param _checkpointId Checkpoint id from which to create dividends\r\n     * @param _excluded List of addresses to exclude\r\n     * @param _name Name/Title for identification\r\n     */\r\n    function _createDividendWithCheckpointAndExclusions(\r\n        uint256 _maturity,\r\n        uint256 _expiry,\r\n        address _token,\r\n        uint256 _amount,\r\n        uint256 _checkpointId,\r\n        address[] _excluded,\r\n        bytes32 _name\r\n    )\r\n        internal\r\n    {\r\n        ISecurityToken securityTokenInstance = ISecurityToken(securityToken);\r\n        require(_excluded.length <= EXCLUDED_ADDRESS_LIMIT, \"Too many addresses excluded\");\r\n        require(_expiry > _maturity, \"Expiry before maturity\");\r\n        /*solium-disable-next-line security/no-block-members*/\r\n        require(_expiry > now, \"Expiry in past\");\r\n        require(_amount > 0, \"No dividend sent\");\r\n        require(_token != address(0), \"Invalid token\");\r\n        require(_checkpointId <= securityTokenInstance.currentCheckpointId(), \"Invalid checkpoint\");\r\n        require(IERC20(_token).transferFrom(msg.sender, address(this), _amount), \"insufficent allowance\");\r\n        require(_name[0] != 0);\r\n        uint256 dividendIndex = dividends.length;\r\n        uint256 currentSupply = securityTokenInstance.totalSupplyAt(_checkpointId);\r\n        uint256 excludedSupply = 0;\r\n        dividends.push(\r\n          Dividend(\r\n            _checkpointId,\r\n            now, /*solium-disable-line security/no-block-members*/\r\n            _maturity,\r\n            _expiry,\r\n            _amount,\r\n            0,\r\n            0,\r\n            false,\r\n            0,\r\n            0,\r\n            _name\r\n          )\r\n        );\r\n\r\n        for (uint256 j = 0; j < _excluded.length; j++) {\r\n            require (_excluded[j] != address(0), \"Invalid address\");\r\n            require(!dividends[dividendIndex].dividendExcluded[_excluded[j]], \"duped exclude address\");\r\n            excludedSupply = excludedSupply.add(securityTokenInstance.balanceOfAt(_excluded[j], _checkpointId));\r\n            dividends[dividendIndex].dividendExcluded[_excluded[j]] = true;\r\n        }\r\n\r\n        dividends[dividendIndex].totalSupply = currentSupply.sub(excludedSupply);\r\n        dividendTokens[dividendIndex] = _token;\r\n        _emitERC20DividendDepositedEvent(_checkpointId, _maturity, _expiry, _token, _amount, currentSupply, dividendIndex, _name);\r\n    }\r\n\r\n    /**\r\n     * @notice Emits the ERC20DividendDeposited event.\r\n     * Seperated into a different function as a workaround for stack too deep error\r\n     */\r\n    function _emitERC20DividendDepositedEvent(\r\n        uint256 _checkpointId,\r\n        uint256 _maturity,\r\n        uint256 _expiry,\r\n        address _token,\r\n        uint256 _amount,\r\n        uint256 currentSupply,\r\n        uint256 dividendIndex,\r\n        bytes32 _name\r\n    )\r\n        internal\r\n    {\r\n        /*solium-disable-next-line security/no-block-members*/\r\n        emit ERC20DividendDeposited(msg.sender, _checkpointId, now, _maturity, _expiry, _token, _amount, currentSupply, dividendIndex, _name);\r\n    }\r\n\r\n    /**\r\n     * @notice Internal function for paying dividends\r\n     * @param _payee Address of investor\r\n     * @param _dividend Storage with previously issued dividends\r\n     * @param _dividendIndex Dividend to pay\r\n     */\r\n    function _payDividend(address _payee, Dividend storage _dividend, uint256 _dividendIndex) internal {\r\n        (uint256 claim, uint256 withheld) = calculateDividend(_dividendIndex, _payee);\r\n        _dividend.claimed[_payee] = true;\r\n        _dividend.claimedAmount = claim.add(_dividend.claimedAmount);\r\n        uint256 claimAfterWithheld = claim.sub(withheld);\r\n        if (claimAfterWithheld > 0) {\r\n            require(IERC20(dividendTokens[_dividendIndex]).transfer(_payee, claimAfterWithheld), \"transfer failed\");\r\n            if (withheld > 0) {\r\n                _dividend.totalWithheld = _dividend.totalWithheld.add(withheld);\r\n                _dividend.withheld[_payee] = withheld;\r\n            }\r\n            emit ERC20DividendClaimed(_payee, _dividendIndex, dividendTokens[_dividendIndex], claim, withheld);\r\n        }\r\n    }\r\n\r\n    /**\r\n     * @notice Issuer can reclaim remaining unclaimed dividend amounts, for expired dividends\r\n     * @param _dividendIndex Dividend to reclaim\r\n     */\r\n    function reclaimDividend(uint256 _dividendIndex) external withPerm(MANAGE) {\r\n        require(_dividendIndex < dividends.length, \"Invalid dividend\");\r\n        /*solium-disable-next-line security/no-block-members*/\r\n        require(now >= dividends[_dividendIndex].expiry, \"Dividend expiry in future\");\r\n        require(!dividends[_dividendIndex].reclaimed, \"already claimed\");\r\n        dividends[_dividendIndex].reclaimed = true;\r\n        Dividend storage dividend = dividends[_dividendIndex];\r\n        uint256 remainingAmount = dividend.amount.sub(dividend.claimedAmount);\r\n        require(IERC20(dividendTokens[_dividendIndex]).transfer(wallet, remainingAmount), \"transfer failed\");\r\n        emit ERC20DividendReclaimed(wallet, _dividendIndex, dividendTokens[_dividendIndex], remainingAmount);\r\n    }\r\n\r\n    /**\r\n     * @notice Allows issuer to withdraw withheld tax\r\n     * @param _dividendIndex Dividend to withdraw from\r\n     */\r\n    function withdrawWithholding(uint256 _dividendIndex) external withPerm(MANAGE) {\r\n        require(_dividendIndex < dividends.length, \"Invalid dividend\");\r\n        Dividend storage dividend = dividends[_dividendIndex];\r\n        uint256 remainingWithheld = dividend.totalWithheld.sub(dividend.totalWithheldWithdrawn);\r\n        dividend.totalWithheldWithdrawn = dividend.totalWithheld;\r\n        require(IERC20(dividendTokens[_dividendIndex]).transfer(wallet, remainingWithheld), \"transfer failed\");\r\n        emit ERC20DividendWithholdingWithdrawn(wallet, _dividendIndex, dividendTokens[_dividendIndex], remainingWithheld);\r\n    }\r\n\r\n}\r\n",
  "sourcePath": "/Users/jere/Code/polymath-apps/packages/new-polymath-scripts/src/generateLocalBlockchain/contracts/modules/Checkpoint/ERC20DividendCheckpoint.sol",
  "compiler": {
    "name": "solc",
    "version": "0.4.24+commit.e67f0147.Emscripten.clang"
  },
  "schemaVersion": "2.0.1",
  "updatedAt": "2019-01-29T19:36:37.473Z"
}