{
  "contractName": "ERC20DividendCheckpointProxy",
  "abi": [
    {
      "constant": false,
      "inputs": [],
      "name": "proxyOwner",
      "outputs": [
        {
          "name": "",
          "type": "address"
        }
      ],
      "payable": false,
      "stateMutability": "nonpayable",
      "type": "function"
    },
    {
      "constant": true,
      "inputs": [],
      "name": "EXCLUDED_ADDRESS_LIMIT",
      "outputs": [
        {
          "name": "",
          "type": "uint256"
        }
      ],
      "payable": false,
      "stateMutability": "view",
      "type": "function"
    },
    {
      "constant": true,
      "inputs": [],
      "name": "CHECKPOINT",
      "outputs": [
        {
          "name": "",
          "type": "bytes32"
        }
      ],
      "payable": false,
      "stateMutability": "view",
      "type": "function"
    },
    {
      "constant": true,
      "inputs": [],
      "name": "wallet",
      "outputs": [
        {
          "name": "",
          "type": "address"
        }
      ],
      "payable": false,
      "stateMutability": "view",
      "type": "function"
    },
    {
      "constant": true,
      "inputs": [],
      "name": "MANAGE",
      "outputs": [
        {
          "name": "",
          "type": "bytes32"
        }
      ],
      "payable": false,
      "stateMutability": "view",
      "type": "function"
    },
    {
      "constant": false,
      "inputs": [],
      "name": "implementation",
      "outputs": [
        {
          "name": "",
          "type": "address"
        }
      ],
      "payable": false,
      "stateMutability": "nonpayable",
      "type": "function"
    },
    {
      "constant": true,
      "inputs": [],
      "name": "paused",
      "outputs": [
        {
          "name": "",
          "type": "bool"
        }
      ],
      "payable": false,
      "stateMutability": "view",
      "type": "function"
    },
    {
      "constant": true,
      "inputs": [],
      "name": "polyToken",
      "outputs": [
        {
          "name": "",
          "type": "address"
        }
      ],
      "payable": false,
      "stateMutability": "view",
      "type": "function"
    },
    {
      "constant": true,
      "inputs": [
        {
          "name": "",
          "type": "address"
        }
      ],
      "name": "withholdingTax",
      "outputs": [
        {
          "name": "",
          "type": "uint256"
        }
      ],
      "payable": false,
      "stateMutability": "view",
      "type": "function"
    },
    {
      "constant": true,
      "inputs": [],
      "name": "DISTRIBUTE",
      "outputs": [
        {
          "name": "",
          "type": "bytes32"
        }
      ],
      "payable": false,
      "stateMutability": "view",
      "type": "function"
    },
    {
      "constant": true,
      "inputs": [
        {
          "name": "",
          "type": "uint256"
        }
      ],
      "name": "dividends",
      "outputs": [
        {
          "name": "checkpointId",
          "type": "uint256"
        },
        {
          "name": "created",
          "type": "uint256"
        },
        {
          "name": "maturity",
          "type": "uint256"
        },
        {
          "name": "expiry",
          "type": "uint256"
        },
        {
          "name": "amount",
          "type": "uint256"
        },
        {
          "name": "claimedAmount",
          "type": "uint256"
        },
        {
          "name": "totalSupply",
          "type": "uint256"
        },
        {
          "name": "reclaimed",
          "type": "bool"
        },
        {
          "name": "totalWithheld",
          "type": "uint256"
        },
        {
          "name": "totalWithheldWithdrawn",
          "type": "uint256"
        },
        {
          "name": "name",
          "type": "bytes32"
        }
      ],
      "payable": false,
      "stateMutability": "view",
      "type": "function"
    },
    {
      "constant": true,
      "inputs": [
        {
          "name": "",
          "type": "uint256"
        }
      ],
      "name": "dividendTokens",
      "outputs": [
        {
          "name": "",
          "type": "address"
        }
      ],
      "payable": false,
      "stateMutability": "view",
      "type": "function"
    },
    {
      "constant": true,
      "inputs": [],
      "name": "securityToken",
      "outputs": [
        {
          "name": "",
          "type": "address"
        }
      ],
      "payable": false,
      "stateMutability": "view",
      "type": "function"
    },
    {
      "constant": true,
      "inputs": [
        {
          "name": "",
          "type": "uint256"
        }
      ],
      "name": "excluded",
      "outputs": [
        {
          "name": "",
          "type": "address"
        }
      ],
      "payable": false,
      "stateMutability": "view",
      "type": "function"
    },
    {
      "constant": true,
      "inputs": [],
      "name": "factory",
      "outputs": [
        {
          "name": "",
          "type": "address"
        }
      ],
      "payable": false,
      "stateMutability": "view",
      "type": "function"
    },
    {
      "constant": true,
      "inputs": [],
      "name": "FEE_ADMIN",
      "outputs": [
        {
          "name": "",
          "type": "bytes32"
        }
      ],
      "payable": false,
      "stateMutability": "view",
      "type": "function"
    },
    {
      "constant": false,
      "inputs": [
        {
          "name": "_newOwner",
          "type": "address"
        }
      ],
      "name": "transferProxyOwnership",
      "outputs": [],
      "payable": false,
      "stateMutability": "nonpayable",
      "type": "function"
    },
    {
      "inputs": [
        {
          "name": "_securityToken",
          "type": "address"
        },
        {
          "name": "_polyAddress",
          "type": "address"
        },
        {
          "name": "_implementation",
          "type": "address"
        }
      ],
      "payable": false,
      "stateMutability": "nonpayable",
      "type": "constructor"
    },
    {
      "payable": true,
      "stateMutability": "payable",
      "type": "fallback"
    },
    {
      "anonymous": false,
      "inputs": [
        {
          "indexed": false,
          "name": "_previousOwner",
          "type": "address"
        },
        {
          "indexed": false,
          "name": "_newOwner",
          "type": "address"
        }
      ],
      "name": "ProxyOwnershipTransferred",
      "type": "event"
    },
    {
      "anonymous": false,
      "inputs": [
        {
          "indexed": false,
          "name": "_timestammp",
          "type": "uint256"
        }
      ],
      "name": "Pause",
      "type": "event"
    },
    {
      "anonymous": false,
      "inputs": [
        {
          "indexed": false,
          "name": "_timestamp",
          "type": "uint256"
        }
      ],
      "name": "Unpause",
      "type": "event"
    }
  ],
  "bytecode": "0x608060405260966002556008805460a060020a60ff021916905534801561002557600080fd5b5060405160608061095983398101604090815281516020830151919092015160078054600160a060020a03808616600160a060020a03199283161790925560068054821633908117909155600880549386169390921692909217905561009390640100000000610158810204565b600160a060020a038116151561013057604080517f08c379a000000000000000000000000000000000000000000000000000000000815260206004820152602760248201527f496d706c656d656e746174696f6e20616464726573732073686f756c64206e6f60448201527f7420626520307800000000000000000000000000000000000000000000000000606482015290519081900360840190fd5b600a8054600160a060020a031916600160a060020a0392909216919091179055506101f19050565b600160a060020a03811615156101cf57604080517f08c379a000000000000000000000000000000000000000000000000000000000815260206004820152601860248201527f416464726573732073686f756c64206e6f742062652030780000000000000000604482015290519081900360640190fd5b60098054600160a060020a031916600160a060020a0392909216919091179055565b610759806102006000396000f3006080604052600436106100f05763ffffffff7c0100000000000000000000000000000000000000000000000000000000600035041663025313a281146100fa5780630a29f5911461012b57806335d806f814610152578063521eb273146101675780635bf341c11461017c5780635c60da1b146101915780635c975abb146101a65780636faa22a5146101cf5780637a3e23fd146101e457806380fef5af14610205578063814b3fe01461021a57806395ec5bbe1461028a578063b84dfbd2146102a2578063bee2ddc2146102b7578063c45a0155146102cf578063d70afa96146102e4578063f1739cae146102f9575b6100f861031a565b005b34801561010657600080fd5b5061010f61032c565b60408051600160a060020a039092168252519081900360200190f35b34801561013757600080fd5b50610140610369565b60408051918252519081900360200190f35b34801561015e57600080fd5b5061014061036f565b34801561017357600080fd5b5061010f610393565b34801561018857600080fd5b506101406103a2565b34801561019d57600080fd5b5061010f6103c6565b3480156101b257600080fd5b506101bb6103f1565b604080519115158252519081900360200190f35b3480156101db57600080fd5b5061010f610412565b3480156101f057600080fd5b50610140600160a060020a0360043516610421565b34801561021157600080fd5b50610140610433565b34801561022657600080fd5b50610232600435610457565b604080519b8c5260208c019a909a528a8a019890985260608a0196909652608089019490945260a088019290925260c0870152151560e086015261010085015261012084015261014083015251908190036101600190f35b34801561029657600080fd5b5061010f6004356104c4565b3480156102ae57600080fd5b5061010f6104df565b3480156102c357600080fd5b5061010f6004356104ee565b3480156102db57600080fd5b5061010f610516565b3480156102f057600080fd5b50610140610525565b34801561030557600080fd5b506100f8600160a060020a0360043516610549565b61032a610325610645565b610654565b565b6000610336610678565b600160a060020a031633600160a060020a0316141561035e57610357610678565b9050610366565b61036661031a565b90565b60025481565b7f434845434b504f494e540000000000000000000000000000000000000000000081565b600154600160a060020a031681565b7f4d414e414745000000000000000000000000000000000000000000000000000081565b60006103d0610678565b600160a060020a031633600160a060020a0316141561035e57610357610645565b60085474010000000000000000000000000000000000000000900460ff1681565b600854600160a060020a031681565b60056020526000908152604090205481565b7f444953545249425554450000000000000000000000000000000000000000000081565b600380548290811061046557fe5b60009182526020909120600e9091020180546001820154600283015460038401546004850154600586015460068701546007880154600889015460098a0154600d909a0154989a5096989597949693959294919360ff9091169290918b565b600060208190529081526040902054600160a060020a031681565b600754600160a060020a031681565b60048054829081106104fc57fe5b600091825260209091200154600160a060020a0316905081565b600654600160a060020a031681565b7f4645455f41444d494e000000000000000000000000000000000000000000000081565b610551610678565b600160a060020a031633600160a060020a0316141561063a57600160a060020a03811615156105e157604080517f08c379a000000000000000000000000000000000000000000000000000000000815260206004820152601860248201527f416464726573732073686f756c64206e6f742062652030780000000000000000604482015290519081900360640190fd5b7f5a3e66efaa1e445ebd894728a69d6959842ea1e97bd79b892797106e270efcd961060a610678565b60408051600160a060020a03928316815291841660208301528051918290030190a161063581610687565b610642565b61064261031a565b50565b600a54600160a060020a031690565b3660008037600080366000845af43d6000803e808015610673573d6000f35b3d6000fd5b600954600160a060020a031690565b600160a060020a03811615156106fe57604080517f08c379a000000000000000000000000000000000000000000000000000000000815260206004820152601860248201527f416464726573732073686f756c64206e6f742062652030780000000000000000604482015290519081900360640190fd5b6009805473ffffffffffffffffffffffffffffffffffffffff1916600160a060020a03929092169190911790555600a165627a7a7230582092c4c6820ebcfb6ee277c31ef02417f8db8ed78d3f9df23511ad5dc673f634a10029",
  "source": "pragma solidity ^0.4.24;\n\nimport \"../modules/Checkpoint/ERC20DividendCheckpointStorage.sol\";\nimport \"../modules/Checkpoint/DividendCheckpointStorage.sol\";\nimport \"./OwnedProxy.sol\";\nimport \"../Pausable.sol\";\nimport \"../modules/ModuleStorage.sol\";\n\n/**\n * @title Transfer Manager module for core transfer validation functionality\n */\ncontract ERC20DividendCheckpointProxy is ERC20DividendCheckpointStorage, DividendCheckpointStorage, ModuleStorage, Pausable, OwnedProxy {\n\n    /**\n    * @notice Constructor\n    * @param _securityToken Address of the security token\n    * @param _polyAddress Address of the polytoken\n    * @param _implementation representing the address of the new implementation to be set\n    */\n    constructor (address _securityToken, address _polyAddress, address _implementation)\n    public\n    ModuleStorage(_securityToken, _polyAddress)\n    {\n        require(\n            _implementation != address(0),\n            \"Implementation address should not be 0x\"\n        );\n        __implementation = _implementation;\n    }\n\n}\n",
  "sourcePath": "/Users/jere/Code/polymath-apps/packages/new-polymath-scripts/src/generateLocalBlockchain/contracts/proxy/ERC20DividendCheckpointProxy.sol",
  "compiler": {
    "name": "solc",
    "version": "0.4.24+commit.e67f0147.Emscripten.clang"
  },
  "schemaVersion": "2.0.1",
  "updatedAt": "2019-01-29T19:35:51.930Z"
}