{
  "contractName": "ERC20DividendCheckpointFactory",
  "abi": [
    {
      "constant": true,
      "inputs": [],
      "name": "monthlySubscriptionCost",
      "outputs": [
        {
          "name": "",
          "type": "uint256"
        }
      ],
      "payable": false,
      "stateMutability": "view",
      "type": "function"
    },
    {
      "constant": true,
      "inputs": [],
      "name": "name",
      "outputs": [
        {
          "name": "",
          "type": "bytes32"
        }
      ],
      "payable": false,
      "stateMutability": "view",
      "type": "function"
    },
    {
      "constant": true,
      "inputs": [],
      "name": "getName",
      "outputs": [
        {
          "name": "",
          "type": "bytes32"
        }
      ],
      "payable": false,
      "stateMutability": "view",
      "type": "function"
    },
    {
      "constant": false,
      "inputs": [
        {
          "name": "_newTitle",
          "type": "string"
        }
      ],
      "name": "changeTitle",
      "outputs": [],
      "payable": false,
      "stateMutability": "nonpayable",
      "type": "function"
    },
    {
      "constant": false,
      "inputs": [
        {
          "name": "_newSubscriptionCost",
          "type": "uint256"
        }
      ],
      "name": "changeFactorySubscriptionFee",
      "outputs": [],
      "payable": false,
      "stateMutability": "nonpayable",
      "type": "function"
    },
    {
      "constant": true,
      "inputs": [],
      "name": "title",
      "outputs": [
        {
          "name": "",
          "type": "string"
        }
      ],
      "payable": false,
      "stateMutability": "view",
      "type": "function"
    },
    {
      "constant": true,
      "inputs": [],
      "name": "version",
      "outputs": [
        {
          "name": "",
          "type": "string"
        }
      ],
      "payable": false,
      "stateMutability": "view",
      "type": "function"
    },
    {
      "constant": false,
      "inputs": [
        {
          "name": "_newSetupCost",
          "type": "uint256"
        }
      ],
      "name": "changeFactorySetupFee",
      "outputs": [],
      "payable": false,
      "stateMutability": "nonpayable",
      "type": "function"
    },
    {
      "constant": false,
      "inputs": [
        {
          "name": "_newVersion",
          "type": "string"
        }
      ],
      "name": "changeVersion",
      "outputs": [],
      "payable": false,
      "stateMutability": "nonpayable",
      "type": "function"
    },
    {
      "constant": true,
      "inputs": [],
      "name": "polyToken",
      "outputs": [
        {
          "name": "",
          "type": "address"
        }
      ],
      "payable": false,
      "stateMutability": "view",
      "type": "function"
    },
    {
      "constant": false,
      "inputs": [],
      "name": "renounceOwnership",
      "outputs": [],
      "payable": false,
      "stateMutability": "nonpayable",
      "type": "function"
    },
    {
      "constant": true,
      "inputs": [],
      "name": "description",
      "outputs": [
        {
          "name": "",
          "type": "string"
        }
      ],
      "payable": false,
      "stateMutability": "view",
      "type": "function"
    },
    {
      "constant": true,
      "inputs": [],
      "name": "setupCost",
      "outputs": [
        {
          "name": "",
          "type": "uint256"
        }
      ],
      "payable": false,
      "stateMutability": "view",
      "type": "function"
    },
    {
      "constant": true,
      "inputs": [],
      "name": "getLowerSTVersionBounds",
      "outputs": [
        {
          "name": "",
          "type": "uint8[]"
        }
      ],
      "payable": false,
      "stateMutability": "view",
      "type": "function"
    },
    {
      "constant": false,
      "inputs": [
        {
          "name": "_newName",
          "type": "bytes32"
        }
      ],
      "name": "changeName",
      "outputs": [],
      "payable": false,
      "stateMutability": "nonpayable",
      "type": "function"
    },
    {
      "constant": true,
      "inputs": [],
      "name": "owner",
      "outputs": [
        {
          "name": "",
          "type": "address"
        }
      ],
      "payable": false,
      "stateMutability": "view",
      "type": "function"
    },
    {
      "constant": true,
      "inputs": [],
      "name": "getSetupCost",
      "outputs": [
        {
          "name": "",
          "type": "uint256"
        }
      ],
      "payable": false,
      "stateMutability": "view",
      "type": "function"
    },
    {
      "constant": false,
      "inputs": [
        {
          "name": "_newUsageCost",
          "type": "uint256"
        }
      ],
      "name": "changeFactoryUsageFee",
      "outputs": [],
      "payable": false,
      "stateMutability": "nonpayable",
      "type": "function"
    },
    {
      "constant": true,
      "inputs": [],
      "name": "logicContract",
      "outputs": [
        {
          "name": "",
          "type": "address"
        }
      ],
      "payable": false,
      "stateMutability": "view",
      "type": "function"
    },
    {
      "constant": true,
      "inputs": [],
      "name": "usageCost",
      "outputs": [
        {
          "name": "",
          "type": "uint256"
        }
      ],
      "payable": false,
      "stateMutability": "view",
      "type": "function"
    },
    {
      "constant": false,
      "inputs": [
        {
          "name": "_newDesc",
          "type": "string"
        }
      ],
      "name": "changeDescription",
      "outputs": [],
      "payable": false,
      "stateMutability": "nonpayable",
      "type": "function"
    },
    {
      "constant": false,
      "inputs": [
        {
          "name": "_newOwner",
          "type": "address"
        }
      ],
      "name": "transferOwnership",
      "outputs": [],
      "payable": false,
      "stateMutability": "nonpayable",
      "type": "function"
    },
    {
      "constant": true,
      "inputs": [],
      "name": "getUpperSTVersionBounds",
      "outputs": [
        {
          "name": "",
          "type": "uint8[]"
        }
      ],
      "payable": false,
      "stateMutability": "view",
      "type": "function"
    },
    {
      "constant": false,
      "inputs": [
        {
          "name": "_boundType",
          "type": "string"
        },
        {
          "name": "_newVersion",
          "type": "uint8[]"
        }
      ],
      "name": "changeSTVersionBounds",
      "outputs": [],
      "payable": false,
      "stateMutability": "nonpayable",
      "type": "function"
    },
    {
      "inputs": [
        {
          "name": "_polyAddress",
          "type": "address"
        },
        {
          "name": "_setupCost",
          "type": "uint256"
        },
        {
          "name": "_usageCost",
          "type": "uint256"
        },
        {
          "name": "_subscriptionCost",
          "type": "uint256"
        },
        {
          "name": "_logicContract",
          "type": "address"
        }
      ],
      "payable": false,
      "stateMutability": "nonpayable",
      "type": "constructor"
    },
    {
      "anonymous": false,
      "inputs": [
        {
          "indexed": true,
          "name": "previousOwner",
          "type": "address"
        }
      ],
      "name": "OwnershipRenounced",
      "type": "event"
    },
    {
      "anonymous": false,
      "inputs": [
        {
          "indexed": true,
          "name": "previousOwner",
          "type": "address"
        },
        {
          "indexed": true,
          "name": "newOwner",
          "type": "address"
        }
      ],
      "name": "OwnershipTransferred",
      "type": "event"
    },
    {
      "anonymous": false,
      "inputs": [
        {
          "indexed": false,
          "name": "_oldSetupCost",
          "type": "uint256"
        },
        {
          "indexed": false,
          "name": "_newSetupCost",
          "type": "uint256"
        },
        {
          "indexed": false,
          "name": "_moduleFactory",
          "type": "address"
        }
      ],
      "name": "ChangeFactorySetupFee",
      "type": "event"
    },
    {
      "anonymous": false,
      "inputs": [
        {
          "indexed": false,
          "name": "_oldUsageCost",
          "type": "uint256"
        },
        {
          "indexed": false,
          "name": "_newUsageCost",
          "type": "uint256"
        },
        {
          "indexed": false,
          "name": "_moduleFactory",
          "type": "address"
        }
      ],
      "name": "ChangeFactoryUsageFee",
      "type": "event"
    },
    {
      "anonymous": false,
      "inputs": [
        {
          "indexed": false,
          "name": "_oldSubscriptionCost",
          "type": "uint256"
        },
        {
          "indexed": false,
          "name": "_newMonthlySubscriptionCost",
          "type": "uint256"
        },
        {
          "indexed": false,
          "name": "_moduleFactory",
          "type": "address"
        }
      ],
      "name": "ChangeFactorySubscriptionFee",
      "type": "event"
    },
    {
      "anonymous": false,
      "inputs": [
        {
          "indexed": false,
          "name": "_module",
          "type": "address"
        },
        {
          "indexed": true,
          "name": "_moduleName",
          "type": "bytes32"
        },
        {
          "indexed": true,
          "name": "_moduleFactory",
          "type": "address"
        },
        {
          "indexed": false,
          "name": "_creator",
          "type": "address"
        },
        {
          "indexed": false,
          "name": "_setupCost",
          "type": "uint256"
        },
        {
          "indexed": false,
          "name": "_timestamp",
          "type": "uint256"
        }
      ],
      "name": "GenerateModuleFromFactory",
      "type": "event"
    },
    {
      "anonymous": false,
      "inputs": [
        {
          "indexed": false,
          "name": "_boundType",
          "type": "string"
        },
        {
          "indexed": false,
          "name": "_major",
          "type": "uint8"
        },
        {
          "indexed": false,
          "name": "_minor",
          "type": "uint8"
        },
        {
          "indexed": false,
          "name": "_patch",
          "type": "uint8"
        }
      ],
      "name": "ChangeSTVersionBound",
      "type": "event"
    },
    {
      "constant": false,
      "inputs": [
        {
          "name": "_data",
          "type": "bytes"
        }
      ],
      "name": "deploy",
      "outputs": [
        {
          "name": "",
          "type": "address"
        }
      ],
      "payable": false,
      "stateMutability": "nonpayable",
      "type": "function"
    },
    {
      "constant": true,
      "inputs": [],
      "name": "getTypes",
      "outputs": [
        {
          "name": "",
          "type": "uint8[]"
        }
      ],
      "payable": false,
      "stateMutability": "view",
      "type": "function"
    },
    {
      "constant": true,
      "inputs": [],
      "name": "getInstructions",
      "outputs": [
        {
          "name": "",
          "type": "string"
        }
      ],
      "payable": false,
      "stateMutability": "view",
      "type": "function"
    },
    {
      "constant": true,
      "inputs": [],
      "name": "getTags",
      "outputs": [
        {
          "name": "",
          "type": "bytes32[]"
        }
      ],
      "payable": false,
      "stateMutability": "view",
      "type": "function"
    }
  ],
  "bytecode": "0x60806040523480156200001157600080fd5b5060405160a0806200290e8339810160409081528151602083015191830151606084015160809094015160008054600160a060020a0319908116331790915560018054600160a060020a03808716919093161790556004859055600283905560038690559294919281161515620000e957604080517f08c379a000000000000000000000000000000000000000000000000000000000815260206004820152601660248201527f496e76616c6964206c6f67696320636f6e747261637400000000000000000000604482015290519081900360640190fd5b6040805180820190915260058082527f322e312e3000000000000000000000000000000000000000000000000000000060209092019182526200012f916006916200035a565b507f45524332304469766964656e64436865636b706f696e740000000000000000006007556040805180820190915260198082527f4552433230204469766964656e6420436865636b706f696e740000000000000060209092019182526200019a916008916200035a565b50608060405190810160405280604181526020017f437265617465204552433230206469766964656e647320666f7220746f6b656e81526020017f20686f6c64657273206174206120737065636966696320636865636b706f696e81526020017f740000000000000000000000000000000000000000000000000000000000000081525060059080519060200190620002359291906200035a565b50620002526000808064010000000062001ab76200033f82021704565b604080517f6c6f776572426f756e640000000000000000000000000000000000000000000081526009600a820152905190819003602a019020805462ffffff9290921662ffffff19909216919091179055620002bf6000808064010000000062001ab76200033f82021704565b604080517f7570706572426f756e640000000000000000000000000000000000000000000081526009600a80830191909152915190819003602a019020805462ffffff9390931662ffffff19909316929092179091558054600160a060020a03909216600160a060020a031990921691909117905550620003ff92505050565b60ff9081169181166101000292166201000002919091171790565b828054600181600116156101000203166002900490600052602060002090601f016020900481019282601f106200039d57805160ff1916838001178555620003cd565b82800160010185558215620003cd579182015b82811115620003cd578251825591602001919060010190620003b0565b50620003db929150620003df565b5090565b620003fc91905b80821115620003db5760008155600101620003e6565b90565b6124ff806200040f6000396000f3006080604052600436106200016c5763ffffffff60e060020a60003504166277436081146200017157806306184a2514620001b057806306fdde0314620001da57806317d7de7c14620001f25780632dbe07c7146200020a5780633ae192bd14620002685780634a79d50c146200028357806354fd4d50146200031357806358a191c3146200032b57806364bb432c14620003465780636faa22a514620003a2578063715018a614620003ba5780637284e41614620003d25780637e363ffa14620003ea5780638677768f1462000402578063898855ed146200046c5780638da5cb5b1462000487578063995d9ab7146200049f578063a5e9d7c914620004b7578063aac67b0514620004cf578063b4579d6014620004ea578063cc0e97c91462000502578063d54c4726146200051a578063e0d549701462000532578063e6120413146200054a578063f2fde38b14620005a6578063f786299914620005ca578063fb97245614620005e2575b600080fd5b3480156200017e57600080fd5b5062000194600480356024810191013562000611565b60408051600160a060020a039092168252519081900360200190f35b348015620001bd57600080fd5b50620001c8620009b1565b60408051918252519081900360200190f35b348015620001e757600080fd5b50620001c8620009b7565b348015620001ff57600080fd5b50620001c8620009bd565b3480156200021757600080fd5b506040805160206004803580820135601f810184900484028501840190955284845262000266943694929360249392840191908190840183828082843750949750620009c49650505050505050565b005b3480156200027557600080fd5b506200026660043562000a4f565b3480156200029057600080fd5b506200029b62000aad565b6040805160208082528351818301528351919283929083019185019080838360005b83811015620002d7578181015183820152602001620002bd565b50505050905090810190601f168015620003055780820380516001836020036101000a031916815260200191505b509250505060405180910390f35b3480156200032057600080fd5b506200029b62000b3f565b3480156200033857600080fd5b506200026660043562000b9d565b3480156200035357600080fd5b506040805160206004803580820135601f81018490048402850184019095528484526200026694369492936024939284019190819084018382808284375094975062000bfb9650505050505050565b348015620003af57600080fd5b506200019462000c82565b348015620003c757600080fd5b506200026662000c91565b348015620003df57600080fd5b506200029b62000cfe565b348015620003f757600080fd5b50620001c862000d5c565b3480156200040f57600080fd5b506200041a62000d62565b60408051602080825283518183015283519192839290830191858101910280838360005b83811015620004585781810151838201526020016200043e565b505050509050019250505060405180910390f35b3480156200047957600080fd5b506200026660043562000db4565b3480156200049457600080fd5b506200019462000e29565b348015620004ac57600080fd5b506200041a62000e38565b348015620004c457600080fd5b50620001c862000f18565b348015620004dc57600080fd5b506200026660043562000f1e565b348015620004f757600080fd5b506200041a62000f7c565b3480156200050f57600080fd5b506200019462000fc9565b3480156200052757600080fd5b50620001c862000fd8565b3480156200053f57600080fd5b506200029b62000fde565b3480156200055757600080fd5b506040805160206004803580820135601f810184900484028501840190955284845262000266943694929360249392840191908190840183828082843750949750620010899650505050505050565b348015620005b357600080fd5b5062000266600160a060020a036004351662001110565b348015620005d757600080fd5b506200041a62001136565b348015620005ef57600080fd5b5062000266602460048035828101929082013591813591820191013562001183565b6000806000600454111562000728576001546000805460048054604080517f23b872dd0000000000000000000000000000000000000000000000000000000081523393810193909352600160a060020a03938416602484015260448301919091525191909316926323b872dd9260648083019360209390929083900390910190829087803b158015620006a357600080fd5b505af1158015620006b8573d6000803e3d6000fd5b505050506040513d6020811015620006cf57600080fd5b5051151562000728576040805160e560020a62461bcd02815260206004820152601560248201527f696e737566666963656e7420616c6c6f77616e63650000000000000000000000604482015290519081900360640190fd5b600154600a543391600160a060020a0390811691166200074762001ad2565b600160a060020a03938416815291831660208301529091166040808301919091525190819003606001906000f08015801562000787573d6000803e3d6000fd5b50905080600160a060020a0316631613ec9d6040518163ffffffff1660e060020a028152600401602060405180830381600087803b158015620007c957600080fd5b505af1158015620007de573d6000803e3d6000fd5b505050506040513d6020811015620007f557600080fd5b5051604080516020601f87018190048102820181019092528581527bffffffffffffffffffffffffffffffffffffffffffffffffffffffff19909216916200085291879087908190840183828082843750620016dc945050505050565b7bffffffffffffffffffffffffffffffffffffffffffffffffffffffff191614620008c7576040805160e560020a62461bcd02815260206004820152600c60248201527f496e76616c696420646174610000000000000000000000000000000000000000604482015290519081900360640190fd5b80600160a060020a03168484604051808383808284378201915050925050506000604051808303816000865af191505015156200094e576040805160e560020a62461bcd02815260206004820152601260248201527f556e7375636365737366756c6c2063616c6c0000000000000000000000000000604482015290519081900360640190fd5b3062000959620009bd565b60045460408051600160a060020a038616815233602082015280820192909252426060830152517fb68b4973fbce93f056103272c1f3f53b607527138d7e323b7b94f7ac169ebf779181900360800190a39392505050565b60035481565b60075481565b6007545b90565b600054600160a060020a03163314620009dc57600080fd5b805160001062000a36576040805160e560020a62461bcd02815260206004820152600d60248201527f496e76616c6964207469746c6500000000000000000000000000000000000000604482015290519081900360640190fd5b805162000a4b90600890602084019062001ae3565b5050565b600054600160a060020a0316331462000a6757600080fd5b60035460408051918252602082018390523082820152517fb14468ff50b0c356f5373be0ef0791de71449aaf8ac5ca096049b7ac79d0b1139181900360600190a1600355565b6008805460408051602060026001851615610100026000190190941693909304601f8101849004840282018401909252818152929183018282801562000b375780601f1062000b0b5761010080835404028352916020019162000b37565b820191906000526020600020905b81548152906001019060200180831162000b1957829003601f168201915b505050505081565b6006805460408051602060026001851615610100026000190190941693909304601f8101849004840282018401909252818152929183018282801562000b375780601f1062000b0b5761010080835404028352916020019162000b37565b600054600160a060020a0316331462000bb557600080fd5b60045460408051918252602082018390523082820152517f9672983540fb671cd7c0c946255b4dc769a3e557a25ef91ca7c98995c8d694b69181900360600190a1600455565b600054600160a060020a0316331462000c1357600080fd5b805160001062000c6d576040805160e560020a62461bcd02815260206004820152600f60248201527f496e76616c69642076657273696f6e0000000000000000000000000000000000604482015290519081900360640190fd5b805162000a4b90600690602084019062001ae3565b600154600160a060020a031681565b600054600160a060020a0316331462000ca957600080fd5b60008054604051600160a060020a03909116917ff8df31144d9c2f0f6b59d69b8b98abd5459d07f2742c4df920b25aae33c6482091a26000805473ffffffffffffffffffffffffffffffffffffffff19169055565b6005805460408051602060026001851615610100026000190190941693909304601f8101849004840282018401909252818152929183018282801562000b375780601f1062000b0b5761010080835404028352916020019162000b37565b60045481565b604080517f6c6f776572426f756e640000000000000000000000000000000000000000000081526009600a820152905190819003602a0190205460609062000daf9062ffffff1662001762565b905090565b600054600160a060020a0316331462000dcc57600080fd5b80151562000e24576040805160e560020a62461bcd02815260206004820152600c60248201527f496e76616c6964206e616d650000000000000000000000000000000000000000604482015290519081900360640190fd5b600755565b600054600160a060020a031681565b604080516003808252608082019092526060918291906020820183803883390190505090507f455243323000000000000000000000000000000000000000000000000000000081600081518110151562000e8e57fe5b6020908102909101015280517f4469766964656e64000000000000000000000000000000000000000000000000908290600190811062000eca57fe5b6020908102909101015280517f436865636b706f696e7400000000000000000000000000000000000000000000908290600290811062000f0657fe5b602090810290910101529050805b5090565b60045490565b600054600160a060020a0316331462000f3657600080fd5b60025460408051918252602082018390523082820152517fc39ec4e85127e00b5b203f9c40814616d5977d8de85e6e0717e5ca4b0896206c9181900360600190a1600255565b60408051600180825281830190925260609182919060208083019080388339019050509050600481600081518110151562000fb357fe5b60ff909216602092830290910190910152905090565b600a54600160a060020a031681565b60025481565b6040805160a081018252606781527f437265617465204552433230206469766964656e6420746f206265207061696460208201527f206f757420746f20746f6b656e20686f6c64657273206261736564206f6e2074918101919091527f686569722062616c616e636573206174206469766964656e642063726561746960608201527f6f6e2074696d6500000000000000000000000000000000000000000000000000608082015290565b600054600160a060020a03163314620010a157600080fd5b8051600010620010fb576040805160e560020a62461bcd02815260206004820152601360248201527f496e76616c6964206465736372697074696f6e00000000000000000000000000604482015290519081900360640190fd5b805162000a4b90600590602084019062001ae3565b600054600160a060020a031633146200112857600080fd5b62001133816200180a565b50565b604080517f7570706572426f756e640000000000000000000000000000000000000000000081526009600a820152905190819003602a0190205460609062000daf9062ffffff1662001762565b600054606090600160a060020a031633146200119e57600080fd5b60405160200180807f6c6f776572426f756e6400000000000000000000000000000000000000000000815250600a0190506040516020818303038152906040526040518082805190602001908083835b602083106200120f5780518252601f199092019160209182019101620011ee565b51815160209384036101000a600019018019909216911617905260405191909301819003812094508993508892019050808383808284378201915050925050506040516020818303038152906040526040518082805190602001908083835b602083106200128f5780518252601f1990920191602091820191016200126e565b6001836020036101000a0380198251168184511680821785525050505050509050019150506040518091039020600019161480620013ec575060405160200180807f7570706572426f756e6400000000000000000000000000000000000000000000815250600a0190506040516020818303038152906040526040518082805190602001908083835b60208310620013395780518252601f19909201916020918201910162001318565b51815160209384036101000a600019018019909216911617905260405191909301819003812094508993508892019050808383808284378201915050925050506040516020818303038152906040526040518082805190602001908083835b60208310620013b95780518252601f19909201916020918201910162001398565b6001836020036101000a038019825116818451168082178552505050505050905001915050604051809103902060001916145b151562001443576040805160e560020a62461bcd02815260206004820152601a60248201527f4d75737420626520612076616c696420626f756e642074797065000000000000604482015290519081900360640190fd5b600382146200145157600080fd5b600062ffffff1660098686604051808383808284379091019485525050604051928390036020019092205462ffffff169290921491506200157d905057620014c560098686604051808383808284379091019485525050604051928390036020019092205462ffffff169150620017629050565b905062001500818484808060200260200160405190810160405280939291908181526020018383602002808284375062001888945050505050565b15156200157d576040805160e560020a62461bcd02815260206004820152602260248201527f4661696c65642062656361757365206f6620696e2d76616c696420766572736960448201527f6f6e000000000000000000000000000000000000000000000000000000000000606482015290519081900360840190fd5b620015d3838360008181106200158f57fe5b9050602002013560ff16848460018181101515620015a957fe5b9050602002013560ff16858560028181101515620015c357fe5b9050602002013560ff1662001ab7565b6009868660405180838380828437909101948552505060405192839003602001909220805462ffffff9490941662ffffff1990941693909317909255507f5b67e16edaf7fc70c8d065ea6e70b97ed944d98fe593b04d682216615a3b04db90508585858560008181106200164357fe5b9050602002013560ff168686600181811015156200165d57fe5b9050602002013560ff168787600281811015156200167757fe5b9050602002013560ff1660405180806020018560ff1660ff1681526020018460ff1660ff1681526020018360ff1660ff168152602001828103825287878281815260200192508082843760405192018290039850909650505050505050a15050505050565b60008060006004845110620016f3576004620016f6565b83515b9150600090505b818110156200175b5780600183030360080260020a84828151811015156200172157fe5b90602001015160f860020a900460f860020a0260f860020a9004028360e060020a90040160e060020a0292508080600101915050620016fd565b5050919050565b6040805160038082526080820190925260609182919060208201838038833950508151919250506201000062ffffff8516049082906000908110620017a357fe5b60ff909216602092830290910190910152805161010062ffffff8516049082906001908110620017cf57fe5b60ff9092166020928302909101909101528051839082906002908110620017f257fe5b60ff9092166020928302909101909101529050919050565b600160a060020a03811615156200182057600080fd5b60008054604051600160a060020a03808516939216917f8be0079c531659141344cd1fd0a4f28419497f9722a3daafe3b4186f6b6457e091a36000805473ffffffffffffffffffffffffffffffffffffffff1916600160a060020a0392909216919091179055565b600060606000808551604051908082528060200260200182016040528015620018bb578160200160208202803883390190505b50925060009150600090505b85518160ff1610156200196f57848160ff16815181101515620018e657fe5b9060200190602002015160ff16868260ff168151811015156200190557fe5b9060200190602002015160ff16101562001942576001838260ff168151811015156200192d57fe5b91151560209283029091019091015262001966565b6000838260ff168151811015156200195657fe5b9115156020928302909101909101525b600101620018c7565b5060005b85518160ff16101562001a9c5760ff8116151562001a1757848160ff168151811015156200199d57fe5b9060200190602002015160ff16868260ff16815181101515620019bc57fe5b6020908102909101015160ff161162001a0757826000815181101515620019df57fe5b9060200190602002015115620019fb5781600301915062001a9c565b60019091019062001a11565b6000935062001aae565b62001a93565b826001820360ff1681518110151562001a2c57fe5b906020019060200201511562001a485760019091019062001a93565b848160ff1681518110151562001a5a57fe5b9060200190602002015160ff16868260ff1681518110151562001a7957fe5b6020908102909101015160ff161162001a07576001909101905b60010162001973565b85518260ff16141562001aae57600193505b50505092915050565b60ff9081169181166101000292166201000002919091171790565b6040516109598062001b7b83390190565b828054600181600116156101000203166002900490600052602060002090601f016020900481019282601f1062001b2657805160ff191683800117855562001b56565b8280016001018555821562001b56579182015b8281111562001b5657825182559160200191906001019062001b39565b5062000f1492620009c19250905b8082111562000f14576000815560010162001b645600608060405260966002556008805460a060020a60ff021916905534801561002557600080fd5b5060405160608061095983398101604090815281516020830151919092015160078054600160a060020a03808616600160a060020a03199283161790925560068054821633908117909155600880549386169390921692909217905561009390640100000000610158810204565b600160a060020a038116151561013057604080517f08c379a000000000000000000000000000000000000000000000000000000000815260206004820152602760248201527f496d706c656d656e746174696f6e20616464726573732073686f756c64206e6f60448201527f7420626520307800000000000000000000000000000000000000000000000000606482015290519081900360840190fd5b600a8054600160a060020a031916600160a060020a0392909216919091179055506101f19050565b600160a060020a03811615156101cf57604080517f08c379a000000000000000000000000000000000000000000000000000000000815260206004820152601860248201527f416464726573732073686f756c64206e6f742062652030780000000000000000604482015290519081900360640190fd5b60098054600160a060020a031916600160a060020a0392909216919091179055565b610759806102006000396000f3006080604052600436106100f05763ffffffff7c0100000000000000000000000000000000000000000000000000000000600035041663025313a281146100fa5780630a29f5911461012b57806335d806f814610152578063521eb273146101675780635bf341c11461017c5780635c60da1b146101915780635c975abb146101a65780636faa22a5146101cf5780637a3e23fd146101e457806380fef5af14610205578063814b3fe01461021a57806395ec5bbe1461028a578063b84dfbd2146102a2578063bee2ddc2146102b7578063c45a0155146102cf578063d70afa96146102e4578063f1739cae146102f9575b6100f861031a565b005b34801561010657600080fd5b5061010f61032c565b60408051600160a060020a039092168252519081900360200190f35b34801561013757600080fd5b50610140610369565b60408051918252519081900360200190f35b34801561015e57600080fd5b5061014061036f565b34801561017357600080fd5b5061010f610393565b34801561018857600080fd5b506101406103a2565b34801561019d57600080fd5b5061010f6103c6565b3480156101b257600080fd5b506101bb6103f1565b604080519115158252519081900360200190f35b3480156101db57600080fd5b5061010f610412565b3480156101f057600080fd5b50610140600160a060020a0360043516610421565b34801561021157600080fd5b50610140610433565b34801561022657600080fd5b50610232600435610457565b604080519b8c5260208c019a909a528a8a019890985260608a0196909652608089019490945260a088019290925260c0870152151560e086015261010085015261012084015261014083015251908190036101600190f35b34801561029657600080fd5b5061010f6004356104c4565b3480156102ae57600080fd5b5061010f6104df565b3480156102c357600080fd5b5061010f6004356104ee565b3480156102db57600080fd5b5061010f610516565b3480156102f057600080fd5b50610140610525565b34801561030557600080fd5b506100f8600160a060020a0360043516610549565b61032a610325610645565b610654565b565b6000610336610678565b600160a060020a031633600160a060020a0316141561035e57610357610678565b9050610366565b61036661031a565b90565b60025481565b7f434845434b504f494e540000000000000000000000000000000000000000000081565b600154600160a060020a031681565b7f4d414e414745000000000000000000000000000000000000000000000000000081565b60006103d0610678565b600160a060020a031633600160a060020a0316141561035e57610357610645565b60085474010000000000000000000000000000000000000000900460ff1681565b600854600160a060020a031681565b60056020526000908152604090205481565b7f444953545249425554450000000000000000000000000000000000000000000081565b600380548290811061046557fe5b60009182526020909120600e9091020180546001820154600283015460038401546004850154600586015460068701546007880154600889015460098a0154600d909a0154989a5096989597949693959294919360ff9091169290918b565b600060208190529081526040902054600160a060020a031681565b600754600160a060020a031681565b60048054829081106104fc57fe5b600091825260209091200154600160a060020a0316905081565b600654600160a060020a031681565b7f4645455f41444d494e000000000000000000000000000000000000000000000081565b610551610678565b600160a060020a031633600160a060020a0316141561063a57600160a060020a03811615156105e157604080517f08c379a000000000000000000000000000000000000000000000000000000000815260206004820152601860248201527f416464726573732073686f756c64206e6f742062652030780000000000000000604482015290519081900360640190fd5b7f5a3e66efaa1e445ebd894728a69d6959842ea1e97bd79b892797106e270efcd961060a610678565b60408051600160a060020a03928316815291841660208301528051918290030190a161063581610687565b610642565b61064261031a565b50565b600a54600160a060020a031690565b3660008037600080366000845af43d6000803e808015610673573d6000f35b3d6000fd5b600954600160a060020a031690565b600160a060020a03811615156106fe57604080517f08c379a000000000000000000000000000000000000000000000000000000000815260206004820152601860248201527f416464726573732073686f756c64206e6f742062652030780000000000000000604482015290519081900360640190fd5b6009805473ffffffffffffffffffffffffffffffffffffffff1916600160a060020a03929092169190911790555600a165627a7a7230582092c4c6820ebcfb6ee277c31ef02417f8db8ed78d3f9df23511ad5dc673f634a10029a165627a7a72305820e16e391518bfdcd9d841f544b7366efef9b2b436537fdfdce58dc658ddb698910029",
  "source": "pragma solidity ^0.4.24;\n\nimport \"../../proxy/ERC20DividendCheckpointProxy.sol\";\nimport \"../../libraries/Util.sol\";\nimport \"../../interfaces/IBoot.sol\";\nimport \"../ModuleFactory.sol\";\n\n/**\n * @title Factory for deploying ERC20DividendCheckpoint module\n */\ncontract ERC20DividendCheckpointFactory is ModuleFactory {\n\n    address public logicContract;\n\n    /**\n     * @notice Constructor\n     * @param _polyAddress Address of the polytoken\n     * @param _setupCost Setup cost of the module\n     * @param _usageCost Usage cost of the module\n     * @param _subscriptionCost Subscription cost of the module\n     * @param _logicContract Contract address that contains the logic related to `description`\n     */\n    constructor (address _polyAddress, uint256 _setupCost, uint256 _usageCost, uint256 _subscriptionCost, address _logicContract) public\n    ModuleFactory(_polyAddress, _setupCost, _usageCost, _subscriptionCost)\n    {\n        require(_logicContract != address(0), \"Invalid logic contract\");\n        version = \"2.1.0\";\n        name = \"ERC20DividendCheckpoint\";\n        title = \"ERC20 Dividend Checkpoint\";\n        description = \"Create ERC20 dividends for token holders at a specific checkpoint\";\n        compatibleSTVersionRange[\"lowerBound\"] = VersionUtils.pack(uint8(0), uint8(0), uint8(0));\n        compatibleSTVersionRange[\"upperBound\"] = VersionUtils.pack(uint8(0), uint8(0), uint8(0));\n        logicContract = _logicContract;\n    }\n\n    /**\n     * @notice Used to launch the Module with the help of factory\n     * @return Address Contract address of the Module\n     */\n    function deploy(bytes _data) external returns(address) {\n        if (setupCost > 0)\n            require(polyToken.transferFrom(msg.sender, owner, setupCost), \"insufficent allowance\");\n        address erc20DividendCheckpoint = new ERC20DividendCheckpointProxy(msg.sender, address(polyToken), logicContract);\n        //Checks that _data is valid (not calling anything it shouldn't)\n        require(Util.getSig(_data) == IBoot(erc20DividendCheckpoint).getInitFunction(), \"Invalid data\");\n        /*solium-disable-next-line security/no-low-level-calls*/\n        require(erc20DividendCheckpoint.call(_data), \"Unsuccessfull call\");\n        /*solium-disable-next-line security/no-block-members*/\n        emit GenerateModuleFromFactory(erc20DividendCheckpoint, getName(), address(this), msg.sender, setupCost, now);\n        return erc20DividendCheckpoint;\n    }\n\n    /**\n     * @notice Type of the Module factory\n     */\n    function getTypes() external view returns(uint8[]) {\n        uint8[] memory res = new uint8[](1);\n        res[0] = 4;\n        return res;\n    }\n\n    /**\n     * @notice Returns the instructions associated with the module\n     */\n    function getInstructions() external view returns(string) {\n        return \"Create ERC20 dividend to be paid out to token holders based on their balances at dividend creation time\";\n    }\n\n    /**\n     * @notice Get the tags related to the module factory\n     */\n    function getTags() external view returns(bytes32[]) {\n        bytes32[] memory availableTags = new bytes32[](3);\n        availableTags[0] = \"ERC20\";\n        availableTags[1] = \"Dividend\";\n        availableTags[2] = \"Checkpoint\";\n        return availableTags;\n    }\n}\n",
  "sourcePath": "/Users/jere/Code/polymath-apps/packages/new-polymath-scripts/src/generateLocalBlockchain/contracts/modules/Checkpoint/ERC20DividendCheckpointFactory.sol",
  "compiler": {
    "name": "solc",
    "version": "0.4.24+commit.e67f0147.Emscripten.clang"
  },
  "schemaVersion": "2.0.1",
  "updatedAt": "2019-02-06T00:35:09.862Z"
}