{
  "contractName": "ERC20DividendCheckpointStorage",
  "abi": [
    {
      "constant": true,
      "inputs": [
        {
          "name": "",
          "type": "uint256"
        }
      ],
      "name": "dividendTokens",
      "outputs": [
        {
          "name": "",
          "type": "address"
        }
      ],
      "payable": false,
      "stateMutability": "view",
      "type": "function"
    }
  ],
  "bytecode": "0x608060405234801561001057600080fd5b5060d58061001f6000396000f300608060405260043610603e5763ffffffff7c010000000000000000000000000000000000000000000000000000000060003504166395ec5bbe81146043575b600080fd5b348015604e57600080fd5b5060586004356081565b6040805173ffffffffffffffffffffffffffffffffffffffff9092168252519081900360200190f35b60006020819052908152604090205473ffffffffffffffffffffffffffffffffffffffff16815600a165627a7a72305820a4f15a59c386ad51feb0bda2c95aa04b3978db050bbaec00bcbe5c616564ebd40029",
  "source": "pragma solidity ^0.4.24;\n\n/**\n * @title It holds the storage variables related to ERC20DividendCheckpoint module\n */\ncontract ERC20DividendCheckpointStorage {\n\n    // Mapping to token address for each dividend\n    mapping (uint256 => address) public dividendTokens;\n\n}\n",
  "sourcePath": "/Users/jere/Code/polymath-apps/packages/new-polymath-scripts/src/generateLocalBlockchain/contracts/modules/Checkpoint/ERC20DividendCheckpointStorage.sol",
  "compiler": {
    "name": "solc",
    "version": "0.4.24+commit.e67f0147.Emscripten.clang"
  },
  "schemaVersion": "2.0.1",
  "updatedAt": "2019-01-17T19:56:09.627Z"
}