{
  "contractName": "EternalStorage",
  "abi": [
    {
      "constant": true,
      "inputs": [
        {
          "name": "_key",
          "type": "bytes32"
        }
      ],
      "name": "getArrayAddress",
      "outputs": [
        {
          "name": "",
          "type": "address[]"
        }
      ],
      "payable": false,
      "stateMutability": "view",
      "type": "function"
    },
    {
      "constant": true,
      "inputs": [
        {
          "name": "_key",
          "type": "bytes32"
        }
      ],
      "name": "getArrayBytes32",
      "outputs": [
        {
          "name": "",
          "type": "bytes32[]"
        }
      ],
      "payable": false,
      "stateMutability": "view",
      "type": "function"
    },
    {
      "constant": true,
      "inputs": [
        {
          "name": "_key",
          "type": "bytes32"
        }
      ],
      "name": "getArrayUint",
      "outputs": [
        {
          "name": "",
          "type": "uint256[]"
        }
      ],
      "payable": false,
      "stateMutability": "view",
      "type": "function"
    },
    {
      "constant": true,
      "inputs": [
        {
          "name": "_variable",
          "type": "bytes32"
        }
      ],
      "name": "getUintValue",
      "outputs": [
        {
          "name": "",
          "type": "uint256"
        }
      ],
      "payable": false,
      "stateMutability": "view",
      "type": "function"
    },
    {
      "constant": true,
      "inputs": [
        {
          "name": "_variable",
          "type": "bytes32"
        }
      ],
      "name": "getBoolValue",
      "outputs": [
        {
          "name": "",
          "type": "bool"
        }
      ],
      "payable": false,
      "stateMutability": "view",
      "type": "function"
    },
    {
      "constant": true,
      "inputs": [
        {
          "name": "_variable",
          "type": "bytes32"
        }
      ],
      "name": "getStringValue",
      "outputs": [
        {
          "name": "",
          "type": "string"
        }
      ],
      "payable": false,
      "stateMutability": "view",
      "type": "function"
    },
    {
      "constant": true,
      "inputs": [
        {
          "name": "_variable",
          "type": "bytes32"
        }
      ],
      "name": "getAddressValue",
      "outputs": [
        {
          "name": "",
          "type": "address"
        }
      ],
      "payable": false,
      "stateMutability": "view",
      "type": "function"
    },
    {
      "constant": true,
      "inputs": [
        {
          "name": "_variable",
          "type": "bytes32"
        }
      ],
      "name": "getBytes32Value",
      "outputs": [
        {
          "name": "",
          "type": "bytes32"
        }
      ],
      "payable": false,
      "stateMutability": "view",
      "type": "function"
    },
    {
      "constant": true,
      "inputs": [
        {
          "name": "_variable",
          "type": "bytes32"
        }
      ],
      "name": "getBytesValue",
      "outputs": [
        {
          "name": "",
          "type": "bytes"
        }
      ],
      "payable": false,
      "stateMutability": "view",
      "type": "function"
    }
  ],
  "bytecode": "0x608060405234801561001057600080fd5b5061055e806100206000396000f3006080604052600436106100985763ffffffff7c0100000000000000000000000000000000000000000000000000000000600035041663025ec81a811461009d57806344bfa56e146100c75780634c77e5ba146101545780636f3b8ce2146101955780638ffa9690146101fd578063a209a29c14610229578063a8f0d3a714610241578063e82617fb14610259578063f6fcbee114610271575b600080fd5b3480156100a957600080fd5b506100b5600435610289565b60408051918252519081900360200190f35b3480156100d357600080fd5b506100df60043561029b565b6040805160208082528351818301528351919283929083019185019080838360005b83811015610119578181015183820152602001610101565b50505050905090810190601f1680156101465780820380516001836020036101000a031916815260200191505b509250505060405180910390f35b34801561016057600080fd5b5061016c60043561033c565b6040805173ffffffffffffffffffffffffffffffffffffffff9092168252519081900360200190f35b3480156101a157600080fd5b506101ad600435610364565b60408051602080825283518183015283519192839290830191858101910280838360005b838110156101e95781810151838201526020016101d1565b505050509050019250505060405180910390f35b34801561020957600080fd5b506102156004356103dc565b604080519115158252519081900360200190f35b34801561023557600080fd5b506100df6004356103f1565b34801561024d57600080fd5b506101ad60043561045d565b34801561026557600080fd5b506100b56004356104bf565b34801561027d57600080fd5b506101ad6004356104d1565b60009081526006602052604090205490565b60008181526003602090815260409182902080548351601f60026101006001851615026000190190931692909204918201849004840281018401909452808452606093928301828280156103305780601f1061030557610100808354040283529160200191610330565b820191906000526020600020905b81548152906001019060200180831161031357829003601f168201915b50505050509050919050565b60009081526002602052604090205473ffffffffffffffffffffffffffffffffffffffff1690565b60008181526009602090815260409182902080548351818402810184019094528084526060939283018282801561033057602002820191906000526020600020905b815473ffffffffffffffffffffffffffffffffffffffff1681526001909101906020018083116103a65750505050509050919050565b60009081526004602052604090205460ff1690565b60008181526001602081815260409283902080548451600260001995831615610100029590950190911693909304601f810183900483028401830190945283835260609390918301828280156103305780601f1061030557610100808354040283529160200191610330565b60008181526007602090815260409182902080548351818402810184019094528084526060939283018282801561033057602002820191906000526020600020905b8154815260019091019060200180831161049f5750505050509050919050565b60009081526020819052604090205490565b60008181526008602090815260409182902080548351818402810184019094528084526060939283018282801561033057602002820191906000526020600020905b81548152602001906001019080831161051357505050505090509190505600a165627a7a723058202a973c8ea65221423b25fd4f96440467159ed2089387b5a8a51bd12f9f6160890029",
  "source": "pragma solidity ^0.4.24;\n\ncontract EternalStorage {\n\n    /// @notice Internal mappings used to store all kinds on data into the contract\n    mapping(bytes32 => uint256) internal uintStorage;\n    mapping(bytes32 => string) internal stringStorage;\n    mapping(bytes32 => address) internal addressStorage;\n    mapping(bytes32 => bytes) internal bytesStorage;\n    mapping(bytes32 => bool) internal boolStorage;\n    mapping(bytes32 => int256) internal intStorage;\n    mapping(bytes32 => bytes32) internal bytes32Storage;\n\n    /// @notice Internal mappings used to store arrays of different data types\n    mapping(bytes32 => bytes32[]) internal bytes32ArrayStorage;\n    mapping(bytes32 => uint256[]) internal uintArrayStorage;\n    mapping(bytes32 => address[]) internal addressArrayStorage;\n    mapping(bytes32 => string[]) internal stringArrayStorage;\n\n    //////////////////\n    //// set functions\n    //////////////////\n    /// @notice Set the key values using the Overloaded `set` functions\n    /// Ex- string version = \"0.0.1\"; replace to\n    /// set(keccak256(abi.encodePacked(\"version\"), \"0.0.1\");\n    /// same for the other variables as well some more example listed below\n    /// ex1 - address securityTokenAddress = 0x123; replace to\n    /// set(keccak256(abi.encodePacked(\"securityTokenAddress\"), 0x123);\n    /// ex2 - bytes32 tokenDetails = \"I am ST20\"; replace to\n    /// set(keccak256(abi.encodePacked(\"tokenDetails\"), \"I am ST20\");\n    /// ex3 - mapping(string => address) ownedToken;\n    /// set(keccak256(abi.encodePacked(\"ownedToken\", \"Chris\")), 0x123);\n    /// ex4 - mapping(string => uint) tokenIndex;\n    /// tokenIndex[\"TOKEN\"] = 1; replace to set(keccak256(abi.encodePacked(\"tokenIndex\", \"TOKEN\"), 1);\n    /// ex5 - mapping(string => SymbolDetails) registeredSymbols; where SymbolDetails is the structure having different type of values as\n    /// {uint256 date, string name, address owner} etc.\n    /// registeredSymbols[\"TOKEN\"].name = \"MyFristToken\"; replace to set(keccak256(abi.encodePacked(\"registeredSymbols_name\", \"TOKEN\"), \"MyFirstToken\");\n    /// More generalized- set(keccak256(abi.encodePacked(\"registeredSymbols_<struct variable>\", \"keyname\"), \"value\");\n\n    function set(bytes32 _key, uint256 _value) internal {\n        uintStorage[_key] = _value;\n    }\n\n    function set(bytes32 _key, address _value) internal {\n        addressStorage[_key] = _value;\n    }\n\n    function set(bytes32 _key, bool _value) internal {\n        boolStorage[_key] = _value;\n    }\n\n    function set(bytes32 _key, bytes32 _value) internal {\n        bytes32Storage[_key] = _value;\n    }\n\n    function set(bytes32 _key, string _value) internal {\n        stringStorage[_key] = _value;\n    }\n\n    ////////////////////////////\n    // deleteArray functions\n    ////////////////////////////\n    /// @notice Function used to delete the array element.\n    /// Ex1- mapping(address => bytes32[]) tokensOwnedByOwner;\n    /// For deleting the item from array developers needs to create a funtion for that similarly\n    /// in this case we have the helper function deleteArrayBytes32() which will do it for us\n    /// deleteArrayBytes32(keccak256(abi.encodePacked(\"tokensOwnedByOwner\", 0x1), 3); -- it will delete the index 3\n\n\n    //Deletes from mapping (bytes32 => array[]) at index _index\n    function deleteArrayAddress(bytes32 _key, uint256 _index) internal {\n        address[] storage array = addressArrayStorage[_key];\n        require(_index < array.length, \"Index should less than length of the array\");\n        array[_index] = array[array.length - 1];\n        array.length = array.length - 1;\n    }\n\n    //Deletes from mapping (bytes32 => bytes32[]) at index _index\n    function deleteArrayBytes32(bytes32 _key, uint256 _index) internal {\n        bytes32[] storage array = bytes32ArrayStorage[_key];\n        require(_index < array.length, \"Index should less than length of the array\");\n        array[_index] = array[array.length - 1];\n        array.length = array.length - 1;\n    }\n\n    //Deletes from mapping (bytes32 => uint[]) at index _index\n    function deleteArrayUint(bytes32 _key, uint256 _index) internal {\n        uint256[] storage array = uintArrayStorage[_key];\n        require(_index < array.length, \"Index should less than length of the array\");\n        array[_index] = array[array.length - 1];\n        array.length = array.length - 1;\n    }\n\n    //Deletes from mapping (bytes32 => string[]) at index _index\n    function deleteArrayString(bytes32 _key, uint256 _index) internal {\n        string[] storage array = stringArrayStorage[_key];\n        require(_index < array.length, \"Index should less than length of the array\");\n        array[_index] = array[array.length - 1];\n        array.length = array.length - 1;\n    }\n\n    ////////////////////////////\n    //// pushArray functions\n    ///////////////////////////\n    /// @notice Below are the helper functions to facilitate storing arrays of different data types.\n    /// Ex1- mapping(address => bytes32[]) tokensOwnedByTicker;\n    /// tokensOwnedByTicker[owner] = tokensOwnedByTicker[owner].push(\"xyz\"); replace with\n    /// pushArray(keccak256(abi.encodePacked(\"tokensOwnedByTicker\", owner), \"xyz\");\n\n    /// @notice use to store the values for the array\n    /// @param _key bytes32 type\n    /// @param _value [uint256, string, bytes32, address] any of the data type in array\n    function pushArray(bytes32 _key, address _value) internal {\n        addressArrayStorage[_key].push(_value);\n    }\n\n    function pushArray(bytes32 _key, bytes32 _value) internal {\n        bytes32ArrayStorage[_key].push(_value);\n    }\n\n    function pushArray(bytes32 _key, string _value) internal {\n        stringArrayStorage[_key].push(_value);\n    }\n\n    function pushArray(bytes32 _key, uint256 _value) internal {\n        uintArrayStorage[_key].push(_value);\n    }\n\n    /////////////////////////\n    //// Set Array functions\n    ////////////////////////\n    /// @notice used to intialize the array\n    /// Ex1- mapping (address => address[]) public reputation;\n    /// reputation[0x1] = new address[](0); It can be replaced as\n    /// setArray(hash('reputation', 0x1), new address[](0)); \n    \n    function setArray(bytes32 _key, address[] _value) internal {\n        addressArrayStorage[_key] = _value;\n    }\n\n    function setArray(bytes32 _key, uint256[] _value) internal {\n        uintArrayStorage[_key] = _value;\n    }\n\n    function setArray(bytes32 _key, bytes32[] _value) internal {\n        bytes32ArrayStorage[_key] = _value;\n    }\n\n    function setArray(bytes32 _key, string[] _value) internal {\n        stringArrayStorage[_key] = _value;\n    }\n\n    /////////////////////////\n    /// getArray functions\n    /////////////////////////\n    /// @notice Get functions to get the array of the required data type\n    /// Ex1- mapping(address => bytes32[]) tokensOwnedByOwner;\n    /// getArrayBytes32(keccak256(abi.encodePacked(\"tokensOwnedByOwner\", 0x1)); It return the bytes32 array\n    /// Ex2- uint256 _len =  tokensOwnedByOwner[0x1].length; replace with\n    /// getArrayBytes32(keccak256(abi.encodePacked(\"tokensOwnedByOwner\", 0x1)).length;\n\n    function getArrayAddress(bytes32 _key) public view returns(address[]) {\n        return addressArrayStorage[_key];\n    }\n\n    function getArrayBytes32(bytes32 _key) public view returns(bytes32[]) {\n        return bytes32ArrayStorage[_key];\n    }\n\n    function getArrayUint(bytes32 _key) public view returns(uint[]) {\n        return uintArrayStorage[_key];\n    }\n\n    ///////////////////////////////////\n    /// setArrayIndexValue() functions\n    ///////////////////////////////////\n    /// @notice set the value of particular index of the address array\n    /// Ex1- mapping(bytes32 => address[]) moduleList;\n    /// general way is -- moduleList[moduleType][index] = temp; \n    /// It can be re-write as -- setArrayIndexValue(keccak256(abi.encodePacked('moduleList', moduleType)), index, temp); \n\n    function setArrayIndexValue(bytes32 _key, uint256 _index, address _value) internal {\n        addressArrayStorage[_key][_index] = _value;\n    }\n\n    function setArrayIndexValue(bytes32 _key, uint256 _index, uint256 _value) internal {\n        uintArrayStorage[_key][_index] = _value;\n    }\n\n    function setArrayIndexValue(bytes32 _key, uint256 _index, bytes32 _value) internal {\n        bytes32ArrayStorage[_key][_index] = _value;\n    }\n\n    function setArrayIndexValue(bytes32 _key, uint256 _index, string _value) internal {\n        stringArrayStorage[_key][_index] = _value;\n    }\n\n    /// Public getters functions\n    ////////////////////\n    /// @notice Get function use to get the value of the singleton state variables\n    /// Ex1- string public version = \"0.0.1\";\n    /// string _version = getString(keccak256(abi.encodePacked(\"version\"));\n    /// Ex2 - assert(temp1 == temp2); replace to\n    /// assert(getUint(keccak256(abi.encodePacked(temp1)) == getUint(keccak256(abi.encodePacked(temp2));\n    /// Ex3 - mapping(string => SymbolDetails) registeredSymbols; where SymbolDetails is the structure having different type of values as\n    /// {uint256 date, string name, address owner} etc.\n    /// string _name = getString(keccak256(abi.encodePacked(\"registeredSymbols_name\", \"TOKEN\"));\n\n    function getUintValue(bytes32 _variable) public view returns(uint256) {\n        return uintStorage[_variable];\n    }\n\n    function getBoolValue(bytes32 _variable) public view returns(bool) {\n        return boolStorage[_variable];\n    }\n\n    function getStringValue(bytes32 _variable) public view returns(string) {\n        return stringStorage[_variable];\n    }\n\n    function getAddressValue(bytes32 _variable) public view returns(address) {\n        return addressStorage[_variable];\n    }\n\n    function getBytes32Value(bytes32 _variable) public view returns(bytes32) {\n        return bytes32Storage[_variable];\n    }\n\n    function getBytesValue(bytes32 _variable) public view returns(bytes) {\n        return bytesStorage[_variable];\n    }\n\n}\n",
  "sourcePath": "/Users/jere/Code/polymath-apps/packages/new-polymath-scripts/src/generateLocalBlockchain/contracts/storage/EternalStorage.sol",
  "compiler": {
    "name": "solc",
    "version": "0.4.24+commit.e67f0147.Emscripten.clang"
  },
  "schemaVersion": "2.0.1",
  "updatedAt": "2019-02-05T23:14:23.245Z"
}