{
  "contractName": "EtherDividendCheckpointProxy",
  "abi": [
    {
      "constant": false,
      "inputs": [],
      "name": "proxyOwner",
      "outputs": [
        {
          "name": "",
          "type": "address"
        }
      ],
      "payable": false,
      "stateMutability": "nonpayable",
      "type": "function"
    },
    {
      "constant": true,
      "inputs": [],
      "name": "EXCLUDED_ADDRESS_LIMIT",
      "outputs": [
        {
          "name": "",
          "type": "uint256"
        }
      ],
      "payable": false,
      "stateMutability": "view",
      "type": "function"
    },
    {
      "constant": true,
      "inputs": [],
      "name": "CHECKPOINT",
      "outputs": [
        {
          "name": "",
          "type": "bytes32"
        }
      ],
      "payable": false,
      "stateMutability": "view",
      "type": "function"
    },
    {
      "constant": true,
      "inputs": [],
      "name": "wallet",
      "outputs": [
        {
          "name": "",
          "type": "address"
        }
      ],
      "payable": false,
      "stateMutability": "view",
      "type": "function"
    },
    {
      "constant": true,
      "inputs": [],
      "name": "MANAGE",
      "outputs": [
        {
          "name": "",
          "type": "bytes32"
        }
      ],
      "payable": false,
      "stateMutability": "view",
      "type": "function"
    },
    {
      "constant": false,
      "inputs": [],
      "name": "implementation",
      "outputs": [
        {
          "name": "",
          "type": "address"
        }
      ],
      "payable": false,
      "stateMutability": "nonpayable",
      "type": "function"
    },
    {
      "constant": true,
      "inputs": [],
      "name": "paused",
      "outputs": [
        {
          "name": "",
          "type": "bool"
        }
      ],
      "payable": false,
      "stateMutability": "view",
      "type": "function"
    },
    {
      "constant": true,
      "inputs": [],
      "name": "polyToken",
      "outputs": [
        {
          "name": "",
          "type": "address"
        }
      ],
      "payable": false,
      "stateMutability": "view",
      "type": "function"
    },
    {
      "constant": true,
      "inputs": [
        {
          "name": "",
          "type": "address"
        }
      ],
      "name": "withholdingTax",
      "outputs": [
        {
          "name": "",
          "type": "uint256"
        }
      ],
      "payable": false,
      "stateMutability": "view",
      "type": "function"
    },
    {
      "constant": true,
      "inputs": [],
      "name": "DISTRIBUTE",
      "outputs": [
        {
          "name": "",
          "type": "bytes32"
        }
      ],
      "payable": false,
      "stateMutability": "view",
      "type": "function"
    },
    {
      "constant": true,
      "inputs": [
        {
          "name": "",
          "type": "uint256"
        }
      ],
      "name": "dividends",
      "outputs": [
        {
          "name": "checkpointId",
          "type": "uint256"
        },
        {
          "name": "created",
          "type": "uint256"
        },
        {
          "name": "maturity",
          "type": "uint256"
        },
        {
          "name": "expiry",
          "type": "uint256"
        },
        {
          "name": "amount",
          "type": "uint256"
        },
        {
          "name": "claimedAmount",
          "type": "uint256"
        },
        {
          "name": "totalSupply",
          "type": "uint256"
        },
        {
          "name": "reclaimed",
          "type": "bool"
        },
        {
          "name": "totalWithheld",
          "type": "uint256"
        },
        {
          "name": "totalWithheldWithdrawn",
          "type": "uint256"
        },
        {
          "name": "name",
          "type": "bytes32"
        }
      ],
      "payable": false,
      "stateMutability": "view",
      "type": "function"
    },
    {
      "constant": true,
      "inputs": [],
      "name": "securityToken",
      "outputs": [
        {
          "name": "",
          "type": "address"
        }
      ],
      "payable": false,
      "stateMutability": "view",
      "type": "function"
    },
    {
      "constant": true,
      "inputs": [
        {
          "name": "",
          "type": "uint256"
        }
      ],
      "name": "excluded",
      "outputs": [
        {
          "name": "",
          "type": "address"
        }
      ],
      "payable": false,
      "stateMutability": "view",
      "type": "function"
    },
    {
      "constant": true,
      "inputs": [],
      "name": "factory",
      "outputs": [
        {
          "name": "",
          "type": "address"
        }
      ],
      "payable": false,
      "stateMutability": "view",
      "type": "function"
    },
    {
      "constant": true,
      "inputs": [],
      "name": "FEE_ADMIN",
      "outputs": [
        {
          "name": "",
          "type": "bytes32"
        }
      ],
      "payable": false,
      "stateMutability": "view",
      "type": "function"
    },
    {
      "constant": false,
      "inputs": [
        {
          "name": "_newOwner",
          "type": "address"
        }
      ],
      "name": "transferProxyOwnership",
      "outputs": [],
      "payable": false,
      "stateMutability": "nonpayable",
      "type": "function"
    },
    {
      "inputs": [
        {
          "name": "_securityToken",
          "type": "address"
        },
        {
          "name": "_polyAddress",
          "type": "address"
        },
        {
          "name": "_implementation",
          "type": "address"
        }
      ],
      "payable": false,
      "stateMutability": "nonpayable",
      "type": "constructor"
    },
    {
      "payable": true,
      "stateMutability": "payable",
      "type": "fallback"
    },
    {
      "anonymous": false,
      "inputs": [
        {
          "indexed": false,
          "name": "_previousOwner",
          "type": "address"
        },
        {
          "indexed": false,
          "name": "_newOwner",
          "type": "address"
        }
      ],
      "name": "ProxyOwnershipTransferred",
      "type": "event"
    },
    {
      "anonymous": false,
      "inputs": [
        {
          "indexed": false,
          "name": "_timestammp",
          "type": "uint256"
        }
      ],
      "name": "Pause",
      "type": "event"
    },
    {
      "anonymous": false,
      "inputs": [
        {
          "indexed": false,
          "name": "_timestamp",
          "type": "uint256"
        }
      ],
      "name": "Unpause",
      "type": "event"
    }
  ],
  "bytecode": "0x608060405260966001556007805460a060020a60ff021916905534801561002557600080fd5b5060405160608061091b83398101604090815281516020830151919092015160068054600160a060020a03808616600160a060020a03199283161790925560058054821633908117909155600780549386169390921692909217905561009390640100000000610158810204565b600160a060020a038116151561013057604080517f08c379a000000000000000000000000000000000000000000000000000000000815260206004820152602760248201527f496d706c656d656e746174696f6e20616464726573732073686f756c64206e6f60448201527f7420626520307800000000000000000000000000000000000000000000000000606482015290519081900360840190fd5b60098054600160a060020a031916600160a060020a0392909216919091179055506101f19050565b600160a060020a03811615156101cf57604080517f08c379a000000000000000000000000000000000000000000000000000000000815260206004820152601860248201527f416464726573732073686f756c64206e6f742062652030780000000000000000604482015290519081900360640190fd5b60088054600160a060020a031916600160a060020a0392909216919091179055565b61071b806102006000396000f3006080604052600436106100e55763ffffffff7c0100000000000000000000000000000000000000000000000000000000600035041663025313a281146100ef5780630a29f5911461012057806335d806f814610147578063521eb2731461015c5780635bf341c1146101715780635c60da1b146101865780635c975abb1461019b5780636faa22a5146101c45780637a3e23fd146101d957806380fef5af146101fa578063814b3fe01461020f578063b84dfbd21461027f578063bee2ddc214610294578063c45a0155146102ac578063d70afa96146102c1578063f1739cae146102d6575b6100ed6102f7565b005b3480156100fb57600080fd5b50610104610309565b60408051600160a060020a039092168252519081900360200190f35b34801561012c57600080fd5b50610135610346565b60408051918252519081900360200190f35b34801561015357600080fd5b5061013561034c565b34801561016857600080fd5b50610104610370565b34801561017d57600080fd5b5061013561037f565b34801561019257600080fd5b506101046103a3565b3480156101a757600080fd5b506101b06103ce565b604080519115158252519081900360200190f35b3480156101d057600080fd5b506101046103ef565b3480156101e557600080fd5b50610135600160a060020a03600435166103fe565b34801561020657600080fd5b50610135610410565b34801561021b57600080fd5b50610227600435610434565b604080519b8c5260208c019a909a528a8a019890985260608a0196909652608089019490945260a088019290925260c0870152151560e086015261010085015261012084015261014083015251908190036101600190f35b34801561028b57600080fd5b506101046104a1565b3480156102a057600080fd5b506101046004356104b0565b3480156102b857600080fd5b506101046104d8565b3480156102cd57600080fd5b506101356104e7565b3480156102e257600080fd5b506100ed600160a060020a036004351661050b565b610307610302610607565b610616565b565b600061031361063a565b600160a060020a031633600160a060020a0316141561033b5761033461063a565b9050610343565b6103436102f7565b90565b60015481565b7f434845434b504f494e540000000000000000000000000000000000000000000081565b600054600160a060020a031681565b7f4d414e414745000000000000000000000000000000000000000000000000000081565b60006103ad61063a565b600160a060020a031633600160a060020a0316141561033b57610334610607565b60075474010000000000000000000000000000000000000000900460ff1681565b600754600160a060020a031681565b60046020526000908152604090205481565b7f444953545249425554450000000000000000000000000000000000000000000081565b600280548290811061044257fe5b60009182526020909120600e9091020180546001820154600283015460038401546004850154600586015460068701546007880154600889015460098a0154600d909a0154989a5096989597949693959294919360ff9091169290918b565b600654600160a060020a031681565b60038054829081106104be57fe5b600091825260209091200154600160a060020a0316905081565b600554600160a060020a031681565b7f4645455f41444d494e000000000000000000000000000000000000000000000081565b61051361063a565b600160a060020a031633600160a060020a031614156105fc57600160a060020a03811615156105a357604080517f08c379a000000000000000000000000000000000000000000000000000000000815260206004820152601860248201527f416464726573732073686f756c64206e6f742062652030780000000000000000604482015290519081900360640190fd5b7f5a3e66efaa1e445ebd894728a69d6959842ea1e97bd79b892797106e270efcd96105cc61063a565b60408051600160a060020a03928316815291841660208301528051918290030190a16105f781610649565b610604565b6106046102f7565b50565b600954600160a060020a031690565b3660008037600080366000845af43d6000803e808015610635573d6000f35b3d6000fd5b600854600160a060020a031690565b600160a060020a03811615156106c057604080517f08c379a000000000000000000000000000000000000000000000000000000000815260206004820152601860248201527f416464726573732073686f756c64206e6f742062652030780000000000000000604482015290519081900360640190fd5b6008805473ffffffffffffffffffffffffffffffffffffffff1916600160a060020a03929092169190911790555600a165627a7a72305820fc828c0c536c51d3755b6d22ac1de8485802c34574f5e4d858ae5d4fe359fa660029",
  "source": "pragma solidity ^0.4.24;\n\nimport \"../modules/Checkpoint/DividendCheckpointStorage.sol\";\nimport \"./OwnedProxy.sol\";\nimport \"../Pausable.sol\";\nimport \"../modules/ModuleStorage.sol\";\n\n/**\n * @title Transfer Manager module for core transfer validation functionality\n */\ncontract EtherDividendCheckpointProxy is DividendCheckpointStorage, ModuleStorage, Pausable, OwnedProxy {\n\n    /**\n    * @notice Constructor\n    * @param _securityToken Address of the security token\n    * @param _polyAddress Address of the polytoken\n    * @param _implementation representing the address of the new implementation to be set\n    */\n    constructor (address _securityToken, address _polyAddress, address _implementation)\n    public\n    ModuleStorage(_securityToken, _polyAddress)\n    {\n        require(\n            _implementation != address(0),\n            \"Implementation address should not be 0x\"\n        );\n        __implementation = _implementation;\n    }\n\n}\n",
  "sourcePath": "/Users/jere/Code/polymath-apps/packages/new-polymath-scripts/src/generateLocalBlockchain/contracts/proxy/EtherDividendCheckpointProxy.sol",
  "compiler": {
    "name": "solc",
    "version": "0.4.24+commit.e67f0147.Emscripten.clang"
  },
  "schemaVersion": "2.0.1",
  "updatedAt": "2019-02-05T23:14:23.227Z"
}