{
  "contractName": "EtherDividendCheckpoint",
  "abi": [
    {
      "constant": false,
      "inputs": [
        {
          "name": "_investors",
          "type": "address[]"
        },
        {
          "name": "_withholding",
          "type": "uint256"
        }
      ],
      "name": "setWithholdingFixed",
      "outputs": [],
      "payable": false,
      "stateMutability": "nonpayable",
      "type": "function"
    },
    {
      "constant": true,
      "inputs": [],
      "name": "EXCLUDED_ADDRESS_LIMIT",
      "outputs": [
        {
          "name": "",
          "type": "uint256"
        }
      ],
      "payable": false,
      "stateMutability": "view",
      "type": "function"
    },
    {
      "constant": true,
      "inputs": [],
      "name": "getInitFunction",
      "outputs": [
        {
          "name": "",
          "type": "bytes4"
        }
      ],
      "payable": false,
      "stateMutability": "pure",
      "type": "function"
    },
    {
      "constant": false,
      "inputs": [
        {
          "name": "_dividendIndex",
          "type": "uint256"
        }
      ],
      "name": "pullDividendPayment",
      "outputs": [],
      "payable": false,
      "stateMutability": "nonpayable",
      "type": "function"
    },
    {
      "constant": true,
      "inputs": [],
      "name": "CHECKPOINT",
      "outputs": [
        {
          "name": "",
          "type": "bytes32"
        }
      ],
      "payable": false,
      "stateMutability": "view",
      "type": "function"
    },
    {
      "constant": true,
      "inputs": [
        {
          "name": "",
          "type": "address"
        }
      ],
      "name": "investorWithheld",
      "outputs": [
        {
          "name": "",
          "type": "uint256"
        }
      ],
      "payable": false,
      "stateMutability": "view",
      "type": "function"
    },
    {
      "constant": false,
      "inputs": [
        {
          "name": "_dividendIndex",
          "type": "uint256"
        },
        {
          "name": "_payees",
          "type": "address[]"
        }
      ],
      "name": "pushDividendPaymentToAddresses",
      "outputs": [],
      "payable": false,
      "stateMutability": "nonpayable",
      "type": "function"
    },
    {
      "constant": true,
      "inputs": [
        {
          "name": "_dividendIndex",
          "type": "uint256"
        },
        {
          "name": "_payee",
          "type": "address"
        }
      ],
      "name": "calculateDividend",
      "outputs": [
        {
          "name": "",
          "type": "uint256"
        },
        {
          "name": "",
          "type": "uint256"
        }
      ],
      "payable": false,
      "stateMutability": "view",
      "type": "function"
    },
    {
      "constant": true,
      "inputs": [],
      "name": "MANAGE",
      "outputs": [
        {
          "name": "",
          "type": "bytes32"
        }
      ],
      "payable": false,
      "stateMutability": "view",
      "type": "function"
    },
    {
      "constant": true,
      "inputs": [
        {
          "name": "_checkpointId",
          "type": "uint256"
        }
      ],
      "name": "getDividendIndex",
      "outputs": [
        {
          "name": "",
          "type": "uint256[]"
        }
      ],
      "payable": false,
      "stateMutability": "view",
      "type": "function"
    },
    {
      "constant": false,
      "inputs": [
        {
          "name": "_amount",
          "type": "uint256"
        }
      ],
      "name": "takeFee",
      "outputs": [
        {
          "name": "",
          "type": "bool"
        }
      ],
      "payable": false,
      "stateMutability": "nonpayable",
      "type": "function"
    },
    {
      "constant": true,
      "inputs": [],
      "name": "polyToken",
      "outputs": [
        {
          "name": "",
          "type": "address"
        }
      ],
      "payable": false,
      "stateMutability": "view",
      "type": "function"
    },
    {
      "constant": true,
      "inputs": [
        {
          "name": "",
          "type": "address"
        }
      ],
      "name": "withholdingTax",
      "outputs": [
        {
          "name": "",
          "type": "uint256"
        }
      ],
      "payable": false,
      "stateMutability": "view",
      "type": "function"
    },
    {
      "constant": true,
      "inputs": [],
      "name": "DISTRIBUTE",
      "outputs": [
        {
          "name": "",
          "type": "bytes32"
        }
      ],
      "payable": false,
      "stateMutability": "view",
      "type": "function"
    },
    {
      "constant": true,
      "inputs": [
        {
          "name": "",
          "type": "uint256"
        }
      ],
      "name": "dividends",
      "outputs": [
        {
          "name": "checkpointId",
          "type": "uint256"
        },
        {
          "name": "created",
          "type": "uint256"
        },
        {
          "name": "maturity",
          "type": "uint256"
        },
        {
          "name": "expiry",
          "type": "uint256"
        },
        {
          "name": "amount",
          "type": "uint256"
        },
        {
          "name": "claimedAmount",
          "type": "uint256"
        },
        {
          "name": "totalSupply",
          "type": "uint256"
        },
        {
          "name": "reclaimed",
          "type": "bool"
        },
        {
          "name": "dividendWithheld",
          "type": "uint256"
        },
        {
          "name": "dividendWithheldReclaimed",
          "type": "uint256"
        },
        {
          "name": "name",
          "type": "bytes32"
        }
      ],
      "payable": false,
      "stateMutability": "view",
      "type": "function"
    },
    {
      "constant": false,
      "inputs": [
        {
          "name": "_investors",
          "type": "address[]"
        },
        {
          "name": "_withholding",
          "type": "uint256[]"
        }
      ],
      "name": "setWithholding",
      "outputs": [],
      "payable": false,
      "stateMutability": "nonpayable",
      "type": "function"
    },
    {
      "constant": true,
      "inputs": [],
      "name": "securityToken",
      "outputs": [
        {
          "name": "",
          "type": "address"
        }
      ],
      "payable": false,
      "stateMutability": "view",
      "type": "function"
    },
    {
      "constant": true,
      "inputs": [
        {
          "name": "",
          "type": "uint256"
        }
      ],
      "name": "excluded",
      "outputs": [
        {
          "name": "",
          "type": "address"
        }
      ],
      "payable": false,
      "stateMutability": "view",
      "type": "function"
    },
    {
      "constant": true,
      "inputs": [],
      "name": "getPermissions",
      "outputs": [
        {
          "name": "",
          "type": "bytes32[]"
        }
      ],
      "payable": false,
      "stateMutability": "view",
      "type": "function"
    },
    {
      "constant": true,
      "inputs": [],
      "name": "factory",
      "outputs": [
        {
          "name": "",
          "type": "address"
        }
      ],
      "payable": false,
      "stateMutability": "view",
      "type": "function"
    },
    {
      "constant": false,
      "inputs": [
        {
          "name": "_excluded",
          "type": "address[]"
        }
      ],
      "name": "setDefaultExcluded",
      "outputs": [],
      "payable": false,
      "stateMutability": "nonpayable",
      "type": "function"
    },
    {
      "constant": true,
      "inputs": [],
      "name": "FEE_ADMIN",
      "outputs": [
        {
          "name": "",
          "type": "bytes32"
        }
      ],
      "payable": false,
      "stateMutability": "view",
      "type": "function"
    },
    {
      "constant": false,
      "inputs": [
        {
          "name": "_dividendIndex",
          "type": "uint256"
        },
        {
          "name": "_start",
          "type": "uint256"
        },
        {
          "name": "_iterations",
          "type": "uint256"
        }
      ],
      "name": "pushDividendPayment",
      "outputs": [],
      "payable": false,
      "stateMutability": "nonpayable",
      "type": "function"
    },
    {
      "constant": true,
      "inputs": [],
      "name": "getDefaultExcluded",
      "outputs": [
        {
          "name": "",
          "type": "address[]"
        }
      ],
      "payable": false,
      "stateMutability": "view",
      "type": "function"
    },
    {
      "constant": false,
      "inputs": [],
      "name": "createCheckpoint",
      "outputs": [
        {
          "name": "",
          "type": "uint256"
        }
      ],
      "payable": false,
      "stateMutability": "nonpayable",
      "type": "function"
    },
    {
      "inputs": [
        {
          "name": "_securityToken",
          "type": "address"
        },
        {
          "name": "_polyAddress",
          "type": "address"
        }
      ],
      "payable": false,
      "stateMutability": "nonpayable",
      "type": "constructor"
    },
    {
      "anonymous": false,
      "inputs": [
        {
          "indexed": true,
          "name": "_depositor",
          "type": "address"
        },
        {
          "indexed": false,
          "name": "_checkpointId",
          "type": "uint256"
        },
        {
          "indexed": false,
          "name": "_created",
          "type": "uint256"
        },
        {
          "indexed": false,
          "name": "_maturity",
          "type": "uint256"
        },
        {
          "indexed": false,
          "name": "_expiry",
          "type": "uint256"
        },
        {
          "indexed": false,
          "name": "_amount",
          "type": "uint256"
        },
        {
          "indexed": false,
          "name": "_totalSupply",
          "type": "uint256"
        },
        {
          "indexed": false,
          "name": "_dividendIndex",
          "type": "uint256"
        },
        {
          "indexed": true,
          "name": "_name",
          "type": "bytes32"
        }
      ],
      "name": "EtherDividendDeposited",
      "type": "event"
    },
    {
      "anonymous": false,
      "inputs": [
        {
          "indexed": true,
          "name": "_payee",
          "type": "address"
        },
        {
          "indexed": false,
          "name": "_dividendIndex",
          "type": "uint256"
        },
        {
          "indexed": false,
          "name": "_amount",
          "type": "uint256"
        },
        {
          "indexed": false,
          "name": "_withheld",
          "type": "uint256"
        }
      ],
      "name": "EtherDividendClaimed",
      "type": "event"
    },
    {
      "anonymous": false,
      "inputs": [
        {
          "indexed": true,
          "name": "_claimer",
          "type": "address"
        },
        {
          "indexed": false,
          "name": "_dividendIndex",
          "type": "uint256"
        },
        {
          "indexed": false,
          "name": "_claimedAmount",
          "type": "uint256"
        }
      ],
      "name": "EtherDividendReclaimed",
      "type": "event"
    },
    {
      "anonymous": false,
      "inputs": [
        {
          "indexed": true,
          "name": "_payee",
          "type": "address"
        },
        {
          "indexed": false,
          "name": "_dividendIndex",
          "type": "uint256"
        },
        {
          "indexed": false,
          "name": "_amount",
          "type": "uint256"
        },
        {
          "indexed": false,
          "name": "_withheld",
          "type": "uint256"
        }
      ],
      "name": "EtherDividendClaimFailed",
      "type": "event"
    },
    {
      "anonymous": false,
      "inputs": [
        {
          "indexed": true,
          "name": "_claimer",
          "type": "address"
        },
        {
          "indexed": false,
          "name": "_dividendIndex",
          "type": "uint256"
        },
        {
          "indexed": false,
          "name": "_withheldAmount",
          "type": "uint256"
        }
      ],
      "name": "EtherDividendWithholdingWithdrawn",
      "type": "event"
    },
    {
      "anonymous": false,
      "inputs": [
        {
          "indexed": false,
          "name": "_excluded",
          "type": "address[]"
        },
        {
          "indexed": false,
          "name": "_timestamp",
          "type": "uint256"
        }
      ],
      "name": "SetDefaultExcludedAddresses",
      "type": "event"
    },
    {
      "anonymous": false,
      "inputs": [
        {
          "indexed": false,
          "name": "_investors",
          "type": "address[]"
        },
        {
          "indexed": false,
          "name": "_withholding",
          "type": "uint256[]"
        },
        {
          "indexed": false,
          "name": "_timestamp",
          "type": "uint256"
        }
      ],
      "name": "SetWithholding",
      "type": "event"
    },
    {
      "anonymous": false,
      "inputs": [
        {
          "indexed": false,
          "name": "_investors",
          "type": "address[]"
        },
        {
          "indexed": false,
          "name": "_withholding",
          "type": "uint256"
        },
        {
          "indexed": false,
          "name": "_timestamp",
          "type": "uint256"
        }
      ],
      "name": "SetWithholdingFixed",
      "type": "event"
    },
    {
      "constant": false,
      "inputs": [
        {
          "name": "_maturity",
          "type": "uint256"
        },
        {
          "name": "_expiry",
          "type": "uint256"
        },
        {
          "name": "_name",
          "type": "bytes32"
        }
      ],
      "name": "createDividend",
      "outputs": [],
      "payable": true,
      "stateMutability": "payable",
      "type": "function"
    },
    {
      "constant": false,
      "inputs": [
        {
          "name": "_maturity",
          "type": "uint256"
        },
        {
          "name": "_expiry",
          "type": "uint256"
        },
        {
          "name": "_checkpointId",
          "type": "uint256"
        },
        {
          "name": "_name",
          "type": "bytes32"
        }
      ],
      "name": "createDividendWithCheckpoint",
      "outputs": [],
      "payable": true,
      "stateMutability": "payable",
      "type": "function"
    },
    {
      "constant": false,
      "inputs": [
        {
          "name": "_maturity",
          "type": "uint256"
        },
        {
          "name": "_expiry",
          "type": "uint256"
        },
        {
          "name": "_excluded",
          "type": "address[]"
        },
        {
          "name": "_name",
          "type": "bytes32"
        }
      ],
      "name": "createDividendWithExclusions",
      "outputs": [],
      "payable": true,
      "stateMutability": "payable",
      "type": "function"
    },
    {
      "constant": false,
      "inputs": [
        {
          "name": "_maturity",
          "type": "uint256"
        },
        {
          "name": "_expiry",
          "type": "uint256"
        },
        {
          "name": "_checkpointId",
          "type": "uint256"
        },
        {
          "name": "_excluded",
          "type": "address[]"
        },
        {
          "name": "_name",
          "type": "bytes32"
        }
      ],
      "name": "createDividendWithCheckpointAndExclusions",
      "outputs": [],
      "payable": true,
      "stateMutability": "payable",
      "type": "function"
    },
    {
      "constant": false,
      "inputs": [
        {
          "name": "_dividendIndex",
          "type": "uint256"
        }
      ],
      "name": "reclaimDividend",
      "outputs": [],
      "payable": false,
      "stateMutability": "nonpayable",
      "type": "function"
    },
    {
      "constant": false,
      "inputs": [
        {
          "name": "_dividendIndex",
          "type": "uint256"
        }
      ],
      "name": "withdrawWithholding",
      "outputs": [],
      "payable": false,
      "stateMutability": "nonpayable",
      "type": "function"
    }
  ],
  "bytecode": "0x6080604052603260035534801561001557600080fd5b5060405160408061412b83398101604052805160209091015160018054600160a060020a03938416600160a060020a03199182161790915560008054821633179055600280549390921692169190911790556140b5806100766000396000f3006080604052600436106101715763ffffffff60e060020a6000350416630945812e81146101765780630a29f591146101cf5780631613ec9d146101f657806330008b4814610240578063333cffe51461025857806335d806f8146102705780633f2e3165146102855780634d58e413146102a65780635bea0e1c146103005780635bf341c11461033d5780635daff64e146103525780635f7619a4146103ba5780636faa22a5146103e65780637a3e23fd1461041757806380fef5af14610438578063814b3fe01461044d5780638596e6e6146104bd578063aa8b76ea1461054b578063b84dfbd214610563578063bea1c04114610578578063bee2ddc2146105d1578063c3a07df6146105e9578063c45a0155146105fe578063cc1556dc14610613578063d70afa9614610668578063dcef4b5d1461067d578063e1726faa14610691578063f1e9d100146106af578063f4be43f4146106c4578063f58b5bae146106d5578063ff0b9c9014610728575b600080fd5b34801561018257600080fd5b50604080516020600480358082013583810280860185019096528085526101cd95369593946024949385019291829185019084908082843750949750509335945061073d9350505050565b005b3480156101db57600080fd5b506101e46109ff565b60408051918252519081900360200190f35b34801561020257600080fd5b5061020b610a05565b604080517fffffffff000000000000000000000000000000000000000000000000000000009092168252519081900360200190f35b34801561024c57600080fd5b506101cd600435610a0b565b34801561026457600080fd5b506101cd600435610ceb565b34801561027c57600080fd5b506101e4611025565b34801561029157600080fd5b506101e4600160a060020a0360043516611049565b3480156102b257600080fd5b506040805160206004602480358281013584810280870186019097528086526101cd9684359636966044959194909101929182918501908490808284375094975061105b9650505050505050565b34801561030c57600080fd5b50610324600435600160a060020a036024351661147e565b6040805192835260208301919091528051918290030190f35b34801561034957600080fd5b506101e4611661565b34801561035e57600080fd5b5061036a600435611671565b60408051602080825283518183015283519192839290830191858101910280838360005b838110156103a657818101518382015260200161038e565b505050509050019250505060405180910390f35b3480156103c657600080fd5b506103d2600435611756565b604080519115158252519081900360200190f35b3480156103f257600080fd5b506103fb611a72565b60408051600160a060020a039092168252519081900360200190f35b34801561042357600080fd5b506101e4600160a060020a0360043516611a81565b34801561044457600080fd5b506101e4611a93565b34801561045957600080fd5b50610465600435611aa5565b604080519b8c5260208c019a909a528a8a019890985260608a0196909652608089019490945260a088019290925260c0870152151560e086015261010085015261012084015261014083015251908190036101600190f35b3480156104c957600080fd5b50604080516020600480358082013583810280860185019096528085526101cd95369593946024949385019291829185019084908082843750506040805187358901803560208181028481018201909552818452989b9a998901989297509082019550935083925085019084908082843750949750611b129650505050505050565b34801561055757600080fd5b506101cd600435611e91565b34801561056f57600080fd5b506103fb6122b8565b60408051606435600481810135602081810285810182019096528185526101cd95833595602480359660443596369690956084959290930192909182918501908490808284375094975050933594506122c79350505050565b3480156105dd57600080fd5b506103fb600435612458565b3480156105f557600080fd5b5061036a612480565b34801561060a57600080fd5b506103fb6124fb565b34801561061f57600080fd5b50604080516020600480358082013583810280860185019096528085526101cd9536959394602494938501929182918501908490808284375094975061250a9650505050505050565b34801561067457600080fd5b506101e46128d6565b6101cd6004356024356044356064356128fa565b34801561069d57600080fd5b506101cd600435602435604435612aee565b3480156106bb57600080fd5b5061036a612fed565b6101cd60043560243560443561304f565b60408051602060046044358181013583810280860185019096528085526101cd95833595602480359636969560649593949201929182918501908490808284375094975050933594506132359350505050565b34801561073457600080fd5b506101e4613449565b600060d060020a654d414e41474502600080600160009054906101000a9004600160a060020a0316600160a060020a0316638da5cb5b6040518163ffffffff1660e060020a028152600401602060405180830381600087803b1580156107a257600080fd5b505af11580156107b6573d6000803e3d6000fd5b505050506040513d60208110156107cc57600080fd5b505160005433600160a060020a0392831681149450911614905081806107ef5750805b8061087f57506001546040805160e060020a638658b8b9028152336004820152306024820152604481018690529051600160a060020a0390921691638658b8b9916064808201926020929091908290030181600087803b15801561085257600080fd5b505af1158015610866573d6000803e3d6000fd5b505050506040513d602081101561087c57600080fd5b50515b15156108c3576040805160e560020a62461bcd028152602060048201526017602482015260008051602061406a833981519152604482015290519081900360640190fd5b670de0b6b3a7640000851115610923576040805160e560020a62461bcd02815260206004820152601960248201527f496e636f72726563742077697468686f6c64696e672074617800000000000000604482015290519081900360640190fd5b7f3587f82979516528f7ce51509410f4d49aaed2fe4c2661c07a02cc17ea1410278686426040518080602001848152602001838152602001828103825285818151815260200191508051906020019060200280838360005b8381101561099357818101518382015260200161097b565b5050505090500194505050505060405180910390a1600093505b85518410156109f757846006600088878151811015156109c957fe5b6020908102909101810151600160a060020a03168252810191909152604001600020556001909301926109ad565b505050505050565b60035481565b60005b90565b60045460009082908110610a57576040805160e560020a62461bcd028152602060048201526010602482015260008051602061402a833981519152604482015290519081900360640190fd5b6004805482908110610a6557fe5b600091825260209091206007600d90920201015460ff1615610ad1576040805160e560020a62461bcd02815260206004820152601260248201527f4469766964656e64207265636c61696d65640000000000000000000000000000604482015290519081900360640190fd5b6004805482908110610adf57fe5b90600052602060002090600d0201600201544210151515610b4a576040805160e560020a62461bcd02815260206004820152601b60248201527f4469766964656e64206d6174757269747920696e206675747572650000000000604482015290519081900360640190fd5b6004805482908110610b5857fe5b90600052602060002090600d02016003015442101515610bc2576040805160e560020a62461bcd02815260206004820152601760248201527f4469766964656e642065787069727920696e2070617374000000000000000000604482015290519081900360640190fd5b6004805484908110610bd057fe5b60009182526020808320338452600a600d90930201918201905260409091205490925060ff1615610c4b576040805160e560020a62461bcd02815260206004820152601860248201527f4469766964656e6420616c726561647920636c61696d65640000000000000000604482015290519081900360640190fd5b336000908152600b8301602052604090205460ff1615610cdb576040805160e560020a62461bcd02815260206004820152602160248201527f6d73672e73656e646572206578636c756465642066726f6d204469766964656e60448201527f6400000000000000000000000000000000000000000000000000000000000000606482015290519081900360840190fd5b610ce633838561366a565b505050565b600080600060d060020a654d414e41474502600080600160009054906101000a9004600160a060020a0316600160a060020a0316638da5cb5b6040518163ffffffff1660e060020a028152600401602060405180830381600087803b158015610d5357600080fd5b505af1158015610d67573d6000803e3d6000fd5b505050506040513d6020811015610d7d57600080fd5b505160005433600160a060020a039283168114945091161490508180610da05750805b80610e3057506001546040805160e060020a638658b8b9028152336004820152306024820152604481018690529051600160a060020a0390921691638658b8b9916064808201926020929091908290030181600087803b158015610e0357600080fd5b505af1158015610e17573d6000803e3d6000fd5b505050506040513d6020811015610e2d57600080fd5b50515b1515610e74576040805160e560020a62461bcd028152602060048201526017602482015260008051602061406a833981519152604482015290519081900360640190fd5b6004548710610ecd576040805160e560020a62461bcd02815260206004820152601860248201527f496e636f7272656374206469766964656e6420696e6465780000000000000000604482015290519081900360640190fd5b6004805488908110610edb57fe5b90600052602060002090600d02019550610f068660090154876008015461381490919063ffffffff16565b60088701546009880155600154604080517f8da5cb5b0000000000000000000000000000000000000000000000000000000081529051929750600160a060020a0390911691638da5cb5b916004808201926020929091908290030181600087803b158015610f7357600080fd5b505af1158015610f87573d6000803e3d6000fd5b505050506040513d6020811015610f9d57600080fd5b5051604051909450600160a060020a0385169086156108fc029087906000818181858888f19350505050158015610fd8573d6000803e3d6000fd5b5060408051888152602081018790528151600160a060020a038716927fc817826994cc4cf2dd66758f988195f8ad3e29078e2ce7ff40fe66477eff27e8928290030190a250505050505050565b7f434845434b504f494e540000000000000000000000000000000000000000000081565b60076020526000908152604090205481565b60008060008051602061404a833981519152600080600160009054906101000a9004600160a060020a0316600160a060020a0316638da5cb5b6040518163ffffffff1660e060020a028152600401602060405180830381600087803b1580156110c357600080fd5b505af11580156110d7573d6000803e3d6000fd5b505050506040513d60208110156110ed57600080fd5b505160005433600160a060020a0392831681149450911614905081806111105750805b806111a057506001546040805160e060020a638658b8b9028152336004820152306024820152604481018690529051600160a060020a0390921691638658b8b9916064808201926020929091908290030181600087803b15801561117357600080fd5b505af1158015611187573d6000803e3d6000fd5b505050506040513d602081101561119d57600080fd5b50515b15156111e4576040805160e560020a62461bcd028152602060048201526017602482015260008051602061406a833981519152604482015290519081900360640190fd5b6004548790811061122d576040805160e560020a62461bcd028152602060048201526010602482015260008051602061402a833981519152604482015290519081900360640190fd5b600480548290811061123b57fe5b600091825260209091206007600d90920201015460ff16156112a7576040805160e560020a62461bcd02815260206004820152601260248201527f4469766964656e64207265636c61696d65640000000000000000000000000000604482015290519081900360640190fd5b60048054829081106112b557fe5b90600052602060002090600d0201600201544210151515611320576040805160e560020a62461bcd02815260206004820152601b60248201527f4469766964656e64206d6174757269747920696e206675747572650000000000604482015290519081900360640190fd5b600480548290811061132e57fe5b90600052602060002090600d02016003015442101515611398576040805160e560020a62461bcd02815260206004820152601760248201527f4469766964656e642065787069727920696e2070617374000000000000000000604482015290519081900360640190fd5b60048054899081106113a657fe5b90600052602060002090600d02019550600094505b86518510156114745785600a01600088878151811015156113d857fe5b6020908102909101810151600160a060020a031682528101919091526040016000205460ff16158015611442575085600b016000888781518110151561141a57fe5b6020908102909101810151600160a060020a031682528101919091526040016000205460ff16155b1561146957611469878681518110151561145857fe5b90602001906020020151878a61366a565b6001909401936113bb565b5050505050505050565b600080600080600080600480549050881015156114d3576040805160e560020a62461bcd028152602060048201526010602482015260008051602061402a833981519152604482015290519081900360640190fd5b60048054899081106114e157fe5b60009182526020808320600160a060020a038b168452600a600d90930201918201905260409091205490945060ff16806115355750600160a060020a0387166000908152600b8501602052604090205460ff165b156115465760009550859450611656565b6001548454604080517f4ee2cd7e000000000000000000000000000000000000000000000000000000008152600160a060020a038b81166004830152602482019390935290519190921691634ee2cd7e9160448083019260209291908290030181600087803b1580156115b857600080fd5b505af11580156115cc573d6000803e3d6000fd5b505050506040513d60208110156115e257600080fd5b5051600685015460048601549194506116129161160690869063ffffffff61382b16565b9063ffffffff61385416565b600160a060020a03881660009081526006602052604090205490925061164d90670de0b6b3a76400009061160690859063ffffffff61382b16565b90508181955095505b505050509250929050565b60d060020a654d414e4147450281565b606060008082815b6004548310156116bd578560048481548110151561169357fe5b90600052602060002090600d02016000015414156116b2576001909301925b600190920191611679565b836040519080825280602002602001820160405280156116e7578160200160208202803883390190505b50915060009350600090505b60045481101561174d578560048281548110151561170d57fe5b90600052602060002090600d02016000015414156117455780828581518110151561173457fe5b602090810290910101526001909301925b6001016116f3565b50949350505050565b60007f4645455f41444d494e0000000000000000000000000000000000000000000000600080600160009054906101000a9004600160a060020a0316600160a060020a0316638da5cb5b6040518163ffffffff1660e060020a028152600401602060405180830381600087803b1580156117cf57600080fd5b505af11580156117e3573d6000803e3d6000fd5b505050506040513d60208110156117f957600080fd5b505160005433600160a060020a03928316811494509116149050818061181c5750805b806118ac57506001546040805160e060020a638658b8b9028152336004820152306024820152604481018690529051600160a060020a0390921691638658b8b9916064808201926020929091908290030181600087803b15801561187f57600080fd5b505af1158015611893573d6000803e3d6000fd5b505050506040513d60208110156118a957600080fd5b50515b15156118f0576040805160e560020a62461bcd028152602060048201526017602482015260008051602061406a833981519152604482015290519081900360640190fd5b60025460015460008054604080517f8da5cb5b0000000000000000000000000000000000000000000000000000000081529051600160a060020a03958616956323b872dd95811694931692638da5cb5b92600480820193602093909283900390910190829087803b15801561196457600080fd5b505af1158015611978573d6000803e3d6000fd5b505050506040513d602081101561198e57600080fd5b50516040805160e060020a63ffffffff8616028152600160a060020a039384166004820152929091166024830152604482018990525160648083019260209291908290030181600087803b1580156119e557600080fd5b505af11580156119f9573d6000803e3d6000fd5b505050506040513d6020811015611a0f57600080fd5b50511515611a67576040805160e560020a62461bcd02815260206004820152601260248201527f556e61626c6520746f2074616b65206665650000000000000000000000000000604482015290519081900360640190fd5b506001949350505050565b600254600160a060020a031681565b60066020526000908152604090205481565b60008051602061404a83398151915281565b6004805482908110611ab357fe5b60009182526020909120600d9091020180546001820154600283015460038401546004850154600586015460068701546007880154600889015460098a0154600c909a0154989a5096989597949693959294919360ff9091169290918b565b600060d060020a654d414e41474502600080600160009054906101000a9004600160a060020a0316600160a060020a0316638da5cb5b6040518163ffffffff1660e060020a028152600401602060405180830381600087803b158015611b7757600080fd5b505af1158015611b8b573d6000803e3d6000fd5b505050506040513d6020811015611ba157600080fd5b505160005433600160a060020a039283168114945091161490508180611bc45750805b80611c5457506001546040805160e060020a638658b8b9028152336004820152306024820152604481018690529051600160a060020a0390921691638658b8b9916064808201926020929091908290030181600087803b158015611c2757600080fd5b505af1158015611c3b573d6000803e3d6000fd5b505050506040513d6020811015611c5157600080fd5b50515b1515611c98576040805160e560020a62461bcd028152602060048201526017602482015260008051602061406a833981519152604482015290519081900360640190fd5b8451865114611cf1576040805160e560020a62461bcd02815260206004820152601860248201527f4d69736d61746368656420696e707574206c656e677468730000000000000000604482015290519081900360640190fd5b7f8e6f19b496a634d6fb5faea10ece2675995b6f7a0946a7509885eb76889e1213868642604051808060200180602001848152602001838103835286818151815260200191508051906020019060200280838360005b83811015611d5f578181015183820152602001611d47565b50505050905001838103825285818151815260200191508051906020019060200280838360005b83811015611d9e578181015183820152602001611d86565b505050509050019550505050505060405180910390a1600093505b85518410156109f757670de0b6b3a76400008585815181101515611dd957fe5b602090810290910101511115611e39576040805160e560020a62461bcd02815260206004820152601960248201527f496e636f72726563742077697468686f6c64696e672074617800000000000000604482015290519081900360640190fd5b8484815181101515611e4757fe5b90602001906020020151600660008887815181101515611e6357fe5b6020908102909101810151600160a060020a0316825281019190915260400160002055600190930192611db9565b600080600060d060020a654d414e41474502600080600160009054906101000a9004600160a060020a0316600160a060020a0316638da5cb5b6040518163ffffffff1660e060020a028152600401602060405180830381600087803b158015611ef957600080fd5b505af1158015611f0d573d6000803e3d6000fd5b505050506040513d6020811015611f2357600080fd5b505160005433600160a060020a039283168114945091161490508180611f465750805b80611fd657506001546040805160e060020a638658b8b9028152336004820152306024820152604481018690529051600160a060020a0390921691638658b8b9916064808201926020929091908290030181600087803b158015611fa957600080fd5b505af1158015611fbd573d6000803e3d6000fd5b505050506040513d6020811015611fd357600080fd5b50515b151561201a576040805160e560020a62461bcd028152602060048201526017602482015260008051602061406a833981519152604482015290519081900360640190fd5b6004548710612073576040805160e560020a62461bcd02815260206004820152601860248201527f496e636f7272656374206469766964656e6420696e6465780000000000000000604482015290519081900360640190fd5b600480548890811061208157fe5b90600052602060002090600d02016003015442101515156120ec576040805160e560020a62461bcd02815260206004820181905260248201527f4469766964656e642065787069727920697320696e2074686520667574757265604482015290519081900360640190fd5b60048054889081106120fa57fe5b600091825260209091206007600d90920201015460ff1615612166576040805160e560020a62461bcd02815260206004820152601b60248201527f4469766964656e6420697320616c726561647920636c61696d65640000000000604482015290519081900360640190fd5b600480548890811061217457fe5b600091825260209091206007600d90920201908101805460ff19166001179055600581015460048201549197506121b1919063ffffffff61381416565b9450600160009054906101000a9004600160a060020a0316600160a060020a0316638da5cb5b6040518163ffffffff1660e060020a028152600401602060405180830381600087803b15801561220657600080fd5b505af115801561221a573d6000803e3d6000fd5b505050506040513d602081101561223057600080fd5b5051604051909450600160a060020a0385169086156108fc029087906000818181858888f1935050505015801561226b573d6000803e3d6000fd5b5060408051888152602081018790528151600160a060020a038716927fcd202b969101d293ad6e4c4053b46f2bf4698ca22abcb130dc24fa3baca0dee1928290030190a250505050505050565b600154600160a060020a031681565b60d060020a654d414e41474502600080600160009054906101000a9004600160a060020a0316600160a060020a0316638da5cb5b6040518163ffffffff1660e060020a028152600401602060405180830381600087803b15801561232a57600080fd5b505af115801561233e573d6000803e3d6000fd5b505050506040513d602081101561235457600080fd5b505160005433600160a060020a0392831681149450911614905081806123775750805b8061240757506001546040805160e060020a638658b8b9028152336004820152306024820152604481018690529051600160a060020a0390921691638658b8b9916064808201926020929091908290030181600087803b1580156123da57600080fd5b505af11580156123ee573d6000803e3d6000fd5b505050506040513d602081101561240457600080fd5b50515b151561244b576040805160e560020a62461bcd028152602060048201526017602482015260008051602061406a833981519152604482015290519081900360640190fd5b6114748888888888613869565b600580548290811061246657fe5b600091825260209091200154600160a060020a0316905081565b60408051600280825260608083018452928392919060208301908038833901905050905060008051602061404a8339815191528160008151811015156124c257fe5b60209081029091010152805160d060020a654d414e4147450290829060019081106124e957fe5b602090810290910101529050805b5090565b600054600160a060020a031681565b60008060d060020a654d414e41474502600080600160009054906101000a9004600160a060020a0316600160a060020a0316638da5cb5b6040518163ffffffff1660e060020a028152600401602060405180830381600087803b15801561257057600080fd5b505af1158015612584573d6000803e3d6000fd5b505050506040513d602081101561259a57600080fd5b505160005433600160a060020a0392831681149450911614905081806125bd5750805b8061264d57506001546040805160e060020a638658b8b9028152336004820152306024820152604481018690529051600160a060020a0390921691638658b8b9916064808201926020929091908290030181600087803b15801561262057600080fd5b505af1158015612634573d6000803e3d6000fd5b505050506040513d602081101561264a57600080fd5b50515b1515612691576040805160e560020a62461bcd028152602060048201526017602482015260008051602061406a833981519152604482015290519081900360640190fd5b600354865111156126ec576040805160e560020a62461bcd02815260206004820152601b60248201527f546f6f206d616e79206578636c75646564206164647265737365730000000000604482015290519081900360640190fd5b600094505b855185101561283257855160009087908790811061270b57fe5b60209081029091010151600160a060020a03161415612774576040805160e560020a62461bcd02815260206004820152600f60248201527f496e76616c696420616464726573730000000000000000000000000000000000604482015290519081900360640190fd5b8460010193505b855184101561282757858481518110151561279257fe5b90602001906020020151600160a060020a031686868151811015156127b357fe5b60209081029091010151600160a060020a0316141561281c576040805160e560020a62461bcd02815260206004820152601960248201527f4475706c6963617465206578636c756465206164647265737300000000000000604482015290519081900360640190fd5b60019093019261277b565b6001909401936126f1565b8551612845906005906020890190613f90565b507f6f7d61057c8835d8bd9272c926f638242a70f6441466ae91cd272872ed84151f600542604051808060200183815260200182810382528481815481526020019150805480156128bf57602002820191906000526020600020905b8154600160a060020a031681526001909101906020018083116128a1575b5050935050505060405180910390a1505050505050565b7f4645455f41444d494e000000000000000000000000000000000000000000000081565b60d060020a654d414e41474502600080600160009054906101000a9004600160a060020a0316600160a060020a0316638da5cb5b6040518163ffffffff1660e060020a028152600401602060405180830381600087803b15801561295d57600080fd5b505af1158015612971573d6000803e3d6000fd5b505050506040513d602081101561298757600080fd5b505160005433600160a060020a0392831681149450911614905081806129aa5750805b80612a3a57506001546040805160e060020a638658b8b9028152336004820152306024820152604481018690529051600160a060020a0390921691638658b8b9916064808201926020929091908290030181600087803b158015612a0d57600080fd5b505af1158015612a21573d6000803e3d6000fd5b505050506040513d6020811015612a3757600080fd5b50515b1515612a7e576040805160e560020a62461bcd028152602060048201526017602482015260008051602061406a833981519152604482015290519081900360640190fd5b612ae58787876005805480602002602001604051908101604052809291908181526020018280548015612ada57602002820191906000526020600020905b8154600160a060020a03168152600190910190602001808311612abc575b505050505088613869565b50505050505050565b60006060600080600060008051602061404a833981519152600080600160009054906101000a9004600160a060020a0316600160a060020a0316638da5cb5b6040518163ffffffff1660e060020a028152600401602060405180830381600087803b158015612b5c57600080fd5b505af1158015612b70573d6000803e3d6000fd5b505050506040513d6020811015612b8657600080fd5b505160005433600160a060020a039283168114945091161490508180612ba95750805b80612c3957506001546040805160e060020a638658b8b9028152336004820152306024820152604481018690529051600160a060020a0390921691638658b8b9916064808201926020929091908290030181600087803b158015612c0c57600080fd5b505af1158015612c20573d6000803e3d6000fd5b505050506040513d6020811015612c3657600080fd5b50515b1515612c7d576040805160e560020a62461bcd028152602060048201526017602482015260008051602061406a833981519152604482015290519081900360640190fd5b6004548b908110612cc6576040805160e560020a62461bcd028152602060048201526010602482015260008051602061402a833981519152604482015290519081900360640190fd5b6004805482908110612cd457fe5b600091825260209091206007600d90920201015460ff1615612d40576040805160e560020a62461bcd02815260206004820152601260248201527f4469766964656e64207265636c61696d65640000000000000000000000000000604482015290519081900360640190fd5b6004805482908110612d4e57fe5b90600052602060002090600d0201600201544210151515612db9576040805160e560020a62461bcd02815260206004820152601b60248201527f4469766964656e64206d6174757269747920696e206675747572650000000000604482015290519081900360640190fd5b6004805482908110612dc757fe5b90600052602060002090600d02016003015442101515612e31576040805160e560020a62461bcd02815260206004820152601760248201527f4469766964656e642065787069727920696e2070617374000000000000000000604482015290519081900360640190fd5b600480548d908110612e3f57fe5b600091825260208220600154604080517fb2f5a54c0000000000000000000000000000000000000000000000000000000081529051600d9094029092019c50600160a060020a03169263b2f5a54c9260048084019382900301818387803b158015612ea957600080fd5b505af1158015612ebd573d6000803e3d6000fd5b505050506040513d6000823e601f3d908101601f191682016040526020811015612ee657600080fd5b810190808051640100000000811115612efe57600080fd5b82016020810184811115612f1157600080fd5b8151856020820283011164010000000082111715612f2e57600080fd5b50508051909b50612f5393509150612f4e90508d8d63ffffffff613f6b16565b613f78565b96508a95505b86861015612fdf578786815181101515612f6f57fe5b6020908102909101810151600160a060020a0381166000908152600a8c0190925260409091205490955060ff16158015612fc45750600160a060020a0385166000908152600b8a01602052604090205460ff16155b15612fd457612fd4858a8e61366a565b600190950194612f59565b505050505050505050505050565b6060600580548060200260200160405190810160405280929190818152602001828054801561304557602002820191906000526020600020905b8154600160a060020a03168152600190910190602001808311613027575b5050505050905090565b60d060020a654d414e41474502600080600160009054906101000a9004600160a060020a0316600160a060020a0316638da5cb5b6040518163ffffffff1660e060020a028152600401602060405180830381600087803b1580156130b257600080fd5b505af11580156130c6573d6000803e3d6000fd5b505050506040513d60208110156130dc57600080fd5b505160005433600160a060020a0392831681149450911614905081806130ff5750805b8061318f57506001546040805160e060020a638658b8b9028152336004820152306024820152604481018690529051600160a060020a0390921691638658b8b9916064808201926020929091908290030181600087803b15801561316257600080fd5b505af1158015613176573d6000803e3d6000fd5b505050506040513d602081101561318c57600080fd5b50515b15156131d3576040805160e560020a62461bcd028152602060048201526017602482015260008051602061406a833981519152604482015290519081900360640190fd5b6109f78686600580548060200260200160405190810160405280929190818152602001828054801561322e57602002820191906000526020600020905b8154600160a060020a03168152600190910190602001808311613210575b5050505050875b600060d060020a654d414e41474502600080600160009054906101000a9004600160a060020a0316600160a060020a0316638da5cb5b6040518163ffffffff1660e060020a028152600401602060405180830381600087803b15801561329a57600080fd5b505af11580156132ae573d6000803e3d6000fd5b505050506040513d60208110156132c457600080fd5b505160005433600160a060020a0392831681149450911614905081806132e75750805b8061337757506001546040805160e060020a638658b8b9028152336004820152306024820152604481018690529051600160a060020a0390921691638658b8b9916064808201926020929091908290030181600087803b15801561334a57600080fd5b505af115801561335e573d6000803e3d6000fd5b505050506040513d602081101561337457600080fd5b50515b15156133bb576040805160e560020a62461bcd028152602060048201526017602482015260008051602061406a833981519152604482015290519081900360640190fd5b600160009054906101000a9004600160a060020a0316600160a060020a031663ff0b9c906040518163ffffffff1660e060020a028152600401602060405180830381600087803b15801561340e57600080fd5b505af1158015613422573d6000803e3d6000fd5b505050506040513d602081101561343857600080fd5b505193506114748888868989613869565b60007f434845434b504f494e5400000000000000000000000000000000000000000000600080600160009054906101000a9004600160a060020a0316600160a060020a0316638da5cb5b6040518163ffffffff1660e060020a028152600401602060405180830381600087803b1580156134c257600080fd5b505af11580156134d6573d6000803e3d6000fd5b505050506040513d60208110156134ec57600080fd5b505160005433600160a060020a03928316811494509116149050818061350f5750805b8061359f57506001546040805160e060020a638658b8b9028152336004820152306024820152604481018690529051600160a060020a0390921691638658b8b9916064808201926020929091908290030181600087803b15801561357257600080fd5b505af1158015613586573d6000803e3d6000fd5b505050506040513d602081101561359c57600080fd5b50515b15156135e3576040805160e560020a62461bcd028152602060048201526017602482015260008051602061406a833981519152604482015290519081900360640190fd5b600160009054906101000a9004600160a060020a0316600160a060020a031663ff0b9c906040518163ffffffff1660e060020a028152600401602060405180830381600087803b15801561363657600080fd5b505af115801561364a573d6000803e3d6000fd5b505050506040513d602081101561366057600080fd5b5051935050505090565b6000806000613679848761147e565b600160a060020a0388166000908152600a880160205260409020805460ff1916600117905590935091506136b3838363ffffffff61381416565b905060008111156109f757604051600160a060020a0387169082156108fc029083906000818181858888f19350505050156137a95760058501546136fd908463ffffffff613f6b16565b60058601556008850154613717908363ffffffff613f6b16565b6008860155600160a060020a038616600090815260076020526040902054613745908363ffffffff613f6b16565b600160a060020a0387166000818152600760209081526040918290209390935580518781529283018690528281018590525190917f0cfb57b295d2603fbb329fdc2d35326148368bf26a74cbb525cdf3a71ff5cc3d919081900360600190a26109f7565b600160a060020a0386166000818152600a87016020908152604091829020805460ff19169055815187815290810186905280820185905290517fd252e7e7f5d6262d6dd8f80698d23f219cd7847a22b97c199a5984440f3c27159181900360600190a2505050505050565b60008282111561382057fe5b508082035b92915050565b600082151561383c57506000613825565b5081810281838281151561384c57fe5b041461382557fe5b6000818381151561386157fe5b049392505050565b6000806000806003548651111515156138cc576040805160e560020a62461bcd02815260206004820152601b60248201527f546f6f206d616e7920616464726573736573206578636c756465640000000000604482015290519081900360640190fd5b888811613923576040805160e560020a62461bcd02815260206004820152601960248201527f457870697279206973206265666f7265206d6174757269747900000000000000604482015290519081900360640190fd5b42881161397a576040805160e560020a62461bcd02815260206004820152601560248201527f45787069727920697320696e2074686520706173740000000000000000000000604482015290519081900360640190fd5b600034116139d2576040805160e560020a62461bcd02815260206004820152601060248201527f4e6f206469766964656e642073656e7400000000000000000000000000000000604482015290519081900360640190fd5b600160009054906101000a9004600160a060020a0316600160a060020a0316635488cc806040518163ffffffff1660e060020a028152600401602060405180830381600087803b158015613a2557600080fd5b505af1158015613a39573d6000803e3d6000fd5b505050506040513d6020811015613a4f57600080fd5b5051871115613a5d57600080fd5b7fff000000000000000000000000000000000000000000000000000000000000007f0100000000000000000000000000000000000000000000000000000000000000600087901a02161515613ab157600080fd5b60048054600154604080517f981b24d00000000000000000000000000000000000000000000000000000000081529384018b905251919650600160a060020a03169163981b24d09160248083019260209291908290030181600087803b158015613b1a57600080fd5b505af1158015613b2e573d6000803e3d6000fd5b505050506040513d6020811015613b4457600080fd5b81019080805190602001909291905050509250600091506004610160604051908101604052808981526020014281526020018b81526020018a81526020013481526020016000815260200160008152602001600015158152602001600081526020016000815260200187600019168152509080600181540180825580915050906001820390600052602060002090600d020160009091929091909150600082015181600001556020820151816001015560408201518160020155606082015181600301556080820151816004015560a0820151816005015560c0820151816006015560e08201518160070160006101000a81548160ff0219169083151502179055506101008201518160080155610120820151816009015561014082015181600c0190600019169055505050600090505b8551811015613ecb578551600090879083908110613c8f57fe5b60209081029091010151600160a060020a03161415613cf8576040805160e560020a62461bcd02815260206004820152600f60248201527f496e76616c696420616464726573730000000000000000000000000000000000604482015290519081900360640190fd5b6004805485908110613d0657fe5b90600052602060002090600d0201600b0160008783815181101515613d2757fe5b6020908102909101810151600160a060020a031682528101919091526040016000205460ff1615613da2576040805160e560020a62461bcd02815260206004820152601560248201527f6475706564206578636c75646520616464726573730000000000000000000000604482015290519081900360640190fd5b6001548651613e5d91600160a060020a031690634ee2cd7e90899085908110613dc757fe5b906020019060200201518a6040518363ffffffff1660e060020a0281526004018083600160a060020a0316600160a060020a0316815260200182815260200192505050602060405180830381600087803b158015613e2457600080fd5b505af1158015613e38573d6000803e3d6000fd5b505050506040513d6020811015613e4e57600080fd5b5051839063ffffffff613f6b16565b91506001600485815481101515613e7057fe5b90600052602060002090600d0201600b0160008884815181101515613e9157fe5b602090810291909101810151600160a060020a03168252810191909152604001600020805460ff1916911515919091179055600101613c75565b613edb838363ffffffff61381416565b6004805486908110613ee957fe5b60009182526020918290206006600d9092020101919091556040805189815242928101929092528181018b9052606082018a905234608083015260a0820185905260c0820186905251869133917f260420e15e8a0c1993b733e83ae8e5acf5f856d2e044769b63fb8126edf272859181900360e00190a3505050505050505050565b8181018281101561382557fe5b6000818310613f875781613f89565b825b9392505050565b828054828255906000526020600020908101928215613ff2579160200282015b82811115613ff2578251825473ffffffffffffffffffffffffffffffffffffffff1916600160a060020a03909116178255602090920191600190910190613fb0565b506124f792610a089250905b808211156124f757805473ffffffffffffffffffffffffffffffffffffffff19168155600101613ffe5600496e76616c6964206469766964656e640000000000000000000000000000000044495354524942555445000000000000000000000000000000000000000000005065726d697373696f6e20636865636b206661696c6564000000000000000000a165627a7a7230582023025d0962966dec5686e62769fb1ae8d2bd74e644476938d62b961d263858800029",
  "source": "pragma solidity ^0.4.24;\r\n\r\nimport \"./DividendCheckpoint.sol\";\r\nimport \"../../interfaces/IOwnable.sol\";\r\n\r\n/**\r\n * @title Checkpoint module for issuing ether dividends\r\n */\r\ncontract EtherDividendCheckpoint is DividendCheckpoint {\r\n    using SafeMath for uint256;\r\n    event EtherDividendDeposited(\r\n        address indexed _depositor,\r\n        uint256 _checkpointId,\r\n        uint256 _created,\r\n        uint256 _maturity,\r\n        uint256 _expiry,\r\n        uint256 _amount,\r\n        uint256 _totalSupply,\r\n        uint256 _dividendIndex,\r\n        bytes32 indexed _name\r\n    );\r\n    event EtherDividendClaimed(address indexed _payee, uint256 _dividendIndex, uint256 _amount, uint256 _withheld);\r\n    event EtherDividendReclaimed(address indexed _claimer, uint256 _dividendIndex, uint256 _claimedAmount);\r\n    event EtherDividendClaimFailed(address indexed _payee, uint256 _dividendIndex, uint256 _amount, uint256 _withheld);\r\n    event EtherDividendWithholdingWithdrawn(address indexed _claimer, uint256 _dividendIndex, uint256 _withheldAmount);\r\n\r\n    /**\r\n     * @notice Constructor\r\n     * @param _securityToken Address of the security token\r\n     * @param _polyAddress Address of the polytoken\r\n     */\r\n    constructor (address _securityToken, address _polyAddress) public\r\n    Module(_securityToken, _polyAddress)\r\n    {\r\n    }\r\n\r\n    /**\r\n     * @notice Creates a dividend and checkpoint for the dividend, using global list of excluded addresses\r\n     * @param _maturity Time from which dividend can be paid\r\n     * @param _expiry Time until dividend can no longer be paid, and can be reclaimed by issuer\r\n     * @param _name Name/title for identification\r\n     */\r\n    function createDividend(uint256 _maturity, uint256 _expiry, bytes32 _name) external payable withPerm(MANAGE) {\r\n        createDividendWithExclusions(_maturity, _expiry, excluded, _name);\r\n    }\r\n\r\n    /**\r\n     * @notice Creates a dividend with a provided checkpoint, using global list of excluded addresses\r\n     * @param _maturity Time from which dividend can be paid\r\n     * @param _expiry Time until dividend can no longer be paid, and can be reclaimed by issuer\r\n     * @param _checkpointId Id of the checkpoint from which to issue dividend\r\n     * @param _name Name/title for identification\r\n     */\r\n    function createDividendWithCheckpoint(\r\n        uint256 _maturity,\r\n        uint256 _expiry,\r\n        uint256 _checkpointId,\r\n        bytes32 _name\r\n    ) \r\n        external\r\n        payable\r\n        withPerm(MANAGE)\r\n    {\r\n        _createDividendWithCheckpointAndExclusions(_maturity, _expiry, _checkpointId, excluded, _name);\r\n    }\r\n\r\n    /**\r\n     * @notice Creates a dividend and checkpoint for the dividend, specifying explicit excluded addresses\r\n     * @param _maturity Time from which dividend can be paid\r\n     * @param _expiry Time until dividend can no longer be paid, and can be reclaimed by issuer\r\n     * @param _excluded List of addresses to exclude\r\n     * @param _name Name/title for identification\r\n     */\r\n    function createDividendWithExclusions(\r\n        uint256 _maturity,\r\n        uint256 _expiry,\r\n        address[] _excluded,\r\n        bytes32 _name\r\n    ) \r\n        public\r\n        payable\r\n        withPerm(MANAGE)\r\n    {\r\n        uint256 checkpointId = ISecurityToken(securityToken).createCheckpoint();\r\n        _createDividendWithCheckpointAndExclusions(_maturity, _expiry, checkpointId, _excluded, _name);\r\n    }\r\n\r\n    /**\r\n     * @notice Creates a dividend with a provided checkpoint, specifying explicit excluded addresses\r\n     * @param _maturity Time from which dividend can be paid\r\n     * @param _expiry Time until dividend can no longer be paid, and can be reclaimed by issuer\r\n     * @param _checkpointId Id of the checkpoint from which to issue dividend\r\n     * @param _excluded List of addresses to exclude\r\n     * @param _name Name/title for identification\r\n     */\r\n    function createDividendWithCheckpointAndExclusions(\r\n        uint256 _maturity, \r\n        uint256 _expiry, \r\n        uint256 _checkpointId, \r\n        address[] _excluded, \r\n        bytes32 _name\r\n    )\r\n        public\r\n        payable\r\n        withPerm(MANAGE)\r\n    {\r\n        _createDividendWithCheckpointAndExclusions(_maturity, _expiry, _checkpointId, _excluded, _name);\r\n    }\r\n\r\n    /**\r\n     * @notice Creates a dividend with a provided checkpoint, specifying explicit excluded addresses\r\n     * @param _maturity Time from which dividend can be paid\r\n     * @param _expiry Time until dividend can no longer be paid, and can be reclaimed by issuer\r\n     * @param _checkpointId Id of the checkpoint from which to issue dividend\r\n     * @param _excluded List of addresses to exclude\r\n     * @param _name Name/title for identification\r\n     */\r\n    function _createDividendWithCheckpointAndExclusions(\r\n        uint256 _maturity, \r\n        uint256 _expiry, \r\n        uint256 _checkpointId, \r\n        address[] _excluded, \r\n        bytes32 _name\r\n    ) \r\n        internal\r\n    {\r\n        require(_excluded.length <= EXCLUDED_ADDRESS_LIMIT, \"Too many addresses excluded\");\r\n        require(_expiry > _maturity, \"Expiry is before maturity\");\r\n        /*solium-disable-next-line security/no-block-members*/\r\n        require(_expiry > now, \"Expiry is in the past\");\r\n        require(msg.value > 0, \"No dividend sent\");\r\n        require(_checkpointId <= ISecurityToken(securityToken).currentCheckpointId());\r\n        require(_name[0] != 0);\r\n        uint256 dividendIndex = dividends.length;\r\n        uint256 currentSupply = ISecurityToken(securityToken).totalSupplyAt(_checkpointId);\r\n        uint256 excludedSupply = 0;\r\n        dividends.push(\r\n          Dividend(\r\n            _checkpointId,\r\n            now, /*solium-disable-line security/no-block-members*/\r\n            _maturity,\r\n            _expiry,\r\n            msg.value,\r\n            0,\r\n            0,\r\n            false,\r\n            0,\r\n            0,\r\n            _name\r\n          )\r\n        );\r\n\r\n        for (uint256 j = 0; j < _excluded.length; j++) {\r\n            require (_excluded[j] != address(0), \"Invalid address\");\r\n            require(!dividends[dividendIndex].dividendExcluded[_excluded[j]], \"duped exclude address\");\r\n            excludedSupply = excludedSupply.add(ISecurityToken(securityToken).balanceOfAt(_excluded[j], _checkpointId));\r\n            dividends[dividendIndex].dividendExcluded[_excluded[j]] = true;\r\n        }\r\n        dividends[dividendIndex].totalSupply = currentSupply.sub(excludedSupply);\r\n        /*solium-disable-next-line security/no-block-members*/\r\n        emit EtherDividendDeposited(msg.sender, _checkpointId, now, _maturity, _expiry, msg.value, currentSupply, dividendIndex, _name);\r\n    }\r\n\r\n    /**\r\n     * @notice Internal function for paying dividends\r\n     * @param _payee address of investor\r\n     * @param _dividend storage with previously issued dividends\r\n     * @param _dividendIndex Dividend to pay\r\n     */\r\n    function _payDividend(address _payee, Dividend storage _dividend, uint256 _dividendIndex) internal {\r\n        (uint256 claim, uint256 withheld) = calculateDividend(_dividendIndex, _payee);\r\n        _dividend.claimed[_payee] = true;      \r\n        uint256 claimAfterWithheld = claim.sub(withheld);\r\n        if (claimAfterWithheld > 0) {\r\n            /*solium-disable-next-line security/no-send*/\r\n            if (_payee.send(claimAfterWithheld)) {\r\n                _dividend.claimedAmount = _dividend.claimedAmount.add(claim);\r\n                _dividend.dividendWithheld = _dividend.dividendWithheld.add(withheld);\r\n                investorWithheld[_payee] = investorWithheld[_payee].add(withheld);\r\n                emit EtherDividendClaimed(_payee, _dividendIndex, claim, withheld);\r\n            } else {\r\n                _dividend.claimed[_payee] = false;\r\n                emit EtherDividendClaimFailed(_payee, _dividendIndex, claim, withheld);\r\n            }\r\n        }\r\n    }\r\n\r\n    /**\r\n     * @notice Issuer can reclaim remaining unclaimed dividend amounts, for expired dividends\r\n     * @param _dividendIndex Dividend to reclaim\r\n     */\r\n    function reclaimDividend(uint256 _dividendIndex) external withPerm(MANAGE) {\r\n        require(_dividendIndex < dividends.length, \"Incorrect dividend index\");\r\n        /*solium-disable-next-line security/no-block-members*/\r\n        require(now >= dividends[_dividendIndex].expiry, \"Dividend expiry is in the future\");\r\n        require(!dividends[_dividendIndex].reclaimed, \"Dividend is already claimed\");\r\n        Dividend storage dividend = dividends[_dividendIndex];\r\n        dividend.reclaimed = true;\r\n        uint256 remainingAmount = dividend.amount.sub(dividend.claimedAmount);\r\n        address owner = IOwnable(securityToken).owner();\r\n        owner.transfer(remainingAmount);\r\n        emit EtherDividendReclaimed(owner, _dividendIndex, remainingAmount);\r\n    }\r\n\r\n    /**\r\n     * @notice Allows issuer to withdraw withheld tax\r\n     * @param _dividendIndex Dividend to withdraw from\r\n     */\r\n    function withdrawWithholding(uint256 _dividendIndex) external withPerm(MANAGE) {\r\n        require(_dividendIndex < dividends.length, \"Incorrect dividend index\");\r\n        Dividend storage dividend = dividends[_dividendIndex];\r\n        uint256 remainingWithheld = dividend.dividendWithheld.sub(dividend.dividendWithheldReclaimed);\r\n        dividend.dividendWithheldReclaimed = dividend.dividendWithheld;\r\n        address owner = IOwnable(securityToken).owner();\r\n        owner.transfer(remainingWithheld);\r\n        emit EtherDividendWithholdingWithdrawn(owner, _dividendIndex, remainingWithheld);\r\n    }\r\n\r\n}\r\n",
  "sourcePath": "/Users/jere/Code/polymath-apps/packages/new-polymath-scripts/src/generateLocalBlockchain/contracts/modules/Checkpoint/EtherDividendCheckpoint.sol",
  "compiler": {
    "name": "solc",
    "version": "0.4.24+commit.e67f0147.Emscripten.clang"
  },
  "schemaVersion": "2.0.1",
  "updatedAt": "2018-12-10T19:10:22.988Z"
}