{
  "contractName": "EtherDividendCheckpoint",
  "abi": [
    {
      "constant": false,
      "inputs": [
        {
          "name": "_investors",
          "type": "address[]"
        },
        {
          "name": "_withholding",
          "type": "uint256"
        }
      ],
      "name": "setWithholdingFixed",
      "outputs": [],
      "payable": false,
      "stateMutability": "nonpayable",
      "type": "function"
    },
    {
      "constant": true,
      "inputs": [],
      "name": "EXCLUDED_ADDRESS_LIMIT",
      "outputs": [
        {
          "name": "",
          "type": "uint256"
        }
      ],
      "payable": false,
      "stateMutability": "view",
      "type": "function"
    },
    {
      "constant": true,
      "inputs": [],
      "name": "getInitFunction",
      "outputs": [
        {
          "name": "",
          "type": "bytes4"
        }
      ],
      "payable": false,
      "stateMutability": "pure",
      "type": "function"
    },
    {
      "constant": true,
      "inputs": [
        {
          "name": "_dividendIndex",
          "type": "uint256"
        }
      ],
      "name": "getDividendData",
      "outputs": [
        {
          "name": "created",
          "type": "uint256"
        },
        {
          "name": "maturity",
          "type": "uint256"
        },
        {
          "name": "expiry",
          "type": "uint256"
        },
        {
          "name": "amount",
          "type": "uint256"
        },
        {
          "name": "claimedAmount",
          "type": "uint256"
        },
        {
          "name": "name",
          "type": "bytes32"
        }
      ],
      "payable": false,
      "stateMutability": "view",
      "type": "function"
    },
    {
      "constant": false,
      "inputs": [
        {
          "name": "_dividendIndex",
          "type": "uint256"
        }
      ],
      "name": "pullDividendPayment",
      "outputs": [],
      "payable": false,
      "stateMutability": "nonpayable",
      "type": "function"
    },
    {
      "constant": true,
      "inputs": [],
      "name": "CHECKPOINT",
      "outputs": [
        {
          "name": "",
          "type": "bytes32"
        }
      ],
      "payable": false,
      "stateMutability": "view",
      "type": "function"
    },
    {
      "constant": false,
      "inputs": [
        {
          "name": "_dividendIndex",
          "type": "uint256"
        },
        {
          "name": "_payees",
          "type": "address[]"
        }
      ],
      "name": "pushDividendPaymentToAddresses",
      "outputs": [],
      "payable": false,
      "stateMutability": "nonpayable",
      "type": "function"
    },
    {
      "constant": true,
      "inputs": [],
      "name": "wallet",
      "outputs": [
        {
          "name": "",
          "type": "address"
        }
      ],
      "payable": false,
      "stateMutability": "view",
      "type": "function"
    },
    {
      "constant": true,
      "inputs": [
        {
          "name": "_investor",
          "type": "address"
        },
        {
          "name": "_dividendIndex",
          "type": "uint256"
        }
      ],
      "name": "isClaimed",
      "outputs": [
        {
          "name": "",
          "type": "bool"
        }
      ],
      "payable": false,
      "stateMutability": "view",
      "type": "function"
    },
    {
      "constant": true,
      "inputs": [
        {
          "name": "_dividendIndex",
          "type": "uint256"
        },
        {
          "name": "_payee",
          "type": "address"
        }
      ],
      "name": "calculateDividend",
      "outputs": [
        {
          "name": "",
          "type": "uint256"
        },
        {
          "name": "",
          "type": "uint256"
        }
      ],
      "payable": false,
      "stateMutability": "view",
      "type": "function"
    },
    {
      "constant": true,
      "inputs": [],
      "name": "MANAGE",
      "outputs": [
        {
          "name": "",
          "type": "bytes32"
        }
      ],
      "payable": false,
      "stateMutability": "view",
      "type": "function"
    },
    {
      "constant": true,
      "inputs": [
        {
          "name": "_checkpointId",
          "type": "uint256"
        }
      ],
      "name": "getDividendIndex",
      "outputs": [
        {
          "name": "",
          "type": "uint256[]"
        }
      ],
      "payable": false,
      "stateMutability": "view",
      "type": "function"
    },
    {
      "constant": false,
      "inputs": [
        {
          "name": "_amount",
          "type": "uint256"
        }
      ],
      "name": "takeFee",
      "outputs": [
        {
          "name": "",
          "type": "bool"
        }
      ],
      "payable": false,
      "stateMutability": "nonpayable",
      "type": "function"
    },
    {
      "constant": true,
      "inputs": [],
      "name": "polyToken",
      "outputs": [
        {
          "name": "",
          "type": "address"
        }
      ],
      "payable": false,
      "stateMutability": "view",
      "type": "function"
    },
    {
      "constant": false,
      "inputs": [
        {
          "name": "_wallet",
          "type": "address"
        }
      ],
      "name": "configure",
      "outputs": [],
      "payable": false,
      "stateMutability": "nonpayable",
      "type": "function"
    },
    {
      "constant": true,
      "inputs": [
        {
          "name": "",
          "type": "address"
        }
      ],
      "name": "withholdingTax",
      "outputs": [
        {
          "name": "",
          "type": "uint256"
        }
      ],
      "payable": false,
      "stateMutability": "view",
      "type": "function"
    },
    {
      "constant": true,
      "inputs": [
        {
          "name": "_checkpointId",
          "type": "uint256"
        }
      ],
      "name": "getCheckpointData",
      "outputs": [
        {
          "name": "investors",
          "type": "address[]"
        },
        {
          "name": "balances",
          "type": "uint256[]"
        },
        {
          "name": "withholdings",
          "type": "uint256[]"
        }
      ],
      "payable": false,
      "stateMutability": "view",
      "type": "function"
    },
    {
      "constant": true,
      "inputs": [],
      "name": "DISTRIBUTE",
      "outputs": [
        {
          "name": "",
          "type": "bytes32"
        }
      ],
      "payable": false,
      "stateMutability": "view",
      "type": "function"
    },
    {
      "constant": true,
      "inputs": [
        {
          "name": "",
          "type": "uint256"
        }
      ],
      "name": "dividends",
      "outputs": [
        {
          "name": "checkpointId",
          "type": "uint256"
        },
        {
          "name": "created",
          "type": "uint256"
        },
        {
          "name": "maturity",
          "type": "uint256"
        },
        {
          "name": "expiry",
          "type": "uint256"
        },
        {
          "name": "amount",
          "type": "uint256"
        },
        {
          "name": "claimedAmount",
          "type": "uint256"
        },
        {
          "name": "totalSupply",
          "type": "uint256"
        },
        {
          "name": "reclaimed",
          "type": "bool"
        },
        {
          "name": "totalWithheld",
          "type": "uint256"
        },
        {
          "name": "totalWithheldWithdrawn",
          "type": "uint256"
        },
        {
          "name": "name",
          "type": "bytes32"
        }
      ],
      "payable": false,
      "stateMutability": "view",
      "type": "function"
    },
    {
      "constant": true,
      "inputs": [
        {
          "name": "_investor",
          "type": "address"
        },
        {
          "name": "_dividendIndex",
          "type": "uint256"
        }
      ],
      "name": "isExcluded",
      "outputs": [
        {
          "name": "",
          "type": "bool"
        }
      ],
      "payable": false,
      "stateMutability": "view",
      "type": "function"
    },
    {
      "constant": false,
      "inputs": [
        {
          "name": "_investors",
          "type": "address[]"
        },
        {
          "name": "_withholding",
          "type": "uint256[]"
        }
      ],
      "name": "setWithholding",
      "outputs": [],
      "payable": false,
      "stateMutability": "nonpayable",
      "type": "function"
    },
    {
      "constant": false,
      "inputs": [
        {
          "name": "_wallet",
          "type": "address"
        }
      ],
      "name": "changeWallet",
      "outputs": [],
      "payable": false,
      "stateMutability": "nonpayable",
      "type": "function"
    },
    {
      "constant": true,
      "inputs": [],
      "name": "getDividendsData",
      "outputs": [
        {
          "name": "createds",
          "type": "uint256[]"
        },
        {
          "name": "maturitys",
          "type": "uint256[]"
        },
        {
          "name": "expirys",
          "type": "uint256[]"
        },
        {
          "name": "amounts",
          "type": "uint256[]"
        },
        {
          "name": "claimedAmounts",
          "type": "uint256[]"
        },
        {
          "name": "names",
          "type": "bytes32[]"
        }
      ],
      "payable": false,
      "stateMutability": "view",
      "type": "function"
    },
    {
      "constant": true,
      "inputs": [],
      "name": "securityToken",
      "outputs": [
        {
          "name": "",
          "type": "address"
        }
      ],
      "payable": false,
      "stateMutability": "view",
      "type": "function"
    },
    {
      "constant": true,
      "inputs": [
        {
          "name": "",
          "type": "uint256"
        }
      ],
      "name": "excluded",
      "outputs": [
        {
          "name": "",
          "type": "address"
        }
      ],
      "payable": false,
      "stateMutability": "view",
      "type": "function"
    },
    {
      "constant": true,
      "inputs": [],
      "name": "getPermissions",
      "outputs": [
        {
          "name": "",
          "type": "bytes32[]"
        }
      ],
      "payable": false,
      "stateMutability": "view",
      "type": "function"
    },
    {
      "constant": true,
      "inputs": [],
      "name": "factory",
      "outputs": [
        {
          "name": "",
          "type": "address"
        }
      ],
      "payable": false,
      "stateMutability": "view",
      "type": "function"
    },
    {
      "constant": false,
      "inputs": [
        {
          "name": "_excluded",
          "type": "address[]"
        }
      ],
      "name": "setDefaultExcluded",
      "outputs": [],
      "payable": false,
      "stateMutability": "nonpayable",
      "type": "function"
    },
    {
      "constant": true,
      "inputs": [],
      "name": "FEE_ADMIN",
      "outputs": [
        {
          "name": "",
          "type": "bytes32"
        }
      ],
      "payable": false,
      "stateMutability": "view",
      "type": "function"
    },
    {
      "constant": false,
      "inputs": [
        {
          "name": "_dividendIndex",
          "type": "uint256"
        },
        {
          "name": "_start",
          "type": "uint256"
        },
        {
          "name": "_iterations",
          "type": "uint256"
        }
      ],
      "name": "pushDividendPayment",
      "outputs": [],
      "payable": false,
      "stateMutability": "nonpayable",
      "type": "function"
    },
    {
      "constant": true,
      "inputs": [],
      "name": "getDefaultExcluded",
      "outputs": [
        {
          "name": "",
          "type": "address[]"
        }
      ],
      "payable": false,
      "stateMutability": "view",
      "type": "function"
    },
    {
      "constant": true,
      "inputs": [
        {
          "name": "_dividendIndex",
          "type": "uint256"
        }
      ],
      "name": "getDividendProgress",
      "outputs": [
        {
          "name": "investors",
          "type": "address[]"
        },
        {
          "name": "resultClaimed",
          "type": "bool[]"
        },
        {
          "name": "resultExcluded",
          "type": "bool[]"
        },
        {
          "name": "resultWithheld",
          "type": "uint256[]"
        },
        {
          "name": "resultAmount",
          "type": "uint256[]"
        },
        {
          "name": "resultBalance",
          "type": "uint256[]"
        }
      ],
      "payable": false,
      "stateMutability": "view",
      "type": "function"
    },
    {
      "constant": false,
      "inputs": [],
      "name": "createCheckpoint",
      "outputs": [
        {
          "name": "",
          "type": "uint256"
        }
      ],
      "payable": false,
      "stateMutability": "nonpayable",
      "type": "function"
    },
    {
      "inputs": [
        {
          "name": "_securityToken",
          "type": "address"
        },
        {
          "name": "_polyAddress",
          "type": "address"
        }
      ],
      "payable": false,
      "stateMutability": "nonpayable",
      "type": "constructor"
    },
    {
      "anonymous": false,
      "inputs": [
        {
          "indexed": true,
          "name": "_depositor",
          "type": "address"
        },
        {
          "indexed": false,
          "name": "_checkpointId",
          "type": "uint256"
        },
        {
          "indexed": false,
          "name": "_created",
          "type": "uint256"
        },
        {
          "indexed": false,
          "name": "_maturity",
          "type": "uint256"
        },
        {
          "indexed": false,
          "name": "_expiry",
          "type": "uint256"
        },
        {
          "indexed": false,
          "name": "_amount",
          "type": "uint256"
        },
        {
          "indexed": false,
          "name": "_totalSupply",
          "type": "uint256"
        },
        {
          "indexed": true,
          "name": "_dividendIndex",
          "type": "uint256"
        },
        {
          "indexed": true,
          "name": "_name",
          "type": "bytes32"
        }
      ],
      "name": "EtherDividendDeposited",
      "type": "event"
    },
    {
      "anonymous": false,
      "inputs": [
        {
          "indexed": true,
          "name": "_payee",
          "type": "address"
        },
        {
          "indexed": true,
          "name": "_dividendIndex",
          "type": "uint256"
        },
        {
          "indexed": false,
          "name": "_amount",
          "type": "uint256"
        },
        {
          "indexed": false,
          "name": "_withheld",
          "type": "uint256"
        }
      ],
      "name": "EtherDividendClaimed",
      "type": "event"
    },
    {
      "anonymous": false,
      "inputs": [
        {
          "indexed": true,
          "name": "_claimer",
          "type": "address"
        },
        {
          "indexed": true,
          "name": "_dividendIndex",
          "type": "uint256"
        },
        {
          "indexed": false,
          "name": "_claimedAmount",
          "type": "uint256"
        }
      ],
      "name": "EtherDividendReclaimed",
      "type": "event"
    },
    {
      "anonymous": false,
      "inputs": [
        {
          "indexed": true,
          "name": "_payee",
          "type": "address"
        },
        {
          "indexed": true,
          "name": "_dividendIndex",
          "type": "uint256"
        },
        {
          "indexed": false,
          "name": "_amount",
          "type": "uint256"
        },
        {
          "indexed": false,
          "name": "_withheld",
          "type": "uint256"
        }
      ],
      "name": "EtherDividendClaimFailed",
      "type": "event"
    },
    {
      "anonymous": false,
      "inputs": [
        {
          "indexed": true,
          "name": "_claimer",
          "type": "address"
        },
        {
          "indexed": true,
          "name": "_dividendIndex",
          "type": "uint256"
        },
        {
          "indexed": false,
          "name": "_withheldAmount",
          "type": "uint256"
        }
      ],
      "name": "EtherDividendWithholdingWithdrawn",
      "type": "event"
    },
    {
      "anonymous": false,
      "inputs": [
        {
          "indexed": false,
          "name": "_excluded",
          "type": "address[]"
        },
        {
          "indexed": false,
          "name": "_timestamp",
          "type": "uint256"
        }
      ],
      "name": "SetDefaultExcludedAddresses",
      "type": "event"
    },
    {
      "anonymous": false,
      "inputs": [
        {
          "indexed": false,
          "name": "_investors",
          "type": "address[]"
        },
        {
          "indexed": false,
          "name": "_withholding",
          "type": "uint256[]"
        },
        {
          "indexed": false,
          "name": "_timestamp",
          "type": "uint256"
        }
      ],
      "name": "SetWithholding",
      "type": "event"
    },
    {
      "anonymous": false,
      "inputs": [
        {
          "indexed": false,
          "name": "_investors",
          "type": "address[]"
        },
        {
          "indexed": false,
          "name": "_withholding",
          "type": "uint256"
        },
        {
          "indexed": false,
          "name": "_timestamp",
          "type": "uint256"
        }
      ],
      "name": "SetWithholdingFixed",
      "type": "event"
    },
    {
      "anonymous": false,
      "inputs": [
        {
          "indexed": true,
          "name": "_oldWallet",
          "type": "address"
        },
        {
          "indexed": true,
          "name": "_newWallet",
          "type": "address"
        },
        {
          "indexed": false,
          "name": "_timestamp",
          "type": "uint256"
        }
      ],
      "name": "SetWallet",
      "type": "event"
    },
    {
      "constant": false,
      "inputs": [
        {
          "name": "_maturity",
          "type": "uint256"
        },
        {
          "name": "_expiry",
          "type": "uint256"
        },
        {
          "name": "_name",
          "type": "bytes32"
        }
      ],
      "name": "createDividend",
      "outputs": [],
      "payable": true,
      "stateMutability": "payable",
      "type": "function"
    },
    {
      "constant": false,
      "inputs": [
        {
          "name": "_maturity",
          "type": "uint256"
        },
        {
          "name": "_expiry",
          "type": "uint256"
        },
        {
          "name": "_checkpointId",
          "type": "uint256"
        },
        {
          "name": "_name",
          "type": "bytes32"
        }
      ],
      "name": "createDividendWithCheckpoint",
      "outputs": [],
      "payable": true,
      "stateMutability": "payable",
      "type": "function"
    },
    {
      "constant": false,
      "inputs": [
        {
          "name": "_maturity",
          "type": "uint256"
        },
        {
          "name": "_expiry",
          "type": "uint256"
        },
        {
          "name": "_excluded",
          "type": "address[]"
        },
        {
          "name": "_name",
          "type": "bytes32"
        }
      ],
      "name": "createDividendWithExclusions",
      "outputs": [],
      "payable": true,
      "stateMutability": "payable",
      "type": "function"
    },
    {
      "constant": false,
      "inputs": [
        {
          "name": "_maturity",
          "type": "uint256"
        },
        {
          "name": "_expiry",
          "type": "uint256"
        },
        {
          "name": "_checkpointId",
          "type": "uint256"
        },
        {
          "name": "_excluded",
          "type": "address[]"
        },
        {
          "name": "_name",
          "type": "bytes32"
        }
      ],
      "name": "createDividendWithCheckpointAndExclusions",
      "outputs": [],
      "payable": true,
      "stateMutability": "payable",
      "type": "function"
    },
    {
      "constant": false,
      "inputs": [
        {
          "name": "_dividendIndex",
          "type": "uint256"
        }
      ],
      "name": "reclaimDividend",
      "outputs": [],
      "payable": false,
      "stateMutability": "nonpayable",
      "type": "function"
    },
    {
      "constant": false,
      "inputs": [
        {
          "name": "_dividendIndex",
          "type": "uint256"
        }
      ],
      "name": "withdrawWithholding",
      "outputs": [],
      "payable": false,
      "stateMutability": "nonpayable",
      "type": "function"
    }
  ],
  "bytecode": "0x6080604052609660015534801561001557600080fd5b5060405160408061529b83398101604052805160209091015160068054600160a060020a03938416600160a060020a0319918216179091556005805482163317905560078054939092169216919091179055615225806100766000396000f3006080604052600436106101c95763ffffffff60e060020a6000350416630945812e81146101ce5780630a29f591146102275780631613ec9d1461024e57806328d1feda1461029857806330008b48146102e3578063333cffe5146102fb57806335d806f8146103135780634d58e41314610328578063521eb27314610382578063562beba8146103b35780635bea0e1c146103eb5780635bf341c1146104285780635daff64e1461043d5780635f7619a4146104a55780636faa22a5146104bd57806375cb2672146104d25780637a3e23fd146104f35780637b4a223b1461051457806380fef5af1461060a578063814b3fe01461061f57806381e97b661461068f5780638596e6e6146106b357806398b9a2dc14610741578063aa8b76ea14610762578063ac121dbf1461077a578063b84dfbd21461093c578063bea1c04114610951578063bee2ddc2146109aa578063c3a07df6146109c2578063c45a0155146109d7578063cc1556dc146109ec578063d70afa9614610a41578063dcef4b5d14610a56578063e1726faa14610a6a578063f1e9d10014610a88578063f4be43f414610a9d578063f58b5bae14610aae578063fa67a7bb14610b01578063ff0b9c9014610b19575b600080fd5b3480156101da57600080fd5b5060408051602060048035808201358381028086018501909652808552610225953695939460249493850192918291850190849080828437509497505093359450610b2e9350505050565b005b34801561023357600080fd5b5061023c610df0565b60408051918252519081900360200190f35b34801561025a57600080fd5b50610263610df6565b604080517fffffffff000000000000000000000000000000000000000000000000000000009092168252519081900360200190f35b3480156102a457600080fd5b506102b0600435610e1b565b604080519687526020870195909552858501939093526060850191909152608084015260a0830152519081900360c00190f35b3480156102ef57600080fd5b50610225600435610eff565b34801561030757600080fd5b506102256004356111df565b34801561031f57600080fd5b5061023c611489565b34801561033457600080fd5b50604080516020600460248035828101358481028087018601909752808652610225968435963696604495919490910192918291850190849080828437509497506114ad9650505050505050565b34801561038e57600080fd5b506103976118d0565b60408051600160a060020a039092168252519081900360200190f35b3480156103bf57600080fd5b506103d7600160a060020a03600435166024356118df565b604080519115158252519081900360200190f35b3480156103f757600080fd5b5061040f600435600160a060020a036024351661196c565b6040805192835260208301919091528051918290030190f35b34801561043457600080fd5b5061023c611b4f565b34801561044957600080fd5b50610455600435611b5f565b60408051602080825283518183015283519192839290830191858101910280838360005b83811015610491578181015183820152602001610479565b505050509050019250505060405180910390f35b3480156104b157600080fd5b506103d7600435611c44565b3480156104c957600080fd5b50610397611f5c565b3480156104de57600080fd5b50610225600160a060020a0360043516611f6b565b3480156104ff57600080fd5b5061023c600160a060020a0360043516611fd9565b34801561052057600080fd5b5061052c600435611feb565b60405180806020018060200180602001848103845287818151815260200191508051906020019060200280838360005b8381101561057457818101518382015260200161055c565b50505050905001848103835286818151815260200191508051906020019060200280838360005b838110156105b357818101518382015260200161059b565b50505050905001848103825285818151815260200191508051906020019060200280838360005b838110156105f25781810151838201526020016105da565b50505050905001965050505050505060405180910390f35b34801561061657600080fd5b5061023c61234e565b34801561062b57600080fd5b50610637600435612360565b604080519b8c5260208c019a909a528a8a019890985260608a0196909652608089019490945260a088019290925260c0870152151560e086015261010085015261012084015261014083015251908190036101600190f35b34801561069b57600080fd5b506103d7600160a060020a03600435166024356123cd565b3480156106bf57600080fd5b506040805160206004803580820135838102808601850190965280855261022595369593946024949385019291829185019084908082843750506040805187358901803560208181028481018201909552818452989b9a9989019892975090820195509350839250850190849080828437509497506124599650505050505050565b34801561074d57600080fd5b50610225600160a060020a03600435166127d8565b34801561076e57600080fd5b506102256004356128b6565b34801561078657600080fd5b5061078f612c5b565b6040518080602001806020018060200180602001806020018060200187810387528d818151815260200191508051906020019060200280838360005b838110156107e35781810151838201526020016107cb565b5050505090500187810386528c818151815260200191508051906020019060200280838360005b8381101561082257818101518382015260200161080a565b5050505090500187810385528b818151815260200191508051906020019060200280838360005b83811015610861578181015183820152602001610849565b5050505090500187810384528a818151815260200191508051906020019060200280838360005b838110156108a0578181015183820152602001610888565b50505050905001878103835289818151815260200191508051906020019060200280838360005b838110156108df5781810151838201526020016108c7565b50505050905001878103825288818151815260200191508051906020019060200280838360005b8381101561091e578181015183820152602001610906565b505050509050019c5050505050505050505050505060405180910390f35b34801561094857600080fd5b50610397612e4b565b60408051606435600481810135602081810285810182019096528185526102259583359560248035966044359636969095608495929093019290918291850190849080828437509497505093359450612e5a9350505050565b3480156109b657600080fd5b50610397600435612feb565b3480156109ce57600080fd5b50610455613013565b3480156109e357600080fd5b5061039761308e565b3480156109f857600080fd5b50604080516020600480358082013583810280860185019096528085526102259536959394602494938501929182918501908490808284375094975061309d9650505050505050565b348015610a4d57600080fd5b5061023c613469565b61022560043560243560443560643561348d565b348015610a7657600080fd5b50610225600435602435604435613681565b348015610a9457600080fd5b50610455613b8d565b610225600435602435604435613bef565b60408051602060046044358181013583810280860185019096528085526102259583359560248035963696956064959394920192918291850190849080828437509497505093359450613dd59350505050565b348015610b0d57600080fd5b5061078f600435613fe9565b348015610b2557600080fd5b5061023c614551565b600060d060020a654d414e41474502600080600660009054906101000a9004600160a060020a0316600160a060020a0316638da5cb5b6040518163ffffffff1660e060020a028152600401602060405180830381600087803b158015610b9357600080fd5b505af1158015610ba7573d6000803e3d6000fd5b505050506040513d6020811015610bbd57600080fd5b505160055433600160a060020a039283168114945091161490508180610be05750805b80610c7057506006546040805160e060020a638658b8b9028152336004820152306024820152604481018690529051600160a060020a0390921691638658b8b9916064808201926020929091908290030181600087803b158015610c4357600080fd5b505af1158015610c57573d6000803e3d6000fd5b505050506040513d6020811015610c6d57600080fd5b50515b1515610cb4576040805160e560020a62461bcd02815260206004820152601760248201526000805160206151da833981519152604482015290519081900360640190fd5b670de0b6b3a7640000851115610d14576040805160e560020a62461bcd02815260206004820152601960248201527f496e636f72726563742077697468686f6c64696e672074617800000000000000604482015290519081900360640190fd5b7f3587f82979516528f7ce51509410f4d49aaed2fe4c2661c07a02cc17ea1410278686426040518080602001848152602001838152602001828103825285818151815260200191508051906020019060200280838360005b83811015610d84578181015183820152602001610d6c565b5050505090500194505050505060405180910390a1600093505b8551841015610de85784600460008887815181101515610dba57fe5b6020908102909101810151600160a060020a0316825281019190915260400160002055600190930192610d9e565b505050505050565b60015481565b7f75cb2672000000000000000000000000000000000000000000000000000000005b90565b600080600080600080600287815481101515610e3357fe5b90600052602060002090600e0201600101549550600287815481101515610e5657fe5b90600052602060002090600e0201600201549450600287815481101515610e7957fe5b90600052602060002090600e0201600301549350600287815481101515610e9c57fe5b90600052602060002090600e0201600401549250600287815481101515610ebf57fe5b90600052602060002090600e0201600501549150600287815481101515610ee257fe5b90600052602060002090600e0201600d0154905091939550919395565b60025460009082908110610f4b576040805160e560020a62461bcd028152602060048201526010602482015260008051602061519a833981519152604482015290519081900360640190fd5b6002805482908110610f5957fe5b600091825260209091206007600e90920201015460ff1615610fc5576040805160e560020a62461bcd02815260206004820152601260248201527f4469766964656e64207265636c61696d65640000000000000000000000000000604482015290519081900360640190fd5b6002805482908110610fd357fe5b90600052602060002090600e020160020154421015151561103e576040805160e560020a62461bcd02815260206004820152601b60248201527f4469766964656e64206d6174757269747920696e206675747572650000000000604482015290519081900360640190fd5b600280548290811061104c57fe5b90600052602060002090600e020160030154421015156110b6576040805160e560020a62461bcd02815260206004820152601760248201527f4469766964656e642065787069727920696e2070617374000000000000000000604482015290519081900360640190fd5b60028054849081106110c457fe5b60009182526020808320338452600a600e90930201918201905260409091205490925060ff161561113f576040805160e560020a62461bcd02815260206004820152601860248201527f4469766964656e6420616c726561647920636c61696d65640000000000000000604482015290519081900360640190fd5b336000908152600b8301602052604090205460ff16156111cf576040805160e560020a62461bcd02815260206004820152602160248201527f6d73672e73656e646572206578636c756465642066726f6d204469766964656e60448201527f6400000000000000000000000000000000000000000000000000000000000000606482015290519081900360840190fd5b6111da338385614772565b505050565b60008060d060020a654d414e41474502600080600660009054906101000a9004600160a060020a0316600160a060020a0316638da5cb5b6040518163ffffffff1660e060020a028152600401602060405180830381600087803b15801561124557600080fd5b505af1158015611259573d6000803e3d6000fd5b505050506040513d602081101561126f57600080fd5b505160055433600160a060020a0392831681149450911614905081806112925750805b8061132257506006546040805160e060020a638658b8b9028152336004820152306024820152604481018690529051600160a060020a0390921691638658b8b9916064808201926020929091908290030181600087803b1580156112f557600080fd5b505af1158015611309573d6000803e3d6000fd5b505050506040513d602081101561131f57600080fd5b50515b1515611366576040805160e560020a62461bcd02815260206004820152601760248201526000805160206151da833981519152604482015290519081900360640190fd5b60025486106113bf576040805160e560020a62461bcd02815260206004820152601860248201527f496e636f7272656374206469766964656e6420696e6465780000000000000000604482015290519081900360640190fd5b60028054879081106113cd57fe5b90600052602060002090600e020194506113f88560090154866008015461490090919063ffffffff16565b6008860154600987015560008054604051929650600160a060020a03169186156108fc0291879190818181858888f1935050505015801561143d573d6000803e3d6000fd5b506000546040805186815290518892600160a060020a0316917fc817826994cc4cf2dd66758f988195f8ad3e29078e2ce7ff40fe66477eff27e8919081900360200190a3505050505050565b7f434845434b504f494e540000000000000000000000000000000000000000000081565b6000806000805160206151ba833981519152600080600660009054906101000a9004600160a060020a0316600160a060020a0316638da5cb5b6040518163ffffffff1660e060020a028152600401602060405180830381600087803b15801561151557600080fd5b505af1158015611529573d6000803e3d6000fd5b505050506040513d602081101561153f57600080fd5b505160055433600160a060020a0392831681149450911614905081806115625750805b806115f257506006546040805160e060020a638658b8b9028152336004820152306024820152604481018690529051600160a060020a0390921691638658b8b9916064808201926020929091908290030181600087803b1580156115c557600080fd5b505af11580156115d9573d6000803e3d6000fd5b505050506040513d60208110156115ef57600080fd5b50515b1515611636576040805160e560020a62461bcd02815260206004820152601760248201526000805160206151da833981519152604482015290519081900360640190fd5b6002548790811061167f576040805160e560020a62461bcd028152602060048201526010602482015260008051602061519a833981519152604482015290519081900360640190fd5b600280548290811061168d57fe5b600091825260209091206007600e90920201015460ff16156116f9576040805160e560020a62461bcd02815260206004820152601260248201527f4469766964656e64207265636c61696d65640000000000000000000000000000604482015290519081900360640190fd5b600280548290811061170757fe5b90600052602060002090600e0201600201544210151515611772576040805160e560020a62461bcd02815260206004820152601b60248201527f4469766964656e64206d6174757269747920696e206675747572650000000000604482015290519081900360640190fd5b600280548290811061178057fe5b90600052602060002090600e020160030154421015156117ea576040805160e560020a62461bcd02815260206004820152601760248201527f4469766964656e642065787069727920696e2070617374000000000000000000604482015290519081900360640190fd5b60028054899081106117f857fe5b90600052602060002090600e02019550600094505b86518510156118c65785600a016000888781518110151561182a57fe5b6020908102909101810151600160a060020a031682528101919091526040016000205460ff16158015611894575085600b016000888781518110151561186c57fe5b6020908102909101810151600160a060020a031682528101919091526040016000205460ff16155b156118bb576118bb87868151811015156118aa57fe5b90602001906020020151878a614772565b60019094019361180d565b5050505050505050565b600054600160a060020a031681565b6002546000908210611929576040805160e560020a62461bcd028152602060048201526010602482015260008051602061519a833981519152604482015290519081900360640190fd5b600280548390811061193757fe5b60009182526020808320600160a060020a0387168452600a600e90930201919091019052604090205460ff1690505b92915050565b600080600080600080600280549050881015156119c1576040805160e560020a62461bcd028152602060048201526010602482015260008051602061519a833981519152604482015290519081900360640190fd5b60028054899081106119cf57fe5b60009182526020808320600160a060020a038b168452600a600e90930201918201905260409091205490945060ff1680611a235750600160a060020a0387166000908152600b8501602052604090205460ff165b15611a345760009550859450611b44565b6006548454604080517f4ee2cd7e000000000000000000000000000000000000000000000000000000008152600160a060020a038b81166004830152602482019390935290519190921691634ee2cd7e9160448083019260209291908290030181600087803b158015611aa657600080fd5b505af1158015611aba573d6000803e3d6000fd5b505050506040513d6020811015611ad057600080fd5b505160068501546004860154919450611b0091611af490869063ffffffff61491216565b9063ffffffff61493b16565b600160a060020a038816600090815260046020526040902054909250611b3b90670de0b6b3a764000090611af490859063ffffffff61491216565b90508181955095505b505050509250929050565b60d060020a654d414e4147450281565b606060008082815b600254831015611bab5785600284815481101515611b8157fe5b90600052602060002090600e0201600001541415611ba0576001909301925b600190920191611b67565b83604051908082528060200260200182016040528015611bd5578160200160208202803883390190505b50915060009350600090505b600254811015611c3b5785600282815481101515611bfb57fe5b90600052602060002090600e0201600001541415611c3357808285815181101515611c2257fe5b602090810290910101526001909301925b600101611be1565b50949350505050565b60007f4645455f41444d494e0000000000000000000000000000000000000000000000600080600660009054906101000a9004600160a060020a0316600160a060020a0316638da5cb5b6040518163ffffffff1660e060020a028152600401602060405180830381600087803b158015611cbd57600080fd5b505af1158015611cd1573d6000803e3d6000fd5b505050506040513d6020811015611ce757600080fd5b505160055433600160a060020a039283168114945091161490508180611d0a5750805b80611d9a57506006546040805160e060020a638658b8b9028152336004820152306024820152604481018690529051600160a060020a0390921691638658b8b9916064808201926020929091908290030181600087803b158015611d6d57600080fd5b505af1158015611d81573d6000803e3d6000fd5b505050506040513d6020811015611d9757600080fd5b50515b1515611dde576040805160e560020a62461bcd02815260206004820152601760248201526000805160206151da833981519152604482015290519081900360640190fd5b600754600654600554604080517f8da5cb5b0000000000000000000000000000000000000000000000000000000081529051600160a060020a03948516946323b872dd948116931691638da5cb5b9160048083019260209291908290030181600087803b158015611e4e57600080fd5b505af1158015611e62573d6000803e3d6000fd5b505050506040513d6020811015611e7857600080fd5b50516040805160e060020a63ffffffff8616028152600160a060020a039384166004820152929091166024830152604482018990525160648083019260209291908290030181600087803b158015611ecf57600080fd5b505af1158015611ee3573d6000803e3d6000fd5b505050506040513d6020811015611ef957600080fd5b50511515611f51576040805160e560020a62461bcd02815260206004820152601260248201527f556e61626c6520746f2074616b65206665650000000000000000000000000000604482015290519081900360640190fd5b506001949350505050565b600754600160a060020a031681565b600554600160a060020a03163314611fcd576040805160e560020a62461bcd02815260206004820152601560248201527f53656e646572206973206e6f7420666163746f72790000000000000000000000604482015290519081900360640190fd5b611fd681614950565b50565b60046020526000908152604090205481565b60608060606000600660009054906101000a9004600160a060020a0316600160a060020a0316635488cc806040518163ffffffff1660e060020a028152600401602060405180830381600087803b15801561204557600080fd5b505af1158015612059573d6000803e3d6000fd5b505050506040513d602081101561206f57600080fd5b50518511156120c8576040805160e560020a62461bcd02815260206004820152601260248201527f496e76616c696420636865636b706f696e740000000000000000000000000000604482015290519081900360640190fd5b600654604080517f3f553586000000000000000000000000000000000000000000000000000000008152600481018890529051600160a060020a0390921691633f5535869160248082019260009290919082900301818387803b15801561212e57600080fd5b505af1158015612142573d6000803e3d6000fd5b505050506040513d6000823e601f3d908101601f19168201604052602081101561216b57600080fd5b81019080805164010000000081111561218357600080fd5b8201602081018481111561219657600080fd5b81518560208202830111640100000000821117156121b357600080fd5b5050929190505050935083516040519080825280602002602001820160405280156121e8578160200160208202803883390190505b5092508351604051908082528060200260200182016040528015612216578160200160208202803883390190505b5091505b8351811015612346576006548451600160a060020a0390911690634ee2cd7e9086908490811061224657fe5b90602001906020020151876040518363ffffffff1660e060020a0281526004018083600160a060020a0316600160a060020a0316815260200182815260200192505050602060405180830381600087803b1580156122a357600080fd5b505af11580156122b7573d6000803e3d6000fd5b505050506040513d60208110156122cd57600080fd5b505183518490839081106122dd57fe5b6020908102909101015283516004906000908690849081106122fb57fe5b90602001906020020151600160a060020a0316600160a060020a0316815260200190815260200160002054828281518110151561233457fe5b6020908102909101015260010161221a565b509193909250565b6000805160206151ba83398151915281565b600280548290811061236e57fe5b60009182526020909120600e9091020180546001820154600283015460038401546004850154600586015460068701546007880154600889015460098a0154600d909a0154989a5096989597949693959294919360ff9091169290918b565b6002546000908210612417576040805160e560020a62461bcd028152602060048201526010602482015260008051602061519a833981519152604482015290519081900360640190fd5b600280548390811061242557fe5b60009182526020808320600160a060020a0387168452600b600e90930201919091019052604090205460ff16905092915050565b600060d060020a654d414e41474502600080600660009054906101000a9004600160a060020a0316600160a060020a0316638da5cb5b6040518163ffffffff1660e060020a028152600401602060405180830381600087803b1580156124be57600080fd5b505af11580156124d2573d6000803e3d6000fd5b505050506040513d60208110156124e857600080fd5b505160055433600160a060020a03928316811494509116149050818061250b5750805b8061259b57506006546040805160e060020a638658b8b9028152336004820152306024820152604481018690529051600160a060020a0390921691638658b8b9916064808201926020929091908290030181600087803b15801561256e57600080fd5b505af1158015612582573d6000803e3d6000fd5b505050506040513d602081101561259857600080fd5b50515b15156125df576040805160e560020a62461bcd02815260206004820152601760248201526000805160206151da833981519152604482015290519081900360640190fd5b8451865114612638576040805160e560020a62461bcd02815260206004820152601860248201527f4d69736d61746368656420696e707574206c656e677468730000000000000000604482015290519081900360640190fd5b7f8e6f19b496a634d6fb5faea10ece2675995b6f7a0946a7509885eb76889e1213868642604051808060200180602001848152602001838103835286818151815260200191508051906020019060200280838360005b838110156126a657818101518382015260200161268e565b50505050905001838103825285818151815260200191508051906020019060200280838360005b838110156126e55781810151838201526020016126cd565b505050509050019550505050505060405180910390a1600093505b8551841015610de857670de0b6b3a7640000858581518110151561272057fe5b602090810290910101511115612780576040805160e560020a62461bcd02815260206004820152601960248201527f496e636f72726563742077697468686f6c64696e672074617800000000000000604482015290519081900360640190fd5b848481518110151561278e57fe5b906020019060200201516004600088878151811015156127aa57fe5b6020908102909101810151600160a060020a0316825281019190915260400160002055600190930192612700565b600660009054906101000a9004600160a060020a0316600160a060020a0316638da5cb5b6040518163ffffffff1660e060020a028152600401602060405180830381600087803b15801561282b57600080fd5b505af115801561283f573d6000803e3d6000fd5b505050506040513d602081101561285557600080fd5b5051600160a060020a03163314611fcd576040805160e560020a62461bcd02815260206004820152601360248201527f53656e646572206973206e6f74206f776e657200000000000000000000000000604482015290519081900360640190fd5b60008060d060020a654d414e41474502600080600660009054906101000a9004600160a060020a0316600160a060020a0316638da5cb5b6040518163ffffffff1660e060020a028152600401602060405180830381600087803b15801561291c57600080fd5b505af1158015612930573d6000803e3d6000fd5b505050506040513d602081101561294657600080fd5b505160055433600160a060020a0392831681149450911614905081806129695750805b806129f957506006546040805160e060020a638658b8b9028152336004820152306024820152604481018690529051600160a060020a0390921691638658b8b9916064808201926020929091908290030181600087803b1580156129cc57600080fd5b505af11580156129e0573d6000803e3d6000fd5b505050506040513d60208110156129f657600080fd5b50515b1515612a3d576040805160e560020a62461bcd02815260206004820152601760248201526000805160206151da833981519152604482015290519081900360640190fd5b6002548610612a96576040805160e560020a62461bcd02815260206004820152601860248201527f496e636f7272656374206469766964656e6420696e6465780000000000000000604482015290519081900360640190fd5b6002805487908110612aa457fe5b90600052602060002090600e0201600301544210151515612b0f576040805160e560020a62461bcd02815260206004820181905260248201527f4469766964656e642065787069727920697320696e2074686520667574757265604482015290519081900360640190fd5b6002805487908110612b1d57fe5b600091825260209091206007600e90920201015460ff1615612b89576040805160e560020a62461bcd02815260206004820152601b60248201527f4469766964656e6420697320616c726561647920636c61696d65640000000000604482015290519081900360640190fd5b6002805487908110612b9757fe5b600091825260209091206007600e90920201908101805460ff1916600117905560058101546004820154919650612bd4919063ffffffff61490016565b60008054604051929650600160a060020a03169186156108fc0291879190818181858888f19350505050158015612c0f573d6000803e3d6000fd5b506000546040805186815290518892600160a060020a0316917fcd202b969101d293ad6e4c4053b46f2bf4698ca22abcb130dc24fa3baca0dee1919081900360200190a3505050505050565b6060806060806060806000600280549050604051908082528060200260200182016040528015612c95578160200160208202803883390190505b506002546040805182815260208084028201019091529198508015612cc4578160200160208202803883390190505b506002546040805182815260208084028201019091529197508015612cf3578160200160208202803883390190505b506002546040805182815260208084028201019091529196508015612d22578160200160208202803883390190505b506002546040805182815260208084028201019091529195508015612d51578160200160208202803883390190505b506002546040805182815260208084028201019091529194508015612d80578160200160208202803883390190505b509150600090505b600254811015612e4257612d9b81610e1b565b8c87815181101515612da957fe5b9060200190602002018c88815181101515612dc057fe5b9060200190602002018c89815181101515612dd757fe5b9060200190602002018c8a815181101515612dee57fe5b9060200190602002018c8b815181101515612e0557fe5b9060200190602002018c8c815181101515612e1c57fe5b602090810290910101959095529490935293909252929092529190915252600101612d88565b50909192939495565b600654600160a060020a031681565b60d060020a654d414e41474502600080600660009054906101000a9004600160a060020a0316600160a060020a0316638da5cb5b6040518163ffffffff1660e060020a028152600401602060405180830381600087803b158015612ebd57600080fd5b505af1158015612ed1573d6000803e3d6000fd5b505050506040513d6020811015612ee757600080fd5b505160055433600160a060020a039283168114945091161490508180612f0a5750805b80612f9a57506006546040805160e060020a638658b8b9028152336004820152306024820152604481018690529051600160a060020a0390921691638658b8b9916064808201926020929091908290030181600087803b158015612f6d57600080fd5b505af1158015612f81573d6000803e3d6000fd5b505050506040513d6020811015612f9757600080fd5b50515b1515612fde576040805160e560020a62461bcd02815260206004820152601760248201526000805160206151da833981519152604482015290519081900360640190fd5b6118c688888888886149d9565b6003805482908110612ff957fe5b600091825260209091200154600160a060020a0316905081565b6040805160028082526060808301845292839291906020830190803883390190505090506000805160206151ba83398151915281600081518110151561305557fe5b60209081029091010152805160d060020a654d414e41474502908290600190811061307c57fe5b602090810290910101529050805b5090565b600554600160a060020a031681565b60008060d060020a654d414e41474502600080600660009054906101000a9004600160a060020a0316600160a060020a0316638da5cb5b6040518163ffffffff1660e060020a028152600401602060405180830381600087803b15801561310357600080fd5b505af1158015613117573d6000803e3d6000fd5b505050506040513d602081101561312d57600080fd5b505160055433600160a060020a0392831681149450911614905081806131505750805b806131e057506006546040805160e060020a638658b8b9028152336004820152306024820152604481018690529051600160a060020a0390921691638658b8b9916064808201926020929091908290030181600087803b1580156131b357600080fd5b505af11580156131c7573d6000803e3d6000fd5b505050506040513d60208110156131dd57600080fd5b50515b1515613224576040805160e560020a62461bcd02815260206004820152601760248201526000805160206151da833981519152604482015290519081900360640190fd5b6001548651111561327f576040805160e560020a62461bcd02815260206004820152601b60248201527f546f6f206d616e79206578636c75646564206164647265737365730000000000604482015290519081900360640190fd5b600094505b85518510156133c557855160009087908790811061329e57fe5b60209081029091010151600160a060020a03161415613307576040805160e560020a62461bcd02815260206004820152600f60248201527f496e76616c696420616464726573730000000000000000000000000000000000604482015290519081900360640190fd5b8460010193505b85518410156133ba57858481518110151561332557fe5b90602001906020020151600160a060020a0316868681518110151561334657fe5b60209081029091010151600160a060020a031614156133af576040805160e560020a62461bcd02815260206004820152601960248201527f4475706c6963617465206578636c756465206164647265737300000000000000604482015290519081900360640190fd5b60019093019261330e565b600190940193613284565b85516133d8906003906020890190615100565b507f6f7d61057c8835d8bd9272c926f638242a70f6441466ae91cd272872ed84151f6003426040518080602001838152602001828103825284818154815260200191508054801561345257602002820191906000526020600020905b8154600160a060020a03168152600190910190602001808311613434575b5050935050505060405180910390a1505050505050565b7f4645455f41444d494e000000000000000000000000000000000000000000000081565b60d060020a654d414e41474502600080600660009054906101000a9004600160a060020a0316600160a060020a0316638da5cb5b6040518163ffffffff1660e060020a028152600401602060405180830381600087803b1580156134f057600080fd5b505af1158015613504573d6000803e3d6000fd5b505050506040513d602081101561351a57600080fd5b505160055433600160a060020a03928316811494509116149050818061353d5750805b806135cd57506006546040805160e060020a638658b8b9028152336004820152306024820152604481018690529051600160a060020a0390921691638658b8b9916064808201926020929091908290030181600087803b1580156135a057600080fd5b505af11580156135b4573d6000803e3d6000fd5b505050506040513d60208110156135ca57600080fd5b50515b1515613611576040805160e560020a62461bcd02815260206004820152601760248201526000805160206151da833981519152604482015290519081900360640190fd5b613678878787600380548060200260200160405190810160405280929190818152602001828054801561366d57602002820191906000526020600020905b8154600160a060020a0316815260019091019060200180831161364f575b5050505050886149d9565b50505050505050565b600080606060008060006000805160206151ba833981519152600080600660009054906101000a9004600160a060020a0316600160a060020a0316638da5cb5b6040518163ffffffff1660e060020a028152600401602060405180830381600087803b1580156136f057600080fd5b505af1158015613704573d6000803e3d6000fd5b505050506040513d602081101561371a57600080fd5b505160055433600160a060020a03928316811494509116149050818061373d5750805b806137cd57506006546040805160e060020a638658b8b9028152336004820152306024820152604481018690529051600160a060020a0390921691638658b8b9916064808201926020929091908290030181600087803b1580156137a057600080fd5b505af11580156137b4573d6000803e3d6000fd5b505050506040513d60208110156137ca57600080fd5b50515b1515613811576040805160e560020a62461bcd02815260206004820152601760248201526000805160206151da833981519152604482015290519081900360640190fd5b6002548c90811061385a576040805160e560020a62461bcd028152602060048201526010602482015260008051602061519a833981519152604482015290519081900360640190fd5b600280548290811061386857fe5b600091825260209091206007600e90920201015460ff16156138d4576040805160e560020a62461bcd02815260206004820152601260248201527f4469766964656e64207265636c61696d65640000000000000000000000000000604482015290519081900360640190fd5b60028054829081106138e257fe5b90600052602060002090600e020160020154421015151561394d576040805160e560020a62461bcd02815260206004820152601b60248201527f4469766964656e64206d6174757269747920696e206675747572650000000000604482015290519081900360640190fd5b600280548290811061395b57fe5b90600052602060002090600e020160030154421015156139c5576040805160e560020a62461bcd02815260206004820152601760248201527f4469766964656e642065787069727920696e2070617374000000000000000000604482015290519081900360640190fd5b600280548e9081106139d357fe5b600091825260208220600e909102018054600654604080517f3f553586000000000000000000000000000000000000000000000000000000008152600481018490529051939e50919c50600160a060020a031692633f5535869260248084019382900301818387803b158015613a4857600080fd5b505af1158015613a5c573d6000803e3d6000fd5b505050506040513d6000823e601f3d908101601f191682016040526020811015613a8557600080fd5b810190808051640100000000811115613a9d57600080fd5b82016020810184811115613ab057600080fd5b8151856020820283011164010000000082111715613acd57600080fd5b50508051909b50613af293509150613aed90508e8e63ffffffff6150db16565b6150e8565b96508b95505b86861015613b7e578786815181101515613b0e57fe5b6020908102909101810151600160a060020a0381166000908152600a8d0190925260409091205490955060ff16158015613b635750600160a060020a0385166000908152600b8b01602052604090205460ff16155b15613b7357613b73858b8f614772565b600190950194613af8565b50505050505050505050505050565b60606003805480602002602001604051908101604052809291908181526020018280548015613be557602002820191906000526020600020905b8154600160a060020a03168152600190910190602001808311613bc7575b5050505050905090565b60d060020a654d414e41474502600080600660009054906101000a9004600160a060020a0316600160a060020a0316638da5cb5b6040518163ffffffff1660e060020a028152600401602060405180830381600087803b158015613c5257600080fd5b505af1158015613c66573d6000803e3d6000fd5b505050506040513d6020811015613c7c57600080fd5b505160055433600160a060020a039283168114945091161490508180613c9f5750805b80613d2f57506006546040805160e060020a638658b8b9028152336004820152306024820152604481018690529051600160a060020a0390921691638658b8b9916064808201926020929091908290030181600087803b158015613d0257600080fd5b505af1158015613d16573d6000803e3d6000fd5b505050506040513d6020811015613d2c57600080fd5b50515b1515613d73576040805160e560020a62461bcd02815260206004820152601760248201526000805160206151da833981519152604482015290519081900360640190fd5b610de886866003805480602002602001604051908101604052809291908181526020018280548015613dce57602002820191906000526020600020905b8154600160a060020a03168152600190910190602001808311613db0575b5050505050875b600060d060020a654d414e41474502600080600660009054906101000a9004600160a060020a0316600160a060020a0316638da5cb5b6040518163ffffffff1660e060020a028152600401602060405180830381600087803b158015613e3a57600080fd5b505af1158015613e4e573d6000803e3d6000fd5b505050506040513d6020811015613e6457600080fd5b505160055433600160a060020a039283168114945091161490508180613e875750805b80613f1757506006546040805160e060020a638658b8b9028152336004820152306024820152604481018690529051600160a060020a0390921691638658b8b9916064808201926020929091908290030181600087803b158015613eea57600080fd5b505af1158015613efe573d6000803e3d6000fd5b505050506040513d6020811015613f1457600080fd5b50515b1515613f5b576040805160e560020a62461bcd02815260206004820152601760248201526000805160206151da833981519152604482015290519081900360640190fd5b600660009054906101000a9004600160a060020a0316600160a060020a031663ff0b9c906040518163ffffffff1660e060020a028152600401602060405180830381600087803b158015613fae57600080fd5b505af1158015613fc2573d6000803e3d6000fd5b505050506040513d6020811015613fd857600080fd5b505193506118c688888689896149d9565b60608060608060608060008060008060006002805490508c101515614046576040805160e560020a62461bcd028152602060048201526010602482015260008051602061519a833981519152604482015290519081900360640190fd5b600280548d90811061405457fe5b600091825260208220600e909102018054600654604080517f3f553586000000000000000000000000000000000000000000000000000000008152600481018490529051939950919750600160a060020a031692633f5535869260248084019382900301818387803b1580156140c957600080fd5b505af11580156140dd573d6000803e3d6000fd5b505050506040513d6000823e601f3d908101601f19168201604052602081101561410657600080fd5b81019080805164010000000081111561411e57600080fd5b8201602081018481111561413157600080fd5b815185602082028301116401000000008211171561414e57600080fd5b50509291905050509a508a51604051908082528060200260200182016040528015614183578160200160208202803883390190505b5099508a516040519080825280602002602001820160405280156141b1578160200160208202803883390190505b5098508a516040519080825280602002602001820160405280156141df578160200160208202803883390190505b5097508a5160405190808252806020026020018201604052801561420d578160200160208202803883390190505b5096508a5160405190808252806020026020018201604052801561423b578160200160208202803883390190505b5095505b8a518310156145435784600a0160008c8581518110151561425c57fe5b6020908102909101810151600160a060020a03168252810191909152604001600020548a5160ff909116908b908590811061429357fe5b9115156020928302909101909101528a51600b8601906000908d90869081106142b857fe5b6020908102909101810151600160a060020a0316825281019190915260400160002054895160ff909116908a90859081106142ef57fe5b9115156020928302909101909101526006548b51600160a060020a0390911690634ee2cd7e908d908690811061432157fe5b9060200190602002015187600001546040518363ffffffff1660e060020a0281526004018083600160a060020a0316600160a060020a0316815260200182815260200192505050602060405180830381600087803b15801561438257600080fd5b505af1158015614396573d6000803e3d6000fd5b505050506040513d60208110156143ac57600080fd5b505186518790859081106143bc57fe5b6020908102909101015288518990849081106143d457fe5b9060200190602002015115156145385789838151811015156143f257fe5b90602001906020020151156144d15784600c0160008c8581518110151561441557fe5b90602001906020020151600160a060020a0316600160a060020a0316815260200190815260200160002054888481518110151561444e57fe5b6020908102909101015287516144b49089908590811061446a57fe5b906020019060200201516144a88760060154611af489600401548b8981518110151561449257fe5b602090810290910101519063ffffffff61491216565b9063ffffffff61490016565b87848151811015156144c257fe5b60209081029091010152614538565b6144f28c8c858151811015156144e357fe5b9060200190602002015161196c565b9150915080888481518110151561450557fe5b6020908102909101015261451f828263ffffffff61490016565b878481518110151561452d57fe5b602090810290910101525b60019092019161423f565b505050505091939550919395565b60007f434845434b504f494e5400000000000000000000000000000000000000000000600080600660009054906101000a9004600160a060020a0316600160a060020a0316638da5cb5b6040518163ffffffff1660e060020a028152600401602060405180830381600087803b1580156145ca57600080fd5b505af11580156145de573d6000803e3d6000fd5b505050506040513d60208110156145f457600080fd5b505160055433600160a060020a0392831681149450911614905081806146175750805b806146a757506006546040805160e060020a638658b8b9028152336004820152306024820152604481018690529051600160a060020a0390921691638658b8b9916064808201926020929091908290030181600087803b15801561467a57600080fd5b505af115801561468e573d6000803e3d6000fd5b505050506040513d60208110156146a457600080fd5b50515b15156146eb576040805160e560020a62461bcd02815260206004820152601760248201526000805160206151da833981519152604482015290519081900360640190fd5b600660009054906101000a9004600160a060020a0316600160a060020a031663ff0b9c906040518163ffffffff1660e060020a028152600401602060405180830381600087803b15801561473e57600080fd5b505af1158015614752573d6000803e3d6000fd5b505050506040513d602081101561476857600080fd5b5051935050505090565b6000806000614781848761196c565b600160a060020a0388166000908152600a880160205260409020805460ff1916600117905590935091506147bb838363ffffffff61490016565b90506000811115610de857604051600160a060020a0387169082156108fc029083906000818181858888f193505050501561489a576005850154614805908463ffffffff6150db16565b6005860155600082111561484b576008850154614828908363ffffffff6150db16565b6008860155600160a060020a0386166000908152600c8601602052604090208290555b8386600160a060020a03167f0cfb57b295d2603fbb329fdc2d35326148368bf26a74cbb525cdf3a71ff5cc3d8585604051808381526020018281526020019250505060405180910390a3610de8565b600160a060020a0386166000818152600a87016020908152604091829020805460ff19169055815186815290810185905281518793927fd252e7e7f5d6262d6dd8f80698d23f219cd7847a22b97c199a5984440f3c2715928290030190a3505050505050565b60008282111561490c57fe5b50900390565b600082151561492357506000611966565b5081810281838281151561493357fe5b041461196657fe5b6000818381151561494857fe5b049392505050565b600160a060020a038116151561496557600080fd5b600054604080514281529051600160a060020a038085169316917ffc2c92d63470564c67e93b5d868cba9e923476aae9ad9718920da95f48eb8695919081900360200190a36000805473ffffffffffffffffffffffffffffffffffffffff1916600160a060020a0392909216919091179055565b600080600080600154865111151515614a3c576040805160e560020a62461bcd02815260206004820152601b60248201527f546f6f206d616e7920616464726573736573206578636c756465640000000000604482015290519081900360640190fd5b888811614a93576040805160e560020a62461bcd02815260206004820152601960248201527f457870697279206973206265666f7265206d6174757269747900000000000000604482015290519081900360640190fd5b428811614aea576040805160e560020a62461bcd02815260206004820152601560248201527f45787069727920697320696e2074686520706173740000000000000000000000604482015290519081900360640190fd5b60003411614b42576040805160e560020a62461bcd02815260206004820152601060248201527f4e6f206469766964656e642073656e7400000000000000000000000000000000604482015290519081900360640190fd5b600660009054906101000a9004600160a060020a0316600160a060020a0316635488cc806040518163ffffffff1660e060020a028152600401602060405180830381600087803b158015614b9557600080fd5b505af1158015614ba9573d6000803e3d6000fd5b505050506040513d6020811015614bbf57600080fd5b5051871115614bcd57600080fd5b7fff000000000000000000000000000000000000000000000000000000000000007f0100000000000000000000000000000000000000000000000000000000000000600087901a02161515614c2157600080fd5b600254600654604080517f981b24d0000000000000000000000000000000000000000000000000000000008152600481018b90529051929650600160a060020a039091169163981b24d0916024808201926020929091908290030181600087803b158015614c8e57600080fd5b505af1158015614ca2573d6000803e3d6000fd5b505050506040513d6020811015614cb857600080fd5b81019080805190602001909291905050509250600091506002610160604051908101604052808981526020014281526020018b81526020018a81526020013481526020016000815260200160008152602001600015158152602001600081526020016000815260200187600019168152509080600181540180825580915050906001820390600052602060002090600e020160009091929091909150600082015181600001556020820151816001015560408201518160020155606082015181600301556080820151816004015560a0820151816005015560c0820151816006015560e08201518160070160006101000a81548160ff0219169083151502179055506101008201518160080155610120820151816009015561014082015181600d0190600019169055505050600090505b855181101561503f578551600090879083908110614e0357fe5b60209081029091010151600160a060020a03161415614e6c576040805160e560020a62461bcd02815260206004820152600f60248201527f496e76616c696420616464726573730000000000000000000000000000000000604482015290519081900360640190fd5b6002805485908110614e7a57fe5b90600052602060002090600e0201600b0160008783815181101515614e9b57fe5b6020908102909101810151600160a060020a031682528101919091526040016000205460ff1615614f16576040805160e560020a62461bcd02815260206004820152601560248201527f6475706564206578636c75646520616464726573730000000000000000000000604482015290519081900360640190fd5b6006548651614fd191600160a060020a031690634ee2cd7e90899085908110614f3b57fe5b906020019060200201518a6040518363ffffffff1660e060020a0281526004018083600160a060020a0316600160a060020a0316815260200182815260200192505050602060405180830381600087803b158015614f9857600080fd5b505af1158015614fac573d6000803e3d6000fd5b505050506040513d6020811015614fc257600080fd5b5051839063ffffffff6150db16565b91506001600285815481101515614fe457fe5b90600052602060002090600e0201600b016000888481518110151561500557fe5b602090810291909101810151600160a060020a03168252810191909152604001600020805460ff1916911515919091179055600101614de9565b61504f838363ffffffff61490016565b600280548690811061505d57fe5b60009182526020918290206006600e9092020101919091556040805189815242928101929092528181018b9052606082018a905234608083015260a08201859052518691869133917f260420e15e8a0c1993b733e83ae8e5acf5f856d2e044769b63fb8126edf27285919081900360c00190a4505050505050505050565b8181018281101561196657fe5b60008183106150f757816150f9565b825b9392505050565b828054828255906000526020600020908101928215615162579160200282015b82811115615162578251825473ffffffffffffffffffffffffffffffffffffffff1916600160a060020a03909116178255602090920191600190910190615120565b5061308a92610e189250905b8082111561308a57805473ffffffffffffffffffffffffffffffffffffffff1916815560010161516e5600496e76616c6964206469766964656e640000000000000000000000000000000044495354524942555445000000000000000000000000000000000000000000005065726d697373696f6e20636865636b206661696c6564000000000000000000a165627a7a72305820756e802e7d1339990b93bcd0c5eaa7e1d67d6c92ea7783c6ecf1bfa745d959060029",
  "source": "pragma solidity ^0.4.24;\r\n\r\nimport \"./DividendCheckpoint.sol\";\r\nimport \"../../interfaces/IOwnable.sol\";\r\n\r\n/**\r\n * @title Checkpoint module for issuing ether dividends\r\n */\r\ncontract EtherDividendCheckpoint is DividendCheckpoint {\r\n    using SafeMath for uint256;\r\n\r\n    event EtherDividendDeposited(\r\n        address indexed _depositor,\r\n        uint256 _checkpointId,\r\n        uint256 _created,\r\n        uint256 _maturity,\r\n        uint256 _expiry,\r\n        uint256 _amount,\r\n        uint256 _totalSupply,\r\n        uint256 indexed _dividendIndex,\r\n        bytes32 indexed _name\r\n    );\r\n    event EtherDividendClaimed(address indexed _payee, uint256 indexed _dividendIndex, uint256 _amount, uint256 _withheld);\r\n    event EtherDividendReclaimed(address indexed _claimer, uint256 indexed _dividendIndex, uint256 _claimedAmount);\r\n    event EtherDividendClaimFailed(address indexed _payee, uint256 indexed _dividendIndex, uint256 _amount, uint256 _withheld);\r\n    event EtherDividendWithholdingWithdrawn(address indexed _claimer, uint256 indexed _dividendIndex, uint256 _withheldAmount);\r\n\r\n    /**\r\n     * @notice Constructor\r\n     * @param _securityToken Address of the security token\r\n     * @param _polyAddress Address of the polytoken\r\n     */\r\n    constructor (address _securityToken, address _polyAddress) public\r\n    Module(_securityToken, _polyAddress)\r\n    {\r\n    }\r\n\r\n    /**\r\n     * @notice Creates a dividend and checkpoint for the dividend, using global list of excluded addresses\r\n     * @param _maturity Time from which dividend can be paid\r\n     * @param _expiry Time until dividend can no longer be paid, and can be reclaimed by issuer\r\n     * @param _name Name/title for identification\r\n     */\r\n    function createDividend(uint256 _maturity, uint256 _expiry, bytes32 _name) external payable withPerm(MANAGE) {\r\n        createDividendWithExclusions(_maturity, _expiry, excluded, _name);\r\n    }\r\n\r\n    /**\r\n     * @notice Creates a dividend with a provided checkpoint, using global list of excluded addresses\r\n     * @param _maturity Time from which dividend can be paid\r\n     * @param _expiry Time until dividend can no longer be paid, and can be reclaimed by issuer\r\n     * @param _checkpointId Id of the checkpoint from which to issue dividend\r\n     * @param _name Name/title for identification\r\n     */\r\n    function createDividendWithCheckpoint(\r\n        uint256 _maturity,\r\n        uint256 _expiry,\r\n        uint256 _checkpointId,\r\n        bytes32 _name\r\n    )\r\n        external\r\n        payable\r\n        withPerm(MANAGE)\r\n    {\r\n        _createDividendWithCheckpointAndExclusions(_maturity, _expiry, _checkpointId, excluded, _name);\r\n    }\r\n\r\n    /**\r\n     * @notice Creates a dividend and checkpoint for the dividend, specifying explicit excluded addresses\r\n     * @param _maturity Time from which dividend can be paid\r\n     * @param _expiry Time until dividend can no longer be paid, and can be reclaimed by issuer\r\n     * @param _excluded List of addresses to exclude\r\n     * @param _name Name/title for identification\r\n     */\r\n    function createDividendWithExclusions(\r\n        uint256 _maturity,\r\n        uint256 _expiry,\r\n        address[] _excluded,\r\n        bytes32 _name\r\n    )\r\n        public\r\n        payable\r\n        withPerm(MANAGE)\r\n    {\r\n        uint256 checkpointId = ISecurityToken(securityToken).createCheckpoint();\r\n        _createDividendWithCheckpointAndExclusions(_maturity, _expiry, checkpointId, _excluded, _name);\r\n    }\r\n\r\n    /**\r\n     * @notice Creates a dividend with a provided checkpoint, specifying explicit excluded addresses\r\n     * @param _maturity Time from which dividend can be paid\r\n     * @param _expiry Time until dividend can no longer be paid, and can be reclaimed by issuer\r\n     * @param _checkpointId Id of the checkpoint from which to issue dividend\r\n     * @param _excluded List of addresses to exclude\r\n     * @param _name Name/title for identification\r\n     */\r\n    function createDividendWithCheckpointAndExclusions(\r\n        uint256 _maturity,\r\n        uint256 _expiry,\r\n        uint256 _checkpointId,\r\n        address[] _excluded,\r\n        bytes32 _name\r\n    )\r\n        public\r\n        payable\r\n        withPerm(MANAGE)\r\n    {\r\n        _createDividendWithCheckpointAndExclusions(_maturity, _expiry, _checkpointId, _excluded, _name);\r\n    }\r\n\r\n    /**\r\n     * @notice Creates a dividend with a provided checkpoint, specifying explicit excluded addresses\r\n     * @param _maturity Time from which dividend can be paid\r\n     * @param _expiry Time until dividend can no longer be paid, and can be reclaimed by issuer\r\n     * @param _checkpointId Id of the checkpoint from which to issue dividend\r\n     * @param _excluded List of addresses to exclude\r\n     * @param _name Name/title for identification\r\n     */\r\n    function _createDividendWithCheckpointAndExclusions(\r\n        uint256 _maturity,\r\n        uint256 _expiry,\r\n        uint256 _checkpointId,\r\n        address[] _excluded,\r\n        bytes32 _name\r\n    )\r\n        internal\r\n    {\r\n        require(_excluded.length <= EXCLUDED_ADDRESS_LIMIT, \"Too many addresses excluded\");\r\n        require(_expiry > _maturity, \"Expiry is before maturity\");\r\n        /*solium-disable-next-line security/no-block-members*/\r\n        require(_expiry > now, \"Expiry is in the past\");\r\n        require(msg.value > 0, \"No dividend sent\");\r\n        require(_checkpointId <= ISecurityToken(securityToken).currentCheckpointId());\r\n        require(_name[0] != 0);\r\n        uint256 dividendIndex = dividends.length;\r\n        uint256 currentSupply = ISecurityToken(securityToken).totalSupplyAt(_checkpointId);\r\n        uint256 excludedSupply = 0;\r\n        dividends.push(\r\n          Dividend(\r\n            _checkpointId,\r\n            now, /*solium-disable-line security/no-block-members*/\r\n            _maturity,\r\n            _expiry,\r\n            msg.value,\r\n            0,\r\n            0,\r\n            false,\r\n            0,\r\n            0,\r\n            _name\r\n          )\r\n        );\r\n\r\n        for (uint256 j = 0; j < _excluded.length; j++) {\r\n            require (_excluded[j] != address(0), \"Invalid address\");\r\n            require(!dividends[dividendIndex].dividendExcluded[_excluded[j]], \"duped exclude address\");\r\n            excludedSupply = excludedSupply.add(ISecurityToken(securityToken).balanceOfAt(_excluded[j], _checkpointId));\r\n            dividends[dividendIndex].dividendExcluded[_excluded[j]] = true;\r\n        }\r\n        dividends[dividendIndex].totalSupply = currentSupply.sub(excludedSupply);\r\n        /*solium-disable-next-line security/no-block-members*/\r\n        emit EtherDividendDeposited(msg.sender, _checkpointId, now, _maturity, _expiry, msg.value, currentSupply, dividendIndex, _name);\r\n    }\r\n\r\n    /**\r\n     * @notice Internal function for paying dividends\r\n     * @param _payee address of investor\r\n     * @param _dividend storage with previously issued dividends\r\n     * @param _dividendIndex Dividend to pay\r\n     */\r\n    function _payDividend(address _payee, Dividend storage _dividend, uint256 _dividendIndex) internal {\r\n        (uint256 claim, uint256 withheld) = calculateDividend(_dividendIndex, _payee);\r\n        _dividend.claimed[_payee] = true;\r\n        uint256 claimAfterWithheld = claim.sub(withheld);\r\n        if (claimAfterWithheld > 0) {\r\n            /*solium-disable-next-line security/no-send*/\r\n            if (_payee.send(claimAfterWithheld)) {\r\n                _dividend.claimedAmount = _dividend.claimedAmount.add(claim);\r\n                if (withheld > 0) {\r\n                    _dividend.totalWithheld = _dividend.totalWithheld.add(withheld);\r\n                    _dividend.withheld[_payee] = withheld;\r\n                }\r\n                emit EtherDividendClaimed(_payee, _dividendIndex, claim, withheld);\r\n            } else {\r\n                _dividend.claimed[_payee] = false;\r\n                emit EtherDividendClaimFailed(_payee, _dividendIndex, claim, withheld);\r\n            }\r\n        }\r\n    }\r\n\r\n    /**\r\n     * @notice Issuer can reclaim remaining unclaimed dividend amounts, for expired dividends\r\n     * @param _dividendIndex Dividend to reclaim\r\n     */\r\n    function reclaimDividend(uint256 _dividendIndex) external withPerm(MANAGE) {\r\n        require(_dividendIndex < dividends.length, \"Incorrect dividend index\");\r\n        /*solium-disable-next-line security/no-block-members*/\r\n        require(now >= dividends[_dividendIndex].expiry, \"Dividend expiry is in the future\");\r\n        require(!dividends[_dividendIndex].reclaimed, \"Dividend is already claimed\");\r\n        Dividend storage dividend = dividends[_dividendIndex];\r\n        dividend.reclaimed = true;\r\n        uint256 remainingAmount = dividend.amount.sub(dividend.claimedAmount);\r\n        wallet.transfer(remainingAmount);\r\n        emit EtherDividendReclaimed(wallet, _dividendIndex, remainingAmount);\r\n    }\r\n\r\n    /**\r\n     * @notice Allows issuer to withdraw withheld tax\r\n     * @param _dividendIndex Dividend to withdraw from\r\n     */\r\n    function withdrawWithholding(uint256 _dividendIndex) external withPerm(MANAGE) {\r\n        require(_dividendIndex < dividends.length, \"Incorrect dividend index\");\r\n        Dividend storage dividend = dividends[_dividendIndex];\r\n        uint256 remainingWithheld = dividend.totalWithheld.sub(dividend.totalWithheldWithdrawn);\r\n        dividend.totalWithheldWithdrawn = dividend.totalWithheld;\r\n        wallet.transfer(remainingWithheld);\r\n        emit EtherDividendWithholdingWithdrawn(wallet, _dividendIndex, remainingWithheld);\r\n    }\r\n\r\n}\r\n",
  "sourcePath": "/Users/jere/Code/polymath-apps/packages/new-polymath-scripts/src/generateLocalBlockchain/contracts/modules/Checkpoint/EtherDividendCheckpoint.sol",
  "compiler": {
    "name": "solc",
    "version": "0.4.24+commit.e67f0147.Emscripten.clang"
  },
  "schemaVersion": "2.0.1",
  "updatedAt": "2019-02-05T23:15:00.224Z"
}