{
  "contractName": "GeneralTransferManagerStorage",
  "abi": [
    {
      "constant": true,
      "inputs": [],
      "name": "allowAllBurnTransfers",
      "outputs": [
        {
          "name": "",
          "type": "bool"
        }
      ],
      "payable": false,
      "stateMutability": "view",
      "type": "function"
    },
    {
      "constant": true,
      "inputs": [],
      "name": "WHITELIST",
      "outputs": [
        {
          "name": "",
          "type": "bytes32"
        }
      ],
      "payable": false,
      "stateMutability": "view",
      "type": "function"
    },
    {
      "constant": true,
      "inputs": [],
      "name": "allowAllWhitelistTransfers",
      "outputs": [
        {
          "name": "",
          "type": "bool"
        }
      ],
      "payable": false,
      "stateMutability": "view",
      "type": "function"
    },
    {
      "constant": true,
      "inputs": [
        {
          "name": "",
          "type": "uint256"
        }
      ],
      "name": "investors",
      "outputs": [
        {
          "name": "",
          "type": "address"
        }
      ],
      "payable": false,
      "stateMutability": "view",
      "type": "function"
    },
    {
      "constant": true,
      "inputs": [],
      "name": "FLAGS",
      "outputs": [
        {
          "name": "",
          "type": "bytes32"
        }
      ],
      "payable": false,
      "stateMutability": "view",
      "type": "function"
    },
    {
      "constant": true,
      "inputs": [
        {
          "name": "",
          "type": "address"
        }
      ],
      "name": "whitelist",
      "outputs": [
        {
          "name": "fromTime",
          "type": "uint64"
        },
        {
          "name": "toTime",
          "type": "uint64"
        },
        {
          "name": "expiryTime",
          "type": "uint64"
        },
        {
          "name": "canBuyFromSTO",
          "type": "uint8"
        },
        {
          "name": "added",
          "type": "uint8"
        }
      ],
      "payable": false,
      "stateMutability": "view",
      "type": "function"
    },
    {
      "constant": true,
      "inputs": [
        {
          "name": "",
          "type": "address"
        },
        {
          "name": "",
          "type": "uint256"
        }
      ],
      "name": "nonceMap",
      "outputs": [
        {
          "name": "",
          "type": "bool"
        }
      ],
      "payable": false,
      "stateMutability": "view",
      "type": "function"
    },
    {
      "constant": true,
      "inputs": [],
      "name": "allowAllTransfers",
      "outputs": [
        {
          "name": "",
          "type": "bool"
        }
      ],
      "payable": false,
      "stateMutability": "view",
      "type": "function"
    },
    {
      "constant": true,
      "inputs": [],
      "name": "signingAddress",
      "outputs": [
        {
          "name": "",
          "type": "address"
        }
      ],
      "payable": false,
      "stateMutability": "view",
      "type": "function"
    },
    {
      "constant": true,
      "inputs": [],
      "name": "issuanceAddress",
      "outputs": [
        {
          "name": "",
          "type": "address"
        }
      ],
      "payable": false,
      "stateMutability": "view",
      "type": "function"
    },
    {
      "constant": true,
      "inputs": [],
      "name": "allowAllWhitelistIssuances",
      "outputs": [
        {
          "name": "",
          "type": "bool"
        }
      ],
      "payable": false,
      "stateMutability": "view",
      "type": "function"
    },
    {
      "constant": true,
      "inputs": [],
      "name": "defaults",
      "outputs": [
        {
          "name": "fromTime",
          "type": "uint64"
        },
        {
          "name": "toTime",
          "type": "uint64"
        }
      ],
      "payable": false,
      "stateMutability": "view",
      "type": "function"
    }
  ],
  "bytecode": "0x608060405260008054600160a060020a03199081169091556001805490911690556006805463ff0000001962ffffff19909116620100001716905534801561004657600080fd5b50610483806100566000396000f3006080604052600436106100b95763ffffffff7c0100000000000000000000000000000000000000000000000000000000600035041663144b8afa81146100be5780631bb7cc99146100e75780632909a80e1461010e5780633feb5f2b146101235780639728538f146101645780639b19251a146101795780639ba0b7c0146101e8578063b1dd811114610219578063b3e82dc91461022e578063b3fac8ce14610243578063e55d0f8b14610258578063edb7a6fa1461026d575b600080fd5b3480156100ca57600080fd5b506100d36102a9565b604080519115158252519081900360200190f35b3480156100f357600080fd5b506100fc6102b9565b60408051918252519081900360200190f35b34801561011a57600080fd5b506100d36102dd565b34801561012f57600080fd5b5061013b6004356102eb565b6040805173ffffffffffffffffffffffffffffffffffffffff9092168252519081900360200190f35b34801561017057600080fd5b506100fc610320565b34801561018557600080fd5b506101a773ffffffffffffffffffffffffffffffffffffffff60043516610344565b6040805167ffffffffffffffff96871681529486166020860152929094168383015260ff908116606084015292909216608082015290519081900360a00190f35b3480156101f457600080fd5b506100d373ffffffffffffffffffffffffffffffffffffffff600435166024356103c7565b34801561022557600080fd5b506100d36103e7565b34801561023a57600080fd5b5061013b6103f0565b34801561024f57600080fd5b5061013b61040c565b34801561026457600080fd5b506100d3610428565b34801561027957600080fd5b50610282610437565b6040805167ffffffffffffffff938416815291909216602082015281519081900390910190f35b6006546301000000900460ff1681565b7f57484954454c495354000000000000000000000000000000000000000000000081565b600654610100900460ff1681565b60038054829081106102f957fe5b60009182526020909120015473ffffffffffffffffffffffffffffffffffffffff16905081565b7f464c41475300000000000000000000000000000000000000000000000000000081565b60046020526000908152604090205467ffffffffffffffff808216916801000000000000000081048216917001000000000000000000000000000000008204169060ff7801000000000000000000000000000000000000000000000000820481169179010000000000000000000000000000000000000000000000000090041685565b600560209081526000928352604080842090915290825290205460ff1681565b60065460ff1681565b60015473ffffffffffffffffffffffffffffffffffffffff1681565b60005473ffffffffffffffffffffffffffffffffffffffff1681565b60065462010000900460ff1681565b60025467ffffffffffffffff8082169168010000000000000000900416825600a165627a7a72305820cb0011659cc74cff40bfb106c38cdf104d60194f5de4817aa1d02b4c93c288a00029",
  "source": "pragma solidity ^0.4.24;\n\n/**\n * @title Transfer Manager module for core transfer validation functionality\n */\ncontract GeneralTransferManagerStorage {\n\n    //Address from which issuances come\n    address public issuanceAddress = address(0);\n\n    //Address which can sign whitelist changes\n    address public signingAddress = address(0);\n\n    bytes32 public constant WHITELIST = \"WHITELIST\";\n    bytes32 public constant FLAGS = \"FLAGS\";\n\n    //from and to timestamps that an investor can send / receive tokens respectively\n    struct TimeRestriction {\n        uint64 fromTime;\n        uint64 toTime;\n        uint64 expiryTime;\n        uint8 canBuyFromSTO;\n        uint8 added;\n    }\n\n    // Allows all TimeRestrictions to be offset\n    struct Defaults {\n        uint64 fromTime;\n        uint64 toTime;\n    }\n\n    // Offset to be applied to all timings (except KYC expiry)\n    Defaults public defaults;\n\n    // List of all addresses that have been added to the GTM at some point\n    address[] public investors;\n\n    // An address can only send / receive tokens once their corresponding uint256 > block.number\n    // (unless allowAllTransfers == true or allowAllWhitelistTransfers == true)\n    mapping (address => TimeRestriction) public whitelist;\n    // Map of used nonces by customer\n    mapping(address => mapping(uint256 => bool)) public nonceMap;\n\n    //If true, there are no transfer restrictions, for any addresses\n    bool public allowAllTransfers = false;\n    //If true, time lock is ignored for transfers (address must still be on whitelist)\n    bool public allowAllWhitelistTransfers = false;\n    //If true, time lock is ignored for issuances (address must still be on whitelist)\n    bool public allowAllWhitelistIssuances = true;\n    //If true, time lock is ignored for burn transactions\n    bool public allowAllBurnTransfers = false;\n\n}\n",
  "sourcePath": "/Users/jere/Code/polymath-apps/packages/new-polymath-scripts/src/generateLocalBlockchain/contracts/storage/GeneralTransferManagerStorage.sol",
  "compiler": {
    "name": "solc",
    "version": "0.4.24+commit.e67f0147.Emscripten.clang"
  },
  "schemaVersion": "2.0.1",
  "updatedAt": "2019-02-06T00:34:32.638Z"
}