{
  "contractName": "GeneralTransferManager",
  "abi": [
    {
      "constant": true,
      "inputs": [],
      "name": "allowAllBurnTransfers",
      "outputs": [
        {
          "name": "",
          "type": "bool"
        }
      ],
      "payable": false,
      "stateMutability": "view",
      "type": "function"
    },
    {
      "constant": true,
      "inputs": [],
      "name": "WHITELIST",
      "outputs": [
        {
          "name": "",
          "type": "bytes32"
        }
      ],
      "payable": false,
      "stateMutability": "view",
      "type": "function"
    },
    {
      "constant": true,
      "inputs": [],
      "name": "allowAllWhitelistTransfers",
      "outputs": [
        {
          "name": "",
          "type": "bool"
        }
      ],
      "payable": false,
      "stateMutability": "view",
      "type": "function"
    },
    {
      "constant": false,
      "inputs": [],
      "name": "unpause",
      "outputs": [],
      "payable": false,
      "stateMutability": "nonpayable",
      "type": "function"
    },
    {
      "constant": true,
      "inputs": [],
      "name": "paused",
      "outputs": [
        {
          "name": "",
          "type": "bool"
        }
      ],
      "payable": false,
      "stateMutability": "view",
      "type": "function"
    },
    {
      "constant": false,
      "inputs": [
        {
          "name": "_amount",
          "type": "uint256"
        }
      ],
      "name": "takeFee",
      "outputs": [
        {
          "name": "",
          "type": "bool"
        }
      ],
      "payable": false,
      "stateMutability": "nonpayable",
      "type": "function"
    },
    {
      "constant": true,
      "inputs": [],
      "name": "polyToken",
      "outputs": [
        {
          "name": "",
          "type": "address"
        }
      ],
      "payable": false,
      "stateMutability": "view",
      "type": "function"
    },
    {
      "constant": false,
      "inputs": [],
      "name": "pause",
      "outputs": [],
      "payable": false,
      "stateMutability": "nonpayable",
      "type": "function"
    },
    {
      "constant": true,
      "inputs": [],
      "name": "FLAGS",
      "outputs": [
        {
          "name": "",
          "type": "bytes32"
        }
      ],
      "payable": false,
      "stateMutability": "view",
      "type": "function"
    },
    {
      "constant": true,
      "inputs": [
        {
          "name": "",
          "type": "address"
        }
      ],
      "name": "whitelist",
      "outputs": [
        {
          "name": "fromTime",
          "type": "uint256"
        },
        {
          "name": "toTime",
          "type": "uint256"
        },
        {
          "name": "expiryTime",
          "type": "uint256"
        },
        {
          "name": "canBuyFromSTO",
          "type": "bool"
        }
      ],
      "payable": false,
      "stateMutability": "view",
      "type": "function"
    },
    {
      "constant": true,
      "inputs": [
        {
          "name": "",
          "type": "address"
        },
        {
          "name": "",
          "type": "uint256"
        }
      ],
      "name": "nonceMap",
      "outputs": [
        {
          "name": "",
          "type": "bool"
        }
      ],
      "payable": false,
      "stateMutability": "view",
      "type": "function"
    },
    {
      "constant": true,
      "inputs": [],
      "name": "allowAllTransfers",
      "outputs": [
        {
          "name": "",
          "type": "bool"
        }
      ],
      "payable": false,
      "stateMutability": "view",
      "type": "function"
    },
    {
      "constant": true,
      "inputs": [],
      "name": "signingAddress",
      "outputs": [
        {
          "name": "",
          "type": "address"
        }
      ],
      "payable": false,
      "stateMutability": "view",
      "type": "function"
    },
    {
      "constant": true,
      "inputs": [],
      "name": "issuanceAddress",
      "outputs": [
        {
          "name": "",
          "type": "address"
        }
      ],
      "payable": false,
      "stateMutability": "view",
      "type": "function"
    },
    {
      "constant": true,
      "inputs": [],
      "name": "securityToken",
      "outputs": [
        {
          "name": "",
          "type": "address"
        }
      ],
      "payable": false,
      "stateMutability": "view",
      "type": "function"
    },
    {
      "constant": true,
      "inputs": [],
      "name": "factory",
      "outputs": [
        {
          "name": "",
          "type": "address"
        }
      ],
      "payable": false,
      "stateMutability": "view",
      "type": "function"
    },
    {
      "constant": true,
      "inputs": [],
      "name": "FEE_ADMIN",
      "outputs": [
        {
          "name": "",
          "type": "bytes32"
        }
      ],
      "payable": false,
      "stateMutability": "view",
      "type": "function"
    },
    {
      "constant": true,
      "inputs": [],
      "name": "allowAllWhitelistIssuances",
      "outputs": [
        {
          "name": "",
          "type": "bool"
        }
      ],
      "payable": false,
      "stateMutability": "view",
      "type": "function"
    },
    {
      "inputs": [
        {
          "name": "_securityToken",
          "type": "address"
        },
        {
          "name": "_polyAddress",
          "type": "address"
        }
      ],
      "payable": false,
      "stateMutability": "nonpayable",
      "type": "constructor"
    },
    {
      "anonymous": false,
      "inputs": [
        {
          "indexed": false,
          "name": "_issuanceAddress",
          "type": "address"
        }
      ],
      "name": "ChangeIssuanceAddress",
      "type": "event"
    },
    {
      "anonymous": false,
      "inputs": [
        {
          "indexed": false,
          "name": "_allowAllTransfers",
          "type": "bool"
        }
      ],
      "name": "AllowAllTransfers",
      "type": "event"
    },
    {
      "anonymous": false,
      "inputs": [
        {
          "indexed": false,
          "name": "_allowAllWhitelistTransfers",
          "type": "bool"
        }
      ],
      "name": "AllowAllWhitelistTransfers",
      "type": "event"
    },
    {
      "anonymous": false,
      "inputs": [
        {
          "indexed": false,
          "name": "_allowAllWhitelistIssuances",
          "type": "bool"
        }
      ],
      "name": "AllowAllWhitelistIssuances",
      "type": "event"
    },
    {
      "anonymous": false,
      "inputs": [
        {
          "indexed": false,
          "name": "_allowAllBurnTransfers",
          "type": "bool"
        }
      ],
      "name": "AllowAllBurnTransfers",
      "type": "event"
    },
    {
      "anonymous": false,
      "inputs": [
        {
          "indexed": false,
          "name": "_signingAddress",
          "type": "address"
        }
      ],
      "name": "ChangeSigningAddress",
      "type": "event"
    },
    {
      "anonymous": false,
      "inputs": [
        {
          "indexed": false,
          "name": "_investor",
          "type": "address"
        },
        {
          "indexed": false,
          "name": "_dateAdded",
          "type": "uint256"
        },
        {
          "indexed": false,
          "name": "_addedBy",
          "type": "address"
        },
        {
          "indexed": false,
          "name": "_fromTime",
          "type": "uint256"
        },
        {
          "indexed": false,
          "name": "_toTime",
          "type": "uint256"
        },
        {
          "indexed": false,
          "name": "_expiryTime",
          "type": "uint256"
        },
        {
          "indexed": false,
          "name": "_canBuyFromSTO",
          "type": "bool"
        }
      ],
      "name": "ModifyWhitelist",
      "type": "event"
    },
    {
      "anonymous": false,
      "inputs": [
        {
          "indexed": false,
          "name": "_timestammp",
          "type": "uint256"
        }
      ],
      "name": "Pause",
      "type": "event"
    },
    {
      "anonymous": false,
      "inputs": [
        {
          "indexed": false,
          "name": "_timestamp",
          "type": "uint256"
        }
      ],
      "name": "Unpause",
      "type": "event"
    },
    {
      "constant": true,
      "inputs": [],
      "name": "getInitFunction",
      "outputs": [
        {
          "name": "",
          "type": "bytes4"
        }
      ],
      "payable": false,
      "stateMutability": "pure",
      "type": "function"
    },
    {
      "constant": false,
      "inputs": [
        {
          "name": "_issuanceAddress",
          "type": "address"
        }
      ],
      "name": "changeIssuanceAddress",
      "outputs": [],
      "payable": false,
      "stateMutability": "nonpayable",
      "type": "function"
    },
    {
      "constant": false,
      "inputs": [
        {
          "name": "_signingAddress",
          "type": "address"
        }
      ],
      "name": "changeSigningAddress",
      "outputs": [],
      "payable": false,
      "stateMutability": "nonpayable",
      "type": "function"
    },
    {
      "constant": false,
      "inputs": [
        {
          "name": "_allowAllTransfers",
          "type": "bool"
        }
      ],
      "name": "changeAllowAllTransfers",
      "outputs": [],
      "payable": false,
      "stateMutability": "nonpayable",
      "type": "function"
    },
    {
      "constant": false,
      "inputs": [
        {
          "name": "_allowAllWhitelistTransfers",
          "type": "bool"
        }
      ],
      "name": "changeAllowAllWhitelistTransfers",
      "outputs": [],
      "payable": false,
      "stateMutability": "nonpayable",
      "type": "function"
    },
    {
      "constant": false,
      "inputs": [
        {
          "name": "_allowAllWhitelistIssuances",
          "type": "bool"
        }
      ],
      "name": "changeAllowAllWhitelistIssuances",
      "outputs": [],
      "payable": false,
      "stateMutability": "nonpayable",
      "type": "function"
    },
    {
      "constant": false,
      "inputs": [
        {
          "name": "_allowAllBurnTransfers",
          "type": "bool"
        }
      ],
      "name": "changeAllowAllBurnTransfers",
      "outputs": [],
      "payable": false,
      "stateMutability": "nonpayable",
      "type": "function"
    },
    {
      "constant": false,
      "inputs": [
        {
          "name": "_from",
          "type": "address"
        },
        {
          "name": "_to",
          "type": "address"
        },
        {
          "name": "",
          "type": "uint256"
        },
        {
          "name": "",
          "type": "bytes"
        },
        {
          "name": "",
          "type": "bool"
        }
      ],
      "name": "verifyTransfer",
      "outputs": [
        {
          "name": "",
          "type": "uint8"
        }
      ],
      "payable": false,
      "stateMutability": "nonpayable",
      "type": "function"
    },
    {
      "constant": false,
      "inputs": [
        {
          "name": "_investor",
          "type": "address"
        },
        {
          "name": "_fromTime",
          "type": "uint256"
        },
        {
          "name": "_toTime",
          "type": "uint256"
        },
        {
          "name": "_expiryTime",
          "type": "uint256"
        },
        {
          "name": "_canBuyFromSTO",
          "type": "bool"
        }
      ],
      "name": "modifyWhitelist",
      "outputs": [],
      "payable": false,
      "stateMutability": "nonpayable",
      "type": "function"
    },
    {
      "constant": false,
      "inputs": [
        {
          "name": "_investors",
          "type": "address[]"
        },
        {
          "name": "_fromTimes",
          "type": "uint256[]"
        },
        {
          "name": "_toTimes",
          "type": "uint256[]"
        },
        {
          "name": "_expiryTimes",
          "type": "uint256[]"
        },
        {
          "name": "_canBuyFromSTO",
          "type": "bool[]"
        }
      ],
      "name": "modifyWhitelistMulti",
      "outputs": [],
      "payable": false,
      "stateMutability": "nonpayable",
      "type": "function"
    },
    {
      "constant": false,
      "inputs": [
        {
          "name": "_investor",
          "type": "address"
        },
        {
          "name": "_fromTime",
          "type": "uint256"
        },
        {
          "name": "_toTime",
          "type": "uint256"
        },
        {
          "name": "_expiryTime",
          "type": "uint256"
        },
        {
          "name": "_canBuyFromSTO",
          "type": "bool"
        },
        {
          "name": "_validFrom",
          "type": "uint256"
        },
        {
          "name": "_validTo",
          "type": "uint256"
        },
        {
          "name": "_nonce",
          "type": "uint256"
        },
        {
          "name": "_v",
          "type": "uint8"
        },
        {
          "name": "_r",
          "type": "bytes32"
        },
        {
          "name": "_s",
          "type": "bytes32"
        }
      ],
      "name": "modifyWhitelistSigned",
      "outputs": [],
      "payable": false,
      "stateMutability": "nonpayable",
      "type": "function"
    },
    {
      "constant": true,
      "inputs": [],
      "name": "getPermissions",
      "outputs": [
        {
          "name": "",
          "type": "bytes32[]"
        }
      ],
      "payable": false,
      "stateMutability": "view",
      "type": "function"
    }
  ],
  "bytecode": "0x60806040526002805460a060020a60ff021916905560038054600160a060020a03199081169091556004805490911690556007805463ff0000001962ffffff19909116620100001716905534801561005657600080fd5b506040516040806129f783398101604052805160209091015160018054600160a060020a03938416600160a060020a0319918216179091556000805482163317905560028054939092169216919091179055612940806100b76000396000f3006080604052600436106101665763ffffffff60e060020a6000350416630f28937c811461016b578063144b8afa146102a65780631613ec9d146102cf5780631bb7cc99146103195780632909a80e146103405780633f0547bb146103555780633f4ba83a1461036f5780634caaf45f146103845780635c975abb146103a55780635f7619a4146103ba5780636faa22a5146103d25780637ecc866f146104035780638456cb591461041d5780639332b62c146104325780639728538f1461044c5780639b19251a146104615780639ba0b7c0146104aa578063b1dd8111146104ce578063b3e82dc9146104e3578063b3fac8ce146104f8578063b84dfbd21461050d578063c3a07df614610522578063c45a015514610587578063d70afa961461059c578063d7604a78146105b1578063de6ee1bc146105e0578063e0c6815814610677578063e55d0f8b14610698578063e8a28d52146106ad578063f5c19231146106c7575b600080fd5b34801561017757600080fd5b50604080516020600480358082013583810280860185019096528085526102a495369593946024949385019291829185019084908082843750506040805187358901803560208181028481018201909552818452989b9a998901989297509082019550935083925085019084908082843750506040805187358901803560208181028481018201909552818452989b9a998901989297509082019550935083925085019084908082843750506040805187358901803560208181028481018201909552818452989b9a998901989297509082019550935083925085019084908082843750506040805187358901803560208181028481018201909552818452989b9a99890198929750908201955093508392508501908490808284375094975061070e9650505050505050565b005b3480156102b257600080fd5b506102bb610a9e565b604080519115158252519081900360200190f35b3480156102db57600080fd5b506102e4610aae565b604080517fffffffff000000000000000000000000000000000000000000000000000000009092168252519081900360200190f35b34801561032557600080fd5b5061032e610ab3565b60408051918252519081900360200190f35b34801561034c57600080fd5b506102bb610ac5565b34801561036157600080fd5b506102a46004351515610ad3565b34801561037b57600080fd5b506102a4610ca0565b34801561039057600080fd5b506102a4600160a060020a0360043516610d88565b3480156103b157600080fd5b506102bb610f6f565b3480156103c657600080fd5b506102bb600435610f7f565b3480156103de57600080fd5b506103e761129b565b60408051600160a060020a039092168252519081900360200190f35b34801561040f57600080fd5b506102a460043515156112aa565b34801561042957600080fd5b506102a4611481565b34801561043e57600080fd5b506102a46004351515611567565b34801561045857600080fd5b5061032e61173c565b34801561046d57600080fd5b50610482600160a060020a036004351661174b565b6040805194855260208501939093528383019190915215156060830152519081900360800190f35b3480156104b657600080fd5b506102bb600160a060020a0360043516602435611775565b3480156104da57600080fd5b506102bb611795565b3480156104ef57600080fd5b506103e761179e565b34801561050457600080fd5b506103e76117ad565b34801561051957600080fd5b506103e76117bc565b34801561052e57600080fd5b506105376117cb565b60408051602080825283518183015283519192839290830191858101910280838360005b8381101561057357818101518382015260200161055b565b505050509050019250505060405180910390f35b34801561059357600080fd5b506103e7611842565b3480156105a857600080fd5b5061032e611851565b3480156105bd57600080fd5b506102a4600160a060020a03600435166024356044356064356084351515611875565b3480156105ec57600080fd5b50604080516020601f60643560048181013592830184900484028501840190955281845261065394600160a060020a038135811695602480359092169560443595369560849401918190840183828082843750949750505050913515159250611b1e915050565b6040518082600381111561066357fe5b60ff16815260200191505060405180910390f35b34801561068357600080fd5b506102a4600160a060020a0360043516611c9c565b3480156106a457600080fd5b506102bb611e83565b3480156106b957600080fd5b506102a46004351515611e92565b3480156106d357600080fd5b506102a4600160a060020a0360043516602435604435606435608435151560a43560c43560e43560ff6101043516610124356101443561206b565b60006000805160206128d5833981519152600080600160009054906101000a9004600160a060020a0316600160a060020a0316638da5cb5b6040518163ffffffff1660e060020a028152600401602060405180830381600087803b15801561077557600080fd5b505af1158015610789573d6000803e3d6000fd5b505050506040513d602081101561079f57600080fd5b505160005433600160a060020a0392831681149450911614905081806107c25750805b8061085257506001546040805160e060020a638658b8b9028152336004820152306024820152604481018690529051600160a060020a0390921691638658b8b9916064808201926020929091908290030181600087803b15801561082557600080fd5b505af1158015610839573d6000803e3d6000fd5b505050506040513d602081101561084f57600080fd5b50515b1515610896576040805160e560020a62461bcd02815260206004820152601760248201526000805160206128f5833981519152604482015290519081900360640190fd5b87518951146108ef576040805160e560020a62461bcd02815260206004820152601860248201527f4d69736d61746368656420696e707574206c656e677468730000000000000000604482015290519081900360640190fd5b8651885114610948576040805160e560020a62461bcd02815260206004820152601860248201527f4d69736d61746368656420696e707574206c656e677468730000000000000000604482015290519081900360640190fd5b85518751146109a1576040805160e560020a62461bcd02815260206004820152601860248201527f4d69736d61746368656420696e707574206c656e677468730000000000000000604482015290519081900360640190fd5b86518551146109fa576040805160e560020a62461bcd02815260206004820152601760248201527f4d69736d61746368656420696e707574206c656e677468000000000000000000604482015290519081900360640190fd5b600093505b8851841015610a9357610a888985815181101515610a1957fe5b906020019060200201518986815181101515610a3157fe5b906020019060200201518987815181101515610a4957fe5b906020019060200201518988815181101515610a6157fe5b906020019060200201518989815181101515610a7957fe5b90602001906020020151611875565b6001909301926109ff565b505050505050505050565b6007546301000000900460ff1681565b600090565b6000805160206128d583398151915281565b600754610100900460ff1681565b60d860020a64464c41475302600080600160009054906101000a9004600160a060020a0316600160a060020a0316638da5cb5b6040518163ffffffff1660e060020a028152600401602060405180830381600087803b158015610b3557600080fd5b505af1158015610b49573d6000803e3d6000fd5b505050506040513d6020811015610b5f57600080fd5b505160005433600160a060020a039283168114945091161490508180610b825750805b80610c1257506001546040805160e060020a638658b8b9028152336004820152306024820152604481018690529051600160a060020a0390921691638658b8b9916064808201926020929091908290030181600087803b158015610be557600080fd5b505af1158015610bf9573d6000803e3d6000fd5b505050506040513d6020811015610c0f57600080fd5b50515b1515610c56576040805160e560020a62461bcd02815260206004820152601760248201526000805160206128f5833981519152604482015290519081900360640190fd5b6007805485151560ff19909116811790915560408051918252517fae2c9b7ebf181a59fcf3d24127f903b5b0345b3b81454442bebdee22b3aabde99181900360200190a150505050565b600160009054906101000a9004600160a060020a0316600160a060020a0316638da5cb5b6040518163ffffffff1660e060020a028152600401602060405180830381600087803b158015610cf357600080fd5b505af1158015610d07573d6000803e3d6000fd5b505050506040513d6020811015610d1d57600080fd5b5051600160a060020a03163314610d7e576040805160e560020a62461bcd02815260206004820152601360248201527f53656e646572206973206e6f74206f776e657200000000000000000000000000604482015290519081900360640190fd5b610d866123dc565b565b60d860020a64464c41475302600080600160009054906101000a9004600160a060020a0316600160a060020a0316638da5cb5b6040518163ffffffff1660e060020a028152600401602060405180830381600087803b158015610dea57600080fd5b505af1158015610dfe573d6000803e3d6000fd5b505050506040513d6020811015610e1457600080fd5b505160005433600160a060020a039283168114945091161490508180610e375750805b80610ec757506001546040805160e060020a638658b8b9028152336004820152306024820152604481018690529051600160a060020a0390921691638658b8b9916064808201926020929091908290030181600087803b158015610e9a57600080fd5b505af1158015610eae573d6000803e3d6000fd5b505050506040513d6020811015610ec457600080fd5b50515b1515610f0b576040805160e560020a62461bcd02815260206004820152601760248201526000805160206128f5833981519152604482015290519081900360640190fd5b60048054600160a060020a03861673ffffffffffffffffffffffffffffffffffffffff19909116811790915560408051918252517f82ef67454f9b99f9e532e149d0fd486c3460e5b8cb68c47a3a95a2ffb8e1fe369181900360200190a150505050565b60025460a060020a900460ff1681565b60007f4645455f41444d494e0000000000000000000000000000000000000000000000600080600160009054906101000a9004600160a060020a0316600160a060020a0316638da5cb5b6040518163ffffffff1660e060020a028152600401602060405180830381600087803b158015610ff857600080fd5b505af115801561100c573d6000803e3d6000fd5b505050506040513d602081101561102257600080fd5b505160005433600160a060020a0392831681149450911614905081806110455750805b806110d557506001546040805160e060020a638658b8b9028152336004820152306024820152604481018690529051600160a060020a0390921691638658b8b9916064808201926020929091908290030181600087803b1580156110a857600080fd5b505af11580156110bc573d6000803e3d6000fd5b505050506040513d60208110156110d257600080fd5b50515b1515611119576040805160e560020a62461bcd02815260206004820152601760248201526000805160206128f5833981519152604482015290519081900360640190fd5b60025460015460008054604080517f8da5cb5b0000000000000000000000000000000000000000000000000000000081529051600160a060020a03958616956323b872dd95811694931692638da5cb5b92600480820193602093909283900390910190829087803b15801561118d57600080fd5b505af11580156111a1573d6000803e3d6000fd5b505050506040513d60208110156111b757600080fd5b50516040805160e060020a63ffffffff8616028152600160a060020a039384166004820152929091166024830152604482018990525160648083019260209291908290030181600087803b15801561120e57600080fd5b505af1158015611222573d6000803e3d6000fd5b505050506040513d602081101561123857600080fd5b50511515611290576040805160e560020a62461bcd02815260206004820152601260248201527f556e61626c6520746f2074616b65206665650000000000000000000000000000604482015290519081900360640190fd5b506001949350505050565b600254600160a060020a031681565b60d860020a64464c41475302600080600160009054906101000a9004600160a060020a0316600160a060020a0316638da5cb5b6040518163ffffffff1660e060020a028152600401602060405180830381600087803b15801561130c57600080fd5b505af1158015611320573d6000803e3d6000fd5b505050506040513d602081101561133657600080fd5b505160005433600160a060020a0392831681149450911614905081806113595750805b806113e957506001546040805160e060020a638658b8b9028152336004820152306024820152604481018690529051600160a060020a0390921691638658b8b9916064808201926020929091908290030181600087803b1580156113bc57600080fd5b505af11580156113d0573d6000803e3d6000fd5b505050506040513d60208110156113e657600080fd5b50515b151561142d576040805160e560020a62461bcd02815260206004820152601760248201526000805160206128f5833981519152604482015290519081900360640190fd5b6007805485151562010000810262ff0000199092169190911790915560408051918252517f83c2e8b0976b04b49f0e5828c064a239880ff3d68d2f14ffdd30a31bb734d1939181900360200190a150505050565b600160009054906101000a9004600160a060020a0316600160a060020a0316638da5cb5b6040518163ffffffff1660e060020a028152600401602060405180830381600087803b1580156114d457600080fd5b505af11580156114e8573d6000803e3d6000fd5b505050506040513d60208110156114fe57600080fd5b5051600160a060020a0316331461155f576040805160e560020a62461bcd02815260206004820152601360248201527f53656e646572206973206e6f74206f776e657200000000000000000000000000604482015290519081900360640190fd5b610d86612492565b60d860020a64464c41475302600080600160009054906101000a9004600160a060020a0316600160a060020a0316638da5cb5b6040518163ffffffff1660e060020a028152600401602060405180830381600087803b1580156115c957600080fd5b505af11580156115dd573d6000803e3d6000fd5b505050506040513d60208110156115f357600080fd5b505160005433600160a060020a0392831681149450911614905081806116165750805b806116a657506001546040805160e060020a638658b8b9028152336004820152306024820152604481018690529051600160a060020a0390921691638658b8b9916064808201926020929091908290030181600087803b15801561167957600080fd5b505af115801561168d573d6000803e3d6000fd5b505050506040513d60208110156116a357600080fd5b50515b15156116ea576040805160e560020a62461bcd02815260206004820152601760248201526000805160206128f5833981519152604482015290519081900360640190fd5b60078054851515610100810261ff00199092169190911790915560408051918252517f53a6bab5b50dfca289500469494dc3a8d40681a9e6f36feddcf52e56238e5b2f9181900360200190a150505050565b60d860020a64464c4147530281565b60056020526000908152604090208054600182015460028301546003909301549192909160ff1684565b600660209081526000928352604080842090915290825290205460ff1681565b60075460ff1681565b600454600160a060020a031681565b600354600160a060020a031681565b600154600160a060020a031681565b6040805160028082526060808301845292839291906020830190803883390190505090506000805160206128d583398151915281600081518110151561180d57fe5b60209081029091010152805160d860020a64464c41475302908290600190811061183357fe5b60209081029091010152905090565b600054600160a060020a031681565b7f4645455f41444d494e000000000000000000000000000000000000000000000081565b6000805160206128d5833981519152600080600160009054906101000a9004600160a060020a0316600160a060020a0316638da5cb5b6040518163ffffffff1660e060020a028152600401602060405180830381600087803b1580156118da57600080fd5b505af11580156118ee573d6000803e3d6000fd5b505050506040513d602081101561190457600080fd5b505160005433600160a060020a0392831681149450911614905081806119275750805b806119b757506001546040805160e060020a638658b8b9028152336004820152306024820152604481018690529051600160a060020a0390921691638658b8b9916064808201926020929091908290030181600087803b15801561198a57600080fd5b505af115801561199e573d6000803e3d6000fd5b505050506040513d60208110156119b457600080fd5b50515b15156119fb576040805160e560020a62461bcd02815260206004820152601760248201526000805160206128f5833981519152604482015290519081900360640190fd5b608060405190810160405280888152602001878152602001868152602001851515815250600560008a600160a060020a0316600160a060020a0316815260200190815260200160002060008201518160000155602082015181600101556040820151816002015560608201518160030160006101000a81548160ff0219169083151502179055509050507f82f858918377c2e6d8e7bff05724502b64b977f47a83aca1faaabf9036b1ef158842338a8a8a8a6040518088600160a060020a0316600160a060020a0316815260200187815260200186600160a060020a0316600160a060020a031681526020018581526020018481526020018381526020018215151515815260200197505050505050505060405180910390a15050505050505050565b60025460009060a060020a900460ff161515611c8f5760075460ff1615611b4757506002611c93565b6007546301000000900460ff168015611b675750600160a060020a038516155b15611b7457506002611c93565b600754610100900460ff1615611bb257611b8d8561254d565b8015611b9d5750611b9d8661254d565b611ba8576001611bab565b60025b9050611c93565b60075462010000900460ff168015611bd75750600354600160a060020a038781169116145b15611c2157600160a060020a03851660009081526005602052604090206003015460ff16158015611c0b5750611c0b6125ba565b15611c1857506001611c93565b611b9d8561254d565b611c2a8661254d565b8015611c4e5750600160a060020a0386166000908152600560205260409020544210155b8015611b9d5750611c5e8561254d565b8015611b9d5750600160a060020a038516600090815260056020526040902060010154421015611ba8576001611bab565b5060015b95945050505050565b60d860020a64464c41475302600080600160009054906101000a9004600160a060020a0316600160a060020a0316638da5cb5b6040518163ffffffff1660e060020a028152600401602060405180830381600087803b158015611cfe57600080fd5b505af1158015611d12573d6000803e3d6000fd5b505050506040513d6020811015611d2857600080fd5b505160005433600160a060020a039283168114945091161490508180611d4b5750805b80611ddb57506001546040805160e060020a638658b8b9028152336004820152306024820152604481018690529051600160a060020a0390921691638658b8b9916064808201926020929091908290030181600087803b158015611dae57600080fd5b505af1158015611dc2573d6000803e3d6000fd5b505050506040513d6020811015611dd857600080fd5b50515b1515611e1f576040805160e560020a62461bcd02815260206004820152601760248201526000805160206128f5833981519152604482015290519081900360640190fd5b60038054600160a060020a03861673ffffffffffffffffffffffffffffffffffffffff19909116811790915560408051918252517fc2f94c1edade7e889be574a1c807f58a5f5e38d4f75da71514d59777c1811bce9181900360200190a150505050565b60075462010000900460ff1681565b60d860020a64464c41475302600080600160009054906101000a9004600160a060020a0316600160a060020a0316638da5cb5b6040518163ffffffff1660e060020a028152600401602060405180830381600087803b158015611ef457600080fd5b505af1158015611f08573d6000803e3d6000fd5b505050506040513d6020811015611f1e57600080fd5b505160005433600160a060020a039283168114945091161490508180611f415750805b80611fd157506001546040805160e060020a638658b8b9028152336004820152306024820152604481018690529051600160a060020a0390921691638658b8b9916064808201926020929091908290030181600087803b158015611fa457600080fd5b505af1158015611fb8573d6000803e3d6000fd5b505050506040513d6020811015611fce57600080fd5b50515b1515612015576040805160e560020a62461bcd02815260206004820152601760248201526000805160206128f5833981519152604482015290519081900360640190fd5b600780548515156301000000810263ff000000199092169190911790915560408051918252517f9fe8a9db1e7351be9db0119ccb2556d18d98181683fc59d9556fbc510a844be29181900360200190a150505050565b6000428711156120c5576040805160e560020a62461bcd02815260206004820152601660248201527f56616c696446726f6d20697320746f6f206561726c7900000000000000000000604482015290519081900360640190fd5b4286101561211d576040805160e560020a62461bcd02815260206004820152601360248201527f56616c6964546f20697320746f6f206c61746500000000000000000000000000604482015290519081900360640190fd5b600160a060020a038c16600090815260066020908152604080832088845290915290205460ff1615612199576040805160e560020a62461bcd02815260206004820152601660248201527f416c72656164792075736564207369676e617475726500000000000000000000604482015290519081900360640190fd5b600160a060020a038c166000818152600660209081526040808320898452825291829020805460ff1916600117905581516c01000000000000000000000000308102828401529093026034840152604883018e9052606883018d9052608883018c90527f01000000000000000000000000000000000000000000000000000000000000008b15150260a884015260a983018a905260c9830189905260e98084018990528251808503909101815261010990930191829052825182918401908083835b6020831061227a5780518252601f19909201916020918201910161225b565b6001836020036101000a038019825116818451168082178552505050505050905001915050604051809103902090506122b5818585856126bb565b6080604051908101604052808c81526020018b81526020018a8152602001891515815250600560008e600160a060020a0316600160a060020a0316815260200190815260200160002060008201518160000155602082015181600101556040820151816002015560608201518160030160006101000a81548160ff0219169083151502179055509050507f82f858918377c2e6d8e7bff05724502b64b977f47a83aca1faaabf9036b1ef158c42338e8e8e8e6040518088600160a060020a0316600160a060020a0316815260200187815260200186600160a060020a0316600160a060020a031681526020018581526020018481526020018381526020018215151515815260200197505050505050505060405180910390a1505050505050505050505050565b60025460a060020a900460ff16151561243f576040805160e560020a62461bcd02815260206004820152601660248201527f436f6e7472616374206973206e6f742070617573656400000000000000000000604482015290519081900360640190fd5b6002805474ff0000000000000000000000000000000000000000191690556040805142815290517faaa520fdd7d2c83061d632fa017b0432407e798818af63ea908589fceda39ab79181900360200190a1565b60025460a060020a900460ff16156124f4576040805160e560020a62461bcd02815260206004820152601260248201527f436f6e7472616374206973207061757365640000000000000000000000000000604482015290519081900360640190fd5b6002805474ff0000000000000000000000000000000000000000191660a060020a1790556040805142815290517f68b095021b1f40fe513109f513c66692f0b3219aee674a69f4efc57badb8201d9181900360200190a1565b600160a060020a03811660009081526005602052604081205415158061258d5750600160a060020a03821660009081526005602052604090206001015415155b80156125b45750600160a060020a0382166000908152600560205260409020600201544211155b92915050565b600154604080517fac90b42200000000000000000000000000000000000000000000000000000000815260036004820152905160009283928392600160a060020a039092169163ac90b42291602480820192869290919082900301818387803b15801561262657600080fd5b505af115801561263a573d6000803e3d6000fd5b505050506040513d6000823e601f3d908101601f19168201604052602081101561266357600080fd5b81019080805164010000000081111561267b57600080fd5b8201602081018481111561268e57600080fd5b81518560208202830111640100000000821117156126ab57600080fd5b5050519390931195945050505050565b600060018560405160200180807f19457468657265756d205369676e6564204d6573736167653a0a333200000000815250601c0182600019166000191681526020019150506040516020818303038152906040526040518082805190602001908083835b6020831061273e5780518252601f19909201916020918201910161271f565b51815160209384036101000a60001901801990921691161790526040805192909401829003822060008084528383018087529190915260ff8c1683860152606083018b9052608083018a9052935160a08084019750919550601f1981019492819003909101925090865af11580156127ba573d6000803e3d6000fd5b505060408051601f198101516001547f8da5cb5b0000000000000000000000000000000000000000000000000000000083529251909450600160a060020a039092169250638da5cb5b9160048083019260209291908290030181600087803b15801561282557600080fd5b505af1158015612839573d6000803e3d6000fd5b505050506040513d602081101561284f57600080fd5b5051600160a060020a03828116911614806128775750600454600160a060020a038281169116145b15156128cd576040805160e560020a62461bcd02815260206004820152601060248201527f496e636f7272656374207369676e657200000000000000000000000000000000604482015290519081900360640190fd5b5050505050560057484954454c49535400000000000000000000000000000000000000000000005065726d697373696f6e20636865636b206661696c6564000000000000000000a165627a7a72305820339814a5cb0a8870e5bed3c5b60491bdaa5cab303bd1eb0a9a5245f871fce8270029",
  "source": "pragma solidity ^0.4.24;\n\nimport \"./ITransferManager.sol\";\nimport \"openzeppelin-solidity/contracts/math/SafeMath.sol\";\n\n/**\n * @title Transfer Manager module for core transfer validation functionality\n */\ncontract GeneralTransferManager is ITransferManager {\n\n    using SafeMath for uint256;\n\n    //Address from which issuances come\n    address public issuanceAddress = address(0);\n\n    //Address which can sign whitelist changes\n    address public signingAddress = address(0);\n\n    bytes32 public constant WHITELIST = \"WHITELIST\";\n    bytes32 public constant FLAGS = \"FLAGS\";\n\n    //from and to timestamps that an investor can send / receive tokens respectively\n    struct TimeRestriction {\n        uint256 fromTime;\n        uint256 toTime;\n        uint256 expiryTime;\n        bool canBuyFromSTO;\n    }\n\n    // An address can only send / receive tokens once their corresponding uint256 > block.number\n    // (unless allowAllTransfers == true or allowAllWhitelistTransfers == true)\n    mapping (address => TimeRestriction) public whitelist;\n    // Map of used nonces by customer\n    mapping(address => mapping(uint256 => bool)) public nonceMap;  \n\n    //If true, there are no transfer restrictions, for any addresses\n    bool public allowAllTransfers = false;\n    //If true, time lock is ignored for transfers (address must still be on whitelist)\n    bool public allowAllWhitelistTransfers = false;\n    //If true, time lock is ignored for issuances (address must still be on whitelist)\n    bool public allowAllWhitelistIssuances = true;\n    //If true, time lock is ignored for burn transactions\n    bool public allowAllBurnTransfers = false;\n\n    // Emit when Issuance address get changed\n    event ChangeIssuanceAddress(address _issuanceAddress);\n    // Emit when there is change in the flag variable called allowAllTransfers\n    event AllowAllTransfers(bool _allowAllTransfers);\n    // Emit when there is change in the flag variable called allowAllWhitelistTransfers\n    event AllowAllWhitelistTransfers(bool _allowAllWhitelistTransfers);\n    // Emit when there is change in the flag variable called allowAllWhitelistIssuances\n    event AllowAllWhitelistIssuances(bool _allowAllWhitelistIssuances);\n    // Emit when there is change in the flag variable called allowAllBurnTransfers\n    event AllowAllBurnTransfers(bool _allowAllBurnTransfers);\n    // Emit when there is change in the flag variable called signingAddress\n    event ChangeSigningAddress(address _signingAddress);\n    // Emit when investor details get modified related to their whitelisting\n    event ModifyWhitelist(\n        address _investor,\n        uint256 _dateAdded,\n        address _addedBy,\n        uint256 _fromTime,\n        uint256 _toTime,\n        uint256 _expiryTime,\n        bool _canBuyFromSTO\n    );\n\n    /**\n     * @notice Constructor\n     * @param _securityToken Address of the security token\n     * @param _polyAddress Address of the polytoken\n     */\n    constructor (address _securityToken, address _polyAddress)\n    public\n    Module(_securityToken, _polyAddress)\n    {\n    }\n\n    /**\n     * @notice This function returns the signature of configure function\n     */\n    function getInitFunction() public pure returns (bytes4) {\n        return bytes4(0);\n    }\n\n    /**\n     * @notice Used to change the Issuance Address\n     * @param _issuanceAddress new address for the issuance\n     */\n    function changeIssuanceAddress(address _issuanceAddress) public withPerm(FLAGS) {\n        issuanceAddress = _issuanceAddress;\n        emit ChangeIssuanceAddress(_issuanceAddress);\n    }\n\n    /**\n     * @notice Used to change the Sigining Address\n     * @param _signingAddress new address for the signing\n     */\n    function changeSigningAddress(address _signingAddress) public withPerm(FLAGS) {\n        signingAddress = _signingAddress;\n        emit ChangeSigningAddress(_signingAddress);\n    }\n\n    /**\n     * @notice Used to change the flag\n            true - It refers there are no transfer restrictions, for any addresses\n            false - It refers transfers are restricted for all addresses.\n     * @param _allowAllTransfers flag value\n     */\n    function changeAllowAllTransfers(bool _allowAllTransfers) public withPerm(FLAGS) {\n        allowAllTransfers = _allowAllTransfers;\n        emit AllowAllTransfers(_allowAllTransfers);\n    }\n\n    /**\n     * @notice Used to change the flag\n            true - It refers that time lock is ignored for transfers (address must still be on whitelist)\n            false - It refers transfers are restricted for all addresses.\n     * @param _allowAllWhitelistTransfers flag value\n     */\n    function changeAllowAllWhitelistTransfers(bool _allowAllWhitelistTransfers) public withPerm(FLAGS) {\n        allowAllWhitelistTransfers = _allowAllWhitelistTransfers;\n        emit AllowAllWhitelistTransfers(_allowAllWhitelistTransfers);\n    }\n\n    /**\n     * @notice Used to change the flag\n            true - It refers that time lock is ignored for issuances (address must still be on whitelist)\n            false - It refers transfers are restricted for all addresses.\n     * @param _allowAllWhitelistIssuances flag value\n     */\n    function changeAllowAllWhitelistIssuances(bool _allowAllWhitelistIssuances) public withPerm(FLAGS) {\n        allowAllWhitelistIssuances = _allowAllWhitelistIssuances;\n        emit AllowAllWhitelistIssuances(_allowAllWhitelistIssuances);\n    }\n\n    /**\n     * @notice Used to change the flag\n            true - It allow to burn the tokens\n            false - It deactivate the burning mechanism.\n     * @param _allowAllBurnTransfers flag value\n     */\n    function changeAllowAllBurnTransfers(bool _allowAllBurnTransfers) public withPerm(FLAGS) {\n        allowAllBurnTransfers = _allowAllBurnTransfers;\n        emit AllowAllBurnTransfers(_allowAllBurnTransfers);\n    }\n\n    /**\n     * @notice Default implementation of verifyTransfer used by SecurityToken\n     * If the transfer request comes from the STO, it only checks that the investor is in the whitelist\n     * If the transfer request comes from a token holder, it checks that:\n     * a) Both are on the whitelist\n     * b) Seller's sale lockup period is over\n     * c) Buyer's purchase lockup is over\n     * @param _from Address of the sender\n     * @param _to Address of the receiver\n    */\n    function verifyTransfer(address _from, address _to, uint256 /*_amount*/, bytes /* _data */, bool /* _isTransfer */) public returns(Result) {\n        if (!paused) {\n            if (allowAllTransfers) {\n                //All transfers allowed, regardless of whitelist\n                return Result.VALID;\n            }\n            if (allowAllBurnTransfers && (_to == address(0))) {\n                return Result.VALID;\n            }\n            if (allowAllWhitelistTransfers) {\n                //Anyone on the whitelist can transfer, regardless of time\n                return (_onWhitelist(_to) && _onWhitelist(_from)) ? Result.VALID : Result.NA;\n            }\n            if (allowAllWhitelistIssuances && _from == issuanceAddress) {\n                if (!whitelist[_to].canBuyFromSTO && _isSTOAttached()) {\n                    return Result.NA;\n                }\n                return _onWhitelist(_to) ? Result.VALID : Result.NA;\n            }\n            //Anyone on the whitelist can transfer provided the blocknumber is large enough\n            /*solium-disable-next-line security/no-block-members*/\n            return ((_onWhitelist(_from) && whitelist[_from].fromTime <= now) &&\n                (_onWhitelist(_to) && whitelist[_to].toTime <= now)) ? Result.VALID : Result.NA; /*solium-disable-line security/no-block-members*/\n        }\n        return Result.NA;\n    }\n\n    /**\n    * @notice Adds or removes addresses from the whitelist.\n    * @param _investor is the address to whitelist\n    * @param _fromTime is the moment when the sale lockup period ends and the investor can freely sell his tokens\n    * @param _toTime is the moment when the purchase lockup period ends and the investor can freely purchase tokens from others\n    * @param _expiryTime is the moment till investors KYC will be validated. After that investor need to do re-KYC\n    * @param _canBuyFromSTO is used to know whether the investor is restricted investor or not.\n    */\n    function modifyWhitelist(\n        address _investor,\n        uint256 _fromTime,\n        uint256 _toTime,\n        uint256 _expiryTime,\n        bool _canBuyFromSTO\n    )\n        public\n        withPerm(WHITELIST)\n    {\n        //Passing a _time == 0 into this function, is equivalent to removing the _investor from the whitelist\n        whitelist[_investor] = TimeRestriction(_fromTime, _toTime, _expiryTime, _canBuyFromSTO);\n        /*solium-disable-next-line security/no-block-members*/\n        emit ModifyWhitelist(_investor, now, msg.sender, _fromTime, _toTime, _expiryTime, _canBuyFromSTO);\n    }\n\n    /**\n    * @notice Adds or removes addresses from the whitelist.\n    * @param _investors List of the addresses to whitelist\n    * @param _fromTimes An array of the moment when the sale lockup period ends and the investor can freely sell his tokens\n    * @param _toTimes An array of the moment when the purchase lockup period ends and the investor can freely purchase tokens from others\n    * @param _expiryTimes An array of the moment till investors KYC will be validated. After that investor need to do re-KYC\n    * @param _canBuyFromSTO An array of boolean values\n    */\n    function modifyWhitelistMulti(\n        address[] _investors,\n        uint256[] _fromTimes,\n        uint256[] _toTimes,\n        uint256[] _expiryTimes,\n        bool[] _canBuyFromSTO\n    ) public withPerm(WHITELIST) {\n        require(_investors.length == _fromTimes.length, \"Mismatched input lengths\");\n        require(_fromTimes.length == _toTimes.length, \"Mismatched input lengths\");\n        require(_toTimes.length == _expiryTimes.length, \"Mismatched input lengths\");\n        require(_canBuyFromSTO.length == _toTimes.length, \"Mismatched input length\");\n        for (uint256 i = 0; i < _investors.length; i++) {\n            modifyWhitelist(_investors[i], _fromTimes[i], _toTimes[i], _expiryTimes[i], _canBuyFromSTO[i]);\n        }\n    }\n\n    /**\n    * @notice Adds or removes addresses from the whitelist - can be called by anyone with a valid signature\n    * @param _investor is the address to whitelist\n    * @param _fromTime is the moment when the sale lockup period ends and the investor can freely sell his tokens\n    * @param _toTime is the moment when the purchase lockup period ends and the investor can freely purchase tokens from others\n    * @param _expiryTime is the moment till investors KYC will be validated. After that investor need to do re-KYC\n    * @param _canBuyFromSTO is used to know whether the investor is restricted investor or not.\n    * @param _validFrom is the time that this signature is valid from\n    * @param _validTo is the time that this signature is valid until\n    * @param _nonce nonce of signature (avoid replay attack)\n    * @param _v issuer signature\n    * @param _r issuer signature\n    * @param _s issuer signature\n    */\n    function modifyWhitelistSigned(\n        address _investor,\n        uint256 _fromTime,\n        uint256 _toTime,\n        uint256 _expiryTime,\n        bool _canBuyFromSTO,\n        uint256 _validFrom,\n        uint256 _validTo,\n        uint256 _nonce,\n        uint8 _v,\n        bytes32 _r,\n        bytes32 _s\n    ) public {\n        /*solium-disable-next-line security/no-block-members*/\n        require(_validFrom <= now, \"ValidFrom is too early\");\n        /*solium-disable-next-line security/no-block-members*/\n        require(_validTo >= now, \"ValidTo is too late\");\n        require(!nonceMap[_investor][_nonce], \"Already used signature\");\n        nonceMap[_investor][_nonce] = true;\n        bytes32 hash = keccak256(\n            abi.encodePacked(this, _investor, _fromTime, _toTime, _expiryTime, _canBuyFromSTO, _validFrom, _validTo, _nonce)\n        );\n        _checkSig(hash, _v, _r, _s);\n        //Passing a _time == 0 into this function, is equivalent to removing the _investor from the whitelist\n        whitelist[_investor] = TimeRestriction(_fromTime, _toTime, _expiryTime, _canBuyFromSTO);\n        /*solium-disable-next-line security/no-block-members*/\n        emit ModifyWhitelist(_investor, now, msg.sender, _fromTime, _toTime, _expiryTime, _canBuyFromSTO);\n    }\n\n    /**\n     * @notice Used to verify the signature\n     */\n    function _checkSig(bytes32 _hash, uint8 _v, bytes32 _r, bytes32 _s) internal view {\n        //Check that the signature is valid\n        //sig should be signing - _investor, _fromTime, _toTime & _expiryTime and be signed by the issuer address\n        address signer = ecrecover(keccak256(abi.encodePacked(\"\\x19Ethereum Signed Message:\\n32\", _hash)), _v, _r, _s);\n        require(signer == Ownable(securityToken).owner() || signer == signingAddress, \"Incorrect signer\");\n    }\n\n    /**\n     * @notice Internal function used to check whether the investor is in the whitelist or not\n            & also checks whether the KYC of investor get expired or not\n     * @param _investor Address of the investor\n     */\n    function _onWhitelist(address _investor) internal view returns(bool) {\n        return (((whitelist[_investor].fromTime != 0) || (whitelist[_investor].toTime != 0)) &&\n            (whitelist[_investor].expiryTime >= now)); /*solium-disable-line security/no-block-members*/\n    }\n\n    /**\n     * @notice Internal function use to know whether the STO is attached or not\n     */\n    function _isSTOAttached() internal view returns(bool) {\n        bool attached = ISecurityToken(securityToken).getModulesByType(3).length > 0;\n        return attached;\n    }\n\n    /**\n     * @notice Return the permissions flag that are associated with general trnasfer manager\n     */\n    function getPermissions() public view returns(bytes32[]) {\n        bytes32[] memory allPermissions = new bytes32[](2);\n        allPermissions[0] = WHITELIST;\n        allPermissions[1] = FLAGS;\n        return allPermissions;\n    }\n\n}\n",
  "sourcePath": "/Users/jere/Code/polymath-apps/packages/new-polymath-scripts/src/generateLocalBlockchain/contracts/modules/TransferManager/GeneralTransferManager.sol",
  "compiler": {
    "name": "solc",
    "version": "0.4.24+commit.e67f0147.Emscripten.clang"
  },
  "schemaVersion": "2.0.1",
  "updatedAt": "2019-02-01T18:23:33.479Z"
}