{
  "contractName": "GeneralTransferManagerProxy",
  "abi": [
    {
      "constant": false,
      "inputs": [],
      "name": "proxyOwner",
      "outputs": [
        {
          "name": "",
          "type": "address"
        }
      ],
      "payable": false,
      "stateMutability": "nonpayable",
      "type": "function"
    },
    {
      "constant": true,
      "inputs": [],
      "name": "allowAllBurnTransfers",
      "outputs": [
        {
          "name": "",
          "type": "bool"
        }
      ],
      "payable": false,
      "stateMutability": "view",
      "type": "function"
    },
    {
      "constant": true,
      "inputs": [],
      "name": "WHITELIST",
      "outputs": [
        {
          "name": "",
          "type": "bytes32"
        }
      ],
      "payable": false,
      "stateMutability": "view",
      "type": "function"
    },
    {
      "constant": true,
      "inputs": [],
      "name": "allowAllWhitelistTransfers",
      "outputs": [
        {
          "name": "",
          "type": "bool"
        }
      ],
      "payable": false,
      "stateMutability": "view",
      "type": "function"
    },
    {
      "constant": true,
      "inputs": [
        {
          "name": "",
          "type": "uint256"
        }
      ],
      "name": "investors",
      "outputs": [
        {
          "name": "",
          "type": "address"
        }
      ],
      "payable": false,
      "stateMutability": "view",
      "type": "function"
    },
    {
      "constant": false,
      "inputs": [],
      "name": "implementation",
      "outputs": [
        {
          "name": "",
          "type": "address"
        }
      ],
      "payable": false,
      "stateMutability": "nonpayable",
      "type": "function"
    },
    {
      "constant": true,
      "inputs": [],
      "name": "paused",
      "outputs": [
        {
          "name": "",
          "type": "bool"
        }
      ],
      "payable": false,
      "stateMutability": "view",
      "type": "function"
    },
    {
      "constant": true,
      "inputs": [],
      "name": "polyToken",
      "outputs": [
        {
          "name": "",
          "type": "address"
        }
      ],
      "payable": false,
      "stateMutability": "view",
      "type": "function"
    },
    {
      "constant": true,
      "inputs": [],
      "name": "FLAGS",
      "outputs": [
        {
          "name": "",
          "type": "bytes32"
        }
      ],
      "payable": false,
      "stateMutability": "view",
      "type": "function"
    },
    {
      "constant": true,
      "inputs": [
        {
          "name": "",
          "type": "address"
        }
      ],
      "name": "whitelist",
      "outputs": [
        {
          "name": "fromTime",
          "type": "uint64"
        },
        {
          "name": "toTime",
          "type": "uint64"
        },
        {
          "name": "expiryTime",
          "type": "uint64"
        },
        {
          "name": "canBuyFromSTO",
          "type": "uint8"
        },
        {
          "name": "added",
          "type": "uint8"
        }
      ],
      "payable": false,
      "stateMutability": "view",
      "type": "function"
    },
    {
      "constant": true,
      "inputs": [
        {
          "name": "",
          "type": "address"
        },
        {
          "name": "",
          "type": "uint256"
        }
      ],
      "name": "nonceMap",
      "outputs": [
        {
          "name": "",
          "type": "bool"
        }
      ],
      "payable": false,
      "stateMutability": "view",
      "type": "function"
    },
    {
      "constant": true,
      "inputs": [],
      "name": "allowAllTransfers",
      "outputs": [
        {
          "name": "",
          "type": "bool"
        }
      ],
      "payable": false,
      "stateMutability": "view",
      "type": "function"
    },
    {
      "constant": true,
      "inputs": [],
      "name": "signingAddress",
      "outputs": [
        {
          "name": "",
          "type": "address"
        }
      ],
      "payable": false,
      "stateMutability": "view",
      "type": "function"
    },
    {
      "constant": true,
      "inputs": [],
      "name": "issuanceAddress",
      "outputs": [
        {
          "name": "",
          "type": "address"
        }
      ],
      "payable": false,
      "stateMutability": "view",
      "type": "function"
    },
    {
      "constant": true,
      "inputs": [],
      "name": "securityToken",
      "outputs": [
        {
          "name": "",
          "type": "address"
        }
      ],
      "payable": false,
      "stateMutability": "view",
      "type": "function"
    },
    {
      "constant": true,
      "inputs": [],
      "name": "factory",
      "outputs": [
        {
          "name": "",
          "type": "address"
        }
      ],
      "payable": false,
      "stateMutability": "view",
      "type": "function"
    },
    {
      "constant": true,
      "inputs": [],
      "name": "FEE_ADMIN",
      "outputs": [
        {
          "name": "",
          "type": "bytes32"
        }
      ],
      "payable": false,
      "stateMutability": "view",
      "type": "function"
    },
    {
      "constant": true,
      "inputs": [],
      "name": "allowAllWhitelistIssuances",
      "outputs": [
        {
          "name": "",
          "type": "bool"
        }
      ],
      "payable": false,
      "stateMutability": "view",
      "type": "function"
    },
    {
      "constant": true,
      "inputs": [],
      "name": "defaults",
      "outputs": [
        {
          "name": "fromTime",
          "type": "uint64"
        },
        {
          "name": "toTime",
          "type": "uint64"
        }
      ],
      "payable": false,
      "stateMutability": "view",
      "type": "function"
    },
    {
      "constant": false,
      "inputs": [
        {
          "name": "_newOwner",
          "type": "address"
        }
      ],
      "name": "transferProxyOwnership",
      "outputs": [],
      "payable": false,
      "stateMutability": "nonpayable",
      "type": "function"
    },
    {
      "inputs": [
        {
          "name": "_securityToken",
          "type": "address"
        },
        {
          "name": "_polyAddress",
          "type": "address"
        },
        {
          "name": "_implementation",
          "type": "address"
        }
      ],
      "payable": false,
      "stateMutability": "nonpayable",
      "type": "constructor"
    },
    {
      "payable": true,
      "stateMutability": "payable",
      "type": "fallback"
    },
    {
      "anonymous": false,
      "inputs": [
        {
          "indexed": false,
          "name": "_previousOwner",
          "type": "address"
        },
        {
          "indexed": false,
          "name": "_newOwner",
          "type": "address"
        }
      ],
      "name": "ProxyOwnershipTransferred",
      "type": "event"
    },
    {
      "anonymous": false,
      "inputs": [
        {
          "indexed": false,
          "name": "_timestammp",
          "type": "uint256"
        }
      ],
      "name": "Pause",
      "type": "event"
    },
    {
      "anonymous": false,
      "inputs": [
        {
          "indexed": false,
          "name": "_timestamp",
          "type": "uint256"
        }
      ],
      "name": "Unpause",
      "type": "event"
    }
  ],
  "bytecode": "0x608060405260008054600160a060020a03199081169091556001805490911690556006805463ff0000001962ffffff1990911662010000171690556008805460a060020a60ff021916905534801561005657600080fd5b50604051606080610a7683398101604090815281516020830151919092015160078054600160a060020a0319908116600160a060020a0380871691909117909255600680547fffffffffffffffff0000000000000000000000000000000000000000ffffffff16336401000000008181029290921790925560088054909316938616939093179091556100eb916101b0810204565b600160a060020a038116151561018857604080517f08c379a000000000000000000000000000000000000000000000000000000000815260206004820152602760248201527f496d706c656d656e746174696f6e20616464726573732073686f756c64206e6f60448201527f7420626520307800000000000000000000000000000000000000000000000000606482015290519081900360840190fd5b600a8054600160a060020a031916600160a060020a0392909216919091179055506102499050565b600160a060020a038116151561022757604080517f08c379a000000000000000000000000000000000000000000000000000000000815260206004820152601860248201527f416464726573732073686f756c64206e6f742062652030780000000000000000604482015290519081900360640190fd5b60098054600160a060020a031916600160a060020a0392909216919091179055565b61081e806102586000396000f3006080604052600436106101115763ffffffff7c0100000000000000000000000000000000000000000000000000000000600035041663025313a2811461011b578063144b8afa1461014c5780631bb7cc99146101755780632909a80e1461019c5780633feb5f2b146101b15780635c60da1b146101c95780635c975abb146101de5780636faa22a5146101f35780639728538f146102085780639b19251a1461021d5780639ba0b7c01461027f578063b1dd8111146102a3578063b3e82dc9146102b8578063b3fac8ce146102cd578063b84dfbd2146102e2578063c45a0155146102f7578063d70afa961461030c578063e55d0f8b14610321578063edb7a6fa14610336578063f1739cae14610372575b610119610393565b005b34801561012757600080fd5b506101306103a5565b60408051600160a060020a039092168252519081900360200190f35b34801561015857600080fd5b506101616103e2565b604080519115158252519081900360200190f35b34801561018157600080fd5b5061018a6103f2565b60408051918252519081900360200190f35b3480156101a857600080fd5b50610161610416565b3480156101bd57600080fd5b50610130600435610424565b3480156101d557600080fd5b5061013061044c565b3480156101ea57600080fd5b50610161610477565b3480156101ff57600080fd5b50610130610498565b34801561021457600080fd5b5061018a6104a7565b34801561022957600080fd5b5061023e600160a060020a03600435166104cb565b6040805167ffffffffffffffff96871681529486166020860152929094168383015260ff908116606084015292909216608082015290519081900360a00190f35b34801561028b57600080fd5b50610161600160a060020a036004351660243561054e565b3480156102af57600080fd5b5061016161056e565b3480156102c457600080fd5b50610130610577565b3480156102d957600080fd5b50610130610586565b3480156102ee57600080fd5b50610130610595565b34801561030357600080fd5b506101306105a4565b34801561031857600080fd5b5061018a6105bb565b34801561032d57600080fd5b506101616105df565b34801561034257600080fd5b5061034b6105ee565b6040805167ffffffffffffffff938416815291909216602082015281519081900390910190f35b34801561037e57600080fd5b50610119600160a060020a036004351661060e565b6103a361039e61070a565b610719565b565b60006103af61073d565b600160a060020a031633600160a060020a031614156103d7576103d061073d565b90506103df565b6103df610393565b90565b6006546301000000900460ff1681565b7f57484954454c495354000000000000000000000000000000000000000000000081565b600654610100900460ff1681565b600380548290811061043257fe5b600091825260209091200154600160a060020a0316905081565b600061045661073d565b600160a060020a031633600160a060020a031614156103d7576103d061070a565b60085474010000000000000000000000000000000000000000900460ff1681565b600854600160a060020a031681565b7f464c41475300000000000000000000000000000000000000000000000000000081565b60046020526000908152604090205467ffffffffffffffff808216916801000000000000000081048216917001000000000000000000000000000000008204169060ff7801000000000000000000000000000000000000000000000000820481169179010000000000000000000000000000000000000000000000000090041685565b600560209081526000928352604080842090915290825290205460ff1681565b60065460ff1681565b600154600160a060020a031681565b600054600160a060020a031681565b600754600160a060020a031681565b6006546401000000009004600160a060020a031681565b7f4645455f41444d494e000000000000000000000000000000000000000000000081565b60065462010000900460ff1681565b60025467ffffffffffffffff808216916801000000000000000090041682565b61061661073d565b600160a060020a031633600160a060020a031614156106ff57600160a060020a03811615156106a657604080517f08c379a000000000000000000000000000000000000000000000000000000000815260206004820152601860248201527f416464726573732073686f756c64206e6f742062652030780000000000000000604482015290519081900360640190fd5b7f5a3e66efaa1e445ebd894728a69d6959842ea1e97bd79b892797106e270efcd96106cf61073d565b60408051600160a060020a03928316815291841660208301528051918290030190a16106fa8161074c565b610707565b610707610393565b50565b600a54600160a060020a031690565b3660008037600080366000845af43d6000803e808015610738573d6000f35b3d6000fd5b600954600160a060020a031690565b600160a060020a03811615156107c357604080517f08c379a000000000000000000000000000000000000000000000000000000000815260206004820152601860248201527f416464726573732073686f756c64206e6f742062652030780000000000000000604482015290519081900360640190fd5b6009805473ffffffffffffffffffffffffffffffffffffffff1916600160a060020a03929092169190911790555600a165627a7a72305820180061f2017bfb4896b8af7a5463eab80ca31a98de91e77846d25bd831863bda0029",
  "source": "pragma solidity ^0.4.24;\n\nimport \"../storage/GeneralTransferManagerStorage.sol\";\nimport \"./OwnedProxy.sol\";\nimport \"../Pausable.sol\";\nimport \"../modules/ModuleStorage.sol\";\n\n/**\n * @title Transfer Manager module for core transfer validation functionality\n */\ncontract GeneralTransferManagerProxy is GeneralTransferManagerStorage, ModuleStorage, Pausable, OwnedProxy {\n\n    /**\n    * @notice Constructor\n    * @param _securityToken Address of the security token\n    * @param _polyAddress Address of the polytoken\n    * @param _implementation representing the address of the new implementation to be set\n    */\n    constructor (address _securityToken, address _polyAddress, address _implementation)\n    public\n    ModuleStorage(_securityToken, _polyAddress)\n    {\n        require(\n            _implementation != address(0),\n            \"Implementation address should not be 0x\"\n        );\n        __implementation = _implementation;\n    }\n\n}\n",
  "sourcePath": "/Users/jere/Code/polymath-apps/packages/new-polymath-scripts/src/generateLocalBlockchain/contracts/proxy/GeneralTransferManagerProxy.sol",
  "compiler": {
    "name": "solc",
    "version": "0.4.24+commit.e67f0147.Emscripten.clang"
  },
  "schemaVersion": "2.0.1",
  "updatedAt": "2019-02-06T00:34:32.617Z"
}