{
  "contractName": "ISTOStorage",
  "abi": [
    {
      "constant": true,
      "inputs": [],
      "name": "endTime",
      "outputs": [
        {
          "name": "",
          "type": "uint256"
        }
      ],
      "payable": false,
      "stateMutability": "view",
      "type": "function"
    },
    {
      "constant": true,
      "inputs": [],
      "name": "wallet",
      "outputs": [
        {
          "name": "",
          "type": "address"
        }
      ],
      "payable": false,
      "stateMutability": "view",
      "type": "function"
    },
    {
      "constant": true,
      "inputs": [],
      "name": "totalTokensSold",
      "outputs": [
        {
          "name": "",
          "type": "uint256"
        }
      ],
      "payable": false,
      "stateMutability": "view",
      "type": "function"
    },
    {
      "constant": true,
      "inputs": [],
      "name": "startTime",
      "outputs": [
        {
          "name": "",
          "type": "uint256"
        }
      ],
      "payable": false,
      "stateMutability": "view",
      "type": "function"
    },
    {
      "constant": true,
      "inputs": [],
      "name": "pausedTime",
      "outputs": [
        {
          "name": "",
          "type": "uint256"
        }
      ],
      "payable": false,
      "stateMutability": "view",
      "type": "function"
    },
    {
      "constant": true,
      "inputs": [
        {
          "name": "",
          "type": "uint8"
        }
      ],
      "name": "fundsRaised",
      "outputs": [
        {
          "name": "",
          "type": "uint256"
        }
      ],
      "payable": false,
      "stateMutability": "view",
      "type": "function"
    },
    {
      "constant": true,
      "inputs": [
        {
          "name": "",
          "type": "uint8"
        }
      ],
      "name": "fundRaiseTypes",
      "outputs": [
        {
          "name": "",
          "type": "bool"
        }
      ],
      "payable": false,
      "stateMutability": "view",
      "type": "function"
    },
    {
      "constant": true,
      "inputs": [],
      "name": "investorCount",
      "outputs": [
        {
          "name": "",
          "type": "uint256"
        }
      ],
      "payable": false,
      "stateMutability": "view",
      "type": "function"
    }
  ],
  "bytecode": "0x608060405234801561001057600080fd5b50610222806100206000396000f30060806040526004361061008d5763ffffffff7c01000000000000000000000000000000000000000000000000000000006000350416633197cbb68114610092578063521eb273146100b957806363b20117146100f757806378e979251461010c578063b2cca39d14610121578063c4d2c6bd14610136578063d143a37914610151578063d7e64c0014610180575b600080fd5b34801561009e57600080fd5b506100a7610195565b60408051918252519081900360200190f35b3480156100c557600080fd5b506100ce61019b565b6040805173ffffffffffffffffffffffffffffffffffffffff9092168252519081900360200190f35b34801561010357600080fd5b506100a76101b7565b34801561011857600080fd5b506100a76101bd565b34801561012d57600080fd5b506100a76101c3565b34801561014257600080fd5b506100a760ff600435166101c9565b34801561015d57600080fd5b5061016c60ff600435166101db565b604080519115158252519081900360200190f35b34801561018c57600080fd5b506100a76101f0565b60035481565b60065473ffffffffffffffffffffffffffffffffffffffff1681565b60075481565b60025481565b60045481565b60016020526000908152604090205481565b60006020819052908152604090205460ff1681565b600554815600a165627a7a723058203c0c07be9eb05c732ab9b0999ab96b4027eda09d9f5afe31b0338408eb9472fd0029",
  "source": "pragma solidity ^0.4.24;\n\n/**\n * @title Storage layout for the ISTO contract\n */\ncontract ISTOStorage {\n\n    mapping (uint8 => bool) public fundRaiseTypes;\n    mapping (uint8 => uint256) public fundsRaised;\n\n    // Start time of the STO\n    uint256 public startTime;\n    // End time of the STO\n    uint256 public endTime;\n    // Time STO was paused\n    uint256 public pausedTime;\n    // Number of individual investors\n    uint256 public investorCount;\n    // Address where ETH & POLY funds are delivered\n    address public wallet;\n     // Final amount of tokens sold\n    uint256 public totalTokensSold;\n\n}",
  "sourcePath": "/Users/jere/Code/polymath-apps/packages/new-polymath-scripts/src/generateLocalBlockchain/contracts/modules/STO/ISTOStorage.sol",
  "compiler": {
    "name": "solc",
    "version": "0.4.24+commit.e67f0147.Emscripten.clang"
  },
  "schemaVersion": "2.0.1",
  "updatedAt": "2019-01-17T19:56:09.837Z"
}