{
  "contractName": "LockUpTransferManager",
  "abi": [
    {
      "constant": true,
      "inputs": [],
      "name": "ADMIN",
      "outputs": [
        {
          "name": "",
          "type": "bytes32"
        }
      ],
      "payable": false,
      "stateMutability": "view",
      "type": "function"
    },
    {
      "constant": true,
      "inputs": [
        {
          "name": "",
          "type": "bytes32"
        }
      ],
      "name": "lockups",
      "outputs": [
        {
          "name": "lockupAmount",
          "type": "uint256"
        },
        {
          "name": "startTime",
          "type": "uint256"
        },
        {
          "name": "lockUpPeriodSeconds",
          "type": "uint256"
        },
        {
          "name": "releaseFrequencySeconds",
          "type": "uint256"
        }
      ],
      "payable": false,
      "stateMutability": "view",
      "type": "function"
    },
    {
      "constant": false,
      "inputs": [],
      "name": "unpause",
      "outputs": [],
      "payable": false,
      "stateMutability": "nonpayable",
      "type": "function"
    },
    {
      "constant": true,
      "inputs": [],
      "name": "paused",
      "outputs": [
        {
          "name": "",
          "type": "bool"
        }
      ],
      "payable": false,
      "stateMutability": "view",
      "type": "function"
    },
    {
      "constant": false,
      "inputs": [
        {
          "name": "_amount",
          "type": "uint256"
        }
      ],
      "name": "takeFee",
      "outputs": [
        {
          "name": "",
          "type": "bool"
        }
      ],
      "payable": false,
      "stateMutability": "nonpayable",
      "type": "function"
    },
    {
      "constant": true,
      "inputs": [],
      "name": "polyToken",
      "outputs": [
        {
          "name": "",
          "type": "address"
        }
      ],
      "payable": false,
      "stateMutability": "view",
      "type": "function"
    },
    {
      "constant": false,
      "inputs": [],
      "name": "pause",
      "outputs": [],
      "payable": false,
      "stateMutability": "nonpayable",
      "type": "function"
    },
    {
      "constant": true,
      "inputs": [],
      "name": "securityToken",
      "outputs": [
        {
          "name": "",
          "type": "address"
        }
      ],
      "payable": false,
      "stateMutability": "view",
      "type": "function"
    },
    {
      "constant": true,
      "inputs": [],
      "name": "factory",
      "outputs": [
        {
          "name": "",
          "type": "address"
        }
      ],
      "payable": false,
      "stateMutability": "view",
      "type": "function"
    },
    {
      "constant": true,
      "inputs": [],
      "name": "FEE_ADMIN",
      "outputs": [
        {
          "name": "",
          "type": "bytes32"
        }
      ],
      "payable": false,
      "stateMutability": "view",
      "type": "function"
    },
    {
      "inputs": [
        {
          "name": "_securityToken",
          "type": "address"
        },
        {
          "name": "_polyAddress",
          "type": "address"
        }
      ],
      "payable": false,
      "stateMutability": "nonpayable",
      "type": "constructor"
    },
    {
      "anonymous": false,
      "inputs": [
        {
          "indexed": true,
          "name": "_userAddress",
          "type": "address"
        },
        {
          "indexed": true,
          "name": "_lockupName",
          "type": "bytes32"
        }
      ],
      "name": "AddLockUpToUser",
      "type": "event"
    },
    {
      "anonymous": false,
      "inputs": [
        {
          "indexed": true,
          "name": "_userAddress",
          "type": "address"
        },
        {
          "indexed": true,
          "name": "_lockupName",
          "type": "bytes32"
        }
      ],
      "name": "RemoveLockUpFromUser",
      "type": "event"
    },
    {
      "anonymous": false,
      "inputs": [
        {
          "indexed": false,
          "name": "_lockupAmount",
          "type": "uint256"
        },
        {
          "indexed": false,
          "name": "_startTime",
          "type": "uint256"
        },
        {
          "indexed": false,
          "name": "_lockUpPeriodSeconds",
          "type": "uint256"
        },
        {
          "indexed": false,
          "name": "_releaseFrequencySeconds",
          "type": "uint256"
        },
        {
          "indexed": true,
          "name": "_lockupName",
          "type": "bytes32"
        }
      ],
      "name": "ModifyLockUpType",
      "type": "event"
    },
    {
      "anonymous": false,
      "inputs": [
        {
          "indexed": true,
          "name": "_lockupName",
          "type": "bytes32"
        },
        {
          "indexed": false,
          "name": "_lockupAmount",
          "type": "uint256"
        },
        {
          "indexed": false,
          "name": "_startTime",
          "type": "uint256"
        },
        {
          "indexed": false,
          "name": "_lockUpPeriodSeconds",
          "type": "uint256"
        },
        {
          "indexed": false,
          "name": "_releaseFrequencySeconds",
          "type": "uint256"
        }
      ],
      "name": "AddNewLockUpType",
      "type": "event"
    },
    {
      "anonymous": false,
      "inputs": [
        {
          "indexed": true,
          "name": "_lockupName",
          "type": "bytes32"
        }
      ],
      "name": "RemoveLockUpType",
      "type": "event"
    },
    {
      "anonymous": false,
      "inputs": [
        {
          "indexed": false,
          "name": "_timestammp",
          "type": "uint256"
        }
      ],
      "name": "Pause",
      "type": "event"
    },
    {
      "anonymous": false,
      "inputs": [
        {
          "indexed": false,
          "name": "_timestamp",
          "type": "uint256"
        }
      ],
      "name": "Unpause",
      "type": "event"
    },
    {
      "constant": false,
      "inputs": [
        {
          "name": "_from",
          "type": "address"
        },
        {
          "name": "",
          "type": "address"
        },
        {
          "name": "_amount",
          "type": "uint256"
        },
        {
          "name": "",
          "type": "bytes"
        },
        {
          "name": "",
          "type": "bool"
        }
      ],
      "name": "verifyTransfer",
      "outputs": [
        {
          "name": "",
          "type": "uint8"
        }
      ],
      "payable": false,
      "stateMutability": "nonpayable",
      "type": "function"
    },
    {
      "constant": false,
      "inputs": [
        {
          "name": "_lockupAmount",
          "type": "uint256"
        },
        {
          "name": "_startTime",
          "type": "uint256"
        },
        {
          "name": "_lockUpPeriodSeconds",
          "type": "uint256"
        },
        {
          "name": "_releaseFrequencySeconds",
          "type": "uint256"
        },
        {
          "name": "_lockupName",
          "type": "bytes32"
        }
      ],
      "name": "addNewLockUpType",
      "outputs": [],
      "payable": false,
      "stateMutability": "nonpayable",
      "type": "function"
    },
    {
      "constant": false,
      "inputs": [
        {
          "name": "_lockupAmounts",
          "type": "uint256[]"
        },
        {
          "name": "_startTimes",
          "type": "uint256[]"
        },
        {
          "name": "_lockUpPeriodsSeconds",
          "type": "uint256[]"
        },
        {
          "name": "_releaseFrequenciesSeconds",
          "type": "uint256[]"
        },
        {
          "name": "_lockupNames",
          "type": "bytes32[]"
        }
      ],
      "name": "addNewLockUpTypeMulti",
      "outputs": [],
      "payable": false,
      "stateMutability": "nonpayable",
      "type": "function"
    },
    {
      "constant": false,
      "inputs": [
        {
          "name": "_userAddress",
          "type": "address"
        },
        {
          "name": "_lockupName",
          "type": "bytes32"
        }
      ],
      "name": "addLockUpByName",
      "outputs": [],
      "payable": false,
      "stateMutability": "nonpayable",
      "type": "function"
    },
    {
      "constant": false,
      "inputs": [
        {
          "name": "_userAddresses",
          "type": "address[]"
        },
        {
          "name": "_lockupNames",
          "type": "bytes32[]"
        }
      ],
      "name": "addLockUpByNameMulti",
      "outputs": [],
      "payable": false,
      "stateMutability": "nonpayable",
      "type": "function"
    },
    {
      "constant": false,
      "inputs": [
        {
          "name": "_userAddress",
          "type": "address"
        },
        {
          "name": "_lockupAmount",
          "type": "uint256"
        },
        {
          "name": "_startTime",
          "type": "uint256"
        },
        {
          "name": "_lockUpPeriodSeconds",
          "type": "uint256"
        },
        {
          "name": "_releaseFrequencySeconds",
          "type": "uint256"
        },
        {
          "name": "_lockupName",
          "type": "bytes32"
        }
      ],
      "name": "addNewLockUpToUser",
      "outputs": [],
      "payable": false,
      "stateMutability": "nonpayable",
      "type": "function"
    },
    {
      "constant": false,
      "inputs": [
        {
          "name": "_userAddresses",
          "type": "address[]"
        },
        {
          "name": "_lockupAmounts",
          "type": "uint256[]"
        },
        {
          "name": "_startTimes",
          "type": "uint256[]"
        },
        {
          "name": "_lockUpPeriodsSeconds",
          "type": "uint256[]"
        },
        {
          "name": "_releaseFrequenciesSeconds",
          "type": "uint256[]"
        },
        {
          "name": "_lockupNames",
          "type": "bytes32[]"
        }
      ],
      "name": "addNewLockUpToUserMulti",
      "outputs": [],
      "payable": false,
      "stateMutability": "nonpayable",
      "type": "function"
    },
    {
      "constant": false,
      "inputs": [
        {
          "name": "_userAddress",
          "type": "address"
        },
        {
          "name": "_lockupName",
          "type": "bytes32"
        }
      ],
      "name": "removeLockUpFromUser",
      "outputs": [],
      "payable": false,
      "stateMutability": "nonpayable",
      "type": "function"
    },
    {
      "constant": false,
      "inputs": [
        {
          "name": "_lockupName",
          "type": "bytes32"
        }
      ],
      "name": "removeLockupType",
      "outputs": [],
      "payable": false,
      "stateMutability": "nonpayable",
      "type": "function"
    },
    {
      "constant": false,
      "inputs": [
        {
          "name": "_lockupNames",
          "type": "bytes32[]"
        }
      ],
      "name": "removeLockupTypeMulti",
      "outputs": [],
      "payable": false,
      "stateMutability": "nonpayable",
      "type": "function"
    },
    {
      "constant": false,
      "inputs": [
        {
          "name": "_userAddresses",
          "type": "address[]"
        },
        {
          "name": "_lockupNames",
          "type": "bytes32[]"
        }
      ],
      "name": "removeLockUpFromUserMulti",
      "outputs": [],
      "payable": false,
      "stateMutability": "nonpayable",
      "type": "function"
    },
    {
      "constant": false,
      "inputs": [
        {
          "name": "_lockupAmount",
          "type": "uint256"
        },
        {
          "name": "_startTime",
          "type": "uint256"
        },
        {
          "name": "_lockUpPeriodSeconds",
          "type": "uint256"
        },
        {
          "name": "_releaseFrequencySeconds",
          "type": "uint256"
        },
        {
          "name": "_lockupName",
          "type": "bytes32"
        }
      ],
      "name": "modifyLockUpType",
      "outputs": [],
      "payable": false,
      "stateMutability": "nonpayable",
      "type": "function"
    },
    {
      "constant": false,
      "inputs": [
        {
          "name": "_lockupAmounts",
          "type": "uint256[]"
        },
        {
          "name": "_startTimes",
          "type": "uint256[]"
        },
        {
          "name": "_lockUpPeriodsSeconds",
          "type": "uint256[]"
        },
        {
          "name": "_releaseFrequenciesSeconds",
          "type": "uint256[]"
        },
        {
          "name": "_lockupNames",
          "type": "bytes32[]"
        }
      ],
      "name": "modifyLockUpTypeMulti",
      "outputs": [],
      "payable": false,
      "stateMutability": "nonpayable",
      "type": "function"
    },
    {
      "constant": true,
      "inputs": [
        {
          "name": "_lockupName",
          "type": "bytes32"
        }
      ],
      "name": "getLockUp",
      "outputs": [
        {
          "name": "lockupAmount",
          "type": "uint256"
        },
        {
          "name": "startTime",
          "type": "uint256"
        },
        {
          "name": "lockUpPeriodSeconds",
          "type": "uint256"
        },
        {
          "name": "releaseFrequencySeconds",
          "type": "uint256"
        },
        {
          "name": "unlockedAmount",
          "type": "uint256"
        }
      ],
      "payable": false,
      "stateMutability": "view",
      "type": "function"
    },
    {
      "constant": true,
      "inputs": [
        {
          "name": "_lockupName",
          "type": "bytes32"
        }
      ],
      "name": "getListOfAddresses",
      "outputs": [
        {
          "name": "",
          "type": "address[]"
        }
      ],
      "payable": false,
      "stateMutability": "view",
      "type": "function"
    },
    {
      "constant": true,
      "inputs": [],
      "name": "getAllLockups",
      "outputs": [
        {
          "name": "",
          "type": "bytes32[]"
        }
      ],
      "payable": false,
      "stateMutability": "view",
      "type": "function"
    },
    {
      "constant": true,
      "inputs": [
        {
          "name": "_user",
          "type": "address"
        }
      ],
      "name": "getLockupsNamesToUser",
      "outputs": [
        {
          "name": "",
          "type": "bytes32[]"
        }
      ],
      "payable": false,
      "stateMutability": "view",
      "type": "function"
    },
    {
      "constant": true,
      "inputs": [
        {
          "name": "_userAddress",
          "type": "address"
        }
      ],
      "name": "getLockedTokenToUser",
      "outputs": [
        {
          "name": "",
          "type": "uint256"
        }
      ],
      "payable": false,
      "stateMutability": "view",
      "type": "function"
    },
    {
      "constant": true,
      "inputs": [],
      "name": "getInitFunction",
      "outputs": [
        {
          "name": "",
          "type": "bytes4"
        }
      ],
      "payable": false,
      "stateMutability": "pure",
      "type": "function"
    },
    {
      "constant": true,
      "inputs": [],
      "name": "getPermissions",
      "outputs": [
        {
          "name": "",
          "type": "bytes32[]"
        }
      ],
      "payable": false,
      "stateMutability": "view",
      "type": "function"
    }
  ],
  "bytecode": "0x60806040526002805460a060020a60ff021916905534801561002057600080fd5b50604051604080613b9083398101604052805160209091015160018054600160a060020a03938416600160a060020a0319918216179091556000805482163317905560028054939092169216919091179055613b0f806100816000396000f3006080604052600436106101665763ffffffff60e060020a60003504166311e0f35a811461016b5780631613ec9d146101d3578063185581ab1461021d57806322d8067e1461023e57806329063d161461026c5780632a0acc6a146102905780633353f832146102b7578063346cfccc146103075780633c7c9299146103455780633f4ba83a146103655780635c975abb1461037a5780635d796406146103a35780635f7619a4146104dc5780636faa22a5146104f4578063732cc8a51461052557806381e3b53c146105685780638456cb591461059457806386d74c88146105a95780638e5517121461071b578063a8fe24b31461073c578063b84dfbd214610751578063c3a07df614610766578063c45a01551461077b578063c772b0f414610790578063d663ad1f146107c0578063d70afa96146107e4578063d982fca5146107f9578063de6ee1bc1461081d578063ee91f7f0146108b4578063fc9fe690146108d8575b600080fd5b34801561017757600080fd5b506101836004356108f0565b60408051602080825283518183015283519192839290830191858101910280838360005b838110156101bf5781810151838201526020016101a7565b505050509050019250505060405180910390f35b3480156101df57600080fd5b506101e86109c5565b604080517fffffffff000000000000000000000000000000000000000000000000000000009092168252519081900360200190f35b34801561022957600080fd5b50610183600160a060020a03600435166109cb565b34801561024a57600080fd5b5061026a6024600480358281019290820135918135918201910135610a37565b005b34801561027857600080fd5b5061026a600435602435604435606435608435610c72565b34801561029c57600080fd5b506102a5610e02565b60408051918252519081900360200190f35b3480156102c357600080fd5b5061026a6024600480358281019290820135918135808301929082013591604435808301929082013591606435808301929082013591608435918201910135610e11565b34801561031357600080fd5b5061031f6004356110ab565b604080519485526020850193909352838301919091526060830152519081900360800190f35b34801561035157600080fd5b5061026a60048035602481019101356110d4565b34801561037157600080fd5b5061026a611298565b34801561038657600080fd5b5061038f611380565b604080519115158252519081900360200190f35b3480156103af57600080fd5b506040805160206004803580820135838102808601850190965280855261026a95369593946024949385019291829185019084908082843750506040805187358901803560208181028481018201909552818452989b9a998901989297509082019550935083925085019084908082843750506040805187358901803560208181028481018201909552818452989b9a998901989297509082019550935083925085019084908082843750506040805187358901803560208181028481018201909552818452989b9a998901989297509082019550935083925085019084908082843750506040805187358901803560208181028481018201909552818452989b9a9989019892975090820195509350839250850190849080828437509497506113909650505050505050565b3480156104e857600080fd5b5061038f60043561163b565b34801561050057600080fd5b50610509611959565b60408051600160a060020a039092168252519081900360200190f35b34801561053157600080fd5b5061053d600435611968565b6040805195865260208601949094528484019290925260608401526080830152519081900360a00190f35b34801561057457600080fd5b5061026a60246004803582810192908201359181359182019101356119db565b3480156105a057600080fd5b5061026a611c0c565b3480156105b557600080fd5b506040805160206004803580820135838102808601850190965280855261026a95369593946024949385019291829185019084908082843750506040805187358901803560208181028481018201909552818452989b9a998901989297509082019550935083925085019084908082843750506040805187358901803560208181028481018201909552818452989b9a998901989297509082019550935083925085019084908082843750506040805187358901803560208181028481018201909552818452989b9a998901989297509082019550935083925085019084908082843750506040805187358901803560208181028481018201909552818452989b9a998901989297509082019550935083925085019084908082843750506040805187358901803560208181028481018201909552818452989b9a998901989297509082019550935083925085019084908082843750949750611cf29650505050505050565b34801561072757600080fd5b506102a5600160a060020a0360043516611fc3565b34801561074857600080fd5b50610183612114565b34801561075d57600080fd5b5061050961216d565b34801561077257600080fd5b5061018361217c565b34801561078757600080fd5b506105096121ce565b34801561079c57600080fd5b5061026a600160a060020a036004351660243560443560643560843560a4356121dd565b3480156107cc57600080fd5b5061026a60043560243560443560643560843561236e565b3480156107f057600080fd5b506102a56124fe565b34801561080557600080fd5b5061026a600160a060020a0360043516602435612522565b34801561082957600080fd5b50604080516020601f60643560048181013592830184900484028501840190955281845261089094600160a060020a0381358116956024803590921695604435953695608494019181908401838280828437509497505050509135151592506126b6915050565b604051808260038111156108a057fe5b60ff16815260200191505060405180910390f35b3480156108c057600080fd5b5061026a600160a060020a0360043516602435612721565b3480156108e457600080fd5b5061026a6004356128ae565b600081815260036020526040902060010154606090151561095b576040805160e560020a62461bcd02815260206004820152601c60248201527f426c61636b6c697374207479706520646f65736e277420657869737400000000604482015290519081900360640190fd5b600082815260056020908152604091829020805483518184028101840190945280845290918301828280156109b957602002820191906000526020600020905b8154600160a060020a0316815260019091019060200180831161099b575b50505050509050919050565b60005b90565b600160a060020a0381166000908152600460209081526040918290208054835181840281018401909452808452606093928301828280156109b957602002820191906000526020600020905b81548152600190910190602001808311610a175750505050509050919050565b600060d960020a6420a226a4a702600080600160009054906101000a9004600160a060020a0316600160a060020a0316638da5cb5b6040518163ffffffff1660e060020a028152600401602060405180830381600087803b158015610a9b57600080fd5b505af1158015610aaf573d6000803e3d6000fd5b505050506040513d6020811015610ac557600080fd5b505160005433600160a060020a039283168114945091161490508180610ae85750805b80610b7857506001546040805160e060020a638658b8b9028152336004820152306024820152604481018690529051600160a060020a0390921691638658b8b9916064808201926020929091908290030181600087803b158015610b4b57600080fd5b505af1158015610b5f573d6000803e3d6000fd5b505050506040513d6020811015610b7557600080fd5b50515b1515610bbc576040805160e560020a62461bcd0281526020600482015260176024820152600080516020613ac4833981519152604482015290519081900360640190fd5b868514610c13576040805160e560020a62461bcd02815260206004820152601560248201527f4172726179206c656e677468206d69736d617463680000000000000000000000604482015290519081900360640190fd5b600093505b86841015610c6857610c5d888886818110610c2f57fe5b90506020020135600160a060020a03168787878181101515610c4d57fe5b9050602002013560001916612a40565b600190930192610c18565b5050505050505050565b60d960020a6420a226a4a702600080600160009054906101000a9004600160a060020a0316600160a060020a0316638da5cb5b6040518163ffffffff1660e060020a028152600401602060405180830381600087803b158015610cd457600080fd5b505af1158015610ce8573d6000803e3d6000fd5b505050506040513d6020811015610cfe57600080fd5b505160005433600160a060020a039283168114945091161490508180610d215750805b80610db157506001546040805160e060020a638658b8b9028152336004820152306024820152604481018690529051600160a060020a0390921691638658b8b9916064808201926020929091908290030181600087803b158015610d8457600080fd5b505af1158015610d98573d6000803e3d6000fd5b505050506040513d6020811015610dae57600080fd5b50515b1515610df5576040805160e560020a62461bcd0281526020600482015260176024820152600080516020613ac4833981519152604482015290519081900360640190fd5b610c688888888888612e59565b60d960020a6420a226a4a70281565b600060d960020a6420a226a4a702600080600160009054906101000a9004600160a060020a0316600160a060020a0316638da5cb5b6040518163ffffffff1660e060020a028152600401602060405180830381600087803b158015610e7557600080fd5b505af1158015610e89573d6000803e3d6000fd5b505050506040513d6020811015610e9f57600080fd5b505160005433600160a060020a039283168114945091161490508180610ec25750805b80610f5257506001546040805160e060020a638658b8b9028152336004820152306024820152604481018690529051600160a060020a0390921691638658b8b9916064808201926020929091908290030181600087803b158015610f2557600080fd5b505af1158015610f39573d6000803e3d6000fd5b505050506040513d6020811015610f4f57600080fd5b50515b1515610f96576040805160e560020a62461bcd0281526020600482015260176024820152600080516020613ac4833981519152604482015290519081900360640190fd5b8489148015610fa457508487145b8015610faf5750848b145b8015610fba5750848d145b1515611010576040805160e560020a62461bcd02815260206004820152601b60248201527f496e707574206172726179206c656e677468206d69736d617463680000000000604482015290519081900360640190fd5b600093505b8484101561109b576110908e8e8681811061102c57fe5b905060200201358d8d87818110151561104157fe5b905060200201358c8c88818110151561105657fe5b905060200201358b8b89818110151561106b57fe5b905060200201358a8a8a818110151561108057fe5b9050602002013560001916612e59565b600190930192611015565b5050505050505050505050505050565b600360208190526000918252604090912080546001820154600283015492909301549092919084565b600060d960020a6420a226a4a702600080600160009054906101000a9004600160a060020a0316600160a060020a0316638da5cb5b6040518163ffffffff1660e060020a028152600401602060405180830381600087803b15801561113857600080fd5b505af115801561114c573d6000803e3d6000fd5b505050506040513d602081101561116257600080fd5b505160005433600160a060020a0392831681149450911614905081806111855750805b8061121557506001546040805160e060020a638658b8b9028152336004820152306024820152604481018690529051600160a060020a0390921691638658b8b9916064808201926020929091908290030181600087803b1580156111e857600080fd5b505af11580156111fc573d6000803e3d6000fd5b505050506040513d602081101561121257600080fd5b50515b1515611259576040805160e560020a62461bcd0281526020600482015260176024820152600080516020613ac4833981519152604482015290519081900360640190fd5b600093505b848410156112905761128586868681811061127557fe5b905060200201356000191661304f565b60019093019261125e565b505050505050565b600160009054906101000a9004600160a060020a0316600160a060020a0316638da5cb5b6040518163ffffffff1660e060020a028152600401602060405180830381600087803b1580156112eb57600080fd5b505af11580156112ff573d6000803e3d6000fd5b505050506040513d602081101561131557600080fd5b5051600160a060020a03163314611376576040805160e560020a62461bcd02815260206004820152601360248201527f53656e646572206973206e6f74206f776e657200000000000000000000000000604482015290519081900360640190fd5b61137e61322a565b565b60025460a060020a900460ff1681565b600060d960020a6420a226a4a702600080600160009054906101000a9004600160a060020a0316600160a060020a0316638da5cb5b6040518163ffffffff1660e060020a028152600401602060405180830381600087803b1580156113f457600080fd5b505af1158015611408573d6000803e3d6000fd5b505050506040513d602081101561141e57600080fd5b505160005433600160a060020a0392831681149450911614905081806114415750805b806114d157506001546040805160e060020a638658b8b9028152336004820152306024820152604481018690529051600160a060020a0390921691638658b8b9916064808201926020929091908290030181600087803b1580156114a457600080fd5b505af11580156114b8573d6000803e3d6000fd5b505050506040513d60208110156114ce57600080fd5b50515b1515611515576040805160e560020a62461bcd0281526020600482015260176024820152600080516020613ac4833981519152604482015290519081900360640190fd5b86518551148015611527575085518551145b8015611534575087518551145b8015611541575088518551145b1515611597576040805160e560020a62461bcd02815260206004820152601b60248201527f496e707574206172726179206c656e677468206d69736d617463680000000000604482015290519081900360640190fd5b600093505b84518410156116305761162589858151811015156115b657fe5b9060200190602002015189868151811015156115ce57fe5b9060200190602002015189878151811015156115e657fe5b9060200190602002015189888151811015156115fe57fe5b90602001906020020151898981518110151561161657fe5b906020019060200201516132e0565b60019093019261159c565b505050505050505050565b60007f4645455f41444d494e0000000000000000000000000000000000000000000000600080600160009054906101000a9004600160a060020a0316600160a060020a0316638da5cb5b6040518163ffffffff1660e060020a028152600401602060405180830381600087803b1580156116b457600080fd5b505af11580156116c8573d6000803e3d6000fd5b505050506040513d60208110156116de57600080fd5b505160005433600160a060020a0392831681149450911614905081806117015750805b8061179157506001546040805160e060020a638658b8b9028152336004820152306024820152604481018690529051600160a060020a0390921691638658b8b9916064808201926020929091908290030181600087803b15801561176457600080fd5b505af1158015611778573d6000803e3d6000fd5b505050506040513d602081101561178e57600080fd5b50515b15156117d5576040805160e560020a62461bcd0281526020600482015260176024820152600080516020613ac4833981519152604482015290519081900360640190fd5b60025460015460008054604080517f8da5cb5b0000000000000000000000000000000000000000000000000000000081529051600160a060020a03958616956323b872dd95811694931692638da5cb5b92600480820193602093909283900390910190829087803b15801561184957600080fd5b505af115801561185d573d6000803e3d6000fd5b505050506040513d602081101561187357600080fd5b50516040805160e060020a63ffffffff8616028152600160a060020a039384166004820152929091166024830152604482018990525160648083019260209291908290030181600087803b1580156118ca57600080fd5b505af11580156118de573d6000803e3d6000fd5b505050506040513d60208110156118f457600080fd5b5051151561194c576040805160e560020a62461bcd02815260206004820152601260248201527f556e61626c6520746f2074616b65206665650000000000000000000000000000604482015290519081900360640190fd5b600193505b505050919050565b600254600160a060020a031681565b6000818152600360205260408120548190819081908190156119c25760008681526003602081905260409091208054600182015460028301549290930154909291906119b38a61344c565b945094509450945094506119d2565b5060009350839250829150819050805b91939590929450565b600060d960020a6420a226a4a702600080600160009054906101000a9004600160a060020a0316600160a060020a0316638da5cb5b6040518163ffffffff1660e060020a028152600401602060405180830381600087803b158015611a3f57600080fd5b505af1158015611a53573d6000803e3d6000fd5b505050506040513d6020811015611a6957600080fd5b505160005433600160a060020a039283168114945091161490508180611a8c5750805b80611b1c57506001546040805160e060020a638658b8b9028152336004820152306024820152604481018690529051600160a060020a0390921691638658b8b9916064808201926020929091908290030181600087803b158015611aef57600080fd5b505af1158015611b03573d6000803e3d6000fd5b505050506040513d6020811015611b1957600080fd5b50515b1515611b60576040805160e560020a62461bcd0281526020600482015260176024820152600080516020613ac4833981519152604482015290519081900360640190fd5b868514611bb7576040805160e560020a62461bcd02815260206004820152600f60248201527f4c656e677468206d69736d617463680000000000000000000000000000000000604482015290519081900360640190fd5b600093505b86841015610c6857611c01888886818110611bd357fe5b90506020020135600160a060020a03168787878181101515611bf157fe5b9050602002013560001916613555565b600190930192611bbc565b600160009054906101000a9004600160a060020a0316600160a060020a0316638da5cb5b6040518163ffffffff1660e060020a028152600401602060405180830381600087803b158015611c5f57600080fd5b505af1158015611c73573d6000803e3d6000fd5b505050506040513d6020811015611c8957600080fd5b5051600160a060020a03163314611cea576040805160e560020a62461bcd02815260206004820152601360248201527f53656e646572206973206e6f74206f776e657200000000000000000000000000604482015290519081900360640190fd5b61137e6136c0565b600060d960020a6420a226a4a702600080600160009054906101000a9004600160a060020a0316600160a060020a0316638da5cb5b6040518163ffffffff1660e060020a028152600401602060405180830381600087803b158015611d5657600080fd5b505af1158015611d6a573d6000803e3d6000fd5b505050506040513d6020811015611d8057600080fd5b505160005433600160a060020a039283168114945091161490508180611da35750805b80611e3357506001546040805160e060020a638658b8b9028152336004820152306024820152604481018690529051600160a060020a0390921691638658b8b9916064808201926020929091908290030181600087803b158015611e0657600080fd5b505af1158015611e1a573d6000803e3d6000fd5b505050506040513d6020811015611e3057600080fd5b50515b1515611e77576040805160e560020a62461bcd0281526020600482015260176024820152600080516020613ac4833981519152604482015290519081900360640190fd5b86518a51148015611e89575085518a51145b8015611e96575087518a51145b8015611ea3575088518a51145b8015611eb0575084518a51145b1515611f06576040805160e560020a62461bcd02815260206004820152601b60248201527f496e707574206172726179206c656e677468206d69736d617463680000000000604482015290519081900360640190fd5b600093505b8951841015611fb757611fac8a85815181101515611f2557fe5b906020019060200201518a86815181101515611f3d57fe5b906020019060200201518a87815181101515611f5557fe5b906020019060200201518a88815181101515611f6d57fe5b906020019060200201518a89815181101515611f8557fe5b906020019060200201518a8a815181101515611f9d57fe5b9060200190602002015161377b565b600190930192611f0b565b50505050505050505050565b60006060818080600160a060020a0386161515612018576040805160e560020a62461bcd02815260206004820152600f6024820152600080516020613aa4833981519152604482015290519081900360640190fd5b600160a060020a0386166000908152600460209081526040918290208054835181840281018401909452808452909183018282801561207757602002820191906000526020600020905b81548152600190910190602001808311612062575b5050505050935060009250600091505b835182101561210a576120eb6120b385848151811015156120a457fe5b9060200190602002015161344c565b6003600087868151811015156120c557fe5b60209081029091018101518252810191909152604001600020549063ffffffff6137e016565b90506120fd838263ffffffff6137f716565b9250600190910190612087565b5090949350505050565b6060600880548060200260200160405190810160405280929190818152602001828054801561216357602002820191906000526020600020905b8154815260019091019060200180831161214e575b5050505050905090565b600154600160a060020a031681565b6040805160018082528183019092526060918291906020808301908038833901905050905060d960020a6420a226a4a7028160008151811015156121bc57fe5b602090810290910101529050805b5090565b600054600160a060020a031681565b60d960020a6420a226a4a702600080600160009054906101000a9004600160a060020a0316600160a060020a0316638da5cb5b6040518163ffffffff1660e060020a028152600401602060405180830381600087803b15801561223f57600080fd5b505af1158015612253573d6000803e3d6000fd5b505050506040513d602081101561226957600080fd5b505160005433600160a060020a03928316811494509116149050818061228c5750805b8061231c57506001546040805160e060020a638658b8b9028152336004820152306024820152604481018690529051600160a060020a0390921691638658b8b9916064808201926020929091908290030181600087803b1580156122ef57600080fd5b505af1158015612303573d6000803e3d6000fd5b505050506040513d602081101561231957600080fd5b50515b1515612360576040805160e560020a62461bcd0281526020600482015260176024820152600080516020613ac4833981519152604482015290519081900360640190fd5b61163089898989898961377b565b60d960020a6420a226a4a702600080600160009054906101000a9004600160a060020a0316600160a060020a0316638da5cb5b6040518163ffffffff1660e060020a028152600401602060405180830381600087803b1580156123d057600080fd5b505af11580156123e4573d6000803e3d6000fd5b505050506040513d60208110156123fa57600080fd5b505160005433600160a060020a03928316811494509116149050818061241d5750805b806124ad57506001546040805160e060020a638658b8b9028152336004820152306024820152604481018690529051600160a060020a0390921691638658b8b9916064808201926020929091908290030181600087803b15801561248057600080fd5b505af1158015612494573d6000803e3d6000fd5b505050506040513d60208110156124aa57600080fd5b50515b15156124f1576040805160e560020a62461bcd0281526020600482015260176024820152600080516020613ac4833981519152604482015290519081900360640190fd5b610c6888888888886132e0565b7f4645455f41444d494e000000000000000000000000000000000000000000000081565b60d960020a6420a226a4a702600080600160009054906101000a9004600160a060020a0316600160a060020a0316638da5cb5b6040518163ffffffff1660e060020a028152600401602060405180830381600087803b15801561258457600080fd5b505af1158015612598573d6000803e3d6000fd5b505050506040513d60208110156125ae57600080fd5b505160005433600160a060020a0392831681149450911614905081806125d15750805b8061266157506001546040805160e060020a638658b8b9028152336004820152306024820152604481018690529051600160a060020a0390921691638658b8b9916064808201926020929091908290030181600087803b15801561263457600080fd5b505af1158015612648573d6000803e3d6000fd5b505050506040513d602081101561265e57600080fd5b50515b15156126a5576040805160e560020a62461bcd0281526020600482015260176024820152600080516020613ac4833981519152604482015290519081900360640190fd5b6126af8585613555565b5050505050565b60025460009060a060020a900460ff161580156126db5750600160a060020a03861615155b80156126fe5750600160a060020a03861660009081526004602052604090205415155b156127145761270d8685613804565b9050612718565b5060015b95945050505050565b60d960020a6420a226a4a702600080600160009054906101000a9004600160a060020a0316600160a060020a0316638da5cb5b6040518163ffffffff1660e060020a028152600401602060405180830381600087803b15801561278357600080fd5b505af1158015612797573d6000803e3d6000fd5b505050506040513d60208110156127ad57600080fd5b505160005433600160a060020a0392831681149450911614905081806127d05750805b8061286057506001546040805160e060020a638658b8b9028152336004820152306024820152604481018690529051600160a060020a0390921691638658b8b9916064808201926020929091908290030181600087803b15801561283357600080fd5b505af1158015612847573d6000803e3d6000fd5b505050506040513d602081101561285d57600080fd5b50515b15156128a4576040805160e560020a62461bcd0281526020600482015260176024820152600080516020613ac4833981519152604482015290519081900360640190fd5b6126af8585612a40565b60d960020a6420a226a4a702600080600160009054906101000a9004600160a060020a0316600160a060020a0316638da5cb5b6040518163ffffffff1660e060020a028152600401602060405180830381600087803b15801561291057600080fd5b505af1158015612924573d6000803e3d6000fd5b505050506040513d602081101561293a57600080fd5b505160005433600160a060020a03928316811494509116149050818061295d5750805b806129ed57506001546040805160e060020a638658b8b9028152336004820152306024820152604481018690529051600160a060020a0390921691638658b8b9916064808201926020929091908290030181600087803b1580156129c057600080fd5b505af11580156129d4573d6000803e3d6000fd5b505050506040513d60208110156129ea57600080fd5b50515b1515612a31576040805160e560020a62461bcd0281526020600482015260176024820152600080516020613ac4833981519152604482015290519081900360640190fd5b612a3a8461304f565b50505050565b60008080600160a060020a0385161515612a92576040805160e560020a62461bcd02815260206004820152600f6024820152600080516020613aa4833981519152604482015290519081900360640190fd5b831515612ae9576040805160e560020a62461bcd02815260206004820152601360248201527f496e76616c6964206c6f636b7570206e616d6500000000000000000000000000604482015290519081900360640190fd5b600160a060020a038516600090815260046020908152604080832060068352818420888552909252909120548154869291908110612b2357fe5b60009182526020909120015414612baa576040805160e560020a62461bcd02815260206004820152602660248201527f55736572206e6f74206173736f73696361746564207769746820676976656e2060448201527f6c6f636b75700000000000000000000000000000000000000000000000000000606482015290519081900360840190fd5b6000848152600760209081526040808320600160a060020a03891684528252808320548784526005909252909120549093509150818314612cba57600084815260056020526040902080546000198401908110612c0357fe5b6000918252602080832090910154868352600590915260409091208054600160a060020a039092169185908110612c3657fe5b6000918252602080832091909101805473ffffffffffffffffffffffffffffffffffffffff1916600160a060020a039490941693909317909255858152600782526040808220600590935281208054869392919084908110612c9457fe5b6000918252602080832090910154600160a060020a031683528201929092526040019020555b6000848152600560205260409020805490612cd9906000198301613a6a565b5050506000828152600760209081526040808320600160a060020a0387168085529083528184208490556006835281842086855283528184205490845260049092529091205490818114612dda57600160a060020a038516600090815260046020526040902080546000198401908110612d4f57fe5b6000918252602080832090910154600160a060020a038816835260049091526040909120805483908110612d7f57fe5b6000918252602080832090910192909255600160a060020a0387168152600682526040808220600490935281208054849392919084908110612dbd57fe5b600091825260208083209091015483528201929092526040019020555b600160a060020a0385166000908152600460205260409020805490612e03906000198301613a6a565b50600160a060020a0385166000818152600660209081526040808320888452909152808220829055518692917f7e015c3eba27bdadcf5d6eb047426808ac067345c44487e8fe20c827a15b3e3291a35050505050565b83811515612eb1576040805160e560020a62461bcd02815260206004820152600c60248201527f496e76616c6964206e616d650000000000000000000000000000000000000000604482015290519081900360640190fd5b60008281526003602052604090205415612f15576040805160e560020a62461bcd02815260206004820152600d60248201527f416c726561647920657869737400000000000000000000000000000000000000604482015290519081900360640190fd5b841515612f1f5750425b42811015612f77576040805160e560020a62461bcd02815260206004820152601260248201527f496e76616c69642073746172742074696d650000000000000000000000000000604482015290519081900360640190fd5b612f828685856138d6565b6040805160808181018352888252602080830185815283850189815260608086018a815260008a815260038087528982209851895594516001808a019190915593516002890155905196909301959095556008805491820181559091527ff3f7a9fe364faab93b216da50a3214154f22a0a2b415b23a84c8169e8b636ee30186905583518a8152908101859052808401889052918201869052915184927fb7f7150064f743670bc37ec864a18c2bb16976d157f9527a0ca27f4b5fb2dab8928290030190a2505050505050565b60008181526003602052604081206001015415156130b7576040805160e560020a62461bcd02815260206004820152601b60248201527f4c6f636b7570207479706520646f65736ee28099742065786973740000000000604482015290519081900360640190fd5b60008281526005602052604090205415613140576040805160e560020a62461bcd028152602060048201526024808201527f557365727320617265206173736f636961746564207769746820746865206c6f60448201527f636b757000000000000000000000000000000000000000000000000000000000606482015290519081900360840190fd5b50600081815260036020819052604082208281556001810183905560028101839055018190555b6008548110156131a157600880548391908390811061318257fe5b6000918252602090912001541415613199576131a1565b600101613167565b6008546000190181146131e7576008805460001981019081106131c057fe5b90600052602060002001546008828154811015156131da57fe5b6000918252602090912001555b60088054906131fa906000198301613a6a565b5060405182907f58b50ad0531e420e8588ef106091636b3e6d6deef2e5d975f16bebedd08a36e690600090a25050565b60025460a060020a900460ff16151561328d576040805160e560020a62461bcd02815260206004820152601660248201527f436f6e7472616374206973206e6f742070617573656400000000000000000000604482015290519081900360640190fd5b6002805474ff0000000000000000000000000000000000000000191690556040805142815290517faaa520fdd7d2c83061d632fa017b0432407e798818af63ea908589fceda39ab79181900360200190a1565b838015156132eb5750425b42811015613343576040805160e560020a62461bcd02815260206004820152601260248201527f496e76616c69642073746172742074696d650000000000000000000000000000604482015290519081900360640190fd5b60008281526003602052604090205415156133a8576040805160e560020a62461bcd02815260206004820152600d60248201527f446f65736e277420657869737400000000000000000000000000000000000000604482015290519081900360640190fd5b6133b38685856138d6565b6040805160808181018352888252602080830185815283850189815260608086018a815260008a81526003808752908990209751885593516001880155915160028701559051949091019390935583518a8152908101859052808401889052918201869052915184927ff6dd8145f3824e82ad83c088852835c2c806fec34a670ca146b2cc778584f7fa928290030190a2505050505050565b6000818152600360205260408120600101548190819081904210156134745760009350611951565b60008581526003602052604090206002810154600190910154429161349f919063ffffffff6137f716565b116134ba576000858152600360205260409020549350611951565b6000858152600360208190526040909120908101546002909101546134e49163ffffffff613a2c16565b6000868152600360208190526040909120908101546001909101549194506135239161351790429063ffffffff6137e016565b9063ffffffff613a2c16565b60008681526003602052604090205490925061354b908490613517908563ffffffff613a4116565b9050809350611951565b600160a060020a03821615156135a3576040805160e560020a62461bcd02815260206004820152600f6024820152600080516020613aa4833981519152604482015290519081900360640190fd5b60008181526003602052604090206001015442111561360c576040805160e560020a62461bcd02815260206004820152600e60248201527f4c6f636b75702065787069726564000000000000000000000000000000000000604482015290519081900360640190fd5b600160a060020a0382166000818152600460209081526040808320805460068452828520878652845282852055600580845282852080546007865284872088885286528487205582546001818101855593875285872001889055908452805491820181558452918320909101805473ffffffffffffffffffffffffffffffffffffffff191684179055518392917f4f5a1c0af08eb073ff1b227c4891b02246e8c359c2f887aa1e12e3a276f194e291a35050565b60025460a060020a900460ff1615613722576040805160e560020a62461bcd02815260206004820152601260248201527f436f6e7472616374206973207061757365640000000000000000000000000000604482015290519081900360640190fd5b6002805474ff0000000000000000000000000000000000000000191660a060020a1790556040805142815290517f68b095021b1f40fe513109f513c66692f0b3219aee674a69f4efc57badb8201d9181900360200190a1565b600160a060020a03861615156137c9576040805160e560020a62461bcd02815260206004820152600f6024820152600080516020613aa4833981519152604482015290519081900360640190fd5b6137d68585858585612e59565b6112908682613555565b6000828211156137ec57fe5b508082035b92915050565b818101828110156137f157fe5b600080600061381285611fc3565b600154604080517f70a08231000000000000000000000000000000000000000000000000000000008152600160a060020a03898116600483015291519395509116916370a08231916024808201926020929091908290030181600087803b15801561387c57600080fd5b505af1158015613890573d6000803e3d6000fd5b505050506040513d60208110156138a657600080fd5b50519050816138bb828663ffffffff6137e016565b106138c957600192506138ce565b600092505b505092915050565b811515613953576040805160e560020a62461bcd02815260206004820152602260248201527f6c6f636b5570506572696f645365636f6e64732063616e6e6f74206265207a6560448201527f726f000000000000000000000000000000000000000000000000000000000000606482015290519081900360840190fd5b8015156139d0576040805160e560020a62461bcd02815260206004820152602660248201527f72656c656173654672657175656e63795365636f6e64732063616e6e6f74206260448201527f65207a65726f0000000000000000000000000000000000000000000000000000606482015290519081900360840190fd5b821515613a27576040805160e560020a62461bcd02815260206004820152601b60248201527f6c6f636b7570416d6f756e742063616e6e6f74206265207a65726f0000000000604482015290519081900360640190fd5b505050565b60008183811515613a3957fe5b049392505050565b6000821515613a52575060006137f1565b50818102818382811515613a6257fe5b04146137f157fe5b815481835581811115613a2757600083815260209020613a279181019083016109c891905b808211156121ca5760008155600101613a8f5600496e76616c6964206164647265737300000000000000000000000000000000005065726d697373696f6e20636865636b206661696c6564000000000000000000a165627a7a723058201c1150cfcd8ec718f9de84f287cd5c97c45069faeb64a826f38c95127a5c365d0029",
  "source": "pragma solidity ^0.4.24;\n\nimport \"../../TransferManager/ITransferManager.sol\";\nimport \"openzeppelin-solidity/contracts/math/SafeMath.sol\";\n\ncontract LockUpTransferManager is ITransferManager {\n\n    using SafeMath for uint256;\n\n    // permission definition\n    bytes32 public constant ADMIN = \"ADMIN\";\n\n    // a per-user lockup\n    struct LockUp {\n        uint256 lockupAmount; // Amount to be locked\n        uint256 startTime; // when this lockup starts (seconds)\n        uint256 lockUpPeriodSeconds; // total period of lockup (seconds)\n        uint256 releaseFrequencySeconds; // how often to release a tranche of tokens (seconds)\n    }\n\n    // mapping use to store the lockup details corresponds to lockup name\n    mapping (bytes32 => LockUp) public lockups;\n    // mapping user addresses to an array of lockups name for that user\n    mapping (address => bytes32[]) internal userToLockups;\n    // get list of the addresses for a particular lockupName\n    mapping (bytes32 => address[]) internal lockupToUsers;\n    // holds lockup index corresponds to user address. userAddress => lockupName => lockupIndex\n    mapping (address => mapping(bytes32 => uint256)) internal userToLockupIndex; \n    // holds the user address index corresponds to the lockup. lockupName => userAddress => userIndex \n    mapping (bytes32 => mapping(address => uint256)) internal lockupToUserIndex;\n\n    bytes32[] lockupArray;\n\n    event AddLockUpToUser(\n        address indexed _userAddress,\n        bytes32 indexed _lockupName\n    );\n\n    event RemoveLockUpFromUser(\n        address indexed _userAddress,\n        bytes32 indexed _lockupName\n    );\n\n    event ModifyLockUpType(\n        uint256 _lockupAmount,\n        uint256 _startTime,\n        uint256 _lockUpPeriodSeconds,\n        uint256 _releaseFrequencySeconds,\n        bytes32 indexed _lockupName\n    );\n\n    event AddNewLockUpType(\n        bytes32 indexed _lockupName,\n        uint256 _lockupAmount,\n        uint256 _startTime,\n        uint256 _lockUpPeriodSeconds,\n        uint256 _releaseFrequencySeconds\n    );\n\n    event RemoveLockUpType(bytes32 indexed _lockupName);\n\n    /**\n     * @notice Constructor\n     * @param _securityToken Address of the security token\n     * @param _polyAddress Address of the polytoken\n     */\n    constructor (address _securityToken, address _polyAddress)\n    public\n    Module(_securityToken, _polyAddress)\n    {\n    }\n\n    /** @notice Used to verify the transfer transaction and prevent locked up tokens from being transferred\n     * @param _from Address of the sender\n     * @param _amount The amount of tokens to transfer\n     */\n    function verifyTransfer(address  _from, address /* _to*/, uint256  _amount, bytes /* _data */, bool /*_isTransfer*/) public returns(Result) {\n        // only attempt to verify the transfer if the token is unpaused, this isn't a mint txn, and there exists a lockup for this user\n        if (!paused && _from != address(0) && userToLockups[_from].length != 0) {  \n            // check if this transfer is valid\n            return _checkIfValidTransfer(_from, _amount);\n        }\n        return Result.NA;\n    }\n\n    /**\n     * @notice Use to add the new lockup type\n     * @param _lockupAmount Amount of tokens that need to lock.\n     * @param _startTime When this lockup starts (seconds)\n     * @param _lockUpPeriodSeconds Total period of lockup (seconds)\n     * @param _releaseFrequencySeconds How often to release a tranche of tokens (seconds)\n     * @param _lockupName Name of the lockup\n     */\n    function addNewLockUpType(\n        uint256 _lockupAmount,\n        uint256 _startTime,\n        uint256 _lockUpPeriodSeconds,\n        uint256 _releaseFrequencySeconds,\n        bytes32 _lockupName\n    )\n        public\n        withPerm(ADMIN) \n    {\n        _addNewLockUpType(\n            _lockupAmount,\n            _startTime,\n            _lockUpPeriodSeconds,\n            _releaseFrequencySeconds,\n            _lockupName\n        );\n    }\n\n    /**\n     * @notice Use to add the new lockup type\n     * @param _lockupAmounts Array of amount of tokens that need to lock.\n     * @param _startTimes Array of startTimes when this lockup starts (seconds)\n     * @param _lockUpPeriodsSeconds Array of total period of lockup (seconds)\n     * @param _releaseFrequenciesSeconds Array of how often to release a tranche of tokens (seconds)\n     * @param _lockupNames Array of names of the lockup\n     */\n    function addNewLockUpTypeMulti(\n        uint256[] _lockupAmounts,\n        uint256[] _startTimes,\n        uint256[] _lockUpPeriodsSeconds,\n        uint256[] _releaseFrequenciesSeconds,\n        bytes32[] _lockupNames\n    )  \n        external\n        withPerm(ADMIN)\n    {\n        require(\n            _lockupNames.length == _lockUpPeriodsSeconds.length && /*solium-disable-line operator-whitespace*/\n            _lockupNames.length == _releaseFrequenciesSeconds.length && /*solium-disable-line operator-whitespace*/\n            _lockupNames.length == _startTimes.length && /*solium-disable-line operator-whitespace*/\n            _lockupNames.length == _lockupAmounts.length,\n            \"Input array length mismatch\"\n        );\n        for (uint256 i = 0; i < _lockupNames.length; i++) {\n            _addNewLockUpType(\n                _lockupAmounts[i],\n                _startTimes[i],\n                _lockUpPeriodsSeconds[i],\n                _releaseFrequenciesSeconds[i],\n                _lockupNames[i]\n            );\n        }\n    } \n\n    /**\n     * @notice Add the lockup to a user\n     * @param _userAddress Address of the user\n     * @param _lockupName Name of the lockup\n     */\n    function addLockUpByName(\n        address _userAddress,\n        bytes32 _lockupName\n    )\n        public\n        withPerm(ADMIN)\n    {\n        _addLockUpByName(_userAddress, _lockupName);\n    }\n\n    /**\n     * @notice Add the lockup to a user\n     * @param _userAddresses Address of the user\n     * @param _lockupNames Name of the lockup\n     */\n    function addLockUpByNameMulti(\n        address[] _userAddresses,\n        bytes32[] _lockupNames\n    )\n        external\n        withPerm(ADMIN)\n    {\n        require(_userAddresses.length == _lockupNames.length, \"Length mismatch\");\n        for (uint256 i = 0; i < _userAddresses.length; i++) {\n            _addLockUpByName(_userAddresses[i], _lockupNames[i]);\n        }\n    }\n\n    /**\n     * @notice Lets the admin create a volume restriction lockup for a given address.\n     * @param _userAddress Address of the user whose tokens should be locked up\n     * @param _lockupAmount Amount of tokens that need to lock.\n     * @param _startTime When this lockup starts (seconds)\n     * @param _lockUpPeriodSeconds Total period of lockup (seconds)\n     * @param _releaseFrequencySeconds How often to release a tranche of tokens (seconds)\n     * @param _lockupName Name of the lockup\n     */\n    function addNewLockUpToUser(\n        address _userAddress,\n        uint256 _lockupAmount,\n        uint256 _startTime,\n        uint256 _lockUpPeriodSeconds,\n        uint256 _releaseFrequencySeconds,\n        bytes32 _lockupName\n    ) \n        external \n        withPerm(ADMIN)\n    {   \n       _addNewLockUpToUser(\n            _userAddress,\n            _lockupAmount,\n            _startTime,\n            _lockUpPeriodSeconds,\n            _releaseFrequencySeconds,\n            _lockupName\n        ); \n    }\n\n    /**\n     * @notice Lets the admin create multiple volume restriction lockups for multiple given addresses.\n     * @param _userAddresses Array of address of the user whose tokens should be locked up\n     * @param _lockupAmounts Array of the amounts that need to be locked for the different addresses.\n     * @param _startTimes Array of When this lockup starts (seconds)\n     * @param _lockUpPeriodsSeconds Array of total periods of lockup (seconds)\n     * @param _releaseFrequenciesSeconds Array of how often to release a tranche of tokens (seconds)\n     * @param _lockupNames Array of names of the lockup\n     */\n    function addNewLockUpToUserMulti(\n        address[] _userAddresses,\n        uint256[] _lockupAmounts,\n        uint256[] _startTimes,\n        uint256[] _lockUpPeriodsSeconds,\n        uint256[] _releaseFrequenciesSeconds,\n        bytes32[] _lockupNames\n    ) \n        public\n        withPerm(ADMIN)\n    {\n        require(\n            _userAddresses.length == _lockUpPeriodsSeconds.length && /*solium-disable-line operator-whitespace*/\n            _userAddresses.length == _releaseFrequenciesSeconds.length && /*solium-disable-line operator-whitespace*/\n            _userAddresses.length == _startTimes.length && /*solium-disable-line operator-whitespace*/\n            _userAddresses.length == _lockupAmounts.length &&\n            _userAddresses.length == _lockupNames.length,\n            \"Input array length mismatch\"\n        );\n        for (uint256 i = 0; i < _userAddresses.length; i++) {\n            _addNewLockUpToUser(_userAddresses[i], _lockupAmounts[i], _startTimes[i], _lockUpPeriodsSeconds[i], _releaseFrequenciesSeconds[i], _lockupNames[i]);\n        }\n    }\n\n    /**\n     * @notice Lets the admin remove a user's lock up\n     * @param _userAddress Address of the user whose tokens are locked up\n     * @param _lockupName Name of the lockup need to be removed.\n     */\n    function removeLockUpFromUser(address _userAddress, bytes32 _lockupName) external withPerm(ADMIN) {\n        _removeLockUpFromUser(_userAddress, _lockupName);\n    }\n\n    /**\n     * @notice Used to remove the lockup type\n     * @param _lockupName Name of the lockup\n     */\n    function removeLockupType(bytes32 _lockupName) external withPerm(ADMIN) {\n        _removeLockupType(_lockupName);\n    }\n\n    /**\n     * @notice Used to remove the multiple lockup type\n     * @param _lockupNames Array of the lockup names.\n     */\n    function removeLockupTypeMulti(bytes32[] _lockupNames) external withPerm(ADMIN) {\n        for (uint256 i = 0; i < _lockupNames.length; i++) {\n            _removeLockupType(_lockupNames[i]);\n        }\n    }\n\n    /**\n     * @notice Use to remove the lockup for multiple users\n     * @param _userAddresses Array of addresses of the user whose tokens are locked up\n     * @param _lockupNames Array of the names of the lockup that needs to be removed. \n     */\n    function removeLockUpFromUserMulti(address[] _userAddresses, bytes32[] _lockupNames) external withPerm(ADMIN) {\n        require(_userAddresses.length == _lockupNames.length, \"Array length mismatch\");\n        for (uint256 i = 0; i < _userAddresses.length; i++) {\n            _removeLockUpFromUser(_userAddresses[i], _lockupNames[i]);\n        }\n    }\n\n    /**\n     * @notice Lets the admin modify a lockup.\n     * @param _lockupAmount Amount of tokens that needs to be locked\n     * @param _startTime When this lockup starts (seconds)\n     * @param _lockUpPeriodSeconds Total period of lockup (seconds)\n     * @param _releaseFrequencySeconds How often to release a tranche of tokens (seconds)\n     * @param _lockupName name of the lockup that needs to be modified.\n     */\n    function modifyLockUpType(\n        uint256 _lockupAmount,\n        uint256 _startTime,\n        uint256 _lockUpPeriodSeconds,\n        uint256 _releaseFrequencySeconds,\n        bytes32 _lockupName\n    ) \n        external \n        withPerm(ADMIN) \n    {\n        _modifyLockUpType(\n            _lockupAmount,\n            _startTime,\n            _lockUpPeriodSeconds,\n            _releaseFrequencySeconds,\n            _lockupName\n        );\n    }\n\n    /**\n     * @notice Lets the admin modify a volume restriction lockup for a multiple address.\n     * @param _lockupAmounts Array of the amount of tokens that needs to be locked for the respective addresses.\n     * @param _startTimes Array of the start time of the lockups (seconds)\n     * @param _lockUpPeriodsSeconds Array of unix timestamp for the list of lockups (seconds).\n     * @param _releaseFrequenciesSeconds How often to release a tranche of tokens (seconds)\n     * @param _lockupNames Array of the lockup names that needs to be modified \n     */\n    function modifyLockUpTypeMulti(\n        uint256[] _lockupAmounts,\n        uint256[] _startTimes,\n        uint256[] _lockUpPeriodsSeconds,\n        uint256[] _releaseFrequenciesSeconds,\n        bytes32[] _lockupNames\n    ) \n        public \n        withPerm(ADMIN)\n    {\n        require(\n            _lockupNames.length == _lockUpPeriodsSeconds.length && /*solium-disable-line operator-whitespace*/\n            _lockupNames.length == _releaseFrequenciesSeconds.length && /*solium-disable-line operator-whitespace*/\n            _lockupNames.length == _startTimes.length && /*solium-disable-line operator-whitespace*/\n            _lockupNames.length == _lockupAmounts.length,\n            \"Input array length mismatch\"\n        );\n        for (uint256 i = 0; i < _lockupNames.length; i++) {\n            _modifyLockUpType(\n                _lockupAmounts[i],\n                _startTimes[i],\n                _lockUpPeriodsSeconds[i],\n                _releaseFrequenciesSeconds[i],\n                _lockupNames[i]\n            );\n        }\n    }\n\n    /**\n     * @notice Get a specific element in a user's lockups array given the user's address and the element index\n     * @param _lockupName The name of the lockup\n     */\n    function getLockUp(bytes32 _lockupName) external view returns (\n        uint256 lockupAmount,\n        uint256 startTime,\n        uint256 lockUpPeriodSeconds,\n        uint256 releaseFrequencySeconds,\n        uint256 unlockedAmount\n    ) {\n        if (lockups[_lockupName].lockupAmount != 0) {\n            return (\n                lockups[_lockupName].lockupAmount,\n                lockups[_lockupName].startTime,\n                lockups[_lockupName].lockUpPeriodSeconds,\n                lockups[_lockupName].releaseFrequencySeconds,\n                _getUnlockedAmountForLockup(_lockupName)\n            );\n        }\n        return (uint256(0), uint256(0), uint256(0), uint256(0), uint256(0));\n    }\n\n   /**\n    * @notice get the list of the users of a lockup type\n    * @param _lockupName Name of the lockup type\n    * @return address List of users associated with the blacklist\n    */\n    function getListOfAddresses(bytes32 _lockupName) external view returns(address[]) {\n        require(lockups[_lockupName].startTime != 0, \"Blacklist type doesn't exist\");\n        return lockupToUsers[_lockupName];\n    }\n\n    /**\n     * @notice get the list of lockups names\n     * @return bytes32 Array of lockups names\n     */\n    function getAllLockups() external view returns(bytes32[]) {\n        return lockupArray;\n    }\n\n    /**\n     * @notice get the list of the lockups for a given user\n     * @param _user Address of the user\n     * @return bytes32 List of lockups names associated with the given address\n     */\n    function getLockupsNamesToUser(address _user) external view returns(bytes32[]) {\n        return userToLockups[_user];\n    }\n\n    /**\n     * @notice Use to get the total locked tokens for a given user\n     * @param _userAddress Address of the user\n     * @return uint256 Total locked tokens amount\n     */\n    function getLockedTokenToUser(address _userAddress) public view returns(uint256) {\n        require(_userAddress != address(0), \"Invalid address\");\n        bytes32[] memory userLockupNames = userToLockups[_userAddress];\n        uint256 totalRemainingLockedAmount = 0;\n\n        for (uint256 i = 0; i < userLockupNames.length; i++) {\n            // Find out the remaining locked amount for a given lockup\n            uint256 remainingLockedAmount = lockups[userLockupNames[i]].lockupAmount.sub(_getUnlockedAmountForLockup(userLockupNames[i]));\n            // aggregating all the remaining locked amount for all the lockups for a given address\n            totalRemainingLockedAmount = totalRemainingLockedAmount.add(remainingLockedAmount);\n        }\n        return totalRemainingLockedAmount;\n    }\n\n    /**\n     * @notice Checks whether the transfer is allowed\n     * @param _userAddress Address of the user whose lock ups should be checked\n     * @param _amount Amount of tokens that need to transact\n     */\n    function _checkIfValidTransfer(address _userAddress, uint256 _amount) internal view returns (Result) {\n        uint256 totalRemainingLockedAmount = getLockedTokenToUser(_userAddress);\n        // Present balance of the user\n        uint256 currentBalance = ISecurityToken(securityToken).balanceOf(_userAddress);\n        if ((currentBalance.sub(_amount)) >= totalRemainingLockedAmount) {\n            return Result.NA;\n        }\n        return Result.INVALID;\n    }\n\n    /**\n     * @notice Provide the unlock amount for the given lockup for a particular user\n     */\n    function _getUnlockedAmountForLockup(bytes32 _lockupName) internal view returns (uint256) {\n        /*solium-disable-next-line security/no-block-members*/\n        if (lockups[_lockupName].startTime > now) {\n            return 0;\n        } else if (lockups[_lockupName].startTime.add(lockups[_lockupName].lockUpPeriodSeconds) <= now) {\n            return lockups[_lockupName].lockupAmount;\n        } else {\n            // Calculate the no. of periods for a lockup \n            uint256 noOfPeriods = (lockups[_lockupName].lockUpPeriodSeconds).div(lockups[_lockupName].releaseFrequencySeconds);\n            // Calculate the transaction time lies in which period\n            /*solium-disable-next-line security/no-block-members*/\n            uint256 elapsedPeriod = (now.sub(lockups[_lockupName].startTime)).div(lockups[_lockupName].releaseFrequencySeconds);\n            // Find out the unlocked amount for a given lockup\n            uint256 unLockedAmount = (lockups[_lockupName].lockupAmount.mul(elapsedPeriod)).div(noOfPeriods);\n            return unLockedAmount;\n        } \n    }\n\n    function _removeLockupType(bytes32 _lockupName) internal {\n        require(lockups[_lockupName].startTime != 0, \"Lockup type doesnt exist\");\n        require(lockupToUsers[_lockupName].length == 0, \"Users are associated with the lockup\");\n        // delete lockup type \n        delete(lockups[_lockupName]);\n        uint256 i = 0;\n        for (i = 0; i < lockupArray.length; i++) {\n            if (lockupArray[i] == _lockupName) {\n                break;\n            }\n        }\n        if (i != lockupArray.length -1) {\n            lockupArray[i] = lockupArray[lockupArray.length -1];\n        }\n        lockupArray.length--;\n        emit RemoveLockUpType(_lockupName);\n    }\n\n    function _modifyLockUpType(\n        uint256 _lockupAmount,\n        uint256 _startTime,\n        uint256 _lockUpPeriodSeconds,\n        uint256 _releaseFrequencySeconds,\n        bytes32 _lockupName\n    )\n        internal\n    {\n        /*solium-disable-next-line security/no-block-members*/\n        uint256 startTime = _startTime;\n\n        if (_startTime == 0) {\n            startTime = now;\n        }\n        require(startTime >= now, \"Invalid start time\");\n        require(lockups[_lockupName].lockupAmount != 0, \"Doesn't exist\");\n\n        _checkLockUpParams(\n            _lockupAmount,\n            _lockUpPeriodSeconds,\n            _releaseFrequencySeconds\n        );\n\n        lockups[_lockupName] =  LockUp(\n            _lockupAmount,\n            startTime,\n            _lockUpPeriodSeconds,\n            _releaseFrequencySeconds\n        );\n        \n        emit ModifyLockUpType(\n            _lockupAmount,\n            startTime,\n            _lockUpPeriodSeconds,\n            _releaseFrequencySeconds,\n            _lockupName\n        );\n    }\n\n    function _removeLockUpFromUser(address _userAddress, bytes32 _lockupName) internal {\n        require(_userAddress != address(0), \"Invalid address\");\n        require(_lockupName != bytes32(0), \"Invalid lockup name\");\n        require(\n            userToLockups[_userAddress][userToLockupIndex[_userAddress][_lockupName]] == _lockupName,\n            \"User not assosicated with given lockup\"\n        );\n\n        // delete the user from the lockup type\n        uint256 _lockupIndex = lockupToUserIndex[_lockupName][_userAddress];\n        uint256 _len = lockupToUsers[_lockupName].length;\n        if ( _lockupIndex != _len) {\n            lockupToUsers[_lockupName][_lockupIndex] = lockupToUsers[_lockupName][_len - 1];\n            lockupToUserIndex[_lockupName][lockupToUsers[_lockupName][_lockupIndex]] = _lockupIndex;\n        }\n        lockupToUsers[_lockupName].length--;\n        // delete the user index from the lockup\n        delete(lockupToUserIndex[_lockupName][_userAddress]);\n        // delete the lockup from the user\n        uint256 _userIndex = userToLockupIndex[_userAddress][_lockupName];\n        _len = userToLockups[_userAddress].length;\n        if ( _userIndex != _len) {\n            userToLockups[_userAddress][_userIndex] = userToLockups[_userAddress][_len - 1];\n            userToLockupIndex[_userAddress][userToLockups[_userAddress][_userIndex]] = _userIndex;\n        }\n        userToLockups[_userAddress].length--;\n        // delete the lockup index from the user\n        delete(userToLockupIndex[_userAddress][_lockupName]);\n        emit RemoveLockUpFromUser(_userAddress, _lockupName);\n    }\n\n    function _addNewLockUpToUser(\n        address _userAddress,\n        uint256 _lockupAmount,\n        uint256 _startTime,\n        uint256 _lockUpPeriodSeconds,\n        uint256 _releaseFrequencySeconds,\n        bytes32 _lockupName\n    ) \n        internal \n    {   \n        require(_userAddress != address(0), \"Invalid address\");\n        _addNewLockUpType(\n            _lockupAmount,\n            _startTime,\n            _lockUpPeriodSeconds,\n            _releaseFrequencySeconds,\n            _lockupName\n        );\n        _addLockUpByName(_userAddress, _lockupName);\n    }\n\n    function _addLockUpByName(\n        address _userAddress,\n        bytes32 _lockupName\n    )\n        internal\n    {\n        require(_userAddress != address(0), \"Invalid address\");\n        require(lockups[_lockupName].startTime >= now, \"Lockup expired\");\n\n        userToLockupIndex[_userAddress][_lockupName] = userToLockups[_userAddress].length;\n        lockupToUserIndex[_lockupName][_userAddress] = lockupToUsers[_lockupName].length;\n        userToLockups[_userAddress].push(_lockupName);\n        lockupToUsers[_lockupName].push(_userAddress);\n        emit AddLockUpToUser(_userAddress, _lockupName);\n    }\n\n    function _addNewLockUpType(\n        uint256 _lockupAmount,\n        uint256 _startTime,\n        uint256 _lockUpPeriodSeconds,\n        uint256 _releaseFrequencySeconds,\n        bytes32 _lockupName\n    )\n        internal \n    {\n        uint256 startTime = _startTime;\n        require(_lockupName != bytes32(0), \"Invalid name\");\n        require(lockups[_lockupName].lockupAmount == 0, \"Already exist\");\n        /*solium-disable-next-line security/no-block-members*/\n        if (_startTime == 0) {\n            startTime = now;\n        }\n        require(startTime >= now, \"Invalid start time\");\n        _checkLockUpParams(_lockupAmount, _lockUpPeriodSeconds, _releaseFrequencySeconds);\n        lockups[_lockupName] = LockUp(_lockupAmount, startTime, _lockUpPeriodSeconds, _releaseFrequencySeconds);\n        lockupArray.push(_lockupName);\n        emit AddNewLockUpType(_lockupName, _lockupAmount, startTime, _lockUpPeriodSeconds, _releaseFrequencySeconds);\n    }  \n\n    /**\n     * @notice Parameter checking function for creating or editing a lockup.\n     *  This function will cause an exception if any of the parameters are bad.\n     * @param _lockupAmount Amount that needs to be locked\n     * @param _lockUpPeriodSeconds Total period of lockup (seconds)\n     * @param _releaseFrequencySeconds How often to release a tranche of tokens (seconds)\n     */\n    function _checkLockUpParams(\n        uint256 _lockupAmount,\n        uint256 _lockUpPeriodSeconds,\n        uint256 _releaseFrequencySeconds\n    ) \n        internal \n        pure \n    {   \n        require(_lockUpPeriodSeconds != 0, \"lockUpPeriodSeconds cannot be zero\");\n        require(_releaseFrequencySeconds != 0, \"releaseFrequencySeconds cannot be zero\");\n        require(_lockupAmount != 0, \"lockupAmount cannot be zero\");\n    }\n\n    /**\n     * @notice This function returns the signature of configure function\n     */\n    function getInitFunction() public pure returns (bytes4) {\n        return bytes4(0);\n    }\n\n    /**\n     * @notice Returns the permissions flag that are associated with Percentage transfer Manager\n     */\n    function getPermissions() public view returns(bytes32[]) {\n        bytes32[] memory allPermissions = new bytes32[](1);\n        allPermissions[0] = ADMIN;\n        return allPermissions;\n    }\n}\n",
  "sourcePath": "/Users/jere/Code/polymath-apps/packages/new-polymath-scripts/src/generateLocalBlockchain/contracts/modules/Experimental/TransferManager/LockUpTransferManager.sol",
  "compiler": {
    "name": "solc",
    "version": "0.4.24+commit.e67f0147.Emscripten.clang"
  },
  "schemaVersion": "2.0.1",
  "updatedAt": "2019-01-29T19:35:51.561Z"
}