{
  "contractName": "MakerDAOOracle",
  "abi": [
    {
      "constant": true,
      "inputs": [],
      "name": "medianizer",
      "outputs": [
        {
          "name": "",
          "type": "address"
        }
      ],
      "payable": false,
      "stateMutability": "view",
      "type": "function"
    },
    {
      "constant": true,
      "inputs": [],
      "name": "currencyAddress",
      "outputs": [
        {
          "name": "",
          "type": "address"
        }
      ],
      "payable": false,
      "stateMutability": "view",
      "type": "function"
    },
    {
      "constant": false,
      "inputs": [],
      "name": "renounceOwnership",
      "outputs": [],
      "payable": false,
      "stateMutability": "nonpayable",
      "type": "function"
    },
    {
      "constant": true,
      "inputs": [],
      "name": "owner",
      "outputs": [
        {
          "name": "",
          "type": "address"
        }
      ],
      "payable": false,
      "stateMutability": "view",
      "type": "function"
    },
    {
      "constant": true,
      "inputs": [],
      "name": "currencySymbol",
      "outputs": [
        {
          "name": "",
          "type": "bytes32"
        }
      ],
      "payable": false,
      "stateMutability": "view",
      "type": "function"
    },
    {
      "constant": true,
      "inputs": [],
      "name": "manualPrice",
      "outputs": [
        {
          "name": "",
          "type": "uint256"
        }
      ],
      "payable": false,
      "stateMutability": "view",
      "type": "function"
    },
    {
      "constant": true,
      "inputs": [],
      "name": "manualOverride",
      "outputs": [
        {
          "name": "",
          "type": "bool"
        }
      ],
      "payable": false,
      "stateMutability": "view",
      "type": "function"
    },
    {
      "constant": false,
      "inputs": [
        {
          "name": "_newOwner",
          "type": "address"
        }
      ],
      "name": "transferOwnership",
      "outputs": [],
      "payable": false,
      "stateMutability": "nonpayable",
      "type": "function"
    },
    {
      "inputs": [
        {
          "name": "_medianizer",
          "type": "address"
        },
        {
          "name": "_currencyAddress",
          "type": "address"
        },
        {
          "name": "_currencySymbol",
          "type": "bytes32"
        }
      ],
      "payable": false,
      "stateMutability": "nonpayable",
      "type": "constructor"
    },
    {
      "anonymous": false,
      "inputs": [
        {
          "indexed": false,
          "name": "_newMedianizer",
          "type": "address"
        },
        {
          "indexed": false,
          "name": "_oldMedianizer",
          "type": "address"
        },
        {
          "indexed": false,
          "name": "_now",
          "type": "uint256"
        }
      ],
      "name": "ChangeMedianizer",
      "type": "event"
    },
    {
      "anonymous": false,
      "inputs": [
        {
          "indexed": false,
          "name": "_oldPrice",
          "type": "uint256"
        },
        {
          "indexed": false,
          "name": "_newPrice",
          "type": "uint256"
        },
        {
          "indexed": false,
          "name": "_time",
          "type": "uint256"
        }
      ],
      "name": "SetManualPrice",
      "type": "event"
    },
    {
      "anonymous": false,
      "inputs": [
        {
          "indexed": false,
          "name": "_override",
          "type": "bool"
        },
        {
          "indexed": false,
          "name": "_time",
          "type": "uint256"
        }
      ],
      "name": "SetManualOverride",
      "type": "event"
    },
    {
      "anonymous": false,
      "inputs": [
        {
          "indexed": true,
          "name": "previousOwner",
          "type": "address"
        }
      ],
      "name": "OwnershipRenounced",
      "type": "event"
    },
    {
      "anonymous": false,
      "inputs": [
        {
          "indexed": true,
          "name": "previousOwner",
          "type": "address"
        },
        {
          "indexed": true,
          "name": "newOwner",
          "type": "address"
        }
      ],
      "name": "OwnershipTransferred",
      "type": "event"
    },
    {
      "constant": false,
      "inputs": [
        {
          "name": "_medianizer",
          "type": "address"
        }
      ],
      "name": "changeMedianier",
      "outputs": [],
      "payable": false,
      "stateMutability": "nonpayable",
      "type": "function"
    },
    {
      "constant": true,
      "inputs": [],
      "name": "getCurrencyAddress",
      "outputs": [
        {
          "name": "",
          "type": "address"
        }
      ],
      "payable": false,
      "stateMutability": "view",
      "type": "function"
    },
    {
      "constant": true,
      "inputs": [],
      "name": "getCurrencySymbol",
      "outputs": [
        {
          "name": "",
          "type": "bytes32"
        }
      ],
      "payable": false,
      "stateMutability": "view",
      "type": "function"
    },
    {
      "constant": true,
      "inputs": [],
      "name": "getCurrencyDenominated",
      "outputs": [
        {
          "name": "",
          "type": "bytes32"
        }
      ],
      "payable": false,
      "stateMutability": "view",
      "type": "function"
    },
    {
      "constant": true,
      "inputs": [],
      "name": "getPrice",
      "outputs": [
        {
          "name": "",
          "type": "uint256"
        }
      ],
      "payable": false,
      "stateMutability": "view",
      "type": "function"
    },
    {
      "constant": false,
      "inputs": [
        {
          "name": "_price",
          "type": "uint256"
        }
      ],
      "name": "setManualPrice",
      "outputs": [],
      "payable": false,
      "stateMutability": "nonpayable",
      "type": "function"
    },
    {
      "constant": false,
      "inputs": [
        {
          "name": "_override",
          "type": "bool"
        }
      ],
      "name": "setManualOverride",
      "outputs": [],
      "payable": false,
      "stateMutability": "nonpayable",
      "type": "function"
    }
  ],
  "bytecode": "0x608060405234801561001057600080fd5b506040516060806107c683398101604090815281516020830151919092015160008054600160a060020a0319908116331790915560018054600160a060020a039586169083161790556002805494909316931692909217905560035561074b8061007b6000396000f3006080604052600436106100da5763ffffffff7c0100000000000000000000000000000000000000000000000000000000600035041663053571e181146100df5780631c1cb3231461011057806335967501146101255780635dfc09a414610141578063715018a6146101685780638da5cb5b1461017d578063968c42091461019257806398d5fdca146101a7578063a2c9d630146101bc578063bae6d62b146101d1578063bfe0c27e146101fa578063d26542191461020f578063d7a7186814610224578063f15d775d1461023c578063f2fde38b1461025d575b600080fd5b3480156100eb57600080fd5b506100f461027e565b60408051600160a060020a039092168252519081900360200190f35b34801561011c57600080fd5b506100f461028d565b34801561013157600080fd5b5061013f600435151561029c565b005b34801561014d57600080fd5b50610156610300565b60408051918252519081900360200190f35b34801561017457600080fd5b5061013f610306565b34801561018957600080fd5b506100f4610372565b34801561019e57600080fd5b50610156610381565b3480156101b357600080fd5b50610156610387565b3480156101c857600080fd5b506101566104d7565b3480156101dd57600080fd5b506101e66104dd565b604080519115158252519081900360200190f35b34801561020657600080fd5b506100f46104e6565b34801561021b57600080fd5b506101566104f5565b34801561023057600080fd5b5061013f600435610519565b34801561024857600080fd5b5061013f600160a060020a0360043516610576565b34801561026957600080fd5b5061013f600160a060020a036004351661067f565b600154600160a060020a031681565b600254600160a060020a031681565b600054600160a060020a031633146102b357600080fd5b6004805460ff19168215159081179091556040805191825242602083015280517f5f521db3e0c6e4f3482cfbabb381ba1b6093a71a156de0a87660f9dfb8d3e74a9281900390910190a150565b60035490565b600054600160a060020a0316331461031d57600080fd5b60008054604051600160a060020a03909116917ff8df31144d9c2f0f6b59d69b8b98abd5459d07f2742c4df920b25aae33c6482091a26000805473ffffffffffffffffffffffffffffffffffffffff19169055565b600054600160a060020a031681565b60035481565b6004546000908190819060ff16156103a35760055492506104d2565b600154604080517f59e02dd70000000000000000000000000000000000000000000000000000000081528151600160a060020a03909316926359e02dd7926004808401939192918290030181600087803b15801561040057600080fd5b505af1158015610414573d6000803e3d6000fd5b505050506040513d604081101561042a57600080fd5b50805160209091015190925090508015156104cc57604080517f08c379a000000000000000000000000000000000000000000000000000000000815260206004820152602760248201527f4d616b657244414f204f7261636c652072657475726e696e6720696e76616c6960448201527f642076616c756500000000000000000000000000000000000000000000000000606482015290519081900360840190fd5b90915081905b505090565b60055481565b60045460ff1681565b600254600160a060020a031690565b7f555344000000000000000000000000000000000000000000000000000000000090565b600054600160a060020a0316331461053057600080fd5b60055460408051918252602082018390524282820152517fcb2d3dc175eb7fd383f24ac19b09317fc81e7be578ea541276e26aeab0dab54b9181900360600190a1600555565b600054600160a060020a0316331461058d57600080fd5b600160a060020a038116151561060457604080517f08c379a000000000000000000000000000000000000000000000000000000000815260206004820152600e60248201527f3078206e6f7420616c6c6f776564000000000000000000000000000000000000604482015290519081900360640190fd5b60015460408051600160a060020a03808516825290921660208301524282820152517f91f31b84d115484bb93a4c669385695051b0f06856c9f7fc6046f775b507f75e9181900360600190a16001805473ffffffffffffffffffffffffffffffffffffffff1916600160a060020a0392909216919091179055565b600054600160a060020a0316331461069657600080fd5b61069f816106a2565b50565b600160a060020a03811615156106b757600080fd5b60008054604051600160a060020a03808516939216917f8be0079c531659141344cd1fd0a4f28419497f9722a3daafe3b4186f6b6457e091a36000805473ffffffffffffffffffffffffffffffffffffffff1916600160a060020a03929092169190911790555600a165627a7a72305820eba9f1d1804e5cae66d5345e7df0aeec0e9fd9032ef782124f7160348928e7ac0029",
  "source": "pragma solidity ^0.4.24;\n\nimport \"../interfaces/IOracle.sol\";\nimport \"../external/IMedianizer.sol\";\nimport \"openzeppelin-solidity/contracts/ownership/Ownable.sol\";\n\ncontract MakerDAOOracle is IOracle, Ownable {\n\n    address public medianizer;\n    address public currencyAddress;\n    bytes32 public currencySymbol;\n\n    bool public manualOverride;\n    uint256 public manualPrice;\n\n    /*solium-disable-next-line security/no-block-members*/\n    event ChangeMedianizer(address _newMedianizer, address _oldMedianizer, uint256 _now);\n    event SetManualPrice(uint256 _oldPrice, uint256 _newPrice, uint256 _time);\n    event SetManualOverride(bool _override, uint256 _time);\n\n    /**\n      * @notice Creates a new Maker based oracle\n      * @param _medianizer Address of Maker medianizer\n      * @param _currencyAddress Address of currency (0x0 for ETH)\n      * @param _currencySymbol Symbol of currency\n      */\n    constructor (address _medianizer, address _currencyAddress, bytes32 _currencySymbol) public {\n        medianizer = _medianizer;\n        currencyAddress = _currencyAddress;\n        currencySymbol = _currencySymbol;\n    }\n\n    /**\n      * @notice Updates medianizer address\n      * @param _medianizer Address of Maker medianizer\n      */\n    function changeMedianier(address _medianizer) public onlyOwner {\n        require(_medianizer != address(0), \"0x not allowed\");\n        /*solium-disable-next-line security/no-block-members*/\n        emit ChangeMedianizer(_medianizer, medianizer, now);\n        medianizer = _medianizer;\n    }\n\n    /**\n    * @notice Returns address of oracle currency (0x0 for ETH)\n    */\n    function getCurrencyAddress() external view returns(address) {\n        return currencyAddress;\n    }\n\n    /**\n    * @notice Returns symbol of oracle currency (0x0 for ETH)\n    */\n    function getCurrencySymbol() external view returns(bytes32) {\n        return currencySymbol;\n    }\n\n    /**\n    * @notice Returns denomination of price\n    */\n    function getCurrencyDenominated() external view returns(bytes32) {\n        // All MakerDAO oracles are denominated in USD\n        return bytes32(\"USD\");\n    }\n\n    /**\n    * @notice Returns price - should throw if not valid\n    */\n    function getPrice() external view returns(uint256) {\n        if (manualOverride) {\n            return manualPrice;\n        }\n        (bytes32 price, bool valid) = IMedianizer(medianizer).peek();\n        require(valid, \"MakerDAO Oracle returning invalid value\");\n        return uint256(price);\n    }\n\n    /**\n      * @notice Set a manual price. NA - this will only be used if manualOverride == true\n      * @param _price Price to set\n      */\n    function setManualPrice(uint256 _price) public onlyOwner {\n        /*solium-disable-next-line security/no-block-members*/\n        emit SetManualPrice(manualPrice, _price, now);\n        manualPrice = _price;\n    }\n\n    /**\n      * @notice Determine whether manual price is used or not\n      * @param _override Whether to use the manual override price or not\n      */\n    function setManualOverride(bool _override) public onlyOwner {\n        manualOverride = _override;\n        /*solium-disable-next-line security/no-block-members*/\n        emit SetManualOverride(_override, now);\n    }\n\n}\n",
  "sourcePath": "/Users/jere/Code/polymath-apps/packages/new-polymath-scripts/src/generateLocalBlockchain/contracts/oracles/MakerDAOOracle.sol",
  "compiler": {
    "name": "solc",
    "version": "0.4.24+commit.e67f0147.Emscripten.clang"
  },
  "schemaVersion": "2.0.1",
  "updatedAt": "2019-02-05T23:14:23.175Z"
}