{
  "contractName": "ManualApprovalTransferManager",
  "abi": [
    {
      "constant": false,
      "inputs": [],
      "name": "unpause",
      "outputs": [],
      "payable": false,
      "stateMutability": "nonpayable",
      "type": "function"
    },
    {
      "constant": true,
      "inputs": [
        {
          "name": "",
          "type": "address"
        },
        {
          "name": "",
          "type": "address"
        }
      ],
      "name": "manualBlockings",
      "outputs": [
        {
          "name": "expiryTime",
          "type": "uint256"
        }
      ],
      "payable": false,
      "stateMutability": "view",
      "type": "function"
    },
    {
      "constant": true,
      "inputs": [],
      "name": "paused",
      "outputs": [
        {
          "name": "",
          "type": "bool"
        }
      ],
      "payable": false,
      "stateMutability": "view",
      "type": "function"
    },
    {
      "constant": false,
      "inputs": [
        {
          "name": "_amount",
          "type": "uint256"
        }
      ],
      "name": "takeFee",
      "outputs": [
        {
          "name": "",
          "type": "bool"
        }
      ],
      "payable": false,
      "stateMutability": "nonpayable",
      "type": "function"
    },
    {
      "constant": true,
      "inputs": [],
      "name": "polyToken",
      "outputs": [
        {
          "name": "",
          "type": "address"
        }
      ],
      "payable": false,
      "stateMutability": "view",
      "type": "function"
    },
    {
      "constant": false,
      "inputs": [],
      "name": "pause",
      "outputs": [],
      "payable": false,
      "stateMutability": "nonpayable",
      "type": "function"
    },
    {
      "constant": true,
      "inputs": [
        {
          "name": "",
          "type": "address"
        },
        {
          "name": "",
          "type": "address"
        }
      ],
      "name": "manualApprovals",
      "outputs": [
        {
          "name": "allowance",
          "type": "uint256"
        },
        {
          "name": "expiryTime",
          "type": "uint256"
        }
      ],
      "payable": false,
      "stateMutability": "view",
      "type": "function"
    },
    {
      "constant": true,
      "inputs": [],
      "name": "TRANSFER_APPROVAL",
      "outputs": [
        {
          "name": "",
          "type": "bytes32"
        }
      ],
      "payable": false,
      "stateMutability": "view",
      "type": "function"
    },
    {
      "constant": true,
      "inputs": [],
      "name": "signingAddress",
      "outputs": [
        {
          "name": "",
          "type": "address"
        }
      ],
      "payable": false,
      "stateMutability": "view",
      "type": "function"
    },
    {
      "constant": true,
      "inputs": [],
      "name": "issuanceAddress",
      "outputs": [
        {
          "name": "",
          "type": "address"
        }
      ],
      "payable": false,
      "stateMutability": "view",
      "type": "function"
    },
    {
      "constant": true,
      "inputs": [],
      "name": "securityToken",
      "outputs": [
        {
          "name": "",
          "type": "address"
        }
      ],
      "payable": false,
      "stateMutability": "view",
      "type": "function"
    },
    {
      "constant": true,
      "inputs": [],
      "name": "factory",
      "outputs": [
        {
          "name": "",
          "type": "address"
        }
      ],
      "payable": false,
      "stateMutability": "view",
      "type": "function"
    },
    {
      "constant": true,
      "inputs": [],
      "name": "FEE_ADMIN",
      "outputs": [
        {
          "name": "",
          "type": "bytes32"
        }
      ],
      "payable": false,
      "stateMutability": "view",
      "type": "function"
    },
    {
      "inputs": [
        {
          "name": "_securityToken",
          "type": "address"
        },
        {
          "name": "_polyAddress",
          "type": "address"
        }
      ],
      "payable": false,
      "stateMutability": "nonpayable",
      "type": "constructor"
    },
    {
      "anonymous": false,
      "inputs": [
        {
          "indexed": true,
          "name": "_from",
          "type": "address"
        },
        {
          "indexed": true,
          "name": "_to",
          "type": "address"
        },
        {
          "indexed": false,
          "name": "_allowance",
          "type": "uint256"
        },
        {
          "indexed": false,
          "name": "_expiryTime",
          "type": "uint256"
        },
        {
          "indexed": true,
          "name": "_addedBy",
          "type": "address"
        }
      ],
      "name": "AddManualApproval",
      "type": "event"
    },
    {
      "anonymous": false,
      "inputs": [
        {
          "indexed": true,
          "name": "_from",
          "type": "address"
        },
        {
          "indexed": true,
          "name": "_to",
          "type": "address"
        },
        {
          "indexed": false,
          "name": "_expiryTime",
          "type": "uint256"
        },
        {
          "indexed": true,
          "name": "_addedBy",
          "type": "address"
        }
      ],
      "name": "AddManualBlocking",
      "type": "event"
    },
    {
      "anonymous": false,
      "inputs": [
        {
          "indexed": true,
          "name": "_from",
          "type": "address"
        },
        {
          "indexed": true,
          "name": "_to",
          "type": "address"
        },
        {
          "indexed": true,
          "name": "_addedBy",
          "type": "address"
        }
      ],
      "name": "RevokeManualApproval",
      "type": "event"
    },
    {
      "anonymous": false,
      "inputs": [
        {
          "indexed": true,
          "name": "_from",
          "type": "address"
        },
        {
          "indexed": true,
          "name": "_to",
          "type": "address"
        },
        {
          "indexed": true,
          "name": "_addedBy",
          "type": "address"
        }
      ],
      "name": "RevokeManualBlocking",
      "type": "event"
    },
    {
      "anonymous": false,
      "inputs": [
        {
          "indexed": false,
          "name": "_timestammp",
          "type": "uint256"
        }
      ],
      "name": "Pause",
      "type": "event"
    },
    {
      "anonymous": false,
      "inputs": [
        {
          "indexed": false,
          "name": "_timestamp",
          "type": "uint256"
        }
      ],
      "name": "Unpause",
      "type": "event"
    },
    {
      "constant": true,
      "inputs": [],
      "name": "getInitFunction",
      "outputs": [
        {
          "name": "",
          "type": "bytes4"
        }
      ],
      "payable": false,
      "stateMutability": "pure",
      "type": "function"
    },
    {
      "constant": false,
      "inputs": [
        {
          "name": "_from",
          "type": "address"
        },
        {
          "name": "_to",
          "type": "address"
        },
        {
          "name": "_amount",
          "type": "uint256"
        },
        {
          "name": "",
          "type": "bytes"
        },
        {
          "name": "_isTransfer",
          "type": "bool"
        }
      ],
      "name": "verifyTransfer",
      "outputs": [
        {
          "name": "",
          "type": "uint8"
        }
      ],
      "payable": false,
      "stateMutability": "nonpayable",
      "type": "function"
    },
    {
      "constant": false,
      "inputs": [
        {
          "name": "_from",
          "type": "address"
        },
        {
          "name": "_to",
          "type": "address"
        },
        {
          "name": "_allowance",
          "type": "uint256"
        },
        {
          "name": "_expiryTime",
          "type": "uint256"
        }
      ],
      "name": "addManualApproval",
      "outputs": [],
      "payable": false,
      "stateMutability": "nonpayable",
      "type": "function"
    },
    {
      "constant": false,
      "inputs": [
        {
          "name": "_from",
          "type": "address"
        },
        {
          "name": "_to",
          "type": "address"
        },
        {
          "name": "_expiryTime",
          "type": "uint256"
        }
      ],
      "name": "addManualBlocking",
      "outputs": [],
      "payable": false,
      "stateMutability": "nonpayable",
      "type": "function"
    },
    {
      "constant": false,
      "inputs": [
        {
          "name": "_from",
          "type": "address"
        },
        {
          "name": "_to",
          "type": "address"
        }
      ],
      "name": "revokeManualApproval",
      "outputs": [],
      "payable": false,
      "stateMutability": "nonpayable",
      "type": "function"
    },
    {
      "constant": false,
      "inputs": [
        {
          "name": "_from",
          "type": "address"
        },
        {
          "name": "_to",
          "type": "address"
        }
      ],
      "name": "revokeManualBlocking",
      "outputs": [],
      "payable": false,
      "stateMutability": "nonpayable",
      "type": "function"
    },
    {
      "constant": true,
      "inputs": [],
      "name": "getPermissions",
      "outputs": [
        {
          "name": "",
          "type": "bytes32[]"
        }
      ],
      "payable": false,
      "stateMutability": "view",
      "type": "function"
    }
  ],
  "bytecode": "0x60806040526002805460a060020a60ff021916905560038054600160a060020a031990811690915560048054909116905534801561003c57600080fd5b50604051604080611acf83398101604052805160209091015160018054600160a060020a03938416600160a060020a0319918216179091556000805482163317905560028054939092169216919091179055611a328061009d6000396000f3006080604052600436106100f85763ffffffff60e060020a6000350416631613ec9d81146100fd57806339d04b6c146101475780633f4ba83a1461017657806340bb79851461018b5780635c975abb146101c45780635f7619a4146101ed5780636faa22a51461020557806370aad962146102365780637dc32b0b146102605780638456cb5914610287578063889b2cc31461029c5780639f7cd0ef146102dc578063b3e82dc9146102f1578063b3fac8ce14610306578063b84dfbd21461031b578063c3a07df614610330578063c45a015514610395578063d70afa96146103aa578063de6ee1bc146103bf578063ed9d787314610456575b600080fd5b34801561010957600080fd5b5061011261047d565b604080517fffffffff000000000000000000000000000000000000000000000000000000009092168252519081900360200190f35b34801561015357600080fd5b50610174600160a060020a0360043581169060243516604435606435610482565b005b34801561018257600080fd5b506101746107ff565b34801561019757600080fd5b506101b2600160a060020a03600435811690602435166108e7565b60408051918252519081900360200190f35b3480156101d057600080fd5b506101d9610904565b604080519115158252519081900360200190f35b3480156101f957600080fd5b506101d9600435610914565b34801561021157600080fd5b5061021a610c30565b60408051600160a060020a039092168252519081900360200190f35b34801561024257600080fd5b50610174600160a060020a0360043581169060243516604435610c3f565b34801561026c57600080fd5b50610174600160a060020a0360043581169060243516610fa5565b34801561029357600080fd5b50610174611228565b3480156102a857600080fd5b506102c3600160a060020a036004358116906024351661130e565b6040805192835260208301919091528051918290030190f35b3480156102e857600080fd5b506101b2611332565b3480156102fd57600080fd5b5061021a611344565b34801561031257600080fd5b5061021a611353565b34801561032757600080fd5b5061021a611362565b34801561033c57600080fd5b50610345611371565b60408051602080825283518183015283519192839290830191858101910280838360005b83811015610381578181015183820152602001610369565b505050509050019250505060405180910390f35b3480156103a157600080fd5b5061021a6113c3565b3480156103b657600080fd5b506101b26113d2565b3480156103cb57600080fd5b50604080516020601f60643560048181013592830184900484028501840190955281845261043294600160a060020a0381358116956024803590921695604435953695608494019181908401838280828437509497505050509135151592506113f6915050565b6040518082600381111561044257fe5b60ff16815260200191505060405180910390f35b34801561046257600080fd5b50610174600160a060020a0360043581169060243516611586565b600090565b6000805160206119c7833981519152600080600160009054906101000a9004600160a060020a0316600160a060020a0316638da5cb5b6040518163ffffffff1660e060020a028152600401602060405180830381600087803b1580156104e757600080fd5b505af11580156104fb573d6000803e3d6000fd5b505050506040513d602081101561051157600080fd5b505160005433600160a060020a0392831681149450911614905081806105345750805b806105c457506001546040805160e060020a638658b8b9028152336004820152306024820152604481018690529051600160a060020a0390921691638658b8b9916064808201926020929091908290030181600087803b15801561059757600080fd5b505af11580156105ab573d6000803e3d6000fd5b505050506040513d60208110156105c157600080fd5b50515b1515610608576040805160e560020a62461bcd02815260206004820152601760248201526000805160206119e7833981519152604482015290519081900360640190fd5b600160a060020a0387161515610656576040805160e560020a62461bcd0281526020600482015260146024820152600080516020611987833981519152604482015290519081900360640190fd5b600160a060020a03861615156106a4576040805160e560020a62461bcd02815260206004820152601260248201526000805160206119a7833981519152604482015290519081900360640190fd5b4284116106fb576040805160e560020a62461bcd02815260206004820152601360248201527f496e76616c6964206578706972792074696d6500000000000000000000000000604482015290519081900360640190fd5b600160a060020a038088166000908152600560209081526040808320938a168352929052205415610776576040805160e560020a62461bcd02815260206004820152601760248201527f417070726f76616c20616c726561647920657869737473000000000000000000604482015290519081900360640190fd5b6040805180820182528681526020808201878152600160a060020a03808c16600081815260058552868120928d1680825292855286902094518555915160019094019390935583518981529182018890528351339491927f26ea1d2b20617cb481140cfb9d4f9646c8bd38f237240a52649e35be090f9d3f92908290030190a450505050505050565b600160009054906101000a9004600160a060020a0316600160a060020a0316638da5cb5b6040518163ffffffff1660e060020a028152600401602060405180830381600087803b15801561085257600080fd5b505af1158015610866573d6000803e3d6000fd5b505050506040513d602081101561087c57600080fd5b5051600160a060020a031633146108dd576040805160e560020a62461bcd02815260206004820152601360248201527f53656e646572206973206e6f74206f776e657200000000000000000000000000604482015290519081900360640190fd5b6108e5611803565b565b600660209081526000928352604080842090915290825290205481565b60025460a060020a900460ff1681565b60007f4645455f41444d494e0000000000000000000000000000000000000000000000600080600160009054906101000a9004600160a060020a0316600160a060020a0316638da5cb5b6040518163ffffffff1660e060020a028152600401602060405180830381600087803b15801561098d57600080fd5b505af11580156109a1573d6000803e3d6000fd5b505050506040513d60208110156109b757600080fd5b505160005433600160a060020a0392831681149450911614905081806109da5750805b80610a6a57506001546040805160e060020a638658b8b9028152336004820152306024820152604481018690529051600160a060020a0390921691638658b8b9916064808201926020929091908290030181600087803b158015610a3d57600080fd5b505af1158015610a51573d6000803e3d6000fd5b505050506040513d6020811015610a6757600080fd5b50515b1515610aae576040805160e560020a62461bcd02815260206004820152601760248201526000805160206119e7833981519152604482015290519081900360640190fd5b60025460015460008054604080517f8da5cb5b0000000000000000000000000000000000000000000000000000000081529051600160a060020a03958616956323b872dd95811694931692638da5cb5b92600480820193602093909283900390910190829087803b158015610b2257600080fd5b505af1158015610b36573d6000803e3d6000fd5b505050506040513d6020811015610b4c57600080fd5b50516040805160e060020a63ffffffff8616028152600160a060020a039384166004820152929091166024830152604482018990525160648083019260209291908290030181600087803b158015610ba357600080fd5b505af1158015610bb7573d6000803e3d6000fd5b505050506040513d6020811015610bcd57600080fd5b50511515610c25576040805160e560020a62461bcd02815260206004820152601260248201527f556e61626c6520746f2074616b65206665650000000000000000000000000000604482015290519081900360640190fd5b506001949350505050565b600254600160a060020a031681565b6000805160206119c7833981519152600080600160009054906101000a9004600160a060020a0316600160a060020a0316638da5cb5b6040518163ffffffff1660e060020a028152600401602060405180830381600087803b158015610ca457600080fd5b505af1158015610cb8573d6000803e3d6000fd5b505050506040513d6020811015610cce57600080fd5b505160005433600160a060020a039283168114945091161490508180610cf15750805b80610d8157506001546040805160e060020a638658b8b9028152336004820152306024820152604481018690529051600160a060020a0390921691638658b8b9916064808201926020929091908290030181600087803b158015610d5457600080fd5b505af1158015610d68573d6000803e3d6000fd5b505050506040513d6020811015610d7e57600080fd5b50515b1515610dc5576040805160e560020a62461bcd02815260206004820152601760248201526000805160206119e7833981519152604482015290519081900360640190fd5b600160a060020a0386161515610e13576040805160e560020a62461bcd0281526020600482015260146024820152600080516020611987833981519152604482015290519081900360640190fd5b600160a060020a0385161515610e61576040805160e560020a62461bcd02815260206004820152601260248201526000805160206119a7833981519152604482015290519081900360640190fd5b428411610eb8576040805160e560020a62461bcd02815260206004820152601360248201527f496e76616c6964206578706972792074696d6500000000000000000000000000604482015290519081900360640190fd5b600160a060020a0380871660009081526006602090815260408083209389168352929052205415610f33576040805160e560020a62461bcd02815260206004820152601760248201527f426c6f636b696e6720616c726561647920657869737473000000000000000000604482015290519081900360640190fd5b6040805160208181018352868252600160a060020a03808a16600081815260068452858120928b1680825292845285902093519093558351888152935133949193927ff5b8892dc8e7a974a11282b2e8ac9db566e0e4e1a1a048a5e43586a50928929f928290030190a4505050505050565b6000805160206119c7833981519152600080600160009054906101000a9004600160a060020a0316600160a060020a0316638da5cb5b6040518163ffffffff1660e060020a028152600401602060405180830381600087803b15801561100a57600080fd5b505af115801561101e573d6000803e3d6000fd5b505050506040513d602081101561103457600080fd5b505160005433600160a060020a0392831681149450911614905081806110575750805b806110e757506001546040805160e060020a638658b8b9028152336004820152306024820152604481018690529051600160a060020a0390921691638658b8b9916064808201926020929091908290030181600087803b1580156110ba57600080fd5b505af11580156110ce573d6000803e3d6000fd5b505050506040513d60208110156110e457600080fd5b50515b151561112b576040805160e560020a62461bcd02815260206004820152601760248201526000805160206119e7833981519152604482015290519081900360640190fd5b600160a060020a0385161515611179576040805160e560020a62461bcd0281526020600482015260146024820152600080516020611987833981519152604482015290519081900360640190fd5b600160a060020a03841615156111c7576040805160e560020a62461bcd02815260206004820152601260248201526000805160206119a7833981519152604482015290519081900360640190fd5b600160a060020a0380861660008181526005602090815260408083209489168084529490915280822082815560010182905551339392917fbe7baba984867cb2bb52a4035357b30f05c7e480fc9daf78a7b718ae6ee4a4fe91a45050505050565b600160009054906101000a9004600160a060020a0316600160a060020a0316638da5cb5b6040518163ffffffff1660e060020a028152600401602060405180830381600087803b15801561127b57600080fd5b505af115801561128f573d6000803e3d6000fd5b505050506040513d60208110156112a557600080fd5b5051600160a060020a03163314611306576040805160e560020a62461bcd02815260206004820152601360248201527f53656e646572206973206e6f74206f776e657200000000000000000000000000604482015290519081900360640190fd5b6108e56118b9565b60056020908152600092835260408084209091529082529020805460019091015482565b6000805160206119c783398151915281565b600454600160a060020a031681565b600354600160a060020a031681565b600154600160a060020a031681565b604080516001808252818301909252606091829190602080830190803883390190505090506000805160206119c78339815191528160008151811015156113b457fe5b60209081029091010152905090565b600054600160a060020a031681565b7f4645455f41444d494e000000000000000000000000000000000000000000000081565b600081158061140f5750600154600160a060020a031633145b1515611465576040805160e560020a62461bcd02815260206004820152601760248201527f53656e646572206973206e6f7420746865206f776e6572000000000000000000604482015290519081900360640190fd5b60025460a060020a900460ff16151561157957600160a060020a0380871660009081526006602090815260408083209389168352929052205442116114ac5750600061157d565b600160a060020a0380871660009081526005602090815260408083209389168352929052206001015442118015906115095750600160a060020a038087166000908152600560209081526040808320938916835292905220548411155b1561157957811561157157600160a060020a0380871660009081526005602090815260408083209389168352929052205461154a908563ffffffff61197416565b600160a060020a038088166000908152600560209081526040808320938a16835292905220555b50600261157d565b5060015b95945050505050565b6000805160206119c7833981519152600080600160009054906101000a9004600160a060020a0316600160a060020a0316638da5cb5b6040518163ffffffff1660e060020a028152600401602060405180830381600087803b1580156115eb57600080fd5b505af11580156115ff573d6000803e3d6000fd5b505050506040513d602081101561161557600080fd5b505160005433600160a060020a0392831681149450911614905081806116385750805b806116c857506001546040805160e060020a638658b8b9028152336004820152306024820152604481018690529051600160a060020a0390921691638658b8b9916064808201926020929091908290030181600087803b15801561169b57600080fd5b505af11580156116af573d6000803e3d6000fd5b505050506040513d60208110156116c557600080fd5b50515b151561170c576040805160e560020a62461bcd02815260206004820152601760248201526000805160206119e7833981519152604482015290519081900360640190fd5b600160a060020a038516151561175a576040805160e560020a62461bcd0281526020600482015260146024820152600080516020611987833981519152604482015290519081900360640190fd5b600160a060020a03841615156117a8576040805160e560020a62461bcd02815260206004820152601260248201526000805160206119a7833981519152604482015290519081900360640190fd5b600160a060020a0380861660008181526006602090815260408083209489168084529490915280822082905551339392917f7c21949c2bec5441f44f7637f43eb1c5d2625e34a3453fb46643f5f72aed1ff391a45050505050565b60025460a060020a900460ff161515611866576040805160e560020a62461bcd02815260206004820152601660248201527f436f6e7472616374206973206e6f742070617573656400000000000000000000604482015290519081900360640190fd5b6002805474ff0000000000000000000000000000000000000000191690556040805142815290517faaa520fdd7d2c83061d632fa017b0432407e798818af63ea908589fceda39ab79181900360200190a1565b60025460a060020a900460ff161561191b576040805160e560020a62461bcd02815260206004820152601260248201527f436f6e7472616374206973207061757365640000000000000000000000000000604482015290519081900360640190fd5b6002805474ff0000000000000000000000000000000000000000191660a060020a1790556040805142815290517f68b095021b1f40fe513109f513c66692f0b3219aee674a69f4efc57badb8201d9181900360200190a1565b60008282111561198057fe5b509003905600496e76616c69642066726f6d2061646472657373000000000000000000000000496e76616c696420746f206164647265737300000000000000000000000000005452414e534645525f415050524f56414c0000000000000000000000000000005065726d697373696f6e20636865636b206661696c6564000000000000000000a165627a7a72305820f6ef40afa53bd6c4e67f9ac6a98cf896c0bb8cd25d0cf9609e6181ece44d67ae0029",
  "source": "pragma solidity ^0.4.24;\n\nimport \"./ITransferManager.sol\";\nimport \"openzeppelin-solidity/contracts/math/SafeMath.sol\";\n\n/**\n * @title Transfer Manager module for manually approving or blocking transactions between accounts\n */\ncontract ManualApprovalTransferManager is ITransferManager {\n    using SafeMath for uint256;\n\n    //Address from which issuances come\n    address public issuanceAddress = address(0);\n\n    //Address which can sign whitelist changes\n    address public signingAddress = address(0);\n\n    bytes32 public constant TRANSFER_APPROVAL = \"TRANSFER_APPROVAL\";\n\n    //Manual approval is an allowance (that has been approved) with an expiry time\n    struct ManualApproval {\n        uint256 allowance;\n        uint256 expiryTime;\n    }\n\n    //Manual blocking allows you to specify a list of blocked address pairs with an associated expiry time for the block\n    struct ManualBlocking {\n        uint256 expiryTime;\n    }\n\n    //Store mappings of address => address with ManualApprovals\n    mapping (address => mapping (address => ManualApproval)) public manualApprovals;\n\n    //Store mappings of address => address with ManualBlockings\n    mapping (address => mapping (address => ManualBlocking)) public manualBlockings;\n\n    event AddManualApproval(\n        address indexed _from,\n        address indexed _to,\n        uint256 _allowance,\n        uint256 _expiryTime,\n        address indexed _addedBy\n    );\n\n    event AddManualBlocking(\n        address indexed _from,\n        address indexed _to,\n        uint256 _expiryTime,\n        address indexed _addedBy\n    );\n\n    event RevokeManualApproval(\n        address indexed _from,\n        address indexed _to,\n        address indexed _addedBy\n    );\n\n    event RevokeManualBlocking(\n        address indexed _from,\n        address indexed _to,\n        address indexed _addedBy\n    );\n\n    /**\n     * @notice Constructor\n     * @param _securityToken Address of the security token\n     * @param _polyAddress Address of the polytoken\n     */\n    constructor (address _securityToken, address _polyAddress)\n    public\n    Module(_securityToken, _polyAddress)\n    {\n    }\n\n    /**\n     * @notice This function returns the signature of configure function\n     */\n    function getInitFunction() public pure returns (bytes4) {\n        return bytes4(0);\n    }\n\n    /** @notice Used to verify the transfer transaction and allow a manually approved transqaction to bypass other restrictions\n     * @param _from Address of the sender\n     * @param _to Address of the receiver\n     * @param _amount The amount of tokens to transfer\n     * @param _isTransfer Whether or not this is an actual transfer or just a test to see if the tokens would be transferrable\n     */\n    function verifyTransfer(address _from, address _to, uint256 _amount, bytes /* _data */, bool _isTransfer) public returns(Result) {\n        // function must only be called by the associated security token if _isTransfer == true\n        require(_isTransfer == false || msg.sender == securityToken, \"Sender is not the owner\");\n        // manual blocking takes precidence over manual approval\n        if (!paused) {\n            /*solium-disable-next-line security/no-block-members*/\n            if (manualBlockings[_from][_to].expiryTime >= now) {\n                return Result.INVALID;\n            }\n            /*solium-disable-next-line security/no-block-members*/\n            if ((manualApprovals[_from][_to].expiryTime >= now) && (manualApprovals[_from][_to].allowance >= _amount)) {\n                if (_isTransfer) {\n                    manualApprovals[_from][_to].allowance = manualApprovals[_from][_to].allowance.sub(_amount);\n                }\n                return Result.VALID;\n            }\n        }\n        return Result.NA;\n    }\n\n    /**\n    * @notice Adds a pair of addresses to manual approvals\n    * @param _from is the address from which transfers are approved\n    * @param _to is the address to which transfers are approved\n    * @param _allowance is the approved amount of tokens\n    * @param _expiryTime is the time until which the transfer is allowed\n    */\n    function addManualApproval(address _from, address _to, uint256 _allowance, uint256 _expiryTime) public withPerm(TRANSFER_APPROVAL) {\n        require(_from != address(0), \"Invalid from address\");\n        require(_to != address(0), \"Invalid to address\");\n        /*solium-disable-next-line security/no-block-members*/\n        require(_expiryTime > now, \"Invalid expiry time\");\n        require(manualApprovals[_from][_to].allowance == 0, \"Approval already exists\");\n        manualApprovals[_from][_to] = ManualApproval(_allowance, _expiryTime);\n        emit AddManualApproval(_from, _to, _allowance, _expiryTime, msg.sender);\n    }\n\n    /**\n    * @notice Adds a pair of addresses to manual blockings\n    * @param _from is the address from which transfers are blocked\n    * @param _to is the address to which transfers are blocked\n    * @param _expiryTime is the time until which the transfer is blocked\n    */\n    function addManualBlocking(address _from, address _to, uint256 _expiryTime) public withPerm(TRANSFER_APPROVAL) {\n        require(_from != address(0), \"Invalid from address\");\n        require(_to != address(0), \"Invalid to address\");\n        /*solium-disable-next-line security/no-block-members*/\n        require(_expiryTime > now, \"Invalid expiry time\");\n        require(manualBlockings[_from][_to].expiryTime == 0, \"Blocking already exists\");\n        manualBlockings[_from][_to] = ManualBlocking(_expiryTime);\n        emit AddManualBlocking(_from, _to, _expiryTime, msg.sender);\n    }\n\n    /**\n    * @notice Removes a pairs of addresses from manual approvals\n    * @param _from is the address from which transfers are approved\n    * @param _to is the address to which transfers are approved\n    */\n    function revokeManualApproval(address _from, address _to) public withPerm(TRANSFER_APPROVAL) {\n        require(_from != address(0), \"Invalid from address\");\n        require(_to != address(0), \"Invalid to address\");\n        delete manualApprovals[_from][_to];\n        emit RevokeManualApproval(_from, _to, msg.sender);\n    }\n\n    /**\n    * @notice Removes a pairs of addresses from manual approvals\n    * @param _from is the address from which transfers are approved\n    * @param _to is the address to which transfers are approved\n    */\n    function revokeManualBlocking(address _from, address _to) public withPerm(TRANSFER_APPROVAL) {\n        require(_from != address(0), \"Invalid from address\");\n        require(_to != address(0), \"Invalid to address\");\n        delete manualBlockings[_from][_to];\n        emit RevokeManualBlocking(_from, _to, msg.sender);\n    }\n\n    /**\n     * @notice Returns the permissions flag that are associated with ManualApproval transfer manager\n     */\n    function getPermissions() public view returns(bytes32[]) {\n        bytes32[] memory allPermissions = new bytes32[](1);\n        allPermissions[0] = TRANSFER_APPROVAL;\n        return allPermissions;\n    }\n}\n",
  "sourcePath": "/Users/jere/Code/polymath-apps/packages/new-polymath-scripts/src/generateLocalBlockchain/contracts/modules/TransferManager/ManualApprovalTransferManager.sol",
  "compiler": {
    "name": "solc",
    "version": "0.4.24+commit.e67f0147.Emscripten.clang"
  },
  "schemaVersion": "2.0.1",
  "updatedAt": "2019-02-01T15:57:14.215Z"
}