{
  "contractName": "MockRedemptionManager",
  "abi": [
    {
      "constant": true,
      "inputs": [],
      "name": "getInitFunction",
      "outputs": [
        {
          "name": "",
          "type": "bytes4"
        }
      ],
      "payable": false,
      "stateMutability": "pure",
      "type": "function"
    },
    {
      "constant": false,
      "inputs": [
        {
          "name": "_amount",
          "type": "uint256"
        }
      ],
      "name": "takeFee",
      "outputs": [
        {
          "name": "",
          "type": "bool"
        }
      ],
      "payable": false,
      "stateMutability": "nonpayable",
      "type": "function"
    },
    {
      "constant": true,
      "inputs": [],
      "name": "polyToken",
      "outputs": [
        {
          "name": "",
          "type": "address"
        }
      ],
      "payable": false,
      "stateMutability": "view",
      "type": "function"
    },
    {
      "constant": false,
      "inputs": [
        {
          "name": "_value",
          "type": "uint256"
        }
      ],
      "name": "redeemTokens",
      "outputs": [],
      "payable": false,
      "stateMutability": "nonpayable",
      "type": "function"
    },
    {
      "constant": true,
      "inputs": [],
      "name": "securityToken",
      "outputs": [
        {
          "name": "",
          "type": "address"
        }
      ],
      "payable": false,
      "stateMutability": "view",
      "type": "function"
    },
    {
      "constant": true,
      "inputs": [],
      "name": "getPermissions",
      "outputs": [
        {
          "name": "",
          "type": "bytes32[]"
        }
      ],
      "payable": false,
      "stateMutability": "view",
      "type": "function"
    },
    {
      "constant": true,
      "inputs": [],
      "name": "factory",
      "outputs": [
        {
          "name": "",
          "type": "address"
        }
      ],
      "payable": false,
      "stateMutability": "view",
      "type": "function"
    },
    {
      "constant": true,
      "inputs": [],
      "name": "FEE_ADMIN",
      "outputs": [
        {
          "name": "",
          "type": "bytes32"
        }
      ],
      "payable": false,
      "stateMutability": "view",
      "type": "function"
    },
    {
      "inputs": [
        {
          "name": "_securityToken",
          "type": "address"
        },
        {
          "name": "_polyAddress",
          "type": "address"
        }
      ],
      "payable": false,
      "stateMutability": "nonpayable",
      "type": "constructor"
    },
    {
      "anonymous": false,
      "inputs": [
        {
          "indexed": false,
          "name": "_investor",
          "type": "address"
        },
        {
          "indexed": false,
          "name": "_byWhoom",
          "type": "address"
        },
        {
          "indexed": false,
          "name": "_value",
          "type": "uint256"
        },
        {
          "indexed": false,
          "name": "_timestamp",
          "type": "uint256"
        }
      ],
      "name": "RedeemedTokenByOwner",
      "type": "event"
    },
    {
      "anonymous": false,
      "inputs": [
        {
          "indexed": false,
          "name": "_investor",
          "type": "address"
        },
        {
          "indexed": false,
          "name": "_value",
          "type": "uint256"
        },
        {
          "indexed": false,
          "name": "_timestamp",
          "type": "uint256"
        }
      ],
      "name": "Redeemed",
      "type": "event"
    },
    {
      "constant": false,
      "inputs": [
        {
          "name": "_value",
          "type": "uint256"
        }
      ],
      "name": "transferToRedeem",
      "outputs": [],
      "payable": false,
      "stateMutability": "nonpayable",
      "type": "function"
    },
    {
      "constant": false,
      "inputs": [
        {
          "name": "_value",
          "type": "uint256"
        }
      ],
      "name": "redeemTokenByOwner",
      "outputs": [],
      "payable": false,
      "stateMutability": "nonpayable",
      "type": "function"
    }
  ],
  "bytecode": "0x608060405234801561001057600080fd5b50604051604080610a4983398101604052805160209091015160018054600160a060020a03938416600160a060020a03199182161790915560008054821633179055600280549390921692169190911790556109d8806100716000396000f30060806040526004361061008a5763ffffffff60e060020a6000350416631613ec9d811461008f578063186651b6146100d95780635f7619a4146100f357806360d511031461011f5780636faa22a514610137578063a6e158f814610168578063b84dfbd214610180578063c3a07df614610195578063c45a0155146101fa578063d70afa961461020f575b600080fd5b34801561009b57600080fd5b506100a4610236565b604080517fffffffff000000000000000000000000000000000000000000000000000000009092168252519081900360200190f35b3480156100e557600080fd5b506100f160043561023b565b005b3480156100ff57600080fd5b5061010b6004356103d1565b604080519115158252519081900360200190f35b34801561012b57600080fd5b506100f1600435610715565b34801561014357600080fd5b5061014c61081c565b60408051600160a060020a039092168252519081900360200190f35b34801561017457600080fd5b506100f160043561082b565b34801561018c57600080fd5b5061014c610933565b3480156101a157600080fd5b506101aa610942565b60408051602080825283518183015283519192839290830191858101910280838360005b838110156101e65781810151838201526020016101ce565b505050509050019250505060405180910390f35b34801561020657600080fd5b5061014c610954565b34801561021b57600080fd5b50610224610963565b60408051918252519081900360200190f35b600090565b336000908152600460205260409020548111156102a2576040805160e560020a62461bcd02815260206004820152601e60248201527f496e73756666696369656e7420746f6b656e732072656465656d61626c650000604482015290519081900360640190fd5b336000908152600460205260409020546102c2908263ffffffff61098716565b336000908152600460209081526040808320939093556003905220546102ee908263ffffffff61099916565b336000908152600360205260408082209290925560015482517f3c9dcebe0000000000000000000000000000000000000000000000000000000081526004810185905260248101849052604481018390529251600160a060020a0390911692633c9dcebe92608480830193919282900301818387803b15801561037057600080fd5b505af1158015610384573d6000803e3d6000fd5b50506040805133815230602082015280820185905242606082015290517f3b08b8a657fd9e9c4294dfe6bcd34d5613ef11b55ede0d204fbd23e3d602bd309350908190036080019150a150565b60007f4645455f41444d494e0000000000000000000000000000000000000000000000600080600160009054906101000a9004600160a060020a0316600160a060020a0316638da5cb5b6040518163ffffffff1660e060020a028152600401602060405180830381600087803b15801561044a57600080fd5b505af115801561045e573d6000803e3d6000fd5b505050506040513d602081101561047457600080fd5b505160005433600160a060020a0392831681149450911614905081806104975750805b8061053d5750600154604080517f8658b8b9000000000000000000000000000000000000000000000000000000008152336004820152306024820152604481018690529051600160a060020a0390921691638658b8b9916064808201926020929091908290030181600087803b15801561051057600080fd5b505af1158015610524573d6000803e3d6000fd5b505050506040513d602081101561053a57600080fd5b50515b1515610593576040805160e560020a62461bcd02815260206004820152601760248201527f5065726d697373696f6e20636865636b206661696c6564000000000000000000604482015290519081900360640190fd5b60025460015460008054604080517f8da5cb5b0000000000000000000000000000000000000000000000000000000081529051600160a060020a03958616956323b872dd95811694931692638da5cb5b92600480820193602093909283900390910190829087803b15801561060757600080fd5b505af115801561061b573d6000803e3d6000fd5b505050506040513d602081101561063157600080fd5b50516040805160e060020a63ffffffff8616028152600160a060020a039384166004820152929091166024830152604482018990525160648083019260209291908290030181600087803b15801561068857600080fd5b505af115801561069c573d6000803e3d6000fd5b505050506040513d60208110156106b257600080fd5b5051151561070a576040805160e560020a62461bcd02815260206004820152601260248201527f556e61626c6520746f2074616b65206665650000000000000000000000000000604482015290519081900360640190fd5b506001949350505050565b600154604080517f23b872dd000000000000000000000000000000000000000000000000000000008152336004820152306024820152604481018490529051600160a060020a03909216916323b872dd916064808201926020929091908290030181600087803b15801561078857600080fd5b505af115801561079c573d6000803e3d6000fd5b505050506040513d60208110156107b257600080fd5b5051151561080a576040805160e560020a62461bcd02815260206004820152601260248201527f496e73756666696369656e742066756e64730000000000000000000000000000604482015290519081900360640190fd5b33600090815260046020526040902055565b600254600160a060020a031681565b600154604080517f7d6ae27b00000000000000000000000000000000000000000000000000000000815233600482015260248101849052606060448201526000606482018190529151600160a060020a0390931692637d6ae27b9260a48084019391929182900301818387803b1580156108a457600080fd5b505af11580156108b8573d6000803e3d6000fd5b5050336000908152600360205260409020546108dd925090508263ffffffff61099916565b33600081815260036020908152604091829020939093558051918252918101839052428183015290517ff3a670cd3af7d64b488926880889d08a8585a138ff455227af6737339a1ec2629181900360600190a150565b600154600160a060020a031681565b60408051600081526020810190915290565b600054600160a060020a031681565b7f4645455f41444d494e000000000000000000000000000000000000000000000081565b60008282111561099357fe5b50900390565b818101828110156109a657fe5b929150505600a165627a7a723058205558f316a540b58e65512e48d60b1998be80227e58bfd0c747d545c9920c73c20029",
  "source": "pragma solidity ^0.4.24;\n\nimport \"../modules/Experimental/Burn/TrackedRedemption.sol\";\n\n/**\n * @title Burn module for burning tokens and keeping track of burnt amounts\n */\ncontract MockRedemptionManager is TrackedRedemption {\n\n    mapping (address => uint256) tokenToRedeem;\n\n    event RedeemedTokenByOwner(address _investor, address _byWhoom, uint256 _value, uint256 _timestamp);\n\n    /**\n     * @notice Constructor\n     * @param _securityToken Address of the security token\n     * @param _polyAddress Address of the polytoken\n     */\n    constructor (address _securityToken, address _polyAddress) public\n    TrackedRedemption(_securityToken, _polyAddress)\n    {\n    }\n\n    /**\n     * @notice Transfers tokens to Module to burn\n     * @param _value The number of tokens to redeem\n     */\n    function transferToRedeem(uint256 _value) public {\n        require(ISecurityToken(securityToken).transferFrom(msg.sender, address(this), _value), \"Insufficient funds\");\n        tokenToRedeem[msg.sender] = _value;\n    }\n\n    /**\n     * @notice Used to redeem tokens by the module\n     * @param _value The number of tokens to redeem\n     */\n    function redeemTokenByOwner(uint256 _value) public {\n        require(tokenToRedeem[msg.sender] >= _value, \"Insufficient tokens redeemable\");\n        tokenToRedeem[msg.sender] = tokenToRedeem[msg.sender].sub(_value);\n        redeemedTokens[msg.sender] = redeemedTokens[msg.sender].add(_value);\n        ISecurityToken(securityToken).burnWithData(_value, \"\");\n        /*solium-disable-next-line security/no-block-members*/\n        emit RedeemedTokenByOwner(msg.sender, address(this), _value, now);\n    }\n\n}\n",
  "sourcePath": "/Users/jere/Code/polymath-apps/packages/new-polymath-scripts/src/generateLocalBlockchain/contracts/mocks/MockRedemptionManager.sol",
  "compiler": {
    "name": "solc",
    "version": "0.4.24+commit.e67f0147.Emscripten.clang"
  },
  "schemaVersion": "2.0.1",
  "updatedAt": "2019-02-06T00:34:32.192Z"
}