{
  "contractName": "MockOracle",
  "abi": [
    {
      "constant": true,
      "inputs": [],
      "name": "denominatedCurrency",
      "outputs": [
        {
          "name": "",
          "type": "bytes32"
        }
      ],
      "payable": false,
      "stateMutability": "view",
      "type": "function"
    },
    {
      "constant": true,
      "inputs": [],
      "name": "currencySymbol",
      "outputs": [
        {
          "name": "",
          "type": "bytes32"
        }
      ],
      "payable": false,
      "stateMutability": "view",
      "type": "function"
    },
    {
      "constant": true,
      "inputs": [],
      "name": "price",
      "outputs": [
        {
          "name": "",
          "type": "uint256"
        }
      ],
      "payable": false,
      "stateMutability": "view",
      "type": "function"
    },
    {
      "constant": true,
      "inputs": [],
      "name": "currency",
      "outputs": [
        {
          "name": "",
          "type": "address"
        }
      ],
      "payable": false,
      "stateMutability": "view",
      "type": "function"
    },
    {
      "inputs": [
        {
          "name": "_currency",
          "type": "address"
        },
        {
          "name": "_currencySymbol",
          "type": "bytes32"
        },
        {
          "name": "_denominatedCurrency",
          "type": "bytes32"
        },
        {
          "name": "_price",
          "type": "uint256"
        }
      ],
      "payable": false,
      "stateMutability": "nonpayable",
      "type": "constructor"
    },
    {
      "constant": false,
      "inputs": [
        {
          "name": "_price",
          "type": "uint256"
        }
      ],
      "name": "changePrice",
      "outputs": [],
      "payable": false,
      "stateMutability": "nonpayable",
      "type": "function"
    },
    {
      "constant": true,
      "inputs": [],
      "name": "getCurrencyAddress",
      "outputs": [
        {
          "name": "",
          "type": "address"
        }
      ],
      "payable": false,
      "stateMutability": "view",
      "type": "function"
    },
    {
      "constant": true,
      "inputs": [],
      "name": "getCurrencySymbol",
      "outputs": [
        {
          "name": "",
          "type": "bytes32"
        }
      ],
      "payable": false,
      "stateMutability": "view",
      "type": "function"
    },
    {
      "constant": true,
      "inputs": [],
      "name": "getCurrencyDenominated",
      "outputs": [
        {
          "name": "",
          "type": "bytes32"
        }
      ],
      "payable": false,
      "stateMutability": "view",
      "type": "function"
    },
    {
      "constant": true,
      "inputs": [],
      "name": "getPrice",
      "outputs": [
        {
          "name": "",
          "type": "uint256"
        }
      ],
      "payable": false,
      "stateMutability": "view",
      "type": "function"
    }
  ],
  "bytecode": "0x608060405234801561001057600080fd5b50604051608080610299833981016040908152815160208301519183015160609093015160008054600160a060020a031916600160a060020a0390931692909217825560019290925560029290925560035561022790819061007290396000f3006080604052600436106100985763ffffffff7c010000000000000000000000000000000000000000000000000000000060003504166325f4cead811461009d5780635dfc09a4146100c4578063968c4209146100d957806398d5fdca146100ee578063a035b1fe14610103578063a2b40d1914610118578063bfe0c27e14610132578063d265421914610170578063e5a6b10f14610185575b600080fd5b3480156100a957600080fd5b506100b261019a565b60408051918252519081900360200190f35b3480156100d057600080fd5b506100b26101a0565b3480156100e557600080fd5b506100b26101a6565b3480156100fa57600080fd5b506100b26101ac565b34801561010f57600080fd5b506100b26101b2565b34801561012457600080fd5b506101306004356101b8565b005b34801561013e57600080fd5b506101476101bd565b6040805173ffffffffffffffffffffffffffffffffffffffff9092168252519081900360200190f35b34801561017c57600080fd5b506100b26101d9565b34801561019157600080fd5b506101476101df565b60025481565b60015490565b60015481565b60035490565b60035481565b600355565b60005473ffffffffffffffffffffffffffffffffffffffff1690565b60025490565b60005473ffffffffffffffffffffffffffffffffffffffff16815600a165627a7a72305820812dd8c271b6dc05d02bd60fd54174572556d89dd3d4697e07c8f59cbbfcc6400029",
  "source": "pragma solidity ^0.4.24;\n\nimport \"../interfaces/IOracle.sol\";\n\ncontract MockOracle is IOracle {\n\n    address public currency;\n    bytes32 public currencySymbol;\n    bytes32 public denominatedCurrency;\n    uint256 public price;\n\n    constructor(address _currency, bytes32 _currencySymbol, bytes32 _denominatedCurrency, uint256 _price) public {\n        currency = _currency;\n        currencySymbol = _currencySymbol;\n        denominatedCurrency = _denominatedCurrency;\n        price = _price;\n    }\n\n    function changePrice(uint256 _price) external {\n        price = _price;\n    }\n\n    /**\n    * @notice Returns address of oracle currency (0x0 for ETH)\n    */\n    function getCurrencyAddress() external view returns(address) {\n        return currency;\n    }\n\n    /**\n    * @notice Returns symbol of oracle currency (0x0 for ETH)\n    */\n    function getCurrencySymbol() external view returns(bytes32) {\n        return currencySymbol;\n    }\n\n    /**\n    * @notice Returns denomination of price\n    */\n    function getCurrencyDenominated() external view returns(bytes32) {\n        return denominatedCurrency;\n    }\n\n    /**\n    * @notice Returns price - should throw if not valid\n    */\n    function getPrice() external view returns(uint256) {\n        return price;\n    }\n\n}\n",
  "sourcePath": "/Users/jere/Code/polymath-apps/packages/new-polymath-scripts/src/generateLocalBlockchain/contracts/mocks/MockOracle.sol",
  "compiler": {
    "name": "solc",
    "version": "0.4.24+commit.e67f0147.Emscripten.clang"
  },
  "schemaVersion": "2.0.1",
  "updatedAt": "2019-02-01T18:23:53.797Z"
}