{
  "contractName": "MockWrongTypeFactory",
  "abi": [
    {
      "constant": false,
      "inputs": [
        {
          "name": "",
          "type": "bytes"
        }
      ],
      "name": "deploy",
      "outputs": [
        {
          "name": "",
          "type": "address"
        }
      ],
      "payable": false,
      "stateMutability": "nonpayable",
      "type": "function"
    },
    {
      "constant": true,
      "inputs": [],
      "name": "monthlySubscriptionCost",
      "outputs": [
        {
          "name": "",
          "type": "uint256"
        }
      ],
      "payable": false,
      "stateMutability": "view",
      "type": "function"
    },
    {
      "constant": true,
      "inputs": [],
      "name": "name",
      "outputs": [
        {
          "name": "",
          "type": "bytes32"
        }
      ],
      "payable": false,
      "stateMutability": "view",
      "type": "function"
    },
    {
      "constant": true,
      "inputs": [],
      "name": "getName",
      "outputs": [
        {
          "name": "",
          "type": "bytes32"
        }
      ],
      "payable": false,
      "stateMutability": "view",
      "type": "function"
    },
    {
      "constant": false,
      "inputs": [
        {
          "name": "_newTitle",
          "type": "string"
        }
      ],
      "name": "changeTitle",
      "outputs": [],
      "payable": false,
      "stateMutability": "nonpayable",
      "type": "function"
    },
    {
      "constant": false,
      "inputs": [
        {
          "name": "_newSubscriptionCost",
          "type": "uint256"
        }
      ],
      "name": "changeFactorySubscriptionFee",
      "outputs": [],
      "payable": false,
      "stateMutability": "nonpayable",
      "type": "function"
    },
    {
      "constant": true,
      "inputs": [],
      "name": "title",
      "outputs": [
        {
          "name": "",
          "type": "string"
        }
      ],
      "payable": false,
      "stateMutability": "view",
      "type": "function"
    },
    {
      "constant": true,
      "inputs": [],
      "name": "version",
      "outputs": [
        {
          "name": "",
          "type": "string"
        }
      ],
      "payable": false,
      "stateMutability": "view",
      "type": "function"
    },
    {
      "constant": false,
      "inputs": [
        {
          "name": "_newSetupCost",
          "type": "uint256"
        }
      ],
      "name": "changeFactorySetupFee",
      "outputs": [],
      "payable": false,
      "stateMutability": "nonpayable",
      "type": "function"
    },
    {
      "constant": false,
      "inputs": [
        {
          "name": "_newVersion",
          "type": "string"
        }
      ],
      "name": "changeVersion",
      "outputs": [],
      "payable": false,
      "stateMutability": "nonpayable",
      "type": "function"
    },
    {
      "constant": true,
      "inputs": [],
      "name": "polyToken",
      "outputs": [
        {
          "name": "",
          "type": "address"
        }
      ],
      "payable": false,
      "stateMutability": "view",
      "type": "function"
    },
    {
      "constant": false,
      "inputs": [],
      "name": "renounceOwnership",
      "outputs": [],
      "payable": false,
      "stateMutability": "nonpayable",
      "type": "function"
    },
    {
      "constant": true,
      "inputs": [],
      "name": "description",
      "outputs": [
        {
          "name": "",
          "type": "string"
        }
      ],
      "payable": false,
      "stateMutability": "view",
      "type": "function"
    },
    {
      "constant": true,
      "inputs": [],
      "name": "setupCost",
      "outputs": [
        {
          "name": "",
          "type": "uint256"
        }
      ],
      "payable": false,
      "stateMutability": "view",
      "type": "function"
    },
    {
      "constant": true,
      "inputs": [],
      "name": "getLowerSTVersionBounds",
      "outputs": [
        {
          "name": "",
          "type": "uint8[]"
        }
      ],
      "payable": false,
      "stateMutability": "view",
      "type": "function"
    },
    {
      "constant": false,
      "inputs": [
        {
          "name": "_newName",
          "type": "bytes32"
        }
      ],
      "name": "changeName",
      "outputs": [],
      "payable": false,
      "stateMutability": "nonpayable",
      "type": "function"
    },
    {
      "constant": true,
      "inputs": [],
      "name": "owner",
      "outputs": [
        {
          "name": "",
          "type": "address"
        }
      ],
      "payable": false,
      "stateMutability": "view",
      "type": "function"
    },
    {
      "constant": true,
      "inputs": [],
      "name": "getTags",
      "outputs": [
        {
          "name": "",
          "type": "bytes32[]"
        }
      ],
      "payable": false,
      "stateMutability": "view",
      "type": "function"
    },
    {
      "constant": true,
      "inputs": [],
      "name": "getSetupCost",
      "outputs": [
        {
          "name": "",
          "type": "uint256"
        }
      ],
      "payable": false,
      "stateMutability": "view",
      "type": "function"
    },
    {
      "constant": false,
      "inputs": [
        {
          "name": "_newUsageCost",
          "type": "uint256"
        }
      ],
      "name": "changeFactoryUsageFee",
      "outputs": [],
      "payable": false,
      "stateMutability": "nonpayable",
      "type": "function"
    },
    {
      "constant": true,
      "inputs": [],
      "name": "usageCost",
      "outputs": [
        {
          "name": "",
          "type": "uint256"
        }
      ],
      "payable": false,
      "stateMutability": "view",
      "type": "function"
    },
    {
      "constant": true,
      "inputs": [],
      "name": "getInstructions",
      "outputs": [
        {
          "name": "",
          "type": "string"
        }
      ],
      "payable": false,
      "stateMutability": "view",
      "type": "function"
    },
    {
      "constant": false,
      "inputs": [
        {
          "name": "_newDesc",
          "type": "string"
        }
      ],
      "name": "changeDescription",
      "outputs": [],
      "payable": false,
      "stateMutability": "nonpayable",
      "type": "function"
    },
    {
      "constant": false,
      "inputs": [
        {
          "name": "_newOwner",
          "type": "address"
        }
      ],
      "name": "transferOwnership",
      "outputs": [],
      "payable": false,
      "stateMutability": "nonpayable",
      "type": "function"
    },
    {
      "constant": true,
      "inputs": [],
      "name": "getUpperSTVersionBounds",
      "outputs": [
        {
          "name": "",
          "type": "uint8[]"
        }
      ],
      "payable": false,
      "stateMutability": "view",
      "type": "function"
    },
    {
      "constant": false,
      "inputs": [
        {
          "name": "_boundType",
          "type": "string"
        },
        {
          "name": "_newVersion",
          "type": "uint8[]"
        }
      ],
      "name": "changeSTVersionBounds",
      "outputs": [],
      "payable": false,
      "stateMutability": "nonpayable",
      "type": "function"
    },
    {
      "inputs": [
        {
          "name": "_polyAddress",
          "type": "address"
        },
        {
          "name": "_setupCost",
          "type": "uint256"
        },
        {
          "name": "_usageCost",
          "type": "uint256"
        },
        {
          "name": "_subscriptionCost",
          "type": "uint256"
        }
      ],
      "payable": false,
      "stateMutability": "nonpayable",
      "type": "constructor"
    },
    {
      "anonymous": false,
      "inputs": [
        {
          "indexed": false,
          "name": "_oldSetupCost",
          "type": "uint256"
        },
        {
          "indexed": false,
          "name": "_newSetupCost",
          "type": "uint256"
        },
        {
          "indexed": false,
          "name": "_moduleFactory",
          "type": "address"
        }
      ],
      "name": "ChangeFactorySetupFee",
      "type": "event"
    },
    {
      "anonymous": false,
      "inputs": [
        {
          "indexed": false,
          "name": "_oldUsageCost",
          "type": "uint256"
        },
        {
          "indexed": false,
          "name": "_newUsageCost",
          "type": "uint256"
        },
        {
          "indexed": false,
          "name": "_moduleFactory",
          "type": "address"
        }
      ],
      "name": "ChangeFactoryUsageFee",
      "type": "event"
    },
    {
      "anonymous": false,
      "inputs": [
        {
          "indexed": false,
          "name": "_oldSubscriptionCost",
          "type": "uint256"
        },
        {
          "indexed": false,
          "name": "_newMonthlySubscriptionCost",
          "type": "uint256"
        },
        {
          "indexed": false,
          "name": "_moduleFactory",
          "type": "address"
        }
      ],
      "name": "ChangeFactorySubscriptionFee",
      "type": "event"
    },
    {
      "anonymous": false,
      "inputs": [
        {
          "indexed": false,
          "name": "_module",
          "type": "address"
        },
        {
          "indexed": true,
          "name": "_moduleName",
          "type": "bytes32"
        },
        {
          "indexed": true,
          "name": "_moduleFactory",
          "type": "address"
        },
        {
          "indexed": false,
          "name": "_creator",
          "type": "address"
        },
        {
          "indexed": false,
          "name": "_timestamp",
          "type": "uint256"
        }
      ],
      "name": "GenerateModuleFromFactory",
      "type": "event"
    },
    {
      "anonymous": false,
      "inputs": [
        {
          "indexed": false,
          "name": "_boundType",
          "type": "string"
        },
        {
          "indexed": false,
          "name": "_major",
          "type": "uint8"
        },
        {
          "indexed": false,
          "name": "_minor",
          "type": "uint8"
        },
        {
          "indexed": false,
          "name": "_patch",
          "type": "uint8"
        }
      ],
      "name": "ChangeSTVersionBound",
      "type": "event"
    },
    {
      "anonymous": false,
      "inputs": [
        {
          "indexed": true,
          "name": "previousOwner",
          "type": "address"
        }
      ],
      "name": "OwnershipRenounced",
      "type": "event"
    },
    {
      "anonymous": false,
      "inputs": [
        {
          "indexed": true,
          "name": "previousOwner",
          "type": "address"
        },
        {
          "indexed": true,
          "name": "newOwner",
          "type": "address"
        }
      ],
      "name": "OwnershipTransferred",
      "type": "event"
    },
    {
      "anonymous": false,
      "inputs": [
        {
          "indexed": false,
          "name": "_module",
          "type": "address"
        },
        {
          "indexed": true,
          "name": "_moduleName",
          "type": "bytes32"
        },
        {
          "indexed": true,
          "name": "_moduleFactory",
          "type": "address"
        },
        {
          "indexed": false,
          "name": "_creator",
          "type": "address"
        },
        {
          "indexed": false,
          "name": "_setupCost",
          "type": "uint256"
        },
        {
          "indexed": false,
          "name": "_timestamp",
          "type": "uint256"
        }
      ],
      "name": "GenerateModuleFromFactory",
      "type": "event"
    },
    {
      "constant": true,
      "inputs": [],
      "name": "getTypes",
      "outputs": [
        {
          "name": "",
          "type": "uint8[]"
        }
      ],
      "payable": false,
      "stateMutability": "view",
      "type": "function"
    }
  ],
  "bytecode": "0x60806040523480156200001157600080fd5b50604051608080620025668339810160408181528251602080850151838601516060909601516000805433600160a060020a03199182161790915560018054909116600160a060020a03861617905560048290556002879055600381905584860190945260058086527f312e302e30000000000000000000000000000000000000000000000000000000929095019182529194919391929185918591859185918591859185918591620000c79160069162000282565b507f547261636b6564526564656d7074696f6e0000000000000000000000000000006007556040805180820190915260128082527f547261636b656420526564656d7074696f6e00000000000000000000000000006020909201918252620001329160089162000282565b506040805180820190915260178082527f547261636b20746f6b656e20726564656d7074696f6e730000000000000000006020909201918252620001799160059162000282565b506200019660008080640100000000620017016200026782021704565b604080517f6c6f776572426f756e640000000000000000000000000000000000000000000081526009600a820152905190819003602a019020805462ffffff9290921662ffffff199092169190911790556200020360008080640100000000620017016200026782021704565b604080517f7570706572426f756e640000000000000000000000000000000000000000000081526009600a820152905190819003602a019020805462ffffff9290921662ffffff1990921691909117905550620003279a5050505050505050505050565b60ff9081169181166101000292166201000002919091171790565b828054600181600116156101000203166002900490600052602060002090601f016020900481019282601f10620002c557805160ff1916838001178555620002f5565b82800160010185558215620002f5579182015b82811115620002f5578251825591602001919060010190620002d8565b506200030392915062000307565b5090565b6200032491905b808211156200030357600081556001016200030e565b90565b61222f80620003376000396000f30060806040526004361061015d5763ffffffff7c0100000000000000000000000000000000000000000000000000000000600035041662774360811461016257806306184a251461019e57806306fdde03146101c557806317d7de7c146101da5780632dbe07c7146101ef5780633ae192bd1461024a5780634a79d50c1461026257806354fd4d50146102ec57806358a191c31461030157806364bb432c146103195780636faa22a514610372578063715018a6146103875780637284e4161461039c5780637e363ffa146103b15780638677768f146103c6578063898855ed1461042b5780638da5cb5b14610443578063995d9ab714610458578063a5e9d7c91461046d578063aac67b0514610482578063b4579d601461049a578063d54c4726146104af578063e0d54970146104c4578063e6120413146104d9578063f2fde38b14610532578063f786299914610553578063fb97245614610568575b600080fd5b34801561016e57600080fd5b506101826004803560248101910135610594565b60408051600160a060020a039092168252519081900360200190f35b3480156101aa57600080fd5b506101b3610753565b60408051918252519081900360200190f35b3480156101d157600080fd5b506101b3610759565b3480156101e657600080fd5b506101b361075f565b3480156101fb57600080fd5b506040805160206004803580820135601f81018490048402850184019095528484526102489436949293602493928401919081908401838280828437509497506107669650505050505050565b005b34801561025657600080fd5b506102486004356107ed565b34801561026e57600080fd5b5061027761084a565b6040805160208082528351818301528351919283929083019185019080838360005b838110156102b1578181015183820152602001610299565b50505050905090810190601f1680156102de5780820380516001836020036101000a031916815260200191505b509250505060405180910390f35b3480156102f857600080fd5b506102776108d8565b34801561030d57600080fd5b50610248600435610933565b34801561032557600080fd5b506040805160206004803580820135601f81018490048402850184019095528484526102489436949293602493928401919081908401838280828437509497506109909650505050505050565b34801561037e57600080fd5b50610182610a13565b34801561039357600080fd5b50610248610a22565b3480156103a857600080fd5b50610277610a8e565b3480156103bd57600080fd5b506101b3610ae9565b3480156103d257600080fd5b506103db610aef565b60408051602080825283518183015283519192839290830191858101910280838360005b838110156104175781810151838201526020016103ff565b505050509050019250505060405180910390f35b34801561043757600080fd5b50610248600435610b3f565b34801561044f57600080fd5b50610182610bb2565b34801561046457600080fd5b506103db610bc1565b34801561047957600080fd5b506101b3610c62565b34801561048e57600080fd5b50610248600435610c68565b3480156104a657600080fd5b506103db610cc5565b3480156104bb57600080fd5b506101b3610d11565b3480156104d057600080fd5b50610277610d17565b3480156104e557600080fd5b506040805160206004803580820135601f8101849004840285018401909552848452610248943694929360249392840191908190840183828082843750949750610d9c9650505050505050565b34801561053e57600080fd5b50610248600160a060020a0360043516610e1f565b34801561055f57600080fd5b506103db610e42565b34801561057457600080fd5b506102486024600480358281019290820135918135918201910135610e8d565b600080600060045411156106a6576001546000805460048054604080517f23b872dd0000000000000000000000000000000000000000000000000000000081523393810193909352600160a060020a03938416602484015260448301919091525191909316926323b872dd9260648083019360209390929083900390910190829087803b15801561062457600080fd5b505af1158015610638573d6000803e3d6000fd5b505050506040513d602081101561064e57600080fd5b505115156106a6576040805160e560020a62461bcd02815260206004820152601860248201527f556e61626c6520746f2070617920736574757020636f73740000000000000000604482015290519081900360640190fd5b6001543390600160a060020a03166106bc61171c565b600160a060020a03928316815291166020820152604080519182900301906000f0801580156106ef573d6000803e3d6000fd5b509050306106fb61075f565b60045460408051600160a060020a038616815233602082015280820192909252426060830152517fb68b4973fbce93f056103272c1f3f53b607527138d7e323b7b94f7ac169ebf779181900360800190a39392505050565b60035481565b60075481565b6007545b90565b600054600160a060020a0316331461077d57600080fd5b80516000106107d6576040805160e560020a62461bcd02815260206004820152600d60248201527f496e76616c6964207469746c6500000000000000000000000000000000000000604482015290519081900360640190fd5b80516107e990600890602084019061172c565b5050565b600054600160a060020a0316331461080457600080fd5b60035460408051918252602082018390523082820152517fb14468ff50b0c356f5373be0ef0791de71449aaf8ac5ca096049b7ac79d0b1139181900360600190a1600355565b6008805460408051602060026001851615610100026000190190941693909304601f810184900484028201840190925281815292918301828280156108d05780601f106108a5576101008083540402835291602001916108d0565b820191906000526020600020905b8154815290600101906020018083116108b357829003601f168201915b505050505081565b6006805460408051602060026001851615610100026000190190941693909304601f810184900484028201840190925281815292918301828280156108d05780601f106108a5576101008083540402835291602001916108d0565b600054600160a060020a0316331461094a57600080fd5b60045460408051918252602082018390523082820152517f9672983540fb671cd7c0c946255b4dc769a3e557a25ef91ca7c98995c8d694b69181900360600190a1600455565b600054600160a060020a031633146109a757600080fd5b8051600010610a00576040805160e560020a62461bcd02815260206004820152600f60248201527f496e76616c69642076657273696f6e0000000000000000000000000000000000604482015290519081900360640190fd5b80516107e990600690602084019061172c565b600154600160a060020a031681565b600054600160a060020a03163314610a3957600080fd5b60008054604051600160a060020a03909116917ff8df31144d9c2f0f6b59d69b8b98abd5459d07f2742c4df920b25aae33c6482091a26000805473ffffffffffffffffffffffffffffffffffffffff19169055565b6005805460408051602060026001851615610100026000190190941693909304601f810184900484028201840190925281815292918301828280156108d05780601f106108a5576101008083540402835291602001916108d0565b60045481565b604080517f6c6f776572426f756e640000000000000000000000000000000000000000000081526009600a820152905190819003602a01902054606090610b3a9062ffffff166113cc565b905090565b600054600160a060020a03163314610b5657600080fd5b801515610bad576040805160e560020a62461bcd02815260206004820152600c60248201527f496e76616c6964206e616d650000000000000000000000000000000000000000604482015290519081900360640190fd5b600755565b600054600160a060020a031681565b6040805160028082526060808301845292839291906020830190803883390190505090507f526564656d7074696f6e00000000000000000000000000000000000000000000816000815181101515610c1557fe5b6020908102909101015280517f547261636b6564000000000000000000000000000000000000000000000000009082906001908110610c5057fe5b602090810290910101529050805b5090565b60045490565b600054600160a060020a03163314610c7f57600080fd5b60025460408051918252602082018390523082820152517fc39ec4e85127e00b5b203f9c40814616d5977d8de85e6e0717e5ca4b0896206c9181900360600190a1600255565b604080516001808252818301909252606091829190602080830190803883390190505090506004816000815181101515610cfb57fe5b60ff909216602092830290910190910152905090565b60025481565b60408051608081018252604d81527f416c6c6f777320616e20696e766573746f7220746f2072656465656d2073656360208201527f757269747920746f6b656e732077686963682061726520747261636b65642062918101919091527f792074686973206d6f64756c6500000000000000000000000000000000000000606082015290565b600054600160a060020a03163314610db357600080fd5b8051600010610e0c576040805160e560020a62461bcd02815260206004820152601360248201527f496e76616c6964206465736372697074696f6e00000000000000000000000000604482015290519081900360640190fd5b80516107e990600590602084019061172c565b600054600160a060020a03163314610e3657600080fd5b610e3f81611471565b50565b604080517f7570706572426f756e640000000000000000000000000000000000000000000081526009600a820152905190819003602a01902054606090610b3a9062ffffff166113cc565b600054606090600160a060020a03163314610ea757600080fd5b60405160200180807f6c6f776572426f756e6400000000000000000000000000000000000000000000815250600a0190506040516020818303038152906040526040518082805190602001908083835b60208310610f165780518252601f199092019160209182019101610ef7565b51815160209384036101000a600019018019909216911617905260405191909301819003812094508993508892019050808383808284378201915050925050506040516020818303038152906040526040518082805190602001908083835b60208310610f945780518252601f199092019160209182019101610f75565b6001836020036101000a03801982511681845116808217855250505050505090500191505060405180910390206000191614806110ec575060405160200180807f7570706572426f756e6400000000000000000000000000000000000000000000815250600a0190506040516020818303038152906040526040518082805190602001908083835b6020831061103b5780518252601f19909201916020918201910161101c565b51815160209384036101000a600019018019909216911617905260405191909301819003812094508993508892019050808383808284378201915050925050506040516020818303038152906040526040518082805190602001908083835b602083106110b95780518252601f19909201916020918201910161109a565b6001836020036101000a038019825116818451168082178552505050505050905001915050604051809103902060001916145b1515611142576040805160e560020a62461bcd02815260206004820152601a60248201527f4d75737420626520612076616c696420626f756e642074797065000000000000604482015290519081900360640190fd5b6003821461114f57600080fd5b600062ffffff1660098686604051808383808284379091019485525050604051928390036020019092205462ffffff169290921491506112759050576111c060098686604051808383808284379091019485525050604051928390036020019092205462ffffff1691506113cc9050565b90506111f981848480806020026020016040519081016040528093929190818152602001838360200280828437506114ee945050505050565b1515611275576040805160e560020a62461bcd02815260206004820152602260248201527f4661696c65642062656361757365206f6620696e2d76616c696420766572736960448201527f6f6e000000000000000000000000000000000000000000000000000000000000606482015290519081900360840190fd5b6112c68383600081811061128557fe5b9050602002013560ff1684846001818110151561129e57fe5b9050602002013560ff168585600281811015156112b757fe5b9050602002013560ff16611701565b6009868660405180838380828437909101948552505060405192839003602001909220805462ffffff9490941662ffffff1990941693909317909255507f5b67e16edaf7fc70c8d065ea6e70b97ed944d98fe593b04d682216615a3b04db905085858585600081811061133557fe5b9050602002013560ff1686866001818110151561134e57fe5b9050602002013560ff1687876002818110151561136757fe5b9050602002013560ff1660405180806020018560ff1660ff1681526020018460ff1660ff1681526020018360ff1660ff168152602001828103825287878281815260200192508082843760405192018290039850909650505050505050a15050505050565b6040805160038082526080820190925260609182919060208201838038833950508151919250506201000062ffffff851604908290600090811061140c57fe5b60ff909216602092830290910190910152805161010062ffffff851604908290600190811061143757fe5b60ff909216602092830290910190910152805183908290600290811061145957fe5b60ff9092166020928302909101909101529050919050565b600160a060020a038116151561148657600080fd5b60008054604051600160a060020a03808516939216917f8be0079c531659141344cd1fd0a4f28419497f9722a3daafe3b4186f6b6457e091a36000805473ffffffffffffffffffffffffffffffffffffffff1916600160a060020a0392909216919091179055565b600060606000808551604051908082528060200260200182016040528015611520578160200160208202803883390190505b50925060009150600090505b85518160ff1610156115cc57848160ff1681518110151561154957fe5b9060200190602002015160ff16868260ff1681518110151561156757fe5b9060200190602002015160ff1610156115a1576001838260ff1681518110151561158d57fe5b9115156020928302909101909101526115c4565b6000838260ff168151811015156115b457fe5b9115156020928302909101909101525b60010161152c565b5060005b85518160ff1610156116e75760ff8116151561166957848160ff168151811015156115f757fe5b9060200190602002015160ff16868260ff1681518110151561161557fe5b6020908102909101015160ff161161165b5782600081518110151561163657fe5b9060200190602002015115611650578160030191506116e7565b600190910190611664565b600093506116f8565b6116df565b826001820360ff1681518110151561167d57fe5b9060200190602002015115611697576001909101906116df565b848160ff168151811015156116a857fe5b9060200190602002015160ff16868260ff168151811015156116c657fe5b6020908102909101015160ff161161165b576001909101905b6001016115d0565b85518260ff1614156116f857600193505b50505092915050565b60ff9081169181166101000292166201000002919091171790565b604051610a49806117bb83390190565b828054600181600116156101000203166002900490600052602060002090601f016020900481019282601f1061176d57805160ff191683800117855561179a565b8280016001018555821561179a579182015b8281111561179a57825182559160200191906001019061177f565b50610c5e926107639250905b80821115610c5e57600081556001016117a65600608060405234801561001057600080fd5b50604051604080610a4983398101604052805160209091015160018054600160a060020a03938416600160a060020a03199182161790915560008054821633179055600280549390921692169190911790556109d8806100716000396000f30060806040526004361061008a5763ffffffff60e060020a6000350416631613ec9d811461008f578063186651b6146100d95780635f7619a4146100f357806360d511031461011f5780636faa22a514610137578063a6e158f814610168578063b84dfbd214610180578063c3a07df614610195578063c45a0155146101fa578063d70afa961461020f575b600080fd5b34801561009b57600080fd5b506100a4610236565b604080517fffffffff000000000000000000000000000000000000000000000000000000009092168252519081900360200190f35b3480156100e557600080fd5b506100f160043561023b565b005b3480156100ff57600080fd5b5061010b6004356103d1565b604080519115158252519081900360200190f35b34801561012b57600080fd5b506100f1600435610715565b34801561014357600080fd5b5061014c61081c565b60408051600160a060020a039092168252519081900360200190f35b34801561017457600080fd5b506100f160043561082b565b34801561018c57600080fd5b5061014c610933565b3480156101a157600080fd5b506101aa610942565b60408051602080825283518183015283519192839290830191858101910280838360005b838110156101e65781810151838201526020016101ce565b505050509050019250505060405180910390f35b34801561020657600080fd5b5061014c610954565b34801561021b57600080fd5b50610224610963565b60408051918252519081900360200190f35b600090565b336000908152600460205260409020548111156102a2576040805160e560020a62461bcd02815260206004820152601e60248201527f496e73756666696369656e7420746f6b656e732072656465656d61626c650000604482015290519081900360640190fd5b336000908152600460205260409020546102c2908263ffffffff61098716565b336000908152600460209081526040808320939093556003905220546102ee908263ffffffff61099916565b336000908152600360205260408082209290925560015482517f3c9dcebe0000000000000000000000000000000000000000000000000000000081526004810185905260248101849052604481018390529251600160a060020a0390911692633c9dcebe92608480830193919282900301818387803b15801561037057600080fd5b505af1158015610384573d6000803e3d6000fd5b50506040805133815230602082015280820185905242606082015290517f3b08b8a657fd9e9c4294dfe6bcd34d5613ef11b55ede0d204fbd23e3d602bd309350908190036080019150a150565b60007f4645455f41444d494e0000000000000000000000000000000000000000000000600080600160009054906101000a9004600160a060020a0316600160a060020a0316638da5cb5b6040518163ffffffff1660e060020a028152600401602060405180830381600087803b15801561044a57600080fd5b505af115801561045e573d6000803e3d6000fd5b505050506040513d602081101561047457600080fd5b505160005433600160a060020a0392831681149450911614905081806104975750805b8061053d5750600154604080517f8658b8b9000000000000000000000000000000000000000000000000000000008152336004820152306024820152604481018690529051600160a060020a0390921691638658b8b9916064808201926020929091908290030181600087803b15801561051057600080fd5b505af1158015610524573d6000803e3d6000fd5b505050506040513d602081101561053a57600080fd5b50515b1515610593576040805160e560020a62461bcd02815260206004820152601760248201527f5065726d697373696f6e20636865636b206661696c6564000000000000000000604482015290519081900360640190fd5b60025460015460008054604080517f8da5cb5b0000000000000000000000000000000000000000000000000000000081529051600160a060020a03958616956323b872dd95811694931692638da5cb5b92600480820193602093909283900390910190829087803b15801561060757600080fd5b505af115801561061b573d6000803e3d6000fd5b505050506040513d602081101561063157600080fd5b50516040805160e060020a63ffffffff8616028152600160a060020a039384166004820152929091166024830152604482018990525160648083019260209291908290030181600087803b15801561068857600080fd5b505af115801561069c573d6000803e3d6000fd5b505050506040513d60208110156106b257600080fd5b5051151561070a576040805160e560020a62461bcd02815260206004820152601260248201527f556e61626c6520746f2074616b65206665650000000000000000000000000000604482015290519081900360640190fd5b506001949350505050565b600154604080517f23b872dd000000000000000000000000000000000000000000000000000000008152336004820152306024820152604481018490529051600160a060020a03909216916323b872dd916064808201926020929091908290030181600087803b15801561078857600080fd5b505af115801561079c573d6000803e3d6000fd5b505050506040513d60208110156107b257600080fd5b5051151561080a576040805160e560020a62461bcd02815260206004820152601260248201527f496e73756666696369656e742066756e64730000000000000000000000000000604482015290519081900360640190fd5b33600090815260046020526040902055565b600254600160a060020a031681565b600154604080517f7d6ae27b00000000000000000000000000000000000000000000000000000000815233600482015260248101849052606060448201526000606482018190529151600160a060020a0390931692637d6ae27b9260a48084019391929182900301818387803b1580156108a457600080fd5b505af11580156108b8573d6000803e3d6000fd5b5050336000908152600360205260409020546108dd925090508263ffffffff61099916565b33600081815260036020908152604091829020939093558051918252918101839052428183015290517ff3a670cd3af7d64b488926880889d08a8585a138ff455227af6737339a1ec2629181900360600190a150565b600154600160a060020a031681565b60408051600081526020810190915290565b600054600160a060020a031681565b7f4645455f41444d494e000000000000000000000000000000000000000000000081565b60008282111561099357fe5b50900390565b818101828110156109a657fe5b929150505600a165627a7a72305820464255cc6f9e8d372b61ef555f406357167b45d05a31178b9de6c8aada0819d50029a165627a7a723058205a100360efbf253f8872ed0a926f609a4b2031b1b70f2f19fcc09d1e9d8613ef0029",
  "source": "pragma solidity ^0.4.24;\n\nimport \"./MockBurnFactory.sol\";\nimport \"../modules/ModuleFactory.sol\";\nimport \"../libraries/Util.sol\";\n\n/**\n * @title Mock Contract Not fit for production environment\n */\n\ncontract MockWrongTypeFactory is MockBurnFactory {\n\n     /**\n     * @notice Constructor\n     * @param _polyAddress Address of the polytoken\n     */\n    constructor (address _polyAddress, uint256 _setupCost, uint256 _usageCost, uint256 _subscriptionCost) public\n      MockBurnFactory(_polyAddress, _setupCost, _usageCost, _subscriptionCost)\n    {\n    }\n\n    /**\n     * @notice Type of the Module factory\n     */\n    function getTypes() external view returns(uint8[]) {\n        uint8[] memory types = new uint8[](1);\n        types[0] = 4;\n        return types;\n    }\n\n}\n",
  "sourcePath": "/Users/jere/Code/polymath-apps/packages/new-polymath-scripts/src/generateLocalBlockchain/contracts/mocks/MockWrongTypeFactory.sol",
  "compiler": {
    "name": "solc",
    "version": "0.4.24+commit.e67f0147.Emscripten.clang"
  },
  "schemaVersion": "2.0.1",
  "updatedAt": "2019-02-01T15:57:13.553Z"
}