{
  "contractName": "MockModuleRegistry",
  "abi": [
    {
      "constant": true,
      "inputs": [
        {
          "name": "_variable",
          "type": "bytes32"
        }
      ],
      "name": "getBytes32Value",
      "outputs": [
        {
          "name": "",
          "type": "bytes32"
        }
      ],
      "payable": false,
      "stateMutability": "view",
      "type": "function"
    },
    {
      "constant": true,
      "inputs": [
        {
          "name": "_factoryAddress",
          "type": "address"
        }
      ],
      "name": "getReputationByFactory",
      "outputs": [
        {
          "name": "",
          "type": "address[]"
        }
      ],
      "payable": false,
      "stateMutability": "view",
      "type": "function"
    },
    {
      "constant": true,
      "inputs": [
        {
          "name": "_moduleType",
          "type": "uint8"
        },
        {
          "name": "_securityToken",
          "type": "address"
        }
      ],
      "name": "getTagsByTypeAndToken",
      "outputs": [
        {
          "name": "",
          "type": "bytes32[]"
        },
        {
          "name": "",
          "type": "address[]"
        }
      ],
      "payable": false,
      "stateMutability": "view",
      "type": "function"
    },
    {
      "constant": false,
      "inputs": [],
      "name": "unpause",
      "outputs": [],
      "payable": false,
      "stateMutability": "nonpayable",
      "type": "function"
    },
    {
      "constant": true,
      "inputs": [
        {
          "name": "_variable",
          "type": "bytes32"
        }
      ],
      "name": "getBytesValue",
      "outputs": [
        {
          "name": "",
          "type": "bytes"
        }
      ],
      "payable": false,
      "stateMutability": "view",
      "type": "function"
    },
    {
      "constant": false,
      "inputs": [
        {
          "name": "_polymathRegistry",
          "type": "address"
        },
        {
          "name": "_owner",
          "type": "address"
        }
      ],
      "name": "initialize",
      "outputs": [],
      "payable": true,
      "stateMutability": "payable",
      "type": "function"
    },
    {
      "constant": true,
      "inputs": [
        {
          "name": "_moduleType",
          "type": "uint8"
        }
      ],
      "name": "getTagsByType",
      "outputs": [
        {
          "name": "",
          "type": "bytes32[]"
        },
        {
          "name": "",
          "type": "address[]"
        }
      ],
      "payable": false,
      "stateMutability": "view",
      "type": "function"
    },
    {
      "constant": true,
      "inputs": [
        {
          "name": "_variable",
          "type": "bytes32"
        }
      ],
      "name": "getAddressValue",
      "outputs": [
        {
          "name": "",
          "type": "address"
        }
      ],
      "payable": false,
      "stateMutability": "view",
      "type": "function"
    },
    {
      "constant": true,
      "inputs": [
        {
          "name": "_key",
          "type": "bytes32"
        }
      ],
      "name": "getArrayAddress",
      "outputs": [
        {
          "name": "",
          "type": "address[]"
        }
      ],
      "payable": false,
      "stateMutability": "view",
      "type": "function"
    },
    {
      "constant": false,
      "inputs": [],
      "name": "pause",
      "outputs": [],
      "payable": false,
      "stateMutability": "nonpayable",
      "type": "function"
    },
    {
      "constant": false,
      "inputs": [
        {
          "name": "_tokenContract",
          "type": "address"
        }
      ],
      "name": "reclaimERC20",
      "outputs": [],
      "payable": false,
      "stateMutability": "nonpayable",
      "type": "function"
    },
    {
      "constant": true,
      "inputs": [],
      "name": "owner",
      "outputs": [
        {
          "name": "",
          "type": "address"
        }
      ],
      "payable": false,
      "stateMutability": "view",
      "type": "function"
    },
    {
      "constant": true,
      "inputs": [
        {
          "name": "_variable",
          "type": "bytes32"
        }
      ],
      "name": "getBoolValue",
      "outputs": [
        {
          "name": "",
          "type": "bool"
        }
      ],
      "payable": false,
      "stateMutability": "view",
      "type": "function"
    },
    {
      "constant": false,
      "inputs": [
        {
          "name": "_moduleFactory",
          "type": "address"
        }
      ],
      "name": "removeModule",
      "outputs": [],
      "payable": false,
      "stateMutability": "nonpayable",
      "type": "function"
    },
    {
      "constant": true,
      "inputs": [
        {
          "name": "_variable",
          "type": "bytes32"
        }
      ],
      "name": "getStringValue",
      "outputs": [
        {
          "name": "",
          "type": "string"
        }
      ],
      "payable": false,
      "stateMutability": "view",
      "type": "function"
    },
    {
      "constant": true,
      "inputs": [
        {
          "name": "_key",
          "type": "bytes32"
        }
      ],
      "name": "getArrayBytes32",
      "outputs": [
        {
          "name": "",
          "type": "bytes32[]"
        }
      ],
      "payable": false,
      "stateMutability": "view",
      "type": "function"
    },
    {
      "constant": true,
      "inputs": [
        {
          "name": "_moduleType",
          "type": "uint8"
        }
      ],
      "name": "getModulesByType",
      "outputs": [
        {
          "name": "",
          "type": "address[]"
        }
      ],
      "payable": false,
      "stateMutability": "view",
      "type": "function"
    },
    {
      "constant": false,
      "inputs": [
        {
          "name": "_moduleFactory",
          "type": "address"
        }
      ],
      "name": "registerModule",
      "outputs": [],
      "payable": false,
      "stateMutability": "nonpayable",
      "type": "function"
    },
    {
      "constant": true,
      "inputs": [],
      "name": "isPaused",
      "outputs": [
        {
          "name": "",
          "type": "bool"
        }
      ],
      "payable": false,
      "stateMutability": "view",
      "type": "function"
    },
    {
      "constant": false,
      "inputs": [
        {
          "name": "_moduleFactory",
          "type": "address"
        }
      ],
      "name": "useModule",
      "outputs": [],
      "payable": false,
      "stateMutability": "nonpayable",
      "type": "function"
    },
    {
      "constant": true,
      "inputs": [
        {
          "name": "_variable",
          "type": "bytes32"
        }
      ],
      "name": "getUintValue",
      "outputs": [
        {
          "name": "",
          "type": "uint256"
        }
      ],
      "payable": false,
      "stateMutability": "view",
      "type": "function"
    },
    {
      "constant": true,
      "inputs": [
        {
          "name": "_moduleType",
          "type": "uint8"
        },
        {
          "name": "_securityToken",
          "type": "address"
        }
      ],
      "name": "getModulesByTypeAndToken",
      "outputs": [
        {
          "name": "",
          "type": "address[]"
        }
      ],
      "payable": false,
      "stateMutability": "view",
      "type": "function"
    },
    {
      "constant": false,
      "inputs": [
        {
          "name": "_moduleFactory",
          "type": "address"
        },
        {
          "name": "_verified",
          "type": "bool"
        }
      ],
      "name": "verifyModule",
      "outputs": [],
      "payable": false,
      "stateMutability": "nonpayable",
      "type": "function"
    },
    {
      "constant": false,
      "inputs": [
        {
          "name": "_newOwner",
          "type": "address"
        }
      ],
      "name": "transferOwnership",
      "outputs": [],
      "payable": false,
      "stateMutability": "nonpayable",
      "type": "function"
    },
    {
      "constant": false,
      "inputs": [],
      "name": "updateFromRegistry",
      "outputs": [],
      "payable": false,
      "stateMutability": "nonpayable",
      "type": "function"
    },
    {
      "constant": true,
      "inputs": [
        {
          "name": "_key",
          "type": "bytes32"
        }
      ],
      "name": "getArrayUint",
      "outputs": [
        {
          "name": "",
          "type": "uint256[]"
        }
      ],
      "payable": false,
      "stateMutability": "view",
      "type": "function"
    },
    {
      "anonymous": false,
      "inputs": [
        {
          "indexed": false,
          "name": "_timestammp",
          "type": "uint256"
        }
      ],
      "name": "Pause",
      "type": "event"
    },
    {
      "anonymous": false,
      "inputs": [
        {
          "indexed": false,
          "name": "_timestamp",
          "type": "uint256"
        }
      ],
      "name": "Unpause",
      "type": "event"
    },
    {
      "anonymous": false,
      "inputs": [
        {
          "indexed": true,
          "name": "_moduleFactory",
          "type": "address"
        },
        {
          "indexed": true,
          "name": "_securityToken",
          "type": "address"
        }
      ],
      "name": "ModuleUsed",
      "type": "event"
    },
    {
      "anonymous": false,
      "inputs": [
        {
          "indexed": true,
          "name": "_moduleFactory",
          "type": "address"
        },
        {
          "indexed": true,
          "name": "_owner",
          "type": "address"
        }
      ],
      "name": "ModuleRegistered",
      "type": "event"
    },
    {
      "anonymous": false,
      "inputs": [
        {
          "indexed": true,
          "name": "_moduleFactory",
          "type": "address"
        },
        {
          "indexed": false,
          "name": "_verified",
          "type": "bool"
        }
      ],
      "name": "ModuleVerified",
      "type": "event"
    },
    {
      "anonymous": false,
      "inputs": [
        {
          "indexed": true,
          "name": "_moduleFactory",
          "type": "address"
        },
        {
          "indexed": true,
          "name": "_decisionMaker",
          "type": "address"
        }
      ],
      "name": "ModuleRemoved",
      "type": "event"
    },
    {
      "anonymous": false,
      "inputs": [
        {
          "indexed": true,
          "name": "previousOwner",
          "type": "address"
        },
        {
          "indexed": true,
          "name": "newOwner",
          "type": "address"
        }
      ],
      "name": "OwnershipTransferred",
      "type": "event"
    },
    {
      "constant": false,
      "inputs": [
        {
          "name": "_moduleFactory",
          "type": "address"
        },
        {
          "name": "_tokens",
          "type": "address[]"
        }
      ],
      "name": "addMoreReputation",
      "outputs": [],
      "payable": false,
      "stateMutability": "nonpayable",
      "type": "function"
    }
  ],
  "bytecode": "0x6080604052614890806100136000396000f3006080604052600436106101455763ffffffff60e060020a600035041663025ec81a811461014a5780630818a6f0146101745780631a83bff0146101e55780633f4ba83a146102a557806344bfa56e146102bc578063485cc955146103495780634ac24a9a146103635780634c77e5ba1461037e5780636f3b8ce2146103b25780638456cb59146103ca5780638905fd4f146103df5780638da5cb5b146104005780638ffa969014610415578063a063246114610441578063a209a29c14610462578063a8f0d3a71461047a578063ac90b42214610492578063ad64ae4b146104ad578063b187bd26146104ce578063dc659907146104e3578063e02592fd14610504578063e82617fb14610567578063ea393b751461057f578063eac5ab43146105a6578063f2fde38b146105cc578063f433262f146105ed578063f6fcbee114610602575b600080fd5b34801561015657600080fd5b5061016260043561061a565b60408051918252519081900360200190f35b34801561018057600080fd5b50610195600160a060020a036004351661062c565b60408051602080825283518183015283519192839290830191858101910280838360005b838110156101d15781810151838201526020016101b9565b505050509050019250505060405180910390f35b3480156101f157600080fd5b5061020c60ff60043516600160a060020a0360243516610669565b604051808060200180602001838103835285818151815260200191508051906020019060200280838360005b83811015610250578181015183820152602001610238565b50505050905001838103825284818151815260200191508051906020019060200280838360005b8381101561028f578181015183820152602001610277565b5050505090500194505050505060405180910390f35b3480156102b157600080fd5b506102ba61068f565b005b3480156102c857600080fd5b506102d46004356107ad565b6040805160208082528351818301528351919283929083019185019080838360005b8381101561030e5781810151838201526020016102f6565b50505050905090810190601f16801561033b5780820380516001836020036101000a031916815260200191505b509250505060405180910390f35b6102ba600160a060020a036004358116906024351661084e565b34801561036f57600080fd5b5061020c60ff60043516610a68565b34801561038a57600080fd5b50610396600435610a8b565b60408051600160a060020a039092168252519081900360200190f35b3480156103be57600080fd5b50610195600435610aa6565b3480156103d657600080fd5b506102ba610b11565b3480156103eb57600080fd5b506102ba600160a060020a0360043516610c27565b34801561040c57600080fd5b50610396610e62565b34801561042157600080fd5b5061042d600435610eb0565b604080519115158252519081900360200190f35b34801561044d57600080fd5b506102ba600160a060020a0360043516610ec5565b34801561046e57600080fd5b506102d4600435611741565b34801561048657600080fd5b506101956004356117ad565b34801561049e57600080fd5b5061019560ff6004351661180f565b3480156104b957600080fd5b506102ba600160a060020a0360043516611844565b3480156104da57600080fd5b5061042d612701565b3480156104ef57600080fd5b506102ba600160a060020a0360043516612732565b34801561051057600080fd5b506040805160206004602480358281013584810280870186019097528086526102ba968435600160a060020a031696369660449591949091019291829185019084908082843750949750612c1e9650505050505050565b34801561057357600080fd5b50610162600435612cdd565b34801561058b57600080fd5b5061019560ff60043516600160a060020a0360243516612cef565b3480156105b257600080fd5b506102ba600160a060020a036004351660243515156132c0565b3480156105d857600080fd5b506102ba600160a060020a036004351661343e565b3480156105f957600080fd5b506102ba61357b565b34801561060e57600080fd5b5061019560043561389e565b60009081526006602052604090205490565b606061066361065e6040805190810160405280600a8152602001600080516020614745833981519152815250846138ff565b610aa6565b92915050565b60608060606106788585612cef565b9050610683816139f3565b92509250509250929050565b610697612701565b15156106ed576040805160e560020a62461bcd02815260206004820152601460248201527f53686f756c64206e6f7420626520706175736564000000000000000000000000604482015290519081900360640190fd5b6106f5610e62565b600160a060020a03163314610742576040805160e560020a62461bcd0281526020600482015260146024820152600080516020614765833981519152604482015290519081900360640190fd5b610778610771604080519081016040528060068152602001600080516020614725833981519152815250613ce9565b6000613db3565b6040805142815290517faaa520fdd7d2c83061d632fa017b0432407e798818af63ea908589fceda39ab79181900360200190a1565b60008181526003602090815260409182902080548351601f60026101006001851615026000190190931692909204918201849004840281018401909452808452606093928301828280156108425780601f1061081757610100808354040283529160200191610842565b820191906000526020600020905b81548152906001019060200180831161082557829003601f168201915b50505050509050919050565b61089461088f6040805190810160405280600b81526020017f696e697469616c69736564000000000000000000000000000000000000000000815250613ce9565b610eb0565b156108e9576040805160e560020a62461bcd02815260206004820152601360248201527f616c726561647920696e697469616c697a656400000000000000000000000000604482015290519081900360640190fd5b600160a060020a038116158015906109095750600160a060020a03821615155b151561095f576040805160e560020a62461bcd02815260206004820152601560248201527f3078206164647265737320697320696e76616c69640000000000000000000000604482015290519081900360640190fd5b6109a66109a06040805190810160405280601081526020017f706f6c796d617468526567697374727900000000000000000000000000000000815250613ce9565b83613dd3565b6109ed6109e76040805190810160405280600581526020017f6f776e6572000000000000000000000000000000000000000000000000000000815250613ce9565b82613dd3565b610a1c610771604080519081016040528060068152602001600080516020614725833981519152815250613ce9565b610a64610a5d6040805190810160405280600b81526020017f696e697469616c69736564000000000000000000000000000000000000000000815250613ce9565b6001613db3565b5050565b6060806060610a768461180f565b9050610a81816139f3565b9250925050915091565b600090815260026020526040902054600160a060020a031690565b60008181526009602090815260409182902080548351818402810184019094528084526060939283018282801561084257602002820191906000526020600020905b8154600160a060020a03168152600190910190602001808311610ae85750505050509050919050565b610b19612701565b15610b6e576040805160e560020a62461bcd02815260206004820152600e60248201527f416c726561647920706175736564000000000000000000000000000000000000604482015290519081900360640190fd5b610b76610e62565b600160a060020a03163314610bc3576040805160e560020a62461bcd0281526020600482015260146024820152600080516020614765833981519152604482015290519081900360640190fd5b610bf2610a5d604080519081016040528060068152602001600080516020614725833981519152815250613ce9565b6040805142815290517f68b095021b1f40fe513109f513c66692f0b3219aee674a69f4efc57badb8201d9181900360200190a1565b600080610c32610e62565b600160a060020a03163314610c7f576040805160e560020a62461bcd0281526020600482015260146024820152600080516020614765833981519152604482015290519081900360640190fd5b600160a060020a0383161515610cdf576040805160e560020a62461bcd02815260206004820152601560248201527f3078206164647265737320697320696e76616c69640000000000000000000000604482015290519081900360640190fd5b604080517f70a082310000000000000000000000000000000000000000000000000000000081523060048201529051849350600160a060020a038416916370a082319160248083019260209291908290030181600087803b158015610d4357600080fd5b505af1158015610d57573d6000803e3d6000fd5b505050506040513d6020811015610d6d57600080fd5b50519050600160a060020a03821663a9059cbb610d88610e62565b836040518363ffffffff1660e060020a0281526004018083600160a060020a0316600160a060020a0316815260200182815260200192505050602060405180830381600087803b158015610ddb57600080fd5b505af1158015610def573d6000803e3d6000fd5b505050506040513d6020811015610e0557600080fd5b50511515610e5d576040805160e560020a62461bcd02815260206004820152601560248201527f746f6b656e207472616e73666572206661696c65640000000000000000000000604482015290519081900360640190fd5b505050565b6000610eaa610ea56040805190810160405280600581526020017f6f776e6572000000000000000000000000000000000000000000000000000000815250613ce9565b610a8b565b90505b90565b60009081526004602052604090205460ff1690565b600080600080610ed3610e62565b600160a060020a031633600160a060020a0316141561130057610f21610f1c604080519081016040528060088152602001600080516020614785833981519152815250876138ff565b612cdd565b9350831515610fa0576040805160e560020a62461bcd02815260206004820152602360248201527f4d6f64756c6520666163746f72792073686f756c64206265207265676973746560448201527f7265640000000000000000000000000000000000000000000000000000000000606482015290519081900360840190fd5b84600160a060020a0316638da5cb5b6040518163ffffffff1660e060020a028152600401602060405180830381600087803b158015610fde57600080fd5b505af1158015610ff2573d6000803e3d6000fd5b505050506040513d602081101561100857600080fd5b5051600160a060020a03163314806110385750611023610e62565b600160a060020a031633600160a060020a0316145b1515611090576040805160e560020a62461bcd02815260206004820152603f60248201526000805160206147e58339815191526044820152600080516020614825833981519152606482015290519081900360840190fd5b6110c0610f1c6040805190810160405280600f8152602001600080516020614845833981519152815250876138ff565b925060016110f461065e6040805190810160405280600a815260200160008051602061480583398151915281525087613e0e565b5103915061112861065e6040805190810160405280600a815260200160008051602061480583398151915281525086613e0e565b80518390811061113457fe5b6020908102909101015190508282146111b45761117e6111776040805190810160405280600a815260200160008051602061480583398151915281525086613e0e565b8483613ea5565b6111b46111ae6040805190810160405280600f8152602001600080516020614845833981519152815250836138ff565b84613ef5565b6111ea6111e46040805190810160405280600a815260200160008051602061480583398151915281525086613e0e565b83613f07565b61122161121a604080519081016040528060088152602001600080516020614785833981519152815250876138ff565b6000613ef5565b6112656112516040805190810160405280600a8152602001600080516020614745833981519152815250876138ff565b604080516000815260208101909152614017565b6112956107716040805190810160405280600881526020016000805160206147a5833981519152815250876138ff565b6112c561121a6040805190810160405280600f8152602001600080516020614845833981519152815250876138ff565b6040513390600160a060020a038716907fd66772358582078947c11fa70e2860b3ffa915277e6181a4aa293072cb57ed3c90600090a361173a565b611308612701565b1561135d576040805160e560020a62461bcd02815260206004820152600e60248201527f416c726561647920706175736564000000000000000000000000000000000000604482015290519081900360640190fd5b61138d610f1c604080519081016040528060088152602001600080516020614785833981519152815250876138ff565b935083151561140c576040805160e560020a62461bcd02815260206004820152602360248201527f4d6f64756c6520666163746f72792073686f756c64206265207265676973746560448201527f7265640000000000000000000000000000000000000000000000000000000000606482015290519081900360840190fd5b84600160a060020a0316638da5cb5b6040518163ffffffff1660e060020a028152600401602060405180830381600087803b15801561144a57600080fd5b505af115801561145e573d6000803e3d6000fd5b505050506040513d602081101561147457600080fd5b5051600160a060020a03163314806114a4575061148f610e62565b600160a060020a031633600160a060020a0316145b15156114fc576040805160e560020a62461bcd02815260206004820152603f60248201526000805160206147e58339815191526044820152600080516020614825833981519152606482015290519081900360840190fd5b61152c610f1c6040805190810160405280600f8152602001600080516020614845833981519152815250876138ff565b9250600161156061065e6040805190810160405280600a815260200160008051602061480583398151915281525087613e0e565b5103915061159461065e6040805190810160405280600a815260200160008051602061480583398151915281525086613e0e565b8051839081106115a057fe5b602090810290910101519050828214611613576115e36111776040805190810160405280600a815260200160008051602061480583398151915281525086613e0e565b6116136111ae6040805190810160405280600f8152602001600080516020614845833981519152815250836138ff565b6116436111e46040805190810160405280600a815260200160008051602061480583398151915281525086613e0e565b61167361121a604080519081016040528060088152602001600080516020614785833981519152815250876138ff565b6116a36112516040805190810160405280600a8152602001600080516020614745833981519152815250876138ff565b6116d36107716040805190810160405280600881526020016000805160206147a5833981519152815250876138ff565b61170361121a6040805190810160405280600f8152602001600080516020614845833981519152815250876138ff565b6040513390600160a060020a038716907fd66772358582078947c11fa70e2860b3ffa915277e6181a4aa293072cb57ed3c90600090a35b5050505050565b60008181526001602081815260409283902080548451600260001995831615610100029590950190911693909304601f810183900483028401830190945283835260609390918301828280156108425780601f1061081757610100808354040283529160200191610842565b60008181526007602090815260409182902080548351818402810184019094528084526060939283018282801561084257602002820191906000526020600020905b815481526001909101906020018083116117ef5750505050509050919050565b606061066361065e6040805190810160405280600a81526020016000805160206148058339815191528152508460ff16613e0e565b600080600060606000611855610e62565b600160a060020a031633600160a060020a03161415611fab5761189d610ea56040805190810160405280600f8152602001600080516020614705833981519152815250613ce9565b600160a060020a0316632f0019f26040518163ffffffff1660e060020a0281526004018080602001828103825260148152602001806000805160206147c5833981519152815250602001915050602060405180830381600087803b15801561190457600080fd5b505af1158015611918573d6000803e3d6000fd5b505050506040513d602081101561192e57600080fd5b505115611a2a5785600160a060020a0316638da5cb5b6040518163ffffffff1660e060020a028152600401602060405180830381600087803b15801561197357600080fd5b505af1158015611987573d6000803e3d6000fd5b505050506040513d602081101561199d57600080fd5b5051600160a060020a03163314806119cd57506119b8610e62565b600160a060020a031633600160a060020a0316145b1515611a25576040805160e560020a62461bcd02815260206004820152603f60248201526000805160206147e58339815191526044820152600080516020614825833981519152606482015290519081900360840190fd5b611ab7565b611a32610e62565b600160a060020a03163314611ab7576040805160e560020a62461bcd02815260206004820152602660248201527f4f6e6c79206f776e657220616c6c6f77656420746f207265676973746572206d60448201527f6f64756c65730000000000000000000000000000000000000000000000000000606482015290519081900360840190fd5b611ae7610f1c604080519081016040528060088152602001600080516020614785833981519152815250886138ff565b15611b62576040805160e560020a62461bcd02815260206004820152602b60248201527f4d6f64756c6520666163746f72792073686f756c64206e6f742062652070726560448201527f2d72656769737465726564000000000000000000000000000000000000000000606482015290519081900360840190fd5b85945084600160a060020a031663b4579d606040518163ffffffff1660e060020a028152600401600060405180830381600087803b158015611ba357600080fd5b505af1158015611bb7573d6000803e3d6000fd5b505050506040513d6000823e601f3d908101601f191682016040526020811015611be057600080fd5b810190808051640100000000811115611bf857600080fd5b82016020810184811115611c0b57600080fd5b8151856020820283011164010000000082111715611c2857600080fd5b5060019850909550505050505b8151841015611ced57600092505b83831015611ce2578183815181101515611c5957fe5b9060200190602002015160ff168285815181101515611c7457fe5b6020908102909101015160ff161415611cd7576040805160e560020a62461bcd02815260206004820152600d60248201527f54797065206d69736d6174636800000000000000000000000000000000000000604482015290519081900360640190fd5b600190920191611c43565b600190930192611c35565b81511515611d45576040805160e560020a62461bcd02815260206004820152601660248201527f466163746f7279206d7573742068617665207479706500000000000000000000604482015290519081900360640190fd5b84600160a060020a031663b4579d606040518163ffffffff1660e060020a028152600401600060405180830381600087803b158015611d8357600080fd5b505af1158015611d97573d6000803e3d6000fd5b505050506040513d6000823e601f3d908101601f191682016040526020811015611dc057600080fd5b810190808051640100000000811115611dd857600080fd5b82016020810184811115611deb57600080fd5b8151856020820283011164010000000082111715611e0857600080fd5b505080519093506000925082109050611e1d57fe5b906020019060200201519050611e62611e59604080519081016040528060088152602001600080516020614785833981519152815250886138ff565b8260ff16613ef5565b611ecb611e926040805190810160405280600f8152602001600080516020614845833981519152815250886138ff565b611ec561065e6040805190810160405280600a81526020016000805160206148058339815191528152508560ff16613e0e565b51613ef5565b611f04611efe6040805190810160405280600a81526020016000805160206148058339815191528152508360ff16613e0e565b87614036565b85600160a060020a0316638da5cb5b6040518163ffffffff1660e060020a028152600401602060405180830381600087803b158015611f4257600080fd5b505af1158015611f56573d6000803e3d6000fd5b505050506040513d6020811015611f6c57600080fd5b5051604051600160a060020a03918216918816907f49220d7268f6ac850e2f0d39ce956e56f086a18cfda1383c05f9c859fdef901290600090a36126f9565b611fb3612701565b15612008576040805160e560020a62461bcd02815260206004820152600e60248201527f416c726561647920706175736564000000000000000000000000000000000000604482015290519081900360640190fd5b612037610ea56040805190810160405280600f8152602001600080516020614705833981519152815250613ce9565b600160a060020a0316632f0019f26040518163ffffffff1660e060020a0281526004018080602001828103825260148152602001806000805160206147c5833981519152815250602001915050602060405180830381600087803b15801561209e57600080fd5b505af11580156120b2573d6000803e3d6000fd5b505050506040513d60208110156120c857600080fd5b5051156121c45785600160a060020a0316638da5cb5b6040518163ffffffff1660e060020a028152600401602060405180830381600087803b15801561210d57600080fd5b505af1158015612121573d6000803e3d6000fd5b505050506040513d602081101561213757600080fd5b5051600160a060020a03163314806121675750612152610e62565b600160a060020a031633600160a060020a0316145b15156121bf576040805160e560020a62461bcd02815260206004820152603f60248201526000805160206147e58339815191526044820152600080516020614825833981519152606482015290519081900360840190fd5b612251565b6121cc610e62565b600160a060020a03163314612251576040805160e560020a62461bcd02815260206004820152602660248201527f4f6e6c79206f776e657220616c6c6f77656420746f207265676973746572206d60448201527f6f64756c65730000000000000000000000000000000000000000000000000000606482015290519081900360840190fd5b612281610f1c604080519081016040528060088152602001600080516020614785833981519152815250886138ff565b156122fc576040805160e560020a62461bcd02815260206004820152602b60248201527f4d6f64756c6520666163746f72792073686f756c64206e6f742062652070726560448201527f2d72656769737465726564000000000000000000000000000000000000000000606482015290519081900360840190fd5b85945084600160a060020a031663b4579d606040518163ffffffff1660e060020a028152600401600060405180830381600087803b15801561233d57600080fd5b505af1158015612351573d6000803e3d6000fd5b505050506040513d6000823e601f3d908101601f19168201604052602081101561237a57600080fd5b81019080805164010000000081111561239257600080fd5b820160208101848111156123a557600080fd5b81518560208202830111640100000000821117156123c257600080fd5b5060019850909550505050505b815184101561248757600092505b8383101561247c5781838151811015156123f357fe5b9060200190602002015160ff16828581518110151561240e57fe5b6020908102909101015160ff161415612471576040805160e560020a62461bcd02815260206004820152600d60248201527f54797065206d69736d6174636800000000000000000000000000000000000000604482015290519081900360640190fd5b6001909201916123dd565b6001909301926123cf565b815115156124df576040805160e560020a62461bcd02815260206004820152601660248201527f466163746f7279206d7573742068617665207479706500000000000000000000604482015290519081900360640190fd5b84600160a060020a031663b4579d606040518163ffffffff1660e060020a028152600401600060405180830381600087803b15801561251d57600080fd5b505af1158015612531573d6000803e3d6000fd5b505050506040513d6000823e601f3d908101601f19168201604052602081101561255a57600080fd5b81019080805164010000000081111561257257600080fd5b8201602081018481111561258557600080fd5b81518560208202830111640100000000821117156125a257600080fd5b5050805190935060009250821090506125b757fe5b9060200190602002015190506125f3611e59604080519081016040528060088152602001600080516020614785833981519152815250886138ff565b612623611e926040805190810160405280600f8152602001600080516020614845833981519152815250886138ff565b612656611efe6040805190810160405280600a81526020016000805160206148058339815191528152508360ff16613e0e565b85600160a060020a0316638da5cb5b6040518163ffffffff1660e060020a028152600401602060405180830381600087803b15801561269457600080fd5b505af11580156126a8573d6000803e3d6000fd5b505050506040513d60208110156126be57600080fd5b5051604051600160a060020a03918216918816907f49220d7268f6ac850e2f0d39ce956e56f086a18cfda1383c05f9c859fdef901290600090a35b505050505050565b6000610eaa61088f604080519081016040528060068152602001600080516020614725833981519152815250613ce9565b612773610ea56040805190810160405280601581526020017f7365637572697479546f6b656e52656769737472790000000000000000000000815250613ce9565b600160a060020a031663d300a968336040518263ffffffff1660e060020a0281526004018082600160a060020a0316600160a060020a03168152602001915050602060405180830381600087803b1580156127cd57600080fd5b505af11580156127e1573d6000803e3d6000fd5b505050506040513d60208110156127f757600080fd5b505115612c1b5761282d610ea56040805190810160405280600f8152602001600080516020614705833981519152815250613ce9565b600160a060020a0316632f0019f26040518163ffffffff1660e060020a0281526004018080602001828103825260148152602001806000805160206147c5833981519152815250602001915050602060405180830381600087803b15801561289457600080fd5b505af11580156128a8573d6000803e3d6000fd5b505050506040513d60208110156128be57600080fd5b505115612aa2576128f561088f6040805190810160405280600881526020016000805160206147a5833981519152815250836138ff565b806129fb575033600160a060020a0316638da5cb5b6040518163ffffffff1660e060020a028152600401602060405180830381600087803b15801561293957600080fd5b505af115801561294d573d6000803e3d6000fd5b505050506040513d602081101561296357600080fd5b5051604080517f8da5cb5b0000000000000000000000000000000000000000000000000000000081529051600160a060020a0392831692841691638da5cb5b9160048083019260209291908290030181600087803b1580156129c457600080fd5b505af11580156129d8573d6000803e3d6000fd5b505050506040513d60208110156129ee57600080fd5b5051600160a060020a0316145b1515612a9d576040805160e560020a62461bcd02815260206004820152605160248201527f4d6f64756c65466163746f7279206d757374206265207665726966696564206f60448201527f72205365637572697479546f6b656e206f776e6572206d757374206265204d6f60648201527f64756c65466163746f7279206f776e6572000000000000000000000000000000608482015290519081900360a40190fd5b612b28565b612ad261088f6040805190810160405280600881526020016000805160206147a5833981519152815250836138ff565b1515612b28576040805160e560020a62461bcd02815260206004820152601e60248201527f4d6f64756c65466163746f7279206d7573742062652076657269666965640000604482015290519081900360640190fd5b612b328133614082565b1515612bae576040805160e560020a62461bcd02815260206004820152603060248201527f56657273696f6e2073686f756c642077697468696e2074686520636f6d70617460448201527f69626c652072616e6765206f6620535400000000000000000000000000000000606482015290519081900360840190fd5b612be4612bde6040805190810160405280600a8152602001600080516020614745833981519152815250836138ff565b33614036565b6040513390600160a060020a038316907ffd0013c5b822aafcc05b8cfdd6dfa336f40c31714b8bef8f2520e7036b9f079890600090a35b50565b6000612c28610e62565b600160a060020a03163314612c75576040805160e560020a62461bcd0281526020600482015260146024820152600080516020614765833981519152604482015290519081900360640190fd5b5060005b81518160ff161015610e5d57612cd5612cb56040805190810160405280600a8152602001600080516020614745833981519152815250856138ff565b838360ff16815181101515612cc657fe5b90602001906020020151614036565b600101612c79565b60009081526020819052604090205490565b606060006060600080600060606000612d3161065e6040805190810160405280600a81526020016000805160206148058339815191528152508c60ff16613e0e565b519650612d6761065e6040805190810160405280600a81526020016000805160206148058339815191528152508c60ff16613e0e565b9550612d98610ea56040805190810160405280600f8152602001600080516020614705833981519152815250613ce9565b600160a060020a0316632f0019f26040518163ffffffff1660e060020a0281526004018080602001828103825260148152602001806000805160206147c5833981519152815250602001915050602060405180830381600087803b158015612dff57600080fd5b505af1158015612e13573d6000803e3d6000fd5b505050506040513d6020811015612e2957600080fd5b50519450600093508392505b8683101561302d578415612fc85788600160a060020a0316638da5cb5b6040518163ffffffff1660e060020a028152600401602060405180830381600087803b158015612e8157600080fd5b505af1158015612e95573d6000803e3d6000fd5b505050506040513d6020811015612eab57600080fd5b50518651600160a060020a0390911690879085908110612ec757fe5b90602001906020020151600160a060020a0316638da5cb5b6040518163ffffffff1660e060020a028152600401602060405180830381600087803b158015612f0e57600080fd5b505af1158015612f22573d6000803e3d6000fd5b505050506040513d6020811015612f3857600080fd5b5051600160a060020a03161480612f915750612f9161088f6040805190810160405280600881526020016000805160206147a58339815191528152508886815181101515612f8257fe5b906020019060200201516138ff565b15612fc357612fb78684815181101515612fa757fe5b906020019060200201518a614082565b15612fc3576001909301925b613022565b61300061088f6040805190810160405280600881526020016000805160206147a58339815191528152508886815181101515612f8257fe5b15613022576130168684815181101515612fa757fe5b15613022576001909301925b600190920191612e35565b83604051908082528060200260200182016040528015613057578160200160208202803883390190505b50915060009350600090505b868110156132b35784156132145788600160a060020a0316638da5cb5b6040518163ffffffff1660e060020a028152600401602060405180830381600087803b1580156130af57600080fd5b505af11580156130c3573d6000803e3d6000fd5b505050506040513d60208110156130d957600080fd5b50518651600160a060020a03909116908790839081106130f557fe5b90602001906020020151600160a060020a0316638da5cb5b6040518163ffffffff1660e060020a028152600401602060405180830381600087803b15801561313c57600080fd5b505af1158015613150573d6000803e3d6000fd5b505050506040513d602081101561316657600080fd5b5051600160a060020a031614806131b057506131b061088f6040805190810160405280600881526020016000805160206147a58339815191528152508884815181101515612f8257fe5b1561320f576131c68682815181101515612fa757fe5b1561320f5785818151811015156131d957fe5b9060200190602002015182858151811015156131f157fe5b600160a060020a039092166020928302909101909101526001909301925b6132ab565b61324c61088f6040805190810160405280600881526020016000805160206147a58339815191528152508884815181101515612f8257fe5b156132ab576132628682815181101515612fa757fe5b156132ab57858181518110151561327557fe5b90602001906020020151828581518110151561328d57fe5b600160a060020a039092166020928302909101909101526001909301925b600101613063565b5098975050505050505050565b6132c8610e62565b600160a060020a03163314613315576040805160e560020a62461bcd0281526020600482015260146024820152600080516020614765833981519152604482015290519081900360640190fd5b6000613347610f1c604080519081016040528060088152602001600080516020614785833981519152815250856138ff565b14156133c3576040805160e560020a62461bcd02815260206004820152602160248201527f4d6f64756c6520666163746f7279206d7573742062652072656769737465726560448201527f6400000000000000000000000000000000000000000000000000000000000000606482015290519081900360840190fd5b6133f96133f36040805190810160405280600881526020016000805160206147a5833981519152815250846138ff565b82613db3565b6040805182151581529051600160a060020a038416917f302d67e66dd951c29fca6e4f7099f292e8cc3537ad6bc4539b77e8b7a6404db2919081900360200190a25050565b613446610e62565b600160a060020a03163314613493576040805160e560020a62461bcd0281526020600482015260146024820152600080516020614765833981519152604482015290519081900360640190fd5b600160a060020a03811615156134f3576040805160e560020a62461bcd02815260206004820152600f60248201527f496e76616c696420616464726573730000000000000000000000000000000000604482015290519081900360640190fd5b80600160a060020a0316613505610e62565b600160a060020a03167f8be0079c531659141344cd1fd0a4f28419497f9722a3daafe3b4186f6b6457e060405160405180910390a3612c1b6109e76040805190810160405280600581526020017f6f776e6572000000000000000000000000000000000000000000000000000000815250613ce9565b6000613585610e62565b600160a060020a031633146135d2576040805160e560020a62461bcd0281526020600482015260146024820152600080516020614765833981519152604482015290519081900360640190fd5b613613610ea56040805190810160405280601081526020017f706f6c796d617468526567697374727900000000000000000000000000000000815250613ce9565b90506137146136566040805190810160405280601581526020017f7365637572697479546f6b656e52656769737472790000000000000000000000815250613ce9565b604080517fbf40fac1000000000000000000000000000000000000000000000000000000008152602060048201819052601560248301527f5365637572697479546f6b656e5265676973747279000000000000000000000060448301529151600160a060020a0386169263bf40fac192606480820193918290030181600087803b1580156136e357600080fd5b505af11580156136f7573d6000803e3d6000fd5b505050506040513d602081101561370d57600080fd5b5051613dd3565b6137d06137436040805190810160405280600f8152602001600080516020614705833981519152815250613ce9565b604080517fbf40fac1000000000000000000000000000000000000000000000000000000008152602060048201819052600f60248301527f466561747572655265676973747279000000000000000000000000000000000060448301529151600160a060020a0386169263bf40fac192606480820193918290030181600087803b1580156136e357600080fd5b612c1b6138116040805190810160405280600981526020017f706f6c79546f6b656e0000000000000000000000000000000000000000000000815250613ce9565b604080517fbf40fac1000000000000000000000000000000000000000000000000000000008152602060048201819052600960248301527f506f6c79546f6b656e000000000000000000000000000000000000000000000060448301529151600160a060020a0386169263bf40fac192606480820193918290030181600087803b1580156136e357600080fd5b60008181526008602090815260409182902080548351818402810184019094528084526060939283018282801561084257602002820191906000526020600020905b8154815260200190600101908083116138e05750505050509050919050565b600082826040516020018083805190602001908083835b602083106139355780518252601f199092019160209182019101613916565b6001836020036101000a03801982511681845116808217855250505050505090500182600160a060020a0316600160a060020a03166c01000000000000000000000000028152601401925050506040516020818303038152906040526040518082805190602001908083835b602083106139c05780518252601f1990920191602091820191016139a1565b5181516020939093036101000a600019018019909116921691909117905260405192018290039091209695505050505050565b606080600080808380805b8851851015613af7578885815181101515613a1557fe5b90602001906020020151600160a060020a031663995d9ab76040518163ffffffff1660e060020a028152600401600060405180830381600087803b158015613a5c57600080fd5b505af1158015613a70573d6000803e3d6000fd5b505050506040513d6000823e601f3d908101601f191682016040526020811015613a9957600080fd5b810190808051640100000000811115613ab157600080fd5b82016020810184811115613ac457600080fd5b8151856020820283011164010000000082111715613ae157600080fd5b50505198909801975050600190950194506139fe565b85604051908082528060200260200182016040528015613b21578160200160208202803883390190505b50925085604051908082528060200260200182016040528015613b4e578160200160208202803883390190505b50915060009550600094505b8851851015613cdb578885815181101515613b7157fe5b90602001906020020151600160a060020a031663995d9ab76040518163ffffffff1660e060020a028152600401600060405180830381600087803b158015613bb857600080fd5b505af1158015613bcc573d6000803e3d6000fd5b505050506040513d6000823e601f3d908101601f191682016040526020811015613bf557600080fd5b810190808051640100000000811115613c0d57600080fd5b82016020810184811115613c2057600080fd5b8151856020820283011164010000000082111715613c3d57600080fd5b5060009850909450505050505b8051841015613cd0578084815181101515613c6157fe5b906020019060200201518387815181101515613c7957fe5b602090810290910101528851899086908110613c9157fe5b906020019060200201518287815181101515613ca957fe5b600160a060020a039092166020928302909101909101526001958601959390930192613c4a565b600190940193613b5a565b509097909650945050505050565b6000816040516020018082805190602001908083835b60208310613d1e5780518252601f199092019160209182019101613cff565b6001836020036101000a0380198251168184511680821785525050505050509050019150506040516020818303038152906040526040518082805190602001908083835b60208310613d815780518252601f199092019160209182019101613d62565b5181516020939093036101000a6000190180199091169216919091179052604051920182900390912095945050505050565b600091825260046020526040909120805460ff1916911515919091179055565b600091825260026020526040909120805473ffffffffffffffffffffffffffffffffffffffff1916600160a060020a03909216919091179055565b600082826040516020018083805190602001908083835b60208310613e445780518252601f199092019160209182019101613e25565b51815160001960209485036101000a019081169019919091161790529201938452506040805180850381529382019081905283519394509283925090840190808383602083106139c05780518252601f1990920191602091820191016139a1565b6000838152600960205260409020805482919084908110613ec257fe5b9060005260206000200160006101000a815481600160a060020a030219169083600160a060020a03160217905550505050565b60009182526020829052604090912055565b600082815260096020526040902080548210613f93576040805160e560020a62461bcd02815260206004820152602a60248201527f496e6465782073686f756c64206c657373207468616e206c656e677468206f6660448201527f2074686520617272617900000000000000000000000000000000000000000000606482015290519081900360840190fd5b805481906000198101908110613fa557fe5b6000918252602090912001548154600160a060020a0390911690829084908110613fcb57fe5b6000918252602090912001805473ffffffffffffffffffffffffffffffffffffffff1916600160a060020a03929092169190911790558054600019016140118282614623565b50505050565b60008281526009602090815260409091208251610e5d92840190614647565b6000918252600960209081526040832080546001810182559084529220909101805473ffffffffffffffffffffffffffffffffffffffff1916600160a060020a03909216919091179055565b6000606080606060008086600160a060020a0316630d8e6e2c6040518163ffffffff1660e060020a028152600401600060405180830381600087803b1580156140ca57600080fd5b505af11580156140de573d6000803e3d6000fd5b505050506040513d6000823e601f3d908101601f19168201604052602081101561410757600080fd5b81019080805164010000000081111561411f57600080fd5b8201602081018481111561413257600080fd5b815185602082028301116401000000008211171561414f57600080fd5b5050929190505050945087600160a060020a0316638677768f6040518163ffffffff1660e060020a028152600401600060405180830381600087803b15801561419757600080fd5b505af11580156141ab573d6000803e3d6000fd5b505050506040513d6000823e601f3d908101601f1916820160405260208110156141d457600080fd5b8101908080516401000000008111156141ec57600080fd5b820160208101848111156141ff57600080fd5b815185602082028301116401000000008211171561421c57600080fd5b5050929190505050935087600160a060020a031663f78629996040518163ffffffff1660e060020a028152600401600060405180830381600087803b15801561426457600080fd5b505af1158015614278573d6000803e3d6000fd5b505050506040513d6000823e601f3d908101601f1916820160405260208110156142a157600080fd5b8101908080516401000000008111156142b957600080fd5b820160208101848111156142cc57600080fd5b81518560208202830111640100000000821117156142e957600080fd5b505092919050505092506142fd8486614321565b915061430983866144b8565b90508180156143155750805b98975050505050505050565b60008060008084518651141515614382576040805160e560020a62461bcd02815260206004820152601560248201527f496e707574206c656e677468206d69736d617463680000000000000000000000604482015290519081900360640190fd5b60009250600091505b85518260ff1610156143cf57858260ff168151811015156143a857fe5b9060200190602002015160ff16600014156143c4576001909201915b60019091019061438b565b855183146144aa575060009150815b85518160ff16101561448c57858160ff168151811015156143fb57fe5b9060200190602002015160ff16858260ff1681518110151561441957fe5b9060200190602002015160ff16111561443557600193506144af565b858160ff1681518110151561444657fe5b9060200190602002015160ff16858260ff1681518110151561446457fe5b9060200190602002015160ff16101561448057600093506144af565b600192830192016143de565b60018651038314156144a157600193506144af565b600093506144af565b600193505b50505092915050565b60008060008084518651141515614519576040805160e560020a62461bcd02815260206004820152601560248201527f496e707574206c656e677468206d69736d617463680000000000000000000000604482015290519081900360640190fd5b60009250600091505b85518260ff16101561456657858260ff1681518110151561453f57fe5b9060200190602002015160ff166000141561455b576001909201915b600190910190614522565b855183146144aa575060009150815b85518160ff16101561448c57848160ff1681518110151561459257fe5b9060200190602002015160ff16868260ff168151811015156145b057fe5b9060200190602002015160ff1611156145cc57600193506144af565b848160ff168151811015156145dd57fe5b9060200190602002015160ff16868260ff168151811015156145fb57fe5b9060200190602002015160ff16101561461757600093506144af565b60019283019201614575565b815481835581811115610e5d57600083815260209020610e5d9181019083016146b9565b8280548282559060005260206000209081019282156146a9579160200282015b828111156146a9578251825473ffffffffffffffffffffffffffffffffffffffff1916600160a060020a03909116178255602090920191600190910190614667565b506146b59291506146d3565b5090565b610ead91905b808211156146b557600081556001016146bf565b610ead91905b808211156146b557805473ffffffffffffffffffffffffffffffffffffffff191681556001016146d956006665617475726552656769737472790000000000000000000000000000000000706175736564000000000000000000000000000000000000000000000000000072657075746174696f6e0000000000000000000000000000000000000000000073656e646572206d757374206265206f776e657200000000000000000000000072656769737472790000000000000000000000000000000000000000000000007665726966696564000000000000000000000000000000000000000000000000637573746f6d4d6f64756c6573416c6c6f7765640000000000000000000000006d73672e73656e646572206d75737420626520746865204d6f64756c652046616d6f64756c654c6973740000000000000000000000000000000000000000000063746f7279206f776e6572206f722072656769737472792063757261746f72006d6f64756c654c697374496e6465780000000000000000000000000000000000a165627a7a72305820e734f3e7e43bcdbd7acdcc66c90b7d49f08f33442bc512eaacbc33f98168f6db0029",
  "source": "pragma solidity ^0.4.24;\n\nimport \"../ModuleRegistry.sol\";\n\n/**\n * @title Registry contract for issuers to register their security tokens\n */\ncontract MockModuleRegistry is ModuleRegistry {\n\n    /// @notice It is dummy functionality\n    /// Alert! Alert! Do not use it for the mainnet release\n    function addMoreReputation(address _moduleFactory, address[] _tokens) public onlyOwner {\n        for (uint8 i = 0; i < _tokens.length; i++) {\n            pushArray(Encoder.getKey(\"reputation\", _moduleFactory), _tokens[i]);\n        }\n    }\n\n\n}\n",
  "sourcePath": "/Users/jere/Code/polymath-apps/packages/new-polymath-scripts/src/generateLocalBlockchain/contracts/mocks/MockModuleRegistry.sol",
  "compiler": {
    "name": "solc",
    "version": "0.4.24+commit.e67f0147.Emscripten.clang"
  },
  "schemaVersion": "2.0.1",
  "updatedAt": "2019-01-29T19:35:51.379Z"
}