{
  "contractName": "MockFactory",
  "abi": [
    {
      "constant": false,
      "inputs": [
        {
          "name": "_data",
          "type": "bytes"
        }
      ],
      "name": "deploy",
      "outputs": [
        {
          "name": "",
          "type": "address"
        }
      ],
      "payable": false,
      "stateMutability": "nonpayable",
      "type": "function"
    },
    {
      "constant": true,
      "inputs": [],
      "name": "monthlySubscriptionCost",
      "outputs": [
        {
          "name": "",
          "type": "uint256"
        }
      ],
      "payable": false,
      "stateMutability": "view",
      "type": "function"
    },
    {
      "constant": true,
      "inputs": [],
      "name": "name",
      "outputs": [
        {
          "name": "",
          "type": "bytes32"
        }
      ],
      "payable": false,
      "stateMutability": "view",
      "type": "function"
    },
    {
      "constant": true,
      "inputs": [],
      "name": "getName",
      "outputs": [
        {
          "name": "",
          "type": "bytes32"
        }
      ],
      "payable": false,
      "stateMutability": "view",
      "type": "function"
    },
    {
      "constant": false,
      "inputs": [
        {
          "name": "_newTitle",
          "type": "string"
        }
      ],
      "name": "changeTitle",
      "outputs": [],
      "payable": false,
      "stateMutability": "nonpayable",
      "type": "function"
    },
    {
      "constant": false,
      "inputs": [
        {
          "name": "_newSubscriptionCost",
          "type": "uint256"
        }
      ],
      "name": "changeFactorySubscriptionFee",
      "outputs": [],
      "payable": false,
      "stateMutability": "nonpayable",
      "type": "function"
    },
    {
      "constant": true,
      "inputs": [],
      "name": "switchTypes",
      "outputs": [
        {
          "name": "",
          "type": "bool"
        }
      ],
      "payable": false,
      "stateMutability": "view",
      "type": "function"
    },
    {
      "constant": true,
      "inputs": [],
      "name": "title",
      "outputs": [
        {
          "name": "",
          "type": "string"
        }
      ],
      "payable": false,
      "stateMutability": "view",
      "type": "function"
    },
    {
      "constant": true,
      "inputs": [],
      "name": "version",
      "outputs": [
        {
          "name": "",
          "type": "string"
        }
      ],
      "payable": false,
      "stateMutability": "view",
      "type": "function"
    },
    {
      "constant": false,
      "inputs": [
        {
          "name": "_newSetupCost",
          "type": "uint256"
        }
      ],
      "name": "changeFactorySetupFee",
      "outputs": [],
      "payable": false,
      "stateMutability": "nonpayable",
      "type": "function"
    },
    {
      "constant": false,
      "inputs": [
        {
          "name": "_newVersion",
          "type": "string"
        }
      ],
      "name": "changeVersion",
      "outputs": [],
      "payable": false,
      "stateMutability": "nonpayable",
      "type": "function"
    },
    {
      "constant": true,
      "inputs": [],
      "name": "polyToken",
      "outputs": [
        {
          "name": "",
          "type": "address"
        }
      ],
      "payable": false,
      "stateMutability": "view",
      "type": "function"
    },
    {
      "constant": false,
      "inputs": [],
      "name": "renounceOwnership",
      "outputs": [],
      "payable": false,
      "stateMutability": "nonpayable",
      "type": "function"
    },
    {
      "constant": true,
      "inputs": [],
      "name": "description",
      "outputs": [
        {
          "name": "",
          "type": "string"
        }
      ],
      "payable": false,
      "stateMutability": "view",
      "type": "function"
    },
    {
      "constant": true,
      "inputs": [],
      "name": "setupCost",
      "outputs": [
        {
          "name": "",
          "type": "uint256"
        }
      ],
      "payable": false,
      "stateMutability": "view",
      "type": "function"
    },
    {
      "constant": true,
      "inputs": [],
      "name": "getLowerSTVersionBounds",
      "outputs": [
        {
          "name": "",
          "type": "uint8[]"
        }
      ],
      "payable": false,
      "stateMutability": "view",
      "type": "function"
    },
    {
      "constant": false,
      "inputs": [
        {
          "name": "_newName",
          "type": "bytes32"
        }
      ],
      "name": "changeName",
      "outputs": [],
      "payable": false,
      "stateMutability": "nonpayable",
      "type": "function"
    },
    {
      "constant": true,
      "inputs": [],
      "name": "owner",
      "outputs": [
        {
          "name": "",
          "type": "address"
        }
      ],
      "payable": false,
      "stateMutability": "view",
      "type": "function"
    },
    {
      "constant": true,
      "inputs": [],
      "name": "getTags",
      "outputs": [
        {
          "name": "",
          "type": "bytes32[]"
        }
      ],
      "payable": false,
      "stateMutability": "view",
      "type": "function"
    },
    {
      "constant": true,
      "inputs": [],
      "name": "getSetupCost",
      "outputs": [
        {
          "name": "",
          "type": "uint256"
        }
      ],
      "payable": false,
      "stateMutability": "view",
      "type": "function"
    },
    {
      "constant": false,
      "inputs": [
        {
          "name": "_newUsageCost",
          "type": "uint256"
        }
      ],
      "name": "changeFactoryUsageFee",
      "outputs": [],
      "payable": false,
      "stateMutability": "nonpayable",
      "type": "function"
    },
    {
      "constant": true,
      "inputs": [],
      "name": "usageCost",
      "outputs": [
        {
          "name": "",
          "type": "uint256"
        }
      ],
      "payable": false,
      "stateMutability": "view",
      "type": "function"
    },
    {
      "constant": true,
      "inputs": [],
      "name": "getInstructions",
      "outputs": [
        {
          "name": "",
          "type": "string"
        }
      ],
      "payable": false,
      "stateMutability": "view",
      "type": "function"
    },
    {
      "constant": false,
      "inputs": [
        {
          "name": "_newDesc",
          "type": "string"
        }
      ],
      "name": "changeDescription",
      "outputs": [],
      "payable": false,
      "stateMutability": "nonpayable",
      "type": "function"
    },
    {
      "constant": false,
      "inputs": [
        {
          "name": "_newOwner",
          "type": "address"
        }
      ],
      "name": "transferOwnership",
      "outputs": [],
      "payable": false,
      "stateMutability": "nonpayable",
      "type": "function"
    },
    {
      "constant": true,
      "inputs": [],
      "name": "getUpperSTVersionBounds",
      "outputs": [
        {
          "name": "",
          "type": "uint8[]"
        }
      ],
      "payable": false,
      "stateMutability": "view",
      "type": "function"
    },
    {
      "constant": false,
      "inputs": [
        {
          "name": "_boundType",
          "type": "string"
        },
        {
          "name": "_newVersion",
          "type": "uint8[]"
        }
      ],
      "name": "changeSTVersionBounds",
      "outputs": [],
      "payable": false,
      "stateMutability": "nonpayable",
      "type": "function"
    },
    {
      "inputs": [
        {
          "name": "_polyAddress",
          "type": "address"
        },
        {
          "name": "_setupCost",
          "type": "uint256"
        },
        {
          "name": "_usageCost",
          "type": "uint256"
        },
        {
          "name": "_subscriptionCost",
          "type": "uint256"
        }
      ],
      "payable": false,
      "stateMutability": "nonpayable",
      "type": "constructor"
    },
    {
      "anonymous": false,
      "inputs": [
        {
          "indexed": true,
          "name": "previousOwner",
          "type": "address"
        }
      ],
      "name": "OwnershipRenounced",
      "type": "event"
    },
    {
      "anonymous": false,
      "inputs": [
        {
          "indexed": true,
          "name": "previousOwner",
          "type": "address"
        },
        {
          "indexed": true,
          "name": "newOwner",
          "type": "address"
        }
      ],
      "name": "OwnershipTransferred",
      "type": "event"
    },
    {
      "anonymous": false,
      "inputs": [
        {
          "indexed": false,
          "name": "_oldSetupCost",
          "type": "uint256"
        },
        {
          "indexed": false,
          "name": "_newSetupCost",
          "type": "uint256"
        },
        {
          "indexed": false,
          "name": "_moduleFactory",
          "type": "address"
        }
      ],
      "name": "ChangeFactorySetupFee",
      "type": "event"
    },
    {
      "anonymous": false,
      "inputs": [
        {
          "indexed": false,
          "name": "_oldUsageCost",
          "type": "uint256"
        },
        {
          "indexed": false,
          "name": "_newUsageCost",
          "type": "uint256"
        },
        {
          "indexed": false,
          "name": "_moduleFactory",
          "type": "address"
        }
      ],
      "name": "ChangeFactoryUsageFee",
      "type": "event"
    },
    {
      "anonymous": false,
      "inputs": [
        {
          "indexed": false,
          "name": "_oldSubscriptionCost",
          "type": "uint256"
        },
        {
          "indexed": false,
          "name": "_newMonthlySubscriptionCost",
          "type": "uint256"
        },
        {
          "indexed": false,
          "name": "_moduleFactory",
          "type": "address"
        }
      ],
      "name": "ChangeFactorySubscriptionFee",
      "type": "event"
    },
    {
      "anonymous": false,
      "inputs": [
        {
          "indexed": false,
          "name": "_module",
          "type": "address"
        },
        {
          "indexed": true,
          "name": "_moduleName",
          "type": "bytes32"
        },
        {
          "indexed": true,
          "name": "_moduleFactory",
          "type": "address"
        },
        {
          "indexed": false,
          "name": "_creator",
          "type": "address"
        },
        {
          "indexed": false,
          "name": "_setupCost",
          "type": "uint256"
        },
        {
          "indexed": false,
          "name": "_timestamp",
          "type": "uint256"
        }
      ],
      "name": "GenerateModuleFromFactory",
      "type": "event"
    },
    {
      "anonymous": false,
      "inputs": [
        {
          "indexed": false,
          "name": "_boundType",
          "type": "string"
        },
        {
          "indexed": false,
          "name": "_major",
          "type": "uint8"
        },
        {
          "indexed": false,
          "name": "_minor",
          "type": "uint8"
        },
        {
          "indexed": false,
          "name": "_patch",
          "type": "uint8"
        }
      ],
      "name": "ChangeSTVersionBound",
      "type": "event"
    },
    {
      "constant": true,
      "inputs": [],
      "name": "getTypes",
      "outputs": [
        {
          "name": "",
          "type": "uint8[]"
        }
      ],
      "payable": false,
      "stateMutability": "view",
      "type": "function"
    },
    {
      "constant": false,
      "inputs": [],
      "name": "changeTypes",
      "outputs": [],
      "payable": false,
      "stateMutability": "nonpayable",
      "type": "function"
    }
  ],
  "bytecode": "0x6080604052600a805460ff191690553480156200001b57600080fd5b50604051608080620035338339810160408181528251602080850151838601516060909601516000805433600160a060020a03199182161790915560018054909116600160a060020a03861617905560048290556002879055600381905584860190945260058086527f312e302e3000000000000000000000000000000000000000000000000000000092909501918252919491939192918591859185918591620000c99160069162000280565b507f44756d6d7953544f0000000000000000000000000000000000000000000000006007556040805180820190915260098082527f44756d6d792053544f00000000000000000000000000000000000000000000006020909201918252620001349160089162000280565b506040805180820190915260098082527f44756d6d792053544f000000000000000000000000000000000000000000000060209092019182526200017b9160059162000280565b50620001986000808064010000000062001a386200026582021704565b604080517f6c6f776572426f756e640000000000000000000000000000000000000000000081526009600a820152905190819003602a019020805462ffffff9290921662ffffff19909216919091179055620002056000808064010000000062001a386200026582021704565b604080517f7570706572426f756e640000000000000000000000000000000000000000000081526009600a820152905190819003602a019020805462ffffff9290921662ffffff1990921691909117905550620003259650505050505050565b60ff9081169181166101000292166201000002919091171790565b828054600181600116156101000203166002900490600052602060002090601f016020900481019282601f10620002c357805160ff1916838001178555620002f3565b82800160010185558215620002f3579182015b82811115620002f3578251825591602001919060010190620002d6565b506200030192915062000305565b5090565b6200032291905b808211156200030157600081556001016200030c565b90565b6131fe80620003356000396000f30060806040526004361061015a5763ffffffff60e060020a600035041662774360811461015f57806306184a251461019b57806306fdde03146101c257806317d7de7c146101d75780632dbe07c7146101ec5780633ae192bd1461024757806348c731101461025f5780634a79d50c1461028857806354fd4d501461031257806358a191c31461032757806364bb432c1461033f5780636faa22a514610398578063715018a6146103ad5780637284e416146103c25780637e363ffa146103d75780638677768f146103ec578063898855ed146104515780638da5cb5b1461046957806392fe11741461047e578063995d9ab714610493578063a5e9d7c9146104a8578063aac67b05146104bd578063b4579d60146104d5578063d54c4726146104ea578063e0d54970146104ff578063e612041314610514578063f2fde38b1461056d578063f78629991461058e578063fb972456146105a3575b600080fd5b34801561016b57600080fd5b5061017f60048035602481019101356105cf565b60408051600160a060020a039092168252519081900360200190f35b3480156101a757600080fd5b506101b0610971565b60408051918252519081900360200190f35b3480156101ce57600080fd5b506101b0610977565b3480156101e357600080fd5b506101b061097d565b3480156101f857600080fd5b506040805160206004803580820135601f81018490048402850184019095528484526102459436949293602493928401919081908401838280828437509497506109849650505050505050565b005b34801561025357600080fd5b50610245600435610a0b565b34801561026b57600080fd5b50610274610a68565b604080519115158252519081900360200190f35b34801561029457600080fd5b5061029d610a71565b6040805160208082528351818301528351919283929083019185019080838360005b838110156102d75781810151838201526020016102bf565b50505050905090810190601f1680156103045780820380516001836020036101000a031916815260200191505b509250505060405180910390f35b34801561031e57600080fd5b5061029d610aff565b34801561033357600080fd5b50610245600435610b5a565b34801561034b57600080fd5b506040805160206004803580820135601f8101849004840285018401909552848452610245943694929360249392840191908190840183828082843750949750610bb79650505050505050565b3480156103a457600080fd5b5061017f610c3a565b3480156103b957600080fd5b50610245610c49565b3480156103ce57600080fd5b5061029d610cb5565b3480156103e357600080fd5b506101b0610d10565b3480156103f857600080fd5b50610401610d16565b60408051602080825283518183015283519192839290830191858101910280838360005b8381101561043d578181015183820152602001610425565b505050509050019250505060405180910390f35b34801561045d57600080fd5b50610245600435610d66565b34801561047557600080fd5b5061017f610dd9565b34801561048a57600080fd5b50610245610de8565b34801561049f57600080fd5b50610401610e13565b3480156104b457600080fd5b506101b0610ef1565b3480156104c957600080fd5b50610245600435610ef7565b3480156104e157600080fd5b50610401610f54565b3480156104f657600080fd5b506101b0610fed565b34801561050b57600080fd5b5061029d610ff3565b34801561052057600080fd5b506040805160206004803580820135601f81018490048402850184019095528484526102459436949293602493928401919081908401838280828437509497506110529650505050505050565b34801561057957600080fd5b50610245600160a060020a03600435166110d5565b34801561059a57600080fd5b506104016110f8565b3480156105af57600080fd5b506102456024600480358281019290820135918135918201910135611143565b60008060006004541115610707576001546000805460048054604080517f23b872dd0000000000000000000000000000000000000000000000000000000081523393810193909352600160a060020a03938416602484015260448301919091525191909316926323b872dd9260648083019360209390929083900390910190829087803b15801561065f57600080fd5b505af1158015610673573d6000803e3d6000fd5b505050506040513d602081101561068957600080fd5b50511515610707576040805160e560020a62461bcd02815260206004820152602360248201527f537566666963656e7420416c6c6f77616e6365206973206e6f742070726f766960448201527f6465640000000000000000000000000000000000000000000000000000000000606482015290519081900360840190fd5b6001543390600160a060020a031661071d611a53565b600160a060020a03928316815291166020820152604080519182900301906000f080158015610750573d6000803e3d6000fd5b50905080600160a060020a0316631613ec9d6040518163ffffffff1660e060020a028152600401602060405180830381600087803b15801561079157600080fd5b505af11580156107a5573d6000803e3d6000fd5b505050506040513d60208110156107bb57600080fd5b5051604080516020601f87018190048102820181019092528581527bffffffffffffffffffffffffffffffffffffffffffffffffffffffff199092169161081691879087908190840183828082843750611682945050505050565b7bffffffffffffffffffffffffffffffffffffffffffffffffffffffff19161461088a576040805160e560020a62461bcd02815260206004820152600c60248201527f496e76616c696420646174610000000000000000000000000000000000000000604482015290519081900360640190fd5b80600160a060020a03168484604051808383808284378201915050925050506000604051808303816000865af19150501515610910576040805160e560020a62461bcd02815260206004820152601260248201527f556e7375636365737366756c6c2063616c6c0000000000000000000000000000604482015290519081900360640190fd5b3061091961097d565b60045460408051600160a060020a038616815233602082015280820192909252426060830152517fb68b4973fbce93f056103272c1f3f53b607527138d7e323b7b94f7ac169ebf779181900360800190a39392505050565b60035481565b60075481565b6007545b90565b600054600160a060020a0316331461099b57600080fd5b80516000106109f4576040805160e560020a62461bcd02815260206004820152600d60248201527f496e76616c6964207469746c6500000000000000000000000000000000000000604482015290519081900360640190fd5b8051610a07906008906020840190611a63565b5050565b600054600160a060020a03163314610a2257600080fd5b60035460408051918252602082018390523082820152517fb14468ff50b0c356f5373be0ef0791de71449aaf8ac5ca096049b7ac79d0b1139181900360600190a1600355565b600a5460ff1681565b6008805460408051602060026001851615610100026000190190941693909304601f81018490048402820184019092528181529291830182828015610af75780601f10610acc57610100808354040283529160200191610af7565b820191906000526020600020905b815481529060010190602001808311610ada57829003601f168201915b505050505081565b6006805460408051602060026001851615610100026000190190941693909304601f81018490048402820184019092528181529291830182828015610af75780601f10610acc57610100808354040283529160200191610af7565b600054600160a060020a03163314610b7157600080fd5b60045460408051918252602082018390523082820152517f9672983540fb671cd7c0c946255b4dc769a3e557a25ef91ca7c98995c8d694b69181900360600190a1600455565b600054600160a060020a03163314610bce57600080fd5b8051600010610c27576040805160e560020a62461bcd02815260206004820152600f60248201527f496e76616c69642076657273696f6e0000000000000000000000000000000000604482015290519081900360640190fd5b8051610a07906006906020840190611a63565b600154600160a060020a031681565b600054600160a060020a03163314610c6057600080fd5b60008054604051600160a060020a03909116917ff8df31144d9c2f0f6b59d69b8b98abd5459d07f2742c4df920b25aae33c6482091a26000805473ffffffffffffffffffffffffffffffffffffffff19169055565b6005805460408051602060026001851615610100026000190190941693909304601f81018490048402820184019092528181529291830182828015610af75780601f10610acc57610100808354040283529160200191610af7565b60045481565b604080517f6c6f776572426f756e640000000000000000000000000000000000000000000081526009600a820152905190819003602a01902054606090610d619062ffffff16611703565b905090565b600054600160a060020a03163314610d7d57600080fd5b801515610dd4576040805160e560020a62461bcd02815260206004820152600c60248201527f496e76616c6964206e616d650000000000000000000000000000000000000000604482015290519081900360640190fd5b600755565b600054600160a060020a031681565b600054600160a060020a03163314610dff57600080fd5b600a805460ff19811660ff90911615179055565b60408051600480825260a08201909252606091829190602082016080803883390190505090507f44756d6d79000000000000000000000000000000000000000000000000000000816000815181101515610e6957fe5b6020908102909101015280517f4e6f6e2d726566756e6461626c650000000000000000000000000000000000009082906001908110610ea457fe5b6020908102909101015280517f45544800000000000000000000000000000000000000000000000000000000009082906002908110610edf57fe5b602090810290910101529050805b5090565b60045490565b600054600160a060020a03163314610f0e57600080fd5b60025460408051918252602082018390523082820152517fc39ec4e85127e00b5b203f9c40814616d5977d8de85e6e0717e5ca4b0896206c9181900360600190a1600255565b600a546060908190819060ff161515610f80576040805160008152602081019091529250829150610fe8565b60408051600280825260608201835290916020830190803883390190505090506001816000815181101515610fb157fe5b60ff9092166020928302909101909101528051600190829082908110610fd357fe5b60ff9092166020928302909101909101529150815b505090565b60025481565b60408051606081018252602781527f44756d6d792053544f202d20796f752063616e206d696e7420746f6b656e732060208201527f61742077696c6c000000000000000000000000000000000000000000000000009181019190915290565b600054600160a060020a0316331461106957600080fd5b80516000106110c2576040805160e560020a62461bcd02815260206004820152601360248201527f496e76616c6964206465736372697074696f6e00000000000000000000000000604482015290519081900360640190fd5b8051610a07906005906020840190611a63565b600054600160a060020a031633146110ec57600080fd5b6110f5816117a8565b50565b604080517f7570706572426f756e640000000000000000000000000000000000000000000081526009600a820152905190819003602a01902054606090610d619062ffffff16611703565b600054606090600160a060020a0316331461115d57600080fd5b60405160200180807f6c6f776572426f756e6400000000000000000000000000000000000000000000815250600a0190506040516020818303038152906040526040518082805190602001908083835b602083106111cc5780518252601f1990920191602091820191016111ad565b51815160209384036101000a600019018019909216911617905260405191909301819003812094508993508892019050808383808284378201915050925050506040516020818303038152906040526040518082805190602001908083835b6020831061124a5780518252601f19909201916020918201910161122b565b6001836020036101000a03801982511681845116808217855250505050505090500191505060405180910390206000191614806113a2575060405160200180807f7570706572426f756e6400000000000000000000000000000000000000000000815250600a0190506040516020818303038152906040526040518082805190602001908083835b602083106112f15780518252601f1990920191602091820191016112d2565b51815160209384036101000a600019018019909216911617905260405191909301819003812094508993508892019050808383808284378201915050925050506040516020818303038152906040526040518082805190602001908083835b6020831061136f5780518252601f199092019160209182019101611350565b6001836020036101000a038019825116818451168082178552505050505050905001915050604051809103902060001916145b15156113f8576040805160e560020a62461bcd02815260206004820152601a60248201527f4d75737420626520612076616c696420626f756e642074797065000000000000604482015290519081900360640190fd5b6003821461140557600080fd5b600062ffffff1660098686604051808383808284379091019485525050604051928390036020019092205462ffffff1692909214915061152b90505761147660098686604051808383808284379091019485525050604051928390036020019092205462ffffff1691506117039050565b90506114af8184848080602002602001604051908101604052809392919081815260200183836020028082843750611825945050505050565b151561152b576040805160e560020a62461bcd02815260206004820152602260248201527f4661696c65642062656361757365206f6620696e2d76616c696420766572736960448201527f6f6e000000000000000000000000000000000000000000000000000000000000606482015290519081900360840190fd5b61157c8383600081811061153b57fe5b9050602002013560ff1684846001818110151561155457fe5b9050602002013560ff1685856002818110151561156d57fe5b9050602002013560ff16611a38565b6009868660405180838380828437909101948552505060405192839003602001909220805462ffffff9490941662ffffff1990941693909317909255507f5b67e16edaf7fc70c8d065ea6e70b97ed944d98fe593b04d682216615a3b04db90508585858560008181106115eb57fe5b9050602002013560ff1686866001818110151561160457fe5b9050602002013560ff1687876002818110151561161d57fe5b9050602002013560ff1660405180806020018560ff1660ff1681526020018460ff1660ff1681526020018360ff1660ff168152602001828103825287878281815260200192508082843760405192018290039850909650505050505050a15050505050565b6000806000600484511061169757600461169a565b83515b9150600090505b818110156116fc5780600183030360080260020a84828151811015156116c357fe5b90602001015160f860020a900460f860020a0260f860020a9004028360e060020a90040160e060020a02925080806001019150506116a1565b5050919050565b6040805160038082526080820190925260609182919060208201838038833950508151919250506201000062ffffff851604908290600090811061174357fe5b60ff909216602092830290910190910152805161010062ffffff851604908290600190811061176e57fe5b60ff909216602092830290910190910152805183908290600290811061179057fe5b60ff9092166020928302909101909101529050919050565b600160a060020a03811615156117bd57600080fd5b60008054604051600160a060020a03808516939216917f8be0079c531659141344cd1fd0a4f28419497f9722a3daafe3b4186f6b6457e091a36000805473ffffffffffffffffffffffffffffffffffffffff1916600160a060020a0392909216919091179055565b600060606000808551604051908082528060200260200182016040528015611857578160200160208202803883390190505b50925060009150600090505b85518160ff16101561190357848160ff1681518110151561188057fe5b9060200190602002015160ff16868260ff1681518110151561189e57fe5b9060200190602002015160ff1610156118d8576001838260ff168151811015156118c457fe5b9115156020928302909101909101526118fb565b6000838260ff168151811015156118eb57fe5b9115156020928302909101909101525b600101611863565b5060005b85518160ff161015611a1e5760ff811615156119a057848160ff1681518110151561192e57fe5b9060200190602002015160ff16868260ff1681518110151561194c57fe5b6020908102909101015160ff16116119925782600081518110151561196d57fe5b906020019060200201511561198757816003019150611a1e565b60019091019061199b565b60009350611a2f565b611a16565b826001820360ff168151811015156119b457fe5b90602001906020020151156119ce57600190910190611a16565b848160ff168151811015156119df57fe5b9060200190602002015160ff16868260ff168151811015156119fd57fe5b6020908102909101015160ff1611611992576001909101905b600101611907565b85518260ff161415611a2f57600193505b50505092915050565b60ff9081169181166101000292166201000002919091171790565b6040516116e180611af283390190565b828054600181600116156101000203166002900490600052602060002090601f016020900481019282601f10611aa457805160ff1916838001178555611ad1565b82800160010185558215611ad1579182015b82811115611ad1578251825591602001919060010190611ab6565b50610eed926109819250905b80821115610eed5760008155600101611add56006080604052600a805460a060020a60ff021916905534801561002057600080fd5b506040516040806116e183398101604052805160209091015160098054600160a060020a03938416600160a060020a03199182161790915560088054821633179055600a8054939092169216919091179055611660806100816000396000f3006080604052600436106101505763ffffffff60e060020a6000350416631613ec9d81146101555780632a0acc6a1461019f5780633197cbb6146101c6578063355274ea146101db57806338c59de9146101f05780633f4ba83a14610205578063521eb2731461021c5780635c975abb1461024d5780635f7619a41461027657806363b201171461028e5780636f7bc9be146102a35780636faa22a5146102c457806378e97925146102d9578063827f32c0146102ee5780638456cb59146103125780638905fd4f146103275780638b310079146103485780639a7cc135146103ab578063b2cca39d146103c6578063b84dfbd2146103db578063c3a07df6146103f0578063c45a015514610455578063c4d2c6bd1461046a578063d143a37914610485578063d70afa96146104a0578063d7e64c00146104b5578063e7a96f6d146104ca578063ee7c0db014610554575b600080fd5b34801561016157600080fd5b5061016a610569565b604080517fffffffff000000000000000000000000000000000000000000000000000000009092168252519081900360200190f35b3480156101ab57600080fd5b506101b46105c5565b60408051918252519081900360200190f35b3480156101d257600080fd5b506101b46105e9565b3480156101e757600080fd5b506101b46105ef565b3480156101fc57600080fd5b506101b46105f5565b34801561021157600080fd5b5061021a6105fb565b005b34801561022857600080fd5b506102316106e3565b60408051600160a060020a039092168252519081900360200190f35b34801561025957600080fd5b506102626106f2565b604080519115158252519081900360200190f35b34801561028257600080fd5b50610262600435610702565b34801561029a57600080fd5b506101b4610a42565b3480156102af57600080fd5b506101b4600160a060020a0360043516610a48565b3480156102d057600080fd5b50610231610a5a565b3480156102e557600080fd5b506101b4610a69565b3480156102fa57600080fd5b5061021a600160a060020a0360043516602435610a6f565b34801561031e57600080fd5b5061021a610e0c565b34801561033357600080fd5b5061021a600160a060020a0360043516610f4b565b34801561035457600080fd5b50604080516020601f60643560048181013592830184900484028501840190955281845261021a948035946024803595604435953695608494930191819084018382808284375094975061120f9650505050505050565b3480156103b757600080fd5b506101b460ff6004351661129a565b3480156103d257600080fd5b506101b46112c6565b3480156103e757600080fd5b506102316112cc565b3480156103fc57600080fd5b506104056112db565b60408051602080825283518183015283519192839290830191858101910280838360005b83811015610441578181015183820152602001610429565b505050509050019250505060405180910390f35b34801561046157600080fd5b50610231611342565b34801561047657600080fd5b506101b460ff60043516611351565b34801561049157600080fd5b5061026260ff60043516611363565b3480156104ac57600080fd5b506101b4611378565b3480156104c157600080fd5b506101b461139c565b3480156104d657600080fd5b506104df6113a2565b6040805160208082528351818301528351919283929083019185019080838360005b83811015610519578181015183820152602001610501565b50505050905090810190601f1680156105465780820380516001836020036101000a031916815260200191505b509250505060405180910390f35b34801561056057600080fd5b506101b4611430565b604080517f636f6e6669677572652875696e743235362c75696e743235362c75696e74323581527f362c737472696e67290000000000000000000000000000000000000000000000602082015290519081900360290190205b90565b7f41444d494e00000000000000000000000000000000000000000000000000000081565b60035481565b600c5481565b600b5490565b600960009054906101000a9004600160a060020a0316600160a060020a0316638da5cb5b6040518163ffffffff1660e060020a028152600401602060405180830381600087803b15801561064e57600080fd5b505af1158015610662573d6000803e3d6000fd5b505050506040513d602081101561067857600080fd5b5051600160a060020a031633146106d9576040805160e560020a62461bcd02815260206004820152601360248201527f53656e646572206973206e6f74206f776e657200000000000000000000000000604482015290519081900360640190fd5b6106e1611435565b565b600654600160a060020a031681565b600a5460a060020a900460ff1681565b60007f4645455f41444d494e0000000000000000000000000000000000000000000000600080600960009054906101000a9004600160a060020a0316600160a060020a0316638da5cb5b6040518163ffffffff1660e060020a028152600401602060405180830381600087803b15801561077b57600080fd5b505af115801561078f573d6000803e3d6000fd5b505050506040513d60208110156107a557600080fd5b505160085433600160a060020a0392831681149450911614905081806107c85750805b8061086e5750600954604080517f8658b8b9000000000000000000000000000000000000000000000000000000008152336004820152306024820152604481018690529051600160a060020a0390921691638658b8b9916064808201926020929091908290030181600087803b15801561084157600080fd5b505af1158015610855573d6000803e3d6000fd5b505050506040513d602081101561086b57600080fd5b50515b15156108c4576040805160e560020a62461bcd02815260206004820152601760248201527f5065726d697373696f6e20636865636b206661696c6564000000000000000000604482015290519081900360640190fd5b600a54600954600854604080517f8da5cb5b0000000000000000000000000000000000000000000000000000000081529051600160a060020a03948516946323b872dd948116931691638da5cb5b9160048083019260209291908290030181600087803b15801561093457600080fd5b505af1158015610948573d6000803e3d6000fd5b505050506040513d602081101561095e57600080fd5b50516040805160e060020a63ffffffff8616028152600160a060020a039384166004820152929091166024830152604482018990525160648083019260209291908290030181600087803b1580156109b557600080fd5b505af11580156109c9573d6000803e3d6000fd5b505050506040513d60208110156109df57600080fd5b50511515610a37576040805160e560020a62461bcd02815260206004820152601260248201527f556e61626c6520746f2074616b65206665650000000000000000000000000000604482015290519081900360640190fd5b506001949350505050565b60075481565b600e6020526000908152604090205481565b600a54600160a060020a031681565b60025481565b7f41444d494e000000000000000000000000000000000000000000000000000000600080600960009054906101000a9004600160a060020a0316600160a060020a0316638da5cb5b6040518163ffffffff1660e060020a028152600401602060405180830381600087803b158015610ae657600080fd5b505af1158015610afa573d6000803e3d6000fd5b505050506040513d6020811015610b1057600080fd5b505160085433600160a060020a039283168114945091161490508180610b335750805b80610bd95750600954604080517f8658b8b9000000000000000000000000000000000000000000000000000000008152336004820152306024820152604481018690529051600160a060020a0390921691638658b8b9916064808201926020929091908290030181600087803b158015610bac57600080fd5b505af1158015610bc0573d6000803e3d6000fd5b505050506040513d6020811015610bd657600080fd5b50515b1515610c2f576040805160e560020a62461bcd02815260206004820152601760248201527f5065726d697373696f6e20636865636b206661696c6564000000000000000000604482015290519081900360640190fd5b600a5460a060020a900460ff1615610c91576040805160e560020a62461bcd02815260206004820152601460248201527f53686f756c64206e6f7420626520706175736564000000000000000000000000604482015290519081900360640190fd5b60008411610ce9576040805160e560020a62461bcd02815260206004820152601f60248201527f416d6f756e742073686f756c642062652067726561746572207468616e203000604482015290519081900360640190fd5b600954604080517f40c10f19000000000000000000000000000000000000000000000000000000008152600160a060020a03888116600483015260248201889052915191909216916340c10f199160448083019260209291908290030181600087803b158015610d5857600080fd5b505af1158015610d6c573d6000803e3d6000fd5b505050506040513d6020811015610d8257600080fd5b5050600160a060020a0385166000908152600e60205260409020541515610dad57600b805460010190555b600160a060020a0385166000818152600e60209081526040918290208054880190558151928352820186905280517f49a23d4bd6b4f260675f3199bc5f2ed8d2000b35fbdd81a6635f8dbbd41ff0449281900390910190a15050505050565b600960009054906101000a9004600160a060020a0316600160a060020a0316638da5cb5b6040518163ffffffff1660e060020a028152600401602060405180830381600087803b158015610e5f57600080fd5b505af1158015610e73573d6000803e3d6000fd5b505050506040513d6020811015610e8957600080fd5b5051600160a060020a03163314610eea576040805160e560020a62461bcd02815260206004820152601360248201527f53656e646572206973206e6f74206f776e657200000000000000000000000000604482015290519081900360640190fd5b6003544210610f43576040805160e560020a62461bcd02815260206004820152601660248201527f53544f20686173206265656e2066696e616c697a656400000000000000000000604482015290519081900360640190fd5b6106e16114eb565b600080600960009054906101000a9004600160a060020a0316600160a060020a0316638da5cb5b6040518163ffffffff1660e060020a028152600401602060405180830381600087803b158015610fa157600080fd5b505af1158015610fb5573d6000803e3d6000fd5b505050506040513d6020811015610fcb57600080fd5b5051600160a060020a0316331461102c576040805160e560020a62461bcd02815260206004820152601360248201527f53656e646572206973206e6f74206f776e657200000000000000000000000000604482015290519081900360640190fd5b600160a060020a038316151561108c576040805160e560020a62461bcd02815260206004820152600f60248201527f496e76616c696420616464726573730000000000000000000000000000000000604482015290519081900360640190fd5b604080517f70a082310000000000000000000000000000000000000000000000000000000081523060048201529051849350600160a060020a038416916370a082319160248083019260209291908290030181600087803b1580156110f057600080fd5b505af1158015611104573d6000803e3d6000fd5b505050506040513d602081101561111a57600080fd5b5051604080517fa9059cbb000000000000000000000000000000000000000000000000000000008152336004820152602481018390529051919250600160a060020a0384169163a9059cbb916044808201926020929091908290030181600087803b15801561118857600080fd5b505af115801561119c573d6000803e3d6000fd5b505050506040513d60208110156111b257600080fd5b5051151561120a576040805160e560020a62461bcd02815260206004820152600f60248201527f5472616e73666572206661696c65640000000000000000000000000000000000604482015290519081900360640190fd5b505050565b600854600160a060020a03163314611271576040805160e560020a62461bcd02815260206004820152601560248201527f53656e646572206973206e6f7420666163746f72790000000000000000000000604482015290519081900360640190fd5b60028490556003839055600c829055805161129390600d9060208401906115a6565b5050505050565b6000600160008360028111156112ac57fe5b60ff16815260208101919091526040016000205492915050565b60045481565b600954600160a060020a031681565b604080516001808252818301909252606091829190602080830190803883390190505090507f41444d494e00000000000000000000000000000000000000000000000000000081600081518110151561133057fe5b602090810290910101529050805b5090565b600854600160a060020a031681565b60016020526000908152604090205481565b60006020819052908152604090205460ff1681565b7f4645455f41444d494e000000000000000000000000000000000000000000000081565b600b5481565b600d805460408051602060026001851615610100026000190190941693909304601f810184900484028201840190925281815292918301828280156114285780601f106113fd57610100808354040283529160200191611428565b820191906000526020600020905b81548152906001019060200180831161140b57829003601f168201915b505050505081565b600090565b600a5460a060020a900460ff161515611498576040805160e560020a62461bcd02815260206004820152601660248201527f436f6e7472616374206973206e6f742070617573656400000000000000000000604482015290519081900360640190fd5b600a805474ff0000000000000000000000000000000000000000191690556040805142815290517faaa520fdd7d2c83061d632fa017b0432407e798818af63ea908589fceda39ab79181900360200190a1565b600a5460a060020a900460ff161561154d576040805160e560020a62461bcd02815260206004820152601260248201527f436f6e7472616374206973207061757365640000000000000000000000000000604482015290519081900360640190fd5b600a805474ff0000000000000000000000000000000000000000191660a060020a1790556040805142815290517f68b095021b1f40fe513109f513c66692f0b3219aee674a69f4efc57badb8201d9181900360200190a1565b828054600181600116156101000203166002900490600052602060002090601f016020900481019282601f106115e757805160ff1916838001178555611614565b82800160010185558215611614579182015b828111156116145782518255916020019190600101906115f9565b5061133e926105c29250905b8082111561133e57600081556001016116205600a165627a7a72305820a348c1d2523655b314c27d5ce742e2ed877f53213ce69553b4f0f394d174cbee0029a165627a7a723058202b23a6ab64ce7c2b22dde56d2c2c0f48ae51045b6bc3259d97fd5fffe3efc67c0029",
  "source": "pragma solidity ^0.4.24;\n\nimport \"../modules/STO/DummySTOFactory.sol\";\n\n/**\n * @title Mock Contract Not fit for production environment\n */\n\ncontract MockFactory is DummySTOFactory {\n\n    bool public switchTypes = false;\n     /**\n     * @notice Constructor\n     * @param _polyAddress Address of the polytoken\n     */\n    constructor (address _polyAddress, uint256 _setupCost, uint256 _usageCost, uint256 _subscriptionCost) public\n      DummySTOFactory(_polyAddress, _setupCost, _usageCost, _subscriptionCost)\n    {\n\n    }\n\n    /**\n     * @notice Type of the Module factory\n     */\n    function getTypes() external view returns(uint8[]) {\n        if (!switchTypes) {\n            uint8[] memory types = new uint8[](0);\n            return types;\n        } else {\n            uint8[] memory res = new uint8[](2);\n            res[0] = 1;\n            res[1] = 1;\n            return res;\n        }\n        \n    }\n\n    function changeTypes() external onlyOwner {\n        switchTypes = !switchTypes;\n    }\n\n}\n",
  "sourcePath": "/Users/jere/Code/polymath-apps/packages/new-polymath-scripts/src/generateLocalBlockchain/contracts/mocks/MockFactory.sol",
  "compiler": {
    "name": "solc",
    "version": "0.4.24+commit.e67f0147.Emscripten.clang"
  },
  "schemaVersion": "2.0.1",
  "updatedAt": "2019-01-29T19:35:51.377Z"
}