{
  "contractName": "ModuleStorage",
  "abi": [
    {
      "constant": true,
      "inputs": [],
      "name": "polyToken",
      "outputs": [
        {
          "name": "",
          "type": "address"
        }
      ],
      "payable": false,
      "stateMutability": "view",
      "type": "function"
    },
    {
      "constant": true,
      "inputs": [],
      "name": "securityToken",
      "outputs": [
        {
          "name": "",
          "type": "address"
        }
      ],
      "payable": false,
      "stateMutability": "view",
      "type": "function"
    },
    {
      "constant": true,
      "inputs": [],
      "name": "factory",
      "outputs": [
        {
          "name": "",
          "type": "address"
        }
      ],
      "payable": false,
      "stateMutability": "view",
      "type": "function"
    },
    {
      "constant": true,
      "inputs": [],
      "name": "FEE_ADMIN",
      "outputs": [
        {
          "name": "",
          "type": "bytes32"
        }
      ],
      "payable": false,
      "stateMutability": "view",
      "type": "function"
    },
    {
      "inputs": [
        {
          "name": "_securityToken",
          "type": "address"
        },
        {
          "name": "_polyAddress",
          "type": "address"
        }
      ],
      "payable": false,
      "stateMutability": "nonpayable",
      "type": "constructor"
    }
  ],
  "bytecode": "0x608060405234801561001057600080fd5b5060405160408061020a83398101604052805160209091015160018054600160a060020a03938416600160a060020a0319918216179091556000805482163317905560028054939092169216919091179055610199806100716000396000f3006080604052600436106100615763ffffffff7c01000000000000000000000000000000000000000000000000000000006000350416636faa22a58114610066578063b84dfbd2146100a4578063c45a0155146100b9578063d70afa96146100ce575b600080fd5b34801561007257600080fd5b5061007b6100f5565b6040805173ffffffffffffffffffffffffffffffffffffffff9092168252519081900360200190f35b3480156100b057600080fd5b5061007b610111565b3480156100c557600080fd5b5061007b61012d565b3480156100da57600080fd5b506100e3610149565b60408051918252519081900360200190f35b60025473ffffffffffffffffffffffffffffffffffffffff1681565b60015473ffffffffffffffffffffffffffffffffffffffff1681565b60005473ffffffffffffffffffffffffffffffffffffffff1681565b7f4645455f41444d494e0000000000000000000000000000000000000000000000815600a165627a7a7230582019444ded8abe393eca1ba9bd87d1b289da2597a831d51a8e060342348b5010d60029",
  "source": "pragma solidity ^0.4.24;\n\nimport \"../interfaces/IERC20.sol\";\n\n/**\n * @title Storage for Module contract\n * @notice Contract is abstract\n */\ncontract ModuleStorage {\n\n    /**\n     * @notice Constructor\n     * @param _securityToken Address of the security token\n     * @param _polyAddress Address of the polytoken\n     */\n    constructor (address _securityToken, address _polyAddress) public {\n        securityToken = _securityToken;\n        factory = msg.sender;\n        polyToken = IERC20(_polyAddress);\n    }\n    \n    address public factory;\n\n    address public securityToken;\n\n    bytes32 public constant FEE_ADMIN = \"FEE_ADMIN\";\n\n    IERC20 public polyToken;\n\n}\n",
  "sourcePath": "/Users/jere/Code/polymath-apps/packages/new-polymath-scripts/src/generateLocalBlockchain/contracts/modules/ModuleStorage.sol",
  "compiler": {
    "name": "solc",
    "version": "0.4.24+commit.e67f0147.Emscripten.clang"
  },
  "schemaVersion": "2.0.1",
  "updatedAt": "2019-02-05T23:14:22.973Z"
}