{
  "contractName": "OwnedProxy",
  "abi": [
    {
      "inputs": [],
      "payable": false,
      "stateMutability": "nonpayable",
      "type": "constructor"
    },
    {
      "payable": true,
      "stateMutability": "payable",
      "type": "fallback"
    },
    {
      "anonymous": false,
      "inputs": [
        {
          "indexed": false,
          "name": "_previousOwner",
          "type": "address"
        },
        {
          "indexed": false,
          "name": "_newOwner",
          "type": "address"
        }
      ],
      "name": "ProxyOwnershipTransferred",
      "type": "event"
    },
    {
      "constant": false,
      "inputs": [],
      "name": "proxyOwner",
      "outputs": [
        {
          "name": "",
          "type": "address"
        }
      ],
      "payable": false,
      "stateMutability": "nonpayable",
      "type": "function"
    },
    {
      "constant": false,
      "inputs": [],
      "name": "implementation",
      "outputs": [
        {
          "name": "",
          "type": "address"
        }
      ],
      "payable": false,
      "stateMutability": "nonpayable",
      "type": "function"
    },
    {
      "constant": false,
      "inputs": [
        {
          "name": "_newOwner",
          "type": "address"
        }
      ],
      "name": "transferProxyOwnership",
      "outputs": [],
      "payable": false,
      "stateMutability": "nonpayable",
      "type": "function"
    }
  ],
  "bytecode": "0x608060405234801561001057600080fd5b5061002333640100000000610028810204565b6100c1565b600160a060020a038116151561009f57604080517f08c379a000000000000000000000000000000000000000000000000000000000815260206004820152601860248201527f416464726573732073686f756c64206e6f742062652030780000000000000000604482015290519081900360640190fd5b60008054600160a060020a031916600160a060020a0392909216919091179055565b610351806100d06000396000f3006080604052600436106100565763ffffffff7c0100000000000000000000000000000000000000000000000000000000600035041663025313a281146100605780635c60da1b14610091578063f1739cae146100a6575b61005e6100c7565b005b34801561006c57600080fd5b506100756100d9565b60408051600160a060020a039092168252519081900360200190f35b34801561009d57600080fd5b50610075610116565b3480156100b257600080fd5b5061005e600160a060020a0360043516610141565b6100d76100d261023d565b61024c565b565b60006100e3610270565b600160a060020a031633600160a060020a0316141561010b57610104610270565b9050610113565b6101136100c7565b90565b6000610120610270565b600160a060020a031633600160a060020a0316141561010b5761010461023d565b610149610270565b600160a060020a031633600160a060020a0316141561023257600160a060020a03811615156101d957604080517f08c379a000000000000000000000000000000000000000000000000000000000815260206004820152601860248201527f416464726573732073686f756c64206e6f742062652030780000000000000000604482015290519081900360640190fd5b7f5a3e66efaa1e445ebd894728a69d6959842ea1e97bd79b892797106e270efcd9610202610270565b60408051600160a060020a03928316815291841660208301528051918290030190a161022d8161027f565b61023a565b61023a6100c7565b50565b600154600160a060020a031690565b3660008037600080366000845af43d6000803e80801561026b573d6000f35b3d6000fd5b600054600160a060020a031690565b600160a060020a03811615156102f657604080517f08c379a000000000000000000000000000000000000000000000000000000000815260206004820152601860248201527f416464726573732073686f756c64206e6f742062652030780000000000000000604482015290519081900360640190fd5b6000805473ffffffffffffffffffffffffffffffffffffffff1916600160a060020a03929092169190911790555600a165627a7a7230582039ca14a3ed87544ca4b92e28b5d54cfdb3ea757acf37e1192a49ddd452e078470029",
  "source": "pragma solidity ^0.4.18;\n\nimport \"./Proxy.sol\";\n\n/**\n * @title OwnedProxy\n * @dev This contract combines an upgradeability proxy with basic authorization control functionalities\n */\ncontract OwnedProxy is Proxy {\n\n    // Owner of the contract\n    address private __owner;\n\n    // Address of the current implementation\n    address internal __implementation;\n\n    /**\n    * @dev Event to show ownership has been transferred\n    * @param _previousOwner representing the address of the previous owner\n    * @param _newOwner representing the address of the new owner\n    */\n    event ProxyOwnershipTransferred(address _previousOwner, address _newOwner);\n\n    /**\n    * @dev Throws if called by any account other than the owner.\n    */\n    modifier ifOwner() {\n        if (msg.sender == _owner()) {\n            _;\n        } else {\n            _fallback();\n        }\n    }\n\n    /**\n    * @dev the constructor sets the original owner of the contract to the sender account.\n    */\n    constructor() public {\n        _setOwner(msg.sender);\n    }\n\n    /**\n    * @dev Tells the address of the owner\n    * @return the address of the owner\n    */\n    function _owner() internal view returns (address) {\n        return __owner;\n    }\n\n    /**\n    * @dev Sets the address of the owner\n    */\n    function _setOwner(address _newOwner) internal {\n        require(_newOwner != address(0), \"Address should not be 0x\");\n        __owner = _newOwner;\n    }\n\n    /**\n    * @notice Internal function to provide the address of the implementation contract\n    */\n    function _implementation() internal view returns (address) {\n        return __implementation;\n    }\n\n    /**\n    * @dev Tells the address of the proxy owner\n    * @return the address of the proxy owner\n    */\n    function proxyOwner() external ifOwner returns (address) {\n        return _owner();\n    }\n\n    /**\n    * @dev Tells the address of the current implementation\n    * @return address of the current implementation\n    */\n    function implementation() external ifOwner returns (address) {\n        return _implementation();\n    }\n\n    /**\n    * @dev Allows the current owner to transfer control of the contract to a newOwner.\n    * @param _newOwner The address to transfer ownership to.\n    */\n    function transferProxyOwnership(address _newOwner) external ifOwner {\n        require(_newOwner != address(0), \"Address should not be 0x\");\n        emit ProxyOwnershipTransferred(_owner(), _newOwner);\n        _setOwner(_newOwner);\n    }\n\n}\n",
  "sourcePath": "/Users/jere/Code/polymath-apps/packages/new-polymath-scripts/src/generateLocalBlockchain/contracts/proxy/OwnedProxy.sol",
  "compiler": {
    "name": "solc",
    "version": "0.4.24+commit.e67f0147.Emscripten.clang"
  },
  "schemaVersion": "2.0.1",
  "updatedAt": "2019-02-06T00:34:32.619Z"
}