{
  "contractName": "RestrictedPartialSaleTM",
  "abi": [
    {
      "constant": false,
      "inputs": [],
      "name": "reclaimETH",
      "outputs": [],
      "payable": false,
      "stateMutability": "nonpayable",
      "type": "function"
    },
    {
      "constant": true,
      "inputs": [
        {
          "name": "_partition",
          "type": "bytes32"
        },
        {
          "name": "_tokenHolder",
          "type": "address"
        },
        {
          "name": "",
          "type": "uint256"
        }
      ],
      "name": "getTokensByPartition",
      "outputs": [
        {
          "name": "",
          "type": "uint256"
        }
      ],
      "payable": false,
      "stateMutability": "view",
      "type": "function"
    },
    {
      "constant": true,
      "inputs": [],
      "name": "ADMIN",
      "outputs": [
        {
          "name": "",
          "type": "bytes32"
        }
      ],
      "payable": false,
      "stateMutability": "view",
      "type": "function"
    },
    {
      "constant": false,
      "inputs": [],
      "name": "unpause",
      "outputs": [],
      "payable": false,
      "stateMutability": "nonpayable",
      "type": "function"
    },
    {
      "constant": true,
      "inputs": [],
      "name": "paused",
      "outputs": [
        {
          "name": "",
          "type": "bool"
        }
      ],
      "payable": false,
      "stateMutability": "view",
      "type": "function"
    },
    {
      "constant": true,
      "inputs": [],
      "name": "UNLOCKED",
      "outputs": [
        {
          "name": "",
          "type": "bytes32"
        }
      ],
      "payable": false,
      "stateMutability": "view",
      "type": "function"
    },
    {
      "constant": true,
      "inputs": [],
      "name": "polyToken",
      "outputs": [
        {
          "name": "",
          "type": "address"
        }
      ],
      "payable": false,
      "stateMutability": "view",
      "type": "function"
    },
    {
      "constant": false,
      "inputs": [],
      "name": "pause",
      "outputs": [],
      "payable": false,
      "stateMutability": "nonpayable",
      "type": "function"
    },
    {
      "constant": false,
      "inputs": [
        {
          "name": "_tokenContract",
          "type": "address"
        }
      ],
      "name": "reclaimERC20",
      "outputs": [],
      "payable": false,
      "stateMutability": "nonpayable",
      "type": "function"
    },
    {
      "constant": true,
      "inputs": [],
      "name": "OPERATOR",
      "outputs": [
        {
          "name": "",
          "type": "bytes32"
        }
      ],
      "payable": false,
      "stateMutability": "view",
      "type": "function"
    },
    {
      "constant": true,
      "inputs": [],
      "name": "LOCKED",
      "outputs": [
        {
          "name": "",
          "type": "bytes32"
        }
      ],
      "payable": false,
      "stateMutability": "view",
      "type": "function"
    },
    {
      "constant": true,
      "inputs": [],
      "name": "securityToken",
      "outputs": [
        {
          "name": "",
          "type": "address"
        }
      ],
      "payable": false,
      "stateMutability": "view",
      "type": "function"
    },
    {
      "constant": true,
      "inputs": [],
      "name": "factory",
      "outputs": [
        {
          "name": "",
          "type": "address"
        }
      ],
      "payable": false,
      "stateMutability": "view",
      "type": "function"
    },
    {
      "constant": true,
      "inputs": [],
      "name": "getDataStore",
      "outputs": [
        {
          "name": "",
          "type": "address"
        }
      ],
      "payable": false,
      "stateMutability": "view",
      "type": "function"
    },
    {
      "inputs": [
        {
          "name": "_securityToken",
          "type": "address"
        },
        {
          "name": "_polyAddress",
          "type": "address"
        }
      ],
      "payable": false,
      "stateMutability": "nonpayable",
      "type": "constructor"
    },
    {
      "anonymous": false,
      "inputs": [
        {
          "indexed": true,
          "name": "_wallet",
          "type": "address"
        },
        {
          "indexed": false,
          "name": "_exempted",
          "type": "bool"
        }
      ],
      "name": "ChangedExemptWalletList",
      "type": "event"
    },
    {
      "anonymous": false,
      "inputs": [
        {
          "indexed": true,
          "name": "_wallet",
          "type": "address"
        },
        {
          "indexed": true,
          "name": "_securityToken",
          "type": "address"
        },
        {
          "indexed": false,
          "name": "_module",
          "type": "address"
        }
      ],
      "name": "UsageFeeDeducted",
      "type": "event"
    },
    {
      "anonymous": false,
      "inputs": [
        {
          "indexed": false,
          "name": "account",
          "type": "address"
        }
      ],
      "name": "Pause",
      "type": "event"
    },
    {
      "anonymous": false,
      "inputs": [
        {
          "indexed": false,
          "name": "account",
          "type": "address"
        }
      ],
      "name": "Unpause",
      "type": "event"
    },
    {
      "constant": true,
      "inputs": [],
      "name": "getInitFunction",
      "outputs": [
        {
          "name": "",
          "type": "bytes4"
        }
      ],
      "payable": false,
      "stateMutability": "pure",
      "type": "function"
    },
    {
      "constant": false,
      "inputs": [
        {
          "name": "_treasuryWallet",
          "type": "address"
        }
      ],
      "name": "configure",
      "outputs": [],
      "payable": false,
      "stateMutability": "nonpayable",
      "type": "function"
    },
    {
      "constant": false,
      "inputs": [
        {
          "name": "_from",
          "type": "address"
        },
        {
          "name": "",
          "type": "address"
        },
        {
          "name": "_amount",
          "type": "uint256"
        },
        {
          "name": "",
          "type": "bytes"
        }
      ],
      "name": "executeTransfer",
      "outputs": [
        {
          "name": "",
          "type": "uint8"
        }
      ],
      "payable": false,
      "stateMutability": "nonpayable",
      "type": "function"
    },
    {
      "constant": true,
      "inputs": [
        {
          "name": "_from",
          "type": "address"
        },
        {
          "name": "",
          "type": "address"
        },
        {
          "name": "_amount",
          "type": "uint256"
        },
        {
          "name": "",
          "type": "bytes"
        }
      ],
      "name": "verifyTransfer",
      "outputs": [
        {
          "name": "",
          "type": "uint8"
        },
        {
          "name": "",
          "type": "bytes32"
        }
      ],
      "payable": false,
      "stateMutability": "view",
      "type": "function"
    },
    {
      "constant": false,
      "inputs": [
        {
          "name": "_wallet",
          "type": "address"
        },
        {
          "name": "_exempted",
          "type": "bool"
        }
      ],
      "name": "changeExemptWalletList",
      "outputs": [],
      "payable": false,
      "stateMutability": "nonpayable",
      "type": "function"
    },
    {
      "constant": false,
      "inputs": [
        {
          "name": "_wallet",
          "type": "address[]"
        },
        {
          "name": "_exempted",
          "type": "bool[]"
        }
      ],
      "name": "changeExemptWalletListMulti",
      "outputs": [],
      "payable": false,
      "stateMutability": "nonpayable",
      "type": "function"
    },
    {
      "constant": true,
      "inputs": [],
      "name": "getExemptAddresses",
      "outputs": [
        {
          "name": "",
          "type": "address[]"
        }
      ],
      "payable": false,
      "stateMutability": "view",
      "type": "function"
    },
    {
      "constant": true,
      "inputs": [],
      "name": "getPermissions",
      "outputs": [
        {
          "name": "",
          "type": "bytes32[]"
        }
      ],
      "payable": false,
      "stateMutability": "view",
      "type": "function"
    }
  ],
  "bytecode": "0x608060405260048054600160a01b60ff021916905534801561002057600080fd5b5060405160408061146e8339810180604052604081101561004057600080fd5b508051602090910151600380546001600160a01b039384166001600160a01b03199182161790915560028054821633179055600480549390921692169190911790556113dd806100916000396000f3fe608060405234801561001057600080fd5b50600436106101425760003560e01c80638456cb59116100b8578063b84dfbd21161007c578063b84dfbd2146104a3578063c3a07df6146104ab578063c45a0155146104b3578063f1d74b0f146104bb578063f652614514610574578063fe58265e146105a257610142565b80638456cb591461040d5780638905fd4f14610415578063983d27371461043b578063a1422f6914610443578063a4fcd4c21461044b57610142565b80633f4ba83a1161010a5780633f4ba83a146102745780635c975abb1461027c5780636c2f0d53146102985780636faa22a5146102a057806375cb2672146102c45780637829839f146102ea57610142565b80630f144a48146101475780631613ec9d146101515780632829e651146101765780632a0acc6a146101ba5780633d321731146101c2575b600080fd5b61014f6105aa565b005b6101596105e2565b604080516001600160e01b03199092168252519081900360200190f35b6101a86004803603606081101561018c57600080fd5b508035906001600160a01b0360208201351690604001356105f1565b60408051918252519081900360200190f35b6101a8610697565b610250600480360360808110156101d857600080fd5b6001600160a01b03823581169260208101359091169160408201359190810190608081016060820135600160201b81111561021257600080fd5b82018360208201111561022457600080fd5b803590602001918460018302840111600160201b8311171561024557600080fd5b5090925090506106a6565b6040518082600381111561026057fe5b60ff16815260200191505060405180910390f35b61014f6106bf565b6102846106d1565b604080519115158252519081900360200190f35b6101a86106e1565b6102a86106f3565b604080516001600160a01b039092168252519081900360200190f35b61014f600480360360208110156102da57600080fd5b50356001600160a01b0316610702565b61014f6004803603604081101561030057600080fd5b810190602081018135600160201b81111561031a57600080fd5b82018360208201111561032c57600080fd5b803590602001918460208302840111600160201b8311171561034d57600080fd5b9190808060200260200160405190810160405280939291908181526020018383602002808284376000920191909152509295949360208101935035915050600160201b81111561039c57600080fd5b8201836020820111156103ae57600080fd5b803590602001918460208302840111600160201b831117156103cf57600080fd5b919080806020026020016040519081016040528093929190818152602001838360200280828437600092019190915250929550610836945050505050565b61014f61093e565b61014f6004803603602081101561042b57600080fd5b50356001600160a01b031661094e565b6101a8610afe565b6101a8610b10565b610453610b20565b60408051602080825283518183015283519192839290830191858101910280838360005b8381101561048f578181015183820152602001610477565b505050509050019250505060405180910390f35b6102a8610b82565b610453610b91565b6102a8610be2565b610549600480360360808110156104d157600080fd5b6001600160a01b03823581169260208101359091169160408201359190810190608081016060820135600160201b81111561050b57600080fd5b82018360208201111561051d57600080fd5b803590602001918460018302840111600160201b8311171561053e57600080fd5b509092509050610bf1565b6040518083600381111561055957fe5b60ff1681526020018281526020019250505060405180910390f35b61014f6004803603604081101561058a57600080fd5b506001600160a01b0381351690602001351515610c0c565b6102a8610c7b565b6105b2610cf4565b6040513390303180156108fc02916000818181858888f193505050501580156105df573d6000803e3d6000fd5b50565b600160e11b633ae59339025b90565b6000600160c21b6715539313d0d2d1510284141561068c5760035460408051600160e01b6370a082310281526001600160a01b038681166004830152915191909216916370a08231916024808301926020929190829003018186803b15801561065957600080fd5b505afa15801561066d573d6000803e3d6000fd5b505050506040513d602081101561068357600080fd5b50519050610690565b5060005b9392505050565b600160d91b6420a226a4a70281565b6000806106b38786610dcd565b50979650505050505050565b6106c7610cf4565b6106cf610ebc565b565b600454600160a01b900460ff1681565b600160c21b6715539313d0d2d1510281565b6004546001600160a01b031681565b6002546001600160a01b031633146107645760408051600160e51b62461bcd02815260206004820152601560248201527f53656e646572206973206e6f7420666163746f72790000000000000000000000604482015290519081900360640190fd5b60006001600160a01b0382161561077b5781610816565b610783610c7b565b6001600160a01b03166321f8a7217faae8817359f3dcb67d050f44f3e49f982e0359d90ca4b5f18569926304aaece660001b6040518263ffffffff1660e01b81526004018082815260200191505060206040518083038186803b1580156107e957600080fd5b505afa1580156107fd573d6000803e3d6000fd5b505050506040513d602081101561081357600080fd5b50515b90506001600160a01b0381161561083257610832816001610f52565b5050565b600160c11b6727a822a920aa27a90261084f8133611191565b61089b5760408051600160e51b62461bcd0281526020600482015260126024820152600160711b7124b73b30b634b2103832b936b4b9b9b4b7b702604482015290519081900360640190fd5b81518351146108f45760408051600160e51b62461bcd02815260206004820152600f60248201527f4c656e677468206d69736d617463680000000000000000000000000000000000604482015290519081900360640190fd5b60005b83518110156109385761093084828151811061090f57fe5b602002602001015184838151811061092357fe5b6020026020010151610f52565b6001016108f7565b50505050565b610946610cf4565b6106cf6112c7565b610956610cf4565b6001600160a01b0381166109a95760408051600160e51b62461bcd02815260206004820152600f6024820152600160881b6e496e76616c6964206164647265737302604482015290519081900360640190fd5b60408051600160e01b6370a08231028152306004820152905182916000916001600160a01b038416916370a08231916024808301926020929190829003018186803b1580156109f757600080fd5b505afa158015610a0b573d6000803e3d6000fd5b505050506040513d6020811015610a2157600080fd5b505160408051600160e01b63a9059cbb0281523360048201526024810183905290519192506001600160a01b0384169163a9059cbb916044808201926020929091908290030181600087803b158015610a7957600080fd5b505af1158015610a8d573d6000803e3d6000fd5b505050506040513d6020811015610aa357600080fd5b5051610af95760408051600160e51b62461bcd02815260206004820152600f60248201527f5472616e73666572206661696c65640000000000000000000000000000000000604482015290519081900360640190fd5b505050565b600160c11b6727a822a920aa27a90281565b600160d21b651313d0d2d1510281565b60606000805480602002602001604051908101604052809291908181526020018280548015610b7857602002820191906000526020600020905b81546001600160a01b03168152600190910190602001808311610b5a575b5050505050905090565b6003546001600160a01b031681565b60408051600180825281830190925260609182919060208083019080388339019050509050600160c11b6727a822a920aa27a90281600081518110610bd257fe5b6020908102919091010152905090565b6002546001600160a01b031681565b600080610bfe8786610dcd565b915091509550959350505050565b600160c11b6727a822a920aa27a902610c258133611191565b610c715760408051600160e51b62461bcd0281526020600482015260126024820152600160711b7124b73b30b634b2103832b936b4b9b9b4b7b702604482015290519081900360640190fd5b610af98383610f52565b60035460408051600160e01b63660d0d6702815290516000926001600160a01b03169163660d0d67916004808301926020929190829003018186803b158015610cc357600080fd5b505afa158015610cd7573d6000803e3d6000fd5b505050506040513d6020811015610ced57600080fd5b5051905090565b600360009054906101000a90046001600160a01b03166001600160a01b0316638da5cb5b6040518163ffffffff1660e01b815260040160206040518083038186803b158015610d4257600080fd5b505afa158015610d56573d6000803e3d6000fd5b505050506040513d6020811015610d6c57600080fd5b50516001600160a01b031633146106cf5760408051600160e51b62461bcd02815260206004820152601360248201527f53656e646572206973206e6f74206f776e657200000000000000000000000000604482015290519081900360640190fd5b6004546000908190600160a01b900460ff16158015610df457506001600160a01b03841615155b8015610e1657506001600160a01b038416600090815260016020526040902054155b15610ead5760035460408051600160e01b6370a082310281526001600160a01b0387811660048301529151869392909216916370a0823191602480820192602092909190829003018186803b158015610e6e57600080fd5b505afa158015610e82573d6000803e3d6000fd5b505050506040513d6020811015610e9857600080fd5b505114610ead5750600090503060601b610eb5565b506001905060005b9250929050565b600454600160a01b900460ff16610f0d5760408051600160e51b62461bcd02815260206004820152600a6024820152600160b21b69139bdd081c185d5cd95902604482015290519081900360640190fd5b60048054600160a01b60ff02191690556040805133815290517faeb196d352664784d1900b0e7414a8face7d29f4dae8c4b0cf68ed477423bbf49181900360200190a1565b6001600160a01b038216610fa55760408051600160e51b62461bcd02815260206004820152600f6024820152600160881b6e496e76616c6964206164647265737302604482015290519081900360640190fd5b6001600160a01b0382166000908152600160205260409020548015821515146110185760408051600160e51b62461bcd02815260206004820152601e60248201527f4578656d7074696f6e20737461746520646f65736e2774206368616e67650000604482015290519081900360640190fd5b811561107f5760008054600180820183557f290decd9548b62a8d60345a988386fc84ba6bc95484008f6362f93160ef3e56390910180546001600160a01b0319166001600160a01b038716908117909155825490835260209190915260409091205561114b565b60008054600019810190811061109157fe5b600091825260208220015481546001600160a01b03909116919060001984019081106110b957fe5b9060005260206000200160006101000a8154816001600160a01b0302191690836001600160a01b0316021790555080600160008060018503815481106110fb57fe5b60009182526020808320909101546001600160a01b03908116845283820194909452604092830182209490945591861682526001909252908120819055805490611149906000198301611374565b505b60408051831515815290516001600160a01b038516917f3878c77907250eb8a2d1013139975b1215ae66528e7d7469066f6edf0902a861919081900360200190a2505050565b600080600360009054906101000a90046001600160a01b03166001600160a01b0316638da5cb5b6040518163ffffffff1660e01b815260040160206040518083038186803b1580156111e257600080fd5b505afa1580156111f6573d6000803e3d6000fd5b505050506040513d602081101561120c57600080fd5b50516002546001600160a01b03858116928116831493501614818061122e5750805b806112be575060035460408051600160e01b638658b8b90281526001600160a01b0387811660048301523060248301526044820189905291519190921691638658b8b9916064808301926020929190829003018186803b15801561129157600080fd5b505afa1580156112a5573d6000803e3d6000fd5b505050506040513d60208110156112bb57600080fd5b50515b95945050505050565b600454600160a01b900460ff16156113295760408051600160e51b62461bcd02815260206004820152600e60248201527f416c726561647920706175736564000000000000000000000000000000000000604482015290519081900360640190fd5b60048054600160a01b60ff021916600160a01b1790556040805133815290517f5ee71a369c8672edded508e624ffc9257fa1ae6886ef32905c18e60196bca3999181900360200190a1565b815481835581811115610af957600083815260209020610af99181019083016105ee91905b808211156113ad5760008155600101611399565b509056fea165627a7a72305820565cc54b03c294f38e226ff826ba216f119a0f26c3a738e68e21b27918456d9e0029",
  "source": "pragma solidity ^0.5.0;\n\nimport \"../TransferManager.sol\";\nimport \"./RestrictedPartialSaleTMStorage.sol\";\n\n/**\n * @title This TransferManager is used to validate the transaction where partial balance of an \n * investor is not allowed to trnasfer beside investor is present in the exemption list\n */\ncontract RestrictedPartialSaleTM is RestrictedPartialSaleTMStorage, TransferManager {\n\n    // Emit when the token holder is added/removed from the exemption list\n    event ChangedExemptWalletList(address indexed _wallet, bool _exempted);\n\n    /**\n     * @notice Constructor\n     * @param _securityToken Address of the security token\n     * @param _polyAddress Address of the polytoken\n     */\n    constructor (address _securityToken, address _polyAddress)\n    public\n    Module(_securityToken, _polyAddress)\n    {\n    }\n\n    /**\n    * @notice This function returns the signature of configure function\n    */\n    function getInitFunction() public pure returns (bytes4) {\n        return this.configure.selector;\n    }\n\n    /**\n     * @notice Used to initialize the variables of the contract\n     * @param _treasuryWallet Ethereum address of the treasury wallet\n     */\n    function configure(address _treasuryWallet) external onlyFactory {\n        address treasuryWallet = _treasuryWallet == address(0) ? IDataStore(getDataStore()).getAddress(TREASURY) : _treasuryWallet;\n        if (treasuryWallet != address(0))\n            _changeExemptionWalletList(treasuryWallet, true);\n    }\n\n    /** \n     * @notice Used to verify the transfer transaction and prevent a transfer if it passes the allowed amount of token holders\n     * @param _from Address of the sender\n     * @param _amount Amount to send\n     */\n    function executeTransfer(\n        address _from,\n        address /* _to */,\n        uint256 _amount,\n        bytes calldata /* _data */\n    )\n        external\n        returns (Result)\n    {\n        (Result success,)= _verifyTransfer(_from, _amount);\n        return success;\n    }\n\n    /** \n     * @notice Used to verify the transfer transaction and prevent a transfer if it passes the allowed amount of token holders\n     * @param _from Address of the sender\n     * @param _amount Amount to send\n     */\n    function verifyTransfer(\n        address _from,\n        address /* _to */,\n        uint256 _amount,\n        bytes calldata /* _data */\n    )\n        external\n        view\n        returns(Result, bytes32)\n    {\n        return _verifyTransfer(_from, _amount);\n    }\n\n    function _verifyTransfer(address _from, uint256 _amount) internal view returns (Result, bytes32) {\n        if (!paused && _from != address(0) && exemptIndex[_from] == 0) {\n            if (securityToken.balanceOf(_from) != _amount)\n                return (Result.INVALID, bytes32(uint256(address(this)) << 96));\n        }\n        return (Result.NA, bytes32(0));\n    }\n\n\n    /**\n     * @notice Add/Remove wallet address from the exempt list\n     * @param _wallet Ethereum wallet/contract address that need to be exempted\n     * @param _exempted Boolean value used to add (i.e true) or remove (i.e false) from the list\n     */\n    function changeExemptWalletList(address _wallet, bool _exempted) external withPerm(OPERATOR) {\n        _changeExemptionWalletList(_wallet, _exempted);\n    }\n\n    /**\n     * @notice Add/Remove multiple wallet addresses from the exempt list\n     * @param _wallet Ethereum wallet/contract addresses that need to be exempted\n     * @param _exempted Boolean value used to add (i.e true) or remove (i.e false) from the list\n     */\n    function changeExemptWalletListMulti(address[] memory _wallet, bool[] memory _exempted) public withPerm(OPERATOR) {\n        require(_wallet.length == _exempted.length, \"Length mismatch\");\n        for (uint256 i = 0; i < _wallet.length; i++) {\n            _changeExemptionWalletList(_wallet[i], _exempted[i]);\n        }\n    }\n\n    function _changeExemptionWalletList(address _wallet, bool _exempted) internal {\n        require(_wallet != address(0), \"Invalid address\");\n        uint256 exemptIndexWallet = exemptIndex[_wallet];\n        require((exemptIndexWallet == 0) == _exempted, \"Exemption state doesn't change\");\n        if (_exempted) {\n            exemptAddresses.push(_wallet);\n            exemptIndex[_wallet] = exemptAddresses.length;\n        } else {\n            exemptAddresses[exemptIndexWallet - 1] = exemptAddresses[exemptAddresses.length - 1];\n            exemptIndex[exemptAddresses[exemptIndexWallet - 1]] = exemptIndexWallet;\n            delete exemptIndex[_wallet];\n            exemptAddresses.length --;\n        }\n        emit ChangedExemptWalletList(_wallet, _exempted);\n    }\n\n    /**\n     * @notice return the exempted addresses list\n     */\n    function getExemptAddresses() external view returns(address[] memory) {\n        return exemptAddresses;\n    }\n\n    /**\n     * @notice Return the permissions flag that are associated with Restricted partial transfer manager\n     * @return bytes32 array\n     */\n    function getPermissions() public view returns(bytes32[] memory) {\n        bytes32[] memory allPermissions = new bytes32[](1);\n        allPermissions[0] = OPERATOR;\n        return allPermissions;\n    }\n}\n",
  "sourcePath": "/Users/fahdw/Development/polymath-core/contracts/modules/TransferManager/RPTM/RestrictedPartialSaleTM.sol",
  "compiler": {
    "name": "solc",
    "version": "0.5.8+commit.23d335f2.Emscripten.clang"
  },
  "schemaVersion": "3.0.12",
  "updatedAt": "2019-12-30T15:44:16.153Z",
  "devdoc": {
    "methods": {
      "changeExemptWalletList(address,bool)": {
        "params": {
          "_exempted": "Boolean value used to add (i.e true) or remove (i.e false) from the list",
          "_wallet": "Ethereum wallet/contract address that need to be exempted"
        }
      },
      "changeExemptWalletListMulti(address[],bool[])": {
        "params": {
          "_exempted": "Boolean value used to add (i.e true) or remove (i.e false) from the list",
          "_wallet": "Ethereum wallet/contract addresses that need to be exempted"
        }
      },
      "configure(address)": {
        "params": {
          "_treasuryWallet": "Ethereum address of the treasury wallet"
        }
      },
      "constructor": {
        "params": {
          "_polyAddress": "Address of the polytoken",
          "_securityToken": "Address of the security token"
        }
      },
      "executeTransfer(address,address,uint256,bytes)": {
        "params": {
          "_amount": "Amount to send",
          "_from": "Address of the sender"
        }
      },
      "getPermissions()": {
        "return": "bytes32 array"
      },
      "getTokensByPartition(bytes32,address,uint256)": {
        "details": "returning the balance of token holder against the UNLOCKED partition.  This condition is valid only when the base contract doesn't implement the `getTokensByPartition()` function.  "
      },
      "reclaimERC20(address)": {
        "details": "We duplicate here due to the overriden owner & onlyOwner",
        "params": {
          "_tokenContract": "The address of the token contract"
        }
      },
      "reclaimETH()": {
        "details": "We duplicate here due to the overriden owner & onlyOwner"
      },
      "verifyTransfer(address,address,uint256,bytes)": {
        "params": {
          "_amount": "Amount to send",
          "_from": "Address of the sender"
        }
      }
    },
    "title": "This TransferManager is used to validate the transaction where partial balance of an  investor is not allowed to trnasfer beside investor is present in the exemption list"
  },
  "userdoc": {
    "methods": {
      "changeExemptWalletList(address,bool)": {
        "notice": "Add/Remove wallet address from the exempt list"
      },
      "changeExemptWalletListMulti(address[],bool[])": {
        "notice": "Add/Remove multiple wallet addresses from the exempt list"
      },
      "configure(address)": {
        "notice": "Used to initialize the variables of the contract"
      },
      "constructor": "Constructor",
      "executeTransfer(address,address,uint256,bytes)": {
        "notice": "Used to verify the transfer transaction and prevent a transfer if it passes the allowed amount of token holders"
      },
      "getDataStore()": {
        "notice": "used to return the data store address of securityToken"
      },
      "getExemptAddresses()": {
        "notice": "return the exempted addresses list"
      },
      "getInitFunction()": {
        "notice": "This function returns the signature of configure function"
      },
      "getPermissions()": {
        "notice": "Return the permissions flag that are associated with Restricted partial transfer manager"
      },
      "getTokensByPartition(bytes32,address,uint256)": {
        "notice": "return the amount of tokens for a given user as per the partition"
      },
      "pause()": {
        "notice": "Pause (overridden function)"
      },
      "reclaimERC20(address)": {
        "notice": "Reclaims ERC20Basic compatible tokens"
      },
      "reclaimETH()": {
        "notice": "Reclaims ETH"
      },
      "unpause()": {
        "notice": "Unpause (overridden function)"
      },
      "verifyTransfer(address,address,uint256,bytes)": {
        "notice": "Used to verify the transfer transaction and prevent a transfer if it passes the allowed amount of token holders"
      }
    }
  }
}