{
  "contractName": "ScheduledCheckpoint",
  "abi": [
    {
      "constant": false,
      "inputs": [],
      "name": "unpause",
      "outputs": [],
      "payable": false,
      "stateMutability": "nonpayable",
      "type": "function"
    },
    {
      "constant": true,
      "inputs": [
        {
          "name": "",
          "type": "uint256"
        }
      ],
      "name": "names",
      "outputs": [
        {
          "name": "",
          "type": "bytes32"
        }
      ],
      "payable": false,
      "stateMutability": "view",
      "type": "function"
    },
    {
      "constant": true,
      "inputs": [],
      "name": "paused",
      "outputs": [
        {
          "name": "",
          "type": "bool"
        }
      ],
      "payable": false,
      "stateMutability": "view",
      "type": "function"
    },
    {
      "constant": false,
      "inputs": [
        {
          "name": "_amount",
          "type": "uint256"
        }
      ],
      "name": "takeFee",
      "outputs": [
        {
          "name": "",
          "type": "bool"
        }
      ],
      "payable": false,
      "stateMutability": "nonpayable",
      "type": "function"
    },
    {
      "constant": true,
      "inputs": [],
      "name": "polyToken",
      "outputs": [
        {
          "name": "",
          "type": "address"
        }
      ],
      "payable": false,
      "stateMutability": "view",
      "type": "function"
    },
    {
      "constant": false,
      "inputs": [],
      "name": "pause",
      "outputs": [],
      "payable": false,
      "stateMutability": "nonpayable",
      "type": "function"
    },
    {
      "constant": true,
      "inputs": [],
      "name": "securityToken",
      "outputs": [
        {
          "name": "",
          "type": "address"
        }
      ],
      "payable": false,
      "stateMutability": "view",
      "type": "function"
    },
    {
      "constant": true,
      "inputs": [],
      "name": "factory",
      "outputs": [
        {
          "name": "",
          "type": "address"
        }
      ],
      "payable": false,
      "stateMutability": "view",
      "type": "function"
    },
    {
      "constant": true,
      "inputs": [
        {
          "name": "",
          "type": "bytes32"
        }
      ],
      "name": "schedules",
      "outputs": [
        {
          "name": "name",
          "type": "bytes32"
        },
        {
          "name": "startTime",
          "type": "uint256"
        },
        {
          "name": "nextTime",
          "type": "uint256"
        },
        {
          "name": "interval",
          "type": "uint256"
        },
        {
          "name": "index",
          "type": "uint256"
        }
      ],
      "payable": false,
      "stateMutability": "view",
      "type": "function"
    },
    {
      "constant": true,
      "inputs": [],
      "name": "FEE_ADMIN",
      "outputs": [
        {
          "name": "",
          "type": "bytes32"
        }
      ],
      "payable": false,
      "stateMutability": "view",
      "type": "function"
    },
    {
      "inputs": [
        {
          "name": "_securityToken",
          "type": "address"
        },
        {
          "name": "_polyAddress",
          "type": "address"
        }
      ],
      "payable": false,
      "stateMutability": "nonpayable",
      "type": "constructor"
    },
    {
      "anonymous": false,
      "inputs": [
        {
          "indexed": false,
          "name": "_name",
          "type": "bytes32"
        },
        {
          "indexed": false,
          "name": "_startTime",
          "type": "uint256"
        },
        {
          "indexed": false,
          "name": "_interval",
          "type": "uint256"
        },
        {
          "indexed": false,
          "name": "_timestamp",
          "type": "uint256"
        }
      ],
      "name": "AddSchedule",
      "type": "event"
    },
    {
      "anonymous": false,
      "inputs": [
        {
          "indexed": false,
          "name": "_name",
          "type": "bytes32"
        },
        {
          "indexed": false,
          "name": "_timestamp",
          "type": "uint256"
        }
      ],
      "name": "RemoveSchedule",
      "type": "event"
    },
    {
      "anonymous": false,
      "inputs": [
        {
          "indexed": false,
          "name": "_timestammp",
          "type": "uint256"
        }
      ],
      "name": "Pause",
      "type": "event"
    },
    {
      "anonymous": false,
      "inputs": [
        {
          "indexed": false,
          "name": "_timestamp",
          "type": "uint256"
        }
      ],
      "name": "Unpause",
      "type": "event"
    },
    {
      "constant": true,
      "inputs": [],
      "name": "getInitFunction",
      "outputs": [
        {
          "name": "",
          "type": "bytes4"
        }
      ],
      "payable": false,
      "stateMutability": "pure",
      "type": "function"
    },
    {
      "constant": false,
      "inputs": [
        {
          "name": "_name",
          "type": "bytes32"
        },
        {
          "name": "_startTime",
          "type": "uint256"
        },
        {
          "name": "_interval",
          "type": "uint256"
        }
      ],
      "name": "addSchedule",
      "outputs": [],
      "payable": false,
      "stateMutability": "nonpayable",
      "type": "function"
    },
    {
      "constant": false,
      "inputs": [
        {
          "name": "_name",
          "type": "bytes32"
        }
      ],
      "name": "removeSchedule",
      "outputs": [],
      "payable": false,
      "stateMutability": "nonpayable",
      "type": "function"
    },
    {
      "constant": false,
      "inputs": [
        {
          "name": "",
          "type": "address"
        },
        {
          "name": "",
          "type": "address"
        },
        {
          "name": "",
          "type": "uint256"
        },
        {
          "name": "",
          "type": "bytes"
        },
        {
          "name": "_isTransfer",
          "type": "bool"
        }
      ],
      "name": "verifyTransfer",
      "outputs": [
        {
          "name": "",
          "type": "uint8"
        }
      ],
      "payable": false,
      "stateMutability": "nonpayable",
      "type": "function"
    },
    {
      "constant": true,
      "inputs": [
        {
          "name": "_name",
          "type": "bytes32"
        }
      ],
      "name": "getSchedule",
      "outputs": [
        {
          "name": "",
          "type": "bytes32"
        },
        {
          "name": "",
          "type": "uint256"
        },
        {
          "name": "",
          "type": "uint256"
        },
        {
          "name": "",
          "type": "uint256"
        },
        {
          "name": "",
          "type": "uint256[]"
        },
        {
          "name": "",
          "type": "uint256[]"
        },
        {
          "name": "",
          "type": "uint256[]"
        }
      ],
      "payable": false,
      "stateMutability": "view",
      "type": "function"
    },
    {
      "constant": false,
      "inputs": [
        {
          "name": "_name",
          "type": "bytes32"
        }
      ],
      "name": "update",
      "outputs": [],
      "payable": false,
      "stateMutability": "nonpayable",
      "type": "function"
    },
    {
      "constant": false,
      "inputs": [],
      "name": "updateAll",
      "outputs": [],
      "payable": false,
      "stateMutability": "nonpayable",
      "type": "function"
    },
    {
      "constant": true,
      "inputs": [],
      "name": "getPermissions",
      "outputs": [
        {
          "name": "",
          "type": "bytes32[]"
        }
      ],
      "payable": false,
      "stateMutability": "view",
      "type": "function"
    }
  ],
  "bytecode": "0x60806040526002805460a060020a60ff021916905534801561002057600080fd5b5060405160408061176a83398101604052805160209091015160018054600160a060020a03938416600160a060020a03199182161790915560008054821633179055600280549390921692169190911790556116e9806100816000396000f3006080604052600436106100e25763ffffffff60e060020a6000350416631613ec9d81146100e75780633adc277a146101315780633f4ba83a1461024b5780634622ab031461026257806353d786931461028c5780635c975abb146102a15780635f7619a4146102ca57806362e233cb146102e25780636faa22a5146102fa5780638456cb591461032b5780638b14724514610340578063acbd52c314610358578063b84dfbd214610376578063c3a07df61461038b578063c45a0155146103f0578063d1e16bfa14610405578063d70afa9614610448578063de6ee1bc1461045d575b600080fd5b3480156100f357600080fd5b506100fc6104f4565b604080517fffffffff000000000000000000000000000000000000000000000000000000009092168252519081900360200190f35b34801561013d57600080fd5b506101496004356104fa565b604051808860001916600019168152602001878152602001868152602001858152602001806020018060200180602001848103845287818151815260200191508051906020019060200280838360005b838110156101b1578181015183820152602001610199565b50505050905001848103835286818151815260200191508051906020019060200280838360005b838110156101f05781810151838201526020016101d8565b50505050905001848103825285818151815260200191508051906020019060200280838360005b8381101561022f578181015183820152602001610217565b505050509050019a505050505050505050505060405180910390f35b34801561025757600080fd5b50610260610648565b005b34801561026e57600080fd5b5061027a60043561071e565b60408051918252519081900360200190f35b34801561029857600080fd5b5061026061073d565b3480156102ad57600080fd5b506102b6610811565b604080519115158252519081900360200190f35b3480156102d657600080fd5b506102b6600435610821565b3480156102ee57600080fd5b50610260600435610b65565b34801561030657600080fd5b5061030f610dd7565b60408051600160a060020a039092168252519081900360200190f35b34801561033757600080fd5b50610260610de6565b34801561034c57600080fd5b50610260600435610eba565b34801561036457600080fd5b50610260600435602435604435610f92565b34801561038257600080fd5b5061030f6111c4565b34801561039757600080fd5b506103a06111d3565b60408051602080825283518183015283519192839290830191858101910280838360005b838110156103dc5781810151838201526020016103c4565b505050509050019250505060405180910390f35b3480156103fc57600080fd5b5061030f6111e8565b34801561041157600080fd5b5061041d6004356111f7565b6040805195865260208601949094528484019290925260608401526080830152519081900360a00190f35b34801561045457600080fd5b5061027a611227565b34801561046957600080fd5b50604080516020601f6064356004818101359283018490048402850184019095528184526104d094600160a060020a03813581169560248035909216956044359536956084940191819084018382808284375094975050505091351515925061124b915050565b604051808260038111156104e057fe5b60ff16815260200191505060405180910390f35b60005b90565b600081815260046020908152604080832080546001820154600283015460038401546005850180548751818a0281018a0190985280885289988998899860609889988998919790969195909491936006840193600701929091859183018282801561058457602002820191906000526020600020905b815481526020019060010190808311610570575b50505050509250818054806020026020016040519081016040528092919081815260200182805480156105d657602002820191906000526020600020905b8154815260200190600101908083116105c2575b505050505091508080548060200260200160405190810160405280929190818152602001828054801561062857602002820191906000526020600020905b815481526020019060010190808311610614575b505050505090509650965096509650965096509650919395979092949650565b600160009054906101000a9004600160a060020a0316600160a060020a0316638da5cb5b6040518163ffffffff1660e060020a028152600401602060405180830381600087803b15801561069b57600080fd5b505af11580156106af573d6000803e3d6000fd5b505050506040513d60208110156106c557600080fd5b5051600160a060020a03163314610714576040805160e560020a62461bcd028152602060048201526013602482015260008051602061169e833981519152604482015290519081900360640190fd5b61071c6112e0565b565b600380548290811061072c57fe5b600091825260209091200154905081565b600160009054906101000a9004600160a060020a0316600160a060020a0316638da5cb5b6040518163ffffffff1660e060020a028152600401602060405180830381600087803b15801561079057600080fd5b505af11580156107a4573d6000803e3d6000fd5b505050506040513d60208110156107ba57600080fd5b5051600160a060020a03163314610809576040805160e560020a62461bcd028152602060048201526013602482015260008051602061169e833981519152604482015290519081900360640190fd5b61071c611396565b60025460a060020a900460ff1681565b60007f4645455f41444d494e0000000000000000000000000000000000000000000000600080600160009054906101000a9004600160a060020a0316600160a060020a0316638da5cb5b6040518163ffffffff1660e060020a028152600401602060405180830381600087803b15801561089a57600080fd5b505af11580156108ae573d6000803e3d6000fd5b505050506040513d60208110156108c457600080fd5b505160005433600160a060020a0392831681149450911614905081806108e75750805b8061098d5750600154604080517f8658b8b9000000000000000000000000000000000000000000000000000000008152336004820152306024820152604481018690529051600160a060020a0390921691638658b8b9916064808201926020929091908290030181600087803b15801561096057600080fd5b505af1158015610974573d6000803e3d6000fd5b505050506040513d602081101561098a57600080fd5b50515b15156109e3576040805160e560020a62461bcd02815260206004820152601760248201527f5065726d697373696f6e20636865636b206661696c6564000000000000000000604482015290519081900360640190fd5b60025460015460008054604080517f8da5cb5b0000000000000000000000000000000000000000000000000000000081529051600160a060020a03958616956323b872dd95811694931692638da5cb5b92600480820193602093909283900390910190829087803b158015610a5757600080fd5b505af1158015610a6b573d6000803e3d6000fd5b505050506040513d6020811015610a8157600080fd5b50516040805160e060020a63ffffffff8616028152600160a060020a039384166004820152929091166024830152604482018990525160648083019260209291908290030181600087803b158015610ad857600080fd5b505af1158015610aec573d6000803e3d6000fd5b505050506040513d6020811015610b0257600080fd5b50511515610b5a576040805160e560020a62461bcd02815260206004820152601260248201527f556e61626c6520746f2074616b65206665650000000000000000000000000000604482015290519081900360640190fd5b506001949350505050565b600154604080517f8da5cb5b0000000000000000000000000000000000000000000000000000000081529051600092600160a060020a031691638da5cb5b91600480830192602092919082900301818787803b158015610bc457600080fd5b505af1158015610bd8573d6000803e3d6000fd5b505050506040513d6020811015610bee57600080fd5b5051600160a060020a03163314610c3d576040805160e560020a62461bcd028152602060048201526013602482015260008051602061169e833981519152604482015290519081900360640190fd5b6000828152600460205260409020548214610ca2576040805160e560020a62461bcd02815260206004820152601360248201527f4e616d6520646f6573206e6f7420657869737400000000000000000000000000604482015290519081900360640190fd5b5060008181526004602081905260409091200154600380546000198101908110610cc857fe5b9060005260206000200154600382815481101515610ce257fe5b6000918252602090912001556003805490610d01906000198301611640565b506003548114610d3f578060046000600384815481101515610d1f57fe5b600091825260208083209091015483528201929092526040019020600401555b6000828152600460208190526040822082815560018101839055600281018390556003810183905590810182905590610d7b6005830182611669565b610d89600683016000611669565b610d97600783016000611669565b50506040805183815242602082015281517fb74db51f0202f795d44295c5b108f91665cf1009f0450875232ec5933162648d929181900390910190a15050565b600254600160a060020a031681565b600160009054906101000a9004600160a060020a0316600160a060020a0316638da5cb5b6040518163ffffffff1660e060020a028152600401602060405180830381600087803b158015610e3957600080fd5b505af1158015610e4d573d6000803e3d6000fd5b505050506040513d6020811015610e6357600080fd5b5051600160a060020a03163314610eb2576040805160e560020a62461bcd028152602060048201526013602482015260008051602061169e833981519152604482015290519081900360640190fd5b61071c6113cd565b600160009054906101000a9004600160a060020a0316600160a060020a0316638da5cb5b6040518163ffffffff1660e060020a028152600401602060405180830381600087803b158015610f0d57600080fd5b505af1158015610f21573d6000803e3d6000fd5b505050506040513d6020811015610f3757600080fd5b5051600160a060020a03163314610f86576040805160e560020a62461bcd028152602060048201526013602482015260008051602061169e833981519152604482015290519081900360640190fd5b610f8f81611488565b50565b600160009054906101000a9004600160a060020a0316600160a060020a0316638da5cb5b6040518163ffffffff1660e060020a028152600401602060405180830381600087803b158015610fe557600080fd5b505af1158015610ff9573d6000803e3d6000fd5b505050506040513d602081101561100f57600080fd5b5051600160a060020a0316331461105e576040805160e560020a62461bcd028152602060048201526013602482015260008051602061169e833981519152604482015290519081900360640190fd5b4282116110b5576040805160e560020a62461bcd02815260206004820181905260248201527f53746172742074696d65206d75737420626520696e2074686520667574757265604482015290519081900360640190fd5b60008381526004602052604090205415611119576040805160e560020a62461bcd02815260206004820152601360248201527f4e616d6520616c726561647920696e2075736500000000000000000000000000604482015290519081900360640190fd5b6000838152600460208181526040808420878155600180820188905560028201889055600380830188905580549290950182905581018455929093527fc2575a0e9e593c00f959f8c92f12db2869c3395a3b0502d05e2516446f71f85b909101859055815185815290810184905280820183905242606082015290517fd15153ca0a84fc0a64621a2e335ee082465e74185362a159a69dda12b89306c49181900360800190a1505050565b600154600160a060020a031681565b604080516000815260208101909152805b5090565b600054600160a060020a031681565b60046020819052600091825260409091208054600182015460028301546003840154939094015491939092909185565b7f4645455f41444d494e000000000000000000000000000000000000000000000081565b60008115806112645750600154600160a060020a031633145b15156112a8576040805160e560020a62461bcd028152602060048201526013602482015260008051602061169e833981519152604482015290519081900360640190fd5b60025460a060020a900460ff16806112be575081155b156112cb575060016112d7565b6112d3611396565b5060015b95945050505050565b60025460a060020a900460ff161515611343576040805160e560020a62461bcd02815260206004820152601660248201527f436f6e7472616374206973206e6f742070617573656400000000000000000000604482015290519081900360640190fd5b6002805474ff0000000000000000000000000000000000000000191690556040805142815290517faaa520fdd7d2c83061d632fa017b0432407e798818af63ea908589fceda39ab79181900360200190a1565b60005b600354811015610f8f576113c56003828154811015156113b557fe5b9060005260206000200154611488565b600101611399565b60025460a060020a900460ff161561142f576040805160e560020a62461bcd02815260206004820152601260248201527f436f6e7472616374206973207061757365640000000000000000000000000000604482015290519081900360640190fd5b6002805474ff0000000000000000000000000000000000000000191660a060020a1790556040805142815290517f68b095021b1f40fe513109f513c66692f0b3219aee674a69f4efc57badb8201d9181900360200190a1565b60008181526004602052604081206002810154909190819042106115d857600160009054906101000a9004600160a060020a0316600160a060020a031663ff0b9c906040518163ffffffff1660e060020a028152600401602060405180830381600087803b1580156114f957600080fd5b505af115801561150d573d6000803e3d6000fd5b505050506040513d602081101561152357600080fd5b5051600384015460028501549193506115669160019161155a9161154e90429063ffffffff6115de16565b9063ffffffff6115f516565b9063ffffffff61160a16565b6002840154600685018054600181018255600091825260209091200181905560038501549192506115a29161155a90849063ffffffff61161716565b60028401556005830180546001818101835560009283526020808420909201859055600786018054918201815583529120018190555b50505050565b6000828211156115ea57fe5b508082035b92915050565b6000818381151561160257fe5b049392505050565b818101828110156115ef57fe5b6000821515611628575060006115ef565b5081810281838281151561163857fe5b04146115ef57fe5b81548183558181111561166457600083815260209020611664918101908301611683565b505050565b5080546000825590600052602060002090810190610f8f91905b6104f791905b808211156111e45760008155600101611689560053656e646572206973206e6f74206f776e657200000000000000000000000000a165627a7a7230582022804e6742fbe640485f9ebba2d973b9d2ff79ecba823f35139db8aa767d3ded0029",
  "source": "pragma solidity ^0.4.24;\n\nimport \"./../../Checkpoint/ICheckpoint.sol\";\nimport \"../../TransferManager/ITransferManager.sol\";\nimport \"../../../interfaces/ISecurityToken.sol\";\nimport \"openzeppelin-solidity/contracts/math/SafeMath.sol\";\n\n/**\n * @title Burn module for burning tokens and keeping track of burnt amounts\n */\ncontract ScheduledCheckpoint is ICheckpoint, ITransferManager {\n    using SafeMath for uint256;\n\n    struct Schedule {\n        bytes32 name;\n        uint256 startTime;\n        uint256 nextTime;\n        uint256 interval;\n        uint256 index;\n        uint256[] checkpointIds;\n        uint256[] timestamps;\n        uint256[] periods;\n    }\n\n    bytes32[] public names;\n\n    mapping (bytes32 => Schedule) public schedules;\n\n    event AddSchedule(bytes32 _name, uint256 _startTime, uint256 _interval, uint256 _timestamp);\n    event RemoveSchedule(bytes32 _name, uint256 _timestamp);\n\n    /**\n     * @notice Constructor\n     * @param _securityToken Address of the security token\n     * @param _polyAddress Address of the polytoken\n     */\n    constructor (address _securityToken, address _polyAddress) public\n    Module(_securityToken, _polyAddress)\n    {\n    }\n\n    /**\n     * @notice This function returns the signature of configure function\n     */\n    function getInitFunction() public pure returns (bytes4) {\n        return bytes4(0);\n    }\n\n    /**\n     * @notice adds a new schedule for checkpoints\n     * @param _name name of the new schedule (must be unused)\n     * @param _startTime start time of the schedule (first checkpoint)\n     * @param _interval interval at which checkpoints should be created\n     */\n    function addSchedule(bytes32 _name, uint256 _startTime, uint256 _interval) external onlyOwner {\n        require(_startTime > now, \"Start time must be in the future\");\n        require(schedules[_name].name == bytes32(0), \"Name already in use\");\n        schedules[_name].name = _name;\n        schedules[_name].startTime = _startTime;\n        schedules[_name].nextTime = _startTime;\n        schedules[_name].interval = _interval;\n        schedules[_name].index = names.length;\n        names.push(_name);\n        emit AddSchedule(_name, _startTime, _interval, now);\n    }\n\n    /**\n     * @notice removes a schedule for checkpoints\n     * @param _name name of the schedule to be removed\n     */\n    function removeSchedule(bytes32 _name) external onlyOwner {\n        require(schedules[_name].name == _name, \"Name does not exist\");\n        uint256 index = schedules[_name].index;\n        names[index] = names[names.length - 1];\n        names.length--;\n        if (index != names.length) {\n            schedules[names[index]].index = index;\n        }\n        delete schedules[_name];\n        emit RemoveSchedule(_name, now);\n    }\n\n\n    /**\n     * @notice Used to create checkpoints that correctly reflect balances\n     * @param _isTransfer whether or not an actual transfer is occuring\n     * @return always returns Result.NA\n     */\n    function verifyTransfer(address /* _from */, address /* _to */, uint256 /* _amount */, bytes /* _data */, bool _isTransfer) public returns(Result) {\n        require(_isTransfer == false || msg.sender == securityToken, \"Sender is not owner\");\n        if (paused || !_isTransfer) {\n            return Result.NA;\n        }\n        _updateAll();\n        return Result.NA;\n    }\n\n    /**\n     * @notice gets schedule details\n     * @param _name name of the schedule\n     */\n    function getSchedule(bytes32 _name) view external returns(bytes32, uint256, uint256, uint256, uint256[], uint256[], uint256[]) {\n        return (\n            schedules[_name].name,\n            schedules[_name].startTime,\n            schedules[_name].nextTime,\n            schedules[_name].interval,\n            schedules[_name].checkpointIds,\n            schedules[_name].timestamps,\n            schedules[_name].periods\n        );\n    }\n\n    /**\n     * @notice manually triggers update outside of transfer request for named schedule (can be used to reduce user gas costs)\n     * @param _name name of the schedule\n     */\n    function update(bytes32 _name) external onlyOwner {\n        _update(_name);\n    }\n\n    function _update(bytes32 _name) internal {\n        Schedule storage schedule = schedules[_name];\n        if (schedule.nextTime <= now) {\n            uint256 checkpointId = ISecurityToken(securityToken).createCheckpoint();\n            uint256 periods = now.sub(schedule.nextTime).div(schedule.interval).add(1);\n            schedule.timestamps.push(schedule.nextTime);\n            schedule.nextTime = periods.mul(schedule.interval).add(schedule.nextTime);\n            schedule.checkpointIds.push(checkpointId);\n            schedule.periods.push(periods);\n        }\n    }\n\n    /**\n     * @notice manually triggers update outside of transfer request for all schedules (can be used to reduce user gas costs)\n     */\n    function updateAll() onlyOwner external {\n        _updateAll();\n    }\n\n    function _updateAll() internal {\n        uint256 i;\n        for (i = 0; i < names.length; i++) {\n            _update(names[i]);\n        }\n    }\n\n    /**\n     * @notice Return the permissions flag that are associated with CountTransferManager\n     */\n    function getPermissions() view external returns(bytes32[]) {\n        bytes32[] memory allPermissions = new bytes32[](0);\n        return allPermissions;\n    }\n}\n",
  "sourcePath": "/Users/jere/Code/polymath-apps/packages/new-polymath-scripts/src/generateLocalBlockchain/contracts/modules/Experimental/Mixed/ScheduledCheckpoint.sol",
  "compiler": {
    "name": "solc",
    "version": "0.4.24+commit.e67f0147.Emscripten.clang"
  },
  "schemaVersion": "2.0.1",
  "updatedAt": "2019-02-06T00:34:32.263Z"
}