{
  "contractName": "SecurityTokenRegistryMock",
  "abi": [
    {
      "constant": true,
      "inputs": [],
      "name": "getExpiryLimit",
      "outputs": [
        {
          "name": "",
          "type": "uint256"
        }
      ],
      "payable": false,
      "stateMutability": "view",
      "type": "function"
    },
    {
      "constant": true,
      "inputs": [
        {
          "name": "_variable",
          "type": "bytes32"
        }
      ],
      "name": "getBoolValues",
      "outputs": [
        {
          "name": "",
          "type": "bool"
        }
      ],
      "payable": false,
      "stateMutability": "view",
      "type": "function"
    },
    {
      "constant": false,
      "inputs": [
        {
          "name": "_newExpiry",
          "type": "uint256"
        }
      ],
      "name": "changeExpiryLimit",
      "outputs": [],
      "payable": false,
      "stateMutability": "nonpayable",
      "type": "function"
    },
    {
      "constant": true,
      "inputs": [
        {
          "name": "_owner",
          "type": "address"
        }
      ],
      "name": "getTickersByOwner",
      "outputs": [
        {
          "name": "",
          "type": "bytes32[]"
        }
      ],
      "payable": false,
      "stateMutability": "view",
      "type": "function"
    },
    {
      "constant": true,
      "inputs": [
        {
          "name": "_variable",
          "type": "bytes32"
        }
      ],
      "name": "getUintValues",
      "outputs": [
        {
          "name": "",
          "type": "uint256"
        }
      ],
      "payable": false,
      "stateMutability": "view",
      "type": "function"
    },
    {
      "constant": false,
      "inputs": [
        {
          "name": "_owner",
          "type": "address"
        },
        {
          "name": "_ticker",
          "type": "string"
        },
        {
          "name": "_tokenName",
          "type": "string"
        }
      ],
      "name": "registerTicker",
      "outputs": [],
      "payable": false,
      "stateMutability": "nonpayable",
      "type": "function"
    },
    {
      "constant": true,
      "inputs": [],
      "name": "getProtocolVersion",
      "outputs": [
        {
          "name": "",
          "type": "uint8[]"
        }
      ],
      "payable": false,
      "stateMutability": "view",
      "type": "function"
    },
    {
      "constant": false,
      "inputs": [],
      "name": "unpause",
      "outputs": [],
      "payable": false,
      "stateMutability": "nonpayable",
      "type": "function"
    },
    {
      "constant": true,
      "inputs": [
        {
          "name": "_owner",
          "type": "address"
        }
      ],
      "name": "getTokensByOwner",
      "outputs": [
        {
          "name": "",
          "type": "address[]"
        }
      ],
      "payable": false,
      "stateMutability": "view",
      "type": "function"
    },
    {
      "constant": false,
      "inputs": [
        {
          "name": "_stLaunchFee",
          "type": "uint256"
        }
      ],
      "name": "changeSecurityLaunchFee",
      "outputs": [],
      "payable": false,
      "stateMutability": "nonpayable",
      "type": "function"
    },
    {
      "constant": true,
      "inputs": [
        {
          "name": "_ticker",
          "type": "string"
        }
      ],
      "name": "getTickerDetails",
      "outputs": [
        {
          "name": "",
          "type": "address"
        },
        {
          "name": "",
          "type": "uint256"
        },
        {
          "name": "",
          "type": "uint256"
        },
        {
          "name": "",
          "type": "string"
        },
        {
          "name": "",
          "type": "bool"
        }
      ],
      "payable": false,
      "stateMutability": "view",
      "type": "function"
    },
    {
      "constant": false,
      "inputs": [
        {
          "name": "_name",
          "type": "string"
        },
        {
          "name": "_ticker",
          "type": "string"
        },
        {
          "name": "_owner",
          "type": "address"
        },
        {
          "name": "_securityToken",
          "type": "address"
        },
        {
          "name": "_tokenDetails",
          "type": "string"
        },
        {
          "name": "_deployedAt",
          "type": "uint256"
        }
      ],
      "name": "modifySecurityToken",
      "outputs": [],
      "payable": false,
      "stateMutability": "nonpayable",
      "type": "function"
    },
    {
      "constant": true,
      "inputs": [
        {
          "name": "_variable",
          "type": "bytes32"
        }
      ],
      "name": "getStringValues",
      "outputs": [
        {
          "name": "",
          "type": "string"
        }
      ],
      "payable": false,
      "stateMutability": "view",
      "type": "function"
    },
    {
      "constant": false,
      "inputs": [],
      "name": "pause",
      "outputs": [],
      "payable": false,
      "stateMutability": "nonpayable",
      "type": "function"
    },
    {
      "constant": false,
      "inputs": [
        {
          "name": "_tokenContract",
          "type": "address"
        }
      ],
      "name": "reclaimERC20",
      "outputs": [],
      "payable": false,
      "stateMutability": "nonpayable",
      "type": "function"
    },
    {
      "constant": true,
      "inputs": [],
      "name": "owner",
      "outputs": [
        {
          "name": "",
          "type": "address"
        }
      ],
      "payable": false,
      "stateMutability": "view",
      "type": "function"
    },
    {
      "constant": true,
      "inputs": [
        {
          "name": "_securityToken",
          "type": "address"
        }
      ],
      "name": "getSecurityTokenData",
      "outputs": [
        {
          "name": "",
          "type": "string"
        },
        {
          "name": "",
          "type": "address"
        },
        {
          "name": "",
          "type": "string"
        },
        {
          "name": "",
          "type": "uint256"
        }
      ],
      "payable": false,
      "stateMutability": "view",
      "type": "function"
    },
    {
      "constant": false,
      "inputs": [
        {
          "name": "_owner",
          "type": "address"
        },
        {
          "name": "_ticker",
          "type": "string"
        },
        {
          "name": "_tokenName",
          "type": "string"
        },
        {
          "name": "_registrationDate",
          "type": "uint256"
        },
        {
          "name": "_expiryDate",
          "type": "uint256"
        },
        {
          "name": "_status",
          "type": "bool"
        }
      ],
      "name": "modifyTicker",
      "outputs": [],
      "payable": false,
      "stateMutability": "nonpayable",
      "type": "function"
    },
    {
      "constant": false,
      "inputs": [
        {
          "name": "_tickerRegFee",
          "type": "uint256"
        }
      ],
      "name": "changeTickerRegistrationFee",
      "outputs": [],
      "payable": false,
      "stateMutability": "nonpayable",
      "type": "function"
    },
    {
      "constant": false,
      "inputs": [
        {
          "name": "_ticker",
          "type": "string"
        }
      ],
      "name": "removeTicker",
      "outputs": [],
      "payable": false,
      "stateMutability": "nonpayable",
      "type": "function"
    },
    {
      "constant": true,
      "inputs": [],
      "name": "isPaused",
      "outputs": [
        {
          "name": "",
          "type": "bool"
        }
      ],
      "payable": false,
      "stateMutability": "view",
      "type": "function"
    },
    {
      "constant": true,
      "inputs": [
        {
          "name": "_variable",
          "type": "bytes32"
        }
      ],
      "name": "getBytes32Values",
      "outputs": [
        {
          "name": "",
          "type": "bytes32"
        }
      ],
      "payable": false,
      "stateMutability": "view",
      "type": "function"
    },
    {
      "constant": true,
      "inputs": [
        {
          "name": "_variable",
          "type": "bytes32"
        }
      ],
      "name": "getAddressValues",
      "outputs": [
        {
          "name": "",
          "type": "address"
        }
      ],
      "payable": false,
      "stateMutability": "view",
      "type": "function"
    },
    {
      "constant": false,
      "inputs": [
        {
          "name": "_name",
          "type": "string"
        },
        {
          "name": "_ticker",
          "type": "string"
        },
        {
          "name": "_tokenDetails",
          "type": "string"
        },
        {
          "name": "_divisible",
          "type": "bool"
        }
      ],
      "name": "generateSecurityToken",
      "outputs": [],
      "payable": false,
      "stateMutability": "nonpayable",
      "type": "function"
    },
    {
      "constant": true,
      "inputs": [
        {
          "name": "_variable",
          "type": "bytes32"
        }
      ],
      "name": "getBytesValues",
      "outputs": [
        {
          "name": "",
          "type": "bytes"
        }
      ],
      "payable": false,
      "stateMutability": "view",
      "type": "function"
    },
    {
      "constant": true,
      "inputs": [],
      "name": "getSecurityTokenLaunchFee",
      "outputs": [
        {
          "name": "",
          "type": "uint256"
        }
      ],
      "payable": false,
      "stateMutability": "view",
      "type": "function"
    },
    {
      "constant": false,
      "inputs": [
        {
          "name": "_newOwner",
          "type": "address"
        },
        {
          "name": "_ticker",
          "type": "string"
        }
      ],
      "name": "transferTickerOwnership",
      "outputs": [],
      "payable": false,
      "stateMutability": "nonpayable",
      "type": "function"
    },
    {
      "constant": false,
      "inputs": [
        {
          "name": "_polymathRegistry",
          "type": "address"
        },
        {
          "name": "_STFactory",
          "type": "address"
        },
        {
          "name": "_stLaunchFee",
          "type": "uint256"
        },
        {
          "name": "_tickerRegFee",
          "type": "uint256"
        },
        {
          "name": "_polyToken",
          "type": "address"
        },
        {
          "name": "_owner",
          "type": "address"
        }
      ],
      "name": "initialize",
      "outputs": [],
      "payable": true,
      "stateMutability": "payable",
      "type": "function"
    },
    {
      "constant": true,
      "inputs": [
        {
          "name": "_securityToken",
          "type": "address"
        }
      ],
      "name": "isSecurityToken",
      "outputs": [
        {
          "name": "",
          "type": "bool"
        }
      ],
      "payable": false,
      "stateMutability": "view",
      "type": "function"
    },
    {
      "constant": false,
      "inputs": [
        {
          "name": "_STFactoryAddress",
          "type": "address"
        },
        {
          "name": "_major",
          "type": "uint8"
        },
        {
          "name": "_minor",
          "type": "uint8"
        },
        {
          "name": "_patch",
          "type": "uint8"
        }
      ],
      "name": "setProtocolVersion",
      "outputs": [],
      "payable": false,
      "stateMutability": "nonpayable",
      "type": "function"
    },
    {
      "constant": true,
      "inputs": [],
      "name": "getTickerRegistrationFee",
      "outputs": [
        {
          "name": "",
          "type": "uint256"
        }
      ],
      "payable": false,
      "stateMutability": "view",
      "type": "function"
    },
    {
      "constant": false,
      "inputs": [
        {
          "name": "_newAddress",
          "type": "address"
        }
      ],
      "name": "updatePolyTokenAddress",
      "outputs": [],
      "payable": false,
      "stateMutability": "nonpayable",
      "type": "function"
    },
    {
      "constant": true,
      "inputs": [],
      "name": "getSTFactoryAddress",
      "outputs": [
        {
          "name": "",
          "type": "address"
        }
      ],
      "payable": false,
      "stateMutability": "view",
      "type": "function"
    },
    {
      "constant": false,
      "inputs": [
        {
          "name": "_newOwner",
          "type": "address"
        }
      ],
      "name": "transferOwnership",
      "outputs": [],
      "payable": false,
      "stateMutability": "nonpayable",
      "type": "function"
    },
    {
      "constant": true,
      "inputs": [
        {
          "name": "_ticker",
          "type": "string"
        }
      ],
      "name": "getSecurityTokenAddress",
      "outputs": [
        {
          "name": "",
          "type": "address"
        }
      ],
      "payable": false,
      "stateMutability": "view",
      "type": "function"
    },
    {
      "anonymous": false,
      "inputs": [
        {
          "indexed": false,
          "name": "_timestammp",
          "type": "uint256"
        }
      ],
      "name": "Pause",
      "type": "event"
    },
    {
      "anonymous": false,
      "inputs": [
        {
          "indexed": false,
          "name": "_timestamp",
          "type": "uint256"
        }
      ],
      "name": "Unpause",
      "type": "event"
    },
    {
      "anonymous": false,
      "inputs": [
        {
          "indexed": false,
          "name": "_ticker",
          "type": "string"
        },
        {
          "indexed": false,
          "name": "_removedAt",
          "type": "uint256"
        },
        {
          "indexed": false,
          "name": "_removedBy",
          "type": "address"
        }
      ],
      "name": "TickerRemoved",
      "type": "event"
    },
    {
      "anonymous": false,
      "inputs": [
        {
          "indexed": false,
          "name": "_oldExpiry",
          "type": "uint256"
        },
        {
          "indexed": false,
          "name": "_newExpiry",
          "type": "uint256"
        }
      ],
      "name": "ChangeExpiryLimit",
      "type": "event"
    },
    {
      "anonymous": false,
      "inputs": [
        {
          "indexed": false,
          "name": "_oldFee",
          "type": "uint256"
        },
        {
          "indexed": false,
          "name": "_newFee",
          "type": "uint256"
        }
      ],
      "name": "ChangeSecurityLaunchFee",
      "type": "event"
    },
    {
      "anonymous": false,
      "inputs": [
        {
          "indexed": false,
          "name": "_oldFee",
          "type": "uint256"
        },
        {
          "indexed": false,
          "name": "_newFee",
          "type": "uint256"
        }
      ],
      "name": "ChangeTickerRegistrationFee",
      "type": "event"
    },
    {
      "anonymous": false,
      "inputs": [
        {
          "indexed": true,
          "name": "previousOwner",
          "type": "address"
        },
        {
          "indexed": true,
          "name": "newOwner",
          "type": "address"
        }
      ],
      "name": "OwnershipTransferred",
      "type": "event"
    },
    {
      "anonymous": false,
      "inputs": [
        {
          "indexed": false,
          "name": "_ticker",
          "type": "string"
        },
        {
          "indexed": true,
          "name": "_oldOwner",
          "type": "address"
        },
        {
          "indexed": true,
          "name": "_newOwner",
          "type": "address"
        }
      ],
      "name": "ChangeTickerOwnership",
      "type": "event"
    },
    {
      "anonymous": false,
      "inputs": [
        {
          "indexed": false,
          "name": "_ticker",
          "type": "string"
        },
        {
          "indexed": false,
          "name": "_name",
          "type": "string"
        },
        {
          "indexed": true,
          "name": "_securityTokenAddress",
          "type": "address"
        },
        {
          "indexed": true,
          "name": "_owner",
          "type": "address"
        },
        {
          "indexed": false,
          "name": "_addedAt",
          "type": "uint256"
        },
        {
          "indexed": false,
          "name": "_registrant",
          "type": "address"
        },
        {
          "indexed": false,
          "name": "_fromAdmin",
          "type": "bool"
        },
        {
          "indexed": false,
          "name": "_registrationFee",
          "type": "uint256"
        }
      ],
      "name": "NewSecurityToken",
      "type": "event"
    },
    {
      "anonymous": false,
      "inputs": [
        {
          "indexed": true,
          "name": "_owner",
          "type": "address"
        },
        {
          "indexed": false,
          "name": "_ticker",
          "type": "string"
        },
        {
          "indexed": false,
          "name": "_name",
          "type": "string"
        },
        {
          "indexed": true,
          "name": "_registrationDate",
          "type": "uint256"
        },
        {
          "indexed": true,
          "name": "_expiryDate",
          "type": "uint256"
        },
        {
          "indexed": false,
          "name": "_fromAdmin",
          "type": "bool"
        },
        {
          "indexed": false,
          "name": "_registrationFee",
          "type": "uint256"
        }
      ],
      "name": "RegisterTicker",
      "type": "event"
    },
    {
      "constant": false,
      "inputs": [
        {
          "name": "_ticker",
          "type": "string"
        },
        {
          "name": "_newSecurityTokenAddress",
          "type": "address"
        }
      ],
      "name": "changeTheDeployedAddress",
      "outputs": [],
      "payable": false,
      "stateMutability": "nonpayable",
      "type": "function"
    }
  ],
  "bytecode": "0x608060405234801561001057600080fd5b50615bd480620000216000396000f3006080604052600436106101a85763ffffffff60e060020a6000350416630e8dcb0b81146101ad578063165e694a146102135780631d8acf1b1461023a578063208b080f1461026657806321c8ad0e1461027e57806326839e53146102ef578063321dff171461030757806333ce93fe146103405780633f4ba83a1461035557806340398d671461036a57806342c2e5511461038b57806363808bcb146103a35780636658076c1461046d57806369ba0fe9146104bd5780638456cb591461054a5780638905fd4f1461055f5780638da5cb5b146105805780638f9bbf16146105b157806392042aee14610690578063959346ae146106d4578063972b3ab5146106ec578063b187bd261461070c578063b3447ac914610721578063baed8bb114610739578063c37792b514610751578063c6cb7ab81461078e578063c75948f5146107a6578063d0f6fe42146107bb578063d2d10162146107e8578063d300a96814610816578063d3623f9814610837578063e1ecae9e1461086a578063e6ff950b1461087f578063ea470758146108a0578063f2fde38b146108b5578063fb621f14146108d6575b600080fd5b3480156101b957600080fd5b506040805160206004803580820135601f810184900484028501840190955284845261021194369492936024939284019190819084018382808284375094975050509235600160a060020a031693506108f692505050565b005b34801561021f57600080fd5b50610228610930565b60408051918252519081900360200190f35b34801561024657600080fd5b5061025260043561094f565b604080519115158252519081900360200190f35b34801561027257600080fd5b50610211600435610967565b34801561028a57600080fd5b5061029f600160a060020a0360043516610a81565b60408051602080825283518183015283519192839290830191858101910280838360005b838110156102db5781810151838201526020016102c3565b505050509050019250505060405180910390f35b3480156102fb57600080fd5b50610228600435610bbe565b34801561031357600080fd5b5061021160048035600160a060020a03169060248035808201929081013591604435908101910135610bd0565b34801561034c57600080fd5b5061029f6111e3565b34801561036157600080fd5b5061021161121c565b34801561037657600080fd5b5061029f600160a060020a036004351661131d565b34801561039757600080fd5b5061021160043561167b565b3480156103af57600080fd5b506103c36004803560248101910135611796565b6040518086600160a060020a0316600160a060020a031681526020018581526020018481526020018060200183151515158152602001828103825284818151815260200191508051906020019080838360005b8381101561042e578181015183820152602001610416565b50505050905090810190601f16801561045b5780820380516001836020036101000a031916815260200191505b50965050505050505060405180910390f35b34801561047957600080fd5b506102116024600480358281019290820135918135808301929082013591600160a060020a036044358116926064359091169160843591820191013560a435611926565b3480156104c957600080fd5b506104d5600435611db6565b6040805160208082528351818301528351919283929083019185019080838360005b8381101561050f5781810151838201526020016104f7565b50505050905090810190601f16801561053c5780820380516001836020036101000a031916815260200191505b509250505060405180910390f35b34801561055657600080fd5b50610211611e59565b34801561056b57600080fd5b50610211600160a060020a0360043516611f47565b34801561058c57600080fd5b50610595612170565b60408051600160a060020a039092168252519081900360200190f35b3480156105bd57600080fd5b506105d2600160a060020a0360043516612189565b604051808060200185600160a060020a0316600160a060020a0316815260200180602001848152602001838103835287818151815260200191508051906020019080838360005b83811015610631578181015183820152602001610619565b50505050905090810190601f16801561065e5780820380516001836020036101000a031916815260200191505b50838103825285518152855160209182019187019080838360008381101561042e578181015183820152602001610416565b34801561069c57600080fd5b5061021160048035600160a060020a0316906024803580820192908101359160443590810191013560643560843560a43515156122d0565b3480156106e057600080fd5b50610211600435612532565b3480156106f857600080fd5b50610211600480356024810191013561264d565b34801561071857600080fd5b5061025261286f565b34801561072d57600080fd5b50610228600435612888565b34801561074557600080fd5b5061059560043561289a565b34801561075d57600080fd5b50610211602460048035828101929082013591813580830192908201359160443591820191013560643515156128b5565b34801561079a57600080fd5b506104d560043561354b565b3480156107b257600080fd5b506102286135b5565b3480156107c757600080fd5b5061021160048035600160a060020a031690602480359081019101356135ce565b610211600160a060020a03600435811690602435811690604435906064359060843581169060a43516613c65565b34801561082257600080fd5b50610252600160a060020a0360043516613ed2565b34801561084357600080fd5b50610211600160a060020a036004351660ff60243581169060443581169060643516613f9f565b34801561087657600080fd5b50610228614066565b34801561088b57600080fd5b50610211600160a060020a036004351661407f565b3480156108ac57600080fd5b5061059561413a565b3480156108c157600080fd5b50610211600160a060020a03600435166141ac565b3480156108e257600080fd5b5061059560048035602481019101356142bd565b61092c610926604080519081016040528060158152602001600080516020615b0983398151915281525084614334565b82614449565b5050565b60006109496000805160206159e9833981519152610bbe565b90505b90565b60008181526004602052604090205460ff165b919050565b61096f612170565b600160a060020a031633146109bc576040805160e560020a62461bcd0281526020600482015260146024820152600080516020615a69833981519152604482015290519081900360640190fd5b62015180811015610a17576040805160e560020a62461bcd02815260206004820152601660248201527f4578706972792073686f756c64203e3d20312064617900000000000000000000604482015290519081900360640190fd5b7f7e1cc0e69ee3b84fb62bbb71687d2565bbb8ad1771bb3e3cd15cbed424c833c8610a4f6000805160206159e9833981519152610bbe565b60408051918252602082018490528051918290030190a1610a7e6000805160206159e983398151915282614484565b50565b606060006060806000606060009450610ac5610ac06040805190810160405280600d8152602001600080516020615ac983398151915281525089614496565b614556565b93508351604051908082528060200260200182016040528015610af2578160200160208202803883390190505b509250600091505b8351821015610bb357610b238483815181101515610b1457fe5b906020019060200201516145b8565b905042610b5b610b566040805190810160405280601c8152602001600080516020615b2983398151915281525084614334565b610bbe565b101580610b6c5750610b6c81614716565b15610ba8578382815181101515610b7f57fe5b906020019060200201518386815181101515610b9757fe5b602090810290910101526001909401935b600190910190610afa565b509095945050505050565b60009081526020819052604090205490565b600060606000610bde612170565b600160a060020a031633600160a060020a03161415610ed057600160a060020a0388161515610c57576040805160e560020a62461bcd02815260206004820152601660248201527f4f776e65722073686f756c64206e6f7420626520307800000000000000000000604482015290519081900360640190fd5b600086118015610c685750600a8611155b1515610cac576040805160e560020a62461bcd02815260206004820152601a6024820152600080516020615b49833981519152604482015290519081900360640190fd5b610cb4614066565b92506000831115610db357610cd6600080516020615ae983398151915261289a565b6040805160e060020a6323b872dd028152336004820152306024820152604481018690529051600160a060020a0392909216916323b872dd916064808201926020929091908290030181600087803b158015610d3157600080fd5b505af1158015610d45573d6000803e3d6000fd5b505050506040513d6020811015610d5b57600080fd5b50511515610db3576040805160e560020a62461bcd02815260206004820152601560248201527f496e737566666963656e7420616c6c6f77616e63650000000000000000000000604482015290519081900360640190fd5b610dec87878080601f01602080910402602001604051908101604052809392919081815260200183838082843750614753945050505050565b9150610df78261484d565b1515610e4d576040805160e560020a62461bcd02815260206004820152601260248201527f5469636b65722069732072657365727665640000000000000000000000000000604482015290519081900360640190fd5b610e56826148c8565b9050600160a060020a03811615610e7157610e7181836148fa565b610ecb888387878080601f01602080910402602001604051908101604052809392919081815260200183838082843782019150505050505042610ec2610eb5610930565b429063ffffffff614a3416565b6000808a614a41565b6111d9565b610ed861286f565b15610f1b576040805160e560020a62461bcd02815260206004820152600e6024820152600080516020615b69833981519152604482015290519081900360640190fd5b600160a060020a0388161515610f7b576040805160e560020a62461bcd02815260206004820152601660248201527f4f776e65722073686f756c64206e6f7420626520307800000000000000000000604482015290519081900360640190fd5b600086118015610f8c5750600a8611155b1515610fd0576040805160e560020a62461bcd02815260206004820152601a6024820152600080516020615b49833981519152604482015290519081900360640190fd5b610fd8614066565b925060008311156110d757610ffa600080516020615ae983398151915261289a565b6040805160e060020a6323b872dd028152336004820152306024820152604481018690529051600160a060020a0392909216916323b872dd916064808201926020929091908290030181600087803b15801561105557600080fd5b505af1158015611069573d6000803e3d6000fd5b505050506040513d602081101561107f57600080fd5b505115156110d7576040805160e560020a62461bcd02815260206004820152601560248201527f496e737566666963656e7420616c6c6f77616e63650000000000000000000000604482015290519081900360640190fd5b61111087878080601f01602080910402602001604051908101604052809392919081815260200183838082843750614753945050505050565b915061111b8261484d565b1515611171576040805160e560020a62461bcd02815260206004820152601260248201527f5469636b65722069732072657365727665640000000000000000000000000000604482015290519081900360640190fd5b61117a826148c8565b9050600160a060020a038116156111955761119581836148fa565b6111d9888387878080601f01602080910402602001604051908101604052809392919081815260200183838082843782019150505050505042610ec2610eb5610930565b5050505050505050565b6060610949611217610b566040805190810160405280600d81526020016000805160206159c9833981519152815250614b83565b614c4d565b61122461286f565b151561127a576040805160e560020a62461bcd02815260206004820152601460248201527f53686f756c64206e6f7420626520706175736564000000000000000000000000604482015290519081900360640190fd5b611282612170565b600160a060020a031633146112cf576040805160e560020a62461bcd0281526020600482015260146024820152600080516020615a69833981519152604482015290519081900360640190fd5b6112e86000805160206159898339815191526000614cf2565b6040805142815290517faaa520fdd7d2c83061d632fa017b0432407e798818af63ea908589fceda39ab79181900360200190a1565b60608060606000806000806000606061137261136d6040805190810160405280600b81526020017f6163746976655573657273000000000000000000000000000000000000000000815250614b83565b614d12565b9750600094508493508392505b87518410156114d5576113cf610ac06040805190810160405280600d8152602001600080516020615ac98339815191528152508a878151811015156113c057fe5b90602001906020020151614496565b9650600092505b86518310156114ca5761142461141f604080519081016040528060158152602001600080516020615b0983398151915281525061141a8a87815181101515610b1457fe5b614334565b61289a565b9550600160a060020a038616156114bf5789600160a060020a031686600160a060020a0316638da5cb5b6040518163ffffffff1660e060020a028152600401602060405180830381600087803b15801561147d57600080fd5b505af1158015611491573d6000803e3d6000fd5b505050506040513d60208110156114a757600080fd5b5051600160a060020a031614156114bf578460010194505b6001909201916113d6565b60019093019261137f565b6000915084604051908082528060200260200182016040528015611503578160200160208202803883390190505b509050600093505b875184101561166e5761154c610ac06040805190810160405280600d8152602001600080516020615ac98339815191528152508a878151811015156113c057fe5b9650600092505b86518310156116635761159761141f604080519081016040528060158152602001600080516020615b0983398151915281525061141a8a87815181101515610b1457fe5b9550600160a060020a038616156116585789600160a060020a031686600160a060020a0316638da5cb5b6040518163ffffffff1660e060020a028152600401602060405180830381600087803b1580156115f057600080fd5b505af1158015611604573d6000803e3d6000fd5b505050506040513d602081101561161a57600080fd5b5051600160a060020a031614156116585785818381518110151561163a57fe5b600160a060020a039092166020928302909101909101526001909101905b600190920191611553565b60019093019261150b565b9998505050505050505050565b6000611685612170565b600160a060020a031633146116d2576040805160e560020a62461bcd0281526020600482015260146024820152600080516020615a69833981519152604482015290519081900360640190fd5b6116e9600080516020615a09833981519152610bbe565b905081811415611743576040805160e560020a62461bcd02815260206004820152600f60248201527f466565206e6f74206368616e6765640000000000000000000000000000000000604482015290519081900360640190fd5b604080518281526020810184905281517f082ce758ae1784abd031015a0eac6700b941db0797e890ae7c4d326a5f8255c0929181900390910190a161092c600080516020615a0983398151915283614484565b60008060006060600060606000806117dd8a8a8080601f01602080910402602001604051908101604052809392919081815260200183838082843750614753945050505050565b92506117e883614716565b915061181a610b566040805190810160405280601c8152602001600080516020615b2983398151915281525085614334565b90506001821515148061182c57504281115b156118fb5761183a836148c8565b6118a3610b56606060405190810160405280602281526020017f726567697374657265645469636b6572735f726567697374726174696f6e446181526020017f746500000000000000000000000000000000000000000000000000000000000081525086614334565b826118eb6118e66040805190810160405280601b81526020017f726567697374657265645469636b6572735f746f6b656e4e616d65000000000081525088614334565b611db6565b8597509750975097509750611919565b60408051602081019091526000808252985088975087965094508593505b5050509295509295909350565b6060600080611933612170565b600160a060020a03163314611980576040805160e560020a62461bcd0281526020600482015260146024820152600080516020615a69833981519152604482015290519081900360640190fd5b60008b1180156119905750600089115b15156119e6576040805160e560020a62461bcd02815260206004820152601160248201527f537472696e67206c656e677468203e2030000000000000000000000000000000604482015290519081900360640190fd5b600a891115611a2d576040805160e560020a62461bcd02815260206004820152601a6024820152600080516020615b49833981519152604482015290519081900360640190fd5b8315801590611a445750600160a060020a03881615155b1515611a9a576040805160e560020a62461bcd02815260206004820152601a60248201527f302076616c756520706172616d73206e6f7420616c6c6f776564000000000000604482015290519081900360640190fd5b611ad38a8a8080601f01602080910402602001604051908101604052809392919081815260200183838082843750614753945050505050565b9250600160a060020a0387161515611b35576040805160e560020a62461bcd02815260206004820152601060248201527f5354206164647265737320697320307800000000000000000000000000000000604482015290519081900360640190fd5b611b9e610b56606060405190810160405280602281526020017f726567697374657265645469636b6572735f726567697374726174696f6e446181526020017f746500000000000000000000000000000000000000000000000000000000000081525085614334565b9150611bd0610b566040805190810160405280601c8152602001600080516020615b2983398151915281525085614334565b9050811515611bf757429150611bf4611be7610930565b839063ffffffff614a3416565b90505b611c2d611c27604080519081016040528060158152602001600080516020615b0983398151915281525085614334565b88614449565b611c6e88848e8e8080601f01602080910402602001604051908101604052809392919081815260200183838082843782019150505050505085856001614d7d565b611cab878488888080601f016020809104026020016040519081016040528093929190818152602001838380828437508c9450614ea69350505050565b87600160a060020a031687600160a060020a03167f63d9fb58b25a396dc2ebc591bec9115d1eb9c722dd6cdfcc9be4144d39dc2c26858f8f89336001611cef6135b5565b60408051908101859052600160a060020a0384166060820152821515608082015260a0810182905260c08082528851908201528751819060208083019160e08401918c019080838360005b83811015611d52578181015183820152602001611d3a565b50505050905090810190601f168015611d7f5780820380516001836020036101000a031916815260200191505b50838103825288815260200189898082843760405192018290039b50909950505050505050505050a3505050505050505050505050565b60008181526001602081815260409283902080548451600260001995831615610100029590950190911693909304601f81018390048302840183019094528383526060939091830182828015611e4d5780601f10611e2257610100808354040283529160200191611e4d565b820191906000526020600020905b815481529060010190602001808311611e3057829003601f168201915b50505050509050919050565b611e6161286f565b15611ea4576040805160e560020a62461bcd02815260206004820152600e6024820152600080516020615b69833981519152604482015290519081900360640190fd5b611eac612170565b600160a060020a03163314611ef9576040805160e560020a62461bcd0281526020600482015260146024820152600080516020615a69833981519152604482015290519081900360640190fd5b611f126000805160206159898339815191526001614cf2565b6040805142815290517f68b095021b1f40fe513109f513c66692f0b3219aee674a69f4efc57badb8201d9181900360200190a1565b600080611f52612170565b600160a060020a03163314611f9f576040805160e560020a62461bcd0281526020600482015260146024820152600080516020615a69833981519152604482015290519081900360640190fd5b600160a060020a0383161515611fed576040805160e560020a62461bcd02815260206004820152600f6024820152600080516020615a29833981519152604482015290519081900360640190fd5b604080517f70a082310000000000000000000000000000000000000000000000000000000081523060048201529051849350600160a060020a038416916370a082319160248083019260209291908290030181600087803b15801561205157600080fd5b505af1158015612065573d6000803e3d6000fd5b505050506040513d602081101561207b57600080fd5b50519050600160a060020a03821663a9059cbb612096612170565b836040518363ffffffff1660e060020a0281526004018083600160a060020a0316600160a060020a0316815260200182815260200192505050602060405180830381600087803b1580156120e957600080fd5b505af11580156120fd573d6000803e3d6000fd5b505050506040513d602081101561211357600080fd5b5051151561216b576040805160e560020a62461bcd02815260206004820152600f60248201527f5472616e73666572206661696c65640000000000000000000000000000000000604482015290519081900360640190fd5b505050565b6000610949600080516020615aa983398151915261289a565b60606000606060006121d36118e66040805190810160405280601581526020017f7365637572697479546f6b656e735f7469636b6572000000000000000000000081525087614496565b85600160a060020a0316638da5cb5b6040518163ffffffff1660e060020a028152600401602060405180830381600087803b15801561221157600080fd5b505af1158015612225573d6000803e3d6000fd5b505050506040513d602081101561223b57600080fd5b505160408051808201909152601b81527f7365637572697479546f6b656e735f746f6b656e44657461696c730000000000602082015261227f906118e69089614496565b6122c1610b566040805190810160405280601981526020017f7365637572697479546f6b656e735f6465706c6f7965644174000000000000008152508a614496565b93509350935093509193509193565b60606122da612170565b600160a060020a03163314612327576040805160e560020a62461bcd0281526020600482015260146024820152600080516020615a69833981519152604482015290519081900360640190fd5b6000871180156123385750600a8711155b151561237c576040805160e560020a62461bcd02815260206004820152601a6024820152600080516020615b49833981519152604482015290519081900360640190fd5b821580159061238a57508315155b15156123e0576040805160e560020a62461bcd02815260206004820152601560248201527f44617465732073686f756c64206e6f7420626520300000000000000000000000604482015290519081900360640190fd5b8284111561245e576040805160e560020a62461bcd02815260206004820152602660248201527f526567697374726174696f6e20646174652073686f756c64203c20657870697260448201527f7920646174650000000000000000000000000000000000000000000000000000606482015290519081900360840190fd5b600160a060020a03891615156124ac576040805160e560020a62461bcd02815260206004820152600f6024820152600080516020615a29833981519152604482015290519081900360640190fd5b6124e588888080601f01602080910402602001604051908101604052809392919081815260200183838082843750614753945050505050565b9050612527898288888080601f016020809104026020016040519081016040528093929190818152602001838380828437820191505050505050878787614d7d565b505050505050505050565b600061253c612170565b600160a060020a03163314612589576040805160e560020a62461bcd0281526020600482015260146024820152600080516020615a69833981519152604482015290519081900360640190fd5b6125a06000805160206159a9833981519152610bbe565b9050818114156125fa576040805160e560020a62461bcd02815260206004820152600f60248201527f466565206e6f74206368616e6765640000000000000000000000000000000000604482015290519081900360640190fd5b604080518281526020810184905281517f788dceb058391de5648d0deb9187656f8c46d3ee285c1077579adf642793f1f6929181900390910190a161092c6000805160206159a983398151915283614484565b60606000612659612170565b600160a060020a031633146126a6576040805160e560020a62461bcd0281526020600482015260146024820152600080516020615a69833981519152604482015290519081900360640190fd5b6126df84848080601f01602080910402602001604051908101604052809392919081815260200183838082843750614753945050505050565b91506126ea826148c8565b9050600160a060020a038116151561274c576040805160e560020a62461bcd02815260206004820152601460248201527f5469636b657220646f65736e2774206578697374000000000000000000000000604482015290519081900360640190fd5b61275681836148fa565b61278d612786604080519081016040528060158152602001600080516020615b0983398151915281525084614334565b6000614449565b6127ae82600080600060206040519081016040528060008152506000614f7e565b7f5854c55b609f5180d42245ffca3efcee6c5db8e73ea96e693d8667e0bcb4d470824233604051808060200184815260200183600160a060020a0316600160a060020a03168152602001828103825285818151815260200191508051906020019080838360005b8381101561282d578181015183820152602001612815565b50505050905090810190601f16801561285a5780820380516001836020036101000a031916815260200191505b5094505050505060405180910390a150505050565b600061094960008051602061598983398151915261094f565b60009081526006602052604090205490565b600090815260026020526040902054600160a060020a031690565b606060008060006128c4612170565b600160a060020a031633600160a060020a03161415612eea5760008a1180156128ed5750600088115b1515612943576040805160e560020a62461bcd02815260206004820152601160248201527f5469636b6572206c656e677468203e2030000000000000000000000000000000604482015290519081900360640190fd5b61297c89898080601f01602080910402602001604051908101604052809392919081815260200183838082843750614753945050505050565b93506129ab604080519081016040528060188152602001600080516020615a8983398151915281525085614334565b92506129b68361094f565b15612a0b576040805160e560020a62461bcd02815260206004820152601060248201527f416c7265616479206465706c6f79656400000000000000000000000000000000604482015290519081900360640190fd5b612a16836001614cf2565b33612a20856148c8565b600160a060020a031614612a6c576040805160e560020a62461bcd02815260206004820152600e6024820152600080516020615b89833981519152604482015290519081900360640190fd5b42612a9d610b566040805190810160405280601c8152602001600080516020615b2983398151915281525087614334565b1015612af3576040805160e560020a62461bcd02815260206004820152601360248201527f5469636b65722067657473206578706972656400000000000000000000000000604482015290519081900360640190fd5b612afb6135b5565b91506000821115612bfa57612b1d600080516020615ae983398151915261289a565b6040805160e060020a6323b872dd028152336004820152306024820152604481018590529051600160a060020a0392909216916323b872dd916064808201926020929091908290030181600087803b158015612b7857600080fd5b505af1158015612b8c573d6000803e3d6000fd5b505050506040513d6020811015612ba257600080fd5b50511515612bfa576040805160e560020a62461bcd02815260206004820152601660248201527f496e73756666696369656e7420616c6c6f77616e636500000000000000000000604482015290519081900360640190fd5b612c0261413a565b600160a060020a031663c85fd4f88c8c8760128c8c338d612c427f90eeab7c36075577c7cc5ff366e389fefa8a18289b949bab3529ab4471139d4d61289a565b60405160e060020a63ffffffff8c1602815260ff87166044820152600160a060020a03808516608483015283151560a4830152821660c482015260e06004820190815260e482018a905290819060248101906064810190610104018d8d8082843790910185810384528c5181528c5160209182019250908d019080838360005b83811015612cda578181015183820152602001612cc2565b50505050905090810190601f168015612d075780820380516001836020036101000a031916815260200191505b50848103825288815260200189898082843782019150509c50505050505050505050505050602060405180830381600087803b158015612d4657600080fd5b505af1158015612d5a573d6000803e3d6000fd5b505050506040513d6020811015612d7057600080fd5b5051604080516020601f8a01819004810282018101909252888152919250612db39183918791908b908b908190840183828082843750429450614ea69350505050565b612de3610926604080519081016040528060158152602001600080516020615b0983398151915281525086614334565b33600160a060020a031681600160a060020a03167f63d9fb58b25a396dc2ebc591bec9115d1eb9c722dd6cdfcc9be4144d39dc2c26868e8e423360008a60405180806020018060200187815260200186600160a060020a0316600160a060020a031681526020018515151515815260200184815260200183810383528a818151815260200191508051906020019080838360005b83811015612e8f578181015183820152602001612e77565b50505050905090810190601f168015612ebc5780820380516001836020036101000a031916815260200191505b50838103825288815260200189898082843760405192018290039b50909950505050505050505050a361353e565b612ef261286f565b15612f35576040805160e560020a62461bcd02815260206004820152600e6024820152600080516020615b69833981519152604482015290519081900360640190fd5b60008a118015612f455750600088115b1515612f9b576040805160e560020a62461bcd02815260206004820152601160248201527f5469636b6572206c656e677468203e2030000000000000000000000000000000604482015290519081900360640190fd5b612fd489898080601f01602080910402602001604051908101604052809392919081815260200183838082843750614753945050505050565b9350613003604080519081016040528060188152602001600080516020615a8983398151915281525085614334565b925061300e8361094f565b15613063576040805160e560020a62461bcd02815260206004820152601060248201527f416c7265616479206465706c6f79656400000000000000000000000000000000604482015290519081900360640190fd5b61306e836001614cf2565b33613078856148c8565b600160a060020a0316146130c4576040805160e560020a62461bcd02815260206004820152600e6024820152600080516020615b89833981519152604482015290519081900360640190fd5b426130f5610b566040805190810160405280601c8152602001600080516020615b2983398151915281525087614334565b101561314b576040805160e560020a62461bcd02815260206004820152601360248201527f5469636b65722067657473206578706972656400000000000000000000000000604482015290519081900360640190fd5b6131536135b5565b9150600082111561325257613175600080516020615ae983398151915261289a565b6040805160e060020a6323b872dd028152336004820152306024820152604481018590529051600160a060020a0392909216916323b872dd916064808201926020929091908290030181600087803b1580156131d057600080fd5b505af11580156131e4573d6000803e3d6000fd5b505050506040513d60208110156131fa57600080fd5b50511515613252576040805160e560020a62461bcd02815260206004820152601660248201527f496e73756666696369656e7420616c6c6f77616e636500000000000000000000604482015290519081900360640190fd5b61325a61413a565b600160a060020a031663c85fd4f88c8c8760128c8c338d61329a7f90eeab7c36075577c7cc5ff366e389fefa8a18289b949bab3529ab4471139d4d61289a565b60405160e060020a63ffffffff8c1602815260ff87166044820152600160a060020a03808516608483015283151560a4830152821660c482015260e06004820190815260e482018a905290819060248101906064810190610104018d8d8082843790910185810384528c5181528c5160209182019250908d019080838360005b8381101561333257818101518382015260200161331a565b50505050905090810190601f16801561335f5780820380516001836020036101000a031916815260200191505b50848103825288815260200189898082843782019150509c50505050505050505050505050602060405180830381600087803b15801561339e57600080fd5b505af11580156133b2573d6000803e3d6000fd5b505050506040513d60208110156133c857600080fd5b5051604080516020601f8a0181900481028201810190925288815291925061340b9183918791908b908b908190840183828082843750429450614ea69350505050565b61343b610926604080519081016040528060158152602001600080516020615b0983398151915281525086614334565b33600160a060020a031681600160a060020a03167f63d9fb58b25a396dc2ebc591bec9115d1eb9c722dd6cdfcc9be4144d39dc2c26868e8e423360008a60405180806020018060200187815260200186600160a060020a0316600160a060020a031681526020018515151515815260200184815260200183810383528a818151815260200191508051906020019080838360005b838110156134e75781810151838201526020016134cf565b50505050905090810190601f1680156135145780820380516001836020036101000a031916815260200191505b50838103825288815260200189898082843760405192018290039b50909950505050505050505050a35b5050505050505050505050565b60008181526003602090815260409182902080548351601f6002610100600185161502600019019093169290920491820184900484028101840190945280845260609392830182828015611e4d5780601f10611e2257610100808354040283529160200191611e4d565b6000610949600080516020615a09833981519152610bbe565b606060006135da612170565b600160a060020a031633600160a060020a031614156139055761362c84848080601f01602080910402602001604051908101604052809392919081815260200183838082843750614753945050505050565b9150600160a060020a038516151561367c576040805160e560020a62461bcd02815260206004820152600f6024820152600080516020615a29833981519152604482015290519081900360640190fd5b6136a9604080519081016040528060178152602001600080516020615a4983398151915281525083614334565b9050336136b58261289a565b600160a060020a031614613701576040805160e560020a62461bcd02815260206004820152600e6024820152600080516020615b89833981519152604482015290519081900360640190fd5b61370a82614716565b156138355784600160a060020a031661374961141f604080519081016040528060158152602001600080516020615b0983398151915281525085614334565b600160a060020a0316638da5cb5b6040518163ffffffff1660e060020a028152600401602060405180830381600087803b15801561378657600080fd5b505af115801561379a573d6000803e3d6000fd5b505050506040513d60208110156137b057600080fd5b5051600160a060020a031614613835576040805160e560020a62461bcd028152602060048201526024808201527f4e6577206f776e657220646f6573206e6f74206d6174636820746f6b656e206f60448201527f776e657200000000000000000000000000000000000000000000000000000000606482015290519081900360840190fd5b61383f33836148fa565b6138498583615159565b6138538186614449565b84600160a060020a031633600160a060020a03167f44ee9de70a04c2a46889521de8968f79b4ae423f078fbaec8c492d821154729c846040518080602001828103825283818151815260200191508051906020019080838360005b838110156138c65781810151838201526020016138ae565b50505050905090810190601f1680156138f35780820380516001836020036101000a031916815260200191505b509250505060405180910390a3613c5e565b61390d61286f565b15613950576040805160e560020a62461bcd02815260206004820152600e6024820152600080516020615b69833981519152604482015290519081900360640190fd5b61398984848080601f01602080910402602001604051908101604052809392919081815260200183838082843750614753945050505050565b9150600160a060020a03851615156139d9576040805160e560020a62461bcd02815260206004820152600f6024820152600080516020615a29833981519152604482015290519081900360640190fd5b613a06604080519081016040528060178152602001600080516020615a4983398151915281525083614334565b905033613a128261289a565b600160a060020a031614613a5e576040805160e560020a62461bcd02815260206004820152600e6024820152600080516020615b89833981519152604482015290519081900360640190fd5b613a6782614716565b15613b925784600160a060020a0316613aa661141f604080519081016040528060158152602001600080516020615b0983398151915281525085614334565b600160a060020a0316638da5cb5b6040518163ffffffff1660e060020a028152600401602060405180830381600087803b158015613ae357600080fd5b505af1158015613af7573d6000803e3d6000fd5b505050506040513d6020811015613b0d57600080fd5b5051600160a060020a031614613b92576040805160e560020a62461bcd028152602060048201526024808201527f4e6577206f776e657220646f6573206e6f74206d6174636820746f6b656e206f60448201527f776e657200000000000000000000000000000000000000000000000000000000606482015290519081900360840190fd5b613b9c33836148fa565b613ba68583615159565b613bb08186614449565b84600160a060020a031633600160a060020a03167f44ee9de70a04c2a46889521de8968f79b4ae423f078fbaec8c492d821154729c846040518080602001828103825283818151815260200191508051906020019080838360005b83811015613c23578181015183820152602001613c0b565b50505050905090810190601f168015613c505780820380516001836020036101000a031916815260200191505b509250505060405180910390a35b5050505050565b613c8e7f9ef7257c3339b099aacf96e55122ee78fb65a36bd2a6c19249882be9c98633bf61094f565b15613ce3576040805160e560020a62461bcd02815260206004820152601360248201527f616c726561647920696e697469616c697a656400000000000000000000000000604482015290519081900360640190fd5b600160a060020a03851615801590613d035750600160a060020a03821615155b8015613d175750600160a060020a03811615155b8015613d2b5750600160a060020a03861615155b1515613d6f576040805160e560020a62461bcd02815260206004820152600f6024820152600080516020615a29833981519152604482015290519081900360640190fd5b8315801590613d7d57508215155b1515613dd3576040805160e560020a62461bcd02815260206004820152601460248201527f466565732073686f756c64206e6f742062652030000000000000000000000000604482015290519081900360640190fd5b613deb600080516020615ae983398151915283614449565b613e03600080516020615a0983398151915285614484565b613e1b6000805160206159a983398151915284614484565b613e366000805160206159e9833981519152624f1a00614484565b613e4f6000805160206159898339815191526000614cf2565b613e67600080516020615aa983398151915282614449565b613e917f90eeab7c36075577c7cc5ff366e389fefa8a18289b949bab3529ab4471139d4d87614449565b613e9f856002600080615295565b613eca7f9ef7257c3339b099aacf96e55122ee78fb65a36bd2a6c19249882be9c98633bf6001614cf2565b505050505050565b60408051808201909152601581527f7365637572697479546f6b656e735f7469636b6572000000000000000000000060208201526000907fc5d2460186f7233c927e7db2dcc703c0e500b653ca82273b7bfad8045d85a47090613f39906118e69085614496565b6040518082805190602001908083835b60208310613f685780518252601f199092019160209182019101613f49565b5181516020939093036101000a60001901801990911692169190911790526040519201829003909120939093141595945050505050565b613fa7612170565b600160a060020a03163314613ff4576040805160e560020a62461bcd0281526020600482015260146024820152600080516020615a69833981519152604482015290519081900360640190fd5b600160a060020a0384161515614054576040805160e560020a62461bcd02815260206004820152601960248201527f30782061646472657373206973206e6f7420616c6c6f77656400000000000000604482015290519081900360640190fd5b61406084848484615295565b50505050565b60006109496000805160206159a9833981519152610bbe565b614087612170565b600160a060020a031633146140d4576040805160e560020a62461bcd0281526020600482015260146024820152600080516020615a69833981519152604482015290519081900360640190fd5b600160a060020a0381161515614122576040805160e560020a62461bcd02815260206004820152600f6024820152600080516020615a29833981519152604482015290519081900360640190fd5b610a7e600080516020615ae983398151915282614449565b600061094961141f6040805190810160405280601181526020017f70726f746f636f6c56657273696f6e53540000000000000000000000000000008152506141a7610b566040805190810160405280600d81526020016000805160206159c9833981519152815250614b83565b61543f565b6141b4612170565b600160a060020a03163314614201576040805160e560020a62461bcd0281526020600482015260146024820152600080516020615a69833981519152604482015290519081900360640190fd5b600160a060020a038116151561424f576040805160e560020a62461bcd02815260206004820152600f6024820152600080516020615a29833981519152604482015290519081900360640190fd5b600160a060020a038116614270600080516020615aa983398151915261289a565b600160a060020a03167f8be0079c531659141344cd1fd0a4f28419497f9722a3daafe3b4186f6b6457e060405160405180910390a3610a7e600080516020615aa983398151915282614449565b600060606142fa84848080601f01602080910402602001604051908101604052809392919081815260200183838082843750614753945050505050565b905061432c61141f604080519081016040528060158152602001600080516020615b0983398151915281525083614334565b949350505050565b600082826040516020018083805190602001908083835b6020831061436a5780518252601f19909201916020918201910161434b565b51815160209384036101000a600019018019909216911617905285519190930192850191508083835b602083106143b25780518252601f199092019160209182019101614393565b6001836020036101000a038019825116818451168082178552505050505050905001925050506040516020818303038152906040526040518082805190602001908083835b602083106144165780518252601f1990920191602091820191016143f7565b5181516020939093036101000a600019018019909116921691909117905260405192018290039091209695505050505050565b600091825260026020526040909120805473ffffffffffffffffffffffffffffffffffffffff1916600160a060020a03909216919091179055565b60009182526020829052604090912055565b600082826040516020018083805190602001908083835b602083106144cc5780518252601f1990920191602091820191016144ad565b6001836020036101000a03801982511681845116808217855250505050505090500182600160a060020a0316600160a060020a03166c0100000000000000000000000002815260140192505050604051602081830303815290604052604051808280519060200190808383602083106144165780518252601f1990920191602091820191016143f7565b600081815260076020908152604091829020805483518184028101840190945280845260609392830182828015611e4d57602002820191906000526020600020905b815481526001909101906020018083116145985750505050509050919050565b6040805160208082528183019092526060918291600091829182918591908082016104008038833901905050945060009350600092505b6020831015614664576008830260020a87029150600160f860020a03198216156146595781858581518110151561462257fe5b9060200101907effffffffffffffffffffffffffffffffffffffffffffffffffffffffffffff1916908160001a9053506001909301925b6001909201916145ef565b836040519080825280601f01601f191660200182016040528015614692578160200160208202803883390190505b509050600092505b8383101561470c5784838151811015156146b057fe5b90602001015160f860020a900460f860020a0281848151811015156146d157fe5b9060200101907effffffffffffffffffffffffffffffffffffffffffffffffffffffffffffff1916908160001a90535060019092019161469a565b9695505050505050565b600061474d614748604080519081016040528060188152602001600080516020615a8983398151915281525084614334565b61094f565b92915050565b6060816000805b825182101561484457828281518110151561477157fe5b016020015160f860020a908190040290507f6100000000000000000000000000000000000000000000000000000000000000600160f860020a03198216108015906147e657507f7a00000000000000000000000000000000000000000000000000000000000000600160f860020a0319821611155b156147fa57601f1960f860020a9182900401025b80838381518110151561480957fe5b9060200101907effffffffffffffffffffffffffffffffffffffffffffffffffffffffffffff1916908160001a90535060019091019061475a565b50909392505050565b600080614859836148c8565b600160a060020a0316146148c057614897610b566040805190810160405280601c8152602001600080516020615b2983398151915281525084614334565b421180156148ab57506148a982614716565b155b156148b857506001610962565b506000610962565b506001919050565b600061474d61141f604080519081016040528060178152602001600080516020615a4983398151915281525084614334565b60008060606000614943610b566040805190810160405280600b81526020017f7469636b6572496e64657800000000000000000000000000000000000000000081525087614334565b93506149726040805190810160405280600d8152602001600080516020615ac983398151915281525087614496565b925061497d83614556565b8051909250841061498a57fe5b85600160a060020a031661499d866148c8565b600160a060020a0316146149ad57fe5b6149b783856154d6565b836149c184614556565b511115613eca576149d183614556565b8051859081106149dd57fe5b906020019060200201519050613eca614a2e6040805190810160405280600b81526020017f7469636b6572496e64657800000000000000000000000000000000000000000081525061141a846145b8565b85614484565b8181018281101561474d57fe5b614a4b8888615159565b614a59878987878a88614f7e565b838589600160a060020a03167f2de60ed106ca2007f575a4a2ff327cdde9bf801386463689ccb784d8bd4685628a8a878760405180806020018060200185151515158152602001848152602001838103835287818151815260200191508051906020019080838360005b83811015614adb578181015183820152602001614ac3565b50505050905090810190601f168015614b085780820380516001836020036101000a031916815260200191505b50838103825286518152865160209182019188019080838360005b83811015614b3b578181015183820152602001614b23565b50505050905090810190601f168015614b685780820380516001836020036101000a031916815260200191505b50965050505050505060405180910390a45050505050505050565b6000816040516020018082805190602001908083835b60208310614bb85780518252601f199092019160209182019101614b99565b6001836020036101000a0380198251168184511680821785525050505050509050019150506040516020818303038152906040526040518082805190602001908083835b60208310614c1b5780518252601f199092019160209182019101614bfc565b5181516020939093036101000a6000190180199091169216919091179052604051920182900390912095945050505050565b6040805160038082526080820190925260609182919060208201838038833950508151919250506201000062ffffff8516049082906000908110614c8d57fe5b60ff909216602092830290910190910152805161010062ffffff8516049082906001908110614cb857fe5b60ff9092166020928302909101909101528051839082906002908110614cda57fe5b60ff9092166020928302909101909101529050919050565b600091825260046020526040909120805460ff1916911515919091179055565b600081815260096020908152604091829020805483518184028101840190945280845260609392830182828015611e4d57602002820191906000526020600020905b8154600160a060020a03168152600190910190602001808311614d545750505050509050919050565b6000614d88866148c8565b9050600160a060020a03811615614da357614da381876148fa565b614dac86614716565b8015614db6575081155b15614deb57614deb612786604080519081016040528060158152602001600080516020615b0983398151915281525088614334565b8115614e8b576000600160a060020a0316614e2c61141f604080519081016040528060158152602001600080516020615b0983398151915281525089614334565b600160a060020a03161415614e8b576040805160e560020a62461bcd02815260206004820152601460248201527f546f6b656e206e6f742072656769737465726564000000000000000000000000604482015290519081900360640190fd5b614e9d87878787878760016000614a41565b50505050505050565b614eee614ee86040805190810160405280601581526020017f7365637572697479546f6b656e735f7469636b6572000000000000000000000081525086614496565b846155a9565b614f36614f306040805190810160405280601b81526020017f7365637572697479546f6b656e735f746f6b656e44657461696c73000000000081525086614496565b836155a9565b614060614f786040805190810160405280601981526020017f7365637572697479546f6b656e735f6465706c6f79656441740000000000000081525086614496565b82614484565b6000614fad604080519081016040528060178152602001600080516020615a4983398151915281525088614334565b905085600160a060020a0316614fc28261289a565b600160a060020a031614614fda57614fda8187614449565b615040606060405190810160405280602281526020017f726567697374657265645469636b6572735f726567697374726174696f6e446181526020017f746500000000000000000000000000000000000000000000000000000000000081525088614334565b90508461504c82610bbe565b1461505b5761505b8186614484565b6150886040805190810160405280601c8152602001600080516020615b2983398151915281525088614334565b90508361509482610bbe565b146150a3576150a38185614484565b6150e26040805190810160405280601b81526020017f726567697374657265645469636b6572735f746f6b656e4e616d65000000000081525088614334565b90506150ed83614b83565b6150fe6150f983611db6565b614b83565b1461510d5761510d81846155a9565b61513a604080519081016040528060188152602001600080516020615a8983398151915281525088614334565b90508115156151488261094f565b151514614e9d57614e9d8183614cf2565b600080600061518b6040805190810160405280600d8152602001600080516020615ac983398151915281525086614496565b925061519683614556565b5191506151ab836151a6866155c8565b6155d5565b6151f36151ed6040805190810160405280600b81526020017f7469636b6572496e64657800000000000000000000000000000000000000000081525086614334565b83614484565b6152326040805190810160405280600981526020017f7365656e5573657273000000000000000000000000000000000000000000000081525086614496565b905061523d8161094f565b1515613c5e5761528a6152846040805190810160405280600b81526020017f6163746976655573657273000000000000000000000000000000000000000000815250614b83565b866155f8565b613c5e816001614cf2565b6040805160038082526080820190925260609160009190602082018480388339019050509150848260008151811015156152cb57fe5b60ff90921660209283029091019091015281518490839060019081106152ed57fe5b60ff909216602092830290910190910152815183908390600290811061530f57fe5b60ff90921660209283029091019091015261532b858585615644565b905061533e6153386111e3565b8361565f565b1515615394576040805160e560020a62461bcd02815260206004820152601060248201527f496e2d76616c69642076657273696f6e00000000000000000000000000000000604482015290519081900360640190fd5b6153ce6153c36040805190810160405280600d81526020016000805160206159c9833981519152815250614b83565b8262ffffff16614484565b613eca6154396040805190810160405280601181526020017f70726f746f636f6c56657273696f6e53540000000000000000000000000000008152506141a7610b566040805190810160405280600d81526020016000805160206159c9833981519152815250614b83565b87614449565b600082826040516020018083805190602001908083835b602083106154755780518252601f199092019160209182019101615456565b51815160001960209485036101000a019081169019919091161790529201938452506040805180850381529382019081905283519394509283925090840190808383602083106144165780518252601f1990920191602091820191016143f7565b600082815260076020526040902080548210615562576040805160e560020a62461bcd02815260206004820152602a60248201527f496e6465782073686f756c64206c657373207468616e206c656e677468206f6660448201527f2074686520617272617900000000000000000000000000000000000000000000606482015290519081900360840190fd5b80548190600019810190811061557457fe5b9060005260206000200154818381548110151561558d57fe5b60009182526020909120015580546000190161406082826158cc565b6000828152600160209081526040909120825161216b928401906158f0565b600061474d826000615872565b600091825260076020908152604083208054600181018255908452922090910155565b6000918252600960209081526040832080546001810182559084529220909101805473ffffffffffffffffffffffffffffffffffffffff1916600160a060020a03909216919091179055565b60ff9081169181166101000292166201000002919091171790565b600060606000808551604051908082528060200260200182016040528015615691578160200160208202803883390190505b50925060009150600090505b85518160ff16101561573d57848160ff168151811015156156ba57fe5b9060200190602002015160ff16868260ff168151811015156156d857fe5b9060200190602002015160ff161015615712576001838260ff168151811015156156fe57fe5b911515602092830290910190910152615735565b6000838260ff1681518110151561572557fe5b9115156020928302909101909101525b60010161569d565b5060005b85518160ff1610156158585760ff811615156157da57848160ff1681518110151561576857fe5b9060200190602002015160ff16868260ff1681518110151561578657fe5b6020908102909101015160ff16116157cc578260008151811015156157a757fe5b90602001906020020151156157c157816003019150615858565b6001909101906157d5565b60009350615869565b615850565b826001820360ff168151811015156157ee57fe5b906020019060200201511561580857600190910190615850565b848160ff1681518110151561581957fe5b9060200190602002015160ff16868260ff1681518110151561583757fe5b6020908102909101015160ff16116157cc576001909101905b600101615741565b85518260ff16141561586957600193505b50505092915050565b600080805b84518110156158c457806008028582860181518110151561589457fe5b60209101015160029190910a60f860020a91829004909102600160f860020a031916049190911790600101615877565b509392505050565b81548183558181111561216b5760008381526020902061216b91810190830161596e565b828054600181600116156101000203166002900490600052602060002090601f016020900481019282601f1061593157805160ff191683800117855561595e565b8280016001018555821561595e579182015b8281111561595e578251825591602001919060010190615943565b5061596a92915061596e565b5090565b61094c91905b8082111561596a57600081556001016159745600ee35723ac350a69d2a92d3703f17439cbaadf2f093a21ba5bf5f1a53eb2a14d92fcc69711628630fb5a42566c68bd1092bc4aa26826736293969fddcd11cb2d26c617465737456657273696f6e00000000000000000000000000000000000000604268e9a73dfd777dcecb8a614493dd65c638bad2f5e7d709d378bd2fb0baeed677304bb45536bb7fdfa6b9e47a3c58fe413f9e8f01474b0a4b9c6e0275baf2496e76616c696420616464726573730000000000000000000000000000000000726567697374657265645469636b6572735f6f776e657200000000000000000073656e646572206d757374206265206f776e6572000000000000000000000000726567697374657265645469636b6572735f737461747573000000000000000002016836a56b71f0d02689e69e326f4f4c1b9057164ef592671cf0d37c8040c075736572546f5469636b65727300000000000000000000000000000000000000acf8fbd51bb4b83ba426cdb12f63be74db97c412515797993d2a385542e311d77469636b6572546f5365637572697479546f6b656e0000000000000000000000726567697374657265645469636b6572735f65787069727944617465000000005469636b6572206c656e6774682072616e67652028302c31305d000000000000416c7265616479207061757365640000000000000000000000000000000000004e6f7420617574686f7269736564000000000000000000000000000000000000a165627a7a723058200ed2d0d4e6de666d55b111aa964bb38fd7994e388b009269a1716efc85c11a450029",
  "source": "pragma solidity ^0.4.24;\n\nimport \"../SecurityTokenRegistry.sol\";\n\n/**\n * @title Registry contract for issuers to register their security tokens\n */\ncontract SecurityTokenRegistryMock is SecurityTokenRegistry {\n    \n    /// @notice It is a dummy function\n    /// Alert! Alert! Do not use it for the mainnet release\n    function changeTheDeployedAddress(string _ticker, address _newSecurityTokenAddress) public {\n        set(Encoder.getKey(\"tickerToSecurityToken\", _ticker), _newSecurityTokenAddress);\n    } \n    \n}\n",
  "sourcePath": "/Users/jere/Code/polymath-apps/packages/new-polymath-scripts/src/generateLocalBlockchain/contracts/mocks/SecurityTokenRegistryMock.sol",
  "compiler": {
    "name": "solc",
    "version": "0.4.24+commit.e67f0147.Emscripten.clang"
  },
  "schemaVersion": "2.0.1",
  "updatedAt": "2019-02-01T15:57:13.660Z"
}