{
  "contractName": "SecurityTokenRegistryMock",
  "abi": [
    {
      "constant": true,
      "inputs": [
        {
          "name": "_variable",
          "type": "bytes32"
        }
      ],
      "name": "getBytes32Value",
      "outputs": [
        {
          "name": "",
          "type": "bytes32"
        }
      ],
      "payable": false,
      "stateMutability": "view",
      "type": "function"
    },
    {
      "constant": true,
      "inputs": [],
      "name": "getExpiryLimit",
      "outputs": [
        {
          "name": "",
          "type": "uint256"
        }
      ],
      "payable": false,
      "stateMutability": "view",
      "type": "function"
    },
    {
      "constant": false,
      "inputs": [
        {
          "name": "_newExpiry",
          "type": "uint256"
        }
      ],
      "name": "changeExpiryLimit",
      "outputs": [],
      "payable": false,
      "stateMutability": "nonpayable",
      "type": "function"
    },
    {
      "constant": true,
      "inputs": [
        {
          "name": "_owner",
          "type": "address"
        }
      ],
      "name": "getTickersByOwner",
      "outputs": [
        {
          "name": "",
          "type": "bytes32[]"
        }
      ],
      "payable": false,
      "stateMutability": "view",
      "type": "function"
    },
    {
      "constant": false,
      "inputs": [
        {
          "name": "_owner",
          "type": "address"
        },
        {
          "name": "_ticker",
          "type": "string"
        },
        {
          "name": "_tokenName",
          "type": "string"
        }
      ],
      "name": "registerTicker",
      "outputs": [],
      "payable": false,
      "stateMutability": "nonpayable",
      "type": "function"
    },
    {
      "constant": true,
      "inputs": [],
      "name": "getProtocolVersion",
      "outputs": [
        {
          "name": "",
          "type": "uint8[]"
        }
      ],
      "payable": false,
      "stateMutability": "view",
      "type": "function"
    },
    {
      "constant": false,
      "inputs": [],
      "name": "unpause",
      "outputs": [],
      "payable": false,
      "stateMutability": "nonpayable",
      "type": "function"
    },
    {
      "constant": true,
      "inputs": [
        {
          "name": "_owner",
          "type": "address"
        }
      ],
      "name": "getTokensByOwner",
      "outputs": [
        {
          "name": "",
          "type": "address[]"
        }
      ],
      "payable": false,
      "stateMutability": "view",
      "type": "function"
    },
    {
      "constant": false,
      "inputs": [
        {
          "name": "_stLaunchFee",
          "type": "uint256"
        }
      ],
      "name": "changeSecurityLaunchFee",
      "outputs": [],
      "payable": false,
      "stateMutability": "nonpayable",
      "type": "function"
    },
    {
      "constant": true,
      "inputs": [
        {
          "name": "_variable",
          "type": "bytes32"
        }
      ],
      "name": "getBytesValue",
      "outputs": [
        {
          "name": "",
          "type": "bytes"
        }
      ],
      "payable": false,
      "stateMutability": "view",
      "type": "function"
    },
    {
      "constant": true,
      "inputs": [
        {
          "name": "_variable",
          "type": "bytes32"
        }
      ],
      "name": "getAddressValue",
      "outputs": [
        {
          "name": "",
          "type": "address"
        }
      ],
      "payable": false,
      "stateMutability": "view",
      "type": "function"
    },
    {
      "constant": true,
      "inputs": [
        {
          "name": "_ticker",
          "type": "string"
        }
      ],
      "name": "getTickerDetails",
      "outputs": [
        {
          "name": "",
          "type": "address"
        },
        {
          "name": "",
          "type": "uint256"
        },
        {
          "name": "",
          "type": "uint256"
        },
        {
          "name": "",
          "type": "string"
        },
        {
          "name": "",
          "type": "bool"
        }
      ],
      "payable": false,
      "stateMutability": "view",
      "type": "function"
    },
    {
      "constant": false,
      "inputs": [
        {
          "name": "_name",
          "type": "string"
        },
        {
          "name": "_ticker",
          "type": "string"
        },
        {
          "name": "_owner",
          "type": "address"
        },
        {
          "name": "_securityToken",
          "type": "address"
        },
        {
          "name": "_tokenDetails",
          "type": "string"
        },
        {
          "name": "_deployedAt",
          "type": "uint256"
        }
      ],
      "name": "modifySecurityToken",
      "outputs": [],
      "payable": false,
      "stateMutability": "nonpayable",
      "type": "function"
    },
    {
      "constant": true,
      "inputs": [
        {
          "name": "_key",
          "type": "bytes32"
        }
      ],
      "name": "getArrayAddress",
      "outputs": [
        {
          "name": "",
          "type": "address[]"
        }
      ],
      "payable": false,
      "stateMutability": "view",
      "type": "function"
    },
    {
      "constant": false,
      "inputs": [],
      "name": "pause",
      "outputs": [],
      "payable": false,
      "stateMutability": "nonpayable",
      "type": "function"
    },
    {
      "constant": false,
      "inputs": [
        {
          "name": "_tokenContract",
          "type": "address"
        }
      ],
      "name": "reclaimERC20",
      "outputs": [],
      "payable": false,
      "stateMutability": "nonpayable",
      "type": "function"
    },
    {
      "constant": true,
      "inputs": [],
      "name": "owner",
      "outputs": [
        {
          "name": "",
          "type": "address"
        }
      ],
      "payable": false,
      "stateMutability": "view",
      "type": "function"
    },
    {
      "constant": true,
      "inputs": [
        {
          "name": "_securityToken",
          "type": "address"
        }
      ],
      "name": "getSecurityTokenData",
      "outputs": [
        {
          "name": "",
          "type": "string"
        },
        {
          "name": "",
          "type": "address"
        },
        {
          "name": "",
          "type": "string"
        },
        {
          "name": "",
          "type": "uint256"
        }
      ],
      "payable": false,
      "stateMutability": "view",
      "type": "function"
    },
    {
      "constant": true,
      "inputs": [
        {
          "name": "_variable",
          "type": "bytes32"
        }
      ],
      "name": "getBoolValue",
      "outputs": [
        {
          "name": "",
          "type": "bool"
        }
      ],
      "payable": false,
      "stateMutability": "view",
      "type": "function"
    },
    {
      "constant": false,
      "inputs": [
        {
          "name": "_owner",
          "type": "address"
        },
        {
          "name": "_ticker",
          "type": "string"
        },
        {
          "name": "_tokenName",
          "type": "string"
        },
        {
          "name": "_registrationDate",
          "type": "uint256"
        },
        {
          "name": "_expiryDate",
          "type": "uint256"
        },
        {
          "name": "_status",
          "type": "bool"
        }
      ],
      "name": "modifyTicker",
      "outputs": [],
      "payable": false,
      "stateMutability": "nonpayable",
      "type": "function"
    },
    {
      "constant": false,
      "inputs": [
        {
          "name": "_tickerRegFee",
          "type": "uint256"
        }
      ],
      "name": "changeTickerRegistrationFee",
      "outputs": [],
      "payable": false,
      "stateMutability": "nonpayable",
      "type": "function"
    },
    {
      "constant": false,
      "inputs": [
        {
          "name": "_ticker",
          "type": "string"
        }
      ],
      "name": "removeTicker",
      "outputs": [],
      "payable": false,
      "stateMutability": "nonpayable",
      "type": "function"
    },
    {
      "constant": true,
      "inputs": [
        {
          "name": "_variable",
          "type": "bytes32"
        }
      ],
      "name": "getStringValue",
      "outputs": [
        {
          "name": "",
          "type": "string"
        }
      ],
      "payable": false,
      "stateMutability": "view",
      "type": "function"
    },
    {
      "constant": true,
      "inputs": [
        {
          "name": "_key",
          "type": "bytes32"
        }
      ],
      "name": "getArrayBytes32",
      "outputs": [
        {
          "name": "",
          "type": "bytes32[]"
        }
      ],
      "payable": false,
      "stateMutability": "view",
      "type": "function"
    },
    {
      "constant": true,
      "inputs": [],
      "name": "isPaused",
      "outputs": [
        {
          "name": "",
          "type": "bool"
        }
      ],
      "payable": false,
      "stateMutability": "view",
      "type": "function"
    },
    {
      "constant": false,
      "inputs": [
        {
          "name": "_name",
          "type": "string"
        },
        {
          "name": "_ticker",
          "type": "string"
        },
        {
          "name": "_tokenDetails",
          "type": "string"
        },
        {
          "name": "_divisible",
          "type": "bool"
        }
      ],
      "name": "generateSecurityToken",
      "outputs": [],
      "payable": false,
      "stateMutability": "nonpayable",
      "type": "function"
    },
    {
      "constant": true,
      "inputs": [],
      "name": "getSecurityTokenLaunchFee",
      "outputs": [
        {
          "name": "",
          "type": "uint256"
        }
      ],
      "payable": false,
      "stateMutability": "view",
      "type": "function"
    },
    {
      "constant": false,
      "inputs": [
        {
          "name": "_newOwner",
          "type": "address"
        },
        {
          "name": "_ticker",
          "type": "string"
        }
      ],
      "name": "transferTickerOwnership",
      "outputs": [],
      "payable": false,
      "stateMutability": "nonpayable",
      "type": "function"
    },
    {
      "constant": false,
      "inputs": [
        {
          "name": "_polymathRegistry",
          "type": "address"
        },
        {
          "name": "_STFactory",
          "type": "address"
        },
        {
          "name": "_stLaunchFee",
          "type": "uint256"
        },
        {
          "name": "_tickerRegFee",
          "type": "uint256"
        },
        {
          "name": "_polyToken",
          "type": "address"
        },
        {
          "name": "_owner",
          "type": "address"
        }
      ],
      "name": "initialize",
      "outputs": [],
      "payable": true,
      "stateMutability": "payable",
      "type": "function"
    },
    {
      "constant": true,
      "inputs": [
        {
          "name": "_securityToken",
          "type": "address"
        }
      ],
      "name": "isSecurityToken",
      "outputs": [
        {
          "name": "",
          "type": "bool"
        }
      ],
      "payable": false,
      "stateMutability": "view",
      "type": "function"
    },
    {
      "constant": false,
      "inputs": [
        {
          "name": "_STFactoryAddress",
          "type": "address"
        },
        {
          "name": "_major",
          "type": "uint8"
        },
        {
          "name": "_minor",
          "type": "uint8"
        },
        {
          "name": "_patch",
          "type": "uint8"
        }
      ],
      "name": "setProtocolVersion",
      "outputs": [],
      "payable": false,
      "stateMutability": "nonpayable",
      "type": "function"
    },
    {
      "constant": true,
      "inputs": [],
      "name": "getTickerRegistrationFee",
      "outputs": [
        {
          "name": "",
          "type": "uint256"
        }
      ],
      "payable": false,
      "stateMutability": "view",
      "type": "function"
    },
    {
      "constant": false,
      "inputs": [
        {
          "name": "_newAddress",
          "type": "address"
        }
      ],
      "name": "updatePolyTokenAddress",
      "outputs": [],
      "payable": false,
      "stateMutability": "nonpayable",
      "type": "function"
    },
    {
      "constant": true,
      "inputs": [
        {
          "name": "_variable",
          "type": "bytes32"
        }
      ],
      "name": "getUintValue",
      "outputs": [
        {
          "name": "",
          "type": "uint256"
        }
      ],
      "payable": false,
      "stateMutability": "view",
      "type": "function"
    },
    {
      "constant": true,
      "inputs": [],
      "name": "getSTFactoryAddress",
      "outputs": [
        {
          "name": "",
          "type": "address"
        }
      ],
      "payable": false,
      "stateMutability": "view",
      "type": "function"
    },
    {
      "constant": false,
      "inputs": [
        {
          "name": "_newOwner",
          "type": "address"
        }
      ],
      "name": "transferOwnership",
      "outputs": [],
      "payable": false,
      "stateMutability": "nonpayable",
      "type": "function"
    },
    {
      "constant": true,
      "inputs": [
        {
          "name": "_key",
          "type": "bytes32"
        }
      ],
      "name": "getArrayUint",
      "outputs": [
        {
          "name": "",
          "type": "uint256[]"
        }
      ],
      "payable": false,
      "stateMutability": "view",
      "type": "function"
    },
    {
      "constant": true,
      "inputs": [
        {
          "name": "_ticker",
          "type": "string"
        }
      ],
      "name": "getSecurityTokenAddress",
      "outputs": [
        {
          "name": "",
          "type": "address"
        }
      ],
      "payable": false,
      "stateMutability": "view",
      "type": "function"
    },
    {
      "anonymous": false,
      "inputs": [
        {
          "indexed": false,
          "name": "_timestammp",
          "type": "uint256"
        }
      ],
      "name": "Pause",
      "type": "event"
    },
    {
      "anonymous": false,
      "inputs": [
        {
          "indexed": false,
          "name": "_timestamp",
          "type": "uint256"
        }
      ],
      "name": "Unpause",
      "type": "event"
    },
    {
      "anonymous": false,
      "inputs": [
        {
          "indexed": false,
          "name": "_ticker",
          "type": "string"
        },
        {
          "indexed": false,
          "name": "_removedAt",
          "type": "uint256"
        },
        {
          "indexed": false,
          "name": "_removedBy",
          "type": "address"
        }
      ],
      "name": "TickerRemoved",
      "type": "event"
    },
    {
      "anonymous": false,
      "inputs": [
        {
          "indexed": false,
          "name": "_oldExpiry",
          "type": "uint256"
        },
        {
          "indexed": false,
          "name": "_newExpiry",
          "type": "uint256"
        }
      ],
      "name": "ChangeExpiryLimit",
      "type": "event"
    },
    {
      "anonymous": false,
      "inputs": [
        {
          "indexed": false,
          "name": "_oldFee",
          "type": "uint256"
        },
        {
          "indexed": false,
          "name": "_newFee",
          "type": "uint256"
        }
      ],
      "name": "ChangeSecurityLaunchFee",
      "type": "event"
    },
    {
      "anonymous": false,
      "inputs": [
        {
          "indexed": false,
          "name": "_oldFee",
          "type": "uint256"
        },
        {
          "indexed": false,
          "name": "_newFee",
          "type": "uint256"
        }
      ],
      "name": "ChangeTickerRegistrationFee",
      "type": "event"
    },
    {
      "anonymous": false,
      "inputs": [
        {
          "indexed": true,
          "name": "previousOwner",
          "type": "address"
        },
        {
          "indexed": true,
          "name": "newOwner",
          "type": "address"
        }
      ],
      "name": "OwnershipTransferred",
      "type": "event"
    },
    {
      "anonymous": false,
      "inputs": [
        {
          "indexed": false,
          "name": "_ticker",
          "type": "string"
        },
        {
          "indexed": true,
          "name": "_oldOwner",
          "type": "address"
        },
        {
          "indexed": true,
          "name": "_newOwner",
          "type": "address"
        }
      ],
      "name": "ChangeTickerOwnership",
      "type": "event"
    },
    {
      "anonymous": false,
      "inputs": [
        {
          "indexed": false,
          "name": "_ticker",
          "type": "string"
        },
        {
          "indexed": false,
          "name": "_name",
          "type": "string"
        },
        {
          "indexed": true,
          "name": "_securityTokenAddress",
          "type": "address"
        },
        {
          "indexed": true,
          "name": "_owner",
          "type": "address"
        },
        {
          "indexed": false,
          "name": "_addedAt",
          "type": "uint256"
        },
        {
          "indexed": false,
          "name": "_registrant",
          "type": "address"
        },
        {
          "indexed": false,
          "name": "_fromAdmin",
          "type": "bool"
        },
        {
          "indexed": false,
          "name": "_registrationFee",
          "type": "uint256"
        }
      ],
      "name": "NewSecurityToken",
      "type": "event"
    },
    {
      "anonymous": false,
      "inputs": [
        {
          "indexed": true,
          "name": "_owner",
          "type": "address"
        },
        {
          "indexed": false,
          "name": "_ticker",
          "type": "string"
        },
        {
          "indexed": false,
          "name": "_name",
          "type": "string"
        },
        {
          "indexed": true,
          "name": "_registrationDate",
          "type": "uint256"
        },
        {
          "indexed": true,
          "name": "_expiryDate",
          "type": "uint256"
        },
        {
          "indexed": false,
          "name": "_fromAdmin",
          "type": "bool"
        },
        {
          "indexed": false,
          "name": "_registrationFee",
          "type": "uint256"
        }
      ],
      "name": "RegisterTicker",
      "type": "event"
    },
    {
      "constant": false,
      "inputs": [
        {
          "name": "_ticker",
          "type": "string"
        },
        {
          "name": "_newSecurityTokenAddress",
          "type": "address"
        }
      ],
      "name": "changeTheDeployedAddress",
      "outputs": [],
      "payable": false,
      "stateMutability": "nonpayable",
      "type": "function"
    }
  ],
  "bytecode": "0x608060405234801561001057600080fd5b50615d1080620000216000396000f3006080604052600436106101c95763ffffffff60e060020a600035041663025ec81a81146101ce5780630e8dcb0b146101f8578063165e694a1461025e578063208b080f1461027357806321c8ad0e1461028b578063321dff17146102fc57806333ce93fe146103355780633f4ba83a1461034a57806340398d671461035f57806342c2e5511461038057806344bfa56e146103985780634c77e5ba1461042557806363808bcb146104595780636658076c146105235780636f3b8ce2146105735780638456cb591461058b5780638905fd4f146105a05780638da5cb5b146105c15780638f9bbf16146105d65780638ffa9690146106b557806392042aee146106e1578063959346ae14610725578063972b3ab51461073d578063a209a29c1461075d578063a8f0d3a714610775578063b187bd261461078d578063c37792b5146107a2578063c75948f5146107df578063d0f6fe42146107f4578063d2d1016214610821578063d300a9681461084f578063d3623f9814610870578063e1ecae9e146108a3578063e6ff950b146108b8578063e82617fb146108d9578063ea470758146108f1578063f2fde38b14610906578063f6fcbee114610927578063fb621f141461093f575b600080fd5b3480156101da57600080fd5b506101e660043561095f565b60408051918252519081900360200190f35b34801561020457600080fd5b506040805160206004803580820135601f810184900484028501840190955284845261025c94369492936024939284019190819084018382808284375094975050509235600160a060020a0316935061097492505050565b005b34801561026a57600080fd5b506101e66109ae565b34801561027f57600080fd5b5061025c6004356109cd565b34801561029757600080fd5b506102ac600160a060020a0360043516610ae7565b60408051602080825283518183015283519192839290830191858101910280838360005b838110156102e85781810151838201526020016102d0565b505050509050019250505060405180910390f35b34801561030857600080fd5b5061025c60048035600160a060020a03169060248035808201929081013591604435908101910135610ca0565b34801561034157600080fd5b506102ac6112b3565b34801561035657600080fd5b5061025c6112ec565b34801561036b57600080fd5b506102ac600160a060020a03600435166113ed565b34801561038c57600080fd5b5061025c60043561174b565b3480156103a457600080fd5b506103b0600435611866565b6040805160208082528351818301528351919283929083019185019080838360005b838110156103ea5781810151838201526020016103d2565b50505050905090810190601f1680156104175780820380516001836020036101000a031916815260200191505b509250505060405180910390f35b34801561043157600080fd5b5061043d600435611907565b60408051600160a060020a039092168252519081900360200190f35b34801561046557600080fd5b506104796004803560248101910135611922565b6040518086600160a060020a0316600160a060020a031681526020018581526020018481526020018060200183151515158152602001828103825284818151815260200191508051906020019080838360005b838110156104e45781810151838201526020016104cc565b50505050905090810190601f1680156105115780820380516001836020036101000a031916815260200191505b50965050505050505060405180910390f35b34801561052f57600080fd5b5061025c6024600480358281019290820135918135808301929082013591600160a060020a036044358116926064359091169160843591820191013560a435611ab2565b34801561057f57600080fd5b506102ac600435611f42565b34801561059757600080fd5b5061025c611fad565b3480156105ac57600080fd5b5061025c600160a060020a036004351661209b565b3480156105cd57600080fd5b5061043d6122c4565b3480156105e257600080fd5b506105f7600160a060020a03600435166122dd565b604051808060200185600160a060020a0316600160a060020a0316815260200180602001848152602001838103835287818151815260200191508051906020019080838360005b8381101561065657818101518382015260200161063e565b50505050905090810190601f1680156106835780820380516001836020036101000a031916815260200191505b5083810382528551815285516020918201918701908083836000838110156104e45781810151838201526020016104cc565b3480156106c157600080fd5b506106cd600435612424565b604080519115158252519081900360200190f35b3480156106ed57600080fd5b5061025c60048035600160a060020a0316906024803580820192908101359160443590810191013560643560843560a4351515612439565b34801561073157600080fd5b5061025c60043561269b565b34801561074957600080fd5b5061025c60048035602481019101356127b6565b34801561076957600080fd5b506103b06004356129d8565b34801561078157600080fd5b506102ac600435612a44565b34801561079957600080fd5b506106cd612aa6565b3480156107ae57600080fd5b5061025c60246004803582810192908201359181358083019290820135916044359182019101356064351515612abf565b3480156107eb57600080fd5b506101e6613755565b34801561080057600080fd5b5061025c60048035600160a060020a0316906024803590810191013561376e565b61025c600160a060020a03600435811690602435811690604435906064359060843581169060a43516613e05565b34801561085b57600080fd5b506106cd600160a060020a0360043516614072565b34801561087c57600080fd5b5061025c600160a060020a036004351660ff6024358116906044358116906064351661413f565b3480156108af57600080fd5b506101e6614206565b3480156108c457600080fd5b5061025c600160a060020a036004351661421f565b3480156108e557600080fd5b506101e66004356142da565b3480156108fd57600080fd5b5061043d6142ec565b34801561091257600080fd5b5061025c600160a060020a036004351661435e565b34801561093357600080fd5b506102ac60043561446f565b34801561094b57600080fd5b5061043d60048035602481019101356144d0565b6000818152600660205260409020545b919050565b6109aa6109a4604080519081016040528060158152602001600080516020615c4583398151915281525084614547565b8261465c565b5050565b60006109c7600080516020615b258339815191526142da565b90505b90565b6109d56122c4565b600160a060020a03163314610a22576040805160e560020a62461bcd0281526020600482015260146024820152600080516020615ba5833981519152604482015290519081900360640190fd5b62015180811015610a7d576040805160e560020a62461bcd02815260206004820152601660248201527f4578706972792073686f756c64203e3d20312064617900000000000000000000604482015290519081900360640190fd5b7f7e1cc0e69ee3b84fb62bbb71687d2565bbb8ad1771bb3e3cd15cbed424c833c8610ab5600080516020615b258339815191526142da565b60408051918252602082018490528051918290030190a1610ae4600080516020615b2583398151915282614697565b50565b606060006060600060608060009450610b2b610b266040805190810160405280600d8152602001600080516020615c05833981519152815250896146a9565b612a44565b9350600092505b8351831015610bbb57610b5b8484815181101515610b4c57fe5b90602001906020020151614769565b915042610b93610b8e6040805190810160405280601c8152602001600080516020615c6583398151915281525085614547565b6142da565b101580610ba45750610ba4826148bd565b15610bb0576001909401935b600190920191610b32565b84604051908082528060200260200182016040528015610be5578160200160208202803883390190505b50905060009450600092505b8351831015610c9657610c0b8484815181101515610b4c57fe5b915042610c3e610b8e6040805190810160405280601c8152602001600080516020615c6583398151915281525085614547565b101580610c4f5750610c4f826148bd565b15610c8b578383815181101515610c6257fe5b906020019060200201518186815181101515610c7a57fe5b602090810290910101526001909401935b600190920191610bf1565b9695505050505050565b600060606000610cae6122c4565b600160a060020a031633600160a060020a03161415610fa057600160a060020a0388161515610d27576040805160e560020a62461bcd02815260206004820152601660248201527f4f776e65722073686f756c64206e6f7420626520307800000000000000000000604482015290519081900360640190fd5b600086118015610d385750600a8611155b1515610d7c576040805160e560020a62461bcd02815260206004820152601a6024820152600080516020615c85833981519152604482015290519081900360640190fd5b610d84614206565b92506000831115610e8357610da6600080516020615c25833981519152611907565b6040805160e060020a6323b872dd028152336004820152306024820152604481018690529051600160a060020a0392909216916323b872dd916064808201926020929091908290030181600087803b158015610e0157600080fd5b505af1158015610e15573d6000803e3d6000fd5b505050506040513d6020811015610e2b57600080fd5b50511515610e83576040805160e560020a62461bcd02815260206004820152601560248201527f496e737566666963656e7420616c6c6f77616e63650000000000000000000000604482015290519081900360640190fd5b610ebc87878080601f016020809104026020016040519081016040528093929190818152602001838380828437506148fa945050505050565b9150610ec7826149f4565b1515610f1d576040805160e560020a62461bcd02815260206004820152601260248201527f5469636b65722069732072657365727665640000000000000000000000000000604482015290519081900360640190fd5b610f2682614a6f565b9050600160a060020a03811615610f4157610f418183614aa1565b610f9b888387878080601f01602080910402602001604051908101604052809392919081815260200183838082843782019150505050505042610f92610f856109ae565b429063ffffffff614bdb16565b6000808a614be8565b6112a9565b610fa8612aa6565b15610feb576040805160e560020a62461bcd02815260206004820152600e6024820152600080516020615ca5833981519152604482015290519081900360640190fd5b600160a060020a038816151561104b576040805160e560020a62461bcd02815260206004820152601660248201527f4f776e65722073686f756c64206e6f7420626520307800000000000000000000604482015290519081900360640190fd5b60008611801561105c5750600a8611155b15156110a0576040805160e560020a62461bcd02815260206004820152601a6024820152600080516020615c85833981519152604482015290519081900360640190fd5b6110a8614206565b925060008311156111a7576110ca600080516020615c25833981519152611907565b6040805160e060020a6323b872dd028152336004820152306024820152604481018690529051600160a060020a0392909216916323b872dd916064808201926020929091908290030181600087803b15801561112557600080fd5b505af1158015611139573d6000803e3d6000fd5b505050506040513d602081101561114f57600080fd5b505115156111a7576040805160e560020a62461bcd02815260206004820152601560248201527f496e737566666963656e7420616c6c6f77616e63650000000000000000000000604482015290519081900360640190fd5b6111e087878080601f016020809104026020016040519081016040528093929190818152602001838380828437506148fa945050505050565b91506111eb826149f4565b1515611241576040805160e560020a62461bcd02815260206004820152601260248201527f5469636b65722069732072657365727665640000000000000000000000000000604482015290519081900360640190fd5b61124a82614a6f565b9050600160a060020a03811615611265576112658183614aa1565b6112a9888387878080601f01602080910402602001604051908101604052809392919081815260200183838082843782019150505050505042610f92610f856109ae565b5050505050505050565b60606109c76112e7610b8e6040805190810160405280600d8152602001600080516020615b05833981519152815250614d2a565b614df4565b6112f4612aa6565b151561134a576040805160e560020a62461bcd02815260206004820152601460248201527f53686f756c64206e6f7420626520706175736564000000000000000000000000604482015290519081900360640190fd5b6113526122c4565b600160a060020a0316331461139f576040805160e560020a62461bcd0281526020600482015260146024820152600080516020615ba5833981519152604482015290519081900360640190fd5b6113b8600080516020615ac58339815191526000614e99565b6040805142815290517faaa520fdd7d2c83061d632fa017b0432407e798818af63ea908589fceda39ab79181900360200190a1565b60608060606000806000806000606061144261143d6040805190810160405280600b81526020017f6163746976655573657273000000000000000000000000000000000000000000815250614d2a565b611f42565b9750600094508493508392505b87518410156115a55761149f610b266040805190810160405280600d8152602001600080516020615c058339815191528152508a8781518110151561149057fe5b906020019060200201516146a9565b9650600092505b865183101561159a576114f46114ef604080519081016040528060158152602001600080516020615c458339815191528152506114ea8a87815181101515610b4c57fe5b614547565b611907565b9550600160a060020a0386161561158f5789600160a060020a031686600160a060020a0316638da5cb5b6040518163ffffffff1660e060020a028152600401602060405180830381600087803b15801561154d57600080fd5b505af1158015611561573d6000803e3d6000fd5b505050506040513d602081101561157757600080fd5b5051600160a060020a0316141561158f578460010194505b6001909201916114a6565b60019093019261144f565b60009150846040519080825280602002602001820160405280156115d3578160200160208202803883390190505b509050600093505b875184101561173e5761161c610b266040805190810160405280600d8152602001600080516020615c058339815191528152508a8781518110151561149057fe5b9650600092505b8651831015611733576116676114ef604080519081016040528060158152602001600080516020615c458339815191528152506114ea8a87815181101515610b4c57fe5b9550600160a060020a038616156117285789600160a060020a031686600160a060020a0316638da5cb5b6040518163ffffffff1660e060020a028152600401602060405180830381600087803b1580156116c057600080fd5b505af11580156116d4573d6000803e3d6000fd5b505050506040513d60208110156116ea57600080fd5b5051600160a060020a031614156117285785818381518110151561170a57fe5b600160a060020a039092166020928302909101909101526001909101905b600190920191611623565b6001909301926115db565b9998505050505050505050565b60006117556122c4565b600160a060020a031633146117a2576040805160e560020a62461bcd0281526020600482015260146024820152600080516020615ba5833981519152604482015290519081900360640190fd5b6117b9600080516020615b458339815191526142da565b905081811415611813576040805160e560020a62461bcd02815260206004820152600f60248201527f466565206e6f74206368616e6765640000000000000000000000000000000000604482015290519081900360640190fd5b604080518281526020810184905281517f082ce758ae1784abd031015a0eac6700b941db0797e890ae7c4d326a5f8255c0929181900390910190a16109aa600080516020615b4583398151915283614697565b60008181526003602090815260409182902080548351601f60026101006001851615026000190190931692909204918201849004840281018401909452808452606093928301828280156118fb5780601f106118d0576101008083540402835291602001916118fb565b820191906000526020600020905b8154815290600101906020018083116118de57829003601f168201915b50505050509050919050565b600090815260026020526040902054600160a060020a031690565b60008060006060600060606000806119698a8a8080601f016020809104026020016040519081016040528093929190818152602001838380828437506148fa945050505050565b9250611974836148bd565b91506119a6610b8e6040805190810160405280601c8152602001600080516020615c6583398151915281525085614547565b9050600182151514806119b857504281115b15611a87576119c683614a6f565b611a2f610b8e606060405190810160405280602281526020017f726567697374657265645469636b6572735f726567697374726174696f6e446181526020017f746500000000000000000000000000000000000000000000000000000000000081525086614547565b82611a77611a726040805190810160405280601b81526020017f726567697374657265645469636b6572735f746f6b656e4e616d65000000000081525088614547565b6129d8565b8597509750975097509750611aa5565b60408051602081019091526000808252985088975087965094508593505b5050509295509295909350565b6060600080611abf6122c4565b600160a060020a03163314611b0c576040805160e560020a62461bcd0281526020600482015260146024820152600080516020615ba5833981519152604482015290519081900360640190fd5b60008b118015611b1c5750600089115b1515611b72576040805160e560020a62461bcd02815260206004820152601160248201527f537472696e67206c656e677468203e2030000000000000000000000000000000604482015290519081900360640190fd5b600a891115611bb9576040805160e560020a62461bcd02815260206004820152601a6024820152600080516020615c85833981519152604482015290519081900360640190fd5b8315801590611bd05750600160a060020a03881615155b1515611c26576040805160e560020a62461bcd02815260206004820152601a60248201527f302076616c756520706172616d73206e6f7420616c6c6f776564000000000000604482015290519081900360640190fd5b611c5f8a8a8080601f016020809104026020016040519081016040528093929190818152602001838380828437506148fa945050505050565b9250600160a060020a0387161515611cc1576040805160e560020a62461bcd02815260206004820152601060248201527f5354206164647265737320697320307800000000000000000000000000000000604482015290519081900360640190fd5b611d2a610b8e606060405190810160405280602281526020017f726567697374657265645469636b6572735f726567697374726174696f6e446181526020017f746500000000000000000000000000000000000000000000000000000000000081525085614547565b9150611d5c610b8e6040805190810160405280601c8152602001600080516020615c6583398151915281525085614547565b9050811515611d8357429150611d80611d736109ae565b839063ffffffff614bdb16565b90505b611db9611db3604080519081016040528060158152602001600080516020615c4583398151915281525085614547565b8861465c565b611dfa88848e8e8080601f01602080910402602001604051908101604052809392919081815260200183838082843782019150505050505085856001614eb9565b611e37878488888080601f016020809104026020016040519081016040528093929190818152602001838380828437508c9450614fe29350505050565b87600160a060020a031687600160a060020a03167f63d9fb58b25a396dc2ebc591bec9115d1eb9c722dd6cdfcc9be4144d39dc2c26858f8f89336001611e7b613755565b60408051908101859052600160a060020a0384166060820152821515608082015260a0810182905260c08082528851908201528751819060208083019160e08401918c019080838360005b83811015611ede578181015183820152602001611ec6565b50505050905090810190601f168015611f0b5780820380516001836020036101000a031916815260200191505b50838103825288815260200189898082843760405192018290039b50909950505050505050505050a3505050505050505050505050565b6000818152600960209081526040918290208054835181840281018401909452808452606093928301828280156118fb57602002820191906000526020600020905b8154600160a060020a03168152600190910190602001808311611f845750505050509050919050565b611fb5612aa6565b15611ff8576040805160e560020a62461bcd02815260206004820152600e6024820152600080516020615ca5833981519152604482015290519081900360640190fd5b6120006122c4565b600160a060020a0316331461204d576040805160e560020a62461bcd0281526020600482015260146024820152600080516020615ba5833981519152604482015290519081900360640190fd5b612066600080516020615ac58339815191526001614e99565b6040805142815290517f68b095021b1f40fe513109f513c66692f0b3219aee674a69f4efc57badb8201d9181900360200190a1565b6000806120a66122c4565b600160a060020a031633146120f3576040805160e560020a62461bcd0281526020600482015260146024820152600080516020615ba5833981519152604482015290519081900360640190fd5b600160a060020a0383161515612141576040805160e560020a62461bcd02815260206004820152600f6024820152600080516020615b65833981519152604482015290519081900360640190fd5b604080517f70a082310000000000000000000000000000000000000000000000000000000081523060048201529051849350600160a060020a038416916370a082319160248083019260209291908290030181600087803b1580156121a557600080fd5b505af11580156121b9573d6000803e3d6000fd5b505050506040513d60208110156121cf57600080fd5b50519050600160a060020a03821663a9059cbb6121ea6122c4565b836040518363ffffffff1660e060020a0281526004018083600160a060020a0316600160a060020a0316815260200182815260200192505050602060405180830381600087803b15801561223d57600080fd5b505af1158015612251573d6000803e3d6000fd5b505050506040513d602081101561226757600080fd5b505115156122bf576040805160e560020a62461bcd02815260206004820152600f60248201527f5472616e73666572206661696c65640000000000000000000000000000000000604482015290519081900360640190fd5b505050565b60006109c7600080516020615be5833981519152611907565b6060600060606000612327611a726040805190810160405280601581526020017f7365637572697479546f6b656e735f7469636b65720000000000000000000000815250876146a9565b85600160a060020a0316638da5cb5b6040518163ffffffff1660e060020a028152600401602060405180830381600087803b15801561236557600080fd5b505af1158015612379573d6000803e3d6000fd5b505050506040513d602081101561238f57600080fd5b505160408051808201909152601b81527f7365637572697479546f6b656e735f746f6b656e44657461696c73000000000060208201526123d390611a7290896146a9565b612415610b8e6040805190810160405280601981526020017f7365637572697479546f6b656e735f6465706c6f7965644174000000000000008152508a6146a9565b93509350935093509193509193565b60009081526004602052604090205460ff1690565b60606124436122c4565b600160a060020a03163314612490576040805160e560020a62461bcd0281526020600482015260146024820152600080516020615ba5833981519152604482015290519081900360640190fd5b6000871180156124a15750600a8711155b15156124e5576040805160e560020a62461bcd02815260206004820152601a6024820152600080516020615c85833981519152604482015290519081900360640190fd5b82158015906124f357508315155b1515612549576040805160e560020a62461bcd02815260206004820152601560248201527f44617465732073686f756c64206e6f7420626520300000000000000000000000604482015290519081900360640190fd5b828411156125c7576040805160e560020a62461bcd02815260206004820152602660248201527f526567697374726174696f6e20646174652073686f756c64203c20657870697260448201527f7920646174650000000000000000000000000000000000000000000000000000606482015290519081900360840190fd5b600160a060020a0389161515612615576040805160e560020a62461bcd02815260206004820152600f6024820152600080516020615b65833981519152604482015290519081900360640190fd5b61264e88888080601f016020809104026020016040519081016040528093929190818152602001838380828437506148fa945050505050565b9050612690898288888080601f016020809104026020016040519081016040528093929190818152602001838380828437820191505050505050878787614eb9565b505050505050505050565b60006126a56122c4565b600160a060020a031633146126f2576040805160e560020a62461bcd0281526020600482015260146024820152600080516020615ba5833981519152604482015290519081900360640190fd5b612709600080516020615ae58339815191526142da565b905081811415612763576040805160e560020a62461bcd02815260206004820152600f60248201527f466565206e6f74206368616e6765640000000000000000000000000000000000604482015290519081900360640190fd5b604080518281526020810184905281517f788dceb058391de5648d0deb9187656f8c46d3ee285c1077579adf642793f1f6929181900390910190a16109aa600080516020615ae583398151915283614697565b606060006127c26122c4565b600160a060020a0316331461280f576040805160e560020a62461bcd0281526020600482015260146024820152600080516020615ba5833981519152604482015290519081900360640190fd5b61284884848080601f016020809104026020016040519081016040528093929190818152602001838380828437506148fa945050505050565b915061285382614a6f565b9050600160a060020a03811615156128b5576040805160e560020a62461bcd02815260206004820152601460248201527f5469636b657220646f65736e2774206578697374000000000000000000000000604482015290519081900360640190fd5b6128bf8183614aa1565b6128f66128ef604080519081016040528060158152602001600080516020615c4583398151915281525084614547565b600061465c565b612917826000806000602060405190810160405280600081525060006150ba565b7f5854c55b609f5180d42245ffca3efcee6c5db8e73ea96e693d8667e0bcb4d470824233604051808060200184815260200183600160a060020a0316600160a060020a03168152602001828103825285818151815260200191508051906020019080838360005b8381101561299657818101518382015260200161297e565b50505050905090810190601f1680156129c35780820380516001836020036101000a031916815260200191505b5094505050505060405180910390a150505050565b60008181526001602081815260409283902080548451600260001995831615610100029590950190911693909304601f810183900483028401830190945283835260609390918301828280156118fb5780601f106118d0576101008083540402835291602001916118fb565b6000818152600760209081526040918290208054835181840281018401909452808452606093928301828280156118fb57602002820191906000526020600020905b81548152600190910190602001808311612a865750505050509050919050565b60006109c7600080516020615ac5833981519152612424565b60606000806000612ace6122c4565b600160a060020a031633600160a060020a031614156130f45760008a118015612af75750600088115b1515612b4d576040805160e560020a62461bcd02815260206004820152601160248201527f5469636b6572206c656e677468203e2030000000000000000000000000000000604482015290519081900360640190fd5b612b8689898080601f016020809104026020016040519081016040528093929190818152602001838380828437506148fa945050505050565b9350612bb5604080519081016040528060188152602001600080516020615bc583398151915281525085614547565b9250612bc083612424565b15612c15576040805160e560020a62461bcd02815260206004820152601060248201527f416c7265616479206465706c6f79656400000000000000000000000000000000604482015290519081900360640190fd5b612c20836001614e99565b33612c2a85614a6f565b600160a060020a031614612c76576040805160e560020a62461bcd02815260206004820152600e6024820152600080516020615cc5833981519152604482015290519081900360640190fd5b42612ca7610b8e6040805190810160405280601c8152602001600080516020615c6583398151915281525087614547565b1015612cfd576040805160e560020a62461bcd02815260206004820152601360248201527f5469636b65722067657473206578706972656400000000000000000000000000604482015290519081900360640190fd5b612d05613755565b91506000821115612e0457612d27600080516020615c25833981519152611907565b6040805160e060020a6323b872dd028152336004820152306024820152604481018590529051600160a060020a0392909216916323b872dd916064808201926020929091908290030181600087803b158015612d8257600080fd5b505af1158015612d96573d6000803e3d6000fd5b505050506040513d6020811015612dac57600080fd5b50511515612e04576040805160e560020a62461bcd02815260206004820152601660248201527f496e73756666696369656e7420616c6c6f77616e636500000000000000000000604482015290519081900360640190fd5b612e0c6142ec565b600160a060020a031663c85fd4f88c8c8760128c8c338d612e4c7f90eeab7c36075577c7cc5ff366e389fefa8a18289b949bab3529ab4471139d4d611907565b60405160e060020a63ffffffff8c1602815260ff87166044820152600160a060020a03808516608483015283151560a4830152821660c482015260e06004820190815260e482018a905290819060248101906064810190610104018d8d8082843790910185810384528c5181528c5160209182019250908d019080838360005b83811015612ee4578181015183820152602001612ecc565b50505050905090810190601f168015612f115780820380516001836020036101000a031916815260200191505b50848103825288815260200189898082843782019150509c50505050505050505050505050602060405180830381600087803b158015612f5057600080fd5b505af1158015612f64573d6000803e3d6000fd5b505050506040513d6020811015612f7a57600080fd5b5051604080516020601f8a01819004810282018101909252888152919250612fbd9183918791908b908b908190840183828082843750429450614fe29350505050565b612fed6109a4604080519081016040528060158152602001600080516020615c4583398151915281525086614547565b33600160a060020a031681600160a060020a03167f63d9fb58b25a396dc2ebc591bec9115d1eb9c722dd6cdfcc9be4144d39dc2c26868e8e423360008a60405180806020018060200187815260200186600160a060020a0316600160a060020a031681526020018515151515815260200184815260200183810383528a818151815260200191508051906020019080838360005b83811015613099578181015183820152602001613081565b50505050905090810190601f1680156130c65780820380516001836020036101000a031916815260200191505b50838103825288815260200189898082843760405192018290039b50909950505050505050505050a3613748565b6130fc612aa6565b1561313f576040805160e560020a62461bcd02815260206004820152600e6024820152600080516020615ca5833981519152604482015290519081900360640190fd5b60008a11801561314f5750600088115b15156131a5576040805160e560020a62461bcd02815260206004820152601160248201527f5469636b6572206c656e677468203e2030000000000000000000000000000000604482015290519081900360640190fd5b6131de89898080601f016020809104026020016040519081016040528093929190818152602001838380828437506148fa945050505050565b935061320d604080519081016040528060188152602001600080516020615bc583398151915281525085614547565b925061321883612424565b1561326d576040805160e560020a62461bcd02815260206004820152601060248201527f416c7265616479206465706c6f79656400000000000000000000000000000000604482015290519081900360640190fd5b613278836001614e99565b3361328285614a6f565b600160a060020a0316146132ce576040805160e560020a62461bcd02815260206004820152600e6024820152600080516020615cc5833981519152604482015290519081900360640190fd5b426132ff610b8e6040805190810160405280601c8152602001600080516020615c6583398151915281525087614547565b1015613355576040805160e560020a62461bcd02815260206004820152601360248201527f5469636b65722067657473206578706972656400000000000000000000000000604482015290519081900360640190fd5b61335d613755565b9150600082111561345c5761337f600080516020615c25833981519152611907565b6040805160e060020a6323b872dd028152336004820152306024820152604481018590529051600160a060020a0392909216916323b872dd916064808201926020929091908290030181600087803b1580156133da57600080fd5b505af11580156133ee573d6000803e3d6000fd5b505050506040513d602081101561340457600080fd5b5051151561345c576040805160e560020a62461bcd02815260206004820152601660248201527f496e73756666696369656e7420616c6c6f77616e636500000000000000000000604482015290519081900360640190fd5b6134646142ec565b600160a060020a031663c85fd4f88c8c8760128c8c338d6134a47f90eeab7c36075577c7cc5ff366e389fefa8a18289b949bab3529ab4471139d4d611907565b60405160e060020a63ffffffff8c1602815260ff87166044820152600160a060020a03808516608483015283151560a4830152821660c482015260e06004820190815260e482018a905290819060248101906064810190610104018d8d8082843790910185810384528c5181528c5160209182019250908d019080838360005b8381101561353c578181015183820152602001613524565b50505050905090810190601f1680156135695780820380516001836020036101000a031916815260200191505b50848103825288815260200189898082843782019150509c50505050505050505050505050602060405180830381600087803b1580156135a857600080fd5b505af11580156135bc573d6000803e3d6000fd5b505050506040513d60208110156135d257600080fd5b5051604080516020601f8a018190048102820181019092528881529192506136159183918791908b908b908190840183828082843750429450614fe29350505050565b6136456109a4604080519081016040528060158152602001600080516020615c4583398151915281525086614547565b33600160a060020a031681600160a060020a03167f63d9fb58b25a396dc2ebc591bec9115d1eb9c722dd6cdfcc9be4144d39dc2c26868e8e423360008a60405180806020018060200187815260200186600160a060020a0316600160a060020a031681526020018515151515815260200184815260200183810383528a818151815260200191508051906020019080838360005b838110156136f15781810151838201526020016136d9565b50505050905090810190601f16801561371e5780820380516001836020036101000a031916815260200191505b50838103825288815260200189898082843760405192018290039b50909950505050505050505050a35b5050505050505050505050565b60006109c7600080516020615b458339815191526142da565b6060600061377a6122c4565b600160a060020a031633600160a060020a03161415613aa5576137cc84848080601f016020809104026020016040519081016040528093929190818152602001838380828437506148fa945050505050565b9150600160a060020a038516151561381c576040805160e560020a62461bcd02815260206004820152600f6024820152600080516020615b65833981519152604482015290519081900360640190fd5b613849604080519081016040528060178152602001600080516020615b8583398151915281525083614547565b90503361385582611907565b600160a060020a0316146138a1576040805160e560020a62461bcd02815260206004820152600e6024820152600080516020615cc5833981519152604482015290519081900360640190fd5b6138aa826148bd565b156139d55784600160a060020a03166138e96114ef604080519081016040528060158152602001600080516020615c4583398151915281525085614547565b600160a060020a0316638da5cb5b6040518163ffffffff1660e060020a028152600401602060405180830381600087803b15801561392657600080fd5b505af115801561393a573d6000803e3d6000fd5b505050506040513d602081101561395057600080fd5b5051600160a060020a0316146139d5576040805160e560020a62461bcd028152602060048201526024808201527f4e6577206f776e657220646f6573206e6f74206d6174636820746f6b656e206f60448201527f776e657200000000000000000000000000000000000000000000000000000000606482015290519081900360840190fd5b6139df3383614aa1565b6139e98583615295565b6139f3818661465c565b84600160a060020a031633600160a060020a03167f44ee9de70a04c2a46889521de8968f79b4ae423f078fbaec8c492d821154729c846040518080602001828103825283818151815260200191508051906020019080838360005b83811015613a66578181015183820152602001613a4e565b50505050905090810190601f168015613a935780820380516001836020036101000a031916815260200191505b509250505060405180910390a3613dfe565b613aad612aa6565b15613af0576040805160e560020a62461bcd02815260206004820152600e6024820152600080516020615ca5833981519152604482015290519081900360640190fd5b613b2984848080601f016020809104026020016040519081016040528093929190818152602001838380828437506148fa945050505050565b9150600160a060020a0385161515613b79576040805160e560020a62461bcd02815260206004820152600f6024820152600080516020615b65833981519152604482015290519081900360640190fd5b613ba6604080519081016040528060178152602001600080516020615b8583398151915281525083614547565b905033613bb282611907565b600160a060020a031614613bfe576040805160e560020a62461bcd02815260206004820152600e6024820152600080516020615cc5833981519152604482015290519081900360640190fd5b613c07826148bd565b15613d325784600160a060020a0316613c466114ef604080519081016040528060158152602001600080516020615c4583398151915281525085614547565b600160a060020a0316638da5cb5b6040518163ffffffff1660e060020a028152600401602060405180830381600087803b158015613c8357600080fd5b505af1158015613c97573d6000803e3d6000fd5b505050506040513d6020811015613cad57600080fd5b5051600160a060020a031614613d32576040805160e560020a62461bcd028152602060048201526024808201527f4e6577206f776e657220646f6573206e6f74206d6174636820746f6b656e206f60448201527f776e657200000000000000000000000000000000000000000000000000000000606482015290519081900360840190fd5b613d3c3383614aa1565b613d468583615295565b613d50818661465c565b84600160a060020a031633600160a060020a03167f44ee9de70a04c2a46889521de8968f79b4ae423f078fbaec8c492d821154729c846040518080602001828103825283818151815260200191508051906020019080838360005b83811015613dc3578181015183820152602001613dab565b50505050905090810190601f168015613df05780820380516001836020036101000a031916815260200191505b509250505060405180910390a35b5050505050565b613e2e7f9ef7257c3339b099aacf96e55122ee78fb65a36bd2a6c19249882be9c98633bf612424565b15613e83576040805160e560020a62461bcd02815260206004820152601360248201527f616c726561647920696e697469616c697a656400000000000000000000000000604482015290519081900360640190fd5b600160a060020a03851615801590613ea35750600160a060020a03821615155b8015613eb75750600160a060020a03811615155b8015613ecb5750600160a060020a03861615155b1515613f0f576040805160e560020a62461bcd02815260206004820152600f6024820152600080516020615b65833981519152604482015290519081900360640190fd5b8315801590613f1d57508215155b1515613f73576040805160e560020a62461bcd02815260206004820152601460248201527f466565732073686f756c64206e6f742062652030000000000000000000000000604482015290519081900360640190fd5b613f8b600080516020615c258339815191528361465c565b613fa3600080516020615b4583398151915285614697565b613fbb600080516020615ae583398151915284614697565b613fd6600080516020615b25833981519152624f1a00614697565b613fef600080516020615ac58339815191526000614e99565b614007600080516020615be58339815191528261465c565b6140317f90eeab7c36075577c7cc5ff366e389fefa8a18289b949bab3529ab4471139d4d8761465c565b61403f8560026000806153d1565b61406a7f9ef7257c3339b099aacf96e55122ee78fb65a36bd2a6c19249882be9c98633bf6001614e99565b505050505050565b60408051808201909152601581527f7365637572697479546f6b656e735f7469636b6572000000000000000000000060208201526000907fc5d2460186f7233c927e7db2dcc703c0e500b653ca82273b7bfad8045d85a470906140d990611a7290856146a9565b6040518082805190602001908083835b602083106141085780518252601f1990920191602091820191016140e9565b5181516020939093036101000a60001901801990911692169190911790526040519201829003909120939093141595945050505050565b6141476122c4565b600160a060020a03163314614194576040805160e560020a62461bcd0281526020600482015260146024820152600080516020615ba5833981519152604482015290519081900360640190fd5b600160a060020a03841615156141f4576040805160e560020a62461bcd02815260206004820152601960248201527f30782061646472657373206973206e6f7420616c6c6f77656400000000000000604482015290519081900360640190fd5b614200848484846153d1565b50505050565b60006109c7600080516020615ae58339815191526142da565b6142276122c4565b600160a060020a03163314614274576040805160e560020a62461bcd0281526020600482015260146024820152600080516020615ba5833981519152604482015290519081900360640190fd5b600160a060020a03811615156142c2576040805160e560020a62461bcd02815260206004820152600f6024820152600080516020615b65833981519152604482015290519081900360640190fd5b610ae4600080516020615c258339815191528261465c565b60009081526020819052604090205490565b60006109c76114ef6040805190810160405280601181526020017f70726f746f636f6c56657273696f6e5354000000000000000000000000000000815250614359610b8e6040805190810160405280600d8152602001600080516020615b05833981519152815250614d2a565b61557b565b6143666122c4565b600160a060020a031633146143b3576040805160e560020a62461bcd0281526020600482015260146024820152600080516020615ba5833981519152604482015290519081900360640190fd5b600160a060020a0381161515614401576040805160e560020a62461bcd02815260206004820152600f6024820152600080516020615b65833981519152604482015290519081900360640190fd5b600160a060020a038116614422600080516020615be5833981519152611907565b600160a060020a03167f8be0079c531659141344cd1fd0a4f28419497f9722a3daafe3b4186f6b6457e060405160405180910390a3610ae4600080516020615be58339815191528261465c565b6000818152600860209081526040918290208054835181840281018401909452808452606093928301828280156118fb57602002820191906000526020600020905b8154815260200190600101908083116144b15750505050509050919050565b6000606061450d84848080601f016020809104026020016040519081016040528093929190818152602001838380828437506148fa945050505050565b905061453f6114ef604080519081016040528060158152602001600080516020615c4583398151915281525083614547565b949350505050565b600082826040516020018083805190602001908083835b6020831061457d5780518252601f19909201916020918201910161455e565b51815160209384036101000a600019018019909216911617905285519190930192850191508083835b602083106145c55780518252601f1990920191602091820191016145a6565b6001836020036101000a038019825116818451168082178552505050505050905001925050506040516020818303038152906040526040518082805190602001908083835b602083106146295780518252601f19909201916020918201910161460a565b5181516020939093036101000a600019018019909116921691909117905260405192018290039091209695505050505050565b600091825260026020526040909120805473ffffffffffffffffffffffffffffffffffffffff1916600160a060020a03909216919091179055565b60009182526020829052604090912055565b600082826040516020018083805190602001908083835b602083106146df5780518252601f1990920191602091820191016146c0565b6001836020036101000a03801982511681845116808217855250505050505090500182600160a060020a0316600160a060020a03166c0100000000000000000000000002815260140192505050604051602081830303815290604052604051808280519060200190808383602083106146295780518252601f19909201916020918201910161460a565b6040805160208082528183019092526060918291600091829182918591908082016104008038833901905050945060009350600092505b6020831015614815576008830260020a87029150600160f860020a031982161561480a578185858151811015156147d357fe5b9060200101907effffffffffffffffffffffffffffffffffffffffffffffffffffffffffffff1916908160001a9053506001909301925b6001909201916147a0565b836040519080825280601f01601f191660200182016040528015614843578160200160208202803883390190505b509050600092505b83831015610c9657848381518110151561486157fe5b90602001015160f860020a900460f860020a02818481518110151561488257fe5b9060200101907effffffffffffffffffffffffffffffffffffffffffffffffffffffffffffff1916908160001a90535060019092019161484b565b60006148f46148ef604080519081016040528060188152602001600080516020615bc583398151915281525084614547565b612424565b92915050565b6060816000805b82518210156149eb57828281518110151561491857fe5b016020015160f860020a908190040290507f6100000000000000000000000000000000000000000000000000000000000000600160f860020a031982161080159061498d57507f7a00000000000000000000000000000000000000000000000000000000000000600160f860020a0319821611155b156149a157601f1960f860020a9182900401025b8083838151811015156149b057fe5b9060200101907effffffffffffffffffffffffffffffffffffffffffffffffffffffffffffff1916908160001a905350600190910190614901565b50909392505050565b600080614a0083614a6f565b600160a060020a031614614a6757614a3e610b8e6040805190810160405280601c8152602001600080516020615c6583398151915281525084614547565b42118015614a525750614a50826148bd565b155b15614a5f5750600161096f565b50600061096f565b506001919050565b60006148f46114ef604080519081016040528060178152602001600080516020615b8583398151915281525084614547565b60008060606000614aea610b8e6040805190810160405280600b81526020017f7469636b6572496e64657800000000000000000000000000000000000000000081525087614547565b9350614b196040805190810160405280600d8152602001600080516020615c05833981519152815250876146a9565b9250614b2483612a44565b80519092508410614b3157fe5b85600160a060020a0316614b4486614a6f565b600160a060020a031614614b5457fe5b614b5e8385615612565b83614b6884612a44565b51111561406a57614b7883612a44565b805185908110614b8457fe5b90602001906020020151905061406a614bd56040805190810160405280600b81526020017f7469636b6572496e6465780000000000000000000000000000000000000000008152506114ea84614769565b85614697565b818101828110156148f457fe5b614bf28888615295565b614c00878987878a886150ba565b838589600160a060020a03167f2de60ed106ca2007f575a4a2ff327cdde9bf801386463689ccb784d8bd4685628a8a878760405180806020018060200185151515158152602001848152602001838103835287818151815260200191508051906020019080838360005b83811015614c82578181015183820152602001614c6a565b50505050905090810190601f168015614caf5780820380516001836020036101000a031916815260200191505b50838103825286518152865160209182019188019080838360005b83811015614ce2578181015183820152602001614cca565b50505050905090810190601f168015614d0f5780820380516001836020036101000a031916815260200191505b50965050505050505060405180910390a45050505050505050565b6000816040516020018082805190602001908083835b60208310614d5f5780518252601f199092019160209182019101614d40565b6001836020036101000a0380198251168184511680821785525050505050509050019150506040516020818303038152906040526040518082805190602001908083835b60208310614dc25780518252601f199092019160209182019101614da3565b5181516020939093036101000a6000190180199091169216919091179052604051920182900390912095945050505050565b6040805160038082526080820190925260609182919060208201838038833950508151919250506201000062ffffff8516049082906000908110614e3457fe5b60ff909216602092830290910190910152805161010062ffffff8516049082906001908110614e5f57fe5b60ff9092166020928302909101909101528051839082906002908110614e8157fe5b60ff9092166020928302909101909101529050919050565b600091825260046020526040909120805460ff1916911515919091179055565b6000614ec486614a6f565b9050600160a060020a03811615614edf57614edf8187614aa1565b614ee8866148bd565b8015614ef2575081155b15614f2757614f276128ef604080519081016040528060158152602001600080516020615c4583398151915281525088614547565b8115614fc7576000600160a060020a0316614f686114ef604080519081016040528060158152602001600080516020615c4583398151915281525089614547565b600160a060020a03161415614fc7576040805160e560020a62461bcd02815260206004820152601460248201527f546f6b656e206e6f742072656769737465726564000000000000000000000000604482015290519081900360640190fd5b614fd987878787878760016000614be8565b50505050505050565b61502a6150246040805190810160405280601581526020017f7365637572697479546f6b656e735f7469636b65720000000000000000000000815250866146a9565b846156e5565b61507261506c6040805190810160405280601b81526020017f7365637572697479546f6b656e735f746f6b656e44657461696c730000000000815250866146a9565b836156e5565b6142006150b46040805190810160405280601981526020017f7365637572697479546f6b656e735f6465706c6f796564417400000000000000815250866146a9565b82614697565b60006150e9604080519081016040528060178152602001600080516020615b8583398151915281525088614547565b905085600160a060020a03166150fe82611907565b600160a060020a03161461511657615116818761465c565b61517c606060405190810160405280602281526020017f726567697374657265645469636b6572735f726567697374726174696f6e446181526020017f746500000000000000000000000000000000000000000000000000000000000081525088614547565b905084615188826142da565b14615197576151978186614697565b6151c46040805190810160405280601c8152602001600080516020615c6583398151915281525088614547565b9050836151d0826142da565b146151df576151df8185614697565b61521e6040805190810160405280601b81526020017f726567697374657265645469636b6572735f746f6b656e4e616d65000000000081525088614547565b905061522983614d2a565b61523a615235836129d8565b614d2a565b146152495761524981846156e5565b615276604080519081016040528060188152602001600080516020615bc583398151915281525088614547565b905081151561528482612424565b151514614fd957614fd98183614e99565b60008060006152c76040805190810160405280600d8152602001600080516020615c05833981519152815250866146a9565b92506152d283612a44565b5191506152e7836152e286615704565b615711565b61532f6153296040805190810160405280600b81526020017f7469636b6572496e64657800000000000000000000000000000000000000000081525086614547565b83614697565b61536e6040805190810160405280600981526020017f7365656e55736572730000000000000000000000000000000000000000000000815250866146a9565b905061537981612424565b1515613dfe576153c66153c06040805190810160405280600b81526020017f6163746976655573657273000000000000000000000000000000000000000000815250614d2a565b86615734565b613dfe816001614e99565b60408051600380825260808201909252606091600091906020820184803883390190505091508482600081518110151561540757fe5b60ff909216602092830290910190910152815184908390600190811061542957fe5b60ff909216602092830290910190910152815183908390600290811061544b57fe5b60ff909216602092830290910190910152615467858585615780565b905061547a6154746112b3565b8361579b565b15156154d0576040805160e560020a62461bcd02815260206004820152601060248201527f496e2d76616c69642076657273696f6e00000000000000000000000000000000604482015290519081900360640190fd5b61550a6154ff6040805190810160405280600d8152602001600080516020615b05833981519152815250614d2a565b8262ffffff16614697565b61406a6155756040805190810160405280601181526020017f70726f746f636f6c56657273696f6e5354000000000000000000000000000000815250614359610b8e6040805190810160405280600d8152602001600080516020615b05833981519152815250614d2a565b8761465c565b600082826040516020018083805190602001908083835b602083106155b15780518252601f199092019160209182019101615592565b51815160001960209485036101000a019081169019919091161790529201938452506040805180850381529382019081905283519394509283925090840190808383602083106146295780518252601f19909201916020918201910161460a565b60008281526007602052604090208054821061569e576040805160e560020a62461bcd02815260206004820152602a60248201527f496e6465782073686f756c64206c657373207468616e206c656e677468206f6660448201527f2074686520617272617900000000000000000000000000000000000000000000606482015290519081900360840190fd5b8054819060001981019081106156b057fe5b906000526020600020015481838154811015156156c957fe5b6000918252602090912001558054600019016142008282615a08565b600082815260016020908152604090912082516122bf92840190615a2c565b60006148f48260006159ae565b600091825260076020908152604083208054600181018255908452922090910155565b6000918252600960209081526040832080546001810182559084529220909101805473ffffffffffffffffffffffffffffffffffffffff1916600160a060020a03909216919091179055565b60ff9081169181166101000292166201000002919091171790565b6000606060008085516040519080825280602002602001820160405280156157cd578160200160208202803883390190505b50925060009150600090505b85518160ff16101561587957848160ff168151811015156157f657fe5b9060200190602002015160ff16868260ff1681518110151561581457fe5b9060200190602002015160ff16101561584e576001838260ff1681518110151561583a57fe5b911515602092830290910190910152615871565b6000838260ff1681518110151561586157fe5b9115156020928302909101909101525b6001016157d9565b5060005b85518160ff1610156159945760ff8116151561591657848160ff168151811015156158a457fe5b9060200190602002015160ff16868260ff168151811015156158c257fe5b6020908102909101015160ff1611615908578260008151811015156158e357fe5b90602001906020020151156158fd57816003019150615994565b600190910190615911565b600093506159a5565b61598c565b826001820360ff1681518110151561592a57fe5b90602001906020020151156159445760019091019061598c565b848160ff1681518110151561595557fe5b9060200190602002015160ff16868260ff1681518110151561597357fe5b6020908102909101015160ff1611615908576001909101905b60010161587d565b85518260ff1614156159a557600193505b50505092915050565b600080805b8451811015615a005780600802858286018151811015156159d057fe5b60209101015160029190910a60f860020a91829004909102600160f860020a0319160491909117906001016159b3565b509392505050565b8154818355818111156122bf576000838152602090206122bf918101908301615aaa565b828054600181600116156101000203166002900490600052602060002090601f016020900481019282601f10615a6d57805160ff1916838001178555615a9a565b82800160010185558215615a9a579182015b82811115615a9a578251825591602001919060010190615a7f565b50615aa6929150615aaa565b5090565b6109ca91905b80821115615aa65760008155600101615ab05600ee35723ac350a69d2a92d3703f17439cbaadf2f093a21ba5bf5f1a53eb2a14d92fcc69711628630fb5a42566c68bd1092bc4aa26826736293969fddcd11cb2d26c617465737456657273696f6e00000000000000000000000000000000000000604268e9a73dfd777dcecb8a614493dd65c638bad2f5e7d709d378bd2fb0baeed677304bb45536bb7fdfa6b9e47a3c58fe413f9e8f01474b0a4b9c6e0275baf2496e76616c696420616464726573730000000000000000000000000000000000726567697374657265645469636b6572735f6f776e657200000000000000000073656e646572206d757374206265206f776e6572000000000000000000000000726567697374657265645469636b6572735f737461747573000000000000000002016836a56b71f0d02689e69e326f4f4c1b9057164ef592671cf0d37c8040c075736572546f5469636b65727300000000000000000000000000000000000000acf8fbd51bb4b83ba426cdb12f63be74db97c412515797993d2a385542e311d77469636b6572546f5365637572697479546f6b656e0000000000000000000000726567697374657265645469636b6572735f65787069727944617465000000005469636b6572206c656e6774682072616e67652028302c31305d000000000000416c7265616479207061757365640000000000000000000000000000000000004e6f7420617574686f7269736564000000000000000000000000000000000000a165627a7a7230582061edbc8431449e37637bdaab8a959c6585e152364d62090a4b95123420040fe70029",
  "source": "pragma solidity ^0.4.24;\n\nimport \"../SecurityTokenRegistry.sol\";\n\n/**\n * @title Registry contract for issuers to register their security tokens\n */\ncontract SecurityTokenRegistryMock is SecurityTokenRegistry {\n    \n    /// @notice It is a dummy function\n    /// Alert! Alert! Do not use it for the mainnet release\n    function changeTheDeployedAddress(string _ticker, address _newSecurityTokenAddress) public {\n        set(Encoder.getKey(\"tickerToSecurityToken\", _ticker), _newSecurityTokenAddress);\n    } \n    \n}\n",
  "sourcePath": "/Users/jere/Code/polymath-apps/packages/new-polymath-scripts/src/generateLocalBlockchain/contracts/mocks/SecurityTokenRegistryMock.sol",
  "compiler": {
    "name": "solc",
    "version": "0.4.24+commit.e67f0147.Emscripten.clang"
  },
  "schemaVersion": "2.0.1",
  "updatedAt": "2019-02-06T16:02:05.301Z"
}