{
  "contractName": "SecurityTokenRegistryProxy",
  "abi": [
    {
      "constant": false,
      "inputs": [],
      "name": "proxyOwner",
      "outputs": [
        {
          "name": "",
          "type": "address"
        }
      ],
      "payable": false,
      "stateMutability": "nonpayable",
      "type": "function"
    },
    {
      "constant": true,
      "inputs": [
        {
          "name": "_variable",
          "type": "bytes32"
        }
      ],
      "name": "getBytes32Value",
      "outputs": [
        {
          "name": "",
          "type": "bytes32"
        }
      ],
      "payable": false,
      "stateMutability": "view",
      "type": "function"
    },
    {
      "constant": true,
      "inputs": [
        {
          "name": "_variable",
          "type": "bytes32"
        }
      ],
      "name": "getBytesValue",
      "outputs": [
        {
          "name": "",
          "type": "bytes"
        }
      ],
      "payable": false,
      "stateMutability": "view",
      "type": "function"
    },
    {
      "constant": true,
      "inputs": [
        {
          "name": "_variable",
          "type": "bytes32"
        }
      ],
      "name": "getAddressValue",
      "outputs": [
        {
          "name": "",
          "type": "address"
        }
      ],
      "payable": false,
      "stateMutability": "view",
      "type": "function"
    },
    {
      "constant": false,
      "inputs": [],
      "name": "version",
      "outputs": [
        {
          "name": "",
          "type": "string"
        }
      ],
      "payable": false,
      "stateMutability": "nonpayable",
      "type": "function"
    },
    {
      "constant": false,
      "inputs": [
        {
          "name": "_newVersion",
          "type": "string"
        },
        {
          "name": "_newImplementation",
          "type": "address"
        }
      ],
      "name": "upgradeTo",
      "outputs": [],
      "payable": false,
      "stateMutability": "nonpayable",
      "type": "function"
    },
    {
      "constant": false,
      "inputs": [],
      "name": "implementation",
      "outputs": [
        {
          "name": "",
          "type": "address"
        }
      ],
      "payable": false,
      "stateMutability": "nonpayable",
      "type": "function"
    },
    {
      "constant": true,
      "inputs": [
        {
          "name": "_key",
          "type": "bytes32"
        }
      ],
      "name": "getArrayAddress",
      "outputs": [
        {
          "name": "",
          "type": "address[]"
        }
      ],
      "payable": false,
      "stateMutability": "view",
      "type": "function"
    },
    {
      "constant": true,
      "inputs": [
        {
          "name": "_variable",
          "type": "bytes32"
        }
      ],
      "name": "getBoolValue",
      "outputs": [
        {
          "name": "",
          "type": "bool"
        }
      ],
      "payable": false,
      "stateMutability": "view",
      "type": "function"
    },
    {
      "constant": false,
      "inputs": [
        {
          "name": "_newVersion",
          "type": "string"
        },
        {
          "name": "_newImplementation",
          "type": "address"
        },
        {
          "name": "_data",
          "type": "bytes"
        }
      ],
      "name": "upgradeToAndCall",
      "outputs": [],
      "payable": true,
      "stateMutability": "payable",
      "type": "function"
    },
    {
      "constant": true,
      "inputs": [
        {
          "name": "_variable",
          "type": "bytes32"
        }
      ],
      "name": "getStringValue",
      "outputs": [
        {
          "name": "",
          "type": "string"
        }
      ],
      "payable": false,
      "stateMutability": "view",
      "type": "function"
    },
    {
      "constant": true,
      "inputs": [
        {
          "name": "_key",
          "type": "bytes32"
        }
      ],
      "name": "getArrayBytes32",
      "outputs": [
        {
          "name": "",
          "type": "bytes32[]"
        }
      ],
      "payable": false,
      "stateMutability": "view",
      "type": "function"
    },
    {
      "constant": true,
      "inputs": [
        {
          "name": "_variable",
          "type": "bytes32"
        }
      ],
      "name": "getUintValue",
      "outputs": [
        {
          "name": "",
          "type": "uint256"
        }
      ],
      "payable": false,
      "stateMutability": "view",
      "type": "function"
    },
    {
      "constant": false,
      "inputs": [
        {
          "name": "_newOwner",
          "type": "address"
        }
      ],
      "name": "transferProxyOwnership",
      "outputs": [],
      "payable": false,
      "stateMutability": "nonpayable",
      "type": "function"
    },
    {
      "constant": true,
      "inputs": [
        {
          "name": "_key",
          "type": "bytes32"
        }
      ],
      "name": "getArrayUint",
      "outputs": [
        {
          "name": "",
          "type": "uint256[]"
        }
      ],
      "payable": false,
      "stateMutability": "view",
      "type": "function"
    },
    {
      "payable": true,
      "stateMutability": "payable",
      "type": "fallback"
    },
    {
      "anonymous": false,
      "inputs": [
        {
          "indexed": false,
          "name": "_previousOwner",
          "type": "address"
        },
        {
          "indexed": false,
          "name": "_newOwner",
          "type": "address"
        }
      ],
      "name": "ProxyOwnershipTransferred",
      "type": "event"
    },
    {
      "anonymous": false,
      "inputs": [
        {
          "indexed": false,
          "name": "_newVersion",
          "type": "string"
        },
        {
          "indexed": true,
          "name": "_newImplementation",
          "type": "address"
        }
      ],
      "name": "Upgraded",
      "type": "event"
    }
  ],
  "bytecode": "0x60806040526100163364010000000061001b810204565b6100b4565b600160a060020a038116151561009257604080517f08c379a000000000000000000000000000000000000000000000000000000000815260206004820152601860248201527f416464726573732073686f756c64206e6f742062652030780000000000000000604482015290519081900360640190fd5b600d8054600160a060020a031916600160a060020a0392909216919091179055565b610fe2806100c36000396000f3006080604052600436106100da5763ffffffff7c0100000000000000000000000000000000000000000000000000000000600035041663025313a281146100e4578063025ec81a1461011557806344bfa56e1461013f5780634c77e5ba146101cc57806354fd4d50146101e45780635a8b1a9f146101f95780635c60da1b146102275780636f3b8ce21461023c5780638ffa9690146102a4578063958a41dd146102d0578063a209a29c146102fc578063a8f0d3a714610314578063e82617fb1461032c578063f1739cae14610344578063f6fcbee114610365575b6100e261037d565b005b3480156100f057600080fd5b506100f961038f565b60408051600160a060020a039092168252519081900360200190f35b34801561012157600080fd5b5061012d6004356103cc565b60408051918252519081900360200190f35b34801561014b57600080fd5b506101576004356103de565b6040805160208082528351818301528351919283929083019185019080838360005b83811015610191578181015183820152602001610179565b50505050905090810190601f1680156101be5780820380516001836020036101000a031916815260200191505b509250505060405180910390f35b3480156101d857600080fd5b506100f960043561047f565b3480156101f057600080fd5b5061015761049a565b34801561020557600080fd5b506100e26024600480358281019291013590600160a060020a0390351661054f565b34801561023357600080fd5b506100f96105bd565b34801561024857600080fd5b506102546004356105e8565b60408051602080825283518183015283519192839290830191858101910280838360005b83811015610290578181015183820152602001610278565b505050509050019250505060405180910390f35b3480156102b057600080fd5b506102bc600435610653565b604080519115158252519081900360200190f35b6100e2602460048035828101929082013591600160a060020a0382351691604435908101910135610668565b34801561030857600080fd5b50610157600435610785565b34801561032057600080fd5b506102546004356107f1565b34801561033857600080fd5b5061012d600435610853565b34801561035057600080fd5b506100e2600160a060020a0360043516610865565b34801561037157600080fd5b5061025460043561094a565b61038d6103886109ab565b6109ba565b565b60006103996109de565b600160a060020a031633600160a060020a031614156103c1576103ba6109de565b90506103c9565b6103c961037d565b90565b60009081526006602052604090205490565b60008181526003602090815260409182902080548351601f60026101006001851615026000190190931692909204918201849004840281018401909452808452606093928301828280156104735780601f1061044857610100808354040283529160200191610473565b820191906000526020600020905b81548152906001019060200180831161045657829003601f168201915b50505050509050919050565b600090815260026020526040902054600160a060020a031690565b60606104a46109de565b600160a060020a031633600160a060020a031614156103c157600b805460408051602060026001851615610100026000190190941693909304601f810184900484028201840190925281815292918301828280156105435780601f1061051857610100808354040283529160200191610543565b820191906000526020600020905b81548152906001019060200180831161052657829003601f168201915b505050505090506103c9565b6105576109de565b600160a060020a031633600160a060020a031614156105b0576105ab83838080601f016020809104026020016040519081016040528093929190818152602001838380828437508794506109ed9350505050565b6105b8565b6105b861037d565b505050565b60006105c76109de565b600160a060020a031633600160a060020a031614156103c1576103ba6109ab565b60008181526009602090815260409182902080548351818402810184019094528084526060939283018282801561047357602002820191906000526020600020905b8154600160a060020a0316815260019091019060200180831161062a5750505050509050919050565b60009081526004602052604090205460ff1690565b6106706109de565b600160a060020a031633600160a060020a03161415610776576106c485858080601f016020809104026020016040519081016040528093929190818152602001838380828437508994506109ed9350505050565b30600160a060020a03163483836040518083838082843782019150509250505060006040518083038185875af1925050501515610771576040805160e560020a62461bcd02815260206004820152603960248201527f4661696c20696e20657865637574696e67207468652066756e6374696f6e206f60448201527f6620696d706c656d656e746174696f6e20636f6e747261637400000000000000606482015290519081900360840190fd5b61077e565b61077e61037d565b5050505050565b60008181526001602081815260409283902080548451600260001995831615610100029590950190911693909304601f810183900483028401830190945283835260609390918301828280156104735780601f1061044857610100808354040283529160200191610473565b60008181526007602090815260409182902080548351818402810184019094528084526060939283018282801561047357602002820191906000526020600020905b815481526001909101906020018083116108335750505050509050919050565b60009081526020819052604090205490565b61086d6109de565b600160a060020a031633600160a060020a0316141561093f57600160a060020a03811615156108e6576040805160e560020a62461bcd02815260206004820152601860248201527f416464726573732073686f756c64206e6f742062652030780000000000000000604482015290519081900360640190fd5b7f5a3e66efaa1e445ebd894728a69d6959842ea1e97bd79b892797106e270efcd961090f6109de565b60408051600160a060020a03928316815291841660208301528051918290030190a161093a81610e87565b610947565b61094761037d565b50565b60008181526008602090815260409182902080548351818402810184019094528084526060939283018282801561047357602002820191906000526020600020905b81548152602001906001019080831161098c5750505050509050919050565b600c54600160a060020a031690565b3660008037600080366000845af43d6000803e8080156109d9573d6000f35b3d6000fd5b600d54600160a060020a031690565b600c54600160a060020a03828116911614801590610a135750600160a060020a03811615155b1515610ab5576040805160e560020a62461bcd02815260206004820152604660248201527f4f6c642061646472657373206973206e6f7420616c6c6f77656420616e64206960448201527f6d706c656d656e746174696f6e20616464726573732073686f756c64206e6f7460648201527f2062652030780000000000000000000000000000000000000000000000000000608482015290519081900360a40190fd5b610abe81610f16565b1515610b3a576040805160e560020a62461bcd02815260206004820152603b60248201527f43616e6e6f742073657420612070726f787920696d706c656d656e746174696f60448201527f6e20746f2061206e6f6e2d636f6e747261637420616464726573730000000000606482015290519081900360840190fd5b8151600010610bb9576040805160e560020a62461bcd02815260206004820152602260248201527f56657273696f6e2073686f756c64206e6f7420626520656d707479207374726960448201527f6e67000000000000000000000000000000000000000000000000000000000000606482015290519081900360840190fd5b816040516020018082805190602001908083835b60208310610bec5780518252601f199092019160209182019101610bcd565b6001836020036101000a0380198251168184511680821785525050505050509050019150506040516020818303038152906040526040518082805190602001908083835b60208310610c4f5780518252601f199092019160209182019101610c30565b6001836020036101000a038019825116818451168082178552505050505050905001915050604051809103902060001916600b6040516020018082805460018160011615610100020316600290048015610ce05780601f10610cbe576101008083540402835291820191610ce0565b820191906000526020600020905b815481529060010190602001808311610ccc575b50509150506040516020818303038152906040526040518082805190602001908083835b60208310610d235780518252601f199092019160209182019101610d04565b6001836020036101000a03801982511681845116808217855250505050505090500191505060405180910390206000191614151515610dac576040805160e560020a62461bcd02815260206004820152601d60248201527f4e65772076657273696f6e20657175616c7320746f2063757272656e74000000604482015290519081900360640190fd5b8151610dbf90600b906020850190610f1e565b50600c805473ffffffffffffffffffffffffffffffffffffffff1916600160a060020a03831690811790915560408051602080825285518183015285517f8e05e0e35ff592971ca8b477d4285a33a61ded208d644042667b78693a472f5e938793928392918301919085019080838360005b83811015610e49578181015183820152602001610e31565b50505050905090810190601f168015610e765780820380516001836020036101000a031916815260200191505b509250505060405180910390a25050565b600160a060020a0381161515610ee7576040805160e560020a62461bcd02815260206004820152601860248201527f416464726573732073686f756c64206e6f742062652030780000000000000000604482015290519081900360640190fd5b600d805473ffffffffffffffffffffffffffffffffffffffff1916600160a060020a0392909216919091179055565b6000903b1190565b828054600181600116156101000203166002900490600052602060002090601f016020900481019282601f10610f5f57805160ff1916838001178555610f8c565b82800160010185558215610f8c579182015b82811115610f8c578251825591602001919060010190610f71565b50610f98929150610f9c565b5090565b6103c991905b80821115610f985760008155600101610fa25600a165627a7a72305820f37ddbe777f7642f9dae0c3a1c4e512945fa1941e14da10437e5af2ae426c2d90029",
  "source": "pragma solidity ^0.4.24;\n\nimport \"../storage/EternalStorage.sol\";\nimport \"./OwnedUpgradeabilityProxy.sol\";\n\n\n/**\n * @title SecurityTokenRegistryProxy\n * @dev This proxy holds the storage of the SecurityTokenRegistry contract and delegates every call to the current implementation set.\n * Besides, it allows to upgrade the SecurityTokenRegistry's behaviour towards further implementations, and provides basic\n * authorization control functionalities\n */\n/*solium-disable-next-line no-empty-blocks*/\ncontract SecurityTokenRegistryProxy is EternalStorage, OwnedUpgradeabilityProxy {\n\n}",
  "sourcePath": "/Users/jere/Code/polymath-apps/packages/new-polymath-scripts/src/generateLocalBlockchain/contracts/proxy/SecurityTokenRegistryProxy.sol",
  "compiler": {
    "name": "solc",
    "version": "0.4.24+commit.e67f0147.Emscripten.clang"
  },
  "schemaVersion": "2.0.1",
  "updatedAt": "2019-02-06T00:35:10.083Z"
}