{
  "contractName": "SecurityTokenRegistry",
  "abi": [
    {
      "constant": true,
      "inputs": [
        {
          "name": "_variable",
          "type": "bytes32"
        }
      ],
      "name": "getBytes32Value",
      "outputs": [
        {
          "name": "",
          "type": "bytes32"
        }
      ],
      "payable": false,
      "stateMutability": "view",
      "type": "function"
    },
    {
      "constant": true,
      "inputs": [
        {
          "name": "_variable",
          "type": "bytes32"
        }
      ],
      "name": "getBytesValue",
      "outputs": [
        {
          "name": "",
          "type": "bytes"
        }
      ],
      "payable": false,
      "stateMutability": "view",
      "type": "function"
    },
    {
      "constant": true,
      "inputs": [
        {
          "name": "_variable",
          "type": "bytes32"
        }
      ],
      "name": "getAddressValue",
      "outputs": [
        {
          "name": "",
          "type": "address"
        }
      ],
      "payable": false,
      "stateMutability": "view",
      "type": "function"
    },
    {
      "constant": true,
      "inputs": [
        {
          "name": "_key",
          "type": "bytes32"
        }
      ],
      "name": "getArrayAddress",
      "outputs": [
        {
          "name": "",
          "type": "address[]"
        }
      ],
      "payable": false,
      "stateMutability": "view",
      "type": "function"
    },
    {
      "constant": true,
      "inputs": [
        {
          "name": "_variable",
          "type": "bytes32"
        }
      ],
      "name": "getBoolValue",
      "outputs": [
        {
          "name": "",
          "type": "bool"
        }
      ],
      "payable": false,
      "stateMutability": "view",
      "type": "function"
    },
    {
      "constant": true,
      "inputs": [
        {
          "name": "_variable",
          "type": "bytes32"
        }
      ],
      "name": "getStringValue",
      "outputs": [
        {
          "name": "",
          "type": "string"
        }
      ],
      "payable": false,
      "stateMutability": "view",
      "type": "function"
    },
    {
      "constant": true,
      "inputs": [
        {
          "name": "_key",
          "type": "bytes32"
        }
      ],
      "name": "getArrayBytes32",
      "outputs": [
        {
          "name": "",
          "type": "bytes32[]"
        }
      ],
      "payable": false,
      "stateMutability": "view",
      "type": "function"
    },
    {
      "constant": true,
      "inputs": [
        {
          "name": "_variable",
          "type": "bytes32"
        }
      ],
      "name": "getUintValue",
      "outputs": [
        {
          "name": "",
          "type": "uint256"
        }
      ],
      "payable": false,
      "stateMutability": "view",
      "type": "function"
    },
    {
      "constant": true,
      "inputs": [
        {
          "name": "_key",
          "type": "bytes32"
        }
      ],
      "name": "getArrayUint",
      "outputs": [
        {
          "name": "",
          "type": "uint256[]"
        }
      ],
      "payable": false,
      "stateMutability": "view",
      "type": "function"
    },
    {
      "anonymous": false,
      "inputs": [
        {
          "indexed": false,
          "name": "_timestammp",
          "type": "uint256"
        }
      ],
      "name": "Pause",
      "type": "event"
    },
    {
      "anonymous": false,
      "inputs": [
        {
          "indexed": false,
          "name": "_timestamp",
          "type": "uint256"
        }
      ],
      "name": "Unpause",
      "type": "event"
    },
    {
      "anonymous": false,
      "inputs": [
        {
          "indexed": false,
          "name": "_ticker",
          "type": "string"
        },
        {
          "indexed": false,
          "name": "_removedAt",
          "type": "uint256"
        },
        {
          "indexed": false,
          "name": "_removedBy",
          "type": "address"
        }
      ],
      "name": "TickerRemoved",
      "type": "event"
    },
    {
      "anonymous": false,
      "inputs": [
        {
          "indexed": false,
          "name": "_oldExpiry",
          "type": "uint256"
        },
        {
          "indexed": false,
          "name": "_newExpiry",
          "type": "uint256"
        }
      ],
      "name": "ChangeExpiryLimit",
      "type": "event"
    },
    {
      "anonymous": false,
      "inputs": [
        {
          "indexed": false,
          "name": "_oldFee",
          "type": "uint256"
        },
        {
          "indexed": false,
          "name": "_newFee",
          "type": "uint256"
        }
      ],
      "name": "ChangeSecurityLaunchFee",
      "type": "event"
    },
    {
      "anonymous": false,
      "inputs": [
        {
          "indexed": false,
          "name": "_oldFee",
          "type": "uint256"
        },
        {
          "indexed": false,
          "name": "_newFee",
          "type": "uint256"
        }
      ],
      "name": "ChangeTickerRegistrationFee",
      "type": "event"
    },
    {
      "anonymous": false,
      "inputs": [
        {
          "indexed": true,
          "name": "previousOwner",
          "type": "address"
        },
        {
          "indexed": true,
          "name": "newOwner",
          "type": "address"
        }
      ],
      "name": "OwnershipTransferred",
      "type": "event"
    },
    {
      "anonymous": false,
      "inputs": [
        {
          "indexed": false,
          "name": "_ticker",
          "type": "string"
        },
        {
          "indexed": true,
          "name": "_oldOwner",
          "type": "address"
        },
        {
          "indexed": true,
          "name": "_newOwner",
          "type": "address"
        }
      ],
      "name": "ChangeTickerOwnership",
      "type": "event"
    },
    {
      "anonymous": false,
      "inputs": [
        {
          "indexed": false,
          "name": "_ticker",
          "type": "string"
        },
        {
          "indexed": false,
          "name": "_name",
          "type": "string"
        },
        {
          "indexed": true,
          "name": "_securityTokenAddress",
          "type": "address"
        },
        {
          "indexed": true,
          "name": "_owner",
          "type": "address"
        },
        {
          "indexed": false,
          "name": "_addedAt",
          "type": "uint256"
        },
        {
          "indexed": false,
          "name": "_registrant",
          "type": "address"
        },
        {
          "indexed": false,
          "name": "_fromAdmin",
          "type": "bool"
        },
        {
          "indexed": false,
          "name": "_registrationFee",
          "type": "uint256"
        }
      ],
      "name": "NewSecurityToken",
      "type": "event"
    },
    {
      "anonymous": false,
      "inputs": [
        {
          "indexed": true,
          "name": "_owner",
          "type": "address"
        },
        {
          "indexed": false,
          "name": "_ticker",
          "type": "string"
        },
        {
          "indexed": false,
          "name": "_name",
          "type": "string"
        },
        {
          "indexed": true,
          "name": "_registrationDate",
          "type": "uint256"
        },
        {
          "indexed": true,
          "name": "_expiryDate",
          "type": "uint256"
        },
        {
          "indexed": false,
          "name": "_fromAdmin",
          "type": "bool"
        },
        {
          "indexed": false,
          "name": "_registrationFee",
          "type": "uint256"
        }
      ],
      "name": "RegisterTicker",
      "type": "event"
    },
    {
      "constant": false,
      "inputs": [
        {
          "name": "_polymathRegistry",
          "type": "address"
        },
        {
          "name": "_STFactory",
          "type": "address"
        },
        {
          "name": "_stLaunchFee",
          "type": "uint256"
        },
        {
          "name": "_tickerRegFee",
          "type": "uint256"
        },
        {
          "name": "_polyToken",
          "type": "address"
        },
        {
          "name": "_owner",
          "type": "address"
        }
      ],
      "name": "initialize",
      "outputs": [],
      "payable": true,
      "stateMutability": "payable",
      "type": "function"
    },
    {
      "constant": false,
      "inputs": [
        {
          "name": "_owner",
          "type": "address"
        },
        {
          "name": "_ticker",
          "type": "string"
        },
        {
          "name": "_tokenName",
          "type": "string"
        }
      ],
      "name": "registerTicker",
      "outputs": [],
      "payable": false,
      "stateMutability": "nonpayable",
      "type": "function"
    },
    {
      "constant": false,
      "inputs": [
        {
          "name": "_owner",
          "type": "address"
        },
        {
          "name": "_ticker",
          "type": "string"
        },
        {
          "name": "_tokenName",
          "type": "string"
        },
        {
          "name": "_registrationDate",
          "type": "uint256"
        },
        {
          "name": "_expiryDate",
          "type": "uint256"
        },
        {
          "name": "_status",
          "type": "bool"
        }
      ],
      "name": "modifyTicker",
      "outputs": [],
      "payable": false,
      "stateMutability": "nonpayable",
      "type": "function"
    },
    {
      "constant": false,
      "inputs": [
        {
          "name": "_ticker",
          "type": "string"
        }
      ],
      "name": "removeTicker",
      "outputs": [],
      "payable": false,
      "stateMutability": "nonpayable",
      "type": "function"
    },
    {
      "constant": false,
      "inputs": [
        {
          "name": "_newOwner",
          "type": "address"
        },
        {
          "name": "_ticker",
          "type": "string"
        }
      ],
      "name": "transferTickerOwnership",
      "outputs": [],
      "payable": false,
      "stateMutability": "nonpayable",
      "type": "function"
    },
    {
      "constant": false,
      "inputs": [
        {
          "name": "_newExpiry",
          "type": "uint256"
        }
      ],
      "name": "changeExpiryLimit",
      "outputs": [],
      "payable": false,
      "stateMutability": "nonpayable",
      "type": "function"
    },
    {
      "constant": true,
      "inputs": [
        {
          "name": "_owner",
          "type": "address"
        }
      ],
      "name": "getTickersByOwner",
      "outputs": [
        {
          "name": "",
          "type": "bytes32[]"
        }
      ],
      "payable": false,
      "stateMutability": "view",
      "type": "function"
    },
    {
      "constant": true,
      "inputs": [
        {
          "name": "_owner",
          "type": "address"
        }
      ],
      "name": "getTokensByOwner",
      "outputs": [
        {
          "name": "",
          "type": "address[]"
        }
      ],
      "payable": false,
      "stateMutability": "view",
      "type": "function"
    },
    {
      "constant": true,
      "inputs": [
        {
          "name": "_ticker",
          "type": "string"
        }
      ],
      "name": "getTickerDetails",
      "outputs": [
        {
          "name": "",
          "type": "address"
        },
        {
          "name": "",
          "type": "uint256"
        },
        {
          "name": "",
          "type": "uint256"
        },
        {
          "name": "",
          "type": "string"
        },
        {
          "name": "",
          "type": "bool"
        }
      ],
      "payable": false,
      "stateMutability": "view",
      "type": "function"
    },
    {
      "constant": false,
      "inputs": [
        {
          "name": "_name",
          "type": "string"
        },
        {
          "name": "_ticker",
          "type": "string"
        },
        {
          "name": "_tokenDetails",
          "type": "string"
        },
        {
          "name": "_divisible",
          "type": "bool"
        }
      ],
      "name": "generateSecurityToken",
      "outputs": [],
      "payable": false,
      "stateMutability": "nonpayable",
      "type": "function"
    },
    {
      "constant": false,
      "inputs": [
        {
          "name": "_name",
          "type": "string"
        },
        {
          "name": "_ticker",
          "type": "string"
        },
        {
          "name": "_owner",
          "type": "address"
        },
        {
          "name": "_securityToken",
          "type": "address"
        },
        {
          "name": "_tokenDetails",
          "type": "string"
        },
        {
          "name": "_deployedAt",
          "type": "uint256"
        }
      ],
      "name": "modifySecurityToken",
      "outputs": [],
      "payable": false,
      "stateMutability": "nonpayable",
      "type": "function"
    },
    {
      "constant": true,
      "inputs": [
        {
          "name": "_securityToken",
          "type": "address"
        }
      ],
      "name": "isSecurityToken",
      "outputs": [
        {
          "name": "",
          "type": "bool"
        }
      ],
      "payable": false,
      "stateMutability": "view",
      "type": "function"
    },
    {
      "constant": true,
      "inputs": [
        {
          "name": "_ticker",
          "type": "string"
        }
      ],
      "name": "getSecurityTokenAddress",
      "outputs": [
        {
          "name": "",
          "type": "address"
        }
      ],
      "payable": false,
      "stateMutability": "view",
      "type": "function"
    },
    {
      "constant": true,
      "inputs": [
        {
          "name": "_securityToken",
          "type": "address"
        }
      ],
      "name": "getSecurityTokenData",
      "outputs": [
        {
          "name": "",
          "type": "string"
        },
        {
          "name": "",
          "type": "address"
        },
        {
          "name": "",
          "type": "string"
        },
        {
          "name": "",
          "type": "uint256"
        }
      ],
      "payable": false,
      "stateMutability": "view",
      "type": "function"
    },
    {
      "constant": false,
      "inputs": [
        {
          "name": "_newOwner",
          "type": "address"
        }
      ],
      "name": "transferOwnership",
      "outputs": [],
      "payable": false,
      "stateMutability": "nonpayable",
      "type": "function"
    },
    {
      "constant": false,
      "inputs": [],
      "name": "pause",
      "outputs": [],
      "payable": false,
      "stateMutability": "nonpayable",
      "type": "function"
    },
    {
      "constant": false,
      "inputs": [],
      "name": "unpause",
      "outputs": [],
      "payable": false,
      "stateMutability": "nonpayable",
      "type": "function"
    },
    {
      "constant": false,
      "inputs": [
        {
          "name": "_tickerRegFee",
          "type": "uint256"
        }
      ],
      "name": "changeTickerRegistrationFee",
      "outputs": [],
      "payable": false,
      "stateMutability": "nonpayable",
      "type": "function"
    },
    {
      "constant": false,
      "inputs": [
        {
          "name": "_stLaunchFee",
          "type": "uint256"
        }
      ],
      "name": "changeSecurityLaunchFee",
      "outputs": [],
      "payable": false,
      "stateMutability": "nonpayable",
      "type": "function"
    },
    {
      "constant": false,
      "inputs": [
        {
          "name": "_tokenContract",
          "type": "address"
        }
      ],
      "name": "reclaimERC20",
      "outputs": [],
      "payable": false,
      "stateMutability": "nonpayable",
      "type": "function"
    },
    {
      "constant": false,
      "inputs": [
        {
          "name": "_STFactoryAddress",
          "type": "address"
        },
        {
          "name": "_major",
          "type": "uint8"
        },
        {
          "name": "_minor",
          "type": "uint8"
        },
        {
          "name": "_patch",
          "type": "uint8"
        }
      ],
      "name": "setProtocolVersion",
      "outputs": [],
      "payable": false,
      "stateMutability": "nonpayable",
      "type": "function"
    },
    {
      "constant": true,
      "inputs": [],
      "name": "getSTFactoryAddress",
      "outputs": [
        {
          "name": "",
          "type": "address"
        }
      ],
      "payable": false,
      "stateMutability": "view",
      "type": "function"
    },
    {
      "constant": true,
      "inputs": [],
      "name": "getProtocolVersion",
      "outputs": [
        {
          "name": "",
          "type": "uint8[]"
        }
      ],
      "payable": false,
      "stateMutability": "view",
      "type": "function"
    },
    {
      "constant": false,
      "inputs": [
        {
          "name": "_newAddress",
          "type": "address"
        }
      ],
      "name": "updatePolyTokenAddress",
      "outputs": [],
      "payable": false,
      "stateMutability": "nonpayable",
      "type": "function"
    },
    {
      "constant": true,
      "inputs": [],
      "name": "getSecurityTokenLaunchFee",
      "outputs": [
        {
          "name": "",
          "type": "uint256"
        }
      ],
      "payable": false,
      "stateMutability": "view",
      "type": "function"
    },
    {
      "constant": true,
      "inputs": [],
      "name": "getTickerRegistrationFee",
      "outputs": [
        {
          "name": "",
          "type": "uint256"
        }
      ],
      "payable": false,
      "stateMutability": "view",
      "type": "function"
    },
    {
      "constant": true,
      "inputs": [],
      "name": "getExpiryLimit",
      "outputs": [
        {
          "name": "",
          "type": "uint256"
        }
      ],
      "payable": false,
      "stateMutability": "view",
      "type": "function"
    },
    {
      "constant": true,
      "inputs": [],
      "name": "isPaused",
      "outputs": [
        {
          "name": "",
          "type": "bool"
        }
      ],
      "payable": false,
      "stateMutability": "view",
      "type": "function"
    },
    {
      "constant": true,
      "inputs": [],
      "name": "owner",
      "outputs": [
        {
          "name": "",
          "type": "address"
        }
      ],
      "payable": false,
      "stateMutability": "view",
      "type": "function"
    }
  ],
  "bytecode": "0x608060405234801561001057600080fd5b50615c7180620000216000396000f3006080604052600436106101be5763ffffffff60e060020a600035041663025ec81a81146101c3578063165e694a146101ed578063208b080f1461020257806321c8ad0e1461021c578063321dff171461028d57806333ce93fe146102c65780633f4ba83a146102db57806340398d67146102f057806342c2e5511461031157806344bfa56e146103295780634c77e5ba146103b657806363808bcb146103ea5780636658076c146104b45780636f3b8ce2146105045780638456cb591461051c5780638905fd4f146105315780638da5cb5b146105525780638f9bbf16146105675780638ffa96901461064657806392042aee14610672578063959346ae146106b6578063972b3ab5146106ce578063a209a29c146106ee578063a8f0d3a714610706578063b187bd261461071e578063c37792b514610733578063c75948f514610770578063d0f6fe4214610785578063d2d10162146107b2578063d300a968146107e0578063d3623f9814610801578063e1ecae9e14610834578063e6ff950b14610849578063e82617fb1461086a578063ea47075814610882578063f2fde38b14610897578063f6fcbee1146108b8578063fb621f14146108d0575b600080fd5b3480156101cf57600080fd5b506101db6004356108f0565b60408051918252519081900360200190f35b3480156101f957600080fd5b506101db610905565b34801561020e57600080fd5b5061021a600435610924565b005b34801561022857600080fd5b5061023d600160a060020a0360043516610a3e565b60408051602080825283518183015283519192839290830191858101910280838360005b83811015610279578181015183820152602001610261565b505050509050019250505060405180910390f35b34801561029957600080fd5b5061021a60048035600160a060020a03169060248035808201929081013591604435908101910135610bf7565b3480156102d257600080fd5b5061023d61120a565b3480156102e757600080fd5b5061021a611243565b3480156102fc57600080fd5b5061023d600160a060020a0360043516611344565b34801561031d57600080fd5b5061021a6004356116a2565b34801561033557600080fd5b506103416004356117c1565b6040805160208082528351818301528351919283929083019185019080838360005b8381101561037b578181015183820152602001610363565b50505050905090810190601f1680156103a85780820380516001836020036101000a031916815260200191505b509250505060405180910390f35b3480156103c257600080fd5b506103ce600435611862565b60408051600160a060020a039092168252519081900360200190f35b3480156103f657600080fd5b5061040a600480356024810191013561187d565b6040518086600160a060020a0316600160a060020a031681526020018581526020018481526020018060200183151515158152602001828103825284818151815260200191508051906020019080838360005b8381101561047557818101518382015260200161045d565b50505050905090810190601f1680156104a25780820380516001836020036101000a031916815260200191505b50965050505050505060405180910390f35b3480156104c057600080fd5b5061021a6024600480358281019290820135918135808301929082013591600160a060020a036044358116926064359091169160843591820191013560a435611a0d565b34801561051057600080fd5b5061023d600435611e9d565b34801561052857600080fd5b5061021a611f08565b34801561053d57600080fd5b5061021a600160a060020a0360043516611ff6565b34801561055e57600080fd5b506103ce61221f565b34801561057357600080fd5b50610588600160a060020a0360043516612238565b604051808060200185600160a060020a0316600160a060020a0316815260200180602001848152602001838103835287818151815260200191508051906020019080838360005b838110156105e75781810151838201526020016105cf565b50505050905090810190601f1680156106145780820380516001836020036101000a031916815260200191505b50838103825285518152855160209182019187019080838360008381101561047557818101518382015260200161045d565b34801561065257600080fd5b5061065e60043561237f565b604080519115158252519081900360200190f35b34801561067e57600080fd5b5061021a60048035600160a060020a0316906024803580820192908101359160443590810191013560643560843560a4351515612394565b3480156106c257600080fd5b5061021a6004356125f6565b3480156106da57600080fd5b5061021a6004803560248101910135612711565b3480156106fa57600080fd5b50610341600435612933565b34801561071257600080fd5b5061023d60043561299f565b34801561072a57600080fd5b5061065e612a01565b34801561073f57600080fd5b5061021a60246004803582810192908201359181358083019290820135916044359182019101356064351515612a1a565b34801561077c57600080fd5b506101db6136b6565b34801561079157600080fd5b5061021a60048035600160a060020a031690602480359081019101356136cf565b61021a600160a060020a03600435811690602435811690604435906064359060843581169060a43516613d66565b3480156107ec57600080fd5b5061065e600160a060020a0360043516613fd3565b34801561080d57600080fd5b5061021a600160a060020a036004351660ff602435811690604435811690606435166140a0565b34801561084057600080fd5b506101db614167565b34801561085557600080fd5b5061021a600160a060020a0360043516614180565b34801561087657600080fd5b506101db60043561423b565b34801561088e57600080fd5b506103ce61424d565b3480156108a357600080fd5b5061021a600160a060020a03600435166142bf565b3480156108c457600080fd5b5061023d6004356143d0565b3480156108dc57600080fd5b506103ce6004803560248101910135614431565b6000818152600660205260409020545b919050565b600061091e600080516020615a8683398151915261423b565b90505b90565b61092c61221f565b600160a060020a03163314610979576040805160e560020a62461bcd0281526020600482015260146024820152600080516020615b06833981519152604482015290519081900360640190fd5b620151808110156109d4576040805160e560020a62461bcd02815260206004820152601660248201527f4578706972792073686f756c64203e3d20312064617900000000000000000000604482015290519081900360640190fd5b7f7e1cc0e69ee3b84fb62bbb71687d2565bbb8ad1771bb3e3cd15cbed424c833c8610a0c600080516020615a8683398151915261423b565b60408051918252602082018490528051918290030190a1610a3b600080516020615a86833981519152826144a8565b50565b606060006060600060608060009450610a82610a7d6040805190810160405280600d8152602001600080516020615b66833981519152815250896144ba565b61299f565b9350600092505b8351831015610b1257610ab28484815181101515610aa357fe5b906020019060200201516145ae565b915042610aea610ae56040805190810160405280601c8152602001600080516020615bc683398151915281525085614702565b61423b565b101580610afb5750610afb826147e3565b15610b07576001909401935b600190920191610a89565b84604051908082528060200260200182016040528015610b3c578160200160208202803883390190505b50905060009450600092505b8351831015610bed57610b628484815181101515610aa357fe5b915042610b95610ae56040805190810160405280601c8152602001600080516020615bc683398151915281525085614702565b101580610ba65750610ba6826147e3565b15610be2578383815181101515610bb957fe5b906020019060200201518186815181101515610bd157fe5b602090810290910101526001909401935b600190920191610b48565b9695505050505050565b600060606000610c0561221f565b600160a060020a031633600160a060020a03161415610ef757600160a060020a0388161515610c7e576040805160e560020a62461bcd02815260206004820152601660248201527f4f776e65722073686f756c64206e6f7420626520307800000000000000000000604482015290519081900360640190fd5b600086118015610c8f5750600a8611155b1515610cd3576040805160e560020a62461bcd02815260206004820152601a6024820152600080516020615be6833981519152604482015290519081900360640190fd5b610cdb614167565b92506000831115610dda57610cfd600080516020615b86833981519152611862565b6040805160e060020a6323b872dd028152336004820152306024820152604481018690529051600160a060020a0392909216916323b872dd916064808201926020929091908290030181600087803b158015610d5857600080fd5b505af1158015610d6c573d6000803e3d6000fd5b505050506040513d6020811015610d8257600080fd5b50511515610dda576040805160e560020a62461bcd02815260206004820152601560248201527f496e737566666963656e7420616c6c6f77616e63650000000000000000000000604482015290519081900360640190fd5b610e1387878080601f01602080910402602001604051908101604052809392919081815260200183838082843750614820945050505050565b9150610e1e8261491a565b1515610e74576040805160e560020a62461bcd02815260206004820152601260248201527f5469636b65722069732072657365727665640000000000000000000000000000604482015290519081900360640190fd5b610e7d82614995565b9050600160a060020a03811615610e9857610e9881836149c7565b610ef2888387878080601f01602080910402602001604051908101604052809392919081815260200183838082843782019150505050505042610ee9610edc610905565b429063ffffffff614b0116565b6000808a614b0e565b611200565b610eff612a01565b15610f42576040805160e560020a62461bcd02815260206004820152600e6024820152600080516020615c06833981519152604482015290519081900360640190fd5b600160a060020a0388161515610fa2576040805160e560020a62461bcd02815260206004820152601660248201527f4f776e65722073686f756c64206e6f7420626520307800000000000000000000604482015290519081900360640190fd5b600086118015610fb35750600a8611155b1515610ff7576040805160e560020a62461bcd02815260206004820152601a6024820152600080516020615be6833981519152604482015290519081900360640190fd5b610fff614167565b925060008311156110fe57611021600080516020615b86833981519152611862565b6040805160e060020a6323b872dd028152336004820152306024820152604481018690529051600160a060020a0392909216916323b872dd916064808201926020929091908290030181600087803b15801561107c57600080fd5b505af1158015611090573d6000803e3d6000fd5b505050506040513d60208110156110a657600080fd5b505115156110fe576040805160e560020a62461bcd02815260206004820152601560248201527f496e737566666963656e7420616c6c6f77616e63650000000000000000000000604482015290519081900360640190fd5b61113787878080601f01602080910402602001604051908101604052809392919081815260200183838082843750614820945050505050565b91506111428261491a565b1515611198576040805160e560020a62461bcd02815260206004820152601260248201527f5469636b65722069732072657365727665640000000000000000000000000000604482015290519081900360640190fd5b6111a182614995565b9050600160a060020a038116156111bc576111bc81836149c7565b611200888387878080601f01602080910402602001604051908101604052809392919081815260200183838082843782019150505050505042610ee9610edc610905565b5050505050505050565b606061091e61123e610ae56040805190810160405280600d8152602001600080516020615a66833981519152815250614c50565b614d1a565b61124b612a01565b15156112a1576040805160e560020a62461bcd02815260206004820152601460248201527f53686f756c64206e6f7420626520706175736564000000000000000000000000604482015290519081900360640190fd5b6112a961221f565b600160a060020a031633146112f6576040805160e560020a62461bcd0281526020600482015260146024820152600080516020615b06833981519152604482015290519081900360640190fd5b61130f600080516020615a268339815191526000614dbf565b6040805142815290517faaa520fdd7d2c83061d632fa017b0432407e798818af63ea908589fceda39ab79181900360200190a1565b6060806060600080600080600060606113996113946040805190810160405280600b81526020017f6163746976655573657273000000000000000000000000000000000000000000815250614c50565b611e9d565b9750600094508493508392505b87518410156114fc576113f6610a7d6040805190810160405280600d8152602001600080516020615b668339815191528152508a878151811015156113e757fe5b906020019060200201516144ba565b9650600092505b86518310156114f15761144b611446604080519081016040528060158152602001600080516020615ba68339815191528152506114418a87815181101515610aa357fe5b614702565b611862565b9550600160a060020a038616156114e65789600160a060020a031686600160a060020a0316638da5cb5b6040518163ffffffff1660e060020a028152600401602060405180830381600087803b1580156114a457600080fd5b505af11580156114b8573d6000803e3d6000fd5b505050506040513d60208110156114ce57600080fd5b5051600160a060020a031614156114e6578460010194505b6001909201916113fd565b6001909301926113a6565b600091508460405190808252806020026020018201604052801561152a578160200160208202803883390190505b509050600093505b875184101561169557611573610a7d6040805190810160405280600d8152602001600080516020615b668339815191528152508a878151811015156113e757fe5b9650600092505b865183101561168a576115be611446604080519081016040528060158152602001600080516020615ba68339815191528152506114418a87815181101515610aa357fe5b9550600160a060020a0386161561167f5789600160a060020a031686600160a060020a0316638da5cb5b6040518163ffffffff1660e060020a028152600401602060405180830381600087803b15801561161757600080fd5b505af115801561162b573d6000803e3d6000fd5b505050506040513d602081101561164157600080fd5b5051600160a060020a0316141561167f5785818381518110151561166157fe5b600160a060020a039092166020928302909101909101526001909101905b60019092019161157a565b600190930192611532565b9998505050505050505050565b60006116ac61221f565b600160a060020a031633146116f9576040805160e560020a62461bcd0281526020600482015260146024820152600080516020615b06833981519152604482015290519081900360640190fd5b611710600080516020615aa683398151915261423b565b90508181141561176a576040805160e560020a62461bcd02815260206004820152600f60248201527f466565206e6f74206368616e6765640000000000000000000000000000000000604482015290519081900360640190fd5b604080518281526020810184905281517f082ce758ae1784abd031015a0eac6700b941db0797e890ae7c4d326a5f8255c0929181900390910190a16117bd600080516020615aa6833981519152836144a8565b5050565b60008181526003602090815260409182902080548351601f60026101006001851615026000190190931692909204918201849004840281018401909452808452606093928301828280156118565780601f1061182b57610100808354040283529160200191611856565b820191906000526020600020905b81548152906001019060200180831161183957829003601f168201915b50505050509050919050565b600090815260026020526040902054600160a060020a031690565b60008060006060600060606000806118c48a8a8080601f01602080910402602001604051908101604052809392919081815260200183838082843750614820945050505050565b92506118cf836147e3565b9150611901610ae56040805190810160405280601c8152602001600080516020615bc683398151915281525085614702565b90506001821515148061191357504281115b156119e25761192183614995565b61198a610ae5606060405190810160405280602281526020017f726567697374657265645469636b6572735f726567697374726174696f6e446181526020017f746500000000000000000000000000000000000000000000000000000000000081525086614702565b826119d26119cd6040805190810160405280601b81526020017f726567697374657265645469636b6572735f746f6b656e4e616d65000000000081525088614702565b612933565b8597509750975097509750611a00565b60408051602081019091526000808252985088975087965094508593505b5050509295509295909350565b6060600080611a1a61221f565b600160a060020a03163314611a67576040805160e560020a62461bcd0281526020600482015260146024820152600080516020615b06833981519152604482015290519081900360640190fd5b60008b118015611a775750600089115b1515611acd576040805160e560020a62461bcd02815260206004820152601160248201527f537472696e67206c656e677468203e2030000000000000000000000000000000604482015290519081900360640190fd5b600a891115611b14576040805160e560020a62461bcd02815260206004820152601a6024820152600080516020615be6833981519152604482015290519081900360640190fd5b8315801590611b2b5750600160a060020a03881615155b1515611b81576040805160e560020a62461bcd02815260206004820152601a60248201527f302076616c756520706172616d73206e6f7420616c6c6f776564000000000000604482015290519081900360640190fd5b611bba8a8a8080601f01602080910402602001604051908101604052809392919081815260200183838082843750614820945050505050565b9250600160a060020a0387161515611c1c576040805160e560020a62461bcd02815260206004820152601060248201527f5354206164647265737320697320307800000000000000000000000000000000604482015290519081900360640190fd5b611c85610ae5606060405190810160405280602281526020017f726567697374657265645469636b6572735f726567697374726174696f6e446181526020017f746500000000000000000000000000000000000000000000000000000000000081525085614702565b9150611cb7610ae56040805190810160405280601c8152602001600080516020615bc683398151915281525085614702565b9050811515611cde57429150611cdb611cce610905565b839063ffffffff614b0116565b90505b611d14611d0e604080519081016040528060158152602001600080516020615ba683398151915281525085614702565b88614ddf565b611d5588848e8e8080601f01602080910402602001604051908101604052809392919081815260200183838082843782019150505050505085856001614e1a565b611d92878488888080601f016020809104026020016040519081016040528093929190818152602001838380828437508c9450614f439350505050565b87600160a060020a031687600160a060020a03167f63d9fb58b25a396dc2ebc591bec9115d1eb9c722dd6cdfcc9be4144d39dc2c26858f8f89336001611dd66136b6565b60408051908101859052600160a060020a0384166060820152821515608082015260a0810182905260c08082528851908201528751819060208083019160e08401918c019080838360005b83811015611e39578181015183820152602001611e21565b50505050905090810190601f168015611e665780820380516001836020036101000a031916815260200191505b50838103825288815260200189898082843760405192018290039b50909950505050505050505050a3505050505050505050505050565b60008181526009602090815260409182902080548351818402810184019094528084526060939283018282801561185657602002820191906000526020600020905b8154600160a060020a03168152600190910190602001808311611edf5750505050509050919050565b611f10612a01565b15611f53576040805160e560020a62461bcd02815260206004820152600e6024820152600080516020615c06833981519152604482015290519081900360640190fd5b611f5b61221f565b600160a060020a03163314611fa8576040805160e560020a62461bcd0281526020600482015260146024820152600080516020615b06833981519152604482015290519081900360640190fd5b611fc1600080516020615a268339815191526001614dbf565b6040805142815290517f68b095021b1f40fe513109f513c66692f0b3219aee674a69f4efc57badb8201d9181900360200190a1565b60008061200161221f565b600160a060020a0316331461204e576040805160e560020a62461bcd0281526020600482015260146024820152600080516020615b06833981519152604482015290519081900360640190fd5b600160a060020a038316151561209c576040805160e560020a62461bcd02815260206004820152600f6024820152600080516020615ac6833981519152604482015290519081900360640190fd5b604080517f70a082310000000000000000000000000000000000000000000000000000000081523060048201529051849350600160a060020a038416916370a082319160248083019260209291908290030181600087803b15801561210057600080fd5b505af1158015612114573d6000803e3d6000fd5b505050506040513d602081101561212a57600080fd5b50519050600160a060020a03821663a9059cbb61214561221f565b836040518363ffffffff1660e060020a0281526004018083600160a060020a0316600160a060020a0316815260200182815260200192505050602060405180830381600087803b15801561219857600080fd5b505af11580156121ac573d6000803e3d6000fd5b505050506040513d60208110156121c257600080fd5b5051151561221a576040805160e560020a62461bcd02815260206004820152600f60248201527f5472616e73666572206661696c65640000000000000000000000000000000000604482015290519081900360640190fd5b505050565b600061091e600080516020615b46833981519152611862565b60606000606060006122826119cd6040805190810160405280601581526020017f7365637572697479546f6b656e735f7469636b65720000000000000000000000815250876144ba565b85600160a060020a0316638da5cb5b6040518163ffffffff1660e060020a028152600401602060405180830381600087803b1580156122c057600080fd5b505af11580156122d4573d6000803e3d6000fd5b505050506040513d60208110156122ea57600080fd5b505160408051808201909152601b81527f7365637572697479546f6b656e735f746f6b656e44657461696c730000000000602082015261232e906119cd90896144ba565b612370610ae56040805190810160405280601981526020017f7365637572697479546f6b656e735f6465706c6f7965644174000000000000008152508a6144ba565b93509350935093509193509193565b60009081526004602052604090205460ff1690565b606061239e61221f565b600160a060020a031633146123eb576040805160e560020a62461bcd0281526020600482015260146024820152600080516020615b06833981519152604482015290519081900360640190fd5b6000871180156123fc5750600a8711155b1515612440576040805160e560020a62461bcd02815260206004820152601a6024820152600080516020615be6833981519152604482015290519081900360640190fd5b821580159061244e57508315155b15156124a4576040805160e560020a62461bcd02815260206004820152601560248201527f44617465732073686f756c64206e6f7420626520300000000000000000000000604482015290519081900360640190fd5b82841115612522576040805160e560020a62461bcd02815260206004820152602660248201527f526567697374726174696f6e20646174652073686f756c64203c20657870697260448201527f7920646174650000000000000000000000000000000000000000000000000000606482015290519081900360840190fd5b600160a060020a0389161515612570576040805160e560020a62461bcd02815260206004820152600f6024820152600080516020615ac6833981519152604482015290519081900360640190fd5b6125a988888080601f01602080910402602001604051908101604052809392919081815260200183838082843750614820945050505050565b90506125eb898288888080601f016020809104026020016040519081016040528093929190818152602001838380828437820191505050505050878787614e1a565b505050505050505050565b600061260061221f565b600160a060020a0316331461264d576040805160e560020a62461bcd0281526020600482015260146024820152600080516020615b06833981519152604482015290519081900360640190fd5b612664600080516020615a4683398151915261423b565b9050818114156126be576040805160e560020a62461bcd02815260206004820152600f60248201527f466565206e6f74206368616e6765640000000000000000000000000000000000604482015290519081900360640190fd5b604080518281526020810184905281517f788dceb058391de5648d0deb9187656f8c46d3ee285c1077579adf642793f1f6929181900390910190a16117bd600080516020615a46833981519152836144a8565b6060600061271d61221f565b600160a060020a0316331461276a576040805160e560020a62461bcd0281526020600482015260146024820152600080516020615b06833981519152604482015290519081900360640190fd5b6127a384848080601f01602080910402602001604051908101604052809392919081815260200183838082843750614820945050505050565b91506127ae82614995565b9050600160a060020a0381161515612810576040805160e560020a62461bcd02815260206004820152601460248201527f5469636b657220646f65736e2774206578697374000000000000000000000000604482015290519081900360640190fd5b61281a81836149c7565b61285161284a604080519081016040528060158152602001600080516020615ba683398151915281525084614702565b6000614ddf565b6128728260008060006020604051908101604052806000815250600061501b565b7f5854c55b609f5180d42245ffca3efcee6c5db8e73ea96e693d8667e0bcb4d470824233604051808060200184815260200183600160a060020a0316600160a060020a03168152602001828103825285818151815260200191508051906020019080838360005b838110156128f15781810151838201526020016128d9565b50505050905090810190601f16801561291e5780820380516001836020036101000a031916815260200191505b5094505050505060405180910390a150505050565b60008181526001602081815260409283902080548451600260001995831615610100029590950190911693909304601f810183900483028401830190945283835260609390918301828280156118565780601f1061182b57610100808354040283529160200191611856565b60008181526007602090815260409182902080548351818402810184019094528084526060939283018282801561185657602002820191906000526020600020905b815481526001909101906020018083116129e15750505050509050919050565b600061091e600080516020615a2683398151915261237f565b60606000806000612a2961221f565b600160a060020a031633600160a060020a031614156130555760008a118015612a525750600088115b1515612aa8576040805160e560020a62461bcd02815260206004820152601160248201527f5469636b6572206c656e677468203e2030000000000000000000000000000000604482015290519081900360640190fd5b612ae189898080601f01602080910402602001604051908101604052809392919081815260200183838082843750614820945050505050565b9350612b10604080519081016040528060188152602001600080516020615b2683398151915281525085614702565b9250612b1b8361237f565b15612b70576040805160e560020a62461bcd02815260206004820152601060248201527f416c7265616479206465706c6f79656400000000000000000000000000000000604482015290519081900360640190fd5b612b7b836001614dbf565b33612b8585614995565b600160a060020a031614612bd1576040805160e560020a62461bcd02815260206004820152600e6024820152600080516020615c26833981519152604482015290519081900360640190fd5b42612c02610ae56040805190810160405280601c8152602001600080516020615bc683398151915281525087614702565b1015612c58576040805160e560020a62461bcd02815260206004820152601360248201527f5469636b65722067657473206578706972656400000000000000000000000000604482015290519081900360640190fd5b612c606136b6565b91506000821115612d5f57612c82600080516020615b86833981519152611862565b6040805160e060020a6323b872dd028152336004820152306024820152604481018590529051600160a060020a0392909216916323b872dd916064808201926020929091908290030181600087803b158015612cdd57600080fd5b505af1158015612cf1573d6000803e3d6000fd5b505050506040513d6020811015612d0757600080fd5b50511515612d5f576040805160e560020a62461bcd02815260206004820152601660248201527f496e73756666696369656e7420616c6c6f77616e636500000000000000000000604482015290519081900360640190fd5b612d6761424d565b600160a060020a031663c85fd4f88c8c8760128c8c338d612da77f90eeab7c36075577c7cc5ff366e389fefa8a18289b949bab3529ab4471139d4d611862565b60405160e060020a63ffffffff8c1602815260ff87166044820152600160a060020a03808516608483015283151560a4830152821660c482015260e06004820190815260e482018a905290819060248101906064810190610104018d8d8082843790910185810384528c5181528c5160209182019250908d019080838360005b83811015612e3f578181015183820152602001612e27565b50505050905090810190601f168015612e6c5780820380516001836020036101000a031916815260200191505b50848103825288815260200189898082843782019150509c50505050505050505050505050602060405180830381600087803b158015612eab57600080fd5b505af1158015612ebf573d6000803e3d6000fd5b505050506040513d6020811015612ed557600080fd5b5051604080516020601f8a01819004810282018101909252888152919250612f189183918791908b908b908190840183828082843750429450614f439350505050565b612f4e612f48604080519081016040528060158152602001600080516020615ba683398151915281525086614702565b82614ddf565b33600160a060020a031681600160a060020a03167f63d9fb58b25a396dc2ebc591bec9115d1eb9c722dd6cdfcc9be4144d39dc2c26868e8e423360008a60405180806020018060200187815260200186600160a060020a0316600160a060020a031681526020018515151515815260200184815260200183810383528a818151815260200191508051906020019080838360005b83811015612ffa578181015183820152602001612fe2565b50505050905090810190601f1680156130275780820380516001836020036101000a031916815260200191505b50838103825288815260200189898082843760405192018290039b50909950505050505050505050a36136a9565b61305d612a01565b156130a0576040805160e560020a62461bcd02815260206004820152600e6024820152600080516020615c06833981519152604482015290519081900360640190fd5b60008a1180156130b05750600088115b1515613106576040805160e560020a62461bcd02815260206004820152601160248201527f5469636b6572206c656e677468203e2030000000000000000000000000000000604482015290519081900360640190fd5b61313f89898080601f01602080910402602001604051908101604052809392919081815260200183838082843750614820945050505050565b935061316e604080519081016040528060188152602001600080516020615b2683398151915281525085614702565b92506131798361237f565b156131ce576040805160e560020a62461bcd02815260206004820152601060248201527f416c7265616479206465706c6f79656400000000000000000000000000000000604482015290519081900360640190fd5b6131d9836001614dbf565b336131e385614995565b600160a060020a03161461322f576040805160e560020a62461bcd02815260206004820152600e6024820152600080516020615c26833981519152604482015290519081900360640190fd5b42613260610ae56040805190810160405280601c8152602001600080516020615bc683398151915281525087614702565b10156132b6576040805160e560020a62461bcd02815260206004820152601360248201527f5469636b65722067657473206578706972656400000000000000000000000000604482015290519081900360640190fd5b6132be6136b6565b915060008211156133bd576132e0600080516020615b86833981519152611862565b6040805160e060020a6323b872dd028152336004820152306024820152604481018590529051600160a060020a0392909216916323b872dd916064808201926020929091908290030181600087803b15801561333b57600080fd5b505af115801561334f573d6000803e3d6000fd5b505050506040513d602081101561336557600080fd5b505115156133bd576040805160e560020a62461bcd02815260206004820152601660248201527f496e73756666696369656e7420616c6c6f77616e636500000000000000000000604482015290519081900360640190fd5b6133c561424d565b600160a060020a031663c85fd4f88c8c8760128c8c338d6134057f90eeab7c36075577c7cc5ff366e389fefa8a18289b949bab3529ab4471139d4d611862565b60405160e060020a63ffffffff8c1602815260ff87166044820152600160a060020a03808516608483015283151560a4830152821660c482015260e06004820190815260e482018a905290819060248101906064810190610104018d8d8082843790910185810384528c5181528c5160209182019250908d019080838360005b8381101561349d578181015183820152602001613485565b50505050905090810190601f1680156134ca5780820380516001836020036101000a031916815260200191505b50848103825288815260200189898082843782019150509c50505050505050505050505050602060405180830381600087803b15801561350957600080fd5b505af115801561351d573d6000803e3d6000fd5b505050506040513d602081101561353357600080fd5b5051604080516020601f8a018190048102820181019092528881529192506135769183918791908b908b908190840183828082843750429450614f439350505050565b6135a6612f48604080519081016040528060158152602001600080516020615ba683398151915281525086614702565b33600160a060020a031681600160a060020a03167f63d9fb58b25a396dc2ebc591bec9115d1eb9c722dd6cdfcc9be4144d39dc2c26868e8e423360008a60405180806020018060200187815260200186600160a060020a0316600160a060020a031681526020018515151515815260200184815260200183810383528a818151815260200191508051906020019080838360005b8381101561365257818101518382015260200161363a565b50505050905090810190601f16801561367f5780820380516001836020036101000a031916815260200191505b50838103825288815260200189898082843760405192018290039b50909950505050505050505050a35b5050505050505050505050565b600061091e600080516020615aa683398151915261423b565b606060006136db61221f565b600160a060020a031633600160a060020a03161415613a065761372d84848080601f01602080910402602001604051908101604052809392919081815260200183838082843750614820945050505050565b9150600160a060020a038516151561377d576040805160e560020a62461bcd02815260206004820152600f6024820152600080516020615ac6833981519152604482015290519081900360640190fd5b6137aa604080519081016040528060178152602001600080516020615ae683398151915281525083614702565b9050336137b682611862565b600160a060020a031614613802576040805160e560020a62461bcd02815260206004820152600e6024820152600080516020615c26833981519152604482015290519081900360640190fd5b61380b826147e3565b156139365784600160a060020a031661384a611446604080519081016040528060158152602001600080516020615ba683398151915281525085614702565b600160a060020a0316638da5cb5b6040518163ffffffff1660e060020a028152600401602060405180830381600087803b15801561388757600080fd5b505af115801561389b573d6000803e3d6000fd5b505050506040513d60208110156138b157600080fd5b5051600160a060020a031614613936576040805160e560020a62461bcd028152602060048201526024808201527f4e6577206f776e657220646f6573206e6f74206d6174636820746f6b656e206f60448201527f776e657200000000000000000000000000000000000000000000000000000000606482015290519081900360840190fd5b61394033836149c7565b61394a85836151f6565b6139548186614ddf565b84600160a060020a031633600160a060020a03167f44ee9de70a04c2a46889521de8968f79b4ae423f078fbaec8c492d821154729c846040518080602001828103825283818151815260200191508051906020019080838360005b838110156139c75781810151838201526020016139af565b50505050905090810190601f1680156139f45780820380516001836020036101000a031916815260200191505b509250505060405180910390a3613d5f565b613a0e612a01565b15613a51576040805160e560020a62461bcd02815260206004820152600e6024820152600080516020615c06833981519152604482015290519081900360640190fd5b613a8a84848080601f01602080910402602001604051908101604052809392919081815260200183838082843750614820945050505050565b9150600160a060020a0385161515613ada576040805160e560020a62461bcd02815260206004820152600f6024820152600080516020615ac6833981519152604482015290519081900360640190fd5b613b07604080519081016040528060178152602001600080516020615ae683398151915281525083614702565b905033613b1382611862565b600160a060020a031614613b5f576040805160e560020a62461bcd02815260206004820152600e6024820152600080516020615c26833981519152604482015290519081900360640190fd5b613b68826147e3565b15613c935784600160a060020a0316613ba7611446604080519081016040528060158152602001600080516020615ba683398151915281525085614702565b600160a060020a0316638da5cb5b6040518163ffffffff1660e060020a028152600401602060405180830381600087803b158015613be457600080fd5b505af1158015613bf8573d6000803e3d6000fd5b505050506040513d6020811015613c0e57600080fd5b5051600160a060020a031614613c93576040805160e560020a62461bcd028152602060048201526024808201527f4e6577206f776e657220646f6573206e6f74206d6174636820746f6b656e206f60448201527f776e657200000000000000000000000000000000000000000000000000000000606482015290519081900360840190fd5b613c9d33836149c7565b613ca785836151f6565b613cb18186614ddf565b84600160a060020a031633600160a060020a03167f44ee9de70a04c2a46889521de8968f79b4ae423f078fbaec8c492d821154729c846040518080602001828103825283818151815260200191508051906020019080838360005b83811015613d24578181015183820152602001613d0c565b50505050905090810190601f168015613d515780820380516001836020036101000a031916815260200191505b509250505060405180910390a35b5050505050565b613d8f7f9ef7257c3339b099aacf96e55122ee78fb65a36bd2a6c19249882be9c98633bf61237f565b15613de4576040805160e560020a62461bcd02815260206004820152601360248201527f616c726561647920696e697469616c697a656400000000000000000000000000604482015290519081900360640190fd5b600160a060020a03851615801590613e045750600160a060020a03821615155b8015613e185750600160a060020a03811615155b8015613e2c5750600160a060020a03861615155b1515613e70576040805160e560020a62461bcd02815260206004820152600f6024820152600080516020615ac6833981519152604482015290519081900360640190fd5b8315801590613e7e57508215155b1515613ed4576040805160e560020a62461bcd02815260206004820152601460248201527f466565732073686f756c64206e6f742062652030000000000000000000000000604482015290519081900360640190fd5b613eec600080516020615b8683398151915283614ddf565b613f04600080516020615aa6833981519152856144a8565b613f1c600080516020615a46833981519152846144a8565b613f37600080516020615a86833981519152624f1a006144a8565b613f50600080516020615a268339815191526000614dbf565b613f68600080516020615b4683398151915282614ddf565b613f927f90eeab7c36075577c7cc5ff366e389fefa8a18289b949bab3529ab4471139d4d87614ddf565b613fa0856002600080615332565b613fcb7f9ef7257c3339b099aacf96e55122ee78fb65a36bd2a6c19249882be9c98633bf6001614dbf565b505050505050565b60408051808201909152601581527f7365637572697479546f6b656e735f7469636b6572000000000000000000000060208201526000907fc5d2460186f7233c927e7db2dcc703c0e500b653ca82273b7bfad8045d85a4709061403a906119cd90856144ba565b6040518082805190602001908083835b602083106140695780518252601f19909201916020918201910161404a565b5181516020939093036101000a60001901801990911692169190911790526040519201829003909120939093141595945050505050565b6140a861221f565b600160a060020a031633146140f5576040805160e560020a62461bcd0281526020600482015260146024820152600080516020615b06833981519152604482015290519081900360640190fd5b600160a060020a0384161515614155576040805160e560020a62461bcd02815260206004820152601960248201527f30782061646472657373206973206e6f7420616c6c6f77656400000000000000604482015290519081900360640190fd5b61416184848484615332565b50505050565b600061091e600080516020615a4683398151915261423b565b61418861221f565b600160a060020a031633146141d5576040805160e560020a62461bcd0281526020600482015260146024820152600080516020615b06833981519152604482015290519081900360640190fd5b600160a060020a0381161515614223576040805160e560020a62461bcd02815260206004820152600f6024820152600080516020615ac6833981519152604482015290519081900360640190fd5b610a3b600080516020615b8683398151915282614ddf565b60009081526020819052604090205490565b600061091e6114466040805190810160405280601181526020017f70726f746f636f6c56657273696f6e53540000000000000000000000000000008152506142ba610ae56040805190810160405280600d8152602001600080516020615a66833981519152815250614c50565b6154dc565b6142c761221f565b600160a060020a03163314614314576040805160e560020a62461bcd0281526020600482015260146024820152600080516020615b06833981519152604482015290519081900360640190fd5b600160a060020a0381161515614362576040805160e560020a62461bcd02815260206004820152600f6024820152600080516020615ac6833981519152604482015290519081900360640190fd5b600160a060020a038116614383600080516020615b46833981519152611862565b600160a060020a03167f8be0079c531659141344cd1fd0a4f28419497f9722a3daafe3b4186f6b6457e060405160405180910390a3610a3b600080516020615b4683398151915282614ddf565b60008181526008602090815260409182902080548351818402810184019094528084526060939283018282801561185657602002820191906000526020600020905b8154815260200190600101908083116144125750505050509050919050565b6000606061446e84848080601f01602080910402602001604051908101604052809392919081815260200183838082843750614820945050505050565b90506144a0611446604080519081016040528060158152602001600080516020615ba683398151915281525083614702565b949350505050565b60009182526020829052604090912055565b600082826040516020018083805190602001908083835b602083106144f05780518252601f1990920191602091820191016144d1565b6001836020036101000a03801982511681845116808217855250505050505090500182600160a060020a0316600160a060020a03166c01000000000000000000000000028152601401925050506040516020818303038152906040526040518082805190602001908083835b6020831061457b5780518252601f19909201916020918201910161455c565b5181516020939093036101000a600019018019909116921691909117905260405192018290039091209695505050505050565b6040805160208082528183019092526060918291600091829182918591908082016104008038833901905050945060009350600092505b602083101561465a576008830260020a87029150600160f860020a031982161561464f5781858581518110151561461857fe5b9060200101907effffffffffffffffffffffffffffffffffffffffffffffffffffffffffffff1916908160001a9053506001909301925b6001909201916145e5565b836040519080825280601f01601f191660200182016040528015614688578160200160208202803883390190505b509050600092505b83831015610bed5784838151811015156146a657fe5b90602001015160f860020a900460f860020a0281848151811015156146c757fe5b9060200101907effffffffffffffffffffffffffffffffffffffffffffffffffffffffffffff1916908160001a905350600190920191614690565b600082826040516020018083805190602001908083835b602083106147385780518252601f199092019160209182019101614719565b51815160209384036101000a600019018019909216911617905285519190930192850191508083835b602083106147805780518252601f199092019160209182019101614761565b6001836020036101000a038019825116818451168082178552505050505050905001925050506040516020818303038152906040526040518082805190602001908083836020831061457b5780518252601f19909201916020918201910161455c565b600061481a614815604080519081016040528060188152602001600080516020615b2683398151915281525084614702565b61237f565b92915050565b6060816000805b825182101561491157828281518110151561483e57fe5b016020015160f860020a908190040290507f6100000000000000000000000000000000000000000000000000000000000000600160f860020a03198216108015906148b357507f7a00000000000000000000000000000000000000000000000000000000000000600160f860020a0319821611155b156148c757601f1960f860020a9182900401025b8083838151811015156148d657fe5b9060200101907effffffffffffffffffffffffffffffffffffffffffffffffffffffffffffff1916908160001a905350600190910190614827565b50909392505050565b60008061492683614995565b600160a060020a03161461498d57614964610ae56040805190810160405280601c8152602001600080516020615bc683398151915281525084614702565b421180156149785750614976826147e3565b155b1561498557506001610900565b506000610900565b506001919050565b600061481a611446604080519081016040528060178152602001600080516020615ae683398151915281525084614702565b60008060606000614a10610ae56040805190810160405280600b81526020017f7469636b6572496e64657800000000000000000000000000000000000000000081525087614702565b9350614a3f6040805190810160405280600d8152602001600080516020615b66833981519152815250876144ba565b9250614a4a8361299f565b80519092508410614a5757fe5b85600160a060020a0316614a6a86614995565b600160a060020a031614614a7a57fe5b614a848385615573565b83614a8e8461299f565b511115613fcb57614a9e8361299f565b805185908110614aaa57fe5b906020019060200201519050613fcb614afb6040805190810160405280600b81526020017f7469636b6572496e646578000000000000000000000000000000000000000000815250611441846145ae565b856144a8565b8181018281101561481a57fe5b614b1888886151f6565b614b26878987878a8861501b565b838589600160a060020a03167f2de60ed106ca2007f575a4a2ff327cdde9bf801386463689ccb784d8bd4685628a8a878760405180806020018060200185151515158152602001848152602001838103835287818151815260200191508051906020019080838360005b83811015614ba8578181015183820152602001614b90565b50505050905090810190601f168015614bd55780820380516001836020036101000a031916815260200191505b50838103825286518152865160209182019188019080838360005b83811015614c08578181015183820152602001614bf0565b50505050905090810190601f168015614c355780820380516001836020036101000a031916815260200191505b50965050505050505060405180910390a45050505050505050565b6000816040516020018082805190602001908083835b60208310614c855780518252601f199092019160209182019101614c66565b6001836020036101000a0380198251168184511680821785525050505050509050019150506040516020818303038152906040526040518082805190602001908083835b60208310614ce85780518252601f199092019160209182019101614cc9565b5181516020939093036101000a6000190180199091169216919091179052604051920182900390912095945050505050565b6040805160038082526080820190925260609182919060208201838038833950508151919250506201000062ffffff8516049082906000908110614d5a57fe5b60ff909216602092830290910190910152805161010062ffffff8516049082906001908110614d8557fe5b60ff9092166020928302909101909101528051839082906002908110614da757fe5b60ff9092166020928302909101909101529050919050565b600091825260046020526040909120805460ff1916911515919091179055565b600091825260026020526040909120805473ffffffffffffffffffffffffffffffffffffffff1916600160a060020a03909216919091179055565b6000614e2586614995565b9050600160a060020a03811615614e4057614e4081876149c7565b614e49866147e3565b8015614e53575081155b15614e8857614e8861284a604080519081016040528060158152602001600080516020615ba683398151915281525088614702565b8115614f28576000600160a060020a0316614ec9611446604080519081016040528060158152602001600080516020615ba683398151915281525089614702565b600160a060020a03161415614f28576040805160e560020a62461bcd02815260206004820152601460248201527f546f6b656e206e6f742072656769737465726564000000000000000000000000604482015290519081900360640190fd5b614f3a87878787878760016000614b0e565b50505050505050565b614f8b614f856040805190810160405280601581526020017f7365637572697479546f6b656e735f7469636b65720000000000000000000000815250866144ba565b84615646565b614fd3614fcd6040805190810160405280601b81526020017f7365637572697479546f6b656e735f746f6b656e44657461696c730000000000815250866144ba565b83615646565b6141616150156040805190810160405280601981526020017f7365637572697479546f6b656e735f6465706c6f796564417400000000000000815250866144ba565b826144a8565b600061504a604080519081016040528060178152602001600080516020615ae683398151915281525088614702565b905085600160a060020a031661505f82611862565b600160a060020a031614615077576150778187614ddf565b6150dd606060405190810160405280602281526020017f726567697374657265645469636b6572735f726567697374726174696f6e446181526020017f746500000000000000000000000000000000000000000000000000000000000081525088614702565b9050846150e98261423b565b146150f8576150f881866144a8565b6151256040805190810160405280601c8152602001600080516020615bc683398151915281525088614702565b9050836151318261423b565b146151405761514081856144a8565b61517f6040805190810160405280601b81526020017f726567697374657265645469636b6572735f746f6b656e4e616d65000000000081525088614702565b905061518a83614c50565b61519b61519683612933565b614c50565b146151aa576151aa8184615646565b6151d7604080519081016040528060188152602001600080516020615b2683398151915281525088614702565b90508115156151e58261237f565b151514614f3a57614f3a8183614dbf565b60008060006152286040805190810160405280600d8152602001600080516020615b66833981519152815250866144ba565b92506152338361299f565b5191506152488361524386615665565b615672565b61529061528a6040805190810160405280600b81526020017f7469636b6572496e64657800000000000000000000000000000000000000000081525086614702565b836144a8565b6152cf6040805190810160405280600981526020017f7365656e55736572730000000000000000000000000000000000000000000000815250866144ba565b90506152da8161237f565b1515613d5f576153276153216040805190810160405280600b81526020017f6163746976655573657273000000000000000000000000000000000000000000815250614c50565b86615695565b613d5f816001614dbf565b60408051600380825260808201909252606091600091906020820184803883390190505091508482600081518110151561536857fe5b60ff909216602092830290910190910152815184908390600190811061538a57fe5b60ff90921660209283029091019091015281518390839060029081106153ac57fe5b60ff9092166020928302909101909101526153c88585856156e1565b90506153db6153d561120a565b836156fc565b1515615431576040805160e560020a62461bcd02815260206004820152601060248201527f496e2d76616c69642076657273696f6e00000000000000000000000000000000604482015290519081900360640190fd5b61546b6154606040805190810160405280600d8152602001600080516020615a66833981519152815250614c50565b8262ffffff166144a8565b613fcb6154d66040805190810160405280601181526020017f70726f746f636f6c56657273696f6e53540000000000000000000000000000008152506142ba610ae56040805190810160405280600d8152602001600080516020615a66833981519152815250614c50565b87614ddf565b600082826040516020018083805190602001908083835b602083106155125780518252601f1990920191602091820191016154f3565b51815160001960209485036101000a0190811690199190911617905292019384525060408051808503815293820190819052835193945092839250908401908083836020831061457b5780518252601f19909201916020918201910161455c565b6000828152600760205260409020805482106155ff576040805160e560020a62461bcd02815260206004820152602a60248201527f496e6465782073686f756c64206c657373207468616e206c656e677468206f6660448201527f2074686520617272617900000000000000000000000000000000000000000000606482015290519081900360840190fd5b80548190600019810190811061561157fe5b9060005260206000200154818381548110151561562a57fe5b6000918252602090912001558054600019016141618282615969565b6000828152600160209081526040909120825161221a9284019061598d565b600061481a82600061590f565b600091825260076020908152604083208054600181018255908452922090910155565b6000918252600960209081526040832080546001810182559084529220909101805473ffffffffffffffffffffffffffffffffffffffff1916600160a060020a03909216919091179055565b60ff9081169181166101000292166201000002919091171790565b60006060600080855160405190808252806020026020018201604052801561572e578160200160208202803883390190505b50925060009150600090505b85518160ff1610156157da57848160ff1681518110151561575757fe5b9060200190602002015160ff16868260ff1681518110151561577557fe5b9060200190602002015160ff1610156157af576001838260ff1681518110151561579b57fe5b9115156020928302909101909101526157d2565b6000838260ff168151811015156157c257fe5b9115156020928302909101909101525b60010161573a565b5060005b85518160ff1610156158f55760ff8116151561587757848160ff1681518110151561580557fe5b9060200190602002015160ff16868260ff1681518110151561582357fe5b6020908102909101015160ff16116158695782600081518110151561584457fe5b906020019060200201511561585e578160030191506158f5565b600190910190615872565b60009350615906565b6158ed565b826001820360ff1681518110151561588b57fe5b90602001906020020151156158a5576001909101906158ed565b848160ff168151811015156158b657fe5b9060200190602002015160ff16868260ff168151811015156158d457fe5b6020908102909101015160ff1611615869576001909101905b6001016157de565b85518260ff16141561590657600193505b50505092915050565b600080805b845181101561596157806008028582860181518110151561593157fe5b60209101015160029190910a60f860020a91829004909102600160f860020a031916049190911790600101615914565b509392505050565b81548183558181111561221a5760008381526020902061221a918101908301615a0b565b828054600181600116156101000203166002900490600052602060002090601f016020900481019282601f106159ce57805160ff19168380011785556159fb565b828001600101855582156159fb579182015b828111156159fb5782518255916020019190600101906159e0565b50615a07929150615a0b565b5090565b61092191905b80821115615a075760008155600101615a115600ee35723ac350a69d2a92d3703f17439cbaadf2f093a21ba5bf5f1a53eb2a14d92fcc69711628630fb5a42566c68bd1092bc4aa26826736293969fddcd11cb2d26c617465737456657273696f6e00000000000000000000000000000000000000604268e9a73dfd777dcecb8a614493dd65c638bad2f5e7d709d378bd2fb0baeed677304bb45536bb7fdfa6b9e47a3c58fe413f9e8f01474b0a4b9c6e0275baf2496e76616c696420616464726573730000000000000000000000000000000000726567697374657265645469636b6572735f6f776e657200000000000000000073656e646572206d757374206265206f776e6572000000000000000000000000726567697374657265645469636b6572735f737461747573000000000000000002016836a56b71f0d02689e69e326f4f4c1b9057164ef592671cf0d37c8040c075736572546f5469636b65727300000000000000000000000000000000000000acf8fbd51bb4b83ba426cdb12f63be74db97c412515797993d2a385542e311d77469636b6572546f5365637572697479546f6b656e0000000000000000000000726567697374657265645469636b6572735f65787069727944617465000000005469636b6572206c656e6774682072616e67652028302c31305d000000000000416c7265616479207061757365640000000000000000000000000000000000004e6f7420617574686f7269736564000000000000000000000000000000000000a165627a7a723058203199f7fab81f00b0e974df90abbc7577809a0e24f001a10cdd1e79a642d7affa0029",
  "source": "pragma solidity ^0.4.24;\n\nimport \"openzeppelin-solidity/contracts/math/SafeMath.sol\";\nimport \"./interfaces/IOwnable.sol\";\nimport \"./interfaces/ISTFactory.sol\";\nimport \"./interfaces/IERC20.sol\";\nimport \"./interfaces/ISecurityTokenRegistry.sol\";\nimport \"./storage/EternalStorage.sol\";\nimport \"./libraries/Util.sol\";\nimport \"./libraries/Encoder.sol\";\nimport \"./libraries/VersionUtils.sol\";\n\n/**\n * @title Registry contract for issuers to register their tickers and security tokens\n */\ncontract SecurityTokenRegistry is ISecurityTokenRegistry, EternalStorage {\n\n    /**\n     * @notice state variables\n\n       address public polyToken;\n       uint256 public stLaunchFee;\n       uint256 public tickerRegFee;\n       uint256 public expiryLimit;\n       uint256 public latestProtocolVersion;\n       bool public paused;\n       address public owner;\n       address public polymathRegistry;\n\n       address[] public activeUsers;\n       mapping(address => bool) public seenUsers;\n\n       mapping(address => bytes32[]) userToTickers;\n       mapping(string => address) tickerToSecurityToken;\n       mapping(string => uint) tickerIndex;\n       mapping(string => TickerDetails) registeredTickers;\n       mapping(address => SecurityTokenData) securityTokens;\n       mapping(bytes32 => address) protocolVersionST;\n       mapping(uint256 => ProtocolVersion) versionData;\n\n       struct ProtocolVersion {\n           uint8 major;\n           uint8 minor;\n           uint8 patch;\n       }\n\n       struct TickerDetails {\n           address owner;\n           uint256 registrationDate;\n           uint256 expiryDate;\n           string tokenName;\n           bool status;\n       }\n\n       struct SecurityTokenData {\n           string ticker;\n           string tokenDetails;\n           uint256 deployedAt;\n       }\n\n     */\n\n    using SafeMath for uint256;\n\n    bytes32 constant INITIALIZE = 0x9ef7257c3339b099aacf96e55122ee78fb65a36bd2a6c19249882be9c98633bf;\n    bytes32 constant POLYTOKEN = 0xacf8fbd51bb4b83ba426cdb12f63be74db97c412515797993d2a385542e311d7;\n    bytes32 constant STLAUNCHFEE = 0xd677304bb45536bb7fdfa6b9e47a3c58fe413f9e8f01474b0a4b9c6e0275baf2;\n    bytes32 constant TICKERREGFEE = 0x2fcc69711628630fb5a42566c68bd1092bc4aa26826736293969fddcd11cb2d2;\n    bytes32 constant EXPIRYLIMIT = 0x604268e9a73dfd777dcecb8a614493dd65c638bad2f5e7d709d378bd2fb0baee;\n    bytes32 constant PAUSED = 0xee35723ac350a69d2a92d3703f17439cbaadf2f093a21ba5bf5f1a53eb2a14d9;\n    bytes32 constant OWNER = 0x02016836a56b71f0d02689e69e326f4f4c1b9057164ef592671cf0d37c8040c0;\n    bytes32 constant POLYMATHREGISTRY = 0x90eeab7c36075577c7cc5ff366e389fefa8a18289b949bab3529ab4471139d4d;\n\n    // Emit when network becomes paused\n    event Pause(uint256 _timestammp);\n     // Emit when network becomes unpaused\n    event Unpause(uint256 _timestamp);\n    // Emit when the ticker is removed from the registry\n    event TickerRemoved(string _ticker, uint256 _removedAt, address _removedBy);\n    // Emit when the token ticker expiry is changed\n    event ChangeExpiryLimit(uint256 _oldExpiry, uint256 _newExpiry);\n     // Emit when changeSecurityLaunchFee is called\n    event ChangeSecurityLaunchFee(uint256 _oldFee, uint256 _newFee);\n    // Emit when changeTickerRegistrationFee is called\n    event ChangeTickerRegistrationFee(uint256 _oldFee, uint256 _newFee);\n    // Emit when ownership gets transferred\n    event OwnershipTransferred(address indexed previousOwner, address indexed newOwner);\n    // Emit when ownership of the ticker gets changed\n    event ChangeTickerOwnership(string _ticker, address indexed _oldOwner, address indexed _newOwner);\n    // Emit at the time of launching a new security token\n    event NewSecurityToken(\n        string _ticker,\n        string _name,\n        address indexed _securityTokenAddress,\n        address indexed _owner,\n        uint256 _addedAt,\n        address _registrant,\n        bool _fromAdmin,\n        uint256 _registrationFee\n    );\n    // Emit after ticker registration\n    event RegisterTicker(\n        address indexed _owner,\n        string _ticker,\n        string _name,\n        uint256 indexed _registrationDate,\n        uint256 indexed _expiryDate,\n        bool _fromAdmin,\n        uint256 _registrationFee\n    );\n\n    /////////////////////////////\n    // Modifiers\n    /////////////////////////////\n\n    /**\n     * @dev Throws if called by any account other than the owner.\n     */\n    modifier onlyOwner() {\n        require(msg.sender == owner(),\"sender must be owner\");\n        _;\n    }\n\n    /**\n     * @notice Modifier to make a function callable only when the contract is not paused.\n     */\n    modifier whenNotPausedOrOwner() {\n        if (msg.sender == owner())\n            _;\n        else {\n            require(!isPaused(), \"Already paused\");\n            _;\n        }\n    }\n\n    /**\n     * @notice Modifier to make a function callable only when the contract is not paused and ignore is msg.sender is owner.\n     */\n    modifier whenNotPaused() {\n        require(!isPaused(), \"Already paused\");\n        _;\n    }\n\n\n    /**\n     * @notice Modifier to make a function callable only when the contract is paused.\n     */\n    modifier whenPaused() {\n        require(isPaused(), \"Should not be paused\");\n        _;\n    }\n\n\n    /////////////////////////////\n    // Initialization\n    /////////////////////////////\n\n    /**\n     * @notice Initializes instance of STR\n     * @param _polymathRegistry is the address of the Polymath Registry\n     * @param _STFactory is the address of the Proxy contract for Security Tokens\n     * @param _stLaunchFee is the fee in POLY required to launch a token\n     * @param _tickerRegFee is the fee in POLY required to register a ticker\n     * @param _polyToken is the address of the POLY ERC20 token\n     * @param _owner is the owner of the STR\n     */\n    function initialize(\n        address _polymathRegistry,\n        address _STFactory,\n        uint256 _stLaunchFee,\n        uint256 _tickerRegFee,\n        address _polyToken,\n        address _owner\n    )\n        external\n        payable\n    {\n        require(!getBoolValue(INITIALIZE),\"already initialized\");\n        require(\n            _STFactory != address(0) && _polyToken != address(0) && _owner != address(0) && _polymathRegistry != address(0),\n            \"Invalid address\"\n        );\n        require(_stLaunchFee != 0 && _tickerRegFee != 0, \"Fees should not be 0\");\n        set(POLYTOKEN, _polyToken);\n        set(STLAUNCHFEE, _stLaunchFee);\n        set(TICKERREGFEE, _tickerRegFee);\n        set(EXPIRYLIMIT, uint256(60 * 1 days));\n        set(PAUSED, false);\n        set(OWNER, _owner);\n        set(POLYMATHREGISTRY, _polymathRegistry);\n        _setProtocolVersion(_STFactory, uint8(2), uint8(0), uint8(0));\n        set(INITIALIZE, true);\n    }\n\n    /////////////////////////////\n    // Token Ticker Management\n    /////////////////////////////\n\n    /**\n     * @notice Registers the token ticker to the selected owner\n     * @notice Once the token ticker is registered to its owner then no other issuer can claim\n     * @notice its ownership. If the ticker expires and its issuer hasn't used it, then someone else can take it.\n     * @param _owner is address of the owner of the token\n     * @param _ticker is unique token ticker\n     * @param _tokenName is the name of the token\n     */\n    function registerTicker(address _owner, string _ticker, string _tokenName) external whenNotPausedOrOwner {\n        require(_owner != address(0), \"Owner should not be 0x\");\n        require(bytes(_ticker).length > 0 && bytes(_ticker).length <= 10, \"Ticker length range (0,10]\");\n        // Attempt to charge the reg fee if it is > 0 POLY\n        uint256 tickerFee = getTickerRegistrationFee();\n        if (tickerFee > 0)\n            require(IERC20(getAddressValue(POLYTOKEN)).transferFrom(msg.sender, address(this), tickerFee), \"Insufficent allowance\");\n        string memory ticker = Util.upper(_ticker);\n        require(_tickerAvailable(ticker), \"Ticker is reserved\");\n        // Check whether ticker was previously registered (and expired)\n        address previousOwner = _tickerOwner(ticker);\n        if (previousOwner != address(0)) {\n            _deleteTickerOwnership(previousOwner, ticker);\n        }\n        /*solium-disable-next-line security/no-block-members*/\n        _addTicker(_owner, ticker, _tokenName, now, now.add(getExpiryLimit()), false, false, tickerFee);\n    }\n\n    /**\n     * @notice Internal - Sets the details of the ticker\n     */\n    function _addTicker(\n        address _owner, \n        string _ticker, \n        string _tokenName, \n        uint256 _registrationDate, \n        uint256 _expiryDate, \n        bool _status, \n        bool _fromAdmin, \n        uint256 _fee\n        ) internal {\n        _setTickerOwnership(_owner, _ticker);\n        _storeTickerDetails(_ticker, _owner, _registrationDate, _expiryDate, _tokenName, _status);\n        emit RegisterTicker(_owner, _ticker, _tokenName, _registrationDate, _expiryDate, _fromAdmin, _fee);\n    }\n\n    /**\n     * @notice Modifies the ticker details. Only Polymath has the ability to do so.\n     * @notice Only allowed to modify the tickers which are not yet deployed.\n     * @param _owner is the owner of the token\n     * @param _ticker is the token ticker\n     * @param _tokenName is the name of the token\n     * @param _registrationDate is the date at which ticker is registered\n     * @param _expiryDate is the expiry date for the ticker\n     * @param _status is the token deployment status\n     */\n    function modifyTicker(\n        address _owner,\n        string _ticker,\n        string _tokenName,\n        uint256 _registrationDate,\n        uint256 _expiryDate,\n        bool _status\n        ) external onlyOwner {\n        require(bytes(_ticker).length > 0 && bytes(_ticker).length <= 10, \"Ticker length range (0,10]\");\n        require(_expiryDate != 0 && _registrationDate != 0, \"Dates should not be 0\");\n        require(_registrationDate <= _expiryDate, \"Registration date should < expiry date\");\n        require(_owner != address(0), \"Invalid address\");\n        string memory ticker = Util.upper(_ticker);\n        _modifyTicker(_owner, ticker, _tokenName, _registrationDate, _expiryDate, _status);\n    }\n\n    /**\n     * @notice Internal -- Modifies the ticker details.\n     */\n    function _modifyTicker(\n        address _owner,\n        string _ticker,\n        string _tokenName,\n        uint256 _registrationDate,\n        uint256 _expiryDate,\n        bool _status\n        ) internal {\n        address currentOwner = _tickerOwner(_ticker);\n        if (currentOwner != address(0)) {\n            _deleteTickerOwnership(currentOwner, _ticker);\n        }\n        if (_tickerStatus(_ticker) && !_status) {\n            set(Encoder.getKey(\"tickerToSecurityToken\", _ticker), address(0));\n        }\n        // If status is true, there must be a security token linked to the ticker already\n        if (_status) {\n            require(getAddressValue(Encoder.getKey(\"tickerToSecurityToken\", _ticker)) != address(0), \"Token not registered\");\n        }\n        _addTicker(_owner, _ticker, _tokenName, _registrationDate, _expiryDate, _status, true, uint256(0));\n    }\n\n    function _tickerOwner(string _ticker) internal view returns(address) {\n        return getAddressValue(Encoder.getKey(\"registeredTickers_owner\", _ticker));\n    }\n\n    /**\n     * @notice Removes the ticker details, associated ownership & security token mapping\n     * @param _ticker is the token ticker\n     */\n    function removeTicker(string _ticker) external onlyOwner {\n        string memory ticker = Util.upper(_ticker);\n        address owner = _tickerOwner(ticker);\n        require(owner != address(0), \"Ticker doesn't exist\");\n        _deleteTickerOwnership(owner, ticker);\n        set(Encoder.getKey(\"tickerToSecurityToken\", ticker), address(0));\n        _storeTickerDetails(ticker, address(0), 0, 0, \"\", false);\n        /*solium-disable-next-line security/no-block-members*/\n        emit TickerRemoved(ticker, now, msg.sender);\n    }\n\n    /**\n     * @notice Internal - Checks if the entered ticker is registered and has not expired\n     * @param _ticker is the token ticker\n     * @return bool\n     */\n    function _tickerAvailable(string _ticker) internal view returns(bool) {\n        if (_tickerOwner(_ticker) != address(0)) {\n            /*solium-disable-next-line security/no-block-members*/\n            if ((now > getUintValue(Encoder.getKey(\"registeredTickers_expiryDate\", _ticker))) && !_tickerStatus(_ticker)) {\n                return true;\n            } else\n                return false;\n        }\n        return true;\n    }\n\n    function _tickerStatus(string _ticker) internal view returns(bool) {\n        return getBoolValue(Encoder.getKey(\"registeredTickers_status\", _ticker));\n    }\n\n    /**\n     * @notice Internal - Sets the ticker owner\n     * @param _owner is the address of the owner of the ticker\n     * @param _ticker is the ticker symbol\n     */\n    function _setTickerOwnership(address _owner, string _ticker) internal {\n        bytes32 _ownerKey = Encoder.getKey(\"userToTickers\", _owner);\n        uint256 length = uint256(getArrayBytes32(_ownerKey).length);\n        pushArray(_ownerKey, Util.stringToBytes32(_ticker));\n        set(Encoder.getKey(\"tickerIndex\", _ticker), length);\n        bytes32 seenKey = Encoder.getKey(\"seenUsers\", _owner);\n        if (!getBoolValue(seenKey)) {\n            pushArray(Encoder.getKey(\"activeUsers\"), _owner);\n            set(seenKey, true);\n        }\n    }\n\n    /**\n     * @notice Internal - Stores the ticker details\n     */\n    function _storeTickerDetails(\n        string _ticker,\n        address _owner,\n        uint256 _registrationDate,\n        uint256 _expiryDate,\n        string _tokenName,\n        bool _status\n        ) internal {\n        bytes32 key = Encoder.getKey(\"registeredTickers_owner\", _ticker);\n        if (getAddressValue(key) != _owner)\n            set(key, _owner);\n        key = Encoder.getKey(\"registeredTickers_registrationDate\", _ticker);\n        if (getUintValue(key) != _registrationDate)\n            set(key, _registrationDate);\n        key = Encoder.getKey(\"registeredTickers_expiryDate\", _ticker);\n        if (getUintValue(key) != _expiryDate)\n            set(key, _expiryDate);\n        key = Encoder.getKey(\"registeredTickers_tokenName\", _ticker);\n        if (Encoder.getKey(getStringValue(key)) != Encoder.getKey(_tokenName))\n            set(key, _tokenName);\n        key = Encoder.getKey(\"registeredTickers_status\", _ticker);\n        if (getBoolValue(key) != _status)\n            set(key, _status);\n    }\n\n    /**\n     * @notice Transfers the ownership of the ticker\n     * @param _newOwner is the address of the new owner of the ticker\n     * @param _ticker is the ticker symbol\n     */\n    function transferTickerOwnership(address _newOwner, string _ticker) external whenNotPausedOrOwner {\n        string memory ticker = Util.upper(_ticker);\n        require(_newOwner != address(0), \"Invalid address\");\n        bytes32 ownerKey = Encoder.getKey(\"registeredTickers_owner\", ticker);\n        require(getAddressValue(ownerKey) == msg.sender, \"Not authorised\");\n        if (_tickerStatus(ticker))\n            require(IOwnable(getAddressValue(Encoder.getKey(\"tickerToSecurityToken\", ticker))).owner() == _newOwner, \"New owner does not match token owner\");\n        _deleteTickerOwnership(msg.sender, ticker);\n        _setTickerOwnership(_newOwner, ticker);\n        set(ownerKey, _newOwner);\n        emit ChangeTickerOwnership(ticker, msg.sender, _newOwner);\n    }\n\n    /**\n     * @notice Internal - Removes the owner of a ticker\n     */\n    function _deleteTickerOwnership(address _owner, string _ticker) internal {\n        uint256 index = uint256(getUintValue(Encoder.getKey(\"tickerIndex\", _ticker)));\n        bytes32 ownerKey = Encoder.getKey(\"userToTickers\", _owner);\n        bytes32[] memory tickers = getArrayBytes32(ownerKey);\n        assert(index < tickers.length);\n        assert(_tickerOwner(_ticker) == _owner);\n        deleteArrayBytes32(ownerKey, index);\n        if (getArrayBytes32(ownerKey).length > index) {\n            bytes32 switchedTicker = getArrayBytes32(ownerKey)[index];\n            set(Encoder.getKey(\"tickerIndex\", Util.bytes32ToString(switchedTicker)), index);\n        }\n    }\n\n    /**\n     * @notice Changes the expiry time for the token ticker. Only available to Polymath.\n     * @param _newExpiry is the new expiry for newly generated tickers\n     */\n    function changeExpiryLimit(uint256 _newExpiry) external onlyOwner {\n        require(_newExpiry >= 1 days, \"Expiry should >= 1 day\");\n        emit ChangeExpiryLimit(getUintValue(EXPIRYLIMIT), _newExpiry);\n        set(EXPIRYLIMIT, _newExpiry);\n    }\n\n    /**\n     * @notice Returns the list of tickers owned by the selected address\n     * @param _owner is the address which owns the list of tickers\n     */\n    function getTickersByOwner(address _owner) external view returns(bytes32[]) {\n        uint counter = 0;\n        // accessing the data structure userTotickers[_owner].length\n        bytes32[] memory tickers = getArrayBytes32(Encoder.getKey(\"userToTickers\", _owner));\n        for (uint i = 0; i < tickers.length; i++) {\n            string memory ticker = Util.bytes32ToString(tickers[i]);\n            /*solium-disable-next-line security/no-block-members*/\n            if (getUintValue(Encoder.getKey(\"registeredTickers_expiryDate\", ticker)) >= now || _tickerStatus(ticker)) {\n                counter ++;\n            }\n        }\n        bytes32[] memory tempList = new bytes32[](counter);\n        counter = 0;\n        for (i = 0; i < tickers.length; i++) {\n            ticker = Util.bytes32ToString(tickers[i]);\n            /*solium-disable-next-line security/no-block-members*/\n            if (getUintValue(Encoder.getKey(\"registeredTickers_expiryDate\", ticker)) >= now || _tickerStatus(ticker)) {\n                tempList[counter] = tickers[i];\n                counter ++;\n            }\n        }\n        return tempList;\n    }\n\n    /**\n     * @notice Returns the list of tokens owned by the selected address\n     * @param _owner is the address which owns the list of tickers\n     * @dev Intention is that this is called off-chain so block gas limit is not relevant\n     */\n    function getTokensByOwner(address _owner) external view returns(address[]) {\n        // Loop over all active users, then all associated tickers of those users\n        // This ensures we find tokens, even if their owner has been modified\n        address[] memory activeUsers = getArrayAddress(Encoder.getKey(\"activeUsers\"));\n        bytes32[] memory tickers;\n        address token;\n        uint256 count = 0;\n        uint256 i = 0;\n        uint256 j = 0;\n        for (i = 0; i < activeUsers.length; i++) {\n            tickers = getArrayBytes32(Encoder.getKey(\"userToTickers\", activeUsers[i]));\n            for (j = 0; j < tickers.length; j++) {\n                token = getAddressValue(Encoder.getKey(\"tickerToSecurityToken\", Util.bytes32ToString(tickers[j])));\n                if (token != address(0)) {\n                    if (IOwnable(token).owner() == _owner) {\n                        count = count + 1;\n                    }\n                }\n            }\n        }\n        uint256 index = 0;\n        address[] memory result = new address[](count);\n        for (i = 0; i < activeUsers.length; i++) {\n            tickers = getArrayBytes32(Encoder.getKey(\"userToTickers\", activeUsers[i]));\n            for (j = 0; j < tickers.length; j++) {\n                token = getAddressValue(Encoder.getKey(\"tickerToSecurityToken\", Util.bytes32ToString(tickers[j])));\n                if (token != address(0)) {\n                    if (IOwnable(token).owner() == _owner) {\n                        result[index] = token;\n                        index = index + 1;\n                    }\n                }\n            }\n        }\n        return result;\n    }\n\n    /**\n     * @notice Returns the owner and timestamp for a given ticker\n     * @param _ticker is the ticker symbol\n     * @return address\n     * @return uint256\n     * @return uint256\n     * @return string\n     * @return bool\n     */\n    function getTickerDetails(string _ticker) external view returns (address, uint256, uint256, string, bool) {\n        string memory ticker = Util.upper(_ticker);\n        bool tickerStatus = _tickerStatus(ticker);\n        uint256 expiryDate = getUintValue(Encoder.getKey(\"registeredTickers_expiryDate\", ticker));\n        /*solium-disable-next-line security/no-block-members*/\n        if ((tickerStatus == true) || (expiryDate > now)) {\n            return\n            (\n                _tickerOwner(ticker),\n                getUintValue(Encoder.getKey(\"registeredTickers_registrationDate\", ticker)),\n                expiryDate,\n                getStringValue(Encoder.getKey(\"registeredTickers_tokenName\", ticker)),\n                tickerStatus\n            );\n        } else\n            return (address(0), uint256(0), uint256(0), \"\", false);\n    }\n\n    /////////////////////////////\n    // Security Token Management\n    /////////////////////////////\n\n    /**\n     * @notice Deploys an instance of a new Security Token and records it to the registry\n     * @param _name is the name of the token\n     * @param _ticker is the ticker symbol of the security token\n     * @param _tokenDetails is the off-chain details of the token\n     * @param _divisible is whether or not the token is divisible\n     */\n    function generateSecurityToken(string _name, string _ticker, string _tokenDetails, bool _divisible) external whenNotPausedOrOwner {\n        require(bytes(_name).length > 0 && bytes(_ticker).length > 0, \"Ticker length > 0\");\n        string memory ticker = Util.upper(_ticker);\n        bytes32 statusKey = Encoder.getKey(\"registeredTickers_status\", ticker);\n        require(!getBoolValue(statusKey), \"Already deployed\");\n        set(statusKey, true);\n        require(_tickerOwner(ticker) == msg.sender, \"Not authorised\");\n        /*solium-disable-next-line security/no-block-members*/\n        require(getUintValue(Encoder.getKey(\"registeredTickers_expiryDate\", ticker)) >= now, \"Ticker gets expired\");\n\n        uint256 launchFee = getSecurityTokenLaunchFee();\n        if (launchFee > 0)\n            require(IERC20(getAddressValue(POLYTOKEN)).transferFrom(msg.sender, address(this), launchFee), \"Insufficient allowance\");\n\n        address newSecurityTokenAddress = ISTFactory(getSTFactoryAddress()).deployToken(\n            _name,\n            ticker,\n            18,\n            _tokenDetails,\n            msg.sender,\n            _divisible,\n            getAddressValue(POLYMATHREGISTRY)\n        );\n\n        /*solium-disable-next-line security/no-block-members*/\n        _storeSecurityTokenData(newSecurityTokenAddress, ticker, _tokenDetails, now);\n        set(Encoder.getKey(\"tickerToSecurityToken\", ticker), newSecurityTokenAddress);\n        /*solium-disable-next-line security/no-block-members*/\n        emit NewSecurityToken(ticker, _name, newSecurityTokenAddress, msg.sender, now, msg.sender, false, launchFee);\n    }\n\n    /**\n     * @notice Adds a new custom Security Token and saves it to the registry. (Token should follow the ISecurityToken interface)\n     * @param _name is the name of the token\n     * @param _ticker is the ticker symbol of the security token\n     * @param _owner is the owner of the token\n     * @param _securityToken is the address of the securityToken\n     * @param _tokenDetails is the off-chain details of the token\n     * @param _deployedAt is the timestamp at which the security token is deployed\n     */\n    function modifySecurityToken(\n        string _name,\n        string _ticker,\n        address _owner,\n        address _securityToken,\n        string _tokenDetails,\n        uint256 _deployedAt\n    )\n        external\n        onlyOwner\n    {\n        require(bytes(_name).length > 0 && bytes(_ticker).length > 0, \"String length > 0\");\n        require(bytes(_ticker).length <= 10, \"Ticker length range (0,10]\");\n        require(_deployedAt != 0 && _owner != address(0), \"0 value params not allowed\");\n        string memory ticker = Util.upper(_ticker);\n        require(_securityToken != address(0), \"ST address is 0x\");\n        uint256 registrationTime = getUintValue(Encoder.getKey(\"registeredTickers_registrationDate\", ticker));\n        uint256 expiryTime = getUintValue(Encoder.getKey(\"registeredTickers_expiryDate\", ticker));\n        if (registrationTime == 0) {\n            /*solium-disable-next-line security/no-block-members*/\n            registrationTime = now;\n            expiryTime = registrationTime.add(getExpiryLimit());\n        }\n        set(Encoder.getKey(\"tickerToSecurityToken\", ticker), _securityToken);\n        _modifyTicker(_owner, ticker, _name, registrationTime, expiryTime, true);\n        _storeSecurityTokenData(_securityToken, ticker, _tokenDetails, _deployedAt);\n        emit NewSecurityToken(ticker, _name, _securityToken, _owner, _deployedAt, msg.sender, true, getSecurityTokenLaunchFee());\n    }\n\n    /**\n     * @notice Internal - Stores the security token details\n     */\n    function _storeSecurityTokenData(address _securityToken, string _ticker, string _tokenDetails, uint256 _deployedAt) internal {\n        set(Encoder.getKey(\"securityTokens_ticker\", _securityToken), _ticker);\n        set(Encoder.getKey(\"securityTokens_tokenDetails\", _securityToken), _tokenDetails);\n        set(Encoder.getKey(\"securityTokens_deployedAt\", _securityToken), _deployedAt);\n    }\n\n    /**\n    * @notice Checks that Security Token is registered\n    * @param _securityToken is the address of the security token\n    * @return bool\n    */\n    function isSecurityToken(address _securityToken) external view returns (bool) {\n        return (keccak256(bytes(getStringValue(Encoder.getKey(\"securityTokens_ticker\", _securityToken)))) != keccak256(\"\"));\n    }\n\n    /**\n     * @notice Returns the security token address by ticker symbol\n     * @param _ticker is the ticker of the security token\n     * @return address\n     */\n    function getSecurityTokenAddress(string _ticker) external view returns (address) {\n        string memory ticker = Util.upper(_ticker);\n        return getAddressValue(Encoder.getKey(\"tickerToSecurityToken\", ticker));\n    }\n\n     /**\n     * @notice Returns the security token data by address\n     * @param _securityToken is the address of the security token.\n     * @return string is the ticker of the security Token.\n     * @return address is the issuer of the security Token.\n     * @return string is the details of the security token.\n     * @return uint256 is the timestamp at which security Token was deployed.\n     */\n    function getSecurityTokenData(address _securityToken) external view returns (string, address, string, uint256) {\n        return (\n            getStringValue(Encoder.getKey(\"securityTokens_ticker\", _securityToken)),\n            IOwnable(_securityToken).owner(),\n            getStringValue(Encoder.getKey(\"securityTokens_tokenDetails\", _securityToken)),\n            getUintValue(Encoder.getKey(\"securityTokens_deployedAt\", _securityToken))\n        );\n    }\n\n    /////////////////////////////\n    // Ownership, lifecycle & Utility\n    /////////////////////////////\n\n    /**\n    * @dev Allows the current owner to transfer control of the contract to a newOwner.\n    * @param _newOwner The address to transfer ownership to.\n    */\n    function transferOwnership(address _newOwner) external onlyOwner {\n        require(_newOwner != address(0), \"Invalid address\");\n        emit OwnershipTransferred(getAddressValue(OWNER), _newOwner);\n        set(OWNER, _newOwner);\n    }\n\n    /**\n    * @notice Called by the owner to pause, triggers stopped state\n    */\n    function pause() external whenNotPaused onlyOwner {\n        set(PAUSED, true);\n        /*solium-disable-next-line security/no-block-members*/\n        emit Pause(now);\n    }\n\n    /**\n    * @notice Called by the owner to unpause, returns to normal state\n    */\n    function unpause() external whenPaused onlyOwner {\n        set(PAUSED, false);\n        /*solium-disable-next-line security/no-block-members*/\n        emit Unpause(now);\n    }\n\n    /**\n    * @notice Sets the ticker registration fee in POLY tokens. Only Polymath.\n    * @param _tickerRegFee is the registration fee in POLY tokens (base 18 decimals)\n    */\n    function changeTickerRegistrationFee(uint256 _tickerRegFee) external onlyOwner {\n        uint256 fee = getUintValue(TICKERREGFEE);\n        require(fee != _tickerRegFee, \"Fee not changed\");\n        emit ChangeTickerRegistrationFee(fee, _tickerRegFee);\n        set(TICKERREGFEE, _tickerRegFee);\n    }\n\n   /**\n    * @notice Sets the ticker registration fee in POLY tokens. Only Polymath.\n    * @param _stLaunchFee is the registration fee in POLY tokens (base 18 decimals)\n    */\n    function changeSecurityLaunchFee(uint256 _stLaunchFee) external onlyOwner {\n        uint256 fee = getUintValue(STLAUNCHFEE);\n        require(fee != _stLaunchFee, \"Fee not changed\");\n        emit ChangeSecurityLaunchFee(fee, _stLaunchFee);\n        set(STLAUNCHFEE, _stLaunchFee);\n    }\n\n    /**\n    * @notice Reclaims all ERC20Basic compatible tokens\n    * @param _tokenContract is the address of the token contract\n    */\n    function reclaimERC20(address _tokenContract) external onlyOwner {\n        require(_tokenContract != address(0), \"Invalid address\");\n        IERC20 token = IERC20(_tokenContract);\n        uint256 balance = token.balanceOf(address(this));\n        require(token.transfer(owner(), balance), \"Transfer failed\");\n    }\n\n    /**\n    * @notice Changes the protocol version and the SecurityToken contract\n    * @notice Used only by Polymath to upgrade the SecurityToken contract and add more functionalities to future versions\n    * @notice Changing versions does not affect existing tokens.\n    * @param _STFactoryAddress is the address of the proxy.\n    * @param _major Major version of the proxy.\n    * @param _minor Minor version of the proxy.\n    * @param _patch Patch version of the proxy\n    */\n    function setProtocolVersion(address _STFactoryAddress, uint8 _major, uint8 _minor, uint8 _patch) external onlyOwner {\n        require(_STFactoryAddress != address(0), \"0x address is not allowed\");\n        _setProtocolVersion(_STFactoryAddress, _major, _minor, _patch);\n    }\n\n    /**\n    * @notice Internal - Changes the protocol version and the SecurityToken contract\n    */\n    function _setProtocolVersion(address _STFactoryAddress, uint8 _major, uint8 _minor, uint8 _patch) internal {\n        uint8[] memory _version = new uint8[](3);\n        _version[0] = _major;\n        _version[1] = _minor;\n        _version[2] = _patch;\n        uint24 _packedVersion = VersionUtils.pack(_major, _minor, _patch);\n        require(VersionUtils.isValidVersion(getProtocolVersion(), _version),\"In-valid version\");\n        set(Encoder.getKey(\"latestVersion\"), uint256(_packedVersion));\n        set(Encoder.getKey(\"protocolVersionST\", getUintValue(Encoder.getKey(\"latestVersion\"))), _STFactoryAddress);\n    }\n\n    /**\n     * @notice Returns the current STFactory Address\n     */\n    function getSTFactoryAddress() public view returns(address) {\n        return getAddressValue(Encoder.getKey(\"protocolVersionST\", getUintValue(Encoder.getKey(\"latestVersion\"))));\n    }\n\n    /**\n     * @notice Gets Protocol version\n     */\n    function getProtocolVersion() public view returns(uint8[]) {\n        return VersionUtils.unpack(uint24(getUintValue(Encoder.getKey(\"latestVersion\"))));\n    }\n\n    /**\n     * @notice Changes the PolyToken address. Only Polymath.\n     * @param _newAddress is the address of the polytoken.\n     */\n    function updatePolyTokenAddress(address _newAddress) external onlyOwner {\n        require(_newAddress != address(0), \"Invalid address\");\n        set(POLYTOKEN, _newAddress);\n    }\n\n    /**\n     * @notice Gets the security token launch fee\n     * @return Fee amount\n     */\n    function getSecurityTokenLaunchFee() public view returns(uint256) {\n        return getUintValue(STLAUNCHFEE);\n    }\n\n    /**\n     * @notice Gets the ticker registration fee\n     * @return Fee amount\n     */\n    function getTickerRegistrationFee() public view returns(uint256) {\n        return getUintValue(TICKERREGFEE);\n    }\n\n    /**\n     * @notice Gets the expiry limit\n     * @return Expiry limit\n     */\n    function getExpiryLimit() public view returns(uint256) {\n        return getUintValue(EXPIRYLIMIT);\n    }\n\n    /**\n     * @notice Check whether the registry is paused or not\n     * @return bool\n     */\n    function isPaused() public view returns(bool) {\n        return getBoolValue(PAUSED);\n    }\n\n    /**\n     * @notice Gets the owner of the contract\n     * @return address owner\n     */\n    function owner() public view returns(address) {\n        return getAddressValue(OWNER);\n    }\n\n}\n",
  "sourcePath": "/Users/jere/Code/polymath-apps/packages/new-polymath-scripts/src/generateLocalBlockchain/contracts/SecurityTokenRegistry.sol",
  "compiler": {
    "name": "solc",
    "version": "0.4.24+commit.e67f0147.Emscripten.clang"
  },
  "schemaVersion": "2.0.1",
  "updatedAt": "2019-02-06T16:02:43.246Z"
}