{
  "contractName": "SecurityTokenRegistry",
  "abi": [
    {
      "constant": true,
      "inputs": [
        {
          "name": "_variable",
          "type": "bytes32"
        }
      ],
      "name": "getBoolValues",
      "outputs": [
        {
          "name": "",
          "type": "bool"
        }
      ],
      "payable": false,
      "stateMutability": "view",
      "type": "function"
    },
    {
      "constant": true,
      "inputs": [
        {
          "name": "_variable",
          "type": "bytes32"
        }
      ],
      "name": "getUintValues",
      "outputs": [
        {
          "name": "",
          "type": "uint256"
        }
      ],
      "payable": false,
      "stateMutability": "view",
      "type": "function"
    },
    {
      "constant": true,
      "inputs": [
        {
          "name": "_variable",
          "type": "bytes32"
        }
      ],
      "name": "getStringValues",
      "outputs": [
        {
          "name": "",
          "type": "string"
        }
      ],
      "payable": false,
      "stateMutability": "view",
      "type": "function"
    },
    {
      "constant": true,
      "inputs": [
        {
          "name": "_variable",
          "type": "bytes32"
        }
      ],
      "name": "getBytes32Values",
      "outputs": [
        {
          "name": "",
          "type": "bytes32"
        }
      ],
      "payable": false,
      "stateMutability": "view",
      "type": "function"
    },
    {
      "constant": true,
      "inputs": [
        {
          "name": "_variable",
          "type": "bytes32"
        }
      ],
      "name": "getAddressValues",
      "outputs": [
        {
          "name": "",
          "type": "address"
        }
      ],
      "payable": false,
      "stateMutability": "view",
      "type": "function"
    },
    {
      "constant": true,
      "inputs": [
        {
          "name": "_variable",
          "type": "bytes32"
        }
      ],
      "name": "getBytesValues",
      "outputs": [
        {
          "name": "",
          "type": "bytes"
        }
      ],
      "payable": false,
      "stateMutability": "view",
      "type": "function"
    },
    {
      "anonymous": false,
      "inputs": [
        {
          "indexed": false,
          "name": "_timestammp",
          "type": "uint256"
        }
      ],
      "name": "Pause",
      "type": "event"
    },
    {
      "anonymous": false,
      "inputs": [
        {
          "indexed": false,
          "name": "_timestamp",
          "type": "uint256"
        }
      ],
      "name": "Unpause",
      "type": "event"
    },
    {
      "anonymous": false,
      "inputs": [
        {
          "indexed": false,
          "name": "_ticker",
          "type": "string"
        },
        {
          "indexed": false,
          "name": "_removedAt",
          "type": "uint256"
        },
        {
          "indexed": false,
          "name": "_removedBy",
          "type": "address"
        }
      ],
      "name": "TickerRemoved",
      "type": "event"
    },
    {
      "anonymous": false,
      "inputs": [
        {
          "indexed": false,
          "name": "_oldExpiry",
          "type": "uint256"
        },
        {
          "indexed": false,
          "name": "_newExpiry",
          "type": "uint256"
        }
      ],
      "name": "ChangeExpiryLimit",
      "type": "event"
    },
    {
      "anonymous": false,
      "inputs": [
        {
          "indexed": false,
          "name": "_oldFee",
          "type": "uint256"
        },
        {
          "indexed": false,
          "name": "_newFee",
          "type": "uint256"
        }
      ],
      "name": "ChangeSecurityLaunchFee",
      "type": "event"
    },
    {
      "anonymous": false,
      "inputs": [
        {
          "indexed": false,
          "name": "_oldFee",
          "type": "uint256"
        },
        {
          "indexed": false,
          "name": "_newFee",
          "type": "uint256"
        }
      ],
      "name": "ChangeTickerRegistrationFee",
      "type": "event"
    },
    {
      "anonymous": false,
      "inputs": [
        {
          "indexed": true,
          "name": "previousOwner",
          "type": "address"
        },
        {
          "indexed": true,
          "name": "newOwner",
          "type": "address"
        }
      ],
      "name": "OwnershipTransferred",
      "type": "event"
    },
    {
      "anonymous": false,
      "inputs": [
        {
          "indexed": false,
          "name": "_ticker",
          "type": "string"
        },
        {
          "indexed": true,
          "name": "_oldOwner",
          "type": "address"
        },
        {
          "indexed": true,
          "name": "_newOwner",
          "type": "address"
        }
      ],
      "name": "ChangeTickerOwnership",
      "type": "event"
    },
    {
      "anonymous": false,
      "inputs": [
        {
          "indexed": false,
          "name": "_ticker",
          "type": "string"
        },
        {
          "indexed": false,
          "name": "_name",
          "type": "string"
        },
        {
          "indexed": true,
          "name": "_securityTokenAddress",
          "type": "address"
        },
        {
          "indexed": true,
          "name": "_owner",
          "type": "address"
        },
        {
          "indexed": false,
          "name": "_addedAt",
          "type": "uint256"
        },
        {
          "indexed": false,
          "name": "_registrant",
          "type": "address"
        },
        {
          "indexed": false,
          "name": "_fromAdmin",
          "type": "bool"
        },
        {
          "indexed": false,
          "name": "_registrationFee",
          "type": "uint256"
        }
      ],
      "name": "NewSecurityToken",
      "type": "event"
    },
    {
      "anonymous": false,
      "inputs": [
        {
          "indexed": true,
          "name": "_owner",
          "type": "address"
        },
        {
          "indexed": false,
          "name": "_ticker",
          "type": "string"
        },
        {
          "indexed": false,
          "name": "_name",
          "type": "string"
        },
        {
          "indexed": true,
          "name": "_registrationDate",
          "type": "uint256"
        },
        {
          "indexed": true,
          "name": "_expiryDate",
          "type": "uint256"
        },
        {
          "indexed": false,
          "name": "_fromAdmin",
          "type": "bool"
        },
        {
          "indexed": false,
          "name": "_registrationFee",
          "type": "uint256"
        }
      ],
      "name": "RegisterTicker",
      "type": "event"
    },
    {
      "constant": false,
      "inputs": [
        {
          "name": "_polymathRegistry",
          "type": "address"
        },
        {
          "name": "_STFactory",
          "type": "address"
        },
        {
          "name": "_stLaunchFee",
          "type": "uint256"
        },
        {
          "name": "_tickerRegFee",
          "type": "uint256"
        },
        {
          "name": "_polyToken",
          "type": "address"
        },
        {
          "name": "_owner",
          "type": "address"
        }
      ],
      "name": "initialize",
      "outputs": [],
      "payable": true,
      "stateMutability": "payable",
      "type": "function"
    },
    {
      "constant": false,
      "inputs": [
        {
          "name": "_owner",
          "type": "address"
        },
        {
          "name": "_ticker",
          "type": "string"
        },
        {
          "name": "_tokenName",
          "type": "string"
        }
      ],
      "name": "registerTicker",
      "outputs": [],
      "payable": false,
      "stateMutability": "nonpayable",
      "type": "function"
    },
    {
      "constant": false,
      "inputs": [
        {
          "name": "_owner",
          "type": "address"
        },
        {
          "name": "_ticker",
          "type": "string"
        },
        {
          "name": "_tokenName",
          "type": "string"
        },
        {
          "name": "_registrationDate",
          "type": "uint256"
        },
        {
          "name": "_expiryDate",
          "type": "uint256"
        },
        {
          "name": "_status",
          "type": "bool"
        }
      ],
      "name": "modifyTicker",
      "outputs": [],
      "payable": false,
      "stateMutability": "nonpayable",
      "type": "function"
    },
    {
      "constant": false,
      "inputs": [
        {
          "name": "_ticker",
          "type": "string"
        }
      ],
      "name": "removeTicker",
      "outputs": [],
      "payable": false,
      "stateMutability": "nonpayable",
      "type": "function"
    },
    {
      "constant": false,
      "inputs": [
        {
          "name": "_newOwner",
          "type": "address"
        },
        {
          "name": "_ticker",
          "type": "string"
        }
      ],
      "name": "transferTickerOwnership",
      "outputs": [],
      "payable": false,
      "stateMutability": "nonpayable",
      "type": "function"
    },
    {
      "constant": false,
      "inputs": [
        {
          "name": "_newExpiry",
          "type": "uint256"
        }
      ],
      "name": "changeExpiryLimit",
      "outputs": [],
      "payable": false,
      "stateMutability": "nonpayable",
      "type": "function"
    },
    {
      "constant": true,
      "inputs": [
        {
          "name": "_owner",
          "type": "address"
        }
      ],
      "name": "getTickersByOwner",
      "outputs": [
        {
          "name": "",
          "type": "bytes32[]"
        }
      ],
      "payable": false,
      "stateMutability": "view",
      "type": "function"
    },
    {
      "constant": true,
      "inputs": [
        {
          "name": "_owner",
          "type": "address"
        }
      ],
      "name": "getTokensByOwner",
      "outputs": [
        {
          "name": "",
          "type": "address[]"
        }
      ],
      "payable": false,
      "stateMutability": "view",
      "type": "function"
    },
    {
      "constant": true,
      "inputs": [
        {
          "name": "_ticker",
          "type": "string"
        }
      ],
      "name": "getTickerDetails",
      "outputs": [
        {
          "name": "",
          "type": "address"
        },
        {
          "name": "",
          "type": "uint256"
        },
        {
          "name": "",
          "type": "uint256"
        },
        {
          "name": "",
          "type": "string"
        },
        {
          "name": "",
          "type": "bool"
        }
      ],
      "payable": false,
      "stateMutability": "view",
      "type": "function"
    },
    {
      "constant": false,
      "inputs": [
        {
          "name": "_name",
          "type": "string"
        },
        {
          "name": "_ticker",
          "type": "string"
        },
        {
          "name": "_tokenDetails",
          "type": "string"
        },
        {
          "name": "_divisible",
          "type": "bool"
        }
      ],
      "name": "generateSecurityToken",
      "outputs": [],
      "payable": false,
      "stateMutability": "nonpayable",
      "type": "function"
    },
    {
      "constant": false,
      "inputs": [
        {
          "name": "_name",
          "type": "string"
        },
        {
          "name": "_ticker",
          "type": "string"
        },
        {
          "name": "_owner",
          "type": "address"
        },
        {
          "name": "_securityToken",
          "type": "address"
        },
        {
          "name": "_tokenDetails",
          "type": "string"
        },
        {
          "name": "_deployedAt",
          "type": "uint256"
        }
      ],
      "name": "modifySecurityToken",
      "outputs": [],
      "payable": false,
      "stateMutability": "nonpayable",
      "type": "function"
    },
    {
      "constant": true,
      "inputs": [
        {
          "name": "_securityToken",
          "type": "address"
        }
      ],
      "name": "isSecurityToken",
      "outputs": [
        {
          "name": "",
          "type": "bool"
        }
      ],
      "payable": false,
      "stateMutability": "view",
      "type": "function"
    },
    {
      "constant": true,
      "inputs": [
        {
          "name": "_ticker",
          "type": "string"
        }
      ],
      "name": "getSecurityTokenAddress",
      "outputs": [
        {
          "name": "",
          "type": "address"
        }
      ],
      "payable": false,
      "stateMutability": "view",
      "type": "function"
    },
    {
      "constant": true,
      "inputs": [
        {
          "name": "_securityToken",
          "type": "address"
        }
      ],
      "name": "getSecurityTokenData",
      "outputs": [
        {
          "name": "",
          "type": "string"
        },
        {
          "name": "",
          "type": "address"
        },
        {
          "name": "",
          "type": "string"
        },
        {
          "name": "",
          "type": "uint256"
        }
      ],
      "payable": false,
      "stateMutability": "view",
      "type": "function"
    },
    {
      "constant": false,
      "inputs": [
        {
          "name": "_newOwner",
          "type": "address"
        }
      ],
      "name": "transferOwnership",
      "outputs": [],
      "payable": false,
      "stateMutability": "nonpayable",
      "type": "function"
    },
    {
      "constant": false,
      "inputs": [],
      "name": "pause",
      "outputs": [],
      "payable": false,
      "stateMutability": "nonpayable",
      "type": "function"
    },
    {
      "constant": false,
      "inputs": [],
      "name": "unpause",
      "outputs": [],
      "payable": false,
      "stateMutability": "nonpayable",
      "type": "function"
    },
    {
      "constant": false,
      "inputs": [
        {
          "name": "_tickerRegFee",
          "type": "uint256"
        }
      ],
      "name": "changeTickerRegistrationFee",
      "outputs": [],
      "payable": false,
      "stateMutability": "nonpayable",
      "type": "function"
    },
    {
      "constant": false,
      "inputs": [
        {
          "name": "_stLaunchFee",
          "type": "uint256"
        }
      ],
      "name": "changeSecurityLaunchFee",
      "outputs": [],
      "payable": false,
      "stateMutability": "nonpayable",
      "type": "function"
    },
    {
      "constant": false,
      "inputs": [
        {
          "name": "_tokenContract",
          "type": "address"
        }
      ],
      "name": "reclaimERC20",
      "outputs": [],
      "payable": false,
      "stateMutability": "nonpayable",
      "type": "function"
    },
    {
      "constant": false,
      "inputs": [
        {
          "name": "_STFactoryAddress",
          "type": "address"
        },
        {
          "name": "_major",
          "type": "uint8"
        },
        {
          "name": "_minor",
          "type": "uint8"
        },
        {
          "name": "_patch",
          "type": "uint8"
        }
      ],
      "name": "setProtocolVersion",
      "outputs": [],
      "payable": false,
      "stateMutability": "nonpayable",
      "type": "function"
    },
    {
      "constant": true,
      "inputs": [],
      "name": "getSTFactoryAddress",
      "outputs": [
        {
          "name": "",
          "type": "address"
        }
      ],
      "payable": false,
      "stateMutability": "view",
      "type": "function"
    },
    {
      "constant": true,
      "inputs": [],
      "name": "getProtocolVersion",
      "outputs": [
        {
          "name": "",
          "type": "uint8[]"
        }
      ],
      "payable": false,
      "stateMutability": "view",
      "type": "function"
    },
    {
      "constant": false,
      "inputs": [
        {
          "name": "_newAddress",
          "type": "address"
        }
      ],
      "name": "updatePolyTokenAddress",
      "outputs": [],
      "payable": false,
      "stateMutability": "nonpayable",
      "type": "function"
    },
    {
      "constant": true,
      "inputs": [],
      "name": "getSecurityTokenLaunchFee",
      "outputs": [
        {
          "name": "",
          "type": "uint256"
        }
      ],
      "payable": false,
      "stateMutability": "view",
      "type": "function"
    },
    {
      "constant": true,
      "inputs": [],
      "name": "getTickerRegistrationFee",
      "outputs": [
        {
          "name": "",
          "type": "uint256"
        }
      ],
      "payable": false,
      "stateMutability": "view",
      "type": "function"
    },
    {
      "constant": true,
      "inputs": [],
      "name": "getExpiryLimit",
      "outputs": [
        {
          "name": "",
          "type": "uint256"
        }
      ],
      "payable": false,
      "stateMutability": "view",
      "type": "function"
    },
    {
      "constant": true,
      "inputs": [],
      "name": "isPaused",
      "outputs": [
        {
          "name": "",
          "type": "bool"
        }
      ],
      "payable": false,
      "stateMutability": "view",
      "type": "function"
    },
    {
      "constant": true,
      "inputs": [],
      "name": "owner",
      "outputs": [
        {
          "name": "",
          "type": "address"
        }
      ],
      "payable": false,
      "stateMutability": "view",
      "type": "function"
    }
  ],
  "bytecode": "0x608060405234801561001057600080fd5b50615b3580620000216000396000f30060806040526004361061019d5763ffffffff60e060020a600035041663165e694a81146101a25780631d8acf1b146101c9578063208b080f146101f557806321c8ad0e1461020f57806326839e5314610280578063321dff171461029857806333ce93fe146102d15780633f4ba83a146102e657806340398d67146102fb57806342c2e5511461031c57806363808bcb146103345780636658076c146103fe57806369ba0fe91461044e5780638456cb59146104db5780638905fd4f146104f05780638da5cb5b146105115780638f9bbf161461054257806392042aee14610621578063959346ae14610665578063972b3ab51461067d578063b187bd261461069d578063b3447ac9146106b2578063baed8bb1146106ca578063c37792b5146106e2578063c6cb7ab81461071f578063c75948f514610737578063d0f6fe421461074c578063d2d1016214610779578063d300a968146107a7578063d3623f98146107c8578063e1ecae9e146107fb578063e6ff950b14610810578063ea47075814610831578063f2fde38b14610846578063fb621f1414610867575b600080fd5b3480156101ae57600080fd5b506101b7610887565b60408051918252519081900360200190f35b3480156101d557600080fd5b506101e16004356108a6565b604080519115158252519081900360200190f35b34801561020157600080fd5b5061020d6004356108be565b005b34801561021b57600080fd5b50610230600160a060020a03600435166109d8565b60408051602080825283518183015283519192839290830191858101910280838360005b8381101561026c578181015183820152602001610254565b505050509050019250505060405180910390f35b34801561028c57600080fd5b506101b7600435610b15565b3480156102a457600080fd5b5061020d60048035600160a060020a03169060248035808201929081013591604435908101910135610b27565b3480156102dd57600080fd5b5061023061113a565b3480156102f257600080fd5b5061020d611173565b34801561030757600080fd5b50610230600160a060020a0360043516611274565b34801561032857600080fd5b5061020d6004356115d2565b34801561034057600080fd5b5061035460048035602481019101356116f1565b6040518086600160a060020a0316600160a060020a031681526020018581526020018481526020018060200183151515158152602001828103825284818151815260200191508051906020019080838360005b838110156103bf5781810151838201526020016103a7565b50505050905090810190601f1680156103ec5780820380516001836020036101000a031916815260200191505b50965050505050505060405180910390f35b34801561040a57600080fd5b5061020d6024600480358281019290820135918135808301929082013591600160a060020a036044358116926064359091169160843591820191013560a435611881565b34801561045a57600080fd5b50610466600435611d11565b6040805160208082528351818301528351919283929083019185019080838360005b838110156104a0578181015183820152602001610488565b50505050905090810190601f1680156104cd5780820380516001836020036101000a031916815260200191505b509250505060405180910390f35b3480156104e757600080fd5b5061020d611db4565b3480156104fc57600080fd5b5061020d600160a060020a0360043516611ea2565b34801561051d57600080fd5b506105266120cb565b60408051600160a060020a039092168252519081900360200190f35b34801561054e57600080fd5b50610563600160a060020a03600435166120e4565b604051808060200185600160a060020a0316600160a060020a0316815260200180602001848152602001838103835287818151815260200191508051906020019080838360005b838110156105c25781810151838201526020016105aa565b50505050905090810190601f1680156105ef5780820380516001836020036101000a031916815260200191505b5083810382528551815285516020918201918701908083836000838110156103bf5781810151838201526020016103a7565b34801561062d57600080fd5b5061020d60048035600160a060020a0316906024803580820192908101359160443590810191013560643560843560a435151561222b565b34801561067157600080fd5b5061020d60043561248d565b34801561068957600080fd5b5061020d60048035602481019101356125a8565b3480156106a957600080fd5b506101e16127ca565b3480156106be57600080fd5b506101b76004356127e3565b3480156106d657600080fd5b506105266004356127f5565b3480156106ee57600080fd5b5061020d60246004803582810192908201359181358083019290820135916044359182019101356064351515612810565b34801561072b57600080fd5b506104666004356134ac565b34801561074357600080fd5b506101b7613516565b34801561075857600080fd5b5061020d60048035600160a060020a0316906024803590810191013561352f565b61020d600160a060020a03600435811690602435811690604435906064359060843581169060a43516613bc6565b3480156107b357600080fd5b506101e1600160a060020a0360043516613e33565b3480156107d457600080fd5b5061020d600160a060020a036004351660ff60243581169060443581169060643516613f00565b34801561080757600080fd5b506101b7613fc7565b34801561081c57600080fd5b5061020d600160a060020a0360043516613fe0565b34801561083d57600080fd5b5061052661409b565b34801561085257600080fd5b5061020d600160a060020a036004351661410d565b34801561087357600080fd5b50610526600480356024810191013561421e565b60006108a060008051602061594a833981519152610b15565b90505b90565b60008181526004602052604090205460ff165b919050565b6108c66120cb565b600160a060020a03163314610913576040805160e560020a62461bcd02815260206004820152601460248201526000805160206159ca833981519152604482015290519081900360640190fd5b6201518081101561096e576040805160e560020a62461bcd02815260206004820152601660248201527f4578706972792073686f756c64203e3d20312064617900000000000000000000604482015290519081900360640190fd5b7f7e1cc0e69ee3b84fb62bbb71687d2565bbb8ad1771bb3e3cd15cbed424c833c86109a660008051602061594a833981519152610b15565b60408051918252602082018490528051918290030190a16109d560008051602061594a83398151915282614295565b50565b606060006060806000606060009450610a1c610a176040805190810160405280600d8152602001600080516020615a2a833981519152815250896142a7565b61439b565b93508351604051908082528060200260200182016040528015610a49578160200160208202803883390190505b509250600091505b8351821015610b0a57610a7a8483815181101515610a6b57fe5b906020019060200201516143fd565b905042610ab2610aad6040805190810160405280601c8152602001600080516020615a8a8339815191528152508461455b565b610b15565b101580610ac35750610ac38161463c565b15610aff578382815181101515610ad657fe5b906020019060200201518386815181101515610aee57fe5b602090810290910101526001909401935b600190910190610a51565b509095945050505050565b60009081526020819052604090205490565b600060606000610b356120cb565b600160a060020a031633600160a060020a03161415610e2757600160a060020a0388161515610bae576040805160e560020a62461bcd02815260206004820152601660248201527f4f776e65722073686f756c64206e6f7420626520307800000000000000000000604482015290519081900360640190fd5b600086118015610bbf5750600a8611155b1515610c03576040805160e560020a62461bcd02815260206004820152601a6024820152600080516020615aaa833981519152604482015290519081900360640190fd5b610c0b613fc7565b92506000831115610d0a57610c2d600080516020615a4a8339815191526127f5565b6040805160e060020a6323b872dd028152336004820152306024820152604481018690529051600160a060020a0392909216916323b872dd916064808201926020929091908290030181600087803b158015610c8857600080fd5b505af1158015610c9c573d6000803e3d6000fd5b505050506040513d6020811015610cb257600080fd5b50511515610d0a576040805160e560020a62461bcd02815260206004820152601560248201527f496e737566666963656e7420616c6c6f77616e63650000000000000000000000604482015290519081900360640190fd5b610d4387878080601f01602080910402602001604051908101604052809392919081815260200183838082843750614679945050505050565b9150610d4e82614773565b1515610da4576040805160e560020a62461bcd02815260206004820152601260248201527f5469636b65722069732072657365727665640000000000000000000000000000604482015290519081900360640190fd5b610dad826147ee565b9050600160a060020a03811615610dc857610dc88183614820565b610e22888387878080601f01602080910402602001604051908101604052809392919081815260200183838082843782019150505050505042610e19610e0c610887565b429063ffffffff61495a16565b6000808a614967565b611130565b610e2f6127ca565b15610e72576040805160e560020a62461bcd02815260206004820152600e6024820152600080516020615aca833981519152604482015290519081900360640190fd5b600160a060020a0388161515610ed2576040805160e560020a62461bcd02815260206004820152601660248201527f4f776e65722073686f756c64206e6f7420626520307800000000000000000000604482015290519081900360640190fd5b600086118015610ee35750600a8611155b1515610f27576040805160e560020a62461bcd02815260206004820152601a6024820152600080516020615aaa833981519152604482015290519081900360640190fd5b610f2f613fc7565b9250600083111561102e57610f51600080516020615a4a8339815191526127f5565b6040805160e060020a6323b872dd028152336004820152306024820152604481018690529051600160a060020a0392909216916323b872dd916064808201926020929091908290030181600087803b158015610fac57600080fd5b505af1158015610fc0573d6000803e3d6000fd5b505050506040513d6020811015610fd657600080fd5b5051151561102e576040805160e560020a62461bcd02815260206004820152601560248201527f496e737566666963656e7420616c6c6f77616e63650000000000000000000000604482015290519081900360640190fd5b61106787878080601f01602080910402602001604051908101604052809392919081815260200183838082843750614679945050505050565b915061107282614773565b15156110c8576040805160e560020a62461bcd02815260206004820152601260248201527f5469636b65722069732072657365727665640000000000000000000000000000604482015290519081900360640190fd5b6110d1826147ee565b9050600160a060020a038116156110ec576110ec8183614820565b611130888387878080601f01602080910402602001604051908101604052809392919081815260200183838082843782019150505050505042610e19610e0c610887565b5050505050505050565b60606108a061116e610aad6040805190810160405280600d815260200160008051602061592a833981519152815250614aa9565b614b73565b61117b6127ca565b15156111d1576040805160e560020a62461bcd02815260206004820152601460248201527f53686f756c64206e6f7420626520706175736564000000000000000000000000604482015290519081900360640190fd5b6111d96120cb565b600160a060020a03163314611226576040805160e560020a62461bcd02815260206004820152601460248201526000805160206159ca833981519152604482015290519081900360640190fd5b61123f6000805160206158ea8339815191526000614c18565b6040805142815290517faaa520fdd7d2c83061d632fa017b0432407e798818af63ea908589fceda39ab79181900360200190a1565b6060806060600080600080600060606112c96112c46040805190810160405280600b81526020017f6163746976655573657273000000000000000000000000000000000000000000815250614aa9565b614c38565b9750600094508493508392505b875184101561142c57611326610a176040805190810160405280600d8152602001600080516020615a2a8339815191528152508a8781518110151561131757fe5b906020019060200201516142a7565b9650600092505b86518310156114215761137b611376604080519081016040528060158152602001600080516020615a6a8339815191528152506113718a87815181101515610a6b57fe5b61455b565b6127f5565b9550600160a060020a038616156114165789600160a060020a031686600160a060020a0316638da5cb5b6040518163ffffffff1660e060020a028152600401602060405180830381600087803b1580156113d457600080fd5b505af11580156113e8573d6000803e3d6000fd5b505050506040513d60208110156113fe57600080fd5b5051600160a060020a03161415611416578460010194505b60019092019161132d565b6001909301926112d6565b600091508460405190808252806020026020018201604052801561145a578160200160208202803883390190505b509050600093505b87518410156115c5576114a3610a176040805190810160405280600d8152602001600080516020615a2a8339815191528152508a8781518110151561131757fe5b9650600092505b86518310156115ba576114ee611376604080519081016040528060158152602001600080516020615a6a8339815191528152506113718a87815181101515610a6b57fe5b9550600160a060020a038616156115af5789600160a060020a031686600160a060020a0316638da5cb5b6040518163ffffffff1660e060020a028152600401602060405180830381600087803b15801561154757600080fd5b505af115801561155b573d6000803e3d6000fd5b505050506040513d602081101561157157600080fd5b5051600160a060020a031614156115af5785818381518110151561159157fe5b600160a060020a039092166020928302909101909101526001909101905b6001909201916114aa565b600190930192611462565b9998505050505050505050565b60006115dc6120cb565b600160a060020a03163314611629576040805160e560020a62461bcd02815260206004820152601460248201526000805160206159ca833981519152604482015290519081900360640190fd5b61164060008051602061596a833981519152610b15565b90508181141561169a576040805160e560020a62461bcd02815260206004820152600f60248201527f466565206e6f74206368616e6765640000000000000000000000000000000000604482015290519081900360640190fd5b604080518281526020810184905281517f082ce758ae1784abd031015a0eac6700b941db0797e890ae7c4d326a5f8255c0929181900390910190a16116ed60008051602061596a83398151915283614295565b5050565b60008060006060600060606000806117388a8a8080601f01602080910402602001604051908101604052809392919081815260200183838082843750614679945050505050565b92506117438361463c565b9150611775610aad6040805190810160405280601c8152602001600080516020615a8a8339815191528152508561455b565b90506001821515148061178757504281115b1561185657611795836147ee565b6117fe610aad606060405190810160405280602281526020017f726567697374657265645469636b6572735f726567697374726174696f6e446181526020017f74650000000000000000000000000000000000000000000000000000000000008152508661455b565b826118466118416040805190810160405280601b81526020017f726567697374657265645469636b6572735f746f6b656e4e616d6500000000008152508861455b565b611d11565b8597509750975097509750611874565b60408051602081019091526000808252985088975087965094508593505b5050509295509295909350565b606060008061188e6120cb565b600160a060020a031633146118db576040805160e560020a62461bcd02815260206004820152601460248201526000805160206159ca833981519152604482015290519081900360640190fd5b60008b1180156118eb5750600089115b1515611941576040805160e560020a62461bcd02815260206004820152601160248201527f537472696e67206c656e677468203e2030000000000000000000000000000000604482015290519081900360640190fd5b600a891115611988576040805160e560020a62461bcd02815260206004820152601a6024820152600080516020615aaa833981519152604482015290519081900360640190fd5b831580159061199f5750600160a060020a03881615155b15156119f5576040805160e560020a62461bcd02815260206004820152601a60248201527f302076616c756520706172616d73206e6f7420616c6c6f776564000000000000604482015290519081900360640190fd5b611a2e8a8a8080601f01602080910402602001604051908101604052809392919081815260200183838082843750614679945050505050565b9250600160a060020a0387161515611a90576040805160e560020a62461bcd02815260206004820152601060248201527f5354206164647265737320697320307800000000000000000000000000000000604482015290519081900360640190fd5b611af9610aad606060405190810160405280602281526020017f726567697374657265645469636b6572735f726567697374726174696f6e446181526020017f74650000000000000000000000000000000000000000000000000000000000008152508561455b565b9150611b2b610aad6040805190810160405280601c8152602001600080516020615a8a8339815191528152508561455b565b9050811515611b5257429150611b4f611b42610887565b839063ffffffff61495a16565b90505b611b88611b82604080519081016040528060158152602001600080516020615a6a8339815191528152508561455b565b88614ca3565b611bc988848e8e8080601f01602080910402602001604051908101604052809392919081815260200183838082843782019150505050505085856001614cde565b611c06878488888080601f016020809104026020016040519081016040528093929190818152602001838380828437508c9450614e079350505050565b87600160a060020a031687600160a060020a03167f63d9fb58b25a396dc2ebc591bec9115d1eb9c722dd6cdfcc9be4144d39dc2c26858f8f89336001611c4a613516565b60408051908101859052600160a060020a0384166060820152821515608082015260a0810182905260c08082528851908201528751819060208083019160e08401918c019080838360005b83811015611cad578181015183820152602001611c95565b50505050905090810190601f168015611cda5780820380516001836020036101000a031916815260200191505b50838103825288815260200189898082843760405192018290039b50909950505050505050505050a3505050505050505050505050565b60008181526001602081815260409283902080548451600260001995831615610100029590950190911693909304601f81018390048302840183019094528383526060939091830182828015611da85780601f10611d7d57610100808354040283529160200191611da8565b820191906000526020600020905b815481529060010190602001808311611d8b57829003601f168201915b50505050509050919050565b611dbc6127ca565b15611dff576040805160e560020a62461bcd02815260206004820152600e6024820152600080516020615aca833981519152604482015290519081900360640190fd5b611e076120cb565b600160a060020a03163314611e54576040805160e560020a62461bcd02815260206004820152601460248201526000805160206159ca833981519152604482015290519081900360640190fd5b611e6d6000805160206158ea8339815191526001614c18565b6040805142815290517f68b095021b1f40fe513109f513c66692f0b3219aee674a69f4efc57badb8201d9181900360200190a1565b600080611ead6120cb565b600160a060020a03163314611efa576040805160e560020a62461bcd02815260206004820152601460248201526000805160206159ca833981519152604482015290519081900360640190fd5b600160a060020a0383161515611f48576040805160e560020a62461bcd02815260206004820152600f602482015260008051602061598a833981519152604482015290519081900360640190fd5b604080517f70a082310000000000000000000000000000000000000000000000000000000081523060048201529051849350600160a060020a038416916370a082319160248083019260209291908290030181600087803b158015611fac57600080fd5b505af1158015611fc0573d6000803e3d6000fd5b505050506040513d6020811015611fd657600080fd5b50519050600160a060020a03821663a9059cbb611ff16120cb565b836040518363ffffffff1660e060020a0281526004018083600160a060020a0316600160a060020a0316815260200182815260200192505050602060405180830381600087803b15801561204457600080fd5b505af1158015612058573d6000803e3d6000fd5b505050506040513d602081101561206e57600080fd5b505115156120c6576040805160e560020a62461bcd02815260206004820152600f60248201527f5472616e73666572206661696c65640000000000000000000000000000000000604482015290519081900360640190fd5b505050565b60006108a0600080516020615a0a8339815191526127f5565b606060006060600061212e6118416040805190810160405280601581526020017f7365637572697479546f6b656e735f7469636b65720000000000000000000000815250876142a7565b85600160a060020a0316638da5cb5b6040518163ffffffff1660e060020a028152600401602060405180830381600087803b15801561216c57600080fd5b505af1158015612180573d6000803e3d6000fd5b505050506040513d602081101561219657600080fd5b505160408051808201909152601b81527f7365637572697479546f6b656e735f746f6b656e44657461696c73000000000060208201526121da9061184190896142a7565b61221c610aad6040805190810160405280601981526020017f7365637572697479546f6b656e735f6465706c6f7965644174000000000000008152508a6142a7565b93509350935093509193509193565b60606122356120cb565b600160a060020a03163314612282576040805160e560020a62461bcd02815260206004820152601460248201526000805160206159ca833981519152604482015290519081900360640190fd5b6000871180156122935750600a8711155b15156122d7576040805160e560020a62461bcd02815260206004820152601a6024820152600080516020615aaa833981519152604482015290519081900360640190fd5b82158015906122e557508315155b151561233b576040805160e560020a62461bcd02815260206004820152601560248201527f44617465732073686f756c64206e6f7420626520300000000000000000000000604482015290519081900360640190fd5b828411156123b9576040805160e560020a62461bcd02815260206004820152602660248201527f526567697374726174696f6e20646174652073686f756c64203c20657870697260448201527f7920646174650000000000000000000000000000000000000000000000000000606482015290519081900360840190fd5b600160a060020a0389161515612407576040805160e560020a62461bcd02815260206004820152600f602482015260008051602061598a833981519152604482015290519081900360640190fd5b61244088888080601f01602080910402602001604051908101604052809392919081815260200183838082843750614679945050505050565b9050612482898288888080601f016020809104026020016040519081016040528093929190818152602001838380828437820191505050505050878787614cde565b505050505050505050565b60006124976120cb565b600160a060020a031633146124e4576040805160e560020a62461bcd02815260206004820152601460248201526000805160206159ca833981519152604482015290519081900360640190fd5b6124fb60008051602061590a833981519152610b15565b905081811415612555576040805160e560020a62461bcd02815260206004820152600f60248201527f466565206e6f74206368616e6765640000000000000000000000000000000000604482015290519081900360640190fd5b604080518281526020810184905281517f788dceb058391de5648d0deb9187656f8c46d3ee285c1077579adf642793f1f6929181900390910190a16116ed60008051602061590a83398151915283614295565b606060006125b46120cb565b600160a060020a03163314612601576040805160e560020a62461bcd02815260206004820152601460248201526000805160206159ca833981519152604482015290519081900360640190fd5b61263a84848080601f01602080910402602001604051908101604052809392919081815260200183838082843750614679945050505050565b9150612645826147ee565b9050600160a060020a03811615156126a7576040805160e560020a62461bcd02815260206004820152601460248201527f5469636b657220646f65736e2774206578697374000000000000000000000000604482015290519081900360640190fd5b6126b18183614820565b6126e86126e1604080519081016040528060158152602001600080516020615a6a8339815191528152508461455b565b6000614ca3565b61270982600080600060206040519081016040528060008152506000614edf565b7f5854c55b609f5180d42245ffca3efcee6c5db8e73ea96e693d8667e0bcb4d470824233604051808060200184815260200183600160a060020a0316600160a060020a03168152602001828103825285818151815260200191508051906020019080838360005b83811015612788578181015183820152602001612770565b50505050905090810190601f1680156127b55780820380516001836020036101000a031916815260200191505b5094505050505060405180910390a150505050565b60006108a06000805160206158ea8339815191526108a6565b60009081526006602052604090205490565b600090815260026020526040902054600160a060020a031690565b6060600080600061281f6120cb565b600160a060020a031633600160a060020a03161415612e4b5760008a1180156128485750600088115b151561289e576040805160e560020a62461bcd02815260206004820152601160248201527f5469636b6572206c656e677468203e2030000000000000000000000000000000604482015290519081900360640190fd5b6128d789898080601f01602080910402602001604051908101604052809392919081815260200183838082843750614679945050505050565b93506129066040805190810160405280601881526020016000805160206159ea8339815191528152508561455b565b9250612911836108a6565b15612966576040805160e560020a62461bcd02815260206004820152601060248201527f416c7265616479206465706c6f79656400000000000000000000000000000000604482015290519081900360640190fd5b612971836001614c18565b3361297b856147ee565b600160a060020a0316146129c7576040805160e560020a62461bcd02815260206004820152600e6024820152600080516020615aea833981519152604482015290519081900360640190fd5b426129f8610aad6040805190810160405280601c8152602001600080516020615a8a8339815191528152508761455b565b1015612a4e576040805160e560020a62461bcd02815260206004820152601360248201527f5469636b65722067657473206578706972656400000000000000000000000000604482015290519081900360640190fd5b612a56613516565b91506000821115612b5557612a78600080516020615a4a8339815191526127f5565b6040805160e060020a6323b872dd028152336004820152306024820152604481018590529051600160a060020a0392909216916323b872dd916064808201926020929091908290030181600087803b158015612ad357600080fd5b505af1158015612ae7573d6000803e3d6000fd5b505050506040513d6020811015612afd57600080fd5b50511515612b55576040805160e560020a62461bcd02815260206004820152601660248201527f496e73756666696369656e7420616c6c6f77616e636500000000000000000000604482015290519081900360640190fd5b612b5d61409b565b600160a060020a031663c85fd4f88c8c8760128c8c338d612b9d7f90eeab7c36075577c7cc5ff366e389fefa8a18289b949bab3529ab4471139d4d6127f5565b60405160e060020a63ffffffff8c1602815260ff87166044820152600160a060020a03808516608483015283151560a4830152821660c482015260e06004820190815260e482018a905290819060248101906064810190610104018d8d8082843790910185810384528c5181528c5160209182019250908d019080838360005b83811015612c35578181015183820152602001612c1d565b50505050905090810190601f168015612c625780820380516001836020036101000a031916815260200191505b50848103825288815260200189898082843782019150509c50505050505050505050505050602060405180830381600087803b158015612ca157600080fd5b505af1158015612cb5573d6000803e3d6000fd5b505050506040513d6020811015612ccb57600080fd5b5051604080516020601f8a01819004810282018101909252888152919250612d0e9183918791908b908b908190840183828082843750429450614e079350505050565b612d44612d3e604080519081016040528060158152602001600080516020615a6a8339815191528152508661455b565b82614ca3565b33600160a060020a031681600160a060020a03167f63d9fb58b25a396dc2ebc591bec9115d1eb9c722dd6cdfcc9be4144d39dc2c26868e8e423360008a60405180806020018060200187815260200186600160a060020a0316600160a060020a031681526020018515151515815260200184815260200183810383528a818151815260200191508051906020019080838360005b83811015612df0578181015183820152602001612dd8565b50505050905090810190601f168015612e1d5780820380516001836020036101000a031916815260200191505b50838103825288815260200189898082843760405192018290039b50909950505050505050505050a361349f565b612e536127ca565b15612e96576040805160e560020a62461bcd02815260206004820152600e6024820152600080516020615aca833981519152604482015290519081900360640190fd5b60008a118015612ea65750600088115b1515612efc576040805160e560020a62461bcd02815260206004820152601160248201527f5469636b6572206c656e677468203e2030000000000000000000000000000000604482015290519081900360640190fd5b612f3589898080601f01602080910402602001604051908101604052809392919081815260200183838082843750614679945050505050565b9350612f646040805190810160405280601881526020016000805160206159ea8339815191528152508561455b565b9250612f6f836108a6565b15612fc4576040805160e560020a62461bcd02815260206004820152601060248201527f416c7265616479206465706c6f79656400000000000000000000000000000000604482015290519081900360640190fd5b612fcf836001614c18565b33612fd9856147ee565b600160a060020a031614613025576040805160e560020a62461bcd02815260206004820152600e6024820152600080516020615aea833981519152604482015290519081900360640190fd5b42613056610aad6040805190810160405280601c8152602001600080516020615a8a8339815191528152508761455b565b10156130ac576040805160e560020a62461bcd02815260206004820152601360248201527f5469636b65722067657473206578706972656400000000000000000000000000604482015290519081900360640190fd5b6130b4613516565b915060008211156131b3576130d6600080516020615a4a8339815191526127f5565b6040805160e060020a6323b872dd028152336004820152306024820152604481018590529051600160a060020a0392909216916323b872dd916064808201926020929091908290030181600087803b15801561313157600080fd5b505af1158015613145573d6000803e3d6000fd5b505050506040513d602081101561315b57600080fd5b505115156131b3576040805160e560020a62461bcd02815260206004820152601660248201527f496e73756666696369656e7420616c6c6f77616e636500000000000000000000604482015290519081900360640190fd5b6131bb61409b565b600160a060020a031663c85fd4f88c8c8760128c8c338d6131fb7f90eeab7c36075577c7cc5ff366e389fefa8a18289b949bab3529ab4471139d4d6127f5565b60405160e060020a63ffffffff8c1602815260ff87166044820152600160a060020a03808516608483015283151560a4830152821660c482015260e06004820190815260e482018a905290819060248101906064810190610104018d8d8082843790910185810384528c5181528c5160209182019250908d019080838360005b8381101561329357818101518382015260200161327b565b50505050905090810190601f1680156132c05780820380516001836020036101000a031916815260200191505b50848103825288815260200189898082843782019150509c50505050505050505050505050602060405180830381600087803b1580156132ff57600080fd5b505af1158015613313573d6000803e3d6000fd5b505050506040513d602081101561332957600080fd5b5051604080516020601f8a0181900481028201810190925288815291925061336c9183918791908b908b908190840183828082843750429450614e079350505050565b61339c612d3e604080519081016040528060158152602001600080516020615a6a8339815191528152508661455b565b33600160a060020a031681600160a060020a03167f63d9fb58b25a396dc2ebc591bec9115d1eb9c722dd6cdfcc9be4144d39dc2c26868e8e423360008a60405180806020018060200187815260200186600160a060020a0316600160a060020a031681526020018515151515815260200184815260200183810383528a818151815260200191508051906020019080838360005b83811015613448578181015183820152602001613430565b50505050905090810190601f1680156134755780820380516001836020036101000a031916815260200191505b50838103825288815260200189898082843760405192018290039b50909950505050505050505050a35b5050505050505050505050565b60008181526003602090815260409182902080548351601f6002610100600185161502600019019093169290920491820184900484028101840190945280845260609392830182828015611da85780601f10611d7d57610100808354040283529160200191611da8565b60006108a060008051602061596a833981519152610b15565b6060600061353b6120cb565b600160a060020a031633600160a060020a031614156138665761358d84848080601f01602080910402602001604051908101604052809392919081815260200183838082843750614679945050505050565b9150600160a060020a03851615156135dd576040805160e560020a62461bcd02815260206004820152600f602482015260008051602061598a833981519152604482015290519081900360640190fd5b61360a6040805190810160405280601781526020016000805160206159aa8339815191528152508361455b565b905033613616826127f5565b600160a060020a031614613662576040805160e560020a62461bcd02815260206004820152600e6024820152600080516020615aea833981519152604482015290519081900360640190fd5b61366b8261463c565b156137965784600160a060020a03166136aa611376604080519081016040528060158152602001600080516020615a6a8339815191528152508561455b565b600160a060020a0316638da5cb5b6040518163ffffffff1660e060020a028152600401602060405180830381600087803b1580156136e757600080fd5b505af11580156136fb573d6000803e3d6000fd5b505050506040513d602081101561371157600080fd5b5051600160a060020a031614613796576040805160e560020a62461bcd028152602060048201526024808201527f4e6577206f776e657220646f6573206e6f74206d6174636820746f6b656e206f60448201527f776e657200000000000000000000000000000000000000000000000000000000606482015290519081900360840190fd5b6137a03383614820565b6137aa85836150ba565b6137b48186614ca3565b84600160a060020a031633600160a060020a03167f44ee9de70a04c2a46889521de8968f79b4ae423f078fbaec8c492d821154729c846040518080602001828103825283818151815260200191508051906020019080838360005b8381101561382757818101518382015260200161380f565b50505050905090810190601f1680156138545780820380516001836020036101000a031916815260200191505b509250505060405180910390a3613bbf565b61386e6127ca565b156138b1576040805160e560020a62461bcd02815260206004820152600e6024820152600080516020615aca833981519152604482015290519081900360640190fd5b6138ea84848080601f01602080910402602001604051908101604052809392919081815260200183838082843750614679945050505050565b9150600160a060020a038516151561393a576040805160e560020a62461bcd02815260206004820152600f602482015260008051602061598a833981519152604482015290519081900360640190fd5b6139676040805190810160405280601781526020016000805160206159aa8339815191528152508361455b565b905033613973826127f5565b600160a060020a0316146139bf576040805160e560020a62461bcd02815260206004820152600e6024820152600080516020615aea833981519152604482015290519081900360640190fd5b6139c88261463c565b15613af35784600160a060020a0316613a07611376604080519081016040528060158152602001600080516020615a6a8339815191528152508561455b565b600160a060020a0316638da5cb5b6040518163ffffffff1660e060020a028152600401602060405180830381600087803b158015613a4457600080fd5b505af1158015613a58573d6000803e3d6000fd5b505050506040513d6020811015613a6e57600080fd5b5051600160a060020a031614613af3576040805160e560020a62461bcd028152602060048201526024808201527f4e6577206f776e657220646f6573206e6f74206d6174636820746f6b656e206f60448201527f776e657200000000000000000000000000000000000000000000000000000000606482015290519081900360840190fd5b613afd3383614820565b613b0785836150ba565b613b118186614ca3565b84600160a060020a031633600160a060020a03167f44ee9de70a04c2a46889521de8968f79b4ae423f078fbaec8c492d821154729c846040518080602001828103825283818151815260200191508051906020019080838360005b83811015613b84578181015183820152602001613b6c565b50505050905090810190601f168015613bb15780820380516001836020036101000a031916815260200191505b509250505060405180910390a35b5050505050565b613bef7f9ef7257c3339b099aacf96e55122ee78fb65a36bd2a6c19249882be9c98633bf6108a6565b15613c44576040805160e560020a62461bcd02815260206004820152601360248201527f616c726561647920696e697469616c697a656400000000000000000000000000604482015290519081900360640190fd5b600160a060020a03851615801590613c645750600160a060020a03821615155b8015613c785750600160a060020a03811615155b8015613c8c5750600160a060020a03861615155b1515613cd0576040805160e560020a62461bcd02815260206004820152600f602482015260008051602061598a833981519152604482015290519081900360640190fd5b8315801590613cde57508215155b1515613d34576040805160e560020a62461bcd02815260206004820152601460248201527f466565732073686f756c64206e6f742062652030000000000000000000000000604482015290519081900360640190fd5b613d4c600080516020615a4a83398151915283614ca3565b613d6460008051602061596a83398151915285614295565b613d7c60008051602061590a83398151915284614295565b613d9760008051602061594a833981519152624f1a00614295565b613db06000805160206158ea8339815191526000614c18565b613dc8600080516020615a0a83398151915282614ca3565b613df27f90eeab7c36075577c7cc5ff366e389fefa8a18289b949bab3529ab4471139d4d87614ca3565b613e008560026000806151f6565b613e2b7f9ef7257c3339b099aacf96e55122ee78fb65a36bd2a6c19249882be9c98633bf6001614c18565b505050505050565b60408051808201909152601581527f7365637572697479546f6b656e735f7469636b6572000000000000000000000060208201526000907fc5d2460186f7233c927e7db2dcc703c0e500b653ca82273b7bfad8045d85a47090613e9a9061184190856142a7565b6040518082805190602001908083835b60208310613ec95780518252601f199092019160209182019101613eaa565b5181516020939093036101000a60001901801990911692169190911790526040519201829003909120939093141595945050505050565b613f086120cb565b600160a060020a03163314613f55576040805160e560020a62461bcd02815260206004820152601460248201526000805160206159ca833981519152604482015290519081900360640190fd5b600160a060020a0384161515613fb5576040805160e560020a62461bcd02815260206004820152601960248201527f30782061646472657373206973206e6f7420616c6c6f77656400000000000000604482015290519081900360640190fd5b613fc1848484846151f6565b50505050565b60006108a060008051602061590a833981519152610b15565b613fe86120cb565b600160a060020a03163314614035576040805160e560020a62461bcd02815260206004820152601460248201526000805160206159ca833981519152604482015290519081900360640190fd5b600160a060020a0381161515614083576040805160e560020a62461bcd02815260206004820152600f602482015260008051602061598a833981519152604482015290519081900360640190fd5b6109d5600080516020615a4a83398151915282614ca3565b60006108a06113766040805190810160405280601181526020017f70726f746f636f6c56657273696f6e5354000000000000000000000000000000815250614108610aad6040805190810160405280600d815260200160008051602061592a833981519152815250614aa9565b6153a0565b6141156120cb565b600160a060020a03163314614162576040805160e560020a62461bcd02815260206004820152601460248201526000805160206159ca833981519152604482015290519081900360640190fd5b600160a060020a03811615156141b0576040805160e560020a62461bcd02815260206004820152600f602482015260008051602061598a833981519152604482015290519081900360640190fd5b600160a060020a0381166141d1600080516020615a0a8339815191526127f5565b600160a060020a03167f8be0079c531659141344cd1fd0a4f28419497f9722a3daafe3b4186f6b6457e060405160405180910390a36109d5600080516020615a0a83398151915282614ca3565b6000606061425b84848080601f01602080910402602001604051908101604052809392919081815260200183838082843750614679945050505050565b905061428d611376604080519081016040528060158152602001600080516020615a6a8339815191528152508361455b565b949350505050565b60009182526020829052604090912055565b600082826040516020018083805190602001908083835b602083106142dd5780518252601f1990920191602091820191016142be565b6001836020036101000a03801982511681845116808217855250505050505090500182600160a060020a0316600160a060020a03166c01000000000000000000000000028152601401925050506040516020818303038152906040526040518082805190602001908083835b602083106143685780518252601f199092019160209182019101614349565b5181516020939093036101000a600019018019909116921691909117905260405192018290039091209695505050505050565b600081815260076020908152604091829020805483518184028101840190945280845260609392830182828015611da857602002820191906000526020600020905b815481526001909101906020018083116143dd5750505050509050919050565b6040805160208082528183019092526060918291600091829182918591908082016104008038833901905050945060009350600092505b60208310156144a9576008830260020a87029150600160f860020a031982161561449e5781858581518110151561446757fe5b9060200101907effffffffffffffffffffffffffffffffffffffffffffffffffffffffffffff1916908160001a9053506001909301925b600190920191614434565b836040519080825280601f01601f1916602001820160405280156144d7578160200160208202803883390190505b509050600092505b838310156145515784838151811015156144f557fe5b90602001015160f860020a900460f860020a02818481518110151561451657fe5b9060200101907effffffffffffffffffffffffffffffffffffffffffffffffffffffffffffff1916908160001a9053506001909201916144df565b9695505050505050565b600082826040516020018083805190602001908083835b602083106145915780518252601f199092019160209182019101614572565b51815160209384036101000a600019018019909216911617905285519190930192850191508083835b602083106145d95780518252601f1990920191602091820191016145ba565b6001836020036101000a03801982511681845116808217855250505050505090500192505050604051602081830303815290604052604051808280519060200190808383602083106143685780518252601f199092019160209182019101614349565b600061467361466e6040805190810160405280601881526020016000805160206159ea8339815191528152508461455b565b6108a6565b92915050565b6060816000805b825182101561476a57828281518110151561469757fe5b016020015160f860020a908190040290507f6100000000000000000000000000000000000000000000000000000000000000600160f860020a031982161080159061470c57507f7a00000000000000000000000000000000000000000000000000000000000000600160f860020a0319821611155b1561472057601f1960f860020a9182900401025b80838381518110151561472f57fe5b9060200101907effffffffffffffffffffffffffffffffffffffffffffffffffffffffffffff1916908160001a905350600190910190614680565b50909392505050565b60008061477f836147ee565b600160a060020a0316146147e6576147bd610aad6040805190810160405280601c8152602001600080516020615a8a8339815191528152508461455b565b421180156147d157506147cf8261463c565b155b156147de575060016108b9565b5060006108b9565b506001919050565b60006146736113766040805190810160405280601781526020016000805160206159aa8339815191528152508461455b565b60008060606000614869610aad6040805190810160405280600b81526020017f7469636b6572496e6465780000000000000000000000000000000000000000008152508761455b565b93506148986040805190810160405280600d8152602001600080516020615a2a833981519152815250876142a7565b92506148a38361439b565b805190925084106148b057fe5b85600160a060020a03166148c3866147ee565b600160a060020a0316146148d357fe5b6148dd8385615437565b836148e78461439b565b511115613e2b576148f78361439b565b80518590811061490357fe5b906020019060200201519050613e2b6149546040805190810160405280600b81526020017f7469636b6572496e646578000000000000000000000000000000000000000000815250611371846143fd565b85614295565b8181018281101561467357fe5b61497188886150ba565b61497f878987878a88614edf565b838589600160a060020a03167f2de60ed106ca2007f575a4a2ff327cdde9bf801386463689ccb784d8bd4685628a8a878760405180806020018060200185151515158152602001848152602001838103835287818151815260200191508051906020019080838360005b83811015614a015781810151838201526020016149e9565b50505050905090810190601f168015614a2e5780820380516001836020036101000a031916815260200191505b50838103825286518152865160209182019188019080838360005b83811015614a61578181015183820152602001614a49565b50505050905090810190601f168015614a8e5780820380516001836020036101000a031916815260200191505b50965050505050505060405180910390a45050505050505050565b6000816040516020018082805190602001908083835b60208310614ade5780518252601f199092019160209182019101614abf565b6001836020036101000a0380198251168184511680821785525050505050509050019150506040516020818303038152906040526040518082805190602001908083835b60208310614b415780518252601f199092019160209182019101614b22565b5181516020939093036101000a6000190180199091169216919091179052604051920182900390912095945050505050565b6040805160038082526080820190925260609182919060208201838038833950508151919250506201000062ffffff8516049082906000908110614bb357fe5b60ff909216602092830290910190910152805161010062ffffff8516049082906001908110614bde57fe5b60ff9092166020928302909101909101528051839082906002908110614c0057fe5b60ff9092166020928302909101909101529050919050565b600091825260046020526040909120805460ff1916911515919091179055565b600081815260096020908152604091829020805483518184028101840190945280845260609392830182828015611da857602002820191906000526020600020905b8154600160a060020a03168152600190910190602001808311614c7a5750505050509050919050565b600091825260026020526040909120805473ffffffffffffffffffffffffffffffffffffffff1916600160a060020a03909216919091179055565b6000614ce9866147ee565b9050600160a060020a03811615614d0457614d048187614820565b614d0d8661463c565b8015614d17575081155b15614d4c57614d4c6126e1604080519081016040528060158152602001600080516020615a6a8339815191528152508861455b565b8115614dec576000600160a060020a0316614d8d611376604080519081016040528060158152602001600080516020615a6a8339815191528152508961455b565b600160a060020a03161415614dec576040805160e560020a62461bcd02815260206004820152601460248201527f546f6b656e206e6f742072656769737465726564000000000000000000000000604482015290519081900360640190fd5b614dfe87878787878760016000614967565b50505050505050565b614e4f614e496040805190810160405280601581526020017f7365637572697479546f6b656e735f7469636b65720000000000000000000000815250866142a7565b8461550a565b614e97614e916040805190810160405280601b81526020017f7365637572697479546f6b656e735f746f6b656e44657461696c730000000000815250866142a7565b8361550a565b613fc1614ed96040805190810160405280601981526020017f7365637572697479546f6b656e735f6465706c6f796564417400000000000000815250866142a7565b82614295565b6000614f0e6040805190810160405280601781526020016000805160206159aa8339815191528152508861455b565b905085600160a060020a0316614f23826127f5565b600160a060020a031614614f3b57614f3b8187614ca3565b614fa1606060405190810160405280602281526020017f726567697374657265645469636b6572735f726567697374726174696f6e446181526020017f74650000000000000000000000000000000000000000000000000000000000008152508861455b565b905084614fad82610b15565b14614fbc57614fbc8186614295565b614fe96040805190810160405280601c8152602001600080516020615a8a8339815191528152508861455b565b905083614ff582610b15565b14615004576150048185614295565b6150436040805190810160405280601b81526020017f726567697374657265645469636b6572735f746f6b656e4e616d6500000000008152508861455b565b905061504e83614aa9565b61505f61505a83611d11565b614aa9565b1461506e5761506e818461550a565b61509b6040805190810160405280601881526020016000805160206159ea8339815191528152508861455b565b90508115156150a9826108a6565b151514614dfe57614dfe8183614c18565b60008060006150ec6040805190810160405280600d8152602001600080516020615a2a833981519152815250866142a7565b92506150f78361439b565b51915061510c8361510786615529565b615536565b61515461514e6040805190810160405280600b81526020017f7469636b6572496e6465780000000000000000000000000000000000000000008152508661455b565b83614295565b6151936040805190810160405280600981526020017f7365656e55736572730000000000000000000000000000000000000000000000815250866142a7565b905061519e816108a6565b1515613bbf576151eb6151e56040805190810160405280600b81526020017f6163746976655573657273000000000000000000000000000000000000000000815250614aa9565b86615559565b613bbf816001614c18565b60408051600380825260808201909252606091600091906020820184803883390190505091508482600081518110151561522c57fe5b60ff909216602092830290910190910152815184908390600190811061524e57fe5b60ff909216602092830290910190910152815183908390600290811061527057fe5b60ff90921660209283029091019091015261528c8585856155a5565b905061529f61529961113a565b836155c0565b15156152f5576040805160e560020a62461bcd02815260206004820152601060248201527f496e2d76616c69642076657273696f6e00000000000000000000000000000000604482015290519081900360640190fd5b61532f6153246040805190810160405280600d815260200160008051602061592a833981519152815250614aa9565b8262ffffff16614295565b613e2b61539a6040805190810160405280601181526020017f70726f746f636f6c56657273696f6e5354000000000000000000000000000000815250614108610aad6040805190810160405280600d815260200160008051602061592a833981519152815250614aa9565b87614ca3565b600082826040516020018083805190602001908083835b602083106153d65780518252601f1990920191602091820191016153b7565b51815160001960209485036101000a019081169019919091161790529201938452506040805180850381529382019081905283519394509283925090840190808383602083106143685780518252601f199092019160209182019101614349565b6000828152600760205260409020805482106154c3576040805160e560020a62461bcd02815260206004820152602a60248201527f496e6465782073686f756c64206c657373207468616e206c656e677468206f6660448201527f2074686520617272617900000000000000000000000000000000000000000000606482015290519081900360840190fd5b8054819060001981019081106154d557fe5b906000526020600020015481838154811015156154ee57fe5b600091825260209091200155805460001901613fc1828261582d565b600082815260016020908152604090912082516120c692840190615851565b60006146738260006157d3565b600091825260076020908152604083208054600181018255908452922090910155565b6000918252600960209081526040832080546001810182559084529220909101805473ffffffffffffffffffffffffffffffffffffffff1916600160a060020a03909216919091179055565b60ff9081169181166101000292166201000002919091171790565b6000606060008085516040519080825280602002602001820160405280156155f2578160200160208202803883390190505b50925060009150600090505b85518160ff16101561569e57848160ff1681518110151561561b57fe5b9060200190602002015160ff16868260ff1681518110151561563957fe5b9060200190602002015160ff161015615673576001838260ff1681518110151561565f57fe5b911515602092830290910190910152615696565b6000838260ff1681518110151561568657fe5b9115156020928302909101909101525b6001016155fe565b5060005b85518160ff1610156157b95760ff8116151561573b57848160ff168151811015156156c957fe5b9060200190602002015160ff16868260ff168151811015156156e757fe5b6020908102909101015160ff161161572d5782600081518110151561570857fe5b9060200190602002015115615722578160030191506157b9565b600190910190615736565b600093506157ca565b6157b1565b826001820360ff1681518110151561574f57fe5b9060200190602002015115615769576001909101906157b1565b848160ff1681518110151561577a57fe5b9060200190602002015160ff16868260ff1681518110151561579857fe5b6020908102909101015160ff161161572d576001909101905b6001016156a2565b85518260ff1614156157ca57600193505b50505092915050565b600080805b84518110156158255780600802858286018151811015156157f557fe5b60209101015160029190910a60f860020a91829004909102600160f860020a0319160491909117906001016157d8565b509392505050565b8154818355818111156120c6576000838152602090206120c69181019083016158cf565b828054600181600116156101000203166002900490600052602060002090601f016020900481019282601f1061589257805160ff19168380011785556158bf565b828001600101855582156158bf579182015b828111156158bf5782518255916020019190600101906158a4565b506158cb9291506158cf565b5090565b6108a391905b808211156158cb57600081556001016158d55600ee35723ac350a69d2a92d3703f17439cbaadf2f093a21ba5bf5f1a53eb2a14d92fcc69711628630fb5a42566c68bd1092bc4aa26826736293969fddcd11cb2d26c617465737456657273696f6e00000000000000000000000000000000000000604268e9a73dfd777dcecb8a614493dd65c638bad2f5e7d709d378bd2fb0baeed677304bb45536bb7fdfa6b9e47a3c58fe413f9e8f01474b0a4b9c6e0275baf2496e76616c696420616464726573730000000000000000000000000000000000726567697374657265645469636b6572735f6f776e657200000000000000000073656e646572206d757374206265206f776e6572000000000000000000000000726567697374657265645469636b6572735f737461747573000000000000000002016836a56b71f0d02689e69e326f4f4c1b9057164ef592671cf0d37c8040c075736572546f5469636b65727300000000000000000000000000000000000000acf8fbd51bb4b83ba426cdb12f63be74db97c412515797993d2a385542e311d77469636b6572546f5365637572697479546f6b656e0000000000000000000000726567697374657265645469636b6572735f65787069727944617465000000005469636b6572206c656e6774682072616e67652028302c31305d000000000000416c7265616479207061757365640000000000000000000000000000000000004e6f7420617574686f7269736564000000000000000000000000000000000000a165627a7a7230582035eb3a05cf0c2ffbaa0f8dbfc449faefc15578aeebd67f98eacb29b73fad164e0029",
  "source": "pragma solidity ^0.4.24;\n\nimport \"openzeppelin-solidity/contracts/math/SafeMath.sol\";\nimport \"./interfaces/IOwnable.sol\";\nimport \"./interfaces/ISTFactory.sol\";\nimport \"./interfaces/IERC20.sol\";\nimport \"./interfaces/ISecurityTokenRegistry.sol\";\nimport \"./storage/EternalStorage.sol\";\nimport \"./libraries/Util.sol\";\nimport \"./libraries/Encoder.sol\";\nimport \"./libraries/VersionUtils.sol\";\n\n/**\n * @title Registry contract for issuers to register their tickers and security tokens\n */\ncontract SecurityTokenRegistry is ISecurityTokenRegistry, EternalStorage {\n\n    /**\n     * @notice state variables\n\n       address public polyToken;\n       uint256 public stLaunchFee;\n       uint256 public tickerRegFee;\n       uint256 public expiryLimit;\n       uint256 public latestProtocolVersion;\n       bool public paused;\n       address public owner;\n       address public polymathRegistry;\n\n       address[] public activeUsers;\n       mapping(address => bool) public seenUsers;\n\n       mapping(address => bytes32[]) userToTickers;\n       mapping(string => address) tickerToSecurityToken;\n       mapping(string => uint) tickerIndex;\n       mapping(string => TickerDetails) registeredTickers;\n       mapping(address => SecurityTokenData) securityTokens;\n       mapping(bytes32 => address) protocolVersionST;\n       mapping(uint256 => ProtocolVersion) versionData;\n\n       struct ProtocolVersion {\n           uint8 major;\n           uint8 minor;\n           uint8 patch;\n       }\n\n       struct TickerDetails {\n           address owner;\n           uint256 registrationDate;\n           uint256 expiryDate;\n           string tokenName;\n           bool status;\n       }\n\n       struct SecurityTokenData {\n           string ticker;\n           string tokenDetails;\n           uint256 deployedAt;\n       }\n\n     */\n\n    using SafeMath for uint256;\n\n    bytes32 constant INITIALIZE = 0x9ef7257c3339b099aacf96e55122ee78fb65a36bd2a6c19249882be9c98633bf;\n    bytes32 constant POLYTOKEN = 0xacf8fbd51bb4b83ba426cdb12f63be74db97c412515797993d2a385542e311d7;\n    bytes32 constant STLAUNCHFEE = 0xd677304bb45536bb7fdfa6b9e47a3c58fe413f9e8f01474b0a4b9c6e0275baf2;\n    bytes32 constant TICKERREGFEE = 0x2fcc69711628630fb5a42566c68bd1092bc4aa26826736293969fddcd11cb2d2;\n    bytes32 constant EXPIRYLIMIT = 0x604268e9a73dfd777dcecb8a614493dd65c638bad2f5e7d709d378bd2fb0baee;\n    bytes32 constant PAUSED = 0xee35723ac350a69d2a92d3703f17439cbaadf2f093a21ba5bf5f1a53eb2a14d9;\n    bytes32 constant OWNER = 0x02016836a56b71f0d02689e69e326f4f4c1b9057164ef592671cf0d37c8040c0;\n    bytes32 constant POLYMATHREGISTRY = 0x90eeab7c36075577c7cc5ff366e389fefa8a18289b949bab3529ab4471139d4d;\n\n    // Emit when network becomes paused\n    event Pause(uint256 _timestammp);\n     // Emit when network becomes unpaused\n    event Unpause(uint256 _timestamp);\n    // Emit when the ticker is removed from the registry\n    event TickerRemoved(string _ticker, uint256 _removedAt, address _removedBy);\n    // Emit when the token ticker expiry is changed\n    event ChangeExpiryLimit(uint256 _oldExpiry, uint256 _newExpiry);\n     // Emit when changeSecurityLaunchFee is called\n    event ChangeSecurityLaunchFee(uint256 _oldFee, uint256 _newFee);\n    // Emit when changeTickerRegistrationFee is called\n    event ChangeTickerRegistrationFee(uint256 _oldFee, uint256 _newFee);\n    // Emit when ownership gets transferred\n    event OwnershipTransferred(address indexed previousOwner, address indexed newOwner);\n    // Emit when ownership of the ticker gets changed\n    event ChangeTickerOwnership(string _ticker, address indexed _oldOwner, address indexed _newOwner);\n    // Emit at the time of launching a new security token\n    event NewSecurityToken(\n        string _ticker,\n        string _name,\n        address indexed _securityTokenAddress,\n        address indexed _owner,\n        uint256 _addedAt,\n        address _registrant,\n        bool _fromAdmin,\n        uint256 _registrationFee\n    );\n    // Emit after ticker registration\n    event RegisterTicker(\n        address indexed _owner,\n        string _ticker,\n        string _name,\n        uint256 indexed _registrationDate,\n        uint256 indexed _expiryDate,\n        bool _fromAdmin,\n        uint256 _registrationFee\n    );\n\n    /////////////////////////////\n    // Modifiers\n    /////////////////////////////\n\n    /**\n     * @dev Throws if called by any account other than the owner.\n     */\n    modifier onlyOwner() {\n        require(msg.sender == owner(),\"sender must be owner\");\n        _;\n    }\n\n    /**\n     * @notice Modifier to make a function callable only when the contract is not paused.\n     */\n    modifier whenNotPausedOrOwner() {\n        if (msg.sender == owner())\n            _;\n        else {\n            require(!isPaused(), \"Already paused\");\n            _;\n        }\n    }\n\n    /**\n     * @notice Modifier to make a function callable only when the contract is not paused and ignore is msg.sender is owner.\n     */\n    modifier whenNotPaused() {\n        require(!isPaused(), \"Already paused\");\n        _;\n    }\n\n\n    /**\n     * @notice Modifier to make a function callable only when the contract is paused.\n     */\n    modifier whenPaused() {\n        require(isPaused(), \"Should not be paused\");\n        _;\n    }\n\n\n    /////////////////////////////\n    // Initialization\n    /////////////////////////////\n\n    /**\n     * @notice Initializes instance of STR\n     * @param _polymathRegistry is the address of the Polymath Registry\n     * @param _STFactory is the address of the Proxy contract for Security Tokens\n     * @param _stLaunchFee is the fee in POLY required to launch a token\n     * @param _tickerRegFee is the fee in POLY required to register a ticker\n     * @param _polyToken is the address of the POLY ERC20 token\n     * @param _owner is the owner of the STR\n     */\n    function initialize(\n        address _polymathRegistry,\n        address _STFactory,\n        uint256 _stLaunchFee,\n        uint256 _tickerRegFee,\n        address _polyToken,\n        address _owner\n    )\n        external\n        payable\n    {\n        require(!getBool(INITIALIZE),\"already initialized\");\n        require(\n            _STFactory != address(0) && _polyToken != address(0) && _owner != address(0) && _polymathRegistry != address(0),\n            \"Invalid address\"\n        );\n        require(_stLaunchFee != 0 && _tickerRegFee != 0, \"Fees should not be 0\");\n        set(POLYTOKEN, _polyToken);\n        set(STLAUNCHFEE, _stLaunchFee);\n        set(TICKERREGFEE, _tickerRegFee);\n        set(EXPIRYLIMIT, uint256(60 * 1 days));\n        set(PAUSED, false);\n        set(OWNER, _owner);\n        set(POLYMATHREGISTRY, _polymathRegistry);\n        _setProtocolVersion(_STFactory, uint8(2), uint8(0), uint8(0));\n        set(INITIALIZE, true);\n    }\n\n    /////////////////////////////\n    // Token Ticker Management\n    /////////////////////////////\n\n    /**\n     * @notice Registers the token ticker to the selected owner\n     * @notice Once the token ticker is registered to its owner then no other issuer can claim\n     * @notice its ownership. If the ticker expires and its issuer hasn't used it, then someone else can take it.\n     * @param _owner is address of the owner of the token\n     * @param _ticker is unique token ticker\n     * @param _tokenName is the name of the token\n     */\n    function registerTicker(address _owner, string _ticker, string _tokenName) external whenNotPausedOrOwner {\n        require(_owner != address(0), \"Owner should not be 0x\");\n        require(bytes(_ticker).length > 0 && bytes(_ticker).length <= 10, \"Ticker length range (0,10]\");\n        // Attempt to charge the reg fee if it is > 0 POLY\n        uint256 tickerFee = getTickerRegistrationFee();\n        if (tickerFee > 0)\n            require(IERC20(getAddress(POLYTOKEN)).transferFrom(msg.sender, address(this), tickerFee), \"Insufficent allowance\");\n        string memory ticker = Util.upper(_ticker);\n        require(_tickerAvailable(ticker), \"Ticker is reserved\");\n        // Check whether ticker was previously registered (and expired)\n        address previousOwner = _tickerOwner(ticker);\n        if (previousOwner != address(0)) {\n            _deleteTickerOwnership(previousOwner, ticker);\n        }\n        /*solium-disable-next-line security/no-block-members*/\n        _addTicker(_owner, ticker, _tokenName, now, now.add(getExpiryLimit()), false, false, tickerFee);\n    }\n\n    /**\n     * @notice Internal - Sets the details of the ticker\n     */\n    function _addTicker(\n        address _owner, \n        string _ticker, \n        string _tokenName, \n        uint256 _registrationDate, \n        uint256 _expiryDate, \n        bool _status, \n        bool _fromAdmin, \n        uint256 _fee\n        ) internal {\n        _setTickerOwnership(_owner, _ticker);\n        _storeTickerDetails(_ticker, _owner, _registrationDate, _expiryDate, _tokenName, _status);\n        emit RegisterTicker(_owner, _ticker, _tokenName, _registrationDate, _expiryDate, _fromAdmin, _fee);\n    }\n\n    /**\n     * @notice Modifies the ticker details. Only Polymath has the ability to do so.\n     * @notice Only allowed to modify the tickers which are not yet deployed.\n     * @param _owner is the owner of the token\n     * @param _ticker is the token ticker\n     * @param _tokenName is the name of the token\n     * @param _registrationDate is the date at which ticker is registered\n     * @param _expiryDate is the expiry date for the ticker\n     * @param _status is the token deployment status\n     */\n    function modifyTicker(\n        address _owner,\n        string _ticker,\n        string _tokenName,\n        uint256 _registrationDate,\n        uint256 _expiryDate,\n        bool _status\n        ) external onlyOwner {\n        require(bytes(_ticker).length > 0 && bytes(_ticker).length <= 10, \"Ticker length range (0,10]\");\n        require(_expiryDate != 0 && _registrationDate != 0, \"Dates should not be 0\");\n        require(_registrationDate <= _expiryDate, \"Registration date should < expiry date\");\n        require(_owner != address(0), \"Invalid address\");\n        string memory ticker = Util.upper(_ticker);\n        _modifyTicker(_owner, ticker, _tokenName, _registrationDate, _expiryDate, _status);\n    }\n\n    /**\n     * @notice Internal -- Modifies the ticker details.\n     */\n    function _modifyTicker(\n        address _owner,\n        string _ticker,\n        string _tokenName,\n        uint256 _registrationDate,\n        uint256 _expiryDate,\n        bool _status\n        ) internal {\n        address currentOwner = _tickerOwner(_ticker);\n        if (currentOwner != address(0)) {\n            _deleteTickerOwnership(currentOwner, _ticker);\n        }\n        if (_tickerStatus(_ticker) && !_status) {\n            set(Encoder.getKey(\"tickerToSecurityToken\", _ticker), address(0));\n        }\n        // If status is true, there must be a security token linked to the ticker already\n        if (_status) {\n            require(getAddress(Encoder.getKey(\"tickerToSecurityToken\", _ticker)) != address(0), \"Token not registered\");\n        }\n        _addTicker(_owner, _ticker, _tokenName, _registrationDate, _expiryDate, _status, true, uint256(0));\n    }\n\n    function _tickerOwner(string _ticker) internal view returns(address) {\n        return getAddress(Encoder.getKey(\"registeredTickers_owner\", _ticker));\n    }\n\n    /**\n     * @notice Removes the ticker details, associated ownership & security token mapping\n     * @param _ticker is the token ticker\n     */\n    function removeTicker(string _ticker) external onlyOwner {\n        string memory ticker = Util.upper(_ticker);\n        address owner = _tickerOwner(ticker);\n        require(owner != address(0), \"Ticker doesn't exist\");\n        _deleteTickerOwnership(owner, ticker);\n        set(Encoder.getKey(\"tickerToSecurityToken\", ticker), address(0));\n        _storeTickerDetails(ticker, address(0), 0, 0, \"\", false);\n        /*solium-disable-next-line security/no-block-members*/\n        emit TickerRemoved(ticker, now, msg.sender);\n    }\n\n    /**\n     * @notice Internal - Checks if the entered ticker is registered and has not expired\n     * @param _ticker is the token ticker\n     * @return bool\n     */\n    function _tickerAvailable(string _ticker) internal view returns(bool) {\n        if (_tickerOwner(_ticker) != address(0)) {\n            /*solium-disable-next-line security/no-block-members*/\n            if ((now > getUint(Encoder.getKey(\"registeredTickers_expiryDate\", _ticker))) && !_tickerStatus(_ticker)) {\n                return true;\n            } else\n                return false;\n        }\n        return true;\n    }\n\n    function _tickerStatus(string _ticker) internal view returns(bool) {\n        return getBool(Encoder.getKey(\"registeredTickers_status\", _ticker));\n    }\n\n    /**\n     * @notice Internal - Sets the ticker owner\n     * @param _owner is the address of the owner of the ticker\n     * @param _ticker is the ticker symbol\n     */\n    function _setTickerOwnership(address _owner, string _ticker) internal {\n        bytes32 _ownerKey = Encoder.getKey(\"userToTickers\", _owner);\n        uint256 length = uint256(getArrayBytes32(_ownerKey).length);\n        pushArray(_ownerKey, Util.stringToBytes32(_ticker));\n        set(Encoder.getKey(\"tickerIndex\", _ticker), length);\n        bytes32 seenKey = Encoder.getKey(\"seenUsers\", _owner);\n        if (!getBool(seenKey)) {\n            pushArray(Encoder.getKey(\"activeUsers\"), _owner);\n            set(seenKey, true);\n        }\n    }\n\n    /**\n     * @notice Internal - Stores the ticker details\n     */\n    function _storeTickerDetails(\n        string _ticker,\n        address _owner,\n        uint256 _registrationDate,\n        uint256 _expiryDate,\n        string _tokenName,\n        bool _status\n        ) internal {\n        bytes32 key = Encoder.getKey(\"registeredTickers_owner\", _ticker);\n        if (getAddress(key) != _owner)\n            set(key, _owner);\n        key = Encoder.getKey(\"registeredTickers_registrationDate\", _ticker);\n        if (getUint(key) != _registrationDate)\n            set(key, _registrationDate);\n        key = Encoder.getKey(\"registeredTickers_expiryDate\", _ticker);\n        if (getUint(key) != _expiryDate)\n            set(key, _expiryDate);\n        key = Encoder.getKey(\"registeredTickers_tokenName\", _ticker);\n        if (Encoder.getKey(getString(key)) != Encoder.getKey(_tokenName))\n            set(key, _tokenName);\n        key = Encoder.getKey(\"registeredTickers_status\", _ticker);\n        if (getBool(key) != _status)\n            set(key, _status);\n    }\n\n    /**\n     * @notice Transfers the ownership of the ticker\n     * @param _newOwner is the address of the new owner of the ticker\n     * @param _ticker is the ticker symbol\n     */\n    function transferTickerOwnership(address _newOwner, string _ticker) external whenNotPausedOrOwner {\n        string memory ticker = Util.upper(_ticker);\n        require(_newOwner != address(0), \"Invalid address\");\n        bytes32 ownerKey = Encoder.getKey(\"registeredTickers_owner\", ticker);\n        require(getAddress(ownerKey) == msg.sender, \"Not authorised\");\n        if (_tickerStatus(ticker))\n            require(IOwnable(getAddress(Encoder.getKey(\"tickerToSecurityToken\", ticker))).owner() == _newOwner, \"New owner does not match token owner\");\n        _deleteTickerOwnership(msg.sender, ticker);\n        _setTickerOwnership(_newOwner, ticker);\n        set(ownerKey, _newOwner);\n        emit ChangeTickerOwnership(ticker, msg.sender, _newOwner);\n    }\n\n    /**\n     * @notice Internal - Removes the owner of a ticker\n     */\n    function _deleteTickerOwnership(address _owner, string _ticker) internal {\n        uint256 index = uint256(getUint(Encoder.getKey(\"tickerIndex\", _ticker)));\n        bytes32 ownerKey = Encoder.getKey(\"userToTickers\", _owner);\n        bytes32[] memory tickers = getArrayBytes32(ownerKey);\n        assert(index < tickers.length);\n        assert(_tickerOwner(_ticker) == _owner);\n        deleteArrayBytes32(ownerKey, index);\n        if (getArrayBytes32(ownerKey).length > index) {\n            bytes32 switchedTicker = getArrayBytes32(ownerKey)[index];\n            set(Encoder.getKey(\"tickerIndex\", Util.bytes32ToString(switchedTicker)), index);\n        }\n    }\n\n    /**\n     * @notice Changes the expiry time for the token ticker. Only available to Polymath.\n     * @param _newExpiry is the new expiry for newly generated tickers\n     */\n    function changeExpiryLimit(uint256 _newExpiry) external onlyOwner {\n        require(_newExpiry >= 1 days, \"Expiry should >= 1 day\");\n        emit ChangeExpiryLimit(getUint(EXPIRYLIMIT), _newExpiry);\n        set(EXPIRYLIMIT, _newExpiry);\n    }\n\n    /**\n     * @notice Returns the list of tickers owned by the selected address\n     * @param _owner is the address which owns the list of tickers\n     */\n    function getTickersByOwner(address _owner) external view returns(bytes32[]) {\n        uint counter = 0;\n        // accessing the data structure userTotickers[_owner].length\n        bytes32[] memory tickers = getArrayBytes32(Encoder.getKey(\"userToTickers\", _owner));\n        bytes32[] memory tempList = new bytes32[](tickers.length);\n        for (uint i = 0; i < tickers.length; i++) {\n            string memory ticker = Util.bytes32ToString(tickers[i]);\n            /*solium-disable-next-line security/no-block-members*/\n            if (getUint(Encoder.getKey(\"registeredTickers_expiryDate\", ticker)) >= now || _tickerStatus(ticker)) {\n                tempList[counter] = tickers[i];\n                counter ++;\n            }\n        }\n        return tempList;\n    }\n\n    /**\n     * @notice Returns the list of tokens owned by the selected address\n     * @param _owner is the address which owns the list of tickers\n     * @dev Intention is that this is called off-chain so block gas limit is not relevant\n     */\n    function getTokensByOwner(address _owner) external view returns(address[]) {\n        // Loop over all active users, then all associated tickers of those users\n        // This ensures we find tokens, even if their owner has been modified\n        address[] memory activeUsers = getArrayAddress(Encoder.getKey(\"activeUsers\"));\n        bytes32[] memory tickers;\n        address token;\n        uint256 count = 0;\n        uint256 i = 0;\n        uint256 j = 0;\n        for (i = 0; i < activeUsers.length; i++) {\n            tickers = getArrayBytes32(Encoder.getKey(\"userToTickers\", activeUsers[i]));\n            for (j = 0; j < tickers.length; j++) {\n                token = getAddress(Encoder.getKey(\"tickerToSecurityToken\", Util.bytes32ToString(tickers[j])));\n                if (token != address(0)) {\n                    if (IOwnable(token).owner() == _owner) {\n                        count = count + 1;\n                    }\n                }\n            }\n        }\n        uint256 index = 0;\n        address[] memory result = new address[](count);\n        for (i = 0; i < activeUsers.length; i++) {\n            tickers = getArrayBytes32(Encoder.getKey(\"userToTickers\", activeUsers[i]));\n            for (j = 0; j < tickers.length; j++) {\n                token = getAddress(Encoder.getKey(\"tickerToSecurityToken\", Util.bytes32ToString(tickers[j])));\n                if (token != address(0)) {\n                    if (IOwnable(token).owner() == _owner) {\n                        result[index] = token;\n                        index = index + 1;\n                    }\n                }\n            }\n        }\n        return result;\n    }\n\n    /**\n     * @notice Returns the owner and timestamp for a given ticker\n     * @param _ticker is the ticker symbol\n     * @return address\n     * @return uint256\n     * @return uint256\n     * @return string\n     * @return bool\n     */\n    function getTickerDetails(string _ticker) external view returns (address, uint256, uint256, string, bool) {\n        string memory ticker = Util.upper(_ticker);\n        bool tickerStatus = _tickerStatus(ticker);\n        uint256 expiryDate = getUint(Encoder.getKey(\"registeredTickers_expiryDate\", ticker));\n        /*solium-disable-next-line security/no-block-members*/\n        if ((tickerStatus == true) || (expiryDate > now)) {\n            return\n            (\n                _tickerOwner(ticker),\n                getUint(Encoder.getKey(\"registeredTickers_registrationDate\", ticker)),\n                expiryDate,\n                getString(Encoder.getKey(\"registeredTickers_tokenName\", ticker)),\n                tickerStatus\n            );\n        } else\n            return (address(0), uint256(0), uint256(0), \"\", false);\n    }\n\n    /////////////////////////////\n    // Security Token Management\n    /////////////////////////////\n\n    /**\n     * @notice Deploys an instance of a new Security Token and records it to the registry\n     * @param _name is the name of the token\n     * @param _ticker is the ticker symbol of the security token\n     * @param _tokenDetails is the off-chain details of the token\n     * @param _divisible is whether or not the token is divisible\n     */\n    function generateSecurityToken(string _name, string _ticker, string _tokenDetails, bool _divisible) external whenNotPausedOrOwner {\n        require(bytes(_name).length > 0 && bytes(_ticker).length > 0, \"Ticker length > 0\");\n        string memory ticker = Util.upper(_ticker);\n        bytes32 statusKey = Encoder.getKey(\"registeredTickers_status\", ticker);\n        require(!getBool(statusKey), \"Already deployed\");\n        set(statusKey, true);\n        require(_tickerOwner(ticker) == msg.sender, \"Not authorised\");\n        /*solium-disable-next-line security/no-block-members*/\n        require(getUint(Encoder.getKey(\"registeredTickers_expiryDate\", ticker)) >= now, \"Ticker gets expired\");\n\n        uint256 launchFee = getSecurityTokenLaunchFee();\n        if (launchFee > 0)\n            require(IERC20(getAddress(POLYTOKEN)).transferFrom(msg.sender, address(this), launchFee), \"Insufficient allowance\");\n\n        address newSecurityTokenAddress = ISTFactory(getSTFactoryAddress()).deployToken(\n            _name,\n            ticker,\n            18,\n            _tokenDetails,\n            msg.sender,\n            _divisible,\n            getAddress(POLYMATHREGISTRY)\n        );\n\n        /*solium-disable-next-line security/no-block-members*/\n        _storeSecurityTokenData(newSecurityTokenAddress, ticker, _tokenDetails, now);\n        set(Encoder.getKey(\"tickerToSecurityToken\", ticker), newSecurityTokenAddress);\n        /*solium-disable-next-line security/no-block-members*/\n        emit NewSecurityToken(ticker, _name, newSecurityTokenAddress, msg.sender, now, msg.sender, false, launchFee);\n    }\n\n    /**\n     * @notice Adds a new custom Security Token and saves it to the registry. (Token should follow the ISecurityToken interface)\n     * @param _name is the name of the token\n     * @param _ticker is the ticker symbol of the security token\n     * @param _owner is the owner of the token\n     * @param _securityToken is the address of the securityToken\n     * @param _tokenDetails is the off-chain details of the token\n     * @param _deployedAt is the timestamp at which the security token is deployed\n     */\n    function modifySecurityToken(\n        string _name,\n        string _ticker,\n        address _owner,\n        address _securityToken,\n        string _tokenDetails,\n        uint256 _deployedAt\n    )\n        external\n        onlyOwner\n    {\n        require(bytes(_name).length > 0 && bytes(_ticker).length > 0, \"String length > 0\");\n        require(bytes(_ticker).length <= 10, \"Ticker length range (0,10]\");\n        require(_deployedAt != 0 && _owner != address(0), \"0 value params not allowed\");\n        string memory ticker = Util.upper(_ticker);\n        require(_securityToken != address(0), \"ST address is 0x\");\n        uint256 registrationTime = getUint(Encoder.getKey(\"registeredTickers_registrationDate\", ticker));\n        uint256 expiryTime = getUint(Encoder.getKey(\"registeredTickers_expiryDate\", ticker));\n        if (registrationTime == 0) {\n            /*solium-disable-next-line security/no-block-members*/\n            registrationTime = now;\n            expiryTime = registrationTime.add(getExpiryLimit());\n        }\n        set(Encoder.getKey(\"tickerToSecurityToken\", ticker), _securityToken);\n        _modifyTicker(_owner, ticker, _name, registrationTime, expiryTime, true);\n        _storeSecurityTokenData(_securityToken, ticker, _tokenDetails, _deployedAt);\n        emit NewSecurityToken(ticker, _name, _securityToken, _owner, _deployedAt, msg.sender, true, getSecurityTokenLaunchFee());\n    }\n\n    /**\n     * @notice Internal - Stores the security token details\n     */\n    function _storeSecurityTokenData(address _securityToken, string _ticker, string _tokenDetails, uint256 _deployedAt) internal {\n        set(Encoder.getKey(\"securityTokens_ticker\", _securityToken), _ticker);\n        set(Encoder.getKey(\"securityTokens_tokenDetails\", _securityToken), _tokenDetails);\n        set(Encoder.getKey(\"securityTokens_deployedAt\", _securityToken), _deployedAt);\n    }\n\n    /**\n    * @notice Checks that Security Token is registered\n    * @param _securityToken is the address of the security token\n    * @return bool\n    */\n    function isSecurityToken(address _securityToken) external view returns (bool) {\n        return (keccak256(bytes(getString(Encoder.getKey(\"securityTokens_ticker\", _securityToken)))) != keccak256(\"\"));\n    }\n\n    /**\n     * @notice Returns the security token address by ticker symbol\n     * @param _ticker is the ticker of the security token\n     * @return address\n     */\n    function getSecurityTokenAddress(string _ticker) external view returns (address) {\n        string memory ticker = Util.upper(_ticker);\n        return getAddress(Encoder.getKey(\"tickerToSecurityToken\", ticker));\n    }\n\n     /**\n     * @notice Returns the security token data by address\n     * @param _securityToken is the address of the security token.\n     * @return string is the ticker of the security Token.\n     * @return address is the issuer of the security Token.\n     * @return string is the details of the security token.\n     * @return uint256 is the timestamp at which security Token was deployed.\n     */\n    function getSecurityTokenData(address _securityToken) external view returns (string, address, string, uint256) {\n        return (\n            getString(Encoder.getKey(\"securityTokens_ticker\", _securityToken)),\n            IOwnable(_securityToken).owner(),\n            getString(Encoder.getKey(\"securityTokens_tokenDetails\", _securityToken)),\n            getUint(Encoder.getKey(\"securityTokens_deployedAt\", _securityToken))\n        );\n    }\n\n    /////////////////////////////\n    // Ownership, lifecycle & Utility\n    /////////////////////////////\n\n    /**\n    * @dev Allows the current owner to transfer control of the contract to a newOwner.\n    * @param _newOwner The address to transfer ownership to.\n    */\n    function transferOwnership(address _newOwner) external onlyOwner {\n        require(_newOwner != address(0), \"Invalid address\");\n        emit OwnershipTransferred(getAddress(OWNER), _newOwner);\n        set(OWNER, _newOwner);\n    }\n\n    /**\n    * @notice Called by the owner to pause, triggers stopped state\n    */\n    function pause() external whenNotPaused onlyOwner {\n        set(PAUSED, true);\n        /*solium-disable-next-line security/no-block-members*/\n        emit Pause(now);\n    }\n\n    /**\n    * @notice Called by the owner to unpause, returns to normal state\n    */\n    function unpause() external whenPaused onlyOwner {\n        set(PAUSED, false);\n        /*solium-disable-next-line security/no-block-members*/\n        emit Unpause(now);\n    }\n\n    /**\n    * @notice Sets the ticker registration fee in POLY tokens. Only Polymath.\n    * @param _tickerRegFee is the registration fee in POLY tokens (base 18 decimals)\n    */\n    function changeTickerRegistrationFee(uint256 _tickerRegFee) external onlyOwner {\n        uint256 fee = getUint(TICKERREGFEE);\n        require(fee != _tickerRegFee, \"Fee not changed\");\n        emit ChangeTickerRegistrationFee(fee, _tickerRegFee);\n        set(TICKERREGFEE, _tickerRegFee);\n    }\n\n   /**\n    * @notice Sets the ticker registration fee in POLY tokens. Only Polymath.\n    * @param _stLaunchFee is the registration fee in POLY tokens (base 18 decimals)\n    */\n    function changeSecurityLaunchFee(uint256 _stLaunchFee) external onlyOwner {\n        uint256 fee = getUint(STLAUNCHFEE);\n        require(fee != _stLaunchFee, \"Fee not changed\");\n        emit ChangeSecurityLaunchFee(fee, _stLaunchFee);\n        set(STLAUNCHFEE, _stLaunchFee);\n    }\n\n    /**\n    * @notice Reclaims all ERC20Basic compatible tokens\n    * @param _tokenContract is the address of the token contract\n    */\n    function reclaimERC20(address _tokenContract) external onlyOwner {\n        require(_tokenContract != address(0), \"Invalid address\");\n        IERC20 token = IERC20(_tokenContract);\n        uint256 balance = token.balanceOf(address(this));\n        require(token.transfer(owner(), balance), \"Transfer failed\");\n    }\n\n    /**\n    * @notice Changes the protocol version and the SecurityToken contract\n    * @notice Used only by Polymath to upgrade the SecurityToken contract and add more functionalities to future versions\n    * @notice Changing versions does not affect existing tokens.\n    * @param _STFactoryAddress is the address of the proxy.\n    * @param _major Major version of the proxy.\n    * @param _minor Minor version of the proxy.\n    * @param _patch Patch version of the proxy\n    */\n    function setProtocolVersion(address _STFactoryAddress, uint8 _major, uint8 _minor, uint8 _patch) external onlyOwner {\n        require(_STFactoryAddress != address(0), \"0x address is not allowed\");\n        _setProtocolVersion(_STFactoryAddress, _major, _minor, _patch);\n    }\n\n    /**\n    * @notice Internal - Changes the protocol version and the SecurityToken contract\n    */\n    function _setProtocolVersion(address _STFactoryAddress, uint8 _major, uint8 _minor, uint8 _patch) internal {\n        uint8[] memory _version = new uint8[](3);\n        _version[0] = _major;\n        _version[1] = _minor;\n        _version[2] = _patch;\n        uint24 _packedVersion = VersionUtils.pack(_major, _minor, _patch);\n        require(VersionUtils.isValidVersion(getProtocolVersion(), _version),\"In-valid version\");\n        set(Encoder.getKey(\"latestVersion\"), uint256(_packedVersion));\n        set(Encoder.getKey(\"protocolVersionST\", getUint(Encoder.getKey(\"latestVersion\"))), _STFactoryAddress);\n    }\n\n    /**\n     * @notice Returns the current STFactory Address\n     */\n    function getSTFactoryAddress() public view returns(address) {\n        return getAddress(Encoder.getKey(\"protocolVersionST\", getUint(Encoder.getKey(\"latestVersion\"))));\n    }\n\n    /**\n     * @notice Gets Protocol version\n     */\n    function getProtocolVersion() public view returns(uint8[]) {\n        return VersionUtils.unpack(uint24(getUint(Encoder.getKey(\"latestVersion\"))));\n    }\n\n    /**\n     * @notice Changes the PolyToken address. Only Polymath.\n     * @param _newAddress is the address of the polytoken.\n     */\n    function updatePolyTokenAddress(address _newAddress) external onlyOwner {\n        require(_newAddress != address(0), \"Invalid address\");\n        set(POLYTOKEN, _newAddress);\n    }\n\n    /**\n     * @notice Gets the security token launch fee\n     * @return Fee amount\n     */\n    function getSecurityTokenLaunchFee() public view returns(uint256) {\n        return getUint(STLAUNCHFEE);\n    }\n\n    /**\n     * @notice Gets the ticker registration fee\n     * @return Fee amount\n     */\n    function getTickerRegistrationFee() public view returns(uint256) {\n        return getUint(TICKERREGFEE);\n    }\n\n    /**\n     * @notice Gets the expiry limit\n     * @return Expiry limit\n     */\n    function getExpiryLimit() public view returns(uint256) {\n        return getUint(EXPIRYLIMIT);\n    }\n\n    /**\n     * @notice Check whether the registry is paused or not\n     * @return bool\n     */\n    function isPaused() public view returns(bool) {\n        return getBool(PAUSED);\n    }\n\n    /**\n     * @notice Gets the owner of the contract\n     * @return address owner\n     */\n    function owner() public view returns(address) {\n        return getAddress(OWNER);\n    }\n\n}\n",
  "sourcePath": "/Users/jere/Code/polymath-apps/packages/new-polymath-scripts/src/generateLocalBlockchain/contracts/SecurityTokenRegistry.sol",
  "compiler": {
    "name": "solc",
    "version": "0.4.24+commit.e67f0147.Emscripten.clang"
  },
  "schemaVersion": "2.0.1",
  "updatedAt": "2019-02-01T18:23:53.841Z"
}