{
  "contractName": "SingleTradeVolumeRestrictionTM",
  "abi": [
    {
      "constant": true,
      "inputs": [],
      "name": "allowPrimaryIssuance",
      "outputs": [
        {
          "name": "",
          "type": "bool"
        }
      ],
      "payable": false,
      "stateMutability": "view",
      "type": "function"
    },
    {
      "constant": true,
      "inputs": [],
      "name": "ADMIN",
      "outputs": [
        {
          "name": "",
          "type": "bytes32"
        }
      ],
      "payable": false,
      "stateMutability": "view",
      "type": "function"
    },
    {
      "constant": false,
      "inputs": [],
      "name": "unpause",
      "outputs": [],
      "payable": false,
      "stateMutability": "nonpayable",
      "type": "function"
    },
    {
      "constant": true,
      "inputs": [],
      "name": "globalTransferLimitInTokens",
      "outputs": [
        {
          "name": "",
          "type": "uint256"
        }
      ],
      "payable": false,
      "stateMutability": "view",
      "type": "function"
    },
    {
      "constant": true,
      "inputs": [],
      "name": "paused",
      "outputs": [
        {
          "name": "",
          "type": "bool"
        }
      ],
      "payable": false,
      "stateMutability": "view",
      "type": "function"
    },
    {
      "constant": false,
      "inputs": [
        {
          "name": "_amount",
          "type": "uint256"
        }
      ],
      "name": "takeFee",
      "outputs": [
        {
          "name": "",
          "type": "bool"
        }
      ],
      "payable": false,
      "stateMutability": "nonpayable",
      "type": "function"
    },
    {
      "constant": true,
      "inputs": [],
      "name": "polyToken",
      "outputs": [
        {
          "name": "",
          "type": "address"
        }
      ],
      "payable": false,
      "stateMutability": "view",
      "type": "function"
    },
    {
      "constant": true,
      "inputs": [],
      "name": "isTransferLimitInPercentage",
      "outputs": [
        {
          "name": "",
          "type": "bool"
        }
      ],
      "payable": false,
      "stateMutability": "view",
      "type": "function"
    },
    {
      "constant": false,
      "inputs": [],
      "name": "pause",
      "outputs": [],
      "payable": false,
      "stateMutability": "nonpayable",
      "type": "function"
    },
    {
      "constant": true,
      "inputs": [
        {
          "name": "",
          "type": "address"
        }
      ],
      "name": "exemptWallets",
      "outputs": [
        {
          "name": "",
          "type": "bool"
        }
      ],
      "payable": false,
      "stateMutability": "view",
      "type": "function"
    },
    {
      "constant": true,
      "inputs": [],
      "name": "securityToken",
      "outputs": [
        {
          "name": "",
          "type": "address"
        }
      ],
      "payable": false,
      "stateMutability": "view",
      "type": "function"
    },
    {
      "constant": true,
      "inputs": [],
      "name": "factory",
      "outputs": [
        {
          "name": "",
          "type": "address"
        }
      ],
      "payable": false,
      "stateMutability": "view",
      "type": "function"
    },
    {
      "constant": true,
      "inputs": [],
      "name": "FEE_ADMIN",
      "outputs": [
        {
          "name": "",
          "type": "bytes32"
        }
      ],
      "payable": false,
      "stateMutability": "view",
      "type": "function"
    },
    {
      "constant": true,
      "inputs": [
        {
          "name": "",
          "type": "address"
        }
      ],
      "name": "specialTransferLimitsInTokens",
      "outputs": [
        {
          "name": "",
          "type": "uint256"
        }
      ],
      "payable": false,
      "stateMutability": "view",
      "type": "function"
    },
    {
      "constant": true,
      "inputs": [
        {
          "name": "",
          "type": "address"
        }
      ],
      "name": "specialTransferLimitsInPercentages",
      "outputs": [
        {
          "name": "",
          "type": "uint256"
        }
      ],
      "payable": false,
      "stateMutability": "view",
      "type": "function"
    },
    {
      "constant": true,
      "inputs": [],
      "name": "globalTransferLimitInPercentage",
      "outputs": [
        {
          "name": "",
          "type": "uint256"
        }
      ],
      "payable": false,
      "stateMutability": "view",
      "type": "function"
    },
    {
      "inputs": [
        {
          "name": "_securityToken",
          "type": "address"
        },
        {
          "name": "_polyAddress",
          "type": "address"
        }
      ],
      "payable": false,
      "stateMutability": "nonpayable",
      "type": "constructor"
    },
    {
      "anonymous": false,
      "inputs": [
        {
          "indexed": false,
          "name": "_wallet",
          "type": "address"
        }
      ],
      "name": "ExemptWalletAdded",
      "type": "event"
    },
    {
      "anonymous": false,
      "inputs": [
        {
          "indexed": false,
          "name": "_wallet",
          "type": "address"
        }
      ],
      "name": "ExemptWalletRemoved",
      "type": "event"
    },
    {
      "anonymous": false,
      "inputs": [
        {
          "indexed": false,
          "name": "_wallet",
          "type": "address"
        },
        {
          "indexed": false,
          "name": "_amount",
          "type": "uint256"
        }
      ],
      "name": "TransferLimitInTokensSet",
      "type": "event"
    },
    {
      "anonymous": false,
      "inputs": [
        {
          "indexed": false,
          "name": "_wallet",
          "type": "address"
        },
        {
          "indexed": false,
          "name": "_percentage",
          "type": "uint256"
        }
      ],
      "name": "TransferLimitInPercentageSet",
      "type": "event"
    },
    {
      "anonymous": false,
      "inputs": [
        {
          "indexed": false,
          "name": "_wallet",
          "type": "address"
        }
      ],
      "name": "TransferLimitInPercentageRemoved",
      "type": "event"
    },
    {
      "anonymous": false,
      "inputs": [
        {
          "indexed": false,
          "name": "_wallet",
          "type": "address"
        }
      ],
      "name": "TransferLimitInTokensRemoved",
      "type": "event"
    },
    {
      "anonymous": false,
      "inputs": [
        {
          "indexed": false,
          "name": "_amount",
          "type": "uint256"
        },
        {
          "indexed": false,
          "name": "_oldAmount",
          "type": "uint256"
        }
      ],
      "name": "GlobalTransferLimitInTokensSet",
      "type": "event"
    },
    {
      "anonymous": false,
      "inputs": [
        {
          "indexed": false,
          "name": "_percentage",
          "type": "uint256"
        },
        {
          "indexed": false,
          "name": "_oldPercentage",
          "type": "uint256"
        }
      ],
      "name": "GlobalTransferLimitInPercentageSet",
      "type": "event"
    },
    {
      "anonymous": false,
      "inputs": [],
      "name": "TransferLimitChangedToTokens",
      "type": "event"
    },
    {
      "anonymous": false,
      "inputs": [],
      "name": "TransferLimitChangedtoPercentage",
      "type": "event"
    },
    {
      "anonymous": false,
      "inputs": [
        {
          "indexed": false,
          "name": "_allowPrimaryIssuance",
          "type": "bool"
        },
        {
          "indexed": false,
          "name": "_timestamp",
          "type": "uint256"
        }
      ],
      "name": "SetAllowPrimaryIssuance",
      "type": "event"
    },
    {
      "anonymous": false,
      "inputs": [
        {
          "indexed": false,
          "name": "_timestammp",
          "type": "uint256"
        }
      ],
      "name": "Pause",
      "type": "event"
    },
    {
      "anonymous": false,
      "inputs": [
        {
          "indexed": false,
          "name": "_timestamp",
          "type": "uint256"
        }
      ],
      "name": "Unpause",
      "type": "event"
    },
    {
      "constant": false,
      "inputs": [
        {
          "name": "_from",
          "type": "address"
        },
        {
          "name": "",
          "type": "address"
        },
        {
          "name": "_amount",
          "type": "uint256"
        },
        {
          "name": "",
          "type": "bytes"
        },
        {
          "name": "",
          "type": "bool"
        }
      ],
      "name": "verifyTransfer",
      "outputs": [
        {
          "name": "",
          "type": "uint8"
        }
      ],
      "payable": false,
      "stateMutability": "nonpayable",
      "type": "function"
    },
    {
      "constant": false,
      "inputs": [
        {
          "name": "_isTransferLimitInPercentage",
          "type": "bool"
        },
        {
          "name": "_globalTransferLimitInPercentageOrToken",
          "type": "uint256"
        },
        {
          "name": "_allowPrimaryIssuance",
          "type": "bool"
        }
      ],
      "name": "configure",
      "outputs": [],
      "payable": false,
      "stateMutability": "nonpayable",
      "type": "function"
    },
    {
      "constant": false,
      "inputs": [
        {
          "name": "_allowPrimaryIssuance",
          "type": "bool"
        }
      ],
      "name": "setAllowPrimaryIssuance",
      "outputs": [],
      "payable": false,
      "stateMutability": "nonpayable",
      "type": "function"
    },
    {
      "constant": false,
      "inputs": [
        {
          "name": "_newGlobalTransferLimitInPercentage",
          "type": "uint256"
        }
      ],
      "name": "changeTransferLimitToPercentage",
      "outputs": [],
      "payable": false,
      "stateMutability": "nonpayable",
      "type": "function"
    },
    {
      "constant": false,
      "inputs": [
        {
          "name": "_newGlobalTransferLimit",
          "type": "uint256"
        }
      ],
      "name": "changeTransferLimitToTokens",
      "outputs": [],
      "payable": false,
      "stateMutability": "nonpayable",
      "type": "function"
    },
    {
      "constant": false,
      "inputs": [
        {
          "name": "_newGlobalTransferLimitInTokens",
          "type": "uint256"
        }
      ],
      "name": "changeGlobalLimitInTokens",
      "outputs": [],
      "payable": false,
      "stateMutability": "nonpayable",
      "type": "function"
    },
    {
      "constant": false,
      "inputs": [
        {
          "name": "_newGlobalTransferLimitInPercentage",
          "type": "uint256"
        }
      ],
      "name": "changeGlobalLimitInPercentage",
      "outputs": [],
      "payable": false,
      "stateMutability": "nonpayable",
      "type": "function"
    },
    {
      "constant": false,
      "inputs": [
        {
          "name": "_wallet",
          "type": "address"
        }
      ],
      "name": "addExemptWallet",
      "outputs": [],
      "payable": false,
      "stateMutability": "nonpayable",
      "type": "function"
    },
    {
      "constant": false,
      "inputs": [
        {
          "name": "_wallet",
          "type": "address"
        }
      ],
      "name": "removeExemptWallet",
      "outputs": [],
      "payable": false,
      "stateMutability": "nonpayable",
      "type": "function"
    },
    {
      "constant": false,
      "inputs": [
        {
          "name": "_wallets",
          "type": "address[]"
        }
      ],
      "name": "addExemptWalletMulti",
      "outputs": [],
      "payable": false,
      "stateMutability": "nonpayable",
      "type": "function"
    },
    {
      "constant": false,
      "inputs": [
        {
          "name": "_wallets",
          "type": "address[]"
        }
      ],
      "name": "removeExemptWalletMulti",
      "outputs": [],
      "payable": false,
      "stateMutability": "nonpayable",
      "type": "function"
    },
    {
      "constant": false,
      "inputs": [
        {
          "name": "_wallet",
          "type": "address"
        },
        {
          "name": "_transferLimit",
          "type": "uint256"
        }
      ],
      "name": "setTransferLimitInTokens",
      "outputs": [],
      "payable": false,
      "stateMutability": "nonpayable",
      "type": "function"
    },
    {
      "constant": false,
      "inputs": [
        {
          "name": "_wallet",
          "type": "address"
        },
        {
          "name": "_transferLimitInPercentage",
          "type": "uint256"
        }
      ],
      "name": "setTransferLimitInPercentage",
      "outputs": [],
      "payable": false,
      "stateMutability": "nonpayable",
      "type": "function"
    },
    {
      "constant": false,
      "inputs": [
        {
          "name": "_wallet",
          "type": "address"
        }
      ],
      "name": "removeTransferLimitInPercentage",
      "outputs": [],
      "payable": false,
      "stateMutability": "nonpayable",
      "type": "function"
    },
    {
      "constant": false,
      "inputs": [
        {
          "name": "_wallet",
          "type": "address"
        }
      ],
      "name": "removeTransferLimitInTokens",
      "outputs": [],
      "payable": false,
      "stateMutability": "nonpayable",
      "type": "function"
    },
    {
      "constant": false,
      "inputs": [
        {
          "name": "_wallets",
          "type": "address[]"
        },
        {
          "name": "_transferLimits",
          "type": "uint256[]"
        }
      ],
      "name": "setTransferLimitInTokensMulti",
      "outputs": [],
      "payable": false,
      "stateMutability": "nonpayable",
      "type": "function"
    },
    {
      "constant": false,
      "inputs": [
        {
          "name": "_wallets",
          "type": "address[]"
        },
        {
          "name": "_transferLimitsInPercentage",
          "type": "uint256[]"
        }
      ],
      "name": "setTransferLimitInPercentageMulti",
      "outputs": [],
      "payable": false,
      "stateMutability": "nonpayable",
      "type": "function"
    },
    {
      "constant": false,
      "inputs": [
        {
          "name": "_wallets",
          "type": "address[]"
        }
      ],
      "name": "removeTransferLimitInTokensMulti",
      "outputs": [],
      "payable": false,
      "stateMutability": "nonpayable",
      "type": "function"
    },
    {
      "constant": false,
      "inputs": [
        {
          "name": "_wallets",
          "type": "address[]"
        }
      ],
      "name": "removeTransferLimitInPercentageMulti",
      "outputs": [],
      "payable": false,
      "stateMutability": "nonpayable",
      "type": "function"
    },
    {
      "constant": true,
      "inputs": [],
      "name": "getInitFunction",
      "outputs": [
        {
          "name": "",
          "type": "bytes4"
        }
      ],
      "payable": false,
      "stateMutability": "pure",
      "type": "function"
    },
    {
      "constant": true,
      "inputs": [],
      "name": "getPermissions",
      "outputs": [
        {
          "name": "",
          "type": "bytes32[]"
        }
      ],
      "payable": false,
      "stateMutability": "view",
      "type": "function"
    }
  ],
  "bytecode": "0x60806040526002805460a060020a60ff02191690556005805460ff1916600117905534801561002d57600080fd5b50604051604080613d6d83398101604052805160209091015160018054600160a060020a03938416600160a060020a0319918216179091556000805482163317905560028054939092169216919091179055613cdf8061008e6000396000f3006080604052600436106101b35763ffffffff60e060020a60003504166301e8153b81146101b85780631613ec9d146101de57806321c4a69c146102285780632a0acc6a146102515780632f3b64de1461027857806338fad08c146102905780633a62b672146102e55780633f4ba83a146102fd57806343c43de314610312578063567bc329146103335780635c975abb146103485780635e05642f1461035d5780635f7619a4146103eb5780636faa22a5146104035780637f7605f01461043457806381cf9d0b146104495780638456cb591461046b57806384625ea114610480578063893f749b146104a4578063958ad473146104c5578063a26faecd146104dd578063b84dfbd2146104fe578063c3a07df614610513578063c45a015514610578578063c667a49c1461058d578063d4575320146105e2578063d7008fd714610603578063d70afa9614610691578063de6ee1bc146106a6578063e4d5a4911461073d578063e66e788714610757578063e8d260941461076f578063e9a8ce24146107c4578063ee6560d8146107e5578063eec703af14610806578063fa6ced7f1461081b578063ff9450d414610870575b600080fd5b3480156101c457600080fd5b506101dc600160a060020a0360043516602435610891565b005b3480156101ea57600080fd5b506101f3610b76565b604080517fffffffff000000000000000000000000000000000000000000000000000000009092168252519081900360200190f35b34801561023457600080fd5b5061023d610bab565b604080519115158252519081900360200190f35b34801561025d57600080fd5b50610266610bb4565b60408051918252519081900360200190f35b34801561028457600080fd5b506101dc600435610bc3565b34801561029c57600080fd5b50604080516020600480358082013583810280860185019096528085526101dc95369593946024949385019291829185019084908082843750949750610e6c9650505050505050565b3480156102f157600080fd5b506101dc600435611078565b34801561030957600080fd5b506101dc611337565b34801561031e57600080fd5b506101dc600160a060020a036004351661141f565b34801561033f57600080fd5b50610266611683565b34801561035457600080fd5b5061023d611689565b34801561036957600080fd5b50604080516020600480358082013583810280860185019096528085526101dc95369593946024949385019291829185019084908082843750506040805187358901803560208181028481018201909552818452989b9a9989019892975090820195509350839250850190849080828437509497506116999650505050505050565b3480156103f757600080fd5b5061023d60043561193d565b34801561040f57600080fd5b50610418611c59565b60408051600160a060020a039092168252519081900360200190f35b34801561044057600080fd5b5061023d611c68565b34801561045557600080fd5b506101dc60043515156024356044351515611c78565b34801561047757600080fd5b506101dc611d3f565b34801561048c57600080fd5b506101dc600160a060020a0360043516602435611e25565b3480156104b057600080fd5b5061023d600160a060020a03600435166120fa565b3480156104d157600080fd5b506101dc60043561210f565b3480156104e957600080fd5b506101dc600160a060020a0360043516612376565b34801561050a57600080fd5b506104186125e3565b34801561051f57600080fd5b506105286125f2565b60408051602080825283518183015283519192839290830191858101910280838360005b8381101561056457818101518382015260200161054c565b505050509050019250505060405180910390f35b34801561058457600080fd5b50610418612641565b34801561059957600080fd5b50604080516020600480358082013583810280860185019096528085526101dc953695939460249493850192918291850190849080828437509497506126509650505050505050565b3480156105ee57600080fd5b506101dc600160a060020a0360043516612855565b34801561060f57600080fd5b50604080516020600480358082013583810280860185019096528085526101dc95369593946024949385019291829185019084908082843750506040805187358901803560208181028481018201909552818452989b9a998901989297509082019550935083925085019084908082843750949750612abc9650505050505050565b34801561069d57600080fd5b50610266612d58565b3480156106b257600080fd5b50604080516020601f60643560048181013592830184900484028501840190955281845261071994600160a060020a038135811695602480359092169560443595369560849401918190840183828082843750949750505050913515159250612d7c915050565b6040518082600381111561072957fe5b60ff16815260200191505060405180910390f35b34801561074957600080fd5b506101dc6004351515612fac565b34801561076357600080fd5b506101dc6004356131e0565b34801561077b57600080fd5b50604080516020600480358082013583810280860185019096528085526101dc9536959394602494938501929182918501908490808284375094975061341d9650505050505050565b3480156107d057600080fd5b50610266600160a060020a0360043516613622565b3480156107f157600080fd5b50610266600160a060020a0360043516613634565b34801561081257600080fd5b50610266613646565b34801561082757600080fd5b50604080516020600480358082013583810280860185019096528085526101dc9536959394602494938501929182918501908490808284375094975061364c9650505050505050565b34801561087c57600080fd5b506101dc600160a060020a0360043516613851565b60d960020a6420a226a4a702600080600160009054906101000a9004600160a060020a0316600160a060020a0316638da5cb5b6040518163ffffffff1660e060020a028152600401602060405180830381600087803b1580156108f357600080fd5b505af1158015610907573d6000803e3d6000fd5b505050506040513d602081101561091d57600080fd5b505160005433600160a060020a0392831681149450911614905081806109405750805b806109d057506001546040805160e060020a638658b8b9028152336004820152306024820152604481018690529051600160a060020a0390921691638658b8b9916064808201926020929091908290030181600087803b1580156109a357600080fd5b505af11580156109b7573d6000803e3d6000fd5b505050506040513d60208110156109cd57600080fd5b50515b1515610a14576040805160e560020a62461bcd0281526020600482015260176024820152600080516020613c94833981519152604482015290519081900360640190fd5b60008411610a92576040805160e560020a62461bcd02815260206004820152602760248201527f5472616e73666572206c696d69742068617320746f206265206772656174657260448201527f207468616e203000000000000000000000000000000000000000000000000000606482015290519081900360840190fd5b60025460a860020a900460ff1615610b1a576040805160e560020a62461bcd02815260206004820152602260248201527f5472616e73666572206c696d6974206e6f7420696e20746f6b656e20616d6f7560448201527f6e74000000000000000000000000000000000000000000000000000000000000606482015290519081900360840190fd5b600160a060020a0385166000818152600760209081526040918290208790558151928352820186905280517ff3a684e8eb611437fe20ba3b967a9018228869015d3324db0313db1a0401c5569281900390910190a15050505050565b604080517f636f6e66696775726528626f6f6c2c75696e743235362c626f6f6c29000000008152905190819003601c01902090565b60055460ff1681565b60d960020a6420a226a4a70281565b60d960020a6420a226a4a702600080600160009054906101000a9004600160a060020a0316600160a060020a0316638da5cb5b6040518163ffffffff1660e060020a028152600401602060405180830381600087803b158015610c2557600080fd5b505af1158015610c39573d6000803e3d6000fd5b505050506040513d6020811015610c4f57600080fd5b505160005433600160a060020a039283168114945091161490508180610c725750805b80610d0257506001546040805160e060020a638658b8b9028152336004820152306024820152604481018690529051600160a060020a0390921691638658b8b9916064808201926020929091908290030181600087803b158015610cd557600080fd5b505af1158015610ce9573d6000803e3d6000fd5b505050506040513d6020811015610cff57600080fd5b50515b1515610d46576040805160e560020a62461bcd0281526020600482015260176024820152600080516020613c94833981519152604482015290519081900360640190fd5b60025460a860020a900460ff1615610da8576040805160e560020a62461bcd02815260206004820181905260248201527f5472616e73666572206c696d6974206e6f742073657420696e20746f6b656e73604482015290519081900360640190fd5b60008411610e26576040805160e560020a62461bcd02815260206004820152602760248201527f5472616e73666572206c696d69742068617320746f206772656174657220746860448201527f616e207a65726f00000000000000000000000000000000000000000000000000606482015290519081900360840190fd5b60035460408051868152602081019290925280517f8352dcd605eb30dcadac192c17b4395a1ca6c20005ba6f3eb1d47c7f5a93c5fc9281900390910190a1505050600355565b600060d960020a6420a226a4a702600080600160009054906101000a9004600160a060020a0316600160a060020a0316638da5cb5b6040518163ffffffff1660e060020a028152600401602060405180830381600087803b158015610ed057600080fd5b505af1158015610ee4573d6000803e3d6000fd5b505050506040513d6020811015610efa57600080fd5b505160005433600160a060020a039283168114945091161490508180610f1d5750805b80610fad57506001546040805160e060020a638658b8b9028152336004820152306024820152604481018690529051600160a060020a0390921691638658b8b9916064808201926020929091908290030181600087803b158015610f8057600080fd5b505af1158015610f94573d6000803e3d6000fd5b505050506040513d6020811015610faa57600080fd5b50515b1515610ff1576040805160e560020a62461bcd0281526020600482015260176024820152600080516020613c94833981519152604482015290519081900360640190fd5b8451600010611038576040805160e560020a62461bcd0281526020600482015260176024820152600080516020613c74833981519152604482015290519081900360640190fd5b600093505b845184101561107157611066858581518110151561105757fe5b90602001906020020151613851565b60019093019261103d565b5050505050565b60d960020a6420a226a4a702600080600160009054906101000a9004600160a060020a0316600160a060020a0316638da5cb5b6040518163ffffffff1660e060020a028152600401602060405180830381600087803b1580156110da57600080fd5b505af11580156110ee573d6000803e3d6000fd5b505050506040513d602081101561110457600080fd5b505160005433600160a060020a0392831681149450911614905081806111275750805b806111b757506001546040805160e060020a638658b8b9028152336004820152306024820152604481018690529051600160a060020a0390921691638658b8b9916064808201926020929091908290030181600087803b15801561118a57600080fd5b505af115801561119e573d6000803e3d6000fd5b505050506040513d60208110156111b457600080fd5b50515b15156111fb576040805160e560020a62461bcd0281526020600482015260176024820152600080516020613c94833981519152604482015290519081900360640190fd5b60025460a860020a900460ff161515611283576040805160e560020a62461bcd028152602060048201526024808201527f5472616e73666572206c696d6974206e6f742073657420696e2050657263656e60448201527f7461676500000000000000000000000000000000000000000000000000000000606482015290519081900360840190fd5b60008411801561129b5750670de0b6b3a76400008411155b15156112f1576040805160e560020a62461bcd02815260206004820152601860248201527f4c696d6974206e6f742077697468696e205b302c3130305d0000000000000000604482015290519081900360640190fd5b60045460408051868152602081019290925280517f9657d031eb2a834ca5df9c940b65c8edb2fedc31f396af8af3a1574337177de29281900390910190a1505050600455565b600160009054906101000a9004600160a060020a0316600160a060020a0316638da5cb5b6040518163ffffffff1660e060020a028152600401602060405180830381600087803b15801561138a57600080fd5b505af115801561139e573d6000803e3d6000fd5b505050506040513d60208110156113b457600080fd5b5051600160a060020a03163314611415576040805160e560020a62461bcd02815260206004820152601360248201527f53656e646572206973206e6f74206f776e657200000000000000000000000000604482015290519081900360640190fd5b61141d613abe565b565b60d960020a6420a226a4a702600080600160009054906101000a9004600160a060020a0316600160a060020a0316638da5cb5b6040518163ffffffff1660e060020a028152600401602060405180830381600087803b15801561148157600080fd5b505af1158015611495573d6000803e3d6000fd5b505050506040513d60208110156114ab57600080fd5b505160005433600160a060020a0392831681149450911614905081806114ce5750805b8061155e57506001546040805160e060020a638658b8b9028152336004820152306024820152604481018690529051600160a060020a0390921691638658b8b9916064808201926020929091908290030181600087803b15801561153157600080fd5b505af1158015611545573d6000803e3d6000fd5b505050506040513d602081101561155b57600080fd5b50515b15156115a2576040805160e560020a62461bcd0281526020600482015260176024820152600080516020613c94833981519152604482015290519081900360640190fd5b600160a060020a0384161515611628576040805160e560020a62461bcd02815260206004820152602760248201527f57616c6c657420616464726573732063616e6e6f742062652061207a65726f2060448201527f6164647265737300000000000000000000000000000000000000000000000000606482015290519081900360840190fd5b600160a060020a038416600081815260066020908152604091829020805460ff19169055815192835290517fc3556578af891db554a994f93e2a7e32a027de8f5e7fbf2a2a92e59f6573bd759281900390910190a150505050565b60035481565b60025460a060020a900460ff1681565b600060d960020a6420a226a4a702600080600160009054906101000a9004600160a060020a0316600160a060020a0316638da5cb5b6040518163ffffffff1660e060020a028152600401602060405180830381600087803b1580156116fd57600080fd5b505af1158015611711573d6000803e3d6000fd5b505050506040513d602081101561172757600080fd5b505160005433600160a060020a03928316811494509116149050818061174a5750805b806117da57506001546040805160e060020a638658b8b9028152336004820152306024820152604481018690529051600160a060020a0390921691638658b8b9916064808201926020929091908290030181600087803b1580156117ad57600080fd5b505af11580156117c1573d6000803e3d6000fd5b505050506040513d60208110156117d757600080fd5b50515b151561181e576040805160e560020a62461bcd0281526020600482015260176024820152600080516020613c94833981519152604482015290519081900360640190fd5b8551600010611865576040805160e560020a62461bcd0281526020600482015260176024820152600080516020613c74833981519152604482015290519081900360640190fd5b84518651146118e4576040805160e560020a62461bcd02815260206004820152602860248201527f57616c6c65747320646f6e2774206d6174636820746f2070657263656e74616760448201527f65206c696d697473000000000000000000000000000000000000000000000000606482015290519081900360840190fd5b600093505b85518410156119355761192a868581518110151561190357fe5b90602001906020020151868681518110151561191b57fe5b90602001906020020151611e25565b6001909301926118e9565b505050505050565b60007f4645455f41444d494e0000000000000000000000000000000000000000000000600080600160009054906101000a9004600160a060020a0316600160a060020a0316638da5cb5b6040518163ffffffff1660e060020a028152600401602060405180830381600087803b1580156119b657600080fd5b505af11580156119ca573d6000803e3d6000fd5b505050506040513d60208110156119e057600080fd5b505160005433600160a060020a039283168114945091161490508180611a035750805b80611a9357506001546040805160e060020a638658b8b9028152336004820152306024820152604481018690529051600160a060020a0390921691638658b8b9916064808201926020929091908290030181600087803b158015611a6657600080fd5b505af1158015611a7a573d6000803e3d6000fd5b505050506040513d6020811015611a9057600080fd5b50515b1515611ad7576040805160e560020a62461bcd0281526020600482015260176024820152600080516020613c94833981519152604482015290519081900360640190fd5b60025460015460008054604080517f8da5cb5b0000000000000000000000000000000000000000000000000000000081529051600160a060020a03958616956323b872dd95811694931692638da5cb5b92600480820193602093909283900390910190829087803b158015611b4b57600080fd5b505af1158015611b5f573d6000803e3d6000fd5b505050506040513d6020811015611b7557600080fd5b50516040805160e060020a63ffffffff8616028152600160a060020a039384166004820152929091166024830152604482018990525160648083019260209291908290030181600087803b158015611bcc57600080fd5b505af1158015611be0573d6000803e3d6000fd5b505050506040513d6020811015611bf657600080fd5b50511515611c4e576040805160e560020a62461bcd02815260206004820152601260248201527f556e61626c6520746f2074616b65206665650000000000000000000000000000604482015290519081900360640190fd5b506001949350505050565b600254600160a060020a031681565b60025460a860020a900460ff1681565b600054600160a060020a03163314611cda576040805160e560020a62461bcd02815260206004820152601560248201527f53656e646572206973206e6f7420666163746f72790000000000000000000000604482015290519081900360640190fd5b6002805475ff000000000000000000000000000000000000000000191660a860020a8515158102919091179182905560ff91041615611d2157611d1c82611078565b611d2a565b611d2a82610bc3565b6005805460ff19169115159190911790555050565b600160009054906101000a9004600160a060020a0316600160a060020a0316638da5cb5b6040518163ffffffff1660e060020a028152600401602060405180830381600087803b158015611d9257600080fd5b505af1158015611da6573d6000803e3d6000fd5b505050506040513d6020811015611dbc57600080fd5b5051600160a060020a03163314611e1d576040805160e560020a62461bcd02815260206004820152601360248201527f53656e646572206973206e6f74206f776e657200000000000000000000000000604482015290519081900360640190fd5b61141d613b74565b60d960020a6420a226a4a702600080600160009054906101000a9004600160a060020a0316600160a060020a0316638da5cb5b6040518163ffffffff1660e060020a028152600401602060405180830381600087803b158015611e8757600080fd5b505af1158015611e9b573d6000803e3d6000fd5b505050506040513d6020811015611eb157600080fd5b505160005433600160a060020a039283168114945091161490508180611ed45750805b80611f6457506001546040805160e060020a638658b8b9028152336004820152306024820152604481018690529051600160a060020a0390921691638658b8b9916064808201926020929091908290030181600087803b158015611f3757600080fd5b505af1158015611f4b573d6000803e3d6000fd5b505050506040513d6020811015611f6157600080fd5b50515b1515611fa8576040805160e560020a62461bcd0281526020600482015260176024820152600080516020613c94833981519152604482015290519081900360640190fd5b60025460a860020a900460ff16151561200b576040805160e560020a62461bcd02815260206004820181905260248201527f5472616e73666572206c696d6974206e6f7420696e2070657263656e74616765604482015290519081900360640190fd5b6000841180156120235750670de0b6b3a76400008411155b151561209e576040805160e560020a62461bcd028152602060048201526024808201527f5472616e73666572206c696d6974206e6f7420696e207265717569726564207260448201527f616e676500000000000000000000000000000000000000000000000000000000606482015290519081900360840190fd5b600160a060020a0385166000818152600860209081526040918290208790558151928352820186905280517fe2c0268c1a2988af3f29ec6b082af2f13e79d3c05dba09f61e541dc2f42e99d89281900390910190a15050505050565b60066020526000908152604090205460ff1681565b60d960020a6420a226a4a702600080600160009054906101000a9004600160a060020a0316600160a060020a0316638da5cb5b6040518163ffffffff1660e060020a028152600401602060405180830381600087803b15801561217157600080fd5b505af1158015612185573d6000803e3d6000fd5b505050506040513d602081101561219b57600080fd5b505160005433600160a060020a0392831681149450911614905081806121be5750805b8061224e57506001546040805160e060020a638658b8b9028152336004820152306024820152604481018690529051600160a060020a0390921691638658b8b9916064808201926020929091908290030181600087803b15801561222157600080fd5b505af1158015612235573d6000803e3d6000fd5b505050506040513d602081101561224b57600080fd5b50515b1515612292576040805160e560020a62461bcd0281526020600482015260176024820152600080516020613c94833981519152604482015290519081900360640190fd5b60025460a860020a900460ff1615612319576040805160e560020a62461bcd028152602060048201526024808201527f5472616e73666572206c696d697420616c726561647920696e2070657263656e60448201527f7461676500000000000000000000000000000000000000000000000000000000606482015290519081900360840190fd5b6002805475ff000000000000000000000000000000000000000000191660a860020a17905561234784611078565b6040517f4ab0283d199de774ad6d945ef835c154ef2f35c0cd3dc1001c454c250ebb54d890600090a150505050565b60d960020a6420a226a4a702600080600160009054906101000a9004600160a060020a0316600160a060020a0316638da5cb5b6040518163ffffffff1660e060020a028152600401602060405180830381600087803b1580156123d857600080fd5b505af11580156123ec573d6000803e3d6000fd5b505050506040513d602081101561240257600080fd5b505160005433600160a060020a0392831681149450911614905081806124255750805b806124b557506001546040805160e060020a638658b8b9028152336004820152306024820152604481018690529051600160a060020a0390921691638658b8b9916064808201926020929091908290030181600087803b15801561248857600080fd5b505af115801561249c573d6000803e3d6000fd5b505050506040513d60208110156124b257600080fd5b50515b15156124f9576040805160e560020a62461bcd0281526020600482015260176024820152600080516020613c94833981519152604482015290519081900360640190fd5b600160a060020a0384166000908152600860205260408120541161258d576040805160e560020a62461bcd02815260206004820152602d60248201527f57616c6c6574204164647265737320646f6573206e6f7420686176652061207460448201527f72616e73666572206c696d697400000000000000000000000000000000000000606482015290519081900360840190fd5b600160a060020a038416600081815260086020908152604080832092909255815192835290517fc8f5b9ec87dc796e445c033c8e5fcd554ae055960b6782a8d0178faa677a36759281900390910190a150505050565b600154600160a060020a031681565b6040805160018082528183019092526060918291906020808301908038833901905050905060d960020a6420a226a4a70281600081518110151561263257fe5b60209081029091010152905090565b600054600160a060020a031681565b600060d960020a6420a226a4a702600080600160009054906101000a9004600160a060020a0316600160a060020a0316638da5cb5b6040518163ffffffff1660e060020a028152600401602060405180830381600087803b1580156126b457600080fd5b505af11580156126c8573d6000803e3d6000fd5b505050506040513d60208110156126de57600080fd5b505160005433600160a060020a0392831681149450911614905081806127015750805b8061279157506001546040805160e060020a638658b8b9028152336004820152306024820152604481018690529051600160a060020a0390921691638658b8b9916064808201926020929091908290030181600087803b15801561276457600080fd5b505af1158015612778573d6000803e3d6000fd5b505050506040513d602081101561278e57600080fd5b50515b15156127d5576040805160e560020a62461bcd0281526020600482015260176024820152600080516020613c94833981519152604482015290519081900360640190fd5b845160001061281c576040805160e560020a62461bcd0281526020600482015260176024820152600080516020613c74833981519152604482015290519081900360640190fd5b600093505b84518410156110715761284a858581518110151561283b57fe5b9060200190602002015161141f565b600190930192612821565b60d960020a6420a226a4a702600080600160009054906101000a9004600160a060020a0316600160a060020a0316638da5cb5b6040518163ffffffff1660e060020a028152600401602060405180830381600087803b1580156128b757600080fd5b505af11580156128cb573d6000803e3d6000fd5b505050506040513d60208110156128e157600080fd5b505160005433600160a060020a0392831681149450911614905081806129045750805b8061299457506001546040805160e060020a638658b8b9028152336004820152306024820152604481018690529051600160a060020a0390921691638658b8b9916064808201926020929091908290030181600087803b15801561296757600080fd5b505af115801561297b573d6000803e3d6000fd5b505050506040513d602081101561299157600080fd5b50515b15156129d8576040805160e560020a62461bcd0281526020600482015260176024820152600080516020613c94833981519152604482015290519081900360640190fd5b600160a060020a0384161515612a5e576040805160e560020a62461bcd02815260206004820152602760248201527f57616c6c657420616464726573732063616e6e6f742062652061207a65726f2060448201527f6164647265737300000000000000000000000000000000000000000000000000606482015290519081900360840190fd5b600160a060020a038416600081815260066020908152604091829020805460ff19166001179055815192835290517f316f0539205c18a5ab1d72c1837188ad2a77fdd5fb8729626d708b9ee9eeb8b29281900390910190a150505050565b600060d960020a6420a226a4a702600080600160009054906101000a9004600160a060020a0316600160a060020a0316638da5cb5b6040518163ffffffff1660e060020a028152600401602060405180830381600087803b158015612b2057600080fd5b505af1158015612b34573d6000803e3d6000fd5b505050506040513d6020811015612b4a57600080fd5b505160005433600160a060020a039283168114945091161490508180612b6d5750805b80612bfd57506001546040805160e060020a638658b8b9028152336004820152306024820152604481018690529051600160a060020a0390921691638658b8b9916064808201926020929091908290030181600087803b158015612bd057600080fd5b505af1158015612be4573d6000803e3d6000fd5b505050506040513d6020811015612bfa57600080fd5b50515b1515612c41576040805160e560020a62461bcd0281526020600482015260176024820152600080516020613c94833981519152604482015290519081900360640190fd5b8551600010612c88576040805160e560020a62461bcd0281526020600482015260176024820152600080516020613c74833981519152604482015290519081900360640190fd5b8451865114612d07576040805160e560020a62461bcd02815260206004820152602660248201527f57616c6c65747320646f6e2774206d6174636820746f207472616e736665722060448201527f6c696d6974730000000000000000000000000000000000000000000000000000606482015290519081900360840190fd5b600093505b855184101561193557612d4d8685815181101515612d2657fe5b906020019060200201518686815181101515612d3e57fe5b90602001906020020151610891565b600190930192612d0c565b7f4645455f41444d494e000000000000000000000000000000000000000000000081565b600160a060020a038516600090815260066020526040812054819060ff1680612dae575060025460a060020a900460ff165b15612dbc5760019150612fa2565b600160a060020a038716158015612dd5575060055460ff165b15612de35760019150612fa2565b60025460a860020a900460ff1615612f4557600160a060020a0387166000908152600860205260408120541115612ee257600160a060020a0380881660009081526008602090815260408083205460015482517f18160ddd00000000000000000000000000000000000000000000000000000000815292519195612ed9959116936318160ddd936004808201949293918390030190829087803b158015612e8957600080fd5b505af1158015612e9d573d6000803e3d6000fd5b505050506040513d6020811015612eb357600080fd5b5051612ecd88670de0b6b3a764000063ffffffff613c2f16565b9063ffffffff613c5e16565b11159050612f40565b600454612f3b600160009054906101000a9004600160a060020a0316600160a060020a03166318160ddd6040518163ffffffff1660e060020a028152600401602060405180830381600087803b158015612e8957600080fd5b111590505b612f8e565b600160a060020a0387166000908152600760205260408120541115612f865750600160a060020a038616600090815260076020526040902054841115612f8e565b506003548411155b8015612f9d5760019150612fa2565b600091505b5095945050505050565b60d960020a6420a226a4a702600080600160009054906101000a9004600160a060020a0316600160a060020a0316638da5cb5b6040518163ffffffff1660e060020a028152600401602060405180830381600087803b15801561300e57600080fd5b505af1158015613022573d6000803e3d6000fd5b505050506040513d602081101561303857600080fd5b505160005433600160a060020a03928316811494509116149050818061305b5750805b806130eb57506001546040805160e060020a638658b8b9028152336004820152306024820152604481018690529051600160a060020a0390921691638658b8b9916064808201926020929091908290030181600087803b1580156130be57600080fd5b505af11580156130d2573d6000803e3d6000fd5b505050506040513d60208110156130e857600080fd5b50515b151561312f576040805160e560020a62461bcd0281526020600482015260176024820152600080516020613c94833981519152604482015290519081900360640190fd5b60055460ff1615158415151415613190576040805160e560020a62461bcd02815260206004820152601360248201527f4d757374206368616e67652073657474696e6700000000000000000000000000604482015290519081900360640190fd5b6005805460ff19168515159081179091556040805191825242602083015280517f18c46e6020c4726ca5632d0d9151af91a57008e48735d9c6283621f37fae3db59281900390910190a150505050565b60d960020a6420a226a4a702600080600160009054906101000a9004600160a060020a0316600160a060020a0316638da5cb5b6040518163ffffffff1660e060020a028152600401602060405180830381600087803b15801561324257600080fd5b505af1158015613256573d6000803e3d6000fd5b505050506040513d602081101561326c57600080fd5b505160005433600160a060020a03928316811494509116149050818061328f5750805b8061331f57506001546040805160e060020a638658b8b9028152336004820152306024820152604481018690529051600160a060020a0390921691638658b8b9916064808201926020929091908290030181600087803b1580156132f257600080fd5b505af1158015613306573d6000803e3d6000fd5b505050506040513d602081101561331c57600080fd5b50515b1515613363576040805160e560020a62461bcd0281526020600482015260176024820152600080516020613c94833981519152604482015290519081900360640190fd5b60025460a860020a900460ff1615156133c6576040805160e560020a62461bcd02815260206004820181905260248201527f5472616e73666572206c696d697420616c726561647920696e20746f6b656e73604482015290519081900360640190fd5b6002805475ff000000000000000000000000000000000000000000191690556133ee84610bc3565b6040517fae6b200cd6766f522ab5e916ea573857eafcb425e284817d88bbc986c951f64790600090a150505050565b600060d960020a6420a226a4a702600080600160009054906101000a9004600160a060020a0316600160a060020a0316638da5cb5b6040518163ffffffff1660e060020a028152600401602060405180830381600087803b15801561348157600080fd5b505af1158015613495573d6000803e3d6000fd5b505050506040513d60208110156134ab57600080fd5b505160005433600160a060020a0392831681149450911614905081806134ce5750805b8061355e57506001546040805160e060020a638658b8b9028152336004820152306024820152604481018690529051600160a060020a0390921691638658b8b9916064808201926020929091908290030181600087803b15801561353157600080fd5b505af1158015613545573d6000803e3d6000fd5b505050506040513d602081101561355b57600080fd5b50515b15156135a2576040805160e560020a62461bcd0281526020600482015260176024820152600080516020613c94833981519152604482015290519081900360640190fd5b84516000106135e9576040805160e560020a62461bcd0281526020600482015260176024820152600080516020613c74833981519152604482015290519081900360640190fd5b600093505b845184101561107157613617858581518110151561360857fe5b90602001906020020151612376565b6001909301926135ee565b60076020526000908152604090205481565b60086020526000908152604090205481565b60045481565b600060d960020a6420a226a4a702600080600160009054906101000a9004600160a060020a0316600160a060020a0316638da5cb5b6040518163ffffffff1660e060020a028152600401602060405180830381600087803b1580156136b057600080fd5b505af11580156136c4573d6000803e3d6000fd5b505050506040513d60208110156136da57600080fd5b505160005433600160a060020a0392831681149450911614905081806136fd5750805b8061378d57506001546040805160e060020a638658b8b9028152336004820152306024820152604481018690529051600160a060020a0390921691638658b8b9916064808201926020929091908290030181600087803b15801561376057600080fd5b505af1158015613774573d6000803e3d6000fd5b505050506040513d602081101561378a57600080fd5b50515b15156137d1576040805160e560020a62461bcd0281526020600482015260176024820152600080516020613c94833981519152604482015290519081900360640190fd5b8451600010613818576040805160e560020a62461bcd0281526020600482015260176024820152600080516020613c74833981519152604482015290519081900360640190fd5b600093505b845184101561107157613846858581518110151561383757fe5b90602001906020020151612855565b60019093019261381d565b60d960020a6420a226a4a702600080600160009054906101000a9004600160a060020a0316600160a060020a0316638da5cb5b6040518163ffffffff1660e060020a028152600401602060405180830381600087803b1580156138b357600080fd5b505af11580156138c7573d6000803e3d6000fd5b505050506040513d60208110156138dd57600080fd5b505160005433600160a060020a0392831681149450911614905081806139005750805b8061399057506001546040805160e060020a638658b8b9028152336004820152306024820152604481018690529051600160a060020a0390921691638658b8b9916064808201926020929091908290030181600087803b15801561396357600080fd5b505af1158015613977573d6000803e3d6000fd5b505050506040513d602081101561398d57600080fd5b50515b15156139d4576040805160e560020a62461bcd0281526020600482015260176024820152600080516020613c94833981519152604482015290519081900360640190fd5b600160a060020a03841660009081526007602052604081205411613a68576040805160e560020a62461bcd02815260206004820152602d60248201527f57616c6c6574204164647265737320646f6573206e6f7420686176652061207460448201527f72616e73666572206c696d697400000000000000000000000000000000000000606482015290519081900360840190fd5b600160a060020a038416600081815260076020908152604080832092909255815192835290517f7c1d5d39521e3802a21959ceb2b28e510393855700204568197de33c85eaf8609281900390910190a150505050565b60025460a060020a900460ff161515613b21576040805160e560020a62461bcd02815260206004820152601660248201527f436f6e7472616374206973206e6f742070617573656400000000000000000000604482015290519081900360640190fd5b6002805474ff0000000000000000000000000000000000000000191690556040805142815290517faaa520fdd7d2c83061d632fa017b0432407e798818af63ea908589fceda39ab79181900360200190a1565b60025460a060020a900460ff1615613bd6576040805160e560020a62461bcd02815260206004820152601260248201527f436f6e7472616374206973207061757365640000000000000000000000000000604482015290519081900360640190fd5b6002805474ff0000000000000000000000000000000000000000191660a060020a1790556040805142815290517f68b095021b1f40fe513109f513c66692f0b3219aee674a69f4efc57badb8201d9181900360200190a1565b6000821515613c4057506000613c58565b50818102818382811515613c5057fe5b0414613c5857fe5b92915050565b60008183811515613c6b57fe5b049392505050560057616c6c6574732063616e6e6f7420626520656d7074790000000000000000005065726d697373696f6e20636865636b206661696c6564000000000000000000a165627a7a72305820faaeea097974eddff15c449616a1b710b08bdd6e3a3b7d234000874046abe9fc0029",
  "source": "pragma solidity ^0.4.24;\n\nimport \"./../../TransferManager/ITransferManager.sol\";\nimport \"openzeppelin-solidity/contracts/math/SafeMath.sol\";\n\n/**\n * @title Transfer Manager for limiting volume of tokens in a single trade\n */\n\ncontract SingleTradeVolumeRestrictionTM is ITransferManager {\n    using SafeMath for uint256;\n\n    bytes32 constant public ADMIN = \"ADMIN\";\n\n    bool public isTransferLimitInPercentage;\n\n    uint256 public globalTransferLimitInTokens;\n\n    // should be multipled by 10^16. if the transfer percentage is 20%, then globalTransferLimitInPercentage should be 20*10^16\n    uint256 public globalTransferLimitInPercentage;\n\n    // Ignore transactions which are part of the primary issuance\n    bool public allowPrimaryIssuance = true;\n\n    //mapping to store the wallets that are exempted from the volume restriction\n    mapping(address => bool) public exemptWallets;\n\n    //addresses on this list have special transfer restrictions apart from global\n    mapping(address => uint) public specialTransferLimitsInTokens;\n\n    mapping(address => uint) public specialTransferLimitsInPercentages;\n\n    event ExemptWalletAdded(address _wallet);\n    event ExemptWalletRemoved(address _wallet);\n    event TransferLimitInTokensSet(address _wallet, uint256 _amount);\n    event TransferLimitInPercentageSet(address _wallet, uint _percentage);\n    event TransferLimitInPercentageRemoved(address _wallet);\n    event TransferLimitInTokensRemoved(address _wallet);\n    event GlobalTransferLimitInTokensSet(uint256 _amount, uint256 _oldAmount);\n    event GlobalTransferLimitInPercentageSet(uint256 _percentage, uint256 _oldPercentage);\n    event TransferLimitChangedToTokens();\n    event TransferLimitChangedtoPercentage();\n    event SetAllowPrimaryIssuance(bool _allowPrimaryIssuance, uint256 _timestamp);\n\n    /**\n     * @notice Constructor\n     * @param _securityToken Address of the security token\n     * @param _polyAddress Address of the polytoken\n    */\n    constructor(address _securityToken, address _polyAddress) public\n    Module(_securityToken, _polyAddress)\n    {\n\n    }\n\n    /** @notice Used to verify the transfer transaction and prevent an account from sending more tokens than allowed in a single transfer\n     * @param _from Address of the sender\n     * @param _amount The amount of tokens to transfer\n     */\n    function verifyTransfer(\n        address _from,\n        address /* _to */,\n        uint256 _amount,\n        bytes /* _data */,\n        bool /* _isTransfer */\n    )\n        public\n        returns(Result)\n    {\n        bool validTransfer;\n\n        if (exemptWallets[_from] || paused) return Result.NA;\n\n        if (_from == address(0) && allowPrimaryIssuance) {\n            return Result.NA;\n        }\n\n        if (isTransferLimitInPercentage) {\n            if(specialTransferLimitsInPercentages[_from] > 0) {\n                validTransfer = (_amount.mul(10**18).div(ISecurityToken(securityToken).totalSupply())) <= specialTransferLimitsInPercentages[_from];\n            } else {\n                validTransfer = (_amount.mul(10**18).div(ISecurityToken(securityToken).totalSupply())) <= globalTransferLimitInPercentage;\n            }\n        } else  {\n            if (specialTransferLimitsInTokens[_from] > 0) {\n                validTransfer = _amount <= specialTransferLimitsInTokens[_from];\n            } else {\n                validTransfer = _amount <= globalTransferLimitInTokens;\n            }\n        }\n        if (validTransfer) return Result.NA;\n        return Result.INVALID;\n    }\n\n    /**\n    * @notice Used to intialize the variables of the contract\n    * @param _isTransferLimitInPercentage true if the transfer limit is in percentage else false\n    * @param _globalTransferLimitInPercentageOrToken transfer limit per single transaction.\n    */\n    function configure(\n        bool _isTransferLimitInPercentage,\n        uint256 _globalTransferLimitInPercentageOrToken,\n        bool _allowPrimaryIssuance\n        ) public onlyFactory {\n        isTransferLimitInPercentage = _isTransferLimitInPercentage;\n        if (isTransferLimitInPercentage) {\n            changeGlobalLimitInPercentage(_globalTransferLimitInPercentageOrToken);\n        } else {\n            changeGlobalLimitInTokens(_globalTransferLimitInPercentageOrToken);\n        }\n        allowPrimaryIssuance = _allowPrimaryIssuance;\n    }\n\n    /**\n    * @notice Sets whether or not to consider primary issuance transfers\n    * @param _allowPrimaryIssuance whether to allow all primary issuance transfers\n    */\n    function setAllowPrimaryIssuance(bool _allowPrimaryIssuance) public withPerm(ADMIN) {\n        require(_allowPrimaryIssuance != allowPrimaryIssuance, \"Must change setting\");\n        allowPrimaryIssuance = _allowPrimaryIssuance;\n        /*solium-disable-next-line security/no-block-members*/\n        emit SetAllowPrimaryIssuance(_allowPrimaryIssuance, now);\n    }\n\n    /**\n    * @notice Changes the manager to use transfer limit as Percentages\n    * @param _newGlobalTransferLimitInPercentage uint256 new global Transfer Limit In Percentage.\n    * @dev specialTransferLimits set for wallets have to re-configured\n    */\n    function changeTransferLimitToPercentage(uint256 _newGlobalTransferLimitInPercentage) public withPerm(ADMIN) {\n        require(!isTransferLimitInPercentage, \"Transfer limit already in percentage\");\n        isTransferLimitInPercentage = true;\n        changeGlobalLimitInPercentage(_newGlobalTransferLimitInPercentage);\n        emit TransferLimitChangedtoPercentage();\n    }\n\n    /**\n    * @notice Changes the manager to use transfer limit as tokens\n    * @param _newGlobalTransferLimit uint256 new global Transfer Limit in tokens.\n    * @dev specialTransferLimits set for wallets have to re-configured\n    */\n    function changeTransferLimitToTokens(uint _newGlobalTransferLimit) public withPerm(ADMIN) {\n        require(isTransferLimitInPercentage, \"Transfer limit already in tokens\");\n        isTransferLimitInPercentage = false;\n        changeGlobalLimitInTokens(_newGlobalTransferLimit);\n        emit TransferLimitChangedToTokens();\n    }\n    /**\n    * @notice Changes the global transfer limit\n    * @param _newGlobalTransferLimitInTokens new transfer limit in tokens\n    * @dev This function can be used only when The manager is configured to use limits in tokens\n    */\n    function changeGlobalLimitInTokens(uint256 _newGlobalTransferLimitInTokens) public withPerm(ADMIN) {\n        require(!isTransferLimitInPercentage, \"Transfer limit not set in tokens\");\n        require(_newGlobalTransferLimitInTokens > 0, \"Transfer limit has to greater than zero\");\n        emit GlobalTransferLimitInTokensSet(_newGlobalTransferLimitInTokens, globalTransferLimitInTokens);\n        globalTransferLimitInTokens = _newGlobalTransferLimitInTokens;\n\n    }\n\n    /**\n    * @notice Changes the global transfer limit\n    * @param _newGlobalTransferLimitInPercentage new transfer limit in percentage.\n    * Multiply the percentage by 10^16. Eg 22% will be 22*10^16\n    * @dev This function can be used only when The manager is configured to use limits in percentage\n    */\n    function changeGlobalLimitInPercentage(uint256 _newGlobalTransferLimitInPercentage) public withPerm(ADMIN) {\n        require(isTransferLimitInPercentage, \"Transfer limit not set in Percentage\");\n        require(_newGlobalTransferLimitInPercentage > 0 && _newGlobalTransferLimitInPercentage <= 100 * 10 ** 16, \"Limit not within [0,100]\");\n        emit GlobalTransferLimitInPercentageSet(_newGlobalTransferLimitInPercentage, globalTransferLimitInPercentage);\n        globalTransferLimitInPercentage = _newGlobalTransferLimitInPercentage;\n\n    }\n\n    /**\n    * @notice Adds an exempt wallet\n    * @param _wallet exempt wallet address\n    */\n    function addExemptWallet(address _wallet) public withPerm(ADMIN) {\n        require(_wallet != address(0), \"Wallet address cannot be a zero address\");\n        exemptWallets[_wallet] = true;\n        emit ExemptWalletAdded(_wallet);\n    }\n\n    /**\n    * @notice Removes an exempt wallet\n    * @param _wallet exempt wallet address\n    */\n    function removeExemptWallet(address _wallet) public withPerm(ADMIN) {\n        require(_wallet != address(0), \"Wallet address cannot be a zero address\");\n        exemptWallets[_wallet] = false;\n        emit ExemptWalletRemoved(_wallet);\n    }\n\n    /**\n    * @notice Adds an array of exempt wallet\n    * @param _wallets array of exempt wallet addresses\n    */\n    function addExemptWalletMulti(address[] _wallets) public withPerm(ADMIN) {\n        require(_wallets.length > 0, \"Wallets cannot be empty\");\n        for (uint256 i = 0; i < _wallets.length; i++) {\n            addExemptWallet(_wallets[i]);\n        }\n    }\n\n    /**\n    * @notice Removes an array of exempt wallet\n    * @param _wallets array of exempt wallet addresses\n    */\n    function removeExemptWalletMulti(address[] _wallets) public withPerm(ADMIN) {\n        require(_wallets.length > 0, \"Wallets cannot be empty\");\n        for (uint256 i = 0; i < _wallets.length; i++) {\n            removeExemptWallet(_wallets[i]);\n        }\n    }\n\n    /**\n    * @notice Sets transfer limit per wallet\n    * @param _wallet wallet address\n    * @param _transferLimit transfer limit for the wallet in tokens\n    * @dev the manager has to be configured to use limits in tokens\n    */\n    function setTransferLimitInTokens(address _wallet, uint _transferLimit) public withPerm(ADMIN) {\n        require(_transferLimit > 0, \"Transfer limit has to be greater than 0\");\n        require(!isTransferLimitInPercentage, \"Transfer limit not in token amount\");\n        specialTransferLimitsInTokens[_wallet] = _transferLimit;\n        emit TransferLimitInTokensSet(_wallet, _transferLimit);\n    }\n\n    /**\n    * @notice Sets transfer limit for a wallet\n    * @param _wallet wallet address\n    * @param _transferLimitInPercentage transfer limit for the wallet in percentage.\n    * Multiply the percentage by 10^16. Eg 22% will be 22*10^16\n    * @dev The manager has to be configured to use percentages\n    */\n    function setTransferLimitInPercentage(address _wallet, uint _transferLimitInPercentage) public withPerm(ADMIN) {\n        require(isTransferLimitInPercentage, \"Transfer limit not in percentage\");\n        require(_transferLimitInPercentage > 0 && _transferLimitInPercentage <= 100 * 10 ** 16, \"Transfer limit not in required range\");\n        specialTransferLimitsInPercentages[_wallet] = _transferLimitInPercentage;\n        emit TransferLimitInPercentageSet(_wallet, _transferLimitInPercentage);\n    }\n\n\n    /**\n    * @notice Removes transfer limit set in percentage for a wallet\n    * @param _wallet wallet address\n    */\n    function removeTransferLimitInPercentage(address _wallet) public withPerm(ADMIN) {\n        require(specialTransferLimitsInPercentages[_wallet] > 0, \"Wallet Address does not have a transfer limit\");\n        specialTransferLimitsInPercentages[_wallet] = 0;\n        emit TransferLimitInPercentageRemoved(_wallet);\n    }\n\n    /**\n    * @notice Removes transfer limit set in tokens for a wallet\n    * @param _wallet wallet address\n    */\n    function removeTransferLimitInTokens(address _wallet) public withPerm(ADMIN) {\n        require(specialTransferLimitsInTokens[_wallet] > 0, \"Wallet Address does not have a transfer limit\");\n        specialTransferLimitsInTokens[_wallet] = 0;\n        emit TransferLimitInTokensRemoved(_wallet);\n    }\n\n    /**\n    * @notice Sets transfer limits for an array of wallet\n    * @param _wallets array of wallet addresses\n    * @param _transferLimits array of transfer limits for each wallet in tokens\n    * @dev The manager has to be configured to use tokens as limit\n    */\n    function setTransferLimitInTokensMulti(address[] _wallets, uint[] _transferLimits) public withPerm(ADMIN) {\n        require(_wallets.length > 0, \"Wallets cannot be empty\");\n        require(_wallets.length == _transferLimits.length, \"Wallets don't match to transfer limits\");\n        for (uint256 i = 0; i < _wallets.length; i++ ) {\n            setTransferLimitInTokens(_wallets[i], _transferLimits[i]);\n        }\n    }\n\n    /**\n    * @notice Sets transfer limits for an array of wallet\n    * @param _wallets array of wallet addresses\n    * @param _transferLimitsInPercentage array of transfer limits for each wallet in percentages\n    * The percentage has to be multipled by 10 ** 16. Eg: 20% would be 20 * 10 ** 16\n    * @dev The manager has to be configured to use percentage as limit\n    */\n    function setTransferLimitInPercentageMulti(address[] _wallets, uint[] _transferLimitsInPercentage) public withPerm(ADMIN) {\n        require(_wallets.length > 0, \"Wallets cannot be empty\");\n        require(_wallets.length == _transferLimitsInPercentage.length, \"Wallets don't match to percentage limits\");\n        for (uint256 i = 0; i < _wallets.length; i++) {\n            setTransferLimitInPercentage(_wallets[i], _transferLimitsInPercentage[i]);\n        }\n    }\n\n    /**\n    * @notice Removes transfer limits set in tokens for an array of wallet\n    * @param _wallets array of wallet addresses\n    */\n    function removeTransferLimitInTokensMulti(address[] _wallets) public withPerm(ADMIN) {\n        require(_wallets.length > 0, \"Wallets cannot be empty\");\n        for (uint i = 0; i < _wallets.length; i++) {\n            removeTransferLimitInTokens(_wallets[i]);\n        }\n    }\n\n    /**\n    * @notice Removes transfer limits set in percentage for an array of wallet\n    * @param _wallets array of wallet addresses\n    */\n    function removeTransferLimitInPercentageMulti(address[] _wallets) public withPerm(ADMIN) {\n        require(_wallets.length > 0, \"Wallets cannot be empty\");\n        for (uint i = 0; i < _wallets.length; i++) {\n            removeTransferLimitInPercentage(_wallets[i]);\n        }\n    }\n\n    /**\n    * @notice This function returns the signature of configure function\n    */\n    function getInitFunction() public pure returns (bytes4) {\n        return bytes4(keccak256(\"configure(bool,uint256,bool)\"));\n    }\n\n    /**\n    * @notice Returns the permissions flag that are associated with SingleTradeVolumeRestrictionManager\n    */\n    function getPermissions() public view returns(bytes32[]) {\n        bytes32[] memory allPermissions = new bytes32[](1);\n        allPermissions[0] = ADMIN;\n        return allPermissions;\n    }\n}\n",
  "sourcePath": "/Users/jere/Code/polymath-apps/packages/new-polymath-scripts/src/generateLocalBlockchain/contracts/modules/Experimental/TransferManager/SingleTradeVolumeRestrictionTM.sol",
  "compiler": {
    "name": "solc",
    "version": "0.4.24+commit.e67f0147.Emscripten.clang"
  },
  "schemaVersion": "2.0.1",
  "updatedAt": "2019-02-01T15:57:13.889Z"
}