{
  "contractName": "USDTieredSTOFactory",
  "abi": [
    {
      "constant": true,
      "inputs": [],
      "name": "monthlySubscriptionCost",
      "outputs": [
        {
          "name": "",
          "type": "uint256"
        }
      ],
      "payable": false,
      "stateMutability": "view",
      "type": "function"
    },
    {
      "constant": true,
      "inputs": [],
      "name": "name",
      "outputs": [
        {
          "name": "",
          "type": "bytes32"
        }
      ],
      "payable": false,
      "stateMutability": "view",
      "type": "function"
    },
    {
      "constant": true,
      "inputs": [],
      "name": "getName",
      "outputs": [
        {
          "name": "",
          "type": "bytes32"
        }
      ],
      "payable": false,
      "stateMutability": "view",
      "type": "function"
    },
    {
      "constant": false,
      "inputs": [
        {
          "name": "_newTitle",
          "type": "string"
        }
      ],
      "name": "changeTitle",
      "outputs": [],
      "payable": false,
      "stateMutability": "nonpayable",
      "type": "function"
    },
    {
      "constant": false,
      "inputs": [
        {
          "name": "_newSubscriptionCost",
          "type": "uint256"
        }
      ],
      "name": "changeFactorySubscriptionFee",
      "outputs": [],
      "payable": false,
      "stateMutability": "nonpayable",
      "type": "function"
    },
    {
      "constant": true,
      "inputs": [],
      "name": "title",
      "outputs": [
        {
          "name": "",
          "type": "string"
        }
      ],
      "payable": false,
      "stateMutability": "view",
      "type": "function"
    },
    {
      "constant": true,
      "inputs": [],
      "name": "version",
      "outputs": [
        {
          "name": "",
          "type": "string"
        }
      ],
      "payable": false,
      "stateMutability": "view",
      "type": "function"
    },
    {
      "constant": false,
      "inputs": [
        {
          "name": "_newSetupCost",
          "type": "uint256"
        }
      ],
      "name": "changeFactorySetupFee",
      "outputs": [],
      "payable": false,
      "stateMutability": "nonpayable",
      "type": "function"
    },
    {
      "constant": false,
      "inputs": [
        {
          "name": "_newVersion",
          "type": "string"
        }
      ],
      "name": "changeVersion",
      "outputs": [],
      "payable": false,
      "stateMutability": "nonpayable",
      "type": "function"
    },
    {
      "constant": true,
      "inputs": [],
      "name": "polyToken",
      "outputs": [
        {
          "name": "",
          "type": "address"
        }
      ],
      "payable": false,
      "stateMutability": "view",
      "type": "function"
    },
    {
      "constant": false,
      "inputs": [],
      "name": "renounceOwnership",
      "outputs": [],
      "payable": false,
      "stateMutability": "nonpayable",
      "type": "function"
    },
    {
      "constant": true,
      "inputs": [],
      "name": "description",
      "outputs": [
        {
          "name": "",
          "type": "string"
        }
      ],
      "payable": false,
      "stateMutability": "view",
      "type": "function"
    },
    {
      "constant": true,
      "inputs": [],
      "name": "setupCost",
      "outputs": [
        {
          "name": "",
          "type": "uint256"
        }
      ],
      "payable": false,
      "stateMutability": "view",
      "type": "function"
    },
    {
      "constant": true,
      "inputs": [],
      "name": "getLowerSTVersionBounds",
      "outputs": [
        {
          "name": "",
          "type": "uint8[]"
        }
      ],
      "payable": false,
      "stateMutability": "view",
      "type": "function"
    },
    {
      "constant": false,
      "inputs": [
        {
          "name": "_newName",
          "type": "bytes32"
        }
      ],
      "name": "changeName",
      "outputs": [],
      "payable": false,
      "stateMutability": "nonpayable",
      "type": "function"
    },
    {
      "constant": true,
      "inputs": [],
      "name": "owner",
      "outputs": [
        {
          "name": "",
          "type": "address"
        }
      ],
      "payable": false,
      "stateMutability": "view",
      "type": "function"
    },
    {
      "constant": true,
      "inputs": [],
      "name": "getSetupCost",
      "outputs": [
        {
          "name": "",
          "type": "uint256"
        }
      ],
      "payable": false,
      "stateMutability": "view",
      "type": "function"
    },
    {
      "constant": false,
      "inputs": [
        {
          "name": "_newUsageCost",
          "type": "uint256"
        }
      ],
      "name": "changeFactoryUsageFee",
      "outputs": [],
      "payable": false,
      "stateMutability": "nonpayable",
      "type": "function"
    },
    {
      "constant": true,
      "inputs": [],
      "name": "logicContract",
      "outputs": [
        {
          "name": "",
          "type": "address"
        }
      ],
      "payable": false,
      "stateMutability": "view",
      "type": "function"
    },
    {
      "constant": true,
      "inputs": [],
      "name": "usageCost",
      "outputs": [
        {
          "name": "",
          "type": "uint256"
        }
      ],
      "payable": false,
      "stateMutability": "view",
      "type": "function"
    },
    {
      "constant": false,
      "inputs": [
        {
          "name": "_newDesc",
          "type": "string"
        }
      ],
      "name": "changeDescription",
      "outputs": [],
      "payable": false,
      "stateMutability": "nonpayable",
      "type": "function"
    },
    {
      "constant": false,
      "inputs": [
        {
          "name": "_newOwner",
          "type": "address"
        }
      ],
      "name": "transferOwnership",
      "outputs": [],
      "payable": false,
      "stateMutability": "nonpayable",
      "type": "function"
    },
    {
      "constant": true,
      "inputs": [],
      "name": "getUpperSTVersionBounds",
      "outputs": [
        {
          "name": "",
          "type": "uint8[]"
        }
      ],
      "payable": false,
      "stateMutability": "view",
      "type": "function"
    },
    {
      "constant": false,
      "inputs": [
        {
          "name": "_boundType",
          "type": "string"
        },
        {
          "name": "_newVersion",
          "type": "uint8[]"
        }
      ],
      "name": "changeSTVersionBounds",
      "outputs": [],
      "payable": false,
      "stateMutability": "nonpayable",
      "type": "function"
    },
    {
      "inputs": [
        {
          "name": "_polyAddress",
          "type": "address"
        },
        {
          "name": "_setupCost",
          "type": "uint256"
        },
        {
          "name": "_usageCost",
          "type": "uint256"
        },
        {
          "name": "_subscriptionCost",
          "type": "uint256"
        },
        {
          "name": "_logicContract",
          "type": "address"
        }
      ],
      "payable": false,
      "stateMutability": "nonpayable",
      "type": "constructor"
    },
    {
      "anonymous": false,
      "inputs": [
        {
          "indexed": true,
          "name": "previousOwner",
          "type": "address"
        }
      ],
      "name": "OwnershipRenounced",
      "type": "event"
    },
    {
      "anonymous": false,
      "inputs": [
        {
          "indexed": true,
          "name": "previousOwner",
          "type": "address"
        },
        {
          "indexed": true,
          "name": "newOwner",
          "type": "address"
        }
      ],
      "name": "OwnershipTransferred",
      "type": "event"
    },
    {
      "anonymous": false,
      "inputs": [
        {
          "indexed": false,
          "name": "_oldSetupCost",
          "type": "uint256"
        },
        {
          "indexed": false,
          "name": "_newSetupCost",
          "type": "uint256"
        },
        {
          "indexed": false,
          "name": "_moduleFactory",
          "type": "address"
        }
      ],
      "name": "ChangeFactorySetupFee",
      "type": "event"
    },
    {
      "anonymous": false,
      "inputs": [
        {
          "indexed": false,
          "name": "_oldUsageCost",
          "type": "uint256"
        },
        {
          "indexed": false,
          "name": "_newUsageCost",
          "type": "uint256"
        },
        {
          "indexed": false,
          "name": "_moduleFactory",
          "type": "address"
        }
      ],
      "name": "ChangeFactoryUsageFee",
      "type": "event"
    },
    {
      "anonymous": false,
      "inputs": [
        {
          "indexed": false,
          "name": "_oldSubscriptionCost",
          "type": "uint256"
        },
        {
          "indexed": false,
          "name": "_newMonthlySubscriptionCost",
          "type": "uint256"
        },
        {
          "indexed": false,
          "name": "_moduleFactory",
          "type": "address"
        }
      ],
      "name": "ChangeFactorySubscriptionFee",
      "type": "event"
    },
    {
      "anonymous": false,
      "inputs": [
        {
          "indexed": false,
          "name": "_module",
          "type": "address"
        },
        {
          "indexed": true,
          "name": "_moduleName",
          "type": "bytes32"
        },
        {
          "indexed": true,
          "name": "_moduleFactory",
          "type": "address"
        },
        {
          "indexed": false,
          "name": "_creator",
          "type": "address"
        },
        {
          "indexed": false,
          "name": "_setupCost",
          "type": "uint256"
        },
        {
          "indexed": false,
          "name": "_timestamp",
          "type": "uint256"
        }
      ],
      "name": "GenerateModuleFromFactory",
      "type": "event"
    },
    {
      "anonymous": false,
      "inputs": [
        {
          "indexed": false,
          "name": "_boundType",
          "type": "string"
        },
        {
          "indexed": false,
          "name": "_major",
          "type": "uint8"
        },
        {
          "indexed": false,
          "name": "_minor",
          "type": "uint8"
        },
        {
          "indexed": false,
          "name": "_patch",
          "type": "uint8"
        }
      ],
      "name": "ChangeSTVersionBound",
      "type": "event"
    },
    {
      "constant": false,
      "inputs": [
        {
          "name": "_data",
          "type": "bytes"
        }
      ],
      "name": "deploy",
      "outputs": [
        {
          "name": "",
          "type": "address"
        }
      ],
      "payable": false,
      "stateMutability": "nonpayable",
      "type": "function"
    },
    {
      "constant": true,
      "inputs": [],
      "name": "getTypes",
      "outputs": [
        {
          "name": "",
          "type": "uint8[]"
        }
      ],
      "payable": false,
      "stateMutability": "view",
      "type": "function"
    },
    {
      "constant": true,
      "inputs": [],
      "name": "getInstructions",
      "outputs": [
        {
          "name": "",
          "type": "string"
        }
      ],
      "payable": false,
      "stateMutability": "view",
      "type": "function"
    },
    {
      "constant": true,
      "inputs": [],
      "name": "getTags",
      "outputs": [
        {
          "name": "",
          "type": "bytes32[]"
        }
      ],
      "payable": false,
      "stateMutability": "view",
      "type": "function"
    }
  ],
  "bytecode": "0x60806040523480156200001157600080fd5b5060405160a08062002cb08339810160409081528151602083015191830151606084015160809094015160008054600160a060020a0319908116331790915560018054600160a060020a03808716919093161790556004859055600283905560038690559294919281161515620000e957604080517f08c379a000000000000000000000000000000000000000000000000000000000815260206004820152601960248201527f30782061646472657373206973206e6f7420616c6c6f77656400000000000000604482015290519081900360640190fd5b600a8054600160a060020a031916600160a060020a0383161790556040805180820190915260058082527f322e312e3000000000000000000000000000000000000000000000000000000060209092019182526200014a91600691620002ec565b507f55534454696572656453544f000000000000000000000000000000000000000060075560408051808201909152600e8082527f555344205469657265642053544f0000000000000000000000000000000000006020909201918252620001b591600891620002ec565b506101e0604051908101604052806101af815260200162002b016101af91398051620001ea91600591602090910190620002ec565b50620002076000808064010000000062001aa6620002d182021704565b604080517f6c6f776572426f756e640000000000000000000000000000000000000000000081526009600a820152905190819003602a019020805462ffffff9290921662ffffff19909216919091179055620002746000808064010000000062001aa6620002d182021704565b604080517f7570706572426f756e640000000000000000000000000000000000000000000081526009600a820152905190819003602a019020805462ffffff9290921662ffffff1990921691909117905550620003919350505050565b60ff9081169181166101000292166201000002919091171790565b828054600181600116156101000203166002900490600052602060002090601f016020900481019282601f106200032f57805160ff19168380011785556200035f565b828001600101855582156200035f579182015b828111156200035f57825182559160200191906001019062000342565b506200036d92915062000371565b5090565b6200038e91905b808211156200036d576000815560010162000378565b90565b61276080620003a16000396000f3006080604052600436106200016c5763ffffffff60e060020a60003504166277436081146200017157806306184a2514620001b057806306fdde0314620001da57806317d7de7c14620001f25780632dbe07c7146200020a5780633ae192bd14620002685780634a79d50c146200028357806354fd4d50146200031357806358a191c3146200032b57806364bb432c14620003465780636faa22a514620003a2578063715018a614620003ba5780637284e41614620003d25780637e363ffa14620003ea5780638677768f1462000402578063898855ed146200046c5780638da5cb5b1462000487578063995d9ab7146200049f578063a5e9d7c914620004b7578063aac67b0514620004cf578063b4579d6014620004ea578063cc0e97c91462000502578063d54c4726146200051a578063e0d549701462000532578063e6120413146200054a578063f2fde38b14620005a6578063f786299914620005ca578063fb97245614620005e2575b600080fd5b3480156200017e57600080fd5b5062000194600480356024810191013562000611565b60408051600160a060020a039092168252519081900360200190f35b348015620001bd57600080fd5b50620001c8620009d7565b60408051918252519081900360200190f35b348015620001e757600080fd5b50620001c8620009dd565b348015620001ff57600080fd5b50620001c8620009e3565b3480156200021757600080fd5b506040805160206004803580820135601f810184900484028501840190955284845262000266943694929360249392840191908190840183828082843750949750620009ea9650505050505050565b005b3480156200027557600080fd5b506200026660043562000a75565b3480156200029057600080fd5b506200029b62000ad3565b6040805160208082528351818301528351919283929083019185019080838360005b83811015620002d7578181015183820152602001620002bd565b50505050905090810190601f168015620003055780820380516001836020036101000a031916815260200191505b509250505060405180910390f35b3480156200032057600080fd5b506200029b62000b65565b3480156200033857600080fd5b506200026660043562000bc3565b3480156200035357600080fd5b506040805160206004803580820135601f81018490048402850184019095528484526200026694369492936024939284019190819084018382808284375094975062000c219650505050505050565b348015620003af57600080fd5b506200019462000ca8565b348015620003c757600080fd5b506200026662000cb7565b348015620003df57600080fd5b506200029b62000d24565b348015620003f757600080fd5b50620001c862000d82565b3480156200040f57600080fd5b506200041a62000d88565b60408051602080825283518183015283519192839290830191858101910280838360005b83811015620004585781810151838201526020016200043e565b505050509050019250505060405180910390f35b3480156200047957600080fd5b506200026660043562000dda565b3480156200049457600080fd5b506200019462000e4f565b348015620004ac57600080fd5b506200041a62000e5e565b348015620004c457600080fd5b50620001c862000f7b565b348015620004dc57600080fd5b506200026660043562000f81565b348015620004f757600080fd5b506200041a62000fdf565b3480156200050f57600080fd5b50620001946200102c565b3480156200052757600080fd5b50620001c86200103b565b3480156200053f57600080fd5b506200029b62001041565b3480156200055757600080fd5b506040805160206004803580820135601f810184900484028501840190955284845262000266943694929360249392840191908190840183828082843750949750620010789650505050505050565b348015620005b357600080fd5b5062000266600160a060020a0360043516620010ff565b348015620005d757600080fd5b506200041a62001125565b348015620005ef57600080fd5b5062000266602460048035828101929082013591813591820191013562001172565b600080600060045411156200074e576001546000805460048054604080517f23b872dd0000000000000000000000000000000000000000000000000000000081523393810193909352600160a060020a03938416602484015260448301919091525191909316926323b872dd9260648083019360209390929083900390910190829087803b158015620006a357600080fd5b505af1158015620006b8573d6000803e3d6000fd5b505050506040513d6020811015620006cf57600080fd5b505115156200074e576040805160e560020a62461bcd02815260206004820152602360248201527f537566666963656e7420416c6c6f77616e6365206973206e6f742070726f766960448201527f6465640000000000000000000000000000000000000000000000000000000000606482015290519081900360840190fd5b600154600a543391600160a060020a0390811691166200076d62001ac1565b600160a060020a03938416815291831660208301529091166040808301919091525190819003606001906000f080158015620007ad573d6000803e3d6000fd5b50905080600160a060020a0316631613ec9d6040518163ffffffff1660e060020a028152600401602060405180830381600087803b158015620007ef57600080fd5b505af115801562000804573d6000803e3d6000fd5b505050506040513d60208110156200081b57600080fd5b5051604080516020601f87018190048102820181019092528581527bffffffffffffffffffffffffffffffffffffffffffffffffffffffff19909216916200087891879087908190840183828082843750620016cb945050505050565b7bffffffffffffffffffffffffffffffffffffffffffffffffffffffff191614620008ed576040805160e560020a62461bcd02815260206004820152600c60248201527f496e76616c696420646174610000000000000000000000000000000000000000604482015290519081900360640190fd5b80600160a060020a03168484604051808383808284378201915050925050506000604051808303816000865af1915050151562000974576040805160e560020a62461bcd02815260206004820152601260248201527f556e7375636365737366756c6c2063616c6c0000000000000000000000000000604482015290519081900360640190fd5b306200097f620009e3565b60045460408051600160a060020a038616815233602082015280820192909252426060830152517fb68b4973fbce93f056103272c1f3f53b607527138d7e323b7b94f7ac169ebf779181900360800190a39392505050565b60035481565b60075481565b6007545b90565b600054600160a060020a0316331462000a0257600080fd5b805160001062000a5c576040805160e560020a62461bcd02815260206004820152600d60248201527f496e76616c6964207469746c6500000000000000000000000000000000000000604482015290519081900360640190fd5b805162000a7190600890602084019062001ad2565b5050565b600054600160a060020a0316331462000a8d57600080fd5b60035460408051918252602082018390523082820152517fb14468ff50b0c356f5373be0ef0791de71449aaf8ac5ca096049b7ac79d0b1139181900360600190a1600355565b6008805460408051602060026001851615610100026000190190941693909304601f8101849004840282018401909252818152929183018282801562000b5d5780601f1062000b315761010080835404028352916020019162000b5d565b820191906000526020600020905b81548152906001019060200180831162000b3f57829003601f168201915b505050505081565b6006805460408051602060026001851615610100026000190190941693909304601f8101849004840282018401909252818152929183018282801562000b5d5780601f1062000b315761010080835404028352916020019162000b5d565b600054600160a060020a0316331462000bdb57600080fd5b60045460408051918252602082018390523082820152517f9672983540fb671cd7c0c946255b4dc769a3e557a25ef91ca7c98995c8d694b69181900360600190a1600455565b600054600160a060020a0316331462000c3957600080fd5b805160001062000c93576040805160e560020a62461bcd02815260206004820152600f60248201527f496e76616c69642076657273696f6e0000000000000000000000000000000000604482015290519081900360640190fd5b805162000a7190600690602084019062001ad2565b600154600160a060020a031681565b600054600160a060020a0316331462000ccf57600080fd5b60008054604051600160a060020a03909116917ff8df31144d9c2f0f6b59d69b8b98abd5459d07f2742c4df920b25aae33c6482091a26000805473ffffffffffffffffffffffffffffffffffffffff19169055565b6005805460408051602060026001851615610100026000190190941693909304601f8101849004840282018401909252818152929183018282801562000b5d5780601f1062000b315761010080835404028352916020019162000b5d565b60045481565b604080517f6c6f776572426f756e640000000000000000000000000000000000000000000081526009600a820152905190819003602a0190205460609062000dd59062ffffff1662001751565b905090565b600054600160a060020a0316331462000df257600080fd5b80151562000e4a576040805160e560020a62461bcd02815260206004820152600c60248201527f496e76616c6964206e616d650000000000000000000000000000000000000000604482015290519081900360640190fd5b600755565b600054600160a060020a031681565b60408051600480825260a08201909252606091829190602082016080803883390190505090507f555344000000000000000000000000000000000000000000000000000000000081600081518110151562000eb557fe5b6020908102909101015280517f5469657265640000000000000000000000000000000000000000000000000000908290600190811062000ef157fe5b6020908102909101015280517f504f4c5900000000000000000000000000000000000000000000000000000000908290600290811062000f2d57fe5b6020908102909101015280517f4554480000000000000000000000000000000000000000000000000000000000908290600390811062000f6957fe5b602090810290910101529050805b5090565b60045490565b600054600160a060020a0316331462000f9957600080fd5b60025460408051918252602082018390523082820152517fc39ec4e85127e00b5b203f9c40814616d5977d8de85e6e0717e5ca4b0896206c9181900360600190a1600255565b6040805160018082528183019092526060918291906020808301908038833901905050905060038160008151811015156200101657fe5b60ff909216602092830290910190910152905090565b600a54600160a060020a031681565b60025481565b60408051808201909152601d81527f496e697469616c69736573206120555344207469657265642053544f2e000000602082015290565b600054600160a060020a031633146200109057600080fd5b8051600010620010ea576040805160e560020a62461bcd02815260206004820152601360248201527f496e76616c6964206465736372697074696f6e00000000000000000000000000604482015290519081900360640190fd5b805162000a7190600590602084019062001ad2565b600054600160a060020a031633146200111757600080fd5b6200112281620017f9565b50565b604080517f7570706572426f756e640000000000000000000000000000000000000000000081526009600a820152905190819003602a0190205460609062000dd59062ffffff1662001751565b600054606090600160a060020a031633146200118d57600080fd5b60405160200180807f6c6f776572426f756e6400000000000000000000000000000000000000000000815250600a0190506040516020818303038152906040526040518082805190602001908083835b60208310620011fe5780518252601f199092019160209182019101620011dd565b51815160209384036101000a600019018019909216911617905260405191909301819003812094508993508892019050808383808284378201915050925050506040516020818303038152906040526040518082805190602001908083835b602083106200127e5780518252601f1990920191602091820191016200125d565b6001836020036101000a0380198251168184511680821785525050505050509050019150506040518091039020600019161480620013db575060405160200180807f7570706572426f756e6400000000000000000000000000000000000000000000815250600a0190506040516020818303038152906040526040518082805190602001908083835b60208310620013285780518252601f19909201916020918201910162001307565b51815160209384036101000a600019018019909216911617905260405191909301819003812094508993508892019050808383808284378201915050925050506040516020818303038152906040526040518082805190602001908083835b60208310620013a85780518252601f19909201916020918201910162001387565b6001836020036101000a038019825116818451168082178552505050505050905001915050604051809103902060001916145b151562001432576040805160e560020a62461bcd02815260206004820152601a60248201527f4d75737420626520612076616c696420626f756e642074797065000000000000604482015290519081900360640190fd5b600382146200144057600080fd5b600062ffffff1660098686604051808383808284379091019485525050604051928390036020019092205462ffffff169290921491506200156c905057620014b460098686604051808383808284379091019485525050604051928390036020019092205462ffffff169150620017519050565b9050620014ef818484808060200260200160405190810160405280939291908181526020018383602002808284375062001877945050505050565b15156200156c576040805160e560020a62461bcd02815260206004820152602260248201527f4661696c65642062656361757365206f6620696e2d76616c696420766572736960448201527f6f6e000000000000000000000000000000000000000000000000000000000000606482015290519081900360840190fd5b620015c2838360008181106200157e57fe5b9050602002013560ff168484600181811015156200159857fe5b9050602002013560ff16858560028181101515620015b257fe5b9050602002013560ff1662001aa6565b6009868660405180838380828437909101948552505060405192839003602001909220805462ffffff9490941662ffffff1990941693909317909255507f5b67e16edaf7fc70c8d065ea6e70b97ed944d98fe593b04d682216615a3b04db90508585858560008181106200163257fe5b9050602002013560ff168686600181811015156200164c57fe5b9050602002013560ff168787600281811015156200166657fe5b9050602002013560ff1660405180806020018560ff1660ff1681526020018460ff1660ff1681526020018360ff1660ff168152602001828103825287878281815260200192508082843760405192018290039850909650505050505050a15050505050565b60008060006004845110620016e2576004620016e5565b83515b9150600090505b818110156200174a5780600183030360080260020a84828151811015156200171057fe5b90602001015160f860020a900460f860020a0260f860020a9004028360e060020a90040160e060020a0292508080600101915050620016ec565b5050919050565b6040805160038082526080820190925260609182919060208201838038833950508151919250506201000062ffffff85160490829060009081106200179257fe5b60ff909216602092830290910190910152805161010062ffffff8516049082906001908110620017be57fe5b60ff9092166020928302909101909101528051839082906002908110620017e157fe5b60ff9092166020928302909101909101529050919050565b600160a060020a03811615156200180f57600080fd5b60008054604051600160a060020a03808516939216917f8be0079c531659141344cd1fd0a4f28419497f9722a3daafe3b4186f6b6457e091a36000805473ffffffffffffffffffffffffffffffffffffffff1916600160a060020a0392909216919091179055565b600060606000808551604051908082528060200260200182016040528015620018aa578160200160208202803883390190505b50925060009150600090505b85518160ff1610156200195e57848160ff16815181101515620018d557fe5b9060200190602002015160ff16868260ff16815181101515620018f457fe5b9060200190602002015160ff16101562001931576001838260ff168151811015156200191c57fe5b91151560209283029091019091015262001955565b6000838260ff168151811015156200194557fe5b9115156020928302909101909101525b600101620018b6565b5060005b85518160ff16101562001a8b5760ff8116151562001a0657848160ff168151811015156200198c57fe5b9060200190602002015160ff16868260ff16815181101515620019ab57fe5b6020908102909101015160ff1611620019f657826000815181101515620019ce57fe5b9060200190602002015115620019ea5781600301915062001a8b565b60019091019062001a00565b6000935062001a9d565b62001a82565b826001820360ff1681518110151562001a1b57fe5b906020019060200201511562001a375760019091019062001a82565b848160ff1681518110151562001a4957fe5b9060200190602002015160ff16868260ff1681518110151562001a6857fe5b6020908102909101015160ff1611620019f6576001909101905b60010162001962565b85518260ff16141562001a9d57600193505b50505092915050565b60ff9081169181166101000292166201000002919091171790565b604051610bcb8062001b6a83390190565b828054600181600116156101000203166002900490600052602060002090601f016020900481019282601f1062001b1557805160ff191683800117855562001b45565b8280016001018555821562001b45579182015b8281111562001b4557825182559160200191906001019062001b28565b5062000f7792620009e79250905b8082111562000f77576000815560010162001b53560060806040526001805460ff19169055601a805460a060020a61ffff021916905534801561002b57600080fd5b50604051606080610bcb83398101604090815281516020830151919092015160198054600160a060020a03808616600160a060020a03199283161790925560188054821633908117909155601a8054938616939092169290921790556100999064010000000061015e810204565b600160a060020a038116151561013657604080517f08c379a000000000000000000000000000000000000000000000000000000000815260206004820152602760248201527f496d706c656d656e746174696f6e20616464726573732073686f756c64206e6f60448201527f7420626520307800000000000000000000000000000000000000000000000000606482015290519081900360840190fd5b601c8054600160a060020a031916600160a060020a0392909216919091179055506101f79050565b600160a060020a03811615156101d557604080517f08c379a000000000000000000000000000000000000000000000000000000000815260206004820152601860248201527f416464726573732073686f756c64206e6f742062652030780000000000000000604482015290519081900360640190fd5b601b8054600160a060020a031916600160a060020a0392909216919091179055565b6109c5806102066000396000f3006080604052600436106101955763ffffffff7c0100000000000000000000000000000000000000000000000000000000600035041663025313a2811461019f578063039af9eb146101d05780632ccc87271461021b5780632df413e2146102335780633197cbb61461025c5780634b385a4214610283578063521eb273146102985780635c60da1b146102ad5780635c975abb146102c257806363b20117146102d75780636c41027f146102ec5780636f7bc9be146103015780636faa22a51461034657806377de90391461035b57806378e979251461037c5780638784b1c2146103915780638ac5f55e146103b85780638d4e4083146103d9578063b2cca39d146103ee578063b84dfbd214610403578063b98035c114610418578063c45a015514610430578063c4d2c6bd14610445578063c513933814610460578063d143a37914610481578063d679677a1461049c578063d70afa96146104b1578063d72b11bd146104c6578063d7e64c00146104db578063ec47740f146104f0578063f1739cae14610505578063ff18ead314610526575b61019d61053b565b005b3480156101ab57600080fd5b506101b461054d565b60408051600160a060020a039092168252519081900360200190f35b3480156101dc57600080fd5b506101e860043561058a565b604080519687526020870195909552858501939093526060850191909152608084015260a0830152519081900360c00190f35b34801561022757600080fd5b506101b46004356105ce565b34801561023f57600080fd5b506102486105f6565b604080519115158252519081900360200190f35b34801561026857600080fd5b506102716105ff565b60408051918252519081900360200190f35b34801561028f57600080fd5b50610271610605565b3480156102a457600080fd5b506101b461060b565b3480156102b957600080fd5b506101b461061a565b3480156102ce57600080fd5b50610248610645565b3480156102e357600080fd5b50610271610666565b3480156102f857600080fd5b5061027161066c565b34801561030d57600080fd5b50610322600160a060020a0360043516610672565b6040805160ff94851681529290931660208301528183015290519081900360600190f35b34801561035257600080fd5b506101b4610698565b34801561036757600080fd5b50610271600160a060020a03600435166106a7565b34801561038857600080fd5b506102716106b9565b34801561039d57600080fd5b50610271600160a060020a036004351660ff602435166106bf565b3480156103c457600080fd5b50610248600160a060020a03600435166106dc565b3480156103e557600080fd5b506102486106f1565b3480156103fa57600080fd5b506102716106ff565b34801561040f57600080fd5b506101b4610705565b34801561042457600080fd5b506101b4600435610714565b34801561043c57600080fd5b506101b4610722565b34801561045157600080fd5b5061027160ff60043516610731565b34801561046c57600080fd5b50610271600160a060020a0360043516610743565b34801561048d57600080fd5b5061024860ff60043516610755565b3480156104a857600080fd5b5061027161076a565b3480156104bd57600080fd5b50610271610770565b3480156104d257600080fd5b506101b4610794565b3480156104e757600080fd5b506102716107a3565b3480156104fc57600080fd5b506102716107a9565b34801561051157600080fd5b5061019d600160a060020a03600435166107af565b34801561053257600080fd5b506102716108ab565b61054b6105466108b1565b6108c0565b565b60006105576108e4565b600160a060020a031633600160a060020a0316141561057f576105786108e4565b9050610587565b61058761053b565b90565b600f80548290811061059857fe5b60009182526020909120600790910201805460018201546002830154600384015460048501546006909501549395509193909286565b600b8054829081106105dc57fe5b600091825260209091200154600160a060020a0316905081565b60015460ff1681565b60135481565b600c5481565b601654600160a060020a031681565b60006106246108e4565b600160a060020a031633600160a060020a0316141561057f576105786108b1565b601a5474010000000000000000000000000000000000000000900460ff1681565b60175481565b600e5481565b6009602052600090815260409020805460019091015460ff808316926101009004169083565b601a54600160a060020a031681565b60066020526000908152604090205481565b60125481565b600860209081526000928352604080842090915290825290205481565b600a6020526000908152604090205460ff1681565b600154610100900460ff1681565b60145481565b601954600160a060020a031681565b60038054829081106105dc57fe5b601854600160a060020a031681565b60116020526000908152604090205481565b60076020526000908152604090205481565b60106020526000908152604090205460ff1681565b60045481565b7f4645455f41444d494e000000000000000000000000000000000000000000000081565b600254600160a060020a031681565b60155481565b600d5481565b6107b76108e4565b600160a060020a031633600160a060020a031614156108a057600160a060020a038116151561084757604080517f08c379a000000000000000000000000000000000000000000000000000000000815260206004820152601860248201527f416464726573732073686f756c64206e6f742062652030780000000000000000604482015290519081900360640190fd5b7f5a3e66efaa1e445ebd894728a69d6959842ea1e97bd79b892797106e270efcd96108706108e4565b60408051600160a060020a03928316815291841660208301528051918290030190a161089b816108f3565b6108a8565b6108a861053b565b50565b60055481565b601c54600160a060020a031690565b3660008037600080366000845af43d6000803e8080156108df573d6000f35b3d6000fd5b601b54600160a060020a031690565b600160a060020a038116151561096a57604080517f08c379a000000000000000000000000000000000000000000000000000000000815260206004820152601860248201527f416464726573732073686f756c64206e6f742062652030780000000000000000604482015290519081900360640190fd5b601b805473ffffffffffffffffffffffffffffffffffffffff1916600160a060020a03929092169190911790555600a165627a7a723058200f61c1423e601efbe240732e00dfc3f02ccb0b6cf82ab21d145bba987649a7460029a165627a7a7230582065ba572926c8ed4020d5c600f642dbfea85de9448ac7143ddeb96f5c419d3c5c0029497420616c6c6f777320626f7468206163637265646974656420616e64206e6f6e2d6163637265646974656420696e766573746f727320746f20636f6e7472696275746520696e746f207468652053544f2e204e6f6e2d6163637265646974656420696e766573746f72732077696c6c206265206361707065642061742061206d6178696d756d20696e766573746d656e74206c696d69742028617320612064656661756c74206f7220737065636966696320746f207468656972206a7572697364696374696f6e292e20546f6b656e732077696c6c20626520736f6c64206163636f7264696e6720746f2074696572732073657175656e7469616c6c792026206561636820746965722068617320697473206f776e20707269636520616e6420766f6c756d65206f6620746f6b656e7320746f2073656c6c2e2055706f6e2072656365697074206f662066756e647320284554482c20504f4c59206f7220444149292c20736563757269747920746f6b656e732077696c6c206175746f6d61746963616c6c79207472616e7366657220746f20696e766573746f72e28099732077616c6c65742061646472657373",
  "source": "pragma solidity ^0.4.24;\n\nimport \"../../interfaces/IBoot.sol\";\nimport \"../../proxy/USDTieredSTOProxy.sol\";\nimport \"../ModuleFactory.sol\";\nimport \"../../libraries/Util.sol\";\n\n/**\n * @title Factory for deploying CappedSTO module\n */\ncontract USDTieredSTOFactory is ModuleFactory {\n\n    address public logicContract;\n\n    /**\n     * @notice Constructor\n     * @param _polyAddress Address of the polytoken\n     */\n    constructor (address _polyAddress, uint256 _setupCost, uint256 _usageCost, uint256 _subscriptionCost, address _logicContract) public\n    ModuleFactory(_polyAddress, _setupCost, _usageCost, _subscriptionCost)\n    {\n        require(_logicContract != address(0), \"0x address is not allowed\");\n        logicContract = _logicContract;\n        version = \"2.1.0\";\n        name = \"USDTieredSTO\";\n        title = \"USD Tiered STO\";\n        /*solium-disable-next-line max-len*/\n        description = \"It allows both accredited and non-accredited investors to contribute into the STO. Non-accredited investors will be capped at a maximum investment limit (as a default or specific to their jurisdiction). Tokens will be sold according to tiers sequentially & each tier has its own price and volume of tokens to sell. Upon receipt of funds (ETH, POLY or DAI), security tokens will automatically transfer to investors wallet address\";\n        compatibleSTVersionRange[\"lowerBound\"] = VersionUtils.pack(uint8(0), uint8(0), uint8(0));\n        compatibleSTVersionRange[\"upperBound\"] = VersionUtils.pack(uint8(0), uint8(0), uint8(0));\n    }\n\n     /**\n     * @notice Used to launch the Module with the help of factory\n     * @return address Contract address of the Module\n     */\n    function deploy(bytes _data) external returns(address) {\n        if(setupCost > 0)\n            require(polyToken.transferFrom(msg.sender, owner, setupCost), \"Sufficent Allowance is not provided\");\n        //Check valid bytes - can only call module init function\n        address usdTieredSTO = new USDTieredSTOProxy(msg.sender, address(polyToken), logicContract);\n        //Checks that _data is valid (not calling anything it shouldn't)\n        require(Util.getSig(_data) == IBoot(usdTieredSTO).getInitFunction(), \"Invalid data\");\n        /*solium-disable-next-line security/no-low-level-calls*/\n        require(usdTieredSTO.call(_data), \"Unsuccessfull call\");\n        /*solium-disable-next-line security/no-block-members*/\n        emit GenerateModuleFromFactory(usdTieredSTO, getName(), address(this), msg.sender, setupCost, now);\n        return usdTieredSTO;\n    }\n\n    /**\n     * @notice Type of the Module factory\n     */\n    function getTypes() external view returns(uint8[]) {\n        uint8[] memory res = new uint8[](1);\n        res[0] = 3;\n        return res;\n    }\n\n    /**\n     * @notice Returns the instructions associated with the module\n     */\n    function getInstructions() external view returns(string) {\n        return \"Initialises a USD tiered STO.\";\n    }\n\n    /**\n     * @notice Get the tags related to the module factory\n     */\n    function getTags() external view returns(bytes32[]) {\n        bytes32[] memory availableTags = new bytes32[](4);\n        availableTags[0] = \"USD\";\n        availableTags[1] = \"Tiered\";\n        availableTags[2] = \"POLY\";\n        availableTags[3] = \"ETH\";\n        return availableTags;\n    }\n\n}\n",
  "sourcePath": "/Users/jere/Code/polymath-apps/packages/new-polymath-scripts/src/generateLocalBlockchain/contracts/modules/STO/USDTieredSTOFactory.sol",
  "compiler": {
    "name": "solc",
    "version": "0.4.24+commit.e67f0147.Emscripten.clang"
  },
  "schemaVersion": "2.0.1",
  "updatedAt": "2019-01-29T19:36:37.683Z"
}