{
  "contractName": "USDTieredSTOFactory",
  "abi": [
    {
      "constant": true,
      "inputs": [],
      "name": "monthlySubscriptionCost",
      "outputs": [
        {
          "name": "",
          "type": "uint256"
        }
      ],
      "payable": false,
      "stateMutability": "view",
      "type": "function"
    },
    {
      "constant": true,
      "inputs": [],
      "name": "name",
      "outputs": [
        {
          "name": "",
          "type": "bytes32"
        }
      ],
      "payable": false,
      "stateMutability": "view",
      "type": "function"
    },
    {
      "constant": true,
      "inputs": [],
      "name": "getName",
      "outputs": [
        {
          "name": "",
          "type": "bytes32"
        }
      ],
      "payable": false,
      "stateMutability": "view",
      "type": "function"
    },
    {
      "constant": false,
      "inputs": [
        {
          "name": "_newTitle",
          "type": "string"
        }
      ],
      "name": "changeTitle",
      "outputs": [],
      "payable": false,
      "stateMutability": "nonpayable",
      "type": "function"
    },
    {
      "constant": false,
      "inputs": [
        {
          "name": "_newSubscriptionCost",
          "type": "uint256"
        }
      ],
      "name": "changeFactorySubscriptionFee",
      "outputs": [],
      "payable": false,
      "stateMutability": "nonpayable",
      "type": "function"
    },
    {
      "constant": true,
      "inputs": [],
      "name": "title",
      "outputs": [
        {
          "name": "",
          "type": "string"
        }
      ],
      "payable": false,
      "stateMutability": "view",
      "type": "function"
    },
    {
      "constant": true,
      "inputs": [],
      "name": "version",
      "outputs": [
        {
          "name": "",
          "type": "string"
        }
      ],
      "payable": false,
      "stateMutability": "view",
      "type": "function"
    },
    {
      "constant": false,
      "inputs": [
        {
          "name": "_newSetupCost",
          "type": "uint256"
        }
      ],
      "name": "changeFactorySetupFee",
      "outputs": [],
      "payable": false,
      "stateMutability": "nonpayable",
      "type": "function"
    },
    {
      "constant": false,
      "inputs": [
        {
          "name": "_newVersion",
          "type": "string"
        }
      ],
      "name": "changeVersion",
      "outputs": [],
      "payable": false,
      "stateMutability": "nonpayable",
      "type": "function"
    },
    {
      "constant": true,
      "inputs": [],
      "name": "polyToken",
      "outputs": [
        {
          "name": "",
          "type": "address"
        }
      ],
      "payable": false,
      "stateMutability": "view",
      "type": "function"
    },
    {
      "constant": false,
      "inputs": [],
      "name": "renounceOwnership",
      "outputs": [],
      "payable": false,
      "stateMutability": "nonpayable",
      "type": "function"
    },
    {
      "constant": true,
      "inputs": [],
      "name": "description",
      "outputs": [
        {
          "name": "",
          "type": "string"
        }
      ],
      "payable": false,
      "stateMutability": "view",
      "type": "function"
    },
    {
      "constant": true,
      "inputs": [],
      "name": "setupCost",
      "outputs": [
        {
          "name": "",
          "type": "uint256"
        }
      ],
      "payable": false,
      "stateMutability": "view",
      "type": "function"
    },
    {
      "constant": true,
      "inputs": [],
      "name": "getLowerSTVersionBounds",
      "outputs": [
        {
          "name": "",
          "type": "uint8[]"
        }
      ],
      "payable": false,
      "stateMutability": "view",
      "type": "function"
    },
    {
      "constant": false,
      "inputs": [
        {
          "name": "_newName",
          "type": "bytes32"
        }
      ],
      "name": "changeName",
      "outputs": [],
      "payable": false,
      "stateMutability": "nonpayable",
      "type": "function"
    },
    {
      "constant": true,
      "inputs": [],
      "name": "owner",
      "outputs": [
        {
          "name": "",
          "type": "address"
        }
      ],
      "payable": false,
      "stateMutability": "view",
      "type": "function"
    },
    {
      "constant": true,
      "inputs": [],
      "name": "getSetupCost",
      "outputs": [
        {
          "name": "",
          "type": "uint256"
        }
      ],
      "payable": false,
      "stateMutability": "view",
      "type": "function"
    },
    {
      "constant": false,
      "inputs": [
        {
          "name": "_newUsageCost",
          "type": "uint256"
        }
      ],
      "name": "changeFactoryUsageFee",
      "outputs": [],
      "payable": false,
      "stateMutability": "nonpayable",
      "type": "function"
    },
    {
      "constant": true,
      "inputs": [],
      "name": "usageCost",
      "outputs": [
        {
          "name": "",
          "type": "uint256"
        }
      ],
      "payable": false,
      "stateMutability": "view",
      "type": "function"
    },
    {
      "constant": true,
      "inputs": [],
      "name": "USDTieredSTOProxyAddress",
      "outputs": [
        {
          "name": "",
          "type": "address"
        }
      ],
      "payable": false,
      "stateMutability": "view",
      "type": "function"
    },
    {
      "constant": false,
      "inputs": [
        {
          "name": "_newDesc",
          "type": "string"
        }
      ],
      "name": "changeDescription",
      "outputs": [],
      "payable": false,
      "stateMutability": "nonpayable",
      "type": "function"
    },
    {
      "constant": false,
      "inputs": [
        {
          "name": "_newOwner",
          "type": "address"
        }
      ],
      "name": "transferOwnership",
      "outputs": [],
      "payable": false,
      "stateMutability": "nonpayable",
      "type": "function"
    },
    {
      "constant": true,
      "inputs": [],
      "name": "getUpperSTVersionBounds",
      "outputs": [
        {
          "name": "",
          "type": "uint8[]"
        }
      ],
      "payable": false,
      "stateMutability": "view",
      "type": "function"
    },
    {
      "constant": false,
      "inputs": [
        {
          "name": "_boundType",
          "type": "string"
        },
        {
          "name": "_newVersion",
          "type": "uint8[]"
        }
      ],
      "name": "changeSTVersionBounds",
      "outputs": [],
      "payable": false,
      "stateMutability": "nonpayable",
      "type": "function"
    },
    {
      "inputs": [
        {
          "name": "_polyAddress",
          "type": "address"
        },
        {
          "name": "_setupCost",
          "type": "uint256"
        },
        {
          "name": "_usageCost",
          "type": "uint256"
        },
        {
          "name": "_subscriptionCost",
          "type": "uint256"
        },
        {
          "name": "_proxyFactoryAddress",
          "type": "address"
        }
      ],
      "payable": false,
      "stateMutability": "nonpayable",
      "type": "constructor"
    },
    {
      "anonymous": false,
      "inputs": [
        {
          "indexed": false,
          "name": "_oldSetupCost",
          "type": "uint256"
        },
        {
          "indexed": false,
          "name": "_newSetupCost",
          "type": "uint256"
        },
        {
          "indexed": false,
          "name": "_moduleFactory",
          "type": "address"
        }
      ],
      "name": "ChangeFactorySetupFee",
      "type": "event"
    },
    {
      "anonymous": false,
      "inputs": [
        {
          "indexed": false,
          "name": "_oldUsageCost",
          "type": "uint256"
        },
        {
          "indexed": false,
          "name": "_newUsageCost",
          "type": "uint256"
        },
        {
          "indexed": false,
          "name": "_moduleFactory",
          "type": "address"
        }
      ],
      "name": "ChangeFactoryUsageFee",
      "type": "event"
    },
    {
      "anonymous": false,
      "inputs": [
        {
          "indexed": false,
          "name": "_oldSubscriptionCost",
          "type": "uint256"
        },
        {
          "indexed": false,
          "name": "_newMonthlySubscriptionCost",
          "type": "uint256"
        },
        {
          "indexed": false,
          "name": "_moduleFactory",
          "type": "address"
        }
      ],
      "name": "ChangeFactorySubscriptionFee",
      "type": "event"
    },
    {
      "anonymous": false,
      "inputs": [
        {
          "indexed": false,
          "name": "_module",
          "type": "address"
        },
        {
          "indexed": true,
          "name": "_moduleName",
          "type": "bytes32"
        },
        {
          "indexed": true,
          "name": "_moduleFactory",
          "type": "address"
        },
        {
          "indexed": false,
          "name": "_creator",
          "type": "address"
        },
        {
          "indexed": false,
          "name": "_timestamp",
          "type": "uint256"
        }
      ],
      "name": "GenerateModuleFromFactory",
      "type": "event"
    },
    {
      "anonymous": false,
      "inputs": [
        {
          "indexed": false,
          "name": "_boundType",
          "type": "string"
        },
        {
          "indexed": false,
          "name": "_major",
          "type": "uint8"
        },
        {
          "indexed": false,
          "name": "_minor",
          "type": "uint8"
        },
        {
          "indexed": false,
          "name": "_patch",
          "type": "uint8"
        }
      ],
      "name": "ChangeSTVersionBound",
      "type": "event"
    },
    {
      "anonymous": false,
      "inputs": [
        {
          "indexed": true,
          "name": "previousOwner",
          "type": "address"
        }
      ],
      "name": "OwnershipRenounced",
      "type": "event"
    },
    {
      "anonymous": false,
      "inputs": [
        {
          "indexed": true,
          "name": "previousOwner",
          "type": "address"
        },
        {
          "indexed": true,
          "name": "newOwner",
          "type": "address"
        }
      ],
      "name": "OwnershipTransferred",
      "type": "event"
    },
    {
      "anonymous": false,
      "inputs": [
        {
          "indexed": false,
          "name": "_module",
          "type": "address"
        },
        {
          "indexed": true,
          "name": "_moduleName",
          "type": "bytes32"
        },
        {
          "indexed": true,
          "name": "_moduleFactory",
          "type": "address"
        },
        {
          "indexed": false,
          "name": "_creator",
          "type": "address"
        },
        {
          "indexed": false,
          "name": "_setupCost",
          "type": "uint256"
        },
        {
          "indexed": false,
          "name": "_timestamp",
          "type": "uint256"
        }
      ],
      "name": "GenerateModuleFromFactory",
      "type": "event"
    },
    {
      "constant": false,
      "inputs": [
        {
          "name": "_data",
          "type": "bytes"
        }
      ],
      "name": "deploy",
      "outputs": [
        {
          "name": "",
          "type": "address"
        }
      ],
      "payable": false,
      "stateMutability": "nonpayable",
      "type": "function"
    },
    {
      "constant": true,
      "inputs": [],
      "name": "getTypes",
      "outputs": [
        {
          "name": "",
          "type": "uint8[]"
        }
      ],
      "payable": false,
      "stateMutability": "view",
      "type": "function"
    },
    {
      "constant": true,
      "inputs": [],
      "name": "getInstructions",
      "outputs": [
        {
          "name": "",
          "type": "string"
        }
      ],
      "payable": false,
      "stateMutability": "view",
      "type": "function"
    },
    {
      "constant": true,
      "inputs": [],
      "name": "getTags",
      "outputs": [
        {
          "name": "",
          "type": "bytes32[]"
        }
      ],
      "payable": false,
      "stateMutability": "view",
      "type": "function"
    }
  ],
  "bytecode": "0x60806040523480156200001157600080fd5b5060405160a080620020af8339810160409081528151602083015191830151606084015160809094015160008054600160a060020a0319908116331790915560018054600160a060020a03808716919093161790556004859055600283905560038690559294919281161515620000e957604080517f08c379a000000000000000000000000000000000000000000000000000000000815260206004820152601960248201527f30782061646472657373206973206e6f7420616c6c6f77656400000000000000604482015290519081900360640190fd5b600a8054600160a060020a031916600160a060020a0383161790556040805180820190915260058082527f312e302e3000000000000000000000000000000000000000000000000000000060209092019182526200014a91600691620002ec565b507f55534454696572656453544f000000000000000000000000000000000000000060075560408051808201909152600e8082527f555344205469657265642053544f0000000000000000000000000000000000006020909201918252620001b591600891620002ec565b506101e0604051908101604052806101af815260200162001f006101af91398051620001ea91600591602090910190620002ec565b50620002076000808064010000000062001a8a620002d182021704565b604080517f6c6f776572426f756e640000000000000000000000000000000000000000000081526009600a820152905190819003602a019020805462ffffff9290921662ffffff19909216919091179055620002746000808064010000000062001a8a620002d182021704565b604080517f7570706572426f756e640000000000000000000000000000000000000000000081526009600a820152905190819003602a019020805462ffffff9290921662ffffff1990921691909117905550620003919350505050565b60ff9081169181166101000292166201000002919091171790565b828054600181600116156101000203166002900490600052602060002090601f016020900481019282601f106200032f57805160ff19168380011785556200035f565b828001600101855582156200035f579182015b828111156200035f57825182559160200191906001019062000342565b506200036d92915062000371565b5090565b6200038e91905b808211156200036d576000815560010162000378565b90565b611b5f80620003a16000396000f30060806040526004361061014f5763ffffffff60e060020a600035041662774360811461015457806306184a251461019057806306fdde03146101b757806317d7de7c146101cc5780632dbe07c7146101e15780633ae192bd1461023c5780634a79d50c1461025457806354fd4d50146102de57806358a191c3146102f357806364bb432c1461030b5780636faa22a514610364578063715018a6146103795780637284e4161461038e5780637e363ffa146103a35780638677768f146103b8578063898855ed1461041d5780638da5cb5b14610435578063995d9ab71461044a578063a5e9d7c91461045f578063aac67b0514610474578063b4579d601461048c578063d54c4726146104a1578063d6a40076146104b6578063e0d54970146104cb578063e6120413146104e0578063f2fde38b14610539578063f78629991461055a578063fb9724561461056f575b600080fd5b34801561016057600080fd5b50610174600480356024810191013561059b565b60408051600160a060020a039092168252519081900360200190f35b34801561019c57600080fd5b506101a5610a22565b60408051918252519081900360200190f35b3480156101c357600080fd5b506101a5610a28565b3480156101d857600080fd5b506101a5610a2e565b3480156101ed57600080fd5b506040805160206004803580820135601f810184900484028501840190955284845261023a943694929360249392840191908190840183828082843750949750610a359650505050505050565b005b34801561024857600080fd5b5061023a600435610abc565b34801561026057600080fd5b50610269610b19565b6040805160208082528351818301528351919283929083019185019080838360005b838110156102a357818101518382015260200161028b565b50505050905090810190601f1680156102d05780820380516001836020036101000a031916815260200191505b509250505060405180910390f35b3480156102ea57600080fd5b50610269610ba7565b3480156102ff57600080fd5b5061023a600435610c02565b34801561031757600080fd5b506040805160206004803580820135601f810184900484028501840190955284845261023a943694929360249392840191908190840183828082843750949750610c5f9650505050505050565b34801561037057600080fd5b50610174610ce2565b34801561038557600080fd5b5061023a610cf1565b34801561039a57600080fd5b50610269610d5d565b3480156103af57600080fd5b506101a5610db8565b3480156103c457600080fd5b506103cd610dbe565b60408051602080825283518183015283519192839290830191858101910280838360005b838110156104095781810151838201526020016103f1565b505050509050019250505060405180910390f35b34801561042957600080fd5b5061023a600435610e0e565b34801561044157600080fd5b50610174610e81565b34801561045657600080fd5b506103cd610e90565b34801561046b57600080fd5b506101a5610fa9565b34801561048057600080fd5b5061023a600435610faf565b34801561049857600080fd5b506103cd61100c565b3480156104ad57600080fd5b506101a5611058565b3480156104c257600080fd5b5061017461105e565b3480156104d757600080fd5b5061026961106d565b3480156104ec57600080fd5b506040805160206004803580820135601f810184900484028501840190955284845261023a9436949293602493928401919081908401838280828437509497506110a49650505050505050565b34801561054557600080fd5b5061023a600160a060020a0360043516611127565b34801561056657600080fd5b506103cd61114a565b34801561057b57600080fd5b5061023a6024600480358281019290820135918135918201910135611195565b600080600060045411156106d3576001546000805460048054604080517f23b872dd0000000000000000000000000000000000000000000000000000000081523393810193909352600160a060020a03938416602484015260448301919091525191909316926323b872dd9260648083019360209390929083900390910190829087803b15801561062b57600080fd5b505af115801561063f573d6000803e3d6000fd5b505050506040513d602081101561065557600080fd5b505115156106d3576040805160e560020a62461bcd02815260206004820152602360248201527f537566666963656e7420416c6c6f77616e6365206973206e6f742070726f766960448201527f6465640000000000000000000000000000000000000000000000000000000000606482015290519081900360840190fd5b600a54600160a060020a03161515610735576040805160e560020a62461bcd02815260206004820181905260248201527f50726f787920636f6e74726163742073686f756c64206265207072652d736574604482015290519081900360640190fd5b600a54600154604080517fb9f6f066000000000000000000000000000000000000000000000000000000008152336004820152600160a060020a0392831660248201523060448201529051919092169163b9f6f0669160648083019260209291908290030181600087803b1580156107ac57600080fd5b505af11580156107c0573d6000803e3d6000fd5b505050506040513d60208110156107d657600080fd5b5051600a54604080517f6d91f826000000000000000000000000000000000000000000000000000000008152600160a060020a0380851660048301529151939450911691636d91f826916024808201926020929091908290030181600087803b15801561084257600080fd5b505af1158015610856573d6000803e3d6000fd5b505050506040513d602081101561086c57600080fd5b5051604080516020601f87018190048102820181019092528581527bffffffffffffffffffffffffffffffffffffffffffffffffffffffff19909216916108c7918790879081908401838280828437506116d4945050505050565b7bffffffffffffffffffffffffffffffffffffffffffffffffffffffff19161461093b576040805160e560020a62461bcd02815260206004820152600c60248201527f496e76616c696420646174610000000000000000000000000000000000000000604482015290519081900360640190fd5b80600160a060020a03168484604051808383808284378201915050925050506000604051808303816000865af191505015156109c1576040805160e560020a62461bcd02815260206004820152601260248201527f556e7375636365737366756c6c2063616c6c0000000000000000000000000000604482015290519081900360640190fd5b306109ca610a2e565b60045460408051600160a060020a038616815233602082015280820192909252426060830152517fb68b4973fbce93f056103272c1f3f53b607527138d7e323b7b94f7ac169ebf779181900360800190a39392505050565b60035481565b60075481565b6007545b90565b600054600160a060020a03163314610a4c57600080fd5b8051600010610aa5576040805160e560020a62461bcd02815260206004820152600d60248201527f496e76616c6964207469746c6500000000000000000000000000000000000000604482015290519081900360640190fd5b8051610ab8906008906020840190611aa5565b5050565b600054600160a060020a03163314610ad357600080fd5b60035460408051918252602082018390523082820152517fb14468ff50b0c356f5373be0ef0791de71449aaf8ac5ca096049b7ac79d0b1139181900360600190a1600355565b6008805460408051602060026001851615610100026000190190941693909304601f81018490048402820184019092528181529291830182828015610b9f5780601f10610b7457610100808354040283529160200191610b9f565b820191906000526020600020905b815481529060010190602001808311610b8257829003601f168201915b505050505081565b6006805460408051602060026001851615610100026000190190941693909304601f81018490048402820184019092528181529291830182828015610b9f5780601f10610b7457610100808354040283529160200191610b9f565b600054600160a060020a03163314610c1957600080fd5b60045460408051918252602082018390523082820152517f9672983540fb671cd7c0c946255b4dc769a3e557a25ef91ca7c98995c8d694b69181900360600190a1600455565b600054600160a060020a03163314610c7657600080fd5b8051600010610ccf576040805160e560020a62461bcd02815260206004820152600f60248201527f496e76616c69642076657273696f6e0000000000000000000000000000000000604482015290519081900360640190fd5b8051610ab8906006906020840190611aa5565b600154600160a060020a031681565b600054600160a060020a03163314610d0857600080fd5b60008054604051600160a060020a03909116917ff8df31144d9c2f0f6b59d69b8b98abd5459d07f2742c4df920b25aae33c6482091a26000805473ffffffffffffffffffffffffffffffffffffffff19169055565b6005805460408051602060026001851615610100026000190190941693909304601f81018490048402820184019092528181529291830182828015610b9f5780601f10610b7457610100808354040283529160200191610b9f565b60045481565b604080517f6c6f776572426f756e640000000000000000000000000000000000000000000081526009600a820152905190819003602a01902054606090610e099062ffffff16611755565b905090565b600054600160a060020a03163314610e2557600080fd5b801515610e7c576040805160e560020a62461bcd02815260206004820152600c60248201527f496e76616c6964206e616d650000000000000000000000000000000000000000604482015290519081900360640190fd5b600755565b600054600160a060020a031681565b60408051600480825260a08201909252606091829190602082016080803883390190505090507f5553440000000000000000000000000000000000000000000000000000000000816000815181101515610ee657fe5b6020908102909101015280517f54696572656400000000000000000000000000000000000000000000000000009082906001908110610f2157fe5b6020908102909101015280517f504f4c59000000000000000000000000000000000000000000000000000000009082906002908110610f5c57fe5b6020908102909101015280517f45544800000000000000000000000000000000000000000000000000000000009082906003908110610f9757fe5b602090810290910101529050805b5090565b60045490565b600054600160a060020a03163314610fc657600080fd5b60025460408051918252602082018390523082820152517fc39ec4e85127e00b5b203f9c40814616d5977d8de85e6e0717e5ca4b0896206c9181900360600190a1600255565b60408051600180825281830190925260609182919060208083019080388339019050509050600381600081518110151561104257fe5b60ff909216602092830290910190910152905090565b60025481565b600a54600160a060020a031681565b60408051808201909152601d81527f496e697469616c69736573206120555344207469657265642053544f2e000000602082015290565b600054600160a060020a031633146110bb57600080fd5b8051600010611114576040805160e560020a62461bcd02815260206004820152601360248201527f496e76616c6964206465736372697074696f6e00000000000000000000000000604482015290519081900360640190fd5b8051610ab8906005906020840190611aa5565b600054600160a060020a0316331461113e57600080fd5b611147816117fa565b50565b604080517f7570706572426f756e640000000000000000000000000000000000000000000081526009600a820152905190819003602a01902054606090610e099062ffffff16611755565b600054606090600160a060020a031633146111af57600080fd5b60405160200180807f6c6f776572426f756e6400000000000000000000000000000000000000000000815250600a0190506040516020818303038152906040526040518082805190602001908083835b6020831061121e5780518252601f1990920191602091820191016111ff565b51815160209384036101000a600019018019909216911617905260405191909301819003812094508993508892019050808383808284378201915050925050506040516020818303038152906040526040518082805190602001908083835b6020831061129c5780518252601f19909201916020918201910161127d565b6001836020036101000a03801982511681845116808217855250505050505090500191505060405180910390206000191614806113f4575060405160200180807f7570706572426f756e6400000000000000000000000000000000000000000000815250600a0190506040516020818303038152906040526040518082805190602001908083835b602083106113435780518252601f199092019160209182019101611324565b51815160209384036101000a600019018019909216911617905260405191909301819003812094508993508892019050808383808284378201915050925050506040516020818303038152906040526040518082805190602001908083835b602083106113c15780518252601f1990920191602091820191016113a2565b6001836020036101000a038019825116818451168082178552505050505050905001915050604051809103902060001916145b151561144a576040805160e560020a62461bcd02815260206004820152601a60248201527f4d75737420626520612076616c696420626f756e642074797065000000000000604482015290519081900360640190fd5b6003821461145757600080fd5b600062ffffff1660098686604051808383808284379091019485525050604051928390036020019092205462ffffff1692909214915061157d9050576114c860098686604051808383808284379091019485525050604051928390036020019092205462ffffff1691506117559050565b90506115018184848080602002602001604051908101604052809392919081815260200183836020028082843750611877945050505050565b151561157d576040805160e560020a62461bcd02815260206004820152602260248201527f4661696c65642062656361757365206f6620696e2d76616c696420766572736960448201527f6f6e000000000000000000000000000000000000000000000000000000000000606482015290519081900360840190fd5b6115ce8383600081811061158d57fe5b9050602002013560ff168484600181811015156115a657fe5b9050602002013560ff168585600281811015156115bf57fe5b9050602002013560ff16611a8a565b6009868660405180838380828437909101948552505060405192839003602001909220805462ffffff9490941662ffffff1990941693909317909255507f5b67e16edaf7fc70c8d065ea6e70b97ed944d98fe593b04d682216615a3b04db905085858585600081811061163d57fe5b9050602002013560ff1686866001818110151561165657fe5b9050602002013560ff1687876002818110151561166f57fe5b9050602002013560ff1660405180806020018560ff1660ff1681526020018460ff1660ff1681526020018360ff1660ff168152602001828103825287878281815260200192508082843760405192018290039850909650505050505050a15050505050565b600080600060048451106116e95760046116ec565b83515b9150600090505b8181101561174e5780600183030360080260020a848281518110151561171557fe5b90602001015160f860020a900460f860020a0260f860020a9004028360e060020a90040160e060020a02925080806001019150506116f3565b5050919050565b6040805160038082526080820190925260609182919060208201838038833950508151919250506201000062ffffff851604908290600090811061179557fe5b60ff909216602092830290910190910152805161010062ffffff85160490829060019081106117c057fe5b60ff90921660209283029091019091015280518390829060029081106117e257fe5b60ff9092166020928302909101909101529050919050565b600160a060020a038116151561180f57600080fd5b60008054604051600160a060020a03808516939216917f8be0079c531659141344cd1fd0a4f28419497f9722a3daafe3b4186f6b6457e091a36000805473ffffffffffffffffffffffffffffffffffffffff1916600160a060020a0392909216919091179055565b6000606060008085516040519080825280602002602001820160405280156118a9578160200160208202803883390190505b50925060009150600090505b85518160ff16101561195557848160ff168151811015156118d257fe5b9060200190602002015160ff16868260ff168151811015156118f057fe5b9060200190602002015160ff16101561192a576001838260ff1681518110151561191657fe5b91151560209283029091019091015261194d565b6000838260ff1681518110151561193d57fe5b9115156020928302909101909101525b6001016118b5565b5060005b85518160ff161015611a705760ff811615156119f257848160ff1681518110151561198057fe5b9060200190602002015160ff16868260ff1681518110151561199e57fe5b6020908102909101015160ff16116119e4578260008151811015156119bf57fe5b90602001906020020151156119d957816003019150611a70565b6001909101906119ed565b60009350611a81565b611a68565b826001820360ff16815181101515611a0657fe5b9060200190602002015115611a2057600190910190611a68565b848160ff16815181101515611a3157fe5b9060200190602002015160ff16868260ff16815181101515611a4f57fe5b6020908102909101015160ff16116119e4576001909101905b600101611959565b85518260ff161415611a8157600193505b50505092915050565b60ff9081169181166101000292166201000002919091171790565b828054600181600116156101000203166002900490600052602060002090601f016020900481019282601f10611ae657805160ff1916838001178555611b13565b82800160010185558215611b13579182015b82811115611b13578251825591602001919060010190611af8565b50610fa592610a329250905b80821115610fa55760008155600101611b1f5600a165627a7a72305820e3cb24476d16b68c68e93dd04508aa3a9d7f28b996b3245ec827fb6befb2c4550029497420616c6c6f777320626f7468206163637265646974656420616e64206e6f6e2d6163637265646974656420696e766573746f727320746f20636f6e7472696275746520696e746f207468652053544f2e204e6f6e2d6163637265646974656420696e766573746f72732077696c6c206265206361707065642061742061206d6178696d756d20696e766573746d656e74206c696d69742028617320612064656661756c74206f7220737065636966696320746f207468656972206a7572697364696374696f6e292e20546f6b656e732077696c6c20626520736f6c64206163636f7264696e6720746f2074696572732073657175656e7469616c6c792026206561636820746965722068617320697473206f776e20707269636520616e6420766f6c756d65206f6620746f6b656e7320746f2073656c6c2e2055706f6e2072656365697074206f662066756e647320284554482c20504f4c59206f7220444149292c20736563757269747920746f6b656e732077696c6c206175746f6d61746963616c6c79207472616e7366657220746f20696e766573746f72e28099732077616c6c65742061646472657373",
  "source": "pragma solidity ^0.4.24;\n\nimport \"../../interfaces/IUSDTieredSTOProxy.sol\";\nimport \"../ModuleFactory.sol\";\nimport \"../../libraries/Util.sol\";\n\n/**\n * @title Factory for deploying CappedSTO module\n */\ncontract USDTieredSTOFactory is ModuleFactory {\n\n    address public USDTieredSTOProxyAddress;\n\n    /**\n     * @notice Constructor\n     * @param _polyAddress Address of the polytoken\n     */\n    constructor (address _polyAddress, uint256 _setupCost, uint256 _usageCost, uint256 _subscriptionCost, address _proxyFactoryAddress) public\n    ModuleFactory(_polyAddress, _setupCost, _usageCost, _subscriptionCost)\n    {\n        require(_proxyFactoryAddress != address(0), \"0x address is not allowed\");\n        USDTieredSTOProxyAddress = _proxyFactoryAddress;\n        version = \"1.0.0\";\n        name = \"USDTieredSTO\";\n        title = \"USD Tiered STO\";\n        /*solium-disable-next-line max-len*/\n        description = \"It allows both accredited and non-accredited investors to contribute into the STO. Non-accredited investors will be capped at a maximum investment limit (as a default or specific to their jurisdiction). Tokens will be sold according to tiers sequentially & each tier has its own price and volume of tokens to sell. Upon receipt of funds (ETH, POLY or DAI), security tokens will automatically transfer to investors wallet address\";\n        compatibleSTVersionRange[\"lowerBound\"] = VersionUtils.pack(uint8(0), uint8(0), uint8(0));\n        compatibleSTVersionRange[\"upperBound\"] = VersionUtils.pack(uint8(0), uint8(0), uint8(0));\n    }\n\n     /**\n     * @notice Used to launch the Module with the help of factory\n     * @return address Contract address of the Module\n     */\n    function deploy(bytes _data) external returns(address) {\n        if(setupCost > 0)\n            require(polyToken.transferFrom(msg.sender, owner, setupCost), \"Sufficent Allowance is not provided\");\n        require(USDTieredSTOProxyAddress != address(0), \"Proxy contract should be pre-set\");\n        //Check valid bytes - can only call module init function\n        address usdTieredSTO = IUSDTieredSTOProxy(USDTieredSTOProxyAddress).deploySTO(msg.sender, address(polyToken), address(this));\n        //Checks that _data is valid (not calling anything it shouldn't)\n        require(Util.getSig(_data) == IUSDTieredSTOProxy(USDTieredSTOProxyAddress).getInitFunction(usdTieredSTO), \"Invalid data\");\n        /*solium-disable-next-line security/no-low-level-calls*/\n        require(address(usdTieredSTO).call(_data), \"Unsuccessfull call\");\n        /*solium-disable-next-line security/no-block-members*/\n        emit GenerateModuleFromFactory(usdTieredSTO, getName(), address(this), msg.sender, setupCost, now);\n        return address(usdTieredSTO);\n    }\n\n    /**\n     * @notice Type of the Module factory\n     */\n    function getTypes() external view returns(uint8[]) {\n        uint8[] memory res = new uint8[](1);\n        res[0] = 3;\n        return res;\n    }\n\n    /**\n     * @notice Returns the instructions associated with the module\n     */\n    function getInstructions() external view returns(string) {\n        return \"Initialises a USD tiered STO.\";\n    }\n\n    /**\n     * @notice Get the tags related to the module factory\n     */\n    function getTags() external view returns(bytes32[]) {\n        bytes32[] memory availableTags = new bytes32[](4);\n        availableTags[0] = \"USD\";\n        availableTags[1] = \"Tiered\";\n        availableTags[2] = \"POLY\";\n        availableTags[3] = \"ETH\";\n        return availableTags;\n    }\n\n}\n",
  "sourcePath": "/Users/jere/Code/polymath-apps/packages/new-polymath-scripts/src/generateLocalBlockchain/contracts/modules/STO/USDTieredSTOFactory.sol",
  "compiler": {
    "name": "solc",
    "version": "0.4.24+commit.e67f0147.Emscripten.clang"
  },
  "schemaVersion": "2.0.1",
  "updatedAt": "2019-02-01T18:23:53.762Z"
}