{
  "contractName": "USDTieredSTOProxy",
  "abi": [
    {
      "constant": false,
      "inputs": [],
      "name": "proxyOwner",
      "outputs": [
        {
          "name": "",
          "type": "address"
        }
      ],
      "payable": false,
      "stateMutability": "nonpayable",
      "type": "function"
    },
    {
      "constant": true,
      "inputs": [
        {
          "name": "",
          "type": "uint256"
        }
      ],
      "name": "tiers",
      "outputs": [
        {
          "name": "rate",
          "type": "uint256"
        },
        {
          "name": "rateDiscountPoly",
          "type": "uint256"
        },
        {
          "name": "tokenTotal",
          "type": "uint256"
        },
        {
          "name": "tokensDiscountPoly",
          "type": "uint256"
        },
        {
          "name": "mintedTotal",
          "type": "uint256"
        },
        {
          "name": "mintedDiscountPoly",
          "type": "uint256"
        }
      ],
      "payable": false,
      "stateMutability": "view",
      "type": "function"
    },
    {
      "constant": true,
      "inputs": [
        {
          "name": "",
          "type": "uint256"
        }
      ],
      "name": "investorsList",
      "outputs": [
        {
          "name": "",
          "type": "address"
        }
      ],
      "payable": false,
      "stateMutability": "view",
      "type": "function"
    },
    {
      "constant": true,
      "inputs": [],
      "name": "allowBeneficialInvestments",
      "outputs": [
        {
          "name": "",
          "type": "bool"
        }
      ],
      "payable": false,
      "stateMutability": "view",
      "type": "function"
    },
    {
      "constant": true,
      "inputs": [],
      "name": "endTime",
      "outputs": [
        {
          "name": "",
          "type": "uint256"
        }
      ],
      "payable": false,
      "stateMutability": "view",
      "type": "function"
    },
    {
      "constant": true,
      "inputs": [],
      "name": "nonAccreditedLimitUSD",
      "outputs": [
        {
          "name": "",
          "type": "uint256"
        }
      ],
      "payable": false,
      "stateMutability": "view",
      "type": "function"
    },
    {
      "constant": true,
      "inputs": [],
      "name": "wallet",
      "outputs": [
        {
          "name": "",
          "type": "address"
        }
      ],
      "payable": false,
      "stateMutability": "view",
      "type": "function"
    },
    {
      "constant": false,
      "inputs": [],
      "name": "implementation",
      "outputs": [
        {
          "name": "",
          "type": "address"
        }
      ],
      "payable": false,
      "stateMutability": "nonpayable",
      "type": "function"
    },
    {
      "constant": true,
      "inputs": [],
      "name": "paused",
      "outputs": [
        {
          "name": "",
          "type": "bool"
        }
      ],
      "payable": false,
      "stateMutability": "view",
      "type": "function"
    },
    {
      "constant": true,
      "inputs": [],
      "name": "totalTokensSold",
      "outputs": [
        {
          "name": "",
          "type": "uint256"
        }
      ],
      "payable": false,
      "stateMutability": "view",
      "type": "function"
    },
    {
      "constant": true,
      "inputs": [],
      "name": "finalAmountReturned",
      "outputs": [
        {
          "name": "",
          "type": "uint256"
        }
      ],
      "payable": false,
      "stateMutability": "view",
      "type": "function"
    },
    {
      "constant": true,
      "inputs": [
        {
          "name": "",
          "type": "address"
        }
      ],
      "name": "investors",
      "outputs": [
        {
          "name": "accredited",
          "type": "uint8"
        },
        {
          "name": "seen",
          "type": "uint8"
        },
        {
          "name": "nonAccreditedLimitUSDOverride",
          "type": "uint256"
        }
      ],
      "payable": false,
      "stateMutability": "view",
      "type": "function"
    },
    {
      "constant": true,
      "inputs": [],
      "name": "polyToken",
      "outputs": [
        {
          "name": "",
          "type": "address"
        }
      ],
      "payable": false,
      "stateMutability": "view",
      "type": "function"
    },
    {
      "constant": true,
      "inputs": [
        {
          "name": "",
          "type": "address"
        }
      ],
      "name": "stableCoinsRaised",
      "outputs": [
        {
          "name": "",
          "type": "uint256"
        }
      ],
      "payable": false,
      "stateMutability": "view",
      "type": "function"
    },
    {
      "constant": true,
      "inputs": [],
      "name": "startTime",
      "outputs": [
        {
          "name": "",
          "type": "uint256"
        }
      ],
      "payable": false,
      "stateMutability": "view",
      "type": "function"
    },
    {
      "constant": true,
      "inputs": [
        {
          "name": "",
          "type": "address"
        },
        {
          "name": "",
          "type": "uint8"
        }
      ],
      "name": "investorInvested",
      "outputs": [
        {
          "name": "",
          "type": "uint256"
        }
      ],
      "payable": false,
      "stateMutability": "view",
      "type": "function"
    },
    {
      "constant": true,
      "inputs": [
        {
          "name": "",
          "type": "address"
        }
      ],
      "name": "usdTokenEnabled",
      "outputs": [
        {
          "name": "",
          "type": "bool"
        }
      ],
      "payable": false,
      "stateMutability": "view",
      "type": "function"
    },
    {
      "constant": true,
      "inputs": [],
      "name": "isFinalized",
      "outputs": [
        {
          "name": "",
          "type": "bool"
        }
      ],
      "payable": false,
      "stateMutability": "view",
      "type": "function"
    },
    {
      "constant": true,
      "inputs": [],
      "name": "pausedTime",
      "outputs": [
        {
          "name": "",
          "type": "uint256"
        }
      ],
      "payable": false,
      "stateMutability": "view",
      "type": "function"
    },
    {
      "constant": true,
      "inputs": [],
      "name": "securityToken",
      "outputs": [
        {
          "name": "",
          "type": "address"
        }
      ],
      "payable": false,
      "stateMutability": "view",
      "type": "function"
    },
    {
      "constant": true,
      "inputs": [
        {
          "name": "",
          "type": "uint256"
        }
      ],
      "name": "usdTokens",
      "outputs": [
        {
          "name": "",
          "type": "address"
        }
      ],
      "payable": false,
      "stateMutability": "view",
      "type": "function"
    },
    {
      "constant": true,
      "inputs": [],
      "name": "factory",
      "outputs": [
        {
          "name": "",
          "type": "address"
        }
      ],
      "payable": false,
      "stateMutability": "view",
      "type": "function"
    },
    {
      "constant": true,
      "inputs": [
        {
          "name": "",
          "type": "uint8"
        }
      ],
      "name": "fundsRaised",
      "outputs": [
        {
          "name": "",
          "type": "uint256"
        }
      ],
      "payable": false,
      "stateMutability": "view",
      "type": "function"
    },
    {
      "constant": true,
      "inputs": [
        {
          "name": "",
          "type": "address"
        }
      ],
      "name": "investorInvestedUSD",
      "outputs": [
        {
          "name": "",
          "type": "uint256"
        }
      ],
      "payable": false,
      "stateMutability": "view",
      "type": "function"
    },
    {
      "constant": true,
      "inputs": [
        {
          "name": "",
          "type": "uint8"
        }
      ],
      "name": "fundRaiseTypes",
      "outputs": [
        {
          "name": "",
          "type": "bool"
        }
      ],
      "payable": false,
      "stateMutability": "view",
      "type": "function"
    },
    {
      "constant": true,
      "inputs": [],
      "name": "currentTier",
      "outputs": [
        {
          "name": "",
          "type": "uint256"
        }
      ],
      "payable": false,
      "stateMutability": "view",
      "type": "function"
    },
    {
      "constant": true,
      "inputs": [],
      "name": "FEE_ADMIN",
      "outputs": [
        {
          "name": "",
          "type": "bytes32"
        }
      ],
      "payable": false,
      "stateMutability": "view",
      "type": "function"
    },
    {
      "constant": true,
      "inputs": [],
      "name": "reserveWallet",
      "outputs": [
        {
          "name": "",
          "type": "address"
        }
      ],
      "payable": false,
      "stateMutability": "view",
      "type": "function"
    },
    {
      "constant": true,
      "inputs": [],
      "name": "investorCount",
      "outputs": [
        {
          "name": "",
          "type": "uint256"
        }
      ],
      "payable": false,
      "stateMutability": "view",
      "type": "function"
    },
    {
      "constant": true,
      "inputs": [],
      "name": "minimumInvestmentUSD",
      "outputs": [
        {
          "name": "",
          "type": "uint256"
        }
      ],
      "payable": false,
      "stateMutability": "view",
      "type": "function"
    },
    {
      "constant": false,
      "inputs": [
        {
          "name": "_newOwner",
          "type": "address"
        }
      ],
      "name": "transferProxyOwnership",
      "outputs": [],
      "payable": false,
      "stateMutability": "nonpayable",
      "type": "function"
    },
    {
      "constant": true,
      "inputs": [],
      "name": "fundsRaisedUSD",
      "outputs": [
        {
          "name": "",
          "type": "uint256"
        }
      ],
      "payable": false,
      "stateMutability": "view",
      "type": "function"
    },
    {
      "inputs": [
        {
          "name": "_securityToken",
          "type": "address"
        },
        {
          "name": "_polyAddress",
          "type": "address"
        },
        {
          "name": "_implementation",
          "type": "address"
        }
      ],
      "payable": false,
      "stateMutability": "nonpayable",
      "type": "constructor"
    },
    {
      "payable": true,
      "stateMutability": "payable",
      "type": "fallback"
    },
    {
      "anonymous": false,
      "inputs": [
        {
          "indexed": false,
          "name": "_previousOwner",
          "type": "address"
        },
        {
          "indexed": false,
          "name": "_newOwner",
          "type": "address"
        }
      ],
      "name": "ProxyOwnershipTransferred",
      "type": "event"
    },
    {
      "anonymous": false,
      "inputs": [
        {
          "indexed": false,
          "name": "_timestammp",
          "type": "uint256"
        }
      ],
      "name": "Pause",
      "type": "event"
    },
    {
      "anonymous": false,
      "inputs": [
        {
          "indexed": false,
          "name": "_timestamp",
          "type": "uint256"
        }
      ],
      "name": "Unpause",
      "type": "event"
    }
  ],
  "bytecode": "0x60806040526001805460ff19169055601a805460a060020a61ffff021916905534801561002b57600080fd5b50604051606080610bcb83398101604090815281516020830151919092015160198054600160a060020a03808616600160a060020a03199283161790925560188054821633908117909155601a8054938616939092169290921790556100999064010000000061015e810204565b600160a060020a038116151561013657604080517f08c379a000000000000000000000000000000000000000000000000000000000815260206004820152602760248201527f496d706c656d656e746174696f6e20616464726573732073686f756c64206e6f60448201527f7420626520307800000000000000000000000000000000000000000000000000606482015290519081900360840190fd5b601c8054600160a060020a031916600160a060020a0392909216919091179055506101f79050565b600160a060020a03811615156101d557604080517f08c379a000000000000000000000000000000000000000000000000000000000815260206004820152601860248201527f416464726573732073686f756c64206e6f742062652030780000000000000000604482015290519081900360640190fd5b601b8054600160a060020a031916600160a060020a0392909216919091179055565b6109c5806102066000396000f3006080604052600436106101955763ffffffff7c0100000000000000000000000000000000000000000000000000000000600035041663025313a2811461019f578063039af9eb146101d05780632ccc87271461021b5780632df413e2146102335780633197cbb61461025c5780634b385a4214610283578063521eb273146102985780635c60da1b146102ad5780635c975abb146102c257806363b20117146102d75780636c41027f146102ec5780636f7bc9be146103015780636faa22a51461034657806377de90391461035b57806378e979251461037c5780638784b1c2146103915780638ac5f55e146103b85780638d4e4083146103d9578063b2cca39d146103ee578063b84dfbd214610403578063b98035c114610418578063c45a015514610430578063c4d2c6bd14610445578063c513933814610460578063d143a37914610481578063d679677a1461049c578063d70afa96146104b1578063d72b11bd146104c6578063d7e64c00146104db578063ec47740f146104f0578063f1739cae14610505578063ff18ead314610526575b61019d61053b565b005b3480156101ab57600080fd5b506101b461054d565b60408051600160a060020a039092168252519081900360200190f35b3480156101dc57600080fd5b506101e860043561058a565b604080519687526020870195909552858501939093526060850191909152608084015260a0830152519081900360c00190f35b34801561022757600080fd5b506101b46004356105ce565b34801561023f57600080fd5b506102486105f6565b604080519115158252519081900360200190f35b34801561026857600080fd5b506102716105ff565b60408051918252519081900360200190f35b34801561028f57600080fd5b50610271610605565b3480156102a457600080fd5b506101b461060b565b3480156102b957600080fd5b506101b461061a565b3480156102ce57600080fd5b50610248610645565b3480156102e357600080fd5b50610271610666565b3480156102f857600080fd5b5061027161066c565b34801561030d57600080fd5b50610322600160a060020a0360043516610672565b6040805160ff94851681529290931660208301528183015290519081900360600190f35b34801561035257600080fd5b506101b4610698565b34801561036757600080fd5b50610271600160a060020a03600435166106a7565b34801561038857600080fd5b506102716106b9565b34801561039d57600080fd5b50610271600160a060020a036004351660ff602435166106bf565b3480156103c457600080fd5b50610248600160a060020a03600435166106dc565b3480156103e557600080fd5b506102486106f1565b3480156103fa57600080fd5b506102716106ff565b34801561040f57600080fd5b506101b4610705565b34801561042457600080fd5b506101b4600435610714565b34801561043c57600080fd5b506101b4610722565b34801561045157600080fd5b5061027160ff60043516610731565b34801561046c57600080fd5b50610271600160a060020a0360043516610743565b34801561048d57600080fd5b5061024860ff60043516610755565b3480156104a857600080fd5b5061027161076a565b3480156104bd57600080fd5b50610271610770565b3480156104d257600080fd5b506101b4610794565b3480156104e757600080fd5b506102716107a3565b3480156104fc57600080fd5b506102716107a9565b34801561051157600080fd5b5061019d600160a060020a03600435166107af565b34801561053257600080fd5b506102716108ab565b61054b6105466108b1565b6108c0565b565b60006105576108e4565b600160a060020a031633600160a060020a0316141561057f576105786108e4565b9050610587565b61058761053b565b90565b600f80548290811061059857fe5b60009182526020909120600790910201805460018201546002830154600384015460048501546006909501549395509193909286565b600b8054829081106105dc57fe5b600091825260209091200154600160a060020a0316905081565b60015460ff1681565b60135481565b600c5481565b601654600160a060020a031681565b60006106246108e4565b600160a060020a031633600160a060020a0316141561057f576105786108b1565b601a5474010000000000000000000000000000000000000000900460ff1681565b60175481565b600e5481565b6009602052600090815260409020805460019091015460ff808316926101009004169083565b601a54600160a060020a031681565b60066020526000908152604090205481565b60125481565b600860209081526000928352604080842090915290825290205481565b600a6020526000908152604090205460ff1681565b600154610100900460ff1681565b60145481565b601954600160a060020a031681565b60038054829081106105dc57fe5b601854600160a060020a031681565b60116020526000908152604090205481565b60076020526000908152604090205481565b60106020526000908152604090205460ff1681565b60045481565b7f4645455f41444d494e000000000000000000000000000000000000000000000081565b600254600160a060020a031681565b60155481565b600d5481565b6107b76108e4565b600160a060020a031633600160a060020a031614156108a057600160a060020a038116151561084757604080517f08c379a000000000000000000000000000000000000000000000000000000000815260206004820152601860248201527f416464726573732073686f756c64206e6f742062652030780000000000000000604482015290519081900360640190fd5b7f5a3e66efaa1e445ebd894728a69d6959842ea1e97bd79b892797106e270efcd96108706108e4565b60408051600160a060020a03928316815291841660208301528051918290030190a161089b816108f3565b6108a8565b6108a861053b565b50565b60055481565b601c54600160a060020a031690565b3660008037600080366000845af43d6000803e8080156108df573d6000f35b3d6000fd5b601b54600160a060020a031690565b600160a060020a038116151561096a57604080517f08c379a000000000000000000000000000000000000000000000000000000000815260206004820152601860248201527f416464726573732073686f756c64206e6f742062652030780000000000000000604482015290519081900360640190fd5b601b805473ffffffffffffffffffffffffffffffffffffffff1916600160a060020a03929092169190911790555600a165627a7a723058200f61c1423e601efbe240732e00dfc3f02ccb0b6cf82ab21d145bba987649a7460029",
  "source": "pragma solidity ^0.4.24;\n\nimport \"../storage/USDTieredSTOStorage.sol\";\nimport \"./OwnedProxy.sol\";\nimport \"../Pausable.sol\";\nimport \"openzeppelin-solidity/contracts/ReentrancyGuard.sol\";\nimport \"../modules/STO/ISTOStorage.sol\";\nimport \"../modules/ModuleStorage.sol\";\n\n/**\n * @title USDTiered STO module Proxy\n */\ncontract USDTieredSTOProxy is USDTieredSTOStorage, ISTOStorage, ModuleStorage, Pausable, ReentrancyGuard, OwnedProxy {\n\n    /**\n    * @notice Constructor\n    * @param _securityToken Address of the security token\n    * @param _polyAddress Address of the polytoken\n    * @param _implementation representing the address of the new implementation to be set\n    */\n    constructor (address _securityToken, address _polyAddress, address _implementation)\n    public\n    ModuleStorage(_securityToken, _polyAddress)\n    {\n        require(\n            _implementation != address(0),\n            \"Implementation address should not be 0x\"\n        );\n        __implementation = _implementation;\n    }\n\n}\n",
  "sourcePath": "/Users/jere/Code/polymath-apps/packages/new-polymath-scripts/src/generateLocalBlockchain/contracts/proxy/USDTieredSTOProxy.sol",
  "compiler": {
    "name": "solc",
    "version": "0.4.24+commit.e67f0147.Emscripten.clang"
  },
  "schemaVersion": "2.0.1",
  "updatedAt": "2019-02-06T00:34:32.624Z"
}