{
  "contractName": "USDTieredSTOStorage",
  "abi": [
    {
      "constant": true,
      "inputs": [
        {
          "name": "",
          "type": "uint256"
        }
      ],
      "name": "tiers",
      "outputs": [
        {
          "name": "rate",
          "type": "uint256"
        },
        {
          "name": "rateDiscountPoly",
          "type": "uint256"
        },
        {
          "name": "tokenTotal",
          "type": "uint256"
        },
        {
          "name": "tokensDiscountPoly",
          "type": "uint256"
        },
        {
          "name": "mintedTotal",
          "type": "uint256"
        },
        {
          "name": "mintedDiscountPoly",
          "type": "uint256"
        }
      ],
      "payable": false,
      "stateMutability": "view",
      "type": "function"
    },
    {
      "constant": true,
      "inputs": [
        {
          "name": "",
          "type": "uint256"
        }
      ],
      "name": "investorsList",
      "outputs": [
        {
          "name": "",
          "type": "address"
        }
      ],
      "payable": false,
      "stateMutability": "view",
      "type": "function"
    },
    {
      "constant": true,
      "inputs": [],
      "name": "allowBeneficialInvestments",
      "outputs": [
        {
          "name": "",
          "type": "bool"
        }
      ],
      "payable": false,
      "stateMutability": "view",
      "type": "function"
    },
    {
      "constant": true,
      "inputs": [],
      "name": "nonAccreditedLimitUSD",
      "outputs": [
        {
          "name": "",
          "type": "uint256"
        }
      ],
      "payable": false,
      "stateMutability": "view",
      "type": "function"
    },
    {
      "constant": true,
      "inputs": [],
      "name": "wallet",
      "outputs": [
        {
          "name": "",
          "type": "address"
        }
      ],
      "payable": false,
      "stateMutability": "view",
      "type": "function"
    },
    {
      "constant": true,
      "inputs": [],
      "name": "finalAmountReturned",
      "outputs": [
        {
          "name": "",
          "type": "uint256"
        }
      ],
      "payable": false,
      "stateMutability": "view",
      "type": "function"
    },
    {
      "constant": true,
      "inputs": [
        {
          "name": "",
          "type": "address"
        }
      ],
      "name": "investors",
      "outputs": [
        {
          "name": "accredited",
          "type": "uint8"
        },
        {
          "name": "seen",
          "type": "uint8"
        },
        {
          "name": "nonAccreditedLimitUSDOverride",
          "type": "uint256"
        }
      ],
      "payable": false,
      "stateMutability": "view",
      "type": "function"
    },
    {
      "constant": true,
      "inputs": [
        {
          "name": "",
          "type": "address"
        }
      ],
      "name": "stableCoinsRaised",
      "outputs": [
        {
          "name": "",
          "type": "uint256"
        }
      ],
      "payable": false,
      "stateMutability": "view",
      "type": "function"
    },
    {
      "constant": true,
      "inputs": [
        {
          "name": "",
          "type": "address"
        },
        {
          "name": "",
          "type": "uint8"
        }
      ],
      "name": "investorInvested",
      "outputs": [
        {
          "name": "",
          "type": "uint256"
        }
      ],
      "payable": false,
      "stateMutability": "view",
      "type": "function"
    },
    {
      "constant": true,
      "inputs": [
        {
          "name": "",
          "type": "address"
        }
      ],
      "name": "usdTokenEnabled",
      "outputs": [
        {
          "name": "",
          "type": "bool"
        }
      ],
      "payable": false,
      "stateMutability": "view",
      "type": "function"
    },
    {
      "constant": true,
      "inputs": [],
      "name": "isFinalized",
      "outputs": [
        {
          "name": "",
          "type": "bool"
        }
      ],
      "payable": false,
      "stateMutability": "view",
      "type": "function"
    },
    {
      "constant": true,
      "inputs": [
        {
          "name": "",
          "type": "uint256"
        }
      ],
      "name": "usdTokens",
      "outputs": [
        {
          "name": "",
          "type": "address"
        }
      ],
      "payable": false,
      "stateMutability": "view",
      "type": "function"
    },
    {
      "constant": true,
      "inputs": [
        {
          "name": "",
          "type": "address"
        }
      ],
      "name": "investorInvestedUSD",
      "outputs": [
        {
          "name": "",
          "type": "uint256"
        }
      ],
      "payable": false,
      "stateMutability": "view",
      "type": "function"
    },
    {
      "constant": true,
      "inputs": [],
      "name": "currentTier",
      "outputs": [
        {
          "name": "",
          "type": "uint256"
        }
      ],
      "payable": false,
      "stateMutability": "view",
      "type": "function"
    },
    {
      "constant": true,
      "inputs": [],
      "name": "reserveWallet",
      "outputs": [
        {
          "name": "",
          "type": "address"
        }
      ],
      "payable": false,
      "stateMutability": "view",
      "type": "function"
    },
    {
      "constant": true,
      "inputs": [],
      "name": "minimumInvestmentUSD",
      "outputs": [
        {
          "name": "",
          "type": "uint256"
        }
      ],
      "payable": false,
      "stateMutability": "view",
      "type": "function"
    },
    {
      "constant": true,
      "inputs": [],
      "name": "fundsRaisedUSD",
      "outputs": [
        {
          "name": "",
          "type": "uint256"
        }
      ],
      "payable": false,
      "stateMutability": "view",
      "type": "function"
    }
  ],
  "bytecode": "0x60806040526001805460ff1916905534801561001a57600080fd5b506104b98061002a6000396000f3006080604052600436106100f05763ffffffff7c0100000000000000000000000000000000000000000000000000000000600035041663039af9eb81146100f55780632ccc8727146101405780632df413e2146101745780634b385a421461019d578063521eb273146101c45780636c41027f146101d95780636f7bc9be146101ee57806377de9039146102335780638784b1c2146102545780638ac5f55e1461027b5780638d4e40831461029c578063b98035c1146102b1578063c5139338146102c9578063d679677a146102ea578063d72b11bd146102ff578063ec47740f14610314578063ff18ead314610329575b600080fd5b34801561010157600080fd5b5061010d60043561033e565b604080519687526020870195909552858501939093526060850191909152608084015260a0830152519081900360c00190f35b34801561014c57600080fd5b50610158600435610382565b60408051600160a060020a039092168252519081900360200190f35b34801561018057600080fd5b506101896103aa565b604080519115158252519081900360200190f35b3480156101a957600080fd5b506101b26103b3565b60408051918252519081900360200190f35b3480156101d057600080fd5b506101586103b9565b3480156101e557600080fd5b506101b26103ce565b3480156101fa57600080fd5b5061020f600160a060020a03600435166103d4565b6040805160ff94851681529290931660208301528183015290519081900360600190f35b34801561023f57600080fd5b506101b2600160a060020a03600435166103fa565b34801561026057600080fd5b506101b2600160a060020a036004351660ff6024351661040c565b34801561028757600080fd5b50610189600160a060020a0360043516610429565b3480156102a857600080fd5b5061018961043e565b3480156102bd57600080fd5b5061015860043561044c565b3480156102d557600080fd5b506101b2600160a060020a036004351661045a565b3480156102f657600080fd5b506101b261046c565b34801561030b57600080fd5b50610158610472565b34801561032057600080fd5b506101b2610481565b34801561033557600080fd5b506101b2610487565b600f80548290811061034c57fe5b60009182526020909120600790910201805460018201546002830154600384015460048501546006909501549395509193909286565b600b80548290811061039057fe5b600091825260209091200154600160a060020a0316905081565b60015460ff1681565b600c5481565b600154620100009004600160a060020a031681565b600e5481565b6009602052600090815260409020805460019091015460ff808316926101009004169083565b60066020526000908152604090205481565b600860209081526000928352604080842090915290825290205481565b600a6020526000908152604090205460ff1681565b600154610100900460ff1681565b600380548290811061039057fe5b60076020526000908152604090205481565b60045481565b600254600160a060020a031681565b600d5481565b600554815600a165627a7a72305820e8b2c2fe82a89f66b9e813220bc81e09bf5c134234a589f89632f6c15e30ebab0029",
  "source": "pragma solidity ^0.4.24;\n\nimport \"../interfaces/IERC20.sol\";\n\n/**\n * @title Contract used to store layout for the USDTieredSTO storage\n */\ncontract USDTieredSTOStorage {\n\n    /////////////\n    // Storage //\n    /////////////\n    struct Tier {\n        // NB rates mentioned below are actually price and are used like price in the logic.\n        // How many token units a buyer gets per USD in this tier (multiplied by 10**18)\n        uint256 rate;\n\n        // How many token units a buyer gets per USD in this tier (multiplied by 10**18) when investing in POLY up to tokensDiscountPoly\n        uint256 rateDiscountPoly;\n\n        // How many tokens are available in this tier (relative to totalSupply)\n        uint256 tokenTotal;\n\n        // How many token units are available in this tier (relative to totalSupply) at the ratePerTierDiscountPoly rate\n        uint256 tokensDiscountPoly;\n\n        // How many tokens have been minted in this tier (relative to totalSupply)\n        uint256 mintedTotal;\n\n        // How many tokens have been minted in this tier (relative to totalSupply) for each fund raise type\n        mapping (uint8 => uint256) minted;\n\n        // How many tokens have been minted in this tier (relative to totalSupply) at discounted POLY rate\n        uint256 mintedDiscountPoly;\n    }\n\n    struct Investor {\n        // Whether investor is accredited (0 = non-accredited, 1 = accredited)\n        uint8 accredited;\n        // Whether we have seen the investor before (already added to investors list)\n        uint8 seen;\n        // Overrides for default limit in USD for non-accredited investors multiplied by 10**18 (0 = no override)\n        uint256 nonAccreditedLimitUSDOverride;\n    }\n\n    mapping (bytes32 => mapping (bytes32 => string)) oracleKeys;\n\n    // Determine whether users can invest on behalf of a beneficiary\n    bool public allowBeneficialInvestments = false;\n\n    // Whether or not the STO has been finalized\n    bool public isFinalized;\n\n    // Address where ETH, POLY & Stable Coin funds are delivered\n    address public wallet;\n\n    // Address of issuer reserve wallet for unsold tokens\n    address public reserveWallet;\n\n    // List of stable coin addresses\n    address[] public usdTokens;\n\n    // Current tier\n    uint256 public currentTier;\n\n    // Amount of USD funds raised\n    uint256 public fundsRaisedUSD;\n\n    // Amount of stable coins raised\n    mapping (address => uint256) public stableCoinsRaised;\n\n    // Amount in USD invested by each address\n    mapping (address => uint256) public investorInvestedUSD;\n\n    // Amount in fund raise type invested by each investor\n    mapping (address => mapping (uint8 => uint256)) public investorInvested;\n\n    // Accredited & non-accredited investor data\n    mapping (address => Investor) public investors;\n\n    // List of active stable coin addresses\n    mapping (address => bool) public usdTokenEnabled;\n\n    // List of all addresses that have been added as accredited or non-accredited without\n    // the default limit\n    address[] public investorsList;\n\n    // Default limit in USD for non-accredited investors multiplied by 10**18\n    uint256 public nonAccreditedLimitUSD;\n\n    // Minimum investable amount in USD\n    uint256 public minimumInvestmentUSD;\n\n    // Final amount of tokens returned to issuer\n    uint256 public finalAmountReturned;\n\n    // Array of Tiers\n    Tier[] public tiers;\n\n}\n",
  "sourcePath": "/Users/jere/Code/polymath-apps/packages/new-polymath-scripts/src/generateLocalBlockchain/contracts/storage/USDTieredSTOStorage.sol",
  "compiler": {
    "name": "solc",
    "version": "0.4.24+commit.e67f0147.Emscripten.clang"
  },
  "schemaVersion": "2.0.1",
  "updatedAt": "2019-01-17T19:56:10.066Z"
}