{
  "contractName": "VestingEscrowWalletStorage",
  "abi": [
    {
      "constant": true,
      "inputs": [],
      "name": "treasuryWallet",
      "outputs": [
        {
          "name": "",
          "type": "address"
        }
      ],
      "payable": false,
      "stateMutability": "view",
      "type": "function"
    },
    {
      "constant": true,
      "inputs": [],
      "name": "unassignedTokens",
      "outputs": [
        {
          "name": "",
          "type": "uint256"
        }
      ],
      "payable": false,
      "stateMutability": "view",
      "type": "function"
    },
    {
      "constant": true,
      "inputs": [
        {
          "name": "",
          "type": "address"
        },
        {
          "name": "",
          "type": "uint256"
        }
      ],
      "name": "schedules",
      "outputs": [
        {
          "name": "templateName",
          "type": "bytes32"
        },
        {
          "name": "claimedTokens",
          "type": "uint256"
        },
        {
          "name": "startTime",
          "type": "uint256"
        }
      ],
      "payable": false,
      "stateMutability": "view",
      "type": "function"
    },
    {
      "constant": true,
      "inputs": [
        {
          "name": "",
          "type": "uint256"
        }
      ],
      "name": "templateNames",
      "outputs": [
        {
          "name": "",
          "type": "bytes32"
        }
      ],
      "payable": false,
      "stateMutability": "view",
      "type": "function"
    },
    {
      "constant": true,
      "inputs": [
        {
          "name": "",
          "type": "uint256"
        }
      ],
      "name": "beneficiaries",
      "outputs": [
        {
          "name": "",
          "type": "address"
        }
      ],
      "payable": false,
      "stateMutability": "view",
      "type": "function"
    }
  ],
  "bytecode": "0x608060405234801561001057600080fd5b50610238806100206000396000f30060806040526004361061006c5763ffffffff7c01000000000000000000000000000000000000000000000000000000006000350416634626402b811461007157806347e3fd87146100af578063854e9682146100d6578063e842abe814610125578063efeb5e581461013d575b600080fd5b34801561007d57600080fd5b50610086610155565b6040805173ffffffffffffffffffffffffffffffffffffffff9092168252519081900360200190f35b3480156100bb57600080fd5b506100c4610171565b60408051918252519081900360200190f35b3480156100e257600080fd5b5061010773ffffffffffffffffffffffffffffffffffffffff60043516602435610177565b60408051938452602084019290925282820152519081900360600190f35b34801561013157600080fd5b506100c46004356101b8565b34801561014957600080fd5b506100866004356101d7565b60015473ffffffffffffffffffffffffffffffffffffffff1681565b60005481565b60046020528160005260406000208181548110151561019257fe5b600091825260209091206003909102018054600182015460029092015490935090915083565b600a8054829081106101c657fe5b600091825260209091200154905081565b60028054829081106101e557fe5b60009182526020909120015473ffffffffffffffffffffffffffffffffffffffff169050815600a165627a7a72305820a9d4e1b86996202de76215740cbccd1c2b18a80f324916812c2511108f01ff7e0029",
  "source": "pragma solidity ^0.4.24;\n\n/**\n * @title Wallet for core vesting escrow functionality\n */\ncontract VestingEscrowWalletStorage {\n    \n    struct Schedule {\n        // Name of the template\n        bytes32 templateName;\n        // Tokens that were already claimed\n        uint256 claimedTokens;\n        // Start time of the schedule\n        uint256 startTime;\n    }\n\n    struct Template {\n        // Total amount of tokens\n        uint256 numberOfTokens;\n        // Schedule duration (How long the schedule will last)\n        uint256 duration;\n        // Schedule frequency (It is a cliff time period)\n        uint256 frequency;\n        // Index of the template in an array template names\n        uint256 index;\n    }\n\n    // Number of tokens that are hold by the `this` contract but are unassigned to any schedule\n    uint256 public unassignedTokens;\n    // Address of the Treasury wallet. All of the unassigned token will transfer to that address.\n    address public treasuryWallet;\n    // List of all beneficiaries who have the schedules running/completed/created\n    address[] public beneficiaries;\n    // Flag whether beneficiary has been already added or not\n    mapping(address => bool) internal beneficiaryAdded;\n\n    // Holds schedules array corresponds to the affiliate/employee address\n    mapping(address => Schedule[]) public schedules;\n    // Holds template names array corresponds to the affiliate/employee address\n    mapping(address => bytes32[]) internal userToTemplates;\n    // Mapping use to store the indexes for different template names for a user. \n    // affiliate/employee address => template name => index\n    mapping(address => mapping(bytes32 => uint256)) internal userToTemplateIndex;\n    // Holds affiliate/employee addresses coressponds to the template name\n    mapping(bytes32 => address[]) internal templateToUsers;\n    // Mapping use to store the indexes for different users for a template.\n    // template name => affiliate/employee address => index\n    mapping(bytes32 => mapping(address => uint256)) internal templateToUserIndex;\n    // Store the template details corresponds to the template name\n    mapping(bytes32 => Template) templates;\n\n    // List of all template names\n    bytes32[] public templateNames;\n}",
  "sourcePath": "/Users/jere/Code/polymath-apps/packages/new-polymath-scripts/src/generateLocalBlockchain/contracts/storage/VestingEscrowWalletStorage.sol",
  "compiler": {
    "name": "solc",
    "version": "0.4.24+commit.e67f0147.Emscripten.clang"
  },
  "schemaVersion": "2.0.1",
  "updatedAt": "2019-01-17T19:56:10.064Z"
}