{
  "contractName": "VestingEscrowWalletProxy",
  "abi": [
    {
      "constant": false,
      "inputs": [],
      "name": "proxyOwner",
      "outputs": [
        {
          "name": "",
          "type": "address"
        }
      ],
      "payable": false,
      "stateMutability": "nonpayable",
      "type": "function"
    },
    {
      "constant": true,
      "inputs": [],
      "name": "treasuryWallet",
      "outputs": [
        {
          "name": "",
          "type": "address"
        }
      ],
      "payable": false,
      "stateMutability": "view",
      "type": "function"
    },
    {
      "constant": true,
      "inputs": [],
      "name": "unassignedTokens",
      "outputs": [
        {
          "name": "",
          "type": "uint256"
        }
      ],
      "payable": false,
      "stateMutability": "view",
      "type": "function"
    },
    {
      "constant": false,
      "inputs": [],
      "name": "implementation",
      "outputs": [
        {
          "name": "",
          "type": "address"
        }
      ],
      "payable": false,
      "stateMutability": "nonpayable",
      "type": "function"
    },
    {
      "constant": true,
      "inputs": [],
      "name": "paused",
      "outputs": [
        {
          "name": "",
          "type": "bool"
        }
      ],
      "payable": false,
      "stateMutability": "view",
      "type": "function"
    },
    {
      "constant": true,
      "inputs": [],
      "name": "polyToken",
      "outputs": [
        {
          "name": "",
          "type": "address"
        }
      ],
      "payable": false,
      "stateMutability": "view",
      "type": "function"
    },
    {
      "constant": true,
      "inputs": [
        {
          "name": "",
          "type": "address"
        },
        {
          "name": "",
          "type": "uint256"
        }
      ],
      "name": "schedules",
      "outputs": [
        {
          "name": "templateName",
          "type": "bytes32"
        },
        {
          "name": "claimedTokens",
          "type": "uint256"
        },
        {
          "name": "startTime",
          "type": "uint256"
        }
      ],
      "payable": false,
      "stateMutability": "view",
      "type": "function"
    },
    {
      "constant": true,
      "inputs": [],
      "name": "securityToken",
      "outputs": [
        {
          "name": "",
          "type": "address"
        }
      ],
      "payable": false,
      "stateMutability": "view",
      "type": "function"
    },
    {
      "constant": true,
      "inputs": [],
      "name": "factory",
      "outputs": [
        {
          "name": "",
          "type": "address"
        }
      ],
      "payable": false,
      "stateMutability": "view",
      "type": "function"
    },
    {
      "constant": true,
      "inputs": [],
      "name": "FEE_ADMIN",
      "outputs": [
        {
          "name": "",
          "type": "bytes32"
        }
      ],
      "payable": false,
      "stateMutability": "view",
      "type": "function"
    },
    {
      "constant": true,
      "inputs": [
        {
          "name": "",
          "type": "uint256"
        }
      ],
      "name": "templateNames",
      "outputs": [
        {
          "name": "",
          "type": "bytes32"
        }
      ],
      "payable": false,
      "stateMutability": "view",
      "type": "function"
    },
    {
      "constant": true,
      "inputs": [
        {
          "name": "",
          "type": "uint256"
        }
      ],
      "name": "beneficiaries",
      "outputs": [
        {
          "name": "",
          "type": "address"
        }
      ],
      "payable": false,
      "stateMutability": "view",
      "type": "function"
    },
    {
      "constant": false,
      "inputs": [
        {
          "name": "_newOwner",
          "type": "address"
        }
      ],
      "name": "transferProxyOwnership",
      "outputs": [],
      "payable": false,
      "stateMutability": "nonpayable",
      "type": "function"
    },
    {
      "inputs": [
        {
          "name": "_securityToken",
          "type": "address"
        },
        {
          "name": "_polyAddress",
          "type": "address"
        },
        {
          "name": "_implementation",
          "type": "address"
        }
      ],
      "payable": false,
      "stateMutability": "nonpayable",
      "type": "constructor"
    },
    {
      "payable": true,
      "stateMutability": "payable",
      "type": "fallback"
    },
    {
      "anonymous": false,
      "inputs": [
        {
          "indexed": false,
          "name": "_previousOwner",
          "type": "address"
        },
        {
          "indexed": false,
          "name": "_newOwner",
          "type": "address"
        }
      ],
      "name": "ProxyOwnershipTransferred",
      "type": "event"
    },
    {
      "anonymous": false,
      "inputs": [
        {
          "indexed": false,
          "name": "_timestammp",
          "type": "uint256"
        }
      ],
      "name": "Pause",
      "type": "event"
    },
    {
      "anonymous": false,
      "inputs": [
        {
          "indexed": false,
          "name": "_timestamp",
          "type": "uint256"
        }
      ],
      "name": "Unpause",
      "type": "event"
    }
  ],
  "bytecode": "0x6080604052600d805460a060020a60ff021916905534801561002057600080fd5b506040516060806107f4833981016040908152815160208301519190920151600c8054600160a060020a03808616600160a060020a031992831617909255600b8054821633908117909155600d80549386169390921692909217905561008e90640100000000610153810204565b600160a060020a038116151561012b57604080517f08c379a000000000000000000000000000000000000000000000000000000000815260206004820152602760248201527f496d706c656d656e746174696f6e20616464726573732073686f756c64206e6f60448201527f7420626520307800000000000000000000000000000000000000000000000000606482015290519081900360840190fd5b600f8054600160a060020a031916600160a060020a0392909216919091179055506101ec9050565b600160a060020a03811615156101ca57604080517f08c379a000000000000000000000000000000000000000000000000000000000815260206004820152601860248201527f416464726573732073686f756c64206e6f742062652030780000000000000000604482015290519081900360640190fd5b600e8054600160a060020a031916600160a060020a0392909216919091179055565b6105f9806101fb6000396000f3006080604052600436106100c45763ffffffff7c0100000000000000000000000000000000000000000000000000000000600035041663025313a281146100ce5780634626402b146100ff57806347e3fd87146101145780635c60da1b1461013b5780635c975abb146101505780636faa22a514610179578063854e96821461018e578063b84dfbd2146101d0578063c45a0155146101e5578063d70afa96146101fa578063e842abe81461020f578063efeb5e5814610227578063f1739cae1461023f575b6100cc610260565b005b3480156100da57600080fd5b506100e3610272565b60408051600160a060020a039092168252519081900360200190f35b34801561010b57600080fd5b506100e36102af565b34801561012057600080fd5b506101296102be565b60408051918252519081900360200190f35b34801561014757600080fd5b506100e36102c4565b34801561015c57600080fd5b506101656102ef565b604080519115158252519081900360200190f35b34801561018557600080fd5b506100e3610310565b34801561019a57600080fd5b506101b2600160a060020a036004351660243561031f565b60408051938452602084019290925282820152519081900360600190f35b3480156101dc57600080fd5b506100e3610360565b3480156101f157600080fd5b506100e361036f565b34801561020657600080fd5b5061012961037e565b34801561021b57600080fd5b506101296004356103a2565b34801561023357600080fd5b506100e36004356103c1565b34801561024b57600080fd5b506100cc600160a060020a03600435166103e9565b61027061026b6104e5565b6104f4565b565b600061027c610518565b600160a060020a031633600160a060020a031614156102a45761029d610518565b90506102ac565b6102ac610260565b90565b600154600160a060020a031681565b60005481565b60006102ce610518565b600160a060020a031633600160a060020a031614156102a45761029d6104e5565b600d5474010000000000000000000000000000000000000000900460ff1681565b600d54600160a060020a031681565b60046020528160005260406000208181548110151561033a57fe5b600091825260209091206003909102018054600182015460029092015490935090915083565b600c54600160a060020a031681565b600b54600160a060020a031681565b7f4645455f41444d494e000000000000000000000000000000000000000000000081565b600a8054829081106103b057fe5b600091825260209091200154905081565b60028054829081106103cf57fe5b600091825260209091200154600160a060020a0316905081565b6103f1610518565b600160a060020a031633600160a060020a031614156104da57600160a060020a038116151561048157604080517f08c379a000000000000000000000000000000000000000000000000000000000815260206004820152601860248201527f416464726573732073686f756c64206e6f742062652030780000000000000000604482015290519081900360640190fd5b7f5a3e66efaa1e445ebd894728a69d6959842ea1e97bd79b892797106e270efcd96104aa610518565b60408051600160a060020a03928316815291841660208301528051918290030190a16104d581610527565b6104e2565b6104e2610260565b50565b600f54600160a060020a031690565b3660008037600080366000845af43d6000803e808015610513573d6000f35b3d6000fd5b600e54600160a060020a031690565b600160a060020a038116151561059e57604080517f08c379a000000000000000000000000000000000000000000000000000000000815260206004820152601860248201527f416464726573732073686f756c64206e6f742062652030780000000000000000604482015290519081900360640190fd5b600e805473ffffffffffffffffffffffffffffffffffffffff1916600160a060020a03929092169190911790555600a165627a7a7230582018506dd7e16b54456d842d59cc29c3233b8d7a2a3d7d321e62c1e646984e5b0e0029",
  "source": "pragma solidity ^0.4.24;\n\nimport \"../storage/VestingEscrowWalletStorage.sol\";\nimport \"./OwnedProxy.sol\";\nimport \"../Pausable.sol\";\nimport \"../modules/ModuleStorage.sol\";\n /**\n * @title Escrow wallet module for vesting functionality\n */\ncontract VestingEscrowWalletProxy is VestingEscrowWalletStorage, ModuleStorage, Pausable, OwnedProxy {\n     /**\n    * @notice Constructor\n    * @param _securityToken Address of the security token\n    * @param _polyAddress Address of the polytoken\n    * @param _implementation representing the address of the new implementation to be set\n    */\n    constructor (address _securityToken, address _polyAddress, address _implementation)\n    public\n    ModuleStorage(_securityToken, _polyAddress)\n    {\n        require(\n            _implementation != address(0),\n            \"Implementation address should not be 0x\"\n        );\n        __implementation = _implementation;\n    }\n }",
  "sourcePath": "/Users/jere/Code/polymath-apps/packages/new-polymath-scripts/src/generateLocalBlockchain/contracts/proxy/VestingEscrowWalletProxy.sol",
  "compiler": {
    "name": "solc",
    "version": "0.4.24+commit.e67f0147.Emscripten.clang"
  },
  "schemaVersion": "2.0.1",
  "updatedAt": "2019-02-06T00:34:32.626Z"
}