{
  "contractName": "VestingEscrowWallet",
  "abi": [
    {
      "constant": true,
      "inputs": [],
      "name": "ADMIN",
      "outputs": [
        {
          "name": "",
          "type": "bytes32"
        }
      ],
      "payable": false,
      "stateMutability": "view",
      "type": "function"
    },
    {
      "constant": false,
      "inputs": [],
      "name": "unpause",
      "outputs": [],
      "payable": false,
      "stateMutability": "nonpayable",
      "type": "function"
    },
    {
      "constant": true,
      "inputs": [],
      "name": "treasuryWallet",
      "outputs": [
        {
          "name": "",
          "type": "address"
        }
      ],
      "payable": false,
      "stateMutability": "view",
      "type": "function"
    },
    {
      "constant": true,
      "inputs": [],
      "name": "unassignedTokens",
      "outputs": [
        {
          "name": "",
          "type": "uint256"
        }
      ],
      "payable": false,
      "stateMutability": "view",
      "type": "function"
    },
    {
      "constant": true,
      "inputs": [],
      "name": "paused",
      "outputs": [
        {
          "name": "",
          "type": "bool"
        }
      ],
      "payable": false,
      "stateMutability": "view",
      "type": "function"
    },
    {
      "constant": false,
      "inputs": [
        {
          "name": "_amount",
          "type": "uint256"
        }
      ],
      "name": "takeFee",
      "outputs": [
        {
          "name": "",
          "type": "bool"
        }
      ],
      "payable": false,
      "stateMutability": "nonpayable",
      "type": "function"
    },
    {
      "constant": true,
      "inputs": [],
      "name": "polyToken",
      "outputs": [
        {
          "name": "",
          "type": "address"
        }
      ],
      "payable": false,
      "stateMutability": "view",
      "type": "function"
    },
    {
      "constant": false,
      "inputs": [],
      "name": "pause",
      "outputs": [],
      "payable": false,
      "stateMutability": "nonpayable",
      "type": "function"
    },
    {
      "constant": true,
      "inputs": [
        {
          "name": "",
          "type": "address"
        },
        {
          "name": "",
          "type": "uint256"
        }
      ],
      "name": "schedules",
      "outputs": [
        {
          "name": "templateName",
          "type": "bytes32"
        },
        {
          "name": "claimedTokens",
          "type": "uint256"
        },
        {
          "name": "startTime",
          "type": "uint256"
        }
      ],
      "payable": false,
      "stateMutability": "view",
      "type": "function"
    },
    {
      "constant": true,
      "inputs": [],
      "name": "securityToken",
      "outputs": [
        {
          "name": "",
          "type": "address"
        }
      ],
      "payable": false,
      "stateMutability": "view",
      "type": "function"
    },
    {
      "constant": true,
      "inputs": [],
      "name": "factory",
      "outputs": [
        {
          "name": "",
          "type": "address"
        }
      ],
      "payable": false,
      "stateMutability": "view",
      "type": "function"
    },
    {
      "constant": true,
      "inputs": [],
      "name": "FEE_ADMIN",
      "outputs": [
        {
          "name": "",
          "type": "bytes32"
        }
      ],
      "payable": false,
      "stateMutability": "view",
      "type": "function"
    },
    {
      "constant": true,
      "inputs": [
        {
          "name": "",
          "type": "uint256"
        }
      ],
      "name": "templateNames",
      "outputs": [
        {
          "name": "",
          "type": "bytes32"
        }
      ],
      "payable": false,
      "stateMutability": "view",
      "type": "function"
    },
    {
      "constant": true,
      "inputs": [
        {
          "name": "",
          "type": "uint256"
        }
      ],
      "name": "beneficiaries",
      "outputs": [
        {
          "name": "",
          "type": "address"
        }
      ],
      "payable": false,
      "stateMutability": "view",
      "type": "function"
    },
    {
      "inputs": [
        {
          "name": "_securityToken",
          "type": "address"
        },
        {
          "name": "_polyAddress",
          "type": "address"
        }
      ],
      "payable": false,
      "stateMutability": "nonpayable",
      "type": "constructor"
    },
    {
      "anonymous": false,
      "inputs": [
        {
          "indexed": true,
          "name": "_beneficiary",
          "type": "address"
        },
        {
          "indexed": false,
          "name": "_templateName",
          "type": "bytes32"
        },
        {
          "indexed": false,
          "name": "_startTime",
          "type": "uint256"
        }
      ],
      "name": "AddSchedule",
      "type": "event"
    },
    {
      "anonymous": false,
      "inputs": [
        {
          "indexed": true,
          "name": "_beneficiary",
          "type": "address"
        },
        {
          "indexed": false,
          "name": "_templateName",
          "type": "bytes32"
        },
        {
          "indexed": false,
          "name": "_startTime",
          "type": "uint256"
        }
      ],
      "name": "ModifySchedule",
      "type": "event"
    },
    {
      "anonymous": false,
      "inputs": [
        {
          "indexed": true,
          "name": "_beneficiary",
          "type": "address"
        }
      ],
      "name": "RevokeAllSchedules",
      "type": "event"
    },
    {
      "anonymous": false,
      "inputs": [
        {
          "indexed": true,
          "name": "_beneficiary",
          "type": "address"
        },
        {
          "indexed": false,
          "name": "_templateName",
          "type": "bytes32"
        }
      ],
      "name": "RevokeSchedule",
      "type": "event"
    },
    {
      "anonymous": false,
      "inputs": [
        {
          "indexed": false,
          "name": "_numberOfTokens",
          "type": "uint256"
        },
        {
          "indexed": false,
          "name": "_sender",
          "type": "address"
        }
      ],
      "name": "DepositTokens",
      "type": "event"
    },
    {
      "anonymous": false,
      "inputs": [
        {
          "indexed": false,
          "name": "_numberOfTokens",
          "type": "uint256"
        },
        {
          "indexed": false,
          "name": "_sender",
          "type": "address"
        }
      ],
      "name": "SendToTreasury",
      "type": "event"
    },
    {
      "anonymous": false,
      "inputs": [
        {
          "indexed": true,
          "name": "_beneficiary",
          "type": "address"
        },
        {
          "indexed": false,
          "name": "_numberOfTokens",
          "type": "uint256"
        }
      ],
      "name": "SendTokens",
      "type": "event"
    },
    {
      "anonymous": false,
      "inputs": [
        {
          "indexed": false,
          "name": "_name",
          "type": "bytes32"
        },
        {
          "indexed": false,
          "name": "_numberOfTokens",
          "type": "uint256"
        },
        {
          "indexed": false,
          "name": "_duration",
          "type": "uint256"
        },
        {
          "indexed": false,
          "name": "_frequency",
          "type": "uint256"
        }
      ],
      "name": "AddTemplate",
      "type": "event"
    },
    {
      "anonymous": false,
      "inputs": [
        {
          "indexed": false,
          "name": "_name",
          "type": "bytes32"
        }
      ],
      "name": "RemoveTemplate",
      "type": "event"
    },
    {
      "anonymous": false,
      "inputs": [
        {
          "indexed": false,
          "name": "_newWallet",
          "type": "address"
        },
        {
          "indexed": false,
          "name": "_oldWallet",
          "type": "address"
        }
      ],
      "name": "TreasuryWalletChanged",
      "type": "event"
    },
    {
      "anonymous": false,
      "inputs": [
        {
          "indexed": false,
          "name": "_timestammp",
          "type": "uint256"
        }
      ],
      "name": "Pause",
      "type": "event"
    },
    {
      "anonymous": false,
      "inputs": [
        {
          "indexed": false,
          "name": "_timestamp",
          "type": "uint256"
        }
      ],
      "name": "Unpause",
      "type": "event"
    },
    {
      "constant": true,
      "inputs": [],
      "name": "getInitFunction",
      "outputs": [
        {
          "name": "",
          "type": "bytes4"
        }
      ],
      "payable": false,
      "stateMutability": "pure",
      "type": "function"
    },
    {
      "constant": false,
      "inputs": [
        {
          "name": "_treasuryWallet",
          "type": "address"
        }
      ],
      "name": "configure",
      "outputs": [],
      "payable": false,
      "stateMutability": "nonpayable",
      "type": "function"
    },
    {
      "constant": false,
      "inputs": [
        {
          "name": "_newTreasuryWallet",
          "type": "address"
        }
      ],
      "name": "changeTreasuryWallet",
      "outputs": [],
      "payable": false,
      "stateMutability": "nonpayable",
      "type": "function"
    },
    {
      "constant": false,
      "inputs": [
        {
          "name": "_numberOfTokens",
          "type": "uint256"
        }
      ],
      "name": "depositTokens",
      "outputs": [],
      "payable": false,
      "stateMutability": "nonpayable",
      "type": "function"
    },
    {
      "constant": false,
      "inputs": [
        {
          "name": "_amount",
          "type": "uint256"
        }
      ],
      "name": "sendToTreasury",
      "outputs": [],
      "payable": false,
      "stateMutability": "nonpayable",
      "type": "function"
    },
    {
      "constant": false,
      "inputs": [
        {
          "name": "_beneficiary",
          "type": "address"
        }
      ],
      "name": "pushAvailableTokens",
      "outputs": [],
      "payable": false,
      "stateMutability": "nonpayable",
      "type": "function"
    },
    {
      "constant": false,
      "inputs": [],
      "name": "pullAvailableTokens",
      "outputs": [],
      "payable": false,
      "stateMutability": "nonpayable",
      "type": "function"
    },
    {
      "constant": false,
      "inputs": [
        {
          "name": "_name",
          "type": "bytes32"
        },
        {
          "name": "_numberOfTokens",
          "type": "uint256"
        },
        {
          "name": "_duration",
          "type": "uint256"
        },
        {
          "name": "_frequency",
          "type": "uint256"
        }
      ],
      "name": "addTemplate",
      "outputs": [],
      "payable": false,
      "stateMutability": "nonpayable",
      "type": "function"
    },
    {
      "constant": false,
      "inputs": [
        {
          "name": "_name",
          "type": "bytes32"
        }
      ],
      "name": "removeTemplate",
      "outputs": [],
      "payable": false,
      "stateMutability": "nonpayable",
      "type": "function"
    },
    {
      "constant": true,
      "inputs": [],
      "name": "getTemplateCount",
      "outputs": [
        {
          "name": "",
          "type": "uint256"
        }
      ],
      "payable": false,
      "stateMutability": "view",
      "type": "function"
    },
    {
      "constant": true,
      "inputs": [],
      "name": "getAllTemplateNames",
      "outputs": [
        {
          "name": "",
          "type": "bytes32[]"
        }
      ],
      "payable": false,
      "stateMutability": "view",
      "type": "function"
    },
    {
      "constant": false,
      "inputs": [
        {
          "name": "_beneficiary",
          "type": "address"
        },
        {
          "name": "_templateName",
          "type": "bytes32"
        },
        {
          "name": "_numberOfTokens",
          "type": "uint256"
        },
        {
          "name": "_duration",
          "type": "uint256"
        },
        {
          "name": "_frequency",
          "type": "uint256"
        },
        {
          "name": "_startTime",
          "type": "uint256"
        }
      ],
      "name": "addSchedule",
      "outputs": [],
      "payable": false,
      "stateMutability": "nonpayable",
      "type": "function"
    },
    {
      "constant": false,
      "inputs": [
        {
          "name": "_beneficiary",
          "type": "address"
        },
        {
          "name": "_templateName",
          "type": "bytes32"
        },
        {
          "name": "_startTime",
          "type": "uint256"
        }
      ],
      "name": "addScheduleFromTemplate",
      "outputs": [],
      "payable": false,
      "stateMutability": "nonpayable",
      "type": "function"
    },
    {
      "constant": false,
      "inputs": [
        {
          "name": "_beneficiary",
          "type": "address"
        },
        {
          "name": "_templateName",
          "type": "bytes32"
        },
        {
          "name": "_startTime",
          "type": "uint256"
        }
      ],
      "name": "modifySchedule",
      "outputs": [],
      "payable": false,
      "stateMutability": "nonpayable",
      "type": "function"
    },
    {
      "constant": false,
      "inputs": [
        {
          "name": "_beneficiary",
          "type": "address"
        },
        {
          "name": "_templateName",
          "type": "bytes32"
        }
      ],
      "name": "revokeSchedule",
      "outputs": [],
      "payable": false,
      "stateMutability": "nonpayable",
      "type": "function"
    },
    {
      "constant": false,
      "inputs": [
        {
          "name": "_beneficiary",
          "type": "address"
        }
      ],
      "name": "revokeAllSchedules",
      "outputs": [],
      "payable": false,
      "stateMutability": "nonpayable",
      "type": "function"
    },
    {
      "constant": true,
      "inputs": [
        {
          "name": "_beneficiary",
          "type": "address"
        },
        {
          "name": "_templateName",
          "type": "bytes32"
        }
      ],
      "name": "getSchedule",
      "outputs": [
        {
          "name": "",
          "type": "uint256"
        },
        {
          "name": "",
          "type": "uint256"
        },
        {
          "name": "",
          "type": "uint256"
        },
        {
          "name": "",
          "type": "uint256"
        },
        {
          "name": "",
          "type": "uint256"
        },
        {
          "name": "",
          "type": "uint8"
        }
      ],
      "payable": false,
      "stateMutability": "view",
      "type": "function"
    },
    {
      "constant": true,
      "inputs": [
        {
          "name": "_beneficiary",
          "type": "address"
        }
      ],
      "name": "getTemplateNames",
      "outputs": [
        {
          "name": "",
          "type": "bytes32[]"
        }
      ],
      "payable": false,
      "stateMutability": "view",
      "type": "function"
    },
    {
      "constant": true,
      "inputs": [
        {
          "name": "_beneficiary",
          "type": "address"
        }
      ],
      "name": "getScheduleCount",
      "outputs": [
        {
          "name": "",
          "type": "uint256"
        }
      ],
      "payable": false,
      "stateMutability": "view",
      "type": "function"
    },
    {
      "constant": false,
      "inputs": [
        {
          "name": "_fromIndex",
          "type": "uint256"
        },
        {
          "name": "_toIndex",
          "type": "uint256"
        }
      ],
      "name": "pushAvailableTokensMulti",
      "outputs": [],
      "payable": false,
      "stateMutability": "nonpayable",
      "type": "function"
    },
    {
      "constant": false,
      "inputs": [
        {
          "name": "_beneficiaries",
          "type": "address[]"
        },
        {
          "name": "_templateNames",
          "type": "bytes32[]"
        },
        {
          "name": "_numberOfTokens",
          "type": "uint256[]"
        },
        {
          "name": "_durations",
          "type": "uint256[]"
        },
        {
          "name": "_frequencies",
          "type": "uint256[]"
        },
        {
          "name": "_startTimes",
          "type": "uint256[]"
        }
      ],
      "name": "addScheduleMulti",
      "outputs": [],
      "payable": false,
      "stateMutability": "nonpayable",
      "type": "function"
    },
    {
      "constant": false,
      "inputs": [
        {
          "name": "_beneficiaries",
          "type": "address[]"
        },
        {
          "name": "_templateNames",
          "type": "bytes32[]"
        },
        {
          "name": "_startTimes",
          "type": "uint256[]"
        }
      ],
      "name": "addScheduleFromTemplateMulti",
      "outputs": [],
      "payable": false,
      "stateMutability": "nonpayable",
      "type": "function"
    },
    {
      "constant": false,
      "inputs": [
        {
          "name": "_beneficiaries",
          "type": "address[]"
        }
      ],
      "name": "revokeSchedulesMulti",
      "outputs": [],
      "payable": false,
      "stateMutability": "nonpayable",
      "type": "function"
    },
    {
      "constant": false,
      "inputs": [
        {
          "name": "_beneficiaries",
          "type": "address[]"
        },
        {
          "name": "_templateNames",
          "type": "bytes32[]"
        },
        {
          "name": "_startTimes",
          "type": "uint256[]"
        }
      ],
      "name": "modifyScheduleMulti",
      "outputs": [],
      "payable": false,
      "stateMutability": "nonpayable",
      "type": "function"
    },
    {
      "constant": true,
      "inputs": [],
      "name": "getPermissions",
      "outputs": [
        {
          "name": "",
          "type": "bytes32[]"
        }
      ],
      "payable": false,
      "stateMutability": "view",
      "type": "function"
    }
  ],
  "bytecode": "0x6080604052600d805460a060020a60ff021916905534801561002057600080fd5b50604051604080614dfd833981016040528051602090910151600c8054600160a060020a03938416600160a060020a031991821617909155600b8054821633179055600d8054939092169216919091179055614d7c806100816000396000f3006080604052600436106101c95763ffffffff60e060020a6000350416631613ec9d81146101ce578063240894aa1461021857806327461e621461024b5780632a0acc6a146102745780632d846f611461028957806331677471146102b0578063398c5b05146103155780633f4ba83a146104875780634626402b1461049c57806347e09a0b146104cd57806347e3fd87146104e55780635016959a146104fa578063537c1ac71461050f5780635c975abb146105305780635f7619a41461055957806368896fa3146105715780636faa22a51461059557806375cb2672146105aa5780637bc11465146105cb5780638456cb59146105ec578063854e968214610601578063903f1f3c146106435780639c3b6757146106ae5780639ccd86cc146106de578063a29f7533146107a5578063b84dfbd2146107c0578063c05b21ce146107d5578063c3a07df6146107ea578063c45a0155146107ff578063c8bfe26914610814578063ca0337e81461084c578063d5d0fb541461086d578063d70afa961461088e578063dbcddeb5146108a3578063dd49756e146108bb578063e6263df0146108d3578063e842abe8146108f4578063efeb5e581461090c578063f1d7fe5214610924575b600080fd5b3480156101da57600080fd5b506101e3610944565b604080517fffffffff000000000000000000000000000000000000000000000000000000009092168252519081900360200190f35b34801561022457600080fd5b50610239600160a060020a036004351661097a565b60408051918252519081900360200190f35b34801561025757600080fd5b50610272600160a060020a03600435166024356044356109e6565b005b34801561028057600080fd5b50610239610b7c565b34801561029557600080fd5b50610272600160a060020a0360043516602435604435610b8b565b3480156102bc57600080fd5b506102c5610d19565b60408051602080825283518183015283519192839290830191858101910280838360005b838110156103015781810151838201526020016102e9565b505050509050019250505060405180910390f35b34801561032157600080fd5b506040805160206004803580820135838102808601850190965280855261027295369593946024949385019291829185019084908082843750506040805187358901803560208181028481018201909552818452989b9a998901989297509082019550935083925085019084908082843750506040805187358901803560208181028481018201909552818452989b9a998901989297509082019550935083925085019084908082843750506040805187358901803560208181028481018201909552818452989b9a998901989297509082019550935083925085019084908082843750506040805187358901803560208181028481018201909552818452989b9a998901989297509082019550935083925085019084908082843750506040805187358901803560208181028481018201909552818452989b9a998901989297509082019550935083925085019084908082843750949750610d729650505050505050565b34801561049357600080fd5b50610272611043565b3480156104a857600080fd5b506104b161112b565b60408051600160a060020a039092168252519081900360200190f35b3480156104d957600080fd5b5061027260043561113a565b3480156104f157600080fd5b5061023961148b565b34801561050657600080fd5b50610239611491565b34801561051b57600080fd5b50610272600160a060020a0360043516611497565b34801561053c57600080fd5b50610545611601565b604080519115158252519081900360200190f35b34801561056557600080fd5b50610545600435611622565b34801561057d57600080fd5b50610272600160a060020a036004351660243561193a565b3480156105a157600080fd5b506104b1611b98565b3480156105b657600080fd5b50610272600160a060020a0360043516611ba7565b3480156105d757600080fd5b506102c5600160a060020a0360043516611c86565b3480156105f857600080fd5b50610272611d41565b34801561060d57600080fd5b50610625600160a060020a0360043516602435611e27565b60408051938452602084019290925282820152519081900360600190f35b34801561064f57600080fd5b50610667600160a060020a0360043516602435611e68565b6040518087815260200186815260200185815260200184815260200183815260200182600281111561069557fe5b60ff168152602001965050505050505060405180910390f35b3480156106ba57600080fd5b50610272600160a060020a036004351660243560443560643560843560a435611f4c565b3480156106ea57600080fd5b506040805160206004803580820135838102808601850190965280855261027295369593946024949385019291829185019084908082843750506040805187358901803560208181028481018201909552818452989b9a998901989297509082019550935083925085019084908082843750506040805187358901803560208181028481018201909552818452989b9a9989019892975090820195509350839250850190849080828437509497506120e89650505050505050565b3480156107b157600080fd5b50610272600435602435612347565b3480156107cc57600080fd5b506104b16125a9565b3480156107e157600080fd5b506102726125b8565b3480156107f657600080fd5b506102c56125c1565b34801561080b57600080fd5b506104b1612613565b34801561082057600080fd5b506102726024600480358281019290820135918135808301929082013591604435918201910135612622565b34801561085857600080fd5b50610272600435602435604435606435612872565b34801561087957600080fd5b50610272600160a060020a0360043516612a01565b34801561089a57600080fd5b50610239612b93565b3480156108af57600080fd5b50610272600435612bb7565b3480156108c757600080fd5b50610272600435612f52565b3480156108df57600080fd5b50610272600160a060020a03600435166130de565b34801561090057600080fd5b5061023960043561326a565b34801561091857600080fd5b506104b1600435613289565b34801561093057600080fd5b5061027260048035602481019101356132b1565b604080517f636f6e6669677572652861646472657373290000000000000000000000000000815290519081900360120190205b90565b6000600160a060020a03821615156109ca576040805160e560020a62461bcd02815260206004820152600f6024820152600080516020614d11833981519152604482015290519081900360640190fd5b50600160a060020a031660009081526004602052604090205490565b60d960020a6420a226a4a702600080600c60009054906101000a9004600160a060020a0316600160a060020a0316638da5cb5b6040518163ffffffff1660e060020a028152600401602060405180830381600087803b158015610a4857600080fd5b505af1158015610a5c573d6000803e3d6000fd5b505050506040513d6020811015610a7257600080fd5b5051600b5433600160a060020a039283168114945091161490508180610a955750805b80610b255750600c546040805160e060020a638658b8b9028152336004820152306024820152604481018690529051600160a060020a0390921691638658b8b9916064808201926020929091908290030181600087803b158015610af857600080fd5b505af1158015610b0c573d6000803e3d6000fd5b505050506040513d6020811015610b2257600080fd5b50515b1515610b69576040805160e560020a62461bcd0281526020600482015260176024820152600080516020614d31833981519152604482015290519081900360640190fd5b610b74868686613472565b505050505050565b60d960020a6420a226a4a70281565b60d960020a6420a226a4a702600080600c60009054906101000a9004600160a060020a0316600160a060020a0316638da5cb5b6040518163ffffffff1660e060020a028152600401602060405180830381600087803b158015610bed57600080fd5b505af1158015610c01573d6000803e3d6000fd5b505050506040513d6020811015610c1757600080fd5b5051600b5433600160a060020a039283168114945091161490508180610c3a5750805b80610cca5750600c546040805160e060020a638658b8b9028152336004820152306024820152604481018690529051600160a060020a0390921691638658b8b9916064808201926020929091908290030181600087803b158015610c9d57600080fd5b505af1158015610cb1573d6000803e3d6000fd5b505050506040513d6020811015610cc757600080fd5b50515b1515610d0e576040805160e560020a62461bcd0281526020600482015260176024820152600080516020614d31833981519152604482015290519081900360640190fd5b610b74868686613841565b6060600a805480602002602001604051908101604052809291908181526020018280548015610d6857602002820191906000526020600020905b81548152600190910190602001808311610d53575b5050505050905090565b600060d960020a6420a226a4a702600080600c60009054906101000a9004600160a060020a0316600160a060020a0316638da5cb5b6040518163ffffffff1660e060020a028152600401602060405180830381600087803b158015610dd657600080fd5b505af1158015610dea573d6000803e3d6000fd5b505050506040513d6020811015610e0057600080fd5b5051600b5433600160a060020a039283168114945091161490508180610e235750805b80610eb35750600c546040805160e060020a638658b8b9028152336004820152306024820152604481018690529051600160a060020a0390921691638658b8b9916064808201926020929091908290030181600087803b158015610e8657600080fd5b505af1158015610e9a573d6000803e3d6000fd5b505050506040513d6020811015610eb057600080fd5b50515b1515610ef7576040805160e560020a62461bcd0281526020600482015260176024820152600080516020614d31833981519152604482015290519081900360640190fd5b88518a51148015610f09575087518a51145b8015610f16575086518a51145b8015610f23575085518a51145b8015610f30575084518a51145b1515610f86576040805160e560020a62461bcd02815260206004820152601560248201527f4172726179732073697a6573206d69736d617463680000000000000000000000604482015290519081900360640190fd5b600093505b89518410156110375761102c8a85815181101515610fa557fe5b906020019060200201518a86815181101515610fbd57fe5b906020019060200201518a87815181101515610fd557fe5b906020019060200201518a88815181101515610fed57fe5b906020019060200201518a8981518110151561100557fe5b906020019060200201518a8a81518110151561101d57fe5b906020019060200201516139a1565b600190930192610f8b565b50505050505050505050565b600c60009054906101000a9004600160a060020a0316600160a060020a0316638da5cb5b6040518163ffffffff1660e060020a028152600401602060405180830381600087803b15801561109657600080fd5b505af11580156110aa573d6000803e3d6000fd5b505050506040513d60208110156110c057600080fd5b5051600160a060020a03163314611121576040805160e560020a62461bcd02815260206004820152601360248201527f53656e646572206973206e6f74206f776e657200000000000000000000000000604482015290519081900360640190fd5b6111296139b8565b565b600154600160a060020a031681565b600060d960020a6420a226a4a702600080600c60009054906101000a9004600160a060020a0316600160a060020a0316638da5cb5b6040518163ffffffff1660e060020a028152600401602060405180830381600087803b15801561119e57600080fd5b505af11580156111b2573d6000803e3d6000fd5b505050506040513d60208110156111c857600080fd5b5051600b5433600160a060020a0392831681149450911614905081806111eb5750805b8061127b5750600c546040805160e060020a638658b8b9028152336004820152306024820152604481018690529051600160a060020a0390921691638658b8b9916064808201926020929091908290030181600087803b15801561124e57600080fd5b505af1158015611262573d6000803e3d6000fd5b505050506040513d602081101561127857600080fd5b50515b15156112bf576040805160e560020a62461bcd0281526020600482015260176024820152600080516020614d31833981519152604482015290519081900360640190fd5b6112c885613a7f565b151561131e576040805160e560020a62461bcd02815260206004820152601260248201527f54656d706c617465206e6f7420666f756e640000000000000000000000000000604482015290519081900360640190fd5b60008581526007602052604090205415611382576040805160e560020a62461bcd02815260206004820152601060248201527f54656d706c617465206973207573656400000000000000000000000000000000604482015290519081900360640190fd5b600085815260096020526040902060030154600a5490945060001901841461141657600a805460001981019081106113b657fe5b9060005260206000200154600a858154811015156113d057fe5b9060005260206000200181600019169055508360096000600a878154811015156113f657fe5b600091825260208083209091015483528201929092526040019020600301555b600a805490611429906000198301614bf8565b506000858152600960209081526040808320838155600181018490556002810184905560030192909255815187815291517f0f4b5905c7417477d4e63ba0e4d3e6172d2baa01319ce72ffcb8b9e5a69e9c9e9281900390910190a15050505050565b60005481565b600a5490565b600c60009054906101000a9004600160a060020a0316600160a060020a0316638da5cb5b6040518163ffffffff1660e060020a028152600401602060405180830381600087803b1580156114ea57600080fd5b505af11580156114fe573d6000803e3d6000fd5b505050506040513d602081101561151457600080fd5b5051600160a060020a03163314611575576040805160e560020a62461bcd02815260206004820152601360248201527f53656e646572206973206e6f74206f776e657200000000000000000000000000604482015290519081900360640190fd5b600160a060020a038116151561158a57600080fd5b60015460408051600160a060020a038085168252909216602083015280517f419d718138b0b65d09976f881eed8b8d7075d4b6092f74af0a0ec9b3417cdd129281900390910190a16001805473ffffffffffffffffffffffffffffffffffffffff1916600160a060020a0392909216919091179055565b600d5474010000000000000000000000000000000000000000900460ff1681565b60007f4645455f41444d494e0000000000000000000000000000000000000000000000600080600c60009054906101000a9004600160a060020a0316600160a060020a0316638da5cb5b6040518163ffffffff1660e060020a028152600401602060405180830381600087803b15801561169b57600080fd5b505af11580156116af573d6000803e3d6000fd5b505050506040513d60208110156116c557600080fd5b5051600b5433600160a060020a0392831681149450911614905081806116e85750805b806117785750600c546040805160e060020a638658b8b9028152336004820152306024820152604481018690529051600160a060020a0390921691638658b8b9916064808201926020929091908290030181600087803b15801561174b57600080fd5b505af115801561175f573d6000803e3d6000fd5b505050506040513d602081101561177557600080fd5b50515b15156117bc576040805160e560020a62461bcd0281526020600482015260176024820152600080516020614d31833981519152604482015290519081900360640190fd5b600d54600c54600b54604080517f8da5cb5b0000000000000000000000000000000000000000000000000000000081529051600160a060020a03948516946323b872dd948116931691638da5cb5b9160048083019260209291908290030181600087803b15801561182c57600080fd5b505af1158015611840573d6000803e3d6000fd5b505050506040513d602081101561185657600080fd5b50516040805160e060020a63ffffffff8616028152600160a060020a039384166004820152929091166024830152604482018990525160648083019260209291908290030181600087803b1580156118ad57600080fd5b505af11580156118c1573d6000803e3d6000fd5b505050506040513d60208110156118d757600080fd5b5051151561192f576040805160e560020a62461bcd02815260206004820152601260248201527f556e61626c6520746f2074616b65206665650000000000000000000000000000604482015290519081900360640190fd5b506001949350505050565b60008060d960020a6420a226a4a702600080600c60009054906101000a9004600160a060020a0316600160a060020a0316638da5cb5b6040518163ffffffff1660e060020a028152600401602060405180830381600087803b15801561199f57600080fd5b505af11580156119b3573d6000803e3d6000fd5b505050506040513d60208110156119c957600080fd5b5051600b5433600160a060020a0392831681149450911614905081806119ec5750805b80611a7c5750600c546040805160e060020a638658b8b9028152336004820152306024820152604481018690529051600160a060020a0390921691638658b8b9916064808201926020929091908290030181600087803b158015611a4f57600080fd5b505af1158015611a63573d6000803e3d6000fd5b505050506040513d6020811015611a7957600080fd5b50515b1515611ac0576040805160e560020a62461bcd0281526020600482015260176024820152600080516020614d31833981519152604482015290519081900360640190fd5b611aca8787613a92565b600160a060020a03871660009081526006602090815260408083208984529091529020549450611afa8786613bb0565b611b048786613d82565b600087815260096020526040902054909450611b3990611b2a908663ffffffff613eb916565b6000549063ffffffff613ed016565b600055611b468787613edd565b611b508787614085565b604080518781529051600160a060020a038916917ff6951dfc535940817b728cd31be985822017a92da785f665f5767f60203f9fdd919081900360200190a250505050505050565b600d54600160a060020a031681565b600b54600160a060020a03163314611c09576040805160e560020a62461bcd02815260206004820152601560248201527f53656e646572206973206e6f7420666163746f72790000000000000000000000604482015290519081900360640190fd5b600160a060020a0381161515611c57576040805160e560020a62461bcd02815260206004820152600f6024820152600080516020614d11833981519152604482015290519081900360640190fd5b6001805473ffffffffffffffffffffffffffffffffffffffff1916600160a060020a0392909216919091179055565b6060600160a060020a0382161515611cd6576040805160e560020a62461bcd02815260206004820152600f6024820152600080516020614d11833981519152604482015290519081900360640190fd5b600160a060020a03821660009081526005602090815260409182902080548351818402810184019094528084529091830182828015611d3557602002820191906000526020600020905b81548152600190910190602001808311611d20575b50505050509050919050565b600c60009054906101000a9004600160a060020a0316600160a060020a0316638da5cb5b6040518163ffffffff1660e060020a028152600401602060405180830381600087803b158015611d9457600080fd5b505af1158015611da8573d6000803e3d6000fd5b505050506040513d6020811015611dbe57600080fd5b5051600160a060020a03163314611e1f576040805160e560020a62461bcd02815260206004820152601360248201527f53656e646572206973206e6f74206f776e657200000000000000000000000000604482015290519081900360640190fd5b6111296141db565b600460205281600052604060002081815481101515611e4257fe5b600091825260209091206003909102018054600182015460029092015490935090915083565b6000806000806000806000611e7b614c1c565b611e858a8a613a92565b600160a060020a038a1660008181526006602090815260408083208d84528252808320549383526004909152902080549193509083908110611ec357fe5b6000918252602080832060408051606081018252600390940290910180548085526001808301548686019081526002938401548786019081529288526009909552838720548651885284882090910154865188529390962090910154905192519395509092909190611f358f8f6142b8565b949f939e50919c509a509850909650945050505050565b60d960020a6420a226a4a702600080600c60009054906101000a9004600160a060020a0316600160a060020a0316638da5cb5b6040518163ffffffff1660e060020a028152600401602060405180830381600087803b158015611fae57600080fd5b505af1158015611fc2573d6000803e3d6000fd5b505050506040513d6020811015611fd857600080fd5b5051600b5433600160a060020a039283168114945091161490508180611ffb5750805b8061208b5750600c546040805160e060020a638658b8b9028152336004820152306024820152604481018690529051600160a060020a0390921691638658b8b9916064808201926020929091908290030181600087803b15801561205e57600080fd5b505af1158015612072573d6000803e3d6000fd5b505050506040513d602081101561208857600080fd5b50515b15156120cf576040805160e560020a62461bcd0281526020600482015260176024820152600080516020614d31833981519152604482015290519081900360640190fd5b6120dd8989898989896139a1565b505050505050505050565b600060d960020a6420a226a4a702600080600c60009054906101000a9004600160a060020a0316600160a060020a0316638da5cb5b6040518163ffffffff1660e060020a028152600401602060405180830381600087803b15801561214c57600080fd5b505af1158015612160573d6000803e3d6000fd5b505050506040513d602081101561217657600080fd5b5051600b5433600160a060020a0392831681149450911614905081806121995750805b806122295750600c546040805160e060020a638658b8b9028152336004820152306024820152604481018690529051600160a060020a0390921691638658b8b9916064808201926020929091908290030181600087803b1580156121fc57600080fd5b505af1158015612210573d6000803e3d6000fd5b505050506040513d602081101561222657600080fd5b50515b151561226d576040805160e560020a62461bcd0281526020600482015260176024820152600080516020614d31833981519152604482015290519081900360640190fd5b8551875114801561227f575084518751145b15156122d5576040805160e560020a62461bcd02815260206004820152601560248201527f4172726179732073697a6573206d69736d617463680000000000000000000000604482015290519081900360640190fd5b600093505b865184101561233e5761233387858151811015156122f457fe5b90602001906020020151878681518110151561230c57fe5b90602001906020020151878781518110151561232457fe5b90602001906020020151613841565b6001909301926122da565b50505050505050565b600060d960020a6420a226a4a702600080600c60009054906101000a9004600160a060020a0316600160a060020a0316638da5cb5b6040518163ffffffff1660e060020a028152600401602060405180830381600087803b1580156123ab57600080fd5b505af11580156123bf573d6000803e3d6000fd5b505050506040513d60208110156123d557600080fd5b5051600b5433600160a060020a0392831681149450911614905081806123f85750805b806124885750600c546040805160e060020a638658b8b9028152336004820152306024820152604481018690529051600160a060020a0390921691638658b8b9916064808201926020929091908290030181600087803b15801561245b57600080fd5b505af115801561246f573d6000803e3d6000fd5b505050506040513d602081101561248557600080fd5b50515b15156124cc576040805160e560020a62461bcd0281526020600482015260176024820152600080516020614d31833981519152604482015290519081900360640190fd5b6002546000190185111561252a576040805160e560020a62461bcd02815260206004820152601260248201527f4172726179206f7574206f6620626f756e640000000000000000000000000000604482015290519081900360640190fd5b8593505b848411610b74576004600060028681548110151561254857fe5b6000918252602080832090910154600160a060020a031683528201929092526040019020541561259e5761259e60028581548110151561258457fe5b600091825260209091200154600160a060020a03166130de565b60019093019261252e565b600c54600160a060020a031681565b611129336143a9565b6040805160018082528183019092526060918291906020808301908038833901905050905060d960020a6420a226a4a70281600081518110151561260157fe5b602090810290910101529050805b5090565b600b54600160a060020a031681565b600060d960020a6420a226a4a702600080600c60009054906101000a9004600160a060020a0316600160a060020a0316638da5cb5b6040518163ffffffff1660e060020a028152600401602060405180830381600087803b15801561268657600080fd5b505af115801561269a573d6000803e3d6000fd5b505050506040513d60208110156126b057600080fd5b5051600b5433600160a060020a0392831681149450911614905081806126d35750805b806127635750600c546040805160e060020a638658b8b9028152336004820152306024820152604481018690529051600160a060020a0390921691638658b8b9916064808201926020929091908290030181600087803b15801561273657600080fd5b505af115801561274a573d6000803e3d6000fd5b505050506040513d602081101561276057600080fd5b50515b15156127a7576040805160e560020a62461bcd0281526020600482015260176024820152600080516020614d31833981519152604482015290519081900360640190fd5b88871480156127b557508885145b151561280b576040805160e560020a62461bcd02815260206004820152601560248201527f4172726179732073697a6573206d69736d617463680000000000000000000000604482015290519081900360640190fd5b600093505b88841015611037576128678a8a8681811061282757fe5b90506020020135600160a060020a0316898987818110151561284557fe5b6020029190910135905088888881811061285b57fe5b90506020020135613472565b600190930192612810565b60d960020a6420a226a4a702600080600c60009054906101000a9004600160a060020a0316600160a060020a0316638da5cb5b6040518163ffffffff1660e060020a028152600401602060405180830381600087803b1580156128d457600080fd5b505af11580156128e8573d6000803e3d6000fd5b505050506040513d60208110156128fe57600080fd5b5051600b5433600160a060020a0392831681149450911614905081806129215750805b806129b15750600c546040805160e060020a638658b8b9028152336004820152306024820152604481018690529051600160a060020a0390921691638658b8b9916064808201926020929091908290030181600087803b15801561298457600080fd5b505af1158015612998573d6000803e3d6000fd5b505050506040513d60208110156129ae57600080fd5b50515b15156129f5576040805160e560020a62461bcd0281526020600482015260176024820152600080516020614d31833981519152604482015290519081900360640190fd5b61233e878787876143e2565b60d960020a6420a226a4a702600080600c60009054906101000a9004600160a060020a0316600160a060020a0316638da5cb5b6040518163ffffffff1660e060020a028152600401602060405180830381600087803b158015612a6357600080fd5b505af1158015612a77573d6000803e3d6000fd5b505050506040513d6020811015612a8d57600080fd5b5051600b5433600160a060020a039283168114945091161490508180612ab05750805b80612b405750600c546040805160e060020a638658b8b9028152336004820152306024820152604481018690529051600160a060020a0390921691638658b8b9916064808201926020929091908290030181600087803b158015612b1357600080fd5b505af1158015612b27573d6000803e3d6000fd5b505050506040513d6020811015612b3d57600080fd5b50515b1515612b84576040805160e560020a62461bcd0281526020600482015260176024820152600080516020614d31833981519152604482015290519081900360640190fd5b612b8d84614572565b50505050565b7f4645455f41444d494e000000000000000000000000000000000000000000000081565b600060d960020a6420a226a4a702600080600c60009054906101000a9004600160a060020a0316600160a060020a0316638da5cb5b6040518163ffffffff1660e060020a028152600401602060405180830381600087803b158015612c1b57600080fd5b505af1158015612c2f573d6000803e3d6000fd5b505050506040513d6020811015612c4557600080fd5b5051600b5433600160a060020a039283168114945091161490508180612c685750805b80612cf85750600c546040805160e060020a638658b8b9028152336004820152306024820152604481018690529051600160a060020a0390921691638658b8b9916064808201926020929091908290030181600087803b158015612ccb57600080fd5b505af1158015612cdf573d6000803e3d6000fd5b505050506040513d6020811015612cf557600080fd5b50515b1515612d3c576040805160e560020a62461bcd0281526020600482015260176024820152600080516020614d31833981519152604482015290519081900360640190fd5b60008511612d94576040805160e560020a62461bcd02815260206004820152601560248201527f416d6f756e742063616e6e6f74206265207a65726f0000000000000000000000604482015290519081900360640190fd5b600054851115612e14576040805160e560020a62461bcd02815260206004820152602860248201527f416d6f756e742069732067726561746572207468616e20756e61737369676e6560448201527f6420746f6b656e73000000000000000000000000000000000000000000000000606482015290519081900360840190fd5b60008054818055600c54600154604080517fa9059cbb000000000000000000000000000000000000000000000000000000008152600160a060020a03928316600482015260248101859052905193985091169263a9059cbb926044808401936020939083900390910190829087803b158015612e8f57600080fd5b505af1158015612ea3573d6000803e3d6000fd5b505050506040513d6020811015612eb957600080fd5b50511515612f11576040805160e560020a62461bcd02815260206004820152600f60248201527f5472616e73666572206661696c65640000000000000000000000000000000000604482015290519081900360640190fd5b6040805185815233602082015281517fc8a407a238603428d072e9897a2c1c8a849419a45e44003118cb448aab7b1e60929181900390910190a15050505050565b60d960020a6420a226a4a702600080600c60009054906101000a9004600160a060020a0316600160a060020a0316638da5cb5b6040518163ffffffff1660e060020a028152600401602060405180830381600087803b158015612fb457600080fd5b505af1158015612fc8573d6000803e3d6000fd5b505050506040513d6020811015612fde57600080fd5b5051600b5433600160a060020a0392831681149450911614905081806130015750805b806130915750600c546040805160e060020a638658b8b9028152336004820152306024820152604481018690529051600160a060020a0390921691638658b8b9916064808201926020929091908290030181600087803b15801561306457600080fd5b505af1158015613078573d6000803e3d6000fd5b505050506040513d602081101561308e57600080fd5b50515b15156130d5576040805160e560020a62461bcd0281526020600482015260176024820152600080516020614d31833981519152604482015290519081900360640190fd5b612b8d8461477d565b60d960020a6420a226a4a702600080600c60009054906101000a9004600160a060020a0316600160a060020a0316638da5cb5b6040518163ffffffff1660e060020a028152600401602060405180830381600087803b15801561314057600080fd5b505af1158015613154573d6000803e3d6000fd5b505050506040513d602081101561316a57600080fd5b5051600b5433600160a060020a03928316811494509116149050818061318d5750805b8061321d5750600c546040805160e060020a638658b8b9028152336004820152306024820152604481018690529051600160a060020a0390921691638658b8b9916064808201926020929091908290030181600087803b1580156131f057600080fd5b505af1158015613204573d6000803e3d6000fd5b505050506040513d602081101561321a57600080fd5b50515b1515613261576040805160e560020a62461bcd0281526020600482015260176024820152600080516020614d31833981519152604482015290519081900360640190fd5b612b8d846143a9565b600a80548290811061327857fe5b600091825260209091200154905081565b600280548290811061329757fe5b600091825260209091200154600160a060020a0316905081565b600060d960020a6420a226a4a702600080600c60009054906101000a9004600160a060020a0316600160a060020a0316638da5cb5b6040518163ffffffff1660e060020a028152600401602060405180830381600087803b15801561331557600080fd5b505af1158015613329573d6000803e3d6000fd5b505050506040513d602081101561333f57600080fd5b5051600b5433600160a060020a0392831681149450911614905081806133625750805b806133f25750600c546040805160e060020a638658b8b9028152336004820152306024820152604481018690529051600160a060020a0390921691638658b8b9916064808201926020929091908290030181600087803b1580156133c557600080fd5b505af11580156133d9573d6000803e3d6000fd5b505050506040513d60208110156133ef57600080fd5b50515b1515613436576040805160e560020a62461bcd0281526020600482015260176024820152600080516020614d31833981519152604482015290519081900360640190fd5b600093505b84841015610b745761346786868681811061345257fe5b90506020020135600160a060020a0316614572565b60019093019261343b565b600080600160a060020a03851615156134c3576040805160e560020a62461bcd02815260206004820152600f6024820152600080516020614d11833981519152604482015290519081900360640190fd5b6134cc84613a7f565b1515613522576040805160e560020a62461bcd02815260206004820152601260248201527f54656d706c617465206e6f7420666f756e640000000000000000000000000000604482015290519081900360640190fd5b600160a060020a0385166000818152600660209081526040808320888452825280832054938352600490915290205490925015806135965750600160a060020a038516600090815260046020526040902080548591908490811061358257fe5b600091825260209091206003909102015414155b15156135ec576040805160e560020a62461bcd02815260206004820152600d60248201527f416c726561647920616464656400000000000000000000000000000000000000604482015290519081900360640190fd5b42831015613644576040805160e560020a62461bcd02815260206004820152601060248201527f4461746520696e20746865207061737400000000000000000000000000000000604482015290519081900360640190fd5b50600083815260096020526040812054905481111561367a5761367a61367560005483613eb990919063ffffffff16565b61477d565b60005461368d908263ffffffff613eb916565b6000908155600160a060020a03861681526003602052604090205460ff161515613722576002805460018082019092557f405787fa12a823e0f2b7631cc41b3ba8828b3321ca811111fa75cd3aa3bb5ace01805473ffffffffffffffffffffffffffffffffffffffff1916600160a060020a0388169081179091556000908152600360205260409020805460ff191690911790555b600160a060020a038516600081815260046020908152604080832081516060810183528981528084018581528184018a815283546001818101865585895287892094516003909202909401908155915182840155516002909101558585526005845282852080548083018255908652848620018a90558585529054600684528285208a8652845282852060001991820190556007845282852080549283018155808652848620909201805473ffffffffffffffffffffffffffffffffffffffff1916871790558985529054600884528285208686528452938290209301909255815187815290810186905281517f0648acb820848a9d35db819b88d57fa03da7cd8ec5c0b249ea760b2b9e30b767929181900390910190a25050505050565b60008061384e8585613a92565b4283116138a5576040805160e560020a62461bcd02815260206004820152601060248201527f4461746520696e20746865207061737400000000000000000000000000000000604482015290519081900360640190fd5b600160a060020a038516600081815260066020908152604080832088845282528083205493835260049091529020805491935090839081106138e357fe5b90600052602060002090600302019050806002015442101515613950576040805160e560020a62461bcd02815260206004820152601060248201527f5363686564756c65207374617274656400000000000000000000000000000000604482015290519081900360640190fd5b6002810183905560408051858152602081018590528151600160a060020a038816927fab4b7762ecf86a0c9db600ac2450e7bfcfe5c374be6079054cff3d57aa4ed492928290030190a25050505050565b6139ad858585856143e2565b610b74868683613472565b600d5474010000000000000000000000000000000000000000900460ff161515613a2c576040805160e560020a62461bcd02815260206004820152601660248201527f436f6e7472616374206973206e6f742070617573656400000000000000000000604482015290519081900360640190fd5b600d805474ff0000000000000000000000000000000000000000191690556040805142815290517faaa520fdd7d2c83061d632fa017b0432407e798818af63ea908589fceda39ab79181900360200190a1565b6000908152600960205260408120541190565b6000600160a060020a0383161515613ae2576040805160e560020a62461bcd02815260206004820152600f6024820152600080516020614d11833981519152604482015290519081900360640190fd5b50600160a060020a0382166000818152600660209081526040808320858452825280832054938352600490915290205481108015613b555750600160a060020a0383166000908152600460205260409020805483919083908110613b4257fe5b6000918252602090912060039091020154145b1515613bab576040805160e560020a62461bcd02815260206004820152601260248201527f5363686564756c65206e6f7420666f756e640000000000000000000000000000604482015290519081900360640190fd5b505050565b6000613bbc8383614943565b90506000811115613bab57600160a060020a03831660009081526004602052604090208054613c1191839185908110613bf157fe5b906000526020600020906003020160010154613ed090919063ffffffff16565b600160a060020a0384166000908152600460205260409020805484908110613c3557fe5b6000918252602080832060016003909302019190910192909255600c54604080517fa9059cbb000000000000000000000000000000000000000000000000000000008152600160a060020a038881166004830152602482018790529151919092169363a9059cbb936044808501949293928390030190829087803b158015613cbc57600080fd5b505af1158015613cd0573d6000803e3d6000fd5b505050506040513d6020811015613ce657600080fd5b50511515613d3e576040805160e560020a62461bcd02815260206004820152600f60248201527f5472616e73666572206661696c65640000000000000000000000000000000000604482015290519081900360640190fd5b604080518281529051600160a060020a038516917f09bd3894cb7ab22415416dac0fecc519855a4b0842f1c9115e562ef557ab577b919081900360200190a2505050565b6000613d8c614c1c565b613d94614c3c565b600160a060020a0385166000908152600460205260408120805482919087908110613dbb57fe5b60009182526020808320604080516060818101835260039586029093018054808352600180830154848801526002928301548486019081529189526009875297849020845160808101865281548152988101549689019690965290850154928701929092529290930154908401529051909550909350421115613eaa5760408301516020840151613e519163ffffffff6149df16565b9150613e7e8360400151613e72866040015142613eb990919063ffffffff16565b9063ffffffff6149df16565b905081811115613e8b5750805b8251613ea3908390613e72908463ffffffff6149f416565b9450613eaf565b600094505b5050505092915050565b600082821115613ec557fe5b508082035b92915050565b81810182811015613eca57fe5b600160a060020a038216600081815260066020908152604080832085845282528083205493835260049091529020805460001901821461402057805481906000198101908110613f2957fe5b90600052602060002090600302018183815481101515613f4557fe5b600091825260208083208454600390930201918255600180850154908301556002938401549390910192909255600160a060020a038616815260059091526040902080546000198101908110613f9757fe5b6000918252602080832090910154600160a060020a038716835260059091526040909120805484908110613fc757fe5b6000918252602080832090910192909255600160a060020a03861681526006909152604081208254849290849084908110613ffe57fe5b6000918252602080832060039092029091015483528201929092526040019020555b8054614030826000198301614c65565b50600160a060020a038416600090815260056020526040902080549061405a906000198301614bf8565b505050600160a060020a03909116600090815260066020908152604080832093835292905290812055565b6000818152600860209081526040808320600160a060020a0386168452825280832054848452600790925290912054600019018114614193576000828152600760205260409020805460001981019081106140dc57fe5b6000918252602080832090910154848352600790915260409091208054600160a060020a03909216918390811061410f57fe5b6000918252602080832091909101805473ffffffffffffffffffffffffffffffffffffffff1916600160a060020a03949094169390931790925583815260088252604080822060079093528120805484939291908490811061416d57fe5b6000918252602080832090910154600160a060020a031683528201929092526040019020555b60008281526007602052604090208054906141b2906000198301614bf8565b50506000908152600860209081526040808320600160a060020a03909416835292905290812055565b600d5474010000000000000000000000000000000000000000900460ff161561424e576040805160e560020a62461bcd02815260206004820152601260248201527f436f6e7472616374206973207061757365640000000000000000000000000000604482015290519081900360640190fd5b600d805474ff00000000000000000000000000000000000000001916740100000000000000000000000000000000000000001790556040805142815290517f68b095021b1f40fe513109f513c66692f0b3219aee674a69f4efc57badb8201d9181900360200190a1565b6000806142c3614c1c565b6142cd8585613a92565b600160a060020a0385166000818152600660209081526040808320888452825280832054938352600490915290208054919350908390811061430b57fe5b600091825260209182902060408051606081018252600390930290910180548352600181015493830193909352600290920154918101829052915042101561435657600092506143a1565b80604001514211801561438e575060008481526009602052604090819020600101549082015161438b9163ffffffff613ed016565b42105b1561439c57600192506143a1565b600292505b505092915050565b60005b600160a060020a0382166000908152600460205260409020548110156143de576143d68282613bb0565b6001016143ac565b5050565b831515614439576040805160e560020a62461bcd02815260206004820152600c60248201527f496e76616c6964206e616d650000000000000000000000000000000000000000604482015290519081900360640190fd5b61444284613a7f565b15614497576040805160e560020a62461bcd02815260206004820152600e60248201527f416c726561647920657869737473000000000000000000000000000000000000604482015290519081900360640190fd5b6144a2838383614a1d565b600a8054600181810183557fc65a7bb8d6351c1cf70c95a316cc6a92839c986682d98bc35f958f4883f9d2a890910186905560408051608081810183528782526020828101888152838501888152965460001901606080860191825260008d815260098552879020955186559151968501969096559551600284015593516003909201919091558151888152928301879052828201869052928201849052517ff75bc4d11761304615627f4baa68bba6604e74f1e2c5f877c2f041c2121bc364929181900390910190a150505050565b600080600061457f614c3c565b600160a060020a03851615156145cd576040805160e560020a62461bcd02815260206004820152600f6024820152600080516020614d11833981519152604482015290519081900360640190fd5b6145d6856143a9565b600160a060020a0385166000908152600460205260408120945092505b8354831015614700576146068584613d82565b915060096000858581548110151561461a57fe5b600091825260208083206003928302015484528381019490945260409283019091208251608081018452815480825260018301549582019590955260028201549381019390935201546060820152915061467e90611b2a908463ffffffff613eb916565b6000908155600160a060020a038616815260066020526040812085549091908690869081106146a957fe5b60009182526020808320600390920290910154835282019290925260400181205583546146f59086908690869081106146de57fe5b906000526020600020906003020160000154614085565b6001909201916145f3565b600160a060020a038516600090815260046020526040812061472191614c91565b600160a060020a038516600090815260056020526040812061474291614cb5565b604051600160a060020a038616907f39a1ff520337e493c93717a8b243770677c27d92e1f0aaff12452376c683460990600090a25050505050565b600081116147d5576040805160e560020a62461bcd02815260206004820152600d60248201527f53686f756c64206265203e203000000000000000000000000000000000000000604482015290519081900360640190fd5b600c54604080517f23b872dd000000000000000000000000000000000000000000000000000000008152336004820152306024820152604481018490529051600160a060020a03909216916323b872dd916064808201926020929091908290030181600087803b15801561484857600080fd5b505af115801561485c573d6000803e3d6000fd5b505050506040513d602081101561487257600080fd5b505115156148f0576040805160e560020a62461bcd02815260206004820152603960248201527f4661696c6564207472616e7366657246726f6d2064756520746f20696e73756660448201527f666963656e7420416c6c6f77616e63652070726f766964656400000000000000606482015290519081900360840190fd5b600054614903908263ffffffff613ed016565b6000556040805182815233602082015281517f836292ca682c8114ca41dff21057159782f24c693fe569d077e85d0d67ff1132929181900390910190a150565b600061494d614c1c565b600160a060020a038416600090815260046020526040812080548590811061497157fe5b9060005260206000209060030201606060405190810160405290816000820154600019166000191681526020016001820154815260200160028201548152505091506149bd8585613d82565b90506149d6826020015182613eb990919063ffffffff16565b95945050505050565b600081838115156149ec57fe5b049392505050565b6000821515614a0557506000613eca565b50818102818382811515614a1557fe5b0414613eca57fe5b600080808511614a77576040805160e560020a62461bcd02815260206004820152600b60248201527f5a65726f20616d6f756e74000000000000000000000000000000000000000000604482015290519081900360640190fd5b8284811515614a8257fe5b0615614ad8576040805160e560020a62461bcd02815260206004820152601160248201527f496e76616c6964206672657175656e6379000000000000000000000000000000604482015290519081900360640190fd5b614ae8848463ffffffff6149df16565b91508185811515614af557fe5b0615614b0057600080fd5b614b10858363ffffffff6149df16565b9050600c60009054906101000a9004600160a060020a0316600160a060020a031663556f0dc76040518163ffffffff1660e060020a028152600401602060405180830381600087803b158015614b6557600080fd5b505af1158015614b79573d6000803e3d6000fd5b505050506040513d6020811015614b8f57600080fd5b505181811515614b9b57fe5b0615614bf1576040805160e560020a62461bcd02815260206004820152601360248201527f496e76616c6964206772616e756c617269747900000000000000000000000000604482015290519081900360640190fd5b5050505050565b815481835581811115613bab57600083815260209020613bab918101908301614ccf565b604080516060810182526000808252602082018190529181019190915290565b608060405190810160405280600081526020016000815260200160008152602001600081525090565b815481835581811115613bab57600302816003028360005260206000209182019101613bab9190614ce9565b5080546000825560030290600052602060002090810190614cb29190614ce9565b50565b5080546000825590600052602060002090810190614cb291905b61097791905b8082111561260f5760008155600101614cd5565b61097791905b8082111561260f576000808255600182018190556002820155600301614cef5600496e76616c6964206164647265737300000000000000000000000000000000005065726d697373696f6e20636865636b206661696c6564000000000000000000a165627a7a7230582086924d2d5c441c278cd0319075e128fe8fc2798d15fa2b93b3d169e04e2962230029",
  "source": "pragma solidity ^0.4.24;\n\nimport \"openzeppelin-solidity/contracts/math/SafeMath.sol\";\nimport \"../../../storage/VestingEscrowWalletStorage.sol\";\nimport \"./IWallet.sol\";\n\n/**\n * @title Wallet for core vesting escrow functionality\n */\ncontract VestingEscrowWallet is VestingEscrowWalletStorage, IWallet {\n    using SafeMath for uint256;\n\n    bytes32 public constant ADMIN = \"ADMIN\";\n\n    // States used to represent the status of the schedule\n    enum State {CREATED, STARTED, COMPLETED}\n\n    // Emit when new schedule is added\n    event AddSchedule(\n        address indexed _beneficiary,\n        bytes32 _templateName,\n        uint256 _startTime\n    );\n    // Emit when schedule is modified\n    event ModifySchedule(\n        address indexed _beneficiary,\n        bytes32 _templateName,\n        uint256 _startTime\n    );\n    // Emit when all schedules are revoked for user\n    event RevokeAllSchedules(address indexed _beneficiary);\n    // Emit when schedule is revoked\n    event RevokeSchedule(address indexed _beneficiary, bytes32 _templateName);\n    // Emit when tokes are deposited to wallet\n    event DepositTokens(uint256 _numberOfTokens, address _sender);\n    // Emit when all unassigned tokens are sent to treasury\n    event SendToTreasury(uint256 _numberOfTokens, address _sender);\n    // Emit when is sent tokes to user\n    event SendTokens(address indexed _beneficiary, uint256 _numberOfTokens);\n    // Emit when template is added\n    event AddTemplate(bytes32 _name, uint256 _numberOfTokens, uint256 _duration, uint256 _frequency);\n    // Emit when template is removed\n    event RemoveTemplate(bytes32 _name);\n    // Emit when the treasury wallet gets changed\n    event TreasuryWalletChanged(address _newWallet, address _oldWallet);\n\n    /**\n     * @notice Constructor\n     * @param _securityToken Address of the security token\n     * @param _polyAddress Address of the polytoken\n     */\n    constructor (address _securityToken, address _polyAddress)\n    public\n    Module(_securityToken, _polyAddress)\n    {\n    }\n\n    /**\n     * @notice This function returns the signature of the configure function\n     */\n    function getInitFunction() public pure returns (bytes4) {\n        return bytes4(keccak256(\"configure(address)\"));\n    }\n\n    /**\n     * @notice Used to initialize the treasury wallet address\n     * @param _treasuryWallet Address of the treasury wallet\n     */\n    function configure(address _treasuryWallet) public onlyFactory {\n        require(_treasuryWallet != address(0), \"Invalid address\");\n        treasuryWallet = _treasuryWallet;\n    }\n\n    /**\n     * @notice Used to change the treasury wallet address\n     * @param _newTreasuryWallet Address of the treasury wallet\n     */\n    function changeTreasuryWallet(address _newTreasuryWallet) public onlyOwner {\n        require(_newTreasuryWallet != address(0));\n        emit TreasuryWalletChanged(_newTreasuryWallet, treasuryWallet);\n        treasuryWallet = _newTreasuryWallet;\n    }\n\n    /**\n     * @notice Used to deposit tokens from treasury wallet to the vesting escrow wallet\n     * @param _numberOfTokens Number of tokens that should be deposited\n     */\n    function depositTokens(uint256 _numberOfTokens) external withPerm(ADMIN) {\n        _depositTokens(_numberOfTokens);\n    }\n\n    function _depositTokens(uint256 _numberOfTokens) internal {\n        require(_numberOfTokens > 0, \"Should be > 0\");\n        require(\n            ISecurityToken(securityToken).transferFrom(msg.sender, address(this), _numberOfTokens),\n            \"Failed transferFrom due to insufficent Allowance provided\"\n        );\n        unassignedTokens = unassignedTokens.add(_numberOfTokens);\n        emit DepositTokens(_numberOfTokens, msg.sender);\n    }\n\n    /**\n     * @notice Sends unassigned tokens to the treasury wallet\n     * @param _amount Amount of tokens that should be send to the treasury wallet\n     */\n    function sendToTreasury(uint256 _amount) external withPerm(ADMIN) {\n        require(_amount > 0, \"Amount cannot be zero\");\n        require(_amount <= unassignedTokens, \"Amount is greater than unassigned tokens\");\n        uint256 amount = unassignedTokens;\n        unassignedTokens = 0;\n        require(ISecurityToken(securityToken).transfer(treasuryWallet, amount), \"Transfer failed\");\n        emit SendToTreasury(amount, msg.sender);\n    }\n\n    /**\n     * @notice Pushes available tokens to the beneficiary's address\n     * @param _beneficiary Address of the beneficiary who will receive tokens\n     */\n    function pushAvailableTokens(address _beneficiary) public withPerm(ADMIN) {\n        _sendTokens(_beneficiary);\n    }\n\n    /**\n     * @notice Used to withdraw available tokens by beneficiary\n     */\n    function pullAvailableTokens() external {\n        _sendTokens(msg.sender);\n    }\n\n    /**\n     * @notice Adds template that can be used for creating schedule\n     * @param _name Name of the template will be created\n     * @param _numberOfTokens Number of tokens that should be assigned to schedule\n     * @param _duration Duration of the vesting schedule\n     * @param _frequency Frequency of the vesting schedule\n     */\n    function addTemplate(bytes32 _name, uint256 _numberOfTokens, uint256 _duration, uint256 _frequency) external withPerm(ADMIN) {\n        _addTemplate(_name, _numberOfTokens, _duration, _frequency);\n    }\n\n    function _addTemplate(bytes32 _name, uint256 _numberOfTokens, uint256 _duration, uint256 _frequency) internal {\n        require(_name != bytes32(0), \"Invalid name\");\n        require(!_isTemplateExists(_name), \"Already exists\");\n        _validateTemplate(_numberOfTokens, _duration, _frequency);\n        templateNames.push(_name);\n        templates[_name] = Template(_numberOfTokens, _duration, _frequency, templateNames.length - 1);\n        emit AddTemplate(_name, _numberOfTokens, _duration, _frequency);\n    }\n\n    /**\n     * @notice Removes template with a given name\n     * @param _name Name of the template that will be removed\n     */\n    function removeTemplate(bytes32 _name) external withPerm(ADMIN) {\n        require(_isTemplateExists(_name), \"Template not found\");\n        require(templateToUsers[_name].length == 0, \"Template is used\");\n        uint256 index = templates[_name].index;\n        if (index != templateNames.length - 1) {\n            templateNames[index] = templateNames[templateNames.length - 1];\n            templates[templateNames[index]].index = index;\n        }\n        templateNames.length--;\n        // delete template data\n        delete templates[_name];\n        emit RemoveTemplate(_name);\n    }\n\n    /**\n     * @notice Returns count of the templates those can be used for creating schedule\n     * @return Count of the templates\n     */\n    function getTemplateCount() external view returns(uint256) {\n        return templateNames.length;\n    }\n\n    /**\n     * @notice Gets the list of the template names those can be used for creating schedule\n     * @return bytes32 Array of all template names were created\n     */\n    function getAllTemplateNames() external view returns(bytes32[]) {\n        return templateNames;\n    }\n\n    /**\n     * @notice Adds vesting schedules for each of the beneficiary's address\n     * @param _beneficiary Address of the beneficiary for whom it is scheduled\n     * @param _templateName Name of the template that will be created\n     * @param _numberOfTokens Total number of tokens for created schedule\n     * @param _duration Duration of the created vesting schedule\n     * @param _frequency Frequency of the created vesting schedule\n     * @param _startTime Start time of the created vesting schedule\n     */\n    function addSchedule(\n        address _beneficiary,\n        bytes32 _templateName,\n        uint256 _numberOfTokens,\n        uint256 _duration,\n        uint256 _frequency,\n        uint256 _startTime\n    )\n        external\n        withPerm(ADMIN)\n    {\n        _addSchedule(_beneficiary, _templateName, _numberOfTokens, _duration, _frequency, _startTime);\n    }\n\n    function _addSchedule(\n        address _beneficiary,\n        bytes32 _templateName,\n        uint256 _numberOfTokens,\n        uint256 _duration,\n        uint256 _frequency,\n        uint256 _startTime\n    )\n        internal\n    {\n        _addTemplate(_templateName, _numberOfTokens, _duration, _frequency);\n        _addScheduleFromTemplate(_beneficiary, _templateName, _startTime);\n    }\n\n    /**\n     * @notice Adds vesting schedules from template for the beneficiary\n     * @param _beneficiary Address of the beneficiary for whom it is scheduled\n     * @param _templateName Name of the exists template\n     * @param _startTime Start time of the created vesting schedule\n     */\n    function addScheduleFromTemplate(address _beneficiary, bytes32 _templateName, uint256 _startTime) external withPerm(ADMIN) {\n        _addScheduleFromTemplate(_beneficiary, _templateName, _startTime);\n    }\n\n    function _addScheduleFromTemplate(address _beneficiary, bytes32 _templateName, uint256 _startTime) internal {\n        require(_beneficiary != address(0), \"Invalid address\");\n        require(_isTemplateExists(_templateName), \"Template not found\");\n        uint256 index = userToTemplateIndex[_beneficiary][_templateName];\n        require(\n            schedules[_beneficiary].length == 0 ||\n            schedules[_beneficiary][index].templateName != _templateName,\n            \"Already added\"\n        );\n        require(_startTime >= now, \"Date in the past\");\n        uint256 numberOfTokens = templates[_templateName].numberOfTokens;\n        if (numberOfTokens > unassignedTokens) {\n            _depositTokens(numberOfTokens.sub(unassignedTokens));\n        }\n        unassignedTokens = unassignedTokens.sub(numberOfTokens);\n        if (!beneficiaryAdded[_beneficiary]) {\n            beneficiaries.push(_beneficiary);\n            beneficiaryAdded[_beneficiary] = true;\n        }\n        schedules[_beneficiary].push(Schedule(_templateName, 0, _startTime));\n        userToTemplates[_beneficiary].push(_templateName);\n        userToTemplateIndex[_beneficiary][_templateName] = schedules[_beneficiary].length - 1;\n        templateToUsers[_templateName].push(_beneficiary);\n        templateToUserIndex[_templateName][_beneficiary] = templateToUsers[_templateName].length - 1;\n        emit AddSchedule(_beneficiary, _templateName, _startTime);\n    }\n\n    /**\n     * @notice Modifies vesting schedules for each of the beneficiary\n     * @param _beneficiary Address of the beneficiary for whom it is modified\n     * @param _templateName Name of the template was used for schedule creation\n     * @param _startTime Start time of the created vesting schedule\n     */\n    function modifySchedule(address _beneficiary, bytes32 _templateName, uint256 _startTime) public withPerm(ADMIN) {\n        _modifySchedule(_beneficiary, _templateName, _startTime);\n    }\n\n    function _modifySchedule(address _beneficiary, bytes32 _templateName, uint256 _startTime) internal {\n        _checkSchedule(_beneficiary, _templateName);\n        require(_startTime > now, \"Date in the past\");\n        uint256 index = userToTemplateIndex[_beneficiary][_templateName];\n        Schedule storage schedule = schedules[_beneficiary][index];\n        /*solium-disable-next-line security/no-block-members*/\n        require(now < schedule.startTime, \"Schedule started\");\n        schedule.startTime = _startTime;\n        emit ModifySchedule(_beneficiary, _templateName, _startTime);\n    }\n\n    /**\n     * @notice Revokes vesting schedule with given template name for given beneficiary\n     * @param _beneficiary Address of the beneficiary for whom it is revoked\n     * @param _templateName Name of the template was used for schedule creation\n     */\n    function revokeSchedule(address _beneficiary, bytes32 _templateName) external withPerm(ADMIN) {\n        _checkSchedule(_beneficiary, _templateName);\n        uint256 index = userToTemplateIndex[_beneficiary][_templateName];\n        _sendTokensPerSchedule(_beneficiary, index);\n        uint256 releasedTokens = _getReleasedTokens(_beneficiary, index);\n        unassignedTokens = unassignedTokens.add(templates[_templateName].numberOfTokens.sub(releasedTokens));\n        _deleteUserToTemplates(_beneficiary, _templateName);\n        _deleteTemplateToUsers(_beneficiary, _templateName);\n        emit RevokeSchedule(_beneficiary, _templateName);\n    }\n\n    function _deleteUserToTemplates(address _beneficiary, bytes32 _templateName) internal {\n        uint256 index = userToTemplateIndex[_beneficiary][_templateName];\n        Schedule[] storage userSchedules = schedules[_beneficiary];\n        if (index != userSchedules.length - 1) {\n            userSchedules[index] = userSchedules[userSchedules.length - 1];\n            userToTemplates[_beneficiary][index] = userToTemplates[_beneficiary][userToTemplates[_beneficiary].length - 1];\n            userToTemplateIndex[_beneficiary][userSchedules[index].templateName] = index;\n        }\n        userSchedules.length--;\n        userToTemplates[_beneficiary].length--;\n        delete userToTemplateIndex[_beneficiary][_templateName];\n    }\n\n    function _deleteTemplateToUsers(address _beneficiary, bytes32 _templateName) internal {\n        uint256 templateIndex = templateToUserIndex[_templateName][_beneficiary];\n        if (templateIndex != templateToUsers[_templateName].length - 1) {\n            templateToUsers[_templateName][templateIndex] = templateToUsers[_templateName][templateToUsers[_templateName].length - 1];\n            templateToUserIndex[_templateName][templateToUsers[_templateName][templateIndex]] = templateIndex;\n        }\n        templateToUsers[_templateName].length--;\n        delete templateToUserIndex[_templateName][_beneficiary];\n    }\n\n    /**\n     * @notice Revokes all vesting schedules for given beneficiary's address\n     * @param _beneficiary Address of the beneficiary for whom all schedules will be revoked\n     */\n    function revokeAllSchedules(address _beneficiary) public withPerm(ADMIN) {\n        _revokeAllSchedules(_beneficiary);\n    }\n\n    function _revokeAllSchedules(address _beneficiary) internal {\n        require(_beneficiary != address(0), \"Invalid address\");\n        _sendTokens(_beneficiary);\n        Schedule[] storage userSchedules = schedules[_beneficiary];\n        for (uint256 i = 0; i < userSchedules.length; i++) {\n            uint256 releasedTokens = _getReleasedTokens(_beneficiary, i);\n            Template memory template = templates[userSchedules[i].templateName];\n            unassignedTokens = unassignedTokens.add(template.numberOfTokens.sub(releasedTokens));\n            delete userToTemplateIndex[_beneficiary][userSchedules[i].templateName];\n            _deleteTemplateToUsers(_beneficiary, userSchedules[i].templateName);\n        }\n        delete schedules[_beneficiary];\n        delete userToTemplates[_beneficiary];\n        emit RevokeAllSchedules(_beneficiary);\n    }\n\n    /**\n     * @notice Returns beneficiary's schedule created using template name\n     * @param _beneficiary Address of the beneficiary who will receive tokens\n     * @param _templateName Name of the template was used for schedule creation\n     * @return beneficiary's schedule data (numberOfTokens, duration, frequency, startTime, claimedTokens, State)\n     */\n    function getSchedule(address _beneficiary, bytes32 _templateName) external view returns(uint256, uint256, uint256, uint256, uint256, State) {\n        _checkSchedule(_beneficiary, _templateName);\n        uint256 index = userToTemplateIndex[_beneficiary][_templateName];\n        Schedule memory schedule = schedules[_beneficiary][index];\n        return (\n            templates[schedule.templateName].numberOfTokens,\n            templates[schedule.templateName].duration,\n            templates[schedule.templateName].frequency,\n            schedule.startTime,\n            schedule.claimedTokens,\n            _getScheduleState(_beneficiary, _templateName)\n        );\n    }\n\n    function _getScheduleState(address _beneficiary, bytes32 _templateName) internal view returns(State) {\n        _checkSchedule(_beneficiary, _templateName);\n        uint256 index = userToTemplateIndex[_beneficiary][_templateName];\n        Schedule memory schedule = schedules[_beneficiary][index];\n        if (now < schedule.startTime) {\n            return State.CREATED;\n        } else if (now > schedule.startTime && now < schedule.startTime.add(templates[_templateName].duration)) {\n            return State.STARTED;\n        } else {\n            return State.COMPLETED;\n        }\n    }\n\n    /**\n     * @notice Returns list of the template names for given beneficiary's address\n     * @param _beneficiary Address of the beneficiary\n     * @return List of the template names that were used for schedule creation\n     */\n    function getTemplateNames(address _beneficiary) external view returns(bytes32[]) {\n        require(_beneficiary != address(0), \"Invalid address\");\n        return userToTemplates[_beneficiary];\n    }\n\n    /**\n     * @notice Returns count of the schedules were created for given beneficiary\n     * @param _beneficiary Address of the beneficiary\n     * @return Count of beneficiary's schedules\n     */\n    function getScheduleCount(address _beneficiary) external view returns(uint256) {\n        require(_beneficiary != address(0), \"Invalid address\");\n        return schedules[_beneficiary].length;\n    }\n\n    function _getAvailableTokens(address _beneficiary, uint256 _index) internal view returns(uint256) {\n        Schedule memory schedule = schedules[_beneficiary][_index];\n        uint256 releasedTokens = _getReleasedTokens(_beneficiary, _index);\n        return releasedTokens.sub(schedule.claimedTokens);\n    }\n\n    function _getReleasedTokens(address _beneficiary, uint256 _index) internal view returns(uint256) {\n        Schedule memory schedule = schedules[_beneficiary][_index];\n        Template memory template = templates[schedule.templateName];\n        /*solium-disable-next-line security/no-block-members*/\n        if (now > schedule.startTime) {\n            uint256 periodCount = template.duration.div(template.frequency);\n            /*solium-disable-next-line security/no-block-members*/\n            uint256 periodNumber = (now.sub(schedule.startTime)).div(template.frequency);\n            if (periodNumber > periodCount) {\n                periodNumber = periodCount;\n            }\n            return template.numberOfTokens.mul(periodNumber).div(periodCount);\n        } else {\n            return 0;\n        }\n    }\n\n    /**\n     * @notice Used to bulk send available tokens for each of the beneficiaries\n     * @param _fromIndex Start index of array of beneficiary's addresses\n     * @param _toIndex End index of array of beneficiary's addresses\n     */\n    function pushAvailableTokensMulti(uint256 _fromIndex, uint256 _toIndex) external withPerm(ADMIN) {\n        require(_toIndex <= beneficiaries.length - 1, \"Array out of bound\");\n        for (uint256 i = _fromIndex; i <= _toIndex; i++) {\n            if (schedules[beneficiaries[i]].length !=0)\n                pushAvailableTokens(beneficiaries[i]);\n        }\n    }\n\n    /**\n     * @notice Used to bulk add vesting schedules for each of beneficiary\n     * @param _beneficiaries Array of the beneficiary's addresses\n     * @param _templateNames Array of the template names\n     * @param _numberOfTokens Array of number of tokens should be assigned to schedules\n     * @param _durations Array of the vesting duration\n     * @param _frequencies Array of the vesting frequency\n     * @param _startTimes Array of the vesting start time\n     */\n    function addScheduleMulti(\n        address[] _beneficiaries,\n        bytes32[] _templateNames,\n        uint256[] _numberOfTokens,\n        uint256[] _durations,\n        uint256[] _frequencies,\n        uint256[] _startTimes\n    )\n        public\n        withPerm(ADMIN)\n    {\n        require(\n            _beneficiaries.length == _templateNames.length && /*solium-disable-line operator-whitespace*/\n            _beneficiaries.length == _numberOfTokens.length && /*solium-disable-line operator-whitespace*/\n            _beneficiaries.length == _durations.length && /*solium-disable-line operator-whitespace*/\n            _beneficiaries.length == _frequencies.length && /*solium-disable-line operator-whitespace*/\n            _beneficiaries.length == _startTimes.length,\n            \"Arrays sizes mismatch\"\n        );\n        for (uint256 i = 0; i < _beneficiaries.length; i++) {\n            _addSchedule(_beneficiaries[i], _templateNames[i], _numberOfTokens[i], _durations[i], _frequencies[i], _startTimes[i]);\n        }\n    }\n\n    /**\n     * @notice Used to bulk add vesting schedules from template for each of the beneficiary\n     * @param _beneficiaries Array of beneficiary's addresses\n     * @param _templateNames Array of the template names were used for schedule creation\n     * @param _startTimes Array of the vesting start time\n     */\n    function addScheduleFromTemplateMulti(address[] _beneficiaries, bytes32[] _templateNames, uint256[] _startTimes) external withPerm(ADMIN) {\n        require(_beneficiaries.length == _templateNames.length && _beneficiaries.length == _startTimes.length, \"Arrays sizes mismatch\");\n        for (uint256 i = 0; i < _beneficiaries.length; i++) {\n            _addScheduleFromTemplate(_beneficiaries[i], _templateNames[i], _startTimes[i]);\n        }\n    }\n\n    /**\n     * @notice Used to bulk revoke vesting schedules for each of the beneficiaries\n     * @param _beneficiaries Array of the beneficiary's addresses\n     */\n    function revokeSchedulesMulti(address[] _beneficiaries) external withPerm(ADMIN) {\n        for (uint256 i = 0; i < _beneficiaries.length; i++) {\n            _revokeAllSchedules(_beneficiaries[i]);\n        }\n    }\n\n    /**\n     * @notice Used to bulk modify vesting schedules for each of the beneficiaries\n     * @param _beneficiaries Array of the beneficiary's addresses\n     * @param _templateNames Array of the template names\n     * @param _startTimes Array of the vesting start time\n     */\n    function modifyScheduleMulti(\n        address[] _beneficiaries,\n        bytes32[] _templateNames,\n        uint256[] _startTimes\n    )\n        public\n        withPerm(ADMIN)\n    {\n        require(\n            _beneficiaries.length == _templateNames.length && /*solium-disable-line operator-whitespace*/\n            _beneficiaries.length == _startTimes.length,\n            \"Arrays sizes mismatch\"\n        );\n        for (uint256 i = 0; i < _beneficiaries.length; i++) {\n            _modifySchedule(_beneficiaries[i], _templateNames[i], _startTimes[i]);\n        }\n    }\n\n    function _checkSchedule(address _beneficiary, bytes32 _templateName) internal view {\n        require(_beneficiary != address(0), \"Invalid address\");\n        uint256 index = userToTemplateIndex[_beneficiary][_templateName];\n        require(\n            index < schedules[_beneficiary].length &&\n            schedules[_beneficiary][index].templateName == _templateName,\n            \"Schedule not found\"\n        );\n    }\n\n    function _isTemplateExists(bytes32 _name) internal view returns(bool) {\n        return templates[_name].numberOfTokens > 0;\n    }\n\n    function _validateTemplate(uint256 _numberOfTokens, uint256 _duration, uint256 _frequency) internal view {\n        require(_numberOfTokens > 0, \"Zero amount\");\n        require(_duration % _frequency == 0, \"Invalid frequency\");\n        uint256 periodCount = _duration.div(_frequency);\n        require(_numberOfTokens % periodCount == 0);\n        uint256 amountPerPeriod = _numberOfTokens.div(periodCount);\n        require(amountPerPeriod % ISecurityToken(securityToken).granularity() == 0, \"Invalid granularity\");\n    }\n\n    function _sendTokens(address _beneficiary) internal {\n        for (uint256 i = 0; i < schedules[_beneficiary].length; i++) {\n            _sendTokensPerSchedule(_beneficiary, i);\n        }\n    }\n\n    function _sendTokensPerSchedule(address _beneficiary, uint256 _index) internal {\n        uint256 amount = _getAvailableTokens(_beneficiary, _index);\n        if (amount > 0) {\n            schedules[_beneficiary][_index].claimedTokens = schedules[_beneficiary][_index].claimedTokens.add(amount);\n            require(ISecurityToken(securityToken).transfer(_beneficiary, amount), \"Transfer failed\");\n            emit SendTokens(_beneficiary, amount);\n        }\n    }\n\n    /**\n     * @notice Return the permissions flag that are associated with VestingEscrowWallet\n     */\n    function getPermissions() public view returns(bytes32[]) {\n        bytes32[] memory allPermissions = new bytes32[](1);\n        allPermissions[0] = ADMIN;\n        return allPermissions;\n    }\n\n}\n",
  "sourcePath": "/Users/jere/Code/polymath-apps/packages/new-polymath-scripts/src/generateLocalBlockchain/contracts/modules/Experimental/Wallet/VestingEscrowWallet.sol",
  "compiler": {
    "name": "solc",
    "version": "0.4.24+commit.e67f0147.Emscripten.clang"
  },
  "schemaVersion": "2.0.1",
  "updatedAt": "2019-02-06T16:02:42.956Z"
}