{
  "contractName": "VolumeRestrictionLib",
  "abi": [
    {
      "constant": false,
      "inputs": [
        {
          "name": "data",
          "type": "VolumeRestrictionTMStorage.RestrictedData storage"
        },
        {
          "name": "_holder",
          "type": "address"
        },
        {
          "name": "_typeOfPeriod",
          "type": "uint8"
        }
      ],
      "name": "deleteHolderFromList",
      "outputs": [],
      "payable": false,
      "stateMutability": "nonpayable",
      "type": "function"
    },
    {
      "constant": false,
      "inputs": [
        {
          "name": "data",
          "type": "VolumeRestrictionTMStorage.RestrictedData storage"
        },
        {
          "name": "_holder",
          "type": "address"
        },
        {
          "name": "_callFrom",
          "type": "uint8"
        },
        {
          "name": "_endTime",
          "type": "uint256"
        }
      ],
      "name": "addRestrictionData",
      "outputs": [],
      "payable": false,
      "stateMutability": "nonpayable",
      "type": "function"
    }
  ],
  "bytecode": "0x61048b610030600b82828239805160001a6073146000811461002057610022565bfe5b5030600052607381538281f30073000000000000000000000000000000000000000030146080604052600436106100625763ffffffff7c01000000000000000000000000000000000000000000000000000000006000350416630c816b4981146100675780638fc4c6c414610093575b600080fd5b81801561007357600080fd5b50610091600435600160a060020a036024351660ff604435166100c0565b005b81801561009f57600080fd5b50610091600435600160a060020a036024351660ff604435166064356102a3565b600160a060020a038216600090815260208490526040812054819060ff61010090910416600214610271575050600160a060020a0382166000908152602084905260409020546001840154620100009091046fffffffffffffffffffffffffffffffff16908181146102255781856000016000876001016001850381548110151561014757fe5b6000918252602080832090910154600160a060020a03168352820192909252604001902080546fffffffffffffffffffffffffffffffff92909216620100000271ffffffffffffffffffffffffffffffff00001990921691909117905560018501805460001983019081106101b857fe5b600091825260209091200154600186018054600160a060020a03909216916fffffffffffffffffffffffffffffffff6000198601169081106101f657fe5b9060005260206000200160006101000a815481600160a060020a030219169083600160a060020a031602179055505b600160a060020a0384166000908152602086905260409020805471ffffffffffffffffffffffffffffffffffff191690556001850180549061026b906000198301610415565b5061029c565b600160a060020a0384166000908152602086905260409020805461ff00191661010060ff8616021790555b5050505050565b600160a060020a0383166000908152602085905260408120546fffffffffffffffffffffffffffffffff62010000820416919060ff16151561032157600186810180549182018155600081815260209020909101805473ffffffffffffffffffffffffffffffffffffffff1916600160a060020a0388161790555491505b600160a060020a03851660009081526020879052604090205461034d90610100900460ff1685856103e7565b604080516060810182526001815260ff92831660208083019182526fffffffffffffffffffffffffffffffff968716838501908152600160a060020a039a909a1660009081529a905291909820975188549151975160ff199092169083161761ff00191661010097909216969096021771ffffffffffffffffffffffffffffffff0000191662010000959092169490940217909355505050565b60008260ff168460ff16141580156103fe57508115155b1561040b5750600261040e565b50815b9392505050565b8154818355818111156104395760008381526020902061043991810190830161043e565b505050565b61045c91905b808211156104585760008155600101610444565b5090565b905600a165627a7a72305820860ae1abdb5a2393a6606212b7b07b60c0ba416815414f956e4bf03a0d3fc29a0029",
  "source": "pragma solidity ^0.4.24;\n\nimport \"./BokkyPooBahsDateTimeLibrary.sol\";\nimport \"openzeppelin-solidity/contracts/math/SafeMath.sol\";\nimport \"../interfaces/ISecurityToken.sol\";\nimport \"../storage/VolumeRestrictionTMStorage.sol\";\n\nlibrary VolumeRestrictionLib {\n\n    using SafeMath for uint256;\n\n    function _checkLengthOfArray(\n        address[] _holders,\n        uint256[] _allowedTokens,\n        uint256[] _startTimes,\n        uint256[] _rollingPeriodInDays,\n        uint256[] _endTimes,\n        uint256[] _restrictionTypes\n    )\n        internal\n        pure\n    {\n        require(\n            _holders.length == _allowedTokens.length &&\n            _allowedTokens.length == _startTimes.length &&\n            _startTimes.length == _rollingPeriodInDays.length &&\n            _rollingPeriodInDays.length == _endTimes.length &&\n            _endTimes.length == _restrictionTypes.length,\n            \"Length mismatch\"\n        );\n    }\n\n    function deleteHolderFromList(VolumeRestrictionTMStorage.RestrictedData storage data, address _holder, uint8 _typeOfPeriod) public {\n        // Deleting the holder if holder's type of Period is `Both` type otherwise\n        // it will assign the given type `_typeOfPeriod` to the _holder typeOfPeriod\n        // `_typeOfPeriod` it always be contrary to the removing restriction\n        // if removing restriction is individual then typeOfPeriod is TypeOfPeriod.OneDay\n        // in uint8 its value is 1. if removing restriction is daily individual then typeOfPeriod\n        // is TypeOfPeriod.MultipleDays in uint8 its value is 0.\n        if (data.restrictedHolders[_holder].typeOfPeriod != uint8(VolumeRestrictionTMStorage.TypeOfPeriod.Both)) {\n            uint128 index = data.restrictedHolders[_holder].index;\n            uint256 _len = data.restrictedAddresses.length;\n            if (index != _len) {\n                data.restrictedHolders[data.restrictedAddresses[_len - 1]].index = index;\n                data.restrictedAddresses[index - 1] = data.restrictedAddresses[_len - 1];\n            }\n            delete data.restrictedHolders[_holder];\n            data.restrictedAddresses.length--;\n        } else {\n            data.restrictedHolders[_holder].typeOfPeriod = _typeOfPeriod;\n        }\n    }\n\n    function addRestrictionData(VolumeRestrictionTMStorage.RestrictedData storage data, address _holder, uint8 _callFrom, uint256 _endTime) public {\n        uint128 index = data.restrictedHolders[_holder].index;\n        if (data.restrictedHolders[_holder].seen == 0) {\n            data.restrictedAddresses.push(_holder);\n            index = uint128(data.restrictedAddresses.length);\n        }\n        uint8 _type = _getTypeOfPeriod(data.restrictedHolders[_holder].typeOfPeriod, _callFrom, _endTime);\n        data.restrictedHolders[_holder] = VolumeRestrictionTMStorage.RestrictedHolder(uint8(1), _type, index);\n    }\n\n    function _getTypeOfPeriod(uint8 _currentTypeOfPeriod, uint8 _callFrom, uint256 _endTime) internal pure returns(uint8) {\n        if (_currentTypeOfPeriod != _callFrom && _endTime != uint256(0))\n            return uint8(VolumeRestrictionTMStorage.TypeOfPeriod.Both);\n        else\n            return _callFrom;\n    }\n\n\n}\n",
  "sourcePath": "/Users/jere/Code/polymath-apps/packages/new-polymath-scripts/src/generateLocalBlockchain/contracts/libraries/VolumeRestrictionLib.sol",
  "compiler": {
    "name": "solc",
    "version": "0.4.24+commit.e67f0147.Emscripten.clang"
  },
  "schemaVersion": "2.0.1",
  "updatedAt": "2019-01-29T19:36:37.790Z"
}