{
  "contractName": "VolumeRestrictionTMStorage",
  "abi": [
    {
      "constant": true,
      "inputs": [
        {
          "name": "",
          "type": "address"
        }
      ],
      "name": "individualRestriction",
      "outputs": [
        {
          "name": "allowedTokens",
          "type": "uint256"
        },
        {
          "name": "startTime",
          "type": "uint256"
        },
        {
          "name": "rollingPeriodInDays",
          "type": "uint256"
        },
        {
          "name": "endTime",
          "type": "uint256"
        },
        {
          "name": "typeOfRestriction",
          "type": "uint8"
        }
      ],
      "payable": false,
      "stateMutability": "view",
      "type": "function"
    },
    {
      "constant": true,
      "inputs": [],
      "name": "defaultRestriction",
      "outputs": [
        {
          "name": "allowedTokens",
          "type": "uint256"
        },
        {
          "name": "startTime",
          "type": "uint256"
        },
        {
          "name": "rollingPeriodInDays",
          "type": "uint256"
        },
        {
          "name": "endTime",
          "type": "uint256"
        },
        {
          "name": "typeOfRestriction",
          "type": "uint8"
        }
      ],
      "payable": false,
      "stateMutability": "view",
      "type": "function"
    },
    {
      "constant": true,
      "inputs": [],
      "name": "defaultDailyRestriction",
      "outputs": [
        {
          "name": "allowedTokens",
          "type": "uint256"
        },
        {
          "name": "startTime",
          "type": "uint256"
        },
        {
          "name": "rollingPeriodInDays",
          "type": "uint256"
        },
        {
          "name": "endTime",
          "type": "uint256"
        },
        {
          "name": "typeOfRestriction",
          "type": "uint8"
        }
      ],
      "payable": false,
      "stateMutability": "view",
      "type": "function"
    },
    {
      "constant": true,
      "inputs": [
        {
          "name": "",
          "type": "uint256"
        }
      ],
      "name": "exemptAddresses",
      "outputs": [
        {
          "name": "",
          "type": "address"
        }
      ],
      "payable": false,
      "stateMutability": "view",
      "type": "function"
    },
    {
      "constant": true,
      "inputs": [
        {
          "name": "",
          "type": "address"
        }
      ],
      "name": "individualDailyRestriction",
      "outputs": [
        {
          "name": "allowedTokens",
          "type": "uint256"
        },
        {
          "name": "startTime",
          "type": "uint256"
        },
        {
          "name": "rollingPeriodInDays",
          "type": "uint256"
        },
        {
          "name": "endTime",
          "type": "uint256"
        },
        {
          "name": "typeOfRestriction",
          "type": "uint8"
        }
      ],
      "payable": false,
      "stateMutability": "view",
      "type": "function"
    }
  ],
  "bytecode": "0x608060405234801561001057600080fd5b50610267806100206000396000f30060806040526004361061006c5763ffffffff7c010000000000000000000000000000000000000000000000000000000060003504166351d5753a81146100715780639b618744146100df578063e6b14216146100f4578063e7dd64c514610109578063ec5ed09e1461014a575b600080fd5b34801561007d57600080fd5b5061009f73ffffffffffffffffffffffffffffffffffffffff60043516610178565b604051808681526020018581526020018481526020018381526020018260018111156100c757fe5b60ff1681526020019550505050505060405180910390f35b3480156100eb57600080fd5b5061009f6101aa565b34801561010057600080fd5b5061009f6101bf565b34801561011557600080fd5b506101216004356101d4565b6040805173ffffffffffffffffffffffffffffffffffffffff9092168252519081900360200190f35b34801561015657600080fd5b5061009f73ffffffffffffffffffffffffffffffffffffffff60043516610209565b600a60205260009081526040902080546001820154600283015460038401546004909401549293919290919060ff1685565b60005460015460025460035460045460ff1685565b60055460065460075460085460095460ff1685565b60128054829081106101e257fe5b60009182526020909120015473ffffffffffffffffffffffffffffffffffffffff16905081565b600b60205260009081526040902080546001820154600283015460038401546004909401549293919290919060ff16855600a165627a7a72305820e1b398208eeedc5c6b3df1e7600f242dcd1d31f934f9a5fd7abf1be4f1c84dce0029",
  "source": "pragma solidity ^0.4.24;\n\n/**\n * @title Storage layout for VolumeRestrictionTM\n */\ncontract VolumeRestrictionTMStorage {\n\n    enum RestrictionType { Fixed, Percentage }\n\n    enum TypeOfPeriod { MultipleDays, OneDay, Both }\n\n    struct RestrictedHolder {\n        // 1 represent true & 0 for false\n        uint8 seen;\n        // Type of period will be enum index of TypeOfPeriod enum\n        uint8 typeOfPeriod;\n        // Index of the array where the holder address lives\n        uint128 index;\n    }\n\n    struct RestrictedData {\n        mapping(address => RestrictedHolder) restrictedHolders;\n        address[] restrictedAddresses;\n    }\n\n    struct VolumeRestriction {\n        // If typeOfRestriction is `Percentage` then allowedTokens will be in\n        // the % (w.r.t to totalSupply) with a multiplier of 10**16 . else it\n        // will be fixed amount of tokens\n        uint256 allowedTokens;\n        uint256 startTime;\n        uint256 rollingPeriodInDays;\n        uint256 endTime;\n        RestrictionType typeOfRestriction;\n    }\n\n    struct BucketDetails {\n        uint256 lastTradedDayTime;\n        uint256 sumOfLastPeriod;   // It is the sum of transacted amount within the last rollingPeriodDays\n        uint256 daysCovered;    // No of days covered till (from the startTime of VolumeRestriction)\n        uint256 dailyLastTradedDayTime;\n    }\n\n    // Global restriction that applies to all token holders\n    VolumeRestriction public defaultRestriction;\n    // Daily global restriction that applies to all token holders (Total ST traded daily is restricted)\n    VolumeRestriction public defaultDailyRestriction;\n    // Restriction stored corresponds to a particular token holder\n    mapping(address => VolumeRestriction) public individualRestriction;\n    // Daily restriction stored corresponds to a particular token holder\n    mapping(address => VolumeRestriction) public individualDailyRestriction;\n    // Storing _from => day's timestamp => total amount transact in a day --individual\n    mapping(address => mapping(uint256 => uint256)) internal bucket;\n    // Storing the information that used to validate the transaction\n    mapping(address => BucketDetails) internal userToBucket;\n    // Storing the information related to default restriction\n    mapping(address => BucketDetails) internal defaultUserToBucket;\n    // Restricted data (refernce from the VolumeRestrictionLib library )\n    RestrictedData holderData;\n    // Hold exempt index\n    mapping(address => uint256) exemptIndex;\n    address[] public exemptAddresses;\n\n}\n",
  "sourcePath": "/Users/jere/Code/polymath-apps/packages/new-polymath-scripts/src/generateLocalBlockchain/contracts/storage/VolumeRestrictionTMStorage.sol",
  "compiler": {
    "name": "solc",
    "version": "0.4.24+commit.e67f0147.Emscripten.clang"
  },
  "schemaVersion": "2.0.1",
  "updatedAt": "2019-02-06T16:02:05.782Z"
}