{
  "contractName": "VolumeRestrictionTMProxy",
  "abi": [
    {
      "constant": false,
      "inputs": [],
      "name": "proxyOwner",
      "outputs": [
        {
          "name": "",
          "type": "address"
        }
      ],
      "payable": false,
      "stateMutability": "nonpayable",
      "type": "function"
    },
    {
      "constant": true,
      "inputs": [
        {
          "name": "",
          "type": "address"
        }
      ],
      "name": "individualRestriction",
      "outputs": [
        {
          "name": "allowedTokens",
          "type": "uint256"
        },
        {
          "name": "startTime",
          "type": "uint256"
        },
        {
          "name": "rollingPeriodInDays",
          "type": "uint256"
        },
        {
          "name": "endTime",
          "type": "uint256"
        },
        {
          "name": "typeOfRestriction",
          "type": "uint8"
        }
      ],
      "payable": false,
      "stateMutability": "view",
      "type": "function"
    },
    {
      "constant": false,
      "inputs": [],
      "name": "implementation",
      "outputs": [
        {
          "name": "",
          "type": "address"
        }
      ],
      "payable": false,
      "stateMutability": "nonpayable",
      "type": "function"
    },
    {
      "constant": true,
      "inputs": [],
      "name": "paused",
      "outputs": [
        {
          "name": "",
          "type": "bool"
        }
      ],
      "payable": false,
      "stateMutability": "view",
      "type": "function"
    },
    {
      "constant": true,
      "inputs": [],
      "name": "polyToken",
      "outputs": [
        {
          "name": "",
          "type": "address"
        }
      ],
      "payable": false,
      "stateMutability": "view",
      "type": "function"
    },
    {
      "constant": true,
      "inputs": [],
      "name": "defaultRestriction",
      "outputs": [
        {
          "name": "allowedTokens",
          "type": "uint256"
        },
        {
          "name": "startTime",
          "type": "uint256"
        },
        {
          "name": "rollingPeriodInDays",
          "type": "uint256"
        },
        {
          "name": "endTime",
          "type": "uint256"
        },
        {
          "name": "typeOfRestriction",
          "type": "uint8"
        }
      ],
      "payable": false,
      "stateMutability": "view",
      "type": "function"
    },
    {
      "constant": true,
      "inputs": [],
      "name": "securityToken",
      "outputs": [
        {
          "name": "",
          "type": "address"
        }
      ],
      "payable": false,
      "stateMutability": "view",
      "type": "function"
    },
    {
      "constant": true,
      "inputs": [],
      "name": "factory",
      "outputs": [
        {
          "name": "",
          "type": "address"
        }
      ],
      "payable": false,
      "stateMutability": "view",
      "type": "function"
    },
    {
      "constant": true,
      "inputs": [],
      "name": "FEE_ADMIN",
      "outputs": [
        {
          "name": "",
          "type": "bytes32"
        }
      ],
      "payable": false,
      "stateMutability": "view",
      "type": "function"
    },
    {
      "constant": true,
      "inputs": [],
      "name": "defaultDailyRestriction",
      "outputs": [
        {
          "name": "allowedTokens",
          "type": "uint256"
        },
        {
          "name": "startTime",
          "type": "uint256"
        },
        {
          "name": "rollingPeriodInDays",
          "type": "uint256"
        },
        {
          "name": "endTime",
          "type": "uint256"
        },
        {
          "name": "typeOfRestriction",
          "type": "uint8"
        }
      ],
      "payable": false,
      "stateMutability": "view",
      "type": "function"
    },
    {
      "constant": true,
      "inputs": [
        {
          "name": "",
          "type": "uint256"
        }
      ],
      "name": "exemptAddresses",
      "outputs": [
        {
          "name": "",
          "type": "address"
        }
      ],
      "payable": false,
      "stateMutability": "view",
      "type": "function"
    },
    {
      "constant": true,
      "inputs": [
        {
          "name": "",
          "type": "address"
        }
      ],
      "name": "individualDailyRestriction",
      "outputs": [
        {
          "name": "allowedTokens",
          "type": "uint256"
        },
        {
          "name": "startTime",
          "type": "uint256"
        },
        {
          "name": "rollingPeriodInDays",
          "type": "uint256"
        },
        {
          "name": "endTime",
          "type": "uint256"
        },
        {
          "name": "typeOfRestriction",
          "type": "uint8"
        }
      ],
      "payable": false,
      "stateMutability": "view",
      "type": "function"
    },
    {
      "constant": false,
      "inputs": [
        {
          "name": "_newOwner",
          "type": "address"
        }
      ],
      "name": "transferProxyOwnership",
      "outputs": [],
      "payable": false,
      "stateMutability": "nonpayable",
      "type": "function"
    },
    {
      "inputs": [
        {
          "name": "_securityToken",
          "type": "address"
        },
        {
          "name": "_polyAddress",
          "type": "address"
        },
        {
          "name": "_implementation",
          "type": "address"
        }
      ],
      "payable": false,
      "stateMutability": "nonpayable",
      "type": "constructor"
    },
    {
      "payable": true,
      "stateMutability": "payable",
      "type": "fallback"
    },
    {
      "anonymous": false,
      "inputs": [
        {
          "indexed": false,
          "name": "_previousOwner",
          "type": "address"
        },
        {
          "indexed": false,
          "name": "_newOwner",
          "type": "address"
        }
      ],
      "name": "ProxyOwnershipTransferred",
      "type": "event"
    },
    {
      "anonymous": false,
      "inputs": [
        {
          "indexed": false,
          "name": "_timestammp",
          "type": "uint256"
        }
      ],
      "name": "Pause",
      "type": "event"
    },
    {
      "anonymous": false,
      "inputs": [
        {
          "indexed": false,
          "name": "_timestamp",
          "type": "uint256"
        }
      ],
      "name": "Unpause",
      "type": "event"
    }
  ],
  "bytecode": "0x60806040526015805460a060020a60ff021916905534801561002057600080fd5b5060405160608061083583398101604090815281516020830151919092015160148054600160a060020a03808616600160a060020a03199283161790925560138054821633908117909155601580549386169390921692909217905561008e90640100000000610153810204565b600160a060020a038116151561012b57604080517f08c379a000000000000000000000000000000000000000000000000000000000815260206004820152602760248201527f496d706c656d656e746174696f6e20616464726573732073686f756c64206e6f60448201527f7420626520307800000000000000000000000000000000000000000000000000606482015290519081900360840190fd5b60178054600160a060020a031916600160a060020a0392909216919091179055506101ec9050565b600160a060020a03811615156101ca57604080517f08c379a000000000000000000000000000000000000000000000000000000000815260206004820152601860248201527f416464726573732073686f756c64206e6f742062652030780000000000000000604482015290519081900360640190fd5b60168054600160a060020a031916600160a060020a0392909216919091179055565b61063a806101fb6000396000f3006080604052600436106100c45763ffffffff7c0100000000000000000000000000000000000000000000000000000000600035041663025313a281146100ce57806351d5753a146100ff5780635c60da1b146101605780635c975abb146101755780636faa22a51461019e5780639b618744146101b3578063b84dfbd2146101c8578063c45a0155146101dd578063d70afa96146101f2578063e6b1421614610219578063e7dd64c51461022e578063ec5ed09e14610246578063f1739cae14610267575b6100cc610288565b005b3480156100da57600080fd5b506100e361029a565b60408051600160a060020a039092168252519081900360200190f35b34801561010b57600080fd5b50610120600160a060020a03600435166102d7565b6040518086815260200185815260200184815260200183815260200182600181111561014857fe5b60ff1681526020019550505050505060405180910390f35b34801561016c57600080fd5b506100e3610309565b34801561018157600080fd5b5061018a610334565b604080519115158252519081900360200190f35b3480156101aa57600080fd5b506100e3610355565b3480156101bf57600080fd5b50610120610364565b3480156101d457600080fd5b506100e3610379565b3480156101e957600080fd5b506100e3610388565b3480156101fe57600080fd5b50610207610397565b60408051918252519081900360200190f35b34801561022557600080fd5b506101206103bb565b34801561023a57600080fd5b506100e36004356103d0565b34801561025257600080fd5b50610120600160a060020a03600435166103f8565b34801561027357600080fd5b506100cc600160a060020a036004351661042a565b610298610293610526565b610535565b565b60006102a4610559565b600160a060020a031633600160a060020a031614156102cc576102c5610559565b90506102d4565b6102d4610288565b90565b600a60205260009081526040902080546001820154600283015460038401546004909401549293919290919060ff1685565b6000610313610559565b600160a060020a031633600160a060020a031614156102cc576102c5610526565b60155474010000000000000000000000000000000000000000900460ff1681565b601554600160a060020a031681565b60005460015460025460035460045460ff1685565b601454600160a060020a031681565b601354600160a060020a031681565b7f4645455f41444d494e000000000000000000000000000000000000000000000081565b60055460065460075460085460095460ff1685565b60128054829081106103de57fe5b600091825260209091200154600160a060020a0316905081565b600b60205260009081526040902080546001820154600283015460038401546004909401549293919290919060ff1685565b610432610559565b600160a060020a031633600160a060020a0316141561051b57600160a060020a03811615156104c257604080517f08c379a000000000000000000000000000000000000000000000000000000000815260206004820152601860248201527f416464726573732073686f756c64206e6f742062652030780000000000000000604482015290519081900360640190fd5b7f5a3e66efaa1e445ebd894728a69d6959842ea1e97bd79b892797106e270efcd96104eb610559565b60408051600160a060020a03928316815291841660208301528051918290030190a161051681610568565b610523565b610523610288565b50565b601754600160a060020a031690565b3660008037600080366000845af43d6000803e808015610554573d6000f35b3d6000fd5b601654600160a060020a031690565b600160a060020a03811615156105df57604080517f08c379a000000000000000000000000000000000000000000000000000000000815260206004820152601860248201527f416464726573732073686f756c64206e6f742062652030780000000000000000604482015290519081900360640190fd5b6016805473ffffffffffffffffffffffffffffffffffffffff1916600160a060020a03929092169190911790555600a165627a7a7230582045ee7c5b73f2bd00ffad0d9dd45033f7dc703873eca6cd713bb7d708bb0f9e680029",
  "source": "pragma solidity ^0.4.24;\n\nimport \"../storage/VolumeRestrictionTMStorage.sol\";\nimport \"./OwnedProxy.sol\";\nimport \"../Pausable.sol\";\nimport \"../modules/ModuleStorage.sol\";\n\n/**\n * @title Transfer Manager module for core transfer validation functionality\n */\ncontract VolumeRestrictionTMProxy is VolumeRestrictionTMStorage, ModuleStorage, Pausable, OwnedProxy {\n\n    /**\n    * @notice Constructor\n    * @param _securityToken Address of the security token\n    * @param _polyAddress Address of the polytoken\n    * @param _implementation representing the address of the new implementation to be set\n    */\n    constructor (address _securityToken, address _polyAddress, address _implementation)\n    public\n    ModuleStorage(_securityToken, _polyAddress)\n    {\n        require(\n            _implementation != address(0),\n            \"Implementation address should not be 0x\"\n        );\n        __implementation = _implementation;\n    }\n\n}\n",
  "sourcePath": "/Users/jere/Code/polymath-apps/packages/new-polymath-scripts/src/generateLocalBlockchain/contracts/proxy/VolumeRestrictionTMProxy.sol",
  "compiler": {
    "name": "solc",
    "version": "0.4.24+commit.e67f0147.Emscripten.clang"
  },
  "schemaVersion": "2.0.1",
  "updatedAt": "2019-01-17T19:56:10.053Z"
}