{
  "contractName": "VolumeRestrictionTM",
  "abi": [
    {
      "constant": true,
      "inputs": [],
      "name": "ADMIN",
      "outputs": [
        {
          "name": "",
          "type": "bytes32"
        }
      ],
      "payable": false,
      "stateMutability": "view",
      "type": "function"
    },
    {
      "constant": false,
      "inputs": [],
      "name": "unpause",
      "outputs": [],
      "payable": false,
      "stateMutability": "nonpayable",
      "type": "function"
    },
    {
      "constant": true,
      "inputs": [
        {
          "name": "",
          "type": "address"
        }
      ],
      "name": "individualRestriction",
      "outputs": [
        {
          "name": "allowedTokens",
          "type": "uint256"
        },
        {
          "name": "startTime",
          "type": "uint256"
        },
        {
          "name": "rollingPeriodInDays",
          "type": "uint256"
        },
        {
          "name": "endTime",
          "type": "uint256"
        },
        {
          "name": "typeOfRestriction",
          "type": "uint8"
        }
      ],
      "payable": false,
      "stateMutability": "view",
      "type": "function"
    },
    {
      "constant": true,
      "inputs": [],
      "name": "paused",
      "outputs": [
        {
          "name": "",
          "type": "bool"
        }
      ],
      "payable": false,
      "stateMutability": "view",
      "type": "function"
    },
    {
      "constant": false,
      "inputs": [
        {
          "name": "_amount",
          "type": "uint256"
        }
      ],
      "name": "takeFee",
      "outputs": [
        {
          "name": "",
          "type": "bool"
        }
      ],
      "payable": false,
      "stateMutability": "nonpayable",
      "type": "function"
    },
    {
      "constant": true,
      "inputs": [],
      "name": "polyToken",
      "outputs": [
        {
          "name": "",
          "type": "address"
        }
      ],
      "payable": false,
      "stateMutability": "view",
      "type": "function"
    },
    {
      "constant": false,
      "inputs": [],
      "name": "pause",
      "outputs": [],
      "payable": false,
      "stateMutability": "nonpayable",
      "type": "function"
    },
    {
      "constant": true,
      "inputs": [],
      "name": "defaultRestriction",
      "outputs": [
        {
          "name": "allowedTokens",
          "type": "uint256"
        },
        {
          "name": "startTime",
          "type": "uint256"
        },
        {
          "name": "rollingPeriodInDays",
          "type": "uint256"
        },
        {
          "name": "endTime",
          "type": "uint256"
        },
        {
          "name": "typeOfRestriction",
          "type": "uint8"
        }
      ],
      "payable": false,
      "stateMutability": "view",
      "type": "function"
    },
    {
      "constant": true,
      "inputs": [],
      "name": "securityToken",
      "outputs": [
        {
          "name": "",
          "type": "address"
        }
      ],
      "payable": false,
      "stateMutability": "view",
      "type": "function"
    },
    {
      "constant": true,
      "inputs": [],
      "name": "factory",
      "outputs": [
        {
          "name": "",
          "type": "address"
        }
      ],
      "payable": false,
      "stateMutability": "view",
      "type": "function"
    },
    {
      "constant": true,
      "inputs": [],
      "name": "FEE_ADMIN",
      "outputs": [
        {
          "name": "",
          "type": "bytes32"
        }
      ],
      "payable": false,
      "stateMutability": "view",
      "type": "function"
    },
    {
      "constant": true,
      "inputs": [],
      "name": "defaultDailyRestriction",
      "outputs": [
        {
          "name": "allowedTokens",
          "type": "uint256"
        },
        {
          "name": "startTime",
          "type": "uint256"
        },
        {
          "name": "rollingPeriodInDays",
          "type": "uint256"
        },
        {
          "name": "endTime",
          "type": "uint256"
        },
        {
          "name": "typeOfRestriction",
          "type": "uint8"
        }
      ],
      "payable": false,
      "stateMutability": "view",
      "type": "function"
    },
    {
      "constant": true,
      "inputs": [
        {
          "name": "",
          "type": "uint256"
        }
      ],
      "name": "exemptAddresses",
      "outputs": [
        {
          "name": "",
          "type": "address"
        }
      ],
      "payable": false,
      "stateMutability": "view",
      "type": "function"
    },
    {
      "constant": true,
      "inputs": [
        {
          "name": "",
          "type": "address"
        }
      ],
      "name": "individualDailyRestriction",
      "outputs": [
        {
          "name": "allowedTokens",
          "type": "uint256"
        },
        {
          "name": "startTime",
          "type": "uint256"
        },
        {
          "name": "rollingPeriodInDays",
          "type": "uint256"
        },
        {
          "name": "endTime",
          "type": "uint256"
        },
        {
          "name": "typeOfRestriction",
          "type": "uint8"
        }
      ],
      "payable": false,
      "stateMutability": "view",
      "type": "function"
    },
    {
      "inputs": [
        {
          "name": "_securityToken",
          "type": "address"
        },
        {
          "name": "_polyAddress",
          "type": "address"
        }
      ],
      "payable": false,
      "stateMutability": "nonpayable",
      "type": "constructor"
    },
    {
      "anonymous": false,
      "inputs": [
        {
          "indexed": true,
          "name": "_wallet",
          "type": "address"
        },
        {
          "indexed": false,
          "name": "_change",
          "type": "bool"
        }
      ],
      "name": "ChangedExemptWalletList",
      "type": "event"
    },
    {
      "anonymous": false,
      "inputs": [
        {
          "indexed": true,
          "name": "_holder",
          "type": "address"
        },
        {
          "indexed": false,
          "name": "_allowedTokens",
          "type": "uint256"
        },
        {
          "indexed": false,
          "name": "_startTime",
          "type": "uint256"
        },
        {
          "indexed": false,
          "name": "_rollingPeriodInDays",
          "type": "uint256"
        },
        {
          "indexed": false,
          "name": "_endTime",
          "type": "uint256"
        },
        {
          "indexed": false,
          "name": "_typeOfRestriction",
          "type": "uint256"
        }
      ],
      "name": "AddIndividualRestriction",
      "type": "event"
    },
    {
      "anonymous": false,
      "inputs": [
        {
          "indexed": true,
          "name": "_holder",
          "type": "address"
        },
        {
          "indexed": false,
          "name": "_allowedTokens",
          "type": "uint256"
        },
        {
          "indexed": false,
          "name": "_startTime",
          "type": "uint256"
        },
        {
          "indexed": false,
          "name": "_rollingPeriodInDays",
          "type": "uint256"
        },
        {
          "indexed": false,
          "name": "_endTime",
          "type": "uint256"
        },
        {
          "indexed": false,
          "name": "_typeOfRestriction",
          "type": "uint256"
        }
      ],
      "name": "AddIndividualDailyRestriction",
      "type": "event"
    },
    {
      "anonymous": false,
      "inputs": [
        {
          "indexed": true,
          "name": "_holder",
          "type": "address"
        },
        {
          "indexed": false,
          "name": "_allowedTokens",
          "type": "uint256"
        },
        {
          "indexed": false,
          "name": "_startTime",
          "type": "uint256"
        },
        {
          "indexed": false,
          "name": "_rollingPeriodInDays",
          "type": "uint256"
        },
        {
          "indexed": false,
          "name": "_endTime",
          "type": "uint256"
        },
        {
          "indexed": false,
          "name": "_typeOfRestriction",
          "type": "uint256"
        }
      ],
      "name": "ModifyIndividualRestriction",
      "type": "event"
    },
    {
      "anonymous": false,
      "inputs": [
        {
          "indexed": true,
          "name": "_holder",
          "type": "address"
        },
        {
          "indexed": false,
          "name": "_allowedTokens",
          "type": "uint256"
        },
        {
          "indexed": false,
          "name": "_startTime",
          "type": "uint256"
        },
        {
          "indexed": false,
          "name": "_rollingPeriodInDays",
          "type": "uint256"
        },
        {
          "indexed": false,
          "name": "_endTime",
          "type": "uint256"
        },
        {
          "indexed": false,
          "name": "_typeOfRestriction",
          "type": "uint256"
        }
      ],
      "name": "ModifyIndividualDailyRestriction",
      "type": "event"
    },
    {
      "anonymous": false,
      "inputs": [
        {
          "indexed": false,
          "name": "_allowedTokens",
          "type": "uint256"
        },
        {
          "indexed": false,
          "name": "_startTime",
          "type": "uint256"
        },
        {
          "indexed": false,
          "name": "_rollingPeriodInDays",
          "type": "uint256"
        },
        {
          "indexed": false,
          "name": "_endTime",
          "type": "uint256"
        },
        {
          "indexed": false,
          "name": "_typeOfRestriction",
          "type": "uint256"
        }
      ],
      "name": "AddDefaultRestriction",
      "type": "event"
    },
    {
      "anonymous": false,
      "inputs": [
        {
          "indexed": false,
          "name": "_allowedTokens",
          "type": "uint256"
        },
        {
          "indexed": false,
          "name": "_startTime",
          "type": "uint256"
        },
        {
          "indexed": false,
          "name": "_rollingPeriodInDays",
          "type": "uint256"
        },
        {
          "indexed": false,
          "name": "_endTime",
          "type": "uint256"
        },
        {
          "indexed": false,
          "name": "_typeOfRestriction",
          "type": "uint256"
        }
      ],
      "name": "AddDefaultDailyRestriction",
      "type": "event"
    },
    {
      "anonymous": false,
      "inputs": [
        {
          "indexed": false,
          "name": "_allowedTokens",
          "type": "uint256"
        },
        {
          "indexed": false,
          "name": "_startTime",
          "type": "uint256"
        },
        {
          "indexed": false,
          "name": "_rollingPeriodInDays",
          "type": "uint256"
        },
        {
          "indexed": false,
          "name": "_endTime",
          "type": "uint256"
        },
        {
          "indexed": false,
          "name": "_typeOfRestriction",
          "type": "uint256"
        }
      ],
      "name": "ModifyDefaultRestriction",
      "type": "event"
    },
    {
      "anonymous": false,
      "inputs": [
        {
          "indexed": false,
          "name": "_allowedTokens",
          "type": "uint256"
        },
        {
          "indexed": false,
          "name": "_startTime",
          "type": "uint256"
        },
        {
          "indexed": false,
          "name": "_rollingPeriodInDays",
          "type": "uint256"
        },
        {
          "indexed": false,
          "name": "_endTime",
          "type": "uint256"
        },
        {
          "indexed": false,
          "name": "_typeOfRestriction",
          "type": "uint256"
        }
      ],
      "name": "ModifyDefaultDailyRestriction",
      "type": "event"
    },
    {
      "anonymous": false,
      "inputs": [
        {
          "indexed": true,
          "name": "_holder",
          "type": "address"
        }
      ],
      "name": "IndividualRestrictionRemoved",
      "type": "event"
    },
    {
      "anonymous": false,
      "inputs": [
        {
          "indexed": true,
          "name": "_holder",
          "type": "address"
        }
      ],
      "name": "IndividualDailyRestrictionRemoved",
      "type": "event"
    },
    {
      "anonymous": false,
      "inputs": [],
      "name": "DefaultRestrictionRemoved",
      "type": "event"
    },
    {
      "anonymous": false,
      "inputs": [],
      "name": "DefaultDailyRestrictionRemoved",
      "type": "event"
    },
    {
      "anonymous": false,
      "inputs": [
        {
          "indexed": false,
          "name": "_timestammp",
          "type": "uint256"
        }
      ],
      "name": "Pause",
      "type": "event"
    },
    {
      "anonymous": false,
      "inputs": [
        {
          "indexed": false,
          "name": "_timestamp",
          "type": "uint256"
        }
      ],
      "name": "Unpause",
      "type": "event"
    },
    {
      "constant": false,
      "inputs": [
        {
          "name": "_from",
          "type": "address"
        },
        {
          "name": "",
          "type": "address"
        },
        {
          "name": "_amount",
          "type": "uint256"
        },
        {
          "name": "",
          "type": "bytes"
        },
        {
          "name": "_isTransfer",
          "type": "bool"
        }
      ],
      "name": "verifyTransfer",
      "outputs": [
        {
          "name": "",
          "type": "uint8"
        }
      ],
      "payable": false,
      "stateMutability": "nonpayable",
      "type": "function"
    },
    {
      "constant": false,
      "inputs": [
        {
          "name": "_wallet",
          "type": "address"
        },
        {
          "name": "_change",
          "type": "bool"
        }
      ],
      "name": "changeExemptWalletList",
      "outputs": [],
      "payable": false,
      "stateMutability": "nonpayable",
      "type": "function"
    },
    {
      "constant": false,
      "inputs": [
        {
          "name": "_holder",
          "type": "address"
        },
        {
          "name": "_allowedTokens",
          "type": "uint256"
        },
        {
          "name": "_startTime",
          "type": "uint256"
        },
        {
          "name": "_rollingPeriodInDays",
          "type": "uint256"
        },
        {
          "name": "_endTime",
          "type": "uint256"
        },
        {
          "name": "_restrictionType",
          "type": "uint256"
        }
      ],
      "name": "addIndividualRestriction",
      "outputs": [],
      "payable": false,
      "stateMutability": "nonpayable",
      "type": "function"
    },
    {
      "constant": false,
      "inputs": [
        {
          "name": "_holder",
          "type": "address"
        },
        {
          "name": "_allowedTokens",
          "type": "uint256"
        },
        {
          "name": "_startTime",
          "type": "uint256"
        },
        {
          "name": "_endTime",
          "type": "uint256"
        },
        {
          "name": "_restrictionType",
          "type": "uint256"
        }
      ],
      "name": "addIndividualDailyRestriction",
      "outputs": [],
      "payable": false,
      "stateMutability": "nonpayable",
      "type": "function"
    },
    {
      "constant": false,
      "inputs": [
        {
          "name": "_holders",
          "type": "address[]"
        },
        {
          "name": "_allowedTokens",
          "type": "uint256[]"
        },
        {
          "name": "_startTimes",
          "type": "uint256[]"
        },
        {
          "name": "_endTimes",
          "type": "uint256[]"
        },
        {
          "name": "_restrictionTypes",
          "type": "uint256[]"
        }
      ],
      "name": "addIndividualDailyRestrictionMulti",
      "outputs": [],
      "payable": false,
      "stateMutability": "nonpayable",
      "type": "function"
    },
    {
      "constant": false,
      "inputs": [
        {
          "name": "_holders",
          "type": "address[]"
        },
        {
          "name": "_allowedTokens",
          "type": "uint256[]"
        },
        {
          "name": "_startTimes",
          "type": "uint256[]"
        },
        {
          "name": "_rollingPeriodInDays",
          "type": "uint256[]"
        },
        {
          "name": "_endTimes",
          "type": "uint256[]"
        },
        {
          "name": "_restrictionTypes",
          "type": "uint256[]"
        }
      ],
      "name": "addIndividualRestrictionMulti",
      "outputs": [],
      "payable": false,
      "stateMutability": "nonpayable",
      "type": "function"
    },
    {
      "constant": false,
      "inputs": [
        {
          "name": "_allowedTokens",
          "type": "uint256"
        },
        {
          "name": "_startTime",
          "type": "uint256"
        },
        {
          "name": "_rollingPeriodInDays",
          "type": "uint256"
        },
        {
          "name": "_endTime",
          "type": "uint256"
        },
        {
          "name": "_restrictionType",
          "type": "uint256"
        }
      ],
      "name": "addDefaultRestriction",
      "outputs": [],
      "payable": false,
      "stateMutability": "nonpayable",
      "type": "function"
    },
    {
      "constant": false,
      "inputs": [
        {
          "name": "_allowedTokens",
          "type": "uint256"
        },
        {
          "name": "_startTime",
          "type": "uint256"
        },
        {
          "name": "_endTime",
          "type": "uint256"
        },
        {
          "name": "_restrictionType",
          "type": "uint256"
        }
      ],
      "name": "addDefaultDailyRestriction",
      "outputs": [],
      "payable": false,
      "stateMutability": "nonpayable",
      "type": "function"
    },
    {
      "constant": false,
      "inputs": [
        {
          "name": "_holder",
          "type": "address"
        }
      ],
      "name": "removeIndividualRestriction",
      "outputs": [],
      "payable": false,
      "stateMutability": "nonpayable",
      "type": "function"
    },
    {
      "constant": false,
      "inputs": [
        {
          "name": "_holders",
          "type": "address[]"
        }
      ],
      "name": "removeIndividualRestrictionMulti",
      "outputs": [],
      "payable": false,
      "stateMutability": "nonpayable",
      "type": "function"
    },
    {
      "constant": false,
      "inputs": [
        {
          "name": "_holder",
          "type": "address"
        }
      ],
      "name": "removeIndividualDailyRestriction",
      "outputs": [],
      "payable": false,
      "stateMutability": "nonpayable",
      "type": "function"
    },
    {
      "constant": false,
      "inputs": [
        {
          "name": "_holders",
          "type": "address[]"
        }
      ],
      "name": "removeIndividualDailyRestrictionMulti",
      "outputs": [],
      "payable": false,
      "stateMutability": "nonpayable",
      "type": "function"
    },
    {
      "constant": false,
      "inputs": [],
      "name": "removeDefaultRestriction",
      "outputs": [],
      "payable": false,
      "stateMutability": "nonpayable",
      "type": "function"
    },
    {
      "constant": false,
      "inputs": [],
      "name": "removeDefaultDailyRestriction",
      "outputs": [],
      "payable": false,
      "stateMutability": "nonpayable",
      "type": "function"
    },
    {
      "constant": false,
      "inputs": [
        {
          "name": "_holder",
          "type": "address"
        },
        {
          "name": "_allowedTokens",
          "type": "uint256"
        },
        {
          "name": "_startTime",
          "type": "uint256"
        },
        {
          "name": "_rollingPeriodInDays",
          "type": "uint256"
        },
        {
          "name": "_endTime",
          "type": "uint256"
        },
        {
          "name": "_restrictionType",
          "type": "uint256"
        }
      ],
      "name": "modifyIndividualRestriction",
      "outputs": [],
      "payable": false,
      "stateMutability": "nonpayable",
      "type": "function"
    },
    {
      "constant": false,
      "inputs": [
        {
          "name": "_holder",
          "type": "address"
        },
        {
          "name": "_allowedTokens",
          "type": "uint256"
        },
        {
          "name": "_startTime",
          "type": "uint256"
        },
        {
          "name": "_endTime",
          "type": "uint256"
        },
        {
          "name": "_restrictionType",
          "type": "uint256"
        }
      ],
      "name": "modifyIndividualDailyRestriction",
      "outputs": [],
      "payable": false,
      "stateMutability": "nonpayable",
      "type": "function"
    },
    {
      "constant": false,
      "inputs": [
        {
          "name": "_holders",
          "type": "address[]"
        },
        {
          "name": "_allowedTokens",
          "type": "uint256[]"
        },
        {
          "name": "_startTimes",
          "type": "uint256[]"
        },
        {
          "name": "_endTimes",
          "type": "uint256[]"
        },
        {
          "name": "_restrictionTypes",
          "type": "uint256[]"
        }
      ],
      "name": "modifyIndividualDailyRestrictionMulti",
      "outputs": [],
      "payable": false,
      "stateMutability": "nonpayable",
      "type": "function"
    },
    {
      "constant": false,
      "inputs": [
        {
          "name": "_holders",
          "type": "address[]"
        },
        {
          "name": "_allowedTokens",
          "type": "uint256[]"
        },
        {
          "name": "_startTimes",
          "type": "uint256[]"
        },
        {
          "name": "_rollingPeriodInDays",
          "type": "uint256[]"
        },
        {
          "name": "_endTimes",
          "type": "uint256[]"
        },
        {
          "name": "_restrictionTypes",
          "type": "uint256[]"
        }
      ],
      "name": "modifyIndividualRestrictionMulti",
      "outputs": [],
      "payable": false,
      "stateMutability": "nonpayable",
      "type": "function"
    },
    {
      "constant": false,
      "inputs": [
        {
          "name": "_allowedTokens",
          "type": "uint256"
        },
        {
          "name": "_startTime",
          "type": "uint256"
        },
        {
          "name": "_rollingPeriodInDays",
          "type": "uint256"
        },
        {
          "name": "_endTime",
          "type": "uint256"
        },
        {
          "name": "_restrictionType",
          "type": "uint256"
        }
      ],
      "name": "modifyDefaultRestriction",
      "outputs": [],
      "payable": false,
      "stateMutability": "nonpayable",
      "type": "function"
    },
    {
      "constant": false,
      "inputs": [
        {
          "name": "_allowedTokens",
          "type": "uint256"
        },
        {
          "name": "_startTime",
          "type": "uint256"
        },
        {
          "name": "_endTime",
          "type": "uint256"
        },
        {
          "name": "_restrictionType",
          "type": "uint256"
        }
      ],
      "name": "modifyDefaultDailyRestriction",
      "outputs": [],
      "payable": false,
      "stateMutability": "nonpayable",
      "type": "function"
    },
    {
      "constant": true,
      "inputs": [
        {
          "name": "_user",
          "type": "address"
        }
      ],
      "name": "getIndividualBucketDetailsToUser",
      "outputs": [
        {
          "name": "",
          "type": "uint256"
        },
        {
          "name": "",
          "type": "uint256"
        },
        {
          "name": "",
          "type": "uint256"
        },
        {
          "name": "",
          "type": "uint256"
        }
      ],
      "payable": false,
      "stateMutability": "view",
      "type": "function"
    },
    {
      "constant": true,
      "inputs": [
        {
          "name": "_user",
          "type": "address"
        }
      ],
      "name": "getDefaultBucketDetailsToUser",
      "outputs": [
        {
          "name": "",
          "type": "uint256"
        },
        {
          "name": "",
          "type": "uint256"
        },
        {
          "name": "",
          "type": "uint256"
        },
        {
          "name": "",
          "type": "uint256"
        }
      ],
      "payable": false,
      "stateMutability": "view",
      "type": "function"
    },
    {
      "constant": true,
      "inputs": [
        {
          "name": "_user",
          "type": "address"
        },
        {
          "name": "_at",
          "type": "uint256"
        }
      ],
      "name": "getTotalTradedByUser",
      "outputs": [
        {
          "name": "",
          "type": "uint256"
        }
      ],
      "payable": false,
      "stateMutability": "view",
      "type": "function"
    },
    {
      "constant": true,
      "inputs": [],
      "name": "getInitFunction",
      "outputs": [
        {
          "name": "",
          "type": "bytes4"
        }
      ],
      "payable": false,
      "stateMutability": "view",
      "type": "function"
    },
    {
      "constant": true,
      "inputs": [],
      "name": "getExemptAddress",
      "outputs": [
        {
          "name": "",
          "type": "address[]"
        }
      ],
      "payable": false,
      "stateMutability": "view",
      "type": "function"
    },
    {
      "constant": true,
      "inputs": [],
      "name": "getRestrictedData",
      "outputs": [
        {
          "name": "allAddresses",
          "type": "address[]"
        },
        {
          "name": "allowedTokens",
          "type": "uint256[]"
        },
        {
          "name": "startTime",
          "type": "uint256[]"
        },
        {
          "name": "rollingPeriodInDays",
          "type": "uint256[]"
        },
        {
          "name": "endTime",
          "type": "uint256[]"
        },
        {
          "name": "typeOfRestriction",
          "type": "uint8[]"
        }
      ],
      "payable": false,
      "stateMutability": "view",
      "type": "function"
    },
    {
      "constant": true,
      "inputs": [],
      "name": "getPermissions",
      "outputs": [
        {
          "name": "",
          "type": "bytes32[]"
        }
      ],
      "payable": false,
      "stateMutability": "view",
      "type": "function"
    }
  ],
  "bytecode": "0x60806040526015805460a060020a60ff021916905534801561002057600080fd5b506040516040806200600a83398101604052805160209091015160148054600160a060020a03938416600160a060020a0319918216179091556013805482163317905560158054939092169216919091179055615f8780620000836000396000f3006080604052600436106101df5763ffffffff60e060020a600035041663048460c981146101e45780630a32e721146101fb5780630acd94ea1461022b5780631613ec9d1461036457806322f774c9146103ae578063257befab146103d25780632a0acc6a146103ff5780633f4ba83a1461042657806346a673f61461043b5780634a3878231461045c57806351d5753a146104895780635ad7c851146104ea5780635c975abb1461050a5780635f7619a4146105335780636437ceaf1461054b5780636faa22a51461056b5780637e2fb4d91461059c5780638113025a146105bd57806381c37863146106f65780638456cb59146108b857806387c02c94146108cd5780639a7727ae146109145780639b61874414610929578063ab1aa9c21461093e578063b73312a614610962578063b84dfbd214610986578063c08b4d0b1461099b578063c2f15437146109bc578063c3a07df6146109ec578063c45a015514610a51578063cf77339714610a66578063d70afa9614610bd8578063d723797c14610bed578063de6ee1bc14610d5f578063dfe3de7c14610df6578063e6b1421614610e17578063e7dd64c514610e2c578063ec5ed09e14610e44578063f6223b8c14610e65578063f652614514610e86578063fbaa978c14610eac575b600080fd5b3480156101f057600080fd5b506101f9610ec1565b005b34801561020757600080fd5b506101f9600160a060020a036004351660243560443560643560843560a435611107565b34801561023757600080fd5b50604080516020600480358082013583810280860185019096528085526101f995369593946024949385019291829185019084908082843750506040805187358901803560208181028481018201909552818452989b9a998901989297509082019550935083925085019084908082843750506040805187358901803560208181028481018201909552818452989b9a998901989297509082019550935083925085019084908082843750506040805187358901803560208181028481018201909552818452989b9a998901989297509082019550935083925085019084908082843750506040805187358901803560208181028481018201909552818452989b9a9989019892975090820195509350839250850190849080828437509497506112a39650505050505050565b34801561037057600080fd5b506103796114cf565b604080517fffffffff000000000000000000000000000000000000000000000000000000009092168252519081900360200190f35b3480156103ba57600080fd5b506101f96004356024356044356064356084356114d5565b3480156103de57600080fd5b506101f9600160a060020a0360043516602435604435606435608435611799565b34801561040b57600080fd5b50610414611933565b60408051918252519081900360200190f35b34801561043257600080fd5b506101f9611942565b34801561044757600080fd5b506101f9600435602435604435606435611a2a565b34801561046857600080fd5b506101f9600160a060020a0360043516602435604435606435608435611cea565b34801561049557600080fd5b506104aa600160a060020a0360043516611e7a565b604051808681526020018581526020018481526020018381526020018260018111156104d257fe5b60ff1681526020019550505050505060405180910390f35b3480156104f657600080fd5b506101f96004803560248101910135611eac565b34801561051657600080fd5b5061051f612075565b604080519115158252519081900360200190f35b34801561053f57600080fd5b5061051f600435612085565b34801561055757600080fd5b506101f9600480356024810191013561239d565b34801561057757600080fd5b5061058061255e565b60408051600160a060020a039092168252519081900360200190f35b3480156105a857600080fd5b506101f9600160a060020a036004351661256d565b3480156105c957600080fd5b50604080516020600480358082013583810280860185019096528085526101f995369593946024949385019291829185019084908082843750506040805187358901803560208181028481018201909552818452989b9a998901989297509082019550935083925085019084908082843750506040805187358901803560208181028481018201909552818452989b9a998901989297509082019550935083925085019084908082843750506040805187358901803560208181028481018201909552818452989b9a998901989297509082019550935083925085019084908082843750506040805187358901803560208181028481018201909552818452989b9a9989019892975090820195509350839250850190849080828437509497506126ff9650505050505050565b34801561070257600080fd5b5061070b61292b565b6040518080602001806020018060200180602001806020018060200187810387528d818151815260200191508051906020019060200280838360005b8381101561075f578181015183820152602001610747565b5050505090500187810386528c818151815260200191508051906020019060200280838360005b8381101561079e578181015183820152602001610786565b5050505090500187810385528b818151815260200191508051906020019060200280838360005b838110156107dd5781810151838201526020016107c5565b5050505090500187810384528a818151815260200191508051906020019060200280838360005b8381101561081c578181015183820152602001610804565b50505050905001878103835289818151815260200191508051906020019060200280838360005b8381101561085b578181015183820152602001610843565b50505050905001878103825288818151815260200191508051906020019060200280838360005b8381101561089a578181015183820152602001610882565b505050509050019c5050505050505050505050505060405180910390f35b3480156108c457600080fd5b506101f9612d6f565b3480156108d957600080fd5b506108ee600160a060020a0360043516612e55565b604080519485526020850193909352838301919091526060830152519081900360800190f35b34801561092057600080fd5b506101f9612e86565b34801561093557600080fd5b506104aa6130c7565b34801561094a57600080fd5b50610414600160a060020a03600435166024356130dc565b34801561096e57600080fd5b506101f9600435602435604435606435608435613107565b34801561099257600080fd5b506105806133cb565b3480156109a757600080fd5b506108ee600160a060020a03600435166133da565b3480156109c857600080fd5b506101f9600160a060020a036004351660243560443560643560843560a43561340b565b3480156109f857600080fd5b50610a0161359c565b60408051602080825283518183015283519192839290830191858101910280838360005b83811015610a3d578181015183820152602001610a25565b505050509050019250505060405180910390f35b348015610a5d57600080fd5b506105806135ee565b348015610a7257600080fd5b50604080516020600480358082013583810280860185019096528085526101f995369593946024949385019291829185019084908082843750506040805187358901803560208181028481018201909552818452989b9a998901989297509082019550935083925085019084908082843750506040805187358901803560208181028481018201909552818452989b9a998901989297509082019550935083925085019084908082843750506040805187358901803560208181028481018201909552818452989b9a998901989297509082019550935083925085019084908082843750506040805187358901803560208181028481018201909552818452989b9a998901989297509082019550935083925085019084908082843750506040805187358901803560208181028481018201909552818452989b9a9989019892975090820195509350839250850190849080828437509497506135fd9650505050505050565b348015610be457600080fd5b5061041461384d565b348015610bf957600080fd5b50604080516020600480358082013583810280860185019096528085526101f995369593946024949385019291829185019084908082843750506040805187358901803560208181028481018201909552818452989b9a998901989297509082019550935083925085019084908082843750506040805187358901803560208181028481018201909552818452989b9a998901989297509082019550935083925085019084908082843750506040805187358901803560208181028481018201909552818452989b9a998901989297509082019550935083925085019084908082843750506040805187358901803560208181028481018201909552818452989b9a998901989297509082019550935083925085019084908082843750506040805187358901803560208181028481018201909552818452989b9a9989019892975090820195509350839250850190849080828437509497506138719650505050505050565b348015610d6b57600080fd5b50604080516020601f606435600481810135928301849004840285018401909552818452610dd294600160a060020a038135811695602480359092169560443595369560849401918190840183828082843750949750505050913515159250613ab5915050565b60405180826003811115610de257fe5b60ff16815260200191505060405180910390f35b348015610e0257600080fd5b506101f9600160a060020a0360043516613c17565b348015610e2357600080fd5b506104aa613da3565b348015610e3857600080fd5b50610580600435613db8565b348015610e5057600080fd5b506104aa600160a060020a0360043516613de0565b348015610e7157600080fd5b506101f9600435602435604435606435613e12565b348015610e9257600080fd5b506101f9600160a060020a036004351660243515156140a1565b348015610eb857600080fd5b50610a01614416565b60d960020a6420a226a4a702600080601460009054906101000a9004600160a060020a0316600160a060020a0316638da5cb5b6040518163ffffffff1660e060020a028152600401602060405180830381600087803b158015610f2357600080fd5b505af1158015610f37573d6000803e3d6000fd5b505050506040513d6020811015610f4d57600080fd5b505160135433600160a060020a039283168114945091161490508180610f705750805b8061100057506014546040805160e060020a638658b8b9028152336004820152306024820152604481018690529051600160a060020a0390921691638658b8b9916064808201926020929091908290030181600087803b158015610fd357600080fd5b505af1158015610fe7573d6000803e3d6000fd5b505050506040513d6020811015610ffd57600080fd5b50515b1515611044576040805160e560020a62461bcd0281526020600482015260176024820152600080516020615f3c833981519152604482015290519081900360640190fd5b600354151561105257600080fd5b60a060405190810160405280600081526020016000815260200160008152602001600081526020016000600181111561108757fe5b600181111561109257fe5b90528051600090815560208201516001908155604083015160025560608301516003556080830151600480549192909160ff19169083818111156110d257fe5b0217905550506040517f59f8d3bed9f0ab7c5e66887418204622e4da84de330570b2d587bb7d53e2080e9150600090a1505050565b60d960020a6420a226a4a702600080601460009054906101000a9004600160a060020a0316600160a060020a0316638da5cb5b6040518163ffffffff1660e060020a028152600401602060405180830381600087803b15801561116957600080fd5b505af115801561117d573d6000803e3d6000fd5b505050506040513d602081101561119357600080fd5b505160135433600160a060020a0392831681149450911614905081806111b65750805b8061124657506014546040805160e060020a638658b8b9028152336004820152306024820152604481018690529051600160a060020a0390921691638658b8b9916064808201926020929091908290030181600087803b15801561121957600080fd5b505af115801561122d573d6000803e3d6000fd5b505050506040513d602081101561124357600080fd5b50515b151561128a576040805160e560020a62461bcd0281526020600482015260176024820152600080516020615f3c833981519152604482015290519081900360640190fd5b611298898989898989614478565b505050505050505050565b600060d960020a6420a226a4a702600080601460009054906101000a9004600160a060020a0316600160a060020a0316638da5cb5b6040518163ffffffff1660e060020a028152600401602060405180830381600087803b15801561130757600080fd5b505af115801561131b573d6000803e3d6000fd5b505050506040513d602081101561133157600080fd5b505160135433600160a060020a0392831681149450911614905081806113545750805b806113e457506014546040805160e060020a638658b8b9028152336004820152306024820152604481018690529051600160a060020a0390921691638658b8b9916064808201926020929091908290030181600087803b1580156113b757600080fd5b505af11580156113cb573d6000803e3d6000fd5b505050506040513d60208110156113e157600080fd5b50515b1515611428576040805160e560020a62461bcd0281526020600482015260176024820152600080516020615f3c833981519152604482015290519081900360640190fd5b6114368989898a8a8a614765565b600093505b8851841015611298576114c4898581518110151561145557fe5b90602001906020020151898681518110151561146d57fe5b90602001906020020151898781518110151561148557fe5b90602001906020020151898881518110151561149d57fe5b9060200190602002015189898151811015156114b557fe5b906020019060200201516147f4565b60019093019261143b565b60005b90565b600060d960020a6420a226a4a702600080601460009054906101000a9004600160a060020a0316600160a060020a0316638da5cb5b6040518163ffffffff1660e060020a028152600401602060405180830381600087803b15801561153957600080fd5b505af115801561154d573d6000803e3d6000fd5b505050506040513d602081101561156357600080fd5b505160135433600160a060020a0392831681149450911614905081806115865750805b8061161657506014546040805160e060020a638658b8b9028152336004820152306024820152604481018690529051600160a060020a0390921691638658b8b9916064808201926020929091908290030181600087803b1580156115e957600080fd5b505af11580156115fd573d6000803e3d6000fd5b505050506040513d602081101561161357600080fd5b50515b151561165a576040805160e560020a62461bcd0281526020600482015260176024820152600080516020615f3c833981519152604482015290519081900360640190fd5b60015442106116a1576040805160e560020a62461bcd02815260206004820152600b6024820152600080516020615f1c833981519152604482015290519081900360640190fd5b8793508315156116af574293505b6116bd898589898942614976565b60a0604051908101604052808a81526020018581526020018881526020018781526020018660018111156116ed57fe5b60018111156116f857fe5b90528051600090815560208201516001908155604083015160025560608301516003556080830151600480549192909160ff191690838181111561173857fe5b021790555050604080518b8152602081018790528082018a9052606081018990526080810188905290517fef7e057aee9108675be78aa61190bb75a1940238ac831696f326a5a2cdcf726792509081900360a00190a1505050505050505050565b60d960020a6420a226a4a702600080601460009054906101000a9004600160a060020a0316600160a060020a0316638da5cb5b6040518163ffffffff1660e060020a028152600401602060405180830381600087803b1580156117fb57600080fd5b505af115801561180f573d6000803e3d6000fd5b505050506040513d602081101561182557600080fd5b505160135433600160a060020a0392831681149450911614905081806118485750805b806118d857506014546040805160e060020a638658b8b9028152336004820152306024820152604481018690529051600160a060020a0390921691638658b8b9916064808201926020929091908290030181600087803b1580156118ab57600080fd5b505af11580156118bf573d6000803e3d6000fd5b505050506040513d60208110156118d557600080fd5b50515b151561191c576040805160e560020a62461bcd0281526020600482015260176024820152600080516020615f3c833981519152604482015290519081900360640190fd5b61192988888888886147f4565b5050505050505050565b60d960020a6420a226a4a70281565b601460009054906101000a9004600160a060020a0316600160a060020a0316638da5cb5b6040518163ffffffff1660e060020a028152600401602060405180830381600087803b15801561199557600080fd5b505af11580156119a9573d6000803e3d6000fd5b505050506040513d60208110156119bf57600080fd5b5051600160a060020a03163314611a20576040805160e560020a62461bcd02815260206004820152601360248201527f53656e646572206973206e6f74206f776e657200000000000000000000000000604482015290519081900360640190fd5b611a28614bda565b565b600060d960020a6420a226a4a702600080601460009054906101000a9004600160a060020a0316600160a060020a0316638da5cb5b6040518163ffffffff1660e060020a028152600401602060405180830381600087803b158015611a8e57600080fd5b505af1158015611aa2573d6000803e3d6000fd5b505050506040513d6020811015611ab857600080fd5b505160135433600160a060020a039283168114945091161490508180611adb5750805b80611b6b57506014546040805160e060020a638658b8b9028152336004820152306024820152604481018690529051600160a060020a0390921691638658b8b9916064808201926020929091908290030181600087803b158015611b3e57600080fd5b505af1158015611b52573d6000803e3d6000fd5b505050506040513d6020811015611b6857600080fd5b50515b1515611baf576040805160e560020a62461bcd0281526020600482015260176024820152600080516020615f3c833981519152604482015290519081900360640190fd5b869350831515611bbd574293505b6008544211611c04576040805160e560020a62461bcd02815260206004820152600b6024820152600080516020615f1c833981519152604482015290519081900360640190fd5b611c1388856001898942614976565b60a06040519081016040528089815260200185815260200160018152602001878152602001866001811115611c4457fe5b6001811115611c4f57fe5b90528051600590815560208201516006556040820151600755606082015160085560808201516009805460ff191660018381811115611c8a57fe5b021790555050604080518a815260208101879052600181830152606081018990526080810188905290517fdf02ded0579bbff19cfcc23945cb165d26f97fb5a886c6051dfc2d882ddfb73292509081900360a00190a15050505050505050565b60d960020a6420a226a4a702600080601460009054906101000a9004600160a060020a0316600160a060020a0316638da5cb5b6040518163ffffffff1660e060020a028152600401602060405180830381600087803b158015611d4c57600080fd5b505af1158015611d60573d6000803e3d6000fd5b505050506040513d6020811015611d7657600080fd5b505160135433600160a060020a039283168114945091161490508180611d995750805b80611e2957506014546040805160e060020a638658b8b9028152336004820152306024820152604481018690529051600160a060020a0390921691638658b8b9916064808201926020929091908290030181600087803b158015611dfc57600080fd5b505af1158015611e10573d6000803e3d6000fd5b505050506040513d6020811015611e2657600080fd5b50515b1515611e6d576040805160e560020a62461bcd0281526020600482015260176024820152600080516020615f3c833981519152604482015290519081900360640190fd5b6119298888888888614c90565b600a60205260009081526040902080546001820154600283015460038401546004909401549293919290919060ff1685565b600060d960020a6420a226a4a702600080601460009054906101000a9004600160a060020a0316600160a060020a0316638da5cb5b6040518163ffffffff1660e060020a028152600401602060405180830381600087803b158015611f1057600080fd5b505af1158015611f24573d6000803e3d6000fd5b505050506040513d6020811015611f3a57600080fd5b505160135433600160a060020a039283168114945091161490508180611f5d5750805b80611fed57506014546040805160e060020a638658b8b9028152336004820152306024820152604481018690529051600160a060020a0390921691638658b8b9916064808201926020929091908290030181600087803b158015611fc057600080fd5b505af1158015611fd4573d6000803e3d6000fd5b505050506040513d6020811015611fea57600080fd5b50515b1515612031576040805160e560020a62461bcd0281526020600482015260176024820152600080516020615f3c833981519152604482015290519081900360640190fd5b600093505b8484101561206d5761206286868681811061204d57fe5b90506020020135600160a060020a0316614ed0565b600190930192612036565b505050505050565b60155460a060020a900460ff1681565b60007f4645455f41444d494e0000000000000000000000000000000000000000000000600080601460009054906101000a9004600160a060020a0316600160a060020a0316638da5cb5b6040518163ffffffff1660e060020a028152600401602060405180830381600087803b1580156120fe57600080fd5b505af1158015612112573d6000803e3d6000fd5b505050506040513d602081101561212857600080fd5b505160135433600160a060020a03928316811494509116149050818061214b5750805b806121db57506014546040805160e060020a638658b8b9028152336004820152306024820152604481018690529051600160a060020a0390921691638658b8b9916064808201926020929091908290030181600087803b1580156121ae57600080fd5b505af11580156121c2573d6000803e3d6000fd5b505050506040513d60208110156121d857600080fd5b50515b151561221f576040805160e560020a62461bcd0281526020600482015260176024820152600080516020615f3c833981519152604482015290519081900360640190fd5b601554601454601354604080517f8da5cb5b0000000000000000000000000000000000000000000000000000000081529051600160a060020a03948516946323b872dd948116931691638da5cb5b9160048083019260209291908290030181600087803b15801561228f57600080fd5b505af11580156122a3573d6000803e3d6000fd5b505050506040513d60208110156122b957600080fd5b50516040805160e060020a63ffffffff8616028152600160a060020a039384166004820152929091166024830152604482018990525160648083019260209291908290030181600087803b15801561231057600080fd5b505af1158015612324573d6000803e3d6000fd5b505050506040513d602081101561233a57600080fd5b50511515612392576040805160e560020a62461bcd02815260206004820152601260248201527f556e61626c6520746f2074616b65206665650000000000000000000000000000604482015290519081900360640190fd5b506001949350505050565b600060d960020a6420a226a4a702600080601460009054906101000a9004600160a060020a0316600160a060020a0316638da5cb5b6040518163ffffffff1660e060020a028152600401602060405180830381600087803b15801561240157600080fd5b505af1158015612415573d6000803e3d6000fd5b505050506040513d602081101561242b57600080fd5b505160135433600160a060020a03928316811494509116149050818061244e5750805b806124de57506014546040805160e060020a638658b8b9028152336004820152306024820152604481018690529051600160a060020a0390921691638658b8b9916064808201926020929091908290030181600087803b1580156124b157600080fd5b505af11580156124c5573d6000803e3d6000fd5b505050506040513d60208110156124db57600080fd5b50515b1515612522576040805160e560020a62461bcd0281526020600482015260176024820152600080516020615f3c833981519152604482015290519081900360640190fd5b600093505b8484101561206d5761255386868681811061253e57fe5b90506020020135600160a060020a03166150b2565b600190930192612527565b601554600160a060020a031681565b60d960020a6420a226a4a702600080601460009054906101000a9004600160a060020a0316600160a060020a0316638da5cb5b6040518163ffffffff1660e060020a028152600401602060405180830381600087803b1580156125cf57600080fd5b505af11580156125e3573d6000803e3d6000fd5b505050506040513d60208110156125f957600080fd5b505160135433600160a060020a03928316811494509116149050818061261c5750805b806126ac57506014546040805160e060020a638658b8b9028152336004820152306024820152604481018690529051600160a060020a0390921691638658b8b9916064808201926020929091908290030181600087803b15801561267f57600080fd5b505af1158015612693573d6000803e3d6000fd5b505050506040513d60208110156126a957600080fd5b50515b15156126f0576040805160e560020a62461bcd0281526020600482015260176024820152600080516020615f3c833981519152604482015290519081900360640190fd5b6126f984614ed0565b50505050565b600060d960020a6420a226a4a702600080601460009054906101000a9004600160a060020a0316600160a060020a0316638da5cb5b6040518163ffffffff1660e060020a028152600401602060405180830381600087803b15801561276357600080fd5b505af1158015612777573d6000803e3d6000fd5b505050506040513d602081101561278d57600080fd5b505160135433600160a060020a0392831681149450911614905081806127b05750805b8061284057506014546040805160e060020a638658b8b9028152336004820152306024820152604481018690529051600160a060020a0390921691638658b8b9916064808201926020929091908290030181600087803b15801561281357600080fd5b505af1158015612827573d6000803e3d6000fd5b505050506040513d602081101561283d57600080fd5b50515b1515612884576040805160e560020a62461bcd0281526020600482015260176024820152600080516020615f3c833981519152604482015290519081900360640190fd5b6128928989898a8a8a614765565b600093505b88518410156112985761292089858151811015156128b157fe5b9060200190602002015189868151811015156128c957fe5b9060200190602002015189878151811015156128e157fe5b9060200190602002015189888151811015156128f957fe5b90602001906020020151898981518110151561291157fe5b90602001906020020151614c90565b600190930192612897565b606080808080806000805b6010548110156129a55760108054600291600f91600091908590811061295857fe5b6000918252602080832090910154600160a060020a0316835282019290925260400190205460ff6101009091041614612992576001612995565b60025b60ff169190910190600101612936565b816040519080825280602002602001820160405280156129cf578160200160208202803883390190505b509750816040519080825280602002602001820160405280156129fc578160200160208202803883390190505b50965081604051908082528060200260200182016040528015612a29578160200160208202803883390190505b50955081604051908082528060200260200182016040528015612a56578160200160208202803883390190505b50945081604051908082528060200260200182016040528015612a83578160200160208202803883390190505b50935081604051908082528060200260200182016040528015612ab0578160200160208202803883390190505b50925060009150600090505b601054811015612d65576010805482908110612ad457fe5b6000918252602090912001548851600160a060020a0390911690899084908110612afa57fe5b600160a060020a03929092166020928302919091019091015260108054600091600f9183919085908110612b2a57fe5b6000918252602080832090910154600160a060020a0316835282019290925260400190205460ff610100909104161415612c2557612c20600a6000600f60010184815481101515612b7757fe5b9060005260206000200160009054906101000a9004600160a060020a0316600160a060020a0316600160a060020a0316815260200190815260200160002060a06040519081016040529081600082015481526020016001820154815260200160028201548152602001600382015481526020016004820160009054906101000a900460ff166001811115612c0757fe5b6001811115612c1257fe5b905250888888888888615289565b612d59565b60108054600191600f916000919085908110612c3d57fe5b6000918252602080832090910154600160a060020a0316835282019290925260400190205460ff610100909104161415612c8a57612c20600b6000600f60010184815481101515612b7757fe5b60108054600291600f916000919085908110612ca257fe5b6000918252602080832090910154600160a060020a0316835282019290925260400190205460ff610100909104161415612d5957612cef600a6000600f60010184815481101515612b7757fe5b6010805460019093019282908110612d0357fe5b6000918252602090912001548851600160a060020a0390911690899084908110612d2957fe5b600160a060020a0390921660209283029091019091015260108054612d5991600b916000919085908110612b7757fe5b60019182019101612abc565b5050909192939495565b601460009054906101000a9004600160a060020a0316600160a060020a0316638da5cb5b6040518163ffffffff1660e060020a028152600401602060405180830381600087803b158015612dc257600080fd5b505af1158015612dd6573d6000803e3d6000fd5b505050506040513d6020811015612dec57600080fd5b5051600160a060020a03163314612e4d576040805160e560020a62461bcd02815260206004820152601360248201527f53656e646572206973206e6f74206f776e657200000000000000000000000000604482015290519081900360640190fd5b611a28615336565b600160a060020a03166000908152600d60205260409020805460018201546002830154600390930154919390929190565b60d960020a6420a226a4a702600080601460009054906101000a9004600160a060020a0316600160a060020a0316638da5cb5b6040518163ffffffff1660e060020a028152600401602060405180830381600087803b158015612ee857600080fd5b505af1158015612efc573d6000803e3d6000fd5b505050506040513d6020811015612f1257600080fd5b505160135433600160a060020a039283168114945091161490508180612f355750805b80612fc557506014546040805160e060020a638658b8b9028152336004820152306024820152604481018690529051600160a060020a0390921691638658b8b9916064808201926020929091908290030181600087803b158015612f9857600080fd5b505af1158015612fac573d6000803e3d6000fd5b505050506040513d6020811015612fc257600080fd5b50515b1515613009576040805160e560020a62461bcd0281526020600482015260176024820152600080516020615f3c833981519152604482015290519081900360640190fd5b600854151561301757600080fd5b60a060405190810160405280600081526020016000815260200160008152602001600081526020016000600181111561304c57fe5b600181111561305757fe5b90528051600590815560208201516006556040820151600755606082015160085560808201516009805460ff19166001838181111561309257fe5b0217905550506040517f7e3ebc021a9ba6d7d37d6e0a419a38a6751a21f19bb17e35033cdbeee8212b5d9150600090a1505050565b60005460015460025460035460045460ff1685565b600160a060020a0382166000908152600c602090815260408083208484529091529020545b92915050565b600060d960020a6420a226a4a702600080601460009054906101000a9004600160a060020a0316600160a060020a0316638da5cb5b6040518163ffffffff1660e060020a028152600401602060405180830381600087803b15801561316b57600080fd5b505af115801561317f573d6000803e3d6000fd5b505050506040513d602081101561319557600080fd5b505160135433600160a060020a0392831681149450911614905081806131b85750805b8061324857506014546040805160e060020a638658b8b9028152336004820152306024820152604481018690529051600160a060020a0390921691638658b8b9916064808201926020929091908290030181600087803b15801561321b57600080fd5b505af115801561322f573d6000803e3d6000fd5b505050506040513d602081101561324557600080fd5b50515b151561328c576040805160e560020a62461bcd0281526020600482015260176024820152600080516020615f3c833981519152604482015290519081900360640190fd5b87935083151561329a574293505b60035442116132e1576040805160e560020a62461bcd02815260206004820152600b6024820152600080516020615f1c833981519152604482015290519081900360640190fd5b6132ef898589898942614976565b60a0604051908101604052808a815260200185815260200188815260200187815260200186600181111561331f57fe5b600181111561332a57fe5b90528051600090815560208201516001908155604083015160025560608301516003556080830151600480549192909160ff191690838181111561336a57fe5b021790555050604080518b8152602081018790528082018a9052606081018990526080810188905290517f0b0314ee9fc2a515b5aa6f6127e0c7e6ee7f55d30a608dae515e5bd108be37b192509081900360a00190a1505050505050505050565b601454600160a060020a031681565b600160a060020a03166000908152600e60205260409020805460018201546002830154600390930154919390929190565b60d960020a6420a226a4a702600080601460009054906101000a9004600160a060020a0316600160a060020a0316638da5cb5b6040518163ffffffff1660e060020a028152600401602060405180830381600087803b15801561346d57600080fd5b505af1158015613481573d6000803e3d6000fd5b505050506040513d602081101561349757600080fd5b505160135433600160a060020a0392831681149450911614905081806134ba5750805b8061354a57506014546040805160e060020a638658b8b9028152336004820152306024820152604481018690529051600160a060020a0390921691638658b8b9916064808201926020929091908290030181600087803b15801561351d57600080fd5b505af1158015613531573d6000803e3d6000fd5b505050506040513d602081101561354757600080fd5b50515b151561358e576040805160e560020a62461bcd0281526020600482015260176024820152600080516020615f3c833981519152604482015290519081900360640190fd5b6112988989898989896153f1565b6040805160018082528183019092526060918291906020808301908038833901905050905060d960020a6420a226a4a7028160008151811015156135dc57fe5b602090810290910101529050805b5090565b601354600160a060020a031681565b600060d960020a6420a226a4a702600080601460009054906101000a9004600160a060020a0316600160a060020a0316638da5cb5b6040518163ffffffff1660e060020a028152600401602060405180830381600087803b15801561366157600080fd5b505af1158015613675573d6000803e3d6000fd5b505050506040513d602081101561368b57600080fd5b505160135433600160a060020a0392831681149450911614905081806136ae5750805b8061373e57506014546040805160e060020a638658b8b9028152336004820152306024820152604481018690529051600160a060020a0390921691638658b8b9916064808201926020929091908290030181600087803b15801561371157600080fd5b505af1158015613725573d6000803e3d6000fd5b505050506040513d602081101561373b57600080fd5b50515b1515613782576040805160e560020a62461bcd0281526020600482015260176024820152600080516020615f3c833981519152604482015290519081900360640190fd5b6137908a8a8a8a8a8a614765565b600093505b8951841015613841576138368a858151811015156137af57fe5b906020019060200201518a868151811015156137c757fe5b906020019060200201518a878151811015156137df57fe5b906020019060200201518a888151811015156137f757fe5b906020019060200201518a8981518110151561380f57fe5b906020019060200201518a8a81518110151561382757fe5b90602001906020020151614478565b600190930192613795565b50505050505050505050565b7f4645455f41444d494e000000000000000000000000000000000000000000000081565b600060d960020a6420a226a4a702600080601460009054906101000a9004600160a060020a0316600160a060020a0316638da5cb5b6040518163ffffffff1660e060020a028152600401602060405180830381600087803b1580156138d557600080fd5b505af11580156138e9573d6000803e3d6000fd5b505050506040513d60208110156138ff57600080fd5b505160135433600160a060020a0392831681149450911614905081806139225750805b806139b257506014546040805160e060020a638658b8b9028152336004820152306024820152604481018690529051600160a060020a0390921691638658b8b9916064808201926020929091908290030181600087803b15801561398557600080fd5b505af1158015613999573d6000803e3d6000fd5b505050506040513d60208110156139af57600080fd5b50515b15156139f6576040805160e560020a62461bcd0281526020600482015260176024820152600080516020615f3c833981519152604482015290519081900360640190fd5b613a048a8a8a8a8a8a614765565b600093505b895184101561384157613aaa8a85815181101515613a2357fe5b906020019060200201518a86815181101515613a3b57fe5b906020019060200201518a87815181101515613a5357fe5b906020019060200201518a88815181101515613a6b57fe5b906020019060200201518a89815181101515613a8357fe5b906020019060200201518a8a815181101515613a9b57fe5b906020019060200201516153f1565b600190930192613a09565b60155460009060a060020a900460ff16158015613ada5750600160a060020a03861615155b8015613afc5750600160a060020a038616600090815260116020526040902054155b15613c0a57601454600160a060020a0316331480613b18575081155b1515613b2357600080fd5b600160a060020a0386166000908152600a60205260409020600301544211801590613b695750600160a060020a0386166000908152600a60205260409020600101544210155b80613bb55750600160a060020a0386166000908152600b60205260409020600301544211801590613bb55750600160a060020a0386166000908152600b60205260409020600101544210155b15613bcc57613bc5868584615581565b9050613c0e565b6003544211801590613be057506001544210155b80613bfa57506008544211801590613bfa57506006544210155b15613c0a57613bc58685846157cd565b5060015b95945050505050565b60d960020a6420a226a4a702600080601460009054906101000a9004600160a060020a0316600160a060020a0316638da5cb5b6040518163ffffffff1660e060020a028152600401602060405180830381600087803b158015613c7957600080fd5b505af1158015613c8d573d6000803e3d6000fd5b505050506040513d6020811015613ca357600080fd5b505160135433600160a060020a039283168114945091161490508180613cc65750805b80613d5657506014546040805160e060020a638658b8b9028152336004820152306024820152604481018690529051600160a060020a0390921691638658b8b9916064808201926020929091908290030181600087803b158015613d2957600080fd5b505af1158015613d3d573d6000803e3d6000fd5b505050506040513d6020811015613d5357600080fd5b50515b1515613d9a576040805160e560020a62461bcd0281526020600482015260176024820152600080516020615f3c833981519152604482015290519081900360640190fd5b6126f9846150b2565b60055460065460075460085460095460ff1685565b6012805482908110613dc657fe5b600091825260209091200154600160a060020a0316905081565b600b60205260009081526040902080546001820154600283015460038401546004909401549293919290919060ff1685565b600060d960020a6420a226a4a702600080601460009054906101000a9004600160a060020a0316600160a060020a0316638da5cb5b6040518163ffffffff1660e060020a028152600401602060405180830381600087803b158015613e7657600080fd5b505af1158015613e8a573d6000803e3d6000fd5b505050506040513d6020811015613ea057600080fd5b505160135433600160a060020a039283168114945091161490508180613ec35750805b80613f5357506014546040805160e060020a638658b8b9028152336004820152306024820152604481018690529051600160a060020a0390921691638658b8b9916064808201926020929091908290030181600087803b158015613f2657600080fd5b505af1158015613f3a573d6000803e3d6000fd5b505050506040513d6020811015613f5057600080fd5b50515b1515613f97576040805160e560020a62461bcd0281526020600482015260176024820152600080516020615f3c833981519152604482015290519081900360640190fd5b869350831515613fa5574293505b613fca888560018989426005600101541115613fc15742613fc5565b6006545b614976565b60a06040519081016040528089815260200185815260200160018152602001878152602001866001811115613ffb57fe5b600181111561400657fe5b90528051600590815560208201516006556040820151600755606082015160085560808201516009805460ff19166001838181111561404157fe5b021790555050604080518a815260208101879052600181830152606081018990526080810188905290517f763f5e700fa06848d91dee26025c4d62c09544752ea6cefa488bef07b7fe017e92509081900360a00190a15050505050505050565b60d960020a6420a226a4a702600080601460009054906101000a9004600160a060020a0316600160a060020a0316638da5cb5b6040518163ffffffff1660e060020a028152600401602060405180830381600087803b15801561410357600080fd5b505af1158015614117573d6000803e3d6000fd5b505050506040513d602081101561412d57600080fd5b505160135433600160a060020a0392831681149450911614905081806141505750805b806141e057506014546040805160e060020a638658b8b9028152336004820152306024820152604481018690529051600160a060020a0390921691638658b8b9916064808201926020929091908290030181600087803b1580156141b357600080fd5b505af11580156141c7573d6000803e3d6000fd5b505050506040513d60208110156141dd57600080fd5b50515b1515614224576040805160e560020a62461bcd0281526020600482015260176024820152600080516020615f3c833981519152604482015290519081900360640190fd5b600160a060020a038516151561423957600080fd5b600160a060020a038516600090815260116020526040902054158415151461426057600080fd5b83156142d257601280546001810182557fbb8a6a4669ba250d26cd7a459eca9d215f8307e33aebe50379bc5a3617ec344401805473ffffffffffffffffffffffffffffffffffffffff1916600160a060020a0388169081179091559054600091825260116020526040909120556143ce565b6012805460001981019081106142e457fe5b6000918252602080832090910154600160a060020a03888116845260119092526040909220546012805492909316929160001990910190811061432357fe5b6000918252602080832091909101805473ffffffffffffffffffffffffffffffffffffffff1916600160a060020a03948516179055918716815260119182905260408120546012805491939291600019850190811061437e57fe5b6000918252602080832090910154600160a060020a039081168452838201949094526040928301822094909455918816825260119092529081205560128054906143cc906000198301615e75565b505b6040805185151581529051600160a060020a038716917f3878c77907250eb8a2d1013139975b1215ae66528e7d7469066f6edf0902a861919081900360200190a25050505050565b6060601280548060200260200160405190810160405280929190818152602001828054801561446e57602002820191906000526020600020905b8154600160a060020a03168152600190910190602001808311614450575b5050505050905090565b831515614483574293505b600160a060020a0386166000908152600a602052604090206003015442116144e3576040805160e560020a62461bcd02815260206004820152600b6024820152600080516020615f1c833981519152604482015290519081900360640190fd5b600160a060020a038616158015906145115750600160a060020a038616600090815260116020526040902054155b1515614567576040805160e560020a62461bcd02815260206004820152600f60248201527f496e76616c696420616464726573730000000000000000000000000000000000604482015290519081900360640190fd5b614575858585858542614976565b600160a060020a0386166000908152600a60205260409020600301541561459f5761459f86614ed0565b60a0604051908101604052808681526020018581526020018481526020018381526020018260018111156145cf57fe5b60018111156145da57fe5b815250600a600088600160a060020a0316600160a060020a031681526020019081526020016000206000820151816000015560208201518160010155604082015181600201556060820151816003015560808201518160040160006101000a81548160ff0219169083600181111561464e57fe5b02179055505050600160a060020a0386166000818152600a60205260408082206003015481517f8fc4c6c4000000000000000000000000000000000000000000000000000000008152600f600482015260248101949094526044840183905260648401525173__VolumeRestrictionLib__________________92638fc4c6c4926084808301939192829003018186803b1580156146eb57600080fd5b505af41580156146ff573d6000803e3d6000fd5b5050604080518881526020810188905280820187905260608101869052608081018590529051600160a060020a038a1693507f763907cfd4a603dc293de0ccbdebc43d010cc567f7d9bc8ac525eb56adbd0e3492509081900360a00190a2505050505050565b84518651148015614777575083518551145b8015614784575082518451145b8015614791575081518351145b801561479e575080518251145b151561206d576040805160e560020a62461bcd02815260206004820152600f60248201527f4c656e677468206d69736d617463680000000000000000000000000000000000604482015290519081900360640190fd5b8215156147ff574292505b61485f84846001858542600b60008d600160a060020a0316600160a060020a0316815260200190815260200160002060010154111561483e5742613fc5565b600160a060020a038b166000908152600b6020526040902060010154614976565b60a0604051908101604052808581526020018481526020016001815260200183815260200182600181111561489057fe5b600181111561489b57fe5b815250600b600087600160a060020a0316600160a060020a031681526020019081526020016000206000820151816000015560208201518160010155604082015181600201556060820151816003015560808201518160040160006101000a81548160ff0219169083600181111561490f57fe5b021790555050604080518681526020810186905260018183015260608101859052608081018490529051600160a060020a03881692507f030aaebf369a13e27cf1fc04aa44d6613de387793d1349f4c35b246c79f512669181900360a00190a25050505050565b8115806149835750816001145b15156149d9576040805160e560020a62461bcd02815260206004820152600c60248201527f496e76616c696420747970650000000000000000000000000000000000000000604482015290519081900360640190fd5b80851015614a31576040805160e560020a62461bcd02815260206004820152601160248201527f496e76616c696420737461727454696d65000000000000000000000000000000604482015290519081900360640190fd5b811515614a955760008611614a90576040805160e560020a62461bcd02815260206004820152600d60248201527f496e76616c69642076616c756500000000000000000000000000000000000000604482015290519081900360640190fd5b614b03565b600086118015614aad5750670de0b6b3a76400008611155b1515614b03576040805160e560020a62461bcd02815260206004820152600d60248201527f496e76616c69642076616c756500000000000000000000000000000000000000604482015290519081900360640190fd5b60018410158015614b16575061016d8411155b1515614b6c576040805160e560020a62461bcd02815260206004820152601560248201527f496e76616c696420726f6c6c696e67706572696f640000000000000000000000604482015290519081900360640190fd5b83614b77868561598e565b10158015614b8457508483115b151561206d576040805160e560020a62461bcd02815260206004820152600d60248201527f496e76616c69642074696d657300000000000000000000000000000000000000604482015290519081900360640190fd5b60155460a060020a900460ff161515614c3d576040805160e560020a62461bcd02815260206004820152601660248201527f436f6e7472616374206973206e6f742070617573656400000000000000000000604482015290519081900360640190fd5b6015805474ff0000000000000000000000000000000000000000191690556040805142815290517faaa520fdd7d2c83061d632fa017b0432407e798818af63ea908589fceda39ab79181900360200190a1565b821515614c9b574292505b600160a060020a0385166000908152600b60205260409020600301544211614cfb576040805160e560020a62461bcd02815260206004820152600b6024820152600080516020615f1c833981519152604482015290519081900360640190fd5b614d0a84846001858542614976565b60a06040519081016040528085815260200184815260200160018152602001838152602001826001811115614d3b57fe5b6001811115614d4657fe5b815250600b600087600160a060020a0316600160a060020a031681526020019081526020016000206000820151816000015560208201518160010155604082015181600201556060820151816003015560808201518160040160006101000a81548160ff02191690836001811115614dba57fe5b02179055505050600160a060020a0385166000818152600a60205260408082206003015481517f8fc4c6c4000000000000000000000000000000000000000000000000000000008152600f600482015260248101949094526001604485015260648401525173__VolumeRestrictionLib__________________92638fc4c6c4926084808301939192829003018186803b158015614e5757600080fd5b505af4158015614e6b573d6000803e3d6000fd5b5050604080518781526020810187905260018183015260608101869052608081018590529051600160a060020a03891693507f93a0044d7de07bafc1ea93504311e61528da1f6a589261fa2e5ceeb92deac17a92509081900360a00190a25050505050565b600160a060020a0381161515614ee557600080fd5b600160a060020a0381166000908152600a60205260409020600301541515614f0c57600080fd5b60a0604051908101604052806000815260200160008152602001600081526020016000815260200160006001811115614f4157fe5b6001811115614f4c57fe5b815250600a600083600160a060020a0316600160a060020a031681526020019081526020016000206000820151816000015560208201518160010155604082015181600201556060820151816003015560808201518160040160006101000a81548160ff02191690836001811115614fc057fe5b021790555050604080517f0c816b49000000000000000000000000000000000000000000000000000000008152600f6004820152600160a060020a038416602482015260016044820152905173__VolumeRestrictionLib__________________9250630c816b4991606480820192600092909190829003018186803b15801561504957600080fd5b505af415801561505d573d6000803e3d6000fd5b50505050600160a060020a0381166000818152600d602052604080822082815560018101839055600201829055517ff3ebad03e2153aee439adbb3b3a7d51671d10b0818280f33f4dc1081f87bc0169190a250565b600160a060020a03811615156150c757600080fd5b600160a060020a0381166000908152600b602052604090206003015415156150ee57600080fd5b60a060405190810160405280600081526020016000815260200160008152602001600081526020016000600181111561512357fe5b600181111561512e57fe5b815250600b600083600160a060020a0316600160a060020a031681526020019081526020016000206000820151816000015560208201518160010155604082015181600201556060820151816003015560808201518160040160006101000a81548160ff021916908360018111156151a257fe5b021790555050604080517f0c816b49000000000000000000000000000000000000000000000000000000008152600f6004820152600160a060020a0384166024820152600060448201819052915173__VolumeRestrictionLib__________________9350630c816b4992606480840193919291829003018186803b15801561522a57600080fd5b505af415801561523e573d6000803e3d6000fd5b50505050600160a060020a0381166000818152600d6020526040808220600301829055517ff50ca388c3f256ffc185ee828de54a7a06ba31013225af07e2a7a162e5c046da9190a250565b8651865187908390811061529957fe5b9060200190602002018181525050866020015185828151811015156152ba57fe5b60209081029091010152604087015184518590839081106152d757fe5b60209081029091010152606087015183518490839081106152f457fe5b602090810290910101526080870151600181111561530e57fe5b828281518110151561531c57fe5b60ff90921660209283029091019091015250505050505050565b60155460a060020a900460ff1615615398576040805160e560020a62461bcd02815260206004820152601260248201527f436f6e7472616374206973207061757365640000000000000000000000000000604482015290519081900360640190fd5b6015805474ff0000000000000000000000000000000000000000191660a060020a1790556040805142815290517f68b095021b1f40fe513109f513c66692f0b3219aee674a69f4efc57badb8201d9181900360200190a1565b8315156153fc574293505b600160a060020a0386166000908152600a6020526040902060010154421061545c576040805160e560020a62461bcd02815260206004820152600b6024820152600080516020615f1c833981519152604482015290519081900360640190fd5b61546a858585858542614976565b60a06040519081016040528086815260200185815260200184815260200183815260200182600181111561549a57fe5b60018111156154a557fe5b815250600a600088600160a060020a0316600160a060020a031681526020019081526020016000206000820151816000015560208201518160010155604082015181600201556060820151816003015560808201518160040160006101000a81548160ff0219169083600181111561551957fe5b021790555050604080518781526020810187905280820186905260608101859052608081018490529051600160a060020a03891692507fde301a53fa2d90f148d4ee56b3682d4d588eb245f374d80d80fa5da1e539c5679181900360a00190a2505050505050565b600061558b615e9e565b615593615ec7565b61559b615ec7565b600160a060020a0387166000818152600d60209081526040808320815160808181018452825482526001808401548387015260028085015484870152600394850154606080860191909152988852600b8752858820865160a0810188528154815281840154988101989098529081015495870195909552928401549685019690965260048301549098509394859485948594859485949293919284019160ff169081111561564557fe5b600181111561565057fe5b815250509750600a60008e600160a060020a0316600160a060020a0316815260200190815260200160002060a06040519081016040529081600082015481526020016001820154815260200160028201548152602001600382015481526020016004820160009054906101000a900460ff1660018111156156cd57fe5b60018111156156d857fe5b905250600160a060020a038e166000908152600a6020526040812060020154606083015192995097509550859450849350600192504211801590615720575042876020015111155b156157755760208701518951101561573e5786602001519450615743565b885194505b61575985615751874261598e565b8f898d6159a9565b97509550935061576a848d89615ac0565b151561577557600091505b6157858d8d8b606001518b615b9f565b935090508a156157a4576157a48d8d87878a888e606001516000615c9e565b8080156157ae5750815b6157b95760006157bc565b60015b9d9c50505050505050505050505050565b600160a060020a0383166000908152600e602052604081206002546003548390819081906001908290421180159061580757506001544210155b156158e05760015487541015615821576001549450615826565b865494505b61586b85615834874261598e565b604080516080810182528b54815260018c0154602082015260028c01549181019190915260038b015460608201528e908a906159a9565b6040805160a081018252600080548252600180546020840152600254938301939093526003546060830152600454939b509399509397506158d59388938f9391929091608084019160ff909116908111156158c257fe5b60018111156158cd57fe5b905250615ac0565b15156158e057600091505b60038701546040805160a0810182526005805482526006546020830152600754928201929092526008546060820152600954615942938f938f939192608083019060ff16600181111561592f57fe5b600181111561593a57fe5b905250615b9f565b935090508815615962576159628b8b87878a886005600301546001615c9e565b80801561596c5750815b151560011461597c57600061597f565b60015b9b9a5050505050505050505050565b60008183111561599d57600080fd5b50620151809190030490565b6040810151602082015160009182918291908280888b106159df57600092506159d8848c63ffffffff615cff16565b9350615a89565b600091505b8a821015615a8957600190930192888410615a7e57615a1d615a0c858b63ffffffff615d0c16565b60408a01519063ffffffff615d0c16565b9050615a43615a35826201518063ffffffff615d1e16565b89519063ffffffff615d0c16565b600160a060020a038b166000908152600c60209081526040808320848452909152902054909150615a7b90849063ffffffff615d0c16565b92505b6001909101906159e4565b615aac615a9f8c6201518063ffffffff615d1e16565b8d9063ffffffff615cff16565b929c929b5092995090975050505050505050565b600080600183608001516001811115615ad557fe5b1415615b81576012600a0a615b70601460009054906101000a9004600160a060020a0316600160a060020a03166318160ddd6040518163ffffffff1660e060020a028152600401602060405180830381600087803b158015615b3657600080fd5b505af1158015615b4a573d6000803e3d6000fd5b505050506040513d6020811015615b6057600080fd5b505185519063ffffffff615d1e16565b811515615b7957fe5b049050615b85565b5081515b615b95858563ffffffff615cff16565b1115949350505050565b600080600083606001514211158015615bbc575083602001514210155b15615c8c57506000841580615bd45750836020015185105b15615c1557615c0e615bfd62015180615bf187602001514261598e565b9063ffffffff615d1e16565b60208601519063ffffffff615cff16565b9450615c52565b62015180615c29428763ffffffff615d0c16565b10615c5257615c4f615c4262015180615bf1884261598e565b869063ffffffff615cff16565b94505b50600160a060020a0386166000908152600c60209081526040808320878452909152902054615c82818786615ac0565b8592509250615c94565b600185925092505b5094509492505050565b6000808215615cd657600160a060020a038a166000908152600e602052604090209150615cd18a8a8a8a8a8a8a89615d47565b613841565b50600160a060020a0389166000908152600d602052604090206138418a8a8a8a8a8a8a88615d47565b8181018281101561310157fe5b600082821115615d1857fe5b50900390565b6000821515615d2f57506000613101565b50818102818382811515615d3f57fe5b041461310157fe5b80548614615d53578581555b60038101548314615d6657600381018390555b60028101548414615d7957600281018490555b8615611929578515615df357615d95858863ffffffff615cff16565b6001820155600160a060020a0388166000908152600c60209081526040808320898452909152902054615dce908863ffffffff615cff16565b600160a060020a0389166000908152600c602090815260408083208a84529091529020555b858314158015615e0257508215155b8015615e0e5750814211155b1561192957600160a060020a0388166000908152600c60209081526040808320868452909152902054615e47908863ffffffff615cff16565b600160a060020a0389166000908152600c602090815260408083208784529091529020555050505050505050565b815481835581811115615e9957600083815260209020615e99918101908301615f01565b505050565b608060405190810160405280600081526020016000815260200160008152602001600081525090565b60a0604051908101604052806000815260200160008152602001600081526020016000815260200160006001811115615efc57fe5b905290565b6114d291905b808211156135ea5760008155600101615f0756004e6f7420416c6c6f7765640000000000000000000000000000000000000000005065726d697373696f6e20636865636b206661696c6564000000000000000000a165627a7a72305820c7f7c0bd1d2e023bde87bb683085318921aaa0402dcc393b1381d3866ed0707f0029",
  "source": "pragma solidity ^0.4.24;\n\nimport \"./ITransferManager.sol\";\nimport \"openzeppelin-solidity/contracts/math/SafeMath.sol\";\nimport \"../../libraries/BokkyPooBahsDateTimeLibrary.sol\";\nimport \"../../libraries/VolumeRestrictionLib.sol\";\n\ncontract VolumeRestrictionTM is VolumeRestrictionTMStorage, ITransferManager {\n\n    using SafeMath for uint256;\n\n    // permission definition\n    bytes32 public constant ADMIN = \"ADMIN\";\n\n    // Emit when the token holder is added/removed from the exemption list\n    event ChangedExemptWalletList(address indexed _wallet, bool _change);\n    // Emit when the new individual restriction is added corresponds to new token holders\n    event AddIndividualRestriction(\n        address indexed _holder,\n        uint256 _allowedTokens,\n        uint256 _startTime,\n        uint256 _rollingPeriodInDays,\n        uint256 _endTime,\n        uint256 _typeOfRestriction\n    );\n    // Emit when the new daily (Individual) restriction is added\n    event AddIndividualDailyRestriction(\n        address indexed _holder,\n        uint256 _allowedTokens,\n        uint256 _startTime,\n        uint256 _rollingPeriodInDays,\n        uint256 _endTime,\n        uint256 _typeOfRestriction\n    );\n    // Emit when the individual restriction is modified for a given address\n    event ModifyIndividualRestriction(\n        address indexed _holder,\n        uint256 _allowedTokens,\n        uint256 _startTime,\n        uint256 _rollingPeriodInDays,\n        uint256 _endTime,\n        uint256 _typeOfRestriction\n    );\n    // Emit when individual daily restriction get modified\n    event ModifyIndividualDailyRestriction(\n        address indexed _holder,\n        uint256 _allowedTokens,\n        uint256 _startTime,\n        uint256 _rollingPeriodInDays,\n        uint256 _endTime,\n        uint256 _typeOfRestriction\n    );\n    // Emit when the new global restriction is added\n    event AddDefaultRestriction(\n        uint256 _allowedTokens,\n        uint256 _startTime,\n        uint256 _rollingPeriodInDays,\n        uint256 _endTime,\n        uint256 _typeOfRestriction\n    );\n    // Emit when the new daily (Default) restriction is added\n    event AddDefaultDailyRestriction(\n        uint256 _allowedTokens,\n        uint256 _startTime,\n        uint256 _rollingPeriodInDays,\n        uint256 _endTime,\n        uint256 _typeOfRestriction\n    );\n    // Emit when default restriction get modified\n    event ModifyDefaultRestriction(\n        uint256 _allowedTokens,\n        uint256 _startTime,\n        uint256 _rollingPeriodInDays,\n        uint256 _endTime,\n        uint256 _typeOfRestriction\n    );\n    // Emit when daily default restriction get modified\n    event ModifyDefaultDailyRestriction(\n        uint256 _allowedTokens,\n        uint256 _startTime,\n        uint256 _rollingPeriodInDays,\n        uint256 _endTime,\n        uint256 _typeOfRestriction\n    );\n    // Emit when the individual restriction gets removed\n    event IndividualRestrictionRemoved(address indexed _holder);\n    // Emit when individual daily restriction removed\n    event IndividualDailyRestrictionRemoved(address indexed _holder);\n    // Emit when the default restriction gets removed\n    event DefaultRestrictionRemoved();\n    // Emit when the daily default restriction gets removed\n    event DefaultDailyRestrictionRemoved();\n\n    /**\n     * @notice Constructor\n     * @param _securityToken Address of the security token\n     * @param _polyAddress Address of the polytoken\n     */\n    constructor (address _securityToken, address _polyAddress)\n    public\n    Module(_securityToken, _polyAddress)\n    {\n\n    }\n\n    /**\n     * @notice Used to verify the transfer/transferFrom transaction and prevent tranaction\n     * whose volume of tokens will voilate the maximum volume transfer restriction\n     * @param _from Address of the sender\n     * @param _amount The amount of tokens to transfer\n     * @param _isTransfer Whether or not this is an actual transfer or just a test to see if the tokens would be transferrable\n     */\n    function verifyTransfer(address _from, address /*_to */, uint256 _amount, bytes /*_data*/, bool _isTransfer) public returns (Result) {\n        // If `_from` is present in the exemptionList or it is `0x0` address then it will not follow the vol restriction\n        if (!paused && _from != address(0) && exemptIndex[_from] == 0) {\n            // Function must only be called by the associated security token if _isTransfer == true\n            require(msg.sender == securityToken || !_isTransfer);\n            // Checking the individual restriction if the `_from` comes in the individual category\n            if ((individualRestriction[_from].endTime >= now && individualRestriction[_from].startTime <= now)\n                || (individualDailyRestriction[_from].endTime >= now && individualDailyRestriction[_from].startTime <= now)) {\n\n                return _individualRestrictionCheck(_from, _amount, _isTransfer);\n                // If the `_from` doesn't fall under the individual category. It will processed with in the global category automatically\n            } else if ((defaultRestriction.endTime >= now && defaultRestriction.startTime <= now)\n                || (defaultDailyRestriction.endTime >= now && defaultDailyRestriction.startTime <= now)) {\n\n                return _defaultRestrictionCheck(_from, _amount, _isTransfer);\n            }\n        }\n        return Result.NA;\n    }\n\n    /**\n     * @notice Add/Remove wallet address from the exempt list\n     * @param _wallet Ethereum wallet/contract address that need to be exempted\n     * @param _change Boolean value used to add (i.e true) or remove (i.e false) from the list\n     */\n    function changeExemptWalletList(address _wallet, bool _change) public withPerm(ADMIN) {\n        require(_wallet != address(0));\n        require((exemptIndex[_wallet] == 0) == _change);\n        if (_change) {\n            exemptAddresses.push(_wallet);\n            exemptIndex[_wallet] = exemptAddresses.length;\n        } else {\n            exemptAddresses[exemptIndex[_wallet] - 1] = exemptAddresses[exemptAddresses.length - 1];\n            exemptIndex[exemptAddresses[exemptIndex[_wallet] - 1]] = exemptIndex[_wallet];\n            delete exemptIndex[_wallet];\n            exemptAddresses.length --;\n        }\n        emit ChangedExemptWalletList(_wallet, _change);\n    }\n\n    /**\n     * @notice Use to add the new individual restriction for a given token holder\n     * @param _holder Address of the token holder, whom restriction will be implied\n     * @param _allowedTokens Amount of tokens allowed to be trade for a given address.\n     * @param _startTime Unix timestamp at which restriction get into effect\n     * @param _rollingPeriodInDays Rolling period in days (Minimum value should be 1 day)\n     * @param _endTime Unix timestamp at which restriction effects will gets end.\n     * @param _restrictionType It will be 0 or 1 (i.e 0 for fixed while 1 for Percentage)\n     */\n    function addIndividualRestriction(\n        address _holder,\n        uint256 _allowedTokens,\n        uint256 _startTime,\n        uint256 _rollingPeriodInDays,\n        uint256 _endTime,\n        uint256 _restrictionType\n    )\n        external\n        withPerm(ADMIN)\n    {\n        _addIndividualRestriction(\n            _holder,\n            _allowedTokens,\n            _startTime,\n            _rollingPeriodInDays,\n            _endTime,\n            _restrictionType\n        );\n    }\n\n    /// @notice Internal function to facilitate the addition of individual restriction\n    function _addIndividualRestriction(\n        address _holder,\n        uint256 _allowedTokens,\n        uint256 _startTime,\n        uint256 _rollingPeriodInDays,\n        uint256 _endTime,\n        uint256 _restrictionType\n    )\n        internal\n    {\n\n        if (_startTime == 0) {\n            _startTime = now;\n        }\n        require(\n            individualRestriction[_holder].endTime < now,\n            \"Not Allowed\"\n        );\n        require(_holder != address(0) && exemptIndex[_holder] == 0, \"Invalid address\");\n        _checkInputParams(_allowedTokens, _startTime, _rollingPeriodInDays, _endTime, _restrictionType, now);\n\n        if (individualRestriction[_holder].endTime != 0) {\n            _removeIndividualRestriction(_holder);\n        }\n        individualRestriction[_holder] = VolumeRestriction(\n            _allowedTokens,\n            _startTime,\n            _rollingPeriodInDays,\n            _endTime,\n            RestrictionType(_restrictionType)\n        );\n        VolumeRestrictionLib.addRestrictionData(holderData, _holder, uint8(TypeOfPeriod.MultipleDays), individualRestriction[_holder].endTime);\n        emit AddIndividualRestriction(\n            _holder,\n            _allowedTokens,\n            _startTime,\n            _rollingPeriodInDays,\n            _endTime,\n            _restrictionType\n        );\n    }\n\n    /**\n     * @notice Use to add the new individual daily restriction for all token holder\n     * @param _holder Address of the token holder, whom restriction will be implied\n     * @param _allowedTokens Amount of tokens allowed to be traded for all token holder.\n     * @param _startTime Unix timestamp at which restriction get into effect\n     * @param _endTime Unix timestamp at which restriction effects will gets end.\n     * @param _restrictionType It will be 0 or 1 (i.e 0 for fixed while 1 for Percentage)\n     */\n    function addIndividualDailyRestriction(\n        address _holder,\n        uint256 _allowedTokens,\n        uint256 _startTime,\n        uint256 _endTime,\n        uint256 _restrictionType\n    )\n        external\n        withPerm(ADMIN)\n    {\n        _addIndividualDailyRestriction(\n            _holder,\n            _allowedTokens,\n            _startTime,\n            _endTime,\n            _restrictionType\n        );\n    }\n\n    /// @notice Internal function to facilitate the addition of individual daily restriction\n    function _addIndividualDailyRestriction(\n        address _holder,\n        uint256 _allowedTokens,\n        uint256 _startTime,\n        uint256 _endTime,\n        uint256 _restrictionType\n    )\n        internal\n    {\n        if (_startTime == 0) {\n            _startTime = now;\n        }\n        require(\n            individualDailyRestriction[_holder].endTime < now,\n            \"Not Allowed\"\n        );\n        _checkInputParams(_allowedTokens, _startTime, 1, _endTime, _restrictionType, now);\n        individualDailyRestriction[_holder] = VolumeRestriction(\n            _allowedTokens,\n            _startTime,\n            1,\n            _endTime,\n            RestrictionType(_restrictionType)\n        );\n        VolumeRestrictionLib.addRestrictionData(holderData, _holder, uint8(TypeOfPeriod.OneDay), individualRestriction[_holder].endTime);\n        emit AddIndividualDailyRestriction(\n            _holder,\n            _allowedTokens,\n            _startTime,\n            1,\n            _endTime,\n            _restrictionType\n        );\n    }\n\n    /**\n     * @notice Use to add the new individual daily restriction for multiple token holders\n     * @param _holders Array of address of the token holders, whom restriction will be implied\n     * @param _allowedTokens Array of amount of tokens allowed to be trade for a given address.\n     * @param _startTimes Array of unix timestamps at which restrictions get into effect\n     * @param _endTimes Array of unix timestamps at which restriction effects will gets end.\n     * @param _restrictionTypes Array of restriction types value will be 0 or 1 (i.e 0 for fixed while 1 for Percentage)\n     */\n    function addIndividualDailyRestrictionMulti(\n        address[] _holders,\n        uint256[] _allowedTokens,\n        uint256[] _startTimes,\n        uint256[] _endTimes,\n        uint256[] _restrictionTypes\n    )\n        public\n        withPerm(ADMIN)\n    {\n        //NB - we duplicate _startTimes below to allow function reuse\n        VolumeRestrictionLib._checkLengthOfArray(_holders, _allowedTokens, _startTimes, _startTimes, _endTimes, _restrictionTypes);\n        for (uint256 i = 0; i < _holders.length; i++) {\n            _addIndividualDailyRestriction(\n                _holders[i],\n                _allowedTokens[i],\n                _startTimes[i],\n                _endTimes[i],\n                _restrictionTypes[i]\n            );\n        }\n    }\n\n    /**\n     * @notice Use to add the new individual restriction for multiple token holders\n     * @param _holders Array of address of the token holders, whom restriction will be implied\n     * @param _allowedTokens Array of amount of tokens allowed to be trade for a given address.\n     * @param _startTimes Array of unix timestamps at which restrictions get into effect\n     * @param _rollingPeriodInDays Array of rolling period in days (Minimum value should be 1 day)\n     * @param _endTimes Array of unix timestamps at which restriction effects will gets end.\n     * @param _restrictionTypes Array of restriction types value will be 0 or 1 (i.e 0 for fixed while 1 for Percentage)\n     */\n    function addIndividualRestrictionMulti(\n        address[] _holders,\n        uint256[] _allowedTokens,\n        uint256[] _startTimes,\n        uint256[] _rollingPeriodInDays,\n        uint256[] _endTimes,\n        uint256[] _restrictionTypes\n    )\n        public\n        withPerm(ADMIN)\n    {\n        VolumeRestrictionLib._checkLengthOfArray(_holders, _allowedTokens, _startTimes, _rollingPeriodInDays, _endTimes, _restrictionTypes);\n        for (uint256 i = 0; i < _holders.length; i++) {\n            _addIndividualRestriction(\n                _holders[i],\n                _allowedTokens[i],\n                _startTimes[i],\n                _rollingPeriodInDays[i],\n                _endTimes[i],\n                _restrictionTypes[i]\n            );\n        }\n    }\n\n    /**\n     * @notice Use to add the new default restriction for all token holder\n     * @param _allowedTokens Amount of tokens allowed to be traded for all token holder.\n     * @param _startTime Unix timestamp at which restriction get into effect\n     * @param _rollingPeriodInDays Rolling period in days (Minimum value should be 1 day)\n     * @param _endTime Unix timestamp at which restriction effects will gets end.\n     * @param _restrictionType It will be 0 or 1 (i.e 0 for fixed while 1 for Percentage)\n     */\n    function addDefaultRestriction(\n        uint256 _allowedTokens,\n        uint256 _startTime,\n        uint256 _rollingPeriodInDays,\n        uint256 _endTime,\n        uint256 _restrictionType\n    )\n        external\n        withPerm(ADMIN)\n    {\n        uint256 startTime = _startTime;\n        if (_startTime == 0) {\n            startTime = now;\n        }\n        require(\n            defaultRestriction.endTime < now,\n            \"Not Allowed\"\n        );\n        _checkInputParams(_allowedTokens, startTime, _rollingPeriodInDays, _endTime, _restrictionType, now);\n        defaultRestriction = VolumeRestriction(\n            _allowedTokens,\n            startTime,\n            _rollingPeriodInDays,\n            _endTime,\n            RestrictionType(_restrictionType)\n        );\n        emit AddDefaultRestriction(\n            _allowedTokens,\n            startTime,\n            _rollingPeriodInDays,\n            _endTime,\n            _restrictionType\n        );\n    }\n\n    /**\n     * @notice Use to add the new default daily restriction for all token holder\n     * @param _allowedTokens Amount of tokens allowed to be traded for all token holder.\n     * @param _startTime Unix timestamp at which restriction get into effect\n     * @param _endTime Unix timestamp at which restriction effects will gets end.\n     * @param _restrictionType It will be 0 or 1 (i.e 0 for fixed while 1 for Percentage)\n     */\n    function addDefaultDailyRestriction(\n        uint256 _allowedTokens,\n        uint256 _startTime,\n        uint256 _endTime,\n        uint256 _restrictionType\n    )\n        external\n        withPerm(ADMIN)\n    {\n        uint256 startTime = _startTime;\n        if (_startTime == 0) {\n            startTime = now;\n        }\n        require(\n            defaultDailyRestriction.endTime < now,\n            \"Not Allowed\"\n        );\n        _checkInputParams(_allowedTokens, startTime, 1, _endTime, _restrictionType, now);\n        defaultDailyRestriction = VolumeRestriction(\n            _allowedTokens,\n            startTime,\n            1,\n            _endTime,\n            RestrictionType(_restrictionType)\n        );\n        emit AddDefaultDailyRestriction(\n            _allowedTokens,\n            startTime,\n            1,\n            _endTime,\n            _restrictionType\n        );\n    }\n\n    /**\n     * @notice use to remove the individual restriction for a given address\n     * @param _holder Address of the user\n     */\n    function removeIndividualRestriction(address _holder) external withPerm(ADMIN) {\n        _removeIndividualRestriction(_holder);\n    }\n\n    /// @notice Internal function to facilitate the removal of individual restriction\n    function _removeIndividualRestriction(address _holder) internal {\n        require(_holder != address(0));\n        require(individualRestriction[_holder].endTime != 0);\n        individualRestriction[_holder] = VolumeRestriction(0, 0, 0, 0, RestrictionType(0));\n        VolumeRestrictionLib.deleteHolderFromList(holderData, _holder, uint8(TypeOfPeriod.OneDay));\n        userToBucket[_holder].lastTradedDayTime = 0;\n        userToBucket[_holder].sumOfLastPeriod = 0;\n        userToBucket[_holder].daysCovered = 0;\n        emit IndividualRestrictionRemoved(_holder);\n    }\n\n    /**\n     * @notice use to remove the individual restriction for a given address\n     * @param _holders Array of address of the user\n     */\n    function removeIndividualRestrictionMulti(address[] _holders) external withPerm(ADMIN) {\n        for (uint256 i = 0; i < _holders.length; i++) {\n            _removeIndividualRestriction(_holders[i]);\n        }\n    }\n\n    /**\n     * @notice use to remove the individual daily restriction for a given address\n     * @param _holder Address of the user\n     */\n    function removeIndividualDailyRestriction(address _holder) external withPerm(ADMIN) {\n        _removeIndividualDailyRestriction(_holder);\n    }\n\n    /// @notice Internal function to facilitate the removal of individual daily restriction\n    function _removeIndividualDailyRestriction(address _holder) internal {\n        require(_holder != address(0));\n        require(individualDailyRestriction[_holder].endTime != 0);\n        individualDailyRestriction[_holder] = VolumeRestriction(0, 0, 0, 0, RestrictionType(0));\n        VolumeRestrictionLib.deleteHolderFromList(holderData, _holder, uint8(TypeOfPeriod.MultipleDays));\n        userToBucket[_holder].dailyLastTradedDayTime = 0;\n        emit IndividualDailyRestrictionRemoved(_holder);\n    }\n\n    /**\n     * @notice use to remove the individual daily restriction for a given address\n     * @param _holders Array of address of the user\n     */\n    function removeIndividualDailyRestrictionMulti(address[] _holders) external withPerm(ADMIN) {\n        for (uint256 i = 0; i < _holders.length; i++) {\n            _removeIndividualDailyRestriction(_holders[i]);\n        }\n    }\n\n    /**\n     * @notice Use to remove the default restriction\n     */\n    function removeDefaultRestriction() public withPerm(ADMIN) {\n        require(defaultRestriction.endTime != 0);\n        defaultRestriction = VolumeRestriction(0, 0, 0, 0, RestrictionType(0));\n        emit DefaultRestrictionRemoved();\n    }\n\n    /**\n     * @notice Use to remove the daily default restriction\n     */\n    function removeDefaultDailyRestriction() external withPerm(ADMIN) {\n        require(defaultDailyRestriction.endTime != 0);\n        defaultDailyRestriction = VolumeRestriction(0, 0, 0, 0, RestrictionType(0));\n        emit DefaultDailyRestrictionRemoved();\n    }\n\n    /**\n     * @notice Use to modify the existing individual restriction for a given token holder\n     * @param _holder Address of the token holder, whom restriction will be implied\n     * @param _allowedTokens Amount of tokens allowed to be trade for a given address.\n     * @param _startTime Unix timestamp at which restriction get into effect\n     * @param _rollingPeriodInDays Rolling period in days (Minimum value should be 1 day)\n     * @param _endTime Unix timestamp at which restriction effects will gets end.\n     * @param _restrictionType It will be 0 or 1 (i.e 0 for fixed while 1 for Percentage)\n     */\n    function modifyIndividualRestriction(\n        address _holder,\n        uint256 _allowedTokens,\n        uint256 _startTime,\n        uint256 _rollingPeriodInDays,\n        uint256 _endTime,\n        uint256 _restrictionType\n    )\n        external\n        withPerm(ADMIN)\n    {\n        _modifyIndividualRestriction(\n            _holder,\n            _allowedTokens,\n            _startTime,\n            _rollingPeriodInDays,\n            _endTime,\n            _restrictionType\n        );\n    }\n\n    /// @notice Internal function to facilitate the modification of individual restriction\n    function _modifyIndividualRestriction(\n        address _holder,\n        uint256 _allowedTokens,\n        uint256 _startTime,\n        uint256 _rollingPeriodInDays,\n        uint256 _endTime,\n        uint256 _restrictionType\n    )\n        internal\n    {\n        /* uint256 startTime = _startTime; */\n        if (_startTime == 0) {\n            _startTime = now;\n        }\n        require(individualRestriction[_holder].startTime > now, \"Not Allowed\");\n        _checkInputParams(_allowedTokens, _startTime, _rollingPeriodInDays, _endTime, _restrictionType, now);\n        individualRestriction[_holder] = VolumeRestriction(\n            _allowedTokens,\n            _startTime,\n            _rollingPeriodInDays,\n            _endTime,\n            RestrictionType(_restrictionType)\n        );\n        emit ModifyIndividualRestriction(\n            _holder,\n            _allowedTokens,\n            _startTime,\n            _rollingPeriodInDays,\n            _endTime,\n            _restrictionType\n        );\n    }\n\n    /**\n     * @notice Use to modify the existing individual daily restriction for a given token holder\n     * @dev Changing of startTime will affect the 24 hrs span. i.e if in earlier restriction days start with\n     * morning and end on midnight while after the change day may start with afternoon and end with other day afternoon\n     * @param _holder Address of the token holder, whom restriction will be implied\n     * @param _allowedTokens Amount of tokens allowed to be trade for a given address.\n     * @param _startTime Unix timestamp at which restriction get into effect\n     * @param _endTime Unix timestamp at which restriction effects will gets end.\n     * @param _restrictionType It will be 0 or 1 (i.e 0 for fixed while 1 for Percentage)\n     */\n    function modifyIndividualDailyRestriction(\n        address _holder,\n        uint256 _allowedTokens,\n        uint256 _startTime,\n        uint256 _endTime,\n        uint256 _restrictionType\n    )\n        external\n        withPerm(ADMIN)\n    {\n        _modifyIndividualDailyRestriction(\n            _holder,\n            _allowedTokens,\n            _startTime,\n            _endTime,\n            _restrictionType\n        );\n    }\n\n    /// @notice Internal function to facilitate the modification of individual daily restriction\n    function _modifyIndividualDailyRestriction(\n        address _holder,\n        uint256 _allowedTokens,\n        uint256 _startTime,\n        uint256 _endTime,\n        uint256 _restrictionType\n    )\n        internal\n    {\n        if (_startTime == 0) {\n            _startTime = now;\n        }\n        _checkInputParams(_allowedTokens, _startTime, 1, _endTime, _restrictionType,\n          (individualDailyRestriction[_holder].startTime <= now ? individualDailyRestriction[_holder].startTime : now)\n        );\n        individualDailyRestriction[_holder] = VolumeRestriction(\n            _allowedTokens,\n            _startTime,\n            1,\n            _endTime,\n            RestrictionType(_restrictionType)\n        );\n        emit ModifyIndividualDailyRestriction(\n            _holder,\n            _allowedTokens,\n            _startTime,\n            1,\n            _endTime,\n            _restrictionType\n        );\n    }\n\n    /**\n     * @notice Use to modify the existing individual daily restriction for multiple token holders\n     * @param _holders Array of address of the token holders, whom restriction will be implied\n     * @param _allowedTokens Array of amount of tokens allowed to be trade for a given address.\n     * @param _startTimes Array of unix timestamps at which restrictions get into effect\n     * @param _endTimes Array of unix timestamps at which restriction effects will gets end.\n     * @param _restrictionTypes Array of restriction types value will be 0 or 1 (i.e 0 for fixed while 1 for Percentage)\n     */\n    function modifyIndividualDailyRestrictionMulti(\n        address[] _holders,\n        uint256[] _allowedTokens,\n        uint256[] _startTimes,\n        uint256[] _endTimes,\n        uint256[] _restrictionTypes\n    )\n        public\n        withPerm(ADMIN)\n    {\n        //NB - we duplicate _startTimes below to allow function reuse\n        VolumeRestrictionLib._checkLengthOfArray(_holders, _allowedTokens, _startTimes, _startTimes, _endTimes, _restrictionTypes);\n        for (uint256 i = 0; i < _holders.length; i++) {\n            _modifyIndividualDailyRestriction(\n                _holders[i],\n                _allowedTokens[i],\n                _startTimes[i],\n                _endTimes[i],\n                _restrictionTypes[i]\n            );\n        }\n    }\n\n    /**\n     * @notice Use to modify the existing individual restriction for multiple token holders\n     * @param _holders Array of address of the token holders, whom restriction will be implied\n     * @param _allowedTokens Array of amount of tokens allowed to be trade for a given address.\n     * @param _startTimes Array of unix timestamps at which restrictions get into effect\n     * @param _rollingPeriodInDays Array of rolling period in days (Minimum value should be 1 day)\n     * @param _endTimes Array of unix timestamps at which restriction effects will gets end.\n     * @param _restrictionTypes Array of restriction types value will be 0 or 1 (i.e 0 for fixed while 1 for Percentage)\n     */\n    function modifyIndividualRestrictionMulti(\n        address[] _holders,\n        uint256[] _allowedTokens,\n        uint256[] _startTimes,\n        uint256[] _rollingPeriodInDays,\n        uint256[] _endTimes,\n        uint256[] _restrictionTypes\n    )\n        public\n        withPerm(ADMIN)\n    {\n        VolumeRestrictionLib._checkLengthOfArray(_holders, _allowedTokens, _startTimes, _rollingPeriodInDays, _endTimes, _restrictionTypes);\n        for (uint256 i = 0; i < _holders.length; i++) {\n            _modifyIndividualRestriction(\n                _holders[i],\n                _allowedTokens[i],\n                _startTimes[i],\n                _rollingPeriodInDays[i],\n                _endTimes[i],\n                _restrictionTypes[i]\n            );\n        }\n    }\n\n    /**\n     * @notice Use to modify the global restriction for all token holder\n     * @param _allowedTokens Amount of tokens allowed to be traded for all token holder.\n     * @param _startTime Unix timestamp at which restriction get into effect\n     * @param _rollingPeriodInDays Rolling period in days (Minimum value should be 1 day)\n     * @param _endTime Unix timestamp at which restriction effects will gets end.\n     * @param _restrictionType It will be 0 or 1 (i.e 0 for fixed while 1 for Percentage)\n     */\n    function modifyDefaultRestriction(\n        uint256 _allowedTokens,\n        uint256 _startTime,\n        uint256 _rollingPeriodInDays,\n        uint256 _endTime,\n        uint256 _restrictionType\n    )\n        external\n        withPerm(ADMIN)\n    {\n        require(defaultRestriction.startTime > now, \"Not Allowed\");\n        uint256 startTime = _startTime;\n        if (_startTime == 0) {\n            startTime = now;\n        }\n        _checkInputParams(_allowedTokens, startTime, _rollingPeriodInDays, _endTime, _restrictionType, now);\n        defaultRestriction = VolumeRestriction(\n            _allowedTokens,\n            startTime,\n            _rollingPeriodInDays,\n            _endTime,\n            RestrictionType(_restrictionType)\n        );\n        emit ModifyDefaultRestriction(\n            _allowedTokens,\n            startTime,\n            _rollingPeriodInDays,\n            _endTime,\n            _restrictionType\n        );\n    }\n\n    /**\n     * @notice Use to modify the daily default restriction for all token holder\n     * @dev Changing of startTime will affect the 24 hrs span. i.e if in earlier restriction days start with\n     * morning and end on midnight while after the change day may start with afternoon and end with other day afternoon.\n     * @param _allowedTokens Amount of tokens allowed to be traded for all token holder.\n     * @param _startTime Unix timestamp at which restriction get into effect\n     * @param _endTime Unix timestamp at which restriction effects will gets end.\n     * @param _restrictionType It will be 0 or 1 (i.e 0 for fixed while 1 for Percentage)\n     */\n    function modifyDefaultDailyRestriction(\n        uint256 _allowedTokens,\n        uint256 _startTime,\n        uint256 _endTime,\n        uint256 _restrictionType\n    )\n        external\n        withPerm(ADMIN)\n    {\n        uint256 startTime = _startTime;\n        if (_startTime == 0) {\n            startTime = now;\n        }\n        // If old startTime is already passed then new startTime should be greater than or equal to the\n        // old startTime otherwise any past startTime can be allowed in compare to earlier startTime.\n        _checkInputParams(_allowedTokens, startTime, 1, _endTime, _restrictionType,\n            (defaultDailyRestriction.startTime <= now ? defaultDailyRestriction.startTime : now)\n        );\n        defaultDailyRestriction = VolumeRestriction(\n            _allowedTokens,\n            startTime,\n            1,\n            _endTime,\n            RestrictionType(_restrictionType)\n        );\n        emit ModifyDefaultDailyRestriction(\n            _allowedTokens,\n            startTime,\n            1,\n            _endTime,\n            _restrictionType\n        );\n    }\n\n    /**\n    * @notice Internal function used to validate the transaction for a given address\n    * If it validates then it also update the storage corressponds to the default restriction\n    */\n    function _defaultRestrictionCheck(address _from, uint256 _amount, bool _isTransfer) internal returns (Result) {\n        // using the variable to avoid stack too deep error\n        BucketDetails storage bucketDetails = defaultUserToBucket[_from];\n        uint256 daysCovered = defaultRestriction.rollingPeriodInDays;\n        uint256 fromTimestamp = 0;\n        uint256 sumOfLastPeriod = 0;\n        uint256 dailyTime = 0;\n        bool allowedDefault = true;\n        bool allowedDaily;\n        if (defaultRestriction.endTime >= now && defaultRestriction.startTime <= now) {\n            if (bucketDetails.lastTradedDayTime < defaultRestriction.startTime) {\n                // It will execute when the txn is performed first time after the addition of individual restriction\n                fromTimestamp = defaultRestriction.startTime;\n            } else {\n                // Picking up the last timestamp\n                fromTimestamp = bucketDetails.lastTradedDayTime;\n            }\n\n            // Check with the bucket and parse all the new timestamps to calculate the sumOfLastPeriod\n            // re-using the local variables to avoid the stack too deep error.\n            (sumOfLastPeriod, fromTimestamp, daysCovered) = _bucketCheck(\n                fromTimestamp,\n                BokkyPooBahsDateTimeLibrary.diffDays(fromTimestamp, now),\n                _from,\n                daysCovered,\n                bucketDetails\n            );\n            // validation of the transaction amount\n            if (!_checkValidAmountToTransact(sumOfLastPeriod, _amount, defaultRestriction)) {\n                allowedDefault = false;\n            }\n        }\n        (allowedDaily, dailyTime) = _dailyTxCheck(_from, _amount, bucketDetails.dailyLastTradedDayTime, defaultDailyRestriction);\n\n        if (_isTransfer) {\n            _updateStorage(\n                _from,\n                _amount,\n                fromTimestamp,\n                sumOfLastPeriod,\n                daysCovered,\n                dailyTime,\n                defaultDailyRestriction.endTime,\n                true\n            );\n        }\n        return ((allowedDaily && allowedDefault) == true ? Result.NA : Result.INVALID);\n    }\n\n    /**\n     * @notice Internal function used to validate the transaction for a given address\n     * If it validates then it also update the storage corressponds to the individual restriction\n     */\n    function _individualRestrictionCheck(address _from, uint256 _amount, bool _isTransfer) internal returns (Result) {\n        // using the variable to avoid stack too deep error\n        BucketDetails memory bucketDetails = userToBucket[_from];\n        VolumeRestriction memory dailyRestriction = individualDailyRestriction[_from];\n        VolumeRestriction memory restriction = individualRestriction[_from];\n        uint256 daysCovered = individualRestriction[_from].rollingPeriodInDays;\n        uint256 fromTimestamp = 0;\n        uint256 sumOfLastPeriod = 0;\n        uint256 dailyTime = 0;\n        bool allowedIndividual = true;\n        bool allowedDaily;\n        if (restriction.endTime >= now && restriction.startTime <= now) {\n            if (bucketDetails.lastTradedDayTime < restriction.startTime) {\n                // It will execute when the txn is performed first time after the addition of individual restriction\n                fromTimestamp = restriction.startTime;\n            } else {\n                // Picking up the last timestamp\n                fromTimestamp = bucketDetails.lastTradedDayTime;\n            }\n\n            // Check with the bucket and parse all the new timestamps to calculate the sumOfLastPeriod\n            // re-using the local variables to avoid the stack too deep error.\n            (sumOfLastPeriod, fromTimestamp, daysCovered) = _bucketCheck(\n                fromTimestamp,\n                BokkyPooBahsDateTimeLibrary.diffDays(fromTimestamp, now),\n                _from,\n                daysCovered,\n                bucketDetails\n            );\n            // validation of the transaction amount\n            if (!_checkValidAmountToTransact(sumOfLastPeriod, _amount, restriction)) {\n                allowedIndividual = false;\n            }\n        }\n        (allowedDaily, dailyTime) = _dailyTxCheck(_from, _amount, bucketDetails.dailyLastTradedDayTime, dailyRestriction);\n\n        if (_isTransfer) {\n            _updateStorage(\n                _from,\n                _amount,\n                fromTimestamp,\n                sumOfLastPeriod,\n                daysCovered,\n                dailyTime,\n                dailyRestriction.endTime,\n                false\n            );\n        }\n\n        return ((allowedDaily && allowedIndividual) ? Result.NA : Result.INVALID);\n    }\n\n    function _dailyTxCheck(\n        address from,\n        uint256 amount,\n        uint256 dailyLastTradedDayTime,\n        VolumeRestriction restriction\n    )\n        internal\n        view\n        returns(bool, uint256)\n    {\n        // Checking whether the daily restriction is added or not if yes then calculate\n        // the total amount get traded on a particular day (~ _fromTime)\n        if ( now <= restriction.endTime && now >= restriction.startTime) {\n            uint256 txSumOfDay = 0;\n            if (dailyLastTradedDayTime == 0 || dailyLastTradedDayTime < restriction.startTime)\n                // This if condition will be executed when the individual daily restriction executed first time\n                dailyLastTradedDayTime = restriction.startTime.add(BokkyPooBahsDateTimeLibrary.diffDays(restriction.startTime, now).mul(1 days));\n            else if (now.sub(dailyLastTradedDayTime) >= 1 days)\n                dailyLastTradedDayTime = dailyLastTradedDayTime.add(BokkyPooBahsDateTimeLibrary.diffDays(dailyLastTradedDayTime, now).mul(1 days));\n            // Assgining total sum traded on dailyLastTradedDayTime timestamp\n            txSumOfDay = bucket[from][dailyLastTradedDayTime];\n            return (_checkValidAmountToTransact(txSumOfDay, amount, restriction), dailyLastTradedDayTime);\n        }\n        return (true, dailyLastTradedDayTime);\n    }\n\n    /// Internal function for the bucket check\n    function _bucketCheck(\n        uint256 _fromTime,\n        uint256 _diffDays,\n        address _from,\n        uint256 _rollingPeriodInDays,\n        BucketDetails memory _bucketDetails\n    )\n        internal\n        view\n        returns (uint256, uint256, uint256)\n    {\n        uint256 counter = _bucketDetails.daysCovered;\n        uint256 sumOfLastPeriod = _bucketDetails.sumOfLastPeriod;\n        uint256 i = 0;\n        if (_diffDays >= _rollingPeriodInDays) {\n            // If the difference of days is greater than the rollingPeriod then sumOfLastPeriod will always be zero\n            sumOfLastPeriod = 0;\n            counter = counter.add(_diffDays);\n        } else {\n            for (i = 0; i < _diffDays; i++) {\n                counter++;\n                // This condition is to check whether the first rolling period is covered or not\n                // if not then it continues and adding 0 value into sumOfLastPeriod without subtracting\n                // the earlier value at that index\n                if (counter >= _rollingPeriodInDays) {\n                    // Subtracting the former value(Sum of all the txn amount of that day) from the sumOfLastPeriod\n                    // The below line subtracts (the traded volume on days no longer covered by rolling period) from sumOfLastPeriod.\n                    // Every loop execution subtracts one day's trade volume.\n                    // Loop starts from the first day covered in sumOfLastPeriod upto the day that is covered by rolling period.\n                    uint256 temp = _bucketDetails.daysCovered.sub(counter.sub(_rollingPeriodInDays));\n                    temp = _bucketDetails.lastTradedDayTime.sub(temp.mul(1 days));\n                    sumOfLastPeriod = sumOfLastPeriod.sub(bucket[_from][temp]);\n                }\n                // Adding the last amount that is transacted on the `_fromTime` not actually doing it but left written to understand\n                // the alogrithm\n                //_bucketDetails.sumOfLastPeriod = _bucketDetails.sumOfLastPeriod.add(uint256(0));\n            }\n        }\n        // calculating the timestamp that will used as an index of the next bucket\n        // i.e buckets period will be look like this T1 to T2-1, T2 to T3-1 ....\n        // where T1,T2,T3 are timestamps having 24 hrs difference\n        _fromTime = _fromTime.add(_diffDays.mul(1 days));\n        return (sumOfLastPeriod, _fromTime, counter);\n    }\n\n    function _checkValidAmountToTransact(\n        uint256 _sumOfLastPeriod,\n        uint256 _amountToTransact,\n        VolumeRestriction _restriction\n    )\n        internal\n        view\n        returns (bool)\n    {\n        uint256 _allowedAmount = 0;\n        if (_restriction.typeOfRestriction == RestrictionType.Percentage) {\n            _allowedAmount = (_restriction.allowedTokens.mul(ISecurityToken(securityToken).totalSupply())) / uint256(10) ** 18;\n        } else {\n            _allowedAmount = _restriction.allowedTokens;\n        }\n        // Validation on the amount to transact\n        return (_allowedAmount >= _sumOfLastPeriod.add(_amountToTransact));\n    }\n\n    function _updateStorage(\n        address _from,\n        uint256 _amount,\n        uint256 _lastTradedDayTime,\n        uint256 _sumOfLastPeriod,\n        uint256 _daysCovered,\n        uint256 _dailyLastTradedDayTime,\n        uint256 _endTime,\n        bool isDefault\n    )\n        internal\n    {\n\n        if (isDefault){\n            BucketDetails storage defaultUserToBucketDetails = defaultUserToBucket[_from];\n            _updateStorageActual(_from, _amount, _lastTradedDayTime, _sumOfLastPeriod, _daysCovered, _dailyLastTradedDayTime, _endTime, defaultUserToBucketDetails);\n        }\n        else {\n            BucketDetails storage userToBucketDetails = userToBucket[_from];\n            _updateStorageActual(_from, _amount, _lastTradedDayTime, _sumOfLastPeriod, _daysCovered, _dailyLastTradedDayTime, _endTime, userToBucketDetails);\n        }\n    }\n\n    function _updateStorageActual(\n        address _from,\n        uint256 _amount,\n        uint256 _lastTradedDayTime,\n        uint256 _sumOfLastPeriod,\n        uint256 _daysCovered,\n        uint256 _dailyLastTradedDayTime,\n        uint256 _endTime,\n        BucketDetails storage details\n    )\n        internal\n    {\n        // Cheap storage technique\n        if (details.lastTradedDayTime != _lastTradedDayTime) {\n            // Assigning the latest transaction timestamp of the day\n            details.lastTradedDayTime = _lastTradedDayTime;\n        }\n        if (details.dailyLastTradedDayTime != _dailyLastTradedDayTime) {\n            // Assigning the latest transaction timestamp of the day\n            details.dailyLastTradedDayTime = _dailyLastTradedDayTime;\n        }\n        if (details.daysCovered != _daysCovered) {\n                details.daysCovered = _daysCovered;\n        }\n        if (_amount != 0) {\n            if (_lastTradedDayTime !=0) {\n                details.sumOfLastPeriod = _sumOfLastPeriod.add(_amount);\n                // Increasing the total amount of the day by `_amount`\n                bucket[_from][_lastTradedDayTime] = bucket[_from][_lastTradedDayTime].add(_amount);\n            }\n            if ((_dailyLastTradedDayTime != _lastTradedDayTime) && _dailyLastTradedDayTime != 0 && now <= _endTime) {\n                // Increasing the total amount of the day by `_amount`\n                bucket[_from][_dailyLastTradedDayTime] = bucket[_from][_dailyLastTradedDayTime].add(_amount);\n            }\n        }\n    }\n\n    function _checkInputParams(\n        uint256 _allowedTokens,\n        uint256 _startTime,\n        uint256 _rollingPeriodDays,\n        uint256 _endTime,\n        uint256 _restrictionType,\n        uint256 _earliestStartTime\n    )\n        internal\n        pure\n    {\n        require(_restrictionType == 0 || _restrictionType == 1, \"Invalid type\");\n        require(_startTime >= _earliestStartTime, \"Invalid startTime\");\n        if (_restrictionType == uint256(RestrictionType.Fixed)) {\n            require(_allowedTokens > 0, \"Invalid value\");\n        } else {\n            require(\n                _allowedTokens > 0 && _allowedTokens <= 100 * 10 ** 16,\n                \"Invalid value\"\n            );\n        }\n        // Maximum limit for the rollingPeriod is 365 days\n        require(_rollingPeriodDays >= 1 && _rollingPeriodDays <= 365, \"Invalid rollingperiod\");\n        require(\n            BokkyPooBahsDateTimeLibrary.diffDays(_startTime, _endTime) >= _rollingPeriodDays && _endTime > _startTime,\n            \"Invalid times\"\n        );\n    }\n\n    /**\n     * @notice Use to get the bucket details for a given address\n     * @param _user Address of the token holder for whom the bucket details has queried\n     * @return uint256 lastTradedDayTime\n     * @return uint256 sumOfLastPeriod\n     * @return uint256 days covered\n     * @return uint256 24h lastTradedDayTime\n     */\n    function getIndividualBucketDetailsToUser(address _user) public view returns(uint256, uint256, uint256, uint256) {\n        return(\n            userToBucket[_user].lastTradedDayTime,\n            userToBucket[_user].sumOfLastPeriod,\n            userToBucket[_user].daysCovered,\n            userToBucket[_user].dailyLastTradedDayTime\n        );\n    }\n\n    /**\n     * @notice Use to get the bucket details for a given address\n     * @param _user Address of the token holder for whom the bucket details has queried\n     * @return uint256 lastTradedDayTime\n     * @return uint256 sumOfLastPeriod\n     * @return uint256 days covered\n     * @return uint256 24h lastTradedDayTime\n     */\n    function getDefaultBucketDetailsToUser(address _user) public view returns(uint256, uint256, uint256, uint256) {\n        return(\n            defaultUserToBucket[_user].lastTradedDayTime,\n            defaultUserToBucket[_user].sumOfLastPeriod,\n            defaultUserToBucket[_user].daysCovered,\n            defaultUserToBucket[_user].dailyLastTradedDayTime\n        );\n    }\n\n    /**\n     * @notice Use to get the volume of token that being traded at a particular day (`_at` + 24 hours) for a given user\n     * @param _user Address of the token holder\n     * @param _at Timestamp\n     */\n    function getTotalTradedByUser(address _user, uint256 _at) external view returns(uint256) {\n        return bucket[_user][_at];\n    }\n\n    /**\n     * @notice This function returns the signature of configure function\n     */\n    function getInitFunction() public view returns(bytes4) {\n        return bytes4(0);\n    }\n\n    /**\n     * @notice Use to return the list of exempted addresses\n     */\n    function getExemptAddress() external view returns(address[]) {\n        return exemptAddresses;\n    }\n\n    /**\n     * @notice Provide the restriction details of all the restricted addresses\n     * @return address List of the restricted addresses\n     * @return uint256 List of the tokens allowed to the restricted addresses corresponds to restricted address\n     * @return uint256 List of the start time of the restriction corresponds to restricted address\n     * @return uint256 List of the rolling period in days for a restriction corresponds to restricted address.\n     * @return uint256 List of the end time of the restriction corresponds to restricted address.\n     * @return uint8 List of the type of restriction to validate the value of the `allowedTokens`\n     * of the restriction corresponds to restricted address\n     */\n    function getRestrictedData() external view returns(\n        address[] memory allAddresses,\n        uint256[] memory allowedTokens,\n        uint256[] memory startTime,\n        uint256[] memory rollingPeriodInDays,\n        uint256[] memory endTime,\n        uint8[] memory typeOfRestriction\n    ) {\n        uint256 counter = 0;\n        uint256 i = 0;\n        for (i = 0; i < holderData.restrictedAddresses.length; i++) {\n            counter = counter + (holderData.restrictedHolders[holderData.restrictedAddresses[i]].typeOfPeriod == uint8(2) ? 2 : 1);\n        }\n        allAddresses = new address[](counter);\n        allowedTokens = new uint256[](counter);\n        startTime = new uint256[](counter);\n        rollingPeriodInDays = new uint256[](counter);\n        endTime = new uint256[](counter);\n        typeOfRestriction = new uint8[](counter);\n        counter = 0;\n        for (i = 0; i < holderData.restrictedAddresses.length; i++) {\n            allAddresses[counter] =  holderData.restrictedAddresses[i];\n            if (holderData.restrictedHolders[holderData.restrictedAddresses[i]].typeOfPeriod == uint8(TypeOfPeriod.MultipleDays)) {\n                _setValues(individualRestriction[holderData.restrictedAddresses[i]], allowedTokens, startTime, rollingPeriodInDays, endTime, typeOfRestriction, counter);\n            }\n            else if (holderData.restrictedHolders[holderData.restrictedAddresses[i]].typeOfPeriod == uint8(TypeOfPeriod.OneDay)) {\n                _setValues(individualDailyRestriction[holderData.restrictedAddresses[i]], allowedTokens, startTime, rollingPeriodInDays, endTime, typeOfRestriction, counter);\n            }\n            else if (holderData.restrictedHolders[holderData.restrictedAddresses[i]].typeOfPeriod == uint8(TypeOfPeriod.Both)) {\n                _setValues(individualRestriction[holderData.restrictedAddresses[i]], allowedTokens, startTime, rollingPeriodInDays, endTime, typeOfRestriction, counter);\n                counter = counter + 1;\n                allAddresses[counter] =  holderData.restrictedAddresses[i];\n                _setValues(individualDailyRestriction[holderData.restrictedAddresses[i]], allowedTokens, startTime, rollingPeriodInDays, endTime, typeOfRestriction, counter);\n            }\n            counter ++;\n        }\n    }\n\n    function _setValues(\n        VolumeRestriction memory restriction,\n        uint256[] memory allowedTokens,\n        uint256[] memory startTime,\n        uint256[] memory rollingPeriodInDays,\n        uint256[] memory endTime,\n        uint8[] memory typeOfRestriction,\n        uint256 index\n    )\n        internal\n        pure\n    {\n        allowedTokens[index] = restriction.allowedTokens;\n        startTime[index] = restriction.startTime;\n        rollingPeriodInDays[index] = restriction.rollingPeriodInDays;\n        endTime[index] = restriction.endTime;\n        typeOfRestriction[index] = uint8(restriction.typeOfRestriction);\n    }\n\n    /**\n     * @notice Returns the permissions flag that are associated with Percentage transfer Manager\n     */\n    function getPermissions() public view returns(bytes32[]) {\n        bytes32[] memory allPermissions = new bytes32[](1);\n        allPermissions[0] = ADMIN;\n        return allPermissions;\n    }\n\n}\n",
  "sourcePath": "/Users/jere/Code/polymath-apps/packages/new-polymath-scripts/src/generateLocalBlockchain/contracts/modules/TransferManager/VolumeRestrictionTM.sol",
  "compiler": {
    "name": "solc",
    "version": "0.4.24+commit.e67f0147.Emscripten.clang"
  },
  "schemaVersion": "2.0.1",
  "updatedAt": "2019-01-17T19:56:45.749Z"
}