{
  "contractName": "ModuleRegistry",
  "abi": [
    {
      "constant": true,
      "inputs": [
        {
          "name": "",
          "type": "address"
        }
      ],
      "name": "registry",
      "outputs": [
        {
          "name": "",
          "type": "uint8"
        }
      ],
      "payable": false,
      "stateMutability": "view",
      "type": "function"
    },
    {
      "constant": true,
      "inputs": [
        {
          "name": "",
          "type": "address"
        }
      ],
      "name": "verified",
      "outputs": [
        {
          "name": "",
          "type": "bool"
        }
      ],
      "payable": false,
      "stateMutability": "view",
      "type": "function"
    },
    {
      "constant": true,
      "inputs": [],
      "name": "tickerRegistry",
      "outputs": [
        {
          "name": "",
          "type": "address"
        }
      ],
      "payable": false,
      "stateMutability": "view",
      "type": "function"
    },
    {
      "constant": true,
      "inputs": [
        {
          "name": "",
          "type": "uint8"
        },
        {
          "name": "",
          "type": "uint256"
        }
      ],
      "name": "moduleList",
      "outputs": [
        {
          "name": "",
          "type": "address"
        }
      ],
      "payable": false,
      "stateMutability": "view",
      "type": "function"
    },
    {
      "constant": true,
      "inputs": [
        {
          "name": "",
          "type": "address"
        },
        {
          "name": "",
          "type": "uint256"
        }
      ],
      "name": "reputation",
      "outputs": [
        {
          "name": "",
          "type": "address"
        }
      ],
      "payable": false,
      "stateMutability": "view",
      "type": "function"
    },
    {
      "constant": true,
      "inputs": [],
      "name": "paused",
      "outputs": [
        {
          "name": "",
          "type": "bool"
        }
      ],
      "payable": false,
      "stateMutability": "view",
      "type": "function"
    },
    {
      "constant": true,
      "inputs": [
        {
          "name": "",
          "type": "uint8"
        },
        {
          "name": "",
          "type": "uint256"
        }
      ],
      "name": "availableTags",
      "outputs": [
        {
          "name": "",
          "type": "bytes32"
        }
      ],
      "payable": false,
      "stateMutability": "view",
      "type": "function"
    },
    {
      "constant": true,
      "inputs": [],
      "name": "polyToken",
      "outputs": [
        {
          "name": "",
          "type": "address"
        }
      ],
      "payable": false,
      "stateMutability": "view",
      "type": "function"
    },
    {
      "constant": false,
      "inputs": [],
      "name": "renounceOwnership",
      "outputs": [],
      "payable": false,
      "stateMutability": "nonpayable",
      "type": "function"
    },
    {
      "constant": true,
      "inputs": [],
      "name": "polymathRegistry",
      "outputs": [
        {
          "name": "",
          "type": "address"
        }
      ],
      "payable": false,
      "stateMutability": "view",
      "type": "function"
    },
    {
      "constant": false,
      "inputs": [
        {
          "name": "_tokenContract",
          "type": "address"
        }
      ],
      "name": "reclaimERC20",
      "outputs": [],
      "payable": false,
      "stateMutability": "nonpayable",
      "type": "function"
    },
    {
      "constant": true,
      "inputs": [],
      "name": "owner",
      "outputs": [
        {
          "name": "",
          "type": "address"
        }
      ],
      "payable": false,
      "stateMutability": "view",
      "type": "function"
    },
    {
      "constant": true,
      "inputs": [],
      "name": "moduleRegistry",
      "outputs": [
        {
          "name": "",
          "type": "address"
        }
      ],
      "payable": false,
      "stateMutability": "view",
      "type": "function"
    },
    {
      "constant": true,
      "inputs": [],
      "name": "securityTokenRegistry",
      "outputs": [
        {
          "name": "",
          "type": "address"
        }
      ],
      "payable": false,
      "stateMutability": "view",
      "type": "function"
    },
    {
      "constant": false,
      "inputs": [
        {
          "name": "_newOwner",
          "type": "address"
        }
      ],
      "name": "transferOwnership",
      "outputs": [],
      "payable": false,
      "stateMutability": "nonpayable",
      "type": "function"
    },
    {
      "constant": false,
      "inputs": [],
      "name": "updateFromRegistry",
      "outputs": [],
      "payable": false,
      "stateMutability": "nonpayable",
      "type": "function"
    },
    {
      "inputs": [
        {
          "name": "_polymathRegistry",
          "type": "address"
        }
      ],
      "payable": false,
      "stateMutability": "nonpayable",
      "type": "constructor"
    },
    {
      "anonymous": false,
      "inputs": [
        {
          "indexed": true,
          "name": "_moduleFactory",
          "type": "address"
        },
        {
          "indexed": true,
          "name": "_securityToken",
          "type": "address"
        }
      ],
      "name": "LogModuleUsed",
      "type": "event"
    },
    {
      "anonymous": false,
      "inputs": [
        {
          "indexed": true,
          "name": "_moduleFactory",
          "type": "address"
        },
        {
          "indexed": true,
          "name": "_owner",
          "type": "address"
        }
      ],
      "name": "LogModuleRegistered",
      "type": "event"
    },
    {
      "anonymous": false,
      "inputs": [
        {
          "indexed": true,
          "name": "_moduleFactory",
          "type": "address"
        },
        {
          "indexed": false,
          "name": "_verified",
          "type": "bool"
        }
      ],
      "name": "LogModuleVerified",
      "type": "event"
    },
    {
      "anonymous": false,
      "inputs": [
        {
          "indexed": true,
          "name": "previousOwner",
          "type": "address"
        }
      ],
      "name": "OwnershipRenounced",
      "type": "event"
    },
    {
      "anonymous": false,
      "inputs": [
        {
          "indexed": true,
          "name": "previousOwner",
          "type": "address"
        },
        {
          "indexed": true,
          "name": "newOwner",
          "type": "address"
        }
      ],
      "name": "OwnershipTransferred",
      "type": "event"
    },
    {
      "anonymous": false,
      "inputs": [
        {
          "indexed": false,
          "name": "_timestammp",
          "type": "uint256"
        }
      ],
      "name": "Pause",
      "type": "event"
    },
    {
      "anonymous": false,
      "inputs": [
        {
          "indexed": false,
          "name": "_timestamp",
          "type": "uint256"
        }
      ],
      "name": "Unpause",
      "type": "event"
    },
    {
      "constant": false,
      "inputs": [
        {
          "name": "_moduleFactory",
          "type": "address"
        }
      ],
      "name": "useModule",
      "outputs": [],
      "payable": false,
      "stateMutability": "nonpayable",
      "type": "function"
    },
    {
      "constant": false,
      "inputs": [
        {
          "name": "_moduleFactory",
          "type": "address"
        }
      ],
      "name": "registerModule",
      "outputs": [
        {
          "name": "",
          "type": "bool"
        }
      ],
      "payable": false,
      "stateMutability": "nonpayable",
      "type": "function"
    },
    {
      "constant": false,
      "inputs": [
        {
          "name": "_moduleFactory",
          "type": "address"
        },
        {
          "name": "_verified",
          "type": "bool"
        }
      ],
      "name": "verifyModule",
      "outputs": [
        {
          "name": "",
          "type": "bool"
        }
      ],
      "payable": false,
      "stateMutability": "nonpayable",
      "type": "function"
    },
    {
      "constant": true,
      "inputs": [
        {
          "name": "_moduleType",
          "type": "uint8"
        }
      ],
      "name": "getTagByModuleType",
      "outputs": [
        {
          "name": "",
          "type": "bytes32[]"
        }
      ],
      "payable": false,
      "stateMutability": "view",
      "type": "function"
    },
    {
      "constant": false,
      "inputs": [
        {
          "name": "_moduleType",
          "type": "uint8"
        },
        {
          "name": "_tag",
          "type": "bytes32[]"
        }
      ],
      "name": "addTagByModuleType",
      "outputs": [],
      "payable": false,
      "stateMutability": "nonpayable",
      "type": "function"
    },
    {
      "constant": false,
      "inputs": [
        {
          "name": "_moduleType",
          "type": "uint8"
        },
        {
          "name": "_removedTags",
          "type": "bytes32[]"
        }
      ],
      "name": "removeTagByModuleType",
      "outputs": [],
      "payable": false,
      "stateMutability": "nonpayable",
      "type": "function"
    },
    {
      "constant": false,
      "inputs": [],
      "name": "unpause",
      "outputs": [],
      "payable": false,
      "stateMutability": "nonpayable",
      "type": "function"
    },
    {
      "constant": false,
      "inputs": [],
      "name": "pause",
      "outputs": [],
      "payable": false,
      "stateMutability": "nonpayable",
      "type": "function"
    }
  ],
  "bytecode": "0x60806040526000805460ff1916905534801561001a57600080fd5b506040516020806118be83398101604052516000805461010060a860020a031916336101000217905580600160a060020a038116151561005957600080fd5b60018054600160a060020a031916600160a060020a039290921691909117905550611835806100896000396000f3006080604052600436106101245763ffffffff60e060020a600035041663038defd781146101295780630db065f4146101605780631e79933f146101955780632a858126146101f45780632cdc054c146102255780633f4ba83a146102435780634b951cbe1461025857806356196dc91461027c5780635c975abb146102e75780635e14fb35146102fc5780636faa22a51461032c578063715018a61461034157806377282b70146103565780638456cb591461036b5780638905fd4f146103805780638da5cb5b146103a15780639b77d69f146103b6578063ad64ae4b14610413578063b95459e414610434578063ce4dbdff14610449578063dc6599071461045e578063eac5ab431461047f578063f2fde38b146104a5578063f433262f146104c6575b600080fd5b34801561013557600080fd5b5061014a600160a060020a03600435166104db565b6040805160ff9092168252519081900360200190f35b34801561016c57600080fd5b50610181600160a060020a03600435166104f0565b604080519115158252519081900360200190f35b3480156101a157600080fd5b506040805160206004602480358281013584810280870186019097528086526101f296843560ff16963696604495919490910192918291850190849080828437509497506105059650505050505050565b005b34801561020057600080fd5b506102096105f7565b60408051600160a060020a039092168252519081900360200190f35b34801561023157600080fd5b5061020960ff60043516602435610606565b34801561024f57600080fd5b506101f261063d565b34801561026457600080fd5b50610209600160a060020a0360043516602435610663565b34801561028857600080fd5b5061029760ff6004351661067e565b60408051602080825283518183015283519192839290830191858101910280838360005b838110156102d35781810151838201526020016102bb565b505050509050019250505060405180910390f35b3480156102f357600080fd5b506101816106e5565b34801561030857600080fd5b5061031a60ff600435166024356106ee565b60408051918252519081900360200190f35b34801561033857600080fd5b5061020961071e565b34801561034d57600080fd5b506101f261072d565b34801561036257600080fd5b506102096107a3565b34801561037757600080fd5b506101f26107b2565b34801561038c57600080fd5b506101f2600160a060020a03600435166107d6565b3480156103ad57600080fd5b5061020961094f565b3480156103c257600080fd5b506040805160206004602480358281013584810280870186019097528086526101f296843560ff16963696604495919490910192918291850190849080828437509497506109639650505050505050565b34801561041f57600080fd5b50610181600160a060020a03600435166109df565b34801561044057600080fd5b50610209610de8565b34801561045557600080fd5b50610209610df7565b34801561046a57600080fd5b506101f2600160a060020a0360043516610e06565b34801561048b57600080fd5b50610181600160a060020a03600435166024351515611164565b3480156104b157600080fd5b506101f2600160a060020a036004351661127e565b3480156104d257600080fd5b506101f26112a3565b60066020526000908152604090205460ff1681565b60096020526000908152604090205460ff1681565b6000805481906101009004600160a060020a0316331461052457600080fd5b600091505b60ff8085166000908152600a602052604090205490831610156105f1575060005b82518160ff1610156105e657828160ff1681518110151561056757fe5b9060200190602002015160001916600a60008660ff1660ff1681526020019081526020016000208360ff1681548110151561059e57fe5b60009182526020909120015414156105de5760ff8085166000908152600a602052604090208054909184169081106105d257fe5b60009182526020822001555b60010161054a565b600190910190610529565b50505050565b600454600160a060020a031681565b60086020528160005260406000208181548110151561062157fe5b600091825260209091200154600160a060020a03169150829050565b6000546101009004600160a060020a0316331461065957600080fd5b6106616115bd565b565b60076020528160005260406000208181548110151561062157fe5b60ff81166000908152600a60209081526040918290208054835181840281018401909452808452606093928301828280156106d957602002820191906000526020600020905b815481526001909101906020018083116106c4575b50505050509050919050565b60005460ff1681565b600a6020528160005260406000208181548110151561070957fe5b90600052602060002001600091509150505481565b600554600160a060020a031681565b6000546101009004600160a060020a0316331461074957600080fd5b60008054604051610100909104600160a060020a0316917ff8df31144d9c2f0f6b59d69b8b98abd5459d07f2742c4df920b25aae33c6482091a26000805474ffffffffffffffffffffffffffffffffffffffff0019169055565b600154600160a060020a031681565b6000546101009004600160a060020a031633146107ce57600080fd5b610661611658565b6000805481906101009004600160a060020a031633146107f557600080fd5b600160a060020a038316151561080a57600080fd5b604080517f70a082310000000000000000000000000000000000000000000000000000000081523060048201529051849350600160a060020a038416916370a082319160248083019260209291908290030181600087803b15801561086e57600080fd5b505af1158015610882573d6000803e3d6000fd5b505050506040513d602081101561089857600080fd5b505160008054604080517fa9059cbb000000000000000000000000000000000000000000000000000000008152610100909204600160a060020a03908116600484015260248301859052905193945085169263a9059cbb92604480840193602093929083900390910190829087803b15801561091357600080fd5b505af1158015610927573d6000803e3d6000fd5b505050506040513d602081101561093d57600080fd5b5051151561094a57600080fd5b505050565b6000546101009004600160a060020a031681565b600080546101009004600160a060020a0316331461098057600080fd5b5060005b81518160ff16101561094a5760ff8084166000908152600a602052604090208351909184919084169081106109b557fe5b60209081029091018101518254600181810185556000948552929093209092019190915501610984565b60008054819060ff1615610a3d576040805160e560020a62461bcd02815260206004820152601260248201527f436f6e7472616374206973207061757365640000000000000000000000000000604482015290519081900360640190fd5b600160a060020a03831660009081526006602052604090205460ff1615610ad4576040805160e560020a62461bcd02815260206004820152602b60248201527f4d6f64756c6520666163746f72792073686f756c64206e6f742062652070726560448201527f2d72656769737465726564000000000000000000000000000000000000000000606482015290519081900360840190fd5b82905080600160a060020a03166315dae03e6040518163ffffffff1660e060020a028152600401602060405180830381600087803b158015610b1557600080fd5b505af1158015610b29573d6000803e3d6000fd5b505050506040513d6020811015610b3f57600080fd5b505160ff161515610bc0576040805160e560020a62461bcd02815260206004820152602260248201527f466163746f727920747970652073686f756c64206e6f7420657175616c20746f60448201527f2030000000000000000000000000000000000000000000000000000000000000606482015290519081900360840190fd5b80600160a060020a03166315dae03e6040518163ffffffff1660e060020a028152600401602060405180830381600087803b158015610bfe57600080fd5b505af1158015610c12573d6000803e3d6000fd5b505050506040513d6020811015610c2857600080fd5b5051600160a060020a038481166000908152600660209081526040808320805460ff191660ff9096169590951790945583517f15dae03e000000000000000000000000000000000000000000000000000000008152935160089492938616926315dae03e92600480830193919282900301818787803b158015610caa57600080fd5b505af1158015610cbe573d6000803e3d6000fd5b505050506040513d6020811015610cd457600080fd5b505160ff168152602080820192909252604090810160009081208054600181018255908252838220018054600160a060020a031916600160a060020a038816908117909155825182815280850180855291835260079094529190209151610d3c92919061177d565b5080600160a060020a0316638da5cb5b6040518163ffffffff1660e060020a028152600401602060405180830381600087803b158015610d7b57600080fd5b505af1158015610d8f573d6000803e3d6000fd5b505050506040513d6020811015610da557600080fd5b5051604051600160a060020a03918216918516907fae85ba22803e75ecc9115045a3a9e17c151fe6486fdb52acf6c0da16bbd38c1e90600090a350600192915050565b600254600160a060020a031681565b600354600160a060020a031681565b600354604080517fd300a9680000000000000000000000000000000000000000000000000000000081523360048201529051600160a060020a039092169163d300a968916024808201926020929091908290030181600087803b158015610e6c57600080fd5b505af1158015610e80573d6000803e3d6000fd5b505050506040513d6020811015610e9657600080fd5b50511561116157600160a060020a03811660009081526006602052604090205460ff161515610f35576040805160e560020a62461bcd02815260206004820152602260248201527f4d6f64756c65466163746f727920747970652073686f756c64206e6f7420626560448201527f2030000000000000000000000000000000000000000000000000000000000000606482015290519081900360840190fd5b600160a060020a03811660009081526009602052604090205460ff1680611057575033600160a060020a0316638da5cb5b6040518163ffffffff1660e060020a028152600401602060405180830381600087803b158015610f9557600080fd5b505af1158015610fa9573d6000803e3d6000fd5b505050506040513d6020811015610fbf57600080fd5b5051604080517f8da5cb5b0000000000000000000000000000000000000000000000000000000081529051600160a060020a0392831692841691638da5cb5b9160048083019260209291908290030181600087803b15801561102057600080fd5b505af1158015611034573d6000803e3d6000fd5b505050506040513d602081101561104a57600080fd5b5051600160a060020a0316145b15156110f9576040805160e560020a62461bcd02815260206004820152604160248201527f4d6f64756c6520666163746f7279206973206e6f74207665726966696564206160448201527f732077656c6c206173206e6f742063616c6c656420627920746865206f776e6560648201527f7200000000000000000000000000000000000000000000000000000000000000608482015290519081900360a40190fd5b600160a060020a038116600081815260076020908152604080832080546001810182559084529183209091018054600160a060020a0319163390811790915590519092917f6a29bd0f4ad1fa11b5da542f2cbb7caccf3f8547d9126b6708f294154b19351a91a35b50565b600080546101009004600160a060020a0316331461118157600080fd5b600160a060020a03831660009081526006602052604090205460ff161515611219576040805160e560020a62461bcd02815260206004820152603260248201527f4d6f64756c6520666163746f72792073686f756c642068617665206265656e2060448201527f616c726561647920726567697374657265640000000000000000000000000000606482015290519081900360840190fd5b600160a060020a038316600081815260096020908152604091829020805460ff1916861515908117909155825190815291517f3023e432a59b6690d2e5f03154a5c5274aa8f3029a88625f964aaafbe9931e4e9281900390910190a250600192915050565b6000546101009004600160a060020a0316331461129a57600080fd5b611161816116f5565b6000546101009004600160a060020a031633146112bf57600080fd5b6001546040805160e060020a63bf40fac1028152602060048201819052600e60248301527f4d6f64756c65526567697374727900000000000000000000000000000000000060448301529151600160a060020a039093169263bf40fac1926064808401939192918290030181600087803b15801561133c57600080fd5b505af1158015611350573d6000803e3d6000fd5b505050506040513d602081101561136657600080fd5b505160028054600160a060020a031916600160a060020a039283161790556001546040805160e060020a63bf40fac1028152602060048201819052601560248301527f5365637572697479546f6b656e5265676973747279000000000000000000000060448301529151929093169263bf40fac192606480830193928290030181600087803b1580156113f857600080fd5b505af115801561140c573d6000803e3d6000fd5b505050506040513d602081101561142257600080fd5b505160038054600160a060020a031916600160a060020a039283161790556001546040805160e060020a63bf40fac1028152602060048201819052600e60248301527f5469636b6572526567697374727900000000000000000000000000000000000060448301529151929093169263bf40fac192606480830193928290030181600087803b1580156114b457600080fd5b505af11580156114c8573d6000803e3d6000fd5b505050506040513d60208110156114de57600080fd5b505160048054600160a060020a031916600160a060020a039283161781556001546040805160e060020a63bf40fac10281526020938101849052600960248201527f506f6c79546f6b656e000000000000000000000000000000000000000000000060448201529051919093169263bf40fac19260648083019391928290030181600087803b15801561157057600080fd5b505af1158015611584573d6000803e3d6000fd5b505050506040513d602081101561159a57600080fd5b505160058054600160a060020a031916600160a060020a03909216919091179055565b60005460ff161515611619576040805160e560020a62461bcd02815260206004820152601660248201527f436f6e7472616374206973206e6f742070617573656400000000000000000000604482015290519081900360640190fd5b6000805460ff191690556040805142815290517faaa520fdd7d2c83061d632fa017b0432407e798818af63ea908589fceda39ab79181900360200190a1565b60005460ff16156116b3576040805160e560020a62461bcd02815260206004820152601260248201527f436f6e7472616374206973207061757365640000000000000000000000000000604482015290519081900360640190fd5b6000805460ff191660011790556040805142815290517f68b095021b1f40fe513109f513c66692f0b3219aee674a69f4efc57badb8201d9181900360200190a1565b600160a060020a038116151561170a57600080fd5b60008054604051600160a060020a038085169361010090930416917f8be0079c531659141344cd1fd0a4f28419497f9722a3daafe3b4186f6b6457e091a360008054600160a060020a039092166101000274ffffffffffffffffffffffffffffffffffffffff0019909216919091179055565b8280548282559060005260206000209081019282156117d2579160200282015b828111156117d25782518254600160a060020a031916600160a060020a0390911617825560209092019160019091019061179d565b506117de9291506117e2565b5090565b61180691905b808211156117de578054600160a060020a03191681556001016117e8565b905600a165627a7a723058208d398dfd47e8ca160c9d0cbd1fd3c2b02c9769c24817fbc70334f12ecccececd0029",
  "source": "pragma solidity ^0.4.24;\n\nimport \"./interfaces/IModuleRegistry.sol\";\nimport \"./interfaces/IModuleFactory.sol\";\nimport \"./interfaces/ISecurityToken.sol\";\nimport \"./interfaces/ISecurityTokenRegistry.sol\";\nimport \"./Pausable.sol\";\nimport \"./RegistryUpdater.sol\";\nimport \"./ReclaimTokens.sol\";\n\n/**\n* @title Registry contract to store registered modules\n* @notice Anyone can register modules, but only those \"approved\" by Polymath will be available for issuers to add\n*/\ncontract ModuleRegistry is IModuleRegistry, Pausable, RegistryUpdater, ReclaimTokens {\n\n    // Mapping used to hold the type of module factory corresponds to the address of the Module factory contract\n    mapping (address => uint8) public registry;\n    // Mapping used to hold the reputation of the factory\n    mapping (address => address[]) public reputation;\n    // Mapping contain the list of addresses of Module factory for a particular type\n    mapping (uint8 => address[]) public moduleList;\n    // contains the list of verified modules\n    mapping (address => bool) public verified;\n    // Contains the list of the available tags corresponds to the module type\n    mapping (uint8 => bytes32[]) public availableTags;\n\n    // Emit when Module been used by the securityToken\n    event LogModuleUsed(address indexed _moduleFactory, address indexed _securityToken);\n    // Emit when the Module Factory get registered with the ModuleRegistry contract\n    event LogModuleRegistered(address indexed _moduleFactory, address indexed _owner);\n    // Emit when the module get verified by the Polymath team\n    event LogModuleVerified(address indexed _moduleFactory, bool _verified);\n\n    constructor (address _polymathRegistry) public\n        RegistryUpdater(_polymathRegistry)\n    {\n    }\n\n   /**\n    * @notice Called by a security token to notify the registry it is using a module\n    * @param _moduleFactory is the address of the relevant module factory\n    */\n    function useModule(address _moduleFactory) external {\n        //If caller is a registered security token, then register module usage\n        if (ISecurityTokenRegistry(securityTokenRegistry).isSecurityToken(msg.sender)) {\n            require(registry[_moduleFactory] != 0, \"ModuleFactory type should not be 0\");\n            //To use a module, either it must be verified, or owned by the ST owner\n            require(verified[_moduleFactory]||(IModuleFactory(_moduleFactory).owner() == ISecurityToken(msg.sender).owner()),\n              \"Module factory is not verified as well as not called by the owner\");\n            reputation[_moduleFactory].push(msg.sender);\n            emit LogModuleUsed (_moduleFactory, msg.sender);\n        }\n    }\n\n    /**\n    * @notice Called by moduleFactory owner to register new modules for SecurityToken to use\n    * @param _moduleFactory is the address of the module factory to be registered\n    * @return bool\n    */\n    function registerModule(address _moduleFactory) external whenNotPaused returns(bool) {\n        require(registry[_moduleFactory] == 0, \"Module factory should not be pre-registered\");\n        IModuleFactory moduleFactory = IModuleFactory(_moduleFactory);\n        require(moduleFactory.getType() != 0, \"Factory type should not equal to 0\");\n        registry[_moduleFactory] = moduleFactory.getType();\n        moduleList[moduleFactory.getType()].push(_moduleFactory);\n        reputation[_moduleFactory] = new address[](0);\n        emit LogModuleRegistered (_moduleFactory, moduleFactory.owner());\n        return true;\n    }\n\n    /**\n    * @notice Called by Polymath to verify modules for SecurityToken to use.\n    * @notice A module can not be used by an ST unless first approved/verified by Polymath\n    * @notice (The only exception to this is that the author of the module is the owner of the ST)\n    * @param _moduleFactory is the address of the module factory to be registered\n    * @return bool\n    */\n    function verifyModule(address _moduleFactory, bool _verified) external onlyOwner returns(bool) {\n        //Must already have been registered\n        require(registry[_moduleFactory] != 0, \"Module factory should have been already registered\");\n        verified[_moduleFactory] = _verified;\n        emit LogModuleVerified(_moduleFactory, _verified);\n        return true;\n    }\n\n    /**\n     * @notice Use to get all the tags releated to the functionality of the Module Factory.\n     * @param _moduleType Type of module\n     * @return bytes32 array\n     */\n    function getTagByModuleType(uint8 _moduleType) public view returns(bytes32[]) {\n        return availableTags[_moduleType];\n    }\n\n    /**\n     * @notice Add the tag for specified Module Factory\n     * @param _moduleType Type of module.\n     * @param _tag List of tags\n     */\n     function addTagByModuleType(uint8 _moduleType, bytes32[] _tag) public onlyOwner {\n         for (uint8 i = 0; i < _tag.length; i++) {\n             availableTags[_moduleType].push(_tag[i]);\n         }\n     }\n\n    /**\n     * @notice remove the tag for specified Module Factory\n     * @param _moduleType Type of module.\n     * @param _removedTags List of tags\n     */\n     function removeTagByModuleType(uint8 _moduleType, bytes32[] _removedTags) public onlyOwner {\n         for (uint8 i = 0; i < availableTags[_moduleType].length; i++) {\n            for (uint8 j = 0; j < _removedTags.length; j++) {\n                if (availableTags[_moduleType][i] == _removedTags[j]) {\n                    delete availableTags[_moduleType][i];\n                }\n            }\n        }\n     }\n\n     /**\n     * @notice pause registration function\n     */\n    function unpause() public onlyOwner  {\n        _unpause();\n    }\n\n    /**\n     * @notice unpause registration function\n     */\n    function pause() public onlyOwner {\n        _pause();\n    }\n\n\n}\n",
  "sourcePath": "/Users/rafaelvidaurre/Code/polymath/polymath-apps/packages/polymath-shared/contracts/ModuleRegistry.sol",
  "compiler": {
    "name": "solc",
    "version": "0.4.24+commit.e67f0147.Emscripten.clang"
  },
  "schemaVersion": "2.0.1",
  "updatedAt": "2018-09-20T22:48:32.959Z"
}