{
  "contractName": "PercentageTransferManager",
  "abi": [
    {
      "constant": true,
      "inputs": [],
      "name": "WHITELIST",
      "outputs": [
        {
          "name": "",
          "type": "bytes32"
        }
      ],
      "payable": false,
      "stateMutability": "view",
      "type": "function"
    },
    {
      "constant": true,
      "inputs": [],
      "name": "maxHolderPercentage",
      "outputs": [
        {
          "name": "",
          "type": "uint256"
        }
      ],
      "payable": false,
      "stateMutability": "view",
      "type": "function"
    },
    {
      "constant": false,
      "inputs": [],
      "name": "unpause",
      "outputs": [],
      "payable": false,
      "stateMutability": "nonpayable",
      "type": "function"
    },
    {
      "constant": true,
      "inputs": [],
      "name": "paused",
      "outputs": [
        {
          "name": "",
          "type": "bool"
        }
      ],
      "payable": false,
      "stateMutability": "view",
      "type": "function"
    },
    {
      "constant": false,
      "inputs": [
        {
          "name": "_amount",
          "type": "uint256"
        }
      ],
      "name": "takeFee",
      "outputs": [
        {
          "name": "",
          "type": "bool"
        }
      ],
      "payable": false,
      "stateMutability": "nonpayable",
      "type": "function"
    },
    {
      "constant": true,
      "inputs": [],
      "name": "polyToken",
      "outputs": [
        {
          "name": "",
          "type": "address"
        }
      ],
      "payable": false,
      "stateMutability": "view",
      "type": "function"
    },
    {
      "constant": false,
      "inputs": [],
      "name": "pause",
      "outputs": [],
      "payable": false,
      "stateMutability": "nonpayable",
      "type": "function"
    },
    {
      "constant": true,
      "inputs": [
        {
          "name": "",
          "type": "address"
        }
      ],
      "name": "whitelist",
      "outputs": [
        {
          "name": "",
          "type": "bool"
        }
      ],
      "payable": false,
      "stateMutability": "view",
      "type": "function"
    },
    {
      "constant": true,
      "inputs": [],
      "name": "securityToken",
      "outputs": [
        {
          "name": "",
          "type": "address"
        }
      ],
      "payable": false,
      "stateMutability": "view",
      "type": "function"
    },
    {
      "constant": true,
      "inputs": [],
      "name": "factory",
      "outputs": [
        {
          "name": "",
          "type": "address"
        }
      ],
      "payable": false,
      "stateMutability": "view",
      "type": "function"
    },
    {
      "constant": true,
      "inputs": [],
      "name": "FEE_ADMIN",
      "outputs": [
        {
          "name": "",
          "type": "bytes32"
        }
      ],
      "payable": false,
      "stateMutability": "view",
      "type": "function"
    },
    {
      "inputs": [
        {
          "name": "_securityToken",
          "type": "address"
        },
        {
          "name": "_polyAddress",
          "type": "address"
        }
      ],
      "payable": false,
      "stateMutability": "nonpayable",
      "type": "constructor"
    },
    {
      "anonymous": false,
      "inputs": [
        {
          "indexed": false,
          "name": "_oldHolderPercentage",
          "type": "uint256"
        },
        {
          "indexed": false,
          "name": "_newHolderPercentage",
          "type": "uint256"
        }
      ],
      "name": "LogModifyHolderPercentage",
      "type": "event"
    },
    {
      "anonymous": false,
      "inputs": [
        {
          "indexed": false,
          "name": "_investor",
          "type": "address"
        },
        {
          "indexed": false,
          "name": "_dateAdded",
          "type": "uint256"
        },
        {
          "indexed": false,
          "name": "_addedBy",
          "type": "address"
        },
        {
          "indexed": false,
          "name": "_valid",
          "type": "bool"
        }
      ],
      "name": "LogModifyWhitelist",
      "type": "event"
    },
    {
      "anonymous": false,
      "inputs": [
        {
          "indexed": false,
          "name": "_timestammp",
          "type": "uint256"
        }
      ],
      "name": "Pause",
      "type": "event"
    },
    {
      "anonymous": false,
      "inputs": [
        {
          "indexed": false,
          "name": "_timestamp",
          "type": "uint256"
        }
      ],
      "name": "Unpause",
      "type": "event"
    },
    {
      "constant": false,
      "inputs": [
        {
          "name": "",
          "type": "address"
        },
        {
          "name": "_to",
          "type": "address"
        },
        {
          "name": "_amount",
          "type": "uint256"
        },
        {
          "name": "",
          "type": "bool"
        }
      ],
      "name": "verifyTransfer",
      "outputs": [
        {
          "name": "",
          "type": "uint8"
        }
      ],
      "payable": false,
      "stateMutability": "nonpayable",
      "type": "function"
    },
    {
      "constant": false,
      "inputs": [
        {
          "name": "_maxHolderPercentage",
          "type": "uint256"
        }
      ],
      "name": "configure",
      "outputs": [],
      "payable": false,
      "stateMutability": "nonpayable",
      "type": "function"
    },
    {
      "constant": true,
      "inputs": [],
      "name": "getInitFunction",
      "outputs": [
        {
          "name": "",
          "type": "bytes4"
        }
      ],
      "payable": false,
      "stateMutability": "pure",
      "type": "function"
    },
    {
      "constant": false,
      "inputs": [
        {
          "name": "_maxHolderPercentage",
          "type": "uint256"
        }
      ],
      "name": "changeHolderPercentage",
      "outputs": [],
      "payable": false,
      "stateMutability": "nonpayable",
      "type": "function"
    },
    {
      "constant": false,
      "inputs": [
        {
          "name": "_investor",
          "type": "address"
        },
        {
          "name": "_valid",
          "type": "bool"
        }
      ],
      "name": "modifyWhitelist",
      "outputs": [],
      "payable": false,
      "stateMutability": "nonpayable",
      "type": "function"
    },
    {
      "constant": false,
      "inputs": [
        {
          "name": "_investors",
          "type": "address[]"
        },
        {
          "name": "_valids",
          "type": "bool[]"
        }
      ],
      "name": "modifyWhitelistMulti",
      "outputs": [],
      "payable": false,
      "stateMutability": "nonpayable",
      "type": "function"
    },
    {
      "constant": true,
      "inputs": [],
      "name": "getPermissions",
      "outputs": [
        {
          "name": "",
          "type": "bytes32[]"
        }
      ],
      "payable": false,
      "stateMutability": "view",
      "type": "function"
    }
  ],
  "bytecode": "0x60806040526002805460a060020a60ff021916905534801561002057600080fd5b5060405160408061150283398101604052805160209091015160018054600160a060020a03938416600160a060020a0319918216179091556000805482163317905560028054939092169216919091179055611481806100816000396000f3006080604052600436106100e25763ffffffff60e060020a600035041663060d206e81146100e75780631613ec9d1461010f5780631bb7cc99146101595780631eb25e0a1461018057806334dee40f146101985780633f4ba83a146101ad5780635c975abb146101c25780635f7619a4146101eb57806366ffebb8146102035780636faa22a51461021b5780637915c9e01461024c5780638456cb591461029f5780639b19251a146102b4578063a5891bb0146102d5578063b84dfbd214610363578063c3a07df614610378578063c45a0155146103dd578063d70afa96146103f2575b600080fd5b3480156100f357600080fd5b5061010d600160a060020a03600435166024351515610407565b005b34801561011b57600080fd5b5061012461062a565b604080517fffffffff000000000000000000000000000000000000000000000000000000009092168252519081900360200190f35b34801561016557600080fd5b5061016e61065f565b60408051918252519081900360200190f35b34801561018c57600080fd5b5061010d600435610671565b3480156101a457600080fd5b5061016e6106d8565b3480156101b957600080fd5b5061010d6106de565b3480156101ce57600080fd5b506101d76107c6565b604080519115158252519081900360200190f35b3480156101f757600080fd5b506101d76004356107d6565b34801561020f57600080fd5b5061010d600435610b15565b34801561022757600080fd5b50610230610c35565b60408051600160a060020a039092168252519081900360200190f35b34801561025857600080fd5b5061027b600160a060020a03600435811690602435166044356064351515610c44565b6040518082600381111561028b57fe5b60ff16815260200191505060405180910390f35b3480156102ab57600080fd5b5061010d610e82565b3480156102c057600080fd5b506101d7600160a060020a0360043516610f68565b3480156102e157600080fd5b506040805160206004803580820135838102808601850190965280855261010d95369593946024949385019291829185019084908082843750506040805187358901803560208181028481018201909552818452989b9a998901989297509082019550935083925085019084908082843750949750610f7d9650505050505050565b34801561036f57600080fd5b506102306111df565b34801561038457600080fd5b5061038d6111ee565b60408051602080825283518183015283519192839290830191858101910280838360005b838110156103c95781810151838201526020016103b1565b505050509050019250505060405180910390f35b3480156103e957600080fd5b50610230611240565b3480156103fe57600080fd5b5061016e61124f565b600080516020611436833981519152600080600160009054906101000a9004600160a060020a0316600160a060020a0316638da5cb5b6040518163ffffffff1660e060020a028152600401602060405180830381600087803b15801561046c57600080fd5b505af1158015610480573d6000803e3d6000fd5b505050506040513d602081101561049657600080fd5b505160005433600160a060020a0392831681149450911614905081806104b95750805b8061055f5750600154604080517f8658b8b9000000000000000000000000000000000000000000000000000000008152336004820152306024820152604481018690529051600160a060020a0390921691638658b8b9916064808201926020929091908290030181600087803b15801561053257600080fd5b505af1158015610546573d6000803e3d6000fd5b505050506040513d602081101561055c57600080fd5b50515b15156105b5576040805160e560020a62461bcd02815260206004820152601760248201527f5065726d697373696f6e20636865636b206661696c6564000000000000000000604482015290519081900360640190fd5b600160a060020a038516600081815260046020908152604091829020805488151560ff1990911681179091558251938452429184019190915233838301526060830152517f92a32e2db0bd4f3560b8a5c04f3fb10141a87a75950b53a8d8f830abcf80a2989181900360800190a15050505050565b604080517f636f6e6669677572652875696e743235362900000000000000000000000000008152905190819003601201902090565b60008051602061143683398151915281565b600054600160a060020a031633146106d3576040805160e560020a62461bcd02815260206004820152601560248201527f53656e646572206973206e6f7420666163746f72790000000000000000000000604482015290519081900360640190fd5b600355565b60035481565b600160009054906101000a9004600160a060020a0316600160a060020a0316638da5cb5b6040518163ffffffff1660e060020a028152600401602060405180830381600087803b15801561073157600080fd5b505af1158015610745573d6000803e3d6000fd5b505050506040513d602081101561075b57600080fd5b5051600160a060020a031633146107bc576040805160e560020a62461bcd02815260206004820152601360248201527f53656e646572206973206e6f74206f776e657200000000000000000000000000604482015290519081900360640190fd5b6107c4611273565b565b60025460a060020a900460ff1681565b60007f4645455f41444d494e0000000000000000000000000000000000000000000000600080600160009054906101000a9004600160a060020a0316600160a060020a0316638da5cb5b6040518163ffffffff1660e060020a028152600401602060405180830381600087803b15801561084f57600080fd5b505af1158015610863573d6000803e3d6000fd5b505050506040513d602081101561087957600080fd5b505160005433600160a060020a03928316811494509116149050818061089c5750805b806109425750600154604080517f8658b8b9000000000000000000000000000000000000000000000000000000008152336004820152306024820152604481018690529051600160a060020a0390921691638658b8b9916064808201926020929091908290030181600087803b15801561091557600080fd5b505af1158015610929573d6000803e3d6000fd5b505050506040513d602081101561093f57600080fd5b50515b1515610998576040805160e560020a62461bcd02815260206004820152601760248201527f5065726d697373696f6e20636865636b206661696c6564000000000000000000604482015290519081900360640190fd5b60025460008054604080517f8da5cb5b0000000000000000000000000000000000000000000000000000000081529051600160a060020a03948516946323b872dd94309490911692638da5cb5b9260048083019360209383900390910190829087803b158015610a0757600080fd5b505af1158015610a1b573d6000803e3d6000fd5b505050506040513d6020811015610a3157600080fd5b50516040805160e060020a63ffffffff8616028152600160a060020a039384166004820152929091166024830152604482018990525160648083019260209291908290030181600087803b158015610a8857600080fd5b505af1158015610a9c573d6000803e3d6000fd5b505050506040513d6020811015610ab257600080fd5b50511515610b0a576040805160e560020a62461bcd02815260206004820152601260248201527f556e61626c6520746f2074616b65206665650000000000000000000000000000604482015290519081900360640190fd5b506001949350505050565b600160009054906101000a9004600160a060020a0316600160a060020a0316638da5cb5b6040518163ffffffff1660e060020a028152600401602060405180830381600087803b158015610b6857600080fd5b505af1158015610b7c573d6000803e3d6000fd5b505050506040513d6020811015610b9257600080fd5b5051600160a060020a03163314610bf3576040805160e560020a62461bcd02815260206004820152601360248201527f53656e646572206973206e6f74206f776e657200000000000000000000000000604482015290519081900360640190fd5b600354604080519182526020820183905280517f5e1376565b86c90c6291f3905cefa4a3c34472b6c5bf57f935d6c5b6de95e4979281900390910190a1600355565b600254600160a060020a031681565b600254600090819060a060020a900460ff161515610e7457600160a060020a03851660009081526004602052604090205460ff1615610c865760019150610e79565b600154604080517f70a08231000000000000000000000000000000000000000000000000000000008152600160a060020a0388811660048301529151610d2993889316916370a082319160248083019260209291908290030181600087803b158015610cf157600080fd5b505af1158015610d05573d6000803e3d6000fd5b505050506040513d6020811015610d1b57600080fd5b50519063ffffffff61132916565b9050600354610e5c600160009054906101000a9004600160a060020a0316600160a060020a03166318160ddd6040518163ffffffff1660e060020a028152600401602060405180830381600087803b158015610d8457600080fd5b505af1158015610d98573d6000803e3d6000fd5b505050506040513d6020811015610dae57600080fd5b5051600154604080517f313ce5670000000000000000000000000000000000000000000000000000000081529051610e5092600160a060020a03169163313ce5679160048083019260209291908290030181600087803b158015610e1157600080fd5b505af1158015610e25573d6000803e3d6000fd5b505050506040513d6020811015610e3b57600080fd5b5051859060ff16600a0a63ffffffff61133c16565b9063ffffffff61136516565b1115610e6b5760009150610e79565b60019150610e79565b600191505b50949350505050565b600160009054906101000a9004600160a060020a0316600160a060020a0316638da5cb5b6040518163ffffffff1660e060020a028152600401602060405180830381600087803b158015610ed557600080fd5b505af1158015610ee9573d6000803e3d6000fd5b505050506040513d6020811015610eff57600080fd5b5051600160a060020a03163314610f60576040805160e560020a62461bcd02815260206004820152601360248201527f53656e646572206973206e6f74206f776e657200000000000000000000000000604482015290519081900360640190fd5b6107c461137a565b60046020526000908152604090205460ff1681565b6000600080516020611436833981519152600080600160009054906101000a9004600160a060020a0316600160a060020a0316638da5cb5b6040518163ffffffff1660e060020a028152600401602060405180830381600087803b158015610fe457600080fd5b505af1158015610ff8573d6000803e3d6000fd5b505050506040513d602081101561100e57600080fd5b505160005433600160a060020a0392831681149450911614905081806110315750805b806110d75750600154604080517f8658b8b9000000000000000000000000000000000000000000000000000000008152336004820152306024820152604481018690529051600160a060020a0390921691638658b8b9916064808201926020929091908290030181600087803b1580156110aa57600080fd5b505af11580156110be573d6000803e3d6000fd5b505050506040513d60208110156110d457600080fd5b50515b151561112d576040805160e560020a62461bcd02815260206004820152601760248201527f5065726d697373696f6e20636865636b206661696c6564000000000000000000604482015290519081900360640190fd5b8451865114611186576040805160e560020a62461bcd02815260206004820152601c60248201527f496e707574206172726179206c656e677468206d69732d6d6174636800000000604482015290519081900360640190fd5b600093505b85518410156111d7576111cc86858151811015156111a557fe5b9060200190602002015186868151811015156111bd57fe5b90602001906020020151610407565b60019093019261118b565b505050505050565b600154600160a060020a031681565b6040805160018082528183019092526060918291906020808301908038833901905050905060008051602061143683398151915281600081518110151561123157fe5b60209081029091010152905090565b600054600160a060020a031681565b7f4645455f41444d494e000000000000000000000000000000000000000000000081565b60025460a060020a900460ff1615156112d6576040805160e560020a62461bcd02815260206004820152601660248201527f436f6e7472616374206973206e6f742070617573656400000000000000000000604482015290519081900360640190fd5b6002805474ff0000000000000000000000000000000000000000191690556040805142815290517faaa520fdd7d2c83061d632fa017b0432407e798818af63ea908589fceda39ab79181900360200190a1565b8181018281101561133657fe5b92915050565b600082151561134d57506000611336565b5081810281838281151561135d57fe5b041461133657fe5b6000818381151561137257fe5b049392505050565b60025460a060020a900460ff16156113dc576040805160e560020a62461bcd02815260206004820152601260248201527f436f6e7472616374206973207061757365640000000000000000000000000000604482015290519081900360640190fd5b6002805474ff0000000000000000000000000000000000000000191660a060020a1790556040805142815290517f68b095021b1f40fe513109f513c66692f0b3219aee674a69f4efc57badb8201d9181900360200190a1560057484954454c4953540000000000000000000000000000000000000000000000a165627a7a7230582093fc315bb4cd6558275b201ef7fe5a6792b4cd1dfeb6ee05d8fc5a284cd455a30029",
  "source": "pragma solidity ^0.4.24;\n\nimport \"./ITransferManager.sol\";\nimport \"openzeppelin-solidity/contracts/math/SafeMath.sol\";\n\n/////////////////////\n// Module permissions\n/////////////////////\n//                                        Owner       WHITELIST      FLAGS\n// modifyWhitelist                          X             X\n// modifyWhitelistMulti                     X             X\n\n/**\n * @title Transfer Manager module for limiting percentage of token supply a single address can hold\n */\ncontract PercentageTransferManager is ITransferManager {\n    using SafeMath for uint256;\n\n    // Permission key for modifying the whitelist\n    bytes32 public constant WHITELIST = \"WHITELIST\";\n\n    // Maximum percentage that any holder can have, multiplied by 10**16 - e.g. 20% is 20 * 10**16\n    uint256 public maxHolderPercentage;\n\n    // Addresses on this list are always able to send / receive tokens\n    mapping (address => bool) public whitelist;\n\n    event LogModifyHolderPercentage(uint256 _oldHolderPercentage, uint256 _newHolderPercentage);\n    event LogModifyWhitelist(\n        address _investor,\n        uint256 _dateAdded,\n        address _addedBy,\n        bool    _valid\n    );\n\n    /**\n     * @notice Constructor\n     * @param _securityToken Address of the security token\n     * @param _polyAddress Address of the polytoken\n     */\n    constructor (address _securityToken, address _polyAddress)\n    public\n    IModule(_securityToken, _polyAddress)\n    {\n    }\n\n    /// @notice Used to verify the transfer transaction according to the rule implemented in the trnasfer managers\n    function verifyTransfer(address /* _from */, address _to, uint256 _amount, bool /* _isTransfer */) public returns(Result) {\n        if (!paused) {\n            // If an address is on the whitelist, it is allowed to hold more than maxHolderPercentage of the tokens.\n            if (whitelist[_to]) {\n                return Result.NA;\n            }\n            uint256 newBalance = ISecurityToken(securityToken).balanceOf(_to).add(_amount);\n            if (newBalance.mul(10**uint256(ISecurityToken(securityToken).decimals())).div(ISecurityToken(securityToken).totalSupply()) > maxHolderPercentage) {\n                return Result.INVALID;\n            }\n            return Result.NA;\n        }\n        return Result.NA;\n    }\n\n    /**\n     * @notice Used to intialize the variables of the contract\n     * @param _maxHolderPercentage Maximum amount of ST20 tokens(in %) can hold by the investor\n     */\n    function configure(uint256 _maxHolderPercentage) public onlyFactory {\n        maxHolderPercentage = _maxHolderPercentage;\n    }\n\n    /**\n     * @notice This function returns the signature of configure function\n     */\n    function getInitFunction() public pure returns (bytes4) {\n        return bytes4(keccak256(\"configure(uint256)\"));\n    }\n\n    /**\n    * @notice sets the maximum percentage that an individual token holder can hold\n    * @param _maxHolderPercentage is the new maximum percentage (multiplied by 10**16)\n    */\n    function changeHolderPercentage(uint256 _maxHolderPercentage) public onlyOwner {\n        emit LogModifyHolderPercentage(maxHolderPercentage, _maxHolderPercentage);\n        maxHolderPercentage = _maxHolderPercentage;\n    }\n\n    /**\n    * @notice adds or removes addresses from the whitelist.\n    * @param _investor is the address to whitelist\n    * @param _valid whether or not the address it to be added or removed from the whitelist\n    */\n    function modifyWhitelist(address _investor, bool _valid) public withPerm(WHITELIST) {\n        whitelist[_investor] = _valid;\n        emit LogModifyWhitelist(_investor, now, msg.sender, _valid);\n    }\n\n    /**\n    * @notice adds or removes addresses from the whitelist.\n    * @param _investors Array of the addresses to whitelist\n    * @param _valids Array of boolean value to decide whether or not the address it to be added or removed from the whitelist\n    */\n    function modifyWhitelistMulti(address[] _investors, bool[] _valids) public withPerm(WHITELIST) {\n        require(_investors.length == _valids.length, \"Input array length mis-match\");\n        for (uint i = 0; i < _investors.length; i++) {\n            modifyWhitelist(_investors[i], _valids[i]);\n        }\n    }\n\n    /**\n     * @notice Return the permissions flag that are associated with Percentage transfer Manager\n     */\n    function getPermissions() public view returns(bytes32[]) {\n        bytes32[] memory allPermissions = new bytes32[](1);\n        allPermissions[0] = WHITELIST;\n        return allPermissions;\n    }\n\n}\n",
  "sourcePath": "/Users/rafaelvidaurre/Code/polymath/polymath-apps/packages/polymath-shared/contracts/modules/TransferManager/PercentageTransferManager.sol",
  "compiler": {
    "name": "solc",
    "version": "0.4.24+commit.e67f0147.Emscripten.clang"
  },
  "schemaVersion": "2.0.1",
  "updatedAt": "2018-09-20T22:48:17.287Z"
}