{
  "contractName": "CappedSTO",
  "abi": [
    {
      "constant": true,
      "inputs": [],
      "name": "rate",
      "outputs": [
        {
          "name": "",
          "type": "uint256"
        }
      ],
      "payable": false,
      "stateMutability": "view",
      "type": "function"
    },
    {
      "constant": true,
      "inputs": [],
      "name": "endTime",
      "outputs": [
        {
          "name": "",
          "type": "uint256"
        }
      ],
      "payable": false,
      "stateMutability": "view",
      "type": "function"
    },
    {
      "constant": true,
      "inputs": [],
      "name": "cap",
      "outputs": [
        {
          "name": "",
          "type": "uint256"
        }
      ],
      "payable": false,
      "stateMutability": "view",
      "type": "function"
    },
    {
      "constant": true,
      "inputs": [],
      "name": "tokensSold",
      "outputs": [
        {
          "name": "",
          "type": "uint256"
        }
      ],
      "payable": false,
      "stateMutability": "view",
      "type": "function"
    },
    {
      "constant": true,
      "inputs": [],
      "name": "wallet",
      "outputs": [
        {
          "name": "",
          "type": "address"
        }
      ],
      "payable": false,
      "stateMutability": "view",
      "type": "function"
    },
    {
      "constant": true,
      "inputs": [],
      "name": "paused",
      "outputs": [
        {
          "name": "",
          "type": "bool"
        }
      ],
      "payable": false,
      "stateMutability": "view",
      "type": "function"
    },
    {
      "constant": false,
      "inputs": [
        {
          "name": "_amount",
          "type": "uint256"
        }
      ],
      "name": "takeFee",
      "outputs": [
        {
          "name": "",
          "type": "bool"
        }
      ],
      "payable": false,
      "stateMutability": "nonpayable",
      "type": "function"
    },
    {
      "constant": true,
      "inputs": [],
      "name": "fundsRaised",
      "outputs": [
        {
          "name": "",
          "type": "uint256"
        }
      ],
      "payable": false,
      "stateMutability": "view",
      "type": "function"
    },
    {
      "constant": true,
      "inputs": [
        {
          "name": "",
          "type": "address"
        }
      ],
      "name": "investors",
      "outputs": [
        {
          "name": "",
          "type": "uint256"
        }
      ],
      "payable": false,
      "stateMutability": "view",
      "type": "function"
    },
    {
      "constant": true,
      "inputs": [],
      "name": "polyToken",
      "outputs": [
        {
          "name": "",
          "type": "address"
        }
      ],
      "payable": false,
      "stateMutability": "view",
      "type": "function"
    },
    {
      "constant": true,
      "inputs": [],
      "name": "startTime",
      "outputs": [
        {
          "name": "",
          "type": "uint256"
        }
      ],
      "payable": false,
      "stateMutability": "view",
      "type": "function"
    },
    {
      "constant": false,
      "inputs": [],
      "name": "pause",
      "outputs": [],
      "payable": false,
      "stateMutability": "nonpayable",
      "type": "function"
    },
    {
      "constant": false,
      "inputs": [
        {
          "name": "_tokenContract",
          "type": "address"
        }
      ],
      "name": "reclaimERC20",
      "outputs": [],
      "payable": false,
      "stateMutability": "nonpayable",
      "type": "function"
    },
    {
      "constant": true,
      "inputs": [
        {
          "name": "_beneficiary",
          "type": "address"
        },
        {
          "name": "_fundsAmount",
          "type": "uint256"
        }
      ],
      "name": "verifyInvestment",
      "outputs": [
        {
          "name": "",
          "type": "bool"
        }
      ],
      "payable": false,
      "stateMutability": "view",
      "type": "function"
    },
    {
      "constant": true,
      "inputs": [],
      "name": "securityToken",
      "outputs": [
        {
          "name": "",
          "type": "address"
        }
      ],
      "payable": false,
      "stateMutability": "view",
      "type": "function"
    },
    {
      "constant": true,
      "inputs": [],
      "name": "factory",
      "outputs": [
        {
          "name": "",
          "type": "address"
        }
      ],
      "payable": false,
      "stateMutability": "view",
      "type": "function"
    },
    {
      "constant": true,
      "inputs": [],
      "name": "fundraiseType",
      "outputs": [
        {
          "name": "",
          "type": "uint8"
        }
      ],
      "payable": false,
      "stateMutability": "view",
      "type": "function"
    },
    {
      "constant": true,
      "inputs": [],
      "name": "FEE_ADMIN",
      "outputs": [
        {
          "name": "",
          "type": "bytes32"
        }
      ],
      "payable": false,
      "stateMutability": "view",
      "type": "function"
    },
    {
      "constant": true,
      "inputs": [],
      "name": "investorCount",
      "outputs": [
        {
          "name": "",
          "type": "uint256"
        }
      ],
      "payable": false,
      "stateMutability": "view",
      "type": "function"
    },
    {
      "constant": false,
      "inputs": [
        {
          "name": "_newEndDate",
          "type": "uint256"
        }
      ],
      "name": "unpause",
      "outputs": [],
      "payable": false,
      "stateMutability": "nonpayable",
      "type": "function"
    },
    {
      "inputs": [
        {
          "name": "_securityToken",
          "type": "address"
        },
        {
          "name": "_polyAddress",
          "type": "address"
        }
      ],
      "payable": false,
      "stateMutability": "nonpayable",
      "type": "constructor"
    },
    {
      "payable": true,
      "stateMutability": "payable",
      "type": "fallback"
    },
    {
      "anonymous": false,
      "inputs": [
        {
          "indexed": true,
          "name": "purchaser",
          "type": "address"
        },
        {
          "indexed": true,
          "name": "beneficiary",
          "type": "address"
        },
        {
          "indexed": false,
          "name": "value",
          "type": "uint256"
        },
        {
          "indexed": false,
          "name": "amount",
          "type": "uint256"
        }
      ],
      "name": "TokenPurchase",
      "type": "event"
    },
    {
      "anonymous": false,
      "inputs": [
        {
          "indexed": false,
          "name": "_timestammp",
          "type": "uint256"
        }
      ],
      "name": "Pause",
      "type": "event"
    },
    {
      "anonymous": false,
      "inputs": [
        {
          "indexed": false,
          "name": "_timestamp",
          "type": "uint256"
        }
      ],
      "name": "Unpause",
      "type": "event"
    },
    {
      "constant": false,
      "inputs": [
        {
          "name": "_startTime",
          "type": "uint256"
        },
        {
          "name": "_endTime",
          "type": "uint256"
        },
        {
          "name": "_cap",
          "type": "uint256"
        },
        {
          "name": "_rate",
          "type": "uint256"
        },
        {
          "name": "_fundRaiseType",
          "type": "uint8"
        },
        {
          "name": "_fundsReceiver",
          "type": "address"
        }
      ],
      "name": "configure",
      "outputs": [],
      "payable": false,
      "stateMutability": "nonpayable",
      "type": "function"
    },
    {
      "constant": true,
      "inputs": [],
      "name": "getInitFunction",
      "outputs": [
        {
          "name": "",
          "type": "bytes4"
        }
      ],
      "payable": false,
      "stateMutability": "pure",
      "type": "function"
    },
    {
      "constant": false,
      "inputs": [
        {
          "name": "_beneficiary",
          "type": "address"
        }
      ],
      "name": "buyTokens",
      "outputs": [],
      "payable": true,
      "stateMutability": "payable",
      "type": "function"
    },
    {
      "constant": false,
      "inputs": [
        {
          "name": "_investedPOLY",
          "type": "uint256"
        }
      ],
      "name": "buyTokensWithPoly",
      "outputs": [],
      "payable": false,
      "stateMutability": "nonpayable",
      "type": "function"
    },
    {
      "constant": true,
      "inputs": [],
      "name": "capReached",
      "outputs": [
        {
          "name": "",
          "type": "bool"
        }
      ],
      "payable": false,
      "stateMutability": "view",
      "type": "function"
    },
    {
      "constant": true,
      "inputs": [],
      "name": "getRaisedEther",
      "outputs": [
        {
          "name": "",
          "type": "uint256"
        }
      ],
      "payable": false,
      "stateMutability": "view",
      "type": "function"
    },
    {
      "constant": true,
      "inputs": [],
      "name": "getRaisedPOLY",
      "outputs": [
        {
          "name": "",
          "type": "uint256"
        }
      ],
      "payable": false,
      "stateMutability": "view",
      "type": "function"
    },
    {
      "constant": true,
      "inputs": [],
      "name": "getNumberInvestors",
      "outputs": [
        {
          "name": "",
          "type": "uint256"
        }
      ],
      "payable": false,
      "stateMutability": "view",
      "type": "function"
    },
    {
      "constant": true,
      "inputs": [],
      "name": "getPermissions",
      "outputs": [
        {
          "name": "",
          "type": "bytes32[]"
        }
      ],
      "payable": false,
      "stateMutability": "view",
      "type": "function"
    },
    {
      "constant": true,
      "inputs": [],
      "name": "getSTODetails",
      "outputs": [
        {
          "name": "",
          "type": "uint256"
        },
        {
          "name": "",
          "type": "uint256"
        },
        {
          "name": "",
          "type": "uint256"
        },
        {
          "name": "",
          "type": "uint256"
        },
        {
          "name": "",
          "type": "uint256"
        },
        {
          "name": "",
          "type": "uint256"
        },
        {
          "name": "",
          "type": "uint256"
        },
        {
          "name": "",
          "type": "bool"
        }
      ],
      "payable": false,
      "stateMutability": "view",
      "type": "function"
    }
  ],
  "bytecode": "0x60806040526002805460a060020a60ff02191690556005805460ff1916905534801561002a57600080fd5b50604051604080611c3d83398101604052805160209091015160018054600160a060020a03938416600160a060020a0319918216179091556000805482163317905560028054939092169216919091179055611bb28061008b6000396000f3006080604052600436106101665763ffffffff60e060020a6000350416631040dc2781146101715780631613ec9d146101c95780632c4e722e146102135780633197cbb61461023a578063355274ea1461024f57806335ff3a511461026457806338c59de9146102795780634f9359451461028e578063518ab2a8146102b7578063521eb273146102cc5780635c975abb146102fd5780635f7619a4146103125780636681b9fd1461032a5780636f7bc9be1461033f5780636faa22a51461036057806378e97925146103755780638456cb591461038a5780638905fd4f1461039f5780639f5a851f146103c0578063a3fb8f15146103f3578063a412f87c14610408578063b84dfbd21461042c578063c3a07df614610441578063c45a0155146104a6578063cb752679146104bb578063d0d832ad146104d3578063d70afa961461050c578063d7e64c0014610521578063ec8ac4d814610536578063fabc1cbc1461054a575b61016f33610562565b005b34801561017d57600080fd5b50610186610659565b604080519889526020890197909752878701959095526060870193909352608086019190915260a085015260c0840152151560e083015251908190036101000190f35b3480156101d557600080fd5b506101de6106b9565b604080517fffffffff000000000000000000000000000000000000000000000000000000009092168252519081900360200190f35b34801561021f57600080fd5b50610228610715565b60408051918252519081900360200190f35b34801561024657600080fd5b5061022861071b565b34801561025b57600080fd5b50610228610721565b34801561027057600080fd5b50610228610727565b34801561028557600080fd5b5061022861075a565b34801561029a57600080fd5b506102a3610760565b604080519115158252519081900360200190f35b3480156102c357600080fd5b5061022861076b565b3480156102d857600080fd5b506102e1610771565b60408051600160a060020a039092168252519081900360200190f35b34801561030957600080fd5b506102a3610785565b34801561031e57600080fd5b506102a3600435610795565b34801561033657600080fd5b50610228610ad4565b34801561034b57600080fd5b50610228600160a060020a0360043516610ada565b34801561036c57600080fd5b506102e1610aec565b34801561038157600080fd5b50610228610afb565b34801561039657600080fd5b5061016f610b01565b3480156103ab57600080fd5b5061016f600160a060020a0360043516610bf7565b3480156103cc57600080fd5b5061016f60043560243560443560643560ff60843516600160a060020a0360a43516610e25565b3480156103ff57600080fd5b50610228611074565b34801561041457600080fd5b506102a3600160a060020a036004351660243561107d565b34801561043857600080fd5b506102e1611123565b34801561044d57600080fd5b50610456611132565b60408051602080825283518183015283519192839290830191858101910280838360005b8381101561049257818101518382015260200161047a565b505050509050019250505060405180910390f35b3480156104b257600080fd5b506102e1611144565b3480156104c757600080fd5b5061016f600435611153565b3480156104df57600080fd5b506104e86112ba565b604051808260018111156104f857fe5b60ff16815260200191505060405180910390f35b34801561051857600080fd5b506102286112ca565b34801561052d57600080fd5b506102286112ee565b61016f600160a060020a0360043516610562565b34801561055657600080fd5b5061016f6004356112f4565b60055460009060ff161561057557600080fd5b6005805460ff1916600117905560025460a060020a900460ff161561059957600080fd5b600060025460a860020a900460ff1660018111156105b357fe5b1461062d576040805160e560020a62461bcd028152602060048201526024808201527f4554482073686f756c6420626520746865206d6f6465206f6620696e7665737460448201527f6d656e7400000000000000000000000000000000000000000000000000000000606482015290519081900360840190fd5b503461063982826113ee565b61064161148e565b61064b82826114d1565b50506005805460ff19169055565b600080600080600080600080600354600454600a5460065460075460085460095460018081111561068657fe5b60025460a860020a900460ff16600181111561069e57fe5b14975097509750975097509750975097509091929394959697565b604080517f636f6e6669677572652875696e743235362c75696e743235362c75696e74323581527f362c75696e743235362c75696e74382c61646472657373290000000000000000602082015290519081900360380190205b90565b60065481565b60045481565b600a5481565b6000805b60025460a860020a900460ff16600181111561074357fe5b14156107525750600754610712565b506000610712565b60085490565b600a54600954101590565b60095481565b6005546101009004600160a060020a031681565b60025460a060020a900460ff1681565b60007f4645455f41444d494e0000000000000000000000000000000000000000000000600080600160009054906101000a9004600160a060020a0316600160a060020a0316638da5cb5b6040518163ffffffff1660e060020a028152600401602060405180830381600087803b15801561080e57600080fd5b505af1158015610822573d6000803e3d6000fd5b505050506040513d602081101561083857600080fd5b505160005433600160a060020a03928316811494509116149050818061085b5750805b806109015750600154604080517f8658b8b9000000000000000000000000000000000000000000000000000000008152336004820152306024820152604481018690529051600160a060020a0390921691638658b8b9916064808201926020929091908290030181600087803b1580156108d457600080fd5b505af11580156108e8573d6000803e3d6000fd5b505050506040513d60208110156108fe57600080fd5b50515b1515610957576040805160e560020a62461bcd02815260206004820152601760248201527f5065726d697373696f6e20636865636b206661696c6564000000000000000000604482015290519081900360640190fd5b60025460008054604080517f8da5cb5b0000000000000000000000000000000000000000000000000000000081529051600160a060020a03948516946323b872dd94309490911692638da5cb5b9260048083019360209383900390910190829087803b1580156109c657600080fd5b505af11580156109da573d6000803e3d6000fd5b505050506040513d60208110156109f057600080fd5b50516040805160e060020a63ffffffff8616028152600160a060020a039384166004820152929091166024830152604482018990525160648083019260209291908290030181600087803b158015610a4757600080fd5b505af1158015610a5b573d6000803e3d6000fd5b505050506040513d6020811015610a7157600080fd5b50511515610ac9576040805160e560020a62461bcd02815260206004820152601260248201527f556e61626c6520746f2074616b65206665650000000000000000000000000000604482015290519081900360640190fd5b506001949350505050565b60075481565b600b6020526000908152604090205481565b600254600160a060020a031681565b60035481565b600160009054906101000a9004600160a060020a0316600160a060020a0316638da5cb5b6040518163ffffffff1660e060020a028152600401602060405180830381600087803b158015610b5457600080fd5b505af1158015610b68573d6000803e3d6000fd5b505050506040513d6020811015610b7e57600080fd5b5051600160a060020a03163314610bdf576040805160e560020a62461bcd02815260206004820152601360248201527f53656e646572206973206e6f74206f776e657200000000000000000000000000604482015290519081900360640190fd5b6004544210610bed57600080fd5b610bf56114d5565b565b600080600160009054906101000a9004600160a060020a0316600160a060020a0316638da5cb5b6040518163ffffffff1660e060020a028152600401602060405180830381600087803b158015610c4d57600080fd5b505af1158015610c61573d6000803e3d6000fd5b505050506040513d6020811015610c7757600080fd5b5051600160a060020a03163314610cd8576040805160e560020a62461bcd02815260206004820152601360248201527f53656e646572206973206e6f74206f776e657200000000000000000000000000604482015290519081900360640190fd5b600160a060020a0383161515610ced57600080fd5b604080517f70a082310000000000000000000000000000000000000000000000000000000081523060048201529051849350600160a060020a038416916370a082319160248083019260209291908290030181600087803b158015610d5157600080fd5b505af1158015610d65573d6000803e3d6000fd5b505050506040513d6020811015610d7b57600080fd5b5051604080517fa9059cbb000000000000000000000000000000000000000000000000000000008152336004820152602481018390529051919250600160a060020a0384169163a9059cbb916044808201926020929091908290030181600087803b158015610de957600080fd5b505af1158015610dfd573d6000803e3d6000fd5b505050506040513d6020811015610e1357600080fd5b50511515610e2057600080fd5b505050565b600054600160a060020a03163314610e87576040805160e560020a62461bcd02815260206004820152601560248201527f53656e646572206973206e6f7420666163746f72790000000000000000000000604482015290519081900360640190fd5b60008311610f05576040805160e560020a62461bcd02815260206004820152602660248201527f52617465206f6620746f6b656e2073686f756c6420626520677265617465722060448201527f7468616e20300000000000000000000000000000000000000000000000000000606482015290519081900360840190fd5b600160a060020a0381161515610f65576040805160e560020a62461bcd02815260206004820152601d60248201527f5a65726f2061646472657373206973206e6f74207065726d6974746564000000604482015290519081900360640190fd5b428610158015610f7457508585115b1515610fca576040805160e560020a62461bcd02815260206004820152601d60248201527f4461746520706172616d657465727320617265206e6f742076616c6964000000604482015290519081900360640190fd5b60008411611022576040805160e560020a62461bcd02815260206004820152601c60248201527f4361702073686f756c642062652067726561746572207468616e203000000000604482015290519081900360640190fd5b60038690556004859055600a84905560068390556005805474ffffffffffffffffffffffffffffffffffffffff001916610100600160a060020a0384160217905561106c82611545565b505050505050565b6000600161072b565b600254604080517fdd62ed3e000000000000000000000000000000000000000000000000000000008152600160a060020a03858116600483015230602483015291516000938593169163dd62ed3e91604480830192602092919082900301818887803b1580156110ec57600080fd5b505af1158015611100573d6000803e3d6000fd5b505050506040513d602081101561111657600080fd5b5051101590505b92915050565b600154600160a060020a031681565b60408051600081526020810190915290565b600054600160a060020a031681565b60055460ff161561116357600080fd5b6005805460ff1916600117905560025460a060020a900460ff161561118757600080fd5b600160025460a860020a900460ff1660018111156111a157fe5b1461121c576040805160e560020a62461bcd02815260206004820152602560248201527f504f4c592073686f756c6420626520746865206d6f6465206f6620696e76657360448201527f746d656e74000000000000000000000000000000000000000000000000000000606482015290519081900360840190fd5b611226338261107d565b151561127c576040805160e560020a62461bcd02815260206004820152601460248201527f4e6f742076616c696420496e766573746d656e74000000000000000000000000604482015290519081900360640190fd5b61128633826113ee565b6005546112a39033906101009004600160a060020a031683611694565b6112ad33826114d1565b506005805460ff19169055565b60025460a860020a900460ff1681565b7f4645455f41444d494e000000000000000000000000000000000000000000000081565b60085481565b600160009054906101000a9004600160a060020a0316600160a060020a0316638da5cb5b6040518163ffffffff1660e060020a028152600401602060405180830381600087803b15801561134757600080fd5b505af115801561135b573d6000803e3d6000fd5b505050506040513d602081101561137157600080fd5b5051600160a060020a031633146113d2576040805160e560020a62461bcd02815260206004820152601360248201527f53656e646572206973206e6f74206f776e657200000000000000000000000000604482015290519081900360640190fd5b6004548110156113e157600080fd5b6113e961173c565b600455565b60006113fa83836117a7565b611403826119d3565b600754909150611419908363ffffffff6119ea16565b60075560095461142f908263ffffffff6119ea16565b60095561143c83826119f7565b60408051838152602081018390528151600160a060020a0386169233927f623b3804fa71d67900d064613da8f94b9617215ee90799290593e1745087ad18929081900390910190a3610e2083836114d1565b600554604051600160a060020a0361010090920491909116903480156108fc02916000818181858888f193505050501580156114ce573d6000803e3d6000fd5b50565b5050565b60025460a060020a900460ff16156114ec57600080fd5b6002805474ff0000000000000000000000000000000000000000191660a060020a1790556040805142815290517f68b095021b1f40fe513109f513c66692f0b3219aee674a69f4efc57badb8201d9181900360200190a1565b60ff8116158061155857508060ff166001145b15156115ae576040805160e560020a62461bcd02815260206004820152601a60248201527f4e6f7420612076616c69642066756e6472616973652074797065000000000000604482015290519081900360640190fd5b60ff811615156115d8576002805475ff000000000000000000000000000000000000000000191690555b8060ff16600114156114ce57600254600160a060020a0316151561166c576040805160e560020a62461bcd02815260206004820152602960248201527f41646472657373206f662074686520706f6c79546f6b656e2073686f756c642060448201527f6e6f742062652030780000000000000000000000000000000000000000000000606482015290519081900360840190fd5b506002805475ff000000000000000000000000000000000000000000191660a860020a179055565b600254604080517f23b872dd000000000000000000000000000000000000000000000000000000008152600160a060020a038681166004830152858116602483015260448201859052915191909216916323b872dd9160648083019260209291908290030181600087803b15801561170b57600080fd5b505af115801561171f573d6000803e3d6000fd5b505050506040513d602081101561173557600080fd5b5050505050565b60025460a060020a900460ff16151561175457600080fd5b6002805474ff0000000000000000000000000000000000000000191690556040805142815290517faaa520fdd7d2c83061d632fa017b0432407e798818af63ea908589fceda39ab79181900360200190a1565b600160a060020a038216151561182c576040805160e560020a62461bcd028152602060048201526024808201527f42656e656669636961727920616464726573732073686f756c64206e6f74206260448201527f6520307800000000000000000000000000000000000000000000000000000000606482015290519081900360840190fd5b8015156118a9576040805160e560020a62461bcd02815260206004820152602860248201527f416d6f756e7420696e7665737465642073686f756c64206e6f7420626520657160448201527f75616c20746f2030000000000000000000000000000000000000000000000000606482015290519081900360840190fd5b600a546118c76118b8836119d3565b6009549063ffffffff6119ea16565b1115611943576040805160e560020a62461bcd02815260206004820152602760248201527f496e766573746d656e74206d6f7265207468616e20636170206973206e6f742060448201527f616c6c6f77656400000000000000000000000000000000000000000000000000606482015290519081900360840190fd5b600354421015801561195757506004544211155b15156114d1576040805160e560020a62461bcd02815260206004820152602260248201527f4f66666572696e6720697320636c6f7365642f4e6f742079657420737461727460448201527f6564000000000000000000000000000000000000000000000000000000000000606482015290519081900360840190fd5b600061111d60065483611a6c90919063ffffffff16565b8181018281101561111d57fe5b600160a060020a0382166000908152600b60205260409020541515611a20576008805460010190555b600160a060020a0382166000908152600b6020526040902054611a49908263ffffffff6119ea16565b600160a060020a0383166000908152600b60205260409020556114d18282611a95565b6000821515611a7d5750600061111d565b50818102818382811515611a8d57fe5b041461111d57fe5b600154604080517f40c10f19000000000000000000000000000000000000000000000000000000008152600160a060020a03858116600483015260248201859052915191909216916340c10f199160448083019260209291908290030181600087803b158015611b0457600080fd5b505af1158015611b18573d6000803e3d6000fd5b505050506040513d6020811015611b2e57600080fd5b505115156114d1576040805160e560020a62461bcd02815260206004820152601b60248201527f4572726f7220696e206d696e74696e672074686520746f6b656e730000000000604482015290519081900360640190fd00a165627a7a72305820e78ea2e33371b9ba8fe786f9c7254b016c574915ae0c6bc49d17977de0fa8a110029",
  "source": "pragma solidity ^0.4.24;\n\nimport \"./ISTO.sol\";\nimport \"../../interfaces/IST20.sol\";\nimport \"openzeppelin-solidity/contracts/ReentrancyGuard.sol\";\nimport \"openzeppelin-solidity/contracts/math/SafeMath.sol\";\n\n/**\n * @title STO module for standard capped crowdsale\n */\ncontract CappedSTO is ISTO, ReentrancyGuard {\n    using SafeMath for uint256;\n\n    // Address where funds are collected and tokens are issued to\n    address public wallet;\n\n    // How many token units a buyer gets per wei / base unit of POLY\n    uint256 public rate;\n\n    // Amount of funds raised\n    uint256 public fundsRaised;\n\n    uint256 public investorCount;\n\n    // Amount of tokens sold\n    uint256 public tokensSold;\n\n    //How many tokens this STO will be allowed to sell to investors\n    uint256 public cap;\n\n    mapping (address => uint256) public investors;\n\n    /**\n    * Event for token purchase logging\n    * @param purchaser who paid for the tokens\n    * @param beneficiary who got the tokens\n    * @param value weis paid for purchase\n    * @param amount amount of tokens purchased\n    */\n    event TokenPurchase(address indexed purchaser, address indexed beneficiary, uint256 value, uint256 amount);\n\n    constructor (address _securityToken, address _polyAddress) public\n    IModule(_securityToken, _polyAddress)\n    {\n    }\n\n    //////////////////////////////////\n    /**\n    * @notice fallback function ***DO NOT OVERRIDE***\n    */\n    function () external payable {\n        buyTokens(msg.sender);\n    }\n\n    /**\n     * @notice Function used to intialize the contract variables\n     * @param _startTime Unix timestamp at which offering get started\n     * @param _endTime Unix timestamp at which offering get ended\n     * @param _cap Maximum No. of tokens for sale\n     * @param _rate Token units a buyer gets per wei / base unit of POLY\n     * @param _fundRaiseType Type of currency used to collect the funds\n     * @param _fundsReceiver Ethereum account address to hold the funds\n     */\n    function configure(\n        uint256 _startTime,\n        uint256 _endTime,\n        uint256 _cap,\n        uint256 _rate,\n        uint8 _fundRaiseType,\n        address _fundsReceiver\n    )\n    public\n    onlyFactory\n    {\n        require(_rate > 0, \"Rate of token should be greater than 0\");\n        require(_fundsReceiver != address(0), \"Zero address is not permitted\");\n        require(_startTime >= now && _endTime > _startTime, \"Date parameters are not valid\");\n        require(_cap > 0, \"Cap should be greater than 0\");\n        startTime = _startTime;\n        endTime = _endTime;\n        cap = _cap;\n        rate = _rate;\n        wallet = _fundsReceiver;\n        _check(_fundRaiseType);\n    }\n\n    /**\n     * @notice This function returns the signature of configure function\n     */\n    function getInitFunction() public pure returns (bytes4) {\n        return bytes4(keccak256(\"configure(uint256,uint256,uint256,uint256,uint8,address)\"));\n    }\n\n    /**\n      * @notice low level token purchase ***DO NOT OVERRIDE***\n      * @param _beneficiary Address performing the token purchase\n      */\n    function buyTokens(address _beneficiary) public payable nonReentrant {\n        require(!paused);\n        require(fundraiseType == FundraiseType.ETH, \"ETH should be the mode of investment\");\n\n        uint256 weiAmount = msg.value;\n        _processTx(_beneficiary, weiAmount);\n\n        _forwardFunds();\n        _postValidatePurchase(_beneficiary, weiAmount);\n    }\n\n    /**\n      * @notice low level token purchase\n      * @param _investedPOLY Amount of POLY invested\n      */\n    function buyTokensWithPoly(uint256 _investedPOLY) public nonReentrant{\n        require(!paused);\n        require(fundraiseType == FundraiseType.POLY, \"POLY should be the mode of investment\");\n        require(verifyInvestment(msg.sender, _investedPOLY), \"Not valid Investment\");\n        _processTx(msg.sender, _investedPOLY);\n        _forwardPoly(msg.sender, wallet, _investedPOLY);\n        _postValidatePurchase(msg.sender, _investedPOLY);\n    }\n\n    /**\n    * @notice Checks whether the cap has been reached.\n    * @return bool Whether the cap was reached\n    */\n    function capReached() public view returns (bool) {\n        return tokensSold >= cap;\n    }\n\n    /**\n     * @notice Return ETH raised by the STO\n     */\n    function getRaisedEther() public view returns (uint256) {\n        if (fundraiseType == FundraiseType.ETH)\n            return fundsRaised;\n        else\n            return 0;\n    }\n\n    /**\n     * @notice Return POLY raised by the STO\n     */\n    function getRaisedPOLY() public view returns (uint256) {\n        if (fundraiseType == FundraiseType.POLY)\n            return fundsRaised;\n        else\n            return 0;\n    }\n\n    /**\n     * @notice Return the total no. of investors\n     */\n    function getNumberInvestors() public view returns (uint256) {\n        return investorCount;\n    }\n\n    /**\n     * @notice Return the permissions flag that are associated with STO\n     */\n    function getPermissions() public view returns(bytes32[]) {\n        bytes32[] memory allPermissions = new bytes32[](0);\n        return allPermissions;\n    }\n\n    /**\n     * @notice Return the STO details\n     */\n    function getSTODetails() public view returns(uint256, uint256, uint256, uint256, uint256, uint256, uint256, bool) {\n        return (\n            startTime,\n            endTime,\n            cap,\n            rate,\n            fundsRaised,\n            investorCount,\n            tokensSold,\n            (fundraiseType == FundraiseType.POLY)\n        );\n    }\n\n    // -----------------------------------------\n    // Internal interface (extensible)\n    // -----------------------------------------\n    /**\n      * Processing the purchase as well as verify the required validations\n      * @param _beneficiary Address performing the token purchase\n      * @param _investedAmount Value in wei involved in the purchase\n    */\n    function _processTx(address _beneficiary, uint256 _investedAmount) internal {\n\n        _preValidatePurchase(_beneficiary, _investedAmount);\n        // calculate token amount to be created\n        uint256 tokens = _getTokenAmount(_investedAmount);\n\n        // update state\n        fundsRaised = fundsRaised.add(_investedAmount);\n        tokensSold = tokensSold.add(tokens);\n\n        _processPurchase(_beneficiary, tokens);\n        emit TokenPurchase(msg.sender, _beneficiary, _investedAmount, tokens);\n\n        _updatePurchasingState(_beneficiary, _investedAmount);\n    }\n\n    /**\n    * @notice Validation of an incoming purchase.\n      Use require statements to revert state when conditions are not met. Use super to concatenate validations.\n    * @param _beneficiary Address performing the token purchase\n    * @param _investedAmount Value in wei involved in the purchase\n    */\n    function _preValidatePurchase(address _beneficiary, uint256 _investedAmount) internal view {\n        require(_beneficiary != address(0), \"Beneficiary address should not be 0x\");\n        require(_investedAmount != 0, \"Amount invested should not be equal to 0\");\n        require(tokensSold.add(_getTokenAmount(_investedAmount)) <= cap, \"Investment more than cap is not allowed\");\n        require(now >= startTime && now <= endTime, \"Offering is closed/Not yet started\");\n    }\n\n    /**\n    * @notice Validation of an executed purchase.\n      Observe state and use revert statements to undo rollback when valid conditions are not met.\n    */\n    function _postValidatePurchase(address /*_beneficiary*/, uint256 /*_investedAmount*/) internal pure {\n      // optional override\n    }\n\n    /**\n    * @notice Source of tokens.\n      Override this method to modify the way in which the crowdsale ultimately gets and sends its tokens.\n    * @param _beneficiary Address performing the token purchase\n    * @param _tokenAmount Number of tokens to be emitted\n    */\n    function _deliverTokens(address _beneficiary, uint256 _tokenAmount) internal {\n        require(IST20(securityToken).mint(_beneficiary, _tokenAmount), \"Error in minting the tokens\");\n    }\n\n    /**\n    * @notice Executed when a purchase has been validated and is ready to be executed. Not necessarily emits/sends tokens.\n    * @param _beneficiary Address receiving the tokens\n    * @param _tokenAmount Number of tokens to be purchased\n    */\n    function _processPurchase(address _beneficiary, uint256 _tokenAmount) internal {\n        if (investors[_beneficiary] == 0) {\n            investorCount = investorCount + 1;\n        }\n        investors[_beneficiary] = investors[_beneficiary].add(_tokenAmount);\n\n        _deliverTokens(_beneficiary, _tokenAmount);\n    }\n\n    /**\n    * @notice Override for extensions that require an internal state to check for validity\n      (current user contributions, etc.)\n    */\n    function _updatePurchasingState(address /*_beneficiary*/, uint256 /*_investedAmount*/) internal pure {\n      // optional override\n    }\n\n    /**\n    * @notice Override to extend the way in which ether is converted to tokens.\n    * @param _investedAmount Value in wei to be converted into tokens\n    * @return Number of tokens that can be purchased with the specified _investedAmount\n    */\n    function _getTokenAmount(uint256 _investedAmount) internal view returns (uint256) {\n        return _investedAmount.mul(rate);\n    }\n\n    /**\n    * @notice Determines how ETH is stored/forwarded on purchases.\n    */\n    function _forwardFunds() internal {\n        wallet.transfer(msg.value);\n    }\n\n    /**\n     * @notice Internal function used to check the type of fund raise currency\n     * @param _fundraiseType Type of currency used to collect the funds\n     */\n    function _check(uint8 _fundraiseType) internal {\n        require(_fundraiseType == 0 || _fundraiseType == 1, \"Not a valid fundraise type\");\n        if (_fundraiseType == 0) {\n            fundraiseType = FundraiseType.ETH;\n        }\n        if (_fundraiseType == 1) {\n            require(address(polyToken) != address(0), \"Address of the polyToken should not be 0x\");\n            fundraiseType = FundraiseType.POLY;\n        }\n    }\n\n    /**\n     * @notice Internal function used to forward the POLY raised to beneficiary address\n     * @param _beneficiary Address of the funds reciever\n     * @param _to Address who wants to ST-20 tokens\n     * @param _fundsAmount Amount invested by _to\n     */\n    function _forwardPoly(address _beneficiary, address _to, uint256 _fundsAmount) internal {\n        polyToken.transferFrom(_beneficiary, _to, _fundsAmount);\n    }\n\n}\n",
  "sourcePath": "/Users/rafaelvidaurre/Code/polymath/polymath-apps/packages/polymath-shared/scripts/generateLocalBlockchain/contracts/modules/STO/CappedSTO.sol",
  "compiler": {
    "name": "solc",
    "version": "0.4.24+commit.e67f0147.Emscripten.clang"
  },
  "schemaVersion": "2.0.1",
  "updatedAt": "2018-10-18T19:17:46.373Z"
}