{
  "contractName": "CappedSTO",
  "abi": [
    {
      "constant": true,
      "inputs": [],
      "name": "rate",
      "outputs": [
        {
          "name": "",
          "type": "uint256"
        }
      ],
      "payable": false,
      "stateMutability": "view",
      "type": "function"
    },
    {
      "constant": true,
      "inputs": [],
      "name": "allowBeneficialInvestments",
      "outputs": [
        {
          "name": "",
          "type": "bool"
        }
      ],
      "payable": false,
      "stateMutability": "view",
      "type": "function"
    },
    {
      "constant": true,
      "inputs": [],
      "name": "endTime",
      "outputs": [
        {
          "name": "",
          "type": "uint256"
        }
      ],
      "payable": false,
      "stateMutability": "view",
      "type": "function"
    },
    {
      "constant": true,
      "inputs": [],
      "name": "cap",
      "outputs": [
        {
          "name": "",
          "type": "uint256"
        }
      ],
      "payable": false,
      "stateMutability": "view",
      "type": "function"
    },
    {
      "constant": false,
      "inputs": [],
      "name": "unpause",
      "outputs": [],
      "payable": false,
      "stateMutability": "nonpayable",
      "type": "function"
    },
    {
      "constant": true,
      "inputs": [],
      "name": "wallet",
      "outputs": [
        {
          "name": "",
          "type": "address"
        }
      ],
      "payable": false,
      "stateMutability": "view",
      "type": "function"
    },
    {
      "constant": true,
      "inputs": [],
      "name": "paused",
      "outputs": [
        {
          "name": "",
          "type": "bool"
        }
      ],
      "payable": false,
      "stateMutability": "view",
      "type": "function"
    },
    {
      "constant": false,
      "inputs": [
        {
          "name": "_amount",
          "type": "uint256"
        }
      ],
      "name": "takeFee",
      "outputs": [
        {
          "name": "",
          "type": "bool"
        }
      ],
      "payable": false,
      "stateMutability": "nonpayable",
      "type": "function"
    },
    {
      "constant": true,
      "inputs": [],
      "name": "totalTokensSold",
      "outputs": [
        {
          "name": "",
          "type": "uint256"
        }
      ],
      "payable": false,
      "stateMutability": "view",
      "type": "function"
    },
    {
      "constant": true,
      "inputs": [
        {
          "name": "",
          "type": "address"
        }
      ],
      "name": "investors",
      "outputs": [
        {
          "name": "",
          "type": "uint256"
        }
      ],
      "payable": false,
      "stateMutability": "view",
      "type": "function"
    },
    {
      "constant": true,
      "inputs": [],
      "name": "polyToken",
      "outputs": [
        {
          "name": "",
          "type": "address"
        }
      ],
      "payable": false,
      "stateMutability": "view",
      "type": "function"
    },
    {
      "constant": true,
      "inputs": [],
      "name": "startTime",
      "outputs": [
        {
          "name": "",
          "type": "uint256"
        }
      ],
      "payable": false,
      "stateMutability": "view",
      "type": "function"
    },
    {
      "constant": false,
      "inputs": [],
      "name": "pause",
      "outputs": [],
      "payable": false,
      "stateMutability": "nonpayable",
      "type": "function"
    },
    {
      "constant": false,
      "inputs": [
        {
          "name": "_tokenContract",
          "type": "address"
        }
      ],
      "name": "reclaimERC20",
      "outputs": [],
      "payable": false,
      "stateMutability": "nonpayable",
      "type": "function"
    },
    {
      "constant": true,
      "inputs": [
        {
          "name": "_fundRaiseType",
          "type": "uint8"
        }
      ],
      "name": "getRaised",
      "outputs": [
        {
          "name": "",
          "type": "uint256"
        }
      ],
      "payable": false,
      "stateMutability": "view",
      "type": "function"
    },
    {
      "constant": true,
      "inputs": [],
      "name": "pausedTime",
      "outputs": [
        {
          "name": "",
          "type": "uint256"
        }
      ],
      "payable": false,
      "stateMutability": "view",
      "type": "function"
    },
    {
      "constant": true,
      "inputs": [],
      "name": "securityToken",
      "outputs": [
        {
          "name": "",
          "type": "address"
        }
      ],
      "payable": false,
      "stateMutability": "view",
      "type": "function"
    },
    {
      "constant": true,
      "inputs": [],
      "name": "factory",
      "outputs": [
        {
          "name": "",
          "type": "address"
        }
      ],
      "payable": false,
      "stateMutability": "view",
      "type": "function"
    },
    {
      "constant": true,
      "inputs": [
        {
          "name": "",
          "type": "uint8"
        }
      ],
      "name": "fundsRaised",
      "outputs": [
        {
          "name": "",
          "type": "uint256"
        }
      ],
      "payable": false,
      "stateMutability": "view",
      "type": "function"
    },
    {
      "constant": true,
      "inputs": [
        {
          "name": "",
          "type": "uint8"
        }
      ],
      "name": "fundRaiseTypes",
      "outputs": [
        {
          "name": "",
          "type": "bool"
        }
      ],
      "payable": false,
      "stateMutability": "view",
      "type": "function"
    },
    {
      "constant": true,
      "inputs": [],
      "name": "FEE_ADMIN",
      "outputs": [
        {
          "name": "",
          "type": "bytes32"
        }
      ],
      "payable": false,
      "stateMutability": "view",
      "type": "function"
    },
    {
      "constant": true,
      "inputs": [],
      "name": "investorCount",
      "outputs": [
        {
          "name": "",
          "type": "uint256"
        }
      ],
      "payable": false,
      "stateMutability": "view",
      "type": "function"
    },
    {
      "inputs": [
        {
          "name": "_securityToken",
          "type": "address"
        },
        {
          "name": "_polyAddress",
          "type": "address"
        }
      ],
      "payable": false,
      "stateMutability": "nonpayable",
      "type": "constructor"
    },
    {
      "payable": true,
      "stateMutability": "payable",
      "type": "fallback"
    },
    {
      "anonymous": false,
      "inputs": [
        {
          "indexed": true,
          "name": "purchaser",
          "type": "address"
        },
        {
          "indexed": true,
          "name": "beneficiary",
          "type": "address"
        },
        {
          "indexed": false,
          "name": "value",
          "type": "uint256"
        },
        {
          "indexed": false,
          "name": "amount",
          "type": "uint256"
        }
      ],
      "name": "TokenPurchase",
      "type": "event"
    },
    {
      "anonymous": false,
      "inputs": [
        {
          "indexed": false,
          "name": "_allowed",
          "type": "bool"
        }
      ],
      "name": "SetAllowBeneficialInvestments",
      "type": "event"
    },
    {
      "anonymous": false,
      "inputs": [
        {
          "indexed": false,
          "name": "_fundRaiseTypes",
          "type": "uint8[]"
        }
      ],
      "name": "SetFundRaiseTypes",
      "type": "event"
    },
    {
      "anonymous": false,
      "inputs": [
        {
          "indexed": false,
          "name": "_timestammp",
          "type": "uint256"
        }
      ],
      "name": "Pause",
      "type": "event"
    },
    {
      "anonymous": false,
      "inputs": [
        {
          "indexed": false,
          "name": "_timestamp",
          "type": "uint256"
        }
      ],
      "name": "Unpause",
      "type": "event"
    },
    {
      "constant": false,
      "inputs": [
        {
          "name": "_startTime",
          "type": "uint256"
        },
        {
          "name": "_endTime",
          "type": "uint256"
        },
        {
          "name": "_cap",
          "type": "uint256"
        },
        {
          "name": "_rate",
          "type": "uint256"
        },
        {
          "name": "_fundRaiseTypes",
          "type": "uint8[]"
        },
        {
          "name": "_fundsReceiver",
          "type": "address"
        }
      ],
      "name": "configure",
      "outputs": [],
      "payable": false,
      "stateMutability": "nonpayable",
      "type": "function"
    },
    {
      "constant": true,
      "inputs": [],
      "name": "getInitFunction",
      "outputs": [
        {
          "name": "",
          "type": "bytes4"
        }
      ],
      "payable": false,
      "stateMutability": "pure",
      "type": "function"
    },
    {
      "constant": false,
      "inputs": [
        {
          "name": "_allowBeneficialInvestments",
          "type": "bool"
        }
      ],
      "name": "changeAllowBeneficialInvestments",
      "outputs": [],
      "payable": false,
      "stateMutability": "nonpayable",
      "type": "function"
    },
    {
      "constant": false,
      "inputs": [
        {
          "name": "_beneficiary",
          "type": "address"
        }
      ],
      "name": "buyTokens",
      "outputs": [],
      "payable": true,
      "stateMutability": "payable",
      "type": "function"
    },
    {
      "constant": false,
      "inputs": [
        {
          "name": "_investedPOLY",
          "type": "uint256"
        }
      ],
      "name": "buyTokensWithPoly",
      "outputs": [],
      "payable": false,
      "stateMutability": "nonpayable",
      "type": "function"
    },
    {
      "constant": true,
      "inputs": [],
      "name": "capReached",
      "outputs": [
        {
          "name": "",
          "type": "bool"
        }
      ],
      "payable": false,
      "stateMutability": "view",
      "type": "function"
    },
    {
      "constant": true,
      "inputs": [],
      "name": "getTokensSold",
      "outputs": [
        {
          "name": "",
          "type": "uint256"
        }
      ],
      "payable": false,
      "stateMutability": "view",
      "type": "function"
    },
    {
      "constant": true,
      "inputs": [],
      "name": "getPermissions",
      "outputs": [
        {
          "name": "",
          "type": "bytes32[]"
        }
      ],
      "payable": false,
      "stateMutability": "view",
      "type": "function"
    },
    {
      "constant": true,
      "inputs": [],
      "name": "getSTODetails",
      "outputs": [
        {
          "name": "",
          "type": "uint256"
        },
        {
          "name": "",
          "type": "uint256"
        },
        {
          "name": "",
          "type": "uint256"
        },
        {
          "name": "",
          "type": "uint256"
        },
        {
          "name": "",
          "type": "uint256"
        },
        {
          "name": "",
          "type": "uint256"
        },
        {
          "name": "",
          "type": "uint256"
        },
        {
          "name": "",
          "type": "bool"
        }
      ],
      "payable": false,
      "stateMutability": "view",
      "type": "function"
    }
  ],
  "bytecode": "0x60806040526002805460a060020a60ff0219169055600b805461ffff1916905534801561002b57600080fd5b5060405160408061204683398101604052805160209091015160018054600160a060020a03938416600160a060020a0319918216179091556000805482163317905560028054939092169216919091179055611fba8061008c6000396000f3006080604052600436106101715763ffffffff60e060020a6000350416631040dc27811461017c5780631365eaaf146101d45780631613ec9d146102465780632c4e722e146102905780632df413e2146102b75780633197cbb6146102e0578063355274ea146102f55780633f4ba83a1461030a578063441b9e4a1461031f5780634f93594514610339578063521eb2731461034e5780635c975abb1461037f5780635f7619a41461039457806363b20117146103ac5780636f7bc9be146103c15780636faa22a5146103e257806378e97925146103f75780638456cb591461040c5780638905fd4f146104215780639a7cc13514610442578063b2cca39d1461045d578063b84dfbd214610472578063c3a07df614610487578063c45a0155146104ec578063c4d2c6bd14610501578063cb7526791461051c578063d143a37914610534578063d70afa961461054f578063d7e64c0014610564578063ec8ac4d814610579578063ee7c0db01461058d575b61017a336105a2565b005b34801561018857600080fd5b50610191610744565b604080519889526020890197909752878701959095526060870193909352608086019190915260a085015260c0840152151560e083015251908190036101000190f35b3480156101e057600080fd5b50604080516020600460843581810135838102808601850190965280855261017a95833595602480359660443596606435963696919560a49594909101928291908501908490808284375094975050509235600160a060020a0316935061082192505050565b34801561025257600080fd5b5061025b610aea565b604080517fffffffff000000000000000000000000000000000000000000000000000000009092168252519081900360200190f35b34801561029c57600080fd5b506102a5610b45565b60408051918252519081900360200190f35b3480156102c357600080fd5b506102cc610b4b565b604080519115158252519081900360200190f35b3480156102ec57600080fd5b506102a5610b59565b34801561030157600080fd5b506102a5610b5f565b34801561031657600080fd5b5061017a610b65565b34801561032b57600080fd5b5061017a6004351515610c3b565b34801561034557600080fd5b506102cc610dc7565b34801561035a57600080fd5b50610363610dd2565b60408051600160a060020a039092168252519081900360200190f35b34801561038b57600080fd5b506102cc610de1565b3480156103a057600080fd5b506102cc600435610df1565b3480156103b857600080fd5b506102a5611135565b3480156103cd57600080fd5b506102a5600160a060020a036004351661113b565b3480156103ee57600080fd5b5061036361114d565b34801561040357600080fd5b506102a561115c565b34801561041857600080fd5b5061017a611162565b34801561042d57600080fd5b5061017a600160a060020a0360043516611244565b34801561044e57600080fd5b506102a560ff60043516611460565b34801561046957600080fd5b506102a561148c565b34801561047e57600080fd5b50610363611492565b34801561049357600080fd5b5061049c6114a1565b60408051602080825283518183015283519192839290830191858101910280838360005b838110156104d85781810151838201526020016104c0565b505050509050019250505060405180910390f35b3480156104f857600080fd5b506103636114b3565b34801561050d57600080fd5b506102a560ff600435166114c2565b34801561052857600080fd5b5061017a6004356114d4565b34801561054057600080fd5b506102cc60ff600435166115da565b34801561055b57600080fd5b506102a56115ef565b34801561057057600080fd5b506102a5611613565b61017a600160a060020a03600435166105a2565b34801561059957600080fd5b506102a5611619565b600b5460009060ff16156105b557600080fd5b600b805460ff191660011790819055610100900460ff16151561065857600160a060020a0382163314610658576040805160e560020a62461bcd02815260206004820152602760248201527f42656e6566696369617279206d757374206d617463682066756e64696e67207060448201527f726f766964657200000000000000000000000000000000000000000000000000606482015290519081900360840190fd5b60025460a060020a900460ff161561066f57600080fd5b6000805260036020527f3617319a054d772f909f7c479a2cebe5066e836a939412e32403c99029b92eff5460ff161515610718576040805160e560020a62461bcd028152602060048201526024808201527f4554482073686f756c6420626520746865206d6f6465206f6620696e7665737460448201527f6d656e7400000000000000000000000000000000000000000000000000000000606482015290519081900360840190fd5b5034610724828261161f565b61072c611761565b610736828261179d565b5050600b805460ff19169055565b600080600080600080600080600554600654600d54600c54600360006001600281111561076d57fe5b60ff9081168252602082019290925260400160002054166107b8576000805260046020527f17ef568e3e12ab5b9c7254a8d58478811de00f9e6eb34345acd53bf8fd09d3ec546107e5565b600160005260046020527fabd6e7cb50984ff9c2f3e18a2660c3353dadf4e3291deeb275dae2cd1e44fe05545b600854600a5460016000526003602052600080516020611f4f83398151915254969f959e50939c50919a5098509650945060ff90911692509050565b600054600160a060020a03163314610883576040805160e560020a62461bcd02815260206004820152601560248201527f53656e646572206973206e6f7420666163746f72790000000000000000000000604482015290519081900360640190fd5b60008311610901576040805160e560020a62461bcd02815260206004820152602660248201527f52617465206f6620746f6b656e2073686f756c6420626520677265617465722060448201527f7468616e20300000000000000000000000000000000000000000000000000000606482015290519081900360840190fd5b600160a060020a0381161515610961576040805160e560020a62461bcd02815260206004820152601d60248201527f5a65726f2061646472657373206973206e6f74207065726d6974746564000000604482015290519081900360640190fd5b42861015801561097057508585115b15156109c6576040805160e560020a62461bcd02815260206004820152601d60248201527f4461746520706172616d657465727320617265206e6f742076616c6964000000604482015290519081900360640190fd5b60008411610a1e576040805160e560020a62461bcd02815260206004820152601c60248201527f4361702073686f756c642062652067726561746572207468616e203000000000604482015290519081900360640190fd5b8151600114610a9d576040805160e560020a62461bcd02815260206004820152602660248201527f4974206f6e6c792073656c656374732073696e676c652066756e64207261697360448201527f6520747970650000000000000000000000000000000000000000000000000000606482015290519081900360840190fd5b60058690556006859055600d849055600c8390556009805473ffffffffffffffffffffffffffffffffffffffff1916600160a060020a038316179055610ae2826117a1565b505050505050565b604080517f636f6e6669677572652875696e743235362c75696e743235362c75696e74323581527f362c75696e743235362c75696e74385b5d2c61646472657373290000000000006020820152905190819003603a01902090565b600c5481565b600b54610100900460ff1681565b60065481565b600d5481565b600160009054906101000a9004600160a060020a0316600160a060020a0316638da5cb5b6040518163ffffffff1660e060020a028152600401602060405180830381600087803b158015610bb857600080fd5b505af1158015610bcc573d6000803e3d6000fd5b505050506040513d6020811015610be257600080fd5b5051600160a060020a03163314610c31576040805160e560020a62461bcd0281526020600482015260136024820152600080516020611f6f833981519152604482015290519081900360640190fd5b610c39611950565b565b600160009054906101000a9004600160a060020a0316600160a060020a0316638da5cb5b6040518163ffffffff1660e060020a028152600401602060405180830381600087803b158015610c8e57600080fd5b505af1158015610ca2573d6000803e3d6000fd5b505050506040513d6020811015610cb857600080fd5b5051600160a060020a03163314610d07576040805160e560020a62461bcd0281526020600482015260136024820152600080516020611f6f833981519152604482015290519081900360640190fd5b600b54610100900460ff1615158115151415610d6d576040805160e560020a62461bcd02815260206004820152601560248201527f446f6573206e6f74206368616e67652076616c75650000000000000000000000604482015290519081900360640190fd5b600b805482151561010090810261ff00199092169190911791829055604080519190920460ff161515815290517fea6eddcb8f2bf55dfb29aef4bd48214ef0798b9eae2e1bbb25dac99ecf6da6ae9181900360200190a150565b600d54600a54101590565b600954600160a060020a031681565b60025460a060020a900460ff1681565b60007f4645455f41444d494e0000000000000000000000000000000000000000000000600080600160009054906101000a9004600160a060020a0316600160a060020a0316638da5cb5b6040518163ffffffff1660e060020a028152600401602060405180830381600087803b158015610e6a57600080fd5b505af1158015610e7e573d6000803e3d6000fd5b505050506040513d6020811015610e9457600080fd5b505160005433600160a060020a039283168114945091161490508180610eb75750805b80610f5d5750600154604080517f8658b8b9000000000000000000000000000000000000000000000000000000008152336004820152306024820152604481018690529051600160a060020a0390921691638658b8b9916064808201926020929091908290030181600087803b158015610f3057600080fd5b505af1158015610f44573d6000803e3d6000fd5b505050506040513d6020811015610f5a57600080fd5b50515b1515610fb3576040805160e560020a62461bcd02815260206004820152601760248201527f5065726d697373696f6e20636865636b206661696c6564000000000000000000604482015290519081900360640190fd5b60025460015460008054604080517f8da5cb5b0000000000000000000000000000000000000000000000000000000081529051600160a060020a03958616956323b872dd95811694931692638da5cb5b92600480820193602093909283900390910190829087803b15801561102757600080fd5b505af115801561103b573d6000803e3d6000fd5b505050506040513d602081101561105157600080fd5b50516040805160e060020a63ffffffff8616028152600160a060020a039384166004820152929091166024830152604482018990525160648083019260209291908290030181600087803b1580156110a857600080fd5b505af11580156110bc573d6000803e3d6000fd5b505050506040513d60208110156110d257600080fd5b5051151561112a576040805160e560020a62461bcd02815260206004820152601260248201527f556e61626c6520746f2074616b65206665650000000000000000000000000000604482015290519081900360640190fd5b506001949350505050565b600a5481565b600e6020526000908152604090205481565b600254600160a060020a031681565b60055481565b600160009054906101000a9004600160a060020a0316600160a060020a0316638da5cb5b6040518163ffffffff1660e060020a028152600401602060405180830381600087803b1580156111b557600080fd5b505af11580156111c9573d6000803e3d6000fd5b505050506040513d60208110156111df57600080fd5b5051600160a060020a0316331461122e576040805160e560020a62461bcd0281526020600482015260136024820152600080516020611f6f833981519152604482015290519081900360640190fd5b600654421061123c57600080fd5b610c39611a06565b600080600160009054906101000a9004600160a060020a0316600160a060020a0316638da5cb5b6040518163ffffffff1660e060020a028152600401602060405180830381600087803b15801561129a57600080fd5b505af11580156112ae573d6000803e3d6000fd5b505050506040513d60208110156112c457600080fd5b5051600160a060020a03163314611313576040805160e560020a62461bcd0281526020600482015260136024820152600080516020611f6f833981519152604482015290519081900360640190fd5b600160a060020a038316151561132857600080fd5b604080517f70a082310000000000000000000000000000000000000000000000000000000081523060048201529051849350600160a060020a038416916370a082319160248083019260209291908290030181600087803b15801561138c57600080fd5b505af11580156113a0573d6000803e3d6000fd5b505050506040513d60208110156113b657600080fd5b5051604080517fa9059cbb000000000000000000000000000000000000000000000000000000008152336004820152602481018390529051919250600160a060020a0384169163a9059cbb916044808201926020929091908290030181600087803b15801561142457600080fd5b505af1158015611438573d6000803e3d6000fd5b505050506040513d602081101561144e57600080fd5b5051151561145b57600080fd5b505050565b60006004600083600281111561147257fe5b60ff16815260208101919091526040016000205492915050565b60075481565b600154600160a060020a031681565b60408051600081526020810190915290565b600054600160a060020a031681565b60046020526000908152604090205481565b600b5460ff16156114e457600080fd5b600b805460ff1916600117905560025460a060020a900460ff161561150857600080fd5b60016000526003602052600080516020611f4f8339815191525460ff1615156115a1576040805160e560020a62461bcd02815260206004820152602560248201527f504f4c592073686f756c6420626520746865206d6f6465206f6620696e76657360448201527f746d656e74000000000000000000000000000000000000000000000000000000606482015290519081900360840190fd5b6115ab338261161f565b6009546115c3903390600160a060020a031683611ac1565b6115cd338261179d565b50600b805460ff19169055565b60036020526000908152604090205460ff1681565b7f4645455f41444d494e000000000000000000000000000000000000000000000081565b60085481565b600a5490565b600061162b8383611b69565b61163482611d95565b60016000526003602052600080516020611f4f8339815191525490915060ff16156116b557611684826004600060015b60ff1681526020810191909152604001600020549063ffffffff611db216565b600160005260046020527fabd6e7cb50984ff9c2f3e18a2660c3353dadf4e3291deeb275dae2cd1e44fe05556116ef565b6116c3826004600080611664565b6000805260046020527f17ef568e3e12ab5b9c7254a8d58478811de00f9e6eb34345acd53bf8fd09d3ec555b600a54611702908263ffffffff611db216565b600a5561170f8382611dbf565b60408051838152602081018390528151600160a060020a0386169233927f623b3804fa71d67900d064613da8f94b9617215ee90799290593e1745087ad18929081900390910190a361145b838361179d565b600954604051600160a060020a03909116903480156108fc02916000818181858888f1935050505015801561179a573d6000803e3d6000fd5b50565b5050565b60008082511115156117fd576040805160e560020a62461bcd02815260206004820152601860248201527f52616973652074797065206e6f74207370656369666965640000000000000000604482015290519081900360640190fd5b5060036020527f3617319a054d772f909f7c479a2cebe5066e836a939412e32403c99029b92eff805460ff19908116909155600080516020611f4f833981519152805482169055600260009081527fc3a24b0501bd2c13a7e57f2db4369ec4c223447539fc0724a9d55ac4a06ebd4d80549092169091555b81518160ff1610156118d757600160036000848460ff1681518110151561189857fe5b9060200190602002015160028111156118ad57fe5b60ff1681526020810191909152604001600020805460ff1916911515919091179055600101611875565b7fe5724f42dd9f217c97b3768212ed6d6692c0135e252387d61b98af28fecd9b02826040518080602001828103825283818151815260200191508051906020019060200280838360005b83811015611939578181015183820152602001611921565b505050509050019250505060405180910390a15050565b60025460a060020a900460ff1615156119b3576040805160e560020a62461bcd02815260206004820152601660248201527f436f6e7472616374206973206e6f742070617573656400000000000000000000604482015290519081900360640190fd5b6002805474ff0000000000000000000000000000000000000000191690556040805142815290517faaa520fdd7d2c83061d632fa017b0432407e798818af63ea908589fceda39ab79181900360200190a1565b60025460a060020a900460ff1615611a68576040805160e560020a62461bcd02815260206004820152601260248201527f436f6e7472616374206973207061757365640000000000000000000000000000604482015290519081900360640190fd5b6002805474ff0000000000000000000000000000000000000000191660a060020a1790556040805142815290517f68b095021b1f40fe513109f513c66692f0b3219aee674a69f4efc57badb8201d9181900360200190a1565b600254604080517f23b872dd000000000000000000000000000000000000000000000000000000008152600160a060020a038681166004830152858116602483015260448201859052915191909216916323b872dd9160648083019260209291908290030181600087803b158015611b3857600080fd5b505af1158015611b4c573d6000803e3d6000fd5b505050506040513d6020811015611b6257600080fd5b5050505050565b600160a060020a0382161515611bee576040805160e560020a62461bcd028152602060048201526024808201527f42656e656669636961727920616464726573732073686f756c64206e6f74206260448201527f6520307800000000000000000000000000000000000000000000000000000000606482015290519081900360840190fd5b801515611c6b576040805160e560020a62461bcd02815260206004820152602860248201527f416d6f756e7420696e7665737465642073686f756c64206e6f7420626520657160448201527f75616c20746f2030000000000000000000000000000000000000000000000000606482015290519081900360840190fd5b600d54611c89611c7a83611d95565b600a549063ffffffff611db216565b1115611d05576040805160e560020a62461bcd02815260206004820152602760248201527f496e766573746d656e74206d6f7265207468616e20636170206973206e6f742060448201527f616c6c6f77656400000000000000000000000000000000000000000000000000606482015290519081900360840190fd5b6005544210158015611d1957506006544211155b151561179d576040805160e560020a62461bcd02815260206004820152602260248201527f4f66666572696e6720697320636c6f7365642f4e6f742079657420737461727460448201527f6564000000000000000000000000000000000000000000000000000000000000606482015290519081900360840190fd5b6000611dac600c5483611e3490919063ffffffff16565b92915050565b81810182811015611dac57fe5b600160a060020a0382166000908152600e60205260409020541515611de8576008805460010190555b600160a060020a0382166000908152600e6020526040902054611e11908263ffffffff611db216565b600160a060020a0383166000908152600e602052604090205561179d8282611e5d565b6000821515611e4557506000611dac565b50818102818382811515611e5557fe5b0414611dac57fe5b600154604080517f40c10f19000000000000000000000000000000000000000000000000000000008152600160a060020a03858116600483015260248201859052915191909216916340c10f199160448083019260209291908290030181600087803b158015611ecc57600080fd5b505af1158015611ee0573d6000803e3d6000fd5b505050506040513d6020811015611ef657600080fd5b5051151561179d576040805160e560020a62461bcd02815260206004820152601b60248201527f4572726f7220696e206d696e74696e672074686520746f6b656e730000000000604482015290519081900360640190fd00a15bc60c955c405d20d9149c709e2460f1c2d9a497496a7f46004d1772c3054c53656e646572206973206e6f74206f776e657200000000000000000000000000a165627a7a723058206323fa9958dccedcf92098c05df96c21bd454ddee11921355f0cad876dc39d2d0029",
  "source": "pragma solidity ^0.4.24;\n\nimport \"./ISTO.sol\";\nimport \"../../interfaces/ISecurityToken.sol\";\nimport \"openzeppelin-solidity/contracts/ReentrancyGuard.sol\";\nimport \"openzeppelin-solidity/contracts/math/SafeMath.sol\";\n\n/**\n * @title STO module for standard capped crowdsale\n */\ncontract CappedSTO is ISTO, ReentrancyGuard {\n    using SafeMath for uint256;\n\n    // Determine whether users can invest on behalf of a beneficiary\n    bool public allowBeneficialInvestments = false;\n    // How many token units a buyer gets per wei / base unit of POLY\n    uint256 public rate;\n    //How many tokens this STO will be allowed to sell to investors\n    uint256 public cap;\n\n    mapping (address => uint256) public investors;\n\n    /**\n    * Event for token purchase logging\n    * @param purchaser who paid for the tokens\n    * @param beneficiary who got the tokens\n    * @param value weis paid for purchase\n    * @param amount amount of tokens purchased\n    */\n    event TokenPurchase(address indexed purchaser, address indexed beneficiary, uint256 value, uint256 amount);\n\n    event SetAllowBeneficialInvestments(bool _allowed);\n\n    constructor (address _securityToken, address _polyAddress) public\n    Module(_securityToken, _polyAddress)\n    {\n    }\n\n    //////////////////////////////////\n    /**\n    * @notice fallback function ***DO NOT OVERRIDE***\n    */\n    function () external payable {\n        buyTokens(msg.sender);\n    }\n\n    /**\n     * @notice Function used to intialize the contract variables\n     * @param _startTime Unix timestamp at which offering get started\n     * @param _endTime Unix timestamp at which offering get ended\n     * @param _cap Maximum No. of tokens for sale\n     * @param _rate Token units a buyer gets per wei / base unit of POLY\n     * @param _fundRaiseTypes Type of currency used to collect the funds\n     * @param _fundsReceiver Ethereum account address to hold the funds\n     */\n    function configure(\n        uint256 _startTime,\n        uint256 _endTime,\n        uint256 _cap,\n        uint256 _rate,\n        FundRaiseType[] _fundRaiseTypes,\n        address _fundsReceiver\n    )\n    public\n    onlyFactory\n    {\n        require(_rate > 0, \"Rate of token should be greater than 0\");\n        require(_fundsReceiver != address(0), \"Zero address is not permitted\");\n        require(_startTime >= now && _endTime > _startTime, \"Date parameters are not valid\");\n        require(_cap > 0, \"Cap should be greater than 0\");\n        require(_fundRaiseTypes.length == 1, \"It only selects single fund raise type\");\n        startTime = _startTime;\n        endTime = _endTime;\n        cap = _cap;\n        rate = _rate;\n        wallet = _fundsReceiver;\n        _setFundRaiseType(_fundRaiseTypes);\n    }\n\n    /**\n     * @notice This function returns the signature of configure function\n     */\n    function getInitFunction() public pure returns (bytes4) {\n        return bytes4(keccak256(\"configure(uint256,uint256,uint256,uint256,uint8[],address)\"));\n    }\n\n    /**\n     * @notice Function to set allowBeneficialInvestments (allow beneficiary to be different to funder)\n     * @param _allowBeneficialInvestments Boolean to allow or disallow beneficial investments\n     */\n    function changeAllowBeneficialInvestments(bool _allowBeneficialInvestments) public onlyOwner {\n        require(_allowBeneficialInvestments != allowBeneficialInvestments, \"Does not change value\");\n        allowBeneficialInvestments = _allowBeneficialInvestments;\n        emit SetAllowBeneficialInvestments(allowBeneficialInvestments);\n    }\n\n    /**\n      * @notice low level token purchase ***DO NOT OVERRIDE***\n      * @param _beneficiary Address performing the token purchase\n      */\n    function buyTokens(address _beneficiary) public payable nonReentrant {\n        if (!allowBeneficialInvestments) {\n            require(_beneficiary == msg.sender, \"Beneficiary must match funding provider\");\n        }\n\n        require(!paused);\n        require(fundRaiseTypes[uint8(FundRaiseType.ETH)], \"ETH should be the mode of investment\");\n\n        uint256 weiAmount = msg.value;\n        _processTx(_beneficiary, weiAmount);\n\n        _forwardFunds();\n        _postValidatePurchase(_beneficiary, weiAmount);\n    }\n\n    /**\n      * @notice low level token purchase\n      * @param _investedPOLY Amount of POLY invested\n      */\n    function buyTokensWithPoly(uint256 _investedPOLY) public nonReentrant{\n        require(!paused);\n        require(fundRaiseTypes[uint8(FundRaiseType.POLY)], \"POLY should be the mode of investment\");\n        _processTx(msg.sender, _investedPOLY);\n        _forwardPoly(msg.sender, wallet, _investedPOLY);\n        _postValidatePurchase(msg.sender, _investedPOLY);\n    }\n\n    /**\n    * @notice Checks whether the cap has been reached.\n    * @return bool Whether the cap was reached\n    */\n    function capReached() public view returns (bool) {\n        return totalTokensSold >= cap;\n    }\n\n    /**\n     * @notice Return the total no. of tokens sold\n     */\n    function getTokensSold() public view returns (uint256) {\n        return totalTokensSold;\n    }\n\n    /**\n     * @notice Return the permissions flag that are associated with STO\n     */\n    function getPermissions() public view returns(bytes32[]) {\n        bytes32[] memory allPermissions = new bytes32[](0);\n        return allPermissions;\n    }\n\n    /**\n     * @notice Return the STO details\n     */\n    function getSTODetails() public view returns(uint256, uint256, uint256, uint256, uint256, uint256, uint256, bool) {\n        return (\n            startTime,\n            endTime,\n            cap,\n            rate,\n            (fundRaiseTypes[uint8(FundRaiseType.POLY)]) ? fundsRaised[uint8(FundRaiseType.POLY)]: fundsRaised[uint8(FundRaiseType.ETH)],\n            investorCount,\n            totalTokensSold,\n            (fundRaiseTypes[uint8(FundRaiseType.POLY)])\n        );\n    }\n\n    // -----------------------------------------\n    // Internal interface (extensible)\n    // -----------------------------------------\n    /**\n      * Processing the purchase as well as verify the required validations\n      * @param _beneficiary Address performing the token purchase\n      * @param _investedAmount Value in wei involved in the purchase\n    */\n    function _processTx(address _beneficiary, uint256 _investedAmount) internal {\n\n        _preValidatePurchase(_beneficiary, _investedAmount);\n        // calculate token amount to be created\n        uint256 tokens = _getTokenAmount(_investedAmount);\n\n        // update state\n        if (fundRaiseTypes[uint8(FundRaiseType.POLY)]) {\n            fundsRaised[uint8(FundRaiseType.POLY)] = fundsRaised[uint8(FundRaiseType.POLY)].add(_investedAmount);\n        } else {\n            fundsRaised[uint8(FundRaiseType.ETH)] = fundsRaised[uint8(FundRaiseType.ETH)].add(_investedAmount);\n        }\n        totalTokensSold = totalTokensSold.add(tokens);\n\n        _processPurchase(_beneficiary, tokens);\n        emit TokenPurchase(msg.sender, _beneficiary, _investedAmount, tokens);\n\n        _updatePurchasingState(_beneficiary, _investedAmount);\n    }\n\n    /**\n    * @notice Validation of an incoming purchase.\n      Use require statements to revert state when conditions are not met. Use super to concatenate validations.\n    * @param _beneficiary Address performing the token purchase\n    * @param _investedAmount Value in wei involved in the purchase\n    */\n    function _preValidatePurchase(address _beneficiary, uint256 _investedAmount) internal view {\n        require(_beneficiary != address(0), \"Beneficiary address should not be 0x\");\n        require(_investedAmount != 0, \"Amount invested should not be equal to 0\");\n        require(totalTokensSold.add(_getTokenAmount(_investedAmount)) <= cap, \"Investment more than cap is not allowed\");\n        require(now >= startTime && now <= endTime, \"Offering is closed/Not yet started\");\n    }\n\n    /**\n    * @notice Validation of an executed purchase.\n      Observe state and use revert statements to undo rollback when valid conditions are not met.\n    */\n    function _postValidatePurchase(address /*_beneficiary*/, uint256 /*_investedAmount*/) internal pure {\n      // optional override\n    }\n\n    /**\n    * @notice Source of tokens.\n      Override this method to modify the way in which the crowdsale ultimately gets and sends its tokens.\n    * @param _beneficiary Address performing the token purchase\n    * @param _tokenAmount Number of tokens to be emitted\n    */\n    function _deliverTokens(address _beneficiary, uint256 _tokenAmount) internal {\n        require(ISecurityToken(securityToken).mint(_beneficiary, _tokenAmount), \"Error in minting the tokens\");\n    }\n\n    /**\n    * @notice Executed when a purchase has been validated and is ready to be executed. Not necessarily emits/sends tokens.\n    * @param _beneficiary Address receiving the tokens\n    * @param _tokenAmount Number of tokens to be purchased\n    */\n    function _processPurchase(address _beneficiary, uint256 _tokenAmount) internal {\n        if (investors[_beneficiary] == 0) {\n            investorCount = investorCount + 1;\n        }\n        investors[_beneficiary] = investors[_beneficiary].add(_tokenAmount);\n\n        _deliverTokens(_beneficiary, _tokenAmount);\n    }\n\n    /**\n    * @notice Override for extensions that require an internal state to check for validity\n      (current user contributions, etc.)\n    */\n    function _updatePurchasingState(address /*_beneficiary*/, uint256 /*_investedAmount*/) internal pure {\n      // optional override\n    }\n\n    /**\n    * @notice Override to extend the way in which ether is converted to tokens.\n    * @param _investedAmount Value in wei to be converted into tokens\n    * @return Number of tokens that can be purchased with the specified _investedAmount\n    */\n    function _getTokenAmount(uint256 _investedAmount) internal view returns (uint256) {\n        return _investedAmount.mul(rate);\n    }\n\n    /**\n    * @notice Determines how ETH is stored/forwarded on purchases.\n    */\n    function _forwardFunds() internal {\n        wallet.transfer(msg.value);\n    }\n\n    /**\n     * @notice Internal function used to forward the POLY raised to beneficiary address\n     * @param _beneficiary Address of the funds reciever\n     * @param _to Address who wants to ST-20 tokens\n     * @param _fundsAmount Amount invested by _to\n     */\n    function _forwardPoly(address _beneficiary, address _to, uint256 _fundsAmount) internal {\n        polyToken.transferFrom(_beneficiary, _to, _fundsAmount);\n    }\n\n}\n",
  "sourcePath": "/Users/jere/Code/polymath-apps/packages/polymath-shared/scripts/generateLocalBlockchain/contracts/modules/STO/CappedSTO.sol",
  "compiler": {
    "name": "solc",
    "version": "0.4.24+commit.e67f0147.Emscripten.clang"
  },
  "schemaVersion": "2.0.1",
  "updatedAt": "2018-10-23T18:29:22.743Z"
}