{
  "contractName": "CountTransferManagerFactory",
  "abi": [
    {
      "constant": true,
      "inputs": [],
      "name": "monthlySubscriptionCost",
      "outputs": [
        {
          "name": "",
          "type": "uint256"
        }
      ],
      "payable": false,
      "stateMutability": "view",
      "type": "function"
    },
    {
      "constant": false,
      "inputs": [
        {
          "name": "_newSubscriptionCost",
          "type": "uint256"
        }
      ],
      "name": "changeFactorySubscriptionFee",
      "outputs": [],
      "payable": false,
      "stateMutability": "nonpayable",
      "type": "function"
    },
    {
      "constant": false,
      "inputs": [
        {
          "name": "_newSetupCost",
          "type": "uint256"
        }
      ],
      "name": "changeFactorySetupFee",
      "outputs": [],
      "payable": false,
      "stateMutability": "nonpayable",
      "type": "function"
    },
    {
      "constant": true,
      "inputs": [],
      "name": "polyToken",
      "outputs": [
        {
          "name": "",
          "type": "address"
        }
      ],
      "payable": false,
      "stateMutability": "view",
      "type": "function"
    },
    {
      "constant": false,
      "inputs": [],
      "name": "renounceOwnership",
      "outputs": [],
      "payable": false,
      "stateMutability": "nonpayable",
      "type": "function"
    },
    {
      "constant": true,
      "inputs": [],
      "name": "setupCost",
      "outputs": [
        {
          "name": "",
          "type": "uint256"
        }
      ],
      "payable": false,
      "stateMutability": "view",
      "type": "function"
    },
    {
      "constant": true,
      "inputs": [],
      "name": "owner",
      "outputs": [
        {
          "name": "",
          "type": "address"
        }
      ],
      "payable": false,
      "stateMutability": "view",
      "type": "function"
    },
    {
      "constant": false,
      "inputs": [
        {
          "name": "_newUsageCost",
          "type": "uint256"
        }
      ],
      "name": "changeFactoryUsageFee",
      "outputs": [],
      "payable": false,
      "stateMutability": "nonpayable",
      "type": "function"
    },
    {
      "constant": true,
      "inputs": [],
      "name": "usageCost",
      "outputs": [
        {
          "name": "",
          "type": "uint256"
        }
      ],
      "payable": false,
      "stateMutability": "view",
      "type": "function"
    },
    {
      "constant": false,
      "inputs": [
        {
          "name": "_newOwner",
          "type": "address"
        }
      ],
      "name": "transferOwnership",
      "outputs": [],
      "payable": false,
      "stateMutability": "nonpayable",
      "type": "function"
    },
    {
      "inputs": [
        {
          "name": "_polyAddress",
          "type": "address"
        },
        {
          "name": "_setupCost",
          "type": "uint256"
        },
        {
          "name": "_usageCost",
          "type": "uint256"
        },
        {
          "name": "_subscriptionCost",
          "type": "uint256"
        }
      ],
      "payable": false,
      "stateMutability": "nonpayable",
      "type": "constructor"
    },
    {
      "anonymous": false,
      "inputs": [
        {
          "indexed": false,
          "name": "_oldSetupcost",
          "type": "uint256"
        },
        {
          "indexed": false,
          "name": "_newSetupCost",
          "type": "uint256"
        },
        {
          "indexed": false,
          "name": "_moduleFactory",
          "type": "address"
        }
      ],
      "name": "LogChangeFactorySetupFee",
      "type": "event"
    },
    {
      "anonymous": false,
      "inputs": [
        {
          "indexed": false,
          "name": "_oldUsageCost",
          "type": "uint256"
        },
        {
          "indexed": false,
          "name": "_newUsageCost",
          "type": "uint256"
        },
        {
          "indexed": false,
          "name": "_moduleFactory",
          "type": "address"
        }
      ],
      "name": "LogChangeFactoryUsageFee",
      "type": "event"
    },
    {
      "anonymous": false,
      "inputs": [
        {
          "indexed": false,
          "name": "_oldSubscriptionCost",
          "type": "uint256"
        },
        {
          "indexed": false,
          "name": "_newMonthlySubscriptionCost",
          "type": "uint256"
        },
        {
          "indexed": false,
          "name": "_moduleFactory",
          "type": "address"
        }
      ],
      "name": "LogChangeFactorySubscriptionFee",
      "type": "event"
    },
    {
      "anonymous": false,
      "inputs": [
        {
          "indexed": false,
          "name": "_module",
          "type": "address"
        },
        {
          "indexed": true,
          "name": "_moduleName",
          "type": "bytes32"
        },
        {
          "indexed": true,
          "name": "_moduleFactory",
          "type": "address"
        },
        {
          "indexed": false,
          "name": "_creator",
          "type": "address"
        },
        {
          "indexed": false,
          "name": "_timestamp",
          "type": "uint256"
        }
      ],
      "name": "LogGenerateModuleFromFactory",
      "type": "event"
    },
    {
      "anonymous": false,
      "inputs": [
        {
          "indexed": true,
          "name": "previousOwner",
          "type": "address"
        }
      ],
      "name": "OwnershipRenounced",
      "type": "event"
    },
    {
      "anonymous": false,
      "inputs": [
        {
          "indexed": true,
          "name": "previousOwner",
          "type": "address"
        },
        {
          "indexed": true,
          "name": "newOwner",
          "type": "address"
        }
      ],
      "name": "OwnershipTransferred",
      "type": "event"
    },
    {
      "constant": false,
      "inputs": [
        {
          "name": "_data",
          "type": "bytes"
        }
      ],
      "name": "deploy",
      "outputs": [
        {
          "name": "",
          "type": "address"
        }
      ],
      "payable": false,
      "stateMutability": "nonpayable",
      "type": "function"
    },
    {
      "constant": true,
      "inputs": [],
      "name": "getType",
      "outputs": [
        {
          "name": "",
          "type": "uint8"
        }
      ],
      "payable": false,
      "stateMutability": "view",
      "type": "function"
    },
    {
      "constant": true,
      "inputs": [],
      "name": "getName",
      "outputs": [
        {
          "name": "",
          "type": "bytes32"
        }
      ],
      "payable": false,
      "stateMutability": "view",
      "type": "function"
    },
    {
      "constant": true,
      "inputs": [],
      "name": "getDescription",
      "outputs": [
        {
          "name": "",
          "type": "string"
        }
      ],
      "payable": false,
      "stateMutability": "view",
      "type": "function"
    },
    {
      "constant": true,
      "inputs": [],
      "name": "getTitle",
      "outputs": [
        {
          "name": "",
          "type": "string"
        }
      ],
      "payable": false,
      "stateMutability": "view",
      "type": "function"
    },
    {
      "constant": true,
      "inputs": [],
      "name": "getInstructions",
      "outputs": [
        {
          "name": "",
          "type": "string"
        }
      ],
      "payable": false,
      "stateMutability": "view",
      "type": "function"
    },
    {
      "constant": true,
      "inputs": [],
      "name": "getTags",
      "outputs": [
        {
          "name": "",
          "type": "bytes32[]"
        }
      ],
      "payable": false,
      "stateMutability": "view",
      "type": "function"
    }
  ],
  "bytecode": "0x608060405234801561001057600080fd5b50604051608080611b37833981016040908152815160208301519183015160609093015160008054600160a060020a0319908116331790915560018054600160a060020a039094169390911692909217909155600291909155600391909155600455611ab6806100816000396000f3006080604052600436106100d65763ffffffff60e060020a60003504166277436081146100db57806306184a251461011757806315dae03e1461013e57806317d7de7c146101695780631a0925411461017e5780633ae192bd1461020857806358a191c3146102225780636faa22a51461023a578063715018a61461024f5780637e363ffa146102645780638da5cb5b14610279578063995d9ab71461028e578063aac67b05146102f3578063d54c47261461030b578063e0d5497014610320578063f2fde38b14610335578063ff3c1a8f14610356575b600080fd5b3480156100e757600080fd5b506100fb600480356024810191013561036b565b60408051600160a060020a039092168252519081900360200190f35b34801561012357600080fd5b5061012c61076b565b60408051918252519081900360200190f35b34801561014a57600080fd5b50610153610771565b6040805160ff9092168252519081900360200190f35b34801561017557600080fd5b5061012c610776565b34801561018a57600080fd5b5061019361079a565b6040805160208082528351818301528351919283929083019185019080838360005b838110156101cd5781810151838201526020016101b5565b50505050905090810190601f1680156101fa5780820380516001836020036101000a031916815260200191505b509250505060405180910390f35b34801561021457600080fd5b506102206004356107d1565b005b34801561022e57600080fd5b5061022060043561082e565b34801561024657600080fd5b506100fb61088b565b34801561025b57600080fd5b5061022061089a565b34801561027057600080fd5b5061012c610906565b34801561028557600080fd5b506100fb61090c565b34801561029a57600080fd5b506102a361091b565b60408051602080825283518183015283519192839290830191858101910280838360005b838110156102df5781810151838201526020016102c7565b505050509050019250505060405180910390f35b3480156102ff57600080fd5b506102206004356109b9565b34801561031757600080fd5b5061012c610a16565b34801561032c57600080fd5b50610193610a1c565b34801561034157600080fd5b50610220600160a060020a0360043516610aa1565b34801561036257600080fd5b50610193610ac4565b600080600060025411156104dd5760015460008054600254604080517f23b872dd000000000000000000000000000000000000000000000000000000008152336004820152600160a060020a03938416602482015260448101929092525191909316926323b872dd9260648083019360209390929083900390910190829087803b1580156103f857600080fd5b505af115801561040c573d6000803e3d6000fd5b505050506040513d602081101561042257600080fd5b505115156104dd57604080517f08c379a000000000000000000000000000000000000000000000000000000000815260206004820152604260248201527f4661696c6564207472616e7366657246726f6d2062656361757365206f66207360448201527f7566666963656e7420416c6c6f77616e6365206973206e6f742070726f76696460648201527f6564000000000000000000000000000000000000000000000000000000000000608482015290519081900360a40190fd5b6001543390600160a060020a03166104f3610bf9565b600160a060020a03928316815291166020820152604080519182900301906000f080158015610526573d6000803e3d6000fd5b50905080600160a060020a0316631613ec9d6040518163ffffffff1660e060020a028152600401602060405180830381600087803b15801561056757600080fd5b505af115801561057b573d6000803e3d6000fd5b505050506040513d602081101561059157600080fd5b5051604080516020601f87018190048102820181019092528581527bffffffffffffffffffffffffffffffffffffffffffffffffffffffff19909216916105ec91879087908190840183828082843750610afb945050505050565b7bffffffffffffffffffffffffffffffffffffffffffffffffffffffff19161461067757604080517f08c379a000000000000000000000000000000000000000000000000000000000815260206004820152601a60248201527f50726f76696465642064617461206973206e6f742076616c6964000000000000604482015290519081900360640190fd5b80600160a060020a03168484604051808383808284378201915050925050506000604051808303816000865af1915050151561071457604080517f08c379a000000000000000000000000000000000000000000000000000000000815260206004820152601360248201527f556e2d7375636365737366756c6c2063616c6c00000000000000000000000000604482015290519081900360640190fd5b3061071d610776565b60408051600160a060020a0385168152336020820152428183015290517f1b81ebef84f1d2411caa47894fb587822eff7c2a8a3580a2d52ce516f840c8219181900360600190a39392505050565b60045481565b600290565b7f436f756e745472616e736665724d616e6167657200000000000000000000000090565b6040805180820190915260208082527f526573747269637420746865206e756d626572206f6620696e766573746f72739082015290565b600054600160a060020a031633146107e857600080fd5b60045460408051918252602082018390523082820152517fc15ef5ae01a170635c048bc2ddb0e834fe5d866424709f0a7398496a80852ec89181900360600190a1600455565b600054600160a060020a0316331461084557600080fd5b60025460408051918252602082018390523082820152517ff9c53ed8f7f318ac63991d13acab4cf653984ce56b7dc1b3a2083af3f412262d9181900360600190a1600255565b600154600160a060020a031681565b600054600160a060020a031633146108b157600080fd5b60008054604051600160a060020a03909116917ff8df31144d9c2f0f6b59d69b8b98abd5459d07f2742c4df920b25aae33c6482091a26000805473ffffffffffffffffffffffffffffffffffffffff19169055565b60025481565b600054600160a060020a031681565b6040805160028082526060808301845292839291906020830190803883390190505090507f436f756e7400000000000000000000000000000000000000000000000000000081600081518110151561096f57fe5b6020908102909101015280517f5472616e73666572205265737472696374696f6e00000000000000000000000090829060019081106109aa57fe5b60209081029091010152905090565b600054600160a060020a031633146109d057600080fd5b60035460408051918252602082018390523082820152517fff5bf6a8d25c4e30ad5778be1e2a41c7c45173313279bcbba6e2bb1b1bf7a6db9181900360600190a1600355565b60035481565b60408051608081018252604781527f416c6c6f777320616e2069737375657220746f2072657374726963742074686560208201527f20746f74616c206e756d626572206f66206e6f6e2d7a65726f20746f6b656e20918101919091527f686f6c6465727300000000000000000000000000000000000000000000000000606082015290565b600054600160a060020a03163314610ab857600080fd5b610ac181610b7c565b50565b60408051808201909152601681527f436f756e74205472616e73666572204d616e6167657200000000000000000000602082015290565b60008060006004845110610b10576004610b13565b83515b9150600090505b81811015610b755780600183030360080260020a8482815181101515610b3c57fe5b90602001015160f860020a900460f860020a0260f860020a9004028360e060020a90040160e060020a0292508080600101915050610b1a565b5050919050565b600160a060020a0381161515610b9157600080fd5b60008054604051600160a060020a03808516939216917f8be0079c531659141344cd1fd0a4f28419497f9722a3daafe3b4186f6b6457e091a36000805473ffffffffffffffffffffffffffffffffffffffff1916600160a060020a0392909216919091179055565b604051610e8180610c0a83390190560060806040526002805460a060020a60ff021916905534801561002057600080fd5b50604051604080610e8183398101604052805160209091015160018054600160a060020a03938416600160a060020a0319918216179091556000805482163317905560028054939092169216919091179055610e00806100816000396000f3006080604052600436106100c15763ffffffff60e060020a6000350416631613ec9d81146100c65780631eb25e0a146101105780632a0acc6a1461012a5780633f4ba83a146101515780635c975abb146101665780635f7619a41461018f5780636faa22a5146101a75780637915c9e0146101d85780638456cb591461022b578063ae89a29e14610240578063b84dfbd214610255578063c3a07df61461026a578063c45a0155146102cf578063d70afa96146102e4578063ec8cae23146102f9575b600080fd5b3480156100d257600080fd5b506100db610311565b604080517fffffffff000000000000000000000000000000000000000000000000000000009092168252519081900360200190f35b34801561011c57600080fd5b50610128600435610346565b005b34801561013657600080fd5b5061013f6103ad565b60408051918252519081900360200190f35b34801561015d57600080fd5b506101286103d1565b34801561017257600080fd5b5061017b6104b9565b604080519115158252519081900360200190f35b34801561019b57600080fd5b5061017b6004356104c9565b3480156101b357600080fd5b506101bc610808565b60408051600160a060020a039092168252519081900360200190f35b3480156101e457600080fd5b50610207600160a060020a03600435811690602435166044356064351515610817565b6040518082600381111561021757fe5b60ff16815260200191505060405180910390f35b34801561023757600080fd5b50610128610962565b34801561024c57600080fd5b5061013f610a48565b34801561026157600080fd5b506101bc610a4e565b34801561027657600080fd5b5061027f610a5d565b60408051602080825283518183015283519192839290830191858101910280838360005b838110156102bb5781810151838201526020016102a3565b505050509050019250505060405180910390f35b3480156102db57600080fd5b506101bc610ac1565b3480156102f057600080fd5b5061013f610ad0565b34801561030557600080fd5b50610128600435610af4565b604080517f636f6e6669677572652875696e743235362900000000000000000000000000008152905190819003601201902090565b600054600160a060020a031633146103a8576040805160e560020a62461bcd02815260206004820152601560248201527f53656e646572206973206e6f7420666163746f72790000000000000000000000604482015290519081900360640190fd5b600355565b7f41444d494e00000000000000000000000000000000000000000000000000000081565b600160009054906101000a9004600160a060020a0316600160a060020a0316638da5cb5b6040518163ffffffff1660e060020a028152600401602060405180830381600087803b15801561042457600080fd5b505af1158015610438573d6000803e3d6000fd5b505050506040513d602081101561044e57600080fd5b5051600160a060020a031633146104af576040805160e560020a62461bcd02815260206004820152601360248201527f53656e646572206973206e6f74206f776e657200000000000000000000000000604482015290519081900360640190fd5b6104b7610cf9565b565b60025460a060020a900460ff1681565b60007f4645455f41444d494e0000000000000000000000000000000000000000000000600080600160009054906101000a9004600160a060020a0316600160a060020a0316638da5cb5b6040518163ffffffff1660e060020a028152600401602060405180830381600087803b15801561054257600080fd5b505af1158015610556573d6000803e3d6000fd5b505050506040513d602081101561056c57600080fd5b505160005433600160a060020a03928316811494509116149050818061058f5750805b806106355750600154604080517f8658b8b9000000000000000000000000000000000000000000000000000000008152336004820152306024820152604481018690529051600160a060020a0390921691638658b8b9916064808201926020929091908290030181600087803b15801561060857600080fd5b505af115801561061c573d6000803e3d6000fd5b505050506040513d602081101561063257600080fd5b50515b151561068b576040805160e560020a62461bcd02815260206004820152601760248201527f5065726d697373696f6e20636865636b206661696c6564000000000000000000604482015290519081900360640190fd5b60025460008054604080517f8da5cb5b0000000000000000000000000000000000000000000000000000000081529051600160a060020a03948516946323b872dd94309490911692638da5cb5b9260048083019360209383900390910190829087803b1580156106fa57600080fd5b505af115801561070e573d6000803e3d6000fd5b505050506040513d602081101561072457600080fd5b50516040805160e060020a63ffffffff8616028152600160a060020a039384166004820152929091166024830152604482018990525160648083019260209291908290030181600087803b15801561077b57600080fd5b505af115801561078f573d6000803e3d6000fd5b505050506040513d60208110156107a557600080fd5b505115156107fd576040805160e560020a62461bcd02815260206004820152601260248201527f556e61626c6520746f2074616b65206665650000000000000000000000000000604482015290519081900360640190fd5b506001949350505050565b600254600160a060020a031681565b60025460009060a060020a900460ff1615156107fd57600160009054906101000a9004600160a060020a0316600160a060020a031663d7e64c006040518163ffffffff1660e060020a028152600401602060405180830381600087803b15801561088057600080fd5b505af1158015610894573d6000803e3d6000fd5b505050506040513d60208110156108aa57600080fd5b505160035410156107fd57600154604080517f70a08231000000000000000000000000000000000000000000000000000000008152600160a060020a038781166004830152915191909216916370a082319160248083019260209291908290030181600087803b15801561091d57600080fd5b505af1158015610931573d6000803e3d6000fd5b505050506040513d602081101561094757600080fd5b5051156109565750600161095a565b5060005b949350505050565b600160009054906101000a9004600160a060020a0316600160a060020a0316638da5cb5b6040518163ffffffff1660e060020a028152600401602060405180830381600087803b1580156109b557600080fd5b505af11580156109c9573d6000803e3d6000fd5b505050506040513d60208110156109df57600080fd5b5051600160a060020a03163314610a40576040805160e560020a62461bcd02815260206004820152601360248201527f53656e646572206973206e6f74206f776e657200000000000000000000000000604482015290519081900360640190fd5b6104b7610d64565b60035481565b600154600160a060020a031681565b604080516001808252818301909252606091829190602080830190803883390190505090507f41444d494e000000000000000000000000000000000000000000000000000000816000815181101515610ab257fe5b60209081029091010152905090565b600054600160a060020a031681565b7f4645455f41444d494e000000000000000000000000000000000000000000000081565b7f41444d494e000000000000000000000000000000000000000000000000000000600080600160009054906101000a9004600160a060020a0316600160a060020a0316638da5cb5b6040518163ffffffff1660e060020a028152600401602060405180830381600087803b158015610b6b57600080fd5b505af1158015610b7f573d6000803e3d6000fd5b505050506040513d6020811015610b9557600080fd5b505160005433600160a060020a039283168114945091161490508180610bb85750805b80610c5e5750600154604080517f8658b8b9000000000000000000000000000000000000000000000000000000008152336004820152306024820152604481018690529051600160a060020a0390921691638658b8b9916064808201926020929091908290030181600087803b158015610c3157600080fd5b505af1158015610c45573d6000803e3d6000fd5b505050506040513d6020811015610c5b57600080fd5b50515b1515610cb4576040805160e560020a62461bcd02815260206004820152601760248201527f5065726d697373696f6e20636865636b206661696c6564000000000000000000604482015290519081900360640190fd5b600354604080519182526020820186905280517f452eda26db39d49c3cb52e776f82f30611e06f6be9700ce6259869554d4c63a59281900390910190a1505050600355565b60025460a060020a900460ff161515610d1157600080fd5b6002805474ff0000000000000000000000000000000000000000191690556040805142815290517faaa520fdd7d2c83061d632fa017b0432407e798818af63ea908589fceda39ab79181900360200190a1565b60025460a060020a900460ff1615610d7b57600080fd5b6002805474ff0000000000000000000000000000000000000000191660a060020a1790556040805142815290517f68b095021b1f40fe513109f513c66692f0b3219aee674a69f4efc57badb8201d9181900360200190a15600a165627a7a7230582071fb08945dcd60863edb179358a3fb70d1ad9c742b25b479597511f04aa3c8150029a165627a7a7230582011d7c64e8ed8eb10740583d40fa6fc4b7356b6ce6105cf318735b5ba582c9ae00029",
  "source": "pragma solidity ^0.4.24;\n\nimport \"./CountTransferManager.sol\";\nimport \"../../interfaces/IModuleFactory.sol\";\n\n/**\n * @title Factory for deploying CountTransferManager module\n */\ncontract CountTransferManagerFactory is IModuleFactory {\n\n    /**\n     * @notice Constructor\n     * @param _polyAddress Address of the polytoken\n     */\n    constructor (address _polyAddress, uint256 _setupCost, uint256 _usageCost, uint256 _subscriptionCost) public\n      IModuleFactory(_polyAddress, _setupCost, _usageCost, _subscriptionCost)\n    {\n    }\n\n    /**\n     * @notice used to launch the Module with the help of factory\n     * @param _data Data used for the intialization of the module factory variables\n     * @return address Contract address of the Module\n     */\n    function deploy(bytes _data) external returns(address) {\n        if(setupCost > 0)\n            require(polyToken.transferFrom(msg.sender, owner, setupCost), \"Failed transferFrom because of sufficent Allowance is not provided\");\n        CountTransferManager countTransferManager = new CountTransferManager(msg.sender, address(polyToken));\n        require(getSig(_data) == countTransferManager.getInitFunction(), \"Provided data is not valid\");\n        require(address(countTransferManager).call(_data), \"Un-successfull call\");\n        emit LogGenerateModuleFromFactory(address(countTransferManager), getName(), address(this), msg.sender, now);\n        return address(countTransferManager);\n\n    }\n\n    /**\n     * @notice Type of the Module factory\n     */\n    function getType() public view returns(uint8) {\n        return 2;\n    }\n\n    /**\n     * @notice Get the name of the Module\n     */\n    function getName() public view returns(bytes32) {\n        return \"CountTransferManager\";\n    }\n\n    /**\n     * @notice Get the description of the Module\n     */\n    function getDescription() public view returns(string) {\n        return \"Restrict the number of investors\";\n    }\n\n    /**\n     * @notice Get the title of the Module\n     */\n    function getTitle() public view returns(string) {\n        return \"Count Transfer Manager\";\n    }\n\n    /**\n     * @notice Get the Instructions that helped to used the module\n     */\n    function getInstructions() public view returns(string) {\n        return \"Allows an issuer to restrict the total number of non-zero token holders\";\n    }\n\n    /**\n     * @notice Get the tags related to the module factory\n     */\n    function getTags() public view returns(bytes32[]) {\n         bytes32[] memory availableTags = new bytes32[](2);\n        availableTags[0] = \"Count\";\n        availableTags[1] = \"Transfer Restriction\";\n        return availableTags;\n    }\n}\n",
  "sourcePath": "/Users/rafaelvidaurre/Code/polymath/polymath-apps/packages/polymath-shared/scripts/generateLocalBlockchain/contracts/modules/TransferManager/CountTransferManagerFactory.sol",
  "compiler": {
    "name": "solc",
    "version": "0.4.24+commit.e67f0147.Emscripten.clang"
  },
  "schemaVersion": "2.0.1",
  "updatedAt": "2018-10-18T19:17:51.254Z"
}