{
  "contractName": "DummySTO",
  "abi": [
    {
      "constant": true,
      "inputs": [],
      "name": "ADMIN",
      "outputs": [
        {
          "name": "",
          "type": "bytes32"
        }
      ],
      "payable": false,
      "stateMutability": "view",
      "type": "function"
    },
    {
      "constant": true,
      "inputs": [],
      "name": "endTime",
      "outputs": [
        {
          "name": "",
          "type": "uint256"
        }
      ],
      "payable": false,
      "stateMutability": "view",
      "type": "function"
    },
    {
      "constant": true,
      "inputs": [],
      "name": "cap",
      "outputs": [
        {
          "name": "",
          "type": "uint256"
        }
      ],
      "payable": false,
      "stateMutability": "view",
      "type": "function"
    },
    {
      "constant": false,
      "inputs": [],
      "name": "unpause",
      "outputs": [],
      "payable": false,
      "stateMutability": "nonpayable",
      "type": "function"
    },
    {
      "constant": true,
      "inputs": [],
      "name": "paused",
      "outputs": [
        {
          "name": "",
          "type": "bool"
        }
      ],
      "payable": false,
      "stateMutability": "view",
      "type": "function"
    },
    {
      "constant": false,
      "inputs": [
        {
          "name": "_amount",
          "type": "uint256"
        }
      ],
      "name": "takeFee",
      "outputs": [
        {
          "name": "",
          "type": "bool"
        }
      ],
      "payable": false,
      "stateMutability": "nonpayable",
      "type": "function"
    },
    {
      "constant": true,
      "inputs": [
        {
          "name": "",
          "type": "address"
        }
      ],
      "name": "investors",
      "outputs": [
        {
          "name": "",
          "type": "uint256"
        }
      ],
      "payable": false,
      "stateMutability": "view",
      "type": "function"
    },
    {
      "constant": true,
      "inputs": [],
      "name": "polyToken",
      "outputs": [
        {
          "name": "",
          "type": "address"
        }
      ],
      "payable": false,
      "stateMutability": "view",
      "type": "function"
    },
    {
      "constant": true,
      "inputs": [],
      "name": "startTime",
      "outputs": [
        {
          "name": "",
          "type": "uint256"
        }
      ],
      "payable": false,
      "stateMutability": "view",
      "type": "function"
    },
    {
      "constant": false,
      "inputs": [],
      "name": "pause",
      "outputs": [],
      "payable": false,
      "stateMutability": "nonpayable",
      "type": "function"
    },
    {
      "constant": false,
      "inputs": [
        {
          "name": "_tokenContract",
          "type": "address"
        }
      ],
      "name": "reclaimERC20",
      "outputs": [],
      "payable": false,
      "stateMutability": "nonpayable",
      "type": "function"
    },
    {
      "constant": true,
      "inputs": [
        {
          "name": "_beneficiary",
          "type": "address"
        },
        {
          "name": "_fundsAmount",
          "type": "uint256"
        }
      ],
      "name": "verifyInvestment",
      "outputs": [
        {
          "name": "",
          "type": "bool"
        }
      ],
      "payable": false,
      "stateMutability": "view",
      "type": "function"
    },
    {
      "constant": true,
      "inputs": [],
      "name": "pausedTime",
      "outputs": [
        {
          "name": "",
          "type": "uint256"
        }
      ],
      "payable": false,
      "stateMutability": "view",
      "type": "function"
    },
    {
      "constant": true,
      "inputs": [],
      "name": "securityToken",
      "outputs": [
        {
          "name": "",
          "type": "address"
        }
      ],
      "payable": false,
      "stateMutability": "view",
      "type": "function"
    },
    {
      "constant": true,
      "inputs": [],
      "name": "factory",
      "outputs": [
        {
          "name": "",
          "type": "address"
        }
      ],
      "payable": false,
      "stateMutability": "view",
      "type": "function"
    },
    {
      "constant": true,
      "inputs": [],
      "name": "FEE_ADMIN",
      "outputs": [
        {
          "name": "",
          "type": "bytes32"
        }
      ],
      "payable": false,
      "stateMutability": "view",
      "type": "function"
    },
    {
      "constant": true,
      "inputs": [],
      "name": "investorCount",
      "outputs": [
        {
          "name": "",
          "type": "uint256"
        }
      ],
      "payable": false,
      "stateMutability": "view",
      "type": "function"
    },
    {
      "constant": true,
      "inputs": [],
      "name": "someString",
      "outputs": [
        {
          "name": "",
          "type": "string"
        }
      ],
      "payable": false,
      "stateMutability": "view",
      "type": "function"
    },
    {
      "constant": true,
      "inputs": [
        {
          "name": "",
          "type": "uint8"
        }
      ],
      "name": "fundRaiseType",
      "outputs": [
        {
          "name": "",
          "type": "bool"
        }
      ],
      "payable": false,
      "stateMutability": "view",
      "type": "function"
    },
    {
      "inputs": [
        {
          "name": "_securityToken",
          "type": "address"
        },
        {
          "name": "_polyAddress",
          "type": "address"
        }
      ],
      "payable": false,
      "stateMutability": "nonpayable",
      "type": "constructor"
    },
    {
      "anonymous": false,
      "inputs": [
        {
          "indexed": false,
          "name": "_investor",
          "type": "address"
        },
        {
          "indexed": false,
          "name": "_amount",
          "type": "uint256"
        }
      ],
      "name": "LogGenerateTokens",
      "type": "event"
    },
    {
      "anonymous": false,
      "inputs": [
        {
          "indexed": false,
          "name": "_timestammp",
          "type": "uint256"
        }
      ],
      "name": "Pause",
      "type": "event"
    },
    {
      "anonymous": false,
      "inputs": [
        {
          "indexed": false,
          "name": "_timestamp",
          "type": "uint256"
        }
      ],
      "name": "Unpause",
      "type": "event"
    },
    {
      "constant": false,
      "inputs": [
        {
          "name": "_startTime",
          "type": "uint256"
        },
        {
          "name": "_endTime",
          "type": "uint256"
        },
        {
          "name": "_cap",
          "type": "uint256"
        },
        {
          "name": "_someString",
          "type": "string"
        }
      ],
      "name": "configure",
      "outputs": [],
      "payable": false,
      "stateMutability": "nonpayable",
      "type": "function"
    },
    {
      "constant": true,
      "inputs": [],
      "name": "getInitFunction",
      "outputs": [
        {
          "name": "",
          "type": "bytes4"
        }
      ],
      "payable": false,
      "stateMutability": "pure",
      "type": "function"
    },
    {
      "constant": false,
      "inputs": [
        {
          "name": "_investor",
          "type": "address"
        },
        {
          "name": "_amount",
          "type": "uint256"
        }
      ],
      "name": "generateTokens",
      "outputs": [],
      "payable": false,
      "stateMutability": "nonpayable",
      "type": "function"
    },
    {
      "constant": true,
      "inputs": [],
      "name": "getRaisedEther",
      "outputs": [
        {
          "name": "",
          "type": "uint256"
        }
      ],
      "payable": false,
      "stateMutability": "view",
      "type": "function"
    },
    {
      "constant": true,
      "inputs": [],
      "name": "getRaisedPOLY",
      "outputs": [
        {
          "name": "",
          "type": "uint256"
        }
      ],
      "payable": false,
      "stateMutability": "view",
      "type": "function"
    },
    {
      "constant": true,
      "inputs": [],
      "name": "getNumberInvestors",
      "outputs": [
        {
          "name": "",
          "type": "uint256"
        }
      ],
      "payable": false,
      "stateMutability": "view",
      "type": "function"
    },
    {
      "constant": true,
      "inputs": [],
      "name": "getTokensSold",
      "outputs": [
        {
          "name": "",
          "type": "uint256"
        }
      ],
      "payable": false,
      "stateMutability": "view",
      "type": "function"
    },
    {
      "constant": true,
      "inputs": [],
      "name": "getPermissions",
      "outputs": [
        {
          "name": "",
          "type": "bytes32[]"
        }
      ],
      "payable": false,
      "stateMutability": "view",
      "type": "function"
    }
  ],
  "bytecode": "0x60806040526002805460a060020a60ff021916905534801561002057600080fd5b506040516040806115be83398101604052805160209091015160018054600160a060020a03938416600160a060020a031991821617909155600080548216331790556002805493909216921691909117905561153d806100816000396000f3006080604052600436106101455763ffffffff60e060020a6000350416631613ec9d811461014a5780632a0acc6a146101945780633197cbb6146101bb578063355274ea146101d057806335ff3a51146101e557806338c59de9146101fa5780633f4ba83a1461020f5780635c975abb146102265780635f7619a41461024f5780636f7bc9be146102675780636faa22a51461028857806378e97925146102b9578063827f32c0146102ce5780638456cb59146102f25780638905fd4f146103075780638b31007914610328578063a3fb8f15146101e5578063a412f87c1461038b578063b2cca39d146103af578063b84dfbd2146103c4578063c3a07df6146103d9578063c45a01551461043e578063d70afa9614610453578063d7e64c0014610468578063e7a96f6d1461047d578063eda524bc14610507578063ee7c0db0146101e5575b600080fd5b34801561015657600080fd5b5061015f610522565b604080517fffffffff000000000000000000000000000000000000000000000000000000009092168252519081900360200190f35b3480156101a057600080fd5b506101a961057e565b60408051918252519081900360200190f35b3480156101c757600080fd5b506101a96105a2565b3480156101dc57600080fd5b506101a96105a8565b3480156101f157600080fd5b506101a96105ae565b34801561020657600080fd5b506101a96105b3565b34801561021b57600080fd5b506102246105b9565b005b34801561023257600080fd5b5061023b6106a1565b604080519115158252519081900360200190f35b34801561025b57600080fd5b5061023b6004356106b1565b34801561027357600080fd5b506101a9600160a060020a03600435166109f0565b34801561029457600080fd5b5061029d610a02565b60408051600160a060020a039092168252519081900360200190f35b3480156102c557600080fd5b506101a9610a11565b3480156102da57600080fd5b50610224600160a060020a0360043516602435610a17565b3480156102fe57600080fd5b50610224610d69565b34801561031357600080fd5b50610224600160a060020a0360043516610e5d565b34801561033457600080fd5b50604080516020601f606435600481810135928301849004840285018401909552818452610224948035946024803595604435953695608494930191819084018382808284375094975061108b9650505050505050565b34801561039757600080fd5b5061023b600160a060020a0360043516602435611116565b3480156103bb57600080fd5b506101a96111ba565b3480156103d057600080fd5b5061029d6111c0565b3480156103e557600080fd5b506103ee6111cf565b60408051602080825283518183015283519192839290830191858101910280838360005b8381101561042a578181015183820152602001610412565b505050509050019250505060405180910390f35b34801561044a57600080fd5b5061029d611236565b34801561045f57600080fd5b506101a9611245565b34801561047457600080fd5b506101a9611269565b34801561048957600080fd5b5061049261126f565b6040805160208082528351818301528351919283929083019185019080838360005b838110156104cc5781810151838201526020016104b4565b50505050905090810190601f1680156104f95780820380516001836020036101000a031916815260200191505b509250505060405180910390f35b34801561051357600080fd5b5061023b60ff600435166112fd565b604080517f636f6e6669677572652875696e743235362c75696e743235362c75696e74323581527f362c737472696e67290000000000000000000000000000000000000000000000602082015290519081900360290190205b90565b7f41444d494e00000000000000000000000000000000000000000000000000000081565b60055481565b60085481565b600090565b60075490565b600160009054906101000a9004600160a060020a0316600160a060020a0316638da5cb5b6040518163ffffffff1660e060020a028152600401602060405180830381600087803b15801561060c57600080fd5b505af1158015610620573d6000803e3d6000fd5b505050506040513d602081101561063657600080fd5b5051600160a060020a03163314610697576040805160e560020a62461bcd02815260206004820152601360248201527f53656e646572206973206e6f74206f776e657200000000000000000000000000604482015290519081900360640190fd5b61069f611312565b565b60025460a060020a900460ff1681565b60007f4645455f41444d494e0000000000000000000000000000000000000000000000600080600160009054906101000a9004600160a060020a0316600160a060020a0316638da5cb5b6040518163ffffffff1660e060020a028152600401602060405180830381600087803b15801561072a57600080fd5b505af115801561073e573d6000803e3d6000fd5b505050506040513d602081101561075457600080fd5b505160005433600160a060020a0392831681149450911614905081806107775750805b8061081d5750600154604080517f8658b8b9000000000000000000000000000000000000000000000000000000008152336004820152306024820152604481018690529051600160a060020a0390921691638658b8b9916064808201926020929091908290030181600087803b1580156107f057600080fd5b505af1158015610804573d6000803e3d6000fd5b505050506040513d602081101561081a57600080fd5b50515b1515610873576040805160e560020a62461bcd02815260206004820152601760248201527f5065726d697373696f6e20636865636b206661696c6564000000000000000000604482015290519081900360640190fd5b60025460008054604080517f8da5cb5b0000000000000000000000000000000000000000000000000000000081529051600160a060020a03948516946323b872dd94309490911692638da5cb5b9260048083019360209383900390910190829087803b1580156108e257600080fd5b505af11580156108f6573d6000803e3d6000fd5b505050506040513d602081101561090c57600080fd5b50516040805160e060020a63ffffffff8616028152600160a060020a039384166004820152929091166024830152604482018990525160648083019260209291908290030181600087803b15801561096357600080fd5b505af1158015610977573d6000803e3d6000fd5b505050506040513d602081101561098d57600080fd5b505115156109e5576040805160e560020a62461bcd02815260206004820152601260248201527f556e61626c6520746f2074616b65206665650000000000000000000000000000604482015290519081900360640190fd5b506001949350505050565b600a6020526000908152604090205481565b600254600160a060020a031681565b60045481565b7f41444d494e000000000000000000000000000000000000000000000000000000600080600160009054906101000a9004600160a060020a0316600160a060020a0316638da5cb5b6040518163ffffffff1660e060020a028152600401602060405180830381600087803b158015610a8e57600080fd5b505af1158015610aa2573d6000803e3d6000fd5b505050506040513d6020811015610ab857600080fd5b505160005433600160a060020a039283168114945091161490508180610adb5750805b80610b815750600154604080517f8658b8b9000000000000000000000000000000000000000000000000000000008152336004820152306024820152604481018690529051600160a060020a0390921691638658b8b9916064808201926020929091908290030181600087803b158015610b5457600080fd5b505af1158015610b68573d6000803e3d6000fd5b505050506040513d6020811015610b7e57600080fd5b50515b1515610bd7576040805160e560020a62461bcd02815260206004820152601760248201527f5065726d697373696f6e20636865636b206661696c6564000000000000000000604482015290519081900360640190fd5b60025460a060020a900460ff1615610bee57600080fd5b60008411610c46576040805160e560020a62461bcd02815260206004820152601f60248201527f416d6f756e742073686f756c642062652067726561746572207468616e203000604482015290519081900360640190fd5b600154604080517f40c10f19000000000000000000000000000000000000000000000000000000008152600160a060020a03888116600483015260248201889052915191909216916340c10f199160448083019260209291908290030181600087803b158015610cb557600080fd5b505af1158015610cc9573d6000803e3d6000fd5b505050506040513d6020811015610cdf57600080fd5b5050600160a060020a0385166000908152600a60205260409020541515610d0a576007805460010190555b600160a060020a0385166000818152600a60209081526040918290208054880190558151928352820186905280517f1de621a3656e198085de9765650db7426a90c14ebced44f84f9a8c5d4660d6f49281900390910190a15050505050565b600160009054906101000a9004600160a060020a0316600160a060020a0316638da5cb5b6040518163ffffffff1660e060020a028152600401602060405180830381600087803b158015610dbc57600080fd5b505af1158015610dd0573d6000803e3d6000fd5b505050506040513d6020811015610de657600080fd5b5051600160a060020a03163314610e47576040805160e560020a62461bcd02815260206004820152601360248201527f53656e646572206973206e6f74206f776e657200000000000000000000000000604482015290519081900360640190fd5b6005544210610e5557600080fd5b61069f6113c8565b600080600160009054906101000a9004600160a060020a0316600160a060020a0316638da5cb5b6040518163ffffffff1660e060020a028152600401602060405180830381600087803b158015610eb357600080fd5b505af1158015610ec7573d6000803e3d6000fd5b505050506040513d6020811015610edd57600080fd5b5051600160a060020a03163314610f3e576040805160e560020a62461bcd02815260206004820152601360248201527f53656e646572206973206e6f74206f776e657200000000000000000000000000604482015290519081900360640190fd5b600160a060020a0383161515610f5357600080fd5b604080517f70a082310000000000000000000000000000000000000000000000000000000081523060048201529051849350600160a060020a038416916370a082319160248083019260209291908290030181600087803b158015610fb757600080fd5b505af1158015610fcb573d6000803e3d6000fd5b505050506040513d6020811015610fe157600080fd5b5051604080517fa9059cbb000000000000000000000000000000000000000000000000000000008152336004820152602481018390529051919250600160a060020a0384169163a9059cbb916044808201926020929091908290030181600087803b15801561104f57600080fd5b505af1158015611063573d6000803e3d6000fd5b505050506040513d602081101561107957600080fd5b5051151561108657600080fd5b505050565b600054600160a060020a031633146110ed576040805160e560020a62461bcd02815260206004820152601560248201527f53656e646572206973206e6f7420666163746f72790000000000000000000000604482015290519081900360640190fd5b600484905560058390556008829055805161110f906009906020840190611483565b5050505050565b600254604080517fdd62ed3e000000000000000000000000000000000000000000000000000000008152600160a060020a03858116600483015230602483015291516000938593169163dd62ed3e91604480830192602092919082900301818887803b15801561118557600080fd5b505af1158015611199573d6000803e3d6000fd5b505050506040513d60208110156111af57600080fd5b505110159392505050565b60065481565b600154600160a060020a031681565b604080516001808252818301909252606091829190602080830190803883390190505090507f41444d494e00000000000000000000000000000000000000000000000000000081600081518110151561122457fe5b602090810290910101529050805b5090565b600054600160a060020a031681565b7f4645455f41444d494e000000000000000000000000000000000000000000000081565b60075481565b6009805460408051602060026001851615610100026000190190941693909304601f810184900484028201840190925281815292918301828280156112f55780601f106112ca576101008083540402835291602001916112f5565b820191906000526020600020905b8154815290600101906020018083116112d857829003601f168201915b505050505081565b60036020526000908152604090205460ff1681565b60025460a060020a900460ff161515611375576040805160e560020a62461bcd02815260206004820152601660248201527f436f6e7472616374206973206e6f742070617573656400000000000000000000604482015290519081900360640190fd5b6002805474ff0000000000000000000000000000000000000000191690556040805142815290517faaa520fdd7d2c83061d632fa017b0432407e798818af63ea908589fceda39ab79181900360200190a1565b60025460a060020a900460ff161561142a576040805160e560020a62461bcd02815260206004820152601260248201527f436f6e7472616374206973207061757365640000000000000000000000000000604482015290519081900360640190fd5b6002805474ff0000000000000000000000000000000000000000191660a060020a1790556040805142815290517f68b095021b1f40fe513109f513c66692f0b3219aee674a69f4efc57badb8201d9181900360200190a1565b828054600181600116156101000203166002900490600052602060002090601f016020900481019282601f106114c457805160ff19168380011785556114f1565b828001600101855582156114f1579182015b828111156114f15782518255916020019190600101906114d6565b506112329261057b9250905b8082111561123257600081556001016114fd5600a165627a7a7230582059e28a141ed2b88ccd8d2c3d93721074e569997cdf893c5a8443203936d9f5ce0029",
  "source": "pragma solidity ^0.4.24;\n\nimport \"./ISTO.sol\";\nimport \"../../interfaces/IST20.sol\";\n\n/**\n * @title STO module for sample implementation of a different crowdsale module\n */\ncontract DummySTO is ISTO {\n\n    bytes32 public constant ADMIN = \"ADMIN\";\n\n    uint256 public investorCount;\n\n    uint256 public cap;\n    string public someString;\n\n    event LogGenerateTokens(address _investor, uint256 _amount);\n\n    mapping (address => uint256) public investors;\n\n    /**\n     * @notice Constructor\n     * @param _securityToken Address of the security token\n     * @param _polyAddress Address of the polytoken\n     */\n    constructor (address _securityToken, address _polyAddress) public\n    IModule(_securityToken, _polyAddress)\n    {\n    }\n\n    /**\n     * @notice Function used to intialize the differnet variables\n     * @param _startTime Unix timestamp at which offering get started\n     * @param _endTime Unix timestamp at which offering get ended\n     * @param _cap Maximum No. of tokens for sale\n     * @param _someString Any string that contails the details\n     */\n    function configure(uint256 _startTime, uint256 _endTime, uint256 _cap, string _someString) public onlyFactory {\n        startTime = _startTime;\n        endTime = _endTime;\n        cap = _cap;\n        someString = _someString;\n    }\n\n    /**\n     * @notice This function returns the signature of configure function\n     */\n    function getInitFunction() public pure returns (bytes4) {\n        return bytes4(keccak256(\"configure(uint256,uint256,uint256,string)\"));\n    }\n\n    /**\n     * @notice Function used to generate the tokens\n     * @param _investor Address of the investor\n     * @param _amount Amount of ETH or Poly invested by the investor\n     */\n    function generateTokens(address _investor, uint256 _amount) public withPerm(ADMIN) {\n        require(!paused);\n        require(_amount > 0, \"Amount should be greater than 0\");\n        IST20(securityToken).mint(_investor, _amount);\n        if (investors[_investor] == 0) {\n            investorCount = investorCount + 1;\n        }\n        //TODO: Add SafeMath maybe\n        investors[_investor] = investors[_investor] + _amount;\n        emit LogGenerateTokens (_investor, _amount);\n    }\n\n    /**\n     * @notice Return ETH raised by the STO\n     */\n    function getRaisedEther() public view returns (uint256) {\n        return 0;\n    }\n\n    /**\n     * @notice Return POLY raised by the STO\n     */\n    function getRaisedPOLY() public view returns (uint256) {\n        return 0;\n    }\n\n    /**\n     * @notice Return the total no. of investors\n     */\n    function getNumberInvestors() public view returns (uint256) {\n        return investorCount;\n    }\n\n    /**\n     * @notice Return the total no. of investors\n     */\n    function getTokensSold() public view returns (uint256) {\n        return 0;\n    }\n\n    /**\n     * @notice Return the permissions flag that are associated with STO\n     */\n    function getPermissions() public view returns(bytes32[]) {\n        bytes32[] memory allPermissions = new bytes32[](1);\n        allPermissions[0] = ADMIN;\n        return allPermissions;\n    }\n\n}\n",
  "sourcePath": "/Users/rafaelvidaurre/Code/polymath/polymath-apps/packages/polymath-shared/contracts/modules/STO/DummySTO.sol",
  "compiler": {
    "name": "solc",
    "version": "0.4.24+commit.e67f0147.Emscripten.clang"
  },
  "schemaVersion": "2.0.1",
  "updatedAt": "2018-09-20T22:48:17.159Z"
}