{
  "contractName": "ERC20DividendCheckpoint",
  "abi": [
    {
      "constant": false,
      "inputs": [
        {
          "name": "_investors",
          "type": "address[]"
        },
        {
          "name": "_withholding",
          "type": "uint256"
        }
      ],
      "name": "setWithholdingFixed",
      "outputs": [],
      "payable": false,
      "stateMutability": "nonpayable",
      "type": "function"
    },
    {
      "constant": true,
      "inputs": [],
      "name": "EXCLUDED_ADDRESS_LIMIT",
      "outputs": [
        {
          "name": "",
          "type": "uint256"
        }
      ],
      "payable": false,
      "stateMutability": "view",
      "type": "function"
    },
    {
      "constant": true,
      "inputs": [],
      "name": "getInitFunction",
      "outputs": [
        {
          "name": "",
          "type": "bytes4"
        }
      ],
      "payable": false,
      "stateMutability": "pure",
      "type": "function"
    },
    {
      "constant": false,
      "inputs": [
        {
          "name": "_dividendIndex",
          "type": "uint256"
        }
      ],
      "name": "pullDividendPayment",
      "outputs": [],
      "payable": false,
      "stateMutability": "nonpayable",
      "type": "function"
    },
    {
      "constant": true,
      "inputs": [],
      "name": "CHECKPOINT",
      "outputs": [
        {
          "name": "",
          "type": "bytes32"
        }
      ],
      "payable": false,
      "stateMutability": "view",
      "type": "function"
    },
    {
      "constant": true,
      "inputs": [
        {
          "name": "",
          "type": "address"
        }
      ],
      "name": "investorWithheld",
      "outputs": [
        {
          "name": "",
          "type": "uint256"
        }
      ],
      "payable": false,
      "stateMutability": "view",
      "type": "function"
    },
    {
      "constant": false,
      "inputs": [
        {
          "name": "_dividendIndex",
          "type": "uint256"
        },
        {
          "name": "_payees",
          "type": "address[]"
        }
      ],
      "name": "pushDividendPaymentToAddresses",
      "outputs": [],
      "payable": false,
      "stateMutability": "nonpayable",
      "type": "function"
    },
    {
      "constant": true,
      "inputs": [
        {
          "name": "_dividendIndex",
          "type": "uint256"
        },
        {
          "name": "_payee",
          "type": "address"
        }
      ],
      "name": "calculateDividend",
      "outputs": [
        {
          "name": "",
          "type": "uint256"
        },
        {
          "name": "",
          "type": "uint256"
        }
      ],
      "payable": false,
      "stateMutability": "view",
      "type": "function"
    },
    {
      "constant": true,
      "inputs": [],
      "name": "MANAGE",
      "outputs": [
        {
          "name": "",
          "type": "bytes32"
        }
      ],
      "payable": false,
      "stateMutability": "view",
      "type": "function"
    },
    {
      "constant": true,
      "inputs": [
        {
          "name": "_checkpointId",
          "type": "uint256"
        }
      ],
      "name": "getDividendIndex",
      "outputs": [
        {
          "name": "",
          "type": "uint256[]"
        }
      ],
      "payable": false,
      "stateMutability": "view",
      "type": "function"
    },
    {
      "constant": false,
      "inputs": [
        {
          "name": "_amount",
          "type": "uint256"
        }
      ],
      "name": "takeFee",
      "outputs": [
        {
          "name": "",
          "type": "bool"
        }
      ],
      "payable": false,
      "stateMutability": "nonpayable",
      "type": "function"
    },
    {
      "constant": true,
      "inputs": [],
      "name": "polyToken",
      "outputs": [
        {
          "name": "",
          "type": "address"
        }
      ],
      "payable": false,
      "stateMutability": "view",
      "type": "function"
    },
    {
      "constant": true,
      "inputs": [
        {
          "name": "",
          "type": "address"
        }
      ],
      "name": "withholdingTax",
      "outputs": [
        {
          "name": "",
          "type": "uint256"
        }
      ],
      "payable": false,
      "stateMutability": "view",
      "type": "function"
    },
    {
      "constant": true,
      "inputs": [],
      "name": "DISTRIBUTE",
      "outputs": [
        {
          "name": "",
          "type": "bytes32"
        }
      ],
      "payable": false,
      "stateMutability": "view",
      "type": "function"
    },
    {
      "constant": true,
      "inputs": [
        {
          "name": "",
          "type": "uint256"
        }
      ],
      "name": "dividends",
      "outputs": [
        {
          "name": "checkpointId",
          "type": "uint256"
        },
        {
          "name": "created",
          "type": "uint256"
        },
        {
          "name": "maturity",
          "type": "uint256"
        },
        {
          "name": "expiry",
          "type": "uint256"
        },
        {
          "name": "amount",
          "type": "uint256"
        },
        {
          "name": "claimedAmount",
          "type": "uint256"
        },
        {
          "name": "totalSupply",
          "type": "uint256"
        },
        {
          "name": "reclaimed",
          "type": "bool"
        },
        {
          "name": "dividendWithheld",
          "type": "uint256"
        },
        {
          "name": "dividendWithheldReclaimed",
          "type": "uint256"
        },
        {
          "name": "name",
          "type": "bytes32"
        }
      ],
      "payable": false,
      "stateMutability": "view",
      "type": "function"
    },
    {
      "constant": false,
      "inputs": [
        {
          "name": "_investors",
          "type": "address[]"
        },
        {
          "name": "_withholding",
          "type": "uint256[]"
        }
      ],
      "name": "setWithholding",
      "outputs": [],
      "payable": false,
      "stateMutability": "nonpayable",
      "type": "function"
    },
    {
      "constant": true,
      "inputs": [
        {
          "name": "",
          "type": "uint256"
        }
      ],
      "name": "dividendTokens",
      "outputs": [
        {
          "name": "",
          "type": "address"
        }
      ],
      "payable": false,
      "stateMutability": "view",
      "type": "function"
    },
    {
      "constant": true,
      "inputs": [],
      "name": "securityToken",
      "outputs": [
        {
          "name": "",
          "type": "address"
        }
      ],
      "payable": false,
      "stateMutability": "view",
      "type": "function"
    },
    {
      "constant": true,
      "inputs": [
        {
          "name": "",
          "type": "uint256"
        }
      ],
      "name": "excluded",
      "outputs": [
        {
          "name": "",
          "type": "address"
        }
      ],
      "payable": false,
      "stateMutability": "view",
      "type": "function"
    },
    {
      "constant": true,
      "inputs": [],
      "name": "getPermissions",
      "outputs": [
        {
          "name": "",
          "type": "bytes32[]"
        }
      ],
      "payable": false,
      "stateMutability": "view",
      "type": "function"
    },
    {
      "constant": true,
      "inputs": [],
      "name": "factory",
      "outputs": [
        {
          "name": "",
          "type": "address"
        }
      ],
      "payable": false,
      "stateMutability": "view",
      "type": "function"
    },
    {
      "constant": false,
      "inputs": [
        {
          "name": "_excluded",
          "type": "address[]"
        }
      ],
      "name": "setDefaultExcluded",
      "outputs": [],
      "payable": false,
      "stateMutability": "nonpayable",
      "type": "function"
    },
    {
      "constant": true,
      "inputs": [],
      "name": "FEE_ADMIN",
      "outputs": [
        {
          "name": "",
          "type": "bytes32"
        }
      ],
      "payable": false,
      "stateMutability": "view",
      "type": "function"
    },
    {
      "constant": false,
      "inputs": [
        {
          "name": "_dividendIndex",
          "type": "uint256"
        },
        {
          "name": "_start",
          "type": "uint256"
        },
        {
          "name": "_iterations",
          "type": "uint256"
        }
      ],
      "name": "pushDividendPayment",
      "outputs": [],
      "payable": false,
      "stateMutability": "nonpayable",
      "type": "function"
    },
    {
      "constant": true,
      "inputs": [],
      "name": "getDefaultExcluded",
      "outputs": [
        {
          "name": "",
          "type": "address[]"
        }
      ],
      "payable": false,
      "stateMutability": "view",
      "type": "function"
    },
    {
      "constant": false,
      "inputs": [],
      "name": "createCheckpoint",
      "outputs": [
        {
          "name": "",
          "type": "uint256"
        }
      ],
      "payable": false,
      "stateMutability": "nonpayable",
      "type": "function"
    },
    {
      "inputs": [
        {
          "name": "_securityToken",
          "type": "address"
        },
        {
          "name": "_polyAddress",
          "type": "address"
        }
      ],
      "payable": false,
      "stateMutability": "nonpayable",
      "type": "constructor"
    },
    {
      "anonymous": false,
      "inputs": [
        {
          "indexed": true,
          "name": "_depositor",
          "type": "address"
        },
        {
          "indexed": false,
          "name": "_checkpointId",
          "type": "uint256"
        },
        {
          "indexed": false,
          "name": "_created",
          "type": "uint256"
        },
        {
          "indexed": false,
          "name": "_maturity",
          "type": "uint256"
        },
        {
          "indexed": false,
          "name": "_expiry",
          "type": "uint256"
        },
        {
          "indexed": true,
          "name": "_token",
          "type": "address"
        },
        {
          "indexed": false,
          "name": "_amount",
          "type": "uint256"
        },
        {
          "indexed": false,
          "name": "_totalSupply",
          "type": "uint256"
        },
        {
          "indexed": false,
          "name": "_dividendIndex",
          "type": "uint256"
        },
        {
          "indexed": true,
          "name": "_name",
          "type": "bytes32"
        }
      ],
      "name": "ERC20DividendDeposited",
      "type": "event"
    },
    {
      "anonymous": false,
      "inputs": [
        {
          "indexed": true,
          "name": "_payee",
          "type": "address"
        },
        {
          "indexed": false,
          "name": "_dividendIndex",
          "type": "uint256"
        },
        {
          "indexed": true,
          "name": "_token",
          "type": "address"
        },
        {
          "indexed": false,
          "name": "_amount",
          "type": "uint256"
        },
        {
          "indexed": false,
          "name": "_withheld",
          "type": "uint256"
        }
      ],
      "name": "ERC20DividendClaimed",
      "type": "event"
    },
    {
      "anonymous": false,
      "inputs": [
        {
          "indexed": true,
          "name": "_claimer",
          "type": "address"
        },
        {
          "indexed": false,
          "name": "_dividendIndex",
          "type": "uint256"
        },
        {
          "indexed": true,
          "name": "_token",
          "type": "address"
        },
        {
          "indexed": false,
          "name": "_claimedAmount",
          "type": "uint256"
        }
      ],
      "name": "ERC20DividendReclaimed",
      "type": "event"
    },
    {
      "anonymous": false,
      "inputs": [
        {
          "indexed": true,
          "name": "_claimer",
          "type": "address"
        },
        {
          "indexed": false,
          "name": "_dividendIndex",
          "type": "uint256"
        },
        {
          "indexed": true,
          "name": "_token",
          "type": "address"
        },
        {
          "indexed": false,
          "name": "_withheldAmount",
          "type": "uint256"
        }
      ],
      "name": "ERC20DividendWithholdingWithdrawn",
      "type": "event"
    },
    {
      "anonymous": false,
      "inputs": [
        {
          "indexed": false,
          "name": "_excluded",
          "type": "address[]"
        },
        {
          "indexed": false,
          "name": "_timestamp",
          "type": "uint256"
        }
      ],
      "name": "SetDefaultExcludedAddresses",
      "type": "event"
    },
    {
      "anonymous": false,
      "inputs": [
        {
          "indexed": false,
          "name": "_investors",
          "type": "address[]"
        },
        {
          "indexed": false,
          "name": "_withholding",
          "type": "uint256[]"
        },
        {
          "indexed": false,
          "name": "_timestamp",
          "type": "uint256"
        }
      ],
      "name": "SetWithholding",
      "type": "event"
    },
    {
      "anonymous": false,
      "inputs": [
        {
          "indexed": false,
          "name": "_investors",
          "type": "address[]"
        },
        {
          "indexed": false,
          "name": "_withholding",
          "type": "uint256"
        },
        {
          "indexed": false,
          "name": "_timestamp",
          "type": "uint256"
        }
      ],
      "name": "SetWithholdingFixed",
      "type": "event"
    },
    {
      "constant": false,
      "inputs": [
        {
          "name": "_maturity",
          "type": "uint256"
        },
        {
          "name": "_expiry",
          "type": "uint256"
        },
        {
          "name": "_token",
          "type": "address"
        },
        {
          "name": "_amount",
          "type": "uint256"
        },
        {
          "name": "_name",
          "type": "bytes32"
        }
      ],
      "name": "createDividend",
      "outputs": [],
      "payable": false,
      "stateMutability": "nonpayable",
      "type": "function"
    },
    {
      "constant": false,
      "inputs": [
        {
          "name": "_maturity",
          "type": "uint256"
        },
        {
          "name": "_expiry",
          "type": "uint256"
        },
        {
          "name": "_token",
          "type": "address"
        },
        {
          "name": "_amount",
          "type": "uint256"
        },
        {
          "name": "_checkpointId",
          "type": "uint256"
        },
        {
          "name": "_name",
          "type": "bytes32"
        }
      ],
      "name": "createDividendWithCheckpoint",
      "outputs": [],
      "payable": false,
      "stateMutability": "nonpayable",
      "type": "function"
    },
    {
      "constant": false,
      "inputs": [
        {
          "name": "_maturity",
          "type": "uint256"
        },
        {
          "name": "_expiry",
          "type": "uint256"
        },
        {
          "name": "_token",
          "type": "address"
        },
        {
          "name": "_amount",
          "type": "uint256"
        },
        {
          "name": "_excluded",
          "type": "address[]"
        },
        {
          "name": "_name",
          "type": "bytes32"
        }
      ],
      "name": "createDividendWithExclusions",
      "outputs": [],
      "payable": false,
      "stateMutability": "nonpayable",
      "type": "function"
    },
    {
      "constant": false,
      "inputs": [
        {
          "name": "_maturity",
          "type": "uint256"
        },
        {
          "name": "_expiry",
          "type": "uint256"
        },
        {
          "name": "_token",
          "type": "address"
        },
        {
          "name": "_amount",
          "type": "uint256"
        },
        {
          "name": "_checkpointId",
          "type": "uint256"
        },
        {
          "name": "_excluded",
          "type": "address[]"
        },
        {
          "name": "_name",
          "type": "bytes32"
        }
      ],
      "name": "createDividendWithCheckpointAndExclusions",
      "outputs": [],
      "payable": false,
      "stateMutability": "nonpayable",
      "type": "function"
    },
    {
      "constant": false,
      "inputs": [
        {
          "name": "_dividendIndex",
          "type": "uint256"
        }
      ],
      "name": "reclaimDividend",
      "outputs": [],
      "payable": false,
      "stateMutability": "nonpayable",
      "type": "function"
    },
    {
      "constant": false,
      "inputs": [
        {
          "name": "_dividendIndex",
          "type": "uint256"
        }
      ],
      "name": "withdrawWithholding",
      "outputs": [],
      "payable": false,
      "stateMutability": "nonpayable",
      "type": "function"
    }
  ],
  "bytecode": "0x6080604052603260035534801561001557600080fd5b506040516040806145e783398101604052805160209091015160018054600160a060020a03938416600160a060020a0319918216179091556000805482163317905560028054939092169216919091179055614571806100766000396000f30060806040526004361061017c5763ffffffff60e060020a6000350416630945812e81146101815780630a29f591146101da5780631613ec9d1461020157806322018ce71461024b57806330008b48146102bd578063333cffe5146102d557806335d806f8146102ed5780633f2e31651461030257806343647a62146103235780634d58e413146103975780635bea0e1c146103f15780635bf341c11461042e5780635daff64e146104435780635f7619a4146104ab5780636e742c77146104d75780636faa22a5146105075780637a3e23fd1461053857806380fef5af14610559578063814b3fe01461056e5780638596e6e6146105de57806395ec5bbe1461066c578063aa8b76ea14610684578063b7e1fd9b1461069c578063b84dfbd2146106c9578063bee2ddc2146106de578063c3a07df6146106f6578063c45a01551461070b578063cc1556dc14610720578063d70afa9614610775578063e1726faa1461078a578063f1e9d100146107a8578063ff0b9c90146107bd575b600080fd5b34801561018d57600080fd5b50604080516020600480358082013583810280860185019096528085526101d89536959394602494938501929182918501908490808284375094975050933594506107d29350505050565b005b3480156101e657600080fd5b506101ef610a94565b60408051918252519081900360200190f35b34801561020d57600080fd5b50610216610a9a565b604080517fffffffff000000000000000000000000000000000000000000000000000000009092168252519081900360200190f35b34801561025757600080fd5b5060408051602060046084358181013583810280860185019096528085526101d8958335956024803596604435600160a060020a031696606435963696919560a4959490910192829190850190849080828437509497505093359450610aa09350505050565b3480156102c957600080fd5b506101d8600435610cc2565b3480156102e157600080fd5b506101d8600435610fa2565b3480156102f957600080fd5b506101ef6113a1565b34801561030e57600080fd5b506101ef600160a060020a03600435166113c5565b34801561032f57600080fd5b506040805160a435600481810135602081810285810182019096528185526101d8958335956024803596600160a060020a03604435169660643596608435963696929560c4959094019282918501908490808284375094975050933594506113d79350505050565b3480156103a357600080fd5b506040805160206004602480358281013584810280870186019097528086526101d89684359636966044959194909101929182918501908490808284375094975061156a9650505050505050565b3480156103fd57600080fd5b50610415600435600160a060020a036024351661198d565b6040805192835260208301919091528051918290030190f35b34801561043a57600080fd5b506101ef611b70565b34801561044f57600080fd5b5061045b600435611b80565b60408051602080825283518183015283519192839290830191858101910280838360005b8381101561049757818101518382015260200161047f565b505050509050019250505060405180910390f35b3480156104b757600080fd5b506104c3600435611c65565b604080519115158252519081900360200190f35b3480156104e357600080fd5b506101d8600435602435600160a060020a036044351660643560843560a435611f81565b34801561051357600080fd5b5061051c612179565b60408051600160a060020a039092168252519081900360200190f35b34801561054457600080fd5b506101ef600160a060020a0360043516612188565b34801561056557600080fd5b506101ef61219a565b34801561057a57600080fd5b506105866004356121ac565b604080519b8c5260208c019a909a528a8a019890985260608a0196909652608089019490945260a088019290925260c0870152151560e086015261010085015261012084015261014083015251908190036101600190f35b3480156105ea57600080fd5b50604080516020600480358082013583810280860185019096528085526101d895369593946024949385019291829185019084908082843750506040805187358901803560208181028481018201909552818452989b9a9989019892975090820195509350839250850190849080828437509497506122199650505050505050565b34801561067857600080fd5b5061051c600435612598565b34801561069057600080fd5b506101d86004356125b3565b3480156106a857600080fd5b506101d8600435602435600160a060020a0360443516606435608435612ac0565b3480156106d557600080fd5b5061051c612cac565b3480156106ea57600080fd5b5061051c600435612cbb565b34801561070257600080fd5b5061045b612ce3565b34801561071757600080fd5b5061051c612d5e565b34801561072c57600080fd5b50604080516020600480358082013583810280860185019096528085526101d895369593946024949385019291829185019084908082843750949750612d6d9650505050505050565b34801561078157600080fd5b506101ef613139565b34801561079657600080fd5b506101d860043560243560443561315d565b3480156107b457600080fd5b5061045b61365c565b3480156107c957600080fd5b506101ef6136be565b600060d060020a654d414e41474502600080600160009054906101000a9004600160a060020a0316600160a060020a0316638da5cb5b6040518163ffffffff1660e060020a028152600401602060405180830381600087803b15801561083757600080fd5b505af115801561084b573d6000803e3d6000fd5b505050506040513d602081101561086157600080fd5b505160005433600160a060020a0392831681149450911614905081806108845750805b8061091457506001546040805160e060020a638658b8b9028152336004820152306024820152604481018690529051600160a060020a0390921691638658b8b9916064808201926020929091908290030181600087803b1580156108e757600080fd5b505af11580156108fb573d6000803e3d6000fd5b505050506040513d602081101561091157600080fd5b50515b1515610958576040805160e560020a62461bcd0281526020600482015260176024820152600080516020614526833981519152604482015290519081900360640190fd5b670de0b6b3a76400008511156109b8576040805160e560020a62461bcd02815260206004820152601960248201527f496e636f72726563742077697468686f6c64696e672074617800000000000000604482015290519081900360640190fd5b7f3587f82979516528f7ce51509410f4d49aaed2fe4c2661c07a02cc17ea1410278686426040518080602001848152602001838152602001828103825285818151815260200191508051906020019060200280838360005b83811015610a28578181015183820152602001610a10565b5050505090500194505050505060405180910390a1600093505b8551841015610a8c5784600660008887815181101515610a5e57fe5b6020908102909101810151600160a060020a0316825281019190915260400160002055600190930192610a42565b505050505050565b60035481565b60005b90565b600060d060020a654d414e41474502600080600160009054906101000a9004600160a060020a0316600160a060020a0316638da5cb5b6040518163ffffffff1660e060020a028152600401602060405180830381600087803b158015610b0557600080fd5b505af1158015610b19573d6000803e3d6000fd5b505050506040513d6020811015610b2f57600080fd5b505160005433600160a060020a039283168114945091161490508180610b525750805b80610be257506001546040805160e060020a638658b8b9028152336004820152306024820152604481018690529051600160a060020a0390921691638658b8b9916064808201926020929091908290030181600087803b158015610bb557600080fd5b505af1158015610bc9573d6000803e3d6000fd5b505050506040513d6020811015610bdf57600080fd5b50515b1515610c26576040805160e560020a62461bcd0281526020600482015260176024820152600080516020614526833981519152604482015290519081900360640190fd5b600160009054906101000a9004600160a060020a0316600160a060020a031663ff0b9c906040518163ffffffff1660e060020a028152600401602060405180830381600087803b158015610c7957600080fd5b505af1158015610c8d573d6000803e3d6000fd5b505050506040513d6020811015610ca357600080fd5b50519350610cb68a8a8a8a888b8b6138df565b50505050505050505050565b60045460009082908110610d0e576040805160e560020a62461bcd02815260206004820152601060248201526000805160206144e6833981519152604482015290519081900360640190fd5b6004805482908110610d1c57fe5b600091825260209091206007600d90920201015460ff1615610d88576040805160e560020a62461bcd02815260206004820152601260248201527f4469766964656e64207265636c61696d65640000000000000000000000000000604482015290519081900360640190fd5b6004805482908110610d9657fe5b90600052602060002090600d0201600201544210151515610e01576040805160e560020a62461bcd02815260206004820152601b60248201527f4469766964656e64206d6174757269747920696e206675747572650000000000604482015290519081900360640190fd5b6004805482908110610e0f57fe5b90600052602060002090600d02016003015442101515610e79576040805160e560020a62461bcd02815260206004820152601760248201527f4469766964656e642065787069727920696e2070617374000000000000000000604482015290519081900360640190fd5b6004805484908110610e8757fe5b60009182526020808320338452600a600d90930201918201905260409091205490925060ff1615610f02576040805160e560020a62461bcd02815260206004820152601860248201527f4469766964656e6420616c726561647920636c61696d65640000000000000000604482015290519081900360640190fd5b336000908152600b8301602052604090205460ff1615610f92576040805160e560020a62461bcd02815260206004820152602160248201527f6d73672e73656e646572206578636c756465642066726f6d204469766964656e60448201527f6400000000000000000000000000000000000000000000000000000000000000606482015290519081900360840190fd5b610f9d338385614134565b505050565b600080600060d060020a654d414e41474502600080600160009054906101000a9004600160a060020a0316600160a060020a0316638da5cb5b6040518163ffffffff1660e060020a028152600401602060405180830381600087803b15801561100a57600080fd5b505af115801561101e573d6000803e3d6000fd5b505050506040513d602081101561103457600080fd5b505160005433600160a060020a0392831681149450911614905081806110575750805b806110e757506001546040805160e060020a638658b8b9028152336004820152306024820152604481018690529051600160a060020a0390921691638658b8b9916064808201926020929091908290030181600087803b1580156110ba57600080fd5b505af11580156110ce573d6000803e3d6000fd5b505050506040513d60208110156110e457600080fd5b50515b151561112b576040805160e560020a62461bcd0281526020600482015260176024820152600080516020614526833981519152604482015290519081900360640190fd5b6004548710611172576040805160e560020a62461bcd02815260206004820152601060248201526000805160206144e6833981519152604482015290519081900360640190fd5b600480548890811061118057fe5b90600052602060002090600d020195506111ab8660090154876008015461435d90919063ffffffff16565b60088701546009880155600154604080517f8da5cb5b0000000000000000000000000000000000000000000000000000000081529051929750600160a060020a0390911691638da5cb5b916004808201926020929091908290030181600087803b15801561121857600080fd5b505af115801561122c573d6000803e3d6000fd5b505050506040513d602081101561124257600080fd5b505160008881526008602090815260408083205481517fa9059cbb000000000000000000000000000000000000000000000000000000008152600160a060020a038087166004830152602482018c9052925195995091169363a9059cbb93604480840194938390030190829087803b1580156112bd57600080fd5b505af11580156112d1573d6000803e3d6000fd5b505050506040513d60208110156112e757600080fd5b5051151561133f576040805160e560020a62461bcd02815260206004820152600f60248201527f7472616e73666572206661696c65640000000000000000000000000000000000604482015290519081900360640190fd5b6000878152600860209081526040918290205482518a81529182018890528251600160a060020a0391821693918816927f31342482aee689b025c9cbe348134fefee05df6d6ac65a91dd6b0abdf454539f92908290030190a350505050505050565b7f434845434b504f494e540000000000000000000000000000000000000000000081565b60076020526000908152604090205481565b60d060020a654d414e41474502600080600160009054906101000a9004600160a060020a0316600160a060020a0316638da5cb5b6040518163ffffffff1660e060020a028152600401602060405180830381600087803b15801561143a57600080fd5b505af115801561144e573d6000803e3d6000fd5b505050506040513d602081101561146457600080fd5b505160005433600160a060020a0392831681149450911614905081806114875750805b8061151757506001546040805160e060020a638658b8b9028152336004820152306024820152604481018690529051600160a060020a0390921691638658b8b9916064808201926020929091908290030181600087803b1580156114ea57600080fd5b505af11580156114fe573d6000803e3d6000fd5b505050506040513d602081101561151457600080fd5b50515b151561155b576040805160e560020a62461bcd0281526020600482015260176024820152600080516020614526833981519152604482015290519081900360640190fd5b610cb68a8a8a8a8a8a8a6138df565b600080600080516020614506833981519152600080600160009054906101000a9004600160a060020a0316600160a060020a0316638da5cb5b6040518163ffffffff1660e060020a028152600401602060405180830381600087803b1580156115d257600080fd5b505af11580156115e6573d6000803e3d6000fd5b505050506040513d60208110156115fc57600080fd5b505160005433600160a060020a03928316811494509116149050818061161f5750805b806116af57506001546040805160e060020a638658b8b9028152336004820152306024820152604481018690529051600160a060020a0390921691638658b8b9916064808201926020929091908290030181600087803b15801561168257600080fd5b505af1158015611696573d6000803e3d6000fd5b505050506040513d60208110156116ac57600080fd5b50515b15156116f3576040805160e560020a62461bcd0281526020600482015260176024820152600080516020614526833981519152604482015290519081900360640190fd5b6004548790811061173c576040805160e560020a62461bcd02815260206004820152601060248201526000805160206144e6833981519152604482015290519081900360640190fd5b600480548290811061174a57fe5b600091825260209091206007600d90920201015460ff16156117b6576040805160e560020a62461bcd02815260206004820152601260248201527f4469766964656e64207265636c61696d65640000000000000000000000000000604482015290519081900360640190fd5b60048054829081106117c457fe5b90600052602060002090600d020160020154421015151561182f576040805160e560020a62461bcd02815260206004820152601b60248201527f4469766964656e64206d6174757269747920696e206675747572650000000000604482015290519081900360640190fd5b600480548290811061183d57fe5b90600052602060002090600d020160030154421015156118a7576040805160e560020a62461bcd02815260206004820152601760248201527f4469766964656e642065787069727920696e2070617374000000000000000000604482015290519081900360640190fd5b60048054899081106118b557fe5b90600052602060002090600d02019550600094505b86518510156119835785600a01600088878151811015156118e757fe5b6020908102909101810151600160a060020a031682528101919091526040016000205460ff16158015611951575085600b016000888781518110151561192957fe5b6020908102909101810151600160a060020a031682528101919091526040016000205460ff16155b1561197857611978878681518110151561196757fe5b90602001906020020151878a614134565b6001909401936118ca565b5050505050505050565b600080600080600080600480549050881015156119e2576040805160e560020a62461bcd02815260206004820152601060248201526000805160206144e6833981519152604482015290519081900360640190fd5b60048054899081106119f057fe5b60009182526020808320600160a060020a038b168452600a600d90930201918201905260409091205490945060ff1680611a445750600160a060020a0387166000908152600b8501602052604090205460ff165b15611a555760009550859450611b65565b6001548454604080517f4ee2cd7e000000000000000000000000000000000000000000000000000000008152600160a060020a038b81166004830152602482019390935290519190921691634ee2cd7e9160448083019260209291908290030181600087803b158015611ac757600080fd5b505af1158015611adb573d6000803e3d6000fd5b505050506040513d6020811015611af157600080fd5b505160068501546004860154919450611b2191611b1590869063ffffffff61437416565b9063ffffffff61439d16565b600160a060020a038816600090815260066020526040902054909250611b5c90670de0b6b3a764000090611b1590859063ffffffff61437416565b90508181955095505b505050509250929050565b60d060020a654d414e4147450281565b606060008082815b600454831015611bcc5785600484815481101515611ba257fe5b90600052602060002090600d0201600001541415611bc1576001909301925b600190920191611b88565b83604051908082528060200260200182016040528015611bf6578160200160208202803883390190505b50915060009350600090505b600454811015611c5c5785600482815481101515611c1c57fe5b90600052602060002090600d0201600001541415611c5457808285815181101515611c4357fe5b602090810290910101526001909301925b600101611c02565b50949350505050565b60007f4645455f41444d494e0000000000000000000000000000000000000000000000600080600160009054906101000a9004600160a060020a0316600160a060020a0316638da5cb5b6040518163ffffffff1660e060020a028152600401602060405180830381600087803b158015611cde57600080fd5b505af1158015611cf2573d6000803e3d6000fd5b505050506040513d6020811015611d0857600080fd5b505160005433600160a060020a039283168114945091161490508180611d2b5750805b80611dbb57506001546040805160e060020a638658b8b9028152336004820152306024820152604481018690529051600160a060020a0390921691638658b8b9916064808201926020929091908290030181600087803b158015611d8e57600080fd5b505af1158015611da2573d6000803e3d6000fd5b505050506040513d6020811015611db857600080fd5b50515b1515611dff576040805160e560020a62461bcd0281526020600482015260176024820152600080516020614526833981519152604482015290519081900360640190fd5b60025460015460008054604080517f8da5cb5b0000000000000000000000000000000000000000000000000000000081529051600160a060020a03958616956323b872dd95811694931692638da5cb5b92600480820193602093909283900390910190829087803b158015611e7357600080fd5b505af1158015611e87573d6000803e3d6000fd5b505050506040513d6020811015611e9d57600080fd5b50516040805160e060020a63ffffffff8616028152600160a060020a039384166004820152929091166024830152604482018990525160648083019260209291908290030181600087803b158015611ef457600080fd5b505af1158015611f08573d6000803e3d6000fd5b505050506040513d6020811015611f1e57600080fd5b50511515611f76576040805160e560020a62461bcd02815260206004820152601260248201527f556e61626c6520746f2074616b65206665650000000000000000000000000000604482015290519081900360640190fd5b506001949350505050565b60d060020a654d414e41474502600080600160009054906101000a9004600160a060020a0316600160a060020a0316638da5cb5b6040518163ffffffff1660e060020a028152600401602060405180830381600087803b158015611fe457600080fd5b505af1158015611ff8573d6000803e3d6000fd5b505050506040513d602081101561200e57600080fd5b505160005433600160a060020a0392831681149450911614905081806120315750805b806120c157506001546040805160e060020a638658b8b9028152336004820152306024820152604481018690529051600160a060020a0390921691638658b8b9916064808201926020929091908290030181600087803b15801561209457600080fd5b505af11580156120a8573d6000803e3d6000fd5b505050506040513d60208110156120be57600080fd5b50515b1515612105576040805160e560020a62461bcd0281526020600482015260176024820152600080516020614526833981519152604482015290519081900360640190fd5b61216e8989898989600580548060200260200160405190810160405280929190818152602001828054801561216357602002820191906000526020600020905b8154600160a060020a03168152600190910190602001808311612145575b50505050508a6138df565b505050505050505050565b600254600160a060020a031681565b60066020526000908152604090205481565b60008051602061450683398151915281565b60048054829081106121ba57fe5b60009182526020909120600d9091020180546001820154600283015460038401546004850154600586015460068701546007880154600889015460098a0154600c909a0154989a5096989597949693959294919360ff9091169290918b565b600060d060020a654d414e41474502600080600160009054906101000a9004600160a060020a0316600160a060020a0316638da5cb5b6040518163ffffffff1660e060020a028152600401602060405180830381600087803b15801561227e57600080fd5b505af1158015612292573d6000803e3d6000fd5b505050506040513d60208110156122a857600080fd5b505160005433600160a060020a0392831681149450911614905081806122cb5750805b8061235b57506001546040805160e060020a638658b8b9028152336004820152306024820152604481018690529051600160a060020a0390921691638658b8b9916064808201926020929091908290030181600087803b15801561232e57600080fd5b505af1158015612342573d6000803e3d6000fd5b505050506040513d602081101561235857600080fd5b50515b151561239f576040805160e560020a62461bcd0281526020600482015260176024820152600080516020614526833981519152604482015290519081900360640190fd5b84518651146123f8576040805160e560020a62461bcd02815260206004820152601860248201527f4d69736d61746368656420696e707574206c656e677468730000000000000000604482015290519081900360640190fd5b7f8e6f19b496a634d6fb5faea10ece2675995b6f7a0946a7509885eb76889e1213868642604051808060200180602001848152602001838103835286818151815260200191508051906020019060200280838360005b8381101561246657818101518382015260200161244e565b50505050905001838103825285818151815260200191508051906020019060200280838360005b838110156124a557818101518382015260200161248d565b505050509050019550505050505060405180910390a1600093505b8551841015610a8c57670de0b6b3a764000085858151811015156124e057fe5b602090810290910101511115612540576040805160e560020a62461bcd02815260206004820152601960248201527f496e636f72726563742077697468686f6c64696e672074617800000000000000604482015290519081900360640190fd5b848481518110151561254e57fe5b9060200190602002015160066000888781518110151561256a57fe5b6020908102909101810151600160a060020a03168252810191909152604001600020556001909301926124c0565b600860205260009081526040902054600160a060020a031681565b600080600060d060020a654d414e41474502600080600160009054906101000a9004600160a060020a0316600160a060020a0316638da5cb5b6040518163ffffffff1660e060020a028152600401602060405180830381600087803b15801561261b57600080fd5b505af115801561262f573d6000803e3d6000fd5b505050506040513d602081101561264557600080fd5b505160005433600160a060020a0392831681149450911614905081806126685750805b806126f857506001546040805160e060020a638658b8b9028152336004820152306024820152604481018690529051600160a060020a0390921691638658b8b9916064808201926020929091908290030181600087803b1580156126cb57600080fd5b505af11580156126df573d6000803e3d6000fd5b505050506040513d60208110156126f557600080fd5b50515b151561273c576040805160e560020a62461bcd0281526020600482015260176024820152600080516020614526833981519152604482015290519081900360640190fd5b6004548710612783576040805160e560020a62461bcd02815260206004820152601060248201526000805160206144e6833981519152604482015290519081900360640190fd5b600480548890811061279157fe5b90600052602060002090600d02016003015442101515156127fc576040805160e560020a62461bcd02815260206004820152601960248201527f4469766964656e642065787069727920696e2066757475726500000000000000604482015290519081900360640190fd5b600480548890811061280a57fe5b600091825260209091206007600d90920201015460ff1615612876576040805160e560020a62461bcd02815260206004820152600f60248201527f616c726561647920636c61696d65640000000000000000000000000000000000604482015290519081900360640190fd5b600160048881548110151561288757fe5b60009182526020909120600d90910201600701805460ff191691151591909117905560048054889081106128b757fe5b90600052602060002090600d020195506128e28660050154876004015461435d90919063ffffffff16565b9450600160009054906101000a9004600160a060020a0316600160a060020a0316638da5cb5b6040518163ffffffff1660e060020a028152600401602060405180830381600087803b15801561293757600080fd5b505af115801561294b573d6000803e3d6000fd5b505050506040513d602081101561296157600080fd5b505160008881526008602090815260408083205481517fa9059cbb000000000000000000000000000000000000000000000000000000008152600160a060020a038087166004830152602482018c9052925195995091169363a9059cbb93604480840194938390030190829087803b1580156129dc57600080fd5b505af11580156129f0573d6000803e3d6000fd5b505050506040513d6020811015612a0657600080fd5b50511515612a5e576040805160e560020a62461bcd02815260206004820152600f60248201527f7472616e73666572206661696c65640000000000000000000000000000000000604482015290519081900360640190fd5b6000878152600860209081526040918290205482518a81529182018890528251600160a060020a0391821693918816927f9766d0325a2a3c017f6cf974bfd1bd0b26e705570ce8250fe5e078a3e832d52d92908290030190a350505050505050565b60d060020a654d414e41474502600080600160009054906101000a9004600160a060020a0316600160a060020a0316638da5cb5b6040518163ffffffff1660e060020a028152600401602060405180830381600087803b158015612b2357600080fd5b505af1158015612b37573d6000803e3d6000fd5b505050506040513d6020811015612b4d57600080fd5b505160005433600160a060020a039283168114945091161490508180612b705750805b80612c0057506001546040805160e060020a638658b8b9028152336004820152306024820152604481018690529051600160a060020a0390921691638658b8b9916064808201926020929091908290030181600087803b158015612bd357600080fd5b505af1158015612be7573d6000803e3d6000fd5b505050506040513d6020811015612bfd57600080fd5b50515b1515612c44576040805160e560020a62461bcd0281526020600482015260176024820152600080516020614526833981519152604482015290519081900360640190fd5b611983888888886005805480602002602001604051908101604052809291908181526020018280548015612ca157602002820191906000526020600020905b8154600160a060020a03168152600190910190602001808311612c83575b505050505089610aa0565b600154600160a060020a031681565b6005805482908110612cc957fe5b600091825260209091200154600160a060020a0316905081565b604080516002808252606080830184529283929190602083019080388339019050509050600080516020614506833981519152816000815181101515612d2557fe5b60209081029091010152805160d060020a654d414e414745029082906001908110612d4c57fe5b602090810290910101529050805b5090565b600054600160a060020a031681565b60008060d060020a654d414e41474502600080600160009054906101000a9004600160a060020a0316600160a060020a0316638da5cb5b6040518163ffffffff1660e060020a028152600401602060405180830381600087803b158015612dd357600080fd5b505af1158015612de7573d6000803e3d6000fd5b505050506040513d6020811015612dfd57600080fd5b505160005433600160a060020a039283168114945091161490508180612e205750805b80612eb057506001546040805160e060020a638658b8b9028152336004820152306024820152604481018690529051600160a060020a0390921691638658b8b9916064808201926020929091908290030181600087803b158015612e8357600080fd5b505af1158015612e97573d6000803e3d6000fd5b505050506040513d6020811015612ead57600080fd5b50515b1515612ef4576040805160e560020a62461bcd0281526020600482015260176024820152600080516020614526833981519152604482015290519081900360640190fd5b60035486511115612f4f576040805160e560020a62461bcd02815260206004820152601b60248201527f546f6f206d616e79206578636c75646564206164647265737365730000000000604482015290519081900360640190fd5b600094505b8551851015613095578551600090879087908110612f6e57fe5b60209081029091010151600160a060020a03161415612fd7576040805160e560020a62461bcd02815260206004820152600f60248201527f496e76616c696420616464726573730000000000000000000000000000000000604482015290519081900360640190fd5b8460010193505b855184101561308a578584815181101515612ff557fe5b90602001906020020151600160a060020a0316868681518110151561301657fe5b60209081029091010151600160a060020a0316141561307f576040805160e560020a62461bcd02815260206004820152601960248201527f4475706c6963617465206578636c756465206164647265737300000000000000604482015290519081900360640190fd5b600190930192612fde565b600190940193612f54565b85516130a890600590602089019061444c565b507f6f7d61057c8835d8bd9272c926f638242a70f6441466ae91cd272872ed84151f6005426040518080602001838152602001828103825284818154815260200191508054801561312257602002820191906000526020600020905b8154600160a060020a03168152600190910190602001808311613104575b5050935050505060405180910390a1505050505050565b7f4645455f41444d494e000000000000000000000000000000000000000000000081565b600060606000806000600080516020614506833981519152600080600160009054906101000a9004600160a060020a0316600160a060020a0316638da5cb5b6040518163ffffffff1660e060020a028152600401602060405180830381600087803b1580156131cb57600080fd5b505af11580156131df573d6000803e3d6000fd5b505050506040513d60208110156131f557600080fd5b505160005433600160a060020a0392831681149450911614905081806132185750805b806132a857506001546040805160e060020a638658b8b9028152336004820152306024820152604481018690529051600160a060020a0390921691638658b8b9916064808201926020929091908290030181600087803b15801561327b57600080fd5b505af115801561328f573d6000803e3d6000fd5b505050506040513d60208110156132a557600080fd5b50515b15156132ec576040805160e560020a62461bcd0281526020600482015260176024820152600080516020614526833981519152604482015290519081900360640190fd5b6004548b908110613335576040805160e560020a62461bcd02815260206004820152601060248201526000805160206144e6833981519152604482015290519081900360640190fd5b600480548290811061334357fe5b600091825260209091206007600d90920201015460ff16156133af576040805160e560020a62461bcd02815260206004820152601260248201527f4469766964656e64207265636c61696d65640000000000000000000000000000604482015290519081900360640190fd5b60048054829081106133bd57fe5b90600052602060002090600d0201600201544210151515613428576040805160e560020a62461bcd02815260206004820152601b60248201527f4469766964656e64206d6174757269747920696e206675747572650000000000604482015290519081900360640190fd5b600480548290811061343657fe5b90600052602060002090600d020160030154421015156134a0576040805160e560020a62461bcd02815260206004820152601760248201527f4469766964656e642065787069727920696e2070617374000000000000000000604482015290519081900360640190fd5b600480548d9081106134ae57fe5b600091825260208220600154604080517fb2f5a54c0000000000000000000000000000000000000000000000000000000081529051600d9094029092019c50600160a060020a03169263b2f5a54c9260048084019382900301818387803b15801561351857600080fd5b505af115801561352c573d6000803e3d6000fd5b505050506040513d6000823e601f3d908101601f19168201604052602081101561355557600080fd5b81019080805164010000000081111561356d57600080fd5b8201602081018481111561358057600080fd5b815185602082028301116401000000008211171561359d57600080fd5b50508051909b506135c2935091506135bd90508d8d63ffffffff6143b216565b6143bf565b96508a95505b8686101561364e5787868151811015156135de57fe5b6020908102909101810151600160a060020a0381166000908152600a8c0190925260409091205490955060ff161580156136335750600160a060020a0385166000908152600b8a01602052604090205460ff16155b1561364357613643858a8e614134565b6001909501946135c8565b505050505050505050505050565b606060058054806020026020016040519081016040528092919081815260200182805480156136b457602002820191906000526020600020905b8154600160a060020a03168152600190910190602001808311613696575b5050505050905090565b60007f434845434b504f494e5400000000000000000000000000000000000000000000600080600160009054906101000a9004600160a060020a0316600160a060020a0316638da5cb5b6040518163ffffffff1660e060020a028152600401602060405180830381600087803b15801561373757600080fd5b505af115801561374b573d6000803e3d6000fd5b505050506040513d602081101561376157600080fd5b505160005433600160a060020a0392831681149450911614905081806137845750805b8061381457506001546040805160e060020a638658b8b9028152336004820152306024820152604481018690529051600160a060020a0390921691638658b8b9916064808201926020929091908290030181600087803b1580156137e757600080fd5b505af11580156137fb573d6000803e3d6000fd5b505050506040513d602081101561381157600080fd5b50515b1515613858576040805160e560020a62461bcd0281526020600482015260176024820152600080516020614526833981519152604482015290519081900360640190fd5b600160009054906101000a9004600160a060020a0316600160a060020a031663ff0b9c906040518163ffffffff1660e060020a028152600401602060405180830381600087803b1580156138ab57600080fd5b505af11580156138bf573d6000803e3d6000fd5b505050506040513d60208110156138d557600080fd5b5051935050505090565b6001546003548351600160a060020a03909216916000918291829182911115613952576040805160e560020a62461bcd02815260206004820152601b60248201527f546f6f206d616e7920616464726573736573206578636c756465640000000000604482015290519081900360640190fd5b8b8b116139a9576040805160e560020a62461bcd02815260206004820152601660248201527f457870697279206265666f7265206d6174757269747900000000000000000000604482015290519081900360640190fd5b428b11613a00576040805160e560020a62461bcd02815260206004820152600e60248201527f45787069727920696e2070617374000000000000000000000000000000000000604482015290519081900360640190fd5b60008911613a58576040805160e560020a62461bcd02815260206004820152601060248201527f4e6f206469766964656e642073656e7400000000000000000000000000000000604482015290519081900360640190fd5b600160a060020a038a161515613ab8576040805160e560020a62461bcd02815260206004820152600d60248201527f496e76616c696420746f6b656e00000000000000000000000000000000000000604482015290519081900360640190fd5b84600160a060020a0316635488cc806040518163ffffffff1660e060020a028152600401602060405180830381600087803b158015613af657600080fd5b505af1158015613b0a573d6000803e3d6000fd5b505050506040513d6020811015613b2057600080fd5b5051881115613b79576040805160e560020a62461bcd02815260206004820152601260248201527f496e76616c696420636865636b706f696e740000000000000000000000000000604482015290519081900360640190fd5b604080517f23b872dd000000000000000000000000000000000000000000000000000000008152336004820152306024820152604481018b90529051600160a060020a038c16916323b872dd9160648083019260209291908290030181600087803b158015613be757600080fd5b505af1158015613bfb573d6000803e3d6000fd5b505050506040513d6020811015613c1157600080fd5b50511515613c69576040805160e560020a62461bcd02815260206004820152601560248201527f696e737566666963656e7420616c6c6f77616e63650000000000000000000000604482015290519081900360640190fd5b7fff000000000000000000000000000000000000000000000000000000000000007f0100000000000000000000000000000000000000000000000000000000000000600088901a02161515613cbd57600080fd5b600480549050935084600160a060020a031663981b24d0896040518263ffffffff1660e060020a02815260040180828152602001915050602060405180830381600087803b158015613d0e57600080fd5b505af1158015613d22573d6000803e3d6000fd5b505050506040513d6020811015613d3857600080fd5b81019080805190602001909291905050509250600091506004610160604051908101604052808a81526020014281526020018e81526020018d81526020018b81526020016000815260200160008152602001600015158152602001600081526020016000815260200188600019168152509080600181540180825580915050906001820390600052602060002090600d020160009091929091909150600082015181600001556020820151816001015560408201518160020155606082015181600301556080820151816004015560a0820151816005015560c0820151816006015560e08201518160070160006101000a81548160ff0219169083151502179055506101008201518160080155610120820151816009015561014082015181600c0190600019169055505050600090505b86518110156140ba578651600090889083908110613e8357fe5b60209081029091010151600160a060020a03161415613eec576040805160e560020a62461bcd02815260206004820152600f60248201527f496e76616c696420616464726573730000000000000000000000000000000000604482015290519081900360640190fd5b6004805485908110613efa57fe5b90600052602060002090600d0201600b0160008883815181101515613f1b57fe5b6020908102909101810151600160a060020a031682528101919091526040016000205460ff1615613f96576040805160e560020a62461bcd02815260206004820152601560248201527f6475706564206578636c75646520616464726573730000000000000000000000604482015290519081900360640190fd5b61404c85600160a060020a0316634ee2cd7e8984815181101515613fb657fe5b906020019060200201518b6040518363ffffffff1660e060020a0281526004018083600160a060020a0316600160a060020a0316815260200182815260200192505050602060405180830381600087803b15801561401357600080fd5b505af1158015614027573d6000803e3d6000fd5b505050506040513d602081101561403d57600080fd5b5051839063ffffffff6143b216565b9150600160048581548110151561405f57fe5b90600052602060002090600d0201600b016000898481518110151561408057fe5b602090810291909101810151600160a060020a03168252810191909152604001600020805460ff1916911515919091179055600101613e69565b6140ca838363ffffffff61435d16565b60048054869081106140d857fe5b60009182526020808320600d9290920290910160060192909255858152600890915260409020805473ffffffffffffffffffffffffffffffffffffffff1916600160a060020a038c1617905561364e888d8d8d8d888a8d6143d7565b6000806000614143848761198d565b600160a060020a0388166000908152600a880160205260409020805460ff191660011790556005870154919450925061418390849063ffffffff6143b216565b6005860155614198838363ffffffff61435d16565b90506000811115610a8c5760008481526008602090815260408083205481517fa9059cbb000000000000000000000000000000000000000000000000000000008152600160a060020a038b81166004830152602482018790529251929091169363a9059cbb9360448084019491939192918390030190829087803b15801561421f57600080fd5b505af1158015614233573d6000803e3d6000fd5b505050506040513d602081101561424957600080fd5b505115156142a1576040805160e560020a62461bcd02815260206004820152600f60248201527f7472616e73666572206661696c65640000000000000000000000000000000000604482015290519081900360640190fd5b60088501546142b6908363ffffffff6143b216565b6008860155600160a060020a0386166000908152600760205260409020546142e4908363ffffffff6143b216565b600160a060020a0380881660008181526007602090815260408083209590955588825260088152908490205484518981529182018890528185018790529351939092169290917fced5aaa2960f7fd397627b6d68ccb25eae2d3db92a459182962e6f9b5786241a919081900360600190a3505050505050565b60008282111561436957fe5b508082035b92915050565b60008215156143855750600061436e565b5081810281838281151561439557fe5b041461436e57fe5b600081838115156143aa57fe5b049392505050565b8181018281101561436e57fe5b60008183106143ce57816143d0565b825b9392505050565b60408051898152426020820152808201899052606081018890526080810186905260a0810185905260c0810184905290518291600160a060020a0388169133917f66944b9b992875f1854a548c80939651e27d9b825c50b81aee55a2882807e116919081900360e00190a45050505050505050565b8280548282559060005260206000209081019282156144ae579160200282015b828111156144ae578251825473ffffffffffffffffffffffffffffffffffffffff1916600160a060020a0390911617825560209092019160019091019061446c565b50612d5a92610a9d9250905b80821115612d5a57805473ffffffffffffffffffffffffffffffffffffffff191681556001016144ba5600496e76616c6964206469766964656e640000000000000000000000000000000044495354524942555445000000000000000000000000000000000000000000005065726d697373696f6e20636865636b206661696c6564000000000000000000a165627a7a7230582067e8237f3a7beeb728fe1b46232f615fc89973c7b5ba9bf63b689049c6fe71650029",
  "source": "pragma solidity ^0.4.24;\r\n\r\nimport \"./DividendCheckpoint.sol\";\r\nimport \"../../interfaces/IOwnable.sol\";\r\nimport \"../../interfaces/IERC20.sol\";\r\n\r\n/**\r\n * @title Checkpoint module for issuing ERC20 dividends\r\n */\r\ncontract ERC20DividendCheckpoint is DividendCheckpoint {\r\n    using SafeMath for uint256;\r\n\r\n    // Mapping to token address for each dividend\r\n    mapping (uint256 => address) public dividendTokens;\r\n    event ERC20DividendDeposited(\r\n        address indexed _depositor,\r\n        uint256 _checkpointId,\r\n        uint256 _created,\r\n        uint256 _maturity,\r\n        uint256 _expiry,\r\n        address indexed _token,\r\n        uint256 _amount,\r\n        uint256 _totalSupply,\r\n        uint256 _dividendIndex,\r\n        bytes32 indexed _name\r\n    );\r\n    event ERC20DividendClaimed(\r\n        address indexed _payee,\r\n        uint256 _dividendIndex,\r\n        address indexed _token,\r\n        uint256 _amount,\r\n        uint256 _withheld\r\n    );\r\n    event ERC20DividendReclaimed(\r\n        address indexed _claimer,\r\n        uint256 _dividendIndex,\r\n        address indexed _token,\r\n        uint256 _claimedAmount\r\n    );\r\n    event ERC20DividendWithholdingWithdrawn(\r\n        address indexed _claimer,\r\n        uint256 _dividendIndex,\r\n        address indexed _token,\r\n        uint256 _withheldAmount\r\n    );\r\n\r\n    /**\r\n     * @notice Constructor\r\n     * @param _securityToken Address of the security token\r\n     * @param _polyAddress Address of the polytoken\r\n     */\r\n    constructor (address _securityToken, address _polyAddress) public\r\n    Module(_securityToken, _polyAddress)\r\n    {\r\n    }\r\n\r\n    /**\r\n     * @notice Creates a dividend and checkpoint for the dividend\r\n     * @param _maturity Time from which dividend can be paid\r\n     * @param _expiry Time until dividend can no longer be paid, and can be reclaimed by issuer\r\n     * @param _token Address of ERC20 token in which dividend is to be denominated\r\n     * @param _amount Amount of specified token for dividend\r\n     * @param _name Name/Title for identification\r\n     */\r\n    function createDividend(\r\n        uint256 _maturity,\r\n        uint256 _expiry,\r\n        address _token,\r\n        uint256 _amount,\r\n        bytes32 _name\r\n    ) \r\n        external \r\n        withPerm(MANAGE)\r\n    {\r\n        createDividendWithExclusions(_maturity, _expiry, _token, _amount, excluded, _name);\r\n    }\r\n\r\n    /**\r\n     * @notice Creates a dividend with a provided checkpoint\r\n     * @param _maturity Time from which dividend can be paid\r\n     * @param _expiry Time until dividend can no longer be paid, and can be reclaimed by issuer\r\n     * @param _token Address of ERC20 token in which dividend is to be denominated\r\n     * @param _amount Amount of specified token for dividend\r\n     * @param _checkpointId Checkpoint id from which to create dividends\r\n     * @param _name Name/Title for identification\r\n     */\r\n    function createDividendWithCheckpoint(\r\n        uint256 _maturity,\r\n        uint256 _expiry,\r\n        address _token,\r\n        uint256 _amount,\r\n        uint256 _checkpointId,\r\n        bytes32 _name\r\n    )\r\n        external\r\n        withPerm(MANAGE)\r\n    {\r\n        _createDividendWithCheckpointAndExclusions(_maturity, _expiry, _token, _amount, _checkpointId, excluded, _name);\r\n    }\r\n\r\n    /**\r\n     * @notice Creates a dividend and checkpoint for the dividend\r\n     * @param _maturity Time from which dividend can be paid\r\n     * @param _expiry Time until dividend can no longer be paid, and can be reclaimed by issuer\r\n     * @param _token Address of ERC20 token in which dividend is to be denominated\r\n     * @param _amount Amount of specified token for dividend\r\n     * @param _excluded List of addresses to exclude\r\n     * @param _name Name/Title for identification\r\n     */\r\n    function createDividendWithExclusions(\r\n        uint256 _maturity,\r\n        uint256 _expiry,\r\n        address _token,\r\n        uint256 _amount,\r\n        address[] _excluded,\r\n        bytes32 _name\r\n    )\r\n        public\r\n        withPerm(MANAGE)\r\n    {\r\n        uint256 checkpointId = ISecurityToken(securityToken).createCheckpoint();\r\n        _createDividendWithCheckpointAndExclusions(_maturity, _expiry, _token, _amount, checkpointId, _excluded, _name);\r\n    }\r\n\r\n    /**\r\n     * @notice Creates a dividend with a provided checkpoint\r\n     * @param _maturity Time from which dividend can be paid\r\n     * @param _expiry Time until dividend can no longer be paid, and can be reclaimed by issuer\r\n     * @param _token Address of ERC20 token in which dividend is to be denominated\r\n     * @param _amount Amount of specified token for dividend\r\n     * @param _checkpointId Checkpoint id from which to create dividends\r\n     * @param _excluded List of addresses to exclude\r\n     * @param _name Name/Title for identification\r\n     */\r\n    function createDividendWithCheckpointAndExclusions(\r\n        uint256 _maturity, \r\n        uint256 _expiry, \r\n        address _token, \r\n        uint256 _amount, \r\n        uint256 _checkpointId, \r\n        address[] _excluded,\r\n        bytes32 _name\r\n    ) \r\n        public\r\n        withPerm(MANAGE)      \r\n    {\r\n        _createDividendWithCheckpointAndExclusions(_maturity, _expiry, _token, _amount, _checkpointId, _excluded, _name);\r\n    }\r\n\r\n    /**\r\n     * @notice Creates a dividend with a provided checkpoint\r\n     * @param _maturity Time from which dividend can be paid\r\n     * @param _expiry Time until dividend can no longer be paid, and can be reclaimed by issuer\r\n     * @param _token Address of ERC20 token in which dividend is to be denominated\r\n     * @param _amount Amount of specified token for dividend\r\n     * @param _checkpointId Checkpoint id from which to create dividends\r\n     * @param _excluded List of addresses to exclude\r\n     * @param _name Name/Title for identification\r\n     */\r\n    function _createDividendWithCheckpointAndExclusions(\r\n        uint256 _maturity, \r\n        uint256 _expiry, \r\n        address _token, \r\n        uint256 _amount, \r\n        uint256 _checkpointId, \r\n        address[] _excluded,\r\n        bytes32 _name\r\n    ) \r\n        internal  \r\n    {\r\n        ISecurityToken securityTokenInstance = ISecurityToken(securityToken);\r\n        require(_excluded.length <= EXCLUDED_ADDRESS_LIMIT, \"Too many addresses excluded\");\r\n        require(_expiry > _maturity, \"Expiry before maturity\");\r\n        /*solium-disable-next-line security/no-block-members*/\r\n        require(_expiry > now, \"Expiry in past\");\r\n        require(_amount > 0, \"No dividend sent\");\r\n        require(_token != address(0), \"Invalid token\");\r\n        require(_checkpointId <= securityTokenInstance.currentCheckpointId(), \"Invalid checkpoint\");\r\n        require(IERC20(_token).transferFrom(msg.sender, address(this), _amount), \"insufficent allowance\");\r\n        require(_name[0] != 0);\r\n        uint256 dividendIndex = dividends.length;\r\n        uint256 currentSupply = securityTokenInstance.totalSupplyAt(_checkpointId);\r\n        uint256 excludedSupply = 0;\r\n        dividends.push(\r\n          Dividend(\r\n            _checkpointId,\r\n            now, /*solium-disable-line security/no-block-members*/\r\n            _maturity,\r\n            _expiry,\r\n            _amount,\r\n            0,\r\n            0,\r\n            false,\r\n            0,\r\n            0,\r\n            _name\r\n          )\r\n        );\r\n\r\n        for (uint256 j = 0; j < _excluded.length; j++) {\r\n            require (_excluded[j] != address(0), \"Invalid address\");\r\n            require(!dividends[dividendIndex].dividendExcluded[_excluded[j]], \"duped exclude address\");\r\n            excludedSupply = excludedSupply.add(securityTokenInstance.balanceOfAt(_excluded[j], _checkpointId));\r\n            dividends[dividendIndex].dividendExcluded[_excluded[j]] = true;\r\n        }\r\n\r\n        dividends[dividendIndex].totalSupply = currentSupply.sub(excludedSupply);\r\n        dividendTokens[dividendIndex] = _token;\r\n        _emitERC20DividendDepositedEvent(_checkpointId, _maturity, _expiry, _token, _amount, currentSupply, dividendIndex, _name);\r\n    }\r\n\r\n    /**\r\n     * @notice Emits the ERC20DividendDeposited event. \r\n     * Seperated into a different function as a workaround for stack too deep error\r\n     */\r\n    function _emitERC20DividendDepositedEvent(\r\n        uint256 _checkpointId,\r\n        uint256 _maturity,\r\n        uint256 _expiry,\r\n        address _token,\r\n        uint256 _amount,\r\n        uint256 currentSupply,\r\n        uint256 dividendIndex,\r\n        bytes32 _name\r\n    )\r\n        internal\r\n    {\r\n        /*solium-disable-next-line security/no-block-members*/\r\n        emit ERC20DividendDeposited(msg.sender, _checkpointId, now, _maturity, _expiry, _token, _amount, currentSupply, dividendIndex, _name);\r\n    }\r\n\r\n    /**\r\n     * @notice Internal function for paying dividends\r\n     * @param _payee Address of investor\r\n     * @param _dividend Storage with previously issued dividends\r\n     * @param _dividendIndex Dividend to pay\r\n     */\r\n    function _payDividend(address _payee, Dividend storage _dividend, uint256 _dividendIndex) internal {\r\n        (uint256 claim, uint256 withheld) = calculateDividend(_dividendIndex, _payee);\r\n        _dividend.claimed[_payee] = true;\r\n        _dividend.claimedAmount = claim.add(_dividend.claimedAmount);\r\n        uint256 claimAfterWithheld = claim.sub(withheld);\r\n        if (claimAfterWithheld > 0) {\r\n            require(IERC20(dividendTokens[_dividendIndex]).transfer(_payee, claimAfterWithheld), \"transfer failed\");\r\n            _dividend.dividendWithheld = _dividend.dividendWithheld.add(withheld);\r\n            investorWithheld[_payee] = investorWithheld[_payee].add(withheld);\r\n            emit ERC20DividendClaimed(_payee, _dividendIndex, dividendTokens[_dividendIndex], claim, withheld);\r\n        }\r\n    }\r\n\r\n    /**\r\n     * @notice Issuer can reclaim remaining unclaimed dividend amounts, for expired dividends\r\n     * @param _dividendIndex Dividend to reclaim\r\n     */\r\n    function reclaimDividend(uint256 _dividendIndex) external withPerm(MANAGE) {\r\n        require(_dividendIndex < dividends.length, \"Invalid dividend\");\r\n        /*solium-disable-next-line security/no-block-members*/\r\n        require(now >= dividends[_dividendIndex].expiry, \"Dividend expiry in future\");\r\n        require(!dividends[_dividendIndex].reclaimed, \"already claimed\");\r\n        dividends[_dividendIndex].reclaimed = true;\r\n        Dividend storage dividend = dividends[_dividendIndex];\r\n        uint256 remainingAmount = dividend.amount.sub(dividend.claimedAmount);\r\n        address owner = IOwnable(securityToken).owner();\r\n        require(IERC20(dividendTokens[_dividendIndex]).transfer(owner, remainingAmount), \"transfer failed\");\r\n        emit ERC20DividendReclaimed(owner, _dividendIndex, dividendTokens[_dividendIndex], remainingAmount);\r\n    }\r\n\r\n    /**\r\n     * @notice Allows issuer to withdraw withheld tax\r\n     * @param _dividendIndex Dividend to withdraw from\r\n     */\r\n    function withdrawWithholding(uint256 _dividendIndex) external withPerm(MANAGE) {\r\n        require(_dividendIndex < dividends.length, \"Invalid dividend\");\r\n        Dividend storage dividend = dividends[_dividendIndex];\r\n        uint256 remainingWithheld = dividend.dividendWithheld.sub(dividend.dividendWithheldReclaimed);\r\n        dividend.dividendWithheldReclaimed = dividend.dividendWithheld;\r\n        address owner = IOwnable(securityToken).owner();\r\n        require(IERC20(dividendTokens[_dividendIndex]).transfer(owner, remainingWithheld), \"transfer failed\");\r\n        emit ERC20DividendWithholdingWithdrawn(owner, _dividendIndex, dividendTokens[_dividendIndex], remainingWithheld);\r\n    }\r\n\r\n}\r\n",
  "sourcePath": "/Users/jere/Code/polymath-apps/packages/polymath-shared/scripts/generateLocalBlockchain/contracts/modules/Checkpoint/ERC20DividendCheckpoint.sol",
  "compiler": {
    "name": "solc",
    "version": "0.4.24+commit.e67f0147.Emscripten.clang"
  },
  "schemaVersion": "2.0.1",
  "updatedAt": "2018-10-26T23:02:44.602Z"
}