{
  "contractName": "ERC20DividendCheckpoint",
  "abi": [
    {
      "constant": false,
      "inputs": [
        {
          "name": "_investors",
          "type": "address[]"
        },
        {
          "name": "_withholding",
          "type": "uint256"
        }
      ],
      "name": "setWithholdingFixed",
      "outputs": [],
      "payable": false,
      "stateMutability": "nonpayable",
      "type": "function"
    },
    {
      "constant": true,
      "inputs": [],
      "name": "EXCLUDED_ADDRESS_LIMIT",
      "outputs": [
        {
          "name": "",
          "type": "uint256"
        }
      ],
      "payable": false,
      "stateMutability": "view",
      "type": "function"
    },
    {
      "constant": true,
      "inputs": [],
      "name": "getInitFunction",
      "outputs": [
        {
          "name": "",
          "type": "bytes4"
        }
      ],
      "payable": false,
      "stateMutability": "pure",
      "type": "function"
    },
    {
      "constant": false,
      "inputs": [
        {
          "name": "_dividendIndex",
          "type": "uint256"
        }
      ],
      "name": "pullDividendPayment",
      "outputs": [],
      "payable": false,
      "stateMutability": "nonpayable",
      "type": "function"
    },
    {
      "constant": true,
      "inputs": [
        {
          "name": "",
          "type": "address"
        }
      ],
      "name": "investorWithheld",
      "outputs": [
        {
          "name": "",
          "type": "uint256"
        }
      ],
      "payable": false,
      "stateMutability": "view",
      "type": "function"
    },
    {
      "constant": false,
      "inputs": [
        {
          "name": "_dividendIndex",
          "type": "uint256"
        },
        {
          "name": "_payees",
          "type": "address[]"
        }
      ],
      "name": "pushDividendPaymentToAddresses",
      "outputs": [],
      "payable": false,
      "stateMutability": "nonpayable",
      "type": "function"
    },
    {
      "constant": true,
      "inputs": [
        {
          "name": "_dividendIndex",
          "type": "uint256"
        },
        {
          "name": "_payee",
          "type": "address"
        }
      ],
      "name": "calculateDividend",
      "outputs": [
        {
          "name": "",
          "type": "uint256"
        },
        {
          "name": "",
          "type": "uint256"
        }
      ],
      "payable": false,
      "stateMutability": "view",
      "type": "function"
    },
    {
      "constant": true,
      "inputs": [
        {
          "name": "_checkpointId",
          "type": "uint256"
        }
      ],
      "name": "getDividendIndex",
      "outputs": [
        {
          "name": "",
          "type": "uint256[]"
        }
      ],
      "payable": false,
      "stateMutability": "view",
      "type": "function"
    },
    {
      "constant": false,
      "inputs": [
        {
          "name": "_amount",
          "type": "uint256"
        }
      ],
      "name": "takeFee",
      "outputs": [
        {
          "name": "",
          "type": "bool"
        }
      ],
      "payable": false,
      "stateMutability": "nonpayable",
      "type": "function"
    },
    {
      "constant": true,
      "inputs": [],
      "name": "polyToken",
      "outputs": [
        {
          "name": "",
          "type": "address"
        }
      ],
      "payable": false,
      "stateMutability": "view",
      "type": "function"
    },
    {
      "constant": true,
      "inputs": [
        {
          "name": "",
          "type": "address"
        }
      ],
      "name": "withholdingTax",
      "outputs": [
        {
          "name": "",
          "type": "uint256"
        }
      ],
      "payable": false,
      "stateMutability": "view",
      "type": "function"
    },
    {
      "constant": true,
      "inputs": [],
      "name": "DISTRIBUTE",
      "outputs": [
        {
          "name": "",
          "type": "bytes32"
        }
      ],
      "payable": false,
      "stateMutability": "view",
      "type": "function"
    },
    {
      "constant": true,
      "inputs": [
        {
          "name": "",
          "type": "uint256"
        }
      ],
      "name": "dividends",
      "outputs": [
        {
          "name": "checkpointId",
          "type": "uint256"
        },
        {
          "name": "created",
          "type": "uint256"
        },
        {
          "name": "maturity",
          "type": "uint256"
        },
        {
          "name": "expiry",
          "type": "uint256"
        },
        {
          "name": "amount",
          "type": "uint256"
        },
        {
          "name": "claimedAmount",
          "type": "uint256"
        },
        {
          "name": "totalSupply",
          "type": "uint256"
        },
        {
          "name": "reclaimed",
          "type": "bool"
        },
        {
          "name": "dividendWithheld",
          "type": "uint256"
        },
        {
          "name": "dividendWithheldReclaimed",
          "type": "uint256"
        },
        {
          "name": "name",
          "type": "bytes32"
        }
      ],
      "payable": false,
      "stateMutability": "view",
      "type": "function"
    },
    {
      "constant": false,
      "inputs": [
        {
          "name": "_investors",
          "type": "address[]"
        },
        {
          "name": "_withholding",
          "type": "uint256[]"
        }
      ],
      "name": "setWithholding",
      "outputs": [],
      "payable": false,
      "stateMutability": "nonpayable",
      "type": "function"
    },
    {
      "constant": true,
      "inputs": [
        {
          "name": "",
          "type": "uint256"
        }
      ],
      "name": "dividendTokens",
      "outputs": [
        {
          "name": "",
          "type": "address"
        }
      ],
      "payable": false,
      "stateMutability": "view",
      "type": "function"
    },
    {
      "constant": true,
      "inputs": [],
      "name": "securityToken",
      "outputs": [
        {
          "name": "",
          "type": "address"
        }
      ],
      "payable": false,
      "stateMutability": "view",
      "type": "function"
    },
    {
      "constant": true,
      "inputs": [
        {
          "name": "",
          "type": "uint256"
        }
      ],
      "name": "excluded",
      "outputs": [
        {
          "name": "",
          "type": "address"
        }
      ],
      "payable": false,
      "stateMutability": "view",
      "type": "function"
    },
    {
      "constant": true,
      "inputs": [],
      "name": "getPermissions",
      "outputs": [
        {
          "name": "",
          "type": "bytes32[]"
        }
      ],
      "payable": false,
      "stateMutability": "view",
      "type": "function"
    },
    {
      "constant": true,
      "inputs": [],
      "name": "factory",
      "outputs": [
        {
          "name": "",
          "type": "address"
        }
      ],
      "payable": false,
      "stateMutability": "view",
      "type": "function"
    },
    {
      "constant": false,
      "inputs": [
        {
          "name": "_excluded",
          "type": "address[]"
        }
      ],
      "name": "setDefaultExcluded",
      "outputs": [],
      "payable": false,
      "stateMutability": "nonpayable",
      "type": "function"
    },
    {
      "constant": true,
      "inputs": [],
      "name": "FEE_ADMIN",
      "outputs": [
        {
          "name": "",
          "type": "bytes32"
        }
      ],
      "payable": false,
      "stateMutability": "view",
      "type": "function"
    },
    {
      "constant": false,
      "inputs": [
        {
          "name": "_dividendIndex",
          "type": "uint256"
        },
        {
          "name": "_start",
          "type": "uint256"
        },
        {
          "name": "_iterations",
          "type": "uint256"
        }
      ],
      "name": "pushDividendPayment",
      "outputs": [],
      "payable": false,
      "stateMutability": "nonpayable",
      "type": "function"
    },
    {
      "constant": true,
      "inputs": [],
      "name": "getDefaultExcluded",
      "outputs": [
        {
          "name": "",
          "type": "address[]"
        }
      ],
      "payable": false,
      "stateMutability": "view",
      "type": "function"
    },
    {
      "inputs": [
        {
          "name": "_securityToken",
          "type": "address"
        },
        {
          "name": "_polyAddress",
          "type": "address"
        }
      ],
      "payable": false,
      "stateMutability": "nonpayable",
      "type": "constructor"
    },
    {
      "anonymous": false,
      "inputs": [
        {
          "indexed": true,
          "name": "_depositor",
          "type": "address"
        },
        {
          "indexed": false,
          "name": "_checkpointId",
          "type": "uint256"
        },
        {
          "indexed": false,
          "name": "_created",
          "type": "uint256"
        },
        {
          "indexed": false,
          "name": "_maturity",
          "type": "uint256"
        },
        {
          "indexed": false,
          "name": "_expiry",
          "type": "uint256"
        },
        {
          "indexed": true,
          "name": "_token",
          "type": "address"
        },
        {
          "indexed": false,
          "name": "_amount",
          "type": "uint256"
        },
        {
          "indexed": false,
          "name": "_totalSupply",
          "type": "uint256"
        },
        {
          "indexed": false,
          "name": "_dividendIndex",
          "type": "uint256"
        },
        {
          "indexed": true,
          "name": "_name",
          "type": "bytes32"
        }
      ],
      "name": "ERC20DividendDeposited",
      "type": "event"
    },
    {
      "anonymous": false,
      "inputs": [
        {
          "indexed": true,
          "name": "_payee",
          "type": "address"
        },
        {
          "indexed": false,
          "name": "_dividendIndex",
          "type": "uint256"
        },
        {
          "indexed": true,
          "name": "_token",
          "type": "address"
        },
        {
          "indexed": false,
          "name": "_amount",
          "type": "uint256"
        },
        {
          "indexed": false,
          "name": "_withheld",
          "type": "uint256"
        }
      ],
      "name": "ERC20DividendClaimed",
      "type": "event"
    },
    {
      "anonymous": false,
      "inputs": [
        {
          "indexed": true,
          "name": "_claimer",
          "type": "address"
        },
        {
          "indexed": false,
          "name": "_dividendIndex",
          "type": "uint256"
        },
        {
          "indexed": true,
          "name": "_token",
          "type": "address"
        },
        {
          "indexed": false,
          "name": "_claimedAmount",
          "type": "uint256"
        }
      ],
      "name": "ERC20DividendReclaimed",
      "type": "event"
    },
    {
      "anonymous": false,
      "inputs": [
        {
          "indexed": true,
          "name": "_claimer",
          "type": "address"
        },
        {
          "indexed": false,
          "name": "_dividendIndex",
          "type": "uint256"
        },
        {
          "indexed": true,
          "name": "_token",
          "type": "address"
        },
        {
          "indexed": false,
          "name": "_withheldAmount",
          "type": "uint256"
        }
      ],
      "name": "ERC20DividendWithholdingWithdrawn",
      "type": "event"
    },
    {
      "anonymous": false,
      "inputs": [
        {
          "indexed": false,
          "name": "_excluded",
          "type": "address[]"
        },
        {
          "indexed": false,
          "name": "_timestamp",
          "type": "uint256"
        }
      ],
      "name": "SetDefaultExcludedAddresses",
      "type": "event"
    },
    {
      "anonymous": false,
      "inputs": [
        {
          "indexed": false,
          "name": "_investors",
          "type": "address[]"
        },
        {
          "indexed": false,
          "name": "_withholding",
          "type": "uint256[]"
        },
        {
          "indexed": false,
          "name": "_timestamp",
          "type": "uint256"
        }
      ],
      "name": "SetWithholding",
      "type": "event"
    },
    {
      "anonymous": false,
      "inputs": [
        {
          "indexed": false,
          "name": "_investors",
          "type": "address[]"
        },
        {
          "indexed": false,
          "name": "_withholding",
          "type": "uint256"
        },
        {
          "indexed": false,
          "name": "_timestamp",
          "type": "uint256"
        }
      ],
      "name": "SetWithholdingFixed",
      "type": "event"
    },
    {
      "constant": false,
      "inputs": [
        {
          "name": "_maturity",
          "type": "uint256"
        },
        {
          "name": "_expiry",
          "type": "uint256"
        },
        {
          "name": "_token",
          "type": "address"
        },
        {
          "name": "_amount",
          "type": "uint256"
        },
        {
          "name": "_name",
          "type": "bytes32"
        }
      ],
      "name": "createDividend",
      "outputs": [],
      "payable": false,
      "stateMutability": "nonpayable",
      "type": "function"
    },
    {
      "constant": false,
      "inputs": [
        {
          "name": "_maturity",
          "type": "uint256"
        },
        {
          "name": "_expiry",
          "type": "uint256"
        },
        {
          "name": "_token",
          "type": "address"
        },
        {
          "name": "_amount",
          "type": "uint256"
        },
        {
          "name": "_checkpointId",
          "type": "uint256"
        },
        {
          "name": "_name",
          "type": "bytes32"
        }
      ],
      "name": "createDividendWithCheckpoint",
      "outputs": [],
      "payable": false,
      "stateMutability": "nonpayable",
      "type": "function"
    },
    {
      "constant": false,
      "inputs": [
        {
          "name": "_maturity",
          "type": "uint256"
        },
        {
          "name": "_expiry",
          "type": "uint256"
        },
        {
          "name": "_token",
          "type": "address"
        },
        {
          "name": "_amount",
          "type": "uint256"
        },
        {
          "name": "_excluded",
          "type": "address[]"
        },
        {
          "name": "_name",
          "type": "bytes32"
        }
      ],
      "name": "createDividendWithExclusions",
      "outputs": [],
      "payable": false,
      "stateMutability": "nonpayable",
      "type": "function"
    },
    {
      "constant": false,
      "inputs": [
        {
          "name": "_maturity",
          "type": "uint256"
        },
        {
          "name": "_expiry",
          "type": "uint256"
        },
        {
          "name": "_token",
          "type": "address"
        },
        {
          "name": "_amount",
          "type": "uint256"
        },
        {
          "name": "_checkpointId",
          "type": "uint256"
        },
        {
          "name": "_excluded",
          "type": "address[]"
        },
        {
          "name": "_name",
          "type": "bytes32"
        }
      ],
      "name": "createDividendWithCheckpointAndExclusions",
      "outputs": [],
      "payable": false,
      "stateMutability": "nonpayable",
      "type": "function"
    },
    {
      "constant": false,
      "inputs": [
        {
          "name": "_dividendIndex",
          "type": "uint256"
        }
      ],
      "name": "reclaimDividend",
      "outputs": [],
      "payable": false,
      "stateMutability": "nonpayable",
      "type": "function"
    },
    {
      "constant": false,
      "inputs": [
        {
          "name": "_dividendIndex",
          "type": "uint256"
        }
      ],
      "name": "withdrawWithholding",
      "outputs": [],
      "payable": false,
      "stateMutability": "nonpayable",
      "type": "function"
    }
  ],
  "bytecode": "0x6080604052603260035534801561001557600080fd5b50604051604080613a4083398101604052805160209091015160018054600160a060020a03938416600160a060020a03199182161790915560008054821633179055600280549390921692169190911790556139ca806100766000396000f30060806040526004361061015b5763ffffffff60e060020a6000350416630945812e81146101605780630a29f591146101b95780631613ec9d146101e057806322018ce71461022a57806330008b481461029c578063333cffe5146102b45780633f2e3165146102cc57806343647a62146102ed5780634d58e413146103615780635bea0e1c146103bb5780635daff64e146103f85780635f7619a4146104605780636e742c771461048c5780636faa22a5146104bc5780637a3e23fd146104ed57806380fef5af1461050e578063814b3fe0146105235780638596e6e61461059357806395ec5bbe14610621578063aa8b76ea14610639578063b7e1fd9b14610651578063b84dfbd21461067e578063bee2ddc214610693578063c3a07df6146106ab578063c45a0155146106c0578063cc1556dc146106d5578063d70afa961461072a578063e1726faa1461073f578063f1e9d1001461075d575b600080fd5b34801561016c57600080fd5b50604080516020600480358082013583810280860185019096528085526101b79536959394602494938501929182918501908490808284375094975050933594506107729350505050565b005b3480156101c557600080fd5b506101ce610969565b60408051918252519081900360200190f35b3480156101ec57600080fd5b506101f561096f565b604080517fffffffff000000000000000000000000000000000000000000000000000000009092168252519081900360200190f35b34801561023657600080fd5b5060408051602060046084358181013583810280860185019096528085526101b7958335956024803596604435600160a060020a031696606435963696919560a49594909101928291908501908490808284375094975050933594506109759350505050565b3480156102a857600080fd5b506101b7600435610ad0565b3480156102c057600080fd5b506101b7600435610e1d565b3480156102d857600080fd5b506101ce600160a060020a03600435166110cc565b3480156102f957600080fd5b506040805160a435600481810135602081810285810182019096528185526101b7958335956024803596600160a060020a03604435169660643596608435963696929560c4959094019282918501908490808284375094975050933594506110de9350505050565b34801561036d57600080fd5b506040805160206004602480358281013584810280870186019097528086526101b7968435963696604495919490910192918291850190849080828437509497506111b99650505050505050565b3480156103c757600080fd5b506103df600435600160a060020a0360243516611650565b6040805192835260208301919091528051918290030190f35b34801561040457600080fd5b50610410600435611833565b60408051602080825283518183015283519192839290830191858101910280838360005b8381101561044c578181015183820152602001610434565b505050509050019250505060405180910390f35b34801561046c57600080fd5b50610478600435611918565b604080519115158252519081900360200190f35b34801561049857600080fd5b506101b7600435602435600160a060020a036044351660643560843560a435611c46565b3480156104c857600080fd5b506104d1611d83565b60408051600160a060020a039092168252519081900360200190f35b3480156104f957600080fd5b506101ce600160a060020a0360043516611d92565b34801561051a57600080fd5b506101ce611da4565b34801561052f57600080fd5b5061053b600435611db6565b604080519b8c5260208c019a909a528a8a019890985260608a0196909652608089019490945260a088019290925260c0870152151560e086015261010085015261012084015261014083015251908190036101600190f35b34801561059f57600080fd5b50604080516020600480358082013583810280860185019096528085526101b795369593946024949385019291829185019084908082843750506040805187358901803560208181028481018201909552818452989b9a998901989297509082019550935083925085019084908082843750949750611e239650505050505050565b34801561062d57600080fd5b506104d16004356120da565b34801561064557600080fd5b506101b76004356120f5565b34801561065d57600080fd5b506101b7600435602435600160a060020a03604435166064356084356124c0565b34801561068a57600080fd5b506104d16125fb565b34801561069f57600080fd5b506104d160043561260a565b3480156106b757600080fd5b50610410612632565b3480156106cc57600080fd5b506104d1612687565b3480156106e157600080fd5b50604080516020600480358082013583810280860185019096528085526101b7953695939460249493850192918291850190849080828437509497506126969650505050505050565b34801561073657600080fd5b506101ce61285c565b34801561074b57600080fd5b506101b7600435602435604435612880565b34801561076957600080fd5b50610410612df3565b6001546040805160e060020a638da5cb5b0281529051600092600160a060020a031691638da5cb5b91600480830192602092919082900301818787803b1580156107bb57600080fd5b505af11580156107cf573d6000803e3d6000fd5b505050506040513d60208110156107e557600080fd5b5051600160a060020a03163314610834576040805160e560020a62461bcd028152602060048201526013602482015260008051602061397f833981519152604482015290519081900360640190fd5b670de0b6b3a7640000821115610894576040805160e560020a62461bcd02815260206004820152601960248201527f496e636f72726563742077697468686f6c64696e672074617800000000000000604482015290519081900360640190fd5b7f3587f82979516528f7ce51509410f4d49aaed2fe4c2661c07a02cc17ea1410278383426040518080602001848152602001838152602001828103825285818151815260200191508051906020019060200280838360005b838110156109045781810151838201526020016108ec565b5050505090500194505050505060405180910390a15060005b8251811015610964578160066000858481518110151561093957fe5b6020908102909101810151600160a060020a031682528101919091526040016000205560010161091d565b505050565b60035481565b60005b90565b6001546040805160e060020a638da5cb5b0281529051600092600160a060020a031691638da5cb5b91600480830192602092919082900301818787803b1580156109be57600080fd5b505af11580156109d2573d6000803e3d6000fd5b505050506040513d60208110156109e857600080fd5b5051600160a060020a03163314610a37576040805160e560020a62461bcd028152602060048201526013602482015260008051602061397f833981519152604482015290519081900360640190fd5b600160009054906101000a9004600160a060020a0316600160a060020a031663ff0b9c906040518163ffffffff1660e060020a028152600401602060405180830381600087803b158015610a8a57600080fd5b505af1158015610a9e573d6000803e3d6000fd5b505050506040513d6020811015610ab457600080fd5b50519050610ac787878787858888612e55565b50505050505050565b60045460009082908110610b1c576040805160e560020a62461bcd028152602060048201526018602482015260008051602061395f833981519152604482015290519081900360640190fd5b6004805482908110610b2a57fe5b600091825260209091206007600d90920201015460ff1615610bbc576040805160e560020a62461bcd02815260206004820152602560248201527f4469766964656e6420686173206265656e207265636c61696d6564206279206960448201527f7373756572000000000000000000000000000000000000000000000000000000606482015290519081900360840190fd5b6004805482908110610bca57fe5b90600052602060002090600d0201600201544210151515610c5b576040805160e560020a62461bcd02815260206004820152602260248201527f4469766964656e64206d6174757269747920697320696e20746865206675747560448201527f7265000000000000000000000000000000000000000000000000000000000000606482015290519081900360840190fd5b6004805482908110610c6957fe5b90600052602060002090600d02016003015442101515610cd3576040805160e560020a62461bcd02815260206004820152601e60248201527f4469766964656e642065787069727920697320696e2074686520706173740000604482015290519081900360640190fd5b6004805484908110610ce157fe5b60009182526020808320338452600a600d90930201918201905260409091205490925060ff1615610d82576040805160e560020a62461bcd02815260206004820152602660248201527f4469766964656e6420616c726561647920636c61696d6564206279206d73672e60448201527f73656e6465720000000000000000000000000000000000000000000000000000606482015290519081900360840190fd5b336000908152600b8301602052604090205460ff1615610e12576040805160e560020a62461bcd02815260206004820152602160248201527f6d73672e73656e646572206578636c756465642066726f6d204469766964656e60448201527f6400000000000000000000000000000000000000000000000000000000000000606482015290519081900360840190fd5b61096433838561358d565b600080600160009054906101000a9004600160a060020a0316600160a060020a0316638da5cb5b6040518163ffffffff1660e060020a028152600401602060405180830381600087803b158015610e7357600080fd5b505af1158015610e87573d6000803e3d6000fd5b505050506040513d6020811015610e9d57600080fd5b5051600160a060020a03163314610eec576040805160e560020a62461bcd028152602060048201526013602482015260008051602061397f833981519152604482015290519081900360640190fd5b6004548310610f33576040805160e560020a62461bcd028152602060048201526018602482015260008051602061395f833981519152604482015290519081900360640190fd5b6004805484908110610f4157fe5b90600052602060002090600d02019150610f6c826009015483600801546137b690919063ffffffff16565b60088084015460098501556000858152602091825260408082205481517fa9059cbb000000000000000000000000000000000000000000000000000000008152336004820152602481018690529151949550600160a060020a03169363a9059cbb9360448084019491938390030190829087803b158015610fec57600080fd5b505af1158015611000573d6000803e3d6000fd5b505050506040513d602081101561101657600080fd5b5051151561106e576040805160e560020a62461bcd02815260206004820152601960248201527f556e61626c6520746f207472616e7366657220746f6b656e7300000000000000604482015290519081900360640190fd5b6000838152600860209081526040918290205482518681529182018490528251600160a060020a039091169233927f31342482aee689b025c9cbe348134fefee05df6d6ac65a91dd6b0abdf454539f929081900390910190a3505050565b60076020526000908152604090205481565b600160009054906101000a9004600160a060020a0316600160a060020a0316638da5cb5b6040518163ffffffff1660e060020a028152600401602060405180830381600087803b15801561113157600080fd5b505af1158015611145573d6000803e3d6000fd5b505050506040513d602081101561115b57600080fd5b5051600160a060020a031633146111aa576040805160e560020a62461bcd028152602060048201526013602482015260008051602061397f833981519152604482015290519081900360640190fd5b610ac787878787878787612e55565b60008060008051602061393f833981519152600080600160009054906101000a9004600160a060020a0316600160a060020a0316638da5cb5b6040518163ffffffff1660e060020a028152600401602060405180830381600087803b15801561122157600080fd5b505af1158015611235573d6000803e3d6000fd5b505050506040513d602081101561124b57600080fd5b505160005433600160a060020a03928316811494509116149050818061126e5750805b806113145750600154604080517f8658b8b9000000000000000000000000000000000000000000000000000000008152336004820152306024820152604481018690529051600160a060020a0390921691638658b8b9916064808201926020929091908290030181600087803b1580156112e757600080fd5b505af11580156112fb573d6000803e3d6000fd5b505050506040513d602081101561131157600080fd5b50515b151561136a576040805160e560020a62461bcd02815260206004820152601760248201527f5065726d697373696f6e20636865636b206661696c6564000000000000000000604482015290519081900360640190fd5b600454879081106113b3576040805160e560020a62461bcd028152602060048201526018602482015260008051602061395f833981519152604482015290519081900360640190fd5b60048054829081106113c157fe5b600091825260209091206007600d90920201015460ff1615611453576040805160e560020a62461bcd02815260206004820152602560248201527f4469766964656e6420686173206265656e207265636c61696d6564206279206960448201527f7373756572000000000000000000000000000000000000000000000000000000606482015290519081900360840190fd5b600480548290811061146157fe5b90600052602060002090600d02016002015442101515156114f2576040805160e560020a62461bcd02815260206004820152602260248201527f4469766964656e64206d6174757269747920697320696e20746865206675747560448201527f7265000000000000000000000000000000000000000000000000000000000000606482015290519081900360840190fd5b600480548290811061150057fe5b90600052602060002090600d0201600301544210151561156a576040805160e560020a62461bcd02815260206004820152601e60248201527f4469766964656e642065787069727920697320696e2074686520706173740000604482015290519081900360640190fd5b600480548990811061157857fe5b90600052602060002090600d02019550600094505b86518510156116465785600a01600088878151811015156115aa57fe5b6020908102909101810151600160a060020a031682528101919091526040016000205460ff16158015611614575085600b01600088878151811015156115ec57fe5b6020908102909101810151600160a060020a031682528101919091526040016000205460ff16155b1561163b5761163b878681518110151561162a57fe5b90602001906020020151878a61358d565b60019094019361158d565b5050505050505050565b600080600080600080600480549050881015156116a5576040805160e560020a62461bcd028152602060048201526018602482015260008051602061395f833981519152604482015290519081900360640190fd5b60048054899081106116b357fe5b60009182526020808320600160a060020a038b168452600a600d90930201918201905260409091205490945060ff16806117075750600160a060020a0387166000908152600b8501602052604090205460ff165b156117185760009550859450611828565b6001548454604080517f4ee2cd7e000000000000000000000000000000000000000000000000000000008152600160a060020a038b81166004830152602482019390935290519190921691634ee2cd7e9160448083019260209291908290030181600087803b15801561178a57600080fd5b505af115801561179e573d6000803e3d6000fd5b505050506040513d60208110156117b457600080fd5b5051600685015460048601549194506117e4916117d890869063ffffffff6137cd16565b9063ffffffff6137f616565b600160a060020a03881660009081526006602052604090205490925061181f90670de0b6b3a7640000906117d890859063ffffffff6137cd16565b90508181955095505b505050509250929050565b606060008082815b60045483101561187f578560048481548110151561185557fe5b90600052602060002090600d0201600001541415611874576001909301925b60019092019161183b565b836040519080825280602002602001820160405280156118a9578160200160208202803883390190505b50915060009350600090505b60045481101561190f57856004828154811015156118cf57fe5b90600052602060002090600d0201600001541415611907578082858151811015156118f657fe5b602090810290910101526001909301925b6001016118b5565b50949350505050565b60007f4645455f41444d494e0000000000000000000000000000000000000000000000600080600160009054906101000a9004600160a060020a0316600160a060020a0316638da5cb5b6040518163ffffffff1660e060020a028152600401602060405180830381600087803b15801561199157600080fd5b505af11580156119a5573d6000803e3d6000fd5b505050506040513d60208110156119bb57600080fd5b505160005433600160a060020a0392831681149450911614905081806119de5750805b80611a845750600154604080517f8658b8b9000000000000000000000000000000000000000000000000000000008152336004820152306024820152604481018690529051600160a060020a0390921691638658b8b9916064808201926020929091908290030181600087803b158015611a5757600080fd5b505af1158015611a6b573d6000803e3d6000fd5b505050506040513d6020811015611a8157600080fd5b50515b1515611ada576040805160e560020a62461bcd02815260206004820152601760248201527f5065726d697373696f6e20636865636b206661696c6564000000000000000000604482015290519081900360640190fd5b600254600154600080546040805160e060020a638da5cb5b0281529051600160a060020a03958616956323b872dd95811694931692638da5cb5b92600480820193602093909283900390910190829087803b158015611b3857600080fd5b505af1158015611b4c573d6000803e3d6000fd5b505050506040513d6020811015611b6257600080fd5b50516040805160e060020a63ffffffff8616028152600160a060020a039384166004820152929091166024830152604482018990525160648083019260209291908290030181600087803b158015611bb957600080fd5b505af1158015611bcd573d6000803e3d6000fd5b505050506040513d6020811015611be357600080fd5b50511515611c3b576040805160e560020a62461bcd02815260206004820152601260248201527f556e61626c6520746f2074616b65206665650000000000000000000000000000604482015290519081900360640190fd5b506001949350505050565b600160009054906101000a9004600160a060020a0316600160a060020a0316638da5cb5b6040518163ffffffff1660e060020a028152600401602060405180830381600087803b158015611c9957600080fd5b505af1158015611cad573d6000803e3d6000fd5b505050506040513d6020811015611cc357600080fd5b5051600160a060020a03163314611d12576040805160e560020a62461bcd028152602060048201526013602482015260008051602061397f833981519152604482015290519081900360640190fd5b611d7b86868686866005805480602002602001604051908101604052809291908181526020018280548015611d7057602002820191906000526020600020905b8154600160a060020a03168152600190910190602001808311611d52575b505050505087612e55565b505050505050565b600254600160a060020a031681565b60066020526000908152604090205481565b60008051602061393f83398151915281565b6004805482908110611dc457fe5b60009182526020909120600d9091020180546001820154600283015460038401546004850154600586015460068701546007880154600889015460098a0154600c909a0154989a5096989597949693959294919360ff9091169290918b565b6001546040805160e060020a638da5cb5b0281529051600092600160a060020a031691638da5cb5b91600480830192602092919082900301818787803b158015611e6c57600080fd5b505af1158015611e80573d6000803e3d6000fd5b505050506040513d6020811015611e9657600080fd5b5051600160a060020a03163314611ee5576040805160e560020a62461bcd028152602060048201526013602482015260008051602061397f833981519152604482015290519081900360640190fd5b8151835114611f3e576040805160e560020a62461bcd02815260206004820152601860248201527f4d69736d61746368656420696e707574206c656e677468730000000000000000604482015290519081900360640190fd5b7f8e6f19b496a634d6fb5faea10ece2675995b6f7a0946a7509885eb76889e1213838342604051808060200180602001848152602001838103835286818151815260200191508051906020019060200280838360005b83811015611fac578181015183820152602001611f94565b50505050905001838103825285818151815260200191508051906020019060200280838360005b83811015611feb578181015183820152602001611fd3565b505050509050019550505050505060405180910390a15060005b825181101561096457670de0b6b3a7640000828281518110151561202557fe5b602090810290910101511115612085576040805160e560020a62461bcd02815260206004820152601960248201527f496e636f72726563742077697468686f6c64696e672074617800000000000000604482015290519081900360640190fd5b818181518110151561209357fe5b906020019060200201516006600085848151811015156120af57fe5b6020908102909101810151600160a060020a0316825281019190915260400160002055600101612005565b600860205260009081526040902054600160a060020a031681565b600080600160009054906101000a9004600160a060020a0316600160a060020a0316638da5cb5b6040518163ffffffff1660e060020a028152600401602060405180830381600087803b15801561214b57600080fd5b505af115801561215f573d6000803e3d6000fd5b505050506040513d602081101561217557600080fd5b5051600160a060020a031633146121c4576040805160e560020a62461bcd028152602060048201526013602482015260008051602061397f833981519152604482015290519081900360640190fd5b600454831061220b576040805160e560020a62461bcd028152602060048201526018602482015260008051602061395f833981519152604482015290519081900360640190fd5b600480548490811061221957fe5b90600052602060002090600d0201600301544210151515612284576040805160e560020a62461bcd02815260206004820181905260248201527f4469766964656e642065787069727920697320696e2074686520667574757265604482015290519081900360640190fd5b600480548490811061229257fe5b600091825260209091206007600d90920201015460ff16156122fe576040805160e560020a62461bcd02815260206004820152601860248201527f4469766964656e6420616c726561647920636c61696d65640000000000000000604482015290519081900360640190fd5b600160048481548110151561230f57fe5b60009182526020909120600d90910201600701805460ff1916911515919091179055600480548490811061233f57fe5b90600052602060002090600d0201915061236a826005015483600401546137b690919063ffffffff16565b60008481526008602090815260408083205481517fa9059cbb000000000000000000000000000000000000000000000000000000008152336004820152602481018690529151949550600160a060020a03169363a9059cbb93604480840194938390030190829087803b1580156123e057600080fd5b505af11580156123f4573d6000803e3d6000fd5b505050506040513d602081101561240a57600080fd5b50511515612462576040805160e560020a62461bcd02815260206004820152601960248201527f556e61626c6520746f207472616e7366657220746f6b656e7300000000000000604482015290519081900360640190fd5b6000838152600860209081526040918290205482518681529182018490528251600160a060020a039091169233927f9766d0325a2a3c017f6cf974bfd1bd0b26e705570ce8250fe5e078a3e832d52d929081900390910190a3505050565b600160009054906101000a9004600160a060020a0316600160a060020a0316638da5cb5b6040518163ffffffff1660e060020a028152600401602060405180830381600087803b15801561251357600080fd5b505af1158015612527573d6000803e3d6000fd5b505050506040513d602081101561253d57600080fd5b5051600160a060020a0316331461258c576040805160e560020a62461bcd028152602060048201526013602482015260008051602061397f833981519152604482015290519081900360640190fd5b6125f48585858560058054806020026020016040519081016040528092919081815260200182805480156125e957602002820191906000526020600020905b8154600160a060020a031681526001909101906020018083116125cb575b505050505086610975565b5050505050565b600154600160a060020a031681565b600580548290811061261857fe5b600091825260209091200154600160a060020a0316905081565b6040805160018082528183019092526060918291906020808301908038833901905050905060008051602061393f83398151915281600081518110151561267557fe5b602090810290910101529050805b5090565b600054600160a060020a031681565b600160009054906101000a9004600160a060020a0316600160a060020a0316638da5cb5b6040518163ffffffff1660e060020a028152600401602060405180830381600087803b1580156126e957600080fd5b505af11580156126fd573d6000803e3d6000fd5b505050506040513d602081101561271357600080fd5b5051600160a060020a03163314612762576040805160e560020a62461bcd028152602060048201526013602482015260008051602061397f833981519152604482015290519081900360640190fd5b600354815111156127bd576040805160e560020a62461bcd02815260206004820152601b60248201527f546f6f206d616e79206578636c75646564206164647265737365730000000000604482015290519081900360640190fd5b80516127d09060059060208401906138a5565b507f6f7d61057c8835d8bd9272c926f638242a70f6441466ae91cd272872ed84151f6005426040518080602001838152602001828103825284818154815260200191508054801561284a57602002820191906000526020600020905b8154600160a060020a0316815260019091019060200180831161282c575b5050935050505060405180910390a150565b7f4645455f41444d494e000000000000000000000000000000000000000000000081565b60006060600080600060008051602061393f833981519152600080600160009054906101000a9004600160a060020a0316600160a060020a0316638da5cb5b6040518163ffffffff1660e060020a028152600401602060405180830381600087803b1580156128ee57600080fd5b505af1158015612902573d6000803e3d6000fd5b505050506040513d602081101561291857600080fd5b505160005433600160a060020a03928316811494509116149050818061293b5750805b806129e15750600154604080517f8658b8b9000000000000000000000000000000000000000000000000000000008152336004820152306024820152604481018690529051600160a060020a0390921691638658b8b9916064808201926020929091908290030181600087803b1580156129b457600080fd5b505af11580156129c8573d6000803e3d6000fd5b505050506040513d60208110156129de57600080fd5b50515b1515612a37576040805160e560020a62461bcd02815260206004820152601760248201527f5065726d697373696f6e20636865636b206661696c6564000000000000000000604482015290519081900360640190fd5b6004548b908110612a80576040805160e560020a62461bcd028152602060048201526018602482015260008051602061395f833981519152604482015290519081900360640190fd5b6004805482908110612a8e57fe5b600091825260209091206007600d90920201015460ff1615612b20576040805160e560020a62461bcd02815260206004820152602560248201527f4469766964656e6420686173206265656e207265636c61696d6564206279206960448201527f7373756572000000000000000000000000000000000000000000000000000000606482015290519081900360840190fd5b6004805482908110612b2e57fe5b90600052602060002090600d0201600201544210151515612bbf576040805160e560020a62461bcd02815260206004820152602260248201527f4469766964656e64206d6174757269747920697320696e20746865206675747560448201527f7265000000000000000000000000000000000000000000000000000000000000606482015290519081900360840190fd5b6004805482908110612bcd57fe5b90600052602060002090600d02016003015442101515612c37576040805160e560020a62461bcd02815260206004820152601e60248201527f4469766964656e642065787069727920697320696e2074686520706173740000604482015290519081900360640190fd5b600480548d908110612c4557fe5b600091825260208220600154604080517fb2f5a54c0000000000000000000000000000000000000000000000000000000081529051600d9094029092019c50600160a060020a03169263b2f5a54c9260048084019382900301818387803b158015612caf57600080fd5b505af1158015612cc3573d6000803e3d6000fd5b505050506040513d6000823e601f3d908101601f191682016040526020811015612cec57600080fd5b810190808051640100000000811115612d0457600080fd5b82016020810184811115612d1757600080fd5b8151856020820283011164010000000082111715612d3457600080fd5b50508051909b50612d5993509150612d5490508d8d63ffffffff61380b16565b613818565b96508a95505b86861015612de5578786815181101515612d7557fe5b6020908102909101810151600160a060020a0381166000908152600a8c0190925260409091205490955060ff16158015612dca5750600160a060020a0385166000908152600b8a01602052604090205460ff16155b15612dda57612dda858a8e61358d565b600190950194612d5f565b505050505050505050505050565b60606005805480602002602001604051908101604052809291908181526020018280548015612e4b57602002820191906000526020600020905b8154600160a060020a03168152600190910190602001808311612e2d575b5050505050905090565b6000806000806000600354875111151515612eba576040805160e560020a62461bcd02815260206004820152601b60248201527f546f6f206d616e7920616464726573736573206578636c756465640000000000604482015290519081900360640190fd5b8b8b11612f11576040805160e560020a62461bcd02815260206004820152601960248201527f457870697279206973206265666f7265206d6174757269747900000000000000604482015290519081900360640190fd5b428b11612f68576040805160e560020a62461bcd02815260206004820152601560248201527f45787069727920697320696e2074686520706173740000000000000000000000604482015290519081900360640190fd5b60008911612fc0576040805160e560020a62461bcd02815260206004820152601060248201527f4e6f206469766964656e642073656e7400000000000000000000000000000000604482015290519081900360640190fd5b600160a060020a038a161515613020576040805160e560020a62461bcd02815260206004820152601260248201527f3078206e6f742076616c696420746f6b656e0000000000000000000000000000604482015290519081900360640190fd5b600160009054906101000a9004600160a060020a0316600160a060020a0316635488cc806040518163ffffffff1660e060020a028152600401602060405180830381600087803b15801561307357600080fd5b505af1158015613087573d6000803e3d6000fd5b505050506040513d602081101561309d57600080fd5b50518811156130f6576040805160e560020a62461bcd02815260206004820152601260248201527f496e76616c696420636865636b706f696e740000000000000000000000000000604482015290519081900360640190fd5b604080517f23b872dd000000000000000000000000000000000000000000000000000000008152336004820152306024820152604481018b90529051600160a060020a038c16916323b872dd9160648083019260209291908290030181600087803b15801561316457600080fd5b505af1158015613178573d6000803e3d6000fd5b505050506040513d602081101561318e57600080fd5b5051151561320c576040805160e560020a62461bcd02815260206004820152602660248201527f556e61626c6520746f207472616e7366657220746f6b656e7320666f7220646960448201527f766964656e640000000000000000000000000000000000000000000000000000606482015290519081900360840190fd5b7fff000000000000000000000000000000000000000000000000000000000000007f0100000000000000000000000000000000000000000000000000000000000000600088901a0216151561326057600080fd5b60048054600154604080517f981b24d00000000000000000000000000000000000000000000000000000000081529384018c905251919750600160a060020a03169163981b24d09160248083019260209291908290030181600087803b1580156132c957600080fd5b505af11580156132dd573d6000803e3d6000fd5b505050506040513d60208110156132f357600080fd5b50519350600092508291505b86518210156133d05760015487516133c391600160a060020a031690634ee2cd7e908a908690811061332d57fe5b906020019060200201518b6040518363ffffffff1660e060020a0281526004018083600160a060020a0316600160a060020a0316815260200182815260200192505050602060405180830381600087803b15801561338a57600080fd5b505af115801561339e573d6000803e3d6000fd5b505050506040513d60208110156133b457600080fd5b5051849063ffffffff61380b16565b92506001909101906132ff565b6004610160604051908101604052808a81526020014281526020018e81526020018d81526020018b81526020016000815260200161341786886137b690919063ffffffff16565b8152600060208083018290526040808401839052606080850184905260809485018d90528654600180820189559785528385208751600d909202019081559286015196830196909655840151600282015593830151600385015590820151600484015560a0820151600584015560c0820151600684015560e082015160078401805460ff19169115159190911790556101008201516008840155610120820151600984015561014090910151600c9092019190915590505b865181101561354957600480546001919060001981019081106134ee57fe5b90600052602060002090600d0201600b016000898481518110151561350f57fe5b602090810291909101810151600160a060020a03168252810191909152604001600020805460ff19169115159190911790556001016134cf565b6000858152600860205260409020805473ffffffffffffffffffffffffffffffffffffffff1916600160a060020a038c16179055612de5888d8d8d8d898b8d613830565b600080600061359c8487611650565b600160a060020a0388166000908152600a880160205260409020805460ff19166001179055600587015491945092506135dc90849063ffffffff61380b16565b60058601556135f1838363ffffffff6137b616565b90506000811115611d7b5760008481526008602090815260408083205481517fa9059cbb000000000000000000000000000000000000000000000000000000008152600160a060020a038b81166004830152602482018790529251929091169363a9059cbb9360448084019491939192918390030190829087803b15801561367857600080fd5b505af115801561368c573d6000803e3d6000fd5b505050506040513d60208110156136a257600080fd5b505115156136fa576040805160e560020a62461bcd02815260206004820152601960248201527f556e61626c6520746f207472616e7366657220746f6b656e7300000000000000604482015290519081900360640190fd5b600885015461370f908363ffffffff61380b16565b6008860155600160a060020a03861660009081526007602052604090205461373d908363ffffffff61380b16565b600160a060020a0380881660008181526007602090815260408083209590955588825260088152908490205484518981529182018890528185018790529351939092169290917fced5aaa2960f7fd397627b6d68ccb25eae2d3db92a459182962e6f9b5786241a919081900360600190a3505050505050565b6000828211156137c257fe5b508082035b92915050565b60008215156137de575060006137c7565b508181028183828115156137ee57fe5b04146137c757fe5b6000818381151561380357fe5b049392505050565b818101828110156137c757fe5b60008183106138275781613829565b825b9392505050565b60408051898152426020820152808201899052606081018890526080810186905260a0810185905260c0810184905290518291600160a060020a0388169133917f66944b9b992875f1854a548c80939651e27d9b825c50b81aee55a2882807e116919081900360e00190a45050505050505050565b828054828255906000526020600020908101928215613907579160200282015b82811115613907578251825473ffffffffffffffffffffffffffffffffffffffff1916600160a060020a039091161782556020909201916001909101906138c5565b50612683926109729250905b8082111561268357805473ffffffffffffffffffffffffffffffffffffffff1916815560010161391356004449535452494255544500000000000000000000000000000000000000000000496e636f7272656374206469766964656e6420696e646578000000000000000053656e646572206973206e6f74206f776e657200000000000000000000000000a165627a7a7230582098592ae8c85700a6f74b329d68497950870b3e35085091f010dfa624158fca260029",
  "source": "pragma solidity ^0.4.24;\r\n\r\nimport \"./DividendCheckpoint.sol\";\r\nimport \"../../interfaces/IERC20.sol\";\r\n\r\n/**\r\n * @title Checkpoint module for issuing ERC20 dividends\r\n */\r\ncontract ERC20DividendCheckpoint is DividendCheckpoint {\r\n    using SafeMath for uint256;\r\n\r\n    // Mapping to token address for each dividend\r\n    mapping (uint256 => address) public dividendTokens;\r\n\r\n    event ERC20DividendDeposited(address indexed _depositor, uint256 _checkpointId, uint256 _created, uint256 _maturity, uint256 _expiry, address indexed _token, uint256 _amount, uint256 _totalSupply, uint256 _dividendIndex, bytes32 indexed _name);\r\n    event ERC20DividendClaimed(address indexed _payee, uint256 _dividendIndex, address indexed _token, uint256 _amount, uint256 _withheld);\r\n    event ERC20DividendReclaimed(address indexed _claimer, uint256 _dividendIndex, address indexed _token, uint256 _claimedAmount);\r\n    event ERC20DividendWithholdingWithdrawn(address indexed _claimer, uint256 _dividendIndex, address indexed _token, uint256 _withheldAmount);\r\n\r\n    /**\r\n     * @notice Constructor\r\n     * @param _securityToken Address of the security token\r\n     * @param _polyAddress Address of the polytoken\r\n     */\r\n    constructor (address _securityToken, address _polyAddress) public\r\n    Module(_securityToken, _polyAddress)\r\n    {\r\n    }\r\n\r\n    /**\r\n     * @notice Creates a dividend and checkpoint for the dividend\r\n     * @param _maturity Time from which dividend can be paid\r\n     * @param _expiry Time until dividend can no longer be paid, and can be reclaimed by issuer\r\n     * @param _token Address of ERC20 token in which dividend is to be denominated\r\n     * @param _amount Amount of specified token for dividend\r\n     * @param _name name/title for identification\r\n     */\r\n    function createDividend(uint256 _maturity, uint256 _expiry, address _token, uint256 _amount, bytes32 _name) external onlyOwner {\r\n        createDividendWithExclusions(_maturity, _expiry, _token, _amount, excluded, _name);\r\n    }\r\n\r\n    /**\r\n     * @notice Creates a dividend with a provided checkpoint\r\n     * @param _maturity Time from which dividend can be paid\r\n     * @param _expiry Time until dividend can no longer be paid, and can be reclaimed by issuer\r\n     * @param _token Address of ERC20 token in which dividend is to be denominated\r\n     * @param _amount Amount of specified token for dividend\r\n     * @param _checkpointId Checkpoint id from which to create dividends\r\n     * @param _name name/title for identification\r\n     */\r\n    function createDividendWithCheckpoint(uint256 _maturity, uint256 _expiry, address _token, uint256 _amount, uint256 _checkpointId, bytes32 _name) external onlyOwner {\r\n        _createDividendWithCheckpointAndExclusions(_maturity, _expiry, _token, _amount, _checkpointId, excluded, _name);\r\n    }\r\n\r\n    /**\r\n     * @notice Creates a dividend and checkpoint for the dividend\r\n     * @param _maturity Time from which dividend can be paid\r\n     * @param _expiry Time until dividend can no longer be paid, and can be reclaimed by issuer\r\n     * @param _token Address of ERC20 token in which dividend is to be denominated\r\n     * @param _amount Amount of specified token for dividend\r\n     * @param _excluded List of addresses to exclude\r\n     * @param _name name/title for identification\r\n     */\r\n    function createDividendWithExclusions(uint256 _maturity, uint256 _expiry, address _token, uint256 _amount, address[] _excluded, bytes32 _name) public onlyOwner {\r\n        uint256 checkpointId = ISecurityToken(securityToken).createCheckpoint();\r\n        _createDividendWithCheckpointAndExclusions(_maturity, _expiry, _token, _amount, checkpointId, _excluded, _name);\r\n    }\r\n\r\n    /**\r\n     * @notice Creates a dividend with a provided checkpoint\r\n     * @param _maturity Time from which dividend can be paid\r\n     * @param _expiry Time until dividend can no longer be paid, and can be reclaimed by issuer\r\n     * @param _token Address of ERC20 token in which dividend is to be denominated\r\n     * @param _amount Amount of specified token for dividend\r\n     * @param _checkpointId Checkpoint id from which to create dividends\r\n     * @param _excluded List of addresses to exclude\r\n     * @param _name name/title for identification\r\n     */\r\n    function createDividendWithCheckpointAndExclusions(\r\n        uint256 _maturity, \r\n        uint256 _expiry, \r\n        address _token, \r\n        uint256 _amount, \r\n        uint256 _checkpointId, \r\n        address[] _excluded,\r\n        bytes32 _name\r\n    ) \r\n        public\r\n        onlyOwner      \r\n    {\r\n        _createDividendWithCheckpointAndExclusions(_maturity, _expiry, _token, _amount, _checkpointId, _excluded, _name);\r\n    }\r\n\r\n    /**\r\n     * @notice Creates a dividend with a provided checkpoint\r\n     * @param _maturity Time from which dividend can be paid\r\n     * @param _expiry Time until dividend can no longer be paid, and can be reclaimed by issuer\r\n     * @param _token Address of ERC20 token in which dividend is to be denominated\r\n     * @param _amount Amount of specified token for dividend\r\n     * @param _checkpointId Checkpoint id from which to create dividends\r\n     * @param _excluded List of addresses to exclude\r\n     * @param _name name/title for identification\r\n     */\r\n    function _createDividendWithCheckpointAndExclusions(\r\n        uint256 _maturity, \r\n        uint256 _expiry, \r\n        address _token, \r\n        uint256 _amount, \r\n        uint256 _checkpointId, \r\n        address[] _excluded,\r\n        bytes32 _name\r\n    ) \r\n        internal  \r\n    {\r\n        require(_excluded.length <= EXCLUDED_ADDRESS_LIMIT, \"Too many addresses excluded\");\r\n        require(_expiry > _maturity, \"Expiry is before maturity\");\r\n        require(_expiry > now, \"Expiry is in the past\");\r\n        require(_amount > 0, \"No dividend sent\");\r\n        require(_token != address(0), \"0x not valid token\");\r\n        require(_checkpointId <= ISecurityToken(securityToken).currentCheckpointId(), \"Invalid checkpoint\");\r\n        require(IERC20(_token).transferFrom(msg.sender, address(this), _amount), \"Unable to transfer tokens for dividend\");\r\n        require(_name[0] != 0);\r\n        uint256 dividendIndex = dividends.length;\r\n        uint256 currentSupply = ISecurityToken(securityToken).totalSupplyAt(_checkpointId);\r\n        uint256 excludedSupply = 0;\r\n        for (uint256 i = 0; i < _excluded.length; i++) {\r\n            excludedSupply = excludedSupply.add(ISecurityToken(securityToken).balanceOfAt(_excluded[i], _checkpointId));\r\n        }\r\n        dividends.push(\r\n          Dividend(\r\n            _checkpointId,\r\n            now,\r\n            _maturity,\r\n            _expiry,\r\n            _amount,\r\n            0,\r\n            currentSupply.sub(excludedSupply),\r\n            false,\r\n            0,\r\n            0,\r\n            _name\r\n          )\r\n        );\r\n        for (uint256 j = 0; j < _excluded.length; j++) {\r\n            dividends[dividends.length - 1].dividendExcluded[_excluded[j]] = true;\r\n        }\r\n        dividendTokens[dividendIndex] = _token;\r\n        _emitERC20DividendDepositedEvent(_checkpointId, _maturity, _expiry, _token, _amount, currentSupply, dividendIndex, _name);\r\n    }\r\n\r\n    /**\r\n     * @notice emits the ERC20DividendDeposited event. \r\n     * Seperated into a different function as a workaround for stack too deep error\r\n     */\r\n    function _emitERC20DividendDepositedEvent(uint256 _checkpointId, uint256 _maturity, uint256 _expiry, address _token, uint256 _amount, uint256 currentSupply, uint256 dividendIndex, bytes32 _name) internal {\r\n        emit ERC20DividendDeposited(msg.sender, _checkpointId, now, _maturity, _expiry, _token, _amount, currentSupply, dividendIndex, _name);\r\n    }\r\n\r\n    /**\r\n     * @notice Internal function for paying dividends\r\n     * @param _payee address of investor\r\n     * @param _dividend storage with previously issued dividends\r\n     * @param _dividendIndex Dividend to pay\r\n     */\r\n    function _payDividend(address _payee, Dividend storage _dividend, uint256 _dividendIndex) internal {\r\n        (uint256 claim, uint256 withheld) = calculateDividend(_dividendIndex, _payee);\r\n        _dividend.claimed[_payee] = true;\r\n        _dividend.claimedAmount = claim.add(_dividend.claimedAmount);\r\n        uint256 claimAfterWithheld = claim.sub(withheld);\r\n        if (claimAfterWithheld > 0) {\r\n            require(IERC20(dividendTokens[_dividendIndex]).transfer(_payee, claimAfterWithheld), \"Unable to transfer tokens\");\r\n            _dividend.dividendWithheld = _dividend.dividendWithheld.add(withheld);\r\n            investorWithheld[_payee] = investorWithheld[_payee].add(withheld);\r\n            emit ERC20DividendClaimed(_payee, _dividendIndex, dividendTokens[_dividendIndex], claim, withheld);\r\n        }\r\n    }\r\n\r\n    /**\r\n     * @notice Issuer can reclaim remaining unclaimed dividend amounts, for expired dividends\r\n     * @param _dividendIndex Dividend to reclaim\r\n     */\r\n    function reclaimDividend(uint256 _dividendIndex) external onlyOwner {\r\n        require(_dividendIndex < dividends.length, \"Incorrect dividend index\");\r\n        require(now >= dividends[_dividendIndex].expiry, \"Dividend expiry is in the future\");\r\n        require(!dividends[_dividendIndex].reclaimed, \"Dividend already claimed\");\r\n        dividends[_dividendIndex].reclaimed = true;\r\n        Dividend storage dividend = dividends[_dividendIndex];\r\n        uint256 remainingAmount = dividend.amount.sub(dividend.claimedAmount);\r\n        require(IERC20(dividendTokens[_dividendIndex]).transfer(msg.sender, remainingAmount), \"Unable to transfer tokens\");\r\n        emit ERC20DividendReclaimed(msg.sender, _dividendIndex, dividendTokens[_dividendIndex], remainingAmount);\r\n    }\r\n\r\n    /**\r\n     * @notice Allows issuer to withdraw withheld tax\r\n     * @param _dividendIndex Dividend to withdraw from\r\n     */\r\n    function withdrawWithholding(uint256 _dividendIndex) external onlyOwner {\r\n        require(_dividendIndex < dividends.length, \"Incorrect dividend index\");\r\n        Dividend storage dividend = dividends[_dividendIndex];\r\n        uint256 remainingWithheld = dividend.dividendWithheld.sub(dividend.dividendWithheldReclaimed);\r\n        dividend.dividendWithheldReclaimed = dividend.dividendWithheld;\r\n        require(IERC20(dividendTokens[_dividendIndex]).transfer(msg.sender, remainingWithheld), \"Unable to transfer tokens\");\r\n        emit ERC20DividendWithholdingWithdrawn(msg.sender, _dividendIndex, dividendTokens[_dividendIndex], remainingWithheld);\r\n    }\r\n\r\n}\r\n",
  "sourcePath": "/Users/jere/Code/polymath-apps/packages/polymath-shared/scripts/generateLocalBlockchain/contracts/modules/Checkpoint/ERC20DividendCheckpoint.sol",
  "compiler": {
    "name": "solc",
    "version": "0.4.24+commit.e67f0147.Emscripten.clang"
  },
  "schemaVersion": "2.0.1",
  "updatedAt": "2018-10-23T18:29:22.697Z"
}