{
  "contractName": "EtherDividendCheckpoint",
  "abi": [
    {
      "constant": false,
      "inputs": [
        {
          "name": "_investors",
          "type": "address[]"
        },
        {
          "name": "_withholding",
          "type": "uint256"
        }
      ],
      "name": "setWithholdingFixed",
      "outputs": [],
      "payable": false,
      "stateMutability": "nonpayable",
      "type": "function"
    },
    {
      "constant": true,
      "inputs": [],
      "name": "EXCLUDED_ADDRESS_LIMIT",
      "outputs": [
        {
          "name": "",
          "type": "uint256"
        }
      ],
      "payable": false,
      "stateMutability": "view",
      "type": "function"
    },
    {
      "constant": true,
      "inputs": [],
      "name": "getInitFunction",
      "outputs": [
        {
          "name": "",
          "type": "bytes4"
        }
      ],
      "payable": false,
      "stateMutability": "pure",
      "type": "function"
    },
    {
      "constant": false,
      "inputs": [
        {
          "name": "_dividendIndex",
          "type": "uint256"
        }
      ],
      "name": "pullDividendPayment",
      "outputs": [],
      "payable": false,
      "stateMutability": "nonpayable",
      "type": "function"
    },
    {
      "constant": true,
      "inputs": [
        {
          "name": "",
          "type": "address"
        }
      ],
      "name": "investorWithheld",
      "outputs": [
        {
          "name": "",
          "type": "uint256"
        }
      ],
      "payable": false,
      "stateMutability": "view",
      "type": "function"
    },
    {
      "constant": false,
      "inputs": [
        {
          "name": "_dividendIndex",
          "type": "uint256"
        },
        {
          "name": "_payees",
          "type": "address[]"
        }
      ],
      "name": "pushDividendPaymentToAddresses",
      "outputs": [],
      "payable": false,
      "stateMutability": "nonpayable",
      "type": "function"
    },
    {
      "constant": true,
      "inputs": [
        {
          "name": "_dividendIndex",
          "type": "uint256"
        },
        {
          "name": "_payee",
          "type": "address"
        }
      ],
      "name": "calculateDividend",
      "outputs": [
        {
          "name": "",
          "type": "uint256"
        },
        {
          "name": "",
          "type": "uint256"
        }
      ],
      "payable": false,
      "stateMutability": "view",
      "type": "function"
    },
    {
      "constant": true,
      "inputs": [
        {
          "name": "_checkpointId",
          "type": "uint256"
        }
      ],
      "name": "getDividendIndex",
      "outputs": [
        {
          "name": "",
          "type": "uint256[]"
        }
      ],
      "payable": false,
      "stateMutability": "view",
      "type": "function"
    },
    {
      "constant": false,
      "inputs": [
        {
          "name": "_amount",
          "type": "uint256"
        }
      ],
      "name": "takeFee",
      "outputs": [
        {
          "name": "",
          "type": "bool"
        }
      ],
      "payable": false,
      "stateMutability": "nonpayable",
      "type": "function"
    },
    {
      "constant": true,
      "inputs": [],
      "name": "polyToken",
      "outputs": [
        {
          "name": "",
          "type": "address"
        }
      ],
      "payable": false,
      "stateMutability": "view",
      "type": "function"
    },
    {
      "constant": true,
      "inputs": [
        {
          "name": "",
          "type": "address"
        }
      ],
      "name": "withholdingTax",
      "outputs": [
        {
          "name": "",
          "type": "uint256"
        }
      ],
      "payable": false,
      "stateMutability": "view",
      "type": "function"
    },
    {
      "constant": true,
      "inputs": [],
      "name": "DISTRIBUTE",
      "outputs": [
        {
          "name": "",
          "type": "bytes32"
        }
      ],
      "payable": false,
      "stateMutability": "view",
      "type": "function"
    },
    {
      "constant": true,
      "inputs": [
        {
          "name": "",
          "type": "uint256"
        }
      ],
      "name": "dividends",
      "outputs": [
        {
          "name": "checkpointId",
          "type": "uint256"
        },
        {
          "name": "created",
          "type": "uint256"
        },
        {
          "name": "maturity",
          "type": "uint256"
        },
        {
          "name": "expiry",
          "type": "uint256"
        },
        {
          "name": "amount",
          "type": "uint256"
        },
        {
          "name": "claimedAmount",
          "type": "uint256"
        },
        {
          "name": "totalSupply",
          "type": "uint256"
        },
        {
          "name": "reclaimed",
          "type": "bool"
        },
        {
          "name": "dividendWithheld",
          "type": "uint256"
        },
        {
          "name": "dividendWithheldReclaimed",
          "type": "uint256"
        },
        {
          "name": "name",
          "type": "bytes32"
        }
      ],
      "payable": false,
      "stateMutability": "view",
      "type": "function"
    },
    {
      "constant": false,
      "inputs": [
        {
          "name": "_investors",
          "type": "address[]"
        },
        {
          "name": "_withholding",
          "type": "uint256[]"
        }
      ],
      "name": "setWithholding",
      "outputs": [],
      "payable": false,
      "stateMutability": "nonpayable",
      "type": "function"
    },
    {
      "constant": true,
      "inputs": [],
      "name": "securityToken",
      "outputs": [
        {
          "name": "",
          "type": "address"
        }
      ],
      "payable": false,
      "stateMutability": "view",
      "type": "function"
    },
    {
      "constant": true,
      "inputs": [
        {
          "name": "",
          "type": "uint256"
        }
      ],
      "name": "excluded",
      "outputs": [
        {
          "name": "",
          "type": "address"
        }
      ],
      "payable": false,
      "stateMutability": "view",
      "type": "function"
    },
    {
      "constant": true,
      "inputs": [],
      "name": "getPermissions",
      "outputs": [
        {
          "name": "",
          "type": "bytes32[]"
        }
      ],
      "payable": false,
      "stateMutability": "view",
      "type": "function"
    },
    {
      "constant": true,
      "inputs": [],
      "name": "factory",
      "outputs": [
        {
          "name": "",
          "type": "address"
        }
      ],
      "payable": false,
      "stateMutability": "view",
      "type": "function"
    },
    {
      "constant": false,
      "inputs": [
        {
          "name": "_excluded",
          "type": "address[]"
        }
      ],
      "name": "setDefaultExcluded",
      "outputs": [],
      "payable": false,
      "stateMutability": "nonpayable",
      "type": "function"
    },
    {
      "constant": true,
      "inputs": [],
      "name": "FEE_ADMIN",
      "outputs": [
        {
          "name": "",
          "type": "bytes32"
        }
      ],
      "payable": false,
      "stateMutability": "view",
      "type": "function"
    },
    {
      "constant": false,
      "inputs": [
        {
          "name": "_dividendIndex",
          "type": "uint256"
        },
        {
          "name": "_start",
          "type": "uint256"
        },
        {
          "name": "_iterations",
          "type": "uint256"
        }
      ],
      "name": "pushDividendPayment",
      "outputs": [],
      "payable": false,
      "stateMutability": "nonpayable",
      "type": "function"
    },
    {
      "constant": true,
      "inputs": [],
      "name": "getDefaultExcluded",
      "outputs": [
        {
          "name": "",
          "type": "address[]"
        }
      ],
      "payable": false,
      "stateMutability": "view",
      "type": "function"
    },
    {
      "inputs": [
        {
          "name": "_securityToken",
          "type": "address"
        },
        {
          "name": "_polyAddress",
          "type": "address"
        }
      ],
      "payable": false,
      "stateMutability": "nonpayable",
      "type": "constructor"
    },
    {
      "anonymous": false,
      "inputs": [
        {
          "indexed": true,
          "name": "_depositor",
          "type": "address"
        },
        {
          "indexed": false,
          "name": "_checkpointId",
          "type": "uint256"
        },
        {
          "indexed": false,
          "name": "_created",
          "type": "uint256"
        },
        {
          "indexed": false,
          "name": "_maturity",
          "type": "uint256"
        },
        {
          "indexed": false,
          "name": "_expiry",
          "type": "uint256"
        },
        {
          "indexed": false,
          "name": "_amount",
          "type": "uint256"
        },
        {
          "indexed": false,
          "name": "_totalSupply",
          "type": "uint256"
        },
        {
          "indexed": false,
          "name": "_dividendIndex",
          "type": "uint256"
        },
        {
          "indexed": true,
          "name": "_name",
          "type": "bytes32"
        }
      ],
      "name": "EtherDividendDeposited",
      "type": "event"
    },
    {
      "anonymous": false,
      "inputs": [
        {
          "indexed": true,
          "name": "_payee",
          "type": "address"
        },
        {
          "indexed": false,
          "name": "_dividendIndex",
          "type": "uint256"
        },
        {
          "indexed": false,
          "name": "_amount",
          "type": "uint256"
        },
        {
          "indexed": false,
          "name": "_withheld",
          "type": "uint256"
        }
      ],
      "name": "EtherDividendClaimed",
      "type": "event"
    },
    {
      "anonymous": false,
      "inputs": [
        {
          "indexed": true,
          "name": "_claimer",
          "type": "address"
        },
        {
          "indexed": false,
          "name": "_dividendIndex",
          "type": "uint256"
        },
        {
          "indexed": false,
          "name": "_claimedAmount",
          "type": "uint256"
        }
      ],
      "name": "EtherDividendReclaimed",
      "type": "event"
    },
    {
      "anonymous": false,
      "inputs": [
        {
          "indexed": true,
          "name": "_payee",
          "type": "address"
        },
        {
          "indexed": false,
          "name": "_dividendIndex",
          "type": "uint256"
        },
        {
          "indexed": false,
          "name": "_amount",
          "type": "uint256"
        },
        {
          "indexed": false,
          "name": "_withheld",
          "type": "uint256"
        }
      ],
      "name": "EtherDividendClaimFailed",
      "type": "event"
    },
    {
      "anonymous": false,
      "inputs": [
        {
          "indexed": true,
          "name": "_claimer",
          "type": "address"
        },
        {
          "indexed": false,
          "name": "_dividendIndex",
          "type": "uint256"
        },
        {
          "indexed": false,
          "name": "_withheldAmount",
          "type": "uint256"
        }
      ],
      "name": "EtherDividendWithholdingWithdrawn",
      "type": "event"
    },
    {
      "anonymous": false,
      "inputs": [
        {
          "indexed": false,
          "name": "_excluded",
          "type": "address[]"
        },
        {
          "indexed": false,
          "name": "_timestamp",
          "type": "uint256"
        }
      ],
      "name": "SetDefaultExcludedAddresses",
      "type": "event"
    },
    {
      "anonymous": false,
      "inputs": [
        {
          "indexed": false,
          "name": "_investors",
          "type": "address[]"
        },
        {
          "indexed": false,
          "name": "_withholding",
          "type": "uint256[]"
        },
        {
          "indexed": false,
          "name": "_timestamp",
          "type": "uint256"
        }
      ],
      "name": "SetWithholding",
      "type": "event"
    },
    {
      "anonymous": false,
      "inputs": [
        {
          "indexed": false,
          "name": "_investors",
          "type": "address[]"
        },
        {
          "indexed": false,
          "name": "_withholding",
          "type": "uint256"
        },
        {
          "indexed": false,
          "name": "_timestamp",
          "type": "uint256"
        }
      ],
      "name": "SetWithholdingFixed",
      "type": "event"
    },
    {
      "constant": false,
      "inputs": [
        {
          "name": "_maturity",
          "type": "uint256"
        },
        {
          "name": "_expiry",
          "type": "uint256"
        },
        {
          "name": "_name",
          "type": "bytes32"
        }
      ],
      "name": "createDividend",
      "outputs": [],
      "payable": true,
      "stateMutability": "payable",
      "type": "function"
    },
    {
      "constant": false,
      "inputs": [
        {
          "name": "_maturity",
          "type": "uint256"
        },
        {
          "name": "_expiry",
          "type": "uint256"
        },
        {
          "name": "_checkpointId",
          "type": "uint256"
        },
        {
          "name": "_name",
          "type": "bytes32"
        }
      ],
      "name": "createDividendWithCheckpoint",
      "outputs": [],
      "payable": true,
      "stateMutability": "payable",
      "type": "function"
    },
    {
      "constant": false,
      "inputs": [
        {
          "name": "_maturity",
          "type": "uint256"
        },
        {
          "name": "_expiry",
          "type": "uint256"
        },
        {
          "name": "_excluded",
          "type": "address[]"
        },
        {
          "name": "_name",
          "type": "bytes32"
        }
      ],
      "name": "createDividendWithExclusions",
      "outputs": [],
      "payable": true,
      "stateMutability": "payable",
      "type": "function"
    },
    {
      "constant": false,
      "inputs": [
        {
          "name": "_maturity",
          "type": "uint256"
        },
        {
          "name": "_expiry",
          "type": "uint256"
        },
        {
          "name": "_checkpointId",
          "type": "uint256"
        },
        {
          "name": "_excluded",
          "type": "address[]"
        },
        {
          "name": "_name",
          "type": "bytes32"
        }
      ],
      "name": "createDividendWithCheckpointAndExclusions",
      "outputs": [],
      "payable": true,
      "stateMutability": "payable",
      "type": "function"
    },
    {
      "constant": false,
      "inputs": [
        {
          "name": "_dividendIndex",
          "type": "uint256"
        }
      ],
      "name": "reclaimDividend",
      "outputs": [],
      "payable": false,
      "stateMutability": "nonpayable",
      "type": "function"
    },
    {
      "constant": false,
      "inputs": [
        {
          "name": "_dividendIndex",
          "type": "uint256"
        }
      ],
      "name": "withdrawWithholding",
      "outputs": [],
      "payable": false,
      "stateMutability": "nonpayable",
      "type": "function"
    }
  ],
  "bytecode": "0x6080604052603260035534801561001557600080fd5b506040516040806134fe83398101604052805160209091015160018054600160a060020a03938416600160a060020a0319918216179091556000805482163317905560028054939092169216919091179055613488806100766000396000f3006080604052600436106101505763ffffffff60e060020a6000350416630945812e81146101555780630a29f591146101ae5780631613ec9d146101d557806330008b481461021f578063333cffe5146102375780633f2e31651461024f5780634d58e413146102705780635bea0e1c146102ca5780635daff64e146103075780635f7619a41461036f5780636faa22a51461039b5780637a3e23fd146103cc57806380fef5af146103ed578063814b3fe0146104025780638596e6e614610472578063aa8b76ea14610500578063b84dfbd214610518578063bea1c0411461052d578063bee2ddc214610586578063c3a07df61461059e578063c45a0155146105b3578063cc1556dc146105c8578063d70afa961461061d578063dcef4b5d14610632578063e1726faa14610646578063f1e9d10014610664578063f4be43f414610679578063f58b5bae1461068a575b600080fd5b34801561016157600080fd5b50604080516020600480358082013583810280860185019096528085526101ac9536959394602494938501929182918501908490808284375094975050933594506106dd9350505050565b005b3480156101ba57600080fd5b506101c36108d4565b60408051918252519081900360200190f35b3480156101e157600080fd5b506101ea6108da565b604080517fffffffff000000000000000000000000000000000000000000000000000000009092168252519081900360200190f35b34801561022b57600080fd5b506101ac6004356108e0565b34801561024357600080fd5b506101ac600435610c2d565b34801561025b57600080fd5b506101c3600160a060020a0360043516610df6565b34801561027c57600080fd5b506040805160206004602480358281013584810280870186019097528086526101ac96843596369660449591949091019291829185019084908082843750949750610e089650505050505050565b3480156102d657600080fd5b506102ee600435600160a060020a036024351661129f565b6040805192835260208301919091528051918290030190f35b34801561031357600080fd5b5061031f600435611482565b60408051602080825283518183015283519192839290830191858101910280838360005b8381101561035b578181015183820152602001610343565b505050509050019250505060405180910390f35b34801561037b57600080fd5b50610387600435611567565b604080519115158252519081900360200190f35b3480156103a757600080fd5b506103b0611895565b60408051600160a060020a039092168252519081900360200190f35b3480156103d857600080fd5b506101c3600160a060020a03600435166118a4565b3480156103f957600080fd5b506101c36118b6565b34801561040e57600080fd5b5061041a6004356118c8565b604080519b8c5260208c019a909a528a8a019890985260608a0196909652608089019490945260a088019290925260c0870152151560e086015261010085015261012084015261014083015251908190036101600190f35b34801561047e57600080fd5b50604080516020600480358082013583810280860185019096528085526101ac95369593946024949385019291829185019084908082843750506040805187358901803560208181028481018201909552818452989b9a9989019892975090820195509350839250850190849080828437509497506119359650505050505050565b34801561050c57600080fd5b506101ac600435611bec565b34801561052457600080fd5b506103b0611eb0565b60408051606435600481810135602081810285810182019096528185526101ac9583359560248035966044359636969095608495929093019290918291850190849080828437509497505093359450611ebf9350505050565b34801561059257600080fd5b506103b0600435611f9f565b3480156105aa57600080fd5b5061031f611fc7565b3480156105bf57600080fd5b506103b061201c565b3480156105d457600080fd5b50604080516020600480358082013583810280860185019096528085526101ac9536959394602494938501929182918501908490808284375094975061202b9650505050505050565b34801561062957600080fd5b506101c36121f1565b6101ac600435602435604435606435612215565b34801561065257600080fd5b506101ac60043560243560443561234e565b34801561067057600080fd5b5061031f6128c1565b6101ac600435602435604435612923565b60408051602060046044358181013583810280860185019096528085526101ac9583359560248035963696956064959394920192918291850190849080828437509497505093359450612a519350505050565b6001546040805160e060020a638da5cb5b0281529051600092600160a060020a031691638da5cb5b91600480830192602092919082900301818787803b15801561072657600080fd5b505af115801561073a573d6000803e3d6000fd5b505050506040513d602081101561075057600080fd5b5051600160a060020a0316331461079f576040805160e560020a62461bcd028152602060048201526013602482015260008051602061343d833981519152604482015290519081900360640190fd5b670de0b6b3a76400008211156107ff576040805160e560020a62461bcd02815260206004820152601960248201527f496e636f72726563742077697468686f6c64696e672074617800000000000000604482015290519081900360640190fd5b7f3587f82979516528f7ce51509410f4d49aaed2fe4c2661c07a02cc17ea1410278383426040518080602001848152602001838152602001828103825285818151815260200191508051906020019060200280838360005b8381101561086f578181015183820152602001610857565b5050505090500194505050505060405180910390a15060005b82518110156108cf57816006600085848151811015156108a457fe5b6020908102909101810151600160a060020a0316825281019190915260400160002055600101610888565b505050565b60035481565b60005b90565b6004546000908290811061092c576040805160e560020a62461bcd028152602060048201526018602482015260008051602061341d833981519152604482015290519081900360640190fd5b600480548290811061093a57fe5b600091825260209091206007600d90920201015460ff16156109cc576040805160e560020a62461bcd02815260206004820152602560248201527f4469766964656e6420686173206265656e207265636c61696d6564206279206960448201527f7373756572000000000000000000000000000000000000000000000000000000606482015290519081900360840190fd5b60048054829081106109da57fe5b90600052602060002090600d0201600201544210151515610a6b576040805160e560020a62461bcd02815260206004820152602260248201527f4469766964656e64206d6174757269747920697320696e20746865206675747560448201527f7265000000000000000000000000000000000000000000000000000000000000606482015290519081900360840190fd5b6004805482908110610a7957fe5b90600052602060002090600d02016003015442101515610ae3576040805160e560020a62461bcd02815260206004820152601e60248201527f4469766964656e642065787069727920697320696e2074686520706173740000604482015290519081900360640190fd5b6004805484908110610af157fe5b60009182526020808320338452600a600d90930201918201905260409091205490925060ff1615610b92576040805160e560020a62461bcd02815260206004820152602660248201527f4469766964656e6420616c726561647920636c61696d6564206279206d73672e60448201527f73656e6465720000000000000000000000000000000000000000000000000000606482015290519081900360840190fd5b336000908152600b8301602052604090205460ff1615610c22576040805160e560020a62461bcd02815260206004820152602160248201527f6d73672e73656e646572206578636c756465642066726f6d204469766964656e60448201527f6400000000000000000000000000000000000000000000000000000000000000606482015290519081900360840190fd5b6108cf338385612ba1565b600080600160009054906101000a9004600160a060020a0316600160a060020a0316638da5cb5b6040518163ffffffff1660e060020a028152600401602060405180830381600087803b158015610c8357600080fd5b505af1158015610c97573d6000803e3d6000fd5b505050506040513d6020811015610cad57600080fd5b5051600160a060020a03163314610cfc576040805160e560020a62461bcd028152602060048201526013602482015260008051602061343d833981519152604482015290519081900360640190fd5b6004548310610d43576040805160e560020a62461bcd028152602060048201526018602482015260008051602061341d833981519152604482015290519081900360640190fd5b6004805484908110610d5157fe5b90600052602060002090600d02019150610d7c82600901548360080154612d4c90919063ffffffff16565b60088301546009840155604051909150339082156108fc029083906000818181858888f19350505050158015610db6573d6000803e3d6000fd5b506040805184815260208101839052815133927fc817826994cc4cf2dd66758f988195f8ad3e29078e2ce7ff40fe66477eff27e8928290030190a2505050565b60076020526000908152604090205481565b6000806000805160206133fd833981519152600080600160009054906101000a9004600160a060020a0316600160a060020a0316638da5cb5b6040518163ffffffff1660e060020a028152600401602060405180830381600087803b158015610e7057600080fd5b505af1158015610e84573d6000803e3d6000fd5b505050506040513d6020811015610e9a57600080fd5b505160005433600160a060020a039283168114945091161490508180610ebd5750805b80610f635750600154604080517f8658b8b9000000000000000000000000000000000000000000000000000000008152336004820152306024820152604481018690529051600160a060020a0390921691638658b8b9916064808201926020929091908290030181600087803b158015610f3657600080fd5b505af1158015610f4a573d6000803e3d6000fd5b505050506040513d6020811015610f6057600080fd5b50515b1515610fb9576040805160e560020a62461bcd02815260206004820152601760248201527f5065726d697373696f6e20636865636b206661696c6564000000000000000000604482015290519081900360640190fd5b60045487908110611002576040805160e560020a62461bcd028152602060048201526018602482015260008051602061341d833981519152604482015290519081900360640190fd5b600480548290811061101057fe5b600091825260209091206007600d90920201015460ff16156110a2576040805160e560020a62461bcd02815260206004820152602560248201527f4469766964656e6420686173206265656e207265636c61696d6564206279206960448201527f7373756572000000000000000000000000000000000000000000000000000000606482015290519081900360840190fd5b60048054829081106110b057fe5b90600052602060002090600d0201600201544210151515611141576040805160e560020a62461bcd02815260206004820152602260248201527f4469766964656e64206d6174757269747920697320696e20746865206675747560448201527f7265000000000000000000000000000000000000000000000000000000000000606482015290519081900360840190fd5b600480548290811061114f57fe5b90600052602060002090600d020160030154421015156111b9576040805160e560020a62461bcd02815260206004820152601e60248201527f4469766964656e642065787069727920697320696e2074686520706173740000604482015290519081900360640190fd5b60048054899081106111c757fe5b90600052602060002090600d02019550600094505b86518510156112955785600a01600088878151811015156111f957fe5b6020908102909101810151600160a060020a031682528101919091526040016000205460ff16158015611263575085600b016000888781518110151561123b57fe5b6020908102909101810151600160a060020a031682528101919091526040016000205460ff16155b1561128a5761128a878681518110151561127957fe5b90602001906020020151878a612ba1565b6001909401936111dc565b5050505050505050565b600080600080600080600480549050881015156112f4576040805160e560020a62461bcd028152602060048201526018602482015260008051602061341d833981519152604482015290519081900360640190fd5b600480548990811061130257fe5b60009182526020808320600160a060020a038b168452600a600d90930201918201905260409091205490945060ff16806113565750600160a060020a0387166000908152600b8501602052604090205460ff165b156113675760009550859450611477565b6001548454604080517f4ee2cd7e000000000000000000000000000000000000000000000000000000008152600160a060020a038b81166004830152602482019390935290519190921691634ee2cd7e9160448083019260209291908290030181600087803b1580156113d957600080fd5b505af11580156113ed573d6000803e3d6000fd5b505050506040513d602081101561140357600080fd5b5051600685015460048601549194506114339161142790869063ffffffff612d6316565b9063ffffffff612d8c16565b600160a060020a03881660009081526006602052604090205490925061146e90670de0b6b3a76400009061142790859063ffffffff612d6316565b90508181955095505b505050509250929050565b606060008082815b6004548310156114ce57856004848154811015156114a457fe5b90600052602060002090600d02016000015414156114c3576001909301925b60019092019161148a565b836040519080825280602002602001820160405280156114f8578160200160208202803883390190505b50915060009350600090505b60045481101561155e578560048281548110151561151e57fe5b90600052602060002090600d02016000015414156115565780828581518110151561154557fe5b602090810290910101526001909301925b600101611504565b50949350505050565b60007f4645455f41444d494e0000000000000000000000000000000000000000000000600080600160009054906101000a9004600160a060020a0316600160a060020a0316638da5cb5b6040518163ffffffff1660e060020a028152600401602060405180830381600087803b1580156115e057600080fd5b505af11580156115f4573d6000803e3d6000fd5b505050506040513d602081101561160a57600080fd5b505160005433600160a060020a03928316811494509116149050818061162d5750805b806116d35750600154604080517f8658b8b9000000000000000000000000000000000000000000000000000000008152336004820152306024820152604481018690529051600160a060020a0390921691638658b8b9916064808201926020929091908290030181600087803b1580156116a657600080fd5b505af11580156116ba573d6000803e3d6000fd5b505050506040513d60208110156116d057600080fd5b50515b1515611729576040805160e560020a62461bcd02815260206004820152601760248201527f5065726d697373696f6e20636865636b206661696c6564000000000000000000604482015290519081900360640190fd5b600254600154600080546040805160e060020a638da5cb5b0281529051600160a060020a03958616956323b872dd95811694931692638da5cb5b92600480820193602093909283900390910190829087803b15801561178757600080fd5b505af115801561179b573d6000803e3d6000fd5b505050506040513d60208110156117b157600080fd5b50516040805160e060020a63ffffffff8616028152600160a060020a039384166004820152929091166024830152604482018990525160648083019260209291908290030181600087803b15801561180857600080fd5b505af115801561181c573d6000803e3d6000fd5b505050506040513d602081101561183257600080fd5b5051151561188a576040805160e560020a62461bcd02815260206004820152601260248201527f556e61626c6520746f2074616b65206665650000000000000000000000000000604482015290519081900360640190fd5b506001949350505050565b600254600160a060020a031681565b60066020526000908152604090205481565b6000805160206133fd83398151915281565b60048054829081106118d657fe5b60009182526020909120600d9091020180546001820154600283015460038401546004850154600586015460068701546007880154600889015460098a0154600c909a0154989a5096989597949693959294919360ff9091169290918b565b6001546040805160e060020a638da5cb5b0281529051600092600160a060020a031691638da5cb5b91600480830192602092919082900301818787803b15801561197e57600080fd5b505af1158015611992573d6000803e3d6000fd5b505050506040513d60208110156119a857600080fd5b5051600160a060020a031633146119f7576040805160e560020a62461bcd028152602060048201526013602482015260008051602061343d833981519152604482015290519081900360640190fd5b8151835114611a50576040805160e560020a62461bcd02815260206004820152601860248201527f4d69736d61746368656420696e707574206c656e677468730000000000000000604482015290519081900360640190fd5b7f8e6f19b496a634d6fb5faea10ece2675995b6f7a0946a7509885eb76889e1213838342604051808060200180602001848152602001838103835286818151815260200191508051906020019060200280838360005b83811015611abe578181015183820152602001611aa6565b50505050905001838103825285818151815260200191508051906020019060200280838360005b83811015611afd578181015183820152602001611ae5565b505050509050019550505050505060405180910390a15060005b82518110156108cf57670de0b6b3a76400008282815181101515611b3757fe5b602090810290910101511115611b97576040805160e560020a62461bcd02815260206004820152601960248201527f496e636f72726563742077697468686f6c64696e672074617800000000000000604482015290519081900360640190fd5b8181815181101515611ba557fe5b90602001906020020151600660008584815181101515611bc157fe5b6020908102909101810151600160a060020a0316825281019190915260400160002055600101611b17565b600080600160009054906101000a9004600160a060020a0316600160a060020a0316638da5cb5b6040518163ffffffff1660e060020a028152600401602060405180830381600087803b158015611c4257600080fd5b505af1158015611c56573d6000803e3d6000fd5b505050506040513d6020811015611c6c57600080fd5b5051600160a060020a03163314611cbb576040805160e560020a62461bcd028152602060048201526013602482015260008051602061343d833981519152604482015290519081900360640190fd5b6004548310611d02576040805160e560020a62461bcd028152602060048201526018602482015260008051602061341d833981519152604482015290519081900360640190fd5b6004805484908110611d1057fe5b90600052602060002090600d0201600301544210151515611d7b576040805160e560020a62461bcd02815260206004820181905260248201527f4469766964656e642065787069727920697320696e2074686520667574757265604482015290519081900360640190fd5b6004805484908110611d8957fe5b600091825260209091206007600d90920201015460ff1615611df5576040805160e560020a62461bcd02815260206004820152601860248201527f4469766964656e6420616c726561647920636c61696d65640000000000000000604482015290519081900360640190fd5b6004805484908110611e0357fe5b600091825260209091206007600d90920201908101805460ff1916600117905560058101546004820154919350611e40919063ffffffff612d4c16565b604051909150339082156108fc029083906000818181858888f19350505050158015611e70573d6000803e3d6000fd5b506040805184815260208101839052815133927fcd202b969101d293ad6e4c4053b46f2bf4698ca22abcb130dc24fa3baca0dee1928290030190a2505050565b600154600160a060020a031681565b600160009054906101000a9004600160a060020a0316600160a060020a0316638da5cb5b6040518163ffffffff1660e060020a028152600401602060405180830381600087803b158015611f1257600080fd5b505af1158015611f26573d6000803e3d6000fd5b505050506040513d6020811015611f3c57600080fd5b5051600160a060020a03163314611f8b576040805160e560020a62461bcd028152602060048201526013602482015260008051602061343d833981519152604482015290519081900360640190fd5b611f988585858585612da1565b5050505050565b6005805482908110611fad57fe5b600091825260209091200154600160a060020a0316905081565b604080516001808252818301909252606091829190602080830190803883390190505090506000805160206133fd83398151915281600081518110151561200a57fe5b602090810290910101529050805b5090565b600054600160a060020a031681565b600160009054906101000a9004600160a060020a0316600160a060020a0316638da5cb5b6040518163ffffffff1660e060020a028152600401602060405180830381600087803b15801561207e57600080fd5b505af1158015612092573d6000803e3d6000fd5b505050506040513d60208110156120a857600080fd5b5051600160a060020a031633146120f7576040805160e560020a62461bcd028152602060048201526013602482015260008051602061343d833981519152604482015290519081900360640190fd5b60035481511115612152576040805160e560020a62461bcd02815260206004820152601b60248201527f546f6f206d616e79206578636c75646564206164647265737365730000000000604482015290519081900360640190fd5b8051612165906005906020840190613363565b507f6f7d61057c8835d8bd9272c926f638242a70f6441466ae91cd272872ed84151f600542604051808060200183815260200182810382528481815481526020019150805480156121df57602002820191906000526020600020905b8154600160a060020a031681526001909101906020018083116121c1575b5050935050505060405180910390a150565b7f4645455f41444d494e000000000000000000000000000000000000000000000081565b600160009054906101000a9004600160a060020a0316600160a060020a0316638da5cb5b6040518163ffffffff1660e060020a028152600401602060405180830381600087803b15801561226857600080fd5b505af115801561227c573d6000803e3d6000fd5b505050506040513d602081101561229257600080fd5b5051600160a060020a031633146122e1576040805160e560020a62461bcd028152602060048201526013602482015260008051602061343d833981519152604482015290519081900360640190fd5b612348848484600580548060200260200160405190810160405280929190818152602001828054801561233d57602002820191906000526020600020905b8154600160a060020a0316815260019091019060200180831161231f575b505050505085612da1565b50505050565b6000606060008060006000805160206133fd833981519152600080600160009054906101000a9004600160a060020a0316600160a060020a0316638da5cb5b6040518163ffffffff1660e060020a028152600401602060405180830381600087803b1580156123bc57600080fd5b505af11580156123d0573d6000803e3d6000fd5b505050506040513d60208110156123e657600080fd5b505160005433600160a060020a0392831681149450911614905081806124095750805b806124af5750600154604080517f8658b8b9000000000000000000000000000000000000000000000000000000008152336004820152306024820152604481018690529051600160a060020a0390921691638658b8b9916064808201926020929091908290030181600087803b15801561248257600080fd5b505af1158015612496573d6000803e3d6000fd5b505050506040513d60208110156124ac57600080fd5b50515b1515612505576040805160e560020a62461bcd02815260206004820152601760248201527f5065726d697373696f6e20636865636b206661696c6564000000000000000000604482015290519081900360640190fd5b6004548b90811061254e576040805160e560020a62461bcd028152602060048201526018602482015260008051602061341d833981519152604482015290519081900360640190fd5b600480548290811061255c57fe5b600091825260209091206007600d90920201015460ff16156125ee576040805160e560020a62461bcd02815260206004820152602560248201527f4469766964656e6420686173206265656e207265636c61696d6564206279206960448201527f7373756572000000000000000000000000000000000000000000000000000000606482015290519081900360840190fd5b60048054829081106125fc57fe5b90600052602060002090600d020160020154421015151561268d576040805160e560020a62461bcd02815260206004820152602260248201527f4469766964656e64206d6174757269747920697320696e20746865206675747560448201527f7265000000000000000000000000000000000000000000000000000000000000606482015290519081900360840190fd5b600480548290811061269b57fe5b90600052602060002090600d02016003015442101515612705576040805160e560020a62461bcd02815260206004820152601e60248201527f4469766964656e642065787069727920697320696e2074686520706173740000604482015290519081900360640190fd5b600480548d90811061271357fe5b600091825260208220600154604080517fb2f5a54c0000000000000000000000000000000000000000000000000000000081529051600d9094029092019c50600160a060020a03169263b2f5a54c9260048084019382900301818387803b15801561277d57600080fd5b505af1158015612791573d6000803e3d6000fd5b505050506040513d6000823e601f3d908101601f1916820160405260208110156127ba57600080fd5b8101908080516401000000008111156127d257600080fd5b820160208101848111156127e557600080fd5b815185602082028301116401000000008211171561280257600080fd5b50508051909b506128279350915061282290508d8d63ffffffff61333e16565b61334b565b96508a95505b868610156128b357878681518110151561284357fe5b6020908102909101810151600160a060020a0381166000908152600a8c0190925260409091205490955060ff161580156128985750600160a060020a0385166000908152600b8a01602052604090205460ff16155b156128a8576128a8858a8e612ba1565b60019095019461282d565b505050505050505050505050565b6060600580548060200260200160405190810160405280929190818152602001828054801561291957602002820191906000526020600020905b8154600160a060020a031681526001909101906020018083116128fb575b5050505050905090565b600160009054906101000a9004600160a060020a0316600160a060020a0316638da5cb5b6040518163ffffffff1660e060020a028152600401602060405180830381600087803b15801561297657600080fd5b505af115801561298a573d6000803e3d6000fd5b505050506040513d60208110156129a057600080fd5b5051600160a060020a031633146129ef576040805160e560020a62461bcd028152602060048201526013602482015260008051602061343d833981519152604482015290519081900360640190fd5b6108cf83836005805480602002602001604051908101604052809291908181526020018280548015612a4a57602002820191906000526020600020905b8154600160a060020a03168152600190910190602001808311612a2c575b5050505050845b6001546040805160e060020a638da5cb5b0281529051600092600160a060020a031691638da5cb5b91600480830192602092919082900301818787803b158015612a9a57600080fd5b505af1158015612aae573d6000803e3d6000fd5b505050506040513d6020811015612ac457600080fd5b5051600160a060020a03163314612b13576040805160e560020a62461bcd028152602060048201526013602482015260008051602061343d833981519152604482015290519081900360640190fd5b600160009054906101000a9004600160a060020a0316600160a060020a031663ff0b9c906040518163ffffffff1660e060020a028152600401602060405180830381600087803b158015612b6657600080fd5b505af1158015612b7a573d6000803e3d6000fd5b505050506040513d6020811015612b9057600080fd5b50519050611f988585838686612da1565b6000806000612bb0848761129f565b600160a060020a0388166000908152600a880160205260409020805460ff191660011790559093509150612bea838363ffffffff612d4c16565b90506000811115612d4457604051600160a060020a0387169082156108fc029083906000818181858888f1935050505015612ce0576005850154612c34908463ffffffff61333e16565b60058601556008850154612c4e908363ffffffff61333e16565b6008860155600160a060020a038616600090815260076020526040902054612c7c908363ffffffff61333e16565b600160a060020a0387166000818152600760209081526040918290209390935580518781529283018690528281018590525190917f0cfb57b295d2603fbb329fdc2d35326148368bf26a74cbb525cdf3a71ff5cc3d919081900360600190a2612d44565b600160a060020a0386166000818152600a87016020908152604091829020805460ff19169055815187815290810186905280820185905290517fd252e7e7f5d6262d6dd8f80698d23f219cd7847a22b97c199a5984440f3c27159181900360600190a25b505050505050565b600082821115612d5857fe5b508082035b92915050565b6000821515612d7457506000612d5d565b50818102818382811515612d8457fe5b0414612d5d57fe5b60008183811515612d9957fe5b049392505050565b6000806000806000600354875111151515612e06576040805160e560020a62461bcd02815260206004820152601b60248201527f546f6f206d616e7920616464726573736573206578636c756465640000000000604482015290519081900360640190fd5b898911612e5d576040805160e560020a62461bcd02815260206004820152601960248201527f457870697279206973206265666f7265206d6174757269747900000000000000604482015290519081900360640190fd5b428911612eb4576040805160e560020a62461bcd02815260206004820152601560248201527f45787069727920697320696e2074686520706173740000000000000000000000604482015290519081900360640190fd5b60003411612f0c576040805160e560020a62461bcd02815260206004820152601060248201527f4e6f206469766964656e642073656e7400000000000000000000000000000000604482015290519081900360640190fd5b600160009054906101000a9004600160a060020a0316600160a060020a0316635488cc806040518163ffffffff1660e060020a028152600401602060405180830381600087803b158015612f5f57600080fd5b505af1158015612f73573d6000803e3d6000fd5b505050506040513d6020811015612f8957600080fd5b5051881115612f9757600080fd5b7fff000000000000000000000000000000000000000000000000000000000000007f0100000000000000000000000000000000000000000000000000000000000000600088901a02161515612feb57600080fd5b60048054600154604080517f981b24d00000000000000000000000000000000000000000000000000000000081529384018c905251919750600160a060020a03169163981b24d09160248083019260209291908290030181600087803b15801561305457600080fd5b505af1158015613068573d6000803e3d6000fd5b505050506040513d602081101561307e57600080fd5b50519350600092508291505b865182101561315b57600154875161314e91600160a060020a031690634ee2cd7e908a90869081106130b857fe5b906020019060200201518b6040518363ffffffff1660e060020a0281526004018083600160a060020a0316600160a060020a0316815260200182815260200192505050602060405180830381600087803b15801561311557600080fd5b505af1158015613129573d6000803e3d6000fd5b505050506040513d602081101561313f57600080fd5b5051849063ffffffff61333e16565b925060019091019061308a565b6004610160604051908101604052808a81526020014281526020018c81526020018b8152602001348152602001600081526020016131a28688612d4c90919063ffffffff16565b8152600060208083018290526040808401839052606080850184905260809485018d90528654600180820189559785528385208751600d909202019081559286015196830196909655840151600282015593830151600385015590820151600484015560a0820151600584015560c0820151600684015560e082015160078401805460ff19169115159190911790556101008201516008840155610120820151600984015561014090910151600c9092019190915590505b86518110156132d4576004805460019190600019810190811061327957fe5b90600052602060002090600d0201600b016000898481518110151561329a57fe5b602090810291909101810151600160a060020a03168252810191909152604001600020805460ff191691151591909117905560010161325a565b604080518981524260208201528082018c9052606081018b905234608082015260a0810186905260c081018790529051879133917f260420e15e8a0c1993b733e83ae8e5acf5f856d2e044769b63fb8126edf272859181900360e00190a350505050505050505050565b81810182811015612d5d57fe5b600081831061335a578161335c565b825b9392505050565b8280548282559060005260206000209081019282156133c5579160200282015b828111156133c5578251825473ffffffffffffffffffffffffffffffffffffffff1916600160a060020a03909116178255602090920191600190910190613383565b50612018926108dd9250905b8082111561201857805473ffffffffffffffffffffffffffffffffffffffff191681556001016133d156004449535452494255544500000000000000000000000000000000000000000000496e636f7272656374206469766964656e6420696e646578000000000000000053656e646572206973206e6f74206f776e657200000000000000000000000000a165627a7a72305820ef02c9b2669f0058873abf5ccf45a33fd27b31f86f033d6a5ceca21b37d224c00029",
  "source": "pragma solidity ^0.4.24;\r\n\r\nimport \"./DividendCheckpoint.sol\";\r\n\r\n/**\r\n * @title Checkpoint module for issuing ether dividends\r\n */\r\ncontract EtherDividendCheckpoint is DividendCheckpoint {\r\n    using SafeMath for uint256;\r\n\r\n    event EtherDividendDeposited(address indexed _depositor, uint256 _checkpointId, uint256 _created, uint256 _maturity, uint256 _expiry, uint256 _amount, uint256 _totalSupply, uint256 _dividendIndex, bytes32 indexed _name);\r\n    event EtherDividendClaimed(address indexed _payee, uint256 _dividendIndex, uint256 _amount, uint256 _withheld);\r\n    event EtherDividendReclaimed(address indexed _claimer, uint256 _dividendIndex, uint256 _claimedAmount);\r\n    event EtherDividendClaimFailed(address indexed _payee, uint256 _dividendIndex, uint256 _amount, uint256 _withheld);\r\n    event EtherDividendWithholdingWithdrawn(address indexed _claimer, uint256 _dividendIndex, uint256 _withheldAmount);\r\n\r\n    /**\r\n     * @notice Constructor\r\n     * @param _securityToken Address of the security token\r\n     * @param _polyAddress Address of the polytoken\r\n     */\r\n    constructor (address _securityToken, address _polyAddress) public\r\n    Module(_securityToken, _polyAddress)\r\n    {\r\n    }\r\n\r\n    /**\r\n     * @notice Creates a dividend and checkpoint for the dividend, using global list of excluded addresses\r\n     * @param _maturity Time from which dividend can be paid\r\n     * @param _expiry Time until dividend can no longer be paid, and can be reclaimed by issuer\r\n     * @param _name name/title for identification\r\n     */\r\n    function createDividend(uint256 _maturity, uint256 _expiry, bytes32 _name) payable external onlyOwner {\r\n        createDividendWithExclusions(_maturity, _expiry, excluded, _name);\r\n    }\r\n\r\n    /**\r\n     * @notice Creates a dividend with a provided checkpoint, using global list of excluded addresses\r\n     * @param _maturity Time from which dividend can be paid\r\n     * @param _expiry Time until dividend can no longer be paid, and can be reclaimed by issuer\r\n     * @param _checkpointId Id of the checkpoint from which to issue dividend\r\n     * @param _name name/title for identification\r\n     */\r\n    function createDividendWithCheckpoint(uint256 _maturity, uint256 _expiry, uint256 _checkpointId, bytes32 _name) payable external onlyOwner {\r\n        _createDividendWithCheckpointAndExclusions(_maturity, _expiry, _checkpointId, excluded, _name);\r\n    }\r\n\r\n    /**\r\n     * @notice Creates a dividend and checkpoint for the dividend, specifying explicit excluded addresses\r\n     * @param _maturity Time from which dividend can be paid\r\n     * @param _expiry Time until dividend can no longer be paid, and can be reclaimed by issuer\r\n     * @param _excluded List of addresses to exclude\r\n     * @param _name name/title for identification\r\n     */\r\n    function createDividendWithExclusions(uint256 _maturity, uint256 _expiry, address[] _excluded, bytes32 _name) payable public onlyOwner {\r\n        uint256 checkpointId = ISecurityToken(securityToken).createCheckpoint();\r\n        _createDividendWithCheckpointAndExclusions(_maturity, _expiry, checkpointId, _excluded, _name);\r\n    }\r\n\r\n    /**\r\n     * @notice Creates a dividend with a provided checkpoint, specifying explicit excluded addresses\r\n     * @param _maturity Time from which dividend can be paid\r\n     * @param _expiry Time until dividend can no longer be paid, and can be reclaimed by issuer\r\n     * @param _checkpointId Id of the checkpoint from which to issue dividend\r\n     * @param _excluded List of addresses to exclude\r\n     * @param _name name/title for identification\r\n     */\r\n    function createDividendWithCheckpointAndExclusions(\r\n        uint256 _maturity, \r\n        uint256 _expiry, \r\n        uint256 _checkpointId, \r\n        address[] _excluded, \r\n        bytes32 _name\r\n    ) \r\n        payable \r\n        public \r\n        onlyOwner \r\n    {\r\n        _createDividendWithCheckpointAndExclusions(_maturity, _expiry, _checkpointId, _excluded, _name);\r\n    }\r\n\r\n    /**\r\n     * @notice Creates a dividend with a provided checkpoint, specifying explicit excluded addresses\r\n     * @param _maturity Time from which dividend can be paid\r\n     * @param _expiry Time until dividend can no longer be paid, and can be reclaimed by issuer\r\n     * @param _checkpointId Id of the checkpoint from which to issue dividend\r\n     * @param _excluded List of addresses to exclude\r\n     * @param _name name/title for identification\r\n     */\r\n    function _createDividendWithCheckpointAndExclusions(\r\n        uint256 _maturity, \r\n        uint256 _expiry, \r\n        uint256 _checkpointId, \r\n        address[] _excluded, \r\n        bytes32 _name\r\n    ) \r\n        internal\r\n    {\r\n        require(_excluded.length <= EXCLUDED_ADDRESS_LIMIT, \"Too many addresses excluded\");\r\n        require(_expiry > _maturity, \"Expiry is before maturity\");\r\n        require(_expiry > now, \"Expiry is in the past\");\r\n        require(msg.value > 0, \"No dividend sent\");\r\n        require(_checkpointId <= ISecurityToken(securityToken).currentCheckpointId());\r\n        require(_name[0] != 0);\r\n        uint256 dividendIndex = dividends.length;\r\n        uint256 currentSupply = ISecurityToken(securityToken).totalSupplyAt(_checkpointId);\r\n        uint256 excludedSupply = 0;\r\n        for (uint256 i = 0; i < _excluded.length; i++) {\r\n            excludedSupply = excludedSupply.add(ISecurityToken(securityToken).balanceOfAt(_excluded[i], _checkpointId));\r\n        }\r\n        dividends.push(\r\n          Dividend(\r\n            _checkpointId,\r\n            now,\r\n            _maturity,\r\n            _expiry,\r\n            msg.value,\r\n            0,\r\n            currentSupply.sub(excludedSupply),\r\n            false,\r\n            0,\r\n            0,\r\n            _name\r\n          )\r\n        );\r\n        for (uint256 j = 0; j < _excluded.length; j++) {\r\n            dividends[dividends.length - 1].dividendExcluded[_excluded[j]] = true;\r\n        }\r\n        emit EtherDividendDeposited(msg.sender, _checkpointId, now, _maturity, _expiry, msg.value, currentSupply, dividendIndex, _name);\r\n    }\r\n\r\n    /**\r\n     * @notice Internal function for paying dividends\r\n     * @param _payee address of investor\r\n     * @param _dividend storage with previously issued dividends\r\n     * @param _dividendIndex Dividend to pay\r\n     */\r\n    function _payDividend(address _payee, Dividend storage _dividend, uint256 _dividendIndex) internal {\r\n        (uint256 claim, uint256 withheld) = calculateDividend(_dividendIndex, _payee);\r\n        _dividend.claimed[_payee] = true;      \r\n        uint256 claimAfterWithheld = claim.sub(withheld);\r\n        if (claimAfterWithheld > 0) {\r\n            if (_payee.send(claimAfterWithheld)) {\r\n                _dividend.claimedAmount = _dividend.claimedAmount.add(claim);\r\n                _dividend.dividendWithheld = _dividend.dividendWithheld.add(withheld);\r\n                investorWithheld[_payee] = investorWithheld[_payee].add(withheld);\r\n                emit EtherDividendClaimed(_payee, _dividendIndex, claim, withheld);\r\n            } else {\r\n                _dividend.claimed[_payee] = false;\r\n                emit EtherDividendClaimFailed(_payee, _dividendIndex, claim, withheld);\r\n            }\r\n        }\r\n    }\r\n\r\n    /**\r\n     * @notice Issuer can reclaim remaining unclaimed dividend amounts, for expired dividends\r\n     * @param _dividendIndex Dividend to reclaim\r\n     */\r\n    function reclaimDividend(uint256 _dividendIndex) external onlyOwner {\r\n        require(_dividendIndex < dividends.length, \"Incorrect dividend index\");\r\n        require(now >= dividends[_dividendIndex].expiry, \"Dividend expiry is in the future\");\r\n        require(!dividends[_dividendIndex].reclaimed, \"Dividend already claimed\");\r\n        Dividend storage dividend = dividends[_dividendIndex];\r\n        dividend.reclaimed = true;\r\n        uint256 remainingAmount = dividend.amount.sub(dividend.claimedAmount);\r\n        msg.sender.transfer(remainingAmount);\r\n        emit EtherDividendReclaimed(msg.sender, _dividendIndex, remainingAmount);\r\n    }\r\n\r\n    /**\r\n     * @notice Allows issuer to withdraw withheld tax\r\n     * @param _dividendIndex Dividend to withdraw from\r\n     */\r\n    function withdrawWithholding(uint256 _dividendIndex) external onlyOwner {\r\n        require(_dividendIndex < dividends.length, \"Incorrect dividend index\");\r\n        Dividend storage dividend = dividends[_dividendIndex];\r\n        uint256 remainingWithheld = dividend.dividendWithheld.sub(dividend.dividendWithheldReclaimed);\r\n        dividend.dividendWithheldReclaimed = dividend.dividendWithheld;\r\n        msg.sender.transfer(remainingWithheld);\r\n        emit EtherDividendWithholdingWithdrawn(msg.sender, _dividendIndex, remainingWithheld);\r\n    }\r\n\r\n}\r\n",
  "sourcePath": "/Users/rafaelvidaurre/Code/polymath/polymath-apps/packages/polymath-shared/scripts/generateLocalBlockchain/contracts/modules/Checkpoint/EtherDividendCheckpoint.sol",
  "compiler": {
    "name": "solc",
    "version": "0.4.24+commit.e67f0147.Emscripten.clang"
  },
  "schemaVersion": "2.0.1",
  "updatedAt": "2018-10-10T21:31:06.299Z"
}