{
  "contractName": "EtherDividendCheckpoint",
  "abi": [
    {
      "constant": false,
      "inputs": [
        {
          "name": "_amount",
          "type": "uint256"
        }
      ],
      "name": "takeFee",
      "outputs": [
        {
          "name": "",
          "type": "bool"
        }
      ],
      "payable": false,
      "stateMutability": "nonpayable",
      "type": "function"
    },
    {
      "constant": true,
      "inputs": [],
      "name": "polyToken",
      "outputs": [
        {
          "name": "",
          "type": "address"
        }
      ],
      "payable": false,
      "stateMutability": "view",
      "type": "function"
    },
    {
      "constant": true,
      "inputs": [],
      "name": "DISTRIBUTE",
      "outputs": [
        {
          "name": "",
          "type": "bytes32"
        }
      ],
      "payable": false,
      "stateMutability": "view",
      "type": "function"
    },
    {
      "constant": true,
      "inputs": [
        {
          "name": "",
          "type": "uint256"
        }
      ],
      "name": "dividends",
      "outputs": [
        {
          "name": "checkpointId",
          "type": "uint256"
        },
        {
          "name": "created",
          "type": "uint256"
        },
        {
          "name": "maturity",
          "type": "uint256"
        },
        {
          "name": "expiry",
          "type": "uint256"
        },
        {
          "name": "amount",
          "type": "uint256"
        },
        {
          "name": "claimedAmount",
          "type": "uint256"
        },
        {
          "name": "totalSupply",
          "type": "uint256"
        },
        {
          "name": "reclaimed",
          "type": "bool"
        }
      ],
      "payable": false,
      "stateMutability": "view",
      "type": "function"
    },
    {
      "constant": true,
      "inputs": [],
      "name": "securityToken",
      "outputs": [
        {
          "name": "",
          "type": "address"
        }
      ],
      "payable": false,
      "stateMutability": "view",
      "type": "function"
    },
    {
      "constant": true,
      "inputs": [],
      "name": "factory",
      "outputs": [
        {
          "name": "",
          "type": "address"
        }
      ],
      "payable": false,
      "stateMutability": "view",
      "type": "function"
    },
    {
      "constant": true,
      "inputs": [],
      "name": "FEE_ADMIN",
      "outputs": [
        {
          "name": "",
          "type": "bytes32"
        }
      ],
      "payable": false,
      "stateMutability": "view",
      "type": "function"
    },
    {
      "inputs": [
        {
          "name": "_securityToken",
          "type": "address"
        },
        {
          "name": "_polyAddress",
          "type": "address"
        }
      ],
      "payable": false,
      "stateMutability": "nonpayable",
      "type": "constructor"
    },
    {
      "anonymous": false,
      "inputs": [
        {
          "indexed": true,
          "name": "_depositor",
          "type": "address"
        },
        {
          "indexed": false,
          "name": "_checkpointId",
          "type": "uint256"
        },
        {
          "indexed": false,
          "name": "_created",
          "type": "uint256"
        },
        {
          "indexed": false,
          "name": "_maturity",
          "type": "uint256"
        },
        {
          "indexed": false,
          "name": "_expiry",
          "type": "uint256"
        },
        {
          "indexed": false,
          "name": "_amount",
          "type": "uint256"
        },
        {
          "indexed": false,
          "name": "_totalSupply",
          "type": "uint256"
        },
        {
          "indexed": false,
          "name": "_dividendIndex",
          "type": "uint256"
        }
      ],
      "name": "EtherDividendDeposited",
      "type": "event"
    },
    {
      "anonymous": false,
      "inputs": [
        {
          "indexed": true,
          "name": "_payee",
          "type": "address"
        },
        {
          "indexed": false,
          "name": "_dividendIndex",
          "type": "uint256"
        },
        {
          "indexed": false,
          "name": "_amount",
          "type": "uint256"
        }
      ],
      "name": "EtherDividendClaimed",
      "type": "event"
    },
    {
      "anonymous": false,
      "inputs": [
        {
          "indexed": true,
          "name": "_claimer",
          "type": "address"
        },
        {
          "indexed": false,
          "name": "_dividendIndex",
          "type": "uint256"
        },
        {
          "indexed": false,
          "name": "_claimedAmount",
          "type": "uint256"
        }
      ],
      "name": "EtherDividendReclaimed",
      "type": "event"
    },
    {
      "anonymous": false,
      "inputs": [
        {
          "indexed": true,
          "name": "_payee",
          "type": "address"
        },
        {
          "indexed": false,
          "name": "_dividendIndex",
          "type": "uint256"
        },
        {
          "indexed": false,
          "name": "_amount",
          "type": "uint256"
        }
      ],
      "name": "EtherDividendClaimFailed",
      "type": "event"
    },
    {
      "constant": true,
      "inputs": [],
      "name": "getInitFunction",
      "outputs": [
        {
          "name": "",
          "type": "bytes4"
        }
      ],
      "payable": false,
      "stateMutability": "pure",
      "type": "function"
    },
    {
      "constant": false,
      "inputs": [
        {
          "name": "_maturity",
          "type": "uint256"
        },
        {
          "name": "_expiry",
          "type": "uint256"
        }
      ],
      "name": "createDividend",
      "outputs": [],
      "payable": true,
      "stateMutability": "payable",
      "type": "function"
    },
    {
      "constant": false,
      "inputs": [
        {
          "name": "_maturity",
          "type": "uint256"
        },
        {
          "name": "_expiry",
          "type": "uint256"
        },
        {
          "name": "_checkpointId",
          "type": "uint256"
        }
      ],
      "name": "createDividendWithCheckpoint",
      "outputs": [],
      "payable": true,
      "stateMutability": "payable",
      "type": "function"
    },
    {
      "constant": false,
      "inputs": [
        {
          "name": "_dividendIndex",
          "type": "uint256"
        },
        {
          "name": "_payees",
          "type": "address[]"
        }
      ],
      "name": "pushDividendPaymentToAddresses",
      "outputs": [],
      "payable": false,
      "stateMutability": "nonpayable",
      "type": "function"
    },
    {
      "constant": false,
      "inputs": [
        {
          "name": "_dividendIndex",
          "type": "uint256"
        },
        {
          "name": "_start",
          "type": "uint256"
        },
        {
          "name": "_iterations",
          "type": "uint256"
        }
      ],
      "name": "pushDividendPayment",
      "outputs": [],
      "payable": false,
      "stateMutability": "nonpayable",
      "type": "function"
    },
    {
      "constant": false,
      "inputs": [
        {
          "name": "_dividendIndex",
          "type": "uint256"
        }
      ],
      "name": "pullDividendPayment",
      "outputs": [],
      "payable": false,
      "stateMutability": "nonpayable",
      "type": "function"
    },
    {
      "constant": false,
      "inputs": [
        {
          "name": "_dividendIndex",
          "type": "uint256"
        }
      ],
      "name": "reclaimDividend",
      "outputs": [],
      "payable": false,
      "stateMutability": "nonpayable",
      "type": "function"
    },
    {
      "constant": true,
      "inputs": [
        {
          "name": "_dividendIndex",
          "type": "uint256"
        },
        {
          "name": "_payee",
          "type": "address"
        }
      ],
      "name": "calculateDividend",
      "outputs": [
        {
          "name": "",
          "type": "uint256"
        }
      ],
      "payable": false,
      "stateMutability": "view",
      "type": "function"
    },
    {
      "constant": true,
      "inputs": [
        {
          "name": "_checkpointId",
          "type": "uint256"
        }
      ],
      "name": "getDividendIndex",
      "outputs": [
        {
          "name": "",
          "type": "uint256[]"
        }
      ],
      "payable": false,
      "stateMutability": "view",
      "type": "function"
    },
    {
      "constant": true,
      "inputs": [],
      "name": "getPermissions",
      "outputs": [
        {
          "name": "",
          "type": "bytes32[]"
        }
      ],
      "payable": false,
      "stateMutability": "view",
      "type": "function"
    }
  ],
  "bytecode": "0x608060405234801561001057600080fd5b506040516040806122bb83398101604052805160209091015160018054600160a060020a03938416600160a060020a031991821617909155600080548216331790556002805493909216921691909117905561224a806100716000396000f3006080604052600436106100d75763ffffffff60e060020a6000350416631613ec9d81146100dc57806330008b48146101265780634d58e413146101405780635bea0e1c1461019a5780635daff64e146101d05780635f7619a4146102385780635fc6a28e146102645780636faa22a51461027557806380fef5af146102a6578063814b3fe0146102bb578063aa8b76ea14610316578063b84dfbd21461032e578063b9b3ded214610343578063c3a07df614610351578063c45a015514610366578063d70afa961461037b578063e1726faa14610390575b600080fd5b3480156100e857600080fd5b506100f16103ae565b604080517fffffffff000000000000000000000000000000000000000000000000000000009092168252519081900360200190f35b34801561013257600080fd5b5061013e6004356103b3565b005b34801561014c57600080fd5b5060408051602060046024803582810135848102808701860190975280865261013e9684359636966044959194909101929182918501908490808284375094975061064f9650505050505050565b3480156101a657600080fd5b506101be600435600160a060020a0360243516610aa3565b60408051918252519081900360200190f35b3480156101dc57600080fd5b506101e8600435610bcb565b60408051602080825283518183015283519192839290830191858101910280838360005b8381101561022457818101518382015260200161020c565b505050509050019250505060405180910390f35b34801561024457600080fd5b50610250600435610cb0565b604080519115158252519081900360200190f35b61013e600435602435604435610fef565b34801561028157600080fd5b5061028a611377565b60408051600160a060020a039092168252519081900360200190f35b3480156102b257600080fd5b506101be611386565b3480156102c757600080fd5b506102d3600435611398565b604080519889526020890197909752878701959095526060870193909352608086019190915260a085015260c0840152151560e083015251908190036101000190f35b34801561032257600080fd5b5061013e6004356113ef565b34801561033a57600080fd5b5061028a6116c5565b61013e6004356024356116d4565b34801561035d57600080fd5b506101e8611a5b565b34801561037257600080fd5b5061028a611aad565b34801561038757600080fd5b506101be611abc565b34801561039c57600080fd5b5061013e600435602435604435611ae0565b600090565b600354600090829081106103ff576040805160e560020a62461bcd02815260206004820152601860248201526000805160206121ff833981519152604482015290519081900360640190fd5b600380548290811061040d57fe5b906000526020600020906009020160020154421015151561049e576040805160e560020a62461bcd02815260206004820152602260248201527f4469766964656e64206d6174757269747920697320696e20746865206675747560448201527f7265000000000000000000000000000000000000000000000000000000000000606482015290519081900360840190fd5b60038054829081106104ac57fe5b90600052602060002090600902016003015442101515610516576040805160e560020a62461bcd02815260206004820152601e60248201527f4469766964656e642065787069727920697320696e2074686520706173740000604482015290519081900360640190fd5b600380548290811061052457fe5b600091825260209091206007600990920201015460ff16156105b6576040805160e560020a62461bcd02815260206004820152602560248201527f4469766964656e6420686173206265656e207265636c61696d6564206279206960448201527f7373756572000000000000000000000000000000000000000000000000000000606482015290519081900360840190fd5b60038054849081106105c457fe5b600091825260208083203384526008600990930201918201905260409091205490925060ff161561063f576040805160e560020a62461bcd02815260206004820152601a60248201527f4469766964656e6420616c7265616479207265636c61696d6564000000000000604482015290519081900360640190fd5b61064a338385612034565b505050565b6000806000805160206121df833981519152600080600160009054906101000a9004600160a060020a0316600160a060020a0316638da5cb5b6040518163ffffffff1660e060020a028152600401602060405180830381600087803b1580156106b757600080fd5b505af11580156106cb573d6000803e3d6000fd5b505050506040513d60208110156106e157600080fd5b505160005433600160a060020a0392831681149450911614905081806107045750805b806107aa5750600154604080517f8658b8b9000000000000000000000000000000000000000000000000000000008152336004820152306024820152604481018690529051600160a060020a0390921691638658b8b9916064808201926020929091908290030181600087803b15801561077d57600080fd5b505af1158015610791573d6000803e3d6000fd5b505050506040513d60208110156107a757600080fd5b50515b1515610800576040805160e560020a62461bcd02815260206004820152601760248201527f5065726d697373696f6e20636865636b206661696c6564000000000000000000604482015290519081900360640190fd5b60035487908110610849576040805160e560020a62461bcd02815260206004820152601860248201526000805160206121ff833981519152604482015290519081900360640190fd5b600380548290811061085757fe5b90600052602060002090600902016002015442101515156108e8576040805160e560020a62461bcd02815260206004820152602260248201527f4469766964656e64206d6174757269747920697320696e20746865206675747560448201527f7265000000000000000000000000000000000000000000000000000000000000606482015290519081900360840190fd5b60038054829081106108f657fe5b90600052602060002090600902016003015442101515610960576040805160e560020a62461bcd02815260206004820152601e60248201527f4469766964656e642065787069727920697320696e2074686520706173740000604482015290519081900360640190fd5b600380548290811061096e57fe5b600091825260209091206007600990920201015460ff1615610a00576040805160e560020a62461bcd02815260206004820152602560248201527f4469766964656e6420686173206265656e207265636c61696d6564206279206960448201527f7373756572000000000000000000000000000000000000000000000000000000606482015290519081900360840190fd5b6003805489908110610a0e57fe5b90600052602060002090600902019550600094505b8651851015610a99578560080160008887815181101515610a4057fe5b6020908102909101810151600160a060020a031682528101919091526040016000205460ff161515610a8e57610a8e8786815181101515610a7d57fe5b90602001906020020151878a612034565b600190940193610a23565b5050505050505050565b6000806000600385815481101515610ab757fe5b60009182526020808320600160a060020a03881684526008600990930201918201905260409091205490925060ff1615610af45760009250610bc3565b6001548254604080517f4ee2cd7e000000000000000000000000000000000000000000000000000000008152600160a060020a038881166004830152602482019390935290519190921691634ee2cd7e9160448083019260209291908290030181600087803b158015610b6657600080fd5b505af1158015610b7a573d6000803e3d6000fd5b505050506040513d6020811015610b9057600080fd5b505160068301546004840154919250610bc091610bb490849063ffffffff61216316565b9063ffffffff61219216565b92505b505092915050565b606060008082815b600354831015610c175785600384815481101515610bed57fe5b9060005260206000209060090201600001541415610c0c576001909301925b600190920191610bd3565b83604051908082528060200260200182016040528015610c41578160200160208202803883390190505b50915060009350600090505b600354811015610ca75785600382815481101515610c6757fe5b9060005260206000209060090201600001541415610c9f57808285815181101515610c8e57fe5b602090810290910101526001909301925b600101610c4d565b50949350505050565b60007f4645455f41444d494e0000000000000000000000000000000000000000000000600080600160009054906101000a9004600160a060020a0316600160a060020a0316638da5cb5b6040518163ffffffff1660e060020a028152600401602060405180830381600087803b158015610d2957600080fd5b505af1158015610d3d573d6000803e3d6000fd5b505050506040513d6020811015610d5357600080fd5b505160005433600160a060020a039283168114945091161490508180610d765750805b80610e1c5750600154604080517f8658b8b9000000000000000000000000000000000000000000000000000000008152336004820152306024820152604481018690529051600160a060020a0390921691638658b8b9916064808201926020929091908290030181600087803b158015610def57600080fd5b505af1158015610e03573d6000803e3d6000fd5b505050506040513d6020811015610e1957600080fd5b50515b1515610e72576040805160e560020a62461bcd02815260206004820152601760248201527f5065726d697373696f6e20636865636b206661696c6564000000000000000000604482015290519081900360640190fd5b60025460008054604080517f8da5cb5b0000000000000000000000000000000000000000000000000000000081529051600160a060020a03948516946323b872dd94309490911692638da5cb5b9260048083019360209383900390910190829087803b158015610ee157600080fd5b505af1158015610ef5573d6000803e3d6000fd5b505050506040513d6020811015610f0b57600080fd5b50516040805160e060020a63ffffffff8616028152600160a060020a039384166004820152929091166024830152604482018990525160648083019260209291908290030181600087803b158015610f6257600080fd5b505af1158015610f76573d6000803e3d6000fd5b505050506040513d6020811015610f8c57600080fd5b50511515610fe4576040805160e560020a62461bcd02815260206004820152601260248201527f556e61626c6520746f2074616b65206665650000000000000000000000000000604482015290519081900360640190fd5b506001949350505050565b600080600160009054906101000a9004600160a060020a0316600160a060020a0316638da5cb5b6040518163ffffffff1660e060020a028152600401602060405180830381600087803b15801561104557600080fd5b505af1158015611059573d6000803e3d6000fd5b505050506040513d602081101561106f57600080fd5b5051600160a060020a031633146110d0576040805160e560020a62461bcd02815260206004820152601360248201527f53656e646572206973206e6f74206f776e657200000000000000000000000000604482015290519081900360640190fd5b8484116110dc57600080fd5b4284116110e857600080fd5b600034116110f557600080fd5b600160009054906101000a9004600160a060020a0316600160a060020a0316635488cc806040518163ffffffff1660e060020a028152600401602060405180830381600087803b15801561114857600080fd5b505af115801561115c573d6000803e3d6000fd5b505050506040513d602081101561117257600080fd5b505183111561118057600080fd5b600354600154604080517f981b24d0000000000000000000000000000000000000000000000000000000008152600481018790529051929450600160a060020a039091169163981b24d0916024808201926020929091908290030181600087803b1580156111ed57600080fd5b505af1158015611201573d6000803e3d6000fd5b505050506040513d602081101561121757600080fd5b81019080805190602001909291905050509050600361010060405190810160405280858152602001428152602001878152602001868152602001348152602001600081526020018381526020016000151581525090806001815401808255809150509060018203906000526020600020906009020160009091929091909150600082015181600001556020820151816001015560408201518160020155606082015181600301556080820151816004015560a0820151816005015560c0820151816006015560e08201518160070160006101000a81548160ff02191690831515021790555050505033600160a060020a03167fb433e92ef797d780cbb7fb72acd0cb46810598f52b65aaea374d930fa6a4441b844288883487896040518088815260200187815260200186815260200185815260200184815260200183815260200182815260200197505050505050505060405180910390a25050505050565b600254600160a060020a031681565b6000805160206121df83398151915281565b60038054829081106113a657fe5b6000918252602090912060099091020180546001820154600283015460038401546004850154600586015460068701546007909701549597509395929491939092909160ff1688565b600080600160009054906101000a9004600160a060020a0316600160a060020a0316638da5cb5b6040518163ffffffff1660e060020a028152600401602060405180830381600087803b15801561144557600080fd5b505af1158015611459573d6000803e3d6000fd5b505050506040513d602081101561146f57600080fd5b5051600160a060020a031633146114d0576040805160e560020a62461bcd02815260206004820152601360248201527f53656e646572206973206e6f74206f776e657200000000000000000000000000604482015290519081900360640190fd5b6003548310611517576040805160e560020a62461bcd02815260206004820152601860248201526000805160206121ff833981519152604482015290519081900360640190fd5b600380548490811061152557fe5b9060005260206000209060090201600301544210151515611590576040805160e560020a62461bcd02815260206004820181905260248201527f4469766964656e642065787069727920697320696e2074686520667574757265604482015290519081900360640190fd5b600380548490811061159e57fe5b600091825260209091206007600990920201015460ff161561160a576040805160e560020a62461bcd02815260206004820152601860248201527f4469766964656e6420616c726561647920636c61696d65640000000000000000604482015290519081900360640190fd5b600380548490811061161857fe5b600091825260209091206007600990920201908101805460ff1916600117905560058101546004820154919350611655919063ffffffff6121a716565b604051909150339082156108fc029083906000818181858888f19350505050158015611685573d6000803e3d6000fd5b506040805184815260208101839052815133927fcd202b969101d293ad6e4c4053b46f2bf4698ca22abcb130dc24fa3baca0dee1928290030190a2505050565b600154600160a060020a031681565b6000806000600160009054906101000a9004600160a060020a0316600160a060020a0316638da5cb5b6040518163ffffffff1660e060020a028152600401602060405180830381600087803b15801561172c57600080fd5b505af1158015611740573d6000803e3d6000fd5b505050506040513d602081101561175657600080fd5b5051600160a060020a031633146117b7576040805160e560020a62461bcd02815260206004820152601360248201527f53656e646572206973206e6f74206f776e657200000000000000000000000000604482015290519081900360640190fd5b8484116117c357600080fd5b4284116117cf57600080fd5b600034116117dc57600080fd5b600354600154604080517fff0b9c900000000000000000000000000000000000000000000000000000000081529051929550600160a060020a039091169163ff0b9c90916004808201926020929091908290030181600087803b15801561184257600080fd5b505af1158015611856573d6000803e3d6000fd5b505050506040513d602081101561186c57600080fd5b5051600154604080517f18160ddd0000000000000000000000000000000000000000000000000000000081529051929450600160a060020a03909116916318160ddd916004808201926020929091908290030181600087803b1580156118d157600080fd5b505af11580156118e5573d6000803e3d6000fd5b505050506040513d60208110156118fb57600080fd5b81019080805190602001909291905050509050600361010060405190810160405280848152602001428152602001878152602001868152602001348152602001600081526020018381526020016000151581525090806001815401808255809150509060018203906000526020600020906009020160009091929091909150600082015181600001556020820151816001015560408201518160020155606082015181600301556080820151816004015560a0820151816005015560c0820151816006015560e08201518160070160006101000a81548160ff02191690831515021790555050505033600160a060020a03167fb433e92ef797d780cbb7fb72acd0cb46810598f52b65aaea374d930fa6a4441b8342888834878a6040518088815260200187815260200186815260200185815260200184815260200183815260200182815260200197505050505050505060405180910390a25050505050565b604080516001808252818301909252606091829190602080830190803883390190505090506000805160206121df833981519152816000815181101515611a9e57fe5b60209081029091010152905090565b600054600160a060020a031681565b7f4645455f41444d494e000000000000000000000000000000000000000000000081565b6000806000806000805160206121df833981519152600080600160009054906101000a9004600160a060020a0316600160a060020a0316638da5cb5b6040518163ffffffff1660e060020a028152600401602060405180830381600087803b158015611b4b57600080fd5b505af1158015611b5f573d6000803e3d6000fd5b505050506040513d6020811015611b7557600080fd5b505160005433600160a060020a039283168114945091161490508180611b985750805b80611c3e5750600154604080517f8658b8b9000000000000000000000000000000000000000000000000000000008152336004820152306024820152604481018690529051600160a060020a0390921691638658b8b9916064808201926020929091908290030181600087803b158015611c1157600080fd5b505af1158015611c25573d6000803e3d6000fd5b505050506040513d6020811015611c3b57600080fd5b50515b1515611c94576040805160e560020a62461bcd02815260206004820152601760248201527f5065726d697373696f6e20636865636b206661696c6564000000000000000000604482015290519081900360640190fd5b6003548a908110611cdd576040805160e560020a62461bcd02815260206004820152601860248201526000805160206121ff833981519152604482015290519081900360640190fd5b6003805482908110611ceb57fe5b9060005260206000209060090201600201544210151515611d7c576040805160e560020a62461bcd02815260206004820152602260248201527f4469766964656e64206d6174757269747920697320696e20746865206675747560448201527f7265000000000000000000000000000000000000000000000000000000000000606482015290519081900360840190fd5b6003805482908110611d8a57fe5b90600052602060002090600902016003015442101515611df4576040805160e560020a62461bcd02815260206004820152601e60248201527f4469766964656e642065787069727920697320696e2074686520706173740000604482015290519081900360640190fd5b6003805482908110611e0257fe5b600091825260209091206007600990920201015460ff1615611e94576040805160e560020a62461bcd02815260206004820152602560248201527f4469766964656e6420686173206265656e207265636c61696d6564206279206960448201527f7373756572000000000000000000000000000000000000000000000000000000606482015290519081900360840190fd5b600380548c908110611ea257fe5b90600052602060002090600902019750600160009054906101000a9004600160a060020a0316600160a060020a031663e3cc65e26040518163ffffffff1660e060020a028152600401602060405180830381600087803b158015611f0557600080fd5b505af1158015611f19573d6000803e3d6000fd5b505050506040513d6020811015611f2f57600080fd5b505196508995505b611f5087611f4b8c8c63ffffffff6121b916565b6121c6565b86101561202757600154604080517f3feb5f2b000000000000000000000000000000000000000000000000000000008152600481018990529051600160a060020a0390921691633feb5f2b916024808201926020929091908290030181600087803b158015611fbe57600080fd5b505af1158015611fd2573d6000803e3d6000fd5b505050506040513d6020811015611fe857600080fd5b5051600160a060020a038116600090815260088a01602052604090205490955060ff16151561201c5761201c85898d612034565b600190950194611f37565b5050505050505050505050565b60006120408285610aa3565b600160a060020a03851660009081526008850160205260409020805460ff19166001179055600584015490915061207e90829063ffffffff6121b916565b6005840155600081111561215d57604051600160a060020a0385169082156108fc029083906000818181858888f19350505050156120fe5760408051838152602081018390528151600160a060020a038716927f3727919a1862a5c3b2ded34e6d05c509537fb302f8b29d89bff5672bd3e86fe0928290030190a261215d565b600160a060020a0384166000818152600885016020908152604091829020805460ff19169055815185815290810184905281517f2c0085c7e38441531918ee99d0dbf1102f84a4e5b1c3a506c3f2e8a4e5f81783929181900390910190a25b50505050565b60008215156121745750600061218c565b5081810281838281151561218457fe5b041461218c57fe5b92915050565b6000818381151561219f57fe5b049392505050565b6000828211156121b357fe5b50900390565b8181018281101561218c57fe5b60008183106121d557816121d7565b825b939250505056004449535452494255544500000000000000000000000000000000000000000000496e636f7272656374206469766964656e6420696e6465780000000000000000a165627a7a723058204984f7c1763f2a8a9f4ab26411bcc39f9034b530f15bfc9e37c0da1755588d280029",
  "source": "pragma solidity ^0.4.24;\n\nimport \"./ICheckpoint.sol\";\nimport \"../../interfaces/ISecurityToken.sol\";\nimport \"openzeppelin-solidity/contracts/math/SafeMath.sol\";\nimport \"openzeppelin-solidity/contracts/math/Math.sol\";\n\n/////////////////////\n// Module permissions\n/////////////////////\n//                                        Owner       DISTRIBUTE\n// pushDividendPaymentToAddresses           X               X\n// pushDividendPayment                      X               X\n// createDividend                           X\n// createDividendWithCheckpoint             X\n// reclaimDividend                          X\n\n/**\n * @title Checkpoint module for issuing ether dividends\n */\ncontract EtherDividendCheckpoint is ICheckpoint {\n    using SafeMath for uint256;\n\n    bytes32 public constant DISTRIBUTE = \"DISTRIBUTE\";\n\n    struct Dividend {\n      uint256 checkpointId;\n      uint256 created; // Time at which the dividend was created\n      uint256 maturity; // Time after which dividend can be claimed - set to 0 to bypass\n      uint256 expiry;  // Time until which dividend can be claimed - after this time any remaining amount can be withdrawn by issuer - set to very high value to bypass\n      uint256 amount; // Dividend amount in WEI\n      uint256 claimedAmount; // Amount of dividend claimed so far\n      uint256 totalSupply; // Total supply at the associated checkpoint (avoids recalculating this)\n      bool reclaimed;\n      mapping (address => bool) claimed; // List of addresses which have claimed dividend\n    }\n\n    // List of all dividends\n    Dividend[] public dividends;\n\n    event EtherDividendDeposited(address indexed _depositor, uint256 _checkpointId, uint256 _created, uint256 _maturity, uint256 _expiry, uint256 _amount, uint256 _totalSupply, uint256 _dividendIndex);\n    event EtherDividendClaimed(address indexed _payee, uint256 _dividendIndex, uint256 _amount);\n    event EtherDividendReclaimed(address indexed _claimer, uint256 _dividendIndex, uint256 _claimedAmount);\n    event EtherDividendClaimFailed(address indexed _payee, uint256 _dividendIndex, uint256 _amount);\n\n    modifier validDividendIndex(uint256 _dividendIndex) {\n        require(_dividendIndex < dividends.length, \"Incorrect dividend index\");\n        require(now >= dividends[_dividendIndex].maturity, \"Dividend maturity is in the future\");\n        require(now < dividends[_dividendIndex].expiry, \"Dividend expiry is in the past\");\n        require(!dividends[_dividendIndex].reclaimed, \"Dividend has been reclaimed by issuer\");\n        _;\n    }\n\n    /**\n     * @notice Constructor\n     * @param _securityToken Address of the security token\n     * @param _polyAddress Address of the polytoken\n     */\n    constructor (address _securityToken, address _polyAddress) public\n    IModule(_securityToken, _polyAddress)\n    {\n    }\n\n    /**\n    * @notice Init function i.e generalise function to maintain the structure of the module contract\n    * @return bytes4\n    */\n    function getInitFunction() public pure returns (bytes4) {\n        return bytes4(0);\n    }\n\n    /**\n     * @notice Creates a dividend and checkpoint for the dividend\n     * @param _maturity Time from which dividend can be paid\n     * @param _expiry Time until dividend can no longer be paid, and can be reclaimed by issuer\n     */\n    function createDividend(uint256 _maturity, uint256 _expiry) payable public onlyOwner {\n        require(_expiry > _maturity);\n        require(_expiry > now);\n        require(msg.value > 0);\n        uint256 dividendIndex = dividends.length;\n        uint256 checkpointId = ISecurityToken(securityToken).createCheckpoint();\n        uint256 currentSupply = ISecurityToken(securityToken).totalSupply();\n        dividends.push(\n          Dividend(\n            checkpointId,\n            now,\n            _maturity,\n            _expiry,\n            msg.value,\n            0,\n            currentSupply,\n            false\n          )\n        );\n        emit EtherDividendDeposited(msg.sender, checkpointId, now, _maturity, _expiry, msg.value, currentSupply, dividendIndex);\n    }\n\n    /**\n     * @notice Creates a dividend with a provided checkpoint\n     * @param _maturity Time from which dividend can be paid\n     * @param _expiry Time until dividend can no longer be paid, and can be reclaimed by issuer\n     * @param _checkpointId Id of the checkpoint from which to issue dividend\n     */\n    function createDividendWithCheckpoint(uint256 _maturity, uint256 _expiry, uint256 _checkpointId) payable public onlyOwner {\n        require(_expiry > _maturity);\n        require(_expiry > now);\n        require(msg.value > 0);\n        require(_checkpointId <= ISecurityToken(securityToken).currentCheckpointId());\n        uint256 dividendIndex = dividends.length;\n        uint256 currentSupply = ISecurityToken(securityToken).totalSupplyAt(_checkpointId);\n        dividends.push(\n          Dividend(\n            _checkpointId,\n            now,\n            _maturity,\n            _expiry,\n            msg.value,\n            0,\n            currentSupply,\n            false\n          )\n        );\n        emit EtherDividendDeposited(msg.sender, _checkpointId, now, _maturity, _expiry, msg.value, currentSupply, dividendIndex);\n    }\n\n    /**\n     * @notice Issuer can push dividends to provided addresses\n     * @param _dividendIndex Dividend to push\n     * @param _payees Addresses to which to push the dividend\n     */\n    function pushDividendPaymentToAddresses(uint256 _dividendIndex, address[] _payees) public withPerm(DISTRIBUTE) validDividendIndex(_dividendIndex) {\n        Dividend storage dividend = dividends[_dividendIndex];\n        for (uint256 i = 0; i < _payees.length; i++) {\n            if (!dividend.claimed[_payees[i]]) {\n                _payDividend(_payees[i], dividend, _dividendIndex);\n            }\n        }\n    }\n\n    /**\n     * @notice Issuer can push dividends using the investor list from the security token\n     * @param _dividendIndex Dividend to push\n     * @param _start Index in investor list at which to start pushing dividends\n     * @param _iterations Number of addresses to push dividends for\n     */\n    function pushDividendPayment(uint256 _dividendIndex, uint256 _start, uint256 _iterations) public withPerm(DISTRIBUTE) validDividendIndex(_dividendIndex) {\n        Dividend storage dividend = dividends[_dividendIndex];\n        uint256 numberInvestors = ISecurityToken(securityToken).getInvestorsLength();\n        for (uint256 i = _start; i < Math.min256(numberInvestors, _start.add(_iterations)); i++) {\n            address payee = ISecurityToken(securityToken).investors(i);\n            if (!dividend.claimed[payee]) {\n                _payDividend(payee, dividend, _dividendIndex);\n            }\n        }\n    }\n\n    /**\n     * @notice Investors can pull their own dividends\n     * @param _dividendIndex Dividend to pull\n     */\n    function pullDividendPayment(uint256 _dividendIndex) public validDividendIndex(_dividendIndex)\n    {\n        Dividend storage dividend = dividends[_dividendIndex];\n        require(!dividend.claimed[msg.sender], \"Dividend already reclaimed\");\n        _payDividend(msg.sender, dividend, _dividendIndex);\n    }\n\n    /**\n     * @notice Internal function for paying dividends\n     * @param _payee address of investor\n     * @param _dividend storage with previously issued dividends\n     * @param _dividendIndex Dividend to pay\n     */\n    function _payDividend(address _payee, Dividend storage _dividend, uint256 _dividendIndex) internal {\n        uint256 claim = calculateDividend(_dividendIndex, _payee);\n        _dividend.claimed[_payee] = true;\n        _dividend.claimedAmount = claim.add(_dividend.claimedAmount);\n        if (claim > 0) {\n            if (_payee.send(claim)) {\n              emit EtherDividendClaimed(_payee, _dividendIndex, claim);\n            } else {\n              _dividend.claimed[_payee] = false;\n              emit EtherDividendClaimFailed(_payee, _dividendIndex, claim);\n            }\n        }\n    }\n\n    /**\n     * @notice Issuer can reclaim remaining unclaimed dividend amounts, for expired dividends\n     * @param _dividendIndex Dividend to reclaim\n     */\n    function reclaimDividend(uint256 _dividendIndex) public onlyOwner {\n        require(_dividendIndex < dividends.length, \"Incorrect dividend index\");\n        require(now >= dividends[_dividendIndex].expiry, \"Dividend expiry is in the future\");\n        require(!dividends[_dividendIndex].reclaimed, \"Dividend already claimed\");\n        Dividend storage dividend = dividends[_dividendIndex];\n        dividend.reclaimed = true;\n        uint256 remainingAmount = dividend.amount.sub(dividend.claimedAmount);\n        msg.sender.transfer(remainingAmount);\n        emit EtherDividendReclaimed(msg.sender, _dividendIndex, remainingAmount);\n    }\n\n    /**\n     * @notice Calculate amount of dividends claimable\n     * @param _dividendIndex Dividend to calculate\n     * @param _payee Affected investor address\n     * @return unit256\n     */\n    function calculateDividend(uint256 _dividendIndex, address _payee) public view returns(uint256) {\n        Dividend storage dividend = dividends[_dividendIndex];\n        if (dividend.claimed[_payee]) {\n            return 0;\n        }\n        uint256 balance = ISecurityToken(securityToken).balanceOfAt(_payee, dividend.checkpointId);\n        return balance.mul(dividend.amount).div(dividend.totalSupply);\n    }\n\n    /**\n     * @notice Get the index according to the checkpoint id\n     * @param _checkpointId Checkpoint id to query\n     * @return uint256\n     */\n    function getDividendIndex(uint256 _checkpointId) public view returns(uint256[]) {\n        uint256 counter = 0;\n        for(uint256 i = 0; i < dividends.length; i++) {\n            if (dividends[i].checkpointId == _checkpointId) {\n                counter++;\n            }\n        }\n\n       uint256[] memory index = new uint256[](counter);\n       counter = 0;\n       for(uint256 j = 0; j < dividends.length; j++) {\n           if (dividends[j].checkpointId == _checkpointId) {\n               index[counter] = j;\n               counter++;\n           }\n       }\n       return index;\n    }\n\n    /**\n     * @notice Return the permissions flag that are associated with STO\n     * @return bytes32 array\n     */\n    function getPermissions() public view returns(bytes32[]) {\n        bytes32[] memory allPermissions = new bytes32[](1);\n        allPermissions[0] = DISTRIBUTE;\n        return allPermissions;\n    }\n\n}\n",
  "sourcePath": "/Users/rafaelvidaurre/Code/polymath/polymath-apps/packages/polymath-shared/scripts/generateLocalBlockchain/contracts/modules/Checkpoint/EtherDividendCheckpoint.sol",
  "compiler": {
    "name": "solc",
    "version": "0.4.24+commit.e67f0147.Emscripten.clang"
  },
  "schemaVersion": "2.0.1",
  "updatedAt": "2018-10-18T19:17:46.351Z"
}