{
  "contractName": "FeatureRegistry",
  "abi": [
    {
      "constant": false,
      "inputs": [],
      "name": "renounceOwnership",
      "outputs": [],
      "payable": false,
      "stateMutability": "nonpayable",
      "type": "function"
    },
    {
      "constant": false,
      "inputs": [
        {
          "name": "_tokenContract",
          "type": "address"
        }
      ],
      "name": "reclaimERC20",
      "outputs": [],
      "payable": false,
      "stateMutability": "nonpayable",
      "type": "function"
    },
    {
      "constant": true,
      "inputs": [],
      "name": "owner",
      "outputs": [
        {
          "name": "",
          "type": "address"
        }
      ],
      "payable": false,
      "stateMutability": "view",
      "type": "function"
    },
    {
      "constant": true,
      "inputs": [
        {
          "name": "",
          "type": "bytes32"
        }
      ],
      "name": "featureStatus",
      "outputs": [
        {
          "name": "",
          "type": "bool"
        }
      ],
      "payable": false,
      "stateMutability": "view",
      "type": "function"
    },
    {
      "constant": false,
      "inputs": [
        {
          "name": "_newOwner",
          "type": "address"
        }
      ],
      "name": "transferOwnership",
      "outputs": [],
      "payable": false,
      "stateMutability": "nonpayable",
      "type": "function"
    },
    {
      "anonymous": false,
      "inputs": [
        {
          "indexed": false,
          "name": "_nameKey",
          "type": "string"
        },
        {
          "indexed": false,
          "name": "_newStatus",
          "type": "bool"
        }
      ],
      "name": "ChangeFeatureStatus",
      "type": "event"
    },
    {
      "anonymous": false,
      "inputs": [
        {
          "indexed": true,
          "name": "previousOwner",
          "type": "address"
        }
      ],
      "name": "OwnershipRenounced",
      "type": "event"
    },
    {
      "anonymous": false,
      "inputs": [
        {
          "indexed": true,
          "name": "previousOwner",
          "type": "address"
        },
        {
          "indexed": true,
          "name": "newOwner",
          "type": "address"
        }
      ],
      "name": "OwnershipTransferred",
      "type": "event"
    },
    {
      "constant": true,
      "inputs": [
        {
          "name": "_nameKey",
          "type": "string"
        }
      ],
      "name": "getFeatureStatus",
      "outputs": [
        {
          "name": "",
          "type": "bool"
        }
      ],
      "payable": false,
      "stateMutability": "view",
      "type": "function"
    },
    {
      "constant": false,
      "inputs": [
        {
          "name": "_nameKey",
          "type": "string"
        },
        {
          "name": "_newStatus",
          "type": "bool"
        }
      ],
      "name": "setFeatureStatus",
      "outputs": [],
      "payable": false,
      "stateMutability": "nonpayable",
      "type": "function"
    }
  ],
  "bytecode": "0x608060405260008054600160a060020a03191633179055610680806100256000396000f3006080604052600436106100825763ffffffff7c01000000000000000000000000000000000000000000000000000000006000350416632f0019f28114610087578063715018a6146100bb5780638905fd4f146100d25780638da5cb5b146100f3578063e43c408314610124578063f29832571461013c578063f2fde38b14610199575b600080fd5b34801561009357600080fd5b506100a760048035602481019101356101ba565b604080519115158252519081900360200190f35b3480156100c757600080fd5b506100d06101f4565b005b3480156100de57600080fd5b506100d0600160a060020a0360043516610260565b3480156100ff57600080fd5b506101086103cf565b60408051600160a060020a039092168252519081900360200190f35b34801561013057600080fd5b506100a76004356103de565b34801561014857600080fd5b506040805160206004803580820135601f81018490048402850184019095528484526100d09436949293602493928401919081908401838280828437509497505050509135151592506103f3915050565b3480156101a557600080fd5b506100d0600160a060020a03600435166105b4565b6000808383604051808383808284376040805191909301819003902060009081526001602052919091205460ff1698975050505050505050565b600054600160a060020a0316331461020b57600080fd5b60008054604051600160a060020a03909116917ff8df31144d9c2f0f6b59d69b8b98abd5459d07f2742c4df920b25aae33c6482091a26000805473ffffffffffffffffffffffffffffffffffffffff19169055565b600080548190600160a060020a0316331461027a57600080fd5b600160a060020a038316151561028f57600080fd5b604080517f70a082310000000000000000000000000000000000000000000000000000000081523060048201529051849350600160a060020a038416916370a082319160248083019260209291908290030181600087803b1580156102f357600080fd5b505af1158015610307573d6000803e3d6000fd5b505050506040513d602081101561031d57600080fd5b505160008054604080517fa9059cbb000000000000000000000000000000000000000000000000000000008152600160a060020a0392831660048201526024810185905290519394509085169263a9059cbb92604480840193602093929083900390910190829087803b15801561039357600080fd5b505af11580156103a7573d6000803e3d6000fd5b505050506040513d60208110156103bd57600080fd5b505115156103ca57600080fd5b505050565b600054600160a060020a031681565b60016020526000908152604090205460ff1681565b60008054600160a060020a0316331461040b57600080fd5b826040518082805190602001908083835b6020831061043b5780518252601f19909201916020918201910161041c565b51815160001960209485036101000a019081169019919091161790526040805194909201849003909320600081815260019094529220549194505060ff161515841515141591506104ef905057604080517f08c379a000000000000000000000000000000000000000000000000000000000815260206004820152601060248201527f53746174757320756e6368616e67656400000000000000000000000000000000604482015290519081900360640190fd5b7fc4f204a5636d7eb3ef39174170beec580582233e28bc6c20a7458fd3209d08b88383604051808060200183151515158152602001828103825284818151815260200191508051906020019080838360005b83811015610559578181015183820152602001610541565b50505050905090810190601f1680156105865780820380516001836020036101000a031916815260200191505b50935050505060405180910390a16000908152600160205260409020805460ff191691151591909117905550565b600054600160a060020a031633146105cb57600080fd5b6105d4816105d7565b50565b600160a060020a03811615156105ec57600080fd5b60008054604051600160a060020a03808516939216917f8be0079c531659141344cd1fd0a4f28419497f9722a3daafe3b4186f6b6457e091a36000805473ffffffffffffffffffffffffffffffffffffffff1916600160a060020a03929092169190911790555600a165627a7a723058207b6fb2fe4e40f9a7ea7a6094766753c0a335d460810a12bd1c1e9393a9ced9220029",
  "source": "pragma solidity ^0.4.24;\n\nimport \"./ReclaimTokens.sol\";\nimport \"./interfaces/IFeatureRegistry.sol\";\n\n/**\n * @title Registry for managing polymath feature switches\n */\ncontract FeatureRegistry is IFeatureRegistry, ReclaimTokens {\n\n    mapping (bytes32 => bool) public featureStatus;\n\n    event ChangeFeatureStatus(string _nameKey, bool _newStatus);\n\n    /**\n     * @notice Get the status of a feature\n     * @param _nameKey is the key for the feature status mapping\n     * @return bool\n     */\n    function getFeatureStatus(string _nameKey) external view returns(bool) {\n        bytes32 key = keccak256(bytes(_nameKey));\n        return featureStatus[key];\n    }\n\n    /**\n     * @notice change a feature status\n     * @dev feature status is set to false by default\n     * @param _nameKey is the key for the feature status mapping\n     * @param _newStatus is the new feature status\n     */\n    function setFeatureStatus(string _nameKey, bool _newStatus) public onlyOwner {\n        bytes32 key = keccak256(bytes(_nameKey));\n        require(featureStatus[key] != _newStatus, \"Status unchanged\");\n        emit ChangeFeatureStatus(_nameKey, _newStatus);\n        featureStatus[key] = _newStatus;\n    }\n\n}\n",
  "sourcePath": "/Users/rafaelvidaurre/Code/polymath/polymath-apps/packages/polymath-shared/scripts/generateLocalBlockchain/contracts/FeatureRegistry.sol",
  "compiler": {
    "name": "solc",
    "version": "0.4.24+commit.e67f0147.Emscripten.clang"
  },
  "schemaVersion": "2.0.1",
  "updatedAt": "2018-10-18T21:45:47.853Z"
}