{
  "contractName": "GeneralPermissionManagerFactory",
  "abi": [
    {
      "constant": true,
      "inputs": [],
      "name": "monthlySubscriptionCost",
      "outputs": [
        {
          "name": "",
          "type": "uint256"
        }
      ],
      "payable": false,
      "stateMutability": "view",
      "type": "function"
    },
    {
      "constant": false,
      "inputs": [
        {
          "name": "_newSubscriptionCost",
          "type": "uint256"
        }
      ],
      "name": "changeFactorySubscriptionFee",
      "outputs": [],
      "payable": false,
      "stateMutability": "nonpayable",
      "type": "function"
    },
    {
      "constant": false,
      "inputs": [
        {
          "name": "_newSetupCost",
          "type": "uint256"
        }
      ],
      "name": "changeFactorySetupFee",
      "outputs": [],
      "payable": false,
      "stateMutability": "nonpayable",
      "type": "function"
    },
    {
      "constant": true,
      "inputs": [],
      "name": "polyToken",
      "outputs": [
        {
          "name": "",
          "type": "address"
        }
      ],
      "payable": false,
      "stateMutability": "view",
      "type": "function"
    },
    {
      "constant": false,
      "inputs": [],
      "name": "renounceOwnership",
      "outputs": [],
      "payable": false,
      "stateMutability": "nonpayable",
      "type": "function"
    },
    {
      "constant": true,
      "inputs": [],
      "name": "setupCost",
      "outputs": [
        {
          "name": "",
          "type": "uint256"
        }
      ],
      "payable": false,
      "stateMutability": "view",
      "type": "function"
    },
    {
      "constant": true,
      "inputs": [],
      "name": "owner",
      "outputs": [
        {
          "name": "",
          "type": "address"
        }
      ],
      "payable": false,
      "stateMutability": "view",
      "type": "function"
    },
    {
      "constant": false,
      "inputs": [
        {
          "name": "_newUsageCost",
          "type": "uint256"
        }
      ],
      "name": "changeFactoryUsageFee",
      "outputs": [],
      "payable": false,
      "stateMutability": "nonpayable",
      "type": "function"
    },
    {
      "constant": true,
      "inputs": [],
      "name": "usageCost",
      "outputs": [
        {
          "name": "",
          "type": "uint256"
        }
      ],
      "payable": false,
      "stateMutability": "view",
      "type": "function"
    },
    {
      "constant": false,
      "inputs": [
        {
          "name": "_newOwner",
          "type": "address"
        }
      ],
      "name": "transferOwnership",
      "outputs": [],
      "payable": false,
      "stateMutability": "nonpayable",
      "type": "function"
    },
    {
      "inputs": [
        {
          "name": "_polyAddress",
          "type": "address"
        },
        {
          "name": "_setupCost",
          "type": "uint256"
        },
        {
          "name": "_usageCost",
          "type": "uint256"
        },
        {
          "name": "_subscriptionCost",
          "type": "uint256"
        }
      ],
      "payable": false,
      "stateMutability": "nonpayable",
      "type": "constructor"
    },
    {
      "anonymous": false,
      "inputs": [
        {
          "indexed": false,
          "name": "_oldSetupcost",
          "type": "uint256"
        },
        {
          "indexed": false,
          "name": "_newSetupCost",
          "type": "uint256"
        },
        {
          "indexed": false,
          "name": "_moduleFactory",
          "type": "address"
        }
      ],
      "name": "LogChangeFactorySetupFee",
      "type": "event"
    },
    {
      "anonymous": false,
      "inputs": [
        {
          "indexed": false,
          "name": "_oldUsageCost",
          "type": "uint256"
        },
        {
          "indexed": false,
          "name": "_newUsageCost",
          "type": "uint256"
        },
        {
          "indexed": false,
          "name": "_moduleFactory",
          "type": "address"
        }
      ],
      "name": "LogChangeFactoryUsageFee",
      "type": "event"
    },
    {
      "anonymous": false,
      "inputs": [
        {
          "indexed": false,
          "name": "_oldSubscriptionCost",
          "type": "uint256"
        },
        {
          "indexed": false,
          "name": "_newMonthlySubscriptionCost",
          "type": "uint256"
        },
        {
          "indexed": false,
          "name": "_moduleFactory",
          "type": "address"
        }
      ],
      "name": "LogChangeFactorySubscriptionFee",
      "type": "event"
    },
    {
      "anonymous": false,
      "inputs": [
        {
          "indexed": false,
          "name": "_module",
          "type": "address"
        },
        {
          "indexed": true,
          "name": "_moduleName",
          "type": "bytes32"
        },
        {
          "indexed": true,
          "name": "_moduleFactory",
          "type": "address"
        },
        {
          "indexed": false,
          "name": "_creator",
          "type": "address"
        },
        {
          "indexed": false,
          "name": "_timestamp",
          "type": "uint256"
        }
      ],
      "name": "LogGenerateModuleFromFactory",
      "type": "event"
    },
    {
      "anonymous": false,
      "inputs": [
        {
          "indexed": true,
          "name": "previousOwner",
          "type": "address"
        }
      ],
      "name": "OwnershipRenounced",
      "type": "event"
    },
    {
      "anonymous": false,
      "inputs": [
        {
          "indexed": true,
          "name": "previousOwner",
          "type": "address"
        },
        {
          "indexed": true,
          "name": "newOwner",
          "type": "address"
        }
      ],
      "name": "OwnershipTransferred",
      "type": "event"
    },
    {
      "constant": false,
      "inputs": [
        {
          "name": "",
          "type": "bytes"
        }
      ],
      "name": "deploy",
      "outputs": [
        {
          "name": "",
          "type": "address"
        }
      ],
      "payable": false,
      "stateMutability": "nonpayable",
      "type": "function"
    },
    {
      "constant": true,
      "inputs": [],
      "name": "getType",
      "outputs": [
        {
          "name": "",
          "type": "uint8"
        }
      ],
      "payable": false,
      "stateMutability": "view",
      "type": "function"
    },
    {
      "constant": true,
      "inputs": [],
      "name": "getName",
      "outputs": [
        {
          "name": "",
          "type": "bytes32"
        }
      ],
      "payable": false,
      "stateMutability": "view",
      "type": "function"
    },
    {
      "constant": true,
      "inputs": [],
      "name": "getDescription",
      "outputs": [
        {
          "name": "",
          "type": "string"
        }
      ],
      "payable": false,
      "stateMutability": "view",
      "type": "function"
    },
    {
      "constant": true,
      "inputs": [],
      "name": "getTitle",
      "outputs": [
        {
          "name": "",
          "type": "string"
        }
      ],
      "payable": false,
      "stateMutability": "view",
      "type": "function"
    },
    {
      "constant": true,
      "inputs": [],
      "name": "getInstructions",
      "outputs": [
        {
          "name": "",
          "type": "string"
        }
      ],
      "payable": false,
      "stateMutability": "view",
      "type": "function"
    },
    {
      "constant": true,
      "inputs": [],
      "name": "getTags",
      "outputs": [
        {
          "name": "",
          "type": "bytes32[]"
        }
      ],
      "payable": false,
      "stateMutability": "view",
      "type": "function"
    }
  ],
  "bytecode": "0x608060405234801561001057600080fd5b506040516080806117e1833981016040908152815160208301519183015160609093015160008054600160a060020a0319908116331790915560018054600160a060020a039094169390911692909217909155600291909155600391909155600455611760806100816000396000f3006080604052600436106100ef5763ffffffff7c010000000000000000000000000000000000000000000000000000000060003504166277436081146100f457806306184a251461013057806315dae03e1461015757806317d7de7c146101825780631a092541146101975780633ae192bd1461022157806358a191c31461023b5780636faa22a514610253578063715018a6146102685780637e363ffa1461027d5780638da5cb5b14610292578063995d9ab7146102a7578063aac67b051461030c578063d54c472614610324578063e0d5497014610339578063f2fde38b1461034e578063ff3c1a8f1461036f575b600080fd5b34801561010057600080fd5b506101146004803560248101910135610384565b60408051600160a060020a039092168252519081900360200190f35b34801561013c57600080fd5b50610145610599565b60408051918252519081900360200190f35b34801561016357600080fd5b5061016c61059f565b6040805160ff9092168252519081900360200190f35b34801561018e57600080fd5b506101456105a4565b3480156101a357600080fd5b506101ac6105c8565b6040805160208082528351818301528351919283929083019185019080838360005b838110156101e65781810151838201526020016101ce565b50505050905090810190601f1680156102135780820380516001836020036101000a031916815260200191505b509250505060405180910390f35b34801561022d57600080fd5b5061023960043561064d565b005b34801561024757600080fd5b506102396004356106aa565b34801561025f57600080fd5b50610114610707565b34801561027457600080fd5b50610239610716565b34801561028957600080fd5b50610145610782565b34801561029e57600080fd5b50610114610788565b3480156102b357600080fd5b506102bc610797565b60408051602080825283518183015283519192839290830191858101910280838360005b838110156102f85781810151838201526020016102e0565b505050509050019250505060405180910390f35b34801561031857600080fd5b506102396004356107a9565b34801561033057600080fd5b50610145610806565b34801561034557600080fd5b506101ac61080c565b34801561035a57600080fd5b50610239600160a060020a036004351661082e565b34801561037b57600080fd5b506101ac610851565b600080600060025411156104f65760015460008054600254604080517f23b872dd000000000000000000000000000000000000000000000000000000008152336004820152600160a060020a03938416602482015260448101929092525191909316926323b872dd9260648083019360209390929083900390910190829087803b15801561041157600080fd5b505af1158015610425573d6000803e3d6000fd5b505050506040513d602081101561043b57600080fd5b505115156104f657604080517f08c379a000000000000000000000000000000000000000000000000000000000815260206004820152604260248201527f4661696c6564207472616e7366657246726f6d2062656361757365206f66207360448201527f7566666963656e7420416c6c6f77616e6365206973206e6f742070726f76696460648201527f6564000000000000000000000000000000000000000000000000000000000000608482015290519081900360a40190fd5b6001543390600160a060020a031661050c610905565b600160a060020a03928316815291166020820152604080519182900301906000f08015801561053f573d6000803e3d6000fd5b5090503061054b6105a4565b60408051600160a060020a0385168152336020820152428183015290517f1b81ebef84f1d2411caa47894fb587822eff7c2a8a3580a2d52ce516f840c8219181900360600190a39392505050565b60045481565b600190565b7f47656e6572616c5065726d697373696f6e4d616e61676572000000000000000090565b60408051608081018252604181527f4d616e616765207065726d697373696f6e732077697468696e2074686520536560208201527f63757269747920546f6b656e20616e64206174746163686564206d6f64756c65918101919091527f7300000000000000000000000000000000000000000000000000000000000000606082015290565b600054600160a060020a0316331461066457600080fd5b60045460408051918252602082018390523082820152517fc15ef5ae01a170635c048bc2ddb0e834fe5d866424709f0a7398496a80852ec89181900360600190a1600455565b600054600160a060020a031633146106c157600080fd5b60025460408051918252602082018390523082820152517ff9c53ed8f7f318ac63991d13acab4cf653984ce56b7dc1b3a2083af3f412262d9181900360600190a1600255565b600154600160a060020a031681565b600054600160a060020a0316331461072d57600080fd5b60008054604051600160a060020a03909116917ff8df31144d9c2f0f6b59d69b8b98abd5459d07f2742c4df920b25aae33c6482091a26000805473ffffffffffffffffffffffffffffffffffffffff19169055565b60025481565b600054600160a060020a031681565b60408051600081526020810190915290565b600054600160a060020a031633146107c057600080fd5b60035460408051918252602082018390523082820152517fff5bf6a8d25c4e30ad5778be1e2a41c7c45173313279bcbba6e2bb1b1bf7a6db9181900360600190a1600355565b60035481565b60606101006040519081016040528060d7815260200161165e60d79139905090565b600054600160a060020a0316331461084557600080fd5b61084e81610888565b50565b60408051808201909152601a81527f47656e6572616c205065726d697373696f6e204d616e61676572000000000000602082015290565b600160a060020a038116151561089d57600080fd5b60008054604051600160a060020a03808516939216917f8be0079c531659141344cd1fd0a4f28419497f9722a3daafe3b4186f6b6457e091a36000805473ffffffffffffffffffffffffffffffffffffffff1916600160a060020a0392909216919091179055565b604051610d4880610916833901905600608060405234801561001057600080fd5b50604051604080610d4883398101604052805160209091015160018054600160a060020a03938416600160a060020a0319918216179091556000805482163317905560028054939092169216919091179055610cd7806100716000396000f3006080604052600436106100b65763ffffffff60e060020a6000350416631613ec9d81146100bb5780634e0a4792146101055780635e1758fa146101435780635f7619a4146101695780636c5aaf50146101815780636faa22a5146101b45780637922c08a146101e55780638658b8b9146101fa578063b84dfbd214610224578063c3a07df614610239578063c45a01551461029e578063d70afa96146102b3578063dec7542f146102c8578063e380d343146102f7575b600080fd5b3480156100c757600080fd5b506100d0610318565b604080517fffffffff000000000000000000000000000000000000000000000000000000009092168252519081900360200190f35b34801561011157600080fd5b5061012f600160a060020a036004358116906024351660443561031d565b604080519115158252519081900360200190f35b34801561014f57600080fd5b50610167600160a060020a0360043516602435610343565b005b34801561017557600080fd5b5061012f600435610551565b34801561018d57600080fd5b506101a2600160a060020a0360043516610890565b60408051918252519081900360200190f35b3480156101c057600080fd5b506101c96108ab565b60408051600160a060020a039092168252519081900360200190f35b3480156101f157600080fd5b506101a26108ba565b34801561020657600080fd5b5061012f600160a060020a03600435811690602435166044356108cc565b34801561023057600080fd5b506101c961092c565b34801561024557600080fd5b5061024e61093b565b60408051602080825283518183015283519192839290830191858101910280838360005b8381101561028a578181015183820152602001610272565b505050509050019250505060405180910390f35b3480156102aa57600080fd5b506101c961098d565b3480156102bf57600080fd5b506101a261099c565b3480156102d457600080fd5b5061012f600160a060020a036004358116906024351660443560643515156109c0565b34801561030357600080fd5b506101a2600160a060020a0360043516610c79565b600090565b600360209081526000938452604080852082529284528284209052825290205460ff1681565b600080516020610c8c833981519152600080600160009054906101000a9004600160a060020a0316600160a060020a0316638da5cb5b6040518163ffffffff1660e060020a028152600401602060405180830381600087803b1580156103a857600080fd5b505af11580156103bc573d6000803e3d6000fd5b505050506040513d60208110156103d257600080fd5b505160005433600160a060020a0392831681149450911614905081806103f55750805b8061049b5750600154604080517f8658b8b9000000000000000000000000000000000000000000000000000000008152336004820152306024820152604481018690529051600160a060020a0390921691638658b8b9916064808201926020929091908290030181600087803b15801561046e57600080fd5b505af1158015610482573d6000803e3d6000fd5b505050506040513d602081101561049857600080fd5b50515b15156104f1576040805160e560020a62461bcd02815260206004820152601760248201527f5065726d697373696f6e20636865636b206661696c6564000000000000000000604482015290519081900360640190fd5b600160a060020a038516600081815260046020908152604091829020879055815192835282018690524282820152517f7606544330055376fae1759a3d70de906caf98b81dc3bf7f2582af2ffcd4cfb49181900360600190a15050505050565b60007f4645455f41444d494e0000000000000000000000000000000000000000000000600080600160009054906101000a9004600160a060020a0316600160a060020a0316638da5cb5b6040518163ffffffff1660e060020a028152600401602060405180830381600087803b1580156105ca57600080fd5b505af11580156105de573d6000803e3d6000fd5b505050506040513d60208110156105f457600080fd5b505160005433600160a060020a0392831681149450911614905081806106175750805b806106bd5750600154604080517f8658b8b9000000000000000000000000000000000000000000000000000000008152336004820152306024820152604481018690529051600160a060020a0390921691638658b8b9916064808201926020929091908290030181600087803b15801561069057600080fd5b505af11580156106a4573d6000803e3d6000fd5b505050506040513d60208110156106ba57600080fd5b50515b1515610713576040805160e560020a62461bcd02815260206004820152601760248201527f5065726d697373696f6e20636865636b206661696c6564000000000000000000604482015290519081900360640190fd5b60025460008054604080517f8da5cb5b0000000000000000000000000000000000000000000000000000000081529051600160a060020a03948516946323b872dd94309490911692638da5cb5b9260048083019360209383900390910190829087803b15801561078257600080fd5b505af1158015610796573d6000803e3d6000fd5b505050506040513d60208110156107ac57600080fd5b50516040805160e060020a63ffffffff8616028152600160a060020a039384166004820152929091166024830152604482018990525160648083019260209291908290030181600087803b15801561080357600080fd5b505af1158015610817573d6000803e3d6000fd5b505050506040513d602081101561082d57600080fd5b50511515610885576040805160e560020a62461bcd02815260206004820152601260248201527f556e61626c6520746f2074616b65206665650000000000000000000000000000604482015290519081900360640190fd5b506001949350505050565b600160a060020a031660009081526004602052604090205490565b600254600160a060020a031681565b600080516020610c8c83398151915281565b600160a060020a038316600090815260046020526040812054156109215750600160a060020a03808316600090815260036020908152604080832093871683529281528282208483529052205460ff16610925565b5060005b9392505050565b600154600160a060020a031681565b60408051600180825281830190925260609182919060208083019080388339019050509050600080516020610c8c83398151915281600081518110151561097e57fe5b60209081029091010152905090565b600054600160a060020a031681565b7f4645455f41444d494e000000000000000000000000000000000000000000000081565b6000600080516020610c8c833981519152600080600160009054906101000a9004600160a060020a0316600160a060020a0316638da5cb5b6040518163ffffffff1660e060020a028152600401602060405180830381600087803b158015610a2757600080fd5b505af1158015610a3b573d6000803e3d6000fd5b505050506040513d6020811015610a5157600080fd5b505160005433600160a060020a039283168114945091161490508180610a745750805b80610b1a5750600154604080517f8658b8b9000000000000000000000000000000000000000000000000000000008152336004820152306024820152604481018690529051600160a060020a0390921691638658b8b9916064808201926020929091908290030181600087803b158015610aed57600080fd5b505af1158015610b01573d6000803e3d6000fd5b505050506040513d6020811015610b1757600080fd5b50515b1515610b70576040805160e560020a62461bcd02815260206004820152601760248201527f5065726d697373696f6e20636865636b206661696c6564000000000000000000604482015290519081900360640190fd5b600160a060020a0388166000908152600460205260409020541515610bdf576040805160e560020a62461bcd02815260206004820152601860248201527f44656c65676174652064657461696c73206e6f74207365740000000000000000604482015290519081900360640190fd5b600160a060020a038088166000818152600360209081526040808320948d168084529482528083208b845282529182902080548a151560ff1990911681179091558251948552908401929092528281018990526060830191909152426080830152517fe7e0f6463adc815ed8a33c10555a87bdef40d69beb9fdd7e4e3e783c35bf958c9181900360a00190a1506001979650505050505050565b6004602052600090815260409020548156004348414e47455f5045524d495353494f4e000000000000000000000000000000a165627a7a72305820bc7ebe79246adbfcdd4757aa6acaae40bb4eb279c8282efeede925d079ebf562002941646420616e642072656d6f7665207065726d697373696f6e7320666f7220746865205365637572697479546f6b656e20616e64206173736f636961746564206d6f64756c65732e205065726d697373696f6e2074797065732073686f756c6420626520656e636f64656420617320627974657333322076616c7565732c20616e64206174746163686564207573696e672074686520776974685065726d206d6f64696669657220746f2072656c6576616e742066756e6374696f6e732e4e6f20696e697446756e6374696f6e2072657175697265642ea165627a7a7230582026310a26e23851463d909a7a1fefbd07e5f45e000e770854275100eafdf239350029",
  "source": "pragma solidity ^0.4.24;\n\nimport \"./GeneralPermissionManager.sol\";\nimport \"../../interfaces/IModuleFactory.sol\";\n\n/**\n * @title Factory for deploying GeneralPermissionManager module\n */\ncontract GeneralPermissionManagerFactory is IModuleFactory {\n\n    /**\n     * @notice Constructor\n     * @param _polyAddress Address of the polytoken\n     */\n    constructor (address _polyAddress, uint256 _setupCost, uint256 _usageCost, uint256 _subscriptionCost) public\n      IModuleFactory(_polyAddress, _setupCost, _usageCost, _subscriptionCost)\n    {\n\n    }\n\n    /**\n     * @notice used to launch the Module with the help of factory\n     * @return address Contract address of the Module\n     */\n    function deploy(bytes /* _data */) external returns(address) {\n        if(setupCost > 0)\n            require(polyToken.transferFrom(msg.sender, owner, setupCost), \"Failed transferFrom because of sufficent Allowance is not provided\");\n        address permissionManager = new GeneralPermissionManager(msg.sender, address(polyToken));\n        emit LogGenerateModuleFromFactory(address(permissionManager), getName(), address(this), msg.sender, now);\n        return address(permissionManager);\n    }\n\n    /**\n     * @notice Type of the Module factory\n     */\n    function getType() public view returns(uint8) {\n        return 1;\n    }\n\n    /**\n     * @notice Get the name of the Module\n     */\n    function getName() public view returns(bytes32) {\n        return \"GeneralPermissionManager\";\n    }\n\n    /**\n     * @notice Get the description of the Module\n     */\n    function getDescription() public view returns(string) {\n        return \"Manage permissions within the Security Token and attached modules\";\n    }\n\n    /**\n     * @notice Get the title of the Module\n     */\n    function getTitle() public  view returns(string) {\n        return \"General Permission Manager\";\n    }\n\n    /**\n     * @notice Get the Instructions that helped to used the module\n     */\n    function getInstructions() public view returns(string) {\n        return \"Add and remove permissions for the SecurityToken and associated modules. Permission types should be encoded as bytes32 values, and attached using the withPerm modifier to relevant functions.No initFunction required.\";\n    }\n\n    /**\n     * @notice Get the tags related to the module factory\n     */\n    function getTags() public view returns(bytes32[]) {\n        bytes32[] memory availableTags = new bytes32[](0);\n        return availableTags;\n    }\n}\n",
  "sourcePath": "/Users/rafaelvidaurre/Code/polymath/polymath-apps/packages/polymath-shared/contracts/modules/PermissionManager/GeneralPermissionManagerFactory.sol",
  "compiler": {
    "name": "solc",
    "version": "0.4.24+commit.e67f0147.Emscripten.clang"
  },
  "schemaVersion": "2.0.1",
  "updatedAt": "2018-09-20T22:48:32.974Z"
}