{
  "contractName": "GeneralTransferManager",
  "abi": [
    {
      "constant": true,
      "inputs": [],
      "name": "allowAllBurnTransfers",
      "outputs": [
        {
          "name": "",
          "type": "bool"
        }
      ],
      "payable": false,
      "stateMutability": "view",
      "type": "function"
    },
    {
      "constant": true,
      "inputs": [],
      "name": "WHITELIST",
      "outputs": [
        {
          "name": "",
          "type": "bytes32"
        }
      ],
      "payable": false,
      "stateMutability": "view",
      "type": "function"
    },
    {
      "constant": true,
      "inputs": [],
      "name": "allowAllWhitelistTransfers",
      "outputs": [
        {
          "name": "",
          "type": "bool"
        }
      ],
      "payable": false,
      "stateMutability": "view",
      "type": "function"
    },
    {
      "constant": false,
      "inputs": [],
      "name": "unpause",
      "outputs": [],
      "payable": false,
      "stateMutability": "nonpayable",
      "type": "function"
    },
    {
      "constant": true,
      "inputs": [],
      "name": "paused",
      "outputs": [
        {
          "name": "",
          "type": "bool"
        }
      ],
      "payable": false,
      "stateMutability": "view",
      "type": "function"
    },
    {
      "constant": false,
      "inputs": [
        {
          "name": "_amount",
          "type": "uint256"
        }
      ],
      "name": "takeFee",
      "outputs": [
        {
          "name": "",
          "type": "bool"
        }
      ],
      "payable": false,
      "stateMutability": "nonpayable",
      "type": "function"
    },
    {
      "constant": true,
      "inputs": [],
      "name": "polyToken",
      "outputs": [
        {
          "name": "",
          "type": "address"
        }
      ],
      "payable": false,
      "stateMutability": "view",
      "type": "function"
    },
    {
      "constant": false,
      "inputs": [],
      "name": "pause",
      "outputs": [],
      "payable": false,
      "stateMutability": "nonpayable",
      "type": "function"
    },
    {
      "constant": true,
      "inputs": [],
      "name": "FLAGS",
      "outputs": [
        {
          "name": "",
          "type": "bytes32"
        }
      ],
      "payable": false,
      "stateMutability": "view",
      "type": "function"
    },
    {
      "constant": true,
      "inputs": [
        {
          "name": "",
          "type": "address"
        }
      ],
      "name": "whitelist",
      "outputs": [
        {
          "name": "fromTime",
          "type": "uint256"
        },
        {
          "name": "toTime",
          "type": "uint256"
        },
        {
          "name": "expiryTime",
          "type": "uint256"
        },
        {
          "name": "canBuyFromSTO",
          "type": "bool"
        }
      ],
      "payable": false,
      "stateMutability": "view",
      "type": "function"
    },
    {
      "constant": true,
      "inputs": [],
      "name": "allowAllTransfers",
      "outputs": [
        {
          "name": "",
          "type": "bool"
        }
      ],
      "payable": false,
      "stateMutability": "view",
      "type": "function"
    },
    {
      "constant": true,
      "inputs": [],
      "name": "signingAddress",
      "outputs": [
        {
          "name": "",
          "type": "address"
        }
      ],
      "payable": false,
      "stateMutability": "view",
      "type": "function"
    },
    {
      "constant": true,
      "inputs": [],
      "name": "issuanceAddress",
      "outputs": [
        {
          "name": "",
          "type": "address"
        }
      ],
      "payable": false,
      "stateMutability": "view",
      "type": "function"
    },
    {
      "constant": true,
      "inputs": [],
      "name": "securityToken",
      "outputs": [
        {
          "name": "",
          "type": "address"
        }
      ],
      "payable": false,
      "stateMutability": "view",
      "type": "function"
    },
    {
      "constant": true,
      "inputs": [],
      "name": "factory",
      "outputs": [
        {
          "name": "",
          "type": "address"
        }
      ],
      "payable": false,
      "stateMutability": "view",
      "type": "function"
    },
    {
      "constant": true,
      "inputs": [],
      "name": "FEE_ADMIN",
      "outputs": [
        {
          "name": "",
          "type": "bytes32"
        }
      ],
      "payable": false,
      "stateMutability": "view",
      "type": "function"
    },
    {
      "constant": true,
      "inputs": [],
      "name": "allowAllWhitelistIssuances",
      "outputs": [
        {
          "name": "",
          "type": "bool"
        }
      ],
      "payable": false,
      "stateMutability": "view",
      "type": "function"
    },
    {
      "inputs": [
        {
          "name": "_securityToken",
          "type": "address"
        },
        {
          "name": "_polyAddress",
          "type": "address"
        }
      ],
      "payable": false,
      "stateMutability": "nonpayable",
      "type": "constructor"
    },
    {
      "anonymous": false,
      "inputs": [
        {
          "indexed": false,
          "name": "_issuanceAddress",
          "type": "address"
        }
      ],
      "name": "ChangeIssuanceAddress",
      "type": "event"
    },
    {
      "anonymous": false,
      "inputs": [
        {
          "indexed": false,
          "name": "_allowAllTransfers",
          "type": "bool"
        }
      ],
      "name": "AllowAllTransfers",
      "type": "event"
    },
    {
      "anonymous": false,
      "inputs": [
        {
          "indexed": false,
          "name": "_allowAllWhitelistTransfers",
          "type": "bool"
        }
      ],
      "name": "AllowAllWhitelistTransfers",
      "type": "event"
    },
    {
      "anonymous": false,
      "inputs": [
        {
          "indexed": false,
          "name": "_allowAllWhitelistIssuances",
          "type": "bool"
        }
      ],
      "name": "AllowAllWhitelistIssuances",
      "type": "event"
    },
    {
      "anonymous": false,
      "inputs": [
        {
          "indexed": false,
          "name": "_allowAllBurnTransfers",
          "type": "bool"
        }
      ],
      "name": "AllowAllBurnTransfers",
      "type": "event"
    },
    {
      "anonymous": false,
      "inputs": [
        {
          "indexed": false,
          "name": "_signingAddress",
          "type": "address"
        }
      ],
      "name": "ChangeSigningAddress",
      "type": "event"
    },
    {
      "anonymous": false,
      "inputs": [
        {
          "indexed": false,
          "name": "_investor",
          "type": "address"
        },
        {
          "indexed": false,
          "name": "_dateAdded",
          "type": "uint256"
        },
        {
          "indexed": false,
          "name": "_addedBy",
          "type": "address"
        },
        {
          "indexed": false,
          "name": "_fromTime",
          "type": "uint256"
        },
        {
          "indexed": false,
          "name": "_toTime",
          "type": "uint256"
        },
        {
          "indexed": false,
          "name": "_expiryTime",
          "type": "uint256"
        },
        {
          "indexed": false,
          "name": "_canBuyFromSTO",
          "type": "bool"
        }
      ],
      "name": "ModifyWhitelist",
      "type": "event"
    },
    {
      "anonymous": false,
      "inputs": [
        {
          "indexed": false,
          "name": "_timestammp",
          "type": "uint256"
        }
      ],
      "name": "Pause",
      "type": "event"
    },
    {
      "anonymous": false,
      "inputs": [
        {
          "indexed": false,
          "name": "_timestamp",
          "type": "uint256"
        }
      ],
      "name": "Unpause",
      "type": "event"
    },
    {
      "constant": true,
      "inputs": [],
      "name": "getInitFunction",
      "outputs": [
        {
          "name": "",
          "type": "bytes4"
        }
      ],
      "payable": false,
      "stateMutability": "pure",
      "type": "function"
    },
    {
      "constant": false,
      "inputs": [
        {
          "name": "_issuanceAddress",
          "type": "address"
        }
      ],
      "name": "changeIssuanceAddress",
      "outputs": [],
      "payable": false,
      "stateMutability": "nonpayable",
      "type": "function"
    },
    {
      "constant": false,
      "inputs": [
        {
          "name": "_signingAddress",
          "type": "address"
        }
      ],
      "name": "changeSigningAddress",
      "outputs": [],
      "payable": false,
      "stateMutability": "nonpayable",
      "type": "function"
    },
    {
      "constant": false,
      "inputs": [
        {
          "name": "_allowAllTransfers",
          "type": "bool"
        }
      ],
      "name": "changeAllowAllTransfers",
      "outputs": [],
      "payable": false,
      "stateMutability": "nonpayable",
      "type": "function"
    },
    {
      "constant": false,
      "inputs": [
        {
          "name": "_allowAllWhitelistTransfers",
          "type": "bool"
        }
      ],
      "name": "changeAllowAllWhitelistTransfers",
      "outputs": [],
      "payable": false,
      "stateMutability": "nonpayable",
      "type": "function"
    },
    {
      "constant": false,
      "inputs": [
        {
          "name": "_allowAllWhitelistIssuances",
          "type": "bool"
        }
      ],
      "name": "changeAllowAllWhitelistIssuances",
      "outputs": [],
      "payable": false,
      "stateMutability": "nonpayable",
      "type": "function"
    },
    {
      "constant": false,
      "inputs": [
        {
          "name": "_allowAllBurnTransfers",
          "type": "bool"
        }
      ],
      "name": "changeAllowAllBurnTransfers",
      "outputs": [],
      "payable": false,
      "stateMutability": "nonpayable",
      "type": "function"
    },
    {
      "constant": false,
      "inputs": [
        {
          "name": "_from",
          "type": "address"
        },
        {
          "name": "_to",
          "type": "address"
        },
        {
          "name": "",
          "type": "uint256"
        },
        {
          "name": "",
          "type": "bytes"
        },
        {
          "name": "",
          "type": "bool"
        }
      ],
      "name": "verifyTransfer",
      "outputs": [
        {
          "name": "",
          "type": "uint8"
        }
      ],
      "payable": false,
      "stateMutability": "nonpayable",
      "type": "function"
    },
    {
      "constant": false,
      "inputs": [
        {
          "name": "_investor",
          "type": "address"
        },
        {
          "name": "_fromTime",
          "type": "uint256"
        },
        {
          "name": "_toTime",
          "type": "uint256"
        },
        {
          "name": "_expiryTime",
          "type": "uint256"
        },
        {
          "name": "_canBuyFromSTO",
          "type": "bool"
        }
      ],
      "name": "modifyWhitelist",
      "outputs": [],
      "payable": false,
      "stateMutability": "nonpayable",
      "type": "function"
    },
    {
      "constant": false,
      "inputs": [
        {
          "name": "_investors",
          "type": "address[]"
        },
        {
          "name": "_fromTimes",
          "type": "uint256[]"
        },
        {
          "name": "_toTimes",
          "type": "uint256[]"
        },
        {
          "name": "_expiryTimes",
          "type": "uint256[]"
        },
        {
          "name": "_canBuyFromSTO",
          "type": "bool[]"
        }
      ],
      "name": "modifyWhitelistMulti",
      "outputs": [],
      "payable": false,
      "stateMutability": "nonpayable",
      "type": "function"
    },
    {
      "constant": false,
      "inputs": [
        {
          "name": "_investor",
          "type": "address"
        },
        {
          "name": "_fromTime",
          "type": "uint256"
        },
        {
          "name": "_toTime",
          "type": "uint256"
        },
        {
          "name": "_expiryTime",
          "type": "uint256"
        },
        {
          "name": "_canBuyFromSTO",
          "type": "bool"
        },
        {
          "name": "_validFrom",
          "type": "uint256"
        },
        {
          "name": "_validTo",
          "type": "uint256"
        },
        {
          "name": "_v",
          "type": "uint8"
        },
        {
          "name": "_r",
          "type": "bytes32"
        },
        {
          "name": "_s",
          "type": "bytes32"
        }
      ],
      "name": "modifyWhitelistSigned",
      "outputs": [],
      "payable": false,
      "stateMutability": "nonpayable",
      "type": "function"
    },
    {
      "constant": true,
      "inputs": [],
      "name": "getPermissions",
      "outputs": [
        {
          "name": "",
          "type": "bytes32[]"
        }
      ],
      "payable": false,
      "stateMutability": "view",
      "type": "function"
    }
  ],
  "bytecode": "0x60806040526002805460a060020a60ff021916905560038054600160a060020a03199081169091556004805490911690556006805463ff0000001962ffffff19909116620100001716905534801561005657600080fd5b5060405160408061290483398101604052805160209091015160018054600160a060020a03938416600160a060020a031991821617909155600080548216331790556002805493909216921691909117905561284d806100b76000396000f30060806040526004361061015b5763ffffffff60e060020a60003504166307592f6081146101605780630f28937c146101a5578063144b8afa146102de5780631613ec9d146103075780631bb7cc99146103515780632909a80e146103785780633f0547bb1461038d5780633f4ba83a146103a75780634caaf45f146103bc5780635c975abb146103dd5780635f7619a4146103f25780636faa22a51461040a5780637ecc866f1461043b5780638456cb59146104555780639332b62c1461046a5780639728538f146104845780639b19251a14610499578063b1dd8111146104e2578063b3e82dc9146104f7578063b3fac8ce1461050c578063b84dfbd214610521578063c3a07df614610536578063c45a01551461059b578063d70afa96146105b0578063d7604a78146105c5578063de6ee1bc146105f4578063e0c681581461068b578063e55d0f8b146106ac578063e8a28d52146106c1575b600080fd5b34801561016c57600080fd5b506101a3600160a060020a0360043516602435604435606435608435151560a43560c43560ff60e4351661010435610124356106db565b005b3480156101b157600080fd5b50604080516020600480358082013583810280860185019096528085526101a395369593946024949385019291829185019084908082843750506040805187358901803560208181028481018201909552818452989b9a998901989297509082019550935083925085019084908082843750506040805187358901803560208181028481018201909552818452989b9a998901989297509082019550935083925085019084908082843750506040805187358901803560208181028481018201909552818452989b9a998901989297509082019550935083925085019084908082843750506040805187358901803560208181028481018201909552818452989b9a9989019892975090820195509350839250850190849080828437509497506109ac9650505050505050565b3480156102ea57600080fd5b506102f3610d3c565b604080519115158252519081900360200190f35b34801561031357600080fd5b5061031c610d4c565b604080517fffffffff000000000000000000000000000000000000000000000000000000009092168252519081900360200190f35b34801561035d57600080fd5b50610366610d51565b60408051918252519081900360200190f35b34801561038457600080fd5b506102f3610d63565b34801561039957600080fd5b506101a36004351515610d71565b3480156103b357600080fd5b506101a3610f3e565b3480156103c857600080fd5b506101a3600160a060020a0360043516611026565b3480156103e957600080fd5b506102f361120d565b3480156103fe57600080fd5b506102f360043561121d565b34801561041657600080fd5b5061041f611539565b60408051600160a060020a039092168252519081900360200190f35b34801561044757600080fd5b506101a36004351515611548565b34801561046157600080fd5b506101a361171f565b34801561047657600080fd5b506101a36004351515611805565b34801561049057600080fd5b506103666119da565b3480156104a557600080fd5b506104ba600160a060020a03600435166119e9565b6040805194855260208501939093528383019190915215156060830152519081900360800190f35b3480156104ee57600080fd5b506102f3611a13565b34801561050357600080fd5b5061041f611a1c565b34801561051857600080fd5b5061041f611a2b565b34801561052d57600080fd5b5061041f611a3a565b34801561054257600080fd5b5061054b611a49565b60408051602080825283518183015283519192839290830191858101910280838360005b8381101561058757818101518382015260200161056f565b505050509050019250505060405180910390f35b3480156105a757600080fd5b5061041f611ac0565b3480156105bc57600080fd5b50610366611acf565b3480156105d157600080fd5b506101a3600160a060020a03600435166024356044356064356084351515611af3565b34801561060057600080fd5b50604080516020601f60643560048181013592830184900484028501840190955281845261066794600160a060020a038135811695602480359092169560443595369560849401918190840183828082843750949750505050913515159250611d9c915050565b6040518082600381111561067757fe5b60ff16815260200191505060405180910390f35b34801561069757600080fd5b506101a3600160a060020a0360043516611f1a565b3480156106b857600080fd5b506102f3612101565b3480156106cd57600080fd5b506101a36004351515612110565b600042861115610735576040805160e560020a62461bcd02815260206004820152601660248201527f56616c696446726f6d20697320746f6f206561726c7900000000000000000000604482015290519081900360640190fd5b4285101561078d576040805160e560020a62461bcd02815260206004820152601360248201527f56616c6964546f20697320746f6f206c61746500000000000000000000000000604482015290519081900360640190fd5b604080516c01000000000000000000000000308102602080840191909152600160a060020a038f169091026034830152604882018d9052606882018c9052608882018b90527f01000000000000000000000000000000000000000000000000000000000000008a15150260a883015260a9820189905260c98083018990528351808403909101815260e990920192839052815191929182918401908083835b6020831061084b5780518252601f19909201916020918201910161082c565b6001836020036101000a03801982511681845116808217855250505050505090500191505060405180910390209050610886818585856122e9565b6080604051908101604052808b81526020018a8152602001898152602001881515815250600560008d600160a060020a0316600160a060020a0316815260200190815260200160002060008201518160000155602082015181600101556040820151816002015560608201518160030160006101000a81548160ff0219169083151502179055509050507f82f858918377c2e6d8e7bff05724502b64b977f47a83aca1faaabf9036b1ef158b42338d8d8d8d6040518088600160a060020a0316600160a060020a0316815260200187815260200186600160a060020a0316600160a060020a031681526020018581526020018481526020018381526020018215151515815260200197505050505050505060405180910390a15050505050505050505050565b60006000805160206127e2833981519152600080600160009054906101000a9004600160a060020a0316600160a060020a0316638da5cb5b6040518163ffffffff1660e060020a028152600401602060405180830381600087803b158015610a1357600080fd5b505af1158015610a27573d6000803e3d6000fd5b505050506040513d6020811015610a3d57600080fd5b505160005433600160a060020a039283168114945091161490508180610a605750805b80610af057506001546040805160e060020a638658b8b9028152336004820152306024820152604481018690529051600160a060020a0390921691638658b8b9916064808201926020929091908290030181600087803b158015610ac357600080fd5b505af1158015610ad7573d6000803e3d6000fd5b505050506040513d6020811015610aed57600080fd5b50515b1515610b34576040805160e560020a62461bcd0281526020600482015260176024820152600080516020612802833981519152604482015290519081900360640190fd5b8751895114610b8d576040805160e560020a62461bcd02815260206004820152601860248201527f4d69736d61746368656420696e707574206c656e677468730000000000000000604482015290519081900360640190fd5b8651885114610be6576040805160e560020a62461bcd02815260206004820152601860248201527f4d69736d61746368656420696e707574206c656e677468730000000000000000604482015290519081900360640190fd5b8551875114610c3f576040805160e560020a62461bcd02815260206004820152601860248201527f4d69736d61746368656420696e707574206c656e677468730000000000000000604482015290519081900360640190fd5b8651855114610c98576040805160e560020a62461bcd02815260206004820152601760248201527f4d69736d61746368656420696e707574206c656e677468000000000000000000604482015290519081900360640190fd5b600093505b8851841015610d3157610d268985815181101515610cb757fe5b906020019060200201518986815181101515610ccf57fe5b906020019060200201518987815181101515610ce757fe5b906020019060200201518988815181101515610cff57fe5b906020019060200201518989815181101515610d1757fe5b90602001906020020151611af3565b600190930192610c9d565b505050505050505050565b6006546301000000900460ff1681565b600090565b6000805160206127e283398151915281565b600654610100900460ff1681565b60d860020a64464c41475302600080600160009054906101000a9004600160a060020a0316600160a060020a0316638da5cb5b6040518163ffffffff1660e060020a028152600401602060405180830381600087803b158015610dd357600080fd5b505af1158015610de7573d6000803e3d6000fd5b505050506040513d6020811015610dfd57600080fd5b505160005433600160a060020a039283168114945091161490508180610e205750805b80610eb057506001546040805160e060020a638658b8b9028152336004820152306024820152604481018690529051600160a060020a0390921691638658b8b9916064808201926020929091908290030181600087803b158015610e8357600080fd5b505af1158015610e97573d6000803e3d6000fd5b505050506040513d6020811015610ead57600080fd5b50515b1515610ef4576040805160e560020a62461bcd0281526020600482015260176024820152600080516020612802833981519152604482015290519081900360640190fd5b6006805485151560ff19909116811790915560408051918252517fae2c9b7ebf181a59fcf3d24127f903b5b0345b3b81454442bebdee22b3aabde99181900360200190a150505050565b600160009054906101000a9004600160a060020a0316600160a060020a0316638da5cb5b6040518163ffffffff1660e060020a028152600401602060405180830381600087803b158015610f9157600080fd5b505af1158015610fa5573d6000803e3d6000fd5b505050506040513d6020811015610fbb57600080fd5b5051600160a060020a0316331461101c576040805160e560020a62461bcd02815260206004820152601360248201527f53656e646572206973206e6f74206f776e657200000000000000000000000000604482015290519081900360640190fd5b611024612502565b565b60d860020a64464c41475302600080600160009054906101000a9004600160a060020a0316600160a060020a0316638da5cb5b6040518163ffffffff1660e060020a028152600401602060405180830381600087803b15801561108857600080fd5b505af115801561109c573d6000803e3d6000fd5b505050506040513d60208110156110b257600080fd5b505160005433600160a060020a0392831681149450911614905081806110d55750805b8061116557506001546040805160e060020a638658b8b9028152336004820152306024820152604481018690529051600160a060020a0390921691638658b8b9916064808201926020929091908290030181600087803b15801561113857600080fd5b505af115801561114c573d6000803e3d6000fd5b505050506040513d602081101561116257600080fd5b50515b15156111a9576040805160e560020a62461bcd0281526020600482015260176024820152600080516020612802833981519152604482015290519081900360640190fd5b60048054600160a060020a03861673ffffffffffffffffffffffffffffffffffffffff19909116811790915560408051918252517f82ef67454f9b99f9e532e149d0fd486c3460e5b8cb68c47a3a95a2ffb8e1fe369181900360200190a150505050565b60025460a060020a900460ff1681565b60007f4645455f41444d494e0000000000000000000000000000000000000000000000600080600160009054906101000a9004600160a060020a0316600160a060020a0316638da5cb5b6040518163ffffffff1660e060020a028152600401602060405180830381600087803b15801561129657600080fd5b505af11580156112aa573d6000803e3d6000fd5b505050506040513d60208110156112c057600080fd5b505160005433600160a060020a0392831681149450911614905081806112e35750805b8061137357506001546040805160e060020a638658b8b9028152336004820152306024820152604481018690529051600160a060020a0390921691638658b8b9916064808201926020929091908290030181600087803b15801561134657600080fd5b505af115801561135a573d6000803e3d6000fd5b505050506040513d602081101561137057600080fd5b50515b15156113b7576040805160e560020a62461bcd0281526020600482015260176024820152600080516020612802833981519152604482015290519081900360640190fd5b60025460015460008054604080517f8da5cb5b0000000000000000000000000000000000000000000000000000000081529051600160a060020a03958616956323b872dd95811694931692638da5cb5b92600480820193602093909283900390910190829087803b15801561142b57600080fd5b505af115801561143f573d6000803e3d6000fd5b505050506040513d602081101561145557600080fd5b50516040805160e060020a63ffffffff8616028152600160a060020a039384166004820152929091166024830152604482018990525160648083019260209291908290030181600087803b1580156114ac57600080fd5b505af11580156114c0573d6000803e3d6000fd5b505050506040513d60208110156114d657600080fd5b5051151561152e576040805160e560020a62461bcd02815260206004820152601260248201527f556e61626c6520746f2074616b65206665650000000000000000000000000000604482015290519081900360640190fd5b506001949350505050565b600254600160a060020a031681565b60d860020a64464c41475302600080600160009054906101000a9004600160a060020a0316600160a060020a0316638da5cb5b6040518163ffffffff1660e060020a028152600401602060405180830381600087803b1580156115aa57600080fd5b505af11580156115be573d6000803e3d6000fd5b505050506040513d60208110156115d457600080fd5b505160005433600160a060020a0392831681149450911614905081806115f75750805b8061168757506001546040805160e060020a638658b8b9028152336004820152306024820152604481018690529051600160a060020a0390921691638658b8b9916064808201926020929091908290030181600087803b15801561165a57600080fd5b505af115801561166e573d6000803e3d6000fd5b505050506040513d602081101561168457600080fd5b50515b15156116cb576040805160e560020a62461bcd0281526020600482015260176024820152600080516020612802833981519152604482015290519081900360640190fd5b6006805485151562010000810262ff0000199092169190911790915560408051918252517f83c2e8b0976b04b49f0e5828c064a239880ff3d68d2f14ffdd30a31bb734d1939181900360200190a150505050565b600160009054906101000a9004600160a060020a0316600160a060020a0316638da5cb5b6040518163ffffffff1660e060020a028152600401602060405180830381600087803b15801561177257600080fd5b505af1158015611786573d6000803e3d6000fd5b505050506040513d602081101561179c57600080fd5b5051600160a060020a031633146117fd576040805160e560020a62461bcd02815260206004820152601360248201527f53656e646572206973206e6f74206f776e657200000000000000000000000000604482015290519081900360640190fd5b6110246125b8565b60d860020a64464c41475302600080600160009054906101000a9004600160a060020a0316600160a060020a0316638da5cb5b6040518163ffffffff1660e060020a028152600401602060405180830381600087803b15801561186757600080fd5b505af115801561187b573d6000803e3d6000fd5b505050506040513d602081101561189157600080fd5b505160005433600160a060020a0392831681149450911614905081806118b45750805b8061194457506001546040805160e060020a638658b8b9028152336004820152306024820152604481018690529051600160a060020a0390921691638658b8b9916064808201926020929091908290030181600087803b15801561191757600080fd5b505af115801561192b573d6000803e3d6000fd5b505050506040513d602081101561194157600080fd5b50515b1515611988576040805160e560020a62461bcd0281526020600482015260176024820152600080516020612802833981519152604482015290519081900360640190fd5b60068054851515610100810261ff00199092169190911790915560408051918252517f53a6bab5b50dfca289500469494dc3a8d40681a9e6f36feddcf52e56238e5b2f9181900360200190a150505050565b60d860020a64464c4147530281565b60056020526000908152604090208054600182015460028301546003909301549192909160ff1684565b60065460ff1681565b600454600160a060020a031681565b600354600160a060020a031681565b600154600160a060020a031681565b6040805160028082526060808301845292839291906020830190803883390190505090506000805160206127e2833981519152816000815181101515611a8b57fe5b60209081029091010152805160d860020a64464c414753029082906001908110611ab157fe5b60209081029091010152905090565b600054600160a060020a031681565b7f4645455f41444d494e000000000000000000000000000000000000000000000081565b6000805160206127e2833981519152600080600160009054906101000a9004600160a060020a0316600160a060020a0316638da5cb5b6040518163ffffffff1660e060020a028152600401602060405180830381600087803b158015611b5857600080fd5b505af1158015611b6c573d6000803e3d6000fd5b505050506040513d6020811015611b8257600080fd5b505160005433600160a060020a039283168114945091161490508180611ba55750805b80611c3557506001546040805160e060020a638658b8b9028152336004820152306024820152604481018690529051600160a060020a0390921691638658b8b9916064808201926020929091908290030181600087803b158015611c0857600080fd5b505af1158015611c1c573d6000803e3d6000fd5b505050506040513d6020811015611c3257600080fd5b50515b1515611c79576040805160e560020a62461bcd0281526020600482015260176024820152600080516020612802833981519152604482015290519081900360640190fd5b608060405190810160405280888152602001878152602001868152602001851515815250600560008a600160a060020a0316600160a060020a0316815260200190815260200160002060008201518160000155602082015181600101556040820151816002015560608201518160030160006101000a81548160ff0219169083151502179055509050507f82f858918377c2e6d8e7bff05724502b64b977f47a83aca1faaabf9036b1ef158842338a8a8a8a6040518088600160a060020a0316600160a060020a0316815260200187815260200186600160a060020a0316600160a060020a031681526020018581526020018481526020018381526020018215151515815260200197505050505050505060405180910390a15050505050505050565b60025460009060a060020a900460ff161515611f0d5760065460ff1615611dc557506002611f11565b6006546301000000900460ff168015611de55750600160a060020a038516155b15611df257506002611f11565b600654610100900460ff1615611e3057611e0b85612673565b8015611e1b5750611e1b86612673565b611e26576001611e29565b60025b9050611f11565b60065462010000900460ff168015611e555750600354600160a060020a038781169116145b15611e9f57600160a060020a03851660009081526005602052604090206003015460ff16158015611e895750611e896126e0565b15611e9657506001611f11565b611e1b85612673565b611ea886612673565b8015611ecc5750600160a060020a0386166000908152600560205260409020544210155b8015611e1b5750611edc85612673565b8015611e1b5750600160a060020a038516600090815260056020526040902060010154421015611e26576001611e29565b5060015b95945050505050565b60d860020a64464c41475302600080600160009054906101000a9004600160a060020a0316600160a060020a0316638da5cb5b6040518163ffffffff1660e060020a028152600401602060405180830381600087803b158015611f7c57600080fd5b505af1158015611f90573d6000803e3d6000fd5b505050506040513d6020811015611fa657600080fd5b505160005433600160a060020a039283168114945091161490508180611fc95750805b8061205957506001546040805160e060020a638658b8b9028152336004820152306024820152604481018690529051600160a060020a0390921691638658b8b9916064808201926020929091908290030181600087803b15801561202c57600080fd5b505af1158015612040573d6000803e3d6000fd5b505050506040513d602081101561205657600080fd5b50515b151561209d576040805160e560020a62461bcd0281526020600482015260176024820152600080516020612802833981519152604482015290519081900360640190fd5b60038054600160a060020a03861673ffffffffffffffffffffffffffffffffffffffff19909116811790915560408051918252517fc2f94c1edade7e889be574a1c807f58a5f5e38d4f75da71514d59777c1811bce9181900360200190a150505050565b60065462010000900460ff1681565b60d860020a64464c41475302600080600160009054906101000a9004600160a060020a0316600160a060020a0316638da5cb5b6040518163ffffffff1660e060020a028152600401602060405180830381600087803b15801561217257600080fd5b505af1158015612186573d6000803e3d6000fd5b505050506040513d602081101561219c57600080fd5b505160005433600160a060020a0392831681149450911614905081806121bf5750805b8061224f57506001546040805160e060020a638658b8b9028152336004820152306024820152604481018690529051600160a060020a0390921691638658b8b9916064808201926020929091908290030181600087803b15801561222257600080fd5b505af1158015612236573d6000803e3d6000fd5b505050506040513d602081101561224c57600080fd5b50515b1515612293576040805160e560020a62461bcd0281526020600482015260176024820152600080516020612802833981519152604482015290519081900360640190fd5b600680548515156301000000810263ff000000199092169190911790915560408051918252517f9fe8a9db1e7351be9db0119ccb2556d18d98181683fc59d9556fbc510a844be29181900360200190a150505050565b600060018560405160200180807f19457468657265756d205369676e6564204d6573736167653a0a333200000000815250601c0182600019166000191681526020019150506040516020818303038152906040526040518082805190602001908083835b6020831061236c5780518252601f19909201916020918201910161234d565b51815160209384036101000a60001901801990921691161790526040805192909401829003822060008084528383018087529190915260ff8c1683860152606083018b9052608083018a9052935160a08084019750919550601f1981019492819003909101925090865af11580156123e8573d6000803e3d6000fd5b505060408051601f198101516001547f8da5cb5b0000000000000000000000000000000000000000000000000000000083529251909450600160a060020a039092169250638da5cb5b9160048083019260209291908290030181600087803b15801561245357600080fd5b505af1158015612467573d6000803e3d6000fd5b505050506040513d602081101561247d57600080fd5b5051600160a060020a03828116911614806124a55750600454600160a060020a038281169116145b15156124fb576040805160e560020a62461bcd02815260206004820152601060248201527f496e636f7272656374207369676e657200000000000000000000000000000000604482015290519081900360640190fd5b5050505050565b60025460a060020a900460ff161515612565576040805160e560020a62461bcd02815260206004820152601660248201527f436f6e7472616374206973206e6f742070617573656400000000000000000000604482015290519081900360640190fd5b6002805474ff0000000000000000000000000000000000000000191690556040805142815290517faaa520fdd7d2c83061d632fa017b0432407e798818af63ea908589fceda39ab79181900360200190a1565b60025460a060020a900460ff161561261a576040805160e560020a62461bcd02815260206004820152601260248201527f436f6e7472616374206973207061757365640000000000000000000000000000604482015290519081900360640190fd5b6002805474ff0000000000000000000000000000000000000000191660a060020a1790556040805142815290517f68b095021b1f40fe513109f513c66692f0b3219aee674a69f4efc57badb8201d9181900360200190a1565b600160a060020a0381166000908152600560205260408120541515806126b35750600160a060020a03821660009081526005602052604090206001015415155b80156126da5750600160a060020a0382166000908152600560205260409020600201544211155b92915050565b600154604080517fac90b42200000000000000000000000000000000000000000000000000000000815260036004820152905160009283928392600160a060020a039092169163ac90b42291602480820192869290919082900301818387803b15801561274c57600080fd5b505af1158015612760573d6000803e3d6000fd5b505050506040513d6000823e601f3d908101601f19168201604052602081101561278957600080fd5b8101908080516401000000008111156127a157600080fd5b820160208101848111156127b457600080fd5b81518560208202830111640100000000821117156127d157600080fd5b5050519390931195945050505050560057484954454c49535400000000000000000000000000000000000000000000005065726d697373696f6e20636865636b206661696c6564000000000000000000a165627a7a72305820fcc99e44f33e3bcddf1d2989a2e7f0524c273d198bec8d59d96e66e13ef9f15c0029",
  "source": "pragma solidity ^0.4.24;\n\nimport \"./ITransferManager.sol\";\nimport \"openzeppelin-solidity/contracts/math/SafeMath.sol\";\n\n/**\n * @title Transfer Manager module for core transfer validation functionality\n */\ncontract GeneralTransferManager is ITransferManager {\n\n    using SafeMath for uint256;\n\n    //Address from which issuances come\n    address public issuanceAddress = address(0);\n\n    //Address which can sign whitelist changes\n    address public signingAddress = address(0);\n\n    bytes32 public constant WHITELIST = \"WHITELIST\";\n    bytes32 public constant FLAGS = \"FLAGS\";\n\n    //from and to timestamps that an investor can send / receive tokens respectively\n    struct TimeRestriction {\n        uint256 fromTime;\n        uint256 toTime;\n        uint256 expiryTime;\n        bool canBuyFromSTO;\n    }\n\n    // An address can only send / receive tokens once their corresponding uint256 > block.number\n    // (unless allowAllTransfers == true or allowAllWhitelistTransfers == true)\n    mapping (address => TimeRestriction) public whitelist;\n\n    //If true, there are no transfer restrictions, for any addresses\n    bool public allowAllTransfers = false;\n    //If true, time lock is ignored for transfers (address must still be on whitelist)\n    bool public allowAllWhitelistTransfers = false;\n    //If true, time lock is ignored for issuances (address must still be on whitelist)\n    bool public allowAllWhitelistIssuances = true;\n    //If true, time lock is ignored for burn transactions\n    bool public allowAllBurnTransfers = false;\n\n    // Emit when Issuance address get changed\n    event ChangeIssuanceAddress(address _issuanceAddress);\n    // Emit when there is change in the flag variable called allowAllTransfers\n    event AllowAllTransfers(bool _allowAllTransfers);\n    // Emit when there is change in the flag variable called allowAllWhitelistTransfers\n    event AllowAllWhitelistTransfers(bool _allowAllWhitelistTransfers);\n    // Emit when there is change in the flag variable called allowAllWhitelistIssuances\n    event AllowAllWhitelistIssuances(bool _allowAllWhitelistIssuances);\n    // Emit when there is change in the flag variable called allowAllBurnTransfers\n    event AllowAllBurnTransfers(bool _allowAllBurnTransfers);\n    // Emit when there is change in the flag variable called signingAddress\n    event ChangeSigningAddress(address _signingAddress);\n    // Emit when investor details get modified related to their whitelisting\n    event ModifyWhitelist(\n        address _investor,\n        uint256 _dateAdded,\n        address _addedBy,\n        uint256 _fromTime,\n        uint256 _toTime,\n        uint256 _expiryTime,\n        bool _canBuyFromSTO\n    );\n\n    /**\n     * @notice Constructor\n     * @param _securityToken Address of the security token\n     * @param _polyAddress Address of the polytoken\n     */\n    constructor (address _securityToken, address _polyAddress)\n    public\n    Module(_securityToken, _polyAddress)\n    {\n    }\n\n    /**\n     * @notice This function returns the signature of configure function\n     */\n    function getInitFunction() public pure returns (bytes4) {\n        return bytes4(0);\n    }\n\n    /**\n     * @notice Used to change the Issuance Address\n     * @param _issuanceAddress new address for the issuance\n     */\n    function changeIssuanceAddress(address _issuanceAddress) public withPerm(FLAGS) {\n        issuanceAddress = _issuanceAddress;\n        emit ChangeIssuanceAddress(_issuanceAddress);\n    }\n\n    /**\n     * @notice Used to change the Sigining Address\n     * @param _signingAddress new address for the signing\n     */\n    function changeSigningAddress(address _signingAddress) public withPerm(FLAGS) {\n        signingAddress = _signingAddress;\n        emit ChangeSigningAddress(_signingAddress);\n    }\n\n    /**\n     * @notice Used to change the flag\n            true - It refers there are no transfer restrictions, for any addresses\n            false - It refers transfers are restricted for all addresses.\n     * @param _allowAllTransfers flag value\n     */\n    function changeAllowAllTransfers(bool _allowAllTransfers) public withPerm(FLAGS) {\n        allowAllTransfers = _allowAllTransfers;\n        emit AllowAllTransfers(_allowAllTransfers);\n    }\n\n    /**\n     * @notice Used to change the flag\n            true - It refers that time lock is ignored for transfers (address must still be on whitelist)\n            false - It refers transfers are restricted for all addresses.\n     * @param _allowAllWhitelistTransfers flag value\n     */\n    function changeAllowAllWhitelistTransfers(bool _allowAllWhitelistTransfers) public withPerm(FLAGS) {\n        allowAllWhitelistTransfers = _allowAllWhitelistTransfers;\n        emit AllowAllWhitelistTransfers(_allowAllWhitelistTransfers);\n    }\n\n    /**\n     * @notice Used to change the flag\n            true - It refers that time lock is ignored for issuances (address must still be on whitelist)\n            false - It refers transfers are restricted for all addresses.\n     * @param _allowAllWhitelistIssuances flag value\n     */\n    function changeAllowAllWhitelistIssuances(bool _allowAllWhitelistIssuances) public withPerm(FLAGS) {\n        allowAllWhitelistIssuances = _allowAllWhitelistIssuances;\n        emit AllowAllWhitelistIssuances(_allowAllWhitelistIssuances);\n    }\n\n    /**\n     * @notice Used to change the flag\n            true - It allow to burn the tokens\n            false - It deactivate the burning mechanism.\n     * @param _allowAllBurnTransfers flag value\n     */\n    function changeAllowAllBurnTransfers(bool _allowAllBurnTransfers) public withPerm(FLAGS) {\n        allowAllBurnTransfers = _allowAllBurnTransfers;\n        emit AllowAllBurnTransfers(_allowAllBurnTransfers);\n    }\n\n    /**\n    * @notice default implementation of verifyTransfer used by SecurityToken\n    * If the transfer request comes from the STO, it only checks that the investor is in the whitelist\n    * If the transfer request comes from a token holder, it checks that:\n    * a) Both are on the whitelist\n    * b) Seller's sale lockup period is over\n    * c) Buyer's purchase lockup is over\n    */\n    function verifyTransfer(address _from, address _to, uint256 /*_amount*/, bytes /* _data */, bool /* _isTransfer */) public returns(Result) {\n        if (!paused) {\n            if (allowAllTransfers) {\n                //All transfers allowed, regardless of whitelist\n                return Result.VALID;\n            }\n            if (allowAllBurnTransfers && (_to == address(0))) {\n                return Result.VALID;\n            }\n            if (allowAllWhitelistTransfers) {\n                //Anyone on the whitelist can transfer, regardless of time\n                return (_onWhitelist(_to) && _onWhitelist(_from)) ? Result.VALID : Result.NA;\n            }\n            if (allowAllWhitelistIssuances && _from == issuanceAddress) {\n                if (!whitelist[_to].canBuyFromSTO && _isSTOAttached()) {\n                    return Result.NA;\n                }\n                return _onWhitelist(_to) ? Result.VALID : Result.NA;\n            }\n            //Anyone on the whitelist can transfer provided the blocknumber is large enough\n            return ((_onWhitelist(_from) && whitelist[_from].fromTime <= now) &&\n                (_onWhitelist(_to) && whitelist[_to].toTime <= now)) ? Result.VALID : Result.NA;\n        }\n        return Result.NA;\n    }\n\n    /**\n    * @notice adds or removes addresses from the whitelist.\n    * @param _investor is the address to whitelist\n    * @param _fromTime is the moment when the sale lockup period ends and the investor can freely sell his tokens\n    * @param _toTime is the moment when the purchase lockup period ends and the investor can freely purchase tokens from others\n    * @param _expiryTime is the moment till investors KYC will be validated. After that investor need to do re-KYC\n    * @param _canBuyFromSTO is used to know whether the investor is restricted investor or not.\n    */\n    function modifyWhitelist(address _investor, uint256 _fromTime, uint256 _toTime, uint256 _expiryTime, bool _canBuyFromSTO) public withPerm(WHITELIST) {\n        //Passing a _time == 0 into this function, is equivalent to removing the _investor from the whitelist\n        whitelist[_investor] = TimeRestriction(_fromTime, _toTime, _expiryTime, _canBuyFromSTO);\n        emit ModifyWhitelist(_investor, now, msg.sender, _fromTime, _toTime, _expiryTime, _canBuyFromSTO);\n    }\n\n    /**\n    * @notice adds or removes addresses from the whitelist.\n    * @param _investors List of the addresses to whitelist\n    * @param _fromTimes An array of the moment when the sale lockup period ends and the investor can freely sell his tokens\n    * @param _toTimes An array of the moment when the purchase lockup period ends and the investor can freely purchase tokens from others\n    * @param _expiryTimes An array of the moment till investors KYC will be validated. After that investor need to do re-KYC\n    * @param _canBuyFromSTO An array of boolean values\n    */\n    function modifyWhitelistMulti(\n        address[] _investors,\n        uint256[] _fromTimes,\n        uint256[] _toTimes,\n        uint256[] _expiryTimes,\n        bool[] _canBuyFromSTO\n    ) public withPerm(WHITELIST) {\n        require(_investors.length == _fromTimes.length, \"Mismatched input lengths\");\n        require(_fromTimes.length == _toTimes.length, \"Mismatched input lengths\");\n        require(_toTimes.length == _expiryTimes.length, \"Mismatched input lengths\");\n        require(_canBuyFromSTO.length == _toTimes.length, \"Mismatched input length\");\n        for (uint256 i = 0; i < _investors.length; i++) {\n            modifyWhitelist(_investors[i], _fromTimes[i], _toTimes[i], _expiryTimes[i], _canBuyFromSTO[i]);\n        }\n    }\n\n    /**\n    * @notice adds or removes addresses from the whitelist - can be called by anyone with a valid signature\n    * @param _investor is the address to whitelist\n    * @param _fromTime is the moment when the sale lockup period ends and the investor can freely sell his tokens\n    * @param _toTime is the moment when the purchase lockup period ends and the investor can freely purchase tokens from others\n    * @param _expiryTime is the moment till investors KYC will be validated. After that investor need to do re-KYC\n    * @param _canBuyFromSTO is used to know whether the investor is restricted investor or not.\n    * @param _validFrom is the time that this signature is valid from\n    * @param _validTo is the time that this signature is valid until\n    * @param _v issuer signature\n    * @param _r issuer signature\n    * @param _s issuer signature\n    */\n    function modifyWhitelistSigned(\n        address _investor,\n        uint256 _fromTime,\n        uint256 _toTime,\n        uint256 _expiryTime,\n        bool _canBuyFromSTO,\n        uint256 _validFrom,\n        uint256 _validTo,\n        uint8 _v,\n        bytes32 _r,\n        bytes32 _s\n    ) public {\n        require(_validFrom <= now, \"ValidFrom is too early\");\n        require(_validTo >= now, \"ValidTo is too late\");\n        bytes32 hash = keccak256(abi.encodePacked(this, _investor, _fromTime, _toTime, _expiryTime, _canBuyFromSTO, _validFrom, _validTo));\n        _checkSig(hash, _v, _r, _s);\n        //Passing a _time == 0 into this function, is equivalent to removing the _investor from the whitelist\n        whitelist[_investor] = TimeRestriction(_fromTime, _toTime, _expiryTime, _canBuyFromSTO);\n        emit ModifyWhitelist(_investor, now, msg.sender, _fromTime, _toTime, _expiryTime, _canBuyFromSTO);\n    }\n\n    /**\n     * @notice used to verify the signature\n     */\n    function _checkSig(bytes32 _hash, uint8 _v, bytes32 _r, bytes32 _s) internal view {\n        //Check that the signature is valid\n        //sig should be signing - _investor, _fromTime, _toTime & _expiryTime and be signed by the issuer address\n        address signer = ecrecover(keccak256(abi.encodePacked(\"\\x19Ethereum Signed Message:\\n32\", _hash)), _v, _r, _s);\n        require(signer == Ownable(securityToken).owner() || signer == signingAddress, \"Incorrect signer\");\n    }\n\n    /**\n     * @notice Return the permissions flag that are associated with general trnasfer manager\n     */\n    function getPermissions() public view returns(bytes32[]) {\n        bytes32[] memory allPermissions = new bytes32[](2);\n        allPermissions[0] = WHITELIST;\n        allPermissions[1] = FLAGS;\n        return allPermissions;\n    }\n\n    /**\n     * @notice Internal function used to check whether the investor is in the whitelist or not\n            & also checks whether the KYC of investor get expired or not\n     * @param _investor Address of the investor\n     */\n    function _onWhitelist(address _investor) internal view returns(bool) {\n        return (((whitelist[_investor].fromTime != 0) || (whitelist[_investor].toTime != 0)) &&\n            (whitelist[_investor].expiryTime >= now));\n    }\n\n    /**\n     * @notice Internal function use to know whether the STO is attached or not\n     */\n    function _isSTOAttached() internal view returns(bool) {\n        bool attached = ISecurityToken(securityToken).getModulesByType(3).length > 0;\n        return attached;\n    }\n\n}\n",
  "sourcePath": "/Users/jere/Code/polymath-apps/packages/polymath-shared/scripts/generateLocalBlockchain/contracts/modules/TransferManager/GeneralTransferManager.sol",
  "compiler": {
    "name": "solc",
    "version": "0.4.24+commit.e67f0147.Emscripten.clang"
  },
  "schemaVersion": "2.0.1",
  "updatedAt": "2018-10-23T22:44:47.317Z"
}