{
  "contractName": "GeneralPermissionManager",
  "abi": [
    {
      "constant": true,
      "inputs": [
        {
          "name": "",
          "type": "address"
        },
        {
          "name": "",
          "type": "address"
        },
        {
          "name": "",
          "type": "bytes32"
        }
      ],
      "name": "perms",
      "outputs": [
        {
          "name": "",
          "type": "bool"
        }
      ],
      "payable": false,
      "stateMutability": "view",
      "type": "function"
    },
    {
      "constant": false,
      "inputs": [
        {
          "name": "_amount",
          "type": "uint256"
        }
      ],
      "name": "takeFee",
      "outputs": [
        {
          "name": "",
          "type": "bool"
        }
      ],
      "payable": false,
      "stateMutability": "nonpayable",
      "type": "function"
    },
    {
      "constant": true,
      "inputs": [],
      "name": "polyToken",
      "outputs": [
        {
          "name": "",
          "type": "address"
        }
      ],
      "payable": false,
      "stateMutability": "view",
      "type": "function"
    },
    {
      "constant": true,
      "inputs": [],
      "name": "CHANGE_PERMISSION",
      "outputs": [
        {
          "name": "",
          "type": "bytes32"
        }
      ],
      "payable": false,
      "stateMutability": "view",
      "type": "function"
    },
    {
      "constant": true,
      "inputs": [],
      "name": "securityToken",
      "outputs": [
        {
          "name": "",
          "type": "address"
        }
      ],
      "payable": false,
      "stateMutability": "view",
      "type": "function"
    },
    {
      "constant": true,
      "inputs": [],
      "name": "factory",
      "outputs": [
        {
          "name": "",
          "type": "address"
        }
      ],
      "payable": false,
      "stateMutability": "view",
      "type": "function"
    },
    {
      "constant": true,
      "inputs": [],
      "name": "FEE_ADMIN",
      "outputs": [
        {
          "name": "",
          "type": "bytes32"
        }
      ],
      "payable": false,
      "stateMutability": "view",
      "type": "function"
    },
    {
      "constant": true,
      "inputs": [
        {
          "name": "",
          "type": "address"
        }
      ],
      "name": "delegateDetails",
      "outputs": [
        {
          "name": "",
          "type": "bytes32"
        }
      ],
      "payable": false,
      "stateMutability": "view",
      "type": "function"
    },
    {
      "inputs": [
        {
          "name": "_securityToken",
          "type": "address"
        },
        {
          "name": "_polyAddress",
          "type": "address"
        }
      ],
      "payable": false,
      "stateMutability": "nonpayable",
      "type": "constructor"
    },
    {
      "anonymous": false,
      "inputs": [
        {
          "indexed": false,
          "name": "_delegate",
          "type": "address"
        },
        {
          "indexed": false,
          "name": "_module",
          "type": "address"
        },
        {
          "indexed": false,
          "name": "_perm",
          "type": "bytes32"
        },
        {
          "indexed": false,
          "name": "_valid",
          "type": "bool"
        },
        {
          "indexed": false,
          "name": "_timestamp",
          "type": "uint256"
        }
      ],
      "name": "LogChangePermission",
      "type": "event"
    },
    {
      "anonymous": false,
      "inputs": [
        {
          "indexed": false,
          "name": "_delegate",
          "type": "address"
        },
        {
          "indexed": false,
          "name": "_details",
          "type": "bytes32"
        },
        {
          "indexed": false,
          "name": "_timestamp",
          "type": "uint256"
        }
      ],
      "name": "LogAddPermission",
      "type": "event"
    },
    {
      "constant": true,
      "inputs": [],
      "name": "getInitFunction",
      "outputs": [
        {
          "name": "",
          "type": "bytes4"
        }
      ],
      "payable": false,
      "stateMutability": "pure",
      "type": "function"
    },
    {
      "constant": true,
      "inputs": [
        {
          "name": "_delegate",
          "type": "address"
        },
        {
          "name": "_module",
          "type": "address"
        },
        {
          "name": "_perm",
          "type": "bytes32"
        }
      ],
      "name": "checkPermission",
      "outputs": [
        {
          "name": "",
          "type": "bool"
        }
      ],
      "payable": false,
      "stateMutability": "view",
      "type": "function"
    },
    {
      "constant": false,
      "inputs": [
        {
          "name": "_delegate",
          "type": "address"
        },
        {
          "name": "_details",
          "type": "bytes32"
        }
      ],
      "name": "addPermission",
      "outputs": [],
      "payable": false,
      "stateMutability": "nonpayable",
      "type": "function"
    },
    {
      "constant": false,
      "inputs": [
        {
          "name": "_delegate",
          "type": "address"
        },
        {
          "name": "_module",
          "type": "address"
        },
        {
          "name": "_perm",
          "type": "bytes32"
        },
        {
          "name": "_valid",
          "type": "bool"
        }
      ],
      "name": "changePermission",
      "outputs": [
        {
          "name": "",
          "type": "bool"
        }
      ],
      "payable": false,
      "stateMutability": "nonpayable",
      "type": "function"
    },
    {
      "constant": true,
      "inputs": [
        {
          "name": "_delegate",
          "type": "address"
        }
      ],
      "name": "getDelegateDetails",
      "outputs": [
        {
          "name": "",
          "type": "bytes32"
        }
      ],
      "payable": false,
      "stateMutability": "view",
      "type": "function"
    },
    {
      "constant": true,
      "inputs": [],
      "name": "getPermissions",
      "outputs": [
        {
          "name": "",
          "type": "bytes32[]"
        }
      ],
      "payable": false,
      "stateMutability": "view",
      "type": "function"
    }
  ],
  "bytecode": "0x608060405234801561001057600080fd5b50604051604080610d4883398101604052805160209091015160018054600160a060020a03938416600160a060020a0319918216179091556000805482163317905560028054939092169216919091179055610cd7806100716000396000f3006080604052600436106100b65763ffffffff60e060020a6000350416631613ec9d81146100bb5780634e0a4792146101055780635e1758fa146101435780635f7619a4146101695780636c5aaf50146101815780636faa22a5146101b45780637922c08a146101e55780638658b8b9146101fa578063b84dfbd214610224578063c3a07df614610239578063c45a01551461029e578063d70afa96146102b3578063dec7542f146102c8578063e380d343146102f7575b600080fd5b3480156100c757600080fd5b506100d0610318565b604080517fffffffff000000000000000000000000000000000000000000000000000000009092168252519081900360200190f35b34801561011157600080fd5b5061012f600160a060020a036004358116906024351660443561031d565b604080519115158252519081900360200190f35b34801561014f57600080fd5b50610167600160a060020a0360043516602435610343565b005b34801561017557600080fd5b5061012f600435610551565b34801561018d57600080fd5b506101a2600160a060020a0360043516610890565b60408051918252519081900360200190f35b3480156101c057600080fd5b506101c96108ab565b60408051600160a060020a039092168252519081900360200190f35b3480156101f157600080fd5b506101a26108ba565b34801561020657600080fd5b5061012f600160a060020a03600435811690602435166044356108cc565b34801561023057600080fd5b506101c961092c565b34801561024557600080fd5b5061024e61093b565b60408051602080825283518183015283519192839290830191858101910280838360005b8381101561028a578181015183820152602001610272565b505050509050019250505060405180910390f35b3480156102aa57600080fd5b506101c961098d565b3480156102bf57600080fd5b506101a261099c565b3480156102d457600080fd5b5061012f600160a060020a036004358116906024351660443560643515156109c0565b34801561030357600080fd5b506101a2600160a060020a0360043516610c79565b600090565b600360209081526000938452604080852082529284528284209052825290205460ff1681565b600080516020610c8c833981519152600080600160009054906101000a9004600160a060020a0316600160a060020a0316638da5cb5b6040518163ffffffff1660e060020a028152600401602060405180830381600087803b1580156103a857600080fd5b505af11580156103bc573d6000803e3d6000fd5b505050506040513d60208110156103d257600080fd5b505160005433600160a060020a0392831681149450911614905081806103f55750805b8061049b5750600154604080517f8658b8b9000000000000000000000000000000000000000000000000000000008152336004820152306024820152604481018690529051600160a060020a0390921691638658b8b9916064808201926020929091908290030181600087803b15801561046e57600080fd5b505af1158015610482573d6000803e3d6000fd5b505050506040513d602081101561049857600080fd5b50515b15156104f1576040805160e560020a62461bcd02815260206004820152601760248201527f5065726d697373696f6e20636865636b206661696c6564000000000000000000604482015290519081900360640190fd5b600160a060020a038516600081815260046020908152604091829020879055815192835282018690524282820152517f7606544330055376fae1759a3d70de906caf98b81dc3bf7f2582af2ffcd4cfb49181900360600190a15050505050565b60007f4645455f41444d494e0000000000000000000000000000000000000000000000600080600160009054906101000a9004600160a060020a0316600160a060020a0316638da5cb5b6040518163ffffffff1660e060020a028152600401602060405180830381600087803b1580156105ca57600080fd5b505af11580156105de573d6000803e3d6000fd5b505050506040513d60208110156105f457600080fd5b505160005433600160a060020a0392831681149450911614905081806106175750805b806106bd5750600154604080517f8658b8b9000000000000000000000000000000000000000000000000000000008152336004820152306024820152604481018690529051600160a060020a0390921691638658b8b9916064808201926020929091908290030181600087803b15801561069057600080fd5b505af11580156106a4573d6000803e3d6000fd5b505050506040513d60208110156106ba57600080fd5b50515b1515610713576040805160e560020a62461bcd02815260206004820152601760248201527f5065726d697373696f6e20636865636b206661696c6564000000000000000000604482015290519081900360640190fd5b60025460008054604080517f8da5cb5b0000000000000000000000000000000000000000000000000000000081529051600160a060020a03948516946323b872dd94309490911692638da5cb5b9260048083019360209383900390910190829087803b15801561078257600080fd5b505af1158015610796573d6000803e3d6000fd5b505050506040513d60208110156107ac57600080fd5b50516040805160e060020a63ffffffff8616028152600160a060020a039384166004820152929091166024830152604482018990525160648083019260209291908290030181600087803b15801561080357600080fd5b505af1158015610817573d6000803e3d6000fd5b505050506040513d602081101561082d57600080fd5b50511515610885576040805160e560020a62461bcd02815260206004820152601260248201527f556e61626c6520746f2074616b65206665650000000000000000000000000000604482015290519081900360640190fd5b506001949350505050565b600160a060020a031660009081526004602052604090205490565b600254600160a060020a031681565b600080516020610c8c83398151915281565b600160a060020a038316600090815260046020526040812054156109215750600160a060020a03808316600090815260036020908152604080832093871683529281528282208483529052205460ff16610925565b5060005b9392505050565b600154600160a060020a031681565b60408051600180825281830190925260609182919060208083019080388339019050509050600080516020610c8c83398151915281600081518110151561097e57fe5b60209081029091010152905090565b600054600160a060020a031681565b7f4645455f41444d494e000000000000000000000000000000000000000000000081565b6000600080516020610c8c833981519152600080600160009054906101000a9004600160a060020a0316600160a060020a0316638da5cb5b6040518163ffffffff1660e060020a028152600401602060405180830381600087803b158015610a2757600080fd5b505af1158015610a3b573d6000803e3d6000fd5b505050506040513d6020811015610a5157600080fd5b505160005433600160a060020a039283168114945091161490508180610a745750805b80610b1a5750600154604080517f8658b8b9000000000000000000000000000000000000000000000000000000008152336004820152306024820152604481018690529051600160a060020a0390921691638658b8b9916064808201926020929091908290030181600087803b158015610aed57600080fd5b505af1158015610b01573d6000803e3d6000fd5b505050506040513d6020811015610b1757600080fd5b50515b1515610b70576040805160e560020a62461bcd02815260206004820152601760248201527f5065726d697373696f6e20636865636b206661696c6564000000000000000000604482015290519081900360640190fd5b600160a060020a0388166000908152600460205260409020541515610bdf576040805160e560020a62461bcd02815260206004820152601860248201527f44656c65676174652064657461696c73206e6f74207365740000000000000000604482015290519081900360640190fd5b600160a060020a038088166000818152600360209081526040808320948d168084529482528083208b845282529182902080548a151560ff1990911681179091558251948552908401929092528281018990526060830191909152426080830152517fe7e0f6463adc815ed8a33c10555a87bdef40d69beb9fdd7e4e3e783c35bf958c9181900360a00190a1506001979650505050505050565b6004602052600090815260409020548156004348414e47455f5045524d495353494f4e000000000000000000000000000000a165627a7a72305820a409fca3d31e95c0f71796a1f3c68dc12a4e9d6991b33f61361b74d3f32f0d4d0029",
  "source": "pragma solidity ^0.4.24;\n\nimport \"./IPermissionManager.sol\";\n\n/////////////////////\n// Module permissions\n/////////////////////\n//                          Owner       CHANGE_PERMISSION\n// addPermission              X               X\n// changePermission           X               X\n//\n\n/**\n * @title Permission Manager module for core permissioning functionality\n */\ncontract GeneralPermissionManager is IPermissionManager {\n\n    // Mapping used to hold the permissions on the modules provided to delegate\n    mapping (address => mapping (address => mapping (bytes32 => bool))) public perms;\n    // Mapping hold the delagate details\n    mapping (address => bytes32) public delegateDetails;\n    // Permission flag\n    bytes32 public constant CHANGE_PERMISSION = \"CHANGE_PERMISSION\";\n\n    /// Event emitted after any permission get changed for the delegate\n    event LogChangePermission(address _delegate, address _module, bytes32 _perm, bool _valid, uint256 _timestamp);\n    /// Use to notify when delegate is added in permission manager contract\n    event LogAddPermission(address _delegate, bytes32 _details, uint256 _timestamp);\n\n    /// @notice constructor\n    constructor (address _securityToken, address _polyAddress) public\n    IModule(_securityToken, _polyAddress)\n    {\n    }\n\n    /**\n    * @notice Init function i.e generalise function to maintain the structure of the module contract\n    * @return bytes4\n    */\n    function getInitFunction() public pure returns (bytes4) {\n        return bytes4(0);\n    }\n\n    /**\n    * @notice use to check the permission on delegate corresponds to module contract address\n    * @param _delegate Ethereum address of the delegate\n    * @param _module Ethereum contract address of the module\n    * @param _perm Permission flag\n    * @return bool\n    */\n    function checkPermission(address _delegate, address _module, bytes32 _perm) public view returns(bool) {\n        if (delegateDetails[_delegate] != bytes32(0)) {\n            return perms[_module][_delegate][_perm];\n        }else\n            return false;\n    }\n\n    /**\n    * @notice use to add the details of the delegate\n    * @param _delegate Ethereum address of the delegate\n    * @param _details Details about the delegate i.e `Belongs to financial firm`\n    */\n    function addPermission(address _delegate, bytes32 _details) public withPerm(CHANGE_PERMISSION) {\n        delegateDetails[_delegate] = _details;\n        emit LogAddPermission(_delegate, _details, now);\n    }\n\n  /**\n    * @notice Use to provide/change the permission to the delegate corresponds to the module contract\n    * @param _delegate Ethereum address of the delegate\n    * @param _module Ethereum contract address of the module\n    * @param _perm Permission flag\n    * @param _valid Bool flag use to switch on/off the permission\n    * @return bool\n    */\n    function changePermission(\n        address _delegate,\n        address _module,\n        bytes32 _perm,\n        bool _valid\n    )\n    public\n    withPerm(CHANGE_PERMISSION)\n    returns(bool)\n    {\n        require(delegateDetails[_delegate] != bytes32(0), \"Delegate details not set\");\n        perms[_module][_delegate][_perm] = _valid;\n        emit LogChangePermission(_delegate, _module, _perm, _valid, now);\n        return true;\n    }\n\n    /**\n    * @notice Use to get the details of the delegate\n    * @param _delegate Ethereum address of the delegate\n    * @return Details of the delegate\n    */\n    function getDelegateDetails(address _delegate) public view returns(bytes32) {\n        return delegateDetails[_delegate];\n    }\n\n    /**\n    * @notice Use to get the Permission flag related the `this` contract\n    * @return Array of permission flags\n    */\n    function getPermissions() public view returns(bytes32[]) {\n        bytes32[] memory allPermissions = new bytes32[](1);\n        allPermissions[0] = CHANGE_PERMISSION;\n        return allPermissions;\n    }\n\n}\n",
  "sourcePath": "/Users/rafaelvidaurre/Code/polymath/polymath-apps/packages/polymath-shared/scripts/generateLocalBlockchain/contracts/modules/PermissionManager/GeneralPermissionManager.sol",
  "compiler": {
    "name": "solc",
    "version": "0.4.24+commit.e67f0147.Emscripten.clang"
  },
  "schemaVersion": "2.0.1",
  "updatedAt": "2018-10-18T19:17:46.357Z"
}