{
  "contractName": "MakerDAOOracle",
  "abi": [
    {
      "constant": false,
      "inputs": [],
      "name": "renounceOwnership",
      "outputs": [],
      "payable": false,
      "stateMutability": "nonpayable",
      "type": "function"
    },
    {
      "constant": true,
      "inputs": [],
      "name": "owner",
      "outputs": [
        {
          "name": "",
          "type": "address"
        }
      ],
      "payable": false,
      "stateMutability": "view",
      "type": "function"
    },
    {
      "constant": true,
      "inputs": [],
      "name": "manualPrice",
      "outputs": [
        {
          "name": "",
          "type": "uint256"
        }
      ],
      "payable": false,
      "stateMutability": "view",
      "type": "function"
    },
    {
      "constant": true,
      "inputs": [],
      "name": "makerDAO",
      "outputs": [
        {
          "name": "",
          "type": "address"
        }
      ],
      "payable": false,
      "stateMutability": "view",
      "type": "function"
    },
    {
      "constant": true,
      "inputs": [],
      "name": "manualOverride",
      "outputs": [
        {
          "name": "",
          "type": "bool"
        }
      ],
      "payable": false,
      "stateMutability": "view",
      "type": "function"
    },
    {
      "constant": false,
      "inputs": [
        {
          "name": "_newOwner",
          "type": "address"
        }
      ],
      "name": "transferOwnership",
      "outputs": [],
      "payable": false,
      "stateMutability": "nonpayable",
      "type": "function"
    },
    {
      "anonymous": false,
      "inputs": [
        {
          "indexed": false,
          "name": "_newMakerDAO",
          "type": "address"
        },
        {
          "indexed": false,
          "name": "_oldMakerDAO",
          "type": "address"
        },
        {
          "indexed": false,
          "name": "_now",
          "type": "uint256"
        }
      ],
      "name": "LogChangeMakerDAO",
      "type": "event"
    },
    {
      "anonymous": false,
      "inputs": [
        {
          "indexed": false,
          "name": "_oldPrice",
          "type": "uint256"
        },
        {
          "indexed": false,
          "name": "_newPrice",
          "type": "uint256"
        },
        {
          "indexed": false,
          "name": "_time",
          "type": "uint256"
        }
      ],
      "name": "LogSetManualPrice",
      "type": "event"
    },
    {
      "anonymous": false,
      "inputs": [
        {
          "indexed": false,
          "name": "_override",
          "type": "bool"
        },
        {
          "indexed": false,
          "name": "_time",
          "type": "uint256"
        }
      ],
      "name": "LogSetManualOverride",
      "type": "event"
    },
    {
      "anonymous": false,
      "inputs": [
        {
          "indexed": true,
          "name": "previousOwner",
          "type": "address"
        }
      ],
      "name": "OwnershipRenounced",
      "type": "event"
    },
    {
      "anonymous": false,
      "inputs": [
        {
          "indexed": true,
          "name": "previousOwner",
          "type": "address"
        },
        {
          "indexed": true,
          "name": "newOwner",
          "type": "address"
        }
      ],
      "name": "OwnershipTransferred",
      "type": "event"
    },
    {
      "constant": false,
      "inputs": [
        {
          "name": "_makerDAO",
          "type": "address"
        }
      ],
      "name": "changeMakerDAO",
      "outputs": [],
      "payable": false,
      "stateMutability": "nonpayable",
      "type": "function"
    },
    {
      "constant": true,
      "inputs": [],
      "name": "getCurrencyAddress",
      "outputs": [
        {
          "name": "",
          "type": "address"
        }
      ],
      "payable": false,
      "stateMutability": "view",
      "type": "function"
    },
    {
      "constant": true,
      "inputs": [],
      "name": "getCurrencySymbol",
      "outputs": [
        {
          "name": "",
          "type": "bytes32"
        }
      ],
      "payable": false,
      "stateMutability": "view",
      "type": "function"
    },
    {
      "constant": true,
      "inputs": [],
      "name": "getCurrencyDenominated",
      "outputs": [
        {
          "name": "",
          "type": "bytes32"
        }
      ],
      "payable": false,
      "stateMutability": "view",
      "type": "function"
    },
    {
      "constant": true,
      "inputs": [],
      "name": "getPrice",
      "outputs": [
        {
          "name": "",
          "type": "uint256"
        }
      ],
      "payable": false,
      "stateMutability": "view",
      "type": "function"
    },
    {
      "constant": false,
      "inputs": [
        {
          "name": "_price",
          "type": "uint256"
        }
      ],
      "name": "setManualPrice",
      "outputs": [],
      "payable": false,
      "stateMutability": "nonpayable",
      "type": "function"
    },
    {
      "constant": false,
      "inputs": [
        {
          "name": "_override",
          "type": "bool"
        }
      ],
      "name": "setManualOverride",
      "outputs": [],
      "payable": false,
      "stateMutability": "nonpayable",
      "type": "function"
    }
  ],
  "bytecode": "0x608060405260018054600160a060020a031990811673729d19f657bd0614b4985cf1d82531c67569197b1790915560008054909116331790556106e1806100476000396000f3006080604052600436106100c45763ffffffff7c01000000000000000000000000000000000000000000000000000000006000350416633596750181146100c95780635dfc09a4146100e5578063715018a61461010c5780638da5cb5b1461012157806398d5fdca146101525780639b81505714610167578063a2c9d63014610188578063abd496461461019d578063bae6d62b146101b2578063bfe0c27e146101db578063d2654219146101f0578063d7a7186814610205578063f2fde38b1461021d575b600080fd5b3480156100d557600080fd5b506100e3600435151561023e565b005b3480156100f157600080fd5b506100fa6102d0565b60408051918252519081900360200190f35b34801561011857600080fd5b506100e36102f4565b34801561012d57600080fd5b50610136610360565b60408051600160a060020a039092168252519081900360200190f35b34801561015e57600080fd5b506100fa61036f565b34801561017357600080fd5b506100e3600160a060020a03600435166104c7565b34801561019457600080fd5b506100fa610559565b3480156101a957600080fd5b5061013661055f565b3480156101be57600080fd5b506101c761056e565b604080519115158252519081900360200190f35b3480156101e757600080fd5b5061013661058f565b3480156101fc57600080fd5b506100fa610594565b34801561021157600080fd5b506100e36004356105b8565b34801561022957600080fd5b506100e3600160a060020a0360043516610615565b600054600160a060020a0316331461025557600080fd5b6001805474ff0000000000000000000000000000000000000000191674010000000000000000000000000000000000000000831515908102919091179091556040805191825242602083015280517f14a38f9bb5326b2ea5d19c58d6bf35c0fb16bec9b9f593b1630a13f85c0044a19281900390910190a150565b7f455448000000000000000000000000000000000000000000000000000000000090565b600054600160a060020a0316331461030b57600080fd5b60008054604051600160a060020a03909116917ff8df31144d9c2f0f6b59d69b8b98abd5459d07f2742c4df920b25aae33c6482091a26000805473ffffffffffffffffffffffffffffffffffffffff19169055565b600054600160a060020a031681565b6000806000600160149054906101000a900460ff16156103935760025492506104c2565b600154604080517f59e02dd70000000000000000000000000000000000000000000000000000000081528151600160a060020a03909316926359e02dd7926004808401939192918290030181600087803b1580156103f057600080fd5b505af1158015610404573d6000803e3d6000fd5b505050506040513d604081101561041a57600080fd5b50805160209091015190925090508015156104bc57604080517f08c379a000000000000000000000000000000000000000000000000000000000815260206004820152602760248201527f4d616b657244414f204f7261636c652072657475726e696e6720696e76616c6960448201527f642076616c756500000000000000000000000000000000000000000000000000606482015290519081900360840190fd5b90915081905b505090565b600054600160a060020a031633146104de57600080fd5b60015460408051600160a060020a03808516825290921660208301524282820152517f7543e286f28e8144103ba5ca383a4e261117d34bd6a06d55a86b65dfcf3215129181900360600190a16001805473ffffffffffffffffffffffffffffffffffffffff1916600160a060020a0392909216919091179055565b60025481565b600154600160a060020a031681565b60015474010000000000000000000000000000000000000000900460ff1681565b600090565b7f555344000000000000000000000000000000000000000000000000000000000090565b600054600160a060020a031633146105cf57600080fd5b60025460408051918252602082018390524282820152517f75a35a9f0ffcd3bff850640b21cf7a3e9d887bb934d427afb6461837a20e384f9181900360600190a1600255565b600054600160a060020a0316331461062c57600080fd5b61063581610638565b50565b600160a060020a038116151561064d57600080fd5b60008054604051600160a060020a03808516939216917f8be0079c531659141344cd1fd0a4f28419497f9722a3daafe3b4186f6b6457e091a36000805473ffffffffffffffffffffffffffffffffffffffff1916600160a060020a03929092169190911790555600a165627a7a72305820441d98b5d0c7db39d75cd132dfed3d0af74c8e2e88728aca4f69b31281363a160029",
  "source": "pragma solidity ^0.4.24;\n\nimport '../interfaces/IOracle.sol';\nimport '../external/Medianizer.sol';\nimport \"openzeppelin-solidity/contracts/ownership/Ownable.sol\";\n\ncontract MakerDAOOracle is IOracle, Ownable {\n\n    address public makerDAO = 0x729D19f657BD0614b4985Cf1D82531c67569197B;\n\n    bool public manualOverride;\n\n    uint256 public manualPrice;\n\n    event LogChangeMakerDAO(address _newMakerDAO, address _oldMakerDAO, uint256 _now);\n    event LogSetManualPrice(uint256 _oldPrice, uint256 _newPrice, uint256 _time);\n    event LogSetManualOverride(bool _override, uint256 _time);\n\n    function changeMakerDAO(address _makerDAO) public onlyOwner {\n        emit LogChangeMakerDAO(_makerDAO, makerDAO, now);\n        makerDAO = _makerDAO;\n    }\n\n    /**\n    * @notice Returns address of oracle currency (0x0 for ETH)\n    */\n    function getCurrencyAddress() external view returns(address) {\n        return address(0);\n    }\n\n    /**\n    * @notice Returns symbol of oracle currency (0x0 for ETH)\n    */\n    function getCurrencySymbol() external view returns(bytes32) {\n        return bytes32(\"ETH\");\n    }\n\n    /**\n    * @notice Returns denomination of price\n    */\n    function getCurrencyDenominated() external view returns(bytes32) {\n        return bytes32(\"USD\");\n    }\n\n    /**\n    * @notice Returns price - should throw if not valid\n    */\n    function getPrice() external view returns(uint256) {\n        if (manualOverride) {\n            return manualPrice;\n        }\n        (bytes32 price, bool valid) = Medianizer(makerDAO).peek();\n        require(valid, \"MakerDAO Oracle returning invalid value\");\n        return uint256(price);\n    }\n\n    /**\n      * @notice Set a manual price. NA - this will only be used if manualOverride == true\n      * @param _price Price to set\n      */\n    function setManualPrice(uint256 _price) public onlyOwner {\n        emit LogSetManualPrice(manualPrice, _price, now);\n        manualPrice = _price;\n    }\n\n    /**\n      * @notice Determine whether manual price is used or not\n      * @param _override Whether to use the manual override price or not\n      */\n    function setManualOverride(bool _override) public onlyOwner {\n        manualOverride = _override;\n        emit LogSetManualOverride(_override, now);\n    }\n\n}\n",
  "sourcePath": "/Users/rafaelvidaurre/Code/polymath/polymath-apps/node_modules/polymath-core/contracts/oracles/MakerDAOOracle.sol",
  "compiler": {
    "name": "solc",
    "version": "0.4.24+commit.e67f0147.Emscripten.clang"
  },
  "schemaVersion": "2.0.1",
  "updatedAt": "2018-09-24T19:06:00.004Z"
}