{
  "contractName": "ManualApprovalTransferManagerFactory",
  "abi": [
    {
      "constant": true,
      "inputs": [],
      "name": "monthlySubscriptionCost",
      "outputs": [
        {
          "name": "",
          "type": "uint256"
        }
      ],
      "payable": false,
      "stateMutability": "view",
      "type": "function"
    },
    {
      "constant": true,
      "inputs": [],
      "name": "name",
      "outputs": [
        {
          "name": "",
          "type": "bytes32"
        }
      ],
      "payable": false,
      "stateMutability": "view",
      "type": "function"
    },
    {
      "constant": false,
      "inputs": [
        {
          "name": "_newTitle",
          "type": "string"
        }
      ],
      "name": "changeTitle",
      "outputs": [],
      "payable": false,
      "stateMutability": "nonpayable",
      "type": "function"
    },
    {
      "constant": false,
      "inputs": [
        {
          "name": "_newSubscriptionCost",
          "type": "uint256"
        }
      ],
      "name": "changeFactorySubscriptionFee",
      "outputs": [],
      "payable": false,
      "stateMutability": "nonpayable",
      "type": "function"
    },
    {
      "constant": true,
      "inputs": [],
      "name": "title",
      "outputs": [
        {
          "name": "",
          "type": "string"
        }
      ],
      "payable": false,
      "stateMutability": "view",
      "type": "function"
    },
    {
      "constant": true,
      "inputs": [],
      "name": "version",
      "outputs": [
        {
          "name": "",
          "type": "string"
        }
      ],
      "payable": false,
      "stateMutability": "view",
      "type": "function"
    },
    {
      "constant": false,
      "inputs": [
        {
          "name": "_newSetupCost",
          "type": "uint256"
        }
      ],
      "name": "changeFactorySetupFee",
      "outputs": [],
      "payable": false,
      "stateMutability": "nonpayable",
      "type": "function"
    },
    {
      "constant": false,
      "inputs": [
        {
          "name": "_newVersion",
          "type": "string"
        }
      ],
      "name": "changeVersion",
      "outputs": [],
      "payable": false,
      "stateMutability": "nonpayable",
      "type": "function"
    },
    {
      "constant": true,
      "inputs": [],
      "name": "polyToken",
      "outputs": [
        {
          "name": "",
          "type": "address"
        }
      ],
      "payable": false,
      "stateMutability": "view",
      "type": "function"
    },
    {
      "constant": false,
      "inputs": [],
      "name": "renounceOwnership",
      "outputs": [],
      "payable": false,
      "stateMutability": "nonpayable",
      "type": "function"
    },
    {
      "constant": true,
      "inputs": [],
      "name": "description",
      "outputs": [
        {
          "name": "",
          "type": "string"
        }
      ],
      "payable": false,
      "stateMutability": "view",
      "type": "function"
    },
    {
      "constant": true,
      "inputs": [],
      "name": "setupCost",
      "outputs": [
        {
          "name": "",
          "type": "uint256"
        }
      ],
      "payable": false,
      "stateMutability": "view",
      "type": "function"
    },
    {
      "constant": true,
      "inputs": [],
      "name": "getLowerSTVersionBounds",
      "outputs": [
        {
          "name": "",
          "type": "uint8[]"
        }
      ],
      "payable": false,
      "stateMutability": "view",
      "type": "function"
    },
    {
      "constant": false,
      "inputs": [
        {
          "name": "_newName",
          "type": "bytes32"
        }
      ],
      "name": "changeName",
      "outputs": [],
      "payable": false,
      "stateMutability": "nonpayable",
      "type": "function"
    },
    {
      "constant": true,
      "inputs": [],
      "name": "owner",
      "outputs": [
        {
          "name": "",
          "type": "address"
        }
      ],
      "payable": false,
      "stateMutability": "view",
      "type": "function"
    },
    {
      "constant": false,
      "inputs": [
        {
          "name": "_newUsageCost",
          "type": "uint256"
        }
      ],
      "name": "changeFactoryUsageFee",
      "outputs": [],
      "payable": false,
      "stateMutability": "nonpayable",
      "type": "function"
    },
    {
      "constant": true,
      "inputs": [],
      "name": "usageCost",
      "outputs": [
        {
          "name": "",
          "type": "uint256"
        }
      ],
      "payable": false,
      "stateMutability": "view",
      "type": "function"
    },
    {
      "constant": false,
      "inputs": [
        {
          "name": "_newDesc",
          "type": "string"
        }
      ],
      "name": "changeDescription",
      "outputs": [],
      "payable": false,
      "stateMutability": "nonpayable",
      "type": "function"
    },
    {
      "constant": false,
      "inputs": [
        {
          "name": "_newOwner",
          "type": "address"
        }
      ],
      "name": "transferOwnership",
      "outputs": [],
      "payable": false,
      "stateMutability": "nonpayable",
      "type": "function"
    },
    {
      "constant": true,
      "inputs": [],
      "name": "getUpperSTVersionBounds",
      "outputs": [
        {
          "name": "",
          "type": "uint8[]"
        }
      ],
      "payable": false,
      "stateMutability": "view",
      "type": "function"
    },
    {
      "constant": false,
      "inputs": [
        {
          "name": "_boundType",
          "type": "string"
        },
        {
          "name": "_newVersion",
          "type": "uint8[]"
        }
      ],
      "name": "changeSTVersionBounds",
      "outputs": [],
      "payable": false,
      "stateMutability": "nonpayable",
      "type": "function"
    },
    {
      "inputs": [
        {
          "name": "_polyAddress",
          "type": "address"
        },
        {
          "name": "_setupCost",
          "type": "uint256"
        },
        {
          "name": "_usageCost",
          "type": "uint256"
        },
        {
          "name": "_subscriptionCost",
          "type": "uint256"
        }
      ],
      "payable": false,
      "stateMutability": "nonpayable",
      "type": "constructor"
    },
    {
      "anonymous": false,
      "inputs": [
        {
          "indexed": false,
          "name": "_oldSetupCost",
          "type": "uint256"
        },
        {
          "indexed": false,
          "name": "_newSetupCost",
          "type": "uint256"
        },
        {
          "indexed": false,
          "name": "_moduleFactory",
          "type": "address"
        }
      ],
      "name": "ChangeFactorySetupFee",
      "type": "event"
    },
    {
      "anonymous": false,
      "inputs": [
        {
          "indexed": false,
          "name": "_oldUsageCost",
          "type": "uint256"
        },
        {
          "indexed": false,
          "name": "_newUsageCost",
          "type": "uint256"
        },
        {
          "indexed": false,
          "name": "_moduleFactory",
          "type": "address"
        }
      ],
      "name": "ChangeFactoryUsageFee",
      "type": "event"
    },
    {
      "anonymous": false,
      "inputs": [
        {
          "indexed": false,
          "name": "_oldSubscriptionCost",
          "type": "uint256"
        },
        {
          "indexed": false,
          "name": "_newMonthlySubscriptionCost",
          "type": "uint256"
        },
        {
          "indexed": false,
          "name": "_moduleFactory",
          "type": "address"
        }
      ],
      "name": "ChangeFactorySubscriptionFee",
      "type": "event"
    },
    {
      "anonymous": false,
      "inputs": [
        {
          "indexed": false,
          "name": "_module",
          "type": "address"
        },
        {
          "indexed": true,
          "name": "_moduleName",
          "type": "bytes32"
        },
        {
          "indexed": true,
          "name": "_moduleFactory",
          "type": "address"
        },
        {
          "indexed": false,
          "name": "_creator",
          "type": "address"
        },
        {
          "indexed": false,
          "name": "_timestamp",
          "type": "uint256"
        }
      ],
      "name": "GenerateModuleFromFactory",
      "type": "event"
    },
    {
      "anonymous": false,
      "inputs": [
        {
          "indexed": false,
          "name": "_boundType",
          "type": "string"
        },
        {
          "indexed": false,
          "name": "_major",
          "type": "uint8"
        },
        {
          "indexed": false,
          "name": "_minor",
          "type": "uint8"
        },
        {
          "indexed": false,
          "name": "_patch",
          "type": "uint8"
        }
      ],
      "name": "ChangeSTVersionBound",
      "type": "event"
    },
    {
      "anonymous": false,
      "inputs": [
        {
          "indexed": true,
          "name": "previousOwner",
          "type": "address"
        }
      ],
      "name": "OwnershipRenounced",
      "type": "event"
    },
    {
      "anonymous": false,
      "inputs": [
        {
          "indexed": true,
          "name": "previousOwner",
          "type": "address"
        },
        {
          "indexed": true,
          "name": "newOwner",
          "type": "address"
        }
      ],
      "name": "OwnershipTransferred",
      "type": "event"
    },
    {
      "anonymous": false,
      "inputs": [
        {
          "indexed": false,
          "name": "_module",
          "type": "address"
        },
        {
          "indexed": true,
          "name": "_moduleName",
          "type": "bytes32"
        },
        {
          "indexed": true,
          "name": "_moduleFactory",
          "type": "address"
        },
        {
          "indexed": false,
          "name": "_creator",
          "type": "address"
        },
        {
          "indexed": false,
          "name": "_setupCost",
          "type": "uint256"
        },
        {
          "indexed": false,
          "name": "_timestamp",
          "type": "uint256"
        }
      ],
      "name": "GenerateModuleFromFactory",
      "type": "event"
    },
    {
      "constant": false,
      "inputs": [
        {
          "name": "",
          "type": "bytes"
        }
      ],
      "name": "deploy",
      "outputs": [
        {
          "name": "",
          "type": "address"
        }
      ],
      "payable": false,
      "stateMutability": "nonpayable",
      "type": "function"
    },
    {
      "constant": true,
      "inputs": [],
      "name": "getTypes",
      "outputs": [
        {
          "name": "",
          "type": "uint8[]"
        }
      ],
      "payable": false,
      "stateMutability": "view",
      "type": "function"
    },
    {
      "constant": true,
      "inputs": [],
      "name": "getName",
      "outputs": [
        {
          "name": "",
          "type": "bytes32"
        }
      ],
      "payable": false,
      "stateMutability": "view",
      "type": "function"
    },
    {
      "constant": true,
      "inputs": [],
      "name": "getDescription",
      "outputs": [
        {
          "name": "",
          "type": "string"
        }
      ],
      "payable": false,
      "stateMutability": "view",
      "type": "function"
    },
    {
      "constant": true,
      "inputs": [],
      "name": "getTitle",
      "outputs": [
        {
          "name": "",
          "type": "string"
        }
      ],
      "payable": false,
      "stateMutability": "view",
      "type": "function"
    },
    {
      "constant": true,
      "inputs": [],
      "name": "getVersion",
      "outputs": [
        {
          "name": "",
          "type": "string"
        }
      ],
      "payable": false,
      "stateMutability": "view",
      "type": "function"
    },
    {
      "constant": true,
      "inputs": [],
      "name": "getSetupCost",
      "outputs": [
        {
          "name": "",
          "type": "uint256"
        }
      ],
      "payable": false,
      "stateMutability": "view",
      "type": "function"
    },
    {
      "constant": true,
      "inputs": [],
      "name": "getInstructions",
      "outputs": [
        {
          "name": "",
          "type": "string"
        }
      ],
      "payable": false,
      "stateMutability": "view",
      "type": "function"
    },
    {
      "constant": true,
      "inputs": [],
      "name": "getTags",
      "outputs": [
        {
          "name": "",
          "type": "bytes32[]"
        }
      ],
      "payable": false,
      "stateMutability": "view",
      "type": "function"
    }
  ],
  "bytecode": "0x60806040523480156200001157600080fd5b506040516080806200377b8339810160408181528251602080850151838601516060909601516000805433600160a060020a03199182161790915560018054909116600160a060020a03861617905560028290556003879055600481905584860190945260058086527f312e302e300000000000000000000000000000000000000000000000000000009290950191825291949193919291620000b79160069162000290565b507f4d616e75616c417070726f76616c5472616e736665724d616e616765720000006007556040805180820190915260208082527f4d616e75616c20417070726f76616c205472616e73666572204d616e61676572918101918252620001209160089162000290565b506040805160608101825260328082527f4d616e616765207472616e7366657273207573696e672073696e676c65206170602083019081527f70726f76616c73202f20626c6f636b696e67000000000000000000000000000092909301919091526200018f9160059162000290565b50620001ac60008080640100000000620017b76200027582021704565b604080517f6c6f776572426f756e640000000000000000000000000000000000000000000081526009600a820152905190819003602a019020805462ffffff9290921662ffffff199092169190911790556200021960008080640100000000620017b76200027582021704565b604080517f7570706572426f756e640000000000000000000000000000000000000000000081526009600a820152905190819003602a019020805462ffffff9290921662ffffff19909216919091179055506200033592505050565b60ff9081169181166101000292166201000002919091171790565b828054600181600116156101000203166002900490600052602060002090601f016020900481019282601f10620002d357805160ff191683800117855562000303565b8280016001018555821562000303579182015b8281111562000303578251825591602001919060010190620002e6565b506200031192915062000315565b5090565b6200033291905b808211156200031157600081556001016200031c565b90565b61343680620003456000396000f30060806040526004361061017e5763ffffffff7c0100000000000000000000000000000000000000000000000000000000600035041662774360811461018357806306184a25146101bf57806306fdde03146101e65780630d8e6e2c146101fb57806317d7de7c146102855780631a0925411461029a5780632dbe07c7146102af5780633ae192bd1461030a5780634a79d50c1461032257806354fd4d501461033757806358a191c31461034c57806364bb432c146103645780636faa22a5146103bd578063715018a6146103d25780637284e416146103e75780637e363ffa146103fc5780638677768f14610411578063898855ed146104765780638da5cb5b1461048e578063995d9ab7146104a3578063a5e9d7c9146104b8578063aac67b05146104cd578063b4579d60146104e5578063d54c4726146104fa578063e0d549701461050f578063e612041314610524578063f2fde38b1461057d578063f78629991461059e578063fb972456146105b3578063ff3c1a8f146105df575b600080fd5b34801561018f57600080fd5b506101a360048035602481019101356105f4565b60408051600160a060020a039092168252519081900360200190f35b3480156101cb57600080fd5b506101d4610813565b60408051918252519081900360200190f35b3480156101f257600080fd5b506101d4610819565b34801561020757600080fd5b5061021061081f565b6040805160208082528351818301528351919283929083019185019080838360005b8381101561024a578181015183820152602001610232565b50505050905090810190601f1680156102775780820380516001836020036101000a031916815260200191505b509250505060405180910390f35b34801561029157600080fd5b506101d46108b6565b3480156102a657600080fd5b506102106108bc565b3480156102bb57600080fd5b506040805160206004803580820135601f810184900484028501840190955284845261030894369492936024939284019190819084018382808284375094975061091d9650505050505050565b005b34801561031657600080fd5b50610308600435610959565b34801561032e57600080fd5b506102106109b6565b34801561034357600080fd5b50610210610a44565b34801561035857600080fd5b50610308600435610a9f565b34801561037057600080fd5b506040805160206004803580820135601f8101849004840285018401909552848452610308943694929360249392840191908190840183828082843750949750610afc9650505050505050565b3480156103c957600080fd5b506101a3610b34565b3480156103de57600080fd5b50610308610b43565b3480156103f357600080fd5b50610210610baf565b34801561040857600080fd5b506101d4610c0a565b34801561041d57600080fd5b50610426610c10565b60408051602080825283518183015283519192839290830191858101910280838360005b8381101561046257818101518382015260200161044a565b505050509050019250505060405180910390f35b34801561048257600080fd5b50610308600435610c60565b34801561049a57600080fd5b506101a3610c88565b3480156104af57600080fd5b50610426610c97565b3480156104c457600080fd5b506101d4610d38565b3480156104d957600080fd5b50610308600435610d3e565b3480156104f157600080fd5b50610426610d9b565b34801561050657600080fd5b506101d4610de7565b34801561051b57600080fd5b50610210610ded565b34801561053057600080fd5b506040805160206004803580820135601f8101849004840285018401909552848452610308943694929360249392840191908190840183828082843750949750610e0e9650505050505050565b34801561058957600080fd5b50610308600160a060020a0360043516610e46565b3480156105aa57600080fd5b50610426610e69565b3480156105bf57600080fd5b506103086024600480358281019290820135918135918201910135610eb4565b3480156105eb57600080fd5b50610210611421565b600080600060025411156107665760015460008054600254604080517f23b872dd000000000000000000000000000000000000000000000000000000008152336004820152600160a060020a03938416602482015260448101929092525191909316926323b872dd9260648083019360209390929083900390910190829087803b15801561068157600080fd5b505af1158015610695573d6000803e3d6000fd5b505050506040513d60208110156106ab57600080fd5b5051151561076657604080517f08c379a000000000000000000000000000000000000000000000000000000000815260206004820152604260248201527f4661696c6564207472616e7366657246726f6d2062656361757365206f66207360448201527f7566666963656e7420416c6c6f77616e6365206973206e6f742070726f76696460648201527f6564000000000000000000000000000000000000000000000000000000000000608482015290519081900360a40190fd5b6001543390600160a060020a031661077c6117d2565b600160a060020a03928316815291166020820152604080519182900301906000f0801580156107af573d6000803e3d6000fd5b509050306107bb6108b6565b60025460408051600160a060020a038616815233602082015280820192909252426060830152517fb68b4973fbce93f056103272c1f3f53b607527138d7e323b7b94f7ac169ebf779181900360800190a39392505050565b60045481565b60075481565b60068054604080516020601f60026000196101006001881615020190951694909404938401819004810282018101909252828152606093909290918301828280156108ab5780601f10610880576101008083540402835291602001916108ab565b820191906000526020600020905b81548152906001019060200180831161088e57829003601f168201915b505050505090505b90565b60075490565b60058054604080516020601f60026000196101006001881615020190951694909404938401819004810282018101909252828152606093909290918301828280156108ab5780601f10610880576101008083540402835291602001916108ab565b600054600160a060020a0316331461093457600080fd5b805160001061094257600080fd5b80516109559060089060208401906117e2565b5050565b600054600160a060020a0316331461097057600080fd5b60045460408051918252602082018390523082820152517fb14468ff50b0c356f5373be0ef0791de71449aaf8ac5ca096049b7ac79d0b1139181900360600190a1600455565b6008805460408051602060026001851615610100026000190190941693909304601f81018490048402820184019092528181529291830182828015610a3c5780601f10610a1157610100808354040283529160200191610a3c565b820191906000526020600020905b815481529060010190602001808311610a1f57829003601f168201915b505050505081565b6006805460408051602060026001851615610100026000190190941693909304601f81018490048402820184019092528181529291830182828015610a3c5780601f10610a1157610100808354040283529160200191610a3c565b600054600160a060020a03163314610ab657600080fd5b60025460408051918252602082018390523082820152517f9672983540fb671cd7c0c946255b4dc769a3e557a25ef91ca7c98995c8d694b69181900360600190a1600255565b600054600160a060020a03163314610b1357600080fd5b8051600010610b2157600080fd5b80516109559060069060208401906117e2565b600154600160a060020a031681565b600054600160a060020a03163314610b5a57600080fd5b60008054604051600160a060020a03909116917ff8df31144d9c2f0f6b59d69b8b98abd5459d07f2742c4df920b25aae33c6482091a26000805473ffffffffffffffffffffffffffffffffffffffff19169055565b6005805460408051602060026001851615610100026000190190941693909304601f81018490048402820184019092528181529291830182828015610a3c5780601f10610a1157610100808354040283529160200191610a3c565b60025481565b604080517f6c6f776572426f756e640000000000000000000000000000000000000000000081526009600a820152905190819003602a01902054606090610c5b9062ffffff16611482565b905090565b600054600160a060020a03163314610c7757600080fd5b801515610c8357600080fd5b600755565b600054600160a060020a031681565b6040805160028082526060808301845292839291906020830190803883390190505090507f4d616e75616c417070726f76616c000000000000000000000000000000000000816000815181101515610ceb57fe5b6020908102909101015280517f5472616e73666572205265737472696374696f6e0000000000000000000000009082906001908110610d2657fe5b602090810290910101529050805b5090565b60025490565b600054600160a060020a03163314610d5557600080fd5b60035460408051918252602082018390523082820152517fc39ec4e85127e00b5b203f9c40814616d5977d8de85e6e0717e5ca4b0896206c9181900360600190a1600355565b604080516001808252818301909252606091829190602080830190803883390190505090506002816000815181101515610dd157fe5b60ff909216602092830290910190910152905090565b60035481565b606060c0604051908101604052806082815260200161338960829139905090565b600054600160a060020a03163314610e2557600080fd5b8051600010610e3357600080fd5b80516109559060059060208401906117e2565b600054600160a060020a03163314610e5d57600080fd5b610e6681611527565b50565b604080517f7570706572426f756e640000000000000000000000000000000000000000000081526009600a820152905190819003602a01902054606090610c5b9062ffffff16611482565b600054606090600160a060020a03163314610ece57600080fd5b60405160200180807f6c6f776572426f756e6400000000000000000000000000000000000000000000815250600a0190506040516020818303038152906040526040518082805190602001908083835b60208310610f3d5780518252601f199092019160209182019101610f1e565b51815160209384036101000a600019018019909216911617905260405191909301819003812094508993508892019050808383808284378201915050925050506040516020818303038152906040526040518082805190602001908083835b60208310610fbb5780518252601f199092019160209182019101610f9c565b6001836020036101000a0380198251168184511680821785525050505050509050019150506040518091039020600019161480611113575060405160200180807f7570706572426f756e6400000000000000000000000000000000000000000000815250600a0190506040516020818303038152906040526040518082805190602001908083835b602083106110625780518252601f199092019160209182019101611043565b51815160209384036101000a600019018019909216911617905260405191909301819003812094508993508892019050808383808284378201915050925050506040516020818303038152906040526040518082805190602001908083835b602083106110e05780518252601f1990920191602091820191016110c1565b6001836020036101000a038019825116818451168082178552505050505050905001915050604051809103902060001916145b151561118057604080517f08c379a000000000000000000000000000000000000000000000000000000000815260206004820152601a60248201527f4d75737420626520612076616c696420626f756e642074797065000000000000604482015290519081900360640190fd5b6003821461118d57600080fd5b600062ffffff1660098686604051808383808284379091019485525050604051928390036020019092205462ffffff169290921491506112ca9050576111fe60098686604051808383808284379091019485525050604051928390036020019092205462ffffff1691506114829050565b905061123781848480806020026020016040519081016040528093929190818152602001838360200280828437506115a4945050505050565b15156112ca57604080517f08c379a000000000000000000000000000000000000000000000000000000000815260206004820152602260248201527f4661696c65642062656361757365206f6620696e2d76616c696420766572736960448201527f6f6e000000000000000000000000000000000000000000000000000000000000606482015290519081900360840190fd5b61131b838360008181106112da57fe5b9050602002013560ff168484600181811015156112f357fe5b9050602002013560ff1685856002818110151561130c57fe5b9050602002013560ff166117b7565b6009868660405180838380828437909101948552505060405192839003602001909220805462ffffff9490941662ffffff1990941693909317909255507f5b67e16edaf7fc70c8d065ea6e70b97ed944d98fe593b04d682216615a3b04db905085858585600081811061138a57fe5b9050602002013560ff168686600181811015156113a357fe5b9050602002013560ff168787600281811015156113bc57fe5b9050602002013560ff1660405180806020018560ff1660ff1681526020018460ff1660ff1681526020018360ff1660ff168152602001828103825287878281815260200192508082843760405192018290039850909650505050505050a15050505050565b60088054604080516020601f60026000196101006001881615020190951694909404938401819004810282018101909252828152606093909290918301828280156108ab5780601f10610880576101008083540402835291602001916108ab565b6040805160038082526080820190925260609182919060208201838038833950508151919250506201000062ffffff85160490829060009081106114c257fe5b60ff909216602092830290910190910152805161010062ffffff85160490829060019081106114ed57fe5b60ff909216602092830290910190910152805183908290600290811061150f57fe5b60ff9092166020928302909101909101529050919050565b600160a060020a038116151561153c57600080fd5b60008054604051600160a060020a03808516939216917f8be0079c531659141344cd1fd0a4f28419497f9722a3daafe3b4186f6b6457e091a36000805473ffffffffffffffffffffffffffffffffffffffff1916600160a060020a0392909216919091179055565b6000606060008085516040519080825280602002602001820160405280156115d6578160200160208202803883390190505b50925060009150600090505b85518160ff16101561168257848160ff168151811015156115ff57fe5b9060200190602002015160ff16868260ff1681518110151561161d57fe5b9060200190602002015160ff161015611657576001838260ff1681518110151561164357fe5b91151560209283029091019091015261167a565b6000838260ff1681518110151561166a57fe5b9115156020928302909101909101525b6001016115e2565b5060005b85518160ff16101561179d5760ff8116151561171f57848160ff168151811015156116ad57fe5b9060200190602002015160ff16868260ff168151811015156116cb57fe5b6020908102909101015160ff1611611711578260008151811015156116ec57fe5b90602001906020020151156117065781600301915061179d565b60019091019061171a565b600093506117ae565b611795565b826001820360ff1681518110151561173357fe5b906020019060200201511561174d57600190910190611795565b848160ff1681518110151561175e57fe5b9060200190602002015160ff16868260ff1681518110151561177c57fe5b6020908102909101015160ff1611611711576001909101905b600101611686565b85518260ff1614156117ae57600193505b50505092915050565b60ff9081169181166101000292166201000002919091171790565b604051611b188061187183390190565b828054600181600116156101000203166002900490600052602060002090601f016020900481019282601f1061182357805160ff1916838001178555611850565b82800160010185558215611850579182015b82811115611850578251825591602001919060010190611835565b50610d34926108b39250905b80821115610d34576000815560010161185c560060806040526002805460a060020a60ff021916905560038054600160a060020a031990811690915560048054909116905534801561003c57600080fd5b50604051604080611b1883398101604052805160209091015160018054600160a060020a03938416600160a060020a0319918216179091556000805482163317905560028054939092169216919091179055611a7b8061009d6000396000f3006080604052600436106100f85763ffffffff60e060020a6000350416631613ec9d81146100fd57806339d04b6c146101475780633f4ba83a1461017657806340bb79851461018b5780635c975abb146101c45780635f7619a4146101ed5780636faa22a51461020557806370aad962146102365780637dc32b0b146102605780638456cb5914610287578063889b2cc31461029c5780639f7cd0ef146102dc578063b3e82dc9146102f1578063b3fac8ce14610306578063b84dfbd21461031b578063c3a07df614610330578063c45a015514610395578063d70afa96146103aa578063de6ee1bc146103bf578063ed9d787314610456575b600080fd5b34801561010957600080fd5b5061011261047d565b604080517fffffffff000000000000000000000000000000000000000000000000000000009092168252519081900360200190f35b34801561015357600080fd5b50610174600160a060020a0360043581169060243516604435606435610482565b005b34801561018257600080fd5b50610174610810565b34801561019757600080fd5b506101b2600160a060020a03600435811690602435166108f8565b60408051918252519081900360200190f35b3480156101d057600080fd5b506101d9610915565b604080519115158252519081900360200190f35b3480156101f957600080fd5b506101d9600435610925565b34801561021157600080fd5b5061021a610c41565b60408051600160a060020a039092168252519081900360200190f35b34801561024257600080fd5b50610174600160a060020a0360043581169060243516604435610c50565b34801561026c57600080fd5b50610174600160a060020a0360043581169060243516610fc6565b34801561029357600080fd5b5061017461125d565b3480156102a857600080fd5b506102c3600160a060020a0360043581169060243516611343565b6040805192835260208301919091528051918290030190f35b3480156102e857600080fd5b506101b2611367565b3480156102fd57600080fd5b5061021a611379565b34801561031257600080fd5b5061021a611388565b34801561032757600080fd5b5061021a611397565b34801561033c57600080fd5b506103456113a6565b60408051602080825283518183015283519192839290830191858101910280838360005b83811015610381578181015183820152602001610369565b505050509050019250505060405180910390f35b3480156103a157600080fd5b5061021a6113f8565b3480156103b657600080fd5b506101b2611407565b3480156103cb57600080fd5b50604080516020601f60643560048181013592830184900484028501840190955281845261043294600160a060020a03813581169560248035909216956044359536956084940191819084018382808284375094975050505091351515925061142b915050565b6040518082600381111561044257fe5b60ff16815260200191505060405180910390f35b34801561046257600080fd5b50610174600160a060020a03600435811690602435166115bb565b600090565b600080516020611a10833981519152600080600160009054906101000a9004600160a060020a0316600160a060020a0316638da5cb5b6040518163ffffffff1660e060020a028152600401602060405180830381600087803b1580156104e757600080fd5b505af11580156104fb573d6000803e3d6000fd5b505050506040513d602081101561051157600080fd5b505160005433600160a060020a0392831681149450911614905081806105345750805b806105c457506001546040805160e060020a638658b8b9028152336004820152306024820152604481018690529051600160a060020a0390921691638658b8b9916064808201926020929091908290030181600087803b15801561059757600080fd5b505af11580156105ab573d6000803e3d6000fd5b505050506040513d60208110156105c157600080fd5b50515b1515610608576040805160e560020a62461bcd0281526020600482015260176024820152600080516020611a30833981519152604482015290519081900360640190fd5b600160a060020a0387161515610656576040805160e560020a62461bcd02815260206004820152601460248201526000805160206119d0833981519152604482015290519081900360640190fd5b600160a060020a03861615156106a4576040805160e560020a62461bcd02815260206004820152601260248201526000805160206119f0833981519152604482015290519081900360640190fd5b4284116106fb576040805160e560020a62461bcd02815260206004820152601360248201527f496e76616c6964206578706972792074696d6500000000000000000000000000604482015290519081900360640190fd5b600160a060020a038088166000908152600560209081526040808320938a168352929052205415610776576040805160e560020a62461bcd02815260206004820152601760248201527f417070726f76616c20616c726561647920657869737473000000000000000000604482015290519081900360640190fd5b6040805180820182528681526020808201878152600160a060020a03808c16600081815260058552868120928d168082529285528690209451855591516001909401939093558351908152908101919091528082018790526060810186905233608082015290517f26ea1d2b20617cb481140cfb9d4f9646c8bd38f237240a52649e35be090f9d3f9181900360a00190a150505050505050565b600160009054906101000a9004600160a060020a0316600160a060020a0316638da5cb5b6040518163ffffffff1660e060020a028152600401602060405180830381600087803b15801561086357600080fd5b505af1158015610877573d6000803e3d6000fd5b505050506040513d602081101561088d57600080fd5b5051600160a060020a031633146108ee576040805160e560020a62461bcd02815260206004820152601360248201527f53656e646572206973206e6f74206f776e657200000000000000000000000000604482015290519081900360640190fd5b6108f661184c565b565b600660209081526000928352604080842090915290825290205481565b60025460a060020a900460ff1681565b60007f4645455f41444d494e0000000000000000000000000000000000000000000000600080600160009054906101000a9004600160a060020a0316600160a060020a0316638da5cb5b6040518163ffffffff1660e060020a028152600401602060405180830381600087803b15801561099e57600080fd5b505af11580156109b2573d6000803e3d6000fd5b505050506040513d60208110156109c857600080fd5b505160005433600160a060020a0392831681149450911614905081806109eb5750805b80610a7b57506001546040805160e060020a638658b8b9028152336004820152306024820152604481018690529051600160a060020a0390921691638658b8b9916064808201926020929091908290030181600087803b158015610a4e57600080fd5b505af1158015610a62573d6000803e3d6000fd5b505050506040513d6020811015610a7857600080fd5b50515b1515610abf576040805160e560020a62461bcd0281526020600482015260176024820152600080516020611a30833981519152604482015290519081900360640190fd5b60025460015460008054604080517f8da5cb5b0000000000000000000000000000000000000000000000000000000081529051600160a060020a03958616956323b872dd95811694931692638da5cb5b92600480820193602093909283900390910190829087803b158015610b3357600080fd5b505af1158015610b47573d6000803e3d6000fd5b505050506040513d6020811015610b5d57600080fd5b50516040805160e060020a63ffffffff8616028152600160a060020a039384166004820152929091166024830152604482018990525160648083019260209291908290030181600087803b158015610bb457600080fd5b505af1158015610bc8573d6000803e3d6000fd5b505050506040513d6020811015610bde57600080fd5b50511515610c36576040805160e560020a62461bcd02815260206004820152601260248201527f556e61626c6520746f2074616b65206665650000000000000000000000000000604482015290519081900360640190fd5b506001949350505050565b600254600160a060020a031681565b600080516020611a10833981519152600080600160009054906101000a9004600160a060020a0316600160a060020a0316638da5cb5b6040518163ffffffff1660e060020a028152600401602060405180830381600087803b158015610cb557600080fd5b505af1158015610cc9573d6000803e3d6000fd5b505050506040513d6020811015610cdf57600080fd5b505160005433600160a060020a039283168114945091161490508180610d025750805b80610d9257506001546040805160e060020a638658b8b9028152336004820152306024820152604481018690529051600160a060020a0390921691638658b8b9916064808201926020929091908290030181600087803b158015610d6557600080fd5b505af1158015610d79573d6000803e3d6000fd5b505050506040513d6020811015610d8f57600080fd5b50515b1515610dd6576040805160e560020a62461bcd0281526020600482015260176024820152600080516020611a30833981519152604482015290519081900360640190fd5b600160a060020a0386161515610e24576040805160e560020a62461bcd02815260206004820152601460248201526000805160206119d0833981519152604482015290519081900360640190fd5b600160a060020a0385161515610e72576040805160e560020a62461bcd02815260206004820152601260248201526000805160206119f0833981519152604482015290519081900360640190fd5b428411610ec9576040805160e560020a62461bcd02815260206004820152601360248201527f496e76616c6964206578706972792074696d6500000000000000000000000000604482015290519081900360640190fd5b600160a060020a0380871660009081526005602090815260408083209389168352929052206001015415610f47576040805160e560020a62461bcd02815260206004820152601760248201527f426c6f636b696e6720616c726561647920657869737473000000000000000000604482015290519081900360640190fd5b6040805160208181018352868252600160a060020a03808a16600081815260068452858120928b16808252928452859020935190935583519283529082015280820186905233606082015290517ff5b8892dc8e7a974a11282b2e8ac9db566e0e4e1a1a048a5e43586a50928929f9181900360800190a1505050505050565b600080516020611a10833981519152600080600160009054906101000a9004600160a060020a0316600160a060020a0316638da5cb5b6040518163ffffffff1660e060020a028152600401602060405180830381600087803b15801561102b57600080fd5b505af115801561103f573d6000803e3d6000fd5b505050506040513d602081101561105557600080fd5b505160005433600160a060020a0392831681149450911614905081806110785750805b8061110857506001546040805160e060020a638658b8b9028152336004820152306024820152604481018690529051600160a060020a0390921691638658b8b9916064808201926020929091908290030181600087803b1580156110db57600080fd5b505af11580156110ef573d6000803e3d6000fd5b505050506040513d602081101561110557600080fd5b50515b151561114c576040805160e560020a62461bcd0281526020600482015260176024820152600080516020611a30833981519152604482015290519081900360640190fd5b600160a060020a038516151561119a576040805160e560020a62461bcd02815260206004820152601460248201526000805160206119d0833981519152604482015290519081900360640190fd5b600160a060020a03841615156111e8576040805160e560020a62461bcd02815260206004820152601260248201526000805160206119f0833981519152604482015290519081900360640190fd5b600160a060020a038086166000818152600560209081526040808320948916808452948252808320838155600101929092558151928352820192909252338183015290517fbe7baba984867cb2bb52a4035357b30f05c7e480fc9daf78a7b718ae6ee4a4fe9181900360600190a15050505050565b600160009054906101000a9004600160a060020a0316600160a060020a0316638da5cb5b6040518163ffffffff1660e060020a028152600401602060405180830381600087803b1580156112b057600080fd5b505af11580156112c4573d6000803e3d6000fd5b505050506040513d60208110156112da57600080fd5b5051600160a060020a0316331461133b576040805160e560020a62461bcd02815260206004820152601360248201527f53656e646572206973206e6f74206f776e657200000000000000000000000000604482015290519081900360640190fd5b6108f6611902565b60056020908152600092835260408084209091529082529020805460019091015482565b600080516020611a1083398151915281565b600454600160a060020a031681565b600354600160a060020a031681565b600154600160a060020a031681565b60408051600180825281830190925260609182919060208083019080388339019050509050600080516020611a108339815191528160008151811015156113e957fe5b60209081029091010152905090565b600054600160a060020a031681565b7f4645455f41444d494e000000000000000000000000000000000000000000000081565b60008115806114445750600154600160a060020a031633145b151561149a576040805160e560020a62461bcd02815260206004820152601360248201527f53656e646572206973206e6f74206f776e657200000000000000000000000000604482015290519081900360640190fd5b60025460a060020a900460ff1615156115ae57600160a060020a0380871660009081526006602090815260408083209389168352929052205442116114e1575060006115b2565b600160a060020a03808716600090815260056020908152604080832093891683529290522060010154421180159061153e5750600160a060020a038087166000908152600560209081526040808320938916835292905220548411155b156115ae5781156115a657600160a060020a0380871660009081526005602090815260408083209389168352929052205461157f908563ffffffff6119bd16565b600160a060020a038088166000908152600560209081526040808320938a16835292905220555b5060026115b2565b5060015b95945050505050565b600080516020611a10833981519152600080600160009054906101000a9004600160a060020a0316600160a060020a0316638da5cb5b6040518163ffffffff1660e060020a028152600401602060405180830381600087803b15801561162057600080fd5b505af1158015611634573d6000803e3d6000fd5b505050506040513d602081101561164a57600080fd5b505160005433600160a060020a03928316811494509116149050818061166d5750805b806116fd57506001546040805160e060020a638658b8b9028152336004820152306024820152604481018690529051600160a060020a0390921691638658b8b9916064808201926020929091908290030181600087803b1580156116d057600080fd5b505af11580156116e4573d6000803e3d6000fd5b505050506040513d60208110156116fa57600080fd5b50515b1515611741576040805160e560020a62461bcd0281526020600482015260176024820152600080516020611a30833981519152604482015290519081900360640190fd5b600160a060020a038516151561178f576040805160e560020a62461bcd02815260206004820152601460248201526000805160206119d0833981519152604482015290519081900360640190fd5b600160a060020a03841615156117dd576040805160e560020a62461bcd02815260206004820152601260248201526000805160206119f0833981519152604482015290519081900360640190fd5b600160a060020a038086166000818152600660209081526040808320948916808452948252808320929092558151928352820192909252338183015290517f7c21949c2bec5441f44f7637f43eb1c5d2625e34a3453fb46643f5f72aed1ff39181900360600190a15050505050565b60025460a060020a900460ff1615156118af576040805160e560020a62461bcd02815260206004820152601660248201527f436f6e7472616374206973206e6f742070617573656400000000000000000000604482015290519081900360640190fd5b6002805474ff0000000000000000000000000000000000000000191690556040805142815290517faaa520fdd7d2c83061d632fa017b0432407e798818af63ea908589fceda39ab79181900360200190a1565b60025460a060020a900460ff1615611964576040805160e560020a62461bcd02815260206004820152601260248201527f436f6e7472616374206973207061757365640000000000000000000000000000604482015290519081900360640190fd5b6002805474ff0000000000000000000000000000000000000000191660a060020a1790556040805142815290517f68b095021b1f40fe513109f513c66692f0b3219aee674a69f4efc57badb8201d9181900360200190a1565b6000828211156119c957fe5b509003905600496e76616c69642066726f6d2061646472657373000000000000000000000000496e76616c696420746f206164647265737300000000000000000000000000005452414e534645525f415050524f56414c0000000000000000000000000000005065726d697373696f6e20636865636b206661696c6564000000000000000000a165627a7a723058208faa93c918f6e1bfe92a046295eb4c7150dc699d387eb8f03fd6fc72d27d23b60029416c6c6f777320616e2069737375657220746f20736574206d616e75616c20617070726f76616c73206f7220626c6f636b7320666f72207370656369666963207061697273206f662061646472657373657320616e6420616d6f756e74732e20496e69742066756e6374696f6e2074616b6573206e6f20706172616d65746572732ea165627a7a7230582045c511764e459ac95a99b8b84ec298af2347c9a8bfe2f9f8be69fbb42d345b670029",
  "source": "pragma solidity ^0.4.24;\n\nimport \"./ManualApprovalTransferManager.sol\";\nimport \"../ModuleFactory.sol\";\n\n/**\n * @title Factory for deploying ManualApprovalTransferManager module\n */\ncontract ManualApprovalTransferManagerFactory is ModuleFactory {\n\n    /**\n     * @notice Constructor\n     * @param _polyAddress Address of the polytoken\n     * @param _setupCost Setup cost of the module\n     * @param _usageCost Usage cost of the module\n     * @param _subscriptionCost Subscription cost of the module\n     */\n    constructor (address _polyAddress, uint256 _setupCost, uint256 _usageCost, uint256 _subscriptionCost) public\n    ModuleFactory(_polyAddress, _setupCost, _usageCost, _subscriptionCost)\n    {\n        version = \"1.0.0\";\n        name = \"ManualApprovalTransferManager\";\n        title = \"Manual Approval Transfer Manager\";\n        description = \"Manage transfers using single approvals / blocking\";\n        compatibleSTVersionRange[\"lowerBound\"] = VersionUtils.pack(uint8(0), uint8(0), uint8(0));\n        compatibleSTVersionRange[\"upperBound\"] = VersionUtils.pack(uint8(0), uint8(0), uint8(0));\n    }\n\n     /**\n     * @notice used to launch the Module with the help of factory\n     * @return address Contract address of the Module\n     */\n    function deploy(bytes /* _data */) external returns(address) {\n        if (setupCost > 0)\n            require(polyToken.transferFrom(msg.sender, owner, setupCost), \"Failed transferFrom because of sufficent Allowance is not provided\");\n        address manualTransferManager = new ManualApprovalTransferManager(msg.sender, address(polyToken));\n        emit GenerateModuleFromFactory(address(manualTransferManager), getName(), address(this), msg.sender, setupCost, now);\n        return address(manualTransferManager);\n    }\n\n    /**\n     * @notice Type of the Module factory\n     */\n    function getTypes() external view returns(uint8[]) {\n        uint8[] memory res = new uint8[](1);\n        res[0] = 2;\n        return res;\n    }\n\n    /**\n     * @notice Get the name of the Module\n     */\n    function getName() public view returns(bytes32) {\n        return name;\n    }\n\n    /**\n     * @notice Get the description of the Module\n     */\n    function getDescription() external view returns(string) {\n        return description;\n    }\n\n    /**\n     * @notice Get the title of the Module\n     */\n    function getTitle() external view returns(string) {\n        return title;\n    }\n\n    /**\n     * @notice Get the version of the Module\n     */\n    function getVersion() external view returns(string) {\n        return version;\n    }\n\n    /**\n     * @notice Get the setup cost of the module\n     */\n    function getSetupCost() external view returns (uint256) {\n        return setupCost;\n    }\n\n    /**\n     * @notice Get the Instructions that helped to used the module\n     */\n    function getInstructions() external view returns(string) {\n        return \"Allows an issuer to set manual approvals or blocks for specific pairs of addresses and amounts. Init function takes no parameters.\";\n    }\n\n    /**\n     * @notice Get the tags related to the module factory\n     */\n    function getTags() external view returns(bytes32[]) {\n        bytes32[] memory availableTags = new bytes32[](2);\n        availableTags[0] = \"ManualApproval\";\n        availableTags[1] = \"Transfer Restriction\";\n        return availableTags;\n    }\n\n\n}\n",
  "sourcePath": "/Users/rafaelvidaurre/Code/polymath/polymath-apps/packages/polymath-shared/scripts/generateLocalBlockchain/contracts/modules/TransferManager/ManualApprovalTransferManagerFactory.sol",
  "compiler": {
    "name": "solc",
    "version": "0.4.24+commit.e67f0147.Emscripten.clang"
  },
  "schemaVersion": "2.0.1",
  "updatedAt": "2018-10-18T21:45:47.840Z"
}