{
  "contractName": "MockModuleRegistry",
  "abi": [
    {
      "constant": true,
      "inputs": [
        {
          "name": "_factoryAddress",
          "type": "address"
        }
      ],
      "name": "getReputationByFactory",
      "outputs": [
        {
          "name": "",
          "type": "address[]"
        }
      ],
      "payable": false,
      "stateMutability": "view",
      "type": "function"
    },
    {
      "constant": true,
      "inputs": [
        {
          "name": "_moduleType",
          "type": "uint8"
        },
        {
          "name": "_securityToken",
          "type": "address"
        }
      ],
      "name": "getTagsByTypeAndToken",
      "outputs": [
        {
          "name": "",
          "type": "bytes32[]"
        },
        {
          "name": "",
          "type": "address[]"
        }
      ],
      "payable": false,
      "stateMutability": "view",
      "type": "function"
    },
    {
      "constant": true,
      "inputs": [
        {
          "name": "_variable",
          "type": "bytes32"
        }
      ],
      "name": "getBoolValues",
      "outputs": [
        {
          "name": "",
          "type": "bool"
        }
      ],
      "payable": false,
      "stateMutability": "view",
      "type": "function"
    },
    {
      "constant": true,
      "inputs": [
        {
          "name": "_variable",
          "type": "bytes32"
        }
      ],
      "name": "getUintValues",
      "outputs": [
        {
          "name": "",
          "type": "uint256"
        }
      ],
      "payable": false,
      "stateMutability": "view",
      "type": "function"
    },
    {
      "constant": false,
      "inputs": [],
      "name": "unpause",
      "outputs": [],
      "payable": false,
      "stateMutability": "nonpayable",
      "type": "function"
    },
    {
      "constant": false,
      "inputs": [
        {
          "name": "_polymathRegistry",
          "type": "address"
        },
        {
          "name": "_owner",
          "type": "address"
        }
      ],
      "name": "initialize",
      "outputs": [],
      "payable": true,
      "stateMutability": "payable",
      "type": "function"
    },
    {
      "constant": true,
      "inputs": [
        {
          "name": "_moduleType",
          "type": "uint8"
        }
      ],
      "name": "getTagsByType",
      "outputs": [
        {
          "name": "",
          "type": "bytes32[]"
        },
        {
          "name": "",
          "type": "address[]"
        }
      ],
      "payable": false,
      "stateMutability": "view",
      "type": "function"
    },
    {
      "constant": true,
      "inputs": [
        {
          "name": "_variable",
          "type": "bytes32"
        }
      ],
      "name": "getStringValues",
      "outputs": [
        {
          "name": "",
          "type": "string"
        }
      ],
      "payable": false,
      "stateMutability": "view",
      "type": "function"
    },
    {
      "constant": false,
      "inputs": [],
      "name": "pause",
      "outputs": [],
      "payable": false,
      "stateMutability": "nonpayable",
      "type": "function"
    },
    {
      "constant": false,
      "inputs": [
        {
          "name": "_tokenContract",
          "type": "address"
        }
      ],
      "name": "reclaimERC20",
      "outputs": [],
      "payable": false,
      "stateMutability": "nonpayable",
      "type": "function"
    },
    {
      "constant": true,
      "inputs": [],
      "name": "owner",
      "outputs": [
        {
          "name": "",
          "type": "address"
        }
      ],
      "payable": false,
      "stateMutability": "view",
      "type": "function"
    },
    {
      "constant": false,
      "inputs": [
        {
          "name": "_moduleFactory",
          "type": "address"
        }
      ],
      "name": "removeModule",
      "outputs": [],
      "payable": false,
      "stateMutability": "nonpayable",
      "type": "function"
    },
    {
      "constant": true,
      "inputs": [
        {
          "name": "_moduleType",
          "type": "uint8"
        }
      ],
      "name": "getModulesByType",
      "outputs": [
        {
          "name": "",
          "type": "address[]"
        }
      ],
      "payable": false,
      "stateMutability": "view",
      "type": "function"
    },
    {
      "constant": false,
      "inputs": [
        {
          "name": "_moduleFactory",
          "type": "address"
        }
      ],
      "name": "registerModule",
      "outputs": [],
      "payable": false,
      "stateMutability": "nonpayable",
      "type": "function"
    },
    {
      "constant": true,
      "inputs": [],
      "name": "isPaused",
      "outputs": [
        {
          "name": "",
          "type": "bool"
        }
      ],
      "payable": false,
      "stateMutability": "view",
      "type": "function"
    },
    {
      "constant": true,
      "inputs": [
        {
          "name": "_variable",
          "type": "bytes32"
        }
      ],
      "name": "getBytes32Values",
      "outputs": [
        {
          "name": "",
          "type": "bytes32"
        }
      ],
      "payable": false,
      "stateMutability": "view",
      "type": "function"
    },
    {
      "constant": true,
      "inputs": [
        {
          "name": "_variable",
          "type": "bytes32"
        }
      ],
      "name": "getAddressValues",
      "outputs": [
        {
          "name": "",
          "type": "address"
        }
      ],
      "payable": false,
      "stateMutability": "view",
      "type": "function"
    },
    {
      "constant": true,
      "inputs": [
        {
          "name": "_variable",
          "type": "bytes32"
        }
      ],
      "name": "getBytesValues",
      "outputs": [
        {
          "name": "",
          "type": "bytes"
        }
      ],
      "payable": false,
      "stateMutability": "view",
      "type": "function"
    },
    {
      "constant": false,
      "inputs": [
        {
          "name": "_moduleFactory",
          "type": "address"
        }
      ],
      "name": "useModule",
      "outputs": [],
      "payable": false,
      "stateMutability": "nonpayable",
      "type": "function"
    },
    {
      "constant": true,
      "inputs": [
        {
          "name": "_moduleType",
          "type": "uint8"
        },
        {
          "name": "_securityToken",
          "type": "address"
        }
      ],
      "name": "getModulesByTypeAndToken",
      "outputs": [
        {
          "name": "",
          "type": "address[]"
        }
      ],
      "payable": false,
      "stateMutability": "view",
      "type": "function"
    },
    {
      "constant": false,
      "inputs": [
        {
          "name": "_moduleFactory",
          "type": "address"
        },
        {
          "name": "_verified",
          "type": "bool"
        }
      ],
      "name": "verifyModule",
      "outputs": [],
      "payable": false,
      "stateMutability": "nonpayable",
      "type": "function"
    },
    {
      "constant": false,
      "inputs": [],
      "name": "updateFromRegistry",
      "outputs": [],
      "payable": false,
      "stateMutability": "nonpayable",
      "type": "function"
    },
    {
      "anonymous": false,
      "inputs": [
        {
          "indexed": false,
          "name": "_timestammp",
          "type": "uint256"
        }
      ],
      "name": "Pause",
      "type": "event"
    },
    {
      "anonymous": false,
      "inputs": [
        {
          "indexed": false,
          "name": "_timestamp",
          "type": "uint256"
        }
      ],
      "name": "Unpause",
      "type": "event"
    },
    {
      "anonymous": false,
      "inputs": [
        {
          "indexed": true,
          "name": "_moduleFactory",
          "type": "address"
        },
        {
          "indexed": true,
          "name": "_securityToken",
          "type": "address"
        }
      ],
      "name": "ModuleUsed",
      "type": "event"
    },
    {
      "anonymous": false,
      "inputs": [
        {
          "indexed": true,
          "name": "_moduleFactory",
          "type": "address"
        },
        {
          "indexed": true,
          "name": "_owner",
          "type": "address"
        }
      ],
      "name": "ModuleRegistered",
      "type": "event"
    },
    {
      "anonymous": false,
      "inputs": [
        {
          "indexed": true,
          "name": "_moduleFactory",
          "type": "address"
        },
        {
          "indexed": false,
          "name": "_verified",
          "type": "bool"
        }
      ],
      "name": "ModuleVerified",
      "type": "event"
    },
    {
      "anonymous": false,
      "inputs": [
        {
          "indexed": true,
          "name": "_moduleFactory",
          "type": "address"
        },
        {
          "indexed": true,
          "name": "_decisionMaker",
          "type": "address"
        }
      ],
      "name": "ModuleRemoved",
      "type": "event"
    },
    {
      "constant": false,
      "inputs": [
        {
          "name": "_moduleFactory",
          "type": "address"
        },
        {
          "name": "_tokens",
          "type": "address[]"
        }
      ],
      "name": "addMoreReputation",
      "outputs": [],
      "payable": false,
      "stateMutability": "nonpayable",
      "type": "function"
    }
  ],
  "bytecode": "0x60806040526146a6806100136000396000f3006080604052600436106101195763ffffffff60e060020a6000350416630818a6f0811461011e5780631a83bff01461018f5780631d8acf1b1461024f57806326839e531461027b5780633f4ba83a146102a5578063485cc955146102bc5780634ac24a9a146102d657806369ba0fe9146102f15780638456cb591461037e5780638905fd4f146103935780638da5cb5b146103b4578063a0632461146103e5578063ac90b42214610406578063ad64ae4b14610421578063b187bd2614610442578063b3447ac914610457578063baed8bb11461046f578063c6cb7ab814610487578063dc6599071461049f578063e02592fd146104c0578063ea393b7514610523578063eac5ab431461054a578063f433262f14610570575b600080fd5b34801561012a57600080fd5b5061013f600160a060020a0360043516610585565b60408051602080825283518183015283519192839290830191858101910280838360005b8381101561017b578181015183820152602001610163565b505050509050019250505060405180910390f35b34801561019b57600080fd5b506101b660ff60043516600160a060020a03602435166105c2565b604051808060200180602001838103835285818151815260200191508051906020019060200280838360005b838110156101fa5781810151838201526020016101e2565b50505050905001838103825284818151815260200191508051906020019060200280838360005b83811015610239578181015183820152602001610221565b5050505090500194505050505060405180910390f35b34801561025b57600080fd5b506102676004356105e8565b604080519115158252519081900360200190f35b34801561028757600080fd5b506102936004356105fd565b60408051918252519081900360200190f35b3480156102b157600080fd5b506102ba61060f565b005b6102ba600160a060020a036004358116906024351661073f565b3480156102e257600080fd5b506101b660ff60043516610915565b3480156102fd57600080fd5b50610309600435610938565b6040805160208082528351818301528351919283929083019185019080838360005b8381101561034357818101518382015260200161032b565b50505050905090810190601f1680156103705780820380516001836020036101000a031916815260200191505b509250505060405180910390f35b34801561038a57600080fd5b506102ba6109db565b34801561039f57600080fd5b506102ba600160a060020a0360043516610b03565b3480156103c057600080fd5b506103c9610d3e565b60408051600160a060020a039092168252519081900360200190f35b3480156103f157600080fd5b506102ba600160a060020a0360043516610d77565b34801561041257600080fd5b5061013f60ff6004351661163b565b34801561042d57600080fd5b506102ba600160a060020a0360043516611670565b34801561044e57600080fd5b506102676125bd565b34801561046357600080fd5b50610293600435612600565b34801561047b57600080fd5b506103c9600435612612565b34801561049357600080fd5b5061030960043561262d565b3480156104ab57600080fd5b506102ba600160a060020a0360043516612697565b3480156104cc57600080fd5b506040805160206004602480358281013584810280870186019097528086526102ba968435600160a060020a031696369660449591949091019291829185019084908082843750949750612c2f9650505050505050565b34801561052f57600080fd5b5061013f60ff60043516600160a060020a0360243516612cee565b34801561055657600080fd5b506102ba600160a060020a036004351660243515156132bf565b34801561057c57600080fd5b506102ba61343d565b60606105bc6105b76040805190810160405280600a815260200160008051602061455b83398151915281525084613760565b613854565b92915050565b60608060606105d18585612cee565b90506105dc816138bf565b92509250509250929050565b60009081526004602052604090205460ff1690565b60009081526020819052604090205490565b6106176125bd565b151561066d576040805160e560020a62461bcd02815260206004820152601460248201527f53686f756c64206e6f7420626520706175736564000000000000000000000000604482015290519081900360640190fd5b610675610d3e565b600160a060020a031633146106c2576040805160e560020a62461bcd028152602060048201526014602482015260008051602061457b833981519152604482015290519081900360640190fd5b61070a6107036040805190810160405280600681526020017f7061757365640000000000000000000000000000000000000000000000000000815250613bb5565b6000613c7f565b6040805142815290517faaa520fdd7d2c83061d632fa017b0432407e798818af63ea908589fceda39ab79181900360200190a1565b6107856107806040805190810160405280600b81526020017f696e697469616c69736564000000000000000000000000000000000000000000815250613bb5565b6105e8565b156107da576040805160e560020a62461bcd02815260206004820152601360248201527f616c726561647920696e697469616c697a656400000000000000000000000000604482015290519081900360640190fd5b600160a060020a038116158015906107fa5750600160a060020a03821615155b1515610850576040805160e560020a62461bcd02815260206004820152601560248201527f3078206164647265737320697320696e76616c69640000000000000000000000604482015290519081900360640190fd5b6108976108916040805190810160405280601081526020017f706f6c796d617468526567697374727900000000000000000000000000000000815250613bb5565b83613c9f565b6108c96108c360408051908101604052806005815260200160d960020a6437bbb732b902815250613bb5565b82613c9f565b61091161090a6040805190810160405280600b81526020017f696e697469616c69736564000000000000000000000000000000000000000000815250613bb5565b6001613c7f565b5050565b60608060606109238461163b565b905061092e816138bf565b9250925050915091565b60008181526001602081815260409283902080548451600260001995831615610100029590950190911693909304601f810183900483028401830190945283835260609390918301828280156109cf5780601f106109a4576101008083540402835291602001916109cf565b820191906000526020600020905b8154815290600101906020018083116109b257829003601f168201915b50505050509050919050565b6109e36125bd565b15610a38576040805160e560020a62461bcd02815260206004820152600e60248201527f416c726561647920706175736564000000000000000000000000000000000000604482015290519081900360640190fd5b610a40610d3e565b600160a060020a03163314610a8d576040805160e560020a62461bcd028152602060048201526014602482015260008051602061457b833981519152604482015290519081900360640190fd5b610ace61090a6040805190810160405280600681526020017f7061757365640000000000000000000000000000000000000000000000000000815250613bb5565b6040805142815290517f68b095021b1f40fe513109f513c66692f0b3219aee674a69f4efc57badb8201d9181900360200190a1565b600080610b0e610d3e565b600160a060020a03163314610b5b576040805160e560020a62461bcd028152602060048201526014602482015260008051602061457b833981519152604482015290519081900360640190fd5b600160a060020a0383161515610bbb576040805160e560020a62461bcd02815260206004820152601560248201527f3078206164647265737320697320696e76616c69640000000000000000000000604482015290519081900360640190fd5b604080517f70a082310000000000000000000000000000000000000000000000000000000081523060048201529051849350600160a060020a038416916370a082319160248083019260209291908290030181600087803b158015610c1f57600080fd5b505af1158015610c33573d6000803e3d6000fd5b505050506040513d6020811015610c4957600080fd5b50519050600160a060020a03821663a9059cbb610c64610d3e565b836040518363ffffffff1660e060020a0281526004018083600160a060020a0316600160a060020a0316815260200182815260200192505050602060405180830381600087803b158015610cb757600080fd5b505af1158015610ccb573d6000803e3d6000fd5b505050506040513d6020811015610ce157600080fd5b50511515610d39576040805160e560020a62461bcd02815260206004820152601560248201527f746f6b656e207472616e73666572206661696c65640000000000000000000000604482015290519081900360640190fd5b505050565b6000610d71610d6c60408051908101604052806005815260200160d960020a6437bbb732b902815250613bb5565b612612565b90505b90565b600080600080610d85610d3e565b600160a060020a031633600160a060020a031614156111d657610dd3610dce60408051908101604052806008815260200160008051602061459b83398151915281525087613760565b6105fd565b9350831515610e52576040805160e560020a62461bcd02815260206004820152602360248201527f4d6f64756c6520666163746f72792073686f756c64206265207265676973746560448201527f7265640000000000000000000000000000000000000000000000000000000000606482015290519081900360840190fd5b84600160a060020a0316638da5cb5b6040518163ffffffff1660e060020a028152600401602060405180830381600087803b158015610e9057600080fd5b505af1158015610ea4573d6000803e3d6000fd5b505050506040513d6020811015610eba57600080fd5b5051600160a060020a0316331480610f0e5750610ef9610d6c60408051908101604052806005815260200160d960020a6437bbb732b902815250613bb5565b600160a060020a031633600160a060020a0316145b1515610f66576040805160e560020a62461bcd02815260206004820152603f60248201526000805160206145fb833981519152604482015260008051602061463b833981519152606482015290519081900360840190fd5b610f96610dce6040805190810160405280600f815260200160008051602061465b83398151915281525087613760565b92506001610fca6105b76040805190810160405280600a815260200160008051602061461b83398151915281525087613cda565b51039150610ffe6105b76040805190810160405280600a815260200160008051602061461b83398151915281525086613cda565b80518390811061100a57fe5b60209081029091010151905082821461108a5761105461104d6040805190810160405280600a815260200160008051602061461b83398151915281525086613cda565b8483613d71565b61108a6110846040805190810160405280600f815260200160008051602061465b83398151915281525083613760565b84613dc1565b6110c06110ba6040805190810160405280600a815260200160008051602061461b83398151915281525086613cda565b83613dd3565b6110f76110f060408051908101604052806008815260200160008051602061459b83398151915281525087613760565b6000613dc1565b61113b6111276040805190810160405280600a815260200160008051602061455b83398151915281525087613760565b604080516000815260208101909152613ee3565b61116b6107036040805190810160405280600881526020016000805160206145bb83398151915281525087613760565b61119b6110f06040805190810160405280600f815260200160008051602061465b83398151915281525087613760565b6040513390600160a060020a038716907fd66772358582078947c11fa70e2860b3ffa915277e6181a4aa293072cb57ed3c90600090a3611634565b6111de6125bd565b15611233576040805160e560020a62461bcd02815260206004820152600e60248201527f416c726561647920706175736564000000000000000000000000000000000000604482015290519081900360640190fd5b611263610dce60408051908101604052806008815260200160008051602061459b83398151915281525087613760565b93508315156112e2576040805160e560020a62461bcd02815260206004820152602360248201527f4d6f64756c6520666163746f72792073686f756c64206265207265676973746560448201527f7265640000000000000000000000000000000000000000000000000000000000606482015290519081900360840190fd5b84600160a060020a0316638da5cb5b6040518163ffffffff1660e060020a028152600401602060405180830381600087803b15801561132057600080fd5b505af1158015611334573d6000803e3d6000fd5b505050506040513d602081101561134a57600080fd5b5051600160a060020a031633148061139e5750611389610d6c60408051908101604052806005815260200160d960020a6437bbb732b902815250613bb5565b600160a060020a031633600160a060020a0316145b15156113f6576040805160e560020a62461bcd02815260206004820152603f60248201526000805160206145fb833981519152604482015260008051602061463b833981519152606482015290519081900360840190fd5b611426610dce6040805190810160405280600f815260200160008051602061465b83398151915281525087613760565b9250600161145a6105b76040805190810160405280600a815260200160008051602061461b83398151915281525087613cda565b5103915061148e6105b76040805190810160405280600a815260200160008051602061461b83398151915281525086613cda565b80518390811061149a57fe5b60209081029091010151905082821461150d576114dd61104d6040805190810160405280600a815260200160008051602061461b83398151915281525086613cda565b61150d6110846040805190810160405280600f815260200160008051602061465b83398151915281525083613760565b61153d6110ba6040805190810160405280600a815260200160008051602061461b83398151915281525086613cda565b61156d6110f060408051908101604052806008815260200160008051602061459b83398151915281525087613760565b61159d6111276040805190810160405280600a815260200160008051602061455b83398151915281525087613760565b6115cd6107036040805190810160405280600881526020016000805160206145bb83398151915281525087613760565b6115fd6110f06040805190810160405280600f815260200160008051602061465b83398151915281525087613760565b6040513390600160a060020a038716907fd66772358582078947c11fa70e2860b3ffa915277e6181a4aa293072cb57ed3c90600090a35b5050505050565b60606105bc6105b76040805190810160405280600a815260200160008051602061461b8339815191528152508460ff16613cda565b600080600060606000611681610d3e565b600160a060020a031633600160a060020a03161415611e1f576116c9610d6c6040805190810160405280600f815260200160008051602061453b833981519152815250613bb5565b600160a060020a0316632f0019f26040518163ffffffff1660e060020a0281526004018080602001828103825260148152602001806000805160206145db833981519152815250602001915050602060405180830381600087803b15801561173057600080fd5b505af1158015611744573d6000803e3d6000fd5b505050506040513d602081101561175a57600080fd5b50511561187a5785600160a060020a0316638da5cb5b6040518163ffffffff1660e060020a028152600401602060405180830381600087803b15801561179f57600080fd5b505af11580156117b3573d6000803e3d6000fd5b505050506040513d60208110156117c957600080fd5b5051600160a060020a031633148061181d5750611808610d6c60408051908101604052806005815260200160d960020a6437bbb732b902815250613bb5565b600160a060020a031633600160a060020a0316145b1515611875576040805160e560020a62461bcd02815260206004820152603f60248201526000805160206145fb833981519152604482015260008051602061463b833981519152606482015290519081900360840190fd5b61192b565b6118a6610d6c60408051908101604052806005815260200160d960020a6437bbb732b902815250613bb5565b600160a060020a0316331461192b576040805160e560020a62461bcd02815260206004820152602660248201527f4f6e6c79206f776e657220616c6c6f77656420746f207265676973746572206d60448201527f6f64756c65730000000000000000000000000000000000000000000000000000606482015290519081900360840190fd5b61195b610dce60408051908101604052806008815260200160008051602061459b83398151915281525088613760565b156119d6576040805160e560020a62461bcd02815260206004820152602b60248201527f4d6f64756c6520666163746f72792073686f756c64206e6f742062652070726560448201527f2d72656769737465726564000000000000000000000000000000000000000000606482015290519081900360840190fd5b85945084600160a060020a031663b4579d606040518163ffffffff1660e060020a028152600401600060405180830381600087803b158015611a1757600080fd5b505af1158015611a2b573d6000803e3d6000fd5b505050506040513d6000823e601f3d908101601f191682016040526020811015611a5457600080fd5b810190808051640100000000811115611a6c57600080fd5b82016020810184811115611a7f57600080fd5b8151856020820283011164010000000082111715611a9c57600080fd5b5060019850909550505050505b8151841015611b6157600092505b83831015611b56578183815181101515611acd57fe5b9060200190602002015160ff168285815181101515611ae857fe5b6020908102909101015160ff161415611b4b576040805160e560020a62461bcd02815260206004820152600d60248201527f54797065206d69736d6174636800000000000000000000000000000000000000604482015290519081900360640190fd5b600190920191611ab7565b600190930192611aa9565b81511515611bb9576040805160e560020a62461bcd02815260206004820152601660248201527f466163746f7279206d7573742068617665207479706500000000000000000000604482015290519081900360640190fd5b84600160a060020a031663b4579d606040518163ffffffff1660e060020a028152600401600060405180830381600087803b158015611bf757600080fd5b505af1158015611c0b573d6000803e3d6000fd5b505050506040513d6000823e601f3d908101601f191682016040526020811015611c3457600080fd5b810190808051640100000000811115611c4c57600080fd5b82016020810184811115611c5f57600080fd5b8151856020820283011164010000000082111715611c7c57600080fd5b505080519093506000925082109050611c9157fe5b906020019060200201519050611cd6611ccd60408051908101604052806008815260200160008051602061459b83398151915281525088613760565b8260ff16613dc1565b611d3f611d066040805190810160405280600f815260200160008051602061465b83398151915281525088613760565b611d396105b76040805190810160405280600a815260200160008051602061461b8339815191528152508560ff16613cda565b51613dc1565b611d78611d726040805190810160405280600a815260200160008051602061461b8339815191528152508360ff16613cda565b87613f02565b85600160a060020a0316638da5cb5b6040518163ffffffff1660e060020a028152600401602060405180830381600087803b158015611db657600080fd5b505af1158015611dca573d6000803e3d6000fd5b505050506040513d6020811015611de057600080fd5b5051604051600160a060020a03918216918816907f49220d7268f6ac850e2f0d39ce956e56f086a18cfda1383c05f9c859fdef901290600090a36125b5565b611e276125bd565b15611e7c576040805160e560020a62461bcd02815260206004820152600e60248201527f416c726561647920706175736564000000000000000000000000000000000000604482015290519081900360640190fd5b611eab610d6c6040805190810160405280600f815260200160008051602061453b833981519152815250613bb5565b600160a060020a0316632f0019f26040518163ffffffff1660e060020a0281526004018080602001828103825260148152602001806000805160206145db833981519152815250602001915050602060405180830381600087803b158015611f1257600080fd5b505af1158015611f26573d6000803e3d6000fd5b505050506040513d6020811015611f3c57600080fd5b50511561205c5785600160a060020a0316638da5cb5b6040518163ffffffff1660e060020a028152600401602060405180830381600087803b158015611f8157600080fd5b505af1158015611f95573d6000803e3d6000fd5b505050506040513d6020811015611fab57600080fd5b5051600160a060020a0316331480611fff5750611fea610d6c60408051908101604052806005815260200160d960020a6437bbb732b902815250613bb5565b600160a060020a031633600160a060020a0316145b1515612057576040805160e560020a62461bcd02815260206004820152603f60248201526000805160206145fb833981519152604482015260008051602061463b833981519152606482015290519081900360840190fd5b61210d565b612088610d6c60408051908101604052806005815260200160d960020a6437bbb732b902815250613bb5565b600160a060020a0316331461210d576040805160e560020a62461bcd02815260206004820152602660248201527f4f6e6c79206f776e657220616c6c6f77656420746f207265676973746572206d60448201527f6f64756c65730000000000000000000000000000000000000000000000000000606482015290519081900360840190fd5b61213d610dce60408051908101604052806008815260200160008051602061459b83398151915281525088613760565b156121b8576040805160e560020a62461bcd02815260206004820152602b60248201527f4d6f64756c6520666163746f72792073686f756c64206e6f742062652070726560448201527f2d72656769737465726564000000000000000000000000000000000000000000606482015290519081900360840190fd5b85945084600160a060020a031663b4579d606040518163ffffffff1660e060020a028152600401600060405180830381600087803b1580156121f957600080fd5b505af115801561220d573d6000803e3d6000fd5b505050506040513d6000823e601f3d908101601f19168201604052602081101561223657600080fd5b81019080805164010000000081111561224e57600080fd5b8201602081018481111561226157600080fd5b815185602082028301116401000000008211171561227e57600080fd5b5060019850909550505050505b815184101561234357600092505b838310156123385781838151811015156122af57fe5b9060200190602002015160ff1682858151811015156122ca57fe5b6020908102909101015160ff16141561232d576040805160e560020a62461bcd02815260206004820152600d60248201527f54797065206d69736d6174636800000000000000000000000000000000000000604482015290519081900360640190fd5b600190920191612299565b60019093019261228b565b8151151561239b576040805160e560020a62461bcd02815260206004820152601660248201527f466163746f7279206d7573742068617665207479706500000000000000000000604482015290519081900360640190fd5b84600160a060020a031663b4579d606040518163ffffffff1660e060020a028152600401600060405180830381600087803b1580156123d957600080fd5b505af11580156123ed573d6000803e3d6000fd5b505050506040513d6000823e601f3d908101601f19168201604052602081101561241657600080fd5b81019080805164010000000081111561242e57600080fd5b8201602081018481111561244157600080fd5b815185602082028301116401000000008211171561245e57600080fd5b50508051909350600092508210905061247357fe5b9060200190602002015190506124af611ccd60408051908101604052806008815260200160008051602061459b83398151915281525088613760565b6124df611d066040805190810160405280600f815260200160008051602061465b83398151915281525088613760565b612512611d726040805190810160405280600a815260200160008051602061461b8339815191528152508360ff16613cda565b85600160a060020a0316638da5cb5b6040518163ffffffff1660e060020a028152600401602060405180830381600087803b15801561255057600080fd5b505af1158015612564573d6000803e3d6000fd5b505050506040513d602081101561257a57600080fd5b5051604051600160a060020a03918216918816907f49220d7268f6ac850e2f0d39ce956e56f086a18cfda1383c05f9c859fdef901290600090a35b505050505050565b6000610d716107806040805190810160405280600681526020017f7061757365640000000000000000000000000000000000000000000000000000815250613bb5565b60009081526006602052604090205490565b600090815260026020526040902054600160a060020a031690565b60008181526003602090815260409182902080548351601f60026101006001851615026000190190931692909204918201849004840281018401909452808452606093928301828280156109cf5780601f106109a4576101008083540402835291602001916109cf565b6126d8610d6c6040805190810160405280601581526020017f7365637572697479546f6b656e52656769737472790000000000000000000000815250613bb5565b600160a060020a031663d300a968336040518263ffffffff1660e060020a0281526004018082600160a060020a0316600160a060020a03168152602001915050602060405180830381600087803b15801561273257600080fd5b505af1158015612746573d6000803e3d6000fd5b505050506040513d602081101561275c57600080fd5b505115612c2c57612792610d6c6040805190810160405280600f815260200160008051602061453b833981519152815250613bb5565b600160a060020a0316632f0019f26040518163ffffffff1660e060020a0281526004018080602001828103825260148152602001806000805160206145db833981519152815250602001915050602060405180830381600087803b1580156127f957600080fd5b505af115801561280d573d6000803e3d6000fd5b505050506040513d602081101561282357600080fd5b505115612a075761285a6107806040805190810160405280600881526020016000805160206145bb83398151915281525083613760565b80612960575033600160a060020a0316638da5cb5b6040518163ffffffff1660e060020a028152600401602060405180830381600087803b15801561289e57600080fd5b505af11580156128b2573d6000803e3d6000fd5b505050506040513d60208110156128c857600080fd5b5051604080517f8da5cb5b0000000000000000000000000000000000000000000000000000000081529051600160a060020a0392831692841691638da5cb5b9160048083019260209291908290030181600087803b15801561292957600080fd5b505af115801561293d573d6000803e3d6000fd5b505050506040513d602081101561295357600080fd5b5051600160a060020a0316145b1515612a02576040805160e560020a62461bcd02815260206004820152605160248201527f4d6f64756c65466163746f7279206d757374206265207665726966696564206f60448201527f72205365637572697479546f6b656e206f776e6572206d757374206265204d6f60648201527f64756c65466163746f7279206f776e6572000000000000000000000000000000608482015290519081900360a40190fd5b612a8d565b612a376107806040805190810160405280600881526020016000805160206145bb83398151915281525083613760565b1515612a8d576040805160e560020a62461bcd02815260206004820152601e60248201527f4d6f64756c65466163746f7279206d7573742062652076657269666965640000604482015290519081900360640190fd5b612a978133613f4e565b1515612b13576040805160e560020a62461bcd02815260206004820152603060248201527f56657273696f6e2073686f756c642077697468696e2074686520636f6d70617460448201527f69626c652072616e6765206f6620535400000000000000000000000000000000606482015290519081900360840190fd5b612b43610dce60408051908101604052806008815260200160008051602061459b83398151915281525083613760565b1515612bbf576040805160e560020a62461bcd02815260206004820152602260248201527f4d6f64756c65466163746f727920747970652073686f756c64206e6f7420626560448201527f2030000000000000000000000000000000000000000000000000000000000000606482015290519081900360840190fd5b612bf5612bef6040805190810160405280600a815260200160008051602061455b83398151915281525083613760565b33613f02565b6040513390600160a060020a038316907ffd0013c5b822aafcc05b8cfdd6dfa336f40c31714b8bef8f2520e7036b9f079890600090a35b50565b6000612c39610d3e565b600160a060020a03163314612c86576040805160e560020a62461bcd028152602060048201526014602482015260008051602061457b833981519152604482015290519081900360640190fd5b5060005b81518160ff161015610d3957612ce6612cc66040805190810160405280600a815260200160008051602061455b83398151915281525085613760565b838360ff16815181101515612cd757fe5b90602001906020020151613f02565b600101612c8a565b606060006060600080600060606000612d306105b76040805190810160405280600a815260200160008051602061461b8339815191528152508c60ff16613cda565b519650612d666105b76040805190810160405280600a815260200160008051602061461b8339815191528152508c60ff16613cda565b9550612d97610d6c6040805190810160405280600f815260200160008051602061453b833981519152815250613bb5565b600160a060020a0316632f0019f26040518163ffffffff1660e060020a0281526004018080602001828103825260148152602001806000805160206145db833981519152815250602001915050602060405180830381600087803b158015612dfe57600080fd5b505af1158015612e12573d6000803e3d6000fd5b505050506040513d6020811015612e2857600080fd5b50519450600093508392505b8683101561302c578415612fc75788600160a060020a0316638da5cb5b6040518163ffffffff1660e060020a028152600401602060405180830381600087803b158015612e8057600080fd5b505af1158015612e94573d6000803e3d6000fd5b505050506040513d6020811015612eaa57600080fd5b50518651600160a060020a0390911690879085908110612ec657fe5b90602001906020020151600160a060020a0316638da5cb5b6040518163ffffffff1660e060020a028152600401602060405180830381600087803b158015612f0d57600080fd5b505af1158015612f21573d6000803e3d6000fd5b505050506040513d6020811015612f3757600080fd5b5051600160a060020a03161480612f905750612f906107806040805190810160405280600881526020016000805160206145bb8339815191528152508886815181101515612f8157fe5b90602001906020020151613760565b15612fc257612fb68684815181101515612fa657fe5b906020019060200201518a613f4e565b15612fc2576001909301925b613021565b612fff6107806040805190810160405280600881526020016000805160206145bb8339815191528152508886815181101515612f8157fe5b15613021576130158684815181101515612fa657fe5b15613021576001909301925b600190920191612e34565b83604051908082528060200260200182016040528015613056578160200160208202803883390190505b50915060009350600090505b868110156132b25784156132135788600160a060020a0316638da5cb5b6040518163ffffffff1660e060020a028152600401602060405180830381600087803b1580156130ae57600080fd5b505af11580156130c2573d6000803e3d6000fd5b505050506040513d60208110156130d857600080fd5b50518651600160a060020a03909116908790839081106130f457fe5b90602001906020020151600160a060020a0316638da5cb5b6040518163ffffffff1660e060020a028152600401602060405180830381600087803b15801561313b57600080fd5b505af115801561314f573d6000803e3d6000fd5b505050506040513d602081101561316557600080fd5b5051600160a060020a031614806131af57506131af6107806040805190810160405280600881526020016000805160206145bb8339815191528152508884815181101515612f8157fe5b1561320e576131c58682815181101515612fa657fe5b1561320e5785818151811015156131d857fe5b9060200190602002015182858151811015156131f057fe5b600160a060020a039092166020928302909101909101526001909301925b6132aa565b61324b6107806040805190810160405280600881526020016000805160206145bb8339815191528152508884815181101515612f8157fe5b156132aa576132618682815181101515612fa657fe5b156132aa57858181518110151561327457fe5b90602001906020020151828581518110151561328c57fe5b600160a060020a039092166020928302909101909101526001909301925b600101613062565b5098975050505050505050565b6132c7610d3e565b600160a060020a03163314613314576040805160e560020a62461bcd028152602060048201526014602482015260008051602061457b833981519152604482015290519081900360640190fd5b6000613346610dce60408051908101604052806008815260200160008051602061459b83398151915281525085613760565b14156133c2576040805160e560020a62461bcd02815260206004820152602160248201527f4d6f64756c6520666163746f7279206d7573742062652072656769737465726560448201527f6400000000000000000000000000000000000000000000000000000000000000606482015290519081900360840190fd5b6133f86133f26040805190810160405280600881526020016000805160206145bb83398151915281525084613760565b82613c7f565b6040805182151581529051600160a060020a038416917f302d67e66dd951c29fca6e4f7099f292e8cc3537ad6bc4539b77e8b7a6404db2919081900360200190a25050565b6000613447610d3e565b600160a060020a03163314613494576040805160e560020a62461bcd028152602060048201526014602482015260008051602061457b833981519152604482015290519081900360640190fd5b6134d5610d6c6040805190810160405280601081526020017f706f6c796d617468526567697374727900000000000000000000000000000000815250613bb5565b90506135d66135186040805190810160405280601581526020017f7365637572697479546f6b656e52656769737472790000000000000000000000815250613bb5565b604080517fbf40fac1000000000000000000000000000000000000000000000000000000008152602060048201819052601560248301527f5365637572697479546f6b656e5265676973747279000000000000000000000060448301529151600160a060020a0386169263bf40fac192606480820193918290030181600087803b1580156135a557600080fd5b505af11580156135b9573d6000803e3d6000fd5b505050506040513d60208110156135cf57600080fd5b5051613c9f565b6136926136056040805190810160405280600f815260200160008051602061453b833981519152815250613bb5565b604080517fbf40fac1000000000000000000000000000000000000000000000000000000008152602060048201819052600f60248301527f466561747572655265676973747279000000000000000000000000000000000060448301529151600160a060020a0386169263bf40fac192606480820193918290030181600087803b1580156135a557600080fd5b612c2c6136d36040805190810160405280600981526020017f706f6c79546f6b656e0000000000000000000000000000000000000000000000815250613bb5565b604080517fbf40fac1000000000000000000000000000000000000000000000000000000008152602060048201819052600960248301527f506f6c79546f6b656e000000000000000000000000000000000000000000000060448301529151600160a060020a0386169263bf40fac192606480820193918290030181600087803b1580156135a557600080fd5b600082826040516020018083805190602001908083835b602083106137965780518252601f199092019160209182019101613777565b6001836020036101000a03801982511681845116808217855250505050505090500182600160a060020a0316600160a060020a03166c01000000000000000000000000028152601401925050506040516020818303038152906040526040518082805190602001908083835b602083106138215780518252601f199092019160209182019101613802565b5181516020939093036101000a600019018019909116921691909117905260405192018290039091209695505050505050565b6000818152600960209081526040918290208054835181840281018401909452808452606093928301828280156109cf57602002820191906000526020600020905b8154600160a060020a031681526001909101906020018083116138965750505050509050919050565b606080600080808380805b88518510156139c35788858151811015156138e157fe5b90602001906020020151600160a060020a031663995d9ab76040518163ffffffff1660e060020a028152600401600060405180830381600087803b15801561392857600080fd5b505af115801561393c573d6000803e3d6000fd5b505050506040513d6000823e601f3d908101601f19168201604052602081101561396557600080fd5b81019080805164010000000081111561397d57600080fd5b8201602081018481111561399057600080fd5b81518560208202830111640100000000821117156139ad57600080fd5b50505198909801975050600190950194506138ca565b856040519080825280602002602001820160405280156139ed578160200160208202803883390190505b50925085604051908082528060200260200182016040528015613a1a578160200160208202803883390190505b50915060009550600094505b8851851015613ba7578885815181101515613a3d57fe5b90602001906020020151600160a060020a031663995d9ab76040518163ffffffff1660e060020a028152600401600060405180830381600087803b158015613a8457600080fd5b505af1158015613a98573d6000803e3d6000fd5b505050506040513d6000823e601f3d908101601f191682016040526020811015613ac157600080fd5b810190808051640100000000811115613ad957600080fd5b82016020810184811115613aec57600080fd5b8151856020820283011164010000000082111715613b0957600080fd5b5060009850909450505050505b8051841015613b9c578084815181101515613b2d57fe5b906020019060200201518387815181101515613b4557fe5b602090810290910101528851899086908110613b5d57fe5b906020019060200201518287815181101515613b7557fe5b600160a060020a039092166020928302909101909101526001958601959390930192613b16565b600190940193613a26565b509097909650945050505050565b6000816040516020018082805190602001908083835b60208310613bea5780518252601f199092019160209182019101613bcb565b6001836020036101000a0380198251168184511680821785525050505050509050019150506040516020818303038152906040526040518082805190602001908083835b60208310613c4d5780518252601f199092019160209182019101613c2e565b5181516020939093036101000a6000190180199091169216919091179052604051920182900390912095945050505050565b600091825260046020526040909120805460ff1916911515919091179055565b600091825260026020526040909120805473ffffffffffffffffffffffffffffffffffffffff1916600160a060020a03909216919091179055565b600082826040516020018083805190602001908083835b60208310613d105780518252601f199092019160209182019101613cf1565b51815160001960209485036101000a019081169019919091161790529201938452506040805180850381529382019081905283519394509283925090840190808383602083106138215780518252601f199092019160209182019101613802565b6000838152600960205260409020805482919084908110613d8e57fe5b9060005260206000200160006101000a815481600160a060020a030219169083600160a060020a03160217905550505050565b60009182526020829052604090912055565b600082815260096020526040902080548210613e5f576040805160e560020a62461bcd02815260206004820152602a60248201527f496e6465782073686f756c64206c657373207468616e206c656e677468206f6660448201527f2074686520617272617900000000000000000000000000000000000000000000606482015290519081900360840190fd5b805481906000198101908110613e7157fe5b6000918252602090912001548154600160a060020a0390911690829084908110613e9757fe5b6000918252602090912001805473ffffffffffffffffffffffffffffffffffffffff1916600160a060020a0392909216919091179055805460001901613edd8282614459565b50505050565b60008281526009602090815260409091208251610d399284019061447d565b6000918252600960209081526040832080546001810182559084529220909101805473ffffffffffffffffffffffffffffffffffffffff1916600160a060020a03909216919091179055565b6000606080606060008086600160a060020a0316630d8e6e2c6040518163ffffffff1660e060020a028152600401600060405180830381600087803b158015613f9657600080fd5b505af1158015613faa573d6000803e3d6000fd5b505050506040513d6000823e601f3d908101601f191682016040526020811015613fd357600080fd5b810190808051640100000000811115613feb57600080fd5b82016020810184811115613ffe57600080fd5b815185602082028301116401000000008211171561401b57600080fd5b5050929190505050945087600160a060020a0316638677768f6040518163ffffffff1660e060020a028152600401600060405180830381600087803b15801561406357600080fd5b505af1158015614077573d6000803e3d6000fd5b505050506040513d6000823e601f3d908101601f1916820160405260208110156140a057600080fd5b8101908080516401000000008111156140b857600080fd5b820160208101848111156140cb57600080fd5b81518560208202830111640100000000821117156140e857600080fd5b5050929190505050935087600160a060020a031663f78629996040518163ffffffff1660e060020a028152600401600060405180830381600087803b15801561413057600080fd5b505af1158015614144573d6000803e3d6000fd5b505050506040513d6000823e601f3d908101601f19168201604052602081101561416d57600080fd5b81019080805164010000000081111561418557600080fd5b8201602081018481111561419857600080fd5b81518560208202830111640100000000821117156141b557600080fd5b505092919050505092506141c984866141ed565b91506141d58386614339565b90508180156141e15750805b98975050505050505050565b6000806000808451865114151561420357600080fd5b60009250600091505b85518260ff16101561425057858260ff1681518110151561422957fe5b9060200190602002015160ff1660001415614245576001909201915b60019091019061420c565b8551831461432b575060009150815b85518160ff16101561430d57858160ff1681518110151561427c57fe5b9060200190602002015160ff16858260ff1681518110151561429a57fe5b9060200190602002015160ff1611156142b65760019350614330565b858160ff168151811015156142c757fe5b9060200190602002015160ff16858260ff168151811015156142e557fe5b9060200190602002015160ff1610156143015760009350614330565b6001928301920161425f565b60018651038314156143225760019350614330565b60009350614330565b600193505b50505092915050565b6000806000808451865114151561434f57600080fd5b60009250600091505b85518260ff16101561439c57858260ff1681518110151561437557fe5b9060200190602002015160ff1660001415614391576001909201915b600190910190614358565b8551831461432b575060009150815b85518160ff16101561430d57848160ff168151811015156143c857fe5b9060200190602002015160ff16868260ff168151811015156143e657fe5b9060200190602002015160ff1611156144025760019350614330565b848160ff1681518110151561441357fe5b9060200190602002015160ff16868260ff1681518110151561443157fe5b9060200190602002015160ff16101561444d5760009350614330565b600192830192016143ab565b815481835581811115610d3957600083815260209020610d399181019083016144ef565b8280548282559060005260206000209081019282156144df579160200282015b828111156144df578251825473ffffffffffffffffffffffffffffffffffffffff1916600160a060020a0390911617825560209092019160019091019061449d565b506144eb929150614509565b5090565b610d7491905b808211156144eb57600081556001016144f5565b610d7491905b808211156144eb57805473ffffffffffffffffffffffffffffffffffffffff1916815560010161450f5600666561747572655265676973747279000000000000000000000000000000000072657075746174696f6e0000000000000000000000000000000000000000000073656e646572206d757374206265206f776e657200000000000000000000000072656769737472790000000000000000000000000000000000000000000000007665726966696564000000000000000000000000000000000000000000000000637573746f6d4d6f64756c6573416c6c6f7765640000000000000000000000006d73672e73656e646572206d75737420626520746865204d6f64756c652046616d6f64756c654c6973740000000000000000000000000000000000000000000063746f7279206f776e6572206f722072656769737472792063757261746f72006d6f64756c654c697374496e6465780000000000000000000000000000000000a165627a7a723058208cb8d0a7df5d838a0ac3093235d20992100395daa0bca808e24adfe564be864b0029",
  "source": "pragma solidity ^0.4.24;\n\nimport \"../ModuleRegistry.sol\";\n\n/**\n * @title Registry contract for issuers to register their security tokens\n */\ncontract MockModuleRegistry is ModuleRegistry {\n\n    /// @notice It is dummy functionality\n    /// Alert! Alert! Do not use it for the mainnet release\n    function addMoreReputation(address _moduleFactory, address[] _tokens) public onlyOwner {\n        for (uint8 i = 0; i < _tokens.length; i++) {\n            pushArray(Encoder.getKey('reputation', _moduleFactory), _tokens[i]);\n        }\n    }\n\n\n}\n",
  "sourcePath": "/Users/rafaelvidaurre/Code/polymath/polymath-apps/packages/polymath-shared/scripts/generateLocalBlockchain/contracts/mocks/MockModuleRegistry.sol",
  "compiler": {
    "name": "solc",
    "version": "0.4.24+commit.e67f0147.Emscripten.clang"
  },
  "schemaVersion": "2.0.1",
  "updatedAt": "2018-10-18T21:45:31.804Z"
}