{
  "contractName": "MockModuleRegistry",
  "abi": [
    {
      "constant": true,
      "inputs": [
        {
          "name": "_factoryAddress",
          "type": "address"
        }
      ],
      "name": "getReputationByFactory",
      "outputs": [
        {
          "name": "",
          "type": "address[]"
        }
      ],
      "payable": false,
      "stateMutability": "view",
      "type": "function"
    },
    {
      "constant": true,
      "inputs": [
        {
          "name": "_moduleType",
          "type": "uint8"
        },
        {
          "name": "_securityToken",
          "type": "address"
        }
      ],
      "name": "getTagsByTypeAndToken",
      "outputs": [
        {
          "name": "",
          "type": "bytes32[]"
        },
        {
          "name": "",
          "type": "address[]"
        }
      ],
      "payable": false,
      "stateMutability": "view",
      "type": "function"
    },
    {
      "constant": true,
      "inputs": [
        {
          "name": "_variable",
          "type": "bytes32"
        }
      ],
      "name": "getBoolValues",
      "outputs": [
        {
          "name": "",
          "type": "bool"
        }
      ],
      "payable": false,
      "stateMutability": "view",
      "type": "function"
    },
    {
      "constant": true,
      "inputs": [
        {
          "name": "_variable",
          "type": "bytes32"
        }
      ],
      "name": "getUintValues",
      "outputs": [
        {
          "name": "",
          "type": "uint256"
        }
      ],
      "payable": false,
      "stateMutability": "view",
      "type": "function"
    },
    {
      "constant": false,
      "inputs": [],
      "name": "unpause",
      "outputs": [],
      "payable": false,
      "stateMutability": "nonpayable",
      "type": "function"
    },
    {
      "constant": false,
      "inputs": [
        {
          "name": "_polymathRegistry",
          "type": "address"
        },
        {
          "name": "_owner",
          "type": "address"
        }
      ],
      "name": "initialize",
      "outputs": [],
      "payable": true,
      "stateMutability": "payable",
      "type": "function"
    },
    {
      "constant": true,
      "inputs": [
        {
          "name": "_moduleType",
          "type": "uint8"
        }
      ],
      "name": "getTagsByType",
      "outputs": [
        {
          "name": "",
          "type": "bytes32[]"
        },
        {
          "name": "",
          "type": "address[]"
        }
      ],
      "payable": false,
      "stateMutability": "view",
      "type": "function"
    },
    {
      "constant": true,
      "inputs": [
        {
          "name": "_variable",
          "type": "bytes32"
        }
      ],
      "name": "getStringValues",
      "outputs": [
        {
          "name": "",
          "type": "string"
        }
      ],
      "payable": false,
      "stateMutability": "view",
      "type": "function"
    },
    {
      "constant": false,
      "inputs": [],
      "name": "pause",
      "outputs": [],
      "payable": false,
      "stateMutability": "nonpayable",
      "type": "function"
    },
    {
      "constant": false,
      "inputs": [
        {
          "name": "_tokenContract",
          "type": "address"
        }
      ],
      "name": "reclaimERC20",
      "outputs": [],
      "payable": false,
      "stateMutability": "nonpayable",
      "type": "function"
    },
    {
      "constant": true,
      "inputs": [],
      "name": "owner",
      "outputs": [
        {
          "name": "",
          "type": "address"
        }
      ],
      "payable": false,
      "stateMutability": "view",
      "type": "function"
    },
    {
      "constant": false,
      "inputs": [
        {
          "name": "_moduleFactory",
          "type": "address"
        }
      ],
      "name": "removeModule",
      "outputs": [],
      "payable": false,
      "stateMutability": "nonpayable",
      "type": "function"
    },
    {
      "constant": true,
      "inputs": [
        {
          "name": "_moduleType",
          "type": "uint8"
        }
      ],
      "name": "getModulesByType",
      "outputs": [
        {
          "name": "",
          "type": "address[]"
        }
      ],
      "payable": false,
      "stateMutability": "view",
      "type": "function"
    },
    {
      "constant": false,
      "inputs": [
        {
          "name": "_moduleFactory",
          "type": "address"
        }
      ],
      "name": "registerModule",
      "outputs": [],
      "payable": false,
      "stateMutability": "nonpayable",
      "type": "function"
    },
    {
      "constant": true,
      "inputs": [],
      "name": "isPaused",
      "outputs": [
        {
          "name": "",
          "type": "bool"
        }
      ],
      "payable": false,
      "stateMutability": "view",
      "type": "function"
    },
    {
      "constant": true,
      "inputs": [
        {
          "name": "_variable",
          "type": "bytes32"
        }
      ],
      "name": "getBytes32Values",
      "outputs": [
        {
          "name": "",
          "type": "bytes32"
        }
      ],
      "payable": false,
      "stateMutability": "view",
      "type": "function"
    },
    {
      "constant": true,
      "inputs": [
        {
          "name": "_variable",
          "type": "bytes32"
        }
      ],
      "name": "getAddressValues",
      "outputs": [
        {
          "name": "",
          "type": "address"
        }
      ],
      "payable": false,
      "stateMutability": "view",
      "type": "function"
    },
    {
      "constant": true,
      "inputs": [
        {
          "name": "_variable",
          "type": "bytes32"
        }
      ],
      "name": "getBytesValues",
      "outputs": [
        {
          "name": "",
          "type": "bytes"
        }
      ],
      "payable": false,
      "stateMutability": "view",
      "type": "function"
    },
    {
      "constant": false,
      "inputs": [
        {
          "name": "_moduleFactory",
          "type": "address"
        }
      ],
      "name": "useModule",
      "outputs": [],
      "payable": false,
      "stateMutability": "nonpayable",
      "type": "function"
    },
    {
      "constant": true,
      "inputs": [
        {
          "name": "_moduleType",
          "type": "uint8"
        },
        {
          "name": "_securityToken",
          "type": "address"
        }
      ],
      "name": "getModulesByTypeAndToken",
      "outputs": [
        {
          "name": "",
          "type": "address[]"
        }
      ],
      "payable": false,
      "stateMutability": "view",
      "type": "function"
    },
    {
      "constant": false,
      "inputs": [
        {
          "name": "_moduleFactory",
          "type": "address"
        },
        {
          "name": "_verified",
          "type": "bool"
        }
      ],
      "name": "verifyModule",
      "outputs": [],
      "payable": false,
      "stateMutability": "nonpayable",
      "type": "function"
    },
    {
      "constant": false,
      "inputs": [],
      "name": "updateFromRegistry",
      "outputs": [],
      "payable": false,
      "stateMutability": "nonpayable",
      "type": "function"
    },
    {
      "anonymous": false,
      "inputs": [
        {
          "indexed": false,
          "name": "_timestammp",
          "type": "uint256"
        }
      ],
      "name": "Pause",
      "type": "event"
    },
    {
      "anonymous": false,
      "inputs": [
        {
          "indexed": false,
          "name": "_timestamp",
          "type": "uint256"
        }
      ],
      "name": "Unpause",
      "type": "event"
    },
    {
      "anonymous": false,
      "inputs": [
        {
          "indexed": true,
          "name": "_moduleFactory",
          "type": "address"
        },
        {
          "indexed": true,
          "name": "_securityToken",
          "type": "address"
        }
      ],
      "name": "ModuleUsed",
      "type": "event"
    },
    {
      "anonymous": false,
      "inputs": [
        {
          "indexed": true,
          "name": "_moduleFactory",
          "type": "address"
        },
        {
          "indexed": true,
          "name": "_owner",
          "type": "address"
        }
      ],
      "name": "ModuleRegistered",
      "type": "event"
    },
    {
      "anonymous": false,
      "inputs": [
        {
          "indexed": true,
          "name": "_moduleFactory",
          "type": "address"
        },
        {
          "indexed": false,
          "name": "_verified",
          "type": "bool"
        }
      ],
      "name": "ModuleVerified",
      "type": "event"
    },
    {
      "anonymous": false,
      "inputs": [
        {
          "indexed": true,
          "name": "_moduleFactory",
          "type": "address"
        },
        {
          "indexed": true,
          "name": "_decisionMaker",
          "type": "address"
        }
      ],
      "name": "ModuleRemoved",
      "type": "event"
    },
    {
      "constant": false,
      "inputs": [
        {
          "name": "_moduleFactory",
          "type": "address"
        },
        {
          "name": "_tokens",
          "type": "address[]"
        }
      ],
      "name": "addMoreReputation",
      "outputs": [],
      "payable": false,
      "stateMutability": "nonpayable",
      "type": "function"
    }
  ],
  "bytecode": "0x60806040526145fb806100136000396000f3006080604052600436106101195763ffffffff60e060020a6000350416630818a6f0811461011e5780631a83bff01461018f5780631d8acf1b1461024f57806326839e531461027b5780633f4ba83a146102a5578063485cc955146102bc5780634ac24a9a146102d657806369ba0fe9146102f15780638456cb591461037e5780638905fd4f146103935780638da5cb5b146103b4578063a0632461146103e5578063ac90b42214610406578063ad64ae4b14610421578063b187bd2614610442578063b3447ac914610457578063baed8bb11461046f578063c6cb7ab814610487578063dc6599071461049f578063e02592fd146104c0578063ea393b7514610523578063eac5ab431461054a578063f433262f14610570575b600080fd5b34801561012a57600080fd5b5061013f600160a060020a0360043516610585565b60408051602080825283518183015283519192839290830191858101910280838360005b8381101561017b578181015183820152602001610163565b505050509050019250505060405180910390f35b34801561019b57600080fd5b506101b660ff60043516600160a060020a03602435166105c2565b604051808060200180602001838103835285818151815260200191508051906020019060200280838360005b838110156101fa5781810151838201526020016101e2565b50505050905001838103825284818151815260200191508051906020019060200280838360005b83811015610239578181015183820152602001610221565b5050505090500194505050505060405180910390f35b34801561025b57600080fd5b506102676004356105e8565b604080519115158252519081900360200190f35b34801561028757600080fd5b506102936004356105fd565b60408051918252519081900360200190f35b3480156102b157600080fd5b506102ba61060f565b005b6102ba600160a060020a036004358116906024351661072d565b3480156102e257600080fd5b506101b660ff60043516610947565b3480156102fd57600080fd5b5061030960043561096a565b6040805160208082528351818301528351919283929083019185019080838360005b8381101561034357818101518382015260200161032b565b50505050905090810190601f1680156103705780820380516001836020036101000a031916815260200191505b509250505060405180910390f35b34801561038a57600080fd5b506102ba610a0d565b34801561039f57600080fd5b506102ba600160a060020a0360043516610b23565b3480156103c057600080fd5b506103c9610d5e565b60408051600160a060020a039092168252519081900360200190f35b3480156103f157600080fd5b506102ba600160a060020a0360043516610dac565b34801561041257600080fd5b5061013f60ff60043516611628565b34801561042d57600080fd5b506102ba600160a060020a036004351661165d565b34801561044e57600080fd5b5061026761251a565b34801561046357600080fd5b5061029360043561254b565b34801561047b57600080fd5b506103c960043561255d565b34801561049357600080fd5b50610309600435612578565b3480156104ab57600080fd5b506102ba600160a060020a03600435166125e2565b3480156104cc57600080fd5b506040805160206004602480358281013584810280870186019097528086526102ba968435600160a060020a031696369660449591949091019291829185019084908082843750949750612ace9650505050505050565b34801561052f57600080fd5b5061013f60ff60043516600160a060020a0360243516612b8d565b34801561055657600080fd5b506102ba600160a060020a0360043516602435151561315e565b34801561057c57600080fd5b506102ba6132dc565b60606105bc6105b76040805190810160405280600a81526020016000805160206144b0833981519152815250846135ff565b6136f3565b92915050565b60608060606105d18585612b8d565b90506105dc8161375e565b92509250509250929050565b60009081526004602052604090205460ff1690565b60009081526020819052604090205490565b61061761251a565b151561066d576040805160e560020a62461bcd02815260206004820152601460248201527f53686f756c64206e6f7420626520706175736564000000000000000000000000604482015290519081900360640190fd5b610675610d5e565b600160a060020a031633146106c2576040805160e560020a62461bcd02815260206004820152601460248201526000805160206144d0833981519152604482015290519081900360640190fd5b6106f86106f1604080519081016040528060068152602001600080516020614490833981519152815250613a54565b6000613b1e565b6040805142815290517faaa520fdd7d2c83061d632fa017b0432407e798818af63ea908589fceda39ab79181900360200190a1565b61077361076e6040805190810160405280600b81526020017f696e697469616c69736564000000000000000000000000000000000000000000815250613a54565b6105e8565b156107c8576040805160e560020a62461bcd02815260206004820152601360248201527f616c726561647920696e697469616c697a656400000000000000000000000000604482015290519081900360640190fd5b600160a060020a038116158015906107e85750600160a060020a03821615155b151561083e576040805160e560020a62461bcd02815260206004820152601560248201527f3078206164647265737320697320696e76616c69640000000000000000000000604482015290519081900360640190fd5b61088561087f6040805190810160405280601081526020017f706f6c796d617468526567697374727900000000000000000000000000000000815250613a54565b83613b3e565b6108cc6108c66040805190810160405280600581526020017f6f776e6572000000000000000000000000000000000000000000000000000000815250613a54565b82613b3e565b6108fb6106f1604080519081016040528060068152602001600080516020614490833981519152815250613a54565b61094361093c6040805190810160405280600b81526020017f696e697469616c69736564000000000000000000000000000000000000000000815250613a54565b6001613b1e565b5050565b606080606061095584611628565b90506109608161375e565b9250925050915091565b60008181526001602081815260409283902080548451600260001995831615610100029590950190911693909304601f81018390048302840183019094528383526060939091830182828015610a015780601f106109d657610100808354040283529160200191610a01565b820191906000526020600020905b8154815290600101906020018083116109e457829003601f168201915b50505050509050919050565b610a1561251a565b15610a6a576040805160e560020a62461bcd02815260206004820152600e60248201527f416c726561647920706175736564000000000000000000000000000000000000604482015290519081900360640190fd5b610a72610d5e565b600160a060020a03163314610abf576040805160e560020a62461bcd02815260206004820152601460248201526000805160206144d0833981519152604482015290519081900360640190fd5b610aee61093c604080519081016040528060068152602001600080516020614490833981519152815250613a54565b6040805142815290517f68b095021b1f40fe513109f513c66692f0b3219aee674a69f4efc57badb8201d9181900360200190a1565b600080610b2e610d5e565b600160a060020a03163314610b7b576040805160e560020a62461bcd02815260206004820152601460248201526000805160206144d0833981519152604482015290519081900360640190fd5b600160a060020a0383161515610bdb576040805160e560020a62461bcd02815260206004820152601560248201527f3078206164647265737320697320696e76616c69640000000000000000000000604482015290519081900360640190fd5b604080517f70a082310000000000000000000000000000000000000000000000000000000081523060048201529051849350600160a060020a038416916370a082319160248083019260209291908290030181600087803b158015610c3f57600080fd5b505af1158015610c53573d6000803e3d6000fd5b505050506040513d6020811015610c6957600080fd5b50519050600160a060020a03821663a9059cbb610c84610d5e565b836040518363ffffffff1660e060020a0281526004018083600160a060020a0316600160a060020a0316815260200182815260200192505050602060405180830381600087803b158015610cd757600080fd5b505af1158015610ceb573d6000803e3d6000fd5b505050506040513d6020811015610d0157600080fd5b50511515610d59576040805160e560020a62461bcd02815260206004820152601560248201527f746f6b656e207472616e73666572206661696c65640000000000000000000000604482015290519081900360640190fd5b505050565b6000610da6610da16040805190810160405280600581526020017f6f776e6572000000000000000000000000000000000000000000000000000000815250613a54565b61255d565b90505b90565b600080600080610dba610d5e565b600160a060020a031633600160a060020a031614156111e757610e08610e036040805190810160405280600881526020016000805160206144f0833981519152815250876135ff565b6105fd565b9350831515610e87576040805160e560020a62461bcd02815260206004820152602360248201527f4d6f64756c6520666163746f72792073686f756c64206265207265676973746560448201527f7265640000000000000000000000000000000000000000000000000000000000606482015290519081900360840190fd5b84600160a060020a0316638da5cb5b6040518163ffffffff1660e060020a028152600401602060405180830381600087803b158015610ec557600080fd5b505af1158015610ed9573d6000803e3d6000fd5b505050506040513d6020811015610eef57600080fd5b5051600160a060020a0316331480610f1f5750610f0a610d5e565b600160a060020a031633600160a060020a0316145b1515610f77576040805160e560020a62461bcd02815260206004820152603f60248201526000805160206145508339815191526044820152600080516020614590833981519152606482015290519081900360840190fd5b610fa7610e036040805190810160405280600f81526020016000805160206145b0833981519152815250876135ff565b92506001610fdb6105b76040805190810160405280600a815260200160008051602061457083398151915281525087613b79565b5103915061100f6105b76040805190810160405280600a815260200160008051602061457083398151915281525086613b79565b80518390811061101b57fe5b60209081029091010151905082821461109b5761106561105e6040805190810160405280600a815260200160008051602061457083398151915281525086613b79565b8483613c10565b61109b6110956040805190810160405280600f81526020016000805160206145b0833981519152815250836135ff565b84613c60565b6110d16110cb6040805190810160405280600a815260200160008051602061457083398151915281525086613b79565b83613c72565b6111086111016040805190810160405280600881526020016000805160206144f0833981519152815250876135ff565b6000613c60565b61114c6111386040805190810160405280600a81526020016000805160206144b0833981519152815250876135ff565b604080516000815260208101909152613d82565b61117c6106f1604080519081016040528060088152602001600080516020614510833981519152815250876135ff565b6111ac6111016040805190810160405280600f81526020016000805160206145b0833981519152815250876135ff565b6040513390600160a060020a038716907fd66772358582078947c11fa70e2860b3ffa915277e6181a4aa293072cb57ed3c90600090a3611621565b6111ef61251a565b15611244576040805160e560020a62461bcd02815260206004820152600e60248201527f416c726561647920706175736564000000000000000000000000000000000000604482015290519081900360640190fd5b611274610e036040805190810160405280600881526020016000805160206144f0833981519152815250876135ff565b93508315156112f3576040805160e560020a62461bcd02815260206004820152602360248201527f4d6f64756c6520666163746f72792073686f756c64206265207265676973746560448201527f7265640000000000000000000000000000000000000000000000000000000000606482015290519081900360840190fd5b84600160a060020a0316638da5cb5b6040518163ffffffff1660e060020a028152600401602060405180830381600087803b15801561133157600080fd5b505af1158015611345573d6000803e3d6000fd5b505050506040513d602081101561135b57600080fd5b5051600160a060020a031633148061138b5750611376610d5e565b600160a060020a031633600160a060020a0316145b15156113e3576040805160e560020a62461bcd02815260206004820152603f60248201526000805160206145508339815191526044820152600080516020614590833981519152606482015290519081900360840190fd5b611413610e036040805190810160405280600f81526020016000805160206145b0833981519152815250876135ff565b925060016114476105b76040805190810160405280600a815260200160008051602061457083398151915281525087613b79565b5103915061147b6105b76040805190810160405280600a815260200160008051602061457083398151915281525086613b79565b80518390811061148757fe5b6020908102909101015190508282146114fa576114ca61105e6040805190810160405280600a815260200160008051602061457083398151915281525086613b79565b6114fa6110956040805190810160405280600f81526020016000805160206145b0833981519152815250836135ff565b61152a6110cb6040805190810160405280600a815260200160008051602061457083398151915281525086613b79565b61155a6111016040805190810160405280600881526020016000805160206144f0833981519152815250876135ff565b61158a6111386040805190810160405280600a81526020016000805160206144b0833981519152815250876135ff565b6115ba6106f1604080519081016040528060088152602001600080516020614510833981519152815250876135ff565b6115ea6111016040805190810160405280600f81526020016000805160206145b0833981519152815250876135ff565b6040513390600160a060020a038716907fd66772358582078947c11fa70e2860b3ffa915277e6181a4aa293072cb57ed3c90600090a35b5050505050565b60606105bc6105b76040805190810160405280600a81526020016000805160206145708339815191528152508460ff16613b79565b60008060006060600061166e610d5e565b600160a060020a031633600160a060020a03161415611dc4576116b6610da16040805190810160405280600f8152602001600080516020614470833981519152815250613a54565b600160a060020a0316632f0019f26040518163ffffffff1660e060020a028152600401808060200182810382526014815260200180600080516020614530833981519152815250602001915050602060405180830381600087803b15801561171d57600080fd5b505af1158015611731573d6000803e3d6000fd5b505050506040513d602081101561174757600080fd5b5051156118435785600160a060020a0316638da5cb5b6040518163ffffffff1660e060020a028152600401602060405180830381600087803b15801561178c57600080fd5b505af11580156117a0573d6000803e3d6000fd5b505050506040513d60208110156117b657600080fd5b5051600160a060020a03163314806117e657506117d1610d5e565b600160a060020a031633600160a060020a0316145b151561183e576040805160e560020a62461bcd02815260206004820152603f60248201526000805160206145508339815191526044820152600080516020614590833981519152606482015290519081900360840190fd5b6118d0565b61184b610d5e565b600160a060020a031633146118d0576040805160e560020a62461bcd02815260206004820152602660248201527f4f6e6c79206f776e657220616c6c6f77656420746f207265676973746572206d60448201527f6f64756c65730000000000000000000000000000000000000000000000000000606482015290519081900360840190fd5b611900610e036040805190810160405280600881526020016000805160206144f0833981519152815250886135ff565b1561197b576040805160e560020a62461bcd02815260206004820152602b60248201527f4d6f64756c6520666163746f72792073686f756c64206e6f742062652070726560448201527f2d72656769737465726564000000000000000000000000000000000000000000606482015290519081900360840190fd5b85945084600160a060020a031663b4579d606040518163ffffffff1660e060020a028152600401600060405180830381600087803b1580156119bc57600080fd5b505af11580156119d0573d6000803e3d6000fd5b505050506040513d6000823e601f3d908101601f1916820160405260208110156119f957600080fd5b810190808051640100000000811115611a1157600080fd5b82016020810184811115611a2457600080fd5b8151856020820283011164010000000082111715611a4157600080fd5b5060019850909550505050505b8151841015611b0657600092505b83831015611afb578183815181101515611a7257fe5b9060200190602002015160ff168285815181101515611a8d57fe5b6020908102909101015160ff161415611af0576040805160e560020a62461bcd02815260206004820152600d60248201527f54797065206d69736d6174636800000000000000000000000000000000000000604482015290519081900360640190fd5b600190920191611a5c565b600190930192611a4e565b81511515611b5e576040805160e560020a62461bcd02815260206004820152601660248201527f466163746f7279206d7573742068617665207479706500000000000000000000604482015290519081900360640190fd5b84600160a060020a031663b4579d606040518163ffffffff1660e060020a028152600401600060405180830381600087803b158015611b9c57600080fd5b505af1158015611bb0573d6000803e3d6000fd5b505050506040513d6000823e601f3d908101601f191682016040526020811015611bd957600080fd5b810190808051640100000000811115611bf157600080fd5b82016020810184811115611c0457600080fd5b8151856020820283011164010000000082111715611c2157600080fd5b505080519093506000925082109050611c3657fe5b906020019060200201519050611c7b611c726040805190810160405280600881526020016000805160206144f0833981519152815250886135ff565b8260ff16613c60565b611ce4611cab6040805190810160405280600f81526020016000805160206145b0833981519152815250886135ff565b611cde6105b76040805190810160405280600a81526020016000805160206145708339815191528152508560ff16613b79565b51613c60565b611d1d611d176040805190810160405280600a81526020016000805160206145708339815191528152508360ff16613b79565b87613da1565b85600160a060020a0316638da5cb5b6040518163ffffffff1660e060020a028152600401602060405180830381600087803b158015611d5b57600080fd5b505af1158015611d6f573d6000803e3d6000fd5b505050506040513d6020811015611d8557600080fd5b5051604051600160a060020a03918216918816907f49220d7268f6ac850e2f0d39ce956e56f086a18cfda1383c05f9c859fdef901290600090a3612512565b611dcc61251a565b15611e21576040805160e560020a62461bcd02815260206004820152600e60248201527f416c726561647920706175736564000000000000000000000000000000000000604482015290519081900360640190fd5b611e50610da16040805190810160405280600f8152602001600080516020614470833981519152815250613a54565b600160a060020a0316632f0019f26040518163ffffffff1660e060020a028152600401808060200182810382526014815260200180600080516020614530833981519152815250602001915050602060405180830381600087803b158015611eb757600080fd5b505af1158015611ecb573d6000803e3d6000fd5b505050506040513d6020811015611ee157600080fd5b505115611fdd5785600160a060020a0316638da5cb5b6040518163ffffffff1660e060020a028152600401602060405180830381600087803b158015611f2657600080fd5b505af1158015611f3a573d6000803e3d6000fd5b505050506040513d6020811015611f5057600080fd5b5051600160a060020a0316331480611f805750611f6b610d5e565b600160a060020a031633600160a060020a0316145b1515611fd8576040805160e560020a62461bcd02815260206004820152603f60248201526000805160206145508339815191526044820152600080516020614590833981519152606482015290519081900360840190fd5b61206a565b611fe5610d5e565b600160a060020a0316331461206a576040805160e560020a62461bcd02815260206004820152602660248201527f4f6e6c79206f776e657220616c6c6f77656420746f207265676973746572206d60448201527f6f64756c65730000000000000000000000000000000000000000000000000000606482015290519081900360840190fd5b61209a610e036040805190810160405280600881526020016000805160206144f0833981519152815250886135ff565b15612115576040805160e560020a62461bcd02815260206004820152602b60248201527f4d6f64756c6520666163746f72792073686f756c64206e6f742062652070726560448201527f2d72656769737465726564000000000000000000000000000000000000000000606482015290519081900360840190fd5b85945084600160a060020a031663b4579d606040518163ffffffff1660e060020a028152600401600060405180830381600087803b15801561215657600080fd5b505af115801561216a573d6000803e3d6000fd5b505050506040513d6000823e601f3d908101601f19168201604052602081101561219357600080fd5b8101908080516401000000008111156121ab57600080fd5b820160208101848111156121be57600080fd5b81518560208202830111640100000000821117156121db57600080fd5b5060019850909550505050505b81518410156122a057600092505b8383101561229557818381518110151561220c57fe5b9060200190602002015160ff16828581518110151561222757fe5b6020908102909101015160ff16141561228a576040805160e560020a62461bcd02815260206004820152600d60248201527f54797065206d69736d6174636800000000000000000000000000000000000000604482015290519081900360640190fd5b6001909201916121f6565b6001909301926121e8565b815115156122f8576040805160e560020a62461bcd02815260206004820152601660248201527f466163746f7279206d7573742068617665207479706500000000000000000000604482015290519081900360640190fd5b84600160a060020a031663b4579d606040518163ffffffff1660e060020a028152600401600060405180830381600087803b15801561233657600080fd5b505af115801561234a573d6000803e3d6000fd5b505050506040513d6000823e601f3d908101601f19168201604052602081101561237357600080fd5b81019080805164010000000081111561238b57600080fd5b8201602081018481111561239e57600080fd5b81518560208202830111640100000000821117156123bb57600080fd5b5050805190935060009250821090506123d057fe5b90602001906020020151905061240c611c726040805190810160405280600881526020016000805160206144f0833981519152815250886135ff565b61243c611cab6040805190810160405280600f81526020016000805160206145b0833981519152815250886135ff565b61246f611d176040805190810160405280600a81526020016000805160206145708339815191528152508360ff16613b79565b85600160a060020a0316638da5cb5b6040518163ffffffff1660e060020a028152600401602060405180830381600087803b1580156124ad57600080fd5b505af11580156124c1573d6000803e3d6000fd5b505050506040513d60208110156124d757600080fd5b5051604051600160a060020a03918216918816907f49220d7268f6ac850e2f0d39ce956e56f086a18cfda1383c05f9c859fdef901290600090a35b505050505050565b6000610da661076e604080519081016040528060068152602001600080516020614490833981519152815250613a54565b60009081526006602052604090205490565b600090815260026020526040902054600160a060020a031690565b60008181526003602090815260409182902080548351601f6002610100600185161502600019019093169290920491820184900484028101840190945280845260609392830182828015610a015780601f106109d657610100808354040283529160200191610a01565b612623610da16040805190810160405280601581526020017f7365637572697479546f6b656e52656769737472790000000000000000000000815250613a54565b600160a060020a031663d300a968336040518263ffffffff1660e060020a0281526004018082600160a060020a0316600160a060020a03168152602001915050602060405180830381600087803b15801561267d57600080fd5b505af1158015612691573d6000803e3d6000fd5b505050506040513d60208110156126a757600080fd5b505115612acb576126dd610da16040805190810160405280600f8152602001600080516020614470833981519152815250613a54565b600160a060020a0316632f0019f26040518163ffffffff1660e060020a028152600401808060200182810382526014815260200180600080516020614530833981519152815250602001915050602060405180830381600087803b15801561274457600080fd5b505af1158015612758573d6000803e3d6000fd5b505050506040513d602081101561276e57600080fd5b505115612952576127a561076e604080519081016040528060088152602001600080516020614510833981519152815250836135ff565b806128ab575033600160a060020a0316638da5cb5b6040518163ffffffff1660e060020a028152600401602060405180830381600087803b1580156127e957600080fd5b505af11580156127fd573d6000803e3d6000fd5b505050506040513d602081101561281357600080fd5b5051604080517f8da5cb5b0000000000000000000000000000000000000000000000000000000081529051600160a060020a0392831692841691638da5cb5b9160048083019260209291908290030181600087803b15801561287457600080fd5b505af1158015612888573d6000803e3d6000fd5b505050506040513d602081101561289e57600080fd5b5051600160a060020a0316145b151561294d576040805160e560020a62461bcd02815260206004820152605160248201527f4d6f64756c65466163746f7279206d757374206265207665726966696564206f60448201527f72205365637572697479546f6b656e206f776e6572206d757374206265204d6f60648201527f64756c65466163746f7279206f776e6572000000000000000000000000000000608482015290519081900360a40190fd5b6129d8565b61298261076e604080519081016040528060088152602001600080516020614510833981519152815250836135ff565b15156129d8576040805160e560020a62461bcd02815260206004820152601e60248201527f4d6f64756c65466163746f7279206d7573742062652076657269666965640000604482015290519081900360640190fd5b6129e28133613ded565b1515612a5e576040805160e560020a62461bcd02815260206004820152603060248201527f56657273696f6e2073686f756c642077697468696e2074686520636f6d70617460448201527f69626c652072616e6765206f6620535400000000000000000000000000000000606482015290519081900360840190fd5b612a94612a8e6040805190810160405280600a81526020016000805160206144b0833981519152815250836135ff565b33613da1565b6040513390600160a060020a038316907ffd0013c5b822aafcc05b8cfdd6dfa336f40c31714b8bef8f2520e7036b9f079890600090a35b50565b6000612ad8610d5e565b600160a060020a03163314612b25576040805160e560020a62461bcd02815260206004820152601460248201526000805160206144d0833981519152604482015290519081900360640190fd5b5060005b81518160ff161015610d5957612b85612b656040805190810160405280600a81526020016000805160206144b0833981519152815250856135ff565b838360ff16815181101515612b7657fe5b90602001906020020151613da1565b600101612b29565b606060006060600080600060606000612bcf6105b76040805190810160405280600a81526020016000805160206145708339815191528152508c60ff16613b79565b519650612c056105b76040805190810160405280600a81526020016000805160206145708339815191528152508c60ff16613b79565b9550612c36610da16040805190810160405280600f8152602001600080516020614470833981519152815250613a54565b600160a060020a0316632f0019f26040518163ffffffff1660e060020a028152600401808060200182810382526014815260200180600080516020614530833981519152815250602001915050602060405180830381600087803b158015612c9d57600080fd5b505af1158015612cb1573d6000803e3d6000fd5b505050506040513d6020811015612cc757600080fd5b50519450600093508392505b86831015612ecb578415612e665788600160a060020a0316638da5cb5b6040518163ffffffff1660e060020a028152600401602060405180830381600087803b158015612d1f57600080fd5b505af1158015612d33573d6000803e3d6000fd5b505050506040513d6020811015612d4957600080fd5b50518651600160a060020a0390911690879085908110612d6557fe5b90602001906020020151600160a060020a0316638da5cb5b6040518163ffffffff1660e060020a028152600401602060405180830381600087803b158015612dac57600080fd5b505af1158015612dc0573d6000803e3d6000fd5b505050506040513d6020811015612dd657600080fd5b5051600160a060020a03161480612e2f5750612e2f61076e6040805190810160405280600881526020016000805160206145108339815191528152508886815181101515612e2057fe5b906020019060200201516135ff565b15612e6157612e558684815181101515612e4557fe5b906020019060200201518a613ded565b15612e61576001909301925b612ec0565b612e9e61076e6040805190810160405280600881526020016000805160206145108339815191528152508886815181101515612e2057fe5b15612ec057612eb48684815181101515612e4557fe5b15612ec0576001909301925b600190920191612cd3565b83604051908082528060200260200182016040528015612ef5578160200160208202803883390190505b50915060009350600090505b868110156131515784156130b25788600160a060020a0316638da5cb5b6040518163ffffffff1660e060020a028152600401602060405180830381600087803b158015612f4d57600080fd5b505af1158015612f61573d6000803e3d6000fd5b505050506040513d6020811015612f7757600080fd5b50518651600160a060020a0390911690879083908110612f9357fe5b90602001906020020151600160a060020a0316638da5cb5b6040518163ffffffff1660e060020a028152600401602060405180830381600087803b158015612fda57600080fd5b505af1158015612fee573d6000803e3d6000fd5b505050506040513d602081101561300457600080fd5b5051600160a060020a0316148061304e575061304e61076e6040805190810160405280600881526020016000805160206145108339815191528152508884815181101515612e2057fe5b156130ad576130648682815181101515612e4557fe5b156130ad57858181518110151561307757fe5b90602001906020020151828581518110151561308f57fe5b600160a060020a039092166020928302909101909101526001909301925b613149565b6130ea61076e6040805190810160405280600881526020016000805160206145108339815191528152508884815181101515612e2057fe5b15613149576131008682815181101515612e4557fe5b1561314957858181518110151561311357fe5b90602001906020020151828581518110151561312b57fe5b600160a060020a039092166020928302909101909101526001909301925b600101612f01565b5098975050505050505050565b613166610d5e565b600160a060020a031633146131b3576040805160e560020a62461bcd02815260206004820152601460248201526000805160206144d0833981519152604482015290519081900360640190fd5b60006131e5610e036040805190810160405280600881526020016000805160206144f0833981519152815250856135ff565b1415613261576040805160e560020a62461bcd02815260206004820152602160248201527f4d6f64756c6520666163746f7279206d7573742062652072656769737465726560448201527f6400000000000000000000000000000000000000000000000000000000000000606482015290519081900360840190fd5b613297613291604080519081016040528060088152602001600080516020614510833981519152815250846135ff565b82613b1e565b6040805182151581529051600160a060020a038416917f302d67e66dd951c29fca6e4f7099f292e8cc3537ad6bc4539b77e8b7a6404db2919081900360200190a25050565b60006132e6610d5e565b600160a060020a03163314613333576040805160e560020a62461bcd02815260206004820152601460248201526000805160206144d0833981519152604482015290519081900360640190fd5b613374610da16040805190810160405280601081526020017f706f6c796d617468526567697374727900000000000000000000000000000000815250613a54565b90506134756133b76040805190810160405280601581526020017f7365637572697479546f6b656e52656769737472790000000000000000000000815250613a54565b604080517fbf40fac1000000000000000000000000000000000000000000000000000000008152602060048201819052601560248301527f5365637572697479546f6b656e5265676973747279000000000000000000000060448301529151600160a060020a0386169263bf40fac192606480820193918290030181600087803b15801561344457600080fd5b505af1158015613458573d6000803e3d6000fd5b505050506040513d602081101561346e57600080fd5b5051613b3e565b6135316134a46040805190810160405280600f8152602001600080516020614470833981519152815250613a54565b604080517fbf40fac1000000000000000000000000000000000000000000000000000000008152602060048201819052600f60248301527f466561747572655265676973747279000000000000000000000000000000000060448301529151600160a060020a0386169263bf40fac192606480820193918290030181600087803b15801561344457600080fd5b612acb6135726040805190810160405280600981526020017f706f6c79546f6b656e0000000000000000000000000000000000000000000000815250613a54565b604080517fbf40fac1000000000000000000000000000000000000000000000000000000008152602060048201819052600960248301527f506f6c79546f6b656e000000000000000000000000000000000000000000000060448301529151600160a060020a0386169263bf40fac192606480820193918290030181600087803b15801561344457600080fd5b600082826040516020018083805190602001908083835b602083106136355780518252601f199092019160209182019101613616565b6001836020036101000a03801982511681845116808217855250505050505090500182600160a060020a0316600160a060020a03166c01000000000000000000000000028152601401925050506040516020818303038152906040526040518082805190602001908083835b602083106136c05780518252601f1990920191602091820191016136a1565b5181516020939093036101000a600019018019909116921691909117905260405192018290039091209695505050505050565b600081815260096020908152604091829020805483518184028101840190945280845260609392830182828015610a0157602002820191906000526020600020905b8154600160a060020a031681526001909101906020018083116137355750505050509050919050565b606080600080808380805b885185101561386257888581518110151561378057fe5b90602001906020020151600160a060020a031663995d9ab76040518163ffffffff1660e060020a028152600401600060405180830381600087803b1580156137c757600080fd5b505af11580156137db573d6000803e3d6000fd5b505050506040513d6000823e601f3d908101601f19168201604052602081101561380457600080fd5b81019080805164010000000081111561381c57600080fd5b8201602081018481111561382f57600080fd5b815185602082028301116401000000008211171561384c57600080fd5b5050519890980197505060019095019450613769565b8560405190808252806020026020018201604052801561388c578160200160208202803883390190505b509250856040519080825280602002602001820160405280156138b9578160200160208202803883390190505b50915060009550600094505b8851851015613a465788858151811015156138dc57fe5b90602001906020020151600160a060020a031663995d9ab76040518163ffffffff1660e060020a028152600401600060405180830381600087803b15801561392357600080fd5b505af1158015613937573d6000803e3d6000fd5b505050506040513d6000823e601f3d908101601f19168201604052602081101561396057600080fd5b81019080805164010000000081111561397857600080fd5b8201602081018481111561398b57600080fd5b81518560208202830111640100000000821117156139a857600080fd5b5060009850909450505050505b8051841015613a3b5780848151811015156139cc57fe5b9060200190602002015183878151811015156139e457fe5b6020908102909101015288518990869081106139fc57fe5b906020019060200201518287815181101515613a1457fe5b600160a060020a0390921660209283029091019091015260019586019593909301926139b5565b6001909401936138c5565b509097909650945050505050565b6000816040516020018082805190602001908083835b60208310613a895780518252601f199092019160209182019101613a6a565b6001836020036101000a0380198251168184511680821785525050505050509050019150506040516020818303038152906040526040518082805190602001908083835b60208310613aec5780518252601f199092019160209182019101613acd565b5181516020939093036101000a6000190180199091169216919091179052604051920182900390912095945050505050565b600091825260046020526040909120805460ff1916911515919091179055565b600091825260026020526040909120805473ffffffffffffffffffffffffffffffffffffffff1916600160a060020a03909216919091179055565b600082826040516020018083805190602001908083835b60208310613baf5780518252601f199092019160209182019101613b90565b51815160001960209485036101000a019081169019919091161790529201938452506040805180850381529382019081905283519394509283925090840190808383602083106136c05780518252601f1990920191602091820191016136a1565b6000838152600960205260409020805482919084908110613c2d57fe5b9060005260206000200160006101000a815481600160a060020a030219169083600160a060020a03160217905550505050565b60009182526020829052604090912055565b600082815260096020526040902080548210613cfe576040805160e560020a62461bcd02815260206004820152602a60248201527f496e6465782073686f756c64206c657373207468616e206c656e677468206f6660448201527f2074686520617272617900000000000000000000000000000000000000000000606482015290519081900360840190fd5b805481906000198101908110613d1057fe5b6000918252602090912001548154600160a060020a0390911690829084908110613d3657fe5b6000918252602090912001805473ffffffffffffffffffffffffffffffffffffffff1916600160a060020a0392909216919091179055805460001901613d7c828261438e565b50505050565b60008281526009602090815260409091208251610d59928401906143b2565b6000918252600960209081526040832080546001810182559084529220909101805473ffffffffffffffffffffffffffffffffffffffff1916600160a060020a03909216919091179055565b6000606080606060008086600160a060020a0316630d8e6e2c6040518163ffffffff1660e060020a028152600401600060405180830381600087803b158015613e3557600080fd5b505af1158015613e49573d6000803e3d6000fd5b505050506040513d6000823e601f3d908101601f191682016040526020811015613e7257600080fd5b810190808051640100000000811115613e8a57600080fd5b82016020810184811115613e9d57600080fd5b8151856020820283011164010000000082111715613eba57600080fd5b5050929190505050945087600160a060020a0316638677768f6040518163ffffffff1660e060020a028152600401600060405180830381600087803b158015613f0257600080fd5b505af1158015613f16573d6000803e3d6000fd5b505050506040513d6000823e601f3d908101601f191682016040526020811015613f3f57600080fd5b810190808051640100000000811115613f5757600080fd5b82016020810184811115613f6a57600080fd5b8151856020820283011164010000000082111715613f8757600080fd5b5050929190505050935087600160a060020a031663f78629996040518163ffffffff1660e060020a028152600401600060405180830381600087803b158015613fcf57600080fd5b505af1158015613fe3573d6000803e3d6000fd5b505050506040513d6000823e601f3d908101601f19168201604052602081101561400c57600080fd5b81019080805164010000000081111561402457600080fd5b8201602081018481111561403757600080fd5b815185602082028301116401000000008211171561405457600080fd5b50509291905050509250614068848661408c565b91506140748386614223565b90508180156140805750805b98975050505050505050565b600080600080845186511415156140ed576040805160e560020a62461bcd02815260206004820152601560248201527f496e707574206c656e677468206d69736d617463680000000000000000000000604482015290519081900360640190fd5b60009250600091505b85518260ff16101561413a57858260ff1681518110151561411357fe5b9060200190602002015160ff166000141561412f576001909201915b6001909101906140f6565b85518314614215575060009150815b85518160ff1610156141f757858160ff1681518110151561416657fe5b9060200190602002015160ff16858260ff1681518110151561418457fe5b9060200190602002015160ff1611156141a0576001935061421a565b858160ff168151811015156141b157fe5b9060200190602002015160ff16858260ff168151811015156141cf57fe5b9060200190602002015160ff1610156141eb576000935061421a565b60019283019201614149565b600186510383141561420c576001935061421a565b6000935061421a565b600193505b50505092915050565b60008060008084518651141515614284576040805160e560020a62461bcd02815260206004820152601560248201527f496e707574206c656e677468206d69736d617463680000000000000000000000604482015290519081900360640190fd5b60009250600091505b85518260ff1610156142d157858260ff168151811015156142aa57fe5b9060200190602002015160ff16600014156142c6576001909201915b60019091019061428d565b85518314614215575060009150815b85518160ff1610156141f757848160ff168151811015156142fd57fe5b9060200190602002015160ff16868260ff1681518110151561431b57fe5b9060200190602002015160ff161115614337576001935061421a565b848160ff1681518110151561434857fe5b9060200190602002015160ff16868260ff1681518110151561436657fe5b9060200190602002015160ff161015614382576000935061421a565b600192830192016142e0565b815481835581811115610d5957600083815260209020610d59918101908301614424565b828054828255906000526020600020908101928215614414579160200282015b82811115614414578251825473ffffffffffffffffffffffffffffffffffffffff1916600160a060020a039091161782556020909201916001909101906143d2565b5061442092915061443e565b5090565b610da991905b80821115614420576000815560010161442a565b610da991905b8082111561442057805473ffffffffffffffffffffffffffffffffffffffff1916815560010161444456006665617475726552656769737472790000000000000000000000000000000000706175736564000000000000000000000000000000000000000000000000000072657075746174696f6e0000000000000000000000000000000000000000000073656e646572206d757374206265206f776e657200000000000000000000000072656769737472790000000000000000000000000000000000000000000000007665726966696564000000000000000000000000000000000000000000000000637573746f6d4d6f64756c6573416c6c6f7765640000000000000000000000006d73672e73656e646572206d75737420626520746865204d6f64756c652046616d6f64756c654c6973740000000000000000000000000000000000000000000063746f7279206f776e6572206f722072656769737472792063757261746f72006d6f64756c654c697374496e6465780000000000000000000000000000000000a165627a7a723058203199348dc5078f52b2b2af35b824b866e1577fb59c4f428e691c487dd09eb2df0029",
  "source": "pragma solidity ^0.4.24;\n\nimport \"../ModuleRegistry.sol\";\n\n/**\n * @title Registry contract for issuers to register their security tokens\n */\ncontract MockModuleRegistry is ModuleRegistry {\n\n    /// @notice It is dummy functionality\n    /// Alert! Alert! Do not use it for the mainnet release\n    function addMoreReputation(address _moduleFactory, address[] _tokens) public onlyOwner {\n        for (uint8 i = 0; i < _tokens.length; i++) {\n            pushArray(Encoder.getKey(\"reputation\", _moduleFactory), _tokens[i]);\n        }\n    }\n\n\n}\n",
  "sourcePath": "/Users/jere/Code/polymath-apps/packages/polymath-shared/scripts/generateLocalBlockchain/contracts/mocks/MockModuleRegistry.sol",
  "compiler": {
    "name": "solc",
    "version": "0.4.24+commit.e67f0147.Emscripten.clang"
  },
  "schemaVersion": "2.0.1",
  "updatedAt": "2018-11-05T19:10:15.643Z"
}