{
  "contractName": "MockPolyOracle",
  "abi": [
    {
      "constant": false,
      "inputs": [
        {
          "name": "_price",
          "type": "uint256"
        }
      ],
      "name": "setPOLYUSD",
      "outputs": [],
      "payable": false,
      "stateMutability": "nonpayable",
      "type": "function"
    },
    {
      "constant": false,
      "inputs": [
        {
          "name": "_requestId",
          "type": "bytes32"
        },
        {
          "name": "_result",
          "type": "string"
        }
      ],
      "name": "__callback",
      "outputs": [],
      "payable": false,
      "stateMutability": "nonpayable",
      "type": "function"
    },
    {
      "constant": true,
      "inputs": [],
      "name": "staleTime",
      "outputs": [
        {
          "name": "",
          "type": "uint256"
        }
      ],
      "payable": false,
      "stateMutability": "view",
      "type": "function"
    },
    {
      "constant": false,
      "inputs": [
        {
          "name": "myid",
          "type": "bytes32"
        },
        {
          "name": "result",
          "type": "string"
        },
        {
          "name": "proof",
          "type": "bytes"
        }
      ],
      "name": "__callback",
      "outputs": [],
      "payable": false,
      "stateMutability": "nonpayable",
      "type": "function"
    },
    {
      "constant": true,
      "inputs": [
        {
          "name": "",
          "type": "bytes32"
        }
      ],
      "name": "ignoreRequestIds",
      "outputs": [
        {
          "name": "",
          "type": "bool"
        }
      ],
      "payable": false,
      "stateMutability": "view",
      "type": "function"
    },
    {
      "constant": false,
      "inputs": [
        {
          "name": "_admin",
          "type": "address"
        },
        {
          "name": "_valid",
          "type": "bool"
        }
      ],
      "name": "setAdmin",
      "outputs": [],
      "payable": false,
      "stateMutability": "nonpayable",
      "type": "function"
    },
    {
      "constant": true,
      "inputs": [],
      "name": "oracleURL",
      "outputs": [
        {
          "name": "",
          "type": "string"
        }
      ],
      "payable": false,
      "stateMutability": "view",
      "type": "function"
    },
    {
      "constant": false,
      "inputs": [
        {
          "name": "_oracleQueryType",
          "type": "string"
        }
      ],
      "name": "setOracleQueryType",
      "outputs": [],
      "payable": false,
      "stateMutability": "nonpayable",
      "type": "function"
    },
    {
      "constant": false,
      "inputs": [
        {
          "name": "_oraclizeTimeTolerance",
          "type": "uint256"
        }
      ],
      "name": "setOraclizeTimeTolerance",
      "outputs": [],
      "payable": false,
      "stateMutability": "nonpayable",
      "type": "function"
    },
    {
      "constant": true,
      "inputs": [],
      "name": "oraclizeTimeTolerance",
      "outputs": [
        {
          "name": "",
          "type": "uint256"
        }
      ],
      "payable": false,
      "stateMutability": "view",
      "type": "function"
    },
    {
      "constant": true,
      "inputs": [],
      "name": "getCurrencySymbol",
      "outputs": [
        {
          "name": "",
          "type": "bytes32"
        }
      ],
      "payable": false,
      "stateMutability": "view",
      "type": "function"
    },
    {
      "constant": true,
      "inputs": [
        {
          "name": "",
          "type": "address"
        }
      ],
      "name": "admin",
      "outputs": [
        {
          "name": "",
          "type": "bool"
        }
      ],
      "payable": false,
      "stateMutability": "view",
      "type": "function"
    },
    {
      "constant": true,
      "inputs": [],
      "name": "oracleQueryType",
      "outputs": [
        {
          "name": "",
          "type": "string"
        }
      ],
      "payable": false,
      "stateMutability": "view",
      "type": "function"
    },
    {
      "constant": false,
      "inputs": [],
      "name": "renounceOwnership",
      "outputs": [],
      "payable": false,
      "stateMutability": "nonpayable",
      "type": "function"
    },
    {
      "constant": false,
      "inputs": [
        {
          "name": "_staleTime",
          "type": "uint256"
        }
      ],
      "name": "setStaleTime",
      "outputs": [],
      "payable": false,
      "stateMutability": "nonpayable",
      "type": "function"
    },
    {
      "constant": true,
      "inputs": [
        {
          "name": "",
          "type": "bytes32"
        }
      ],
      "name": "requestIds",
      "outputs": [
        {
          "name": "",
          "type": "uint256"
        }
      ],
      "payable": false,
      "stateMutability": "view",
      "type": "function"
    },
    {
      "constant": false,
      "inputs": [
        {
          "name": "_requestIds",
          "type": "bytes32[]"
        },
        {
          "name": "_ignore",
          "type": "bool[]"
        }
      ],
      "name": "setIgnoreRequestIds",
      "outputs": [],
      "payable": false,
      "stateMutability": "nonpayable",
      "type": "function"
    },
    {
      "constant": true,
      "inputs": [],
      "name": "owner",
      "outputs": [
        {
          "name": "",
          "type": "address"
        }
      ],
      "payable": false,
      "stateMutability": "view",
      "type": "function"
    },
    {
      "constant": false,
      "inputs": [
        {
          "name": "_oracleURL",
          "type": "string"
        }
      ],
      "name": "setOracleURL",
      "outputs": [],
      "payable": false,
      "stateMutability": "nonpayable",
      "type": "function"
    },
    {
      "constant": true,
      "inputs": [],
      "name": "getPrice",
      "outputs": [
        {
          "name": "",
          "type": "uint256"
        }
      ],
      "payable": false,
      "stateMutability": "view",
      "type": "function"
    },
    {
      "constant": false,
      "inputs": [
        {
          "name": "_times",
          "type": "uint256[]"
        }
      ],
      "name": "schedulePriceUpdatesFixed",
      "outputs": [],
      "payable": true,
      "stateMutability": "payable",
      "type": "function"
    },
    {
      "constant": true,
      "inputs": [],
      "name": "sanityBounds",
      "outputs": [
        {
          "name": "",
          "type": "uint256"
        }
      ],
      "payable": false,
      "stateMutability": "view",
      "type": "function"
    },
    {
      "constant": true,
      "inputs": [],
      "name": "freezeOracle",
      "outputs": [
        {
          "name": "",
          "type": "bool"
        }
      ],
      "payable": false,
      "stateMutability": "view",
      "type": "function"
    },
    {
      "constant": false,
      "inputs": [
        {
          "name": "_frozen",
          "type": "bool"
        }
      ],
      "name": "setFreezeOracle",
      "outputs": [],
      "payable": false,
      "stateMutability": "nonpayable",
      "type": "function"
    },
    {
      "constant": false,
      "inputs": [
        {
          "name": "_gasPrice",
          "type": "uint256"
        }
      ],
      "name": "setGasPrice",
      "outputs": [],
      "payable": false,
      "stateMutability": "nonpayable",
      "type": "function"
    },
    {
      "constant": true,
      "inputs": [],
      "name": "getCurrencyAddress",
      "outputs": [
        {
          "name": "",
          "type": "address"
        }
      ],
      "payable": false,
      "stateMutability": "view",
      "type": "function"
    },
    {
      "constant": false,
      "inputs": [
        {
          "name": "_startTime",
          "type": "uint256"
        },
        {
          "name": "_interval",
          "type": "uint256"
        },
        {
          "name": "_iters",
          "type": "uint256"
        }
      ],
      "name": "schedulePriceUpdatesRolling",
      "outputs": [],
      "payable": true,
      "stateMutability": "payable",
      "type": "function"
    },
    {
      "constant": true,
      "inputs": [],
      "name": "latestScheduledUpdate",
      "outputs": [
        {
          "name": "",
          "type": "uint256"
        }
      ],
      "payable": false,
      "stateMutability": "view",
      "type": "function"
    },
    {
      "constant": false,
      "inputs": [],
      "name": "drainContract",
      "outputs": [],
      "payable": false,
      "stateMutability": "nonpayable",
      "type": "function"
    },
    {
      "constant": true,
      "inputs": [],
      "name": "getCurrencyDenominated",
      "outputs": [
        {
          "name": "",
          "type": "bytes32"
        }
      ],
      "payable": false,
      "stateMutability": "view",
      "type": "function"
    },
    {
      "constant": true,
      "inputs": [],
      "name": "getPriceAndTime",
      "outputs": [
        {
          "name": "",
          "type": "uint256"
        },
        {
          "name": "",
          "type": "uint256"
        }
      ],
      "payable": false,
      "stateMutability": "view",
      "type": "function"
    },
    {
      "constant": true,
      "inputs": [],
      "name": "latestUpdate",
      "outputs": [
        {
          "name": "",
          "type": "uint256"
        }
      ],
      "payable": false,
      "stateMutability": "view",
      "type": "function"
    },
    {
      "constant": false,
      "inputs": [
        {
          "name": "_gasLimit",
          "type": "uint256"
        }
      ],
      "name": "setGasLimit",
      "outputs": [],
      "payable": false,
      "stateMutability": "nonpayable",
      "type": "function"
    },
    {
      "constant": false,
      "inputs": [
        {
          "name": "_newOwner",
          "type": "address"
        }
      ],
      "name": "transferOwnership",
      "outputs": [],
      "payable": false,
      "stateMutability": "nonpayable",
      "type": "function"
    },
    {
      "constant": true,
      "inputs": [],
      "name": "gasLimit",
      "outputs": [
        {
          "name": "",
          "type": "uint256"
        }
      ],
      "payable": false,
      "stateMutability": "view",
      "type": "function"
    },
    {
      "constant": false,
      "inputs": [
        {
          "name": "_sanityBounds",
          "type": "uint256"
        }
      ],
      "name": "setSanityBounds",
      "outputs": [],
      "payable": false,
      "stateMutability": "nonpayable",
      "type": "function"
    },
    {
      "inputs": [],
      "payable": true,
      "stateMutability": "payable",
      "type": "constructor"
    },
    {
      "anonymous": false,
      "inputs": [
        {
          "indexed": false,
          "name": "_price",
          "type": "uint256"
        },
        {
          "indexed": false,
          "name": "_oldPrice",
          "type": "uint256"
        },
        {
          "indexed": false,
          "name": "_queryId",
          "type": "bytes32"
        },
        {
          "indexed": false,
          "name": "_time",
          "type": "uint256"
        }
      ],
      "name": "PriceUpdated",
      "type": "event"
    },
    {
      "anonymous": false,
      "inputs": [
        {
          "indexed": false,
          "name": "_time",
          "type": "uint256"
        },
        {
          "indexed": false,
          "name": "_queryId",
          "type": "bytes32"
        },
        {
          "indexed": false,
          "name": "_query",
          "type": "string"
        }
      ],
      "name": "NewOraclizeQuery",
      "type": "event"
    },
    {
      "anonymous": false,
      "inputs": [
        {
          "indexed": false,
          "name": "_admin",
          "type": "address"
        },
        {
          "indexed": false,
          "name": "_valid",
          "type": "bool"
        },
        {
          "indexed": false,
          "name": "_time",
          "type": "uint256"
        }
      ],
      "name": "AdminSet",
      "type": "event"
    },
    {
      "anonymous": false,
      "inputs": [
        {
          "indexed": false,
          "name": "_queryId",
          "type": "bytes32"
        },
        {
          "indexed": false,
          "name": "_time",
          "type": "uint256"
        },
        {
          "indexed": false,
          "name": "_result",
          "type": "string"
        }
      ],
      "name": "StalePriceUpdate",
      "type": "event"
    },
    {
      "anonymous": false,
      "inputs": [
        {
          "indexed": true,
          "name": "previousOwner",
          "type": "address"
        }
      ],
      "name": "OwnershipRenounced",
      "type": "event"
    },
    {
      "anonymous": false,
      "inputs": [
        {
          "indexed": true,
          "name": "previousOwner",
          "type": "address"
        },
        {
          "indexed": true,
          "name": "newOwner",
          "type": "address"
        }
      ],
      "name": "OwnershipTransferred",
      "type": "event"
    }
  ],
  "bytecode": "0x6101e060405261013760808181529062003a8660a03980516200002b916006916020909101906200070e565b506040805180820190915260068082527f6e65737465640000000000000000000000000000000000000000000000000000602090920191825262000072916007916200070e565b506702c68af0bb140000600855620186a060095561012c600a55615460600b5560058054600160a060020a03191633179055620000bd640ba43b7400640100000000620000e9810204565b60008054600160a060020a031916736f485c8bf6fc43ea212e93bbf8ce046c7f1cb475179055620007b0565b600054600160a060020a031615806200011f57506000546200011d90600160a060020a031664010000000062000329810204565b155b156200013c576200013a60006401000000006200032d810204565b505b6000809054906101000a9004600160a060020a0316600160a060020a03166338cc48316040518163ffffffff167c0100000000000000000000000000000000000000000000000000000000028152600401602060405180830381600087803b158015620001a857600080fd5b505af1158015620001bd573d6000803e3d6000fd5b505050506040513d6020811015620001d457600080fd5b5051600154600160a060020a03908116911614620002a6576000809054906101000a9004600160a060020a0316600160a060020a03166338cc48316040518163ffffffff167c0100000000000000000000000000000000000000000000000000000000028152600401602060405180830381600087803b1580156200025857600080fd5b505af11580156200026d573d6000803e3d6000fd5b505050506040513d60208110156200028457600080fd5b505160018054600160a060020a031916600160a060020a039092169190911790555b600154604080517fca6ad1e4000000000000000000000000000000000000000000000000000000008152600481018490529051600160a060020a039092169163ca6ad1e49160248082019260009290919082900301818387803b1580156200030d57600080fd5b505af115801562000322573d6000803e3d6000fd5b5050505050565b3b90565b60006200034264010000000062000348810204565b92915050565b60008062000373731d3b2638a7cc9f2cb3d298a3da7a90b67e5506ed64010000000062000329810204565b1115620003f15760008054600160a060020a031916731d3b2638a7cc9f2cb3d298a3da7a90b67e5506ed17905560408051808201909152600b81527f6574685f6d61696e6e65740000000000000000000000000000000000000000006020820152620003e890640100000000620006f5810204565b506001620006f2565b60006200041b73c03a2615d5efaf5f49f60b7bb6583eaec212fdf164010000000062000329810204565b1115620004905760008054600160a060020a03191673c03a2615d5efaf5f49f60b7bb6583eaec212fdf117905560408051808201909152600c81527f6574685f726f707374656e3300000000000000000000000000000000000000006020820152620003e890640100000000620006f5810204565b6000620004ba73b7a07bcf2ba2f2703b24c0691b5278999c59ac7e64010000000062000329810204565b11156200052f5760008054600160a060020a03191673b7a07bcf2ba2f2703b24c0691b5278999c59ac7e17905560408051808201909152600981527f6574685f6b6f76616e00000000000000000000000000000000000000000000006020820152620003e890640100000000620006f5810204565b60006200055973146500cfd35b22e4a392fe0adc06de1a1368ed4864010000000062000329810204565b1115620005ce5760008054600160a060020a03191673146500cfd35b22e4a392fe0adc06de1a1368ed4817905560408051808201909152600b81527f6574685f72696e6b6562790000000000000000000000000000000000000000006020820152620003e890640100000000620006f5810204565b6000620005f8736f485c8bf6fc43ea212e93bbf8ce046c7f1cb47564010000000062000329810204565b11156200062e575060008054600160a060020a031916736f485c8bf6fc43ea212e93bbf8ce046c7f1cb4751790556001620006f2565b6000620006587320e12a1f859b3feae5fb2a0a32c18f5a65555bbf64010000000062000329810204565b11156200068e575060008054600160a060020a0319167320e12a1f859b3feae5fb2a0a32c18f5a65555bbf1790556001620006f2565b6000620006b87351efaf4c8b3c9afbd5ab9f4bbc82784ab6ef8faa64010000000062000329810204565b1115620006ee575060008054600160a060020a0319167351efaf4c8b3c9afbd5ab9f4bbc82784ab6ef8faa1790556001620006f2565b5060005b90565b80516200070a9060029060208401906200070e565b5050565b828054600181600116156101000203166002900490600052602060002090601f016020900481019282601f106200075157805160ff191683800117855562000781565b8280016001018555821562000781579182015b828111156200078157825182559160200191906001019062000764565b506200078f92915062000793565b5090565b620006f291905b808211156200078f57600081556001016200079a565b6132c680620007c06000396000f3006080604052600436106101a85763ffffffff60e060020a6000350416630f71590c81146101ad57806327dc297e146101c757806338b880521461022557806338bbfa501461024c5780633b30ef1c146102e85780634b0bddd2146103145780634b6ea6771461033a5780635525d87f146103c4578063554600fa1461041d5780635cf6208a146104355780635dfc09a41461044a57806363a846f81461045f57806370f4c18c14610480578063715018a6146104955780637d14c8df146104aa5780638645f7a8146104c25780638a62e9e9146104da5780638da5cb5b1461056857806396bc5ab71461059957806398d5fdca146105f25780639b4bb9f014610607578063a489a2c71461064f578063af91e0bf14610664578063b0cccbc314610679578063bf1fe42014610693578063bfe0c27e146106ab578063c21afe12146106c0578063c4342252146106d1578063d0360e59146106e6578063d2654219146106fb578063e139e56914610710578063e360a49e1461073e578063ee7d72b414610753578063f2fde38b1461076b578063f68016b71461078c578063fed82ef3146107a1575b600080fd5b3480156101b957600080fd5b506101c56004356107b9565b005b3480156101d357600080fd5b5060408051602060046024803582810135601f81018590048502860185019096528585526101c59583359536956044949193909101919081908401838280828437509497506108229650505050505050565b34801561023157600080fd5b5061023a610ca4565b60408051918252519081900360200190f35b34801561025857600080fd5b5060408051602060046024803582810135601f81018590048502860185019096528585526101c595833595369560449491939091019190819084018382808284375050604080516020601f89358b018035918201839004830284018301909452808352979a999881019791965091820194509250829150840183828082843750949750610caa9650505050505050565b3480156102f457600080fd5b50610300600435610caf565b604080519115158252519081900360200190f35b34801561032057600080fd5b506101c5600160a060020a03600435166024351515610cc4565b34801561034657600080fd5b5061034f610d44565b6040805160208082528351818301528351919283929083019185019080838360005b83811015610389578181015183820152602001610371565b50505050905090810190601f1680156103b65780820380516001836020036101000a031916815260200191505b509250505060405180910390f35b3480156103d057600080fd5b506040805160206004803580820135601f81018490048402850184019095528484526101c5943694929360249392840191908190840183828082843750949750610dd29650505050505050565b34801561042957600080fd5b506101c5600435610e00565b34801561044157600080fd5b5061023a610e1c565b34801561045657600080fd5b5061023a610e22565b34801561046b57600080fd5b50610300600160a060020a0360043516610e47565b34801561048c57600080fd5b5061034f610e5c565b3480156104a157600080fd5b506101c5610eb7565b3480156104b657600080fd5b506101c5600435610f18565b3480156104ce57600080fd5b5061023a600435610f34565b3480156104e657600080fd5b50604080516020600480358082013583810280860185019096528085526101c595369593946024949385019291829185019084908082843750506040805187358901803560208181028481018201909552818452989b9a998901989297509082019550935083925085019084908082843750949750610f469650505050505050565b34801561057457600080fd5b5061057d611021565b60408051600160a060020a039092168252519081900360200190f35b3480156105a557600080fd5b506040805160206004803580820135601f81018490048402850184019095528484526101c59436949293602493928401919081908401838280828437509497506110309650505050505050565b3480156105fe57600080fd5b5061023a61105a565b604080516020600480358082013583810280860185019096528085526101c5953695939460249493850192918291850190849080828437509497506110789650505050505050565b34801561065b57600080fd5b5061023a6117f3565b34801561067057600080fd5b506103006117f9565b34801561068557600080fd5b506101c56004351515611802565b34801561069f57600080fd5b506101c560043561182c565b3480156106b757600080fd5b5061057d61184f565b6101c5600435602435604435611867565b3480156106dd57600080fd5b5061023a611ca3565b3480156106f257600080fd5b506101c5611ca9565b34801561070757600080fd5b5061023a611ced565b34801561071c57600080fd5b50610725611d11565b6040805192835260208301919091528051918290030190f35b34801561074a57600080fd5b5061023a611d1b565b34801561075f57600080fd5b506101c5600435611d21565b34801561077757600080fd5b506101c5600160a060020a0360043516611da4565b34801561079857600080fd5b5061023a611dc4565b3480156107ad57600080fd5b506101c5600435611dca565b600554600160a060020a031633146107d057600080fd5b600c54604080518381526020810192909252600082820152426060830152517fe52718da4f73e5fde35b624cb3d709cfe788067792a6674b1d29fa27a9048e659181900360800190a1600c5542600d55565b60008061082d611de6565b600160a060020a031633146108b1576040805160e560020a62461bcd028152602060048201526024808201527f4f6e6c79204f7261636c697a652063616e206163636573732074686973206d6560448201527f74686f6400000000000000000000000000000000000000000000000000000000606482015290519081900360840190fd5b60125460ff161561090c576040805160e560020a62461bcd02815260206004820152601060248201527f4f7261636c652069732066726f7a656e00000000000000000000000000000000604482015290519081900360640190fd5b60008481526010602052604090205460ff1615610973576040805160e560020a62461bcd02815260206004820152601260248201527f49676e6f72696e67207265717565737449640000000000000000000000000000604482015290519081900360640190fd5b600d546000858152600f60205260409020541015610a4e576000848152600f60209081526040808320548151888152808401829052606092810183815288519382019390935287517f4820bed4e4d2b00f579575dc54a8494614ba28b3c4509d60d9da296fc700eb6e958a9593948a9490926080850192918601918190849084905b83811015610a0d5781810151838201526020016109f5565b50505050905090810190601f168015610a3a5780820380516001836020036101000a031916815260200191505b5094505050505060405180910390a1610c9e565b600d546000858152600f60205260409020541015610ab6576040805160e560020a62461bcd02815260206004820152600f60248201527f526573756c74206973207374616c650000000000000000000000000000000000604482015290519081900360640190fd5b600a546000858152600f6020526040902054429091011015610b22576040805160e560020a62461bcd02815260206004820152600f60248201527f526573756c74206973206561726c790000000000000000000000000000000000604482015290519081900360640190fd5b610b2d836012611fd7565b9150610b5e670de0b6b3a7640000610b52600854600c5461219190919063ffffffff16565b9063ffffffff6121c016565b600d5490915015610c3d57600c54610b7c908263ffffffff6121d516565b821115610bd3576040805160e560020a62461bcd02815260206004820152601360248201527f526573756c7420697320746f6f206c6172676500000000000000000000000000604482015290519081900360640190fd5b600c54610be6908263ffffffff6121e216565b821015610c3d576040805160e560020a62461bcd02815260206004820152601360248201527f526573756c7420697320746f6f20736d616c6c00000000000000000000000000604482015290519081900360640190fd5b6000848152600f602090815260409182902054600d819055600c54835186815292830152818301879052606082015290517fe52718da4f73e5fde35b624cb3d709cfe788067792a6674b1d29fa27a9048e659181900360800190a1600c8290555b50505050565b600b5481565b505050565b60106020526000908152604090205460ff1681565b600554600160a060020a03163314610cdb57600080fd5b600160a060020a038216600081815260116020908152604091829020805485151560ff1990911681179091558251938452908301524282820152517f5e0ea0652cc1c6777c3bd76289cf8a44cec97817eedea37fddc4d00603e9d1249181900360600190a15050565b6006805460408051602060026001851615610100026000190190941693909304601f81018490048402820184019092528181529291830182828015610dca5780601f10610d9f57610100808354040283529160200191610dca565b820191906000526020600020905b815481529060010190602001808311610dad57829003601f168201915b505050505081565b600554600160a060020a03163314610de957600080fd5b8051610dfc906007906020840190613202565b5050565b600554600160a060020a03163314610e1757600080fd5b600a55565b600a5481565b7f504f4c59000000000000000000000000000000000000000000000000000000005b90565b60116020526000908152604090205460ff1681565b6007805460408051602060026001851615610100026000190190941693909304601f81018490048402820184019092528181529291830182828015610dca5780601f10610d9f57610100808354040283529160200191610dca565b600554600160a060020a03163314610ece57600080fd5b600554604051600160a060020a03909116907ff8df31144d9c2f0f6b59d69b8b98abd5459d07f2742c4df920b25aae33c6482090600090a260058054600160a060020a0319169055565b600554600160a060020a03163314610f2f57600080fd5b600b55565b600f6020526000908152604090205481565b600554600090600160a060020a03163314610f6057600080fd5b8151835114610fb9576040805160e560020a62461bcd02815260206004820152601b60248201527f496e636f727265637420706172616d65746572206c656e677468730000000000604482015290519081900360640190fd5b5060005b8251811015610caa578181815181101515610fd457fe5b90602001906020020151601060008584815181101515610ff057fe5b6020908102919091018101518252810191909152604001600020805460ff1916911515919091179055600101610fbd565b600554600160a060020a031681565b600554600160a060020a0316331461104757600080fd5b8051610dfc906006906020840190613202565b6000600b544203600d541015151561107157600080fd5b50600c5490565b336000908152601160205260408120548190819060ff16806110a45750600554600160a060020a031633145b15156110fa576040805160e560020a62461bcd02815260206004820152601d60248201527f41646472657373206973206e6f742061646d696e206f72206f776e6572000000604482015290519081900360640190fd5b835115156113fa576007805460408051602060026001851615610100026000190190941693909304601f810184900484028201840190925281815230319361119e93919290918301828280156111915780601f1061116657610100808354040283529160200191611191565b820191906000526020600020905b81548152906001019060200180831161117457829003601f168201915b50505050506009546121f4565b11156111f4576040805160e560020a62461bcd02815260206004820152601260248201527f496e73756666696369656e742046756e64730000000000000000000000000000604482015290519081900360640190fd5b60078054604080516020601f6002600019610100600188161502019095169490940493840181900481028201810190925282815261131c93909290918301828280156112815780601f1061125657610100808354040283529160200191611281565b820191906000526020600020905b81548152906001019060200180831161126457829003601f168201915b505060068054604080516020601f600260001961010060018816150201909516949094049384018190048102820181019092528281529550919350915083018282801561130f5780601f106112e45761010080835404028352916020019161130f565b820191906000526020600020905b8154815290600101906020018083116112f257829003601f168201915b5050505050600954612461565b6000818152600f602090815260409182902042908190558251818152918201849052606092820183815260068054600261010060018316150260001901909116049484018590529497509095507ee3eb546a464d4cd17c94e178affa19e7c26b6881450afc71626dbe9fb5c63593869388939192906080830190849080156113e55780601f106113ba576101008083540402835291602001916113e5565b820191906000526020600020905b8154815290600101906020018083116113c857829003601f168201915b505094505050505060405180910390a16117e1565b83516007805460408051602060026001851615610100026000190190941693909304601f81018490048402820184019092528181523031949361146193919290918301828280156111915780601f1061116657610100808354040283529160200191611191565b0211156114b8576040805160e560020a62461bcd02815260206004820152601260248201527f496e73756666696369656e742046756e64730000000000000000000000000000604482015290519081900360640190fd5b5060005b83518110156117e1574284828151811015156114d457fe5b602090810290910101511015611580576040805160e560020a62461bcd02815260206004820152604e60248201527f50617374207363686564756c696e67206973206e6f7420616c6c6f776564206160448201527f6e64207363686564756c65642074696d652073686f756c64206265206162736f60648201527f6c7574652074696d657374616d70000000000000000000000000000000000000608482015290519081900360a40190fd5b6116bc848281518110151561159157fe5b60209081029091018101516007805460408051601f6002600019610100600187161502019094169390930492830186900486028101860190915281815292938301828280156116215780601f106115f657610100808354040283529160200191611621565b820191906000526020600020905b81548152906001019060200180831161160457829003601f168201915b505060068054604080516020601f60026000196101006001881615020190951694909404938401819004810282018101909252828152955091935091508301828280156116af5780601f10611684576101008083540402835291602001916116af565b820191906000526020600020905b81548152906001019060200180831161169257829003601f168201915b5050505050600954612862565b925083818151811015156116cc57fe5b60209081029091018101516000858152600f9092526040909120819055821015611702576000838152600f602052604090205491505b7ee3eb546a464d4cd17c94e178affa19e7c26b6881450afc71626dbe9fb5c635848281518110151561173057fe5b6020908102909101810151604080518281529283018790526060908301818152600680546002610100600183161502600019019091160492850183905292938893929091906080830190849080156117c95780601f1061179e576101008083540402835291602001916117c9565b820191906000526020600020905b8154815290600101906020018083116117ac57829003601f168201915b505094505050505060405180910390a16001016114bc565b81600e541015610c9e5750600e555050565b60085481565b60125460ff1681565b600554600160a060020a0316331461181957600080fd5b6012805460ff1916911515919091179055565b600554600160a060020a0316331461184357600080fd5b61184c81612c64565b50565b739992ec3cf6a55b00978cddf2b27bc6882d88d1ec90565b336000908152601160205260408120548190819060ff16806118935750600554600160a060020a031633145b15156118e9576040805160e560020a62461bcd02815260206004820152601d60248201527f41646472657373206973206e6f742061646d696e206f72206f776e6572000000604482015290519081900360640190fd5b60008511611967576040805160e560020a62461bcd02815260206004820152603b60248201527f496e74657276616c206265747765656e207363686564756c65642074696d652060448201527f73686f756c642062652067726561746572207468616e207a65726f0000000000606482015290519081900360840190fd5b600084116119bf576040805160e560020a62461bcd02815260206004820152601760248201527f4e6f20697465726174696f6e7320737065636966696564000000000000000000604482015290519081900360640190fd5b42861015611a63576040805160e560020a62461bcd02815260206004820152604e60248201527f50617374207363686564756c696e67206973206e6f7420616c6c6f776564206160448201527f6e64207363686564756c65642074696d652073686f756c64206265206162736f60648201527f6c7574652074696d657374616d70000000000000000000000000000000000000608482015290519081900360a40190fd5b60078054604080516020601f600260001961010060018816150201909516949094049384018190048102820181019092528281523031938893611ac6938301828280156111915780601f1061116657610100808354040283529160200191611191565b021115611b1d576040805160e560020a62461bcd02815260206004820152601260248201527f496e73756666696369656e742046756e64730000000000000000000000000000604482015290519081900360640190fd5b600091505b83821015611c70575060078054604080516020601f60026000196101006001881615020190951694909404938401819004810282018101909252828152848802890193611b919385938301828280156116215780601f106115f657610100808354040283529160200191611621565b6000818152600f60209081526040918290208490558151848152908101839052606091810182815260068054600261010060018316150260001901909116049383018490529396507ee3eb546a464d4cd17c94e178affa19e7c26b6881450afc71626dbe9fb5c6359385938893919290608083019084908015611c555780601f10611c2a57610100808354040283529160200191611c55565b820191906000526020600020905b815481529060010190602001808311611c3857829003601f168201915b505094505050505060405180910390a1600190910190611b22565b6000838152600f6020526040902054600e541015611c9b576000838152600f6020526040902054600e555b505050505050565b600e5481565b600554600160a060020a03163314611cc057600080fd5b6040513390303180156108fc02916000818181858888f1935050505015801561184c573d6000803e3d6000fd5b7f555344000000000000000000000000000000000000000000000000000000000090565b600c54600d549091565b600d5481565b3360009081526011602052604090205460ff1680611d495750600554600160a060020a031633145b1515611d9f576040805160e560020a62461bcd02815260206004820152601d60248201527f41646472657373206973206e6f742061646d696e206f72206f776e6572000000604482015290519081900360640190fd5b600955565b600554600160a060020a03163314611dbb57600080fd5b61184c81612e51565b60095481565b600554600160a060020a03163314611de157600080fd5b600855565b60008054600160a060020a03161580611e115750600054611e0f90600160a060020a0316612ec2565b155b15611e2257611e206000612ec6565b505b6000809054906101000a9004600160a060020a0316600160a060020a03166338cc48316040518163ffffffff1660e060020a028152600401602060405180830381600087803b158015611e7457600080fd5b505af1158015611e88573d6000803e3d6000fd5b505050506040513d6020811015611e9e57600080fd5b5051600154600160a060020a03908116911614611f53576000809054906101000a9004600160a060020a0316600160a060020a03166338cc48316040518163ffffffff1660e060020a028152600401602060405180830381600087803b158015611f0757600080fd5b505af1158015611f1b573d6000803e3d6000fd5b505050506040513d6020811015611f3157600080fd5b505160018054600160a060020a031916600160a060020a039092169190911790555b600160009054906101000a9004600160a060020a0316600160a060020a031663c281d19e6040518163ffffffff1660e060020a028152600401602060405180830381600087803b158015611fa657600080fd5b505af1158015611fba573d6000803e3d6000fd5b505050506040513d6020811015611fd057600080fd5b5051905090565b6000828180805b83518110156121745783517f30000000000000000000000000000000000000000000000000000000000000009085908390811061201757fe5b90602001015160f860020a900460f860020a027effffffffffffffffffffffffffffffffffffffffffffffffffffffffffffff1916101580156120bd575083517f39000000000000000000000000000000000000000000000000000000000000009085908390811061208557fe5b90602001015160f860020a900460f860020a027effffffffffffffffffffffffffffffffffffffffffffffffffffffffffffff191611155b156121165781156120dc578515156120d457612174565b600019909501945b600a83029250603084828151811015156120f257fe5b90602001015160f860020a900460f860020a0260f860020a9004038301925061216c565b838181518110151561212457fe5b90602001015160f860020a900460f860020a027effffffffffffffffffffffffffffffffffffffffffffffffffffffffffffff1916602e60f860020a02141561216c57600191505b600101611fde565b60008611156121865785600a0a830292505b509095945050505050565b60008215156121a2575060006121ba565b508181028183828115156121b257fe5b04146121ba57fe5b92915050565b600081838115156121cd57fe5b049392505050565b818101828110156121ba57fe5b6000828211156121ee57fe5b50900390565b60008054600160a060020a0316158061221f575060005461221d90600160a060020a0316612ec2565b155b156122305761222e6000612ec6565b505b6000809054906101000a9004600160a060020a0316600160a060020a03166338cc48316040518163ffffffff1660e060020a028152600401602060405180830381600087803b15801561228257600080fd5b505af1158015612296573d6000803e3d6000fd5b505050506040513d60208110156122ac57600080fd5b5051600154600160a060020a03908116911614612361576000809054906101000a9004600160a060020a0316600160a060020a03166338cc48316040518163ffffffff1660e060020a028152600401602060405180830381600087803b15801561231557600080fd5b505af1158015612329573d6000803e3d6000fd5b505050506040513d602081101561233f57600080fd5b505160018054600160a060020a031916600160a060020a039092169190911790555b600154604080517f2ef3accc0000000000000000000000000000000000000000000000000000000081526024810185905260048101918252855160448201528551600160a060020a0390931692632ef3accc9287928792829160640190602086019080838360005b838110156123e15781810151838201526020016123c9565b50505050905090810190601f16801561240e5780820380516001836020036101000a031916815260200191505b509350505050602060405180830381600087803b15801561242e57600080fd5b505af1158015612442573d6000803e3d6000fd5b505050506040513d602081101561245857600080fd5b50519392505050565b600080548190600160a060020a0316158061248e575060005461248c90600160a060020a0316612ec2565b155b1561249f5761249d6000612ec6565b505b6000809054906101000a9004600160a060020a0316600160a060020a03166338cc48316040518163ffffffff1660e060020a028152600401602060405180830381600087803b1580156124f157600080fd5b505af1158015612505573d6000803e3d6000fd5b505050506040513d602081101561251b57600080fd5b5051600154600160a060020a039081169116146125d0576000809054906101000a9004600160a060020a0316600160a060020a03166338cc48316040518163ffffffff1660e060020a028152600401602060405180830381600087803b15801561258457600080fd5b505af1158015612598573d6000803e3d6000fd5b505050506040513d60208110156125ae57600080fd5b505160018054600160a060020a031916600160a060020a039092169190911790555b600154604080517f2ef3accc0000000000000000000000000000000000000000000000000000000081526024810186905260048101918252875160448201528751600160a060020a0390931692632ef3accc9289928892829160640190602086019080838360005b83811015612650578181015183820152602001612638565b50505050905090810190601f16801561267d5780820380516001836020036101000a031916815260200191505b509350505050602060405180830381600087803b15801561269d57600080fd5b505af11580156126b1573d6000803e3d6000fd5b505050506040513d60208110156126c757600080fd5b50519050670de0b6b3a76400003a8402018111156126e8576000915061285a565b6001546040517fc51be90f00000000000000000000000000000000000000000000000000000000815260006004820181815260648301879052608060248401908152895160848501528951600160a060020a039095169463c51be90f948794938c938c938c93604481019160a49091019060208801908083838c5b8381101561277b578181015183820152602001612763565b50505050905090810190601f1680156127a85780820380516001836020036101000a031916815260200191505b50838103825285518152855160209182019187019080838360005b838110156127db5781810151838201526020016127c3565b50505050905090810190601f1680156128085780820380516001836020036101000a031916815260200191505b5096505050505050506020604051808303818588803b15801561282a57600080fd5b505af115801561283e573d6000803e3d6000fd5b50505050506040513d602081101561285557600080fd5b505191505b509392505050565b600080548190600160a060020a0316158061288f575060005461288d90600160a060020a0316612ec2565b155b156128a05761289e6000612ec6565b505b6000809054906101000a9004600160a060020a0316600160a060020a03166338cc48316040518163ffffffff1660e060020a028152600401602060405180830381600087803b1580156128f257600080fd5b505af1158015612906573d6000803e3d6000fd5b505050506040513d602081101561291c57600080fd5b5051600154600160a060020a039081169116146129d1576000809054906101000a9004600160a060020a0316600160a060020a03166338cc48316040518163ffffffff1660e060020a028152600401602060405180830381600087803b15801561298557600080fd5b505af1158015612999573d6000803e3d6000fd5b505050506040513d60208110156129af57600080fd5b505160018054600160a060020a031916600160a060020a039092169190911790555b600154604080517f2ef3accc0000000000000000000000000000000000000000000000000000000081526024810186905260048101918252875160448201528751600160a060020a0390931692632ef3accc9289928892829160640190602086019080838360005b83811015612a51578181015183820152602001612a39565b50505050905090810190601f168015612a7e5780820380516001836020036101000a031916815260200191505b509350505050602060405180830381600087803b158015612a9e57600080fd5b505af1158015612ab2573d6000803e3d6000fd5b505050506040513d6020811015612ac857600080fd5b50519050670de0b6b3a76400003a840201811115612ae95760009150612c5b565b6001546040517fc51be90f0000000000000000000000000000000000000000000000000000000081526004810188815260648201869052608060248301908152885160848401528851600160a060020a039094169363c51be90f9386938c938c938c938c939291604482019160a40190602088019080838360005b83811015612b7c578181015183820152602001612b64565b50505050905090810190601f168015612ba95780820380516001836020036101000a031916815260200191505b50838103825285518152855160209182019187019080838360005b83811015612bdc578181015183820152602001612bc4565b50505050905090810190601f168015612c095780820380516001836020036101000a031916815260200191505b5096505050505050506020604051808303818588803b158015612c2b57600080fd5b505af1158015612c3f573d6000803e3d6000fd5b50505050506040513d6020811015612c5657600080fd5b505191505b50949350505050565b600054600160a060020a03161580612c8e5750600054612c8c90600160a060020a0316612ec2565b155b15612c9f57612c9d6000612ec6565b505b6000809054906101000a9004600160a060020a0316600160a060020a03166338cc48316040518163ffffffff1660e060020a028152600401602060405180830381600087803b158015612cf157600080fd5b505af1158015612d05573d6000803e3d6000fd5b505050506040513d6020811015612d1b57600080fd5b5051600154600160a060020a03908116911614612dd0576000809054906101000a9004600160a060020a0316600160a060020a03166338cc48316040518163ffffffff1660e060020a028152600401602060405180830381600087803b158015612d8457600080fd5b505af1158015612d98573d6000803e3d6000fd5b505050506040513d6020811015612dae57600080fd5b505160018054600160a060020a031916600160a060020a039092169190911790555b600154604080517fca6ad1e4000000000000000000000000000000000000000000000000000000008152600481018490529051600160a060020a039092169163ca6ad1e49160248082019260009290919082900301818387803b158015612e3657600080fd5b505af1158015612e4a573d6000803e3d6000fd5b5050505050565b600160a060020a0381161515612e6657600080fd5b600554604051600160a060020a038084169216907f8be0079c531659141344cd1fd0a4f28419497f9722a3daafe3b4186f6b6457e090600090a360058054600160a060020a031916600160a060020a0392909216919091179055565b3b90565b60006121ba600080612eeb731d3b2638a7cc9f2cb3d298a3da7a90b67e5506ed612ec2565b1115612f5c5760008054600160a060020a031916731d3b2638a7cc9f2cb3d298a3da7a90b67e5506ed17905560408051808201909152600b81527f6574685f6d61696e6e65740000000000000000000000000000000000000000006020820152612f54906131f3565b506001610e44565b6000612f7b73c03a2615d5efaf5f49f60b7bb6583eaec212fdf1612ec2565b1115612fe45760008054600160a060020a03191673c03a2615d5efaf5f49f60b7bb6583eaec212fdf117905560408051808201909152600c81527f6574685f726f707374656e3300000000000000000000000000000000000000006020820152612f54906131f3565b600061300373b7a07bcf2ba2f2703b24c0691b5278999c59ac7e612ec2565b111561306c5760008054600160a060020a03191673b7a07bcf2ba2f2703b24c0691b5278999c59ac7e17905560408051808201909152600981527f6574685f6b6f76616e00000000000000000000000000000000000000000000006020820152612f54906131f3565b600061308b73146500cfd35b22e4a392fe0adc06de1a1368ed48612ec2565b11156130f45760008054600160a060020a03191673146500cfd35b22e4a392fe0adc06de1a1368ed4817905560408051808201909152600b81527f6574685f72696e6b6562790000000000000000000000000000000000000000006020820152612f54906131f3565b6000613113736f485c8bf6fc43ea212e93bbf8ce046c7f1cb475612ec2565b1115613147575060008054600160a060020a031916736f485c8bf6fc43ea212e93bbf8ce046c7f1cb4751790556001610e44565b60006131667320e12a1f859b3feae5fb2a0a32c18f5a65555bbf612ec2565b111561319a575060008054600160a060020a0319167320e12a1f859b3feae5fb2a0a32c18f5a65555bbf1790556001610e44565b60006131b97351efaf4c8b3c9afbd5ab9f4bbc82784ab6ef8faa612ec2565b11156131ed575060008054600160a060020a0319167351efaf4c8b3c9afbd5ab9f4bbc82784ab6ef8faa1790556001610e44565b50600090565b8051610dfc9060029060208401905b828054600181600116156101000203166002900490600052602060002090601f016020900481019282601f1061324357805160ff1916838001178555613270565b82800160010185558215613270579182015b82811115613270578251825591602001919060010190613255565b5061327c929150613280565b5090565b610e4491905b8082111561327c57600081556001016132865600a165627a7a72305820fe658625e71208773ea43836ec43d2d0a461da37d8c19854d0d06864ce7cc68300295b55524c5d206a736f6e2868747470733a2f2f70726f2d6170692e636f696e6d61726b65746361702e636f6d2f76312f63727970746f63757272656e63792f71756f7465732f6c61746573743f69643d3234393626636f6e766572743d55534426434d435f50524f5f4150495f4b45593d247b5b646563727970745d20424341304271786d6e336a6b53454e6570614878517630395a2f764764454f3961704f2b423952706c48795633714f4c2f647735496e646c656933686f5872476b394731344d79384d4670484a79634237556f566e6c2b346d6c7a45736a546c53325542415956726c3066416570666953794d33302f474d5a416f4a6d446167592b3059794e5a76706b67586e3836512f35394269343850574565747d292e646174612e2232343936222e71756f74652e5553442e7072696365",
  "source": "pragma solidity ^0.4.24;\n\nimport \"../oracles/PolyOracle.sol\";\n\ncontract MockPolyOracle is PolyOracle {\n\n    constructor() payable public {\n        OAR = OraclizeAddrResolverI(0x6f485C8BF6fc43eA212E93BBF8ce046C7f1cb475);\n    }\n\n}",
  "sourcePath": "/Users/jere/Code/polymath-apps/packages/polymath-shared/scripts/generateLocalBlockchain/contracts/mocks/MockPolyOracle.sol",
  "compiler": {
    "name": "solc",
    "version": "0.4.24+commit.e67f0147.Emscripten.clang"
  },
  "schemaVersion": "2.0.1",
  "updatedAt": "2018-10-10T20:29:24.796Z"
}