{
  "contractName": "MockTokenBurner",
  "abi": [
    {
      "constant": true,
      "inputs": [],
      "name": "securityToken",
      "outputs": [
        {
          "name": "",
          "type": "address"
        }
      ],
      "payable": false,
      "stateMutability": "view",
      "type": "function"
    },
    {
      "inputs": [
        {
          "name": "_securityToken",
          "type": "address"
        }
      ],
      "payable": false,
      "stateMutability": "nonpayable",
      "type": "constructor"
    },
    {
      "constant": true,
      "inputs": [
        {
          "name": "",
          "type": "address"
        },
        {
          "name": "",
          "type": "uint256"
        }
      ],
      "name": "burn",
      "outputs": [
        {
          "name": "",
          "type": "bool"
        }
      ],
      "payable": false,
      "stateMutability": "view",
      "type": "function"
    }
  ],
  "bytecode": "0x608060405234801561001057600080fd5b5060405160208061019b833981016040525160008054600160a060020a03909216600160a060020a0319909216919091179055610149806100526000396000f30060806040526004361061004b5763ffffffff7c01000000000000000000000000000000000000000000000000000000006000350416639dc29fac8114610050578063b84dfbd214610095575b600080fd5b34801561005c57600080fd5b5061008173ffffffffffffffffffffffffffffffffffffffff600435166024356100d3565b604080519115158252519081900360200190f35b3480156100a157600080fd5b506100aa610101565b6040805173ffffffffffffffffffffffffffffffffffffffff9092168252519081900360200190f35b6000805473ffffffffffffffffffffffffffffffffffffffff1633146100f857600080fd5b50600192915050565b60005473ffffffffffffffffffffffffffffffffffffffff16815600a165627a7a72305820bbc0de00537d5ff5e2ac91f52a04c8d71cfa2440b56da00983bb7366611bae5d0029",
  "source": "pragma solidity ^0.4.24;\n\nimport \"../interfaces/ISecurityToken.sol\";\nimport \"../interfaces/ITokenBurner.sol\";\nimport \"openzeppelin-solidity/contracts/token/ERC20/ERC20.sol\";\n\ncontract MockTokenBurner is ITokenBurner {\n\n    address public securityToken;\n\n    constructor (address _securityToken) public {\n        securityToken = _securityToken;\n    }\n\n    function burn(address /* _burner */, uint256 /* _value */) public view returns(bool) {\n        require(msg.sender == securityToken);\n        // Add the schematics for the burner( token holder) that backing the burning of the securities\n        return true;\n    }\n\n}\n",
  "sourcePath": "/Users/rafaelvidaurre/Code/polymath/polymath-apps/node_modules/polymath-core/contracts/mocks/MockTokenBurner.sol",
  "compiler": {
    "name": "solc",
    "version": "0.4.24+commit.e67f0147.Emscripten.clang"
  },
  "schemaVersion": "2.0.1",
  "updatedAt": "2018-09-24T19:05:59.912Z"
}