{
  "contractName": "ModuleRegistry",
  "abi": [
    {
      "constant": true,
      "inputs": [
        {
          "name": "_variable",
          "type": "bytes32"
        }
      ],
      "name": "getBoolValues",
      "outputs": [
        {
          "name": "",
          "type": "bool"
        }
      ],
      "payable": false,
      "stateMutability": "view",
      "type": "function"
    },
    {
      "constant": true,
      "inputs": [
        {
          "name": "_variable",
          "type": "bytes32"
        }
      ],
      "name": "getUintValues",
      "outputs": [
        {
          "name": "",
          "type": "uint256"
        }
      ],
      "payable": false,
      "stateMutability": "view",
      "type": "function"
    },
    {
      "constant": true,
      "inputs": [
        {
          "name": "_variable",
          "type": "bytes32"
        }
      ],
      "name": "getStringValues",
      "outputs": [
        {
          "name": "",
          "type": "string"
        }
      ],
      "payable": false,
      "stateMutability": "view",
      "type": "function"
    },
    {
      "constant": true,
      "inputs": [
        {
          "name": "_variable",
          "type": "bytes32"
        }
      ],
      "name": "getBytes32Values",
      "outputs": [
        {
          "name": "",
          "type": "bytes32"
        }
      ],
      "payable": false,
      "stateMutability": "view",
      "type": "function"
    },
    {
      "constant": true,
      "inputs": [
        {
          "name": "_variable",
          "type": "bytes32"
        }
      ],
      "name": "getAddressValues",
      "outputs": [
        {
          "name": "",
          "type": "address"
        }
      ],
      "payable": false,
      "stateMutability": "view",
      "type": "function"
    },
    {
      "constant": true,
      "inputs": [
        {
          "name": "_variable",
          "type": "bytes32"
        }
      ],
      "name": "getBytesValues",
      "outputs": [
        {
          "name": "",
          "type": "bytes"
        }
      ],
      "payable": false,
      "stateMutability": "view",
      "type": "function"
    },
    {
      "inputs": [],
      "payable": false,
      "stateMutability": "nonpayable",
      "type": "constructor"
    },
    {
      "anonymous": false,
      "inputs": [
        {
          "indexed": false,
          "name": "_timestammp",
          "type": "uint256"
        }
      ],
      "name": "Pause",
      "type": "event"
    },
    {
      "anonymous": false,
      "inputs": [
        {
          "indexed": false,
          "name": "_timestamp",
          "type": "uint256"
        }
      ],
      "name": "Unpause",
      "type": "event"
    },
    {
      "anonymous": false,
      "inputs": [
        {
          "indexed": true,
          "name": "_moduleFactory",
          "type": "address"
        },
        {
          "indexed": true,
          "name": "_securityToken",
          "type": "address"
        }
      ],
      "name": "ModuleUsed",
      "type": "event"
    },
    {
      "anonymous": false,
      "inputs": [
        {
          "indexed": true,
          "name": "_moduleFactory",
          "type": "address"
        },
        {
          "indexed": true,
          "name": "_owner",
          "type": "address"
        }
      ],
      "name": "ModuleRegistered",
      "type": "event"
    },
    {
      "anonymous": false,
      "inputs": [
        {
          "indexed": true,
          "name": "_moduleFactory",
          "type": "address"
        },
        {
          "indexed": false,
          "name": "_verified",
          "type": "bool"
        }
      ],
      "name": "ModuleVerified",
      "type": "event"
    },
    {
      "anonymous": false,
      "inputs": [
        {
          "indexed": true,
          "name": "_moduleFactory",
          "type": "address"
        },
        {
          "indexed": true,
          "name": "_decisionMaker",
          "type": "address"
        }
      ],
      "name": "ModuleRemoved",
      "type": "event"
    },
    {
      "constant": false,
      "inputs": [
        {
          "name": "_polymathRegistry",
          "type": "address"
        },
        {
          "name": "_owner",
          "type": "address"
        }
      ],
      "name": "initialize",
      "outputs": [],
      "payable": true,
      "stateMutability": "payable",
      "type": "function"
    },
    {
      "constant": false,
      "inputs": [
        {
          "name": "_moduleFactory",
          "type": "address"
        }
      ],
      "name": "useModule",
      "outputs": [],
      "payable": false,
      "stateMutability": "nonpayable",
      "type": "function"
    },
    {
      "constant": false,
      "inputs": [
        {
          "name": "_moduleFactory",
          "type": "address"
        }
      ],
      "name": "registerModule",
      "outputs": [],
      "payable": false,
      "stateMutability": "nonpayable",
      "type": "function"
    },
    {
      "constant": false,
      "inputs": [
        {
          "name": "_moduleFactory",
          "type": "address"
        }
      ],
      "name": "removeModule",
      "outputs": [],
      "payable": false,
      "stateMutability": "nonpayable",
      "type": "function"
    },
    {
      "constant": false,
      "inputs": [
        {
          "name": "_moduleFactory",
          "type": "address"
        },
        {
          "name": "_verified",
          "type": "bool"
        }
      ],
      "name": "verifyModule",
      "outputs": [],
      "payable": false,
      "stateMutability": "nonpayable",
      "type": "function"
    },
    {
      "constant": true,
      "inputs": [
        {
          "name": "_moduleType",
          "type": "uint8"
        },
        {
          "name": "_securityToken",
          "type": "address"
        }
      ],
      "name": "getTagsByTypeAndToken",
      "outputs": [
        {
          "name": "",
          "type": "bytes32[]"
        },
        {
          "name": "",
          "type": "address[]"
        }
      ],
      "payable": false,
      "stateMutability": "view",
      "type": "function"
    },
    {
      "constant": true,
      "inputs": [
        {
          "name": "_moduleType",
          "type": "uint8"
        }
      ],
      "name": "getTagsByType",
      "outputs": [
        {
          "name": "",
          "type": "bytes32[]"
        },
        {
          "name": "",
          "type": "address[]"
        }
      ],
      "payable": false,
      "stateMutability": "view",
      "type": "function"
    },
    {
      "constant": true,
      "inputs": [
        {
          "name": "_factoryAddress",
          "type": "address"
        }
      ],
      "name": "getReputationByFactory",
      "outputs": [
        {
          "name": "",
          "type": "address[]"
        }
      ],
      "payable": false,
      "stateMutability": "view",
      "type": "function"
    },
    {
      "constant": true,
      "inputs": [
        {
          "name": "_moduleType",
          "type": "uint8"
        }
      ],
      "name": "getModulesByType",
      "outputs": [
        {
          "name": "",
          "type": "address[]"
        }
      ],
      "payable": false,
      "stateMutability": "view",
      "type": "function"
    },
    {
      "constant": true,
      "inputs": [
        {
          "name": "_moduleType",
          "type": "uint8"
        },
        {
          "name": "_securityToken",
          "type": "address"
        }
      ],
      "name": "getModulesByTypeAndToken",
      "outputs": [
        {
          "name": "",
          "type": "address[]"
        }
      ],
      "payable": false,
      "stateMutability": "view",
      "type": "function"
    },
    {
      "constant": false,
      "inputs": [
        {
          "name": "_tokenContract",
          "type": "address"
        }
      ],
      "name": "reclaimERC20",
      "outputs": [],
      "payable": false,
      "stateMutability": "nonpayable",
      "type": "function"
    },
    {
      "constant": false,
      "inputs": [],
      "name": "pause",
      "outputs": [],
      "payable": false,
      "stateMutability": "nonpayable",
      "type": "function"
    },
    {
      "constant": false,
      "inputs": [],
      "name": "unpause",
      "outputs": [],
      "payable": false,
      "stateMutability": "nonpayable",
      "type": "function"
    },
    {
      "constant": false,
      "inputs": [],
      "name": "updateFromRegistry",
      "outputs": [],
      "payable": false,
      "stateMutability": "nonpayable",
      "type": "function"
    },
    {
      "constant": true,
      "inputs": [],
      "name": "owner",
      "outputs": [
        {
          "name": "",
          "type": "address"
        }
      ],
      "payable": false,
      "stateMutability": "view",
      "type": "function"
    },
    {
      "constant": true,
      "inputs": [],
      "name": "isPaused",
      "outputs": [
        {
          "name": "",
          "type": "bool"
        }
      ],
      "payable": false,
      "stateMutability": "view",
      "type": "function"
    }
  ],
  "bytecode": "0x608060405234801561001057600080fd5b50614579806100206000396000f30060806040526004361061010e5763ffffffff60e060020a6000350416630818a6f081146101135780631a83bff0146101845780631d8acf1b1461024457806326839e53146102705780633f4ba83a1461029a578063485cc955146102b15780634ac24a9a146102cb57806369ba0fe9146102e65780638456cb59146103735780638905fd4f146103885780638da5cb5b146103a9578063a0632461146103da578063ac90b422146103fb578063ad64ae4b14610416578063b187bd2614610437578063b3447ac91461044c578063baed8bb114610464578063c6cb7ab81461047c578063dc65990714610494578063ea393b75146104b5578063eac5ab43146104dc578063f433262f14610502575b600080fd5b34801561011f57600080fd5b50610134600160a060020a0360043516610517565b60408051602080825283518183015283519192839290830191858101910280838360005b83811015610170578181015183820152602001610158565b505050509050019250505060405180910390f35b34801561019057600080fd5b506101ab60ff60043516600160a060020a0360243516610554565b604051808060200180602001838103835285818151815260200191508051906020019060200280838360005b838110156101ef5781810151838201526020016101d7565b50505050905001838103825284818151815260200191508051906020019060200280838360005b8381101561022e578181015183820152602001610216565b5050505090500194505050505060405180910390f35b34801561025057600080fd5b5061025c60043561057a565b604080519115158252519081900360200190f35b34801561027c57600080fd5b5061028860043561058f565b60408051918252519081900360200190f35b3480156102a657600080fd5b506102af6105a1565b005b6102af600160a060020a03600435811690602435166106d1565b3480156102d757600080fd5b506101ab60ff600435166108a7565b3480156102f257600080fd5b506102fe6004356108ca565b6040805160208082528351818301528351919283929083019185019080838360005b83811015610338578181015183820152602001610320565b50505050905090810190601f1680156103655780820380516001836020036101000a031916815260200191505b509250505060405180910390f35b34801561037f57600080fd5b506102af61096d565b34801561039457600080fd5b506102af600160a060020a0360043516610a95565b3480156103b557600080fd5b506103be610cd0565b60408051600160a060020a039092168252519081900360200190f35b3480156103e657600080fd5b506102af600160a060020a0360043516610d09565b34801561040757600080fd5b5061013460ff600435166115cd565b34801561042257600080fd5b506102af600160a060020a0360043516611602565b34801561044357600080fd5b5061025c61254f565b34801561045857600080fd5b50610288600435612592565b34801561047057600080fd5b506103be6004356125a4565b34801561048857600080fd5b506102fe6004356125bf565b3480156104a057600080fd5b506102af600160a060020a0360043516612629565b3480156104c157600080fd5b5061013460ff60043516600160a060020a0360243516612bc1565b3480156104e857600080fd5b506102af600160a060020a03600435166024351515613192565b34801561050e57600080fd5b506102af613310565b606061054e6105496040805190810160405280600a815260200160008051602061442e83398151915281525084613633565b613727565b92915050565b60608060606105638585612bc1565b905061056e81613792565b92509250509250929050565b60009081526004602052604090205460ff1690565b60009081526020819052604090205490565b6105a961254f565b15156105ff576040805160e560020a62461bcd02815260206004820152601460248201527f53686f756c64206e6f7420626520706175736564000000000000000000000000604482015290519081900360640190fd5b610607610cd0565b600160a060020a03163314610654576040805160e560020a62461bcd028152602060048201526014602482015260008051602061444e833981519152604482015290519081900360640190fd5b61069c6106956040805190810160405280600681526020017f7061757365640000000000000000000000000000000000000000000000000000815250613a88565b6000613b52565b6040805142815290517faaa520fdd7d2c83061d632fa017b0432407e798818af63ea908589fceda39ab79181900360200190a1565b6107176107126040805190810160405280600b81526020017f696e697469616c69736564000000000000000000000000000000000000000000815250613a88565b61057a565b1561076c576040805160e560020a62461bcd02815260206004820152601360248201527f616c726561647920696e697469616c697a656400000000000000000000000000604482015290519081900360640190fd5b600160a060020a0381161580159061078c5750600160a060020a03821615155b15156107e2576040805160e560020a62461bcd02815260206004820152601560248201527f3078206164647265737320697320696e76616c69640000000000000000000000604482015290519081900360640190fd5b6108296108236040805190810160405280601081526020017f706f6c796d617468526567697374727900000000000000000000000000000000815250613a88565b83613b72565b61085b61085560408051908101604052806005815260200160d960020a6437bbb732b902815250613a88565b82613b72565b6108a361089c6040805190810160405280600b81526020017f696e697469616c69736564000000000000000000000000000000000000000000815250613a88565b6001613b52565b5050565b60608060606108b5846115cd565b90506108c081613792565b9250925050915091565b60008181526001602081815260409283902080548451600260001995831615610100029590950190911693909304601f810183900483028401830190945283835260609390918301828280156109615780601f1061093657610100808354040283529160200191610961565b820191906000526020600020905b81548152906001019060200180831161094457829003601f168201915b50505050509050919050565b61097561254f565b156109ca576040805160e560020a62461bcd02815260206004820152600e60248201527f416c726561647920706175736564000000000000000000000000000000000000604482015290519081900360640190fd5b6109d2610cd0565b600160a060020a03163314610a1f576040805160e560020a62461bcd028152602060048201526014602482015260008051602061444e833981519152604482015290519081900360640190fd5b610a6061089c6040805190810160405280600681526020017f7061757365640000000000000000000000000000000000000000000000000000815250613a88565b6040805142815290517f68b095021b1f40fe513109f513c66692f0b3219aee674a69f4efc57badb8201d9181900360200190a1565b600080610aa0610cd0565b600160a060020a03163314610aed576040805160e560020a62461bcd028152602060048201526014602482015260008051602061444e833981519152604482015290519081900360640190fd5b600160a060020a0383161515610b4d576040805160e560020a62461bcd02815260206004820152601560248201527f3078206164647265737320697320696e76616c69640000000000000000000000604482015290519081900360640190fd5b604080517f70a082310000000000000000000000000000000000000000000000000000000081523060048201529051849350600160a060020a038416916370a082319160248083019260209291908290030181600087803b158015610bb157600080fd5b505af1158015610bc5573d6000803e3d6000fd5b505050506040513d6020811015610bdb57600080fd5b50519050600160a060020a03821663a9059cbb610bf6610cd0565b836040518363ffffffff1660e060020a0281526004018083600160a060020a0316600160a060020a0316815260200182815260200192505050602060405180830381600087803b158015610c4957600080fd5b505af1158015610c5d573d6000803e3d6000fd5b505050506040513d6020811015610c7357600080fd5b50511515610ccb576040805160e560020a62461bcd02815260206004820152601560248201527f746f6b656e207472616e73666572206661696c65640000000000000000000000604482015290519081900360640190fd5b505050565b6000610d03610cfe60408051908101604052806005815260200160d960020a6437bbb732b902815250613a88565b6125a4565b90505b90565b600080600080610d17610cd0565b600160a060020a031633600160a060020a0316141561116857610d65610d6060408051908101604052806008815260200160008051602061446e83398151915281525087613633565b61058f565b9350831515610de4576040805160e560020a62461bcd02815260206004820152602360248201527f4d6f64756c6520666163746f72792073686f756c64206265207265676973746560448201527f7265640000000000000000000000000000000000000000000000000000000000606482015290519081900360840190fd5b84600160a060020a0316638da5cb5b6040518163ffffffff1660e060020a028152600401602060405180830381600087803b158015610e2257600080fd5b505af1158015610e36573d6000803e3d6000fd5b505050506040513d6020811015610e4c57600080fd5b5051600160a060020a0316331480610ea05750610e8b610cfe60408051908101604052806005815260200160d960020a6437bbb732b902815250613a88565b600160a060020a031633600160a060020a0316145b1515610ef8576040805160e560020a62461bcd02815260206004820152603f60248201526000805160206144ce833981519152604482015260008051602061450e833981519152606482015290519081900360840190fd5b610f28610d606040805190810160405280600f815260200160008051602061452e83398151915281525087613633565b92506001610f5c6105496040805190810160405280600a81526020016000805160206144ee83398151915281525087613bad565b51039150610f906105496040805190810160405280600a81526020016000805160206144ee83398151915281525086613bad565b805183908110610f9c57fe5b60209081029091010151905082821461101c57610fe6610fdf6040805190810160405280600a81526020016000805160206144ee83398151915281525086613bad565b8483613c44565b61101c6110166040805190810160405280600f815260200160008051602061452e83398151915281525083613633565b84613c94565b61105261104c6040805190810160405280600a81526020016000805160206144ee83398151915281525086613bad565b83613ca6565b61108961108260408051908101604052806008815260200160008051602061446e83398151915281525087613633565b6000613c94565b6110cd6110b96040805190810160405280600a815260200160008051602061442e83398151915281525087613633565b604080516000815260208101909152613db6565b6110fd61069560408051908101604052806008815260200160008051602061448e83398151915281525087613633565b61112d6110826040805190810160405280600f815260200160008051602061452e83398151915281525087613633565b6040513390600160a060020a038716907fd66772358582078947c11fa70e2860b3ffa915277e6181a4aa293072cb57ed3c90600090a36115c6565b61117061254f565b156111c5576040805160e560020a62461bcd02815260206004820152600e60248201527f416c726561647920706175736564000000000000000000000000000000000000604482015290519081900360640190fd5b6111f5610d6060408051908101604052806008815260200160008051602061446e83398151915281525087613633565b9350831515611274576040805160e560020a62461bcd02815260206004820152602360248201527f4d6f64756c6520666163746f72792073686f756c64206265207265676973746560448201527f7265640000000000000000000000000000000000000000000000000000000000606482015290519081900360840190fd5b84600160a060020a0316638da5cb5b6040518163ffffffff1660e060020a028152600401602060405180830381600087803b1580156112b257600080fd5b505af11580156112c6573d6000803e3d6000fd5b505050506040513d60208110156112dc57600080fd5b5051600160a060020a0316331480611330575061131b610cfe60408051908101604052806005815260200160d960020a6437bbb732b902815250613a88565b600160a060020a031633600160a060020a0316145b1515611388576040805160e560020a62461bcd02815260206004820152603f60248201526000805160206144ce833981519152604482015260008051602061450e833981519152606482015290519081900360840190fd5b6113b8610d606040805190810160405280600f815260200160008051602061452e83398151915281525087613633565b925060016113ec6105496040805190810160405280600a81526020016000805160206144ee83398151915281525087613bad565b510391506114206105496040805190810160405280600a81526020016000805160206144ee83398151915281525086613bad565b80518390811061142c57fe5b60209081029091010151905082821461149f5761146f610fdf6040805190810160405280600a81526020016000805160206144ee83398151915281525086613bad565b61149f6110166040805190810160405280600f815260200160008051602061452e83398151915281525083613633565b6114cf61104c6040805190810160405280600a81526020016000805160206144ee83398151915281525086613bad565b6114ff61108260408051908101604052806008815260200160008051602061446e83398151915281525087613633565b61152f6110b96040805190810160405280600a815260200160008051602061442e83398151915281525087613633565b61155f61069560408051908101604052806008815260200160008051602061448e83398151915281525087613633565b61158f6110826040805190810160405280600f815260200160008051602061452e83398151915281525087613633565b6040513390600160a060020a038716907fd66772358582078947c11fa70e2860b3ffa915277e6181a4aa293072cb57ed3c90600090a35b5050505050565b606061054e6105496040805190810160405280600a81526020016000805160206144ee8339815191528152508460ff16613bad565b600080600060606000611613610cd0565b600160a060020a031633600160a060020a03161415611db15761165b610cfe6040805190810160405280600f815260200160008051602061440e833981519152815250613a88565b600160a060020a0316632f0019f26040518163ffffffff1660e060020a0281526004018080602001828103825260148152602001806000805160206144ae833981519152815250602001915050602060405180830381600087803b1580156116c257600080fd5b505af11580156116d6573d6000803e3d6000fd5b505050506040513d60208110156116ec57600080fd5b50511561180c5785600160a060020a0316638da5cb5b6040518163ffffffff1660e060020a028152600401602060405180830381600087803b15801561173157600080fd5b505af1158015611745573d6000803e3d6000fd5b505050506040513d602081101561175b57600080fd5b5051600160a060020a03163314806117af575061179a610cfe60408051908101604052806005815260200160d960020a6437bbb732b902815250613a88565b600160a060020a031633600160a060020a0316145b1515611807576040805160e560020a62461bcd02815260206004820152603f60248201526000805160206144ce833981519152604482015260008051602061450e833981519152606482015290519081900360840190fd5b6118bd565b611838610cfe60408051908101604052806005815260200160d960020a6437bbb732b902815250613a88565b600160a060020a031633146118bd576040805160e560020a62461bcd02815260206004820152602660248201527f4f6e6c79206f776e657220616c6c6f77656420746f207265676973746572206d60448201527f6f64756c65730000000000000000000000000000000000000000000000000000606482015290519081900360840190fd5b6118ed610d6060408051908101604052806008815260200160008051602061446e83398151915281525088613633565b15611968576040805160e560020a62461bcd02815260206004820152602b60248201527f4d6f64756c6520666163746f72792073686f756c64206e6f742062652070726560448201527f2d72656769737465726564000000000000000000000000000000000000000000606482015290519081900360840190fd5b85945084600160a060020a031663b4579d606040518163ffffffff1660e060020a028152600401600060405180830381600087803b1580156119a957600080fd5b505af11580156119bd573d6000803e3d6000fd5b505050506040513d6000823e601f3d908101601f1916820160405260208110156119e657600080fd5b8101908080516401000000008111156119fe57600080fd5b82016020810184811115611a1157600080fd5b8151856020820283011164010000000082111715611a2e57600080fd5b5060019850909550505050505b8151841015611af357600092505b83831015611ae8578183815181101515611a5f57fe5b9060200190602002015160ff168285815181101515611a7a57fe5b6020908102909101015160ff161415611add576040805160e560020a62461bcd02815260206004820152600d60248201527f54797065206d69736d6174636800000000000000000000000000000000000000604482015290519081900360640190fd5b600190920191611a49565b600190930192611a3b565b81511515611b4b576040805160e560020a62461bcd02815260206004820152601660248201527f466163746f7279206d7573742068617665207479706500000000000000000000604482015290519081900360640190fd5b84600160a060020a031663b4579d606040518163ffffffff1660e060020a028152600401600060405180830381600087803b158015611b8957600080fd5b505af1158015611b9d573d6000803e3d6000fd5b505050506040513d6000823e601f3d908101601f191682016040526020811015611bc657600080fd5b810190808051640100000000811115611bde57600080fd5b82016020810184811115611bf157600080fd5b8151856020820283011164010000000082111715611c0e57600080fd5b505080519093506000925082109050611c2357fe5b906020019060200201519050611c68611c5f60408051908101604052806008815260200160008051602061446e83398151915281525088613633565b8260ff16613c94565b611cd1611c986040805190810160405280600f815260200160008051602061452e83398151915281525088613633565b611ccb6105496040805190810160405280600a81526020016000805160206144ee8339815191528152508560ff16613bad565b51613c94565b611d0a611d046040805190810160405280600a81526020016000805160206144ee8339815191528152508360ff16613bad565b87613dd5565b85600160a060020a0316638da5cb5b6040518163ffffffff1660e060020a028152600401602060405180830381600087803b158015611d4857600080fd5b505af1158015611d5c573d6000803e3d6000fd5b505050506040513d6020811015611d7257600080fd5b5051604051600160a060020a03918216918816907f49220d7268f6ac850e2f0d39ce956e56f086a18cfda1383c05f9c859fdef901290600090a3612547565b611db961254f565b15611e0e576040805160e560020a62461bcd02815260206004820152600e60248201527f416c726561647920706175736564000000000000000000000000000000000000604482015290519081900360640190fd5b611e3d610cfe6040805190810160405280600f815260200160008051602061440e833981519152815250613a88565b600160a060020a0316632f0019f26040518163ffffffff1660e060020a0281526004018080602001828103825260148152602001806000805160206144ae833981519152815250602001915050602060405180830381600087803b158015611ea457600080fd5b505af1158015611eb8573d6000803e3d6000fd5b505050506040513d6020811015611ece57600080fd5b505115611fee5785600160a060020a0316638da5cb5b6040518163ffffffff1660e060020a028152600401602060405180830381600087803b158015611f1357600080fd5b505af1158015611f27573d6000803e3d6000fd5b505050506040513d6020811015611f3d57600080fd5b5051600160a060020a0316331480611f915750611f7c610cfe60408051908101604052806005815260200160d960020a6437bbb732b902815250613a88565b600160a060020a031633600160a060020a0316145b1515611fe9576040805160e560020a62461bcd02815260206004820152603f60248201526000805160206144ce833981519152604482015260008051602061450e833981519152606482015290519081900360840190fd5b61209f565b61201a610cfe60408051908101604052806005815260200160d960020a6437bbb732b902815250613a88565b600160a060020a0316331461209f576040805160e560020a62461bcd02815260206004820152602660248201527f4f6e6c79206f776e657220616c6c6f77656420746f207265676973746572206d60448201527f6f64756c65730000000000000000000000000000000000000000000000000000606482015290519081900360840190fd5b6120cf610d6060408051908101604052806008815260200160008051602061446e83398151915281525088613633565b1561214a576040805160e560020a62461bcd02815260206004820152602b60248201527f4d6f64756c6520666163746f72792073686f756c64206e6f742062652070726560448201527f2d72656769737465726564000000000000000000000000000000000000000000606482015290519081900360840190fd5b85945084600160a060020a031663b4579d606040518163ffffffff1660e060020a028152600401600060405180830381600087803b15801561218b57600080fd5b505af115801561219f573d6000803e3d6000fd5b505050506040513d6000823e601f3d908101601f1916820160405260208110156121c857600080fd5b8101908080516401000000008111156121e057600080fd5b820160208101848111156121f357600080fd5b815185602082028301116401000000008211171561221057600080fd5b5060019850909550505050505b81518410156122d557600092505b838310156122ca57818381518110151561224157fe5b9060200190602002015160ff16828581518110151561225c57fe5b6020908102909101015160ff1614156122bf576040805160e560020a62461bcd02815260206004820152600d60248201527f54797065206d69736d6174636800000000000000000000000000000000000000604482015290519081900360640190fd5b60019092019161222b565b60019093019261221d565b8151151561232d576040805160e560020a62461bcd02815260206004820152601660248201527f466163746f7279206d7573742068617665207479706500000000000000000000604482015290519081900360640190fd5b84600160a060020a031663b4579d606040518163ffffffff1660e060020a028152600401600060405180830381600087803b15801561236b57600080fd5b505af115801561237f573d6000803e3d6000fd5b505050506040513d6000823e601f3d908101601f1916820160405260208110156123a857600080fd5b8101908080516401000000008111156123c057600080fd5b820160208101848111156123d357600080fd5b81518560208202830111640100000000821117156123f057600080fd5b50508051909350600092508210905061240557fe5b906020019060200201519050612441611c5f60408051908101604052806008815260200160008051602061446e83398151915281525088613633565b612471611c986040805190810160405280600f815260200160008051602061452e83398151915281525088613633565b6124a4611d046040805190810160405280600a81526020016000805160206144ee8339815191528152508360ff16613bad565b85600160a060020a0316638da5cb5b6040518163ffffffff1660e060020a028152600401602060405180830381600087803b1580156124e257600080fd5b505af11580156124f6573d6000803e3d6000fd5b505050506040513d602081101561250c57600080fd5b5051604051600160a060020a03918216918816907f49220d7268f6ac850e2f0d39ce956e56f086a18cfda1383c05f9c859fdef901290600090a35b505050505050565b6000610d036107126040805190810160405280600681526020017f7061757365640000000000000000000000000000000000000000000000000000815250613a88565b60009081526006602052604090205490565b600090815260026020526040902054600160a060020a031690565b60008181526003602090815260409182902080548351601f60026101006001851615026000190190931692909204918201849004840281018401909452808452606093928301828280156109615780601f1061093657610100808354040283529160200191610961565b61266a610cfe6040805190810160405280601581526020017f7365637572697479546f6b656e52656769737472790000000000000000000000815250613a88565b600160a060020a031663d300a968336040518263ffffffff1660e060020a0281526004018082600160a060020a0316600160a060020a03168152602001915050602060405180830381600087803b1580156126c457600080fd5b505af11580156126d8573d6000803e3d6000fd5b505050506040513d60208110156126ee57600080fd5b505115612bbe57612724610cfe6040805190810160405280600f815260200160008051602061440e833981519152815250613a88565b600160a060020a0316632f0019f26040518163ffffffff1660e060020a0281526004018080602001828103825260148152602001806000805160206144ae833981519152815250602001915050602060405180830381600087803b15801561278b57600080fd5b505af115801561279f573d6000803e3d6000fd5b505050506040513d60208110156127b557600080fd5b505115612999576127ec61071260408051908101604052806008815260200160008051602061448e83398151915281525083613633565b806128f2575033600160a060020a0316638da5cb5b6040518163ffffffff1660e060020a028152600401602060405180830381600087803b15801561283057600080fd5b505af1158015612844573d6000803e3d6000fd5b505050506040513d602081101561285a57600080fd5b5051604080517f8da5cb5b0000000000000000000000000000000000000000000000000000000081529051600160a060020a0392831692841691638da5cb5b9160048083019260209291908290030181600087803b1580156128bb57600080fd5b505af11580156128cf573d6000803e3d6000fd5b505050506040513d60208110156128e557600080fd5b5051600160a060020a0316145b1515612994576040805160e560020a62461bcd02815260206004820152605160248201527f4d6f64756c65466163746f7279206d757374206265207665726966696564206f60448201527f72205365637572697479546f6b656e206f776e6572206d757374206265204d6f60648201527f64756c65466163746f7279206f776e6572000000000000000000000000000000608482015290519081900360a40190fd5b612a1f565b6129c961071260408051908101604052806008815260200160008051602061448e83398151915281525083613633565b1515612a1f576040805160e560020a62461bcd02815260206004820152601e60248201527f4d6f64756c65466163746f7279206d7573742062652076657269666965640000604482015290519081900360640190fd5b612a298133613e21565b1515612aa5576040805160e560020a62461bcd02815260206004820152603060248201527f56657273696f6e2073686f756c642077697468696e2074686520636f6d70617460448201527f69626c652072616e6765206f6620535400000000000000000000000000000000606482015290519081900360840190fd5b612ad5610d6060408051908101604052806008815260200160008051602061446e83398151915281525083613633565b1515612b51576040805160e560020a62461bcd02815260206004820152602260248201527f4d6f64756c65466163746f727920747970652073686f756c64206e6f7420626560448201527f2030000000000000000000000000000000000000000000000000000000000000606482015290519081900360840190fd5b612b87612b816040805190810160405280600a815260200160008051602061442e83398151915281525083613633565b33613dd5565b6040513390600160a060020a038316907ffd0013c5b822aafcc05b8cfdd6dfa336f40c31714b8bef8f2520e7036b9f079890600090a35b50565b606060006060600080600060606000612c036105496040805190810160405280600a81526020016000805160206144ee8339815191528152508c60ff16613bad565b519650612c396105496040805190810160405280600a81526020016000805160206144ee8339815191528152508c60ff16613bad565b9550612c6a610cfe6040805190810160405280600f815260200160008051602061440e833981519152815250613a88565b600160a060020a0316632f0019f26040518163ffffffff1660e060020a0281526004018080602001828103825260148152602001806000805160206144ae833981519152815250602001915050602060405180830381600087803b158015612cd157600080fd5b505af1158015612ce5573d6000803e3d6000fd5b505050506040513d6020811015612cfb57600080fd5b50519450600093508392505b86831015612eff578415612e9a5788600160a060020a0316638da5cb5b6040518163ffffffff1660e060020a028152600401602060405180830381600087803b158015612d5357600080fd5b505af1158015612d67573d6000803e3d6000fd5b505050506040513d6020811015612d7d57600080fd5b50518651600160a060020a0390911690879085908110612d9957fe5b90602001906020020151600160a060020a0316638da5cb5b6040518163ffffffff1660e060020a028152600401602060405180830381600087803b158015612de057600080fd5b505af1158015612df4573d6000803e3d6000fd5b505050506040513d6020811015612e0a57600080fd5b5051600160a060020a03161480612e635750612e6361071260408051908101604052806008815260200160008051602061448e8339815191528152508886815181101515612e5457fe5b90602001906020020151613633565b15612e9557612e898684815181101515612e7957fe5b906020019060200201518a613e21565b15612e95576001909301925b612ef4565b612ed261071260408051908101604052806008815260200160008051602061448e8339815191528152508886815181101515612e5457fe5b15612ef457612ee88684815181101515612e7957fe5b15612ef4576001909301925b600190920191612d07565b83604051908082528060200260200182016040528015612f29578160200160208202803883390190505b50915060009350600090505b868110156131855784156130e65788600160a060020a0316638da5cb5b6040518163ffffffff1660e060020a028152600401602060405180830381600087803b158015612f8157600080fd5b505af1158015612f95573d6000803e3d6000fd5b505050506040513d6020811015612fab57600080fd5b50518651600160a060020a0390911690879083908110612fc757fe5b90602001906020020151600160a060020a0316638da5cb5b6040518163ffffffff1660e060020a028152600401602060405180830381600087803b15801561300e57600080fd5b505af1158015613022573d6000803e3d6000fd5b505050506040513d602081101561303857600080fd5b5051600160a060020a03161480613082575061308261071260408051908101604052806008815260200160008051602061448e8339815191528152508884815181101515612e5457fe5b156130e1576130988682815181101515612e7957fe5b156130e15785818151811015156130ab57fe5b9060200190602002015182858151811015156130c357fe5b600160a060020a039092166020928302909101909101526001909301925b61317d565b61311e61071260408051908101604052806008815260200160008051602061448e8339815191528152508884815181101515612e5457fe5b1561317d576131348682815181101515612e7957fe5b1561317d57858181518110151561314757fe5b90602001906020020151828581518110151561315f57fe5b600160a060020a039092166020928302909101909101526001909301925b600101612f35565b5098975050505050505050565b61319a610cd0565b600160a060020a031633146131e7576040805160e560020a62461bcd028152602060048201526014602482015260008051602061444e833981519152604482015290519081900360640190fd5b6000613219610d6060408051908101604052806008815260200160008051602061446e83398151915281525085613633565b1415613295576040805160e560020a62461bcd02815260206004820152602160248201527f4d6f64756c6520666163746f7279206d7573742062652072656769737465726560448201527f6400000000000000000000000000000000000000000000000000000000000000606482015290519081900360840190fd5b6132cb6132c560408051908101604052806008815260200160008051602061448e83398151915281525084613633565b82613b52565b6040805182151581529051600160a060020a038416917f302d67e66dd951c29fca6e4f7099f292e8cc3537ad6bc4539b77e8b7a6404db2919081900360200190a25050565b600061331a610cd0565b600160a060020a03163314613367576040805160e560020a62461bcd028152602060048201526014602482015260008051602061444e833981519152604482015290519081900360640190fd5b6133a8610cfe6040805190810160405280601081526020017f706f6c796d617468526567697374727900000000000000000000000000000000815250613a88565b90506134a96133eb6040805190810160405280601581526020017f7365637572697479546f6b656e52656769737472790000000000000000000000815250613a88565b604080517fbf40fac1000000000000000000000000000000000000000000000000000000008152602060048201819052601560248301527f5365637572697479546f6b656e5265676973747279000000000000000000000060448301529151600160a060020a0386169263bf40fac192606480820193918290030181600087803b15801561347857600080fd5b505af115801561348c573d6000803e3d6000fd5b505050506040513d60208110156134a257600080fd5b5051613b72565b6135656134d86040805190810160405280600f815260200160008051602061440e833981519152815250613a88565b604080517fbf40fac1000000000000000000000000000000000000000000000000000000008152602060048201819052600f60248301527f466561747572655265676973747279000000000000000000000000000000000060448301529151600160a060020a0386169263bf40fac192606480820193918290030181600087803b15801561347857600080fd5b612bbe6135a66040805190810160405280600981526020017f706f6c79546f6b656e0000000000000000000000000000000000000000000000815250613a88565b604080517fbf40fac1000000000000000000000000000000000000000000000000000000008152602060048201819052600960248301527f506f6c79546f6b656e000000000000000000000000000000000000000000000060448301529151600160a060020a0386169263bf40fac192606480820193918290030181600087803b15801561347857600080fd5b600082826040516020018083805190602001908083835b602083106136695780518252601f19909201916020918201910161364a565b6001836020036101000a03801982511681845116808217855250505050505090500182600160a060020a0316600160a060020a03166c01000000000000000000000000028152601401925050506040516020818303038152906040526040518082805190602001908083835b602083106136f45780518252601f1990920191602091820191016136d5565b5181516020939093036101000a600019018019909116921691909117905260405192018290039091209695505050505050565b60008181526009602090815260409182902080548351818402810184019094528084526060939283018282801561096157602002820191906000526020600020905b8154600160a060020a031681526001909101906020018083116137695750505050509050919050565b606080600080808380805b88518510156138965788858151811015156137b457fe5b90602001906020020151600160a060020a031663995d9ab76040518163ffffffff1660e060020a028152600401600060405180830381600087803b1580156137fb57600080fd5b505af115801561380f573d6000803e3d6000fd5b505050506040513d6000823e601f3d908101601f19168201604052602081101561383857600080fd5b81019080805164010000000081111561385057600080fd5b8201602081018481111561386357600080fd5b815185602082028301116401000000008211171561388057600080fd5b505051989098019750506001909501945061379d565b856040519080825280602002602001820160405280156138c0578160200160208202803883390190505b509250856040519080825280602002602001820160405280156138ed578160200160208202803883390190505b50915060009550600094505b8851851015613a7a57888581518110151561391057fe5b90602001906020020151600160a060020a031663995d9ab76040518163ffffffff1660e060020a028152600401600060405180830381600087803b15801561395757600080fd5b505af115801561396b573d6000803e3d6000fd5b505050506040513d6000823e601f3d908101601f19168201604052602081101561399457600080fd5b8101908080516401000000008111156139ac57600080fd5b820160208101848111156139bf57600080fd5b81518560208202830111640100000000821117156139dc57600080fd5b5060009850909450505050505b8051841015613a6f578084815181101515613a0057fe5b906020019060200201518387815181101515613a1857fe5b602090810290910101528851899086908110613a3057fe5b906020019060200201518287815181101515613a4857fe5b600160a060020a0390921660209283029091019091015260019586019593909301926139e9565b6001909401936138f9565b509097909650945050505050565b6000816040516020018082805190602001908083835b60208310613abd5780518252601f199092019160209182019101613a9e565b6001836020036101000a0380198251168184511680821785525050505050509050019150506040516020818303038152906040526040518082805190602001908083835b60208310613b205780518252601f199092019160209182019101613b01565b5181516020939093036101000a6000190180199091169216919091179052604051920182900390912095945050505050565b600091825260046020526040909120805460ff1916911515919091179055565b600091825260026020526040909120805473ffffffffffffffffffffffffffffffffffffffff1916600160a060020a03909216919091179055565b600082826040516020018083805190602001908083835b60208310613be35780518252601f199092019160209182019101613bc4565b51815160001960209485036101000a019081169019919091161790529201938452506040805180850381529382019081905283519394509283925090840190808383602083106136f45780518252601f1990920191602091820191016136d5565b6000838152600960205260409020805482919084908110613c6157fe5b9060005260206000200160006101000a815481600160a060020a030219169083600160a060020a03160217905550505050565b60009182526020829052604090912055565b600082815260096020526040902080548210613d32576040805160e560020a62461bcd02815260206004820152602a60248201527f496e6465782073686f756c64206c657373207468616e206c656e677468206f6660448201527f2074686520617272617900000000000000000000000000000000000000000000606482015290519081900360840190fd5b805481906000198101908110613d4457fe5b6000918252602090912001548154600160a060020a0390911690829084908110613d6a57fe5b6000918252602090912001805473ffffffffffffffffffffffffffffffffffffffff1916600160a060020a0392909216919091179055805460001901613db0828261432c565b50505050565b60008281526009602090815260409091208251610ccb92840190614350565b6000918252600960209081526040832080546001810182559084529220909101805473ffffffffffffffffffffffffffffffffffffffff1916600160a060020a03909216919091179055565b6000606080606060008086600160a060020a0316630d8e6e2c6040518163ffffffff1660e060020a028152600401600060405180830381600087803b158015613e6957600080fd5b505af1158015613e7d573d6000803e3d6000fd5b505050506040513d6000823e601f3d908101601f191682016040526020811015613ea657600080fd5b810190808051640100000000811115613ebe57600080fd5b82016020810184811115613ed157600080fd5b8151856020820283011164010000000082111715613eee57600080fd5b5050929190505050945087600160a060020a0316638677768f6040518163ffffffff1660e060020a028152600401600060405180830381600087803b158015613f3657600080fd5b505af1158015613f4a573d6000803e3d6000fd5b505050506040513d6000823e601f3d908101601f191682016040526020811015613f7357600080fd5b810190808051640100000000811115613f8b57600080fd5b82016020810184811115613f9e57600080fd5b8151856020820283011164010000000082111715613fbb57600080fd5b5050929190505050935087600160a060020a031663f78629996040518163ffffffff1660e060020a028152600401600060405180830381600087803b15801561400357600080fd5b505af1158015614017573d6000803e3d6000fd5b505050506040513d6000823e601f3d908101601f19168201604052602081101561404057600080fd5b81019080805164010000000081111561405857600080fd5b8201602081018481111561406b57600080fd5b815185602082028301116401000000008211171561408857600080fd5b5050929190505050925061409c84866140c0565b91506140a8838661420c565b90508180156140b45750805b98975050505050505050565b600080600080845186511415156140d657600080fd5b60009250600091505b85518260ff16101561412357858260ff168151811015156140fc57fe5b9060200190602002015160ff1660001415614118576001909201915b6001909101906140df565b855183146141fe575060009150815b85518160ff1610156141e057858160ff1681518110151561414f57fe5b9060200190602002015160ff16858260ff1681518110151561416d57fe5b9060200190602002015160ff1611156141895760019350614203565b858160ff1681518110151561419a57fe5b9060200190602002015160ff16858260ff168151811015156141b857fe5b9060200190602002015160ff1610156141d45760009350614203565b60019283019201614132565b60018651038314156141f55760019350614203565b60009350614203565b600193505b50505092915050565b6000806000808451865114151561422257600080fd5b60009250600091505b85518260ff16101561426f57858260ff1681518110151561424857fe5b9060200190602002015160ff1660001415614264576001909201915b60019091019061422b565b855183146141fe575060009150815b85518160ff1610156141e057848160ff1681518110151561429b57fe5b9060200190602002015160ff16868260ff168151811015156142b957fe5b9060200190602002015160ff1611156142d55760019350614203565b848160ff168151811015156142e657fe5b9060200190602002015160ff16868260ff1681518110151561430457fe5b9060200190602002015160ff1610156143205760009350614203565b6001928301920161427e565b815481835581811115610ccb57600083815260209020610ccb9181019083016143c2565b8280548282559060005260206000209081019282156143b2579160200282015b828111156143b2578251825473ffffffffffffffffffffffffffffffffffffffff1916600160a060020a03909116178255602090920191600190910190614370565b506143be9291506143dc565b5090565b610d0691905b808211156143be57600081556001016143c8565b610d0691905b808211156143be57805473ffffffffffffffffffffffffffffffffffffffff191681556001016143e25600666561747572655265676973747279000000000000000000000000000000000072657075746174696f6e0000000000000000000000000000000000000000000073656e646572206d757374206265206f776e657200000000000000000000000072656769737472790000000000000000000000000000000000000000000000007665726966696564000000000000000000000000000000000000000000000000637573746f6d4d6f64756c6573416c6c6f7765640000000000000000000000006d73672e73656e646572206d75737420626520746865204d6f64756c652046616d6f64756c654c6973740000000000000000000000000000000000000000000063746f7279206f776e6572206f722072656769737472792063757261746f72006d6f64756c654c697374496e6465780000000000000000000000000000000000a165627a7a72305820bcd7ccc2d3ac8b618896205c61e845bc4fe64b5abd530c42f628dd0a02f790210029",
  "source": "pragma solidity ^0.4.24;\n\nimport \"./interfaces/IModuleRegistry.sol\";\nimport \"./interfaces/IModuleFactory.sol\";\nimport \"./interfaces/ISecurityTokenRegistry.sol\";\nimport \"./interfaces/IPolymathRegistry.sol\";\nimport \"./interfaces/IFeatureRegistry.sol\";\nimport \"./interfaces/IERC20.sol\";\nimport \"./libraries/VersionUtils.sol\";\nimport \"./storage/EternalStorage.sol\";\nimport \"./libraries/Encoder.sol\";\nimport \"./interfaces/IOwnable.sol\";\nimport \"./interfaces/ISecurityToken.sol\";\n\n/**\n* @title Registry contract to store registered modules\n* @notice Only Polymath can register and verify module factories to make them available for issuers to attach.\n*/\ncontract ModuleRegistry is IModuleRegistry, EternalStorage {\n    /*\n        // Mapping used to hold the type of module factory corresponds to the address of the Module factory contract\n        mapping (address => uint8) public registry;\n\n        // Mapping used to hold the reputation of the factory\n        mapping (address => address[]) public reputation;\n\n        // Mapping containing the list of addresses of Module Factories of a particular type\n        mapping (uint8 => address[]) public moduleList;\n\n        // Mapping to store the index of the Module Factory in the moduleList\n        mapping(address => uint8) private moduleListIndex;\n\n        // contains the list of verified modules\n        mapping (address => bool) public verified;\n\n    */\n\n    ///////////\n    // Events\n    //////////\n\n    // Emit when network becomes paused\n    event Pause(uint256 _timestammp);\n     // Emit when network becomes unpaused\n    event Unpause(uint256 _timestamp);\n    // Emit when Module is used by the SecurityToken\n    event ModuleUsed(address indexed _moduleFactory, address indexed _securityToken);\n    // Emit when the Module Factory gets registered on the ModuleRegistry contract\n    event ModuleRegistered(address indexed _moduleFactory, address indexed _owner);\n    // Emit when the module gets verified by Polymath\n    event ModuleVerified(address indexed _moduleFactory, bool _verified);\n    // Emit when a ModuleFactory is removed by Polymath\n    event ModuleRemoved(address indexed _moduleFactory, address indexed _decisionMaker);\n\n    ///////////////\n    //// Modifiers\n    ///////////////\n\n    /**\n     * @dev Throws if called by any account other than the owner.\n     */\n    modifier onlyOwner() {\n        require(msg.sender == owner(),\"sender must be owner\");\n        _;\n    }\n\n    /**\n     * @notice Modifier to make a function callable only when the contract is not paused.\n     */\n    modifier whenNotPausedOrOwner() {\n        if (msg.sender == owner())\n            _;\n        else {\n            require(!isPaused(), \"Already paused\");\n            _;\n        }\n    }\n\n    /**\n     * @notice Modifier to make a function callable only when the contract is not paused and ignore is msg.sender is owner.\n     */\n    modifier whenNotPaused() {\n        require(!isPaused(), \"Already paused\");\n        _;\n    }\n\n    /**\n     * @notice Modifier to make a function callable only when the contract is paused.\n     */\n    modifier whenPaused() {\n        require(isPaused(), \"Should not be paused\");\n        _;\n    }\n\n    /////////////////////////////\n    // Initialization\n    /////////////////////////////\n\n    // Constructor\n    constructor () public\n    {\n\n    }\n\n    function initialize(address _polymathRegistry, address _owner) external payable {\n        require(!getBool(Encoder.getKey(\"initialised\")),\"already initialized\");\n        require(_owner != address(0) && _polymathRegistry != address(0), \"0x address is invalid\");\n        set(Encoder.getKey(\"polymathRegistry\"), _polymathRegistry);\n        set(Encoder.getKey(\"owner\"), _owner);\n        set(Encoder.getKey(\"initialised\"), true);\n    }\n\n    /**\n     * @notice Called by a SecurityToken to check if the ModuleFactory is verified or appropriate custom module\n     * @dev ModuleFactory reputation increases by one every time it is deployed(used) by a ST.\n     * @dev Any module can be added during token creation without being registered if it is defined in the token proxy deployment contract\n     * @dev The feature switch for custom modules is labelled \"customModulesAllowed\"\n     * @param _moduleFactory is the address of the relevant module factory\n     */\n    function useModule(address _moduleFactory) external {\n        // This if statement is required to be able to add modules from the token proxy contract during deployment\n        if (ISecurityTokenRegistry(getAddress(Encoder.getKey(\"securityTokenRegistry\"))).isSecurityToken(msg.sender)) {\n            if (IFeatureRegistry(getAddress(Encoder.getKey(\"featureRegistry\"))).getFeatureStatus(\"customModulesAllowed\")) {\n                require(getBool(Encoder.getKey(\"verified\", _moduleFactory)) || IOwnable(_moduleFactory).owner() == IOwnable(msg.sender).owner(),\"ModuleFactory must be verified or SecurityToken owner must be ModuleFactory owner\");\n            } else {\n                require(getBool(Encoder.getKey(\"verified\", _moduleFactory)), \"ModuleFactory must be verified\");\n            }\n            require(_isCompatibleModule(_moduleFactory, msg.sender), \"Version should within the compatible range of ST\");\n            require(getUint(Encoder.getKey(\"registry\",_moduleFactory)) != 0, \"ModuleFactory type should not be 0\");\n            pushArray(Encoder.getKey(\"reputation\", _moduleFactory), msg.sender);\n            emit ModuleUsed(_moduleFactory, msg.sender);\n        }\n    }\n\n    function _isCompatibleModule(address _moduleFactory, address _securityToken) internal view returns(bool) {\n        uint8[] memory _latestVersion = ISecurityToken(_securityToken).getVersion();\n        uint8[] memory _lowerBound = IModuleFactory(_moduleFactory).getLowerSTVersionBounds();\n        uint8[] memory _upperBound = IModuleFactory(_moduleFactory).getUpperSTVersionBounds();\n        bool _isLowerAllowed = VersionUtils.compareLowerBound(_lowerBound, _latestVersion);\n        bool _isUpperAllowed = VersionUtils.compareUpperBound(_upperBound, _latestVersion);\n        return (_isLowerAllowed && _isUpperAllowed);\n    }\n\n    /**\n     * @notice Called by the ModuleFactory owner to register new modules for SecurityTokens to use\n     * @param _moduleFactory is the address of the module factory to be registered\n     */\n    function registerModule(address _moduleFactory) external whenNotPausedOrOwner {\n        if (IFeatureRegistry(getAddress(Encoder.getKey(\"featureRegistry\"))).getFeatureStatus(\"customModulesAllowed\")) {\n            require(msg.sender == IOwnable(_moduleFactory).owner() || msg.sender == getAddress(Encoder.getKey(\"owner\")),\"msg.sender must be the Module Factory owner or registry curator\");\n        } else {\n            require(msg.sender == getAddress(Encoder.getKey(\"owner\")), \"Only owner allowed to register modules\");\n        }\n        require(getUint(Encoder.getKey(\"registry\", _moduleFactory)) == 0, \"Module factory should not be pre-registered\");\n        IModuleFactory moduleFactory = IModuleFactory(_moduleFactory);\n        //Enforce type uniqueness\n        uint256 i;\n        uint256 j;\n        uint8[] memory moduleTypes = moduleFactory.getTypes();\n        for (i = 1; i < moduleTypes.length; i++) {\n            for (j = 0; j < i; j++) {\n                require(moduleTypes[i] != moduleTypes[j], \"Type mismatch\");\n            }\n        }\n        require(moduleTypes.length != 0, \"Factory must have type\");\n        // NB - here we index by the first type of the module.\n        uint8 moduleType = moduleFactory.getTypes()[0];\n        set(Encoder.getKey(\"registry\", _moduleFactory), uint256(moduleType));\n        set(Encoder.getKey(\"moduleListIndex\", _moduleFactory), uint256(getArrayAddress(Encoder.getKey(\"moduleList\", uint256(moduleType))).length));\n        pushArray(Encoder.getKey(\"moduleList\", uint256(moduleType)), _moduleFactory);\n        emit ModuleRegistered (_moduleFactory, IOwnable(_moduleFactory).owner());\n    }\n\n    /**\n     * @notice Called by the ModuleFactory owner or registry curator to delete a ModuleFactory from the registry\n     * @param _moduleFactory is the address of the module factory to be deleted from the registry\n     */\n    function removeModule(address _moduleFactory) external whenNotPausedOrOwner {\n        uint256 moduleType = getUint(Encoder.getKey(\"registry\", _moduleFactory));\n\n        require(moduleType != 0, \"Module factory should be registered\");\n        require(msg.sender == IOwnable(_moduleFactory).owner() || msg.sender == getAddress(Encoder.getKey(\"owner\")),\"msg.sender must be the Module Factory owner or registry curator\");\n\n        uint256 index = getUint(Encoder.getKey(\"moduleListIndex\", _moduleFactory));\n        uint256 last = getArrayAddress(Encoder.getKey(\"moduleList\", moduleType)).length - 1;\n        address temp = getArrayAddress(Encoder.getKey(\"moduleList\", moduleType))[last];\n\n        // pop from array and re-order\n        if (index != last) {\n            // moduleList[moduleType][index] = temp;\n            setArrayIndexValue(Encoder.getKey(\"moduleList\", moduleType), index, temp);\n            set(Encoder.getKey(\"moduleListIndex\", temp), index);\n        }\n        deleteArrayAddress(Encoder.getKey(\"moduleList\", moduleType), last);\n\n        // delete registry[_moduleFactory];\n        set(Encoder.getKey(\"registry\", _moduleFactory), uint256(0));\n        // delete reputation[_moduleFactory];\n        setArray(Encoder.getKey(\"reputation\", _moduleFactory), new address[](0));\n        // delete verified[_moduleFactory];\n        set(Encoder.getKey(\"verified\", _moduleFactory), false);\n        // delete moduleListIndex[_moduleFactory];\n        set(Encoder.getKey(\"moduleListIndex\", _moduleFactory), uint256(0));\n        emit ModuleRemoved(_moduleFactory, msg.sender);\n    }\n\n    /**\n    * @notice Called by Polymath to verify Module Factories for SecurityTokens to use.\n    * @notice A module can not be used by an ST unless first approved/verified by Polymath\n    * @notice (The only exception to this is that the author of the module is the owner of the ST)\n    * @notice -> Only if Polymath enabled the feature.\n    * @param _moduleFactory is the address of the module factory to be verified\n    * @return bool\n    */\n    function verifyModule(address _moduleFactory, bool _verified) external onlyOwner {\n        require(getUint(Encoder.getKey(\"registry\", _moduleFactory)) != uint256(0), \"Module factory must be registered\");\n        set(Encoder.getKey(\"verified\", _moduleFactory), _verified);\n        emit ModuleVerified(_moduleFactory, _verified);\n    }\n\n    /**\n     * @notice Returns all the tags related to the a module type which are valid for the given token\n     * @param _moduleType is the module type\n     * @param _securityToken is the token\n     * @return list of tags\n     * @return corresponding list of module factories\n     */\n    function getTagsByTypeAndToken(uint8 _moduleType, address _securityToken) external view returns(bytes32[], address[]) {\n        address[] memory modules = getModulesByTypeAndToken(_moduleType, _securityToken);\n        return _tagsByModules(modules);\n    }\n\n    /**\n     * @notice Returns all the tags related to the a module type which are valid for the given token\n     * @param _moduleType is the module type\n     * @return list of tags\n     * @return corresponding list of module factories\n     */\n    function getTagsByType(uint8 _moduleType) external view returns(bytes32[], address[]) {\n        address[] memory modules = getModulesByType(_moduleType);\n        return _tagsByModules(modules);\n    }\n\n    /**\n     * @notice Returns all the tags related to the modules provided\n     * @param _modules modules to return tags for\n     * @return list of tags\n     * @return corresponding list of module factories\n     */\n    function _tagsByModules(address[] _modules) internal view returns(bytes32[], address[]) {\n        uint256 counter = 0;\n        uint256 i;\n        uint256 j;\n        for (i = 0; i < _modules.length; i++) {\n            counter = counter + IModuleFactory(_modules[i]).getTags().length;\n        }\n        bytes32[] memory tags = new bytes32[](counter);\n        address[] memory modules = new address[](counter);\n        bytes32[] memory tempTags;\n        counter = 0;\n        for (i = 0; i < _modules.length; i++) {\n            tempTags = IModuleFactory(_modules[i]).getTags();\n            for (j = 0; j < tempTags.length; j++) {\n                tags[counter] = tempTags[j];\n                modules[counter] = _modules[i];\n                counter++;\n            }\n        }\n        return (tags, modules);\n    }\n\n    /**\n     * @notice Returns the reputation of the entered Module Factory\n     * @param _factoryAddress is the address of the module factory\n     * @return address array which contains the list of securityTokens that use that module factory\n     */\n    function getReputationByFactory(address _factoryAddress) external view returns(address[]) {\n        return getArrayAddress(Encoder.getKey(\"reputation\", _factoryAddress));\n    }\n\n    /**\n     * @notice Returns the list of addresses of Module Factory of a particular type\n     * @param _moduleType Type of Module\n     * @return address array that contains the list of addresses of module factory contracts.\n     */\n    function getModulesByType(uint8 _moduleType) public view returns(address[]) {\n        return getArrayAddress(Encoder.getKey(\"moduleList\", uint256(_moduleType)));\n    }\n\n    /**\n     * @notice Returns the list of available Module factory addresses of a particular type for a given token.\n     * @param _moduleType is the module type to look for\n     * @param _securityToken is the address of SecurityToken\n     * @return address array that contains the list of available addresses of module factory contracts.\n     */\n    function getModulesByTypeAndToken(uint8 _moduleType, address _securityToken) public view returns (address[]) {\n        uint256 _len = getArrayAddress(Encoder.getKey(\"moduleList\", uint256(_moduleType))).length;\n        address[] memory _addressList = getArrayAddress(Encoder.getKey(\"moduleList\", uint256(_moduleType)));\n        bool _isCustomModuleAllowed = IFeatureRegistry(getAddress(Encoder.getKey(\"featureRegistry\"))).getFeatureStatus(\"customModulesAllowed\");\n        uint256 counter = 0;\n        for (uint256 i = 0; i < _len; i++) {\n            if (_isCustomModuleAllowed) {\n                if (IOwnable(_addressList[i]).owner() == IOwnable(_securityToken).owner() || getBool(Encoder.getKey(\"verified\", _addressList[i])))\n                    if(_isCompatibleModule(_addressList[i], _securityToken))\n                        counter++;\n            }\n            else if (getBool(Encoder.getKey(\"verified\", _addressList[i]))) {\n                if(_isCompatibleModule(_addressList[i], _securityToken))\n                    counter++;\n            }\n        }\n        address[] memory _tempArray = new address[](counter);\n        counter = 0;\n        for (uint256 j = 0; j < _len; j++) {\n            if (_isCustomModuleAllowed) {\n                if (IOwnable(_addressList[j]).owner() == IOwnable(_securityToken).owner() || getBool(Encoder.getKey(\"verified\", _addressList[j]))) {\n                    if(_isCompatibleModule(_addressList[j], _securityToken)) {\n                        _tempArray[counter] = _addressList[j];\n                        counter ++;\n                    }\n                }\n            }\n            else if (getBool(Encoder.getKey(\"verified\", _addressList[j]))) {\n                if(_isCompatibleModule(_addressList[j], _securityToken)) {\n                    _tempArray[counter] = _addressList[j];\n                    counter ++;\n                }\n            }\n        }\n        return _tempArray;\n    }\n\n    /**\n    * @notice Reclaim all ERC20Basic compatible tokens\n    * @param _tokenContract The address of the token contract\n    */\n    function reclaimERC20(address _tokenContract) external onlyOwner {\n        require(_tokenContract != address(0), \"0x address is invalid\");\n        IERC20 token = IERC20(_tokenContract);\n        uint256 balance = token.balanceOf(address(this));\n        require(token.transfer(owner(), balance),\"token transfer failed\");\n    }\n\n    /**\n     * @notice Called by the owner to pause, triggers stopped state\n     */\n    function pause() external whenNotPaused onlyOwner {\n        set(Encoder.getKey(\"paused\"), true);\n        emit Pause(now);\n    }\n\n    /**\n     * @notice Called by the owner to unpause, returns to normal state\n     */\n    function unpause() external whenPaused onlyOwner {\n        set(Encoder.getKey(\"paused\"), false);\n        emit Unpause(now);\n    }\n\n    /**\n     * @notice Stores the contract addresses of other key contracts from the PolymathRegistry\n     */\n    function updateFromRegistry() external onlyOwner {\n        address _polymathRegistry = getAddress(Encoder.getKey(\"polymathRegistry\"));\n        set(Encoder.getKey(\"securityTokenRegistry\"), IPolymathRegistry(_polymathRegistry).getAddress(\"SecurityTokenRegistry\"));\n        set(Encoder.getKey(\"featureRegistry\"), IPolymathRegistry(_polymathRegistry).getAddress(\"FeatureRegistry\"));\n        set(Encoder.getKey(\"polyToken\"), IPolymathRegistry(_polymathRegistry).getAddress(\"PolyToken\"));\n    }\n\n    /**\n     * @notice Get the owner of the contract\n     * @return address owner\n     */\n    function owner() public view returns(address) {\n        return getAddress(Encoder.getKey(\"owner\"));\n    }\n\n    /**\n     * @notice Check whether the contract operations is paused or not\n     * @return bool\n     */\n    function isPaused() public view returns(bool) {\n        return getBool(Encoder.getKey(\"paused\"));\n    }\n}\n",
  "sourcePath": "/Users/jere/Code/polymath-apps/packages/polymath-shared/scripts/generateLocalBlockchain/contracts/ModuleRegistry.sol",
  "compiler": {
    "name": "solc",
    "version": "0.4.24+commit.e67f0147.Emscripten.clang"
  },
  "schemaVersion": "2.0.1",
  "updatedAt": "2018-10-23T22:45:13.034Z"
}