{
  "contractName": "ModuleRegistryProxy",
  "abi": [
    {
      "constant": false,
      "inputs": [],
      "name": "proxyOwner",
      "outputs": [
        {
          "name": "",
          "type": "address"
        }
      ],
      "payable": false,
      "stateMutability": "nonpayable",
      "type": "function"
    },
    {
      "constant": true,
      "inputs": [
        {
          "name": "_variable",
          "type": "bytes32"
        }
      ],
      "name": "getBoolValues",
      "outputs": [
        {
          "name": "",
          "type": "bool"
        }
      ],
      "payable": false,
      "stateMutability": "view",
      "type": "function"
    },
    {
      "constant": true,
      "inputs": [
        {
          "name": "_variable",
          "type": "bytes32"
        }
      ],
      "name": "getUintValues",
      "outputs": [
        {
          "name": "",
          "type": "uint256"
        }
      ],
      "payable": false,
      "stateMutability": "view",
      "type": "function"
    },
    {
      "constant": false,
      "inputs": [],
      "name": "version",
      "outputs": [
        {
          "name": "",
          "type": "string"
        }
      ],
      "payable": false,
      "stateMutability": "nonpayable",
      "type": "function"
    },
    {
      "constant": false,
      "inputs": [
        {
          "name": "_newVersion",
          "type": "string"
        },
        {
          "name": "_newImplementation",
          "type": "address"
        }
      ],
      "name": "upgradeTo",
      "outputs": [],
      "payable": false,
      "stateMutability": "nonpayable",
      "type": "function"
    },
    {
      "constant": false,
      "inputs": [],
      "name": "implementation",
      "outputs": [
        {
          "name": "",
          "type": "address"
        }
      ],
      "payable": false,
      "stateMutability": "nonpayable",
      "type": "function"
    },
    {
      "constant": true,
      "inputs": [
        {
          "name": "_variable",
          "type": "bytes32"
        }
      ],
      "name": "getStringValues",
      "outputs": [
        {
          "name": "",
          "type": "string"
        }
      ],
      "payable": false,
      "stateMutability": "view",
      "type": "function"
    },
    {
      "constant": false,
      "inputs": [
        {
          "name": "_newVersion",
          "type": "string"
        },
        {
          "name": "_newImplementation",
          "type": "address"
        },
        {
          "name": "_data",
          "type": "bytes"
        }
      ],
      "name": "upgradeToAndCall",
      "outputs": [],
      "payable": true,
      "stateMutability": "payable",
      "type": "function"
    },
    {
      "constant": true,
      "inputs": [
        {
          "name": "_variable",
          "type": "bytes32"
        }
      ],
      "name": "getBytes32Values",
      "outputs": [
        {
          "name": "",
          "type": "bytes32"
        }
      ],
      "payable": false,
      "stateMutability": "view",
      "type": "function"
    },
    {
      "constant": true,
      "inputs": [
        {
          "name": "_variable",
          "type": "bytes32"
        }
      ],
      "name": "getAddressValues",
      "outputs": [
        {
          "name": "",
          "type": "address"
        }
      ],
      "payable": false,
      "stateMutability": "view",
      "type": "function"
    },
    {
      "constant": true,
      "inputs": [
        {
          "name": "_variable",
          "type": "bytes32"
        }
      ],
      "name": "getBytesValues",
      "outputs": [
        {
          "name": "",
          "type": "bytes"
        }
      ],
      "payable": false,
      "stateMutability": "view",
      "type": "function"
    },
    {
      "constant": false,
      "inputs": [
        {
          "name": "_newOwner",
          "type": "address"
        }
      ],
      "name": "transferProxyOwnership",
      "outputs": [],
      "payable": false,
      "stateMutability": "nonpayable",
      "type": "function"
    },
    {
      "payable": true,
      "stateMutability": "payable",
      "type": "fallback"
    },
    {
      "anonymous": false,
      "inputs": [
        {
          "indexed": false,
          "name": "_previousOwner",
          "type": "address"
        },
        {
          "indexed": false,
          "name": "_newOwner",
          "type": "address"
        }
      ],
      "name": "ProxyOwnershipTransferred",
      "type": "event"
    },
    {
      "anonymous": false,
      "inputs": [
        {
          "indexed": false,
          "name": "_newVersion",
          "type": "string"
        },
        {
          "indexed": true,
          "name": "_newImplementation",
          "type": "address"
        }
      ],
      "name": "Upgraded",
      "type": "event"
    }
  ],
  "bytecode": "0x60806040526100163364010000000061001b810204565b6100b4565b600160a060020a038116151561009257604080517f08c379a000000000000000000000000000000000000000000000000000000000815260206004820152601860248201527f416464726573732073686f756c64206e6f742062652030780000000000000000604482015290519081900360640190fd5b600d8054600160a060020a031916600160a060020a0392909216919091179055565b610dfb806100c36000396000f3006080604052600436106100b95763ffffffff7c0100000000000000000000000000000000000000000000000000000000600035041663025313a281146100c35780631d8acf1b146100f457806326839e531461012057806354fd4d501461014a5780635a8b1a9f146101d45780635c60da1b1461020257806369ba0fe914610217578063958a41dd1461022f578063b3447ac91461025b578063baed8bb114610273578063c6cb7ab81461028b578063f1739cae146102a3575b6100c16102c4565b005b3480156100cf57600080fd5b506100d86102d6565b60408051600160a060020a039092168252519081900360200190f35b34801561010057600080fd5b5061010c600435610313565b604080519115158252519081900360200190f35b34801561012c57600080fd5b50610138600435610328565b60408051918252519081900360200190f35b34801561015657600080fd5b5061015f61033a565b6040805160208082528351818301528351919283929083019185019080838360005b83811015610199578181015183820152602001610181565b50505050905090810190601f1680156101c65780820380516001836020036101000a031916815260200191505b509250505060405180910390f35b3480156101e057600080fd5b506100c16024600480358281019291013590600160a060020a039035166103ef565b34801561020e57600080fd5b506100d861045d565b34801561022357600080fd5b5061015f600435610488565b6100c1602460048035828101929082013591600160a060020a038235169160443590810191013561052b565b34801561026757600080fd5b50610138600435610648565b34801561027f57600080fd5b506100d860043561065a565b34801561029757600080fd5b5061015f600435610675565b3480156102af57600080fd5b506100c1600160a060020a03600435166106df565b6102d46102cf6107c4565b6107d3565b565b60006102e06107f7565b600160a060020a031633600160a060020a03161415610308576103016107f7565b9050610310565b6103106102c4565b90565b60009081526004602052604090205460ff1690565b60009081526020819052604090205490565b60606103446107f7565b600160a060020a031633600160a060020a0316141561030857600b805460408051602060026001851615610100026000190190941693909304601f810184900484028201840190925281815292918301828280156103e35780601f106103b8576101008083540402835291602001916103e3565b820191906000526020600020905b8154815290600101906020018083116103c657829003601f168201915b50505050509050610310565b6103f76107f7565b600160a060020a031633600160a060020a031614156104505761044b83838080601f016020809104026020016040519081016040528093929190818152602001838380828437508794506108069350505050565b610458565b6104586102c4565b505050565b60006104676107f7565b600160a060020a031633600160a060020a03161415610308576103016107c4565b60008181526001602081815260409283902080548451600260001995831615610100029590950190911693909304601f8101839004830284018301909452838352606093909183018282801561051f5780601f106104f45761010080835404028352916020019161051f565b820191906000526020600020905b81548152906001019060200180831161050257829003601f168201915b50505050509050919050565b6105336107f7565b600160a060020a031633600160a060020a031614156106395761058785858080601f016020809104026020016040519081016040528093929190818152602001838380828437508994506108069350505050565b30600160a060020a03163483836040518083838082843782019150509250505060006040518083038185875af1925050501515610634576040805160e560020a62461bcd02815260206004820152603960248201527f4661696c20696e20657865637574696e67207468652066756e6374696f6e206f60448201527f6620696d706c656d656e746174696f6e20636f6e747261637400000000000000606482015290519081900360840190fd5b610641565b6106416102c4565b5050505050565b60009081526006602052604090205490565b600090815260026020526040902054600160a060020a031690565b60008181526003602090815260409182902080548351601f600261010060018516150260001901909316929092049182018490048402810184019094528084526060939283018282801561051f5780601f106104f45761010080835404028352916020019161051f565b6106e76107f7565b600160a060020a031633600160a060020a031614156107b957600160a060020a0381161515610760576040805160e560020a62461bcd02815260206004820152601860248201527f416464726573732073686f756c64206e6f742062652030780000000000000000604482015290519081900360640190fd5b7f5a3e66efaa1e445ebd894728a69d6959842ea1e97bd79b892797106e270efcd96107896107f7565b60408051600160a060020a03928316815291841660208301528051918290030190a16107b481610ca0565b6107c1565b6107c16102c4565b50565b600c54600160a060020a031690565b3660008037600080366000845af43d6000803e8080156107f2573d6000f35b3d6000fd5b600d54600160a060020a031690565b600c54600160a060020a0382811691161480159061082c5750600160a060020a03811615155b15156108ce576040805160e560020a62461bcd02815260206004820152604660248201527f4f6c642061646472657373206973206e6f7420616c6c6f77656420616e64206960448201527f6d706c656d656e746174696f6e20616464726573732073686f756c64206e6f7460648201527f2062652030780000000000000000000000000000000000000000000000000000608482015290519081900360a40190fd5b6108d781610d2f565b1515610953576040805160e560020a62461bcd02815260206004820152603b60248201527f43616e6e6f742073657420612070726f787920696d706c656d656e746174696f60448201527f6e20746f2061206e6f6e2d636f6e747261637420616464726573730000000000606482015290519081900360840190fd5b81516000106109d2576040805160e560020a62461bcd02815260206004820152602260248201527f56657273696f6e2073686f756c64206e6f7420626520656d707479207374726960448201527f6e67000000000000000000000000000000000000000000000000000000000000606482015290519081900360840190fd5b816040516020018082805190602001908083835b60208310610a055780518252601f1990920191602091820191016109e6565b6001836020036101000a0380198251168184511680821785525050505050509050019150506040516020818303038152906040526040518082805190602001908083835b60208310610a685780518252601f199092019160209182019101610a49565b6001836020036101000a038019825116818451168082178552505050505050905001915050604051809103902060001916600b6040516020018082805460018160011615610100020316600290048015610af95780601f10610ad7576101008083540402835291820191610af9565b820191906000526020600020905b815481529060010190602001808311610ae5575b50509150506040516020818303038152906040526040518082805190602001908083835b60208310610b3c5780518252601f199092019160209182019101610b1d565b6001836020036101000a03801982511681845116808217855250505050505090500191505060405180910390206000191614151515610bc5576040805160e560020a62461bcd02815260206004820152601d60248201527f4e65772076657273696f6e20657175616c7320746f2063757272656e74000000604482015290519081900360640190fd5b8151610bd890600b906020850190610d37565b50600c805473ffffffffffffffffffffffffffffffffffffffff1916600160a060020a03831690811790915560408051602080825285518183015285517f8e05e0e35ff592971ca8b477d4285a33a61ded208d644042667b78693a472f5e938793928392918301919085019080838360005b83811015610c62578181015183820152602001610c4a565b50505050905090810190601f168015610c8f5780820380516001836020036101000a031916815260200191505b509250505060405180910390a25050565b600160a060020a0381161515610d00576040805160e560020a62461bcd02815260206004820152601860248201527f416464726573732073686f756c64206e6f742062652030780000000000000000604482015290519081900360640190fd5b600d805473ffffffffffffffffffffffffffffffffffffffff1916600160a060020a0392909216919091179055565b6000903b1190565b828054600181600116156101000203166002900490600052602060002090601f016020900481019282601f10610d7857805160ff1916838001178555610da5565b82800160010185558215610da5579182015b82811115610da5578251825591602001919060010190610d8a565b50610db1929150610db5565b5090565b61031091905b80821115610db15760008155600101610dbb5600a165627a7a72305820d5987488d28b193edcf3ea65c6b046e2d096996c9da012465eb736ae7dbe9bea0029",
  "source": "pragma solidity ^0.4.24;\n\nimport \"../storage/EternalStorage.sol\";\nimport \"./OwnedUpgradeabilityProxy.sol\";\n\n\n/**\n * @title ModuleRegistryProxy\n * @dev This proxy holds the storage of the ModuleRegistry contract and delegates every call to the current implementation set.\n * Besides, it allows upgrading the contract's behaviour towards further implementations, and provides basic\n * authorization control functionalities\n */\n/*solium-disable-next-line no-empty-blocks*/\ncontract ModuleRegistryProxy is EternalStorage, OwnedUpgradeabilityProxy {\n\n}",
  "sourcePath": "/Users/jere/Code/polymath-apps/packages/polymath-shared/scripts/generateLocalBlockchain/contracts/proxy/ModuleRegistryProxy.sol",
  "compiler": {
    "name": "solc",
    "version": "0.4.24+commit.e67f0147.Emscripten.clang"
  },
  "schemaVersion": "2.0.1",
  "updatedAt": "2018-11-05T19:10:41.168Z"
}