{
  "contractName": "ModuleRegistryProxy",
  "abi": [
    {
      "constant": false,
      "inputs": [],
      "name": "proxyOwner",
      "outputs": [
        {
          "name": "",
          "type": "address"
        }
      ],
      "payable": false,
      "stateMutability": "nonpayable",
      "type": "function"
    },
    {
      "constant": true,
      "inputs": [
        {
          "name": "_variable",
          "type": "bytes32"
        }
      ],
      "name": "getBoolValues",
      "outputs": [
        {
          "name": "",
          "type": "bool"
        }
      ],
      "payable": false,
      "stateMutability": "view",
      "type": "function"
    },
    {
      "constant": true,
      "inputs": [
        {
          "name": "_variable",
          "type": "bytes32"
        }
      ],
      "name": "getUintValues",
      "outputs": [
        {
          "name": "",
          "type": "uint256"
        }
      ],
      "payable": false,
      "stateMutability": "view",
      "type": "function"
    },
    {
      "constant": false,
      "inputs": [],
      "name": "version",
      "outputs": [
        {
          "name": "",
          "type": "string"
        }
      ],
      "payable": false,
      "stateMutability": "nonpayable",
      "type": "function"
    },
    {
      "constant": false,
      "inputs": [
        {
          "name": "_newVersion",
          "type": "string"
        },
        {
          "name": "_newImplementation",
          "type": "address"
        }
      ],
      "name": "upgradeTo",
      "outputs": [],
      "payable": false,
      "stateMutability": "nonpayable",
      "type": "function"
    },
    {
      "constant": false,
      "inputs": [],
      "name": "implementation",
      "outputs": [
        {
          "name": "",
          "type": "address"
        }
      ],
      "payable": false,
      "stateMutability": "nonpayable",
      "type": "function"
    },
    {
      "constant": true,
      "inputs": [
        {
          "name": "_variable",
          "type": "bytes32"
        }
      ],
      "name": "getStringValues",
      "outputs": [
        {
          "name": "",
          "type": "string"
        }
      ],
      "payable": false,
      "stateMutability": "view",
      "type": "function"
    },
    {
      "constant": false,
      "inputs": [
        {
          "name": "_newVersion",
          "type": "string"
        },
        {
          "name": "_newImplementation",
          "type": "address"
        },
        {
          "name": "_data",
          "type": "bytes"
        }
      ],
      "name": "upgradeToAndCall",
      "outputs": [],
      "payable": true,
      "stateMutability": "payable",
      "type": "function"
    },
    {
      "constant": true,
      "inputs": [
        {
          "name": "_variable",
          "type": "bytes32"
        }
      ],
      "name": "getBytes32Values",
      "outputs": [
        {
          "name": "",
          "type": "bytes32"
        }
      ],
      "payable": false,
      "stateMutability": "view",
      "type": "function"
    },
    {
      "constant": true,
      "inputs": [
        {
          "name": "_variable",
          "type": "bytes32"
        }
      ],
      "name": "getAddressValues",
      "outputs": [
        {
          "name": "",
          "type": "address"
        }
      ],
      "payable": false,
      "stateMutability": "view",
      "type": "function"
    },
    {
      "constant": true,
      "inputs": [
        {
          "name": "_variable",
          "type": "bytes32"
        }
      ],
      "name": "getBytesValues",
      "outputs": [
        {
          "name": "",
          "type": "bytes"
        }
      ],
      "payable": false,
      "stateMutability": "view",
      "type": "function"
    },
    {
      "constant": false,
      "inputs": [
        {
          "name": "_newOwner",
          "type": "address"
        }
      ],
      "name": "transferProxyOwnership",
      "outputs": [],
      "payable": false,
      "stateMutability": "nonpayable",
      "type": "function"
    },
    {
      "payable": true,
      "stateMutability": "payable",
      "type": "fallback"
    },
    {
      "anonymous": false,
      "inputs": [
        {
          "indexed": false,
          "name": "_previousOwner",
          "type": "address"
        },
        {
          "indexed": false,
          "name": "_newOwner",
          "type": "address"
        }
      ],
      "name": "ProxyOwnershipTransferred",
      "type": "event"
    },
    {
      "anonymous": false,
      "inputs": [
        {
          "indexed": false,
          "name": "_newVersion",
          "type": "string"
        },
        {
          "indexed": true,
          "name": "_newImplementation",
          "type": "address"
        }
      ],
      "name": "Upgraded",
      "type": "event"
    }
  ],
  "bytecode": "0x60806040526100163364010000000061001b810204565b6100b4565b600160a060020a038116151561009257604080517f08c379a000000000000000000000000000000000000000000000000000000000815260206004820152601860248201527f416464726573732073686f756c64206e6f742062652030780000000000000000604482015290519081900360640190fd5b600d8054600160a060020a031916600160a060020a0392909216919091179055565b610db6806100c36000396000f3006080604052600436106100b95763ffffffff7c0100000000000000000000000000000000000000000000000000000000600035041663025313a281146100c35780631d8acf1b146100f457806326839e531461012057806354fd4d501461014a5780635a8b1a9f146101d45780635c60da1b1461020257806369ba0fe914610217578063958a41dd1461022f578063b3447ac91461025b578063baed8bb114610273578063c6cb7ab81461028b578063f1739cae146102a3575b6100c16102c4565b005b3480156100cf57600080fd5b506100d86102d6565b60408051600160a060020a039092168252519081900360200190f35b34801561010057600080fd5b5061010c600435610313565b604080519115158252519081900360200190f35b34801561012c57600080fd5b50610138600435610328565b60408051918252519081900360200190f35b34801561015657600080fd5b5061015f61033a565b6040805160208082528351818301528351919283929083019185019080838360005b83811015610199578181015183820152602001610181565b50505050905090810190601f1680156101c65780820380516001836020036101000a031916815260200191505b509250505060405180910390f35b3480156101e057600080fd5b506100c16024600480358281019291013590600160a060020a039035166103ef565b34801561020e57600080fd5b506100d861045d565b34801561022357600080fd5b5061015f60043561048e565b6100c1602460048035828101929082013591600160a060020a0382351691604435908101910135610531565b34801561026757600080fd5b5061013860043561064e565b34801561027f57600080fd5b506100d8600435610660565b34801561029757600080fd5b5061015f60043561067b565b3480156102af57600080fd5b506100c1600160a060020a03600435166106e5565b6102d46102cf6107ca565b6107d9565b565b60006102e06107fd565b600160a060020a031633600160a060020a03161415610308576103016107fd565b9050610310565b6103106102c4565b90565b60009081526004602052604090205460ff1690565b60009081526020819052604090205490565b60606103446107fd565b600160a060020a031633600160a060020a0316141561030857600b805460408051602060026001851615610100026000190190941693909304601f810184900484028201840190925281815292918301828280156103e35780601f106103b8576101008083540402835291602001916103e3565b820191906000526020600020905b8154815290600101906020018083116103c657829003601f168201915b50505050509050610310565b6103f76107fd565b600160a060020a031633600160a060020a031614156104505761044b83838080601f0160208091040260200160405190810160405280939291908181526020018383808284375087945061080c9350505050565b610458565b6104586102c4565b505050565b60006104676107fd565b600160a060020a031633600160a060020a03161415610308576104886107ca565b50610310565b60008181526001602081815260409283902080548451600260001995831615610100029590950190911693909304601f810183900483028401830190945283835260609390918301828280156105255780601f106104fa57610100808354040283529160200191610525565b820191906000526020600020905b81548152906001019060200180831161050857829003601f168201915b50505050509050919050565b6105396107fd565b600160a060020a031633600160a060020a0316141561063f5761058d85858080601f0160208091040260200160405190810160405280939291908181526020018383808284375089945061080c9350505050565b30600160a060020a03163483836040518083838082843782019150509250505060006040518083038185875af192505050151561063a576040805160e560020a62461bcd02815260206004820152603960248201527f4661696c20696e20657865637574696e67207468652066756e6374696f6e206f60448201527f6620696d706c656d656e746174696f6e20636f6e747261637400000000000000606482015290519081900360840190fd5b610647565b6106476102c4565b5050505050565b60009081526006602052604090205490565b600090815260026020526040902054600160a060020a031690565b60008181526003602090815260409182902080548351601f60026101006001851615026000190190931692909204918201849004840281018401909452808452606093928301828280156105255780601f106104fa57610100808354040283529160200191610525565b6106ed6107fd565b600160a060020a031633600160a060020a031614156107bf57600160a060020a0381161515610766576040805160e560020a62461bcd02815260206004820152601860248201527f416464726573732073686f756c64206e6f742062652030780000000000000000604482015290519081900360640190fd5b7f5a3e66efaa1e445ebd894728a69d6959842ea1e97bd79b892797106e270efcd961078f6107fd565b60408051600160a060020a03928316815291841660208301528051918290030190a16107ba81610c5b565b6107c7565b6107c76102c4565b50565b600c54600160a060020a031690565b3660008037600080366000845af43d6000803e8080156107f8573d6000f35b3d6000fd5b600d54600160a060020a031690565b600c54600160a060020a038281169116148015906108325750600160a060020a03811615155b15156108d4576040805160e560020a62461bcd02815260206004820152604660248201527f4f6c642061646472657373206973206e6f7420616c6c6f77656420616e64206960448201527f6d706c656d656e746174696f6e20616464726573732073686f756c64206e6f7460648201527f2062652030780000000000000000000000000000000000000000000000000000608482015290519081900360a40190fd5b6108dd81610cea565b1515610959576040805160e560020a62461bcd02815260206004820152603b60248201527f43616e6e6f742073657420612070726f787920696d706c656d656e746174696f60448201527f6e20746f2061206e6f6e2d636f6e747261637420616464726573730000000000606482015290519081900360840190fd5b81516000106109d8576040805160e560020a62461bcd02815260206004820152602260248201527f56657273696f6e2073686f756c64206e6f7420626520656d707479207374726960448201527f6e67000000000000000000000000000000000000000000000000000000000000606482015290519081900360840190fd5b816040516020018082805190602001908083835b60208310610a0b5780518252601f1990920191602091820191016109ec565b6001836020036101000a0380198251168184511680821785525050505050509050019150506040516020818303038152906040526040518082805190602001908083835b60208310610a6e5780518252601f199092019160209182019101610a4f565b6001836020036101000a038019825116818451168082178552505050505050905001915050604051809103902060001916600b6040516020018082805460018160011615610100020316600290048015610aff5780601f10610add576101008083540402835291820191610aff565b820191906000526020600020905b815481529060010190602001808311610aeb575b50509150506040516020818303038152906040526040518082805190602001908083835b60208310610b425780518252601f199092019160209182019101610b23565b6001836020036101000a03801982511681845116808217855250505050505090500191505060405180910390206000191614151515610b8057600080fd5b8151610b9390600b906020850190610cf2565b50600c805473ffffffffffffffffffffffffffffffffffffffff1916600160a060020a03831690811790915560408051602080825285518183015285517f8e05e0e35ff592971ca8b477d4285a33a61ded208d644042667b78693a472f5e938793928392918301919085019080838360005b83811015610c1d578181015183820152602001610c05565b50505050905090810190601f168015610c4a5780820380516001836020036101000a031916815260200191505b509250505060405180910390a25050565b600160a060020a0381161515610cbb576040805160e560020a62461bcd02815260206004820152601860248201527f416464726573732073686f756c64206e6f742062652030780000000000000000604482015290519081900360640190fd5b600d805473ffffffffffffffffffffffffffffffffffffffff1916600160a060020a0392909216919091179055565b6000903b1190565b828054600181600116156101000203166002900490600052602060002090601f016020900481019282601f10610d3357805160ff1916838001178555610d60565b82800160010185558215610d60579182015b82811115610d60578251825591602001919060010190610d45565b50610d6c929150610d70565b5090565b61031091905b80821115610d6c5760008155600101610d765600a165627a7a723058205a838fa61f057922479337033d52686684ef99466ebb68e47cb386f50c3ad0fd0029",
  "source": "pragma solidity ^0.4.24;\n\nimport \"../storage/EternalStorage.sol\";\nimport \"./OwnedUpgradeabilityProxy.sol\";\n\n\n/**\n * @title ModuleRegistryProxy\n * @dev This proxy holds the storage of the ModuleRegistry contract and delegates every call to the current implementation set.\n * Besides, it allows upgrading the contract's behaviour towards further implementations, and provides basic\n * authorization control functionalities\n */\ncontract ModuleRegistryProxy is EternalStorage, OwnedUpgradeabilityProxy {\n\n}",
  "sourcePath": "/Users/jere/Code/polymath-apps/packages/polymath-shared/scripts/generateLocalBlockchain/contracts/proxy/ModuleRegistryProxy.sol",
  "compiler": {
    "name": "solc",
    "version": "0.4.24+commit.e67f0147.Emscripten.clang"
  },
  "schemaVersion": "2.0.1",
  "updatedAt": "2018-10-23T22:45:12.986Z"
}