{
  "contractName": "OwnedUpgradeabilityProxy",
  "abi": [
    {
      "inputs": [],
      "payable": false,
      "stateMutability": "nonpayable",
      "type": "constructor"
    },
    {
      "payable": true,
      "stateMutability": "payable",
      "type": "fallback"
    },
    {
      "anonymous": false,
      "inputs": [
        {
          "indexed": false,
          "name": "_previousOwner",
          "type": "address"
        },
        {
          "indexed": false,
          "name": "_newOwner",
          "type": "address"
        }
      ],
      "name": "ProxyOwnershipTransferred",
      "type": "event"
    },
    {
      "anonymous": false,
      "inputs": [
        {
          "indexed": false,
          "name": "_newVersion",
          "type": "string"
        },
        {
          "indexed": true,
          "name": "_newImplementation",
          "type": "address"
        }
      ],
      "name": "Upgraded",
      "type": "event"
    },
    {
      "constant": false,
      "inputs": [],
      "name": "proxyOwner",
      "outputs": [
        {
          "name": "",
          "type": "address"
        }
      ],
      "payable": false,
      "stateMutability": "nonpayable",
      "type": "function"
    },
    {
      "constant": false,
      "inputs": [],
      "name": "version",
      "outputs": [
        {
          "name": "",
          "type": "string"
        }
      ],
      "payable": false,
      "stateMutability": "nonpayable",
      "type": "function"
    },
    {
      "constant": false,
      "inputs": [],
      "name": "implementation",
      "outputs": [
        {
          "name": "",
          "type": "address"
        }
      ],
      "payable": false,
      "stateMutability": "nonpayable",
      "type": "function"
    },
    {
      "constant": false,
      "inputs": [
        {
          "name": "_newOwner",
          "type": "address"
        }
      ],
      "name": "transferProxyOwnership",
      "outputs": [],
      "payable": false,
      "stateMutability": "nonpayable",
      "type": "function"
    },
    {
      "constant": false,
      "inputs": [
        {
          "name": "_newVersion",
          "type": "string"
        },
        {
          "name": "_newImplementation",
          "type": "address"
        }
      ],
      "name": "upgradeTo",
      "outputs": [],
      "payable": false,
      "stateMutability": "nonpayable",
      "type": "function"
    },
    {
      "constant": false,
      "inputs": [
        {
          "name": "_newVersion",
          "type": "string"
        },
        {
          "name": "_newImplementation",
          "type": "address"
        },
        {
          "name": "_data",
          "type": "bytes"
        }
      ],
      "name": "upgradeToAndCall",
      "outputs": [],
      "payable": true,
      "stateMutability": "payable",
      "type": "function"
    }
  ],
  "bytecode": "0x608060405234801561001057600080fd5b5061002333640100000000610028810204565b6100c1565b600160a060020a038116151561009f57604080517f08c379a000000000000000000000000000000000000000000000000000000000815260206004820152601860248201527f416464726573732073686f756c64206e6f742062652030780000000000000000604482015290519081900360640190fd5b60028054600160a060020a031916600160a060020a0392909216919091179055565b610b5d806100d06000396000f3006080604052600436106100775763ffffffff7c0100000000000000000000000000000000000000000000000000000000600035041663025313a2811461008157806354fd4d50146100b25780635a8b1a9f1461013c5780635c60da1b1461016a578063958a41dd1461017f578063f1739cae146101ab575b61007f6101cc565b005b34801561008d57600080fd5b506100966101de565b60408051600160a060020a039092168252519081900360200190f35b3480156100be57600080fd5b506100c761021b565b6040805160208082528351818301528351919283929083019185019080838360005b838110156101015781810151838201526020016100e9565b50505050905090810190601f16801561012e5780820380516001836020036101000a031916815260200191505b509250505060405180910390f35b34801561014857600080fd5b5061007f6024600480358281019291013590600160a060020a039035166102d0565b34801561017657600080fd5b5061009661033e565b61007f602460048035828101929082013591600160a060020a038235169160443590810191013561036f565b3480156101b757600080fd5b5061007f600160a060020a036004351661048c565b6101dc6101d7610571565b610580565b565b60006101e86105a4565b600160a060020a031633600160a060020a03161415610210576102096105a4565b9050610218565b6102186101cc565b90565b60606102256105a4565b600160a060020a031633600160a060020a03161415610210576000805460408051602060026001851615610100026000190190941693909304601f810184900484028201840190925281815292918301828280156102c45780601f10610299576101008083540402835291602001916102c4565b820191906000526020600020905b8154815290600101906020018083116102a757829003601f168201915b50505050509050610218565b6102d86105a4565b600160a060020a031633600160a060020a031614156103315761032c83838080601f016020809104026020016040519081016040528093929190818152602001838380828437508794506105b39350505050565b610339565b6103396101cc565b505050565b60006103486105a4565b600160a060020a031633600160a060020a0316141561021057610369610571565b50610218565b6103776105a4565b600160a060020a031633600160a060020a0316141561047d576103cb85858080601f016020809104026020016040519081016040528093929190818152602001838380828437508994506105b39350505050565b30600160a060020a03163483836040518083838082843782019150509250505060006040518083038185875af1925050501515610478576040805160e560020a62461bcd02815260206004820152603960248201527f4661696c20696e20657865637574696e67207468652066756e6374696f6e206f60448201527f6620696d706c656d656e746174696f6e20636f6e747261637400000000000000606482015290519081900360840190fd5b610485565b6104856101cc565b5050505050565b6104946105a4565b600160a060020a031633600160a060020a0316141561056657600160a060020a038116151561050d576040805160e560020a62461bcd02815260206004820152601860248201527f416464726573732073686f756c64206e6f742062652030780000000000000000604482015290519081900360640190fd5b7f5a3e66efaa1e445ebd894728a69d6959842ea1e97bd79b892797106e270efcd96105366105a4565b60408051600160a060020a03928316815291841660208301528051918290030190a161056181610a02565b61056e565b61056e6101cc565b50565b600154600160a060020a031690565b3660008037600080366000845af43d6000803e80801561059f573d6000f35b3d6000fd5b600254600160a060020a031690565b600154600160a060020a038281169116148015906105d95750600160a060020a03811615155b151561067b576040805160e560020a62461bcd02815260206004820152604660248201527f4f6c642061646472657373206973206e6f7420616c6c6f77656420616e64206960448201527f6d706c656d656e746174696f6e20616464726573732073686f756c64206e6f7460648201527f2062652030780000000000000000000000000000000000000000000000000000608482015290519081900360a40190fd5b61068481610a91565b1515610700576040805160e560020a62461bcd02815260206004820152603b60248201527f43616e6e6f742073657420612070726f787920696d706c656d656e746174696f60448201527f6e20746f2061206e6f6e2d636f6e747261637420616464726573730000000000606482015290519081900360840190fd5b815160001061077f576040805160e560020a62461bcd02815260206004820152602260248201527f56657273696f6e2073686f756c64206e6f7420626520656d707479207374726960448201527f6e67000000000000000000000000000000000000000000000000000000000000606482015290519081900360840190fd5b816040516020018082805190602001908083835b602083106107b25780518252601f199092019160209182019101610793565b6001836020036101000a0380198251168184511680821785525050505050509050019150506040516020818303038152906040526040518082805190602001908083835b602083106108155780518252601f1990920191602091820191016107f6565b6001836020036101000a038019825116818451168082178552505050505050905001915050604051809103902060001916600060405160200180828054600181600116156101000203166002900480156108a65780601f106108845761010080835404028352918201916108a6565b820191906000526020600020905b815481529060010190602001808311610892575b50509150506040516020818303038152906040526040518082805190602001908083835b602083106108e95780518252601f1990920191602091820191016108ca565b6001836020036101000a0380198251168184511680821785525050505050509050019150506040518091039020600019161415151561092757600080fd5b815161093a906000906020850190610a99565b506001805473ffffffffffffffffffffffffffffffffffffffff1916600160a060020a03831690811790915560408051602080825285518183015285517f8e05e0e35ff592971ca8b477d4285a33a61ded208d644042667b78693a472f5e938793928392918301919085019080838360005b838110156109c45781810151838201526020016109ac565b50505050905090810190601f1680156109f15780820380516001836020036101000a031916815260200191505b509250505060405180910390a25050565b600160a060020a0381161515610a62576040805160e560020a62461bcd02815260206004820152601860248201527f416464726573732073686f756c64206e6f742062652030780000000000000000604482015290519081900360640190fd5b6002805473ffffffffffffffffffffffffffffffffffffffff1916600160a060020a0392909216919091179055565b6000903b1190565b828054600181600116156101000203166002900490600052602060002090601f016020900481019282601f10610ada57805160ff1916838001178555610b07565b82800160010185558215610b07579182015b82811115610b07578251825591602001919060010190610aec565b50610b13929150610b17565b5090565b61021891905b80821115610b135760008155600101610b1d5600a165627a7a72305820fed2c01d193ca0017e04ebc5a53f9ba67016c544bd3b3e0dae6ccef961f513f10029",
  "source": "pragma solidity ^0.4.18;\n\nimport \"./UpgradeabilityProxy.sol\";\n\n/**\n * @title OwnedUpgradeabilityProxy\n * @dev This contract combines an upgradeability proxy with basic authorization control functionalities\n */\ncontract OwnedUpgradeabilityProxy is UpgradeabilityProxy {\n\n    // Owner of the contract\n    address private __upgradeabilityOwner;\n\n    /**\n    * @dev Event to show ownership has been transferred\n    * @param _previousOwner representing the address of the previous owner\n    * @param _newOwner representing the address of the new owner\n    */\n    event ProxyOwnershipTransferred(address _previousOwner, address _newOwner);\n\n    /**\n    * @dev Throws if called by any account other than the owner.\n    */\n    modifier ifOwner() {\n        if (msg.sender == _upgradeabilityOwner()) {\n            _;\n        } else {\n            _fallback();\n        }\n    }\n\n    /**\n    * @dev the constructor sets the original owner of the contract to the sender account.\n    */\n    constructor() public {\n        _setUpgradeabilityOwner(msg.sender);\n    }\n\n    /**\n    * @dev Tells the address of the owner\n    * @return the address of the owner\n    */\n    function _upgradeabilityOwner() internal view returns (address) {\n        return __upgradeabilityOwner;\n    }\n\n    /**\n    * @dev Sets the address of the owner\n    */\n    function _setUpgradeabilityOwner(address _newUpgradeabilityOwner) internal {\n        require(_newUpgradeabilityOwner != address(0), \"Address should not be 0x\");\n        __upgradeabilityOwner = _newUpgradeabilityOwner;\n    }\n\n    /**\n    * @notice Internal function to provide the address of the implementation contract\n    */\n    function _implementation() internal view returns (address) {\n        return __implementation;\n    }\n\n    /**\n    * @dev Tells the address of the proxy owner\n    * @return the address of the proxy owner\n    */\n    function proxyOwner() external ifOwner returns (address) {\n        return _upgradeabilityOwner();\n    }\n\n    /**\n    * @dev Tells the version name of the current implementation\n    * @return string representing the name of the current version\n    */\n    function version() external ifOwner returns (string) {\n        return __version;\n    }\n\n    /**\n    * @dev Tells the address of the current implementation\n    * @return address of the current implementation\n    */\n    function implementation() external ifOwner returns (address) {\n        _implementation();\n    }\n\n    /**\n    * @dev Allows the current owner to transfer control of the contract to a newOwner.\n    * @param _newOwner The address to transfer ownership to.\n    */\n    function transferProxyOwnership(address _newOwner) external ifOwner {\n        require(_newOwner != address(0), \"Address should not be 0x\");\n        emit ProxyOwnershipTransferred(_upgradeabilityOwner(), _newOwner);\n        _setUpgradeabilityOwner(_newOwner);\n    }\n\n    /**\n    * @dev Allows the upgradeability owner to upgrade the current version of the proxy.\n    * @param _newVersion representing the version name of the new implementation to be set.\n    * @param _newImplementation representing the address of the new implementation to be set.\n    */\n    function upgradeTo(string _newVersion, address _newImplementation) external ifOwner {\n        _upgradeTo(_newVersion, _newImplementation);\n    }\n\n    /**\n    * @dev Allows the upgradeability owner to upgrade the current version of the proxy and call the new implementation\n    * to initialize whatever is needed through a low level call.\n    * @param _newVersion representing the version name of the new implementation to be set.\n    * @param _newImplementation representing the address of the new implementation to be set.\n    * @param _data represents the msg.data to bet sent in the low level call. This parameter may include the function\n    * signature of the implementation to be called with the needed payload\n    */\n    function upgradeToAndCall(string _newVersion, address _newImplementation, bytes _data) payable external ifOwner {\n        _upgradeTo(_newVersion, _newImplementation);\n        require(address(this).call.value(msg.value)(_data), \"Fail in executing the function of implementation contract\");\n    }\n\n}\n",
  "sourcePath": "/Users/rafaelvidaurre/Code/polymath/polymath-apps/packages/polymath-shared/scripts/generateLocalBlockchain/contracts/proxy/OwnedUpgradeabilityProxy.sol",
  "compiler": {
    "name": "solc",
    "version": "0.4.24+commit.e67f0147.Emscripten.clang"
  },
  "schemaVersion": "2.0.1",
  "updatedAt": "2018-10-10T21:31:06.519Z"
}