{
  "contractName": "Pausable",
  "abi": [
    {
      "constant": true,
      "inputs": [],
      "name": "paused",
      "outputs": [
        {
          "name": "",
          "type": "bool"
        }
      ],
      "payable": false,
      "stateMutability": "view",
      "type": "function"
    },
    {
      "anonymous": false,
      "inputs": [
        {
          "indexed": false,
          "name": "_timestammp",
          "type": "uint256"
        }
      ],
      "name": "Pause",
      "type": "event"
    },
    {
      "anonymous": false,
      "inputs": [
        {
          "indexed": false,
          "name": "_timestamp",
          "type": "uint256"
        }
      ],
      "name": "Unpause",
      "type": "event"
    }
  ],
  "bytecode": "0x60806040526000805460ff19169055348015601957600080fd5b50609e806100286000396000f300608060405260043610603e5763ffffffff7c01000000000000000000000000000000000000000000000000000000006000350416635c975abb81146043575b600080fd5b348015604e57600080fd5b5060556069565b604080519115158252519081900360200190f35b60005460ff16815600a165627a7a72305820ddd072c15ed1d529ffefd6844b9353e06049186c91c650696cb3dd5b7d73dfc80029",
  "source": "pragma solidity ^0.4.24;\n\n/**\n * @title Utility contract to allow pausing and unpausing of certain functions\n */\ncontract Pausable {\n\n    event Pause(uint256 _timestammp);\n    event Unpause(uint256 _timestamp);\n\n    bool public paused = false;\n\n    /**\n    * @notice Modifier to make a function callable only when the contract is not paused.\n    */\n    modifier whenNotPaused() {\n        require(!paused);\n        _;\n    }\n\n    /**\n    * @notice Modifier to make a function callable only when the contract is paused.\n    */\n    modifier whenPaused() {\n        require(paused);\n        _;\n    }\n\n   /**\n    * @notice called by the owner to pause, triggers stopped state\n    */\n    function _pause() internal {\n        require(!paused);\n        paused = true;\n        emit Pause(now);\n    }\n\n    /**\n    * @notice called by the owner to unpause, returns to normal state\n    */\n    function _unpause() internal {\n        require(paused);\n        paused = false;\n        emit Unpause(now);\n    }\n\n}\n",
  "sourcePath": "/Users/rafaelvidaurre/Code/polymath/polymath-apps/packages/polymath-shared/scripts/generateLocalBlockchain/contracts/Pausable.sol",
  "compiler": {
    "name": "solc",
    "version": "0.4.24+commit.e67f0147.Emscripten.clang"
  },
  "schemaVersion": "2.0.1",
  "updatedAt": "2018-10-18T19:17:46.286Z"
}