{
  "contractName": "PercentageTransferManager",
  "abi": [
    {
      "constant": true,
      "inputs": [],
      "name": "WHITELIST",
      "outputs": [
        {
          "name": "",
          "type": "bytes32"
        }
      ],
      "payable": false,
      "stateMutability": "view",
      "type": "function"
    },
    {
      "constant": true,
      "inputs": [],
      "name": "allowPrimaryIssuance",
      "outputs": [
        {
          "name": "",
          "type": "bool"
        }
      ],
      "payable": false,
      "stateMutability": "view",
      "type": "function"
    },
    {
      "constant": true,
      "inputs": [],
      "name": "ADMIN",
      "outputs": [
        {
          "name": "",
          "type": "bytes32"
        }
      ],
      "payable": false,
      "stateMutability": "view",
      "type": "function"
    },
    {
      "constant": true,
      "inputs": [],
      "name": "maxHolderPercentage",
      "outputs": [
        {
          "name": "",
          "type": "uint256"
        }
      ],
      "payable": false,
      "stateMutability": "view",
      "type": "function"
    },
    {
      "constant": false,
      "inputs": [],
      "name": "unpause",
      "outputs": [],
      "payable": false,
      "stateMutability": "nonpayable",
      "type": "function"
    },
    {
      "constant": true,
      "inputs": [],
      "name": "paused",
      "outputs": [
        {
          "name": "",
          "type": "bool"
        }
      ],
      "payable": false,
      "stateMutability": "view",
      "type": "function"
    },
    {
      "constant": false,
      "inputs": [
        {
          "name": "_amount",
          "type": "uint256"
        }
      ],
      "name": "takeFee",
      "outputs": [
        {
          "name": "",
          "type": "bool"
        }
      ],
      "payable": false,
      "stateMutability": "nonpayable",
      "type": "function"
    },
    {
      "constant": true,
      "inputs": [],
      "name": "polyToken",
      "outputs": [
        {
          "name": "",
          "type": "address"
        }
      ],
      "payable": false,
      "stateMutability": "view",
      "type": "function"
    },
    {
      "constant": false,
      "inputs": [],
      "name": "pause",
      "outputs": [],
      "payable": false,
      "stateMutability": "nonpayable",
      "type": "function"
    },
    {
      "constant": true,
      "inputs": [
        {
          "name": "",
          "type": "address"
        }
      ],
      "name": "whitelist",
      "outputs": [
        {
          "name": "",
          "type": "bool"
        }
      ],
      "payable": false,
      "stateMutability": "view",
      "type": "function"
    },
    {
      "constant": true,
      "inputs": [],
      "name": "securityToken",
      "outputs": [
        {
          "name": "",
          "type": "address"
        }
      ],
      "payable": false,
      "stateMutability": "view",
      "type": "function"
    },
    {
      "constant": true,
      "inputs": [],
      "name": "factory",
      "outputs": [
        {
          "name": "",
          "type": "address"
        }
      ],
      "payable": false,
      "stateMutability": "view",
      "type": "function"
    },
    {
      "constant": true,
      "inputs": [],
      "name": "FEE_ADMIN",
      "outputs": [
        {
          "name": "",
          "type": "bytes32"
        }
      ],
      "payable": false,
      "stateMutability": "view",
      "type": "function"
    },
    {
      "inputs": [
        {
          "name": "_securityToken",
          "type": "address"
        },
        {
          "name": "_polyAddress",
          "type": "address"
        }
      ],
      "payable": false,
      "stateMutability": "nonpayable",
      "type": "constructor"
    },
    {
      "anonymous": false,
      "inputs": [
        {
          "indexed": false,
          "name": "_oldHolderPercentage",
          "type": "uint256"
        },
        {
          "indexed": false,
          "name": "_newHolderPercentage",
          "type": "uint256"
        }
      ],
      "name": "ModifyHolderPercentage",
      "type": "event"
    },
    {
      "anonymous": false,
      "inputs": [
        {
          "indexed": false,
          "name": "_investor",
          "type": "address"
        },
        {
          "indexed": false,
          "name": "_dateAdded",
          "type": "uint256"
        },
        {
          "indexed": false,
          "name": "_addedBy",
          "type": "address"
        },
        {
          "indexed": false,
          "name": "_valid",
          "type": "bool"
        }
      ],
      "name": "ModifyWhitelist",
      "type": "event"
    },
    {
      "anonymous": false,
      "inputs": [
        {
          "indexed": false,
          "name": "_allowPrimaryIssuance",
          "type": "bool"
        },
        {
          "indexed": false,
          "name": "_timestamp",
          "type": "uint256"
        }
      ],
      "name": "SetAllowPrimaryIssuance",
      "type": "event"
    },
    {
      "anonymous": false,
      "inputs": [
        {
          "indexed": false,
          "name": "_timestammp",
          "type": "uint256"
        }
      ],
      "name": "Pause",
      "type": "event"
    },
    {
      "anonymous": false,
      "inputs": [
        {
          "indexed": false,
          "name": "_timestamp",
          "type": "uint256"
        }
      ],
      "name": "Unpause",
      "type": "event"
    },
    {
      "constant": false,
      "inputs": [
        {
          "name": "_from",
          "type": "address"
        },
        {
          "name": "_to",
          "type": "address"
        },
        {
          "name": "_amount",
          "type": "uint256"
        },
        {
          "name": "",
          "type": "bytes"
        },
        {
          "name": "",
          "type": "bool"
        }
      ],
      "name": "verifyTransfer",
      "outputs": [
        {
          "name": "",
          "type": "uint8"
        }
      ],
      "payable": false,
      "stateMutability": "nonpayable",
      "type": "function"
    },
    {
      "constant": false,
      "inputs": [
        {
          "name": "_maxHolderPercentage",
          "type": "uint256"
        },
        {
          "name": "_allowPrimaryIssuance",
          "type": "bool"
        }
      ],
      "name": "configure",
      "outputs": [],
      "payable": false,
      "stateMutability": "nonpayable",
      "type": "function"
    },
    {
      "constant": true,
      "inputs": [],
      "name": "getInitFunction",
      "outputs": [
        {
          "name": "",
          "type": "bytes4"
        }
      ],
      "payable": false,
      "stateMutability": "pure",
      "type": "function"
    },
    {
      "constant": false,
      "inputs": [
        {
          "name": "_maxHolderPercentage",
          "type": "uint256"
        }
      ],
      "name": "changeHolderPercentage",
      "outputs": [],
      "payable": false,
      "stateMutability": "nonpayable",
      "type": "function"
    },
    {
      "constant": false,
      "inputs": [
        {
          "name": "_investor",
          "type": "address"
        },
        {
          "name": "_valid",
          "type": "bool"
        }
      ],
      "name": "modifyWhitelist",
      "outputs": [],
      "payable": false,
      "stateMutability": "nonpayable",
      "type": "function"
    },
    {
      "constant": false,
      "inputs": [
        {
          "name": "_investors",
          "type": "address[]"
        },
        {
          "name": "_valids",
          "type": "bool[]"
        }
      ],
      "name": "modifyWhitelistMulti",
      "outputs": [],
      "payable": false,
      "stateMutability": "nonpayable",
      "type": "function"
    },
    {
      "constant": false,
      "inputs": [
        {
          "name": "_allowPrimaryIssuance",
          "type": "bool"
        }
      ],
      "name": "setAllowPrimaryIssuance",
      "outputs": [],
      "payable": false,
      "stateMutability": "nonpayable",
      "type": "function"
    },
    {
      "constant": true,
      "inputs": [],
      "name": "getPermissions",
      "outputs": [
        {
          "name": "",
          "type": "bytes32[]"
        }
      ],
      "payable": false,
      "stateMutability": "view",
      "type": "function"
    }
  ],
  "bytecode": "0x60806040526002805460a060020a60ff02191690556004805460ff1916600117905534801561002d57600080fd5b506040516040806117ce83398101604052805160209091015160018054600160a060020a03938416600160a060020a03199182161790915560008054821633179055600280549390921692169190911790556117408061008e6000396000f3006080604052600436106101035763ffffffff60e060020a600035041663060d206e81146101085780631613ec9d146101305780631bb7cc991461017a57806321c4a69c146101a15780632a0acc6a146101ca57806334dee40f146101df5780633f4ba83a146101f45780635c975abb146102095780635f7619a41461021e57806366ffebb8146102365780636faa22a51461024e5780638456cb591461027f5780639b19251a14610294578063a5891bb0146102b5578063b84dfbd214610343578063c3a07df614610358578063c45a0155146103bd578063d70afa96146103d2578063de6ee1bc146103e7578063e4d5a4911461047e578063fe8e43f314610498575b600080fd5b34801561011457600080fd5b5061012e600160a060020a036004351660243515156104b5565b005b34801561013c57600080fd5b506101456106b0565b604080517fffffffff000000000000000000000000000000000000000000000000000000009092168252519081900360200190f35b34801561018657600080fd5b5061018f6106e5565b60408051918252519081900360200190f35b3480156101ad57600080fd5b506101b66106f7565b604080519115158252519081900360200190f35b3480156101d657600080fd5b5061018f610700565b3480156101eb57600080fd5b5061018f610724565b34801561020057600080fd5b5061012e61072a565b34801561021557600080fd5b506101b6610812565b34801561022a57600080fd5b506101b6600435610822565b34801561024257600080fd5b5061012e600435610b3e565b34801561025a57600080fd5b50610263610c5e565b60408051600160a060020a039092168252519081900360200190f35b34801561028b57600080fd5b5061012e610c6d565b3480156102a057600080fd5b506101b6600160a060020a0360043516610d53565b3480156102c157600080fd5b506040805160206004803580820135838102808601850190965280855261012e95369593946024949385019291829185019084908082843750506040805187358901803560208181028481018201909552818452989b9a998901989297509082019550935083925085019084908082843750949750610d689650505050505050565b34801561034f57600080fd5b50610263610fa2565b34801561036457600080fd5b5061036d610fb1565b60408051602080825283518183015283519192839290830191858101910280838360005b838110156103a9578181015183820152602001610391565b505050509050019250505060405180910390f35b3480156103c957600080fd5b5061026361103d565b3480156103de57600080fd5b5061018f61104c565b3480156103f357600080fd5b50604080516020601f60643560048181013592830184900484028501840190955281845261045a94600160a060020a038135811695602480359092169560443595369560849401918190840183828082843750949750505050913515159250611070915050565b6040518082600381111561046a57fe5b60ff16815260200191505060405180910390f35b34801561048a57600080fd5b5061012e600435151561124e565b3480156104a457600080fd5b5061012e6004356024351515611497565b6000805160206116d5833981519152600080600160009054906101000a9004600160a060020a0316600160a060020a0316638da5cb5b6040518163ffffffff1660e060020a028152600401602060405180830381600087803b15801561051a57600080fd5b505af115801561052e573d6000803e3d6000fd5b505050506040513d602081101561054457600080fd5b505160005433600160a060020a0392831681149450911614905081806105675750805b806105f757506001546040805160e060020a638658b8b9028152336004820152306024820152604481018690529051600160a060020a0390921691638658b8b9916064808201926020929091908290030181600087803b1580156105ca57600080fd5b505af11580156105de573d6000803e3d6000fd5b505050506040513d60208110156105f457600080fd5b50515b151561063b576040805160e560020a62461bcd02815260206004820152601760248201526000805160206116f5833981519152604482015290519081900360640190fd5b600160a060020a038516600081815260056020908152604091829020805488151560ff1990911681179091558251938452429184019190915233838301526060830152517fb9c87398ee375029386fc3494eb0458b70bff2650ea828b7ae60da9c8aebc0f19181900360800190a15050505050565b604080517f636f6e6669677572652875696e743235362c626f6f6c290000000000000000008152905190819003601701902090565b6000805160206116d583398151915281565b60045460ff1681565b7f41444d494e00000000000000000000000000000000000000000000000000000081565b60035481565b600160009054906101000a9004600160a060020a0316600160a060020a0316638da5cb5b6040518163ffffffff1660e060020a028152600401602060405180830381600087803b15801561077d57600080fd5b505af1158015610791573d6000803e3d6000fd5b505050506040513d60208110156107a757600080fd5b5051600160a060020a03163314610808576040805160e560020a62461bcd02815260206004820152601360248201527f53656e646572206973206e6f74206f776e657200000000000000000000000000604482015290519081900360640190fd5b610810611512565b565b60025460a060020a900460ff1681565b60007f4645455f41444d494e0000000000000000000000000000000000000000000000600080600160009054906101000a9004600160a060020a0316600160a060020a0316638da5cb5b6040518163ffffffff1660e060020a028152600401602060405180830381600087803b15801561089b57600080fd5b505af11580156108af573d6000803e3d6000fd5b505050506040513d60208110156108c557600080fd5b505160005433600160a060020a0392831681149450911614905081806108e85750805b8061097857506001546040805160e060020a638658b8b9028152336004820152306024820152604481018690529051600160a060020a0390921691638658b8b9916064808201926020929091908290030181600087803b15801561094b57600080fd5b505af115801561095f573d6000803e3d6000fd5b505050506040513d602081101561097557600080fd5b50515b15156109bc576040805160e560020a62461bcd02815260206004820152601760248201526000805160206116f5833981519152604482015290519081900360640190fd5b60025460015460008054604080517f8da5cb5b0000000000000000000000000000000000000000000000000000000081529051600160a060020a03958616956323b872dd95811694931692638da5cb5b92600480820193602093909283900390910190829087803b158015610a3057600080fd5b505af1158015610a44573d6000803e3d6000fd5b505050506040513d6020811015610a5a57600080fd5b50516040805160e060020a63ffffffff8616028152600160a060020a039384166004820152929091166024830152604482018990525160648083019260209291908290030181600087803b158015610ab157600080fd5b505af1158015610ac5573d6000803e3d6000fd5b505050506040513d6020811015610adb57600080fd5b50511515610b33576040805160e560020a62461bcd02815260206004820152601260248201527f556e61626c6520746f2074616b65206665650000000000000000000000000000604482015290519081900360640190fd5b506001949350505050565b600160009054906101000a9004600160a060020a0316600160a060020a0316638da5cb5b6040518163ffffffff1660e060020a028152600401602060405180830381600087803b158015610b9157600080fd5b505af1158015610ba5573d6000803e3d6000fd5b505050506040513d6020811015610bbb57600080fd5b5051600160a060020a03163314610c1c576040805160e560020a62461bcd02815260206004820152601360248201527f53656e646572206973206e6f74206f776e657200000000000000000000000000604482015290519081900360640190fd5b600354604080519182526020820183905280517fe9b0fcc8b2a55be3a1a728fec777bf0d7aabab40dba65afc40b9987e51c185689281900390910190a1600355565b600254600160a060020a031681565b600160009054906101000a9004600160a060020a0316600160a060020a0316638da5cb5b6040518163ffffffff1660e060020a028152600401602060405180830381600087803b158015610cc057600080fd5b505af1158015610cd4573d6000803e3d6000fd5b505050506040513d6020811015610cea57600080fd5b5051600160a060020a03163314610d4b576040805160e560020a62461bcd02815260206004820152601360248201527f53656e646572206973206e6f74206f776e657200000000000000000000000000604482015290519081900360640190fd5b6108106115c8565b60056020526000908152604090205460ff1681565b60006000805160206116d5833981519152600080600160009054906101000a9004600160a060020a0316600160a060020a0316638da5cb5b6040518163ffffffff1660e060020a028152600401602060405180830381600087803b158015610dcf57600080fd5b505af1158015610de3573d6000803e3d6000fd5b505050506040513d6020811015610df957600080fd5b505160005433600160a060020a039283168114945091161490508180610e1c5750805b80610eac57506001546040805160e060020a638658b8b9028152336004820152306024820152604481018690529051600160a060020a0390921691638658b8b9916064808201926020929091908290030181600087803b158015610e7f57600080fd5b505af1158015610e93573d6000803e3d6000fd5b505050506040513d6020811015610ea957600080fd5b50515b1515610ef0576040805160e560020a62461bcd02815260206004820152601760248201526000805160206116f5833981519152604482015290519081900360640190fd5b8451865114610f49576040805160e560020a62461bcd02815260206004820152601c60248201527f496e707574206172726179206c656e677468206d69732d6d6174636800000000604482015290519081900360640190fd5b600093505b8551841015610f9a57610f8f8685815181101515610f6857fe5b906020019060200201518686815181101515610f8057fe5b906020019060200201516104b5565b600190930192610f4e565b505050505050565b600154600160a060020a031681565b6040805160028082526060808301845292839291906020830190803883390190505090506000805160206116d5833981519152816000815181101515610ff357fe5b6020908102909101015280517f41444d494e000000000000000000000000000000000000000000000000000000908290600190811061102e57fe5b60209081029091010152905090565b600054600160a060020a031681565b7f4645455f41444d494e000000000000000000000000000000000000000000000081565b600254600090819060a060020a900460ff16151561123f57600160a060020a0387161580156110a1575060045460ff165b156110af5760019150611244565b600160a060020a03861660009081526005602052604090205460ff16156110d95760019150611244565b600154604080517f70a08231000000000000000000000000000000000000000000000000000000008152600160a060020a038981166004830152915161117c93899316916370a082319160248083019260209291908290030181600087803b15801561114457600080fd5b505af1158015611158573d6000803e3d6000fd5b505050506040513d602081101561116e57600080fd5b50519063ffffffff61168316565b9050600354611227600160009054906101000a9004600160a060020a0316600160a060020a03166318160ddd6040518163ffffffff1660e060020a028152600401602060405180830381600087803b1580156111d757600080fd5b505af11580156111eb573d6000803e3d6000fd5b505050506040513d602081101561120157600080fd5b505161121b84670de0b6b3a764000063ffffffff61169616565b9063ffffffff6116bf16565b11156112365760009150611244565b60019150611244565b600191505b5095945050505050565b7f41444d494e000000000000000000000000000000000000000000000000000000600080600160009054906101000a9004600160a060020a0316600160a060020a0316638da5cb5b6040518163ffffffff1660e060020a028152600401602060405180830381600087803b1580156112c557600080fd5b505af11580156112d9573d6000803e3d6000fd5b505050506040513d60208110156112ef57600080fd5b505160005433600160a060020a0392831681149450911614905081806113125750805b806113a257506001546040805160e060020a638658b8b9028152336004820152306024820152604481018690529051600160a060020a0390921691638658b8b9916064808201926020929091908290030181600087803b15801561137557600080fd5b505af1158015611389573d6000803e3d6000fd5b505050506040513d602081101561139f57600080fd5b50515b15156113e6576040805160e560020a62461bcd02815260206004820152601760248201526000805160206116f5833981519152604482015290519081900360640190fd5b60045460ff1615158415151415611447576040805160e560020a62461bcd02815260206004820152601360248201527f4d757374206368616e67652073657474696e6700000000000000000000000000604482015290519081900360640190fd5b6004805460ff19168515159081179091556040805191825242602083015280517f18c46e6020c4726ca5632d0d9151af91a57008e48735d9c6283621f37fae3db59281900390910190a150505050565b600054600160a060020a031633146114f9576040805160e560020a62461bcd02815260206004820152601560248201527f53656e646572206973206e6f7420666163746f72790000000000000000000000604482015290519081900360640190fd5b6003919091556004805460ff1916911515919091179055565b60025460a060020a900460ff161515611575576040805160e560020a62461bcd02815260206004820152601660248201527f436f6e7472616374206973206e6f742070617573656400000000000000000000604482015290519081900360640190fd5b6002805474ff0000000000000000000000000000000000000000191690556040805142815290517faaa520fdd7d2c83061d632fa017b0432407e798818af63ea908589fceda39ab79181900360200190a1565b60025460a060020a900460ff161561162a576040805160e560020a62461bcd02815260206004820152601260248201527f436f6e7472616374206973207061757365640000000000000000000000000000604482015290519081900360640190fd5b6002805474ff0000000000000000000000000000000000000000191660a060020a1790556040805142815290517f68b095021b1f40fe513109f513c66692f0b3219aee674a69f4efc57badb8201d9181900360200190a1565b8181018281101561169057fe5b92915050565b60008215156116a757506000611690565b508181028183828115156116b757fe5b041461169057fe5b600081838115156116cc57fe5b049392505050560057484954454c49535400000000000000000000000000000000000000000000005065726d697373696f6e20636865636b206661696c6564000000000000000000a165627a7a7230582039e792c052e3eacccb93765dec1d89e1f15ee0e3dbfd1f68a27a38b1362a2c620029",
  "source": "pragma solidity ^0.4.24;\n\nimport \"./ITransferManager.sol\";\nimport \"openzeppelin-solidity/contracts/math/SafeMath.sol\";\n\n/**\n * @title Transfer Manager module for limiting percentage of token supply a single address can hold\n */\ncontract PercentageTransferManager is ITransferManager {\n    using SafeMath for uint256;\n\n    // Permission key for modifying the whitelist\n    bytes32 public constant WHITELIST = \"WHITELIST\";\n    bytes32 public constant ADMIN = \"ADMIN\";\n\n    // Maximum percentage that any holder can have, multiplied by 10**16 - e.g. 20% is 20 * 10**16\n    uint256 public maxHolderPercentage;\n\n    // Ignore transactions which are part of the primary issuance\n    bool public allowPrimaryIssuance = true;\n\n    // Addresses on this list are always able to send / receive tokens\n    mapping (address => bool) public whitelist;\n\n    event ModifyHolderPercentage(uint256 _oldHolderPercentage, uint256 _newHolderPercentage);\n    event ModifyWhitelist(\n        address _investor,\n        uint256 _dateAdded,\n        address _addedBy,\n        bool    _valid\n    );\n    event SetAllowPrimaryIssuance(bool _allowPrimaryIssuance, uint256 _timestamp);\n\n    /**\n     * @notice Constructor\n     * @param _securityToken Address of the security token\n     * @param _polyAddress Address of the polytoken\n     */\n    constructor (address _securityToken, address _polyAddress)\n    public\n    Module(_securityToken, _polyAddress)\n    {\n    }\n\n    /// @notice Used to verify the transfer transaction according to the rule implemented in the trnasfer managers\n    function verifyTransfer(address _from, address _to, uint256 _amount, bytes /* _data */, bool /* _isTransfer */) public returns(Result) {\n        if (!paused) {\n            if (_from == address(0) && allowPrimaryIssuance) {\n                return Result.NA;\n            }\n            // If an address is on the whitelist, it is allowed to hold more than maxHolderPercentage of the tokens.\n            if (whitelist[_to]) {\n                return Result.NA;\n            }\n            uint256 newBalance = ISecurityToken(securityToken).balanceOf(_to).add(_amount);\n            if (newBalance.mul(uint256(10)**18).div(ISecurityToken(securityToken).totalSupply()) > maxHolderPercentage) {\n                return Result.INVALID;\n            }\n            return Result.NA;\n        }\n        return Result.NA;\n    }\n\n    /**\n     * @notice Used to intialize the variables of the contract\n     * @param _maxHolderPercentage Maximum amount of ST20 tokens(in %) can hold by the investor\n     */\n    function configure(uint256 _maxHolderPercentage, bool _allowPrimaryIssuance) public onlyFactory {\n        maxHolderPercentage = _maxHolderPercentage;\n        allowPrimaryIssuance = _allowPrimaryIssuance;\n    }\n\n    /**\n     * @notice This function returns the signature of configure function\n     */\n    function getInitFunction() public pure returns (bytes4) {\n        return bytes4(keccak256(\"configure(uint256,bool)\"));\n    }\n\n    /**\n    * @notice sets the maximum percentage that an individual token holder can hold\n    * @param _maxHolderPercentage is the new maximum percentage (multiplied by 10**16)\n    */\n    function changeHolderPercentage(uint256 _maxHolderPercentage) public onlyOwner {\n        emit ModifyHolderPercentage(maxHolderPercentage, _maxHolderPercentage);\n        maxHolderPercentage = _maxHolderPercentage;\n    }\n\n    /**\n    * @notice adds or removes addresses from the whitelist.\n    * @param _investor is the address to whitelist\n    * @param _valid whether or not the address it to be added or removed from the whitelist\n    */\n    function modifyWhitelist(address _investor, bool _valid) public withPerm(WHITELIST) {\n        whitelist[_investor] = _valid;\n        emit ModifyWhitelist(_investor, now, msg.sender, _valid);\n    }\n\n    /**\n    * @notice adds or removes addresses from the whitelist.\n    * @param _investors Array of the addresses to whitelist\n    * @param _valids Array of boolean value to decide whether or not the address it to be added or removed from the whitelist\n    */\n    function modifyWhitelistMulti(address[] _investors, bool[] _valids) public withPerm(WHITELIST) {\n        require(_investors.length == _valids.length, \"Input array length mis-match\");\n        for (uint i = 0; i < _investors.length; i++) {\n            modifyWhitelist(_investors[i], _valids[i]);\n        }\n    }\n\n    /**\n    * @notice sets whether or not to consider primary issuance transfers\n    * @param _allowPrimaryIssuance whether to allow all primary issuance transfers\n    */\n    function setAllowPrimaryIssuance(bool _allowPrimaryIssuance) public withPerm(ADMIN) {\n        require(_allowPrimaryIssuance != allowPrimaryIssuance, \"Must change setting\");\n        allowPrimaryIssuance = _allowPrimaryIssuance;\n        emit SetAllowPrimaryIssuance(_allowPrimaryIssuance, now);\n    }\n\n    /**\n     * @notice Return the permissions flag that are associated with Percentage transfer Manager\n     */\n    function getPermissions() public view returns(bytes32[]) {\n        bytes32[] memory allPermissions = new bytes32[](2);\n        allPermissions[0] = WHITELIST;\n        allPermissions[1] = ADMIN;\n        return allPermissions;\n    }\n\n}\n",
  "sourcePath": "/Users/rafaelvidaurre/Code/polymath/polymath-apps/packages/polymath-shared/scripts/generateLocalBlockchain/contracts/modules/TransferManager/PercentageTransferManager.sol",
  "compiler": {
    "name": "solc",
    "version": "0.4.24+commit.e67f0147.Emscripten.clang"
  },
  "schemaVersion": "2.0.1",
  "updatedAt": "2018-10-10T21:31:06.455Z"
}