{
  "contractName": "PolymathRegistry",
  "abi": [
    {
      "constant": true,
      "inputs": [
        {
          "name": "",
          "type": "bytes32"
        }
      ],
      "name": "storedAddresses",
      "outputs": [
        {
          "name": "",
          "type": "address"
        }
      ],
      "payable": false,
      "stateMutability": "view",
      "type": "function"
    },
    {
      "constant": false,
      "inputs": [],
      "name": "renounceOwnership",
      "outputs": [],
      "payable": false,
      "stateMutability": "nonpayable",
      "type": "function"
    },
    {
      "constant": false,
      "inputs": [
        {
          "name": "_tokenContract",
          "type": "address"
        }
      ],
      "name": "reclaimERC20",
      "outputs": [],
      "payable": false,
      "stateMutability": "nonpayable",
      "type": "function"
    },
    {
      "constant": true,
      "inputs": [],
      "name": "owner",
      "outputs": [
        {
          "name": "",
          "type": "address"
        }
      ],
      "payable": false,
      "stateMutability": "view",
      "type": "function"
    },
    {
      "constant": false,
      "inputs": [
        {
          "name": "_newOwner",
          "type": "address"
        }
      ],
      "name": "transferOwnership",
      "outputs": [],
      "payable": false,
      "stateMutability": "nonpayable",
      "type": "function"
    },
    {
      "anonymous": false,
      "inputs": [
        {
          "indexed": false,
          "name": "_nameKey",
          "type": "string"
        },
        {
          "indexed": true,
          "name": "_oldAddress",
          "type": "address"
        },
        {
          "indexed": true,
          "name": "_newAddress",
          "type": "address"
        }
      ],
      "name": "LogChangeAddress",
      "type": "event"
    },
    {
      "anonymous": false,
      "inputs": [
        {
          "indexed": true,
          "name": "previousOwner",
          "type": "address"
        }
      ],
      "name": "OwnershipRenounced",
      "type": "event"
    },
    {
      "anonymous": false,
      "inputs": [
        {
          "indexed": true,
          "name": "previousOwner",
          "type": "address"
        },
        {
          "indexed": true,
          "name": "newOwner",
          "type": "address"
        }
      ],
      "name": "OwnershipTransferred",
      "type": "event"
    },
    {
      "constant": true,
      "inputs": [
        {
          "name": "_nameKey",
          "type": "string"
        }
      ],
      "name": "getAddress",
      "outputs": [
        {
          "name": "",
          "type": "address"
        }
      ],
      "payable": false,
      "stateMutability": "view",
      "type": "function"
    },
    {
      "constant": false,
      "inputs": [
        {
          "name": "_nameKey",
          "type": "string"
        },
        {
          "name": "_newAddress",
          "type": "address"
        }
      ],
      "name": "changeAddress",
      "outputs": [],
      "payable": false,
      "stateMutability": "nonpayable",
      "type": "function"
    }
  ],
  "bytecode": "0x608060405260008054600160a060020a0319163317905561071a806100256000396000f3006080604052600436106100825763ffffffff7c01000000000000000000000000000000000000000000000000000000006000350416636c47e36f8114610087578063715018a6146100bb5780638905fd4f146100d25780638da5cb5b146100f3578063a7dbb40214610108578063bf40fac11461016c578063f2fde38b146101c5575b600080fd5b34801561009357600080fd5b5061009f6004356101e6565b60408051600160a060020a039092168252519081900360200190f35b3480156100c757600080fd5b506100d0610201565b005b3480156100de57600080fd5b506100d0600160a060020a036004351661026d565b3480156100ff57600080fd5b5061009f6103dc565b34801561011457600080fd5b506040805160206004803580820135601f81018490048402850184019095528484526100d094369492936024939284019190819084018382808284375094975050509235600160a060020a031693506103eb92505050565b34801561017857600080fd5b506040805160206004803580820135601f810184900484028501840190955284845261009f9436949293602493928401919081908401838280828437509497506105499650505050505050565b3480156101d157600080fd5b506100d0600160a060020a036004351661064e565b600160205260009081526040902054600160a060020a031681565b600054600160a060020a0316331461021857600080fd5b60008054604051600160a060020a03909116917ff8df31144d9c2f0f6b59d69b8b98abd5459d07f2742c4df920b25aae33c6482091a26000805473ffffffffffffffffffffffffffffffffffffffff19169055565b600080548190600160a060020a0316331461028757600080fd5b600160a060020a038316151561029c57600080fd5b604080517f70a082310000000000000000000000000000000000000000000000000000000081523060048201529051849350600160a060020a038416916370a082319160248083019260209291908290030181600087803b15801561030057600080fd5b505af1158015610314573d6000803e3d6000fd5b505050506040513d602081101561032a57600080fd5b505160008054604080517fa9059cbb000000000000000000000000000000000000000000000000000000008152600160a060020a0392831660048201526024810185905290519394509085169263a9059cbb92604480840193602093929083900390910190829087803b1580156103a057600080fd5b505af11580156103b4573d6000803e3d6000fd5b505050506040513d60208110156103ca57600080fd5b505115156103d757600080fd5b505050565b600054600160a060020a031681565b60008054600160a060020a0316331461040357600080fd5b826040518082805190602001908083835b602083106104335780518252601f199092019160209182019101610414565b51815160209384036101000a600019018019909216911617905260408051929094018290038220600081815260018352858120548385528b51858501528b51929950600160a060020a038b811699501696507f38575ca154acfc441b9e175568ded9b32501025df333c637fb24985161f53981958b9550849390840192908601918190849084905b838110156104d35781810151838201526020016104bb565b50505050905090810190601f1680156105005780820380516001836020036101000a031916815260200191505b509250505060405180910390a36000908152600160205260409020805473ffffffffffffffffffffffffffffffffffffffff1916600160a060020a039290921691909117905550565b600080826040518082805190602001908083835b6020831061057c5780518252601f19909201916020918201910161055d565b51815160209384036101000a60001901801990921691161790526040805192909401829003909120600081815260019092529290205491945050600160a060020a031615159150610630905057604080517f08c379a000000000000000000000000000000000000000000000000000000000815260206004820152601360248201527f496e76616c69642061646472657373206b657900000000000000000000000000604482015290519081900360640190fd5b600090815260016020526040902054600160a060020a031692915050565b600054600160a060020a0316331461066557600080fd5b61066e81610671565b50565b600160a060020a038116151561068657600080fd5b60008054604051600160a060020a03808516939216917f8be0079c531659141344cd1fd0a4f28419497f9722a3daafe3b4186f6b6457e091a36000805473ffffffffffffffffffffffffffffffffffffffff1916600160a060020a03929092169190911790555600a165627a7a72305820dce06e85a8c44e5f98a8062a1270dff1959739e8ee839dcd291e1361a0d2b66c0029",
  "source": "pragma solidity ^0.4.24;\n\nimport \"./Pausable.sol\";\nimport \"./ReclaimTokens.sol\";\n\n/**\n * @title Core functionality for registry upgradability\n */\ncontract PolymathRegistry is ReclaimTokens {\n\n    mapping (bytes32 => address) public storedAddresses;\n\n    event LogChangeAddress(string _nameKey, address indexed _oldAddress, address indexed _newAddress);\n\n    /**\n     * @notice Get the contract address\n     * @param _nameKey is the key for the contract address mapping\n     * @return address\n     */\n    function getAddress(string _nameKey) view public returns(address) {\n        bytes32 key = keccak256(bytes(_nameKey));\n        require(storedAddresses[key] != address(0), \"Invalid address key\");\n        return storedAddresses[key];\n    }\n\n    /**\n     * @notice change the contract address\n     * @param _nameKey is the key for the contract address mapping\n     * @param _newAddress is the new contract address\n     */\n    function changeAddress(string _nameKey, address _newAddress) public onlyOwner {\n        bytes32 key = keccak256(bytes(_nameKey));\n        emit LogChangeAddress(_nameKey, storedAddresses[key], _newAddress);\n        storedAddresses[key] = _newAddress;\n    }\n\n\n}\n",
  "sourcePath": "/Users/rafaelvidaurre/Code/polymath/polymath-apps/packages/polymath-shared/scripts/generateLocalBlockchain/contracts/PolymathRegistry.sol",
  "compiler": {
    "name": "solc",
    "version": "0.4.24+commit.e67f0147.Emscripten.clang"
  },
  "schemaVersion": "2.0.1",
  "updatedAt": "2018-10-10T15:54:36.818Z"
}