{
  "contractName": "PreSaleSTO",
  "abi": [
    {
      "constant": true,
      "inputs": [],
      "name": "endTime",
      "outputs": [
        {
          "name": "",
          "type": "uint256"
        }
      ],
      "payable": false,
      "stateMutability": "view",
      "type": "function"
    },
    {
      "constant": true,
      "inputs": [],
      "name": "PRE_SALE_ADMIN",
      "outputs": [
        {
          "name": "",
          "type": "bytes32"
        }
      ],
      "payable": false,
      "stateMutability": "view",
      "type": "function"
    },
    {
      "constant": true,
      "inputs": [],
      "name": "paused",
      "outputs": [
        {
          "name": "",
          "type": "bool"
        }
      ],
      "payable": false,
      "stateMutability": "view",
      "type": "function"
    },
    {
      "constant": false,
      "inputs": [
        {
          "name": "_amount",
          "type": "uint256"
        }
      ],
      "name": "takeFee",
      "outputs": [
        {
          "name": "",
          "type": "bool"
        }
      ],
      "payable": false,
      "stateMutability": "nonpayable",
      "type": "function"
    },
    {
      "constant": true,
      "inputs": [
        {
          "name": "",
          "type": "address"
        }
      ],
      "name": "investors",
      "outputs": [
        {
          "name": "",
          "type": "uint256"
        }
      ],
      "payable": false,
      "stateMutability": "view",
      "type": "function"
    },
    {
      "constant": true,
      "inputs": [],
      "name": "polyToken",
      "outputs": [
        {
          "name": "",
          "type": "address"
        }
      ],
      "payable": false,
      "stateMutability": "view",
      "type": "function"
    },
    {
      "constant": true,
      "inputs": [],
      "name": "startTime",
      "outputs": [
        {
          "name": "",
          "type": "uint256"
        }
      ],
      "payable": false,
      "stateMutability": "view",
      "type": "function"
    },
    {
      "constant": false,
      "inputs": [],
      "name": "pause",
      "outputs": [],
      "payable": false,
      "stateMutability": "nonpayable",
      "type": "function"
    },
    {
      "constant": false,
      "inputs": [
        {
          "name": "_tokenContract",
          "type": "address"
        }
      ],
      "name": "reclaimERC20",
      "outputs": [],
      "payable": false,
      "stateMutability": "nonpayable",
      "type": "function"
    },
    {
      "constant": true,
      "inputs": [
        {
          "name": "_beneficiary",
          "type": "address"
        },
        {
          "name": "_fundsAmount",
          "type": "uint256"
        }
      ],
      "name": "verifyInvestment",
      "outputs": [
        {
          "name": "",
          "type": "bool"
        }
      ],
      "payable": false,
      "stateMutability": "view",
      "type": "function"
    },
    {
      "constant": true,
      "inputs": [],
      "name": "securityToken",
      "outputs": [
        {
          "name": "",
          "type": "address"
        }
      ],
      "payable": false,
      "stateMutability": "view",
      "type": "function"
    },
    {
      "constant": true,
      "inputs": [],
      "name": "polyRaised",
      "outputs": [
        {
          "name": "",
          "type": "uint256"
        }
      ],
      "payable": false,
      "stateMutability": "view",
      "type": "function"
    },
    {
      "constant": true,
      "inputs": [],
      "name": "factory",
      "outputs": [
        {
          "name": "",
          "type": "address"
        }
      ],
      "payable": false,
      "stateMutability": "view",
      "type": "function"
    },
    {
      "constant": true,
      "inputs": [],
      "name": "etherRaised",
      "outputs": [
        {
          "name": "",
          "type": "uint256"
        }
      ],
      "payable": false,
      "stateMutability": "view",
      "type": "function"
    },
    {
      "constant": true,
      "inputs": [],
      "name": "fundraiseType",
      "outputs": [
        {
          "name": "",
          "type": "uint8"
        }
      ],
      "payable": false,
      "stateMutability": "view",
      "type": "function"
    },
    {
      "constant": true,
      "inputs": [],
      "name": "FEE_ADMIN",
      "outputs": [
        {
          "name": "",
          "type": "bytes32"
        }
      ],
      "payable": false,
      "stateMutability": "view",
      "type": "function"
    },
    {
      "constant": true,
      "inputs": [],
      "name": "investorCount",
      "outputs": [
        {
          "name": "",
          "type": "uint256"
        }
      ],
      "payable": false,
      "stateMutability": "view",
      "type": "function"
    },
    {
      "constant": false,
      "inputs": [
        {
          "name": "_newEndDate",
          "type": "uint256"
        }
      ],
      "name": "unpause",
      "outputs": [],
      "payable": false,
      "stateMutability": "nonpayable",
      "type": "function"
    },
    {
      "inputs": [
        {
          "name": "_securityToken",
          "type": "address"
        },
        {
          "name": "_polyAddress",
          "type": "address"
        }
      ],
      "payable": false,
      "stateMutability": "nonpayable",
      "type": "constructor"
    },
    {
      "anonymous": false,
      "inputs": [
        {
          "indexed": false,
          "name": "_investor",
          "type": "address"
        },
        {
          "indexed": false,
          "name": "_amount",
          "type": "uint256"
        }
      ],
      "name": "TokensAllocated",
      "type": "event"
    },
    {
      "anonymous": false,
      "inputs": [
        {
          "indexed": false,
          "name": "_timestammp",
          "type": "uint256"
        }
      ],
      "name": "Pause",
      "type": "event"
    },
    {
      "anonymous": false,
      "inputs": [
        {
          "indexed": false,
          "name": "_timestamp",
          "type": "uint256"
        }
      ],
      "name": "Unpause",
      "type": "event"
    },
    {
      "constant": false,
      "inputs": [
        {
          "name": "_endTime",
          "type": "uint256"
        }
      ],
      "name": "configure",
      "outputs": [],
      "payable": false,
      "stateMutability": "nonpayable",
      "type": "function"
    },
    {
      "constant": true,
      "inputs": [],
      "name": "getInitFunction",
      "outputs": [
        {
          "name": "",
          "type": "bytes4"
        }
      ],
      "payable": false,
      "stateMutability": "pure",
      "type": "function"
    },
    {
      "constant": true,
      "inputs": [],
      "name": "getRaisedEther",
      "outputs": [
        {
          "name": "",
          "type": "uint256"
        }
      ],
      "payable": false,
      "stateMutability": "view",
      "type": "function"
    },
    {
      "constant": true,
      "inputs": [],
      "name": "getRaisedPOLY",
      "outputs": [
        {
          "name": "",
          "type": "uint256"
        }
      ],
      "payable": false,
      "stateMutability": "view",
      "type": "function"
    },
    {
      "constant": true,
      "inputs": [],
      "name": "getNumberInvestors",
      "outputs": [
        {
          "name": "",
          "type": "uint256"
        }
      ],
      "payable": false,
      "stateMutability": "view",
      "type": "function"
    },
    {
      "constant": true,
      "inputs": [],
      "name": "getPermissions",
      "outputs": [
        {
          "name": "",
          "type": "bytes32[]"
        }
      ],
      "payable": false,
      "stateMutability": "view",
      "type": "function"
    },
    {
      "constant": false,
      "inputs": [
        {
          "name": "_investor",
          "type": "address"
        },
        {
          "name": "_amount",
          "type": "uint256"
        },
        {
          "name": "_etherContributed",
          "type": "uint256"
        },
        {
          "name": "_polyContributed",
          "type": "uint256"
        }
      ],
      "name": "allocateTokens",
      "outputs": [],
      "payable": false,
      "stateMutability": "nonpayable",
      "type": "function"
    },
    {
      "constant": false,
      "inputs": [
        {
          "name": "_investors",
          "type": "address[]"
        },
        {
          "name": "_amounts",
          "type": "uint256[]"
        },
        {
          "name": "_etherContributed",
          "type": "uint256[]"
        },
        {
          "name": "_polyContributed",
          "type": "uint256[]"
        }
      ],
      "name": "allocateTokensMulti",
      "outputs": [],
      "payable": false,
      "stateMutability": "nonpayable",
      "type": "function"
    }
  ],
  "bytecode": "0x60806040526002805460a060020a60ff021916905534801561002057600080fd5b5060405160408061196683398101604052805160209091015160018054600160a060020a03938416600160a060020a03199182161790915560008054821633179055600280549390921692169190911790556118e5806100816000396000f30060806040526004361061013a5763ffffffff60e060020a6000350416631613ec9d811461013f5780631903fe4f146101895780631eb25e0a1461028b5780633197cbb6146102a357806335ff3a51146102ca57806338c59de9146102df57806351eea775146102f45780635c975abb146103095780635f7619a4146103325780636f7bc9be1461034a5780636faa22a51461036b57806378e979251461039c5780638456cb59146103b15780638905fd4f146103c65780639a903ca7146103e7578063a3fb8f1514610411578063a412f87c14610426578063b84dfbd21461044a578063be16338c1461045f578063c3a07df614610474578063c45a0155146104d9578063cd72ab69146104ee578063d0d832ad14610503578063d70afa961461053c578063d7e64c0014610551578063fabc1cbc14610566575b600080fd5b34801561014b57600080fd5b5061015461057e565b604080517fffffffff000000000000000000000000000000000000000000000000000000009092168252519081900360200190f35b34801561019557600080fd5b506040805160206004803580820135838102808601850190965280855261028995369593946024949385019291829185019084908082843750506040805187358901803560208181028481018201909552818452989b9a998901989297509082019550935083925085019084908082843750506040805187358901803560208181028481018201909552818452989b9a998901989297509082019550935083925085019084908082843750506040805187358901803560208181028481018201909552818452989b9a9989019892975090820195509350839250850190849080828437509497506105b39650505050505050565b005b34801561029757600080fd5b5061028960043561096b565b3480156102af57600080fd5b506102b8610a29565b60408051918252519081900360200190f35b3480156102d657600080fd5b506102b8610a2f565b3480156102eb57600080fd5b506102b8610a35565b34801561030057600080fd5b506102b8610a3b565b34801561031557600080fd5b5061031e610a4d565b604080519115158252519081900360200190f35b34801561033e57600080fd5b5061031e600435610a6e565b34801561035657600080fd5b506102b8600160a060020a0360043516610dad565b34801561037757600080fd5b50610380610dbf565b60408051600160a060020a039092168252519081900360200190f35b3480156103a857600080fd5b506102b8610dce565b3480156103bd57600080fd5b50610289610dd4565b3480156103d257600080fd5b50610289600160a060020a0360043516610eca565b3480156103f357600080fd5b50610289600160a060020a03600435166024356044356064356110f8565b34801561041d57600080fd5b506102b8611511565b34801561043257600080fd5b5061031e600160a060020a0360043516602435611517565b34801561045657600080fd5b506103806115bb565b34801561046b57600080fd5b506102b86115ca565b34801561048057600080fd5b506104896115d0565b60408051602080825283518183015283519192839290830191858101910280838360005b838110156104c55781810151838201526020016104ad565b505050509050019250505060405180910390f35b3480156104e557600080fd5b50610380611622565b3480156104fa57600080fd5b506102b8611631565b34801561050f57600080fd5b50610518611637565b6040518082600181111561052857fe5b60ff16815260200191505060405180910390f35b34801561054857600080fd5b506102b8611659565b34801561055d57600080fd5b506102b861167d565b34801561057257600080fd5b50610289600435611683565b604080517f636f6e6669677572652875696e743235362900000000000000000000000000008152905190819003601201902090565b600060008051602061189a833981519152600080600160009054906101000a9004600160a060020a0316600160a060020a0316638da5cb5b6040518163ffffffff1660e060020a028152600401602060405180830381600087803b15801561061a57600080fd5b505af115801561062e573d6000803e3d6000fd5b505050506040513d602081101561064457600080fd5b505160005433600160a060020a0392831681149450911614905081806106675750805b8061070d5750600154604080517f8658b8b9000000000000000000000000000000000000000000000000000000008152336004820152306024820152604481018690529051600160a060020a0390921691638658b8b9916064808201926020929091908290030181600087803b1580156106e057600080fd5b505af11580156106f4573d6000803e3d6000fd5b505050506040513d602081101561070a57600080fd5b50515b1515610763576040805160e560020a62461bcd02815260206004820152601760248201527f5065726d697373696f6e20636865636b206661696c6564000000000000000000604482015290519081900360640190fd5b86518851146107e2576040805160e560020a62461bcd02815260206004820152602560248201527f4d69732d6d6174636820696e20746865206c656e677468206f6620746865206160448201527f7272617973000000000000000000000000000000000000000000000000000000606482015290519081900360840190fd5b8451865114610861576040805160e560020a62461bcd02815260206004820152602560248201527f4d69732d6d6174636820696e20746865206c656e677468206f6620746865206160448201527f7272617973000000000000000000000000000000000000000000000000000000606482015290519081900360840190fd5b87518651146108e0576040805160e560020a62461bcd02815260206004820152602560248201527f4d69732d6d6174636820696e20746865206c656e677468206f6620746865206160448201527f7272617973000000000000000000000000000000000000000000000000000000606482015290519081900360840190fd5b600093505b87518410156109615761095688858151811015156108ff57fe5b90602001906020020151888681518110151561091757fe5b90602001906020020151888781518110151561092f57fe5b90602001906020020151888881518110151561094757fe5b906020019060200201516110f8565b6001909301926108e5565b5050505050505050565b600054600160a060020a031633146109cd576040805160e560020a62461bcd02815260206004820152601560248201527f53656e646572206973206e6f7420666163746f72790000000000000000000000604482015290519081900360640190fd5b801515610a24576040805160e560020a62461bcd02815260206004820152601760248201527f656e6454696d652073686f756c64206e6f742062652030000000000000000000604482015290519081900360640190fd5b600455565b60045481565b60075490565b60065490565b60008051602061189a83398151915281565b60025474010000000000000000000000000000000000000000900460ff1681565b60007f4645455f41444d494e0000000000000000000000000000000000000000000000600080600160009054906101000a9004600160a060020a0316600160a060020a0316638da5cb5b6040518163ffffffff1660e060020a028152600401602060405180830381600087803b158015610ae757600080fd5b505af1158015610afb573d6000803e3d6000fd5b505050506040513d6020811015610b1157600080fd5b505160005433600160a060020a039283168114945091161490508180610b345750805b80610bda5750600154604080517f8658b8b9000000000000000000000000000000000000000000000000000000008152336004820152306024820152604481018690529051600160a060020a0390921691638658b8b9916064808201926020929091908290030181600087803b158015610bad57600080fd5b505af1158015610bc1573d6000803e3d6000fd5b505050506040513d6020811015610bd757600080fd5b50515b1515610c30576040805160e560020a62461bcd02815260206004820152601760248201527f5065726d697373696f6e20636865636b206661696c6564000000000000000000604482015290519081900360640190fd5b60025460008054604080517f8da5cb5b0000000000000000000000000000000000000000000000000000000081529051600160a060020a03948516946323b872dd94309490911692638da5cb5b9260048083019360209383900390910190829087803b158015610c9f57600080fd5b505af1158015610cb3573d6000803e3d6000fd5b505050506040513d6020811015610cc957600080fd5b50516040805160e060020a63ffffffff8616028152600160a060020a039384166004820152929091166024830152604482018990525160648083019260209291908290030181600087803b158015610d2057600080fd5b505af1158015610d34573d6000803e3d6000fd5b505050506040513d6020811015610d4a57600080fd5b50511515610da2576040805160e560020a62461bcd02815260206004820152601260248201527f556e61626c6520746f2074616b65206665650000000000000000000000000000604482015290519081900360640190fd5b506001949350505050565b60056020526000908152604090205481565b600254600160a060020a031681565b60035481565b600160009054906101000a9004600160a060020a0316600160a060020a0316638da5cb5b6040518163ffffffff1660e060020a028152600401602060405180830381600087803b158015610e2757600080fd5b505af1158015610e3b573d6000803e3d6000fd5b505050506040513d6020811015610e5157600080fd5b5051600160a060020a03163314610eb2576040805160e560020a62461bcd02815260206004820152601360248201527f53656e646572206973206e6f74206f776e657200000000000000000000000000604482015290519081900360640190fd5b6004544210610ec057600080fd5b610ec8611778565b565b600080600160009054906101000a9004600160a060020a0316600160a060020a0316638da5cb5b6040518163ffffffff1660e060020a028152600401602060405180830381600087803b158015610f2057600080fd5b505af1158015610f34573d6000803e3d6000fd5b505050506040513d6020811015610f4a57600080fd5b5051600160a060020a03163314610fab576040805160e560020a62461bcd02815260206004820152601360248201527f53656e646572206973206e6f74206f776e657200000000000000000000000000604482015290519081900360640190fd5b600160a060020a0383161515610fc057600080fd5b604080517f70a082310000000000000000000000000000000000000000000000000000000081523060048201529051849350600160a060020a038416916370a082319160248083019260209291908290030181600087803b15801561102457600080fd5b505af1158015611038573d6000803e3d6000fd5b505050506040513d602081101561104e57600080fd5b5051604080517fa9059cbb000000000000000000000000000000000000000000000000000000008152336004820152602481018390529051919250600160a060020a0384169163a9059cbb916044808201926020929091908290030181600087803b1580156110bc57600080fd5b505af11580156110d0573d6000803e3d6000fd5b505050506040513d60208110156110e657600080fd5b505115156110f357600080fd5b505050565b60008051602061189a833981519152600080600160009054906101000a9004600160a060020a0316600160a060020a0316638da5cb5b6040518163ffffffff1660e060020a028152600401602060405180830381600087803b15801561115d57600080fd5b505af1158015611171573d6000803e3d6000fd5b505050506040513d602081101561118757600080fd5b505160005433600160a060020a0392831681149450911614905081806111aa5750805b806112505750600154604080517f8658b8b9000000000000000000000000000000000000000000000000000000008152336004820152306024820152604481018690529051600160a060020a0390921691638658b8b9916064808201926020929091908290030181600087803b15801561122357600080fd5b505af1158015611237573d6000803e3d6000fd5b505050506040513d602081101561124d57600080fd5b50515b15156112a6576040805160e560020a62461bcd02815260206004820152601760248201527f5065726d697373696f6e20636865636b206661696c6564000000000000000000604482015290519081900360640190fd5b600454421115611326576040805160e560020a62461bcd02815260206004820152602960248201527f43757272656e742074696d652073686f756c64206c657373207468616e20746860448201527f6520656e6454696d650000000000000000000000000000000000000000000000606482015290519081900360840190fd5b600086116113a4576040805160e560020a62461bcd02815260206004820152603160248201527f4e6f2e206f6620746f6b656e732070726f76696465642073686f756c6420626560448201527f206772656174657220746865207a65726f000000000000000000000000000000606482015290519081900360840190fd5b600154604080517f40c10f19000000000000000000000000000000000000000000000000000000008152600160a060020a038a81166004830152602482018a9052915191909216916340c10f199160448083019260209291908290030181600087803b15801561141357600080fd5b505af1158015611427573d6000803e3d6000fd5b505050506040513d602081101561143d57600080fd5b5050600160a060020a038716600090815260056020526040902054611468908763ffffffff61180a16565b600160a060020a03881660009081526005602052604090205560065461149590600163ffffffff61180a16565b6006556007546114ab908663ffffffff61180a16565b6007556008546114c1908563ffffffff61180a16565b60085560408051600160a060020a03891681526020810188905281517f3b87361b8a201c697d51aaa7a509f6dfb3870db9e5c5501d22d3e9fae858f725929181900390910190a150505050505050565b60085490565b600254604080517fdd62ed3e000000000000000000000000000000000000000000000000000000008152600160a060020a03858116600483015230602483015291516000938593169163dd62ed3e91604480830192602092919082900301818887803b15801561158657600080fd5b505af115801561159a573d6000803e3d6000fd5b505050506040513d60208110156115b057600080fd5b505110159392505050565b600154600160a060020a031681565b60085481565b6040805160018082528183019092526060918291906020808301908038833901905050905060008051602061189a83398151915281600081518110151561161357fe5b60209081029091010152905090565b600054600160a060020a031681565b60075481565b6002547501000000000000000000000000000000000000000000900460ff1681565b7f4645455f41444d494e000000000000000000000000000000000000000000000081565b60065481565b600160009054906101000a9004600160a060020a0316600160a060020a0316638da5cb5b6040518163ffffffff1660e060020a028152600401602060405180830381600087803b1580156116d657600080fd5b505af11580156116ea573d6000803e3d6000fd5b505050506040513d602081101561170057600080fd5b5051600160a060020a03163314611761576040805160e560020a62461bcd02815260206004820152601360248201527f53656e646572206973206e6f74206f776e657200000000000000000000000000604482015290519081900360640190fd5b60045481101561177057600080fd5b610a2461181d565b60025474010000000000000000000000000000000000000000900460ff16156117a057600080fd5b6002805474ff00000000000000000000000000000000000000001916740100000000000000000000000000000000000000001790556040805142815290517f68b095021b1f40fe513109f513c66692f0b3219aee674a69f4efc57badb8201d9181900360200190a1565b8181018281101561181757fe5b92915050565b60025474010000000000000000000000000000000000000000900460ff16151561184657600080fd5b6002805474ff0000000000000000000000000000000000000000191690556040805142815290517faaa520fdd7d2c83061d632fa017b0432407e798818af63ea908589fceda39ab79181900360200190a156005052455f53414c455f41444d494e000000000000000000000000000000000000a165627a7a72305820dd674d12b292e5f4b3560a7fcba72bbe50efc746c1fca5222a06a1f534e175a10029",
  "source": "pragma solidity ^0.4.24;\n\nimport \"./ISTO.sol\";\nimport \"../../interfaces/IST20.sol\";\nimport \"openzeppelin-solidity/contracts/math/SafeMath.sol\";\n\n/**\n * @title STO module for private presales\n */\ncontract PreSaleSTO is ISTO {\n    using SafeMath for uint256;\n\n    bytes32 public constant PRE_SALE_ADMIN = \"PRE_SALE_ADMIN\";\n\n    event TokensAllocated(address _investor, uint256 _amount);\n\n    mapping (address => uint256) public investors;\n\n    uint256 public investorCount;\n\n    uint256 public etherRaised;\n    uint256 public polyRaised;\n\n    /**\n     * @notice Constructor\n     * @param _securityToken Address of the security token\n     * @param _polyAddress Address of the polytoken\n     */\n    constructor (address _securityToken, address _polyAddress) public\n      IModule(_securityToken, _polyAddress)\n    {\n    }\n\n    /**\n     * @notice Function used to intialize the differnet variables\n     * @param _endTime Unix timestamp at which offering get ended\n     */\n    function configure(uint256 _endTime) public onlyFactory {\n        require(_endTime != 0, \"endTime should not be 0\");\n        endTime = _endTime;\n    }\n\n    /**\n     * @notice This function returns the signature of configure function\n     */\n    function getInitFunction() public pure returns (bytes4) {\n        return bytes4(keccak256(\"configure(uint256)\"));\n    }\n\n    /**\n     * @notice Return ETH raised by the STO\n     */\n    function getRaisedEther() public view returns (uint256) {\n        return etherRaised;\n    }\n\n    /**\n     * @notice Return POLY raised by the STO\n     */\n    function getRaisedPOLY() public view returns (uint256) {\n        return polyRaised;\n    }\n\n    /**\n     * @notice Return the total no. of investors\n     */\n    function getNumberInvestors() public view returns (uint256) {\n        return investorCount;\n    }\n\n    /**\n     * @notice Return the permissions flag that are associated with STO\n     */\n    function getPermissions() public view returns(bytes32[]) {\n        bytes32[] memory allPermissions = new bytes32[](1);\n        allPermissions[0] = PRE_SALE_ADMIN;\n        return allPermissions;\n    }\n\n    /**\n     * @notice Function used to allocate tokens to the investor\n     * @param _investor Address of the investor\n     * @param _amount No. of tokens need to transfered to the investor\n     * @param _etherContributed How much amount of ETH get contributed\n     * @param _polyContributed How much amount of POLY get contributed\n     */\n    function allocateTokens(address _investor, uint256 _amount, uint256 _etherContributed, uint256 _polyContributed) public withPerm(PRE_SALE_ADMIN)\n    {\n        require(now <= endTime, \"Current time should less than the endTime\");\n        require(_amount > 0, \"No. of tokens provided should be greater the zero\");\n        IST20(securityToken).mint(_investor, _amount);\n        investors[_investor] = investors[_investor].add(_amount);\n        investorCount = investorCount.add(1);\n        etherRaised = etherRaised.add(_etherContributed);\n        polyRaised = polyRaised.add(_polyContributed);\n        emit TokensAllocated(_investor, _amount);\n    }\n\n    /**\n     * @notice Function used to allocate tokens to the multiple investor\n     * @param _investors Array of address of the investors\n     * @param _amounts Array of no. of tokens need to transfered to the investors\n     * @param _etherContributed Array of amount of ETH contributed by each investor\n     * @param _polyContributed Array of amount of POLY contributed by each investor\n     */\n    function allocateTokensMulti(address[] _investors, uint256[] _amounts, uint256[] _etherContributed, uint256[] _polyContributed) public withPerm(PRE_SALE_ADMIN)\n    {\n        require(_investors.length == _amounts.length, \"Mis-match in the length of the arrays\");\n        require(_etherContributed.length == _polyContributed.length, \"Mis-match in the length of the arrays\");\n        require(_etherContributed.length == _investors.length, \"Mis-match in the length of the arrays\");\n        for (uint256 i = 0; i < _investors.length; i++) {\n            allocateTokens(_investors[i], _amounts[i], _etherContributed[i], _polyContributed[i]);\n        }\n    }\n}\n",
  "sourcePath": "/Users/rafaelvidaurre/Code/polymath/polymath-apps/packages/polymath-shared/scripts/generateLocalBlockchain/contracts/modules/STO/PreSaleSTO.sol",
  "compiler": {
    "name": "solc",
    "version": "0.4.24+commit.e67f0147.Emscripten.clang"
  },
  "schemaVersion": "2.0.1",
  "updatedAt": "2018-10-18T19:17:46.378Z"
}