{
  "contractName": "PreSaleSTOFactory",
  "abi": [
    {
      "constant": true,
      "inputs": [],
      "name": "monthlySubscriptionCost",
      "outputs": [
        {
          "name": "",
          "type": "uint256"
        }
      ],
      "payable": false,
      "stateMutability": "view",
      "type": "function"
    },
    {
      "constant": true,
      "inputs": [],
      "name": "name",
      "outputs": [
        {
          "name": "",
          "type": "bytes32"
        }
      ],
      "payable": false,
      "stateMutability": "view",
      "type": "function"
    },
    {
      "constant": false,
      "inputs": [
        {
          "name": "_newTitle",
          "type": "string"
        }
      ],
      "name": "changeTitle",
      "outputs": [],
      "payable": false,
      "stateMutability": "nonpayable",
      "type": "function"
    },
    {
      "constant": false,
      "inputs": [
        {
          "name": "_newSubscriptionCost",
          "type": "uint256"
        }
      ],
      "name": "changeFactorySubscriptionFee",
      "outputs": [],
      "payable": false,
      "stateMutability": "nonpayable",
      "type": "function"
    },
    {
      "constant": true,
      "inputs": [],
      "name": "title",
      "outputs": [
        {
          "name": "",
          "type": "string"
        }
      ],
      "payable": false,
      "stateMutability": "view",
      "type": "function"
    },
    {
      "constant": true,
      "inputs": [],
      "name": "version",
      "outputs": [
        {
          "name": "",
          "type": "string"
        }
      ],
      "payable": false,
      "stateMutability": "view",
      "type": "function"
    },
    {
      "constant": false,
      "inputs": [
        {
          "name": "_newSetupCost",
          "type": "uint256"
        }
      ],
      "name": "changeFactorySetupFee",
      "outputs": [],
      "payable": false,
      "stateMutability": "nonpayable",
      "type": "function"
    },
    {
      "constant": false,
      "inputs": [
        {
          "name": "_newVersion",
          "type": "string"
        }
      ],
      "name": "changeVersion",
      "outputs": [],
      "payable": false,
      "stateMutability": "nonpayable",
      "type": "function"
    },
    {
      "constant": true,
      "inputs": [],
      "name": "polyToken",
      "outputs": [
        {
          "name": "",
          "type": "address"
        }
      ],
      "payable": false,
      "stateMutability": "view",
      "type": "function"
    },
    {
      "constant": false,
      "inputs": [],
      "name": "renounceOwnership",
      "outputs": [],
      "payable": false,
      "stateMutability": "nonpayable",
      "type": "function"
    },
    {
      "constant": true,
      "inputs": [],
      "name": "description",
      "outputs": [
        {
          "name": "",
          "type": "string"
        }
      ],
      "payable": false,
      "stateMutability": "view",
      "type": "function"
    },
    {
      "constant": true,
      "inputs": [],
      "name": "setupCost",
      "outputs": [
        {
          "name": "",
          "type": "uint256"
        }
      ],
      "payable": false,
      "stateMutability": "view",
      "type": "function"
    },
    {
      "constant": true,
      "inputs": [],
      "name": "getLowerSTVersionBounds",
      "outputs": [
        {
          "name": "",
          "type": "uint8[]"
        }
      ],
      "payable": false,
      "stateMutability": "view",
      "type": "function"
    },
    {
      "constant": false,
      "inputs": [
        {
          "name": "_newName",
          "type": "bytes32"
        }
      ],
      "name": "changeName",
      "outputs": [],
      "payable": false,
      "stateMutability": "nonpayable",
      "type": "function"
    },
    {
      "constant": true,
      "inputs": [],
      "name": "owner",
      "outputs": [
        {
          "name": "",
          "type": "address"
        }
      ],
      "payable": false,
      "stateMutability": "view",
      "type": "function"
    },
    {
      "constant": false,
      "inputs": [
        {
          "name": "_newUsageCost",
          "type": "uint256"
        }
      ],
      "name": "changeFactoryUsageFee",
      "outputs": [],
      "payable": false,
      "stateMutability": "nonpayable",
      "type": "function"
    },
    {
      "constant": true,
      "inputs": [],
      "name": "usageCost",
      "outputs": [
        {
          "name": "",
          "type": "uint256"
        }
      ],
      "payable": false,
      "stateMutability": "view",
      "type": "function"
    },
    {
      "constant": false,
      "inputs": [
        {
          "name": "_newDesc",
          "type": "string"
        }
      ],
      "name": "changeDescription",
      "outputs": [],
      "payable": false,
      "stateMutability": "nonpayable",
      "type": "function"
    },
    {
      "constant": false,
      "inputs": [
        {
          "name": "_newOwner",
          "type": "address"
        }
      ],
      "name": "transferOwnership",
      "outputs": [],
      "payable": false,
      "stateMutability": "nonpayable",
      "type": "function"
    },
    {
      "constant": true,
      "inputs": [],
      "name": "getUpperSTVersionBounds",
      "outputs": [
        {
          "name": "",
          "type": "uint8[]"
        }
      ],
      "payable": false,
      "stateMutability": "view",
      "type": "function"
    },
    {
      "constant": false,
      "inputs": [
        {
          "name": "_boundType",
          "type": "string"
        },
        {
          "name": "_newVersion",
          "type": "uint8[]"
        }
      ],
      "name": "changeSTVersionBounds",
      "outputs": [],
      "payable": false,
      "stateMutability": "nonpayable",
      "type": "function"
    },
    {
      "inputs": [
        {
          "name": "_polyAddress",
          "type": "address"
        },
        {
          "name": "_setupCost",
          "type": "uint256"
        },
        {
          "name": "_usageCost",
          "type": "uint256"
        },
        {
          "name": "_subscriptionCost",
          "type": "uint256"
        }
      ],
      "payable": false,
      "stateMutability": "nonpayable",
      "type": "constructor"
    },
    {
      "anonymous": false,
      "inputs": [
        {
          "indexed": false,
          "name": "_oldSetupCost",
          "type": "uint256"
        },
        {
          "indexed": false,
          "name": "_newSetupCost",
          "type": "uint256"
        },
        {
          "indexed": false,
          "name": "_moduleFactory",
          "type": "address"
        }
      ],
      "name": "ChangeFactorySetupFee",
      "type": "event"
    },
    {
      "anonymous": false,
      "inputs": [
        {
          "indexed": false,
          "name": "_oldUsageCost",
          "type": "uint256"
        },
        {
          "indexed": false,
          "name": "_newUsageCost",
          "type": "uint256"
        },
        {
          "indexed": false,
          "name": "_moduleFactory",
          "type": "address"
        }
      ],
      "name": "ChangeFactoryUsageFee",
      "type": "event"
    },
    {
      "anonymous": false,
      "inputs": [
        {
          "indexed": false,
          "name": "_oldSubscriptionCost",
          "type": "uint256"
        },
        {
          "indexed": false,
          "name": "_newMonthlySubscriptionCost",
          "type": "uint256"
        },
        {
          "indexed": false,
          "name": "_moduleFactory",
          "type": "address"
        }
      ],
      "name": "ChangeFactorySubscriptionFee",
      "type": "event"
    },
    {
      "anonymous": false,
      "inputs": [
        {
          "indexed": false,
          "name": "_module",
          "type": "address"
        },
        {
          "indexed": true,
          "name": "_moduleName",
          "type": "bytes32"
        },
        {
          "indexed": true,
          "name": "_moduleFactory",
          "type": "address"
        },
        {
          "indexed": false,
          "name": "_creator",
          "type": "address"
        },
        {
          "indexed": false,
          "name": "_timestamp",
          "type": "uint256"
        }
      ],
      "name": "GenerateModuleFromFactory",
      "type": "event"
    },
    {
      "anonymous": false,
      "inputs": [
        {
          "indexed": false,
          "name": "_boundType",
          "type": "string"
        },
        {
          "indexed": false,
          "name": "_major",
          "type": "uint8"
        },
        {
          "indexed": false,
          "name": "_minor",
          "type": "uint8"
        },
        {
          "indexed": false,
          "name": "_patch",
          "type": "uint8"
        }
      ],
      "name": "ChangeSTVersionBound",
      "type": "event"
    },
    {
      "anonymous": false,
      "inputs": [
        {
          "indexed": true,
          "name": "previousOwner",
          "type": "address"
        }
      ],
      "name": "OwnershipRenounced",
      "type": "event"
    },
    {
      "anonymous": false,
      "inputs": [
        {
          "indexed": true,
          "name": "previousOwner",
          "type": "address"
        },
        {
          "indexed": true,
          "name": "newOwner",
          "type": "address"
        }
      ],
      "name": "OwnershipTransferred",
      "type": "event"
    },
    {
      "anonymous": false,
      "inputs": [
        {
          "indexed": false,
          "name": "_module",
          "type": "address"
        },
        {
          "indexed": true,
          "name": "_moduleName",
          "type": "bytes32"
        },
        {
          "indexed": true,
          "name": "_moduleFactory",
          "type": "address"
        },
        {
          "indexed": false,
          "name": "_creator",
          "type": "address"
        },
        {
          "indexed": false,
          "name": "_setupCost",
          "type": "uint256"
        },
        {
          "indexed": false,
          "name": "_timestamp",
          "type": "uint256"
        }
      ],
      "name": "GenerateModuleFromFactory",
      "type": "event"
    },
    {
      "constant": false,
      "inputs": [
        {
          "name": "_data",
          "type": "bytes"
        }
      ],
      "name": "deploy",
      "outputs": [
        {
          "name": "",
          "type": "address"
        }
      ],
      "payable": false,
      "stateMutability": "nonpayable",
      "type": "function"
    },
    {
      "constant": true,
      "inputs": [],
      "name": "getTypes",
      "outputs": [
        {
          "name": "",
          "type": "uint8[]"
        }
      ],
      "payable": false,
      "stateMutability": "view",
      "type": "function"
    },
    {
      "constant": true,
      "inputs": [],
      "name": "getName",
      "outputs": [
        {
          "name": "",
          "type": "bytes32"
        }
      ],
      "payable": false,
      "stateMutability": "view",
      "type": "function"
    },
    {
      "constant": true,
      "inputs": [],
      "name": "getDescription",
      "outputs": [
        {
          "name": "",
          "type": "string"
        }
      ],
      "payable": false,
      "stateMutability": "view",
      "type": "function"
    },
    {
      "constant": true,
      "inputs": [],
      "name": "getTitle",
      "outputs": [
        {
          "name": "",
          "type": "string"
        }
      ],
      "payable": false,
      "stateMutability": "view",
      "type": "function"
    },
    {
      "constant": true,
      "inputs": [],
      "name": "getVersion",
      "outputs": [
        {
          "name": "",
          "type": "string"
        }
      ],
      "payable": false,
      "stateMutability": "view",
      "type": "function"
    },
    {
      "constant": true,
      "inputs": [],
      "name": "getSetupCost",
      "outputs": [
        {
          "name": "",
          "type": "uint256"
        }
      ],
      "payable": false,
      "stateMutability": "view",
      "type": "function"
    },
    {
      "constant": true,
      "inputs": [],
      "name": "getInstructions",
      "outputs": [
        {
          "name": "",
          "type": "string"
        }
      ],
      "payable": false,
      "stateMutability": "view",
      "type": "function"
    },
    {
      "constant": true,
      "inputs": [],
      "name": "getTags",
      "outputs": [
        {
          "name": "",
          "type": "bytes32[]"
        }
      ],
      "payable": false,
      "stateMutability": "view",
      "type": "function"
    }
  ],
  "bytecode": "0x60806040523480156200001157600080fd5b506040516080806200379d8339810160408181528251602080850151838601516060909601516000805433600160a060020a03199182161790915560018054909116600160a060020a03861617905560028290556003879055600481905584860190945260058086527f312e302e300000000000000000000000000000000000000000000000000000009290950191825291949193919291620000b79160069162000292565b507f50726553616c6553544f0000000000000000000000000000000000000000000060075560408051808201909152600b8082527f50726553616c652053544f0000000000000000000000000000000000000000006020909201918252620001229160089162000292565b506040805160608101825260358082527f416c6c6f77732049737375657220746f20636f6e666967757265207072652d73602083019081527f616c6520746f6b656e20616c6c6f636174696f6e7300000000000000000000009290930191909152620001919160059162000292565b50620001ae60008080640100000000620019756200027782021704565b604080517f6c6f776572426f756e640000000000000000000000000000000000000000000081526009600a820152905190819003602a019020805462ffffff9290921662ffffff199092169190911790556200021b60008080640100000000620019756200027782021704565b604080517f7570706572426f756e640000000000000000000000000000000000000000000081526009600a820152905190819003602a019020805462ffffff9290921662ffffff19909216919091179055506200033792505050565b60ff9081169181166101000292166201000002919091171790565b828054600181600116156101000203166002900490600052602060002090601f016020900481019282601f10620002d557805160ff191683800117855562000305565b8280016001018555821562000305579182015b8281111562000305578251825591602001919060010190620002e8565b506200031392915062000317565b5090565b6200033491905b808211156200031357600081556001016200031e565b90565b61345680620003476000396000f3006080604052600436106101655763ffffffff60e060020a600035041662774360811461016a57806306184a25146101a657806306fdde03146101cd5780630d8e6e2c146101e257806317d7de7c1461026c5780631a092541146102815780632dbe07c7146102965780633ae192bd146102f15780634a79d50c1461030957806354fd4d501461031e57806358a191c31461033357806364bb432c1461034b5780636faa22a5146103a4578063715018a6146103b95780637284e416146103ce5780637e363ffa146103e35780638677768f146103f8578063898855ed1461045d5780638da5cb5b14610475578063995d9ab71461048a578063a5e9d7c91461049f578063aac67b05146104b4578063b4579d60146104cc578063d54c4726146104e1578063e0d54970146104f6578063e61204131461050b578063f2fde38b14610564578063f786299914610585578063fb9724561461059a578063ff3c1a8f146105c6575b600080fd5b34801561017657600080fd5b5061018a60048035602481019101356105db565b60408051600160a060020a039092168252519081900360200190f35b3480156101b257600080fd5b506101bb61097a565b60408051918252519081900360200190f35b3480156101d957600080fd5b506101bb610980565b3480156101ee57600080fd5b506101f7610986565b6040805160208082528351818301528351919283929083019185019080838360005b83811015610231578181015183820152602001610219565b50505050905090810190601f16801561025e5780820380516001836020036101000a031916815260200191505b509250505060405180910390f35b34801561027857600080fd5b506101bb610a1d565b34801561028d57600080fd5b506101f7610a23565b3480156102a257600080fd5b506040805160206004803580820135601f81018490048402850184019095528484526102ef943694929360249392840191908190840183828082843750949750610a849650505050505050565b005b3480156102fd57600080fd5b506102ef600435610ac0565b34801561031557600080fd5b506101f7610b1d565b34801561032a57600080fd5b506101f7610bab565b34801561033f57600080fd5b506102ef600435610c06565b34801561035757600080fd5b506040805160206004803580820135601f81018490048402850184019095528484526102ef943694929360249392840191908190840183828082843750949750610c639650505050505050565b3480156103b057600080fd5b5061018a610c9b565b3480156103c557600080fd5b506102ef610caa565b3480156103da57600080fd5b506101f7610d16565b3480156103ef57600080fd5b506101bb610d71565b34801561040457600080fd5b5061040d610d77565b60408051602080825283518183015283519192839290830191858101910280838360005b83811015610449578181015183820152602001610431565b505050509050019250505060405180910390f35b34801561046957600080fd5b506102ef600435610dc7565b34801561048157600080fd5b5061018a610def565b34801561049657600080fd5b5061040d610dfe565b3480156104ab57600080fd5b506101bb610e65565b3480156104c057600080fd5b506102ef600435610e6b565b3480156104d857600080fd5b5061040d610ec8565b3480156104ed57600080fd5b506101bb610f14565b34801561050257600080fd5b506101f7610f1a565b34801561051757600080fd5b506040805160206004803580820135601f81018490048402850184019095528484526102ef943694929360249392840191908190840183828082843750949750610f799650505050505050565b34801561057057600080fd5b506102ef600160a060020a0360043516610fb1565b34801561059157600080fd5b5061040d610fd4565b3480156105a657600080fd5b506102ef602460048035828101929082013591813591820191013561101f565b3480156105d257600080fd5b506101f761155e565b600080600060025411156107105760015460008054600254604080517f23b872dd000000000000000000000000000000000000000000000000000000008152336004820152600160a060020a03938416602482015260448101929092525191909316926323b872dd9260648083019360209390929083900390910190829087803b15801561066857600080fd5b505af115801561067c573d6000803e3d6000fd5b505050506040513d602081101561069257600080fd5b50511515610710576040805160e560020a62461bcd02815260206004820152602360248201527f537566666963656e7420416c6c6f77616e6365206973206e6f742070726f766960448201527f6465640000000000000000000000000000000000000000000000000000000000606482015290519081900360840190fd5b6001543390600160a060020a0316610726611990565b600160a060020a03928316815291166020820152604080519182900301906000f080158015610759573d6000803e3d6000fd5b50905080600160a060020a0316631613ec9d6040518163ffffffff1660e060020a028152600401602060405180830381600087803b15801561079a57600080fd5b505af11580156107ae573d6000803e3d6000fd5b505050506040513d60208110156107c457600080fd5b5051604080516020601f87018190048102820181019092528581527bffffffffffffffffffffffffffffffffffffffffffffffffffffffff199092169161081f918790879081908401838280828437506115bf945050505050565b7bffffffffffffffffffffffffffffffffffffffffffffffffffffffff191614610893576040805160e560020a62461bcd02815260206004820152600c60248201527f496e76616c696420646174610000000000000000000000000000000000000000604482015290519081900360640190fd5b80600160a060020a03168484604051808383808284378201915050925050506000604051808303816000865af19150501515610919576040805160e560020a62461bcd02815260206004820152601260248201527f556e7375636365737366756c6c2063616c6c0000000000000000000000000000604482015290519081900360640190fd5b30610922610a1d565b60025460408051600160a060020a038616815233602082015280820192909252426060830152517fb68b4973fbce93f056103272c1f3f53b607527138d7e323b7b94f7ac169ebf779181900360800190a39392505050565b60045481565b60075481565b60068054604080516020601f6002600019610100600188161502019095169490940493840181900481028201810190925282815260609390929091830182828015610a125780601f106109e757610100808354040283529160200191610a12565b820191906000526020600020905b8154815290600101906020018083116109f557829003601f168201915b505050505090505b90565b60075490565b60058054604080516020601f6002600019610100600188161502019095169490940493840181900481028201810190925282815260609390929091830182828015610a125780601f106109e757610100808354040283529160200191610a12565b600054600160a060020a03163314610a9b57600080fd5b8051600010610aa957600080fd5b8051610abc9060089060208401906119a0565b5050565b600054600160a060020a03163314610ad757600080fd5b60045460408051918252602082018390523082820152517fb14468ff50b0c356f5373be0ef0791de71449aaf8ac5ca096049b7ac79d0b1139181900360600190a1600455565b6008805460408051602060026001851615610100026000190190941693909304601f81018490048402820184019092528181529291830182828015610ba35780601f10610b7857610100808354040283529160200191610ba3565b820191906000526020600020905b815481529060010190602001808311610b8657829003601f168201915b505050505081565b6006805460408051602060026001851615610100026000190190941693909304601f81018490048402820184019092528181529291830182828015610ba35780601f10610b7857610100808354040283529160200191610ba3565b600054600160a060020a03163314610c1d57600080fd5b60025460408051918252602082018390523082820152517f9672983540fb671cd7c0c946255b4dc769a3e557a25ef91ca7c98995c8d694b69181900360600190a1600255565b600054600160a060020a03163314610c7a57600080fd5b8051600010610c8857600080fd5b8051610abc9060069060208401906119a0565b600154600160a060020a031681565b600054600160a060020a03163314610cc157600080fd5b60008054604051600160a060020a03909116917ff8df31144d9c2f0f6b59d69b8b98abd5459d07f2742c4df920b25aae33c6482091a26000805473ffffffffffffffffffffffffffffffffffffffff19169055565b6005805460408051602060026001851615610100026000190190941693909304601f81018490048402820184019092528181529291830182828015610ba35780601f10610b7857610100808354040283529160200191610ba3565b60025481565b604080517f6c6f776572426f756e640000000000000000000000000000000000000000000081526009600a820152905190819003602a01902054606090610dc29062ffffff16611640565b905090565b600054600160a060020a03163314610dde57600080fd5b801515610dea57600080fd5b600755565b600054600160a060020a031681565b604080516001808252818301909252606091829190602080830190803883390190505090507f50726573616c6500000000000000000000000000000000000000000000000000816000815181101515610e5357fe5b602090810290910101529050805b5090565b60025490565b600054600160a060020a03163314610e8257600080fd5b60035460408051918252602082018390523082820152517fc39ec4e85127e00b5b203f9c40814616d5977d8de85e6e0717e5ca4b0896206c9181900360600190a1600355565b604080516001808252818301909252606091829190602080830190803883390190505090506003816000815181101515610efe57fe5b60ff909216602092830290910190910152905090565b60035481565b60408051606081018252602e81527f436f6e66696775726520616e6420747261636b207072652d73616c6520746f6b60208201527f656e20616c6c6f636174696f6e730000000000000000000000000000000000009181019190915290565b600054600160a060020a03163314610f9057600080fd5b8051600010610f9e57600080fd5b8051610abc9060059060208401906119a0565b600054600160a060020a03163314610fc857600080fd5b610fd1816116e5565b50565b604080517f7570706572426f756e640000000000000000000000000000000000000000000081526009600a820152905190819003602a01902054606090610dc29062ffffff16611640565b600054606090600160a060020a0316331461103957600080fd5b60405160200180807f6c6f776572426f756e6400000000000000000000000000000000000000000000815250600a0190506040516020818303038152906040526040518082805190602001908083835b602083106110a85780518252601f199092019160209182019101611089565b51815160209384036101000a600019018019909216911617905260405191909301819003812094508993508892019050808383808284378201915050925050506040516020818303038152906040526040518082805190602001908083835b602083106111265780518252601f199092019160209182019101611107565b6001836020036101000a038019825116818451168082178552505050505050905001915050604051809103902060001916148061127e575060405160200180807f7570706572426f756e6400000000000000000000000000000000000000000000815250600a0190506040516020818303038152906040526040518082805190602001908083835b602083106111cd5780518252601f1990920191602091820191016111ae565b51815160209384036101000a600019018019909216911617905260405191909301819003812094508993508892019050808383808284378201915050925050506040516020818303038152906040526040518082805190602001908083835b6020831061124b5780518252601f19909201916020918201910161122c565b6001836020036101000a038019825116818451168082178552505050505050905001915050604051809103902060001916145b15156112d4576040805160e560020a62461bcd02815260206004820152601a60248201527f4d75737420626520612076616c696420626f756e642074797065000000000000604482015290519081900360640190fd5b600382146112e157600080fd5b600062ffffff1660098686604051808383808284379091019485525050604051928390036020019092205462ffffff1692909214915061140790505761135260098686604051808383808284379091019485525050604051928390036020019092205462ffffff1691506116409050565b905061138b8184848080602002602001604051908101604052809392919081815260200183836020028082843750611762945050505050565b1515611407576040805160e560020a62461bcd02815260206004820152602260248201527f4661696c65642062656361757365206f6620696e2d76616c696420766572736960448201527f6f6e000000000000000000000000000000000000000000000000000000000000606482015290519081900360840190fd5b6114588383600081811061141757fe5b9050602002013560ff1684846001818110151561143057fe5b9050602002013560ff1685856002818110151561144957fe5b9050602002013560ff16611975565b6009868660405180838380828437909101948552505060405192839003602001909220805462ffffff9490941662ffffff1990941693909317909255507f5b67e16edaf7fc70c8d065ea6e70b97ed944d98fe593b04d682216615a3b04db90508585858560008181106114c757fe5b9050602002013560ff168686600181811015156114e057fe5b9050602002013560ff168787600281811015156114f957fe5b9050602002013560ff1660405180806020018560ff1660ff1681526020018460ff1660ff1681526020018360ff1660ff168152602001828103825287878281815260200192508082843760405192018290039850909650505050505050a15050505050565b60088054604080516020601f6002600019610100600188161502019095169490940493840181900481028201810190925282815260609390929091830182828015610a125780601f106109e757610100808354040283529160200191610a12565b600080600060048451106115d45760046115d7565b83515b9150600090505b818110156116395780600183030360080260020a848281518110151561160057fe5b90602001015160f860020a900460f860020a0260f860020a9004028360e060020a90040160e060020a02925080806001019150506115de565b5050919050565b6040805160038082526080820190925260609182919060208201838038833950508151919250506201000062ffffff851604908290600090811061168057fe5b60ff909216602092830290910190910152805161010062ffffff85160490829060019081106116ab57fe5b60ff90921660209283029091019091015280518390829060029081106116cd57fe5b60ff9092166020928302909101909101529050919050565b600160a060020a03811615156116fa57600080fd5b60008054604051600160a060020a03808516939216917f8be0079c531659141344cd1fd0a4f28419497f9722a3daafe3b4186f6b6457e091a36000805473ffffffffffffffffffffffffffffffffffffffff1916600160a060020a0392909216919091179055565b600060606000808551604051908082528060200260200182016040528015611794578160200160208202803883390190505b50925060009150600090505b85518160ff16101561184057848160ff168151811015156117bd57fe5b9060200190602002015160ff16868260ff168151811015156117db57fe5b9060200190602002015160ff161015611815576001838260ff1681518110151561180157fe5b911515602092830290910190910152611838565b6000838260ff1681518110151561182857fe5b9115156020928302909101909101525b6001016117a0565b5060005b85518160ff16101561195b5760ff811615156118dd57848160ff1681518110151561186b57fe5b9060200190602002015160ff16868260ff1681518110151561188957fe5b6020908102909101015160ff16116118cf578260008151811015156118aa57fe5b90602001906020020151156118c45781600301915061195b565b6001909101906118d8565b6000935061196c565b611953565b826001820360ff168151811015156118f157fe5b906020019060200201511561190b57600190910190611953565b848160ff1681518110151561191c57fe5b9060200190602002015160ff16868260ff1681518110151561193a57fe5b6020908102909101015160ff16116118cf576001909101905b600101611844565b85518260ff16141561196c57600193505b50505092915050565b60ff9081169181166101000292166201000002919091171790565b6040516119fc80611a2f83390190565b828054600181600116156101000203166002900490600052602060002090601f016020900481019282601f106119e157805160ff1916838001178555611a0e565b82800160010185558215611a0e579182015b82811115611a0e5782518255916020019190600101906119f3565b50610e6192610a1a9250905b80821115610e615760008155600101611a1a560060806040526002805460a060020a60ff021916905534801561002057600080fd5b506040516040806119fc83398101604052805160209091015160018054600160a060020a03938416600160a060020a031991821617909155600080548216331790556002805493909216921691909117905561197b806100816000396000f3006080604052600436106101455763ffffffff60e060020a6000350416631613ec9d811461014a5780631903fe4f146101945780631eb25e0a146102965780633197cbb6146102ae57806338c59de9146102d55780633f4ba83a146102ea57806351eea775146102ff578063521eb273146103145780635c975abb146103455780635f7619a41461036e57806363b20117146103865780636f7bc9be1461039b5780636faa22a5146103bc57806378e97925146103d15780638456cb59146103e65780638905fd4f146103fb5780639a7cc1351461041c5780639a903ca714610437578063b2cca39d14610461578063b84dfbd214610476578063c3a07df61461048b578063c45a0155146104f0578063c4d2c6bd14610505578063d143a37914610520578063d70afa961461053b578063d7e64c0014610550578063ee7c0db014610565575b600080fd5b34801561015657600080fd5b5061015f61057a565b604080517fffffffff000000000000000000000000000000000000000000000000000000009092168252519081900360200190f35b3480156101a057600080fd5b506040805160206004803580820135838102808601850190965280855261029495369593946024949385019291829185019084908082843750506040805187358901803560208181028481018201909552818452989b9a998901989297509082019550935083925085019084908082843750506040805187358901803560208181028481018201909552818452989b9a998901989297509082019550935083925085019084908082843750506040805187358901803560208181028481018201909552818452989b9a9989019892975090820195509350839250850190849080828437509497506105af9650505050505050565b005b3480156102a257600080fd5b50610294600435610967565b3480156102ba57600080fd5b506102c3610a25565b60408051918252519081900360200190f35b3480156102e157600080fd5b506102c3610a2b565b3480156102f657600080fd5b50610294610a31565b34801561030b57600080fd5b506102c3610b19565b34801561032057600080fd5b50610329610b2b565b60408051600160a060020a039092168252519081900360200190f35b34801561035157600080fd5b5061035a610b3a565b604080519115158252519081900360200190f35b34801561037a57600080fd5b5061035a600435610b5b565b34801561039257600080fd5b506102c3610e9f565b3480156103a757600080fd5b506102c3600160a060020a0360043516610ea5565b3480156103c857600080fd5b50610329610eb7565b3480156103dd57600080fd5b506102c3610ec6565b3480156103f257600080fd5b50610294610ecc565b34801561040757600080fd5b50610294600160a060020a0360043516610fc0565b34801561042857600080fd5b506102c360ff600435166111ee565b34801561044357600080fd5b50610294600160a060020a036004351660243560443560643561121a565b34801561046d57600080fd5b506102c36116ab565b34801561048257600080fd5b506103296116b1565b34801561049757600080fd5b506104a06116c0565b60408051602080825283518183015283519192839290830191858101910280838360005b838110156104dc5781810151838201526020016104c4565b505050509050019250505060405180910390f35b3480156104fc57600080fd5b50610329611712565b34801561051157600080fd5b506102c360ff60043516611721565b34801561052c57600080fd5b5061035a60ff60043516611733565b34801561054757600080fd5b506102c3611748565b34801561055c57600080fd5b506102c361176c565b34801561057157600080fd5b506102c3611772565b604080517f636f6e6669677572652875696e743235362900000000000000000000000000008152905190819003601201902090565b6000600080516020611930833981519152600080600160009054906101000a9004600160a060020a0316600160a060020a0316638da5cb5b6040518163ffffffff1660e060020a028152600401602060405180830381600087803b15801561061657600080fd5b505af115801561062a573d6000803e3d6000fd5b505050506040513d602081101561064057600080fd5b505160005433600160a060020a0392831681149450911614905081806106635750805b806107095750600154604080517f8658b8b9000000000000000000000000000000000000000000000000000000008152336004820152306024820152604481018690529051600160a060020a0390921691638658b8b9916064808201926020929091908290030181600087803b1580156106dc57600080fd5b505af11580156106f0573d6000803e3d6000fd5b505050506040513d602081101561070657600080fd5b50515b151561075f576040805160e560020a62461bcd02815260206004820152601760248201527f5065726d697373696f6e20636865636b206661696c6564000000000000000000604482015290519081900360640190fd5b86518851146107de576040805160e560020a62461bcd02815260206004820152602560248201527f4d69732d6d6174636820696e20746865206c656e677468206f6620746865206160448201527f7272617973000000000000000000000000000000000000000000000000000000606482015290519081900360840190fd5b845186511461085d576040805160e560020a62461bcd02815260206004820152602560248201527f4d69732d6d6174636820696e20746865206c656e677468206f6620746865206160448201527f7272617973000000000000000000000000000000000000000000000000000000606482015290519081900360840190fd5b87518651146108dc576040805160e560020a62461bcd02815260206004820152602560248201527f4d69732d6d6174636820696e20746865206c656e677468206f6620746865206160448201527f7272617973000000000000000000000000000000000000000000000000000000606482015290519081900360840190fd5b600093505b875184101561095d5761095288858151811015156108fb57fe5b90602001906020020151888681518110151561091357fe5b90602001906020020151888781518110151561092b57fe5b90602001906020020151888881518110151561094357fe5b9060200190602002015161121a565b6001909301926108e1565b5050505050505050565b600054600160a060020a031633146109c9576040805160e560020a62461bcd02815260206004820152601560248201527f53656e646572206973206e6f7420666163746f72790000000000000000000000604482015290519081900360640190fd5b801515610a20576040805160e560020a62461bcd02815260206004820152601760248201527f656e6454696d652073686f756c64206e6f742062652030000000000000000000604482015290519081900360640190fd5b600655565b60065481565b60085490565b600160009054906101000a9004600160a060020a0316600160a060020a0316638da5cb5b6040518163ffffffff1660e060020a028152600401602060405180830381600087803b158015610a8457600080fd5b505af1158015610a98573d6000803e3d6000fd5b505050506040513d6020811015610aae57600080fd5b5051600160a060020a03163314610b0f576040805160e560020a62461bcd02815260206004820152601360248201527f53656e646572206973206e6f74206f776e657200000000000000000000000000604482015290519081900360640190fd5b610b17611778565b565b60008051602061193083398151915281565b600954600160a060020a031681565b60025474010000000000000000000000000000000000000000900460ff1681565b60007f4645455f41444d494e0000000000000000000000000000000000000000000000600080600160009054906101000a9004600160a060020a0316600160a060020a0316638da5cb5b6040518163ffffffff1660e060020a028152600401602060405180830381600087803b158015610bd457600080fd5b505af1158015610be8573d6000803e3d6000fd5b505050506040513d6020811015610bfe57600080fd5b505160005433600160a060020a039283168114945091161490508180610c215750805b80610cc75750600154604080517f8658b8b9000000000000000000000000000000000000000000000000000000008152336004820152306024820152604481018690529051600160a060020a0390921691638658b8b9916064808201926020929091908290030181600087803b158015610c9a57600080fd5b505af1158015610cae573d6000803e3d6000fd5b505050506040513d6020811015610cc457600080fd5b50515b1515610d1d576040805160e560020a62461bcd02815260206004820152601760248201527f5065726d697373696f6e20636865636b206661696c6564000000000000000000604482015290519081900360640190fd5b60025460015460008054604080517f8da5cb5b0000000000000000000000000000000000000000000000000000000081529051600160a060020a03958616956323b872dd95811694931692638da5cb5b92600480820193602093909283900390910190829087803b158015610d9157600080fd5b505af1158015610da5573d6000803e3d6000fd5b505050506040513d6020811015610dbb57600080fd5b50516040805160e060020a63ffffffff8616028152600160a060020a039384166004820152929091166024830152604482018990525160648083019260209291908290030181600087803b158015610e1257600080fd5b505af1158015610e26573d6000803e3d6000fd5b505050506040513d6020811015610e3c57600080fd5b50511515610e94576040805160e560020a62461bcd02815260206004820152601260248201527f556e61626c6520746f2074616b65206665650000000000000000000000000000604482015290519081900360640190fd5b506001949350505050565b600a5481565b600b6020526000908152604090205481565b600254600160a060020a031681565b60055481565b600160009054906101000a9004600160a060020a0316600160a060020a0316638da5cb5b6040518163ffffffff1660e060020a028152600401602060405180830381600087803b158015610f1f57600080fd5b505af1158015610f33573d6000803e3d6000fd5b505050506040513d6020811015610f4957600080fd5b5051600160a060020a03163314610faa576040805160e560020a62461bcd02815260206004820152601360248201527f53656e646572206973206e6f74206f776e657200000000000000000000000000604482015290519081900360640190fd5b6006544210610fb857600080fd5b610b1761183f565b600080600160009054906101000a9004600160a060020a0316600160a060020a0316638da5cb5b6040518163ffffffff1660e060020a028152600401602060405180830381600087803b15801561101657600080fd5b505af115801561102a573d6000803e3d6000fd5b505050506040513d602081101561104057600080fd5b5051600160a060020a031633146110a1576040805160e560020a62461bcd02815260206004820152601360248201527f53656e646572206973206e6f74206f776e657200000000000000000000000000604482015290519081900360640190fd5b600160a060020a03831615156110b657600080fd5b604080517f70a082310000000000000000000000000000000000000000000000000000000081523060048201529051849350600160a060020a038416916370a082319160248083019260209291908290030181600087803b15801561111a57600080fd5b505af115801561112e573d6000803e3d6000fd5b505050506040513d602081101561114457600080fd5b5051604080517fa9059cbb000000000000000000000000000000000000000000000000000000008152336004820152602481018390529051919250600160a060020a0384169163a9059cbb916044808201926020929091908290030181600087803b1580156111b257600080fd5b505af11580156111c6573d6000803e3d6000fd5b505050506040513d60208110156111dc57600080fd5b505115156111e957600080fd5b505050565b60006004600083600281111561120057fe5b60ff16815260208101919091526040016000205492915050565b600080516020611930833981519152600080600160009054906101000a9004600160a060020a0316600160a060020a0316638da5cb5b6040518163ffffffff1660e060020a028152600401602060405180830381600087803b15801561127f57600080fd5b505af1158015611293573d6000803e3d6000fd5b505050506040513d60208110156112a957600080fd5b505160005433600160a060020a0392831681149450911614905081806112cc5750805b806113725750600154604080517f8658b8b9000000000000000000000000000000000000000000000000000000008152336004820152306024820152604481018690529051600160a060020a0390921691638658b8b9916064808201926020929091908290030181600087803b15801561134557600080fd5b505af1158015611359573d6000803e3d6000fd5b505050506040513d602081101561136f57600080fd5b50515b15156113c8576040805160e560020a62461bcd02815260206004820152601760248201527f5065726d697373696f6e20636865636b206661696c6564000000000000000000604482015290519081900360640190fd5b600654421115611448576040805160e560020a62461bcd02815260206004820152602960248201527f43757272656e742074696d652073686f756c64206c657373207468616e20746860448201527f6520656e6454696d650000000000000000000000000000000000000000000000606482015290519081900360840190fd5b600086116114c6576040805160e560020a62461bcd02815260206004820152603160248201527f4e6f2e206f6620746f6b656e732070726f76696465642073686f756c6420626560448201527f206772656174657220746865207a65726f000000000000000000000000000000606482015290519081900360840190fd5b600154604080517f40c10f19000000000000000000000000000000000000000000000000000000008152600160a060020a038a81166004830152602482018a9052915191909216916340c10f199160448083019260209291908290030181600087803b15801561153557600080fd5b505af1158015611549573d6000803e3d6000fd5b505050506040513d602081101561155f57600080fd5b5050600160a060020a0387166000908152600b602052604090205461158a908763ffffffff61191c16565b600160a060020a0388166000908152600b60205260409020556008546115b790600163ffffffff61191c16565b6008556115e48560046000805b60ff1681526020810191909152604001600020549063ffffffff61191c16565b6000808052600460208190527f17ef568e3e12ab5b9c7254a8d58478811de00f9e6eb34345acd53bf8fd09d3ec9290925561162291869160016115c4565b600160005260046020527fabd6e7cb50984ff9c2f3e18a2660c3353dadf4e3291deeb275dae2cd1e44fe0555600a5461165b908761191c565b600a5560408051600160a060020a03891681526020810188905281517f3b87361b8a201c697d51aaa7a509f6dfb3870db9e5c5501d22d3e9fae858f725929181900390910190a150505050505050565b60075481565b600154600160a060020a031681565b6040805160018082528183019092526060918291906020808301908038833901905050905060008051602061193083398151915281600081518110151561170357fe5b60209081029091010152905090565b600054600160a060020a031681565b60046020526000908152604090205481565b60036020526000908152604090205460ff1681565b7f4645455f41444d494e000000000000000000000000000000000000000000000081565b60085481565b600a5490565b60025474010000000000000000000000000000000000000000900460ff1615156117ec576040805160e560020a62461bcd02815260206004820152601660248201527f436f6e7472616374206973206e6f742070617573656400000000000000000000604482015290519081900360640190fd5b6002805474ff0000000000000000000000000000000000000000191690556040805142815290517faaa520fdd7d2c83061d632fa017b0432407e798818af63ea908589fceda39ab79181900360200190a1565b60025474010000000000000000000000000000000000000000900460ff16156118b2576040805160e560020a62461bcd02815260206004820152601260248201527f436f6e7472616374206973207061757365640000000000000000000000000000604482015290519081900360640190fd5b6002805474ff00000000000000000000000000000000000000001916740100000000000000000000000000000000000000001790556040805142815290517f68b095021b1f40fe513109f513c66692f0b3219aee674a69f4efc57badb8201d9181900360200190a1565b8181018281101561192957fe5b9291505056005052455f53414c455f41444d494e000000000000000000000000000000000000a165627a7a72305820d6b6130f57638541454485558e9b29c9a9bd3701582bb849acdb2834cce375340029a165627a7a72305820ca51b84704b51a463d9ead30295633d50a1863614a8d80ffd2cbcb3607ee50d40029",
  "source": "pragma solidity ^0.4.24;\n\nimport \"./PreSaleSTO.sol\";\nimport \"../ModuleFactory.sol\";\nimport \"../../libraries/Util.sol\";\n\n/**\n * @title Factory for deploying PreSaleSTO module\n */\ncontract PreSaleSTOFactory is ModuleFactory {\n\n    /**\n     * @notice Constructor\n     * @param _polyAddress Address of the polytoken\n     */\n    constructor (address _polyAddress, uint256 _setupCost, uint256 _usageCost, uint256 _subscriptionCost) public\n    ModuleFactory(_polyAddress, _setupCost, _usageCost, _subscriptionCost)\n    {\n        version = \"1.0.0\";\n        name = \"PreSaleSTO\";\n        title = \"PreSale STO\";\n        description = \"Allows Issuer to configure pre-sale token allocations\";\n        compatibleSTVersionRange[\"lowerBound\"] = VersionUtils.pack(uint8(0), uint8(0), uint8(0));\n        compatibleSTVersionRange[\"upperBound\"] = VersionUtils.pack(uint8(0), uint8(0), uint8(0));\n    }\n\n    /**\n     * @notice used to launch the Module with the help of factory\n     * @param _data Data used for the intialization of the module factory variables\n     * @return address Contract address of the Module\n     */\n    function deploy(bytes _data) external returns(address) {\n        if (setupCost > 0) {\n            require(polyToken.transferFrom(msg.sender, owner, setupCost), \"Sufficent Allowance is not provided\");\n        }\n        //Check valid bytes - can only call module init function\n        PreSaleSTO preSaleSTO = new PreSaleSTO(msg.sender, address(polyToken));\n        //Checks that _data is valid (not calling anything it shouldn't)\n        require(Util.getSig(_data) == preSaleSTO.getInitFunction(), \"Invalid data\");\n        require(address(preSaleSTO).call(_data), \"Unsuccessfull call\");\n        emit GenerateModuleFromFactory(address(preSaleSTO), getName(), address(this), msg.sender, setupCost, now);\n        return address(preSaleSTO);\n    }\n\n    /**\n     * @notice Type of the Module factory\n     */\n    function getTypes() external view returns(uint8[]) {\n        uint8[] memory res = new uint8[](1);\n        res[0] = 3;\n        return res;\n    }\n\n    /**\n     * @notice Get the name of the Module\n     */\n    function getName() public view returns(bytes32) {\n        return name;\n    }\n\n    /**\n     * @notice Get the description of the Module\n     */\n    function getDescription() external view returns(string) {\n        return description;\n    }\n\n    /**\n     * @notice Get the title of the Module\n     */\n    function getTitle() external view returns(string) {\n        return title;\n    }\n\n    /**\n     * @notice Get the version of the Module\n     */\n    function getVersion() external view returns(string) {\n        return version;\n    }\n\n    /**\n     * @notice Get the setup cost of the module\n     */\n    function getSetupCost() external view returns (uint256) {\n        return setupCost;\n    }\n\n    /**\n     * @notice Get the Instructions that helped to used the module\n     */\n    function getInstructions() external view returns(string) {\n        return \"Configure and track pre-sale token allocations\";\n    }\n\n    /**\n     * @notice Get the tags related to the module factory\n     */\n    function getTags() external view returns(bytes32[]) {\n        bytes32[] memory availableTags = new bytes32[](1);\n        availableTags[0] = \"Presale\";\n        return availableTags;\n    }\n\n}\n",
  "sourcePath": "/Users/jere/Code/polymath-apps/packages/polymath-shared/scripts/generateLocalBlockchain/contracts/modules/STO/PreSaleSTOFactory.sol",
  "compiler": {
    "name": "solc",
    "version": "0.4.24+commit.e67f0147.Emscripten.clang"
  },
  "schemaVersion": "2.0.1",
  "updatedAt": "2018-10-23T18:29:22.769Z"
}