{
  "contractName": "PreSaleSTO",
  "abi": [
    {
      "constant": true,
      "inputs": [],
      "name": "endTime",
      "outputs": [
        {
          "name": "",
          "type": "uint256"
        }
      ],
      "payable": false,
      "stateMutability": "view",
      "type": "function"
    },
    {
      "constant": false,
      "inputs": [],
      "name": "unpause",
      "outputs": [],
      "payable": false,
      "stateMutability": "nonpayable",
      "type": "function"
    },
    {
      "constant": true,
      "inputs": [],
      "name": "PRE_SALE_ADMIN",
      "outputs": [
        {
          "name": "",
          "type": "bytes32"
        }
      ],
      "payable": false,
      "stateMutability": "view",
      "type": "function"
    },
    {
      "constant": true,
      "inputs": [],
      "name": "wallet",
      "outputs": [
        {
          "name": "",
          "type": "address"
        }
      ],
      "payable": false,
      "stateMutability": "view",
      "type": "function"
    },
    {
      "constant": true,
      "inputs": [],
      "name": "paused",
      "outputs": [
        {
          "name": "",
          "type": "bool"
        }
      ],
      "payable": false,
      "stateMutability": "view",
      "type": "function"
    },
    {
      "constant": false,
      "inputs": [
        {
          "name": "_amount",
          "type": "uint256"
        }
      ],
      "name": "takeFee",
      "outputs": [
        {
          "name": "",
          "type": "bool"
        }
      ],
      "payable": false,
      "stateMutability": "nonpayable",
      "type": "function"
    },
    {
      "constant": true,
      "inputs": [],
      "name": "totalTokensSold",
      "outputs": [
        {
          "name": "",
          "type": "uint256"
        }
      ],
      "payable": false,
      "stateMutability": "view",
      "type": "function"
    },
    {
      "constant": true,
      "inputs": [
        {
          "name": "",
          "type": "address"
        }
      ],
      "name": "investors",
      "outputs": [
        {
          "name": "",
          "type": "uint256"
        }
      ],
      "payable": false,
      "stateMutability": "view",
      "type": "function"
    },
    {
      "constant": true,
      "inputs": [],
      "name": "polyToken",
      "outputs": [
        {
          "name": "",
          "type": "address"
        }
      ],
      "payable": false,
      "stateMutability": "view",
      "type": "function"
    },
    {
      "constant": true,
      "inputs": [],
      "name": "startTime",
      "outputs": [
        {
          "name": "",
          "type": "uint256"
        }
      ],
      "payable": false,
      "stateMutability": "view",
      "type": "function"
    },
    {
      "constant": false,
      "inputs": [],
      "name": "pause",
      "outputs": [],
      "payable": false,
      "stateMutability": "nonpayable",
      "type": "function"
    },
    {
      "constant": false,
      "inputs": [
        {
          "name": "_tokenContract",
          "type": "address"
        }
      ],
      "name": "reclaimERC20",
      "outputs": [],
      "payable": false,
      "stateMutability": "nonpayable",
      "type": "function"
    },
    {
      "constant": true,
      "inputs": [
        {
          "name": "_fundRaiseType",
          "type": "uint8"
        }
      ],
      "name": "getRaised",
      "outputs": [
        {
          "name": "",
          "type": "uint256"
        }
      ],
      "payable": false,
      "stateMutability": "view",
      "type": "function"
    },
    {
      "constant": true,
      "inputs": [],
      "name": "pausedTime",
      "outputs": [
        {
          "name": "",
          "type": "uint256"
        }
      ],
      "payable": false,
      "stateMutability": "view",
      "type": "function"
    },
    {
      "constant": true,
      "inputs": [],
      "name": "securityToken",
      "outputs": [
        {
          "name": "",
          "type": "address"
        }
      ],
      "payable": false,
      "stateMutability": "view",
      "type": "function"
    },
    {
      "constant": true,
      "inputs": [],
      "name": "factory",
      "outputs": [
        {
          "name": "",
          "type": "address"
        }
      ],
      "payable": false,
      "stateMutability": "view",
      "type": "function"
    },
    {
      "constant": true,
      "inputs": [
        {
          "name": "",
          "type": "uint8"
        }
      ],
      "name": "fundsRaised",
      "outputs": [
        {
          "name": "",
          "type": "uint256"
        }
      ],
      "payable": false,
      "stateMutability": "view",
      "type": "function"
    },
    {
      "constant": true,
      "inputs": [
        {
          "name": "",
          "type": "uint8"
        }
      ],
      "name": "fundRaiseTypes",
      "outputs": [
        {
          "name": "",
          "type": "bool"
        }
      ],
      "payable": false,
      "stateMutability": "view",
      "type": "function"
    },
    {
      "constant": true,
      "inputs": [],
      "name": "FEE_ADMIN",
      "outputs": [
        {
          "name": "",
          "type": "bytes32"
        }
      ],
      "payable": false,
      "stateMutability": "view",
      "type": "function"
    },
    {
      "constant": true,
      "inputs": [],
      "name": "investorCount",
      "outputs": [
        {
          "name": "",
          "type": "uint256"
        }
      ],
      "payable": false,
      "stateMutability": "view",
      "type": "function"
    },
    {
      "inputs": [
        {
          "name": "_securityToken",
          "type": "address"
        },
        {
          "name": "_polyAddress",
          "type": "address"
        }
      ],
      "payable": false,
      "stateMutability": "nonpayable",
      "type": "constructor"
    },
    {
      "anonymous": false,
      "inputs": [
        {
          "indexed": false,
          "name": "_investor",
          "type": "address"
        },
        {
          "indexed": false,
          "name": "_amount",
          "type": "uint256"
        }
      ],
      "name": "TokensAllocated",
      "type": "event"
    },
    {
      "anonymous": false,
      "inputs": [
        {
          "indexed": false,
          "name": "_fundRaiseTypes",
          "type": "uint8[]"
        }
      ],
      "name": "SetFundRaiseTypes",
      "type": "event"
    },
    {
      "anonymous": false,
      "inputs": [
        {
          "indexed": false,
          "name": "_timestammp",
          "type": "uint256"
        }
      ],
      "name": "Pause",
      "type": "event"
    },
    {
      "anonymous": false,
      "inputs": [
        {
          "indexed": false,
          "name": "_timestamp",
          "type": "uint256"
        }
      ],
      "name": "Unpause",
      "type": "event"
    },
    {
      "constant": false,
      "inputs": [
        {
          "name": "_endTime",
          "type": "uint256"
        }
      ],
      "name": "configure",
      "outputs": [],
      "payable": false,
      "stateMutability": "nonpayable",
      "type": "function"
    },
    {
      "constant": true,
      "inputs": [],
      "name": "getInitFunction",
      "outputs": [
        {
          "name": "",
          "type": "bytes4"
        }
      ],
      "payable": false,
      "stateMutability": "pure",
      "type": "function"
    },
    {
      "constant": true,
      "inputs": [],
      "name": "getNumberInvestors",
      "outputs": [
        {
          "name": "",
          "type": "uint256"
        }
      ],
      "payable": false,
      "stateMutability": "view",
      "type": "function"
    },
    {
      "constant": true,
      "inputs": [],
      "name": "getTokensSold",
      "outputs": [
        {
          "name": "",
          "type": "uint256"
        }
      ],
      "payable": false,
      "stateMutability": "view",
      "type": "function"
    },
    {
      "constant": true,
      "inputs": [],
      "name": "getPermissions",
      "outputs": [
        {
          "name": "",
          "type": "bytes32[]"
        }
      ],
      "payable": false,
      "stateMutability": "view",
      "type": "function"
    },
    {
      "constant": false,
      "inputs": [
        {
          "name": "_investor",
          "type": "address"
        },
        {
          "name": "_amount",
          "type": "uint256"
        },
        {
          "name": "_etherContributed",
          "type": "uint256"
        },
        {
          "name": "_polyContributed",
          "type": "uint256"
        }
      ],
      "name": "allocateTokens",
      "outputs": [],
      "payable": false,
      "stateMutability": "nonpayable",
      "type": "function"
    },
    {
      "constant": false,
      "inputs": [
        {
          "name": "_investors",
          "type": "address[]"
        },
        {
          "name": "_amounts",
          "type": "uint256[]"
        },
        {
          "name": "_etherContributed",
          "type": "uint256[]"
        },
        {
          "name": "_polyContributed",
          "type": "uint256[]"
        }
      ],
      "name": "allocateTokensMulti",
      "outputs": [],
      "payable": false,
      "stateMutability": "nonpayable",
      "type": "function"
    }
  ],
  "bytecode": "0x60806040526002805460a060020a60ff021916905534801561002057600080fd5b506040516040806119fc83398101604052805160209091015160018054600160a060020a03938416600160a060020a031991821617909155600080548216331790556002805493909216921691909117905561197b806100816000396000f3006080604052600436106101455763ffffffff60e060020a6000350416631613ec9d811461014a5780631903fe4f146101945780631eb25e0a146102965780633197cbb6146102ae57806338c59de9146102d55780633f4ba83a146102ea57806351eea775146102ff578063521eb273146103145780635c975abb146103455780635f7619a41461036e57806363b20117146103865780636f7bc9be1461039b5780636faa22a5146103bc57806378e97925146103d15780638456cb59146103e65780638905fd4f146103fb5780639a7cc1351461041c5780639a903ca714610437578063b2cca39d14610461578063b84dfbd214610476578063c3a07df61461048b578063c45a0155146104f0578063c4d2c6bd14610505578063d143a37914610520578063d70afa961461053b578063d7e64c0014610550578063ee7c0db014610565575b600080fd5b34801561015657600080fd5b5061015f61057a565b604080517fffffffff000000000000000000000000000000000000000000000000000000009092168252519081900360200190f35b3480156101a057600080fd5b506040805160206004803580820135838102808601850190965280855261029495369593946024949385019291829185019084908082843750506040805187358901803560208181028481018201909552818452989b9a998901989297509082019550935083925085019084908082843750506040805187358901803560208181028481018201909552818452989b9a998901989297509082019550935083925085019084908082843750506040805187358901803560208181028481018201909552818452989b9a9989019892975090820195509350839250850190849080828437509497506105af9650505050505050565b005b3480156102a257600080fd5b50610294600435610967565b3480156102ba57600080fd5b506102c3610a25565b60408051918252519081900360200190f35b3480156102e157600080fd5b506102c3610a2b565b3480156102f657600080fd5b50610294610a31565b34801561030b57600080fd5b506102c3610b19565b34801561032057600080fd5b50610329610b2b565b60408051600160a060020a039092168252519081900360200190f35b34801561035157600080fd5b5061035a610b3a565b604080519115158252519081900360200190f35b34801561037a57600080fd5b5061035a600435610b5b565b34801561039257600080fd5b506102c3610e9f565b3480156103a757600080fd5b506102c3600160a060020a0360043516610ea5565b3480156103c857600080fd5b50610329610eb7565b3480156103dd57600080fd5b506102c3610ec6565b3480156103f257600080fd5b50610294610ecc565b34801561040757600080fd5b50610294600160a060020a0360043516610fc0565b34801561042857600080fd5b506102c360ff600435166111ee565b34801561044357600080fd5b50610294600160a060020a036004351660243560443560643561121a565b34801561046d57600080fd5b506102c36116ab565b34801561048257600080fd5b506103296116b1565b34801561049757600080fd5b506104a06116c0565b60408051602080825283518183015283519192839290830191858101910280838360005b838110156104dc5781810151838201526020016104c4565b505050509050019250505060405180910390f35b3480156104fc57600080fd5b50610329611712565b34801561051157600080fd5b506102c360ff60043516611721565b34801561052c57600080fd5b5061035a60ff60043516611733565b34801561054757600080fd5b506102c3611748565b34801561055c57600080fd5b506102c361176c565b34801561057157600080fd5b506102c3611772565b604080517f636f6e6669677572652875696e743235362900000000000000000000000000008152905190819003601201902090565b6000600080516020611930833981519152600080600160009054906101000a9004600160a060020a0316600160a060020a0316638da5cb5b6040518163ffffffff1660e060020a028152600401602060405180830381600087803b15801561061657600080fd5b505af115801561062a573d6000803e3d6000fd5b505050506040513d602081101561064057600080fd5b505160005433600160a060020a0392831681149450911614905081806106635750805b806107095750600154604080517f8658b8b9000000000000000000000000000000000000000000000000000000008152336004820152306024820152604481018690529051600160a060020a0390921691638658b8b9916064808201926020929091908290030181600087803b1580156106dc57600080fd5b505af11580156106f0573d6000803e3d6000fd5b505050506040513d602081101561070657600080fd5b50515b151561075f576040805160e560020a62461bcd02815260206004820152601760248201527f5065726d697373696f6e20636865636b206661696c6564000000000000000000604482015290519081900360640190fd5b86518851146107de576040805160e560020a62461bcd02815260206004820152602560248201527f4d69732d6d6174636820696e20746865206c656e677468206f6620746865206160448201527f7272617973000000000000000000000000000000000000000000000000000000606482015290519081900360840190fd5b845186511461085d576040805160e560020a62461bcd02815260206004820152602560248201527f4d69732d6d6174636820696e20746865206c656e677468206f6620746865206160448201527f7272617973000000000000000000000000000000000000000000000000000000606482015290519081900360840190fd5b87518651146108dc576040805160e560020a62461bcd02815260206004820152602560248201527f4d69732d6d6174636820696e20746865206c656e677468206f6620746865206160448201527f7272617973000000000000000000000000000000000000000000000000000000606482015290519081900360840190fd5b600093505b875184101561095d5761095288858151811015156108fb57fe5b90602001906020020151888681518110151561091357fe5b90602001906020020151888781518110151561092b57fe5b90602001906020020151888881518110151561094357fe5b9060200190602002015161121a565b6001909301926108e1565b5050505050505050565b600054600160a060020a031633146109c9576040805160e560020a62461bcd02815260206004820152601560248201527f53656e646572206973206e6f7420666163746f72790000000000000000000000604482015290519081900360640190fd5b801515610a20576040805160e560020a62461bcd02815260206004820152601760248201527f656e6454696d652073686f756c64206e6f742062652030000000000000000000604482015290519081900360640190fd5b600655565b60065481565b60085490565b600160009054906101000a9004600160a060020a0316600160a060020a0316638da5cb5b6040518163ffffffff1660e060020a028152600401602060405180830381600087803b158015610a8457600080fd5b505af1158015610a98573d6000803e3d6000fd5b505050506040513d6020811015610aae57600080fd5b5051600160a060020a03163314610b0f576040805160e560020a62461bcd02815260206004820152601360248201527f53656e646572206973206e6f74206f776e657200000000000000000000000000604482015290519081900360640190fd5b610b17611778565b565b60008051602061193083398151915281565b600954600160a060020a031681565b60025474010000000000000000000000000000000000000000900460ff1681565b60007f4645455f41444d494e0000000000000000000000000000000000000000000000600080600160009054906101000a9004600160a060020a0316600160a060020a0316638da5cb5b6040518163ffffffff1660e060020a028152600401602060405180830381600087803b158015610bd457600080fd5b505af1158015610be8573d6000803e3d6000fd5b505050506040513d6020811015610bfe57600080fd5b505160005433600160a060020a039283168114945091161490508180610c215750805b80610cc75750600154604080517f8658b8b9000000000000000000000000000000000000000000000000000000008152336004820152306024820152604481018690529051600160a060020a0390921691638658b8b9916064808201926020929091908290030181600087803b158015610c9a57600080fd5b505af1158015610cae573d6000803e3d6000fd5b505050506040513d6020811015610cc457600080fd5b50515b1515610d1d576040805160e560020a62461bcd02815260206004820152601760248201527f5065726d697373696f6e20636865636b206661696c6564000000000000000000604482015290519081900360640190fd5b60025460015460008054604080517f8da5cb5b0000000000000000000000000000000000000000000000000000000081529051600160a060020a03958616956323b872dd95811694931692638da5cb5b92600480820193602093909283900390910190829087803b158015610d9157600080fd5b505af1158015610da5573d6000803e3d6000fd5b505050506040513d6020811015610dbb57600080fd5b50516040805160e060020a63ffffffff8616028152600160a060020a039384166004820152929091166024830152604482018990525160648083019260209291908290030181600087803b158015610e1257600080fd5b505af1158015610e26573d6000803e3d6000fd5b505050506040513d6020811015610e3c57600080fd5b50511515610e94576040805160e560020a62461bcd02815260206004820152601260248201527f556e61626c6520746f2074616b65206665650000000000000000000000000000604482015290519081900360640190fd5b506001949350505050565b600a5481565b600b6020526000908152604090205481565b600254600160a060020a031681565b60055481565b600160009054906101000a9004600160a060020a0316600160a060020a0316638da5cb5b6040518163ffffffff1660e060020a028152600401602060405180830381600087803b158015610f1f57600080fd5b505af1158015610f33573d6000803e3d6000fd5b505050506040513d6020811015610f4957600080fd5b5051600160a060020a03163314610faa576040805160e560020a62461bcd02815260206004820152601360248201527f53656e646572206973206e6f74206f776e657200000000000000000000000000604482015290519081900360640190fd5b6006544210610fb857600080fd5b610b1761183f565b600080600160009054906101000a9004600160a060020a0316600160a060020a0316638da5cb5b6040518163ffffffff1660e060020a028152600401602060405180830381600087803b15801561101657600080fd5b505af115801561102a573d6000803e3d6000fd5b505050506040513d602081101561104057600080fd5b5051600160a060020a031633146110a1576040805160e560020a62461bcd02815260206004820152601360248201527f53656e646572206973206e6f74206f776e657200000000000000000000000000604482015290519081900360640190fd5b600160a060020a03831615156110b657600080fd5b604080517f70a082310000000000000000000000000000000000000000000000000000000081523060048201529051849350600160a060020a038416916370a082319160248083019260209291908290030181600087803b15801561111a57600080fd5b505af115801561112e573d6000803e3d6000fd5b505050506040513d602081101561114457600080fd5b5051604080517fa9059cbb000000000000000000000000000000000000000000000000000000008152336004820152602481018390529051919250600160a060020a0384169163a9059cbb916044808201926020929091908290030181600087803b1580156111b257600080fd5b505af11580156111c6573d6000803e3d6000fd5b505050506040513d60208110156111dc57600080fd5b505115156111e957600080fd5b505050565b60006004600083600281111561120057fe5b60ff16815260208101919091526040016000205492915050565b600080516020611930833981519152600080600160009054906101000a9004600160a060020a0316600160a060020a0316638da5cb5b6040518163ffffffff1660e060020a028152600401602060405180830381600087803b15801561127f57600080fd5b505af1158015611293573d6000803e3d6000fd5b505050506040513d60208110156112a957600080fd5b505160005433600160a060020a0392831681149450911614905081806112cc5750805b806113725750600154604080517f8658b8b9000000000000000000000000000000000000000000000000000000008152336004820152306024820152604481018690529051600160a060020a0390921691638658b8b9916064808201926020929091908290030181600087803b15801561134557600080fd5b505af1158015611359573d6000803e3d6000fd5b505050506040513d602081101561136f57600080fd5b50515b15156113c8576040805160e560020a62461bcd02815260206004820152601760248201527f5065726d697373696f6e20636865636b206661696c6564000000000000000000604482015290519081900360640190fd5b600654421115611448576040805160e560020a62461bcd02815260206004820152602960248201527f43757272656e742074696d652073686f756c64206c657373207468616e20746860448201527f6520656e6454696d650000000000000000000000000000000000000000000000606482015290519081900360840190fd5b600086116114c6576040805160e560020a62461bcd02815260206004820152603160248201527f4e6f2e206f6620746f6b656e732070726f76696465642073686f756c6420626560448201527f206772656174657220746865207a65726f000000000000000000000000000000606482015290519081900360840190fd5b600154604080517f40c10f19000000000000000000000000000000000000000000000000000000008152600160a060020a038a81166004830152602482018a9052915191909216916340c10f199160448083019260209291908290030181600087803b15801561153557600080fd5b505af1158015611549573d6000803e3d6000fd5b505050506040513d602081101561155f57600080fd5b5050600160a060020a0387166000908152600b602052604090205461158a908763ffffffff61191c16565b600160a060020a0388166000908152600b60205260409020556008546115b790600163ffffffff61191c16565b6008556115e48560046000805b60ff1681526020810191909152604001600020549063ffffffff61191c16565b6000808052600460208190527f17ef568e3e12ab5b9c7254a8d58478811de00f9e6eb34345acd53bf8fd09d3ec9290925561162291869160016115c4565b600160005260046020527fabd6e7cb50984ff9c2f3e18a2660c3353dadf4e3291deeb275dae2cd1e44fe0555600a5461165b908761191c565b600a5560408051600160a060020a03891681526020810188905281517f3b87361b8a201c697d51aaa7a509f6dfb3870db9e5c5501d22d3e9fae858f725929181900390910190a150505050505050565b60075481565b600154600160a060020a031681565b6040805160018082528183019092526060918291906020808301908038833901905050905060008051602061193083398151915281600081518110151561170357fe5b60209081029091010152905090565b600054600160a060020a031681565b60046020526000908152604090205481565b60036020526000908152604090205460ff1681565b7f4645455f41444d494e000000000000000000000000000000000000000000000081565b60085481565b600a5490565b60025474010000000000000000000000000000000000000000900460ff1615156117ec576040805160e560020a62461bcd02815260206004820152601660248201527f436f6e7472616374206973206e6f742070617573656400000000000000000000604482015290519081900360640190fd5b6002805474ff0000000000000000000000000000000000000000191690556040805142815290517faaa520fdd7d2c83061d632fa017b0432407e798818af63ea908589fceda39ab79181900360200190a1565b60025474010000000000000000000000000000000000000000900460ff16156118b2576040805160e560020a62461bcd02815260206004820152601260248201527f436f6e7472616374206973207061757365640000000000000000000000000000604482015290519081900360640190fd5b6002805474ff00000000000000000000000000000000000000001916740100000000000000000000000000000000000000001790556040805142815290517f68b095021b1f40fe513109f513c66692f0b3219aee674a69f4efc57badb8201d9181900360200190a1565b8181018281101561192957fe5b9291505056005052455f53414c455f41444d494e000000000000000000000000000000000000a165627a7a72305820d6b6130f57638541454485558e9b29c9a9bd3701582bb849acdb2834cce375340029",
  "source": "pragma solidity ^0.4.24;\n\nimport \"./ISTO.sol\";\nimport \"../../interfaces/ISecurityToken.sol\";\nimport \"openzeppelin-solidity/contracts/math/SafeMath.sol\";\n\n/**\n * @title STO module for private presales\n */\ncontract PreSaleSTO is ISTO {\n    using SafeMath for uint256;\n\n    bytes32 public constant PRE_SALE_ADMIN = \"PRE_SALE_ADMIN\";\n\n    event TokensAllocated(address _investor, uint256 _amount);\n\n    mapping (address => uint256) public investors;\n\n    /**\n     * @notice Constructor\n     * @param _securityToken Address of the security token\n     * @param _polyAddress Address of the polytoken\n     */\n    constructor (address _securityToken, address _polyAddress) public\n    Module(_securityToken, _polyAddress)\n    {\n    }\n\n    /**\n     * @notice Function used to initialize the different variables\n     * @param _endTime Unix timestamp at which offering ends\n     */\n    function configure(uint256 _endTime) public onlyFactory {\n        require(_endTime != 0, \"endTime should not be 0\");\n        endTime = _endTime;\n    }\n\n    /**\n     * @notice This function returns the signature of the configure function\n     */\n    function getInitFunction() public pure returns (bytes4) {\n        return bytes4(keccak256(\"configure(uint256)\"));\n    }\n\n    /**\n     * @notice Return the total no. of investors\n     */\n    function getNumberInvestors() public view returns (uint256) {\n        return investorCount;\n    }\n\n    /**\n     * @notice Return the total no. of tokens sold\n     */\n    function getTokensSold() public view returns (uint256) {\n        return totalTokensSold;\n    }\n\n    /**\n     * @notice Return the permissions flag that are associated with STO\n     */\n    function getPermissions() public view returns(bytes32[]) {\n        bytes32[] memory allPermissions = new bytes32[](1);\n        allPermissions[0] = PRE_SALE_ADMIN;\n        return allPermissions;\n    }\n\n    /**\n     * @notice Function used to allocate tokens to the investor\n     * @param _investor Address of the investor\n     * @param _amount No. of tokens to be transferred to the investor\n     * @param _etherContributed How much ETH was contributed\n     * @param _polyContributed How much POLY was contributed\n     */\n    function allocateTokens(address _investor, uint256 _amount, uint256 _etherContributed, uint256 _polyContributed) public withPerm(PRE_SALE_ADMIN)\n    {\n        require(now <= endTime, \"Current time should less than the endTime\");\n        require(_amount > 0, \"No. of tokens provided should be greater the zero\");\n        ISecurityToken(securityToken).mint(_investor, _amount);\n        investors[_investor] = investors[_investor].add(_amount);\n        investorCount = investorCount.add(1);\n        fundsRaised[uint8(FundRaiseType.ETH)] = fundsRaised[uint8(FundRaiseType.ETH)].add(_etherContributed);\n        fundsRaised[uint8(FundRaiseType.POLY)] = fundsRaised[uint8(FundRaiseType.POLY)].add(_polyContributed);\n        totalTokensSold = totalTokensSold.add(_amount);\n        emit TokensAllocated(_investor, _amount);\n    }\n\n    /**\n     * @notice Function used to allocate tokens to multiple investors\n     * @param _investors Array of address of the investors\n     * @param _amounts Array of no. of tokens to be transferred to the investors\n     * @param _etherContributed Array of amount of ETH contributed by each investor\n     * @param _polyContributed Array of amount of POLY contributed by each investor\n     */\n    function allocateTokensMulti(address[] _investors, uint256[] _amounts, uint256[] _etherContributed, uint256[] _polyContributed) public withPerm(PRE_SALE_ADMIN)\n    {\n        require(_investors.length == _amounts.length, \"Mis-match in the length of the arrays\");\n        require(_etherContributed.length == _polyContributed.length, \"Mis-match in the length of the arrays\");\n        require(_etherContributed.length == _investors.length, \"Mis-match in the length of the arrays\");\n        for (uint256 i = 0; i < _investors.length; i++) {\n            allocateTokens(_investors[i], _amounts[i], _etherContributed[i], _polyContributed[i]);\n        }\n    }\n}\n",
  "sourcePath": "/Users/jere/Code/polymath-apps/packages/polymath-shared/scripts/generateLocalBlockchain/contracts/modules/STO/PreSaleSTO.sol",
  "compiler": {
    "name": "solc",
    "version": "0.4.24+commit.e67f0147.Emscripten.clang"
  },
  "schemaVersion": "2.0.1",
  "updatedAt": "2018-10-23T18:29:22.763Z"
}