{
  "contractName": "PreSaleSTO",
  "abi": [
    {
      "constant": true,
      "inputs": [],
      "name": "endTime",
      "outputs": [
        {
          "name": "",
          "type": "uint256"
        }
      ],
      "payable": false,
      "stateMutability": "view",
      "type": "function"
    },
    {
      "constant": false,
      "inputs": [],
      "name": "unpause",
      "outputs": [],
      "payable": false,
      "stateMutability": "nonpayable",
      "type": "function"
    },
    {
      "constant": true,
      "inputs": [],
      "name": "tokensSold",
      "outputs": [
        {
          "name": "",
          "type": "uint256"
        }
      ],
      "payable": false,
      "stateMutability": "view",
      "type": "function"
    },
    {
      "constant": true,
      "inputs": [],
      "name": "PRE_SALE_ADMIN",
      "outputs": [
        {
          "name": "",
          "type": "bytes32"
        }
      ],
      "payable": false,
      "stateMutability": "view",
      "type": "function"
    },
    {
      "constant": true,
      "inputs": [],
      "name": "paused",
      "outputs": [
        {
          "name": "",
          "type": "bool"
        }
      ],
      "payable": false,
      "stateMutability": "view",
      "type": "function"
    },
    {
      "constant": false,
      "inputs": [
        {
          "name": "_amount",
          "type": "uint256"
        }
      ],
      "name": "takeFee",
      "outputs": [
        {
          "name": "",
          "type": "bool"
        }
      ],
      "payable": false,
      "stateMutability": "nonpayable",
      "type": "function"
    },
    {
      "constant": true,
      "inputs": [
        {
          "name": "",
          "type": "address"
        }
      ],
      "name": "investors",
      "outputs": [
        {
          "name": "",
          "type": "uint256"
        }
      ],
      "payable": false,
      "stateMutability": "view",
      "type": "function"
    },
    {
      "constant": true,
      "inputs": [],
      "name": "polyToken",
      "outputs": [
        {
          "name": "",
          "type": "address"
        }
      ],
      "payable": false,
      "stateMutability": "view",
      "type": "function"
    },
    {
      "constant": true,
      "inputs": [],
      "name": "startTime",
      "outputs": [
        {
          "name": "",
          "type": "uint256"
        }
      ],
      "payable": false,
      "stateMutability": "view",
      "type": "function"
    },
    {
      "constant": false,
      "inputs": [],
      "name": "pause",
      "outputs": [],
      "payable": false,
      "stateMutability": "nonpayable",
      "type": "function"
    },
    {
      "constant": false,
      "inputs": [
        {
          "name": "_tokenContract",
          "type": "address"
        }
      ],
      "name": "reclaimERC20",
      "outputs": [],
      "payable": false,
      "stateMutability": "nonpayable",
      "type": "function"
    },
    {
      "constant": true,
      "inputs": [
        {
          "name": "_beneficiary",
          "type": "address"
        },
        {
          "name": "_fundsAmount",
          "type": "uint256"
        }
      ],
      "name": "verifyInvestment",
      "outputs": [
        {
          "name": "",
          "type": "bool"
        }
      ],
      "payable": false,
      "stateMutability": "view",
      "type": "function"
    },
    {
      "constant": true,
      "inputs": [],
      "name": "pausedTime",
      "outputs": [
        {
          "name": "",
          "type": "uint256"
        }
      ],
      "payable": false,
      "stateMutability": "view",
      "type": "function"
    },
    {
      "constant": true,
      "inputs": [],
      "name": "securityToken",
      "outputs": [
        {
          "name": "",
          "type": "address"
        }
      ],
      "payable": false,
      "stateMutability": "view",
      "type": "function"
    },
    {
      "constant": true,
      "inputs": [],
      "name": "polyRaised",
      "outputs": [
        {
          "name": "",
          "type": "uint256"
        }
      ],
      "payable": false,
      "stateMutability": "view",
      "type": "function"
    },
    {
      "constant": true,
      "inputs": [],
      "name": "factory",
      "outputs": [
        {
          "name": "",
          "type": "address"
        }
      ],
      "payable": false,
      "stateMutability": "view",
      "type": "function"
    },
    {
      "constant": true,
      "inputs": [],
      "name": "etherRaised",
      "outputs": [
        {
          "name": "",
          "type": "uint256"
        }
      ],
      "payable": false,
      "stateMutability": "view",
      "type": "function"
    },
    {
      "constant": true,
      "inputs": [],
      "name": "FEE_ADMIN",
      "outputs": [
        {
          "name": "",
          "type": "bytes32"
        }
      ],
      "payable": false,
      "stateMutability": "view",
      "type": "function"
    },
    {
      "constant": true,
      "inputs": [],
      "name": "investorCount",
      "outputs": [
        {
          "name": "",
          "type": "uint256"
        }
      ],
      "payable": false,
      "stateMutability": "view",
      "type": "function"
    },
    {
      "constant": true,
      "inputs": [
        {
          "name": "",
          "type": "uint8"
        }
      ],
      "name": "fundRaiseType",
      "outputs": [
        {
          "name": "",
          "type": "bool"
        }
      ],
      "payable": false,
      "stateMutability": "view",
      "type": "function"
    },
    {
      "inputs": [
        {
          "name": "_securityToken",
          "type": "address"
        },
        {
          "name": "_polyAddress",
          "type": "address"
        }
      ],
      "payable": false,
      "stateMutability": "nonpayable",
      "type": "constructor"
    },
    {
      "anonymous": false,
      "inputs": [
        {
          "indexed": false,
          "name": "_investor",
          "type": "address"
        },
        {
          "indexed": false,
          "name": "_amount",
          "type": "uint256"
        }
      ],
      "name": "TokensAllocated",
      "type": "event"
    },
    {
      "anonymous": false,
      "inputs": [
        {
          "indexed": false,
          "name": "_timestammp",
          "type": "uint256"
        }
      ],
      "name": "Pause",
      "type": "event"
    },
    {
      "anonymous": false,
      "inputs": [
        {
          "indexed": false,
          "name": "_timestamp",
          "type": "uint256"
        }
      ],
      "name": "Unpause",
      "type": "event"
    },
    {
      "constant": false,
      "inputs": [
        {
          "name": "_endTime",
          "type": "uint256"
        }
      ],
      "name": "configure",
      "outputs": [],
      "payable": false,
      "stateMutability": "nonpayable",
      "type": "function"
    },
    {
      "constant": true,
      "inputs": [],
      "name": "getInitFunction",
      "outputs": [
        {
          "name": "",
          "type": "bytes4"
        }
      ],
      "payable": false,
      "stateMutability": "pure",
      "type": "function"
    },
    {
      "constant": true,
      "inputs": [],
      "name": "getRaisedEther",
      "outputs": [
        {
          "name": "",
          "type": "uint256"
        }
      ],
      "payable": false,
      "stateMutability": "view",
      "type": "function"
    },
    {
      "constant": true,
      "inputs": [],
      "name": "getRaisedPOLY",
      "outputs": [
        {
          "name": "",
          "type": "uint256"
        }
      ],
      "payable": false,
      "stateMutability": "view",
      "type": "function"
    },
    {
      "constant": true,
      "inputs": [],
      "name": "getNumberInvestors",
      "outputs": [
        {
          "name": "",
          "type": "uint256"
        }
      ],
      "payable": false,
      "stateMutability": "view",
      "type": "function"
    },
    {
      "constant": true,
      "inputs": [],
      "name": "getTokensSold",
      "outputs": [
        {
          "name": "",
          "type": "uint256"
        }
      ],
      "payable": false,
      "stateMutability": "view",
      "type": "function"
    },
    {
      "constant": true,
      "inputs": [],
      "name": "getPermissions",
      "outputs": [
        {
          "name": "",
          "type": "bytes32[]"
        }
      ],
      "payable": false,
      "stateMutability": "view",
      "type": "function"
    },
    {
      "constant": false,
      "inputs": [
        {
          "name": "_investor",
          "type": "address"
        },
        {
          "name": "_amount",
          "type": "uint256"
        },
        {
          "name": "_etherContributed",
          "type": "uint256"
        },
        {
          "name": "_polyContributed",
          "type": "uint256"
        }
      ],
      "name": "allocateTokens",
      "outputs": [],
      "payable": false,
      "stateMutability": "nonpayable",
      "type": "function"
    },
    {
      "constant": false,
      "inputs": [
        {
          "name": "_investors",
          "type": "address[]"
        },
        {
          "name": "_amounts",
          "type": "uint256[]"
        },
        {
          "name": "_etherContributed",
          "type": "uint256[]"
        },
        {
          "name": "_polyContributed",
          "type": "uint256[]"
        }
      ],
      "name": "allocateTokensMulti",
      "outputs": [],
      "payable": false,
      "stateMutability": "nonpayable",
      "type": "function"
    }
  ],
  "bytecode": "0x60806040526002805460a060020a60ff021916905534801561002057600080fd5b50604051604080611a4783398101604052805160209091015160018054600160a060020a03938416600160a060020a03199182161790915560008054821633179055600280549390921692169190911790556119c6806100816000396000f30060806040526004361061015b5763ffffffff60e060020a6000350416631613ec9d81146101605780631903fe4f146101aa5780631eb25e0a146102ac5780633197cbb6146102c457806335ff3a51146102eb57806338c59de9146103005780633f4ba83a14610315578063518ab2a81461032a57806351eea7751461033f5780635c975abb146103545780635f7619a41461037d5780636f7bc9be146103955780636faa22a5146103b657806378e97925146103e75780638456cb59146103fc5780638905fd4f146104115780639a903ca714610432578063a3fb8f151461045c578063a412f87c14610471578063b2cca39d14610495578063b84dfbd2146104aa578063be16338c146104bf578063c3a07df6146104d4578063c45a015514610539578063cd72ab691461054e578063d70afa9614610563578063d7e64c0014610578578063eda524bc1461058d578063ee7c0db0146105a8575b600080fd5b34801561016c57600080fd5b506101756105bd565b604080517fffffffff000000000000000000000000000000000000000000000000000000009092168252519081900360200190f35b3480156101b657600080fd5b50604080516020600480358082013583810280860185019096528085526102aa95369593946024949385019291829185019084908082843750506040805187358901803560208181028481018201909552818452989b9a998901989297509082019550935083925085019084908082843750506040805187358901803560208181028481018201909552818452989b9a998901989297509082019550935083925085019084908082843750506040805187358901803560208181028481018201909552818452989b9a9989019892975090820195509350839250850190849080828437509497506105f29650505050505050565b005b3480156102b857600080fd5b506102aa6004356109aa565b3480156102d057600080fd5b506102d9610a68565b60408051918252519081900360200190f35b3480156102f757600080fd5b506102d9610a6e565b34801561030c57600080fd5b506102d9610a74565b34801561032157600080fd5b506102aa610a7a565b34801561033657600080fd5b506102d9610b62565b34801561034b57600080fd5b506102d9610b68565b34801561036057600080fd5b50610369610b7a565b604080519115158252519081900360200190f35b34801561038957600080fd5b50610369600435610b9b565b3480156103a157600080fd5b506102d9600160a060020a0360043516610eda565b3480156103c257600080fd5b506103cb610eec565b60408051600160a060020a039092168252519081900360200190f35b3480156103f357600080fd5b506102d9610efb565b34801561040857600080fd5b506102aa610f01565b34801561041d57600080fd5b506102aa600160a060020a0360043516610ff5565b34801561043e57600080fd5b506102aa600160a060020a0360043516602435604435606435611223565b34801561046857600080fd5b506102d9611652565b34801561047d57600080fd5b50610369600160a060020a0360043516602435611658565b3480156104a157600080fd5b506102d96116fc565b3480156104b657600080fd5b506103cb611702565b3480156104cb57600080fd5b506102d9611711565b3480156104e057600080fd5b506104e9611717565b60408051602080825283518183015283519192839290830191858101910280838360005b8381101561052557818101518382015260200161050d565b505050509050019250505060405180910390f35b34801561054557600080fd5b506103cb611769565b34801561055a57600080fd5b506102d9611778565b34801561056f57600080fd5b506102d961177e565b34801561058457600080fd5b506102d96117a2565b34801561059957600080fd5b5061036960ff600435166117a8565b3480156105b457600080fd5b506102d96117bd565b604080517f636f6e6669677572652875696e743235362900000000000000000000000000008152905190819003601201902090565b600060008051602061197b833981519152600080600160009054906101000a9004600160a060020a0316600160a060020a0316638da5cb5b6040518163ffffffff1660e060020a028152600401602060405180830381600087803b15801561065957600080fd5b505af115801561066d573d6000803e3d6000fd5b505050506040513d602081101561068357600080fd5b505160005433600160a060020a0392831681149450911614905081806106a65750805b8061074c5750600154604080517f8658b8b9000000000000000000000000000000000000000000000000000000008152336004820152306024820152604481018690529051600160a060020a0390921691638658b8b9916064808201926020929091908290030181600087803b15801561071f57600080fd5b505af1158015610733573d6000803e3d6000fd5b505050506040513d602081101561074957600080fd5b50515b15156107a2576040805160e560020a62461bcd02815260206004820152601760248201527f5065726d697373696f6e20636865636b206661696c6564000000000000000000604482015290519081900360640190fd5b8651885114610821576040805160e560020a62461bcd02815260206004820152602560248201527f4d69732d6d6174636820696e20746865206c656e677468206f6620746865206160448201527f7272617973000000000000000000000000000000000000000000000000000000606482015290519081900360840190fd5b84518651146108a0576040805160e560020a62461bcd02815260206004820152602560248201527f4d69732d6d6174636820696e20746865206c656e677468206f6620746865206160448201527f7272617973000000000000000000000000000000000000000000000000000000606482015290519081900360840190fd5b875186511461091f576040805160e560020a62461bcd02815260206004820152602560248201527f4d69732d6d6174636820696e20746865206c656e677468206f6620746865206160448201527f7272617973000000000000000000000000000000000000000000000000000000606482015290519081900360840190fd5b600093505b87518410156109a057610995888581518110151561093e57fe5b90602001906020020151888681518110151561095657fe5b90602001906020020151888781518110151561096e57fe5b90602001906020020151888881518110151561098657fe5b90602001906020020151611223565b600190930192610924565b5050505050505050565b600054600160a060020a03163314610a0c576040805160e560020a62461bcd02815260206004820152601560248201527f53656e646572206973206e6f7420666163746f72790000000000000000000000604482015290519081900360640190fd5b801515610a63576040805160e560020a62461bcd02815260206004820152601760248201527f656e6454696d652073686f756c64206e6f742062652030000000000000000000604482015290519081900360640190fd5b600555565b60055481565b60095490565b60085490565b600160009054906101000a9004600160a060020a0316600160a060020a0316638da5cb5b6040518163ffffffff1660e060020a028152600401602060405180830381600087803b158015610acd57600080fd5b505af1158015610ae1573d6000803e3d6000fd5b505050506040513d6020811015610af757600080fd5b5051600160a060020a03163314610b58576040805160e560020a62461bcd02815260206004820152601360248201527f53656e646572206973206e6f74206f776e657200000000000000000000000000604482015290519081900360640190fd5b610b606117c3565b565b600b5481565b60008051602061197b83398151915281565b60025474010000000000000000000000000000000000000000900460ff1681565b60007f4645455f41444d494e0000000000000000000000000000000000000000000000600080600160009054906101000a9004600160a060020a0316600160a060020a0316638da5cb5b6040518163ffffffff1660e060020a028152600401602060405180830381600087803b158015610c1457600080fd5b505af1158015610c28573d6000803e3d6000fd5b505050506040513d6020811015610c3e57600080fd5b505160005433600160a060020a039283168114945091161490508180610c615750805b80610d075750600154604080517f8658b8b9000000000000000000000000000000000000000000000000000000008152336004820152306024820152604481018690529051600160a060020a0390921691638658b8b9916064808201926020929091908290030181600087803b158015610cda57600080fd5b505af1158015610cee573d6000803e3d6000fd5b505050506040513d6020811015610d0457600080fd5b50515b1515610d5d576040805160e560020a62461bcd02815260206004820152601760248201527f5065726d697373696f6e20636865636b206661696c6564000000000000000000604482015290519081900360640190fd5b60025460008054604080517f8da5cb5b0000000000000000000000000000000000000000000000000000000081529051600160a060020a03948516946323b872dd94309490911692638da5cb5b9260048083019360209383900390910190829087803b158015610dcc57600080fd5b505af1158015610de0573d6000803e3d6000fd5b505050506040513d6020811015610df657600080fd5b50516040805160e060020a63ffffffff8616028152600160a060020a039384166004820152929091166024830152604482018990525160648083019260209291908290030181600087803b158015610e4d57600080fd5b505af1158015610e61573d6000803e3d6000fd5b505050506040513d6020811015610e7757600080fd5b50511515610ecf576040805160e560020a62461bcd02815260206004820152601260248201527f556e61626c6520746f2074616b65206665650000000000000000000000000000604482015290519081900360640190fd5b506001949350505050565b60076020526000908152604090205481565b600254600160a060020a031681565b60045481565b600160009054906101000a9004600160a060020a0316600160a060020a0316638da5cb5b6040518163ffffffff1660e060020a028152600401602060405180830381600087803b158015610f5457600080fd5b505af1158015610f68573d6000803e3d6000fd5b505050506040513d6020811015610f7e57600080fd5b5051600160a060020a03163314610fdf576040805160e560020a62461bcd02815260206004820152601360248201527f53656e646572206973206e6f74206f776e657200000000000000000000000000604482015290519081900360640190fd5b6005544210610fed57600080fd5b610b6061188a565b600080600160009054906101000a9004600160a060020a0316600160a060020a0316638da5cb5b6040518163ffffffff1660e060020a028152600401602060405180830381600087803b15801561104b57600080fd5b505af115801561105f573d6000803e3d6000fd5b505050506040513d602081101561107557600080fd5b5051600160a060020a031633146110d6576040805160e560020a62461bcd02815260206004820152601360248201527f53656e646572206973206e6f74206f776e657200000000000000000000000000604482015290519081900360640190fd5b600160a060020a03831615156110eb57600080fd5b604080517f70a082310000000000000000000000000000000000000000000000000000000081523060048201529051849350600160a060020a038416916370a082319160248083019260209291908290030181600087803b15801561114f57600080fd5b505af1158015611163573d6000803e3d6000fd5b505050506040513d602081101561117957600080fd5b5051604080517fa9059cbb000000000000000000000000000000000000000000000000000000008152336004820152602481018390529051919250600160a060020a0384169163a9059cbb916044808201926020929091908290030181600087803b1580156111e757600080fd5b505af11580156111fb573d6000803e3d6000fd5b505050506040513d602081101561121157600080fd5b5051151561121e57600080fd5b505050565b60008051602061197b833981519152600080600160009054906101000a9004600160a060020a0316600160a060020a0316638da5cb5b6040518163ffffffff1660e060020a028152600401602060405180830381600087803b15801561128857600080fd5b505af115801561129c573d6000803e3d6000fd5b505050506040513d60208110156112b257600080fd5b505160005433600160a060020a0392831681149450911614905081806112d55750805b8061137b5750600154604080517f8658b8b9000000000000000000000000000000000000000000000000000000008152336004820152306024820152604481018690529051600160a060020a0390921691638658b8b9916064808201926020929091908290030181600087803b15801561134e57600080fd5b505af1158015611362573d6000803e3d6000fd5b505050506040513d602081101561137857600080fd5b50515b15156113d1576040805160e560020a62461bcd02815260206004820152601760248201527f5065726d697373696f6e20636865636b206661696c6564000000000000000000604482015290519081900360640190fd5b600554421115611451576040805160e560020a62461bcd02815260206004820152602960248201527f43757272656e742074696d652073686f756c64206c657373207468616e20746860448201527f6520656e6454696d650000000000000000000000000000000000000000000000606482015290519081900360840190fd5b600086116114cf576040805160e560020a62461bcd02815260206004820152603160248201527f4e6f2e206f6620746f6b656e732070726f76696465642073686f756c6420626560448201527f206772656174657220746865207a65726f000000000000000000000000000000606482015290519081900360840190fd5b600154604080517f40c10f19000000000000000000000000000000000000000000000000000000008152600160a060020a038a81166004830152602482018a9052915191909216916340c10f199160448083019260209291908290030181600087803b15801561153e57600080fd5b505af1158015611552573d6000803e3d6000fd5b505050506040513d602081101561156857600080fd5b5050600160a060020a038716600090815260076020526040902054611593908763ffffffff61196716565b600160a060020a0388166000908152600760205260409020556008546115c090600163ffffffff61196716565b6008556009546115d6908663ffffffff61196716565b600955600a546115ec908563ffffffff61196716565b600a55600b54611602908763ffffffff61196716565b600b5560408051600160a060020a03891681526020810188905281517f3b87361b8a201c697d51aaa7a509f6dfb3870db9e5c5501d22d3e9fae858f725929181900390910190a150505050505050565b600a5490565b600254604080517fdd62ed3e000000000000000000000000000000000000000000000000000000008152600160a060020a03858116600483015230602483015291516000938593169163dd62ed3e91604480830192602092919082900301818887803b1580156116c757600080fd5b505af11580156116db573d6000803e3d6000fd5b505050506040513d60208110156116f157600080fd5b505110159392505050565b60065481565b600154600160a060020a031681565b600a5481565b6040805160018082528183019092526060918291906020808301908038833901905050905060008051602061197b83398151915281600081518110151561175a57fe5b60209081029091010152905090565b600054600160a060020a031681565b60095481565b7f4645455f41444d494e000000000000000000000000000000000000000000000081565b60085481565b60036020526000908152604090205460ff1681565b600b5490565b60025474010000000000000000000000000000000000000000900460ff161515611837576040805160e560020a62461bcd02815260206004820152601660248201527f436f6e7472616374206973206e6f742070617573656400000000000000000000604482015290519081900360640190fd5b6002805474ff0000000000000000000000000000000000000000191690556040805142815290517faaa520fdd7d2c83061d632fa017b0432407e798818af63ea908589fceda39ab79181900360200190a1565b60025474010000000000000000000000000000000000000000900460ff16156118fd576040805160e560020a62461bcd02815260206004820152601260248201527f436f6e7472616374206973207061757365640000000000000000000000000000604482015290519081900360640190fd5b6002805474ff00000000000000000000000000000000000000001916740100000000000000000000000000000000000000001790556040805142815290517f68b095021b1f40fe513109f513c66692f0b3219aee674a69f4efc57badb8201d9181900360200190a1565b8181018281101561197457fe5b9291505056005052455f53414c455f41444d494e000000000000000000000000000000000000a165627a7a7230582030e7673d55e3410794f5d916e5e85e7f905380f246e274600e9482219cf64e8e0029",
  "source": "pragma solidity ^0.4.24;\n\nimport \"./ISTO.sol\";\nimport \"../../interfaces/IST20.sol\";\nimport \"openzeppelin-solidity/contracts/math/SafeMath.sol\";\n\n/**\n * @title STO module for private presales\n */\ncontract PreSaleSTO is ISTO {\n    using SafeMath for uint256;\n\n    bytes32 public constant PRE_SALE_ADMIN = \"PRE_SALE_ADMIN\";\n\n    event TokensAllocated(address _investor, uint256 _amount);\n\n    mapping (address => uint256) public investors;\n\n    uint256 public investorCount;\n\n    uint256 public etherRaised;\n    uint256 public polyRaised;\n\n    uint256 public tokensSold;\n\n    /**\n     * @notice Constructor\n     * @param _securityToken Address of the security token\n     * @param _polyAddress Address of the polytoken\n     */\n    constructor (address _securityToken, address _polyAddress) public\n      IModule(_securityToken, _polyAddress)\n    {\n    }\n\n    /**\n     * @notice Function used to intialize the differnet variables\n     * @param _endTime Unix timestamp at which offering get ended\n     */\n    function configure(uint256 _endTime) public onlyFactory {\n        require(_endTime != 0, \"endTime should not be 0\");\n        endTime = _endTime;\n    }\n\n    /**\n     * @notice This function returns the signature of configure function\n     */\n    function getInitFunction() public pure returns (bytes4) {\n        return bytes4(keccak256(\"configure(uint256)\"));\n    }\n\n    /**\n     * @notice Return ETH raised by the STO\n     */\n    function getRaisedEther() public view returns (uint256) {\n        return etherRaised;\n    }\n\n    /**\n     * @notice Return POLY raised by the STO\n     */\n    function getRaisedPOLY() public view returns (uint256) {\n        return polyRaised;\n    }\n\n    /**\n     * @notice Return the total no. of investors\n     */\n    function getNumberInvestors() public view returns (uint256) {\n        return investorCount;\n    }\n\n    /**\n     * @notice Return the total no. of tokens sold\n     */\n    function getTokensSold() public view returns (uint256) {\n        return tokensSold;\n    }\n\n    /**\n     * @notice Return the permissions flag that are associated with STO\n     */\n    function getPermissions() public view returns(bytes32[]) {\n        bytes32[] memory allPermissions = new bytes32[](1);\n        allPermissions[0] = PRE_SALE_ADMIN;\n        return allPermissions;\n    }\n\n    /**\n     * @notice Function used to allocate tokens to the investor\n     * @param _investor Address of the investor\n     * @param _amount No. of tokens need to transfered to the investor\n     * @param _etherContributed How much amount of ETH get contributed\n     * @param _polyContributed How much amount of POLY get contributed\n     */\n    function allocateTokens(address _investor, uint256 _amount, uint256 _etherContributed, uint256 _polyContributed) public withPerm(PRE_SALE_ADMIN)\n    {\n        require(now <= endTime, \"Current time should less than the endTime\");\n        require(_amount > 0, \"No. of tokens provided should be greater the zero\");\n        IST20(securityToken).mint(_investor, _amount);\n        investors[_investor] = investors[_investor].add(_amount);\n        investorCount = investorCount.add(1);\n        etherRaised = etherRaised.add(_etherContributed);\n        polyRaised = polyRaised.add(_polyContributed);\n        tokensSold = tokensSold.add(_amount);\n        emit TokensAllocated(_investor, _amount);\n    }\n\n    /**\n     * @notice Function used to allocate tokens to the multiple investor\n     * @param _investors Array of address of the investors\n     * @param _amounts Array of no. of tokens need to transfered to the investors\n     * @param _etherContributed Array of amount of ETH contributed by each investor\n     * @param _polyContributed Array of amount of POLY contributed by each investor\n     */\n    function allocateTokensMulti(address[] _investors, uint256[] _amounts, uint256[] _etherContributed, uint256[] _polyContributed) public withPerm(PRE_SALE_ADMIN)\n    {\n        require(_investors.length == _amounts.length, \"Mis-match in the length of the arrays\");\n        require(_etherContributed.length == _polyContributed.length, \"Mis-match in the length of the arrays\");\n        require(_etherContributed.length == _investors.length, \"Mis-match in the length of the arrays\");\n        for (uint256 i = 0; i < _investors.length; i++) {\n            allocateTokens(_investors[i], _amounts[i], _etherContributed[i], _polyContributed[i]);\n        }\n    }\n}\n",
  "sourcePath": "/Users/rafaelvidaurre/Code/polymath/polymath-apps/packages/polymath-shared/scripts/generateLocalBlockchain/contracts/modules/STO/PreSaleSTO.sol",
  "compiler": {
    "name": "solc",
    "version": "0.4.24+commit.e67f0147.Emscripten.clang"
  },
  "schemaVersion": "2.0.1",
  "updatedAt": "2018-10-10T15:54:24.480Z"
}