{
  "contractName": "RegistryUpdater",
  "abi": [
    {
      "constant": true,
      "inputs": [],
      "name": "tickerRegistry",
      "outputs": [
        {
          "name": "",
          "type": "address"
        }
      ],
      "payable": false,
      "stateMutability": "view",
      "type": "function"
    },
    {
      "constant": true,
      "inputs": [],
      "name": "polyToken",
      "outputs": [
        {
          "name": "",
          "type": "address"
        }
      ],
      "payable": false,
      "stateMutability": "view",
      "type": "function"
    },
    {
      "constant": false,
      "inputs": [],
      "name": "renounceOwnership",
      "outputs": [],
      "payable": false,
      "stateMutability": "nonpayable",
      "type": "function"
    },
    {
      "constant": true,
      "inputs": [],
      "name": "polymathRegistry",
      "outputs": [
        {
          "name": "",
          "type": "address"
        }
      ],
      "payable": false,
      "stateMutability": "view",
      "type": "function"
    },
    {
      "constant": true,
      "inputs": [],
      "name": "owner",
      "outputs": [
        {
          "name": "",
          "type": "address"
        }
      ],
      "payable": false,
      "stateMutability": "view",
      "type": "function"
    },
    {
      "constant": true,
      "inputs": [],
      "name": "moduleRegistry",
      "outputs": [
        {
          "name": "",
          "type": "address"
        }
      ],
      "payable": false,
      "stateMutability": "view",
      "type": "function"
    },
    {
      "constant": true,
      "inputs": [],
      "name": "securityTokenRegistry",
      "outputs": [
        {
          "name": "",
          "type": "address"
        }
      ],
      "payable": false,
      "stateMutability": "view",
      "type": "function"
    },
    {
      "constant": false,
      "inputs": [
        {
          "name": "_newOwner",
          "type": "address"
        }
      ],
      "name": "transferOwnership",
      "outputs": [],
      "payable": false,
      "stateMutability": "nonpayable",
      "type": "function"
    },
    {
      "inputs": [
        {
          "name": "_polymathRegistry",
          "type": "address"
        }
      ],
      "payable": false,
      "stateMutability": "nonpayable",
      "type": "constructor"
    },
    {
      "anonymous": false,
      "inputs": [
        {
          "indexed": true,
          "name": "previousOwner",
          "type": "address"
        }
      ],
      "name": "OwnershipRenounced",
      "type": "event"
    },
    {
      "anonymous": false,
      "inputs": [
        {
          "indexed": true,
          "name": "previousOwner",
          "type": "address"
        },
        {
          "indexed": true,
          "name": "newOwner",
          "type": "address"
        }
      ],
      "name": "OwnershipTransferred",
      "type": "event"
    },
    {
      "constant": false,
      "inputs": [],
      "name": "updateFromRegistry",
      "outputs": [],
      "payable": false,
      "stateMutability": "nonpayable",
      "type": "function"
    }
  ],
  "bytecode": "0x608060405234801561001057600080fd5b506040516020806106d7833981016040525160008054600160a060020a03191633179055600160a060020a038116151561004957600080fd5b60018054600160a060020a031916600160a060020a039290921691909117905561065f806100786000396000f3006080604052600436106100985763ffffffff7c01000000000000000000000000000000000000000000000000000000006000350416632a858126811461009d5780636faa22a5146100ce578063715018a6146100e357806377282b70146100fa5780638da5cb5b1461010f578063b95459e414610124578063ce4dbdff14610139578063f2fde38b1461014e578063f433262f1461016f575b600080fd5b3480156100a957600080fd5b506100b2610184565b60408051600160a060020a039092168252519081900360200190f35b3480156100da57600080fd5b506100b2610193565b3480156100ef57600080fd5b506100f86101a2565b005b34801561010657600080fd5b506100b261020e565b34801561011b57600080fd5b506100b261021d565b34801561013057600080fd5b506100b261022c565b34801561014557600080fd5b506100b261023b565b34801561015a57600080fd5b506100f8600160a060020a036004351661024a565b34801561017b57600080fd5b506100f861026d565b600454600160a060020a031681565b600554600160a060020a031681565b600054600160a060020a031633146101b957600080fd5b60008054604051600160a060020a03909116917ff8df31144d9c2f0f6b59d69b8b98abd5459d07f2742c4df920b25aae33c6482091a26000805473ffffffffffffffffffffffffffffffffffffffff19169055565b600154600160a060020a031681565b600054600160a060020a031681565b600254600160a060020a031681565b600354600160a060020a031681565b600054600160a060020a0316331461026157600080fd5b61026a816105b6565b50565b600054600160a060020a0316331461028457600080fd5b6001546040805160e060020a63bf40fac1028152602060048201819052600e60248301527f4d6f64756c65526567697374727900000000000000000000000000000000000060448301529151600160a060020a039093169263bf40fac1926064808401939192918290030181600087803b15801561030157600080fd5b505af1158015610315573d6000803e3d6000fd5b505050506040513d602081101561032b57600080fd5b50516002805473ffffffffffffffffffffffffffffffffffffffff1916600160a060020a039283161790556001546040805160e060020a63bf40fac1028152602060048201819052601560248301527f5365637572697479546f6b656e5265676973747279000000000000000000000060448301529151929093169263bf40fac192606480830193928290030181600087803b1580156103ca57600080fd5b505af11580156103de573d6000803e3d6000fd5b505050506040513d60208110156103f457600080fd5b50516003805473ffffffffffffffffffffffffffffffffffffffff1916600160a060020a039283161790556001546040805160e060020a63bf40fac1028152602060048201819052600e60248301527f5469636b6572526567697374727900000000000000000000000000000000000060448301529151929093169263bf40fac192606480830193928290030181600087803b15801561049357600080fd5b505af11580156104a7573d6000803e3d6000fd5b505050506040513d60208110156104bd57600080fd5b50516004805473ffffffffffffffffffffffffffffffffffffffff1916600160a060020a039283161781556001546040805160e060020a63bf40fac10281526020938101849052600960248201527f506f6c79546f6b656e000000000000000000000000000000000000000000000060448201529051919093169263bf40fac19260648083019391928290030181600087803b15801561055c57600080fd5b505af1158015610570573d6000803e3d6000fd5b505050506040513d602081101561058657600080fd5b50516005805473ffffffffffffffffffffffffffffffffffffffff1916600160a060020a03909216919091179055565b600160a060020a03811615156105cb57600080fd5b60008054604051600160a060020a03808516939216917f8be0079c531659141344cd1fd0a4f28419497f9722a3daafe3b4186f6b6457e091a36000805473ffffffffffffffffffffffffffffffffffffffff1916600160a060020a03929092169190911790555600a165627a7a72305820084e0c5b55823992b53ee53780338a98a3a86834d1e668a9039e88c88a615d9a0029",
  "source": "pragma solidity ^0.4.24;\n\nimport \"openzeppelin-solidity/contracts/ownership/Ownable.sol\";\nimport \"./PolymathRegistry.sol\";\n\ncontract RegistryUpdater is Ownable {\n\n    address public polymathRegistry;\n    address public moduleRegistry;\n    address public securityTokenRegistry;\n    address public tickerRegistry;\n    address public polyToken;\n\n    constructor (address _polymathRegistry) public {\n        require(_polymathRegistry != address(0));\n        polymathRegistry = _polymathRegistry;\n    }\n\n    function updateFromRegistry() onlyOwner public {\n        moduleRegistry = PolymathRegistry(polymathRegistry).getAddress(\"ModuleRegistry\");\n        securityTokenRegistry = PolymathRegistry(polymathRegistry).getAddress(\"SecurityTokenRegistry\");\n        tickerRegistry = PolymathRegistry(polymathRegistry).getAddress(\"TickerRegistry\");\n        polyToken = PolymathRegistry(polymathRegistry).getAddress(\"PolyToken\");\n    }\n\n}\n",
  "sourcePath": "/Users/rafaelvidaurre/Code/polymath/polymath-apps/packages/polymath-shared/contracts/RegistryUpdater.sol",
  "compiler": {
    "name": "solc",
    "version": "0.4.24+commit.e67f0147.Emscripten.clang"
  },
  "schemaVersion": "2.0.1",
  "updatedAt": "2018-09-20T22:48:16.674Z"
}