{
  "contractName": "SecurityTokenRegistry",
  "abi": [
    {
      "constant": true,
      "inputs": [
        {
          "name": "_variable",
          "type": "bytes32"
        }
      ],
      "name": "getBoolValues",
      "outputs": [
        {
          "name": "",
          "type": "bool"
        }
      ],
      "payable": false,
      "stateMutability": "view",
      "type": "function"
    },
    {
      "constant": true,
      "inputs": [
        {
          "name": "_variable",
          "type": "bytes32"
        }
      ],
      "name": "getUintValues",
      "outputs": [
        {
          "name": "",
          "type": "uint256"
        }
      ],
      "payable": false,
      "stateMutability": "view",
      "type": "function"
    },
    {
      "constant": true,
      "inputs": [
        {
          "name": "_variable",
          "type": "bytes32"
        }
      ],
      "name": "getStringValues",
      "outputs": [
        {
          "name": "",
          "type": "string"
        }
      ],
      "payable": false,
      "stateMutability": "view",
      "type": "function"
    },
    {
      "constant": true,
      "inputs": [
        {
          "name": "_variable",
          "type": "bytes32"
        }
      ],
      "name": "getBytes32Values",
      "outputs": [
        {
          "name": "",
          "type": "bytes32"
        }
      ],
      "payable": false,
      "stateMutability": "view",
      "type": "function"
    },
    {
      "constant": true,
      "inputs": [
        {
          "name": "_variable",
          "type": "bytes32"
        }
      ],
      "name": "getAddressValues",
      "outputs": [
        {
          "name": "",
          "type": "address"
        }
      ],
      "payable": false,
      "stateMutability": "view",
      "type": "function"
    },
    {
      "constant": true,
      "inputs": [
        {
          "name": "_variable",
          "type": "bytes32"
        }
      ],
      "name": "getBytesValues",
      "outputs": [
        {
          "name": "",
          "type": "bytes"
        }
      ],
      "payable": false,
      "stateMutability": "view",
      "type": "function"
    },
    {
      "anonymous": false,
      "inputs": [
        {
          "indexed": false,
          "name": "_timestammp",
          "type": "uint256"
        }
      ],
      "name": "Pause",
      "type": "event"
    },
    {
      "anonymous": false,
      "inputs": [
        {
          "indexed": false,
          "name": "_timestamp",
          "type": "uint256"
        }
      ],
      "name": "Unpause",
      "type": "event"
    },
    {
      "anonymous": false,
      "inputs": [
        {
          "indexed": false,
          "name": "_ticker",
          "type": "string"
        },
        {
          "indexed": false,
          "name": "_removedAt",
          "type": "uint256"
        },
        {
          "indexed": false,
          "name": "_removedBy",
          "type": "address"
        }
      ],
      "name": "TickerRemoved",
      "type": "event"
    },
    {
      "anonymous": false,
      "inputs": [
        {
          "indexed": false,
          "name": "_oldExpiry",
          "type": "uint256"
        },
        {
          "indexed": false,
          "name": "_newExpiry",
          "type": "uint256"
        }
      ],
      "name": "ChangeExpiryLimit",
      "type": "event"
    },
    {
      "anonymous": false,
      "inputs": [
        {
          "indexed": false,
          "name": "_oldFee",
          "type": "uint256"
        },
        {
          "indexed": false,
          "name": "_newFee",
          "type": "uint256"
        }
      ],
      "name": "ChangeSecurityLaunchFee",
      "type": "event"
    },
    {
      "anonymous": false,
      "inputs": [
        {
          "indexed": false,
          "name": "_oldFee",
          "type": "uint256"
        },
        {
          "indexed": false,
          "name": "_newFee",
          "type": "uint256"
        }
      ],
      "name": "ChangeTickerRegistrationFee",
      "type": "event"
    },
    {
      "anonymous": false,
      "inputs": [
        {
          "indexed": true,
          "name": "previousOwner",
          "type": "address"
        },
        {
          "indexed": true,
          "name": "newOwner",
          "type": "address"
        }
      ],
      "name": "OwnershipTransferred",
      "type": "event"
    },
    {
      "anonymous": false,
      "inputs": [
        {
          "indexed": false,
          "name": "_ticker",
          "type": "string"
        },
        {
          "indexed": true,
          "name": "_oldOwner",
          "type": "address"
        },
        {
          "indexed": true,
          "name": "_newOwner",
          "type": "address"
        }
      ],
      "name": "ChangeTickerOwnership",
      "type": "event"
    },
    {
      "anonymous": false,
      "inputs": [
        {
          "indexed": false,
          "name": "_ticker",
          "type": "string"
        },
        {
          "indexed": false,
          "name": "_name",
          "type": "string"
        },
        {
          "indexed": true,
          "name": "_securityTokenAddress",
          "type": "address"
        },
        {
          "indexed": true,
          "name": "_owner",
          "type": "address"
        },
        {
          "indexed": false,
          "name": "_addedAt",
          "type": "uint256"
        },
        {
          "indexed": false,
          "name": "_registrant",
          "type": "address"
        },
        {
          "indexed": false,
          "name": "_fromAdmin",
          "type": "bool"
        },
        {
          "indexed": false,
          "name": "_registrationFee",
          "type": "uint256"
        }
      ],
      "name": "NewSecurityToken",
      "type": "event"
    },
    {
      "anonymous": false,
      "inputs": [
        {
          "indexed": true,
          "name": "_owner",
          "type": "address"
        },
        {
          "indexed": false,
          "name": "_ticker",
          "type": "string"
        },
        {
          "indexed": false,
          "name": "_name",
          "type": "string"
        },
        {
          "indexed": true,
          "name": "_registrationDate",
          "type": "uint256"
        },
        {
          "indexed": true,
          "name": "_expiryDate",
          "type": "uint256"
        },
        {
          "indexed": false,
          "name": "_fromAdmin",
          "type": "bool"
        },
        {
          "indexed": false,
          "name": "_registrationFee",
          "type": "uint256"
        }
      ],
      "name": "RegisterTicker",
      "type": "event"
    },
    {
      "constant": false,
      "inputs": [
        {
          "name": "_polymathRegistry",
          "type": "address"
        },
        {
          "name": "_STFactory",
          "type": "address"
        },
        {
          "name": "_stLaunchFee",
          "type": "uint256"
        },
        {
          "name": "_tickerRegFee",
          "type": "uint256"
        },
        {
          "name": "_polyToken",
          "type": "address"
        },
        {
          "name": "_owner",
          "type": "address"
        }
      ],
      "name": "initialize",
      "outputs": [],
      "payable": true,
      "stateMutability": "payable",
      "type": "function"
    },
    {
      "constant": false,
      "inputs": [
        {
          "name": "_owner",
          "type": "address"
        },
        {
          "name": "_ticker",
          "type": "string"
        },
        {
          "name": "_tokenName",
          "type": "string"
        }
      ],
      "name": "registerTicker",
      "outputs": [],
      "payable": false,
      "stateMutability": "nonpayable",
      "type": "function"
    },
    {
      "constant": false,
      "inputs": [
        {
          "name": "_owner",
          "type": "address"
        },
        {
          "name": "_ticker",
          "type": "string"
        },
        {
          "name": "_tokenName",
          "type": "string"
        },
        {
          "name": "_registrationDate",
          "type": "uint256"
        },
        {
          "name": "_expiryDate",
          "type": "uint256"
        },
        {
          "name": "_status",
          "type": "bool"
        }
      ],
      "name": "modifyTicker",
      "outputs": [],
      "payable": false,
      "stateMutability": "nonpayable",
      "type": "function"
    },
    {
      "constant": false,
      "inputs": [
        {
          "name": "_ticker",
          "type": "string"
        }
      ],
      "name": "removeTicker",
      "outputs": [],
      "payable": false,
      "stateMutability": "nonpayable",
      "type": "function"
    },
    {
      "constant": false,
      "inputs": [
        {
          "name": "_newOwner",
          "type": "address"
        },
        {
          "name": "_ticker",
          "type": "string"
        }
      ],
      "name": "transferTickerOwnership",
      "outputs": [],
      "payable": false,
      "stateMutability": "nonpayable",
      "type": "function"
    },
    {
      "constant": false,
      "inputs": [
        {
          "name": "_newExpiry",
          "type": "uint256"
        }
      ],
      "name": "changeExpiryLimit",
      "outputs": [],
      "payable": false,
      "stateMutability": "nonpayable",
      "type": "function"
    },
    {
      "constant": true,
      "inputs": [
        {
          "name": "_owner",
          "type": "address"
        }
      ],
      "name": "getTickersByOwner",
      "outputs": [
        {
          "name": "",
          "type": "bytes32[]"
        }
      ],
      "payable": false,
      "stateMutability": "view",
      "type": "function"
    },
    {
      "constant": true,
      "inputs": [
        {
          "name": "_owner",
          "type": "address"
        }
      ],
      "name": "getTokensByOwner",
      "outputs": [
        {
          "name": "",
          "type": "address[]"
        }
      ],
      "payable": false,
      "stateMutability": "view",
      "type": "function"
    },
    {
      "constant": true,
      "inputs": [
        {
          "name": "_ticker",
          "type": "string"
        }
      ],
      "name": "getTickerDetails",
      "outputs": [
        {
          "name": "",
          "type": "address"
        },
        {
          "name": "",
          "type": "uint256"
        },
        {
          "name": "",
          "type": "uint256"
        },
        {
          "name": "",
          "type": "string"
        },
        {
          "name": "",
          "type": "bool"
        }
      ],
      "payable": false,
      "stateMutability": "view",
      "type": "function"
    },
    {
      "constant": false,
      "inputs": [
        {
          "name": "_name",
          "type": "string"
        },
        {
          "name": "_ticker",
          "type": "string"
        },
        {
          "name": "_tokenDetails",
          "type": "string"
        },
        {
          "name": "_divisible",
          "type": "bool"
        }
      ],
      "name": "generateSecurityToken",
      "outputs": [],
      "payable": false,
      "stateMutability": "nonpayable",
      "type": "function"
    },
    {
      "constant": false,
      "inputs": [
        {
          "name": "_name",
          "type": "string"
        },
        {
          "name": "_ticker",
          "type": "string"
        },
        {
          "name": "_owner",
          "type": "address"
        },
        {
          "name": "_securityToken",
          "type": "address"
        },
        {
          "name": "_tokenDetails",
          "type": "string"
        },
        {
          "name": "_deployedAt",
          "type": "uint256"
        }
      ],
      "name": "modifySecurityToken",
      "outputs": [],
      "payable": false,
      "stateMutability": "nonpayable",
      "type": "function"
    },
    {
      "constant": true,
      "inputs": [
        {
          "name": "_securityToken",
          "type": "address"
        }
      ],
      "name": "isSecurityToken",
      "outputs": [
        {
          "name": "",
          "type": "bool"
        }
      ],
      "payable": false,
      "stateMutability": "view",
      "type": "function"
    },
    {
      "constant": true,
      "inputs": [
        {
          "name": "_ticker",
          "type": "string"
        }
      ],
      "name": "getSecurityTokenAddress",
      "outputs": [
        {
          "name": "",
          "type": "address"
        }
      ],
      "payable": false,
      "stateMutability": "view",
      "type": "function"
    },
    {
      "constant": true,
      "inputs": [
        {
          "name": "_securityToken",
          "type": "address"
        }
      ],
      "name": "getSecurityTokenData",
      "outputs": [
        {
          "name": "",
          "type": "string"
        },
        {
          "name": "",
          "type": "address"
        },
        {
          "name": "",
          "type": "string"
        },
        {
          "name": "",
          "type": "uint256"
        }
      ],
      "payable": false,
      "stateMutability": "view",
      "type": "function"
    },
    {
      "constant": false,
      "inputs": [
        {
          "name": "_newOwner",
          "type": "address"
        }
      ],
      "name": "transferOwnership",
      "outputs": [],
      "payable": false,
      "stateMutability": "nonpayable",
      "type": "function"
    },
    {
      "constant": false,
      "inputs": [],
      "name": "pause",
      "outputs": [],
      "payable": false,
      "stateMutability": "nonpayable",
      "type": "function"
    },
    {
      "constant": false,
      "inputs": [],
      "name": "unpause",
      "outputs": [],
      "payable": false,
      "stateMutability": "nonpayable",
      "type": "function"
    },
    {
      "constant": false,
      "inputs": [
        {
          "name": "_tickerRegFee",
          "type": "uint256"
        }
      ],
      "name": "changeTickerRegistrationFee",
      "outputs": [],
      "payable": false,
      "stateMutability": "nonpayable",
      "type": "function"
    },
    {
      "constant": false,
      "inputs": [
        {
          "name": "_stLaunchFee",
          "type": "uint256"
        }
      ],
      "name": "changeSecurityLaunchFee",
      "outputs": [],
      "payable": false,
      "stateMutability": "nonpayable",
      "type": "function"
    },
    {
      "constant": false,
      "inputs": [
        {
          "name": "_tokenContract",
          "type": "address"
        }
      ],
      "name": "reclaimERC20",
      "outputs": [],
      "payable": false,
      "stateMutability": "nonpayable",
      "type": "function"
    },
    {
      "constant": false,
      "inputs": [
        {
          "name": "_STFactoryAddress",
          "type": "address"
        },
        {
          "name": "_major",
          "type": "uint8"
        },
        {
          "name": "_minor",
          "type": "uint8"
        },
        {
          "name": "_patch",
          "type": "uint8"
        }
      ],
      "name": "setProtocolVersion",
      "outputs": [],
      "payable": false,
      "stateMutability": "nonpayable",
      "type": "function"
    },
    {
      "constant": true,
      "inputs": [],
      "name": "getSTFactoryAddress",
      "outputs": [
        {
          "name": "",
          "type": "address"
        }
      ],
      "payable": false,
      "stateMutability": "view",
      "type": "function"
    },
    {
      "constant": true,
      "inputs": [],
      "name": "getProtocolVersion",
      "outputs": [
        {
          "name": "",
          "type": "uint8[]"
        }
      ],
      "payable": false,
      "stateMutability": "view",
      "type": "function"
    },
    {
      "constant": false,
      "inputs": [
        {
          "name": "_newAddress",
          "type": "address"
        }
      ],
      "name": "updatePolyTokenAddress",
      "outputs": [],
      "payable": false,
      "stateMutability": "nonpayable",
      "type": "function"
    },
    {
      "constant": true,
      "inputs": [],
      "name": "getSecurityTokenLaunchFee",
      "outputs": [
        {
          "name": "",
          "type": "uint256"
        }
      ],
      "payable": false,
      "stateMutability": "view",
      "type": "function"
    },
    {
      "constant": true,
      "inputs": [],
      "name": "getTickerRegistrationFee",
      "outputs": [
        {
          "name": "",
          "type": "uint256"
        }
      ],
      "payable": false,
      "stateMutability": "view",
      "type": "function"
    },
    {
      "constant": true,
      "inputs": [],
      "name": "getExpiryLimit",
      "outputs": [
        {
          "name": "",
          "type": "uint256"
        }
      ],
      "payable": false,
      "stateMutability": "view",
      "type": "function"
    },
    {
      "constant": true,
      "inputs": [],
      "name": "isPaused",
      "outputs": [
        {
          "name": "",
          "type": "bool"
        }
      ],
      "payable": false,
      "stateMutability": "view",
      "type": "function"
    },
    {
      "constant": true,
      "inputs": [],
      "name": "owner",
      "outputs": [
        {
          "name": "",
          "type": "address"
        }
      ],
      "payable": false,
      "stateMutability": "view",
      "type": "function"
    }
  ],
  "bytecode": "0x608060405234801561001057600080fd5b50615c2880620000216000396000f30060806040526004361061019d5763ffffffff60e060020a600035041663165e694a81146101a25780631d8acf1b146101c9578063208b080f146101f557806321c8ad0e1461020f57806326839e5314610280578063321dff171461029857806333ce93fe146102d15780633f4ba83a146102e657806340398d67146102fb57806342c2e5511461031c57806363808bcb146103345780636658076c146103fe57806369ba0fe91461044e5780638456cb59146104db5780638905fd4f146104f05780638da5cb5b146105115780638f9bbf161461054257806392042aee14610621578063959346ae14610665578063972b3ab51461067d578063b187bd261461069d578063b3447ac9146106b2578063baed8bb1146106ca578063c37792b5146106e2578063c6cb7ab81461071f578063c75948f514610737578063d0f6fe421461074c578063d2d1016214610779578063d300a968146107a7578063d3623f98146107c8578063e1ecae9e146107fb578063e6ff950b14610810578063ea47075814610831578063f2fde38b14610846578063fb621f1414610867575b600080fd5b3480156101ae57600080fd5b506101b7610887565b60408051918252519081900360200190f35b3480156101d557600080fd5b506101e16004356108d5565b604080519115158252519081900360200190f35b34801561020157600080fd5b5061020d6004356108ed565b005b34801561021b57600080fd5b50610230600160a060020a0360043516610a2e565b60408051602080825283518183015283519192839290830191858101910280838360005b8381101561026c578181015183820152602001610254565b505050509050019250505060405180910390f35b34801561028c57600080fd5b506101b7600435610b66565b3480156102a457600080fd5b5061020d60048035600160a060020a03169060248035808201929081013591604435908101910135610b78565b3480156102dd57600080fd5b506102306111c0565b3480156102f257600080fd5b5061020d6111f9565b34801561030757600080fd5b50610230600160a060020a0360043516611317565b34801561032857600080fd5b5061020d600435611670565b34801561034057600080fd5b50610354600480356024810191013561176a565b6040518086600160a060020a0316600160a060020a031681526020018581526020018481526020018060200183151515158152602001828103825284818151815260200191508051906020019080838360005b838110156103bf5781810151838201526020016103a7565b50505050905090810190601f1680156103ec5780820380516001836020036101000a031916815260200191505b50965050505050505060405180910390f35b34801561040a57600080fd5b5061020d6024600480358281019290820135918135808301929082013591600160a060020a036044358116926064359091169160843591820191013560a4356118fa565b34801561045a57600080fd5b50610466600435611d8a565b6040805160208082528351818301528351919283929083019185019080838360005b838110156104a0578181015183820152602001610488565b50505050905090810190601f1680156104cd5780820380516001836020036101000a031916815260200191505b509250505060405180910390f35b3480156104e757600080fd5b5061020d611e2d565b3480156104fc57600080fd5b5061020d600160a060020a0360043516611f38565b34801561051d57600080fd5b506105266120d8565b60408051600160a060020a039092168252519081900360200190f35b34801561054e57600080fd5b50610563600160a060020a036004351661211b565b604051808060200185600160a060020a0316600160a060020a0316815260200180602001848152602001838103835287818151815260200191508051906020019080838360005b838110156105c25781810151838201526020016105aa565b50505050905090810190601f1680156105ef5780820380516001836020036101000a031916815260200191505b5083810382528551815285516020918201918701908083836000838110156103bf5781810151838201526020016103a7565b34801561062d57600080fd5b5061020d60048035600160a060020a0316906024803580820192908101359160443590810191013560643560843560a4351515612262565b34801561067157600080fd5b5061020d6004356124c4565b34801561068957600080fd5b5061020d60048035602481019101356125b9565b3480156106a957600080fd5b506101e16127db565b3480156106be57600080fd5b506101b7600435612811565b3480156106d657600080fd5b50610526600435612823565b3480156106ee57600080fd5b5061020d6024600480358281019290820135918135808301929082013591604435918201910135606435151561283e565b34801561072b57600080fd5b5061046660043561353a565b34801561074357600080fd5b506101b76135a4565b34801561075857600080fd5b5061020d60048035600160a060020a031690602480359081019101356135e7565b61020d600160a060020a03600435811690602435811690604435906064359060843581169060a43516613c7e565b3480156107b357600080fd5b506101e1600160a060020a036004351661401f565b3480156107d457600080fd5b5061020d600160a060020a036004351660ff602435811690604435811690606435166140ec565b34801561080757600080fd5b506101b7614153565b34801561081c57600080fd5b5061020d600160a060020a0360043516614196565b34801561083d57600080fd5b50610526614232565b34801561085257600080fd5b5061020d600160a060020a03600435166142a4565b34801561087357600080fd5b5061052660048035602481019101356143a2565b60006108cf6108ca6040805190810160405280600b81526020017f6578706972794c696d6974000000000000000000000000000000000000000000815250614419565b610b66565b90505b90565b60008181526004602052604090205460ff165b919050565b60006108f76120d8565b600160a060020a03163314610944576040805160e560020a62461bcd0281526020600482015260146024820152600080516020615add833981519152604482015290519081900360640190fd5b6201518082101561099f576040805160e560020a62461bcd02815260206004820152601660248201527f4578706972792073686f756c64203e3d20312064617900000000000000000000604482015290519081900360640190fd5b6109dd6040805190810160405280600b81526020017f6578706972794c696d6974000000000000000000000000000000000000000000815250614419565b90507f7e1cc0e69ee3b84fb62bbb71687d2565bbb8ad1771bb3e3cd15cbed424c833c8610a0982610b66565b60408051918252602082018590528051918290030190a1610a2a81836144e3565b5050565b606060006060806000606060009450610a72610a6d6040805190810160405280600d8152602001600080516020615b3d833981519152815250896144f5565b6145e9565b93508351604051908082528060200260200182016040528015610a9f578160200160208202803883390190505b509250600091505b8351821015610b5b57610ad08483815181101515610ac157fe5b9060200190602002015161464b565b905042610b036108ca6040805190810160405280601c8152602001600080516020615b7d833981519152815250846147a9565b101580610b145750610b148161488a565b15610b50578382815181101515610b2757fe5b906020019060200201518386815181101515610b3f57fe5b602090810290910101526001909401935b600190910190610aa7565b509095945050505050565b60009081526020819052604090205490565b600060606000610b866120d8565b600160a060020a031633600160a060020a03161415610e9557600160a060020a0388161515610bff576040805160e560020a62461bcd02815260206004820152601660248201527f4f776e65722073686f756c64206e6f7420626520307800000000000000000000604482015290519081900360640190fd5b600086118015610c105750600a8611155b1515610c54576040805160e560020a62461bcd02815260206004820152601a6024820152600080516020615b9d833981519152604482015290519081900360640190fd5b610c5c614153565b92506000831115610d7857610c9b610c96604080519081016040528060098152602001600080516020615afd833981519152815250614419565b612823565b6040805160e060020a6323b872dd028152336004820152306024820152604481018690529051600160a060020a0392909216916323b872dd916064808201926020929091908290030181600087803b158015610cf657600080fd5b505af1158015610d0a573d6000803e3d6000fd5b505050506040513d6020811015610d2057600080fd5b50511515610d78576040805160e560020a62461bcd02815260206004820152601560248201527f496e737566666963656e7420616c6c6f77616e63650000000000000000000000604482015290519081900360640190fd5b610db187878080601f016020809104026020016040519081016040528093929190818152602001838380828437506148c2945050505050565b9150610dbc826149bc565b1515610e12576040805160e560020a62461bcd02815260206004820152601260248201527f5469636b65722069732072657365727665640000000000000000000000000000604482015290519081900360640190fd5b610e1b82614a37565b9050600160a060020a03811615610e3657610e368183614a69565b610e90888387878080601f01602080910402602001604051908101604052809392919081815260200183838082843782019150505050505042610e87610e7a610887565b429063ffffffff614b9d16565b6000808a614baa565b6111b6565b610e9d6127db565b15610ee0576040805160e560020a62461bcd02815260206004820152600e6024820152600080516020615bbd833981519152604482015290519081900360640190fd5b600160a060020a0388161515610f40576040805160e560020a62461bcd02815260206004820152601660248201527f4f776e65722073686f756c64206e6f7420626520307800000000000000000000604482015290519081900360640190fd5b600086118015610f515750600a8611155b1515610f95576040805160e560020a62461bcd02815260206004820152601a6024820152600080516020615b9d833981519152604482015290519081900360640190fd5b610f9d614153565b925060008311156110b457610fd7610c96604080519081016040528060098152602001600080516020615afd833981519152815250614419565b6040805160e060020a6323b872dd028152336004820152306024820152604481018690529051600160a060020a0392909216916323b872dd916064808201926020929091908290030181600087803b15801561103257600080fd5b505af1158015611046573d6000803e3d6000fd5b505050506040513d602081101561105c57600080fd5b505115156110b4576040805160e560020a62461bcd02815260206004820152601560248201527f496e737566666963656e7420616c6c6f77616e63650000000000000000000000604482015290519081900360640190fd5b6110ed87878080601f016020809104026020016040519081016040528093929190818152602001838380828437506148c2945050505050565b91506110f8826149bc565b151561114e576040805160e560020a62461bcd02815260206004820152601260248201527f5469636b65722069732072657365727665640000000000000000000000000000604482015290519081900360640190fd5b61115782614a37565b9050600160a060020a03811615611172576111728183614a69565b6111b6888387878080601f01602080910402602001604051908101604052809392919081815260200183838082843782019150505050505042610e87610e7a610887565b5050505050505050565b60606108cf6111f46108ca6040805190810160405280600d8152602001600080516020615a5d833981519152815250614419565b614cec565b6112016127db565b1515611257576040805160e560020a62461bcd02815260206004820152601460248201527f53686f756c64206e6f7420626520706175736564000000000000000000000000604482015290519081900360640190fd5b61125f6120d8565b600160a060020a031633146112ac576040805160e560020a62461bcd0281526020600482015260146024820152600080516020615add833981519152604482015290519081900360640190fd5b6112e26112db604080519081016040528060068152602001600080516020615a7d833981519152815250614419565b6000614d91565b6040805142815290517faaa520fdd7d2c83061d632fa017b0432407e798818af63ea908589fceda39ab79181900360200190a1565b60608060606000806000806000606061136c6113676040805190810160405280600b81526020017f6163746976655573657273000000000000000000000000000000000000000000815250614419565b614db1565b9750600094508493508392505b87518410156114ca576113c9610a6d6040805190810160405280600d8152602001600080516020615b3d8339815191528152508a878151811015156113ba57fe5b906020019060200201516144f5565b9650600092505b86518310156114bf57611419610c96604080519081016040528060158152602001600080516020615b5d8339815191528152506114148a87815181101515610ac157fe5b6147a9565b9550600160a060020a038616156114b45789600160a060020a031686600160a060020a0316638da5cb5b6040518163ffffffff1660e060020a028152600401602060405180830381600087803b15801561147257600080fd5b505af1158015611486573d6000803e3d6000fd5b505050506040513d602081101561149c57600080fd5b5051600160a060020a031614156114b4578460010194505b6001909201916113d0565b600190930192611379565b60009150846040519080825280602002602001820160405280156114f8578160200160208202803883390190505b509050600093505b875184101561166357611541610a6d6040805190810160405280600d8152602001600080516020615b3d8339815191528152508a878151811015156113ba57fe5b9650600092505b86518310156116585761158c610c96604080519081016040528060158152602001600080516020615b5d8339815191528152506114148a87815181101515610ac157fe5b9550600160a060020a0386161561164d5789600160a060020a031686600160a060020a0316638da5cb5b6040518163ffffffff1660e060020a028152600401602060405180830381600087803b1580156115e557600080fd5b505af11580156115f9573d6000803e3d6000fd5b505050506040513d602081101561160f57600080fd5b5051600160a060020a0316141561164d5785818381518110151561162f57fe5b600160a060020a039092166020928302909101909101526001909101905b600190920191611548565b600190930192611500565b9998505050505050505050565b60008061167b6120d8565b600160a060020a031633146116c8576040805160e560020a62461bcd0281526020600482015260146024820152600080516020615add833981519152604482015290519081900360640190fd5b6117066040805190810160405280600b81526020017f73744c61756e6368466565000000000000000000000000000000000000000000815250614419565b915061171182610b66565b90508281141561172057600080fd5b604080518281526020810185905281517f082ce758ae1784abd031015a0eac6700b941db0797e890ae7c4d326a5f8255c0929181900390910190a161176582846144e3565b505050565b60008060006060600060606000806117b18a8a8080601f016020809104026020016040519081016040528093929190818152602001838380828437506148c2945050505050565b92506117bc8361488a565b91506117ee6108ca6040805190810160405280601c8152602001600080516020615b7d833981519152815250856147a9565b90506001821515148061180057504281115b156118cf5761180e83614a37565b6118776108ca606060405190810160405280602281526020017f726567697374657265645469636b6572735f726567697374726174696f6e446181526020017f7465000000000000000000000000000000000000000000000000000000000000815250866147a9565b826118bf6118ba6040805190810160405280601b81526020017f726567697374657265645469636b6572735f746f6b656e4e616d650000000000815250886147a9565b611d8a565b85975097509750975097506118ed565b60408051602081019091526000808252985088975087965094508593505b5050509295509295909350565b60606000806119076120d8565b600160a060020a03163314611954576040805160e560020a62461bcd0281526020600482015260146024820152600080516020615add833981519152604482015290519081900360640190fd5b60008b1180156119645750600089115b15156119ba576040805160e560020a62461bcd02815260206004820152601160248201527f537472696e67206c656e677468203e2030000000000000000000000000000000604482015290519081900360640190fd5b600a891115611a01576040805160e560020a62461bcd02815260206004820152601a6024820152600080516020615b9d833981519152604482015290519081900360640190fd5b8315801590611a185750600160a060020a03881615155b1515611a6e576040805160e560020a62461bcd02815260206004820152601a60248201527f302076616c756520706172616d73206e6f7420616c6c6f776564000000000000604482015290519081900360640190fd5b611aa78a8a8080601f016020809104026020016040519081016040528093929190818152602001838380828437506148c2945050505050565b9250600160a060020a0387161515611b09576040805160e560020a62461bcd02815260206004820152601060248201527f5354206164647265737320697320307800000000000000000000000000000000604482015290519081900360640190fd5b611b726108ca606060405190810160405280602281526020017f726567697374657265645469636b6572735f726567697374726174696f6e446181526020017f7465000000000000000000000000000000000000000000000000000000000000815250856147a9565b9150611ba46108ca6040805190810160405280601c8152602001600080516020615b7d833981519152815250856147a9565b9050811515611bcb57429150611bc8611bbb610887565b839063ffffffff614b9d16565b90505b611c01611bfb604080519081016040528060158152602001600080516020615b5d833981519152815250856147a9565b88614e1c565b611c4288848e8e8080601f01602080910402602001604051908101604052809392919081815260200183838082843782019150505050505085856001614e57565b611c7f878488888080601f016020809104026020016040519081016040528093929190818152602001838380828437508c9450614f809350505050565b87600160a060020a031687600160a060020a03167f63d9fb58b25a396dc2ebc591bec9115d1eb9c722dd6cdfcc9be4144d39dc2c26858f8f89336001611cc36135a4565b60408051908101859052600160a060020a0384166060820152821515608082015260a0810182905260c08082528851908201528751819060208083019160e08401918c019080838360005b83811015611d26578181015183820152602001611d0e565b50505050905090810190601f168015611d535780820380516001836020036101000a031916815260200191505b50838103825288815260200189898082843760405192018290039b50909950505050505050505050a3505050505050505050505050565b60008181526001602081815260409283902080548451600260001995831615610100029590950190911693909304601f81018390048302840183019094528383526060939091830182828015611e215780601f10611df657610100808354040283529160200191611e21565b820191906000526020600020905b815481529060010190602001808311611e0457829003601f168201915b50505050509050919050565b611e356127db565b15611e78576040805160e560020a62461bcd02815260206004820152600e6024820152600080516020615bbd833981519152604482015290519081900360640190fd5b611e806120d8565b600160a060020a03163314611ecd576040805160e560020a62461bcd0281526020600482015260146024820152600080516020615add833981519152604482015290519081900360640190fd5b611f03611efc604080519081016040528060068152602001600080516020615a7d833981519152815250614419565b6001614d91565b6040805142815290517f68b095021b1f40fe513109f513c66692f0b3219aee674a69f4efc57badb8201d9181900360200190a1565b600080611f436120d8565b600160a060020a03163314611f90576040805160e560020a62461bcd0281526020600482015260146024820152600080516020615add833981519152604482015290519081900360640190fd5b600160a060020a0383161515611fa557600080fd5b604080517f70a082310000000000000000000000000000000000000000000000000000000081523060048201529051849350600160a060020a038416916370a082319160248083019260209291908290030181600087803b15801561200957600080fd5b505af115801561201d573d6000803e3d6000fd5b505050506040513d602081101561203357600080fd5b50519050600160a060020a03821663a9059cbb61204e6120d8565b836040518363ffffffff1660e060020a0281526004018083600160a060020a0316600160a060020a0316815260200182815260200192505050602060405180830381600087803b1580156120a157600080fd5b505af11580156120b5573d6000803e3d6000fd5b505050506040513d60208110156120cb57600080fd5b5051151561176557600080fd5b60006108cf610c966040805190810160405280600581526020017f6f776e6572000000000000000000000000000000000000000000000000000000815250614419565b60606000606060006121656118ba6040805190810160405280601581526020017f7365637572697479546f6b656e735f7469636b65720000000000000000000000815250876144f5565b85600160a060020a0316638da5cb5b6040518163ffffffff1660e060020a028152600401602060405180830381600087803b1580156121a357600080fd5b505af11580156121b7573d6000803e3d6000fd5b505050506040513d60208110156121cd57600080fd5b505160408051808201909152601b81527f7365637572697479546f6b656e735f746f6b656e44657461696c7300000000006020820152612211906118ba90896144f5565b6122536108ca6040805190810160405280601981526020017f7365637572697479546f6b656e735f6465706c6f7965644174000000000000008152508a6144f5565b93509350935093509193509193565b606061226c6120d8565b600160a060020a031633146122b9576040805160e560020a62461bcd0281526020600482015260146024820152600080516020615add833981519152604482015290519081900360640190fd5b6000871180156122ca5750600a8711155b151561230e576040805160e560020a62461bcd02815260206004820152601a6024820152600080516020615b9d833981519152604482015290519081900360640190fd5b821580159061231c57508315155b1515612372576040805160e560020a62461bcd02815260206004820152601560248201527f44617465732073686f756c64206e6f7420626520300000000000000000000000604482015290519081900360640190fd5b828411156123f0576040805160e560020a62461bcd02815260206004820152602660248201527f526567697374726174696f6e20646174652073686f756c64203c20657870697260448201527f7920646174650000000000000000000000000000000000000000000000000000606482015290519081900360840190fd5b600160a060020a038916151561243e576040805160e560020a62461bcd02815260206004820152600f6024820152600080516020615a9d833981519152604482015290519081900360640190fd5b61247788888080601f016020809104026020016040519081016040528093929190818152602001838380828437506148c2945050505050565b90506124b9898288888080601f016020809104026020016040519081016040528093929190818152602001838380828437820191505050505050878787614e57565b505050505050505050565b6000806124cf6120d8565b600160a060020a0316331461251c576040805160e560020a62461bcd0281526020600482015260146024820152600080516020615add833981519152604482015290519081900360640190fd5b61255a6040805190810160405280600c81526020017f7469636b65725265674665650000000000000000000000000000000000000000815250614419565b915061256582610b66565b90508281141561257457600080fd5b604080518281526020810185905281517f788dceb058391de5648d0deb9187656f8c46d3ee285c1077579adf642793f1f6929181900390910190a161176582846144e3565b606060006125c56120d8565b600160a060020a03163314612612576040805160e560020a62461bcd0281526020600482015260146024820152600080516020615add833981519152604482015290519081900360640190fd5b61264b84848080601f016020809104026020016040519081016040528093929190818152602001838380828437506148c2945050505050565b915061265682614a37565b9050600160a060020a03811615156126b8576040805160e560020a62461bcd02815260206004820152601460248201527f5469636b657220646f65736e2774206578697374000000000000000000000000604482015290519081900360640190fd5b6126c28183614a69565b6126f96126f2604080519081016040528060158152602001600080516020615b5d833981519152815250846147a9565b6000614e1c565b61271a82600080600060206040519081016040528060008152506000615058565b7f5854c55b609f5180d42245ffca3efcee6c5db8e73ea96e693d8667e0bcb4d470824233604051808060200184815260200183600160a060020a0316600160a060020a03168152602001828103825285818151815260200191508051906020019080838360005b83811015612799578181015183820152602001612781565b50505050905090810190601f1680156127c65780820380516001836020036101000a031916815260200191505b5094505050505060405180910390a150505050565b60006108cf61280c604080519081016040528060068152602001600080516020615a7d833981519152815250614419565b6108d5565b60009081526006602052604090205490565b600090815260026020526040902054600160a060020a031690565b6060600080600061284d6120d8565b600160a060020a031633600160a060020a03161415612ea95760008a1180156128765750600088115b15156128cc576040805160e560020a62461bcd02815260206004820152601160248201527f5469636b6572206c656e677468203e2030000000000000000000000000000000604482015290519081900360640190fd5b61290589898080601f016020809104026020016040519081016040528093929190818152602001838380828437506148c2945050505050565b9350612934604080519081016040528060188152602001600080516020615b1d833981519152815250856147a9565b925061293f836108d5565b15612994576040805160e560020a62461bcd02815260206004820152601060248201527f416c7265616479206465706c6f79656400000000000000000000000000000000604482015290519081900360640190fd5b61299f836001614d91565b336129a985614a37565b600160a060020a0316146129f5576040805160e560020a62461bcd02815260206004820152600e6024820152600080516020615bdd833981519152604482015290519081900360640190fd5b42612a266108ca6040805190810160405280601c8152602001600080516020615b7d833981519152815250876147a9565b1015612a7c576040805160e560020a62461bcd02815260206004820152601360248201527f5469636b65722067657473206578706972656400000000000000000000000000604482015290519081900360640190fd5b612a846135a4565b91506000821115612b9b57612abe610c96604080519081016040528060098152602001600080516020615afd833981519152815250614419565b6040805160e060020a6323b872dd028152336004820152306024820152604481018590529051600160a060020a0392909216916323b872dd916064808201926020929091908290030181600087803b158015612b1957600080fd5b505af1158015612b2d573d6000803e3d6000fd5b505050506040513d6020811015612b4357600080fd5b50511515612b9b576040805160e560020a62461bcd02815260206004820152601660248201527f496e73756666696369656e7420616c6c6f77616e636500000000000000000000604482015290519081900360640190fd5b612ba3614232565b600160a060020a031663c85fd4f88c8c8760128c8c338d612bfb610c966040805190810160405280601081526020017f706f6c796d617468526567697374727900000000000000000000000000000000815250614419565b60405160e060020a63ffffffff8c1602815260ff87166044820152600160a060020a03808516608483015283151560a4830152821660c482015260e06004820190815260e482018a905290819060248101906064810190610104018d8d8082843790910185810384528c5181528c5160209182019250908d019080838360005b83811015612c93578181015183820152602001612c7b565b50505050905090810190601f168015612cc05780820380516001836020036101000a031916815260200191505b50848103825288815260200189898082843782019150509c50505050505050505050505050602060405180830381600087803b158015612cff57600080fd5b505af1158015612d13573d6000803e3d6000fd5b505050506040513d6020811015612d2957600080fd5b5051604080516020601f8a01819004810282018101909252888152919250612d6c9183918791908b908b908190840183828082843750429450614f809350505050565b612da2612d9c604080519081016040528060158152602001600080516020615b5d833981519152815250866147a9565b82614e1c565b33600160a060020a031681600160a060020a03167f63d9fb58b25a396dc2ebc591bec9115d1eb9c722dd6cdfcc9be4144d39dc2c26868e8e423360008a60405180806020018060200187815260200186600160a060020a0316600160a060020a031681526020018515151515815260200184815260200183810383528a818151815260200191508051906020019080838360005b83811015612e4e578181015183820152602001612e36565b50505050905090810190601f168015612e7b5780820380516001836020036101000a031916815260200191505b50838103825288815260200189898082843760405192018290039b50909950505050505050505050a361352d565b612eb16127db565b15612ef4576040805160e560020a62461bcd02815260206004820152600e6024820152600080516020615bbd833981519152604482015290519081900360640190fd5b60008a118015612f045750600088115b1515612f5a576040805160e560020a62461bcd02815260206004820152601160248201527f5469636b6572206c656e677468203e2030000000000000000000000000000000604482015290519081900360640190fd5b612f9389898080601f016020809104026020016040519081016040528093929190818152602001838380828437506148c2945050505050565b9350612fc2604080519081016040528060188152602001600080516020615b1d833981519152815250856147a9565b9250612fcd836108d5565b15613022576040805160e560020a62461bcd02815260206004820152601060248201527f416c7265616479206465706c6f79656400000000000000000000000000000000604482015290519081900360640190fd5b61302d836001614d91565b3361303785614a37565b600160a060020a031614613083576040805160e560020a62461bcd02815260206004820152600e6024820152600080516020615bdd833981519152604482015290519081900360640190fd5b426130b46108ca6040805190810160405280601c8152602001600080516020615b7d833981519152815250876147a9565b101561310a576040805160e560020a62461bcd02815260206004820152601360248201527f5469636b65722067657473206578706972656400000000000000000000000000604482015290519081900360640190fd5b6131126135a4565b915060008211156132295761314c610c96604080519081016040528060098152602001600080516020615afd833981519152815250614419565b6040805160e060020a6323b872dd028152336004820152306024820152604481018590529051600160a060020a0392909216916323b872dd916064808201926020929091908290030181600087803b1580156131a757600080fd5b505af11580156131bb573d6000803e3d6000fd5b505050506040513d60208110156131d157600080fd5b50511515613229576040805160e560020a62461bcd02815260206004820152601660248201527f496e73756666696369656e7420616c6c6f77616e636500000000000000000000604482015290519081900360640190fd5b613231614232565b600160a060020a031663c85fd4f88c8c8760128c8c338d613289610c966040805190810160405280601081526020017f706f6c796d617468526567697374727900000000000000000000000000000000815250614419565b60405160e060020a63ffffffff8c1602815260ff87166044820152600160a060020a03808516608483015283151560a4830152821660c482015260e06004820190815260e482018a905290819060248101906064810190610104018d8d8082843790910185810384528c5181528c5160209182019250908d019080838360005b83811015613321578181015183820152602001613309565b50505050905090810190601f16801561334e5780820380516001836020036101000a031916815260200191505b50848103825288815260200189898082843782019150509c50505050505050505050505050602060405180830381600087803b15801561338d57600080fd5b505af11580156133a1573d6000803e3d6000fd5b505050506040513d60208110156133b757600080fd5b5051604080516020601f8a018190048102820181019092528881529192506133fa9183918791908b908b908190840183828082843750429450614f809350505050565b61342a612d9c604080519081016040528060158152602001600080516020615b5d833981519152815250866147a9565b33600160a060020a031681600160a060020a03167f63d9fb58b25a396dc2ebc591bec9115d1eb9c722dd6cdfcc9be4144d39dc2c26868e8e423360008a60405180806020018060200187815260200186600160a060020a0316600160a060020a031681526020018515151515815260200184815260200183810383528a818151815260200191508051906020019080838360005b838110156134d65781810151838201526020016134be565b50505050905090810190601f1680156135035780820380516001836020036101000a031916815260200191505b50838103825288815260200189898082843760405192018290039b50909950505050505050505050a35b5050505050505050505050565b60008181526003602090815260409182902080548351601f6002610100600185161502600019019093169290920491820184900484028101840190945280845260609392830182828015611e215780601f10611df657610100808354040283529160200191611e21565b60006108cf6108ca6040805190810160405280600b81526020017f73744c61756e6368466565000000000000000000000000000000000000000000815250614419565b606060006135f36120d8565b600160a060020a031633600160a060020a0316141561391e5761364584848080601f016020809104026020016040519081016040528093929190818152602001838380828437506148c2945050505050565b9150600160a060020a0385161515613695576040805160e560020a62461bcd02815260206004820152600f6024820152600080516020615a9d833981519152604482015290519081900360640190fd5b6136c2604080519081016040528060178152602001600080516020615abd833981519152815250836147a9565b9050336136ce82612823565b600160a060020a03161461371a576040805160e560020a62461bcd02815260206004820152600e6024820152600080516020615bdd833981519152604482015290519081900360640190fd5b6137238261488a565b1561384e5784600160a060020a0316613762610c96604080519081016040528060158152602001600080516020615b5d833981519152815250856147a9565b600160a060020a0316638da5cb5b6040518163ffffffff1660e060020a028152600401602060405180830381600087803b15801561379f57600080fd5b505af11580156137b3573d6000803e3d6000fd5b505050506040513d60208110156137c957600080fd5b5051600160a060020a03161461384e576040805160e560020a62461bcd028152602060048201526024808201527f4e6577206f776e657220646f6573206e6f74206d6174636820746f6b656e206f60448201527f776e657200000000000000000000000000000000000000000000000000000000606482015290519081900360840190fd5b6138583383614a69565b6138628583615233565b61386c8186614e1c565b84600160a060020a031633600160a060020a03167f44ee9de70a04c2a46889521de8968f79b4ae423f078fbaec8c492d821154729c846040518080602001828103825283818151815260200191508051906020019080838360005b838110156138df5781810151838201526020016138c7565b50505050905090810190601f16801561390c5780820380516001836020036101000a031916815260200191505b509250505060405180910390a3613c77565b6139266127db565b15613969576040805160e560020a62461bcd02815260206004820152600e6024820152600080516020615bbd833981519152604482015290519081900360640190fd5b6139a284848080601f016020809104026020016040519081016040528093929190818152602001838380828437506148c2945050505050565b9150600160a060020a03851615156139f2576040805160e560020a62461bcd02815260206004820152600f6024820152600080516020615a9d833981519152604482015290519081900360640190fd5b613a1f604080519081016040528060178152602001600080516020615abd833981519152815250836147a9565b905033613a2b82612823565b600160a060020a031614613a77576040805160e560020a62461bcd02815260206004820152600e6024820152600080516020615bdd833981519152604482015290519081900360640190fd5b613a808261488a565b15613bab5784600160a060020a0316613abf610c96604080519081016040528060158152602001600080516020615b5d833981519152815250856147a9565b600160a060020a0316638da5cb5b6040518163ffffffff1660e060020a028152600401602060405180830381600087803b158015613afc57600080fd5b505af1158015613b10573d6000803e3d6000fd5b505050506040513d6020811015613b2657600080fd5b5051600160a060020a031614613bab576040805160e560020a62461bcd028152602060048201526024808201527f4e6577206f776e657220646f6573206e6f74206d6174636820746f6b656e206f60448201527f776e657200000000000000000000000000000000000000000000000000000000606482015290519081900360840190fd5b613bb53383614a69565b613bbf8583615233565b613bc98186614e1c565b84600160a060020a031633600160a060020a03167f44ee9de70a04c2a46889521de8968f79b4ae423f078fbaec8c492d821154729c846040518080602001828103825283818151815260200191508051906020019080838360005b83811015613c3c578181015183820152602001613c24565b50505050905090810190601f168015613c695780820380516001836020036101000a031916815260200191505b509250505060405180910390a35b5050505050565b613cbf61280c6040805190810160405280600b81526020017f696e697469616c69736564000000000000000000000000000000000000000000815250614419565b15613d14576040805160e560020a62461bcd02815260206004820152601360248201527f616c726561647920696e697469616c697a656400000000000000000000000000604482015290519081900360640190fd5b600160a060020a03851615801590613d345750600160a060020a03821615155b8015613d485750600160a060020a03811615155b8015613d5c5750600160a060020a03861615155b1515613da0576040805160e560020a62461bcd02815260206004820152600f6024820152600080516020615a9d833981519152604482015290519081900360640190fd5b8315801590613dae57508215155b1515613e04576040805160e560020a62461bcd02815260206004820152601460248201527f466565732073686f756c64206e6f742062652030000000000000000000000000604482015290519081900360640190fd5b613e39613e33604080519081016040528060098152602001600080516020615afd833981519152815250614419565b83614e1c565b613e80613e7a6040805190810160405280600b81526020017f73744c61756e6368466565000000000000000000000000000000000000000000815250614419565b856144e3565b613ec7613ec16040805190810160405280600c81526020017f7469636b65725265674665650000000000000000000000000000000000000000815250614419565b846144e3565b613f11613f086040805190810160405280600b81526020017f6578706972794c696d6974000000000000000000000000000000000000000000815250614419565b624f1a006144e3565b613f406112db604080519081016040528060068152602001600080516020615a7d833981519152815250614419565b613f81612d9c6040805190810160405280600581526020017f6f776e6572000000000000000000000000000000000000000000000000000000815250614419565b613fc8613fc26040805190810160405280601081526020017f706f6c796d617468526567697374727900000000000000000000000000000000815250614419565b87614e1c565b613fd685600080600261536f565b614017611efc6040805190810160405280600b81526020017f696e697469616c69736564000000000000000000000000000000000000000000815250614419565b505050505050565b60408051808201909152601581527f7365637572697479546f6b656e735f7469636b6572000000000000000000000060208201526000907fc5d2460186f7233c927e7db2dcc703c0e500b653ca82273b7bfad8045d85a47090614086906118ba90856144f5565b6040518082805190602001908083835b602083106140b55780518252601f199092019160209182019101614096565b5181516020939093036101000a60001901801990911692169190911790526040519201829003909120939093141595945050505050565b6140f46120d8565b600160a060020a03163314614141576040805160e560020a62461bcd0281526020600482015260146024820152600080516020615add833981519152604482015290519081900360640190fd5b61414d8484848461536f565b50505050565b60006108cf6108ca6040805190810160405280600c81526020017f7469636b65725265674665650000000000000000000000000000000000000000815250614419565b61419e6120d8565b600160a060020a031633146141eb576040805160e560020a62461bcd0281526020600482015260146024820152600080516020615add833981519152604482015290519081900360640190fd5b600160a060020a038116151561420057600080fd5b61422f612d9c604080519081016040528060098152602001600080516020615afd833981519152815250614419565b50565b60006108cf610c966040805190810160405280601181526020017f70726f746f636f6c56657273696f6e535400000000000000000000000000000081525061429f6108ca6040805190810160405280600d8152602001600080516020615a5d833981519152815250614419565b615513565b60006142ae6120d8565b600160a060020a031633146142fb576040805160e560020a62461bcd0281526020600482015260146024820152600080516020615add833981519152604482015290519081900360640190fd5b600160a060020a038216151561431057600080fd5b61434e6040805190810160405280600581526020017f6f776e6572000000000000000000000000000000000000000000000000000000815250614419565b905081600160a060020a031661436382612823565b600160a060020a03167f8be0079c531659141344cd1fd0a4f28419497f9722a3daafe3b4186f6b6457e060405160405180910390a3610a2a8183614e1c565b600060606143df84848080601f016020809104026020016040519081016040528093929190818152602001838380828437506148c2945050505050565b9050614411610c96604080519081016040528060158152602001600080516020615b5d833981519152815250836147a9565b949350505050565b6000816040516020018082805190602001908083835b6020831061444e5780518252601f19909201916020918201910161442f565b6001836020036101000a0380198251168184511680821785525050505050509050019150506040516020818303038152906040526040518082805190602001908083835b602083106144b15780518252601f199092019160209182019101614492565b5181516020939093036101000a6000190180199091169216919091179052604051920182900390912095945050505050565b60009182526020829052604090912055565b600082826040516020018083805190602001908083835b6020831061452b5780518252601f19909201916020918201910161450c565b6001836020036101000a03801982511681845116808217855250505050505090500182600160a060020a0316600160a060020a03166c01000000000000000000000000028152601401925050506040516020818303038152906040526040518082805190602001908083835b602083106145b65780518252601f199092019160209182019101614597565b5181516020939093036101000a600019018019909116921691909117905260405192018290039091209695505050505050565b600081815260076020908152604091829020805483518184028101840190945280845260609392830182828015611e2157602002820191906000526020600020905b8154815260019091019060200180831161462b5750505050509050919050565b6040805160208082528183019092526060918291600091829182918591908082016104008038833901905050945060009350600092505b60208310156146f7576008830260020a87029150600160f860020a03198216156146ec578185858151811015156146b557fe5b9060200101907effffffffffffffffffffffffffffffffffffffffffffffffffffffffffffff1916908160001a9053506001909301925b600190920191614682565b836040519080825280601f01601f191660200182016040528015614725578160200160208202803883390190505b509050600092505b8383101561479f57848381518110151561474357fe5b90602001015160f860020a900460f860020a02818481518110151561476457fe5b9060200101907effffffffffffffffffffffffffffffffffffffffffffffffffffffffffffff1916908160001a90535060019092019161472d565b9695505050505050565b600082826040516020018083805190602001908083835b602083106147df5780518252601f1990920191602091820191016147c0565b51815160209384036101000a600019018019909216911617905285519190930192850191508083835b602083106148275780518252601f199092019160209182019101614808565b6001836020036101000a03801982511681845116808217855250505050505090500192505050604051602081830303815290604052604051808280519060200190808383602083106145b65780518252601f199092019160209182019101614597565b60006148bc61280c604080519081016040528060188152602001600080516020615b1d833981519152815250846147a9565b92915050565b6060816000805b82518210156149b35782828151811015156148e057fe5b016020015160f860020a908190040290507f6100000000000000000000000000000000000000000000000000000000000000600160f860020a031982161080159061495557507f7a00000000000000000000000000000000000000000000000000000000000000600160f860020a0319821611155b1561496957601f1960f860020a9182900401025b80838381518110151561497857fe5b9060200101907effffffffffffffffffffffffffffffffffffffffffffffffffffffffffffff1916908160001a9053506001909101906148c9565b50909392505050565b6000806149c883614a37565b600160a060020a031614614a2f57614a066108ca6040805190810160405280601c8152602001600080516020615b7d833981519152815250846147a9565b42118015614a1a5750614a188261488a565b155b15614a27575060016108e8565b5060006108e8565b506001919050565b60006148bc610c96604080519081016040528060178152602001600080516020615abd833981519152815250846147a9565b60008060606000614ab26108ca6040805190810160405280600b81526020017f7469636b6572496e646578000000000000000000000000000000000000000000815250876147a9565b9350614ae16040805190810160405280600d8152602001600080516020615b3d833981519152815250876144f5565b9250614aec836145e9565b80519092508410614af957fe5b85600160a060020a0316614b0c86614a37565b600160a060020a031614614b1c57fe5b614b2683856155aa565b83614b30846145e9565b51111561401757614b40836145e9565b805185908110614b4c57fe5b906020019060200201519050614017613e7a6040805190810160405280600b81526020017f7469636b6572496e6465780000000000000000000000000000000000000000008152506114148461464b565b818101828110156148bc57fe5b614bb48888615233565b614bc2878987878a88615058565b838589600160a060020a03167f2de60ed106ca2007f575a4a2ff327cdde9bf801386463689ccb784d8bd4685628a8a878760405180806020018060200185151515158152602001848152602001838103835287818151815260200191508051906020019080838360005b83811015614c44578181015183820152602001614c2c565b50505050905090810190601f168015614c715780820380516001836020036101000a031916815260200191505b50838103825286518152865160209182019188019080838360005b83811015614ca4578181015183820152602001614c8c565b50505050905090810190601f168015614cd15780820380516001836020036101000a031916815260200191505b50965050505050505060405180910390a45050505050505050565b6040805160038082526080820190925260609182919060208201838038833950508151919250506201000062ffffff8516049082906000908110614d2c57fe5b60ff909216602092830290910190910152805161010062ffffff8516049082906001908110614d5757fe5b60ff9092166020928302909101909101528051839082906002908110614d7957fe5b60ff9092166020928302909101909101529050919050565b600091825260046020526040909120805460ff1916911515919091179055565b600081815260096020908152604091829020805483518184028101840190945280845260609392830182828015611e2157602002820191906000526020600020905b8154600160a060020a03168152600190910190602001808311614df35750505050509050919050565b600091825260026020526040909120805473ffffffffffffffffffffffffffffffffffffffff1916600160a060020a03909216919091179055565b6000614e6286614a37565b9050600160a060020a03811615614e7d57614e7d8187614a69565b614e868661488a565b8015614e90575081155b15614ec557614ec56126f2604080519081016040528060158152602001600080516020615b5d833981519152815250886147a9565b8115614f65576000600160a060020a0316614f06610c96604080519081016040528060158152602001600080516020615b5d833981519152815250896147a9565b600160a060020a03161415614f65576040805160e560020a62461bcd02815260206004820152601460248201527f546f6b656e206e6f742072656769737465726564000000000000000000000000604482015290519081900360640190fd5b614f7787878787878760016000614baa565b50505050505050565b614fc8614fc26040805190810160405280601581526020017f7365637572697479546f6b656e735f7469636b65720000000000000000000000815250866144f5565b8461567d565b61501061500a6040805190810160405280601b81526020017f7365637572697479546f6b656e735f746f6b656e44657461696c730000000000815250866144f5565b8361567d565b61414d6150526040805190810160405280601981526020017f7365637572697479546f6b656e735f6465706c6f796564417400000000000000815250866144f5565b826144e3565b6000615087604080519081016040528060178152602001600080516020615abd833981519152815250886147a9565b905085600160a060020a031661509c82612823565b600160a060020a0316146150b4576150b48187614e1c565b61511a606060405190810160405280602281526020017f726567697374657265645469636b6572735f726567697374726174696f6e446181526020017f7465000000000000000000000000000000000000000000000000000000000000815250886147a9565b90508461512682610b66565b146151355761513581866144e3565b6151626040805190810160405280601c8152602001600080516020615b7d833981519152815250886147a9565b90508361516e82610b66565b1461517d5761517d81856144e3565b6151bc6040805190810160405280601b81526020017f726567697374657265645469636b6572735f746f6b656e4e616d650000000000815250886147a9565b90506151c783614419565b6151d86151d383611d8a565b614419565b146151e7576151e7818461567d565b615214604080519081016040528060188152602001600080516020615b1d833981519152815250886147a9565b9050811515615222826108d5565b151514614f7757614f778183614d91565b60008060006152656040805190810160405280600d8152602001600080516020615b3d833981519152815250866144f5565b9250615270836145e9565b519150615285836152808661569c565b6156a9565b6152cd6152c76040805190810160405280600b81526020017f7469636b6572496e646578000000000000000000000000000000000000000000815250866147a9565b836144e3565b61530c6040805190810160405280600981526020017f7365656e55736572730000000000000000000000000000000000000000000000815250866144f5565b9050615317816108d5565b1515613c775761536461535e6040805190810160405280600b81526020017f6163746976655573657273000000000000000000000000000000000000000000815250614419565b866156cc565b613c77816001614d91565b6040805160038082526080820190925260609160009190602082018480388339019050509150848260008151811015156153a557fe5b60ff90921660209283029091019091015281518490839060019081106153c757fe5b60ff90921660209283029091019091015281518390839060029081106153e957fe5b60ff909216602092830290910190910152615405858585615718565b90506154186154126111c0565b83615733565b151561546e576040805160e560020a62461bcd02815260206004820152601060248201527f496e2d76616c69642076657273696f6e00000000000000000000000000000000604482015290519081900360640190fd5b6154a861549d6040805190810160405280600d8152602001600080516020615a5d833981519152815250614419565b8262ffffff166144e3565b614017613fc26040805190810160405280601181526020017f70726f746f636f6c56657273696f6e535400000000000000000000000000000081525061429f6108ca6040805190810160405280600d8152602001600080516020615a5d833981519152815250614419565b600082826040516020018083805190602001908083835b602083106155495780518252601f19909201916020918201910161552a565b51815160001960209485036101000a019081169019919091161790529201938452506040805180850381529382019081905283519394509283925090840190808383602083106145b65780518252601f199092019160209182019101614597565b600082815260076020526040902080548210615636576040805160e560020a62461bcd02815260206004820152602a60248201527f496e6465782073686f756c64206c657373207468616e206c656e677468206f6660448201527f2074686520617272617900000000000000000000000000000000000000000000606482015290519081900360840190fd5b80548190600019810190811061564857fe5b9060005260206000200154818381548110151561566157fe5b60009182526020909120015580546000190161414d82826159a0565b60008281526001602090815260409091208251611765928401906159c4565b60006148bc826000615946565b600091825260076020908152604083208054600181018255908452922090910155565b6000918252600960209081526040832080546001810182559084529220909101805473ffffffffffffffffffffffffffffffffffffffff1916600160a060020a03909216919091179055565b60ff9081169181166101000292166201000002919091171790565b600060606000808551604051908082528060200260200182016040528015615765578160200160208202803883390190505b50925060009150600090505b85518160ff16101561581157848160ff1681518110151561578e57fe5b9060200190602002015160ff16868260ff168151811015156157ac57fe5b9060200190602002015160ff1610156157e6576001838260ff168151811015156157d257fe5b911515602092830290910190910152615809565b6000838260ff168151811015156157f957fe5b9115156020928302909101909101525b600101615771565b5060005b85518160ff16101561592c5760ff811615156158ae57848160ff1681518110151561583c57fe5b9060200190602002015160ff16868260ff1681518110151561585a57fe5b6020908102909101015160ff16116158a05782600081518110151561587b57fe5b90602001906020020151156158955781600301915061592c565b6001909101906158a9565b6000935061593d565b615924565b826001820360ff168151811015156158c257fe5b90602001906020020151156158dc57600190910190615924565b848160ff168151811015156158ed57fe5b9060200190602002015160ff16868260ff1681518110151561590b57fe5b6020908102909101015160ff16116158a0576001909101905b600101615815565b85518260ff16141561593d57600193505b50505092915050565b600080805b845181101561599857806008028582860181518110151561596857fe5b60209101015160029190910a60f860020a91829004909102600160f860020a03191604919091179060010161594b565b509392505050565b81548183558181111561176557600083815260209020611765918101908301615a42565b828054600181600116156101000203166002900490600052602060002090601f016020900481019282601f10615a0557805160ff1916838001178555615a32565b82800160010185558215615a32579182015b82811115615a32578251825591602001919060010190615a17565b50615a3e929150615a42565b5090565b6108d291905b80821115615a3e5760008155600101615a4856006c617465737456657273696f6e000000000000000000000000000000000000007061757365640000000000000000000000000000000000000000000000000000496e76616c696420616464726573730000000000000000000000000000000000726567697374657265645469636b6572735f6f776e657200000000000000000073656e646572206d757374206265206f776e6572000000000000000000000000706f6c79546f6b656e0000000000000000000000000000000000000000000000726567697374657265645469636b6572735f737461747573000000000000000075736572546f5469636b657273000000000000000000000000000000000000007469636b6572546f5365637572697479546f6b656e0000000000000000000000726567697374657265645469636b6572735f65787069727944617465000000005469636b6572206c656e6774682072616e67652028302c31305d000000000000416c7265616479207061757365640000000000000000000000000000000000004e6f7420617574686f7269736564000000000000000000000000000000000000a165627a7a723058205adf366ed272e24dfda9febd6d978e0852276abcd7dbc4e6c272a6af43065c7b0029",
  "source": "pragma solidity ^0.4.24;\n\nimport \"openzeppelin-solidity/contracts/math/SafeMath.sol\";\nimport \"./interfaces/IOwnable.sol\";\nimport \"./interfaces/ISTFactory.sol\";\nimport \"./interfaces/IERC20.sol\";\nimport \"./interfaces/ISecurityTokenRegistry.sol\";\nimport \"./storage/EternalStorage.sol\";\nimport \"./libraries/Util.sol\";\nimport \"./libraries/Encoder.sol\";\nimport \"./libraries/VersionUtils.sol\";\n\n/**\n * @title Registry contract for issuers to register their tickers and security tokens\n */\ncontract SecurityTokenRegistry is ISecurityTokenRegistry, EternalStorage {\n\n    /**\n     * @notice state variables\n\n       address public polyToken;\n       uint256 public stLaunchFee;\n       uint256 public tickerRegFee;\n       uint256 public expiryLimit;\n       uint256 public latestProtocolVersion;\n       bool public paused;\n       address public owner;\n       address public polymathRegistry;\n\n       address[] public activeUsers;\n       mapping(address => bool) public seenUsers;\n\n       mapping(address => bytes32[]) userToTickers;\n       mapping(string => address) tickerToSecurityToken;\n       mapping(string => uint) tickerIndex;\n       mapping(string => TickerDetails) registeredTickers;\n       mapping(address => SecurityTokenData) securityTokens;\n       mapping(bytes32 => address) protocolVersionST;\n       mapping(uint256 => ProtocolVersion) versionData;\n\n       struct ProtocolVersion {\n           uint8 major;\n           uint8 minor;\n           uint8 patch;\n       }\n\n       struct TickerDetails {\n           address owner;\n           uint256 registrationDate;\n           uint256 expiryDate;\n           string tokenName;\n           bool status;\n       }\n\n       struct SecurityTokenData {\n           string ticker;\n           string tokenDetails;\n           uint256 deployedAt;\n       }\n\n     */\n\n    using SafeMath for uint256;\n\n    // Emit when network becomes paused\n    event Pause(uint256 _timestammp);\n     // Emit when network becomes unpaused\n    event Unpause(uint256 _timestamp);\n    // Emit when the ticker is removed from the registry\n    event TickerRemoved(string _ticker, uint256 _removedAt, address _removedBy);\n    // Emit when the token ticker expiry is changed\n    event ChangeExpiryLimit(uint256 _oldExpiry, uint256 _newExpiry);\n     // Emit when changeSecurityLaunchFee is called\n    event ChangeSecurityLaunchFee(uint256 _oldFee, uint256 _newFee);\n    // Emit when changeTickerRegistrationFee is called\n    event ChangeTickerRegistrationFee(uint256 _oldFee, uint256 _newFee);\n    // Emit when ownership gets transferred\n    event OwnershipTransferred(address indexed previousOwner, address indexed newOwner);\n    // Emit when ownership of the ticker gets changed\n    event ChangeTickerOwnership(string _ticker, address indexed _oldOwner, address indexed _newOwner);\n    // Emit at the time of launching a new security token\n    event NewSecurityToken(\n        string _ticker,\n        string _name,\n        address indexed _securityTokenAddress,\n        address indexed _owner,\n        uint256 _addedAt,\n        address _registrant,\n        bool _fromAdmin,\n        uint256 _registrationFee\n    );\n    // Emit after ticker registration\n    event RegisterTicker(\n        address indexed _owner,\n        string _ticker,\n        string _name,\n        uint256 indexed _registrationDate,\n        uint256 indexed _expiryDate,\n        bool _fromAdmin,\n        uint256 _registrationFee\n    );\n\n    /////////////////////////////\n    // Modifiers\n    /////////////////////////////\n\n    /**\n     * @dev Throws if called by any account other than the owner.\n     */\n    modifier onlyOwner() {\n        require(msg.sender == owner(),\"sender must be owner\");\n        _;\n    }\n\n    /**\n     * @notice Modifier to make a function callable only when the contract is not paused.\n     */\n    modifier whenNotPausedOrOwner() {\n        if (msg.sender == owner())\n            _;\n        else {\n            require(!isPaused(), \"Already paused\");\n            _;\n        }\n    }\n\n    /**\n     * @notice Modifier to make a function callable only when the contract is not paused and ignore is msg.sender is owner.\n     */\n    modifier whenNotPaused() {\n        require(!isPaused(), \"Already paused\");\n        _;\n    }\n\n\n    /**\n     * @notice Modifier to make a function callable only when the contract is paused.\n     */\n    modifier whenPaused() {\n        require(isPaused(), \"Should not be paused\");\n        _;\n    }\n\n\n    /////////////////////////////\n    // Initialization\n    /////////////////////////////\n\n    /**\n     * @notice initializes instance of STR\n     * @param _polymathRegistry is the address of the Polymath Registry\n     * @param _STFactory is the address of the Proxy contract for Security Tokens\n     * @param _stLaunchFee is the fee in POLY required to launch a token\n     * @param _tickerRegFee is the fee in POLY required to register a ticker\n     * @param _polyToken is the address of the POLY ERC20 token\n     * @param _owner is the owner of the STR\n     */\n    function initialize(address _polymathRegistry, address _STFactory, uint256 _stLaunchFee, uint256 _tickerRegFee, address _polyToken, address _owner) payable external {\n        require(!getBool(Encoder.getKey(\"initialised\")),\"already initialized\");\n        require(_STFactory != address(0) && _polyToken != address(0) && _owner != address(0) && _polymathRegistry != address(0), \"Invalid address\");\n        require(_stLaunchFee != 0 && _tickerRegFee != 0, \"Fees should not be 0\");\n        set(Encoder.getKey(\"polyToken\"), _polyToken);\n        set(Encoder.getKey(\"stLaunchFee\"), _stLaunchFee);\n        set(Encoder.getKey(\"tickerRegFee\"), _tickerRegFee);\n        set(Encoder.getKey(\"expiryLimit\"), uint256(60 * 1 days));\n        set(Encoder.getKey(\"paused\"), false);\n        set(Encoder.getKey(\"owner\"), _owner);\n        set(Encoder.getKey(\"polymathRegistry\"), _polymathRegistry);\n        _setProtocolVersion(_STFactory, uint8(0), uint8(0), uint8(2));\n        set(Encoder.getKey(\"initialised\"), true);\n    }\n\n    /////////////////////////////\n    // Token Ticker Management\n    /////////////////////////////\n\n    /**\n     * @notice Registers the token ticker to the selected owner\n     * @notice Once the token ticker is registered to its owner then no other issuer can claim\n     * @notice its ownership. If the ticker expires and its issuer hasn't used it, then someone else can take it.\n     * @param _owner is address of the owner of the token\n     * @param _ticker is unique token ticker\n     * @param _tokenName is the name of the token\n     */\n    function registerTicker(address _owner, string _ticker, string _tokenName) external whenNotPausedOrOwner {\n        require(_owner != address(0), \"Owner should not be 0x\");\n        require(bytes(_ticker).length > 0 && bytes(_ticker).length <= 10, \"Ticker length range (0,10]\");\n        // Attempt to charge the reg fee if it is > 0 POLY\n        uint256 tickerFee = getTickerRegistrationFee();\n        if (tickerFee > 0)\n            require(IERC20(getAddress(Encoder.getKey(\"polyToken\"))).transferFrom(msg.sender, address(this), tickerFee), \"Insufficent allowance\");\n        string memory ticker = Util.upper(_ticker);\n        require(_tickerAvailable(ticker), \"Ticker is reserved\");\n        // Check whether ticker was previously registered (and expired)\n        address previousOwner = _tickerOwner(ticker);\n        if (previousOwner != address(0)) {\n            _deleteTickerOwnership(previousOwner, ticker);\n        }\n        _addTicker(_owner, ticker, _tokenName, now, now.add(getExpiryLimit()), false, false, tickerFee);\n    }\n\n    /**\n     * @notice Internal - Sets the details of the ticker\n     */\n    function _addTicker(\n        address _owner, \n        string _ticker, \n        string _tokenName, \n        uint256 _registrationDate, \n        uint256 _expiryDate, \n        bool _status, \n        bool _fromAdmin, \n        uint256 _fee\n        ) internal {\n        _setTickerOwnership(_owner, _ticker);\n        _storeTickerDetails(_ticker, _owner, _registrationDate, _expiryDate, _tokenName, _status);\n        emit RegisterTicker(_owner, _ticker, _tokenName, _registrationDate, _expiryDate, _fromAdmin, _fee);\n    }\n\n    /**\n     * @notice Modifies the ticker details. Only Polymath has the ability to do so.\n     * @notice Only allowed to modify the tickers which are not yet deployed.\n     * @param _owner is the owner of the token\n     * @param _ticker is the token ticker\n     * @param _tokenName is the name of the token\n     * @param _registrationDate is the date at which ticker is registered\n     * @param _expiryDate is the expiry date for the ticker\n     * @param _status is the token deployment status\n     */\n    function modifyTicker(\n        address _owner,\n        string _ticker,\n        string _tokenName,\n        uint256 _registrationDate,\n        uint256 _expiryDate,\n        bool _status\n        ) external onlyOwner {\n        require(bytes(_ticker).length > 0 && bytes(_ticker).length <= 10, \"Ticker length range (0,10]\");\n        require(_expiryDate != 0 && _registrationDate != 0, \"Dates should not be 0\");\n        require(_registrationDate <= _expiryDate, \"Registration date should < expiry date\");\n        require(_owner != address(0), \"Invalid address\");\n        string memory ticker = Util.upper(_ticker);\n        _modifyTicker(_owner, ticker, _tokenName, _registrationDate, _expiryDate, _status);\n    }\n\n    /**\n     * @notice Internal -- Modifies the ticker details.\n     */\n    function _modifyTicker(\n        address _owner,\n        string _ticker,\n        string _tokenName,\n        uint256 _registrationDate,\n        uint256 _expiryDate,\n        bool _status\n        ) internal {\n        address currentOwner = _tickerOwner(_ticker);\n        if (currentOwner != address(0)) {\n            _deleteTickerOwnership(currentOwner, _ticker);\n        }\n        if (_tickerStatus(_ticker) && !_status) {\n            set(Encoder.getKey(\"tickerToSecurityToken\", _ticker), address(0));\n        }\n        // If status is true, there must be a security token linked to the ticker already\n        if (_status) {\n            require(getAddress(Encoder.getKey(\"tickerToSecurityToken\", _ticker)) != address(0), \"Token not registered\");\n        }\n        _addTicker(_owner, _ticker, _tokenName, _registrationDate, _expiryDate, _status, true, uint256(0));\n    }\n\n    function _tickerOwner(string _ticker) internal view returns(address) {\n        return getAddress(Encoder.getKey(\"registeredTickers_owner\", _ticker));\n    }\n\n    /**\n     * @notice Removes the ticker details, associated ownership & security token mapping\n     * @param _ticker is the token ticker\n     */\n    function removeTicker(string _ticker) external onlyOwner {\n        string memory ticker = Util.upper(_ticker);\n        address owner = _tickerOwner(ticker);\n        require(owner != address(0), \"Ticker doesn't exist\");\n        _deleteTickerOwnership(owner, ticker);\n        set(Encoder.getKey(\"tickerToSecurityToken\", ticker), address(0));\n        _storeTickerDetails(ticker, address(0), 0, 0, \"\", false);\n        emit TickerRemoved(ticker, now, msg.sender);\n    }\n\n    /**\n     * @notice Internal - Checks if the entered ticker is registered and has not expired\n     * @param _ticker is the token ticker\n     * @return bool\n     */\n    function _tickerAvailable(string _ticker) internal view returns(bool) {\n        if (_tickerOwner(_ticker) != address(0)) {\n            if ((now > getUint(Encoder.getKey(\"registeredTickers_expiryDate\", _ticker))) && !_tickerStatus(_ticker)) {\n                return true;\n            } else\n                return false;\n        }\n        return true;\n    }\n\n    function _tickerStatus(string _ticker) internal view returns(bool) {\n        return getBool(Encoder.getKey(\"registeredTickers_status\", _ticker));\n    }\n\n    /**\n     * @notice Internal - Sets the ticker owner\n     * @param _owner is the address of the owner of the ticker\n     * @param _ticker is the ticker symbol\n     */\n    function _setTickerOwnership(address _owner, string _ticker) internal {\n        bytes32 _ownerKey = Encoder.getKey(\"userToTickers\", _owner);\n        uint256 length = uint256(getArrayBytes32(_ownerKey).length);\n        pushArray(_ownerKey, Util.stringToBytes32(_ticker));\n        set(Encoder.getKey(\"tickerIndex\", _ticker), length);\n        bytes32 seenKey = Encoder.getKey(\"seenUsers\", _owner);\n        if (!getBool(seenKey)) {\n            pushArray(Encoder.getKey(\"activeUsers\"), _owner);\n            set(seenKey, true);\n        }\n    }\n\n    /**\n     * @notice Internal - Stores the ticker details\n     */\n    function _storeTickerDetails(\n        string _ticker,\n        address _owner,\n        uint256 _registrationDate,\n        uint256 _expiryDate,\n        string _tokenName,\n        bool _status\n        ) internal {\n        bytes32 key = Encoder.getKey(\"registeredTickers_owner\", _ticker);\n        if (getAddress(key) != _owner)\n            set(key, _owner);\n        key = Encoder.getKey(\"registeredTickers_registrationDate\", _ticker);\n        if (getUint(key) != _registrationDate)\n            set(key, _registrationDate);\n        key = Encoder.getKey(\"registeredTickers_expiryDate\", _ticker);\n        if (getUint(key) != _expiryDate)\n            set(key, _expiryDate);\n        key = Encoder.getKey(\"registeredTickers_tokenName\", _ticker);\n        if (Encoder.getKey(getString(key)) != Encoder.getKey(_tokenName))\n            set(key, _tokenName);\n        key = Encoder.getKey(\"registeredTickers_status\", _ticker);\n        if (getBool(key) != _status)\n            set(key, _status);\n    }\n\n    /**\n     * @notice Transfers the ownership of the ticker\n     * @param _newOwner is the address of the new owner of the ticker\n     * @param _ticker is the ticker symbol\n     */\n    function transferTickerOwnership(address _newOwner, string _ticker) external whenNotPausedOrOwner {\n        string memory ticker = Util.upper(_ticker);\n        require(_newOwner != address(0), \"Invalid address\");\n        bytes32 ownerKey = Encoder.getKey(\"registeredTickers_owner\", ticker);\n        require(getAddress(ownerKey) == msg.sender, \"Not authorised\");\n        if (_tickerStatus(ticker))\n            require(IOwnable(getAddress(Encoder.getKey(\"tickerToSecurityToken\", ticker))).owner() == _newOwner, \"New owner does not match token owner\");\n        _deleteTickerOwnership(msg.sender, ticker);\n        _setTickerOwnership(_newOwner, ticker);\n        set(ownerKey, _newOwner);\n        emit ChangeTickerOwnership(ticker, msg.sender, _newOwner);\n    }\n\n    /**\n     * @notice Internal - Removes the owner of a ticker\n     */\n    function _deleteTickerOwnership(address _owner, string _ticker) internal {\n        uint256 index = uint256(getUint(Encoder.getKey(\"tickerIndex\", _ticker)));\n        bytes32 ownerKey = Encoder.getKey(\"userToTickers\", _owner);\n        bytes32[] memory tickers = getArrayBytes32(ownerKey);\n        assert(index < tickers.length);\n        assert(_tickerOwner(_ticker) == _owner);\n        deleteArrayBytes32(ownerKey, index);\n        if (getArrayBytes32(ownerKey).length > index) {\n            bytes32 switchedTicker = getArrayBytes32(ownerKey)[index];\n            set(Encoder.getKey(\"tickerIndex\", Util.bytes32ToString(switchedTicker)), index);\n        }\n    }\n\n    /**\n     * @notice Changes the expiry time for the token ticker. Only available to Polymath.\n     * @param _newExpiry is the new expiry for newly generated tickers\n     */\n    function changeExpiryLimit(uint256 _newExpiry) external onlyOwner {\n        require(_newExpiry >= 1 days, \"Expiry should >= 1 day\");\n        bytes32 key = Encoder.getKey(\"expiryLimit\");\n        emit ChangeExpiryLimit(getUint(key), _newExpiry);\n        set(key, _newExpiry);\n    }\n\n    /**\n     * @notice Returns the list of tickers owned by the selected address\n     * @param _owner is the address which owns the list of tickers\n     */\n    function getTickersByOwner(address _owner) external view returns(bytes32[]) {\n        uint counter = 0;\n        // accessing the data structure userTotickers[_owner].length\n        bytes32[] memory tickers = getArrayBytes32(Encoder.getKey(\"userToTickers\", _owner));\n        bytes32[] memory tempList = new bytes32[](tickers.length);\n        for (uint i = 0; i < tickers.length; i++) {\n            string memory ticker = Util.bytes32ToString(tickers[i]);\n            if (getUint(Encoder.getKey(\"registeredTickers_expiryDate\", ticker)) >= now || _tickerStatus(ticker)) {\n                tempList[counter] = tickers[i];\n                counter ++;\n            }\n        }\n        return tempList;\n    }\n\n    /**\n     * @notice Returns the list of tokens owned by the selected address\n     * @param _owner is the address which owns the list of tickers\n     * @dev Intention is that this is called off-chain so block gas limit is not relevant\n     */\n    function getTokensByOwner(address _owner) external view returns(address[]) {\n        // Loop over all active users, then all associated tickers of those users\n        // This ensures we find tokens, even if their owner has been modified\n        address[] memory activeUsers = getArrayAddress(Encoder.getKey(\"activeUsers\"));\n        bytes32[] memory tickers;\n        address token;\n        uint256 count = 0;\n        uint256 i = 0;\n        uint256 j = 0;\n        for (i = 0; i < activeUsers.length; i++) {\n            tickers = getArrayBytes32(Encoder.getKey(\"userToTickers\", activeUsers[i]));\n            for (j = 0; j < tickers.length; j++) {\n                token = getAddress(Encoder.getKey(\"tickerToSecurityToken\", Util.bytes32ToString(tickers[j])));\n                if (token != address(0)) {\n                    if (IOwnable(token).owner() == _owner) {\n                        count = count + 1;\n                    }\n                }\n            }\n        }\n        uint256 index = 0;\n        address[] memory result = new address[](count);\n        for (i = 0; i < activeUsers.length; i++) {\n            tickers = getArrayBytes32(Encoder.getKey(\"userToTickers\", activeUsers[i]));\n            for (j = 0; j < tickers.length; j++) {\n                token = getAddress(Encoder.getKey(\"tickerToSecurityToken\", Util.bytes32ToString(tickers[j])));\n                if (token != address(0)) {\n                    if (IOwnable(token).owner() == _owner) {\n                        result[index] = token;\n                        index = index + 1;\n                    }\n                }\n            }\n        }\n        return result;\n    }\n\n    /**\n     * @notice Returns the owner and timestamp for a given ticker\n     * @param _ticker is the ticker symbol\n     * @return address\n     * @return uint256\n     * @return uint256\n     * @return string\n     * @return bool\n     */\n    function getTickerDetails(string _ticker) external view returns (address, uint256, uint256, string, bool) {\n        string memory ticker = Util.upper(_ticker);\n        bool tickerStatus = _tickerStatus(ticker);\n        uint256 expiryDate = getUint(Encoder.getKey(\"registeredTickers_expiryDate\", ticker));\n        if ((tickerStatus == true) || (expiryDate > now)) {\n            return\n            (\n                _tickerOwner(ticker),\n                getUint(Encoder.getKey(\"registeredTickers_registrationDate\", ticker)),\n                expiryDate,\n                getString(Encoder.getKey(\"registeredTickers_tokenName\", ticker)),\n                tickerStatus\n            );\n        } else\n            return (address(0), uint256(0), uint256(0), \"\", false);\n    }\n\n    /////////////////////////////\n    // Security Token Management\n    /////////////////////////////\n\n    /**\n     * @notice Deploys an instance of a new Security Token and records it to the registry\n     * @param _name is the name of the token\n     * @param _ticker is the ticker symbol of the security token\n     * @param _tokenDetails is the off-chain details of the token\n     * @param _divisible is whether or not the token is divisible\n     */\n    function generateSecurityToken(string _name, string _ticker, string _tokenDetails, bool _divisible) external whenNotPausedOrOwner {\n        require(bytes(_name).length > 0 && bytes(_ticker).length > 0, \"Ticker length > 0\");\n        string memory ticker = Util.upper(_ticker);\n        bytes32 statusKey = Encoder.getKey(\"registeredTickers_status\", ticker);\n        require(!getBool(statusKey), \"Already deployed\");\n        set(statusKey, true);\n        require(_tickerOwner(ticker) == msg.sender, \"Not authorised\");\n        require(getUint(Encoder.getKey(\"registeredTickers_expiryDate\", ticker)) >= now, \"Ticker gets expired\");\n\n        uint256 launchFee = getSecurityTokenLaunchFee();\n        if (launchFee > 0)\n            require(IERC20(getAddress(Encoder.getKey(\"polyToken\"))).transferFrom(msg.sender, address(this), launchFee), \"Insufficient allowance\");\n\n        address newSecurityTokenAddress = ISTFactory(getSTFactoryAddress()).deployToken(\n            _name,\n            ticker,\n            18,\n            _tokenDetails,\n            msg.sender,\n            _divisible,\n            getAddress(Encoder.getKey(\"polymathRegistry\"))\n        );\n\n        _storeSecurityTokenData(newSecurityTokenAddress, ticker, _tokenDetails, now);\n        set(Encoder.getKey(\"tickerToSecurityToken\", ticker), newSecurityTokenAddress);\n        emit NewSecurityToken(ticker, _name, newSecurityTokenAddress, msg.sender, now, msg.sender, false, launchFee);\n    }\n\n    /**\n     * @notice Adds a new custom Security Token and saves it to the registry. (Token should follow the ISecurityToken interface)\n     * @param _name is the name of the token\n     * @param _ticker is the ticker symbol of the security token\n     * @param _owner is the owner of the token\n     * @param _securityToken is the address of the securityToken\n     * @param _tokenDetails is the off-chain details of the token\n     * @param _deployedAt is the timestamp at which the security token is deployed\n     */\n    function modifySecurityToken(string _name, string _ticker, address _owner, address _securityToken, string _tokenDetails, uint256 _deployedAt) external onlyOwner {\n        require(bytes(_name).length > 0 && bytes(_ticker).length > 0, \"String length > 0\");\n        require(bytes(_ticker).length <= 10, \"Ticker length range (0,10]\");\n        require(_deployedAt != 0 && _owner != address(0), \"0 value params not allowed\");\n        string memory ticker = Util.upper(_ticker);\n        require(_securityToken != address(0), \"ST address is 0x\");\n        uint256 registrationTime = getUint(Encoder.getKey(\"registeredTickers_registrationDate\", ticker));\n        uint256 expiryTime = getUint(Encoder.getKey(\"registeredTickers_expiryDate\", ticker));\n        if (registrationTime == 0) {\n            registrationTime = now;\n            expiryTime = registrationTime.add(getExpiryLimit());\n        }\n        set(Encoder.getKey(\"tickerToSecurityToken\", ticker), _securityToken);\n        _modifyTicker(_owner, ticker, _name, registrationTime, expiryTime, true);\n        _storeSecurityTokenData(_securityToken, ticker, _tokenDetails, _deployedAt);\n        emit NewSecurityToken(ticker, _name, _securityToken, _owner, _deployedAt, msg.sender, true, getSecurityTokenLaunchFee());\n    }\n\n    /**\n     * @notice Internal - Stores the security token details\n     */\n    function _storeSecurityTokenData(address _securityToken, string _ticker, string _tokenDetails, uint256 _deployedAt) internal {\n        set(Encoder.getKey(\"securityTokens_ticker\", _securityToken), _ticker);\n        set(Encoder.getKey(\"securityTokens_tokenDetails\", _securityToken), _tokenDetails);\n        set(Encoder.getKey(\"securityTokens_deployedAt\", _securityToken), _deployedAt);\n    }\n\n    /**\n    * @notice Checks that Security Token is registered\n    * @param _securityToken is the address of the security token\n    * @return bool\n    */\n    function isSecurityToken(address _securityToken) external view returns (bool) {\n        return (keccak256(bytes(getString(Encoder.getKey(\"securityTokens_ticker\", _securityToken)))) != keccak256(\"\"));\n    }\n\n    /**\n     * @notice Returns the security token address by ticker symbol\n     * @param _ticker is the ticker of the security token\n     * @return address\n     */\n    function getSecurityTokenAddress(string _ticker) external view returns (address) {\n        string memory ticker = Util.upper(_ticker);\n        return getAddress(Encoder.getKey(\"tickerToSecurityToken\", ticker));\n    }\n\n     /**\n     * @notice Returns the security token data by address\n     * @param _securityToken is the address of the security token.\n     * @return string is the ticker of the security Token.\n     * @return address is the issuer of the security Token.\n     * @return string is the details of the security token.\n     * @return uint256 is the timestamp at which security Token was deployed.\n     */\n    function getSecurityTokenData(address _securityToken) external view returns (string, address, string, uint256) {\n        return (\n            getString(Encoder.getKey(\"securityTokens_ticker\", _securityToken)),\n            IOwnable(_securityToken).owner(),\n            getString(Encoder.getKey(\"securityTokens_tokenDetails\", _securityToken)),\n            getUint(Encoder.getKey(\"securityTokens_deployedAt\", _securityToken))\n        );\n    }\n\n    /////////////////////////////\n    // Ownership, lifecycle & Utility\n    /////////////////////////////\n\n    /**\n    * @dev Allows the current owner to transfer control of the contract to a newOwner.\n    * @param _newOwner The address to transfer ownership to.\n    */\n    function transferOwnership(address _newOwner) external onlyOwner {\n        require(_newOwner != address(0));\n        bytes32 key = Encoder.getKey(\"owner\");\n        emit OwnershipTransferred(getAddress(key), _newOwner);\n        set(key, _newOwner);\n    }\n\n    /**\n    * @notice called by the owner to pause, triggers stopped state\n    */\n    function pause() external whenNotPaused onlyOwner {\n        set(Encoder.getKey(\"paused\"), true);\n        emit Pause(now);\n    }\n\n    /**\n    * @notice called by the owner to unpause, returns to normal state\n    */\n    function unpause() external whenPaused onlyOwner {\n        set(Encoder.getKey(\"paused\"), false);\n        emit Unpause(now);\n    }\n\n    /**\n    * @notice Sets the ticker registration fee in POLY tokens. Only Polymath.\n    * @param _tickerRegFee is the registration fee in POLY tokens (base 18 decimals)\n    */\n    function changeTickerRegistrationFee(uint256 _tickerRegFee) external onlyOwner {\n        bytes32 key = Encoder.getKey(\"tickerRegFee\");\n        uint256 fee = getUint(key);\n        require(fee != _tickerRegFee);\n        emit ChangeTickerRegistrationFee(fee, _tickerRegFee);\n        set(key, _tickerRegFee);\n    }\n\n   /**\n    * @notice Sets the ticker registration fee in POLY tokens. Only Polymath.\n    * @param _stLaunchFee is the registration fee in POLY tokens (base 18 decimals)\n    */\n    function changeSecurityLaunchFee(uint256 _stLaunchFee) external onlyOwner {\n        bytes32 key = Encoder.getKey(\"stLaunchFee\");\n        uint256 fee = getUint(key);\n        require(fee != _stLaunchFee);\n        emit ChangeSecurityLaunchFee(fee, _stLaunchFee);\n        set(key, _stLaunchFee);\n    }\n\n    /**\n    * @notice Reclaims all ERC20Basic compatible tokens\n    * @param _tokenContract is the address of the token contract\n    */\n    function reclaimERC20(address _tokenContract) external onlyOwner {\n        require(_tokenContract != address(0));\n        IERC20 token = IERC20(_tokenContract);\n        uint256 balance = token.balanceOf(address(this));\n        require(token.transfer(owner(), balance));\n    }\n\n    /**\n    * @notice Changes the protocol version and the SecurityToken contract\n    * @notice Used only by Polymath to upgrade the SecurityToken contract and add more functionalities to future versions\n    * @notice Changing versions does not affect existing tokens.\n    * @param _STFactoryAddress is the address of the proxy.\n    * @param _major Major version of the proxy.\n    * @param _minor Minor version of the proxy.\n    * @param _patch Patch version of the proxy\n    */\n    function setProtocolVersion(address _STFactoryAddress, uint8 _major, uint8 _minor, uint8 _patch) external onlyOwner {\n        _setProtocolVersion(_STFactoryAddress, _major, _minor, _patch);\n    }\n\n    /**\n    * @notice Internal - Changes the protocol version and the SecurityToken contract\n    */\n    function _setProtocolVersion(address _STFactoryAddress, uint8 _major, uint8 _minor, uint8 _patch) internal {\n        uint8[] memory _version = new uint8[](3);\n        _version[0] = _major;\n        _version[1] = _minor;\n        _version[2] = _patch;\n        uint24 _packedVersion = VersionUtils.pack(_major, _minor, _patch);\n        require(VersionUtils.isValidVersion(getProtocolVersion(), _version),\"In-valid version\");\n        set(Encoder.getKey(\"latestVersion\"), uint256(_packedVersion));\n        set(Encoder.getKey(\"protocolVersionST\", getUint(Encoder.getKey(\"latestVersion\"))), _STFactoryAddress);\n    }\n\n    /**\n     * @notice Returns the current STFactory Address\n     */\n    function getSTFactoryAddress() public view returns(address) {\n        return getAddress(Encoder.getKey(\"protocolVersionST\", getUint(Encoder.getKey(\"latestVersion\"))));\n    }\n\n    /**\n     * @notice get Protocol version\n     */\n    function getProtocolVersion() public view returns(uint8[]) {\n        return VersionUtils.unpack(uint24(getUint(Encoder.getKey(\"latestVersion\"))));\n    }\n\n    /**\n     * @notice Changes the PolyToken address. Only Polymath.\n     * @param _newAddress is the address of the polytoken.\n     */\n    function updatePolyTokenAddress(address _newAddress) external onlyOwner {\n        require(_newAddress != address(0));\n        set(Encoder.getKey(\"polyToken\"), _newAddress);\n    }\n\n    /**\n     * @notice Gets the security token launch fee\n     * @return Fee amount\n     */\n    function getSecurityTokenLaunchFee() public view returns(uint256) {\n        return getUint(Encoder.getKey(\"stLaunchFee\"));\n    }\n\n    /**\n     * @notice Gets the ticker registration fee\n     * @return Fee amount\n     */\n    function getTickerRegistrationFee() public view returns(uint256) {\n        return getUint(Encoder.getKey(\"tickerRegFee\"));\n    }\n\n    /**\n     * @notice Gets the expiry limit\n     * @return Expiry limit\n     */\n    function getExpiryLimit() public view returns(uint256) {\n        return getUint(Encoder.getKey(\"expiryLimit\"));\n    }\n\n    /**\n     * @notice Check whether the registry is paused or not\n     * @return bool\n     */\n    function isPaused() public view returns(bool) {\n        return getBool(Encoder.getKey(\"paused\"));\n    }\n\n    /**\n     * @notice Gets the owner of the contract\n     * @return address owner\n     */\n    function owner() public view returns(address) {\n        return getAddress(Encoder.getKey(\"owner\"));\n    }\n\n}\n",
  "sourcePath": "/Users/rafaelvidaurre/Code/polymath/polymath-apps/packages/polymath-shared/scripts/generateLocalBlockchain/contracts/SecurityTokenRegistry.sol",
  "compiler": {
    "name": "solc",
    "version": "0.4.24+commit.e67f0147.Emscripten.clang"
  },
  "schemaVersion": "2.0.1",
  "updatedAt": "2018-10-18T21:45:47.912Z"
}