{
  "contractName": "SecurityTokenRegistryMock",
  "abi": [
    {
      "constant": true,
      "inputs": [],
      "name": "getExpiryLimit",
      "outputs": [
        {
          "name": "",
          "type": "uint256"
        }
      ],
      "payable": false,
      "stateMutability": "view",
      "type": "function"
    },
    {
      "constant": true,
      "inputs": [
        {
          "name": "_variable",
          "type": "bytes32"
        }
      ],
      "name": "getBoolValues",
      "outputs": [
        {
          "name": "",
          "type": "bool"
        }
      ],
      "payable": false,
      "stateMutability": "view",
      "type": "function"
    },
    {
      "constant": false,
      "inputs": [
        {
          "name": "_newExpiry",
          "type": "uint256"
        }
      ],
      "name": "changeExpiryLimit",
      "outputs": [],
      "payable": false,
      "stateMutability": "nonpayable",
      "type": "function"
    },
    {
      "constant": true,
      "inputs": [
        {
          "name": "_owner",
          "type": "address"
        }
      ],
      "name": "getTickersByOwner",
      "outputs": [
        {
          "name": "",
          "type": "bytes32[]"
        }
      ],
      "payable": false,
      "stateMutability": "view",
      "type": "function"
    },
    {
      "constant": true,
      "inputs": [
        {
          "name": "_variable",
          "type": "bytes32"
        }
      ],
      "name": "getUintValues",
      "outputs": [
        {
          "name": "",
          "type": "uint256"
        }
      ],
      "payable": false,
      "stateMutability": "view",
      "type": "function"
    },
    {
      "constant": false,
      "inputs": [
        {
          "name": "_owner",
          "type": "address"
        },
        {
          "name": "_ticker",
          "type": "string"
        },
        {
          "name": "_tokenName",
          "type": "string"
        }
      ],
      "name": "registerTicker",
      "outputs": [],
      "payable": false,
      "stateMutability": "nonpayable",
      "type": "function"
    },
    {
      "constant": true,
      "inputs": [],
      "name": "getProtocolVersion",
      "outputs": [
        {
          "name": "",
          "type": "uint8[]"
        }
      ],
      "payable": false,
      "stateMutability": "view",
      "type": "function"
    },
    {
      "constant": false,
      "inputs": [],
      "name": "unpause",
      "outputs": [],
      "payable": false,
      "stateMutability": "nonpayable",
      "type": "function"
    },
    {
      "constant": true,
      "inputs": [
        {
          "name": "_owner",
          "type": "address"
        }
      ],
      "name": "getTokensByOwner",
      "outputs": [
        {
          "name": "",
          "type": "address[]"
        }
      ],
      "payable": false,
      "stateMutability": "view",
      "type": "function"
    },
    {
      "constant": false,
      "inputs": [
        {
          "name": "_stLaunchFee",
          "type": "uint256"
        }
      ],
      "name": "changeSecurityLaunchFee",
      "outputs": [],
      "payable": false,
      "stateMutability": "nonpayable",
      "type": "function"
    },
    {
      "constant": true,
      "inputs": [
        {
          "name": "_ticker",
          "type": "string"
        }
      ],
      "name": "getTickerDetails",
      "outputs": [
        {
          "name": "",
          "type": "address"
        },
        {
          "name": "",
          "type": "uint256"
        },
        {
          "name": "",
          "type": "uint256"
        },
        {
          "name": "",
          "type": "string"
        },
        {
          "name": "",
          "type": "bool"
        }
      ],
      "payable": false,
      "stateMutability": "view",
      "type": "function"
    },
    {
      "constant": false,
      "inputs": [
        {
          "name": "_name",
          "type": "string"
        },
        {
          "name": "_ticker",
          "type": "string"
        },
        {
          "name": "_owner",
          "type": "address"
        },
        {
          "name": "_securityToken",
          "type": "address"
        },
        {
          "name": "_tokenDetails",
          "type": "string"
        },
        {
          "name": "_deployedAt",
          "type": "uint256"
        }
      ],
      "name": "modifySecurityToken",
      "outputs": [],
      "payable": false,
      "stateMutability": "nonpayable",
      "type": "function"
    },
    {
      "constant": true,
      "inputs": [
        {
          "name": "_variable",
          "type": "bytes32"
        }
      ],
      "name": "getStringValues",
      "outputs": [
        {
          "name": "",
          "type": "string"
        }
      ],
      "payable": false,
      "stateMutability": "view",
      "type": "function"
    },
    {
      "constant": false,
      "inputs": [],
      "name": "pause",
      "outputs": [],
      "payable": false,
      "stateMutability": "nonpayable",
      "type": "function"
    },
    {
      "constant": false,
      "inputs": [
        {
          "name": "_tokenContract",
          "type": "address"
        }
      ],
      "name": "reclaimERC20",
      "outputs": [],
      "payable": false,
      "stateMutability": "nonpayable",
      "type": "function"
    },
    {
      "constant": true,
      "inputs": [],
      "name": "owner",
      "outputs": [
        {
          "name": "",
          "type": "address"
        }
      ],
      "payable": false,
      "stateMutability": "view",
      "type": "function"
    },
    {
      "constant": true,
      "inputs": [
        {
          "name": "_securityToken",
          "type": "address"
        }
      ],
      "name": "getSecurityTokenData",
      "outputs": [
        {
          "name": "",
          "type": "string"
        },
        {
          "name": "",
          "type": "address"
        },
        {
          "name": "",
          "type": "string"
        },
        {
          "name": "",
          "type": "uint256"
        }
      ],
      "payable": false,
      "stateMutability": "view",
      "type": "function"
    },
    {
      "constant": false,
      "inputs": [
        {
          "name": "_owner",
          "type": "address"
        },
        {
          "name": "_ticker",
          "type": "string"
        },
        {
          "name": "_tokenName",
          "type": "string"
        },
        {
          "name": "_registrationDate",
          "type": "uint256"
        },
        {
          "name": "_expiryDate",
          "type": "uint256"
        },
        {
          "name": "_status",
          "type": "bool"
        }
      ],
      "name": "modifyTicker",
      "outputs": [],
      "payable": false,
      "stateMutability": "nonpayable",
      "type": "function"
    },
    {
      "constant": false,
      "inputs": [
        {
          "name": "_tickerRegFee",
          "type": "uint256"
        }
      ],
      "name": "changeTickerRegistrationFee",
      "outputs": [],
      "payable": false,
      "stateMutability": "nonpayable",
      "type": "function"
    },
    {
      "constant": false,
      "inputs": [
        {
          "name": "_ticker",
          "type": "string"
        }
      ],
      "name": "removeTicker",
      "outputs": [],
      "payable": false,
      "stateMutability": "nonpayable",
      "type": "function"
    },
    {
      "constant": true,
      "inputs": [],
      "name": "isPaused",
      "outputs": [
        {
          "name": "",
          "type": "bool"
        }
      ],
      "payable": false,
      "stateMutability": "view",
      "type": "function"
    },
    {
      "constant": true,
      "inputs": [
        {
          "name": "_variable",
          "type": "bytes32"
        }
      ],
      "name": "getBytes32Values",
      "outputs": [
        {
          "name": "",
          "type": "bytes32"
        }
      ],
      "payable": false,
      "stateMutability": "view",
      "type": "function"
    },
    {
      "constant": true,
      "inputs": [
        {
          "name": "_variable",
          "type": "bytes32"
        }
      ],
      "name": "getAddressValues",
      "outputs": [
        {
          "name": "",
          "type": "address"
        }
      ],
      "payable": false,
      "stateMutability": "view",
      "type": "function"
    },
    {
      "constant": false,
      "inputs": [
        {
          "name": "_name",
          "type": "string"
        },
        {
          "name": "_ticker",
          "type": "string"
        },
        {
          "name": "_tokenDetails",
          "type": "string"
        },
        {
          "name": "_divisible",
          "type": "bool"
        }
      ],
      "name": "generateSecurityToken",
      "outputs": [],
      "payable": false,
      "stateMutability": "nonpayable",
      "type": "function"
    },
    {
      "constant": true,
      "inputs": [
        {
          "name": "_variable",
          "type": "bytes32"
        }
      ],
      "name": "getBytesValues",
      "outputs": [
        {
          "name": "",
          "type": "bytes"
        }
      ],
      "payable": false,
      "stateMutability": "view",
      "type": "function"
    },
    {
      "constant": true,
      "inputs": [],
      "name": "getSecurityTokenLaunchFee",
      "outputs": [
        {
          "name": "",
          "type": "uint256"
        }
      ],
      "payable": false,
      "stateMutability": "view",
      "type": "function"
    },
    {
      "constant": false,
      "inputs": [
        {
          "name": "_newOwner",
          "type": "address"
        },
        {
          "name": "_ticker",
          "type": "string"
        }
      ],
      "name": "transferTickerOwnership",
      "outputs": [],
      "payable": false,
      "stateMutability": "nonpayable",
      "type": "function"
    },
    {
      "constant": false,
      "inputs": [
        {
          "name": "_polymathRegistry",
          "type": "address"
        },
        {
          "name": "_STFactory",
          "type": "address"
        },
        {
          "name": "_stLaunchFee",
          "type": "uint256"
        },
        {
          "name": "_tickerRegFee",
          "type": "uint256"
        },
        {
          "name": "_polyToken",
          "type": "address"
        },
        {
          "name": "_owner",
          "type": "address"
        }
      ],
      "name": "initialize",
      "outputs": [],
      "payable": true,
      "stateMutability": "payable",
      "type": "function"
    },
    {
      "constant": true,
      "inputs": [
        {
          "name": "_securityToken",
          "type": "address"
        }
      ],
      "name": "isSecurityToken",
      "outputs": [
        {
          "name": "",
          "type": "bool"
        }
      ],
      "payable": false,
      "stateMutability": "view",
      "type": "function"
    },
    {
      "constant": false,
      "inputs": [
        {
          "name": "_STFactoryAddress",
          "type": "address"
        },
        {
          "name": "_major",
          "type": "uint8"
        },
        {
          "name": "_minor",
          "type": "uint8"
        },
        {
          "name": "_patch",
          "type": "uint8"
        }
      ],
      "name": "setProtocolVersion",
      "outputs": [],
      "payable": false,
      "stateMutability": "nonpayable",
      "type": "function"
    },
    {
      "constant": true,
      "inputs": [],
      "name": "getTickerRegistrationFee",
      "outputs": [
        {
          "name": "",
          "type": "uint256"
        }
      ],
      "payable": false,
      "stateMutability": "view",
      "type": "function"
    },
    {
      "constant": false,
      "inputs": [
        {
          "name": "_newAddress",
          "type": "address"
        }
      ],
      "name": "updatePolyTokenAddress",
      "outputs": [],
      "payable": false,
      "stateMutability": "nonpayable",
      "type": "function"
    },
    {
      "constant": true,
      "inputs": [],
      "name": "getSTFactoryAddress",
      "outputs": [
        {
          "name": "",
          "type": "address"
        }
      ],
      "payable": false,
      "stateMutability": "view",
      "type": "function"
    },
    {
      "constant": false,
      "inputs": [
        {
          "name": "_newOwner",
          "type": "address"
        }
      ],
      "name": "transferOwnership",
      "outputs": [],
      "payable": false,
      "stateMutability": "nonpayable",
      "type": "function"
    },
    {
      "constant": true,
      "inputs": [
        {
          "name": "_ticker",
          "type": "string"
        }
      ],
      "name": "getSecurityTokenAddress",
      "outputs": [
        {
          "name": "",
          "type": "address"
        }
      ],
      "payable": false,
      "stateMutability": "view",
      "type": "function"
    },
    {
      "anonymous": false,
      "inputs": [
        {
          "indexed": false,
          "name": "_timestammp",
          "type": "uint256"
        }
      ],
      "name": "Pause",
      "type": "event"
    },
    {
      "anonymous": false,
      "inputs": [
        {
          "indexed": false,
          "name": "_timestamp",
          "type": "uint256"
        }
      ],
      "name": "Unpause",
      "type": "event"
    },
    {
      "anonymous": false,
      "inputs": [
        {
          "indexed": false,
          "name": "_ticker",
          "type": "string"
        },
        {
          "indexed": false,
          "name": "_removedAt",
          "type": "uint256"
        },
        {
          "indexed": false,
          "name": "_removedBy",
          "type": "address"
        }
      ],
      "name": "TickerRemoved",
      "type": "event"
    },
    {
      "anonymous": false,
      "inputs": [
        {
          "indexed": false,
          "name": "_oldExpiry",
          "type": "uint256"
        },
        {
          "indexed": false,
          "name": "_newExpiry",
          "type": "uint256"
        }
      ],
      "name": "ChangeExpiryLimit",
      "type": "event"
    },
    {
      "anonymous": false,
      "inputs": [
        {
          "indexed": false,
          "name": "_oldFee",
          "type": "uint256"
        },
        {
          "indexed": false,
          "name": "_newFee",
          "type": "uint256"
        }
      ],
      "name": "ChangeSecurityLaunchFee",
      "type": "event"
    },
    {
      "anonymous": false,
      "inputs": [
        {
          "indexed": false,
          "name": "_oldFee",
          "type": "uint256"
        },
        {
          "indexed": false,
          "name": "_newFee",
          "type": "uint256"
        }
      ],
      "name": "ChangeTickerRegistrationFee",
      "type": "event"
    },
    {
      "anonymous": false,
      "inputs": [
        {
          "indexed": true,
          "name": "previousOwner",
          "type": "address"
        },
        {
          "indexed": true,
          "name": "newOwner",
          "type": "address"
        }
      ],
      "name": "OwnershipTransferred",
      "type": "event"
    },
    {
      "anonymous": false,
      "inputs": [
        {
          "indexed": false,
          "name": "_ticker",
          "type": "string"
        },
        {
          "indexed": true,
          "name": "_oldOwner",
          "type": "address"
        },
        {
          "indexed": true,
          "name": "_newOwner",
          "type": "address"
        }
      ],
      "name": "ChangeTickerOwnership",
      "type": "event"
    },
    {
      "anonymous": false,
      "inputs": [
        {
          "indexed": false,
          "name": "_ticker",
          "type": "string"
        },
        {
          "indexed": false,
          "name": "_name",
          "type": "string"
        },
        {
          "indexed": true,
          "name": "_securityTokenAddress",
          "type": "address"
        },
        {
          "indexed": true,
          "name": "_owner",
          "type": "address"
        },
        {
          "indexed": false,
          "name": "_addedAt",
          "type": "uint256"
        },
        {
          "indexed": false,
          "name": "_registrant",
          "type": "address"
        },
        {
          "indexed": false,
          "name": "_fromAdmin",
          "type": "bool"
        },
        {
          "indexed": false,
          "name": "_registrationFee",
          "type": "uint256"
        }
      ],
      "name": "NewSecurityToken",
      "type": "event"
    },
    {
      "anonymous": false,
      "inputs": [
        {
          "indexed": true,
          "name": "_owner",
          "type": "address"
        },
        {
          "indexed": false,
          "name": "_ticker",
          "type": "string"
        },
        {
          "indexed": false,
          "name": "_name",
          "type": "string"
        },
        {
          "indexed": true,
          "name": "_registrationDate",
          "type": "uint256"
        },
        {
          "indexed": true,
          "name": "_expiryDate",
          "type": "uint256"
        },
        {
          "indexed": false,
          "name": "_fromAdmin",
          "type": "bool"
        },
        {
          "indexed": false,
          "name": "_registrationFee",
          "type": "uint256"
        }
      ],
      "name": "RegisterTicker",
      "type": "event"
    },
    {
      "constant": false,
      "inputs": [
        {
          "name": "_ticker",
          "type": "string"
        },
        {
          "name": "_newSecurityTokenAddress",
          "type": "address"
        }
      ],
      "name": "changeTheDeployedAddress",
      "outputs": [],
      "payable": false,
      "stateMutability": "nonpayable",
      "type": "function"
    }
  ],
  "bytecode": "0x608060405234801561001057600080fd5b50615cc780620000216000396000f3006080604052600436106101a85763ffffffff60e060020a6000350416630e8dcb0b81146101ad578063165e694a146102135780631d8acf1b1461023a578063208b080f1461026657806321c8ad0e1461027e57806326839e53146102ef578063321dff171461030757806333ce93fe146103405780633f4ba83a1461035557806340398d671461036a57806342c2e5511461038b57806363808bcb146103a35780636658076c1461046d57806369ba0fe9146104bd5780638456cb591461054a5780638905fd4f1461055f5780638da5cb5b146105805780638f9bbf16146105b157806392042aee14610690578063959346ae146106d4578063972b3ab5146106ec578063b187bd261461070c578063b3447ac914610721578063baed8bb114610739578063c37792b514610751578063c6cb7ab81461078e578063c75948f5146107a6578063d0f6fe42146107bb578063d2d10162146107e8578063d300a96814610816578063d3623f9814610837578063e1ecae9e1461086a578063e6ff950b1461087f578063ea470758146108a0578063f2fde38b146108b5578063fb621f14146108d6575b600080fd5b3480156101b957600080fd5b506040805160206004803580820135601f810184900484028501840190955284845261021194369492936024939284019190819084018382808284375094975050509235600160a060020a031693506108f692505050565b005b34801561021f57600080fd5b50610228610930565b60408051918252519081900360200190f35b34801561024657600080fd5b5061025260043561097e565b604080519115158252519081900360200190f35b34801561027257600080fd5b50610211600435610996565b34801561028a57600080fd5b5061029f600160a060020a0360043516610ad3565b60408051602080825283518183015283519192839290830191858101910280838360005b838110156102db5781810151838201526020016102c3565b505050509050019250505060405180910390f35b3480156102fb57600080fd5b50610228600435610c0b565b34801561031357600080fd5b5061021160048035600160a060020a03169060248035808201929081013591604435908101910135610c1d565b34801561034c57600080fd5b5061029f611265565b34801561036157600080fd5b5061021161129e565b34801561037657600080fd5b5061029f600160a060020a03600435166113bc565b34801561039757600080fd5b50610211600435611715565b3480156103af57600080fd5b506103c3600480356024810191013561180f565b6040518086600160a060020a0316600160a060020a031681526020018581526020018481526020018060200183151515158152602001828103825284818151815260200191508051906020019080838360005b8381101561042e578181015183820152602001610416565b50505050905090810190601f16801561045b5780820380516001836020036101000a031916815260200191505b50965050505050505060405180910390f35b34801561047957600080fd5b506102116024600480358281019290820135918135808301929082013591600160a060020a036044358116926064359091169160843591820191013560a43561199f565b3480156104c957600080fd5b506104d5600435611e2f565b6040805160208082528351818301528351919283929083019185019080838360005b8381101561050f5781810151838201526020016104f7565b50505050905090810190601f16801561053c5780820380516001836020036101000a031916815260200191505b509250505060405180910390f35b34801561055657600080fd5b50610211611ed2565b34801561056b57600080fd5b50610211600160a060020a0360043516611fdd565b34801561058c57600080fd5b5061059561217d565b60408051600160a060020a039092168252519081900360200190f35b3480156105bd57600080fd5b506105d2600160a060020a03600435166121c0565b604051808060200185600160a060020a0316600160a060020a0316815260200180602001848152602001838103835287818151815260200191508051906020019080838360005b83811015610631578181015183820152602001610619565b50505050905090810190601f16801561065e5780820380516001836020036101000a031916815260200191505b50838103825285518152855160209182019187019080838360008381101561042e578181015183820152602001610416565b34801561069c57600080fd5b5061021160048035600160a060020a0316906024803580820192908101359160443590810191013560643560843560a4351515612307565b3480156106e057600080fd5b50610211600435612569565b3480156106f857600080fd5b50610211600480356024810191013561265e565b34801561071857600080fd5b50610252612880565b34801561072d57600080fd5b506102286004356128b6565b34801561074557600080fd5b506105956004356128c8565b34801561075d57600080fd5b50610211602460048035828101929082013591813580830192908201359160443591820191013560643515156128e3565b34801561079a57600080fd5b506104d56004356135d9565b3480156107b257600080fd5b50610228613643565b3480156107c757600080fd5b5061021160048035600160a060020a03169060248035908101910135613686565b610211600160a060020a03600435811690602435811690604435906064359060843581169060a43516613d1d565b34801561082257600080fd5b50610252600160a060020a03600435166140be565b34801561084357600080fd5b50610211600160a060020a036004351660ff6024358116906044358116906064351661418b565b34801561087657600080fd5b506102286141f2565b34801561088b57600080fd5b50610211600160a060020a0360043516614235565b3480156108ac57600080fd5b506105956142d1565b3480156108c157600080fd5b50610211600160a060020a0360043516614343565b3480156108e257600080fd5b506105956004803560248101910135614441565b61092c610926604080519081016040528060158152602001600080516020615bfc833981519152815250846144b8565b826145cd565b5050565b60006109786109736040805190810160405280600b81526020017f6578706972794c696d6974000000000000000000000000000000000000000000815250614608565b610c0b565b90505b90565b60008181526004602052604090205460ff165b919050565b60006109a061217d565b600160a060020a031633146109ed576040805160e560020a62461bcd0281526020600482015260146024820152600080516020615b7c833981519152604482015290519081900360640190fd5b62015180821015610a48576040805160e560020a62461bcd02815260206004820152601660248201527f4578706972792073686f756c64203e3d20312064617900000000000000000000604482015290519081900360640190fd5b610a866040805190810160405280600b81526020017f6578706972794c696d6974000000000000000000000000000000000000000000815250614608565b90507f7e1cc0e69ee3b84fb62bbb71687d2565bbb8ad1771bb3e3cd15cbed424c833c8610ab282610c0b565b60408051918252602082018590528051918290030190a161092c81836146d2565b606060006060806000606060009450610b17610b126040805190810160405280600d8152602001600080516020615bdc833981519152815250896146e4565b6147a4565b93508351604051908082528060200260200182016040528015610b44578160200160208202803883390190505b509250600091505b8351821015610c0057610b758483815181101515610b6657fe5b90602001906020020151614806565b905042610ba86109736040805190810160405280601c8152602001600080516020615c1c833981519152815250846144b8565b101580610bb95750610bb981614964565b15610bf5578382815181101515610bcc57fe5b906020019060200201518386815181101515610be457fe5b602090810290910101526001909401935b600190910190610b4c565b509095945050505050565b60009081526020819052604090205490565b600060606000610c2b61217d565b600160a060020a031633600160a060020a03161415610f3a57600160a060020a0388161515610ca4576040805160e560020a62461bcd02815260206004820152601660248201527f4f776e65722073686f756c64206e6f7420626520307800000000000000000000604482015290519081900360640190fd5b600086118015610cb55750600a8611155b1515610cf9576040805160e560020a62461bcd02815260206004820152601a6024820152600080516020615c3c833981519152604482015290519081900360640190fd5b610d016141f2565b92506000831115610e1d57610d40610d3b604080519081016040528060098152602001600080516020615b9c833981519152815250614608565b6128c8565b6040805160e060020a6323b872dd028152336004820152306024820152604481018690529051600160a060020a0392909216916323b872dd916064808201926020929091908290030181600087803b158015610d9b57600080fd5b505af1158015610daf573d6000803e3d6000fd5b505050506040513d6020811015610dc557600080fd5b50511515610e1d576040805160e560020a62461bcd02815260206004820152601560248201527f496e737566666963656e7420616c6c6f77616e63650000000000000000000000604482015290519081900360640190fd5b610e5687878080601f0160208091040260200160405190810160405280939291908181526020018383808284375061499c945050505050565b9150610e6182614a96565b1515610eb7576040805160e560020a62461bcd02815260206004820152601260248201527f5469636b65722069732072657365727665640000000000000000000000000000604482015290519081900360640190fd5b610ec082614b11565b9050600160a060020a03811615610edb57610edb8183614b43565b610f35888387878080601f01602080910402602001604051908101604052809392919081815260200183838082843782019150505050505042610f2c610f1f610930565b429063ffffffff614c7716565b6000808a614c84565b61125b565b610f42612880565b15610f85576040805160e560020a62461bcd02815260206004820152600e6024820152600080516020615c5c833981519152604482015290519081900360640190fd5b600160a060020a0388161515610fe5576040805160e560020a62461bcd02815260206004820152601660248201527f4f776e65722073686f756c64206e6f7420626520307800000000000000000000604482015290519081900360640190fd5b600086118015610ff65750600a8611155b151561103a576040805160e560020a62461bcd02815260206004820152601a6024820152600080516020615c3c833981519152604482015290519081900360640190fd5b6110426141f2565b925060008311156111595761107c610d3b604080519081016040528060098152602001600080516020615b9c833981519152815250614608565b6040805160e060020a6323b872dd028152336004820152306024820152604481018690529051600160a060020a0392909216916323b872dd916064808201926020929091908290030181600087803b1580156110d757600080fd5b505af11580156110eb573d6000803e3d6000fd5b505050506040513d602081101561110157600080fd5b50511515611159576040805160e560020a62461bcd02815260206004820152601560248201527f496e737566666963656e7420616c6c6f77616e63650000000000000000000000604482015290519081900360640190fd5b61119287878080601f0160208091040260200160405190810160405280939291908181526020018383808284375061499c945050505050565b915061119d82614a96565b15156111f3576040805160e560020a62461bcd02815260206004820152601260248201527f5469636b65722069732072657365727665640000000000000000000000000000604482015290519081900360640190fd5b6111fc82614b11565b9050600160a060020a03811615611217576112178183614b43565b61125b888387878080601f01602080910402602001604051908101604052809392919081815260200183838082843782019150505050505042610f2c610f1f610930565b5050505050505050565b60606109786112996109736040805190810160405280600d8152602001600080516020615afc833981519152815250614608565b614dc6565b6112a6612880565b15156112fc576040805160e560020a62461bcd02815260206004820152601460248201527f53686f756c64206e6f7420626520706175736564000000000000000000000000604482015290519081900360640190fd5b61130461217d565b600160a060020a03163314611351576040805160e560020a62461bcd0281526020600482015260146024820152600080516020615b7c833981519152604482015290519081900360640190fd5b611387611380604080519081016040528060068152602001600080516020615b1c833981519152815250614608565b6000614e6b565b6040805142815290517faaa520fdd7d2c83061d632fa017b0432407e798818af63ea908589fceda39ab79181900360200190a1565b60608060606000806000806000606061141161140c6040805190810160405280600b81526020017f6163746976655573657273000000000000000000000000000000000000000000815250614608565b614e8b565b9750600094508493508392505b875184101561156f5761146e610b126040805190810160405280600d8152602001600080516020615bdc8339815191528152508a8781518110151561145f57fe5b906020019060200201516146e4565b9650600092505b8651831015611564576114be610d3b604080519081016040528060158152602001600080516020615bfc8339815191528152506114b98a87815181101515610b6657fe5b6144b8565b9550600160a060020a038616156115595789600160a060020a031686600160a060020a0316638da5cb5b6040518163ffffffff1660e060020a028152600401602060405180830381600087803b15801561151757600080fd5b505af115801561152b573d6000803e3d6000fd5b505050506040513d602081101561154157600080fd5b5051600160a060020a03161415611559578460010194505b600190920191611475565b60019093019261141e565b600091508460405190808252806020026020018201604052801561159d578160200160208202803883390190505b509050600093505b8751841015611708576115e6610b126040805190810160405280600d8152602001600080516020615bdc8339815191528152508a8781518110151561145f57fe5b9650600092505b86518310156116fd57611631610d3b604080519081016040528060158152602001600080516020615bfc8339815191528152506114b98a87815181101515610b6657fe5b9550600160a060020a038616156116f25789600160a060020a031686600160a060020a0316638da5cb5b6040518163ffffffff1660e060020a028152600401602060405180830381600087803b15801561168a57600080fd5b505af115801561169e573d6000803e3d6000fd5b505050506040513d60208110156116b457600080fd5b5051600160a060020a031614156116f2578581838151811015156116d457fe5b600160a060020a039092166020928302909101909101526001909101905b6001909201916115ed565b6001909301926115a5565b9998505050505050505050565b60008061172061217d565b600160a060020a0316331461176d576040805160e560020a62461bcd0281526020600482015260146024820152600080516020615b7c833981519152604482015290519081900360640190fd5b6117ab6040805190810160405280600b81526020017f73744c61756e6368466565000000000000000000000000000000000000000000815250614608565b91506117b682610c0b565b9050828114156117c557600080fd5b604080518281526020810185905281517f082ce758ae1784abd031015a0eac6700b941db0797e890ae7c4d326a5f8255c0929181900390910190a161180a82846146d2565b505050565b60008060006060600060606000806118568a8a8080601f0160208091040260200160405190810160405280939291908181526020018383808284375061499c945050505050565b925061186183614964565b91506118936109736040805190810160405280601c8152602001600080516020615c1c833981519152815250856144b8565b9050600182151514806118a557504281115b15611974576118b383614b11565b61191c610973606060405190810160405280602281526020017f726567697374657265645469636b6572735f726567697374726174696f6e446181526020017f7465000000000000000000000000000000000000000000000000000000000000815250866144b8565b8261196461195f6040805190810160405280601b81526020017f726567697374657265645469636b6572735f746f6b656e4e616d650000000000815250886144b8565b611e2f565b8597509750975097509750611992565b60408051602081019091526000808252985088975087965094508593505b5050509295509295909350565b60606000806119ac61217d565b600160a060020a031633146119f9576040805160e560020a62461bcd0281526020600482015260146024820152600080516020615b7c833981519152604482015290519081900360640190fd5b60008b118015611a095750600089115b1515611a5f576040805160e560020a62461bcd02815260206004820152601160248201527f537472696e67206c656e677468203e2030000000000000000000000000000000604482015290519081900360640190fd5b600a891115611aa6576040805160e560020a62461bcd02815260206004820152601a6024820152600080516020615c3c833981519152604482015290519081900360640190fd5b8315801590611abd5750600160a060020a03881615155b1515611b13576040805160e560020a62461bcd02815260206004820152601a60248201527f302076616c756520706172616d73206e6f7420616c6c6f776564000000000000604482015290519081900360640190fd5b611b4c8a8a8080601f0160208091040260200160405190810160405280939291908181526020018383808284375061499c945050505050565b9250600160a060020a0387161515611bae576040805160e560020a62461bcd02815260206004820152601060248201527f5354206164647265737320697320307800000000000000000000000000000000604482015290519081900360640190fd5b611c17610973606060405190810160405280602281526020017f726567697374657265645469636b6572735f726567697374726174696f6e446181526020017f7465000000000000000000000000000000000000000000000000000000000000815250856144b8565b9150611c496109736040805190810160405280601c8152602001600080516020615c1c833981519152815250856144b8565b9050811515611c7057429150611c6d611c60610930565b839063ffffffff614c7716565b90505b611ca6611ca0604080519081016040528060158152602001600080516020615bfc833981519152815250856144b8565b886145cd565b611ce788848e8e8080601f01602080910402602001604051908101604052809392919081815260200183838082843782019150505050505085856001614ef6565b611d24878488888080601f016020809104026020016040519081016040528093929190818152602001838380828437508c945061501f9350505050565b87600160a060020a031687600160a060020a03167f63d9fb58b25a396dc2ebc591bec9115d1eb9c722dd6cdfcc9be4144d39dc2c26858f8f89336001611d68613643565b60408051908101859052600160a060020a0384166060820152821515608082015260a0810182905260c08082528851908201528751819060208083019160e08401918c019080838360005b83811015611dcb578181015183820152602001611db3565b50505050905090810190601f168015611df85780820380516001836020036101000a031916815260200191505b50838103825288815260200189898082843760405192018290039b50909950505050505050505050a3505050505050505050505050565b60008181526001602081815260409283902080548451600260001995831615610100029590950190911693909304601f81018390048302840183019094528383526060939091830182828015611ec65780601f10611e9b57610100808354040283529160200191611ec6565b820191906000526020600020905b815481529060010190602001808311611ea957829003601f168201915b50505050509050919050565b611eda612880565b15611f1d576040805160e560020a62461bcd02815260206004820152600e6024820152600080516020615c5c833981519152604482015290519081900360640190fd5b611f2561217d565b600160a060020a03163314611f72576040805160e560020a62461bcd0281526020600482015260146024820152600080516020615b7c833981519152604482015290519081900360640190fd5b611fa8611fa1604080519081016040528060068152602001600080516020615b1c833981519152815250614608565b6001614e6b565b6040805142815290517f68b095021b1f40fe513109f513c66692f0b3219aee674a69f4efc57badb8201d9181900360200190a1565b600080611fe861217d565b600160a060020a03163314612035576040805160e560020a62461bcd0281526020600482015260146024820152600080516020615b7c833981519152604482015290519081900360640190fd5b600160a060020a038316151561204a57600080fd5b604080517f70a082310000000000000000000000000000000000000000000000000000000081523060048201529051849350600160a060020a038416916370a082319160248083019260209291908290030181600087803b1580156120ae57600080fd5b505af11580156120c2573d6000803e3d6000fd5b505050506040513d60208110156120d857600080fd5b50519050600160a060020a03821663a9059cbb6120f361217d565b836040518363ffffffff1660e060020a0281526004018083600160a060020a0316600160a060020a0316815260200182815260200192505050602060405180830381600087803b15801561214657600080fd5b505af115801561215a573d6000803e3d6000fd5b505050506040513d602081101561217057600080fd5b5051151561180a57600080fd5b6000610978610d3b6040805190810160405280600581526020017f6f776e6572000000000000000000000000000000000000000000000000000000815250614608565b606060006060600061220a61195f6040805190810160405280601581526020017f7365637572697479546f6b656e735f7469636b65720000000000000000000000815250876146e4565b85600160a060020a0316638da5cb5b6040518163ffffffff1660e060020a028152600401602060405180830381600087803b15801561224857600080fd5b505af115801561225c573d6000803e3d6000fd5b505050506040513d602081101561227257600080fd5b505160408051808201909152601b81527f7365637572697479546f6b656e735f746f6b656e44657461696c73000000000060208201526122b69061195f90896146e4565b6122f86109736040805190810160405280601981526020017f7365637572697479546f6b656e735f6465706c6f7965644174000000000000008152508a6146e4565b93509350935093509193509193565b606061231161217d565b600160a060020a0316331461235e576040805160e560020a62461bcd0281526020600482015260146024820152600080516020615b7c833981519152604482015290519081900360640190fd5b60008711801561236f5750600a8711155b15156123b3576040805160e560020a62461bcd02815260206004820152601a6024820152600080516020615c3c833981519152604482015290519081900360640190fd5b82158015906123c157508315155b1515612417576040805160e560020a62461bcd02815260206004820152601560248201527f44617465732073686f756c64206e6f7420626520300000000000000000000000604482015290519081900360640190fd5b82841115612495576040805160e560020a62461bcd02815260206004820152602660248201527f526567697374726174696f6e20646174652073686f756c64203c20657870697260448201527f7920646174650000000000000000000000000000000000000000000000000000606482015290519081900360840190fd5b600160a060020a03891615156124e3576040805160e560020a62461bcd02815260206004820152600f6024820152600080516020615b3c833981519152604482015290519081900360640190fd5b61251c88888080601f0160208091040260200160405190810160405280939291908181526020018383808284375061499c945050505050565b905061255e898288888080601f016020809104026020016040519081016040528093929190818152602001838380828437820191505050505050878787614ef6565b505050505050505050565b60008061257461217d565b600160a060020a031633146125c1576040805160e560020a62461bcd0281526020600482015260146024820152600080516020615b7c833981519152604482015290519081900360640190fd5b6125ff6040805190810160405280600c81526020017f7469636b65725265674665650000000000000000000000000000000000000000815250614608565b915061260a82610c0b565b90508281141561261957600080fd5b604080518281526020810185905281517f788dceb058391de5648d0deb9187656f8c46d3ee285c1077579adf642793f1f6929181900390910190a161180a82846146d2565b6060600061266a61217d565b600160a060020a031633146126b7576040805160e560020a62461bcd0281526020600482015260146024820152600080516020615b7c833981519152604482015290519081900360640190fd5b6126f084848080601f0160208091040260200160405190810160405280939291908181526020018383808284375061499c945050505050565b91506126fb82614b11565b9050600160a060020a038116151561275d576040805160e560020a62461bcd02815260206004820152601460248201527f5469636b657220646f65736e2774206578697374000000000000000000000000604482015290519081900360640190fd5b6127678183614b43565b61279e612797604080519081016040528060158152602001600080516020615bfc833981519152815250846144b8565b60006145cd565b6127bf826000806000602060405190810160405280600081525060006150f7565b7f5854c55b609f5180d42245ffca3efcee6c5db8e73ea96e693d8667e0bcb4d470824233604051808060200184815260200183600160a060020a0316600160a060020a03168152602001828103825285818151815260200191508051906020019080838360005b8381101561283e578181015183820152602001612826565b50505050905090810190601f16801561286b5780820380516001836020036101000a031916815260200191505b5094505050505060405180910390a150505050565b60006109786128b1604080519081016040528060068152602001600080516020615b1c833981519152815250614608565b61097e565b60009081526006602052604090205490565b600090815260026020526040902054600160a060020a031690565b606060008060006128f261217d565b600160a060020a031633600160a060020a03161415612f485760008a11801561291b5750600088115b1515612971576040805160e560020a62461bcd02815260206004820152601160248201527f5469636b6572206c656e677468203e2030000000000000000000000000000000604482015290519081900360640190fd5b6129aa89898080601f0160208091040260200160405190810160405280939291908181526020018383808284375061499c945050505050565b93506129d9604080519081016040528060188152602001600080516020615bbc833981519152815250856144b8565b92506129e48361097e565b15612a39576040805160e560020a62461bcd02815260206004820152601060248201527f416c7265616479206465706c6f79656400000000000000000000000000000000604482015290519081900360640190fd5b612a44836001614e6b565b33612a4e85614b11565b600160a060020a031614612a9a576040805160e560020a62461bcd02815260206004820152600e6024820152600080516020615c7c833981519152604482015290519081900360640190fd5b42612acb6109736040805190810160405280601c8152602001600080516020615c1c833981519152815250876144b8565b1015612b21576040805160e560020a62461bcd02815260206004820152601360248201527f5469636b65722067657473206578706972656400000000000000000000000000604482015290519081900360640190fd5b612b29613643565b91506000821115612c4057612b63610d3b604080519081016040528060098152602001600080516020615b9c833981519152815250614608565b6040805160e060020a6323b872dd028152336004820152306024820152604481018590529051600160a060020a0392909216916323b872dd916064808201926020929091908290030181600087803b158015612bbe57600080fd5b505af1158015612bd2573d6000803e3d6000fd5b505050506040513d6020811015612be857600080fd5b50511515612c40576040805160e560020a62461bcd02815260206004820152601660248201527f496e73756666696369656e7420616c6c6f77616e636500000000000000000000604482015290519081900360640190fd5b612c486142d1565b600160a060020a031663c85fd4f88c8c8760128c8c338d612ca0610d3b6040805190810160405280601081526020017f706f6c796d617468526567697374727900000000000000000000000000000000815250614608565b60405160e060020a63ffffffff8c1602815260ff87166044820152600160a060020a03808516608483015283151560a4830152821660c482015260e06004820190815260e482018a905290819060248101906064810190610104018d8d8082843790910185810384528c5181528c5160209182019250908d019080838360005b83811015612d38578181015183820152602001612d20565b50505050905090810190601f168015612d655780820380516001836020036101000a031916815260200191505b50848103825288815260200189898082843782019150509c50505050505050505050505050602060405180830381600087803b158015612da457600080fd5b505af1158015612db8573d6000803e3d6000fd5b505050506040513d6020811015612dce57600080fd5b5051604080516020601f8a01819004810282018101909252888152919250612e119183918791908b908b90819084018382808284375042945061501f9350505050565b612e41610926604080519081016040528060158152602001600080516020615bfc833981519152815250866144b8565b33600160a060020a031681600160a060020a03167f63d9fb58b25a396dc2ebc591bec9115d1eb9c722dd6cdfcc9be4144d39dc2c26868e8e423360008a60405180806020018060200187815260200186600160a060020a0316600160a060020a031681526020018515151515815260200184815260200183810383528a818151815260200191508051906020019080838360005b83811015612eed578181015183820152602001612ed5565b50505050905090810190601f168015612f1a5780820380516001836020036101000a031916815260200191505b50838103825288815260200189898082843760405192018290039b50909950505050505050505050a36135cc565b612f50612880565b15612f93576040805160e560020a62461bcd02815260206004820152600e6024820152600080516020615c5c833981519152604482015290519081900360640190fd5b60008a118015612fa35750600088115b1515612ff9576040805160e560020a62461bcd02815260206004820152601160248201527f5469636b6572206c656e677468203e2030000000000000000000000000000000604482015290519081900360640190fd5b61303289898080601f0160208091040260200160405190810160405280939291908181526020018383808284375061499c945050505050565b9350613061604080519081016040528060188152602001600080516020615bbc833981519152815250856144b8565b925061306c8361097e565b156130c1576040805160e560020a62461bcd02815260206004820152601060248201527f416c7265616479206465706c6f79656400000000000000000000000000000000604482015290519081900360640190fd5b6130cc836001614e6b565b336130d685614b11565b600160a060020a031614613122576040805160e560020a62461bcd02815260206004820152600e6024820152600080516020615c7c833981519152604482015290519081900360640190fd5b426131536109736040805190810160405280601c8152602001600080516020615c1c833981519152815250876144b8565b10156131a9576040805160e560020a62461bcd02815260206004820152601360248201527f5469636b65722067657473206578706972656400000000000000000000000000604482015290519081900360640190fd5b6131b1613643565b915060008211156132c8576131eb610d3b604080519081016040528060098152602001600080516020615b9c833981519152815250614608565b6040805160e060020a6323b872dd028152336004820152306024820152604481018590529051600160a060020a0392909216916323b872dd916064808201926020929091908290030181600087803b15801561324657600080fd5b505af115801561325a573d6000803e3d6000fd5b505050506040513d602081101561327057600080fd5b505115156132c8576040805160e560020a62461bcd02815260206004820152601660248201527f496e73756666696369656e7420616c6c6f77616e636500000000000000000000604482015290519081900360640190fd5b6132d06142d1565b600160a060020a031663c85fd4f88c8c8760128c8c338d613328610d3b6040805190810160405280601081526020017f706f6c796d617468526567697374727900000000000000000000000000000000815250614608565b60405160e060020a63ffffffff8c1602815260ff87166044820152600160a060020a03808516608483015283151560a4830152821660c482015260e06004820190815260e482018a905290819060248101906064810190610104018d8d8082843790910185810384528c5181528c5160209182019250908d019080838360005b838110156133c05781810151838201526020016133a8565b50505050905090810190601f1680156133ed5780820380516001836020036101000a031916815260200191505b50848103825288815260200189898082843782019150509c50505050505050505050505050602060405180830381600087803b15801561342c57600080fd5b505af1158015613440573d6000803e3d6000fd5b505050506040513d602081101561345657600080fd5b5051604080516020601f8a018190048102820181019092528881529192506134999183918791908b908b90819084018382808284375042945061501f9350505050565b6134c9610926604080519081016040528060158152602001600080516020615bfc833981519152815250866144b8565b33600160a060020a031681600160a060020a03167f63d9fb58b25a396dc2ebc591bec9115d1eb9c722dd6cdfcc9be4144d39dc2c26868e8e423360008a60405180806020018060200187815260200186600160a060020a0316600160a060020a031681526020018515151515815260200184815260200183810383528a818151815260200191508051906020019080838360005b8381101561357557818101518382015260200161355d565b50505050905090810190601f1680156135a25780820380516001836020036101000a031916815260200191505b50838103825288815260200189898082843760405192018290039b50909950505050505050505050a35b5050505050505050505050565b60008181526003602090815260409182902080548351601f6002610100600185161502600019019093169290920491820184900484028101840190945280845260609392830182828015611ec65780601f10611e9b57610100808354040283529160200191611ec6565b60006109786109736040805190810160405280600b81526020017f73744c61756e6368466565000000000000000000000000000000000000000000815250614608565b6060600061369261217d565b600160a060020a031633600160a060020a031614156139bd576136e484848080601f0160208091040260200160405190810160405280939291908181526020018383808284375061499c945050505050565b9150600160a060020a0385161515613734576040805160e560020a62461bcd02815260206004820152600f6024820152600080516020615b3c833981519152604482015290519081900360640190fd5b613761604080519081016040528060178152602001600080516020615b5c833981519152815250836144b8565b90503361376d826128c8565b600160a060020a0316146137b9576040805160e560020a62461bcd02815260206004820152600e6024820152600080516020615c7c833981519152604482015290519081900360640190fd5b6137c282614964565b156138ed5784600160a060020a0316613801610d3b604080519081016040528060158152602001600080516020615bfc833981519152815250856144b8565b600160a060020a0316638da5cb5b6040518163ffffffff1660e060020a028152600401602060405180830381600087803b15801561383e57600080fd5b505af1158015613852573d6000803e3d6000fd5b505050506040513d602081101561386857600080fd5b5051600160a060020a0316146138ed576040805160e560020a62461bcd028152602060048201526024808201527f4e6577206f776e657220646f6573206e6f74206d6174636820746f6b656e206f60448201527f776e657200000000000000000000000000000000000000000000000000000000606482015290519081900360840190fd5b6138f73383614b43565b61390185836152d2565b61390b81866145cd565b84600160a060020a031633600160a060020a03167f44ee9de70a04c2a46889521de8968f79b4ae423f078fbaec8c492d821154729c846040518080602001828103825283818151815260200191508051906020019080838360005b8381101561397e578181015183820152602001613966565b50505050905090810190601f1680156139ab5780820380516001836020036101000a031916815260200191505b509250505060405180910390a3613d16565b6139c5612880565b15613a08576040805160e560020a62461bcd02815260206004820152600e6024820152600080516020615c5c833981519152604482015290519081900360640190fd5b613a4184848080601f0160208091040260200160405190810160405280939291908181526020018383808284375061499c945050505050565b9150600160a060020a0385161515613a91576040805160e560020a62461bcd02815260206004820152600f6024820152600080516020615b3c833981519152604482015290519081900360640190fd5b613abe604080519081016040528060178152602001600080516020615b5c833981519152815250836144b8565b905033613aca826128c8565b600160a060020a031614613b16576040805160e560020a62461bcd02815260206004820152600e6024820152600080516020615c7c833981519152604482015290519081900360640190fd5b613b1f82614964565b15613c4a5784600160a060020a0316613b5e610d3b604080519081016040528060158152602001600080516020615bfc833981519152815250856144b8565b600160a060020a0316638da5cb5b6040518163ffffffff1660e060020a028152600401602060405180830381600087803b158015613b9b57600080fd5b505af1158015613baf573d6000803e3d6000fd5b505050506040513d6020811015613bc557600080fd5b5051600160a060020a031614613c4a576040805160e560020a62461bcd028152602060048201526024808201527f4e6577206f776e657220646f6573206e6f74206d6174636820746f6b656e206f60448201527f776e657200000000000000000000000000000000000000000000000000000000606482015290519081900360840190fd5b613c543383614b43565b613c5e85836152d2565b613c6881866145cd565b84600160a060020a031633600160a060020a03167f44ee9de70a04c2a46889521de8968f79b4ae423f078fbaec8c492d821154729c846040518080602001828103825283818151815260200191508051906020019080838360005b83811015613cdb578181015183820152602001613cc3565b50505050905090810190601f168015613d085780820380516001836020036101000a031916815260200191505b509250505060405180910390a35b5050505050565b613d5e6128b16040805190810160405280600b81526020017f696e697469616c69736564000000000000000000000000000000000000000000815250614608565b15613db3576040805160e560020a62461bcd02815260206004820152601360248201527f616c726561647920696e697469616c697a656400000000000000000000000000604482015290519081900360640190fd5b600160a060020a03851615801590613dd35750600160a060020a03821615155b8015613de75750600160a060020a03811615155b8015613dfb5750600160a060020a03861615155b1515613e3f576040805160e560020a62461bcd02815260206004820152600f6024820152600080516020615b3c833981519152604482015290519081900360640190fd5b8315801590613e4d57508215155b1515613ea3576040805160e560020a62461bcd02815260206004820152601460248201527f466565732073686f756c64206e6f742062652030000000000000000000000000604482015290519081900360640190fd5b613ed8613ed2604080519081016040528060098152602001600080516020615b9c833981519152815250614608565b836145cd565b613f1f613f196040805190810160405280600b81526020017f73744c61756e6368466565000000000000000000000000000000000000000000815250614608565b856146d2565b613f66613f606040805190810160405280600c81526020017f7469636b65725265674665650000000000000000000000000000000000000000815250614608565b846146d2565b613fb0613fa76040805190810160405280600b81526020017f6578706972794c696d6974000000000000000000000000000000000000000000815250614608565b624f1a006146d2565b613fdf611380604080519081016040528060068152602001600080516020615b1c833981519152815250614608565b6140206109266040805190810160405280600581526020017f6f776e6572000000000000000000000000000000000000000000000000000000815250614608565b6140676140616040805190810160405280601081526020017f706f6c796d617468526567697374727900000000000000000000000000000000815250614608565b876145cd565b61407585600080600261540e565b6140b6611fa16040805190810160405280600b81526020017f696e697469616c69736564000000000000000000000000000000000000000000815250614608565b505050505050565b60408051808201909152601581527f7365637572697479546f6b656e735f7469636b6572000000000000000000000060208201526000907fc5d2460186f7233c927e7db2dcc703c0e500b653ca82273b7bfad8045d85a470906141259061195f90856146e4565b6040518082805190602001908083835b602083106141545780518252601f199092019160209182019101614135565b5181516020939093036101000a60001901801990911692169190911790526040519201829003909120939093141595945050505050565b61419361217d565b600160a060020a031633146141e0576040805160e560020a62461bcd0281526020600482015260146024820152600080516020615b7c833981519152604482015290519081900360640190fd5b6141ec8484848461540e565b50505050565b60006109786109736040805190810160405280600c81526020017f7469636b65725265674665650000000000000000000000000000000000000000815250614608565b61423d61217d565b600160a060020a0316331461428a576040805160e560020a62461bcd0281526020600482015260146024820152600080516020615b7c833981519152604482015290519081900360640190fd5b600160a060020a038116151561429f57600080fd5b6142ce610926604080519081016040528060098152602001600080516020615b9c833981519152815250614608565b50565b6000610978610d3b6040805190810160405280601181526020017f70726f746f636f6c56657273696f6e535400000000000000000000000000000081525061433e6109736040805190810160405280600d8152602001600080516020615afc833981519152815250614608565b6155b2565b600061434d61217d565b600160a060020a0316331461439a576040805160e560020a62461bcd0281526020600482015260146024820152600080516020615b7c833981519152604482015290519081900360640190fd5b600160a060020a03821615156143af57600080fd5b6143ed6040805190810160405280600581526020017f6f776e6572000000000000000000000000000000000000000000000000000000815250614608565b905081600160a060020a0316614402826128c8565b600160a060020a03167f8be0079c531659141344cd1fd0a4f28419497f9722a3daafe3b4186f6b6457e060405160405180910390a361092c81836145cd565b6000606061447e84848080601f0160208091040260200160405190810160405280939291908181526020018383808284375061499c945050505050565b90506144b0610d3b604080519081016040528060158152602001600080516020615bfc833981519152815250836144b8565b949350505050565b600082826040516020018083805190602001908083835b602083106144ee5780518252601f1990920191602091820191016144cf565b51815160209384036101000a600019018019909216911617905285519190930192850191508083835b602083106145365780518252601f199092019160209182019101614517565b6001836020036101000a038019825116818451168082178552505050505050905001925050506040516020818303038152906040526040518082805190602001908083835b6020831061459a5780518252601f19909201916020918201910161457b565b5181516020939093036101000a600019018019909116921691909117905260405192018290039091209695505050505050565b600091825260026020526040909120805473ffffffffffffffffffffffffffffffffffffffff1916600160a060020a03909216919091179055565b6000816040516020018082805190602001908083835b6020831061463d5780518252601f19909201916020918201910161461e565b6001836020036101000a0380198251168184511680821785525050505050509050019150506040516020818303038152906040526040518082805190602001908083835b602083106146a05780518252601f199092019160209182019101614681565b5181516020939093036101000a6000190180199091169216919091179052604051920182900390912095945050505050565b60009182526020829052604090912055565b600082826040516020018083805190602001908083835b6020831061471a5780518252601f1990920191602091820191016146fb565b6001836020036101000a03801982511681845116808217855250505050505090500182600160a060020a0316600160a060020a03166c01000000000000000000000000028152601401925050506040516020818303038152906040526040518082805190602001908083836020831061459a5780518252601f19909201916020918201910161457b565b600081815260076020908152604091829020805483518184028101840190945280845260609392830182828015611ec657602002820191906000526020600020905b815481526001909101906020018083116147e65750505050509050919050565b6040805160208082528183019092526060918291600091829182918591908082016104008038833901905050945060009350600092505b60208310156148b2576008830260020a87029150600160f860020a03198216156148a75781858581518110151561487057fe5b9060200101907effffffffffffffffffffffffffffffffffffffffffffffffffffffffffffff1916908160001a9053506001909301925b60019092019161483d565b836040519080825280601f01601f1916602001820160405280156148e0578160200160208202803883390190505b509050600092505b8383101561495a5784838151811015156148fe57fe5b90602001015160f860020a900460f860020a02818481518110151561491f57fe5b9060200101907effffffffffffffffffffffffffffffffffffffffffffffffffffffffffffff1916908160001a9053506001909201916148e8565b9695505050505050565b60006149966128b1604080519081016040528060188152602001600080516020615bbc833981519152815250846144b8565b92915050565b6060816000805b8251821015614a8d5782828151811015156149ba57fe5b016020015160f860020a908190040290507f6100000000000000000000000000000000000000000000000000000000000000600160f860020a0319821610801590614a2f57507f7a00000000000000000000000000000000000000000000000000000000000000600160f860020a0319821611155b15614a4357601f1960f860020a9182900401025b808383815181101515614a5257fe5b9060200101907effffffffffffffffffffffffffffffffffffffffffffffffffffffffffffff1916908160001a9053506001909101906149a3565b50909392505050565b600080614aa283614b11565b600160a060020a031614614b0957614ae06109736040805190810160405280601c8152602001600080516020615c1c833981519152815250846144b8565b42118015614af45750614af282614964565b155b15614b0157506001610991565b506000610991565b506001919050565b6000614996610d3b604080519081016040528060178152602001600080516020615b5c833981519152815250846144b8565b60008060606000614b8c6109736040805190810160405280600b81526020017f7469636b6572496e646578000000000000000000000000000000000000000000815250876144b8565b9350614bbb6040805190810160405280600d8152602001600080516020615bdc833981519152815250876146e4565b9250614bc6836147a4565b80519092508410614bd357fe5b85600160a060020a0316614be686614b11565b600160a060020a031614614bf657fe5b614c008385615649565b83614c0a846147a4565b5111156140b657614c1a836147a4565b805185908110614c2657fe5b9060200190602002015190506140b6613f196040805190810160405280600b81526020017f7469636b6572496e6465780000000000000000000000000000000000000000008152506114b984614806565b8181018281101561499657fe5b614c8e88886152d2565b614c9c878987878a886150f7565b838589600160a060020a03167f2de60ed106ca2007f575a4a2ff327cdde9bf801386463689ccb784d8bd4685628a8a878760405180806020018060200185151515158152602001848152602001838103835287818151815260200191508051906020019080838360005b83811015614d1e578181015183820152602001614d06565b50505050905090810190601f168015614d4b5780820380516001836020036101000a031916815260200191505b50838103825286518152865160209182019188019080838360005b83811015614d7e578181015183820152602001614d66565b50505050905090810190601f168015614dab5780820380516001836020036101000a031916815260200191505b50965050505050505060405180910390a45050505050505050565b6040805160038082526080820190925260609182919060208201838038833950508151919250506201000062ffffff8516049082906000908110614e0657fe5b60ff909216602092830290910190910152805161010062ffffff8516049082906001908110614e3157fe5b60ff9092166020928302909101909101528051839082906002908110614e5357fe5b60ff9092166020928302909101909101529050919050565b600091825260046020526040909120805460ff1916911515919091179055565b600081815260096020908152604091829020805483518184028101840190945280845260609392830182828015611ec657602002820191906000526020600020905b8154600160a060020a03168152600190910190602001808311614ecd5750505050509050919050565b6000614f0186614b11565b9050600160a060020a03811615614f1c57614f1c8187614b43565b614f2586614964565b8015614f2f575081155b15614f6457614f64612797604080519081016040528060158152602001600080516020615bfc833981519152815250886144b8565b8115615004576000600160a060020a0316614fa5610d3b604080519081016040528060158152602001600080516020615bfc833981519152815250896144b8565b600160a060020a03161415615004576040805160e560020a62461bcd02815260206004820152601460248201527f546f6b656e206e6f742072656769737465726564000000000000000000000000604482015290519081900360640190fd5b61501687878787878760016000614c84565b50505050505050565b6150676150616040805190810160405280601581526020017f7365637572697479546f6b656e735f7469636b65720000000000000000000000815250866146e4565b8461571c565b6150af6150a96040805190810160405280601b81526020017f7365637572697479546f6b656e735f746f6b656e44657461696c730000000000815250866146e4565b8361571c565b6141ec6150f16040805190810160405280601981526020017f7365637572697479546f6b656e735f6465706c6f796564417400000000000000815250866146e4565b826146d2565b6000615126604080519081016040528060178152602001600080516020615b5c833981519152815250886144b8565b905085600160a060020a031661513b826128c8565b600160a060020a0316146151535761515381876145cd565b6151b9606060405190810160405280602281526020017f726567697374657265645469636b6572735f726567697374726174696f6e446181526020017f7465000000000000000000000000000000000000000000000000000000000000815250886144b8565b9050846151c582610c0b565b146151d4576151d481866146d2565b6152016040805190810160405280601c8152602001600080516020615c1c833981519152815250886144b8565b90508361520d82610c0b565b1461521c5761521c81856146d2565b61525b6040805190810160405280601b81526020017f726567697374657265645469636b6572735f746f6b656e4e616d650000000000815250886144b8565b905061526683614608565b61527761527283611e2f565b614608565b1461528657615286818461571c565b6152b3604080519081016040528060188152602001600080516020615bbc833981519152815250886144b8565b90508115156152c18261097e565b151514615016576150168183614e6b565b60008060006153046040805190810160405280600d8152602001600080516020615bdc833981519152815250866146e4565b925061530f836147a4565b5191506153248361531f8661573b565b615748565b61536c6153666040805190810160405280600b81526020017f7469636b6572496e646578000000000000000000000000000000000000000000815250866144b8565b836146d2565b6153ab6040805190810160405280600981526020017f7365656e55736572730000000000000000000000000000000000000000000000815250866146e4565b90506153b68161097e565b1515613d16576154036153fd6040805190810160405280600b81526020017f6163746976655573657273000000000000000000000000000000000000000000815250614608565b8661576b565b613d16816001614e6b565b60408051600380825260808201909252606091600091906020820184803883390190505091508482600081518110151561544457fe5b60ff909216602092830290910190910152815184908390600190811061546657fe5b60ff909216602092830290910190910152815183908390600290811061548857fe5b60ff9092166020928302909101909101526154a48585856157b7565b90506154b76154b1611265565b836157d2565b151561550d576040805160e560020a62461bcd02815260206004820152601060248201527f496e2d76616c69642076657273696f6e00000000000000000000000000000000604482015290519081900360640190fd5b61554761553c6040805190810160405280600d8152602001600080516020615afc833981519152815250614608565b8262ffffff166146d2565b6140b66140616040805190810160405280601181526020017f70726f746f636f6c56657273696f6e535400000000000000000000000000000081525061433e6109736040805190810160405280600d8152602001600080516020615afc833981519152815250614608565b600082826040516020018083805190602001908083835b602083106155e85780518252601f1990920191602091820191016155c9565b51815160001960209485036101000a0190811690199190911617905292019384525060408051808503815293820190819052835193945092839250908401908083836020831061459a5780518252601f19909201916020918201910161457b565b6000828152600760205260409020805482106156d5576040805160e560020a62461bcd02815260206004820152602a60248201527f496e6465782073686f756c64206c657373207468616e206c656e677468206f6660448201527f2074686520617272617900000000000000000000000000000000000000000000606482015290519081900360840190fd5b8054819060001981019081106156e757fe5b9060005260206000200154818381548110151561570057fe5b6000918252602090912001558054600019016141ec8282615a3f565b6000828152600160209081526040909120825161180a92840190615a63565b60006149968260006159e5565b600091825260076020908152604083208054600181018255908452922090910155565b6000918252600960209081526040832080546001810182559084529220909101805473ffffffffffffffffffffffffffffffffffffffff1916600160a060020a03909216919091179055565b60ff9081169181166101000292166201000002919091171790565b600060606000808551604051908082528060200260200182016040528015615804578160200160208202803883390190505b50925060009150600090505b85518160ff1610156158b057848160ff1681518110151561582d57fe5b9060200190602002015160ff16868260ff1681518110151561584b57fe5b9060200190602002015160ff161015615885576001838260ff1681518110151561587157fe5b9115156020928302909101909101526158a8565b6000838260ff1681518110151561589857fe5b9115156020928302909101909101525b600101615810565b5060005b85518160ff1610156159cb5760ff8116151561594d57848160ff168151811015156158db57fe5b9060200190602002015160ff16868260ff168151811015156158f957fe5b6020908102909101015160ff161161593f5782600081518110151561591a57fe5b9060200190602002015115615934578160030191506159cb565b600190910190615948565b600093506159dc565b6159c3565b826001820360ff1681518110151561596157fe5b906020019060200201511561597b576001909101906159c3565b848160ff1681518110151561598c57fe5b9060200190602002015160ff16868260ff168151811015156159aa57fe5b6020908102909101015160ff161161593f576001909101905b6001016158b4565b85518260ff1614156159dc57600193505b50505092915050565b600080805b8451811015615a37578060080285828601815181101515615a0757fe5b60209101015160029190910a60f860020a91829004909102600160f860020a0319160491909117906001016159ea565b509392505050565b81548183558181111561180a5760008381526020902061180a918101908301615ae1565b828054600181600116156101000203166002900490600052602060002090601f016020900481019282601f10615aa457805160ff1916838001178555615ad1565b82800160010185558215615ad1579182015b82811115615ad1578251825591602001919060010190615ab6565b50615add929150615ae1565b5090565b61097b91905b80821115615add5760008155600101615ae756006c617465737456657273696f6e000000000000000000000000000000000000007061757365640000000000000000000000000000000000000000000000000000496e76616c696420616464726573730000000000000000000000000000000000726567697374657265645469636b6572735f6f776e657200000000000000000073656e646572206d757374206265206f776e6572000000000000000000000000706f6c79546f6b656e0000000000000000000000000000000000000000000000726567697374657265645469636b6572735f737461747573000000000000000075736572546f5469636b657273000000000000000000000000000000000000007469636b6572546f5365637572697479546f6b656e0000000000000000000000726567697374657265645469636b6572735f65787069727944617465000000005469636b6572206c656e6774682072616e67652028302c31305d000000000000416c7265616479207061757365640000000000000000000000000000000000004e6f7420617574686f7269736564000000000000000000000000000000000000a165627a7a7230582022815a321c3eae3fef018d51850efe7dbb7ff094e67a3cb61a3bd7e046c0f0f60029",
  "source": "pragma solidity ^0.4.24;\n\nimport \"../SecurityTokenRegistry.sol\";\n\n/**\n * @title Registry contract for issuers to register their security tokens\n */\ncontract SecurityTokenRegistryMock is SecurityTokenRegistry {\n    \n    /// @notice It is dummy functionality\n    /// Alert! Alert! Do not use it for the mainnet release\n    function changeTheDeployedAddress(string _ticker, address _newSecurityTokenAddress) public {\n        set(Encoder.getKey(\"tickerToSecurityToken\", _ticker), _newSecurityTokenAddress);\n    } \n    \n}\n",
  "sourcePath": "/Users/jere/Code/polymath-apps/packages/polymath-shared/scripts/generateLocalBlockchain/contracts/mocks/SecurityTokenRegistryMock.sol",
  "compiler": {
    "name": "solc",
    "version": "0.4.24+commit.e67f0147.Emscripten.clang"
  },
  "schemaVersion": "2.0.1",
  "updatedAt": "2018-10-10T20:29:24.769Z"
}