{
  "contractName": "SecurityTokenRegistry",
  "abi": [
    {
      "constant": true,
      "inputs": [],
      "name": "registrationFee",
      "outputs": [
        {
          "name": "",
          "type": "uint256"
        }
      ],
      "payable": false,
      "stateMutability": "view",
      "type": "function"
    },
    {
      "constant": true,
      "inputs": [],
      "name": "tickerRegistry",
      "outputs": [
        {
          "name": "",
          "type": "address"
        }
      ],
      "payable": false,
      "stateMutability": "view",
      "type": "function"
    },
    {
      "constant": true,
      "inputs": [],
      "name": "protocolVersion",
      "outputs": [
        {
          "name": "",
          "type": "bytes32"
        }
      ],
      "payable": false,
      "stateMutability": "view",
      "type": "function"
    },
    {
      "constant": true,
      "inputs": [],
      "name": "paused",
      "outputs": [
        {
          "name": "",
          "type": "bool"
        }
      ],
      "payable": false,
      "stateMutability": "view",
      "type": "function"
    },
    {
      "constant": true,
      "inputs": [],
      "name": "polyToken",
      "outputs": [
        {
          "name": "",
          "type": "address"
        }
      ],
      "payable": false,
      "stateMutability": "view",
      "type": "function"
    },
    {
      "constant": false,
      "inputs": [],
      "name": "renounceOwnership",
      "outputs": [],
      "payable": false,
      "stateMutability": "nonpayable",
      "type": "function"
    },
    {
      "constant": true,
      "inputs": [
        {
          "name": "",
          "type": "bytes32"
        }
      ],
      "name": "protocolVersionST",
      "outputs": [
        {
          "name": "",
          "type": "address"
        }
      ],
      "payable": false,
      "stateMutability": "view",
      "type": "function"
    },
    {
      "constant": true,
      "inputs": [],
      "name": "polymathRegistry",
      "outputs": [
        {
          "name": "",
          "type": "address"
        }
      ],
      "payable": false,
      "stateMutability": "view",
      "type": "function"
    },
    {
      "constant": false,
      "inputs": [
        {
          "name": "_tokenContract",
          "type": "address"
        }
      ],
      "name": "reclaimERC20",
      "outputs": [],
      "payable": false,
      "stateMutability": "nonpayable",
      "type": "function"
    },
    {
      "constant": true,
      "inputs": [],
      "name": "owner",
      "outputs": [
        {
          "name": "",
          "type": "address"
        }
      ],
      "payable": false,
      "stateMutability": "view",
      "type": "function"
    },
    {
      "constant": true,
      "inputs": [],
      "name": "moduleRegistry",
      "outputs": [
        {
          "name": "",
          "type": "address"
        }
      ],
      "payable": false,
      "stateMutability": "view",
      "type": "function"
    },
    {
      "constant": true,
      "inputs": [],
      "name": "securityTokenRegistry",
      "outputs": [
        {
          "name": "",
          "type": "address"
        }
      ],
      "payable": false,
      "stateMutability": "view",
      "type": "function"
    },
    {
      "constant": false,
      "inputs": [
        {
          "name": "_newOwner",
          "type": "address"
        }
      ],
      "name": "transferOwnership",
      "outputs": [],
      "payable": false,
      "stateMutability": "nonpayable",
      "type": "function"
    },
    {
      "constant": false,
      "inputs": [],
      "name": "updateFromRegistry",
      "outputs": [],
      "payable": false,
      "stateMutability": "nonpayable",
      "type": "function"
    },
    {
      "inputs": [
        {
          "name": "_polymathRegistry",
          "type": "address"
        },
        {
          "name": "_stVersionProxy",
          "type": "address"
        },
        {
          "name": "_registrationFee",
          "type": "uint256"
        }
      ],
      "payable": false,
      "stateMutability": "nonpayable",
      "type": "constructor"
    },
    {
      "anonymous": false,
      "inputs": [
        {
          "indexed": false,
          "name": "_oldFee",
          "type": "uint256"
        },
        {
          "indexed": false,
          "name": "_newFee",
          "type": "uint256"
        }
      ],
      "name": "LogChangePolyRegistrationFee",
      "type": "event"
    },
    {
      "anonymous": false,
      "inputs": [
        {
          "indexed": false,
          "name": "_ticker",
          "type": "string"
        },
        {
          "indexed": true,
          "name": "_securityTokenAddress",
          "type": "address"
        },
        {
          "indexed": true,
          "name": "_owner",
          "type": "address"
        }
      ],
      "name": "LogNewSecurityToken",
      "type": "event"
    },
    {
      "anonymous": false,
      "inputs": [
        {
          "indexed": false,
          "name": "_name",
          "type": "string"
        },
        {
          "indexed": false,
          "name": "_symbol",
          "type": "string"
        },
        {
          "indexed": false,
          "name": "_securityToken",
          "type": "address"
        },
        {
          "indexed": false,
          "name": "_addedAt",
          "type": "uint256"
        }
      ],
      "name": "LogAddCustomSecurityToken",
      "type": "event"
    },
    {
      "anonymous": false,
      "inputs": [
        {
          "indexed": true,
          "name": "previousOwner",
          "type": "address"
        }
      ],
      "name": "OwnershipRenounced",
      "type": "event"
    },
    {
      "anonymous": false,
      "inputs": [
        {
          "indexed": true,
          "name": "previousOwner",
          "type": "address"
        },
        {
          "indexed": true,
          "name": "newOwner",
          "type": "address"
        }
      ],
      "name": "OwnershipTransferred",
      "type": "event"
    },
    {
      "anonymous": false,
      "inputs": [
        {
          "indexed": false,
          "name": "_timestammp",
          "type": "uint256"
        }
      ],
      "name": "Pause",
      "type": "event"
    },
    {
      "anonymous": false,
      "inputs": [
        {
          "indexed": false,
          "name": "_timestamp",
          "type": "uint256"
        }
      ],
      "name": "Unpause",
      "type": "event"
    },
    {
      "constant": false,
      "inputs": [
        {
          "name": "_name",
          "type": "string"
        },
        {
          "name": "_symbol",
          "type": "string"
        },
        {
          "name": "_tokenDetails",
          "type": "string"
        },
        {
          "name": "_divisible",
          "type": "bool"
        }
      ],
      "name": "generateSecurityToken",
      "outputs": [],
      "payable": false,
      "stateMutability": "nonpayable",
      "type": "function"
    },
    {
      "constant": false,
      "inputs": [
        {
          "name": "_name",
          "type": "string"
        },
        {
          "name": "_symbol",
          "type": "string"
        },
        {
          "name": "_owner",
          "type": "address"
        },
        {
          "name": "_securityToken",
          "type": "address"
        },
        {
          "name": "_tokenDetails",
          "type": "string"
        },
        {
          "name": "_swarmHash",
          "type": "bytes32"
        }
      ],
      "name": "addCustomSecurityToken",
      "outputs": [],
      "payable": false,
      "stateMutability": "nonpayable",
      "type": "function"
    },
    {
      "constant": false,
      "inputs": [
        {
          "name": "_stVersionProxyAddress",
          "type": "address"
        },
        {
          "name": "_version",
          "type": "bytes32"
        }
      ],
      "name": "setProtocolVersion",
      "outputs": [],
      "payable": false,
      "stateMutability": "nonpayable",
      "type": "function"
    },
    {
      "constant": true,
      "inputs": [
        {
          "name": "_symbol",
          "type": "string"
        }
      ],
      "name": "getSecurityTokenAddress",
      "outputs": [
        {
          "name": "",
          "type": "address"
        }
      ],
      "payable": false,
      "stateMutability": "view",
      "type": "function"
    },
    {
      "constant": true,
      "inputs": [
        {
          "name": "_securityToken",
          "type": "address"
        }
      ],
      "name": "getSecurityTokenData",
      "outputs": [
        {
          "name": "",
          "type": "string"
        },
        {
          "name": "",
          "type": "address"
        },
        {
          "name": "",
          "type": "string"
        }
      ],
      "payable": false,
      "stateMutability": "view",
      "type": "function"
    },
    {
      "constant": true,
      "inputs": [
        {
          "name": "_securityToken",
          "type": "address"
        }
      ],
      "name": "isSecurityToken",
      "outputs": [
        {
          "name": "",
          "type": "bool"
        }
      ],
      "payable": false,
      "stateMutability": "view",
      "type": "function"
    },
    {
      "constant": false,
      "inputs": [
        {
          "name": "_registrationFee",
          "type": "uint256"
        }
      ],
      "name": "changePolyRegistrationFee",
      "outputs": [],
      "payable": false,
      "stateMutability": "nonpayable",
      "type": "function"
    },
    {
      "constant": false,
      "inputs": [],
      "name": "unpause",
      "outputs": [],
      "payable": false,
      "stateMutability": "nonpayable",
      "type": "function"
    },
    {
      "constant": false,
      "inputs": [],
      "name": "pause",
      "outputs": [],
      "payable": false,
      "stateMutability": "nonpayable",
      "type": "function"
    }
  ],
  "bytecode": "0x60806040527f302e302e310000000000000000000000000000000000000000000000000000006000556004805460ff1916905534801561003e57600080fd5b50604051606080620022c28339810160409081528151602083015191909201516004805461010060a860020a031916336101000217905582600160a060020a038116151561008b57600080fd5b60058054600160a060020a031916600160a060020a0392909216919091179055600a8190556100e3827f302e302e310000000000000000000000000000000000000000000000000000006401000000006100eb810204565b505050610138565b6004546101009004600160a060020a0316331461010757600080fd5b60008181559081526001602052604090208054600160a060020a031916600160a060020a0392909216919091179055565b61217a80620001486000396000f3006080604052600436106101325763ffffffff7c0100000000000000000000000000000000000000000000000000000000600035041663095408a7811461013757806314c44e091461022b5780631dd14317146102525780632a858126146102765780632ae9c600146102a75780633f4ba83a146102bc5780635b30717c146102d15780635c975abb146102e95780636faa22a514610312578063715018a61461032757806375f9f5971461033c57806377282b70146103545780638456cb59146103695780638905fd4f1461037e5780638da5cb5b1461039f5780638f9bbf16146103b4578063b95459e4146104cc578063c37792b5146104e1578063ce4dbdff146105ba578063d300a968146105cf578063f2fde38b146105f0578063f433262f14610611578063fb621f1414610626575b600080fd5b34801561014357600080fd5b506040805160206004803580820135601f810184900484028501840190955284845261022994369492936024939284019190819084018382808284375050604080516020601f89358b018035918201839004830284018301909452808352979a99988101979196509182019450925082915084018382808284375050604080516020888301358a018035601f8101839004830284018301909452838352979a8935600160a060020a039081169b8b8401359091169a91999098506060909101965091945090810192508190840183828082843750949750509335945061067f9350505050565b005b34801561023757600080fd5b50610240610c38565b60408051918252519081900360200190f35b34801561025e57600080fd5b50610229600160a060020a0360043516602435610c3e565b34801561028257600080fd5b5061028b610c8b565b60408051600160a060020a039092168252519081900360200190f35b3480156102b357600080fd5b50610240610c9a565b3480156102c857600080fd5b50610229610ca0565b3480156102dd57600080fd5b50610229600435610cc6565b3480156102f557600080fd5b506102fe610d33565b604080519115158252519081900360200190f35b34801561031e57600080fd5b5061028b610d3c565b34801561033357600080fd5b50610229610d4b565b34801561034857600080fd5b5061028b600435610dc3565b34801561036057600080fd5b5061028b610dde565b34801561037557600080fd5b50610229610ded565b34801561038a57600080fd5b50610229600160a060020a0360043516610e11565b3480156103ab57600080fd5b5061028b610f8b565b3480156103c057600080fd5b506103d5600160a060020a0360043516610f9f565b604051808060200184600160a060020a0316600160a060020a0316815260200180602001838103835286818151815260200191508051906020019080838360005b8381101561042e578181015183820152602001610416565b50505050905090810190601f16801561045b5780820380516001836020036101000a031916815260200191505b50838103825284518152845160209182019186019080838360005b8381101561048e578181015183820152602001610476565b50505050905090810190601f1680156104bb5780820380516001836020036101000a031916815260200191505b509550505050505060405180910390f35b3480156104d857600080fd5b5061028b611176565b3480156104ed57600080fd5b506040805160206004803580820135601f810184900484028501840190955284845261022994369492936024939284019190819084018382808284375050604080516020601f89358b018035918201839004830284018301909452808352979a99988101979196509182019450925082915084018382808284375050604080516020601f89358b018035918201839004830284018301909452808352979a999881019791965091820194509250829150840183828082843750949750505050913515159250611185915050565b3480156105c657600080fd5b5061028b61190d565b3480156105db57600080fd5b506102fe600160a060020a036004351661191c565b3480156105fc57600080fd5b50610229600160a060020a03600435166119cf565b34801561061d57600080fd5b506102296119f7565b34801561063257600080fd5b506040805160206004803580820135601f810184900484028501840190955284845261028b943694929360249392840191908190840183828082843750949750611d119650505050505050565b6004546060906101009004600160a060020a0316331461069e57600080fd5b600087511180156106b0575060008651115b151561072c576040805160e560020a62461bcd02815260206004820152603660248201527f4e616d6520616e642053796d626f6c20737472696e67206c656e67746820736860448201527f6f756c642062652067726561746572207468616e203000000000000000000000606482015290519081900360840190fd5b61073586611d90565b9050600160a060020a038416158015906107c457506000600160a060020a03166003826040518082805190602001908083835b602083106107875780518252601f199092019160209182019101610768565b51815160209384036101000a6000190180199092169116179052920194855250604051938490030190922054600160a060020a0316929092149150505b1515610866576040805160e560020a62461bcd02815260206004820152605160248201527f53796d626f6c20697320616c72656164792061742074686520706f6c796d617460448201527f68206e6574776f726b206f7220656e746572656420736563757269747920746f60648201527f6b656e2061646472657373206973203078000000000000000000000000000000608482015290519081900360a40190fd5b600160a060020a038516151561087b57600080fd5b6008546040517fce9af2b9000000000000000000000000000000000000000000000000000000008152600160a060020a03878116602483015260648201859052608060048301908152845160848401528451919093169263ce9af2b99285928a928d9289928291604481019160a490910190602089019080838360005b838110156109105781810151838201526020016108f8565b50505050905090810190601f16801561093d5780820380516001836020036101000a031916815260200191505b50838103825285518152855160209182019187019080838360005b83811015610970578181015183820152602001610958565b50505050905090810190601f16801561099d5780820380516001836020036101000a031916815260200191505b509650505050505050602060405180830381600087803b1580156109c057600080fd5b505af11580156109d4573d6000803e3d6000fd5b505050506040513d60208110156109ea57600080fd5b505115610a41576040805160e560020a62461bcd02815260206004820152601e60248201527f547279696e6720746f20757365206e6f6e2d76616c69642073796d626f6c0000604482015290519081900360640190fd5b836003826040518082805190602001908083835b60208310610a745780518252601f199092019160209182019101610a55565b51815160209384036101000a60001901801990921691161790529201948552506040805194859003820185208054600160a060020a031916600160a060020a039788161790558481018152868552848201899052948916600090815260028252949094208351805194959194610af094508593509101906120b3565b506020828101518051610b0992600185019201906120b3565b509050507f64b91bbee335851d4f490bc9a6d0a60e9da265c67d0258e9f300b8a933ecb3408782864260405180806020018060200185600160a060020a0316600160a060020a03168152602001848152602001838103835287818151815260200191508051906020019080838360005b83811015610b91578181015183820152602001610b79565b50505050905090810190601f168015610bbe5780820380516001836020036101000a031916815260200191505b50838103825286518152865160209182019188019080838360005b83811015610bf1578181015183820152602001610bd9565b50505050905090810190601f168015610c1e5780820380516001836020036101000a031916815260200191505b50965050505050505060405180910390a150505050505050565b600a5481565b6004546101009004600160a060020a03163314610c5a57600080fd5b60008181559081526001602052604090208054600160a060020a031916600160a060020a0392909216919091179055565b600854600160a060020a031681565b60005481565b6004546101009004600160a060020a03163314610cbc57600080fd5b610cc4611ef2565b565b6004546101009004600160a060020a03163314610ce257600080fd5b600a54811415610cf157600080fd5b600a54604080519182526020820183905280517f57306ced45fbc41943378e67622b8fb30ae72b8af9f874f08a4ad963d0c144989281900390910190a1600a55565b60045460ff1681565b600954600160a060020a031681565b6004546101009004600160a060020a03163314610d6757600080fd5b600454604051610100909104600160a060020a0316907ff8df31144d9c2f0f6b59d69b8b98abd5459d07f2742c4df920b25aae33c6482090600090a26004805474ffffffffffffffffffffffffffffffffffffffff0019169055565b600160205260009081526040902054600160a060020a031681565b600554600160a060020a031681565b6004546101009004600160a060020a03163314610e0957600080fd5b610cc4611f8d565b60045460009081906101009004600160a060020a03163314610e3257600080fd5b600160a060020a0383161515610e4757600080fd5b604080517f70a082310000000000000000000000000000000000000000000000000000000081523060048201529051849350600160a060020a038416916370a082319160248083019260209291908290030181600087803b158015610eab57600080fd5b505af1158015610ebf573d6000803e3d6000fd5b505050506040513d6020811015610ed557600080fd5b505160048054604080517fa9059cbb000000000000000000000000000000000000000000000000000000008152600160a060020a03610100909304831693810193909352602483018490525192935084169163a9059cbb916044808201926020929091908290030181600087803b158015610f4f57600080fd5b505af1158015610f63573d6000803e3d6000fd5b505050506040513d6020811015610f7957600080fd5b50511515610f8657600080fd5b505050565b6004546101009004600160a060020a031681565b600160a060020a038116600081815260026020908152604080832081517f8da5cb5b0000000000000000000000000000000000000000000000000000000081529151606095869492939092638da5cb5b9260048084019382900301818987803b15801561100b57600080fd5b505af115801561101f573d6000803e3d6000fd5b505050506040513d602081101561103557600080fd5b5051600160a060020a03861660009081526002602081815260409283902085548451600180831615610100026000190190921694909404601f8101849004840285018401909552848452019285918301828280156110d45780601f106110a9576101008083540402835291602001916110d4565b820191906000526020600020905b8154815290600101906020018083116110b757829003601f168201915b5050845460408051602060026001851615610100026000190190941693909304601f8101849004840282018401909252818152959850869450925084019050828280156111625780601f1061113757610100808354040283529160200191611162565b820191906000526020600020905b81548152906001019060200180831161114557829003601f168201915b505050505090509250925092509193909250565b600654600160a060020a031681565b60045460609060009060ff16156111e6576040805160e560020a62461bcd02815260206004820152601260248201527f436f6e7472616374206973207061757365640000000000000000000000000000604482015290519081900360640190fd5b600086511180156111f8575060008551115b1515611274576040805160e560020a62461bcd02815260206004820152603660248201527f4e616d6520616e642053796d626f6c20737472696e67206c656e67746820736860448201527f6f756c642062652067726561746572207468616e203000000000000000000000606482015290519081900360840190fd5b6008546040517fac1e765b0000000000000000000000000000000000000000000000000000000081523360248201819052606060048301908152885160648401528851600160a060020a039094169363ac1e765b938a93928c9290918291604482019160840190602088019080838360005b838110156112fe5781810151838201526020016112e6565b50505050905090810190601f16801561132b5780820380516001836020036101000a031916815260200191505b50838103825284518152845160209182019186019080838360005b8381101561135e578181015183820152602001611346565b50505050905090810190601f16801561138b5780820380516001836020036101000a031916815260200191505b5095505050505050602060405180830381600087803b1580156113ad57600080fd5b505af11580156113c1573d6000803e3d6000fd5b505050506040513d60208110156113d757600080fd5b5051151561142f576040805160e560020a62461bcd02815260206004820152601e60248201527f547279696e6720746f20757365206e6f6e2d76616c69642073796d626f6c0000604482015290519081900360640190fd5b6000600a54111561157e57600954600a54604080517f23b872dd000000000000000000000000000000000000000000000000000000008152336004820152306024820152604481019290925251600160a060020a03909216916323b872dd916064808201926020929091908290030181600087803b1580156114b057600080fd5b505af11580156114c4573d6000803e3d6000fd5b505050506040513d60208110156114da57600080fd5b5051151561157e576040805160e560020a62461bcd02815260206004820152604260248201527f4661696c6564207472616e7366657246726f6d2062656361757365206f66207360448201527f7566666963656e7420416c6c6f77616e6365206973206e6f742070726f76696460648201527f6564000000000000000000000000000000000000000000000000000000000000608482015290519081900360a40190fd5b61158785611d90565b6000805481526001602090815260408083205460055491517fc85fd4f800000000000000000000000000000000000000000000000000000000815260126044820181905233608483018190528a151560a4840152600160a060020a0394851660c4840181905260e0600485019081528f5160e48601528f51999b50959094169763c85fd4f8978f978c9794968f9694958f959194909384936024840193606481019361010490910192918e01918190849084905b8381101561165357818101518382015260200161163b565b50505050905090810190601f1680156116805780820380516001836020036101000a031916815260200191505b5084810383528a5181528a516020918201918c019080838360005b838110156116b357818101518382015260200161169b565b50505050905090810190601f1680156116e05780820380516001836020036101000a031916815260200191505b5084810382528851815288516020918201918a019080838360005b838110156117135781810151838201526020016116fb565b50505050905090810190601f1680156117405780820380516001836020036101000a031916815260200191505b509a5050505050505050505050602060405180830381600087803b15801561176757600080fd5b505af115801561177b573d6000803e3d6000fd5b505050506040513d602081101561179157600080fd5b50516040805180820182528481526020818101889052600160a060020a0384166000908152600282529290922081518051949550919390926117d79284929101906120b3565b5060208281015180516117f092600185019201906120b3565b50905050806003836040518082805190602001908083835b602083106118275780518252601f199092019160209182019101611808565b51815160209384036101000a60001901801990921691161790529201948552506040805194859003820185208054600160a060020a031916600160a060020a03978816179055818552875185830152875133968816957f2510d802a0818e71139a7680a6388bcffcd3fa686e02a0f7319488c5bdb38fcb95508994509283928301919085019080838360005b838110156118cb5781810151838201526020016118b3565b50505050905090810190601f1680156118f85780820380516001836020036101000a031916815260200191505b509250505060405180910390a3505050505050565b600754600160a060020a031681565b60408051600160a060020a038316600090815260026020819052928120805491937fc5d2460186f7233c927e7db2dcc703c0e500b653ca82273b7bfad8045d85a4709391928291849161010060018216150260001901160480156119b75780601f106119955761010080835404028352918201916119b7565b820191906000526020600020905b8154815290600101906020018083116119a3575b50506040519081900390209290921415949350505050565b6004546101009004600160a060020a031633146119eb57600080fd5b6119f48161202a565b50565b6004546101009004600160a060020a03163314611a1357600080fd5b6005546040805160e060020a63bf40fac1028152602060048201819052600e60248301527f4d6f64756c65526567697374727900000000000000000000000000000000000060448301529151600160a060020a039093169263bf40fac1926064808401939192918290030181600087803b158015611a9057600080fd5b505af1158015611aa4573d6000803e3d6000fd5b505050506040513d6020811015611aba57600080fd5b505160068054600160a060020a031916600160a060020a039283161790556005546040805160e060020a63bf40fac1028152602060048201819052601560248301527f5365637572697479546f6b656e5265676973747279000000000000000000000060448301529151929093169263bf40fac192606480830193928290030181600087803b158015611b4c57600080fd5b505af1158015611b60573d6000803e3d6000fd5b505050506040513d6020811015611b7657600080fd5b505160078054600160a060020a031916600160a060020a039283161790556005546040805160e060020a63bf40fac1028152602060048201819052600e60248301527f5469636b6572526567697374727900000000000000000000000000000000000060448301529151929093169263bf40fac192606480830193928290030181600087803b158015611c0857600080fd5b505af1158015611c1c573d6000803e3d6000fd5b505050506040513d6020811015611c3257600080fd5b505160088054600160a060020a031916600160a060020a039283161790556005546040805160e060020a63bf40fac1028152602060048201819052600960248301527f506f6c79546f6b656e000000000000000000000000000000000000000000000060448301529151929093169263bf40fac192606480830193928290030181600087803b158015611cc457600080fd5b505af1158015611cd8573d6000803e3d6000fd5b505050506040513d6020811015611cee57600080fd5b505160098054600160a060020a031916600160a060020a03909216919091179055565b60006060611d1e83611d90565b90506003816040518082805190602001908083835b60208310611d525780518252601f199092019160209182019101611d33565b51815160209384036101000a6000190180199092169116179052920194855250604051938490030190922054600160a060020a031695945050505050565b6060816000805b8251821015611ee9578282815181101515611dae57fe5b01602001517f0100000000000000000000000000000000000000000000000000000000000000908190040290507f61000000000000000000000000000000000000000000000000000000000000007fff00000000000000000000000000000000000000000000000000000000000000821610801590611e6f57507f7a000000000000000000000000000000000000000000000000000000000000007fff00000000000000000000000000000000000000000000000000000000000000821611155b15611e9f57601f197f01000000000000000000000000000000000000000000000000000000000000009182900401025b808383815181101515611eae57fe5b9060200101907effffffffffffffffffffffffffffffffffffffffffffffffffffffffffffff1916908160001a905350600190910190611d97565b50909392505050565b60045460ff161515611f4e576040805160e560020a62461bcd02815260206004820152601660248201527f436f6e7472616374206973206e6f742070617573656400000000000000000000604482015290519081900360640190fd5b6004805460ff191690556040805142815290517faaa520fdd7d2c83061d632fa017b0432407e798818af63ea908589fceda39ab79181900360200190a1565b60045460ff1615611fe8576040805160e560020a62461bcd02815260206004820152601260248201527f436f6e7472616374206973207061757365640000000000000000000000000000604482015290519081900360640190fd5b6004805460ff191660011790556040805142815290517f68b095021b1f40fe513109f513c66692f0b3219aee674a69f4efc57badb8201d9181900360200190a1565b600160a060020a038116151561203f57600080fd5b600454604051600160a060020a0380841692610100900416907f8be0079c531659141344cd1fd0a4f28419497f9722a3daafe3b4186f6b6457e090600090a360048054600160a060020a039092166101000274ffffffffffffffffffffffffffffffffffffffff0019909216919091179055565b828054600181600116156101000203166002900490600052602060002090601f016020900481019282601f106120f457805160ff1916838001178555612121565b82800160010185558215612121579182015b82811115612121578251825591602001919060010190612106565b5061212d929150612131565b5090565b61214b91905b8082111561212d5760008155600101612137565b905600a165627a7a72305820c9edc749425fb6ff62e91f03f0124cf30cce488713a72c40ddd327b648cb194f0029",
  "source": "pragma solidity ^0.4.24;\n\nimport \"./interfaces/ITickerRegistry.sol\";\nimport \"./tokens/SecurityToken.sol\";\nimport \"./interfaces/ISTProxy.sol\";\nimport \"./interfaces/ISecurityTokenRegistry.sol\";\nimport \"./Pausable.sol\";\nimport \"./RegistryUpdater.sol\";\nimport \"./ReclaimTokens.sol\";\nimport \"./helpers/Util.sol\";\n\n/**\n * @title Registry contract for issuers to register their security tokens\n */\ncontract SecurityTokenRegistry is ISecurityTokenRegistry, Util, Pausable, RegistryUpdater, ReclaimTokens {\n\n    // Registration fee in POLY base 18 decimals\n    uint256 public registrationFee;\n    // Emit when changePolyRegistrationFee is called\n    event LogChangePolyRegistrationFee(uint256 _oldFee, uint256 _newFee);\n\n    // Emit at the time of launching of new security token\n    event LogNewSecurityToken(string _ticker, address indexed _securityTokenAddress, address indexed _owner);\n    event LogAddCustomSecurityToken(string _name, string _symbol, address _securityToken, uint256 _addedAt);\n\n    constructor (\n        address _polymathRegistry,\n        address _stVersionProxy,\n        uint256 _registrationFee\n    )\n    public\n    RegistryUpdater(_polymathRegistry)\n    {\n        registrationFee = _registrationFee;\n        // By default, the STR version is set to 0.0.1\n        setProtocolVersion(_stVersionProxy, \"0.0.1\");\n    }\n\n    /**\n     * @notice Creates a new Security Token and saves it to the registry\n     * @param _name Name of the token\n     * @param _symbol Ticker symbol of the security token\n     * @param _tokenDetails off-chain details of the token\n     * @param _divisible Set to true if token is divisible\n     */\n    function generateSecurityToken(string _name, string _symbol, string _tokenDetails, bool _divisible) public whenNotPaused {\n        require(bytes(_name).length > 0 && bytes(_symbol).length > 0, \"Name and Symbol string length should be greater than 0\");\n        require(ITickerRegistry(tickerRegistry).checkValidity(_symbol, msg.sender, _name), \"Trying to use non-valid symbol\");\n        if(registrationFee > 0)\n            require(ERC20(polyToken).transferFrom(msg.sender, this, registrationFee), \"Failed transferFrom because of sufficent Allowance is not provided\");\n        string memory symbol = upper(_symbol);\n        address newSecurityTokenAddress = ISTProxy(protocolVersionST[protocolVersion]).deployToken(\n            _name,\n            symbol,\n            18,\n            _tokenDetails,\n            msg.sender,\n            _divisible,\n            polymathRegistry\n        );\n\n        securityTokens[newSecurityTokenAddress] = SecurityTokenData(symbol, _tokenDetails);\n        symbols[symbol] = newSecurityTokenAddress;\n        emit LogNewSecurityToken(symbol, newSecurityTokenAddress, msg.sender);\n    }\n\n    /**\n     * @notice Add a new custom (Token should follow the ISecurityToken interface) Security Token and saves it to the registry\n     * @param _name Name of the token\n     * @param _symbol Ticker symbol of the security token\n     * @param _owner Owner of the token\n     * @param _securityToken Address of the securityToken\n     * @param _tokenDetails off-chain details of the token\n     * @param _swarmHash off-chain details about the issuer company\n     */\n    function addCustomSecurityToken(string _name, string _symbol, address _owner, address _securityToken, string _tokenDetails, bytes32 _swarmHash) public onlyOwner {\n        require(bytes(_name).length > 0 && bytes(_symbol).length > 0, \"Name and Symbol string length should be greater than 0\");\n        string memory symbol = upper(_symbol);\n        require(_securityToken != address(0) && symbols[symbol] == address(0), \"Symbol is already at the polymath network or entered security token address is 0x\");\n        require(_owner != address(0));\n        require(!(ITickerRegistry(tickerRegistry).isReserved(symbol, _owner, _name, _swarmHash)), \"Trying to use non-valid symbol\");\n        symbols[symbol] = _securityToken;\n        securityTokens[_securityToken] = SecurityTokenData(symbol, _tokenDetails);\n        emit LogAddCustomSecurityToken(_name, symbol, _securityToken, now);\n    }\n\n    /**\n    * @notice Changes the protocol version and the SecurityToken contract\n    * @notice Used only by Polymath to upgrade the SecurityToken contract and add more functionalities to future versions\n    * @notice Changing versions does not affect existing tokens.\n    */\n    function setProtocolVersion(address _stVersionProxyAddress, bytes32 _version) public onlyOwner {\n        protocolVersion = _version;\n        protocolVersionST[_version] = _stVersionProxyAddress;\n    }\n\n    //////////////////////////////\n    ///////// Get Functions\n    //////////////////////////////\n    /**\n     * @notice Get security token address by ticker name\n     * @param _symbol Symbol of the Scurity token\n     * @return address\n     */\n    function getSecurityTokenAddress(string _symbol) public view returns (address) {\n        string memory __symbol = upper(_symbol);\n        return symbols[__symbol];\n    }\n\n     /**\n     * @notice Get security token data by its address\n     * @param _securityToken Address of the Scurity token\n     * @return string\n     * @return address\n     * @return string\n     */\n    function getSecurityTokenData(address _securityToken) public view returns (string, address, string) {\n        return (\n            securityTokens[_securityToken].symbol,\n            ISecurityToken(_securityToken).owner(),\n            securityTokens[_securityToken].tokenDetails\n        );\n    }\n\n    /**\n    * @notice Check that Security Token is registered\n    * @param _securityToken Address of the Scurity token\n    * @return bool\n    */\n    function isSecurityToken(address _securityToken) public view returns (bool) {\n        return (keccak256(bytes(securityTokens[_securityToken].symbol)) != keccak256(\"\"));\n    }\n\n    /**\n     * @notice set the ticker registration fee in POLY tokens\n     * @param _registrationFee registration fee in POLY tokens (base 18 decimals)\n     */\n    function changePolyRegistrationFee(uint256 _registrationFee) public onlyOwner {\n        require(registrationFee != _registrationFee);\n        emit LogChangePolyRegistrationFee(registrationFee, _registrationFee);\n        registrationFee = _registrationFee;\n    }\n\n     /**\n     * @notice pause registration function\n     */\n    function unpause() public onlyOwner  {\n        _unpause();\n    }\n\n    /**\n     * @notice unpause registration function\n     */\n    function pause() public onlyOwner {\n        _pause();\n    }\n\n}\n",
  "sourcePath": "/Users/rafaelvidaurre/Code/polymath/polymath-apps/packages/polymath-shared/contracts/SecurityTokenRegistry.sol",
  "compiler": {
    "name": "solc",
    "version": "0.4.24+commit.e67f0147.Emscripten.clang"
  },
  "schemaVersion": "2.0.1",
  "updatedAt": "2018-09-20T22:48:33.004Z"
}