{
  "contractName": "SecurityToken",
  "abi": [
    {
      "constant": true,
      "inputs": [],
      "name": "name",
      "outputs": [
        {
          "name": "",
          "type": "string"
        }
      ],
      "payable": false,
      "stateMutability": "view",
      "type": "function"
    },
    {
      "constant": false,
      "inputs": [
        {
          "name": "_spender",
          "type": "address"
        },
        {
          "name": "_value",
          "type": "uint256"
        }
      ],
      "name": "approve",
      "outputs": [
        {
          "name": "",
          "type": "bool"
        }
      ],
      "payable": false,
      "stateMutability": "nonpayable",
      "type": "function"
    },
    {
      "constant": true,
      "inputs": [],
      "name": "totalSupply",
      "outputs": [
        {
          "name": "",
          "type": "uint256"
        }
      ],
      "payable": false,
      "stateMutability": "view",
      "type": "function"
    },
    {
      "constant": true,
      "inputs": [],
      "name": "decimals",
      "outputs": [
        {
          "name": "",
          "type": "uint8"
        }
      ],
      "payable": false,
      "stateMutability": "view",
      "type": "function"
    },
    {
      "constant": true,
      "inputs": [],
      "name": "currentCheckpointId",
      "outputs": [
        {
          "name": "",
          "type": "uint256"
        }
      ],
      "payable": false,
      "stateMutability": "view",
      "type": "function"
    },
    {
      "constant": true,
      "inputs": [],
      "name": "granularity",
      "outputs": [
        {
          "name": "",
          "type": "uint256"
        }
      ],
      "payable": false,
      "stateMutability": "view",
      "type": "function"
    },
    {
      "constant": false,
      "inputs": [
        {
          "name": "_spender",
          "type": "address"
        },
        {
          "name": "_subtractedValue",
          "type": "uint256"
        }
      ],
      "name": "decreaseApproval",
      "outputs": [
        {
          "name": "",
          "type": "bool"
        }
      ],
      "payable": false,
      "stateMutability": "nonpayable",
      "type": "function"
    },
    {
      "constant": true,
      "inputs": [],
      "name": "polyToken",
      "outputs": [
        {
          "name": "",
          "type": "address"
        }
      ],
      "payable": false,
      "stateMutability": "view",
      "type": "function"
    },
    {
      "constant": true,
      "inputs": [
        {
          "name": "_owner",
          "type": "address"
        }
      ],
      "name": "balanceOf",
      "outputs": [
        {
          "name": "",
          "type": "uint256"
        }
      ],
      "payable": false,
      "stateMutability": "view",
      "type": "function"
    },
    {
      "constant": false,
      "inputs": [],
      "name": "renounceOwnership",
      "outputs": [],
      "payable": false,
      "stateMutability": "nonpayable",
      "type": "function"
    },
    {
      "constant": true,
      "inputs": [],
      "name": "polymathRegistry",
      "outputs": [
        {
          "name": "",
          "type": "address"
        }
      ],
      "payable": false,
      "stateMutability": "view",
      "type": "function"
    },
    {
      "constant": true,
      "inputs": [],
      "name": "controllerDisabled",
      "outputs": [
        {
          "name": "",
          "type": "bool"
        }
      ],
      "payable": false,
      "stateMutability": "view",
      "type": "function"
    },
    {
      "constant": true,
      "inputs": [],
      "name": "owner",
      "outputs": [
        {
          "name": "",
          "type": "address"
        }
      ],
      "payable": false,
      "stateMutability": "view",
      "type": "function"
    },
    {
      "constant": true,
      "inputs": [],
      "name": "symbol",
      "outputs": [
        {
          "name": "",
          "type": "string"
        }
      ],
      "payable": false,
      "stateMutability": "view",
      "type": "function"
    },
    {
      "constant": true,
      "inputs": [],
      "name": "mintingFrozen",
      "outputs": [
        {
          "name": "",
          "type": "bool"
        }
      ],
      "payable": false,
      "stateMutability": "view",
      "type": "function"
    },
    {
      "constant": true,
      "inputs": [],
      "name": "moduleRegistry",
      "outputs": [
        {
          "name": "",
          "type": "address"
        }
      ],
      "payable": false,
      "stateMutability": "view",
      "type": "function"
    },
    {
      "constant": true,
      "inputs": [],
      "name": "featureRegistry",
      "outputs": [
        {
          "name": "",
          "type": "address"
        }
      ],
      "payable": false,
      "stateMutability": "view",
      "type": "function"
    },
    {
      "constant": true,
      "inputs": [],
      "name": "securityTokenRegistry",
      "outputs": [
        {
          "name": "",
          "type": "address"
        }
      ],
      "payable": false,
      "stateMutability": "view",
      "type": "function"
    },
    {
      "constant": true,
      "inputs": [],
      "name": "tokenDetails",
      "outputs": [
        {
          "name": "",
          "type": "string"
        }
      ],
      "payable": false,
      "stateMutability": "view",
      "type": "function"
    },
    {
      "constant": false,
      "inputs": [
        {
          "name": "_spender",
          "type": "address"
        },
        {
          "name": "_addedValue",
          "type": "uint256"
        }
      ],
      "name": "increaseApproval",
      "outputs": [
        {
          "name": "",
          "type": "bool"
        }
      ],
      "payable": false,
      "stateMutability": "nonpayable",
      "type": "function"
    },
    {
      "constant": true,
      "inputs": [
        {
          "name": "_owner",
          "type": "address"
        },
        {
          "name": "_spender",
          "type": "address"
        }
      ],
      "name": "allowance",
      "outputs": [
        {
          "name": "",
          "type": "uint256"
        }
      ],
      "payable": false,
      "stateMutability": "view",
      "type": "function"
    },
    {
      "constant": true,
      "inputs": [],
      "name": "transfersFrozen",
      "outputs": [
        {
          "name": "",
          "type": "bool"
        }
      ],
      "payable": false,
      "stateMutability": "view",
      "type": "function"
    },
    {
      "constant": false,
      "inputs": [
        {
          "name": "_newOwner",
          "type": "address"
        }
      ],
      "name": "transferOwnership",
      "outputs": [],
      "payable": false,
      "stateMutability": "nonpayable",
      "type": "function"
    },
    {
      "constant": false,
      "inputs": [],
      "name": "updateFromRegistry",
      "outputs": [],
      "payable": false,
      "stateMutability": "nonpayable",
      "type": "function"
    },
    {
      "constant": true,
      "inputs": [],
      "name": "controller",
      "outputs": [
        {
          "name": "",
          "type": "address"
        }
      ],
      "payable": false,
      "stateMutability": "view",
      "type": "function"
    },
    {
      "inputs": [
        {
          "name": "_name",
          "type": "string"
        },
        {
          "name": "_symbol",
          "type": "string"
        },
        {
          "name": "_decimals",
          "type": "uint8"
        },
        {
          "name": "_granularity",
          "type": "uint256"
        },
        {
          "name": "_tokenDetails",
          "type": "string"
        },
        {
          "name": "_polymathRegistry",
          "type": "address"
        }
      ],
      "payable": false,
      "stateMutability": "nonpayable",
      "type": "constructor"
    },
    {
      "anonymous": false,
      "inputs": [
        {
          "indexed": false,
          "name": "_types",
          "type": "uint8[]"
        },
        {
          "indexed": false,
          "name": "_name",
          "type": "bytes32"
        },
        {
          "indexed": false,
          "name": "_moduleFactory",
          "type": "address"
        },
        {
          "indexed": false,
          "name": "_module",
          "type": "address"
        },
        {
          "indexed": false,
          "name": "_moduleCost",
          "type": "uint256"
        },
        {
          "indexed": false,
          "name": "_budget",
          "type": "uint256"
        },
        {
          "indexed": false,
          "name": "_timestamp",
          "type": "uint256"
        }
      ],
      "name": "ModuleAdded",
      "type": "event"
    },
    {
      "anonymous": false,
      "inputs": [
        {
          "indexed": false,
          "name": "_oldDetails",
          "type": "string"
        },
        {
          "indexed": false,
          "name": "_newDetails",
          "type": "string"
        }
      ],
      "name": "UpdateTokenDetails",
      "type": "event"
    },
    {
      "anonymous": false,
      "inputs": [
        {
          "indexed": false,
          "name": "_oldGranularity",
          "type": "uint256"
        },
        {
          "indexed": false,
          "name": "_newGranularity",
          "type": "uint256"
        }
      ],
      "name": "GranularityChanged",
      "type": "event"
    },
    {
      "anonymous": false,
      "inputs": [
        {
          "indexed": false,
          "name": "_types",
          "type": "uint8[]"
        },
        {
          "indexed": false,
          "name": "_module",
          "type": "address"
        },
        {
          "indexed": false,
          "name": "_timestamp",
          "type": "uint256"
        }
      ],
      "name": "ModuleArchived",
      "type": "event"
    },
    {
      "anonymous": false,
      "inputs": [
        {
          "indexed": false,
          "name": "_types",
          "type": "uint8[]"
        },
        {
          "indexed": false,
          "name": "_module",
          "type": "address"
        },
        {
          "indexed": false,
          "name": "_timestamp",
          "type": "uint256"
        }
      ],
      "name": "ModuleUnarchived",
      "type": "event"
    },
    {
      "anonymous": false,
      "inputs": [
        {
          "indexed": false,
          "name": "_types",
          "type": "uint8[]"
        },
        {
          "indexed": false,
          "name": "_module",
          "type": "address"
        },
        {
          "indexed": false,
          "name": "_timestamp",
          "type": "uint256"
        }
      ],
      "name": "ModuleRemoved",
      "type": "event"
    },
    {
      "anonymous": false,
      "inputs": [
        {
          "indexed": false,
          "name": "_moduleTypes",
          "type": "uint8[]"
        },
        {
          "indexed": false,
          "name": "_module",
          "type": "address"
        },
        {
          "indexed": false,
          "name": "_oldBudget",
          "type": "uint256"
        },
        {
          "indexed": false,
          "name": "_budget",
          "type": "uint256"
        }
      ],
      "name": "ModuleBudgetChanged",
      "type": "event"
    },
    {
      "anonymous": false,
      "inputs": [
        {
          "indexed": false,
          "name": "_status",
          "type": "bool"
        },
        {
          "indexed": false,
          "name": "_timestamp",
          "type": "uint256"
        }
      ],
      "name": "FreezeTransfers",
      "type": "event"
    },
    {
      "anonymous": false,
      "inputs": [
        {
          "indexed": true,
          "name": "_checkpointId",
          "type": "uint256"
        },
        {
          "indexed": false,
          "name": "_timestamp",
          "type": "uint256"
        }
      ],
      "name": "CheckpointCreated",
      "type": "event"
    },
    {
      "anonymous": false,
      "inputs": [
        {
          "indexed": false,
          "name": "_timestamp",
          "type": "uint256"
        }
      ],
      "name": "FreezeMinting",
      "type": "event"
    },
    {
      "anonymous": false,
      "inputs": [
        {
          "indexed": true,
          "name": "_oldAddress",
          "type": "address"
        },
        {
          "indexed": true,
          "name": "_newAddress",
          "type": "address"
        }
      ],
      "name": "ChangeSTRAddress",
      "type": "event"
    },
    {
      "anonymous": false,
      "inputs": [
        {
          "indexed": true,
          "name": "_to",
          "type": "address"
        },
        {
          "indexed": false,
          "name": "_value",
          "type": "uint256"
        }
      ],
      "name": "Minted",
      "type": "event"
    },
    {
      "anonymous": false,
      "inputs": [
        {
          "indexed": true,
          "name": "_from",
          "type": "address"
        },
        {
          "indexed": false,
          "name": "_value",
          "type": "uint256"
        }
      ],
      "name": "Burnt",
      "type": "event"
    },
    {
      "anonymous": false,
      "inputs": [
        {
          "indexed": true,
          "name": "_oldController",
          "type": "address"
        },
        {
          "indexed": true,
          "name": "_newController",
          "type": "address"
        }
      ],
      "name": "SetController",
      "type": "event"
    },
    {
      "anonymous": false,
      "inputs": [
        {
          "indexed": true,
          "name": "_controller",
          "type": "address"
        },
        {
          "indexed": true,
          "name": "_from",
          "type": "address"
        },
        {
          "indexed": true,
          "name": "_to",
          "type": "address"
        },
        {
          "indexed": false,
          "name": "_value",
          "type": "uint256"
        },
        {
          "indexed": false,
          "name": "_verifyTransfer",
          "type": "bool"
        },
        {
          "indexed": false,
          "name": "_data",
          "type": "bytes"
        }
      ],
      "name": "ForceTransfer",
      "type": "event"
    },
    {
      "anonymous": false,
      "inputs": [
        {
          "indexed": true,
          "name": "_controller",
          "type": "address"
        },
        {
          "indexed": true,
          "name": "_from",
          "type": "address"
        },
        {
          "indexed": false,
          "name": "_value",
          "type": "uint256"
        },
        {
          "indexed": false,
          "name": "_verifyTransfer",
          "type": "bool"
        },
        {
          "indexed": false,
          "name": "_data",
          "type": "bytes"
        }
      ],
      "name": "ForceBurn",
      "type": "event"
    },
    {
      "anonymous": false,
      "inputs": [
        {
          "indexed": false,
          "name": "_timestamp",
          "type": "uint256"
        }
      ],
      "name": "DisableController",
      "type": "event"
    },
    {
      "anonymous": false,
      "inputs": [
        {
          "indexed": true,
          "name": "previousOwner",
          "type": "address"
        }
      ],
      "name": "OwnershipRenounced",
      "type": "event"
    },
    {
      "anonymous": false,
      "inputs": [
        {
          "indexed": true,
          "name": "previousOwner",
          "type": "address"
        },
        {
          "indexed": true,
          "name": "newOwner",
          "type": "address"
        }
      ],
      "name": "OwnershipTransferred",
      "type": "event"
    },
    {
      "anonymous": false,
      "inputs": [
        {
          "indexed": true,
          "name": "owner",
          "type": "address"
        },
        {
          "indexed": true,
          "name": "spender",
          "type": "address"
        },
        {
          "indexed": false,
          "name": "value",
          "type": "uint256"
        }
      ],
      "name": "Approval",
      "type": "event"
    },
    {
      "anonymous": false,
      "inputs": [
        {
          "indexed": true,
          "name": "from",
          "type": "address"
        },
        {
          "indexed": true,
          "name": "to",
          "type": "address"
        },
        {
          "indexed": false,
          "name": "value",
          "type": "uint256"
        }
      ],
      "name": "Transfer",
      "type": "event"
    },
    {
      "constant": false,
      "inputs": [
        {
          "name": "_moduleFactory",
          "type": "address"
        },
        {
          "name": "_data",
          "type": "bytes"
        },
        {
          "name": "_maxCost",
          "type": "uint256"
        },
        {
          "name": "_budget",
          "type": "uint256"
        }
      ],
      "name": "addModule",
      "outputs": [],
      "payable": false,
      "stateMutability": "nonpayable",
      "type": "function"
    },
    {
      "constant": false,
      "inputs": [
        {
          "name": "_module",
          "type": "address"
        }
      ],
      "name": "archiveModule",
      "outputs": [],
      "payable": false,
      "stateMutability": "nonpayable",
      "type": "function"
    },
    {
      "constant": false,
      "inputs": [
        {
          "name": "_module",
          "type": "address"
        }
      ],
      "name": "unarchiveModule",
      "outputs": [],
      "payable": false,
      "stateMutability": "nonpayable",
      "type": "function"
    },
    {
      "constant": false,
      "inputs": [
        {
          "name": "_module",
          "type": "address"
        }
      ],
      "name": "removeModule",
      "outputs": [],
      "payable": false,
      "stateMutability": "nonpayable",
      "type": "function"
    },
    {
      "constant": true,
      "inputs": [
        {
          "name": "_module",
          "type": "address"
        }
      ],
      "name": "getModule",
      "outputs": [
        {
          "name": "",
          "type": "bytes32"
        },
        {
          "name": "",
          "type": "address"
        },
        {
          "name": "",
          "type": "address"
        },
        {
          "name": "",
          "type": "bool"
        },
        {
          "name": "",
          "type": "uint8[]"
        }
      ],
      "payable": false,
      "stateMutability": "view",
      "type": "function"
    },
    {
      "constant": true,
      "inputs": [
        {
          "name": "_name",
          "type": "bytes32"
        }
      ],
      "name": "getModulesByName",
      "outputs": [
        {
          "name": "",
          "type": "address[]"
        }
      ],
      "payable": false,
      "stateMutability": "view",
      "type": "function"
    },
    {
      "constant": true,
      "inputs": [
        {
          "name": "_type",
          "type": "uint8"
        }
      ],
      "name": "getModulesByType",
      "outputs": [
        {
          "name": "",
          "type": "address[]"
        }
      ],
      "payable": false,
      "stateMutability": "view",
      "type": "function"
    },
    {
      "constant": false,
      "inputs": [
        {
          "name": "_value",
          "type": "uint256"
        }
      ],
      "name": "withdrawPoly",
      "outputs": [],
      "payable": false,
      "stateMutability": "nonpayable",
      "type": "function"
    },
    {
      "constant": false,
      "inputs": [
        {
          "name": "_module",
          "type": "address"
        },
        {
          "name": "_budget",
          "type": "uint256"
        }
      ],
      "name": "changeModuleBudget",
      "outputs": [],
      "payable": false,
      "stateMutability": "nonpayable",
      "type": "function"
    },
    {
      "constant": false,
      "inputs": [
        {
          "name": "_newTokenDetails",
          "type": "string"
        }
      ],
      "name": "updateTokenDetails",
      "outputs": [],
      "payable": false,
      "stateMutability": "nonpayable",
      "type": "function"
    },
    {
      "constant": false,
      "inputs": [
        {
          "name": "_granularity",
          "type": "uint256"
        }
      ],
      "name": "changeGranularity",
      "outputs": [],
      "payable": false,
      "stateMutability": "nonpayable",
      "type": "function"
    },
    {
      "constant": false,
      "inputs": [
        {
          "name": "_start",
          "type": "uint256"
        },
        {
          "name": "_iters",
          "type": "uint256"
        }
      ],
      "name": "pruneInvestors",
      "outputs": [],
      "payable": false,
      "stateMutability": "nonpayable",
      "type": "function"
    },
    {
      "constant": true,
      "inputs": [],
      "name": "getInvestors",
      "outputs": [
        {
          "name": "",
          "type": "address[]"
        }
      ],
      "payable": false,
      "stateMutability": "view",
      "type": "function"
    },
    {
      "constant": true,
      "inputs": [],
      "name": "getInvestorCount",
      "outputs": [
        {
          "name": "",
          "type": "uint256"
        }
      ],
      "payable": false,
      "stateMutability": "view",
      "type": "function"
    },
    {
      "constant": false,
      "inputs": [],
      "name": "freezeTransfers",
      "outputs": [],
      "payable": false,
      "stateMutability": "nonpayable",
      "type": "function"
    },
    {
      "constant": false,
      "inputs": [],
      "name": "unfreezeTransfers",
      "outputs": [],
      "payable": false,
      "stateMutability": "nonpayable",
      "type": "function"
    },
    {
      "constant": false,
      "inputs": [
        {
          "name": "_to",
          "type": "address"
        },
        {
          "name": "_value",
          "type": "uint256"
        }
      ],
      "name": "transfer",
      "outputs": [
        {
          "name": "success",
          "type": "bool"
        }
      ],
      "payable": false,
      "stateMutability": "nonpayable",
      "type": "function"
    },
    {
      "constant": false,
      "inputs": [
        {
          "name": "_to",
          "type": "address"
        },
        {
          "name": "_value",
          "type": "uint256"
        },
        {
          "name": "_data",
          "type": "bytes"
        }
      ],
      "name": "transferWithData",
      "outputs": [
        {
          "name": "success",
          "type": "bool"
        }
      ],
      "payable": false,
      "stateMutability": "nonpayable",
      "type": "function"
    },
    {
      "constant": false,
      "inputs": [
        {
          "name": "_from",
          "type": "address"
        },
        {
          "name": "_to",
          "type": "address"
        },
        {
          "name": "_value",
          "type": "uint256"
        }
      ],
      "name": "transferFrom",
      "outputs": [
        {
          "name": "",
          "type": "bool"
        }
      ],
      "payable": false,
      "stateMutability": "nonpayable",
      "type": "function"
    },
    {
      "constant": false,
      "inputs": [
        {
          "name": "_from",
          "type": "address"
        },
        {
          "name": "_to",
          "type": "address"
        },
        {
          "name": "_value",
          "type": "uint256"
        },
        {
          "name": "_data",
          "type": "bytes"
        }
      ],
      "name": "transferFromWithData",
      "outputs": [
        {
          "name": "",
          "type": "bool"
        }
      ],
      "payable": false,
      "stateMutability": "nonpayable",
      "type": "function"
    },
    {
      "constant": false,
      "inputs": [
        {
          "name": "_from",
          "type": "address"
        },
        {
          "name": "_to",
          "type": "address"
        },
        {
          "name": "_value",
          "type": "uint256"
        },
        {
          "name": "_data",
          "type": "bytes"
        }
      ],
      "name": "verifyTransfer",
      "outputs": [
        {
          "name": "",
          "type": "bool"
        }
      ],
      "payable": false,
      "stateMutability": "nonpayable",
      "type": "function"
    },
    {
      "constant": false,
      "inputs": [],
      "name": "freezeMinting",
      "outputs": [],
      "payable": false,
      "stateMutability": "nonpayable",
      "type": "function"
    },
    {
      "constant": false,
      "inputs": [
        {
          "name": "_investor",
          "type": "address"
        },
        {
          "name": "_value",
          "type": "uint256"
        }
      ],
      "name": "mint",
      "outputs": [
        {
          "name": "success",
          "type": "bool"
        }
      ],
      "payable": false,
      "stateMutability": "nonpayable",
      "type": "function"
    },
    {
      "constant": false,
      "inputs": [
        {
          "name": "_investor",
          "type": "address"
        },
        {
          "name": "_value",
          "type": "uint256"
        },
        {
          "name": "_data",
          "type": "bytes"
        }
      ],
      "name": "mintWithData",
      "outputs": [
        {
          "name": "success",
          "type": "bool"
        }
      ],
      "payable": false,
      "stateMutability": "nonpayable",
      "type": "function"
    },
    {
      "constant": false,
      "inputs": [
        {
          "name": "_investors",
          "type": "address[]"
        },
        {
          "name": "_values",
          "type": "uint256[]"
        }
      ],
      "name": "mintMulti",
      "outputs": [
        {
          "name": "success",
          "type": "bool"
        }
      ],
      "payable": false,
      "stateMutability": "nonpayable",
      "type": "function"
    },
    {
      "constant": true,
      "inputs": [
        {
          "name": "_delegate",
          "type": "address"
        },
        {
          "name": "_module",
          "type": "address"
        },
        {
          "name": "_perm",
          "type": "bytes32"
        }
      ],
      "name": "checkPermission",
      "outputs": [
        {
          "name": "",
          "type": "bool"
        }
      ],
      "payable": false,
      "stateMutability": "view",
      "type": "function"
    },
    {
      "constant": false,
      "inputs": [
        {
          "name": "_value",
          "type": "uint256"
        },
        {
          "name": "_data",
          "type": "bytes"
        }
      ],
      "name": "burnWithData",
      "outputs": [],
      "payable": false,
      "stateMutability": "nonpayable",
      "type": "function"
    },
    {
      "constant": false,
      "inputs": [
        {
          "name": "_from",
          "type": "address"
        },
        {
          "name": "_value",
          "type": "uint256"
        },
        {
          "name": "_data",
          "type": "bytes"
        }
      ],
      "name": "burnFromWithData",
      "outputs": [],
      "payable": false,
      "stateMutability": "nonpayable",
      "type": "function"
    },
    {
      "constant": false,
      "inputs": [],
      "name": "createCheckpoint",
      "outputs": [
        {
          "name": "",
          "type": "uint256"
        }
      ],
      "payable": false,
      "stateMutability": "nonpayable",
      "type": "function"
    },
    {
      "constant": true,
      "inputs": [],
      "name": "getCheckpointTimes",
      "outputs": [
        {
          "name": "",
          "type": "uint256[]"
        }
      ],
      "payable": false,
      "stateMutability": "view",
      "type": "function"
    },
    {
      "constant": true,
      "inputs": [
        {
          "name": "_checkpointId",
          "type": "uint256"
        }
      ],
      "name": "totalSupplyAt",
      "outputs": [
        {
          "name": "",
          "type": "uint256"
        }
      ],
      "payable": false,
      "stateMutability": "view",
      "type": "function"
    },
    {
      "constant": true,
      "inputs": [
        {
          "name": "_investor",
          "type": "address"
        },
        {
          "name": "_checkpointId",
          "type": "uint256"
        }
      ],
      "name": "balanceOfAt",
      "outputs": [
        {
          "name": "",
          "type": "uint256"
        }
      ],
      "payable": false,
      "stateMutability": "view",
      "type": "function"
    },
    {
      "constant": false,
      "inputs": [
        {
          "name": "_controller",
          "type": "address"
        }
      ],
      "name": "setController",
      "outputs": [],
      "payable": false,
      "stateMutability": "nonpayable",
      "type": "function"
    },
    {
      "constant": false,
      "inputs": [],
      "name": "disableController",
      "outputs": [],
      "payable": false,
      "stateMutability": "nonpayable",
      "type": "function"
    },
    {
      "constant": false,
      "inputs": [
        {
          "name": "_from",
          "type": "address"
        },
        {
          "name": "_to",
          "type": "address"
        },
        {
          "name": "_value",
          "type": "uint256"
        },
        {
          "name": "_data",
          "type": "bytes"
        },
        {
          "name": "_log",
          "type": "bytes"
        }
      ],
      "name": "forceTransfer",
      "outputs": [],
      "payable": false,
      "stateMutability": "nonpayable",
      "type": "function"
    },
    {
      "constant": false,
      "inputs": [
        {
          "name": "_from",
          "type": "address"
        },
        {
          "name": "_value",
          "type": "uint256"
        },
        {
          "name": "_data",
          "type": "bytes"
        },
        {
          "name": "_log",
          "type": "bytes"
        }
      ],
      "name": "forceBurn",
      "outputs": [],
      "payable": false,
      "stateMutability": "nonpayable",
      "type": "function"
    },
    {
      "constant": true,
      "inputs": [],
      "name": "getVersion",
      "outputs": [
        {
          "name": "",
          "type": "uint8[]"
        }
      ],
      "payable": false,
      "stateMutability": "view",
      "type": "function"
    }
  ],
  "bytecode": "0x60806040526005805461ff00191690553480156200001c57600080fd5b5060405162005cce38038062005cce8339810160409081528151602080840151928401516060850151608086015160a0870151948701805190979687019693959294919093019282918891889188916200007d9160039190860190620004d6565b50815162000093906004906020850190620004d6565b506005805460ff191660ff92909216919091176201000060b060020a0319163362010000021790555050600160a060020a0381161515620000d357600080fd5b60068054600160a060020a031916600160a060020a03929092169190911790556200010664010000000062000154810204565b81516200011b90600f906020850190620004d6565b50505060105550506040805160608101825260008082526020820152600291015250600e805462ffffff1916620200001790556200057b565b600554620100009004600160a060020a031633146200017257600080fd5b600654604080517fbf40fac1000000000000000000000000000000000000000000000000000000008152602060048201819052600e60248301527f4d6f64756c65526567697374727900000000000000000000000000000000000060448301529151600160a060020a039093169263bf40fac1926064808401939192918290030181600087803b1580156200020657600080fd5b505af11580156200021b573d6000803e3d6000fd5b505050506040513d60208110156200023257600080fd5b505160078054600160a060020a031916600160a060020a03928316179055600654604080517fbf40fac1000000000000000000000000000000000000000000000000000000008152602060048201819052601560248301527f5365637572697479546f6b656e5265676973747279000000000000000000000060448301529151929093169263bf40fac192606480830193928290030181600087803b158015620002db57600080fd5b505af1158015620002f0573d6000803e3d6000fd5b505050506040513d60208110156200030757600080fd5b505160088054600160a060020a031916600160a060020a03928316179055600654604080517fbf40fac1000000000000000000000000000000000000000000000000000000008152602060048201819052600f60248301527f466561747572655265676973747279000000000000000000000000000000000060448301529151929093169263bf40fac192606480830193928290030181600087803b158015620003b057600080fd5b505af1158015620003c5573d6000803e3d6000fd5b505050506040513d6020811015620003dc57600080fd5b505160098054600160a060020a031916600160a060020a03928316178155600654604080517fbf40fac100000000000000000000000000000000000000000000000000000000815260206004820181905260248201949094527f506f6c79546f6b656e000000000000000000000000000000000000000000000060448201529051919093169263bf40fac19260648083019391928290030181600087803b1580156200048757600080fd5b505af11580156200049c573d6000803e3d6000fd5b505050506040513d6020811015620004b357600080fd5b5051600a8054600160a060020a031916600160a060020a03909216919091179055565b828054600181600116156101000203166002900490600052602060002090601f016020900481019282601f106200051957805160ff191683800117855562000549565b8280016001018555821562000549579182015b82811115620005495782518255916020019190600101906200052c565b50620005579291506200055b565b5090565b6200057891905b8082111562000557576000815560010162000562565b90565b615743806200058b6000396000f3006080604052600436106102c65763ffffffff60e060020a6000350416630150246081146102cb5780630583bb5b146102e257806306fdde0314610306578063095ea7b3146103905780630d8e6e2c146103c857806312ef7fe21461042d57806318160ddd1461044e578063210a8d0e1461047557806323b872dd1461048d5780632535f762146104b7578063313ce5671461052057806331c420d41461054b5780633576857e1461056057806338777af2146105815780633c9dcebe1461062857806340c10f191461068657806346e4959d146106aa5780634c6041d3146106d65780634ee2cd7e146106eb5780635488cc801461070f578063556f0dc7146107245780635c49de5e1461073957806366188463146107e65780636faa22a51461080a57806370a082311461083b578063715018a61461085c57806373826a9314610871578063764387bd1461089157806377282b70146108a95780637a802c71146108be5780637d6ae27b146108d35780638658b8b91461093c578063869e50c7146109665780638da5cb5b1461097b57806392eefe9b1461099057806395d89b41146109b1578063960524e3146109c657806396adfe42146109db578063981b24d014610a44578063a063246114610a5c578063a284de0214610a7d578063a9059cbb14610a92578063ac90b42214610ab6578063b2f5a54c14610ad1578063b5de8d4c14610ae6578063b95459e414610b8c578063c013f30f14610ba1578063c5bac42114610bb6578063caf90dab14610bd1578063ce4dbdff14610be6578063d6abe11014610bfb578063d73dd62314610c10578063dd62ed3e14610c34578063e45b813414610c5b578063ee532f3114610c70578063f1d74b0f14610cdf578063f2fde38b14610d4e578063f433262f14610d6f578063f5efbd2d14610d84578063f77c479114610db7578063f8a4cc3314610dcc578063ff0b9c9014610de4575b600080fd5b3480156102d757600080fd5b506102e0610df9565b005b3480156102ee57600080fd5b506102e0600160a060020a0360043516602435610ebc565b34801561031257600080fd5b5061031b6112ce565b6040805160208082528351818301528351919283929083019185019080838360005b8381101561035557818101518382015260200161033d565b50505050905090810190601f1680156103825780820380516001836020036101000a031916815260200191505b509250505060405180910390f35b34801561039c57600080fd5b506103b4600160a060020a036004351660243561135c565b604080519115158252519081900360200190f35b3480156103d457600080fd5b506103dd6113c2565b60408051602080825283518183015283519192839290830191858101910280838360005b83811015610419578181015183820152602001610401565b505050509050019250505060405180910390f35b34801561043957600080fd5b506102e0600160a060020a036004351661146d565b34801561045a57600080fd5b5061046361152c565b60408051918252519081900360200190f35b34801561048157600080fd5b506102e0600435611533565b34801561049957600080fd5b506103b4600160a060020a03600435811690602435166044356115e9565b3480156104c357600080fd5b50604080516020600460443581810135601f81018490048402850184019095528484526103b4948235600160a060020a031694602480359536959460649492019190819084018382808284375094975061160f9650505050505050565b34801561052c57600080fd5b50610535611680565b6040805160ff9092168252519081900360200190f35b34801561055757600080fd5b506102e0611689565b34801561056c57600080fd5b506102e0600160a060020a0360043516611749565b34801561058d57600080fd5b50604080516020600460443581810135601f81018490048402850184019095528484526102e0948235600160a060020a031694602480359536959460649492019190819084018382808284375050604080516020601f89358b018035918201839004830284018301909452808352979a9998810197919650918201945092508291508401838280828437509497506117ed9650505050505050565b34801561063457600080fd5b5060408051602060046024803582810135601f81018590048502860185019096528585526102e095833595369560449491939091019190819084018382808284375094975061198f9650505050505050565b34801561069257600080fd5b506103b4600160a060020a0360043516602435611a0c565b3480156106b657600080fd5b506103b46024600480358281019290820135918135918201910135611a30565b3480156106e257600080fd5b506103dd611ba6565b3480156106f757600080fd5b50610463600160a060020a0360043516602435611bfe565b34801561071b57600080fd5b50610463611cc6565b34801561073057600080fd5b50610463611ccc565b34801561074557600080fd5b50604080516020601f6064356004818101359283018490048402850184019095528184526102e094600160a060020a03813581169560248035909216956044359536956084940191819084018382808284375050604080516020601f89358b018035918201839004830284018301909452808352979a999881019791965091820194509250829150840183828082843750949750611cd29650505050505050565b3480156107f257600080fd5b506103b4600160a060020a0360043516602435611f7a565b34801561081657600080fd5b5061081f61206c565b60408051600160a060020a039092168252519081900360200190f35b34801561084757600080fd5b50610463600160a060020a036004351661207b565b34801561086857600080fd5b506102e0612096565b34801561087d57600080fd5b506102e06004803560248101910135612111565b34801561089d57600080fd5b506103dd600435612208565b3480156108b557600080fd5b5061081f612274565b3480156108ca57600080fd5b506103b4612283565b3480156108df57600080fd5b50604080516020600460443581810135601f81018490048402850184019095528484526102e0948235600160a060020a03169460248035953695946064949201919081908401838280828437509497506122929650505050505050565b34801561094857600080fd5b506103b4600160a060020a03600435811690602435166044356123e3565b34801561097257600080fd5b506102e06124c9565b34801561098757600080fd5b5061081f6126fd565b34801561099c57600080fd5b506102e0600160a060020a0360043516612712565b3480156109bd57600080fd5b5061031b612830565b3480156109d257600080fd5b5061046361288b565b3480156109e757600080fd5b50604080516020600460443581810135601f81018490048402850184019095528484526103b4948235600160a060020a03169460248035953695946064949201919081908401838280828437509497506128919650505050505050565b348015610a5057600080fd5b50610463600435612c89565b348015610a6857600080fd5b506102e0600160a060020a0360043516612d37565b348015610a8957600080fd5b506103b46131bd565b348015610a9e57600080fd5b506103b4600160a060020a03600435166024356131cb565b348015610ac257600080fd5b506103dd60ff600435166131e8565b348015610add57600080fd5b506103dd613256565b348015610af257600080fd5b50610b07600160a060020a03600435166132ba565b60408051868152600160a060020a0380871660208084019190915290861692820192909252831515606082015260a06080820181815284519183019190915283519192909160c0840191858101910280838360005b83811015610b74578181015183820152602001610b5c565b50505050905001965050505050505060405180910390f35b348015610b9857600080fd5b5061081f613395565b348015610bad57600080fd5b506102e06133a4565b348015610bc257600080fd5b506102e0600435602435613593565b348015610bdd57600080fd5b5061081f613694565b348015610bf257600080fd5b5061081f6136a3565b348015610c0757600080fd5b5061031b6136b2565b348015610c1c57600080fd5b506103b4600160a060020a036004351660243561370d565b348015610c4057600080fd5b50610463600160a060020a03600435811690602435166137a6565b348015610c6757600080fd5b506103b46137d1565b348015610c7c57600080fd5b50604080516020601f6064356004818101359283018490048402850184019095528184526103b494600160a060020a0381358116956024803590921695604435953695608494019181908401838280828437509497506137da9650505050505050565b348015610ceb57600080fd5b50604080516020601f6064356004818101359283018490048402850184019095528184526103b494600160a060020a03813581169560248035909216956044359536956084940191819084018382808284375094975061384d9650505050505050565b348015610d5a57600080fd5b506102e0600160a060020a0360043516613866565b348015610d7b57600080fd5b506102e061388f565b348015610d9057600080fd5b506102e060048035600160a060020a03169060248035908101910135604435606435613bac565b348015610dc357600080fd5b5061081f614526565b348015610dd857600080fd5b506102e060043561453c565b348015610df057600080fd5b50610463614653565b600554620100009004600160a060020a03163314610e1657600080fd5b60125460ff1615610e71576040805160e560020a62461bcd02815260206004820152601860248201527f7472616e736665727320616c72656164792066726f7a656e0000000000000000604482015290519081900360640190fd5b6012805460ff191660019081179091556040805191825242602083015280517f04f1ca1e602280d208c2c7ff2646257c29fd92371788c49a8a5c27de99a2bcda9281900390910190a1565b600554600090620100009004600160a060020a03163314610edc57600080fd5b600160a060020a03838116600090815260146020526040902060010154161515610f50576040805160e560020a62461bcd02815260206004820152600e60248201527f4d6f64756c65206d697373696e67000000000000000000000000000000000000604482015290519081900360640190fd5b600a54604080517fdd62ed3e000000000000000000000000000000000000000000000000000000008152306004820152600160a060020a0386811660248301529151919092169163dd62ed3e9160448083019260209291908290030181600087803b158015610fbe57600080fd5b505af1158015610fd2573d6000803e3d6000fd5b505050506040513d6020811015610fe857600080fd5b50519050808210156110ef57600a54600160a060020a0316636618846384611016848663ffffffff6147a516565b6040518363ffffffff1660e060020a0281526004018083600160a060020a0316600160a060020a0316815260200182815260200192505050602060405180830381600087803b15801561106857600080fd5b505af115801561107c573d6000803e3d6000fd5b505050506040513d602081101561109257600080fd5b505115156110ea576040805160e560020a62461bcd02815260206004820152601460248201527f496e73756666696369656e742062616c616e6365000000000000000000000000604482015290519081900360640190fd5b6111e5565b600a54600160a060020a031663d73dd62384611111858563ffffffff6147a516565b6040518363ffffffff1660e060020a0281526004018083600160a060020a0316600160a060020a0316815260200182815260200192505050602060405180830381600087803b15801561116357600080fd5b505af1158015611177573d6000803e3d6000fd5b505050506040513d602081101561118d57600080fd5b505115156111e5576040805160e560020a62461bcd02815260206004820152601460248201527f496e73756666696369656e742062616c616e6365000000000000000000000000604482015290519081900360640190fd5b7fa00a1c33ebb7433724919cb1059328c16265f935ef84a13442045da3e81c0ccc6014600085600160a060020a0316600160a060020a03168152602001908152602001600020600301848385604051808060200185600160a060020a0316600160a060020a0316815260200184815260200183815260200182810382528681815481526020019150805480156112b857602002820191906000526020600020906000905b825461010083900a900460ff168152602060019283018181049485019490930390920291018084116112895790505b50509550505050505060405180910390a1505050565b6003805460408051602060026001851615610100026000190190941693909304601f810184900484028201840190925281815292918301828280156113545780601f1061132957610100808354040283529160200191611354565b820191906000526020600020905b81548152906001019060200180831161133757829003601f168201915b505050505081565b336000818152600260209081526040808320600160a060020a038716808552908352818420869055815186815291519394909390927f8c5be1e5ebec7d5bd14f71427d1e84f3dd0314c0f7b2291e5b200ac8c7c3b925928290030190a350600192915050565b604080516003808252608082019092526060918291906020820183803883395050600e54825192935060ff169183915060009081106113fd57fe5b60ff92831660209182029092010152600e548251610100909104909116908290600190811061142857fe5b60ff92831660209182029092010152600e54825162010000909104909116908290600290811061145457fe5b60ff9092166020928302909101909101529050805b5090565b600554620100009004600160a060020a0316331461148a57600080fd5b600160a060020a03811660008181526014602052604080822081517f4e5ba926000000000000000000000000000000000000000000000000000000008152600481019190915260248101939093525173__TokenLib______________________________92634e5ba926926044808301939192829003018186803b15801561151157600080fd5b505af4158015611525573d6000803e3d6000fd5b5050505050565b6001545b90565b600554620100009004600160a060020a0316331461155057600080fd5b8015156115a7576040805160e560020a62461bcd02815260206004820152601560248201527f496e636f7272656374206772616e756c61726974790000000000000000000000604482015290519081900360640190fd5b601054604080519182526020820183905280517f7728e5c461dd94b32a33e149f4ef6b674a7eff704cac77b26937eaced90f00389281900390910190a1601055565b600061160784848460206040519081016040528060008152506137da565b949350505050565b600061161d338585856147b7565b1515611661576040805160e560020a62461bcd02815260206004820152601260248201526000805160206156d8833981519152604482015290519081900360640190fd5b61166b84846147e4565b151561167657600080fd5b5060019392505050565b60055460ff1681565b600554620100009004600160a060020a031633146116a657600080fd5b60125460ff161515611702576040805160e560020a62461bcd02815260206004820152601860248201527f7472616e7366657220617265206e6f742066726f6e7a656e0000000000000000604482015290519081900360640190fd5b6012805460ff19169055604080516000815242602082015281517f04f1ca1e602280d208c2c7ff2646257c29fd92371788c49a8a5c27de99a2bcda929181900390910190a1565b600554620100009004600160a060020a0316331461176657600080fd5b600160a060020a03811660008181526014602052604080822081517fe486dd3b000000000000000000000000000000000000000000000000000000008152600481019190915260248101939093525173__TokenLib______________________________9263e486dd3b926044808301939192829003018186803b15801561151157600080fd5b60125460009063010000009004600160a060020a03163314611859576040805160e560020a62461bcd02815260206004820152600e60248201527f4e6f7420636f6e74726f6c6c6572000000000000000000000000000000000000604482015290519081900360640190fd5b60125462010000900460ff16156118ba576040805160e560020a62461bcd02815260206004820152601360248201527f436f6e74726f6c6c65722064697361626c656400000000000000000000000000604482015290519081900360640190fd5b6118c58585856148b3565b905084600160a060020a031633600160a060020a03167f27e232e0b8b07b7d0a09164e51186c4fb62c881eb6327305713f40282a16caf3868486604051808481526020018315151515815260200180602001828103825283818151815260200191508051906020019080838360005b8381101561194c578181015183820152602001611934565b50505050905090810190601f1680156119795780820380516001836020036101000a031916815260200191505b5094505050505060405180910390a35050505050565b600561199b3382614a0a565b15156119a657600080fd5b6119b13384846148b3565b1515611a07576040805160e560020a62461bcd02815260206004820152600e60248201527f4275726e206e6f742076616c6964000000000000000000000000000000000000604482015290519081900360640190fd5b505050565b6000611a2983836020604051908101604052806000815250612891565b9392505050565b6005546000908190600390620100009004600160a060020a0316331415611b0357858414611aa8576040805160e560020a62461bcd02815260206004820152601060248201527f496e636f727265637420696e7075747300000000000000000000000000000000604482015290519081900360640190fd5b600091505b85821015611afa57611aee878784818110611ac457fe5b90506020020135600160a060020a03168686858181101515611ae257fe5b90506020020135611a0c565b50600190910190611aad565b60019250611b9c565b611b0d3382614a0a565b1515611b1857600080fd5b858414611b6f576040805160e560020a62461bcd02815260206004820152601060248201527f496e636f727265637420696e7075747300000000000000000000000000000000604482015290519081900360640190fd5b600091505b85821015611b9757611b8b878784818110611ac457fe5b50600190910190611b74565b600192505b5050949350505050565b60606018805480602002602001604051908101604052809291908181526020018280548015611bf457602002820191906000526020600020905b815481526020019060010190808311611be0575b5050505050905090565b601154600090821115611c1057600080fd5b600160a060020a038316600090815260166020526040902073__TokenLib______________________________9063b58ae1e29084611c4e8761207b565b6040518463ffffffff1660e060020a02815260040180848152602001838152602001828152602001935050505060206040518083038186803b158015611c9357600080fd5b505af4158015611ca7573d6000803e3d6000fd5b505050506040513d6020811015611cbd57600080fd5b50519392505050565b60115481565b60105481565b60125460009063010000009004600160a060020a03163314611d3e576040805160e560020a62461bcd02815260206004820152600e60248201527f4e6f7420636f6e74726f6c6c6572000000000000000000000000000000000000604482015290519081900360640190fd5b60125462010000900460ff1615611d9f576040805160e560020a62461bcd02815260206004820152601360248201527f436f6e74726f6c6c65722064697361626c656400000000000000000000000000604482015290519081900360640190fd5b600160a060020a0385161515611db457600080fd5b600160a060020a038616600090815260208190526040902054841115611dd957600080fd5b611de5868686866147b7565b600160a060020a038716600090815260208190526040902054909150611e11908563ffffffff6147a516565b600160a060020a038088166000908152602081905260408082209390935590871681522054611e46908563ffffffff614ba316565b60008087600160a060020a0316600160a060020a031681526020019081526020016000208190555084600160a060020a031686600160a060020a031633600160a060020a03167ff38eab8c5ef9ca0b5df51f887249efab0c1e0bb6272a62cc9d330800ee7ddf6b878587604051808481526020018315151515815260200180602001828103825283818151815260200191508051906020019080838360005b83811015611efd578181015183820152602001611ee5565b50505050905090810190601f168015611f2a5780820380516001836020036101000a031916815260200191505b5094505050505060405180910390a484600160a060020a031686600160a060020a03166000805160206156f8833981519152866040518082815260200191505060405180910390a3505050505050565b336000908152600260209081526040808320600160a060020a038616845290915281205480831115611fcf57336000908152600260209081526040808320600160a060020a0388168452909152812055612004565b611fdf818463ffffffff6147a516565b336000908152600260209081526040808320600160a060020a03891684529091529020555b336000818152600260209081526040808320600160a060020a0389168085529083529281902054815190815290519293927f8c5be1e5ebec7d5bd14f71427d1e84f3dd0314c0f7b2291e5b200ac8c7c3b925929181900390910190a3600191505b5092915050565b600a54600160a060020a031681565b600160a060020a031660009081526020819052604090205490565b600554620100009004600160a060020a031633146120b357600080fd5b60055460405162010000909104600160a060020a0316907ff8df31144d9c2f0f6b59d69b8b98abd5459d07f2742c4df920b25aae33c6482090600090a26005805475ffffffffffffffffffffffffffffffffffffffff000019169055565b600554620100009004600160a060020a0316331461212e57600080fd5b60408051818152600f8054600260001961010060018416150201909116049282018390527f4f5dc3feea8c186b1481cfe57c28df8871a61e3be16f7d65c60504cfd63440679290918591859190819060208201906060830190879080156121d65780601f106121ab576101008083540402835291602001916121d6565b820191906000526020600020905b8154815290600101906020018083116121b957829003601f168201915b50508381038252848152602001858580828437604051920182900397509095505050505050a1611a07600f83836154e1565b60008181526015602090815260409182902080548351818402810184019094528084526060939283018282801561226857602002820191906000526020600020905b8154600160a060020a0316815260019091019060200180831161224a575b50505050509050919050565b600654600160a060020a031681565b60125462010000900460ff1681565b600561229e3382614a0a565b15156122a957600080fd5b600160a060020a0384166000908152600260209081526040808320338452909152902054831115612324576040805160e560020a62461bcd02815260206004820152600e60248201527f56616c756520746f6f2068696768000000000000000000000000000000000000604482015290519081900360640190fd5b600160a060020a0384166000908152600260209081526040808320338452909152902054612358908463ffffffff6147a516565b600160a060020a03851660009081526002602090815260408083203384529091529020556123878484846148b3565b15156123dd576040805160e560020a62461bcd02815260206004820152600e60248201527f4275726e206e6f742076616c6964000000000000000000000000000000000000604482015290519081900360640190fd5b50505050565b6001600090815260136020908152604080517f84c0b0ef0000000000000000000000000000000000000000000000000000000081527f4155c2f711f2cdd34f8262ab8fb9b7020a700fe7b6948222152f7670d1fdf34d6004820152600160a060020a0380881660248301528616604482015260648101859052905173__TokenLib______________________________926384c0b0ef9260848082019391829003018186803b15801561249557600080fd5b505af41580156124a9573d6000803e3d6000fd5b505050506040513d60208110156124bf57600080fd5b5051949350505050565b604080518082018252601881527f64697361626c65436f6e74726f6c6c6572416c6c6f7765640000000000000000602080830191825260095493517f2f0019f2000000000000000000000000000000000000000000000000000000008152600481019182528351602482015283519394600160a060020a031693632f0019f29386939283926044909101919080838360005b8381101561257357818101518382015260200161255b565b50505050905090810190601f1680156125a05780820380516001836020036101000a031916815260200191505b5092505050602060405180830381600087803b1580156125bf57600080fd5b505af11580156125d3573d6000803e3d6000fd5b505050506040513d60208110156125e957600080fd5b505115156125f657600080fd5b600554620100009004600160a060020a0316331461261357600080fd5b60125462010000900460ff161561269a576040805160e560020a62461bcd02815260206004820152602160248201527f436f6e74726f6c6c65722066756e6374696f6e73206172652064697361626c6560448201527f6400000000000000000000000000000000000000000000000000000000000000606482015290519081900360840190fd5b6012805476ffffffffffffffffffffffffffffffffffffffff0000001962ff00001990911662010000171690556040805142815290517f6d4b279f1788f74ba2f47792247cede2c5081366419a8d2e0d4b651182edbe6a9181900360200190a150565b600554620100009004600160a060020a031681565b600554620100009004600160a060020a0316331461272f57600080fd5b60125462010000900460ff16156127b6576040805160e560020a62461bcd02815260206004820152602160248201527f436f6e74726f6c6c65722066756e6374696f6e73206172652064697361626c6560448201527f6400000000000000000000000000000000000000000000000000000000000000606482015290519081900360840190fd5b601254604051600160a060020a03808416926301000000900416907f9fdb07212c6f92fd298affc4000712177664bc3c4cae5f61098d42da6d05be1e90600090a360128054600160a060020a0390921663010000000276ffffffffffffffffffffffffffffffffffffffff00000019909216919091179055565b6004805460408051602060026001851615610100026000190190941693909304601f810184900484028201840190925281815292918301828280156113545780601f1061132957610100808354040283529160200191611354565b600d5490565b600554600090600390620100009004600160a060020a0316331415612a9057601254610100900460ff1615612910576040805160e560020a62461bcd02815260206004820152600e60248201527f4d696e74696e672066726f7a656e000000000000000000000000000000000000604482015290519081900360640190fd5b600160a060020a0385161515612970576040805160e560020a62461bcd02815260206004820152600d60248201527f496e766573746f72206973203000000000000000000000000000000000000000604482015290519081900360640190fd5b61297d60008686866147b7565b15156129c1576040805160e560020a62461bcd02815260206004820152601260248201526000805160206156d8833981519152604482015290519081900360640190fd5b6129c9614bb6565b6001546129dc908563ffffffff614ba316565b600155600160a060020a038516600090815260208190526040902054612a08908563ffffffff614ba316565b600160a060020a03861660008181526020818152604091829020939093558051878152905191927f30385c845b448a36257a6a1716e6ad2e1bc2cbe333cde1e69fe849ad6511adfe92918290030190a2604080518581529051600160a060020a038716916000916000805160206156f88339815191529181900360200190a360019150612c81565b612a9a3382614a0a565b1515612aa557600080fd5b601254610100900460ff1615612b05576040805160e560020a62461bcd02815260206004820152600e60248201527f4d696e74696e672066726f7a656e000000000000000000000000000000000000604482015290519081900360640190fd5b600160a060020a0385161515612b65576040805160e560020a62461bcd02815260206004820152600d60248201527f496e766573746f72206973203000000000000000000000000000000000000000604482015290519081900360640190fd5b612b7260008686866147b7565b1515612bb6576040805160e560020a62461bcd02815260206004820152601260248201526000805160206156d8833981519152604482015290519081900360640190fd5b612bbe614bb6565b600154612bd1908563ffffffff614ba316565b600155600160a060020a038516600090815260208190526040902054612bfd908563ffffffff614ba316565b600160a060020a03861660008181526020818152604091829020939093558051878152905191927f30385c845b448a36257a6a1716e6ad2e1bc2cbe333cde1e69fe849ad6511adfe92918290030190a2604080518581529051600160a060020a038716916000916000805160206156f88339815191529181900360200190a3600191505b509392505050565b601154600090821115612c9b57600080fd5b73__TokenLib______________________________63b58ae1e2601784612cc061152c565b6040518463ffffffff1660e060020a02815260040180848152602001838152602001828152602001935050505060206040518083038186803b158015612d0557600080fd5b505af4158015612d19573d6000803e3d6000fd5b505050506040513d6020811015612d2f57600080fd5b505192915050565b600554606090600090819081908190620100009004600160a060020a03163314612d6057600080fd5b600160a060020a03861660009081526014602052604090206002015474010000000000000000000000000000000000000000900460ff161515612ded576040805160e560020a62461bcd02815260206004820152600f60248201527f4d6f64756c652061726368697665640000000000000000000000000000000000604482015290519081900360640190fd5b600160a060020a03868116600090815260146020526040902060010154161515612e61576040805160e560020a62461bcd02815260206004820152600e60248201527f4d6f64756c65206d697373696e67000000000000000000000000000000000000604482015290519081900360640190fd5b7f51b49bea2e14e62ed58a6d53c2a092b2f7a04dc7d826763ae2fa3301b982fc286014600088600160a060020a0316600160a060020a031681526020019081526020016000206003018742604051808060200184600160a060020a0316600160a060020a031681526020018381526020018281038252858181548152602001915080548015612f2d57602002820191906000526020600020906000905b825461010083900a900460ff16815260206001928301818104948501949093039092029101808411612efe5790505b505094505050505060405180910390a1600160a060020a03861660009081526014602090815260409182902060030180548351818402810184019094528084529091830182828015612fbc57602002820191906000526020600020906000905b825461010083900a900460ff16815260206001928301818104948501949093039092029101808411612f8d5790505b50505050509450600093505b8451841015613030576130258585815181101515612fe257fe5b6020908102909101810151600160a060020a03891660009081526014909252604090912060040180548790811061301557fe5b9060005260206000200154614c36565b600190930192612fc8565b505050600160a060020a03831660009081526014602090815260408083206005810154905480855260159093529220805490600019820182811061307057fe5b6000918252602080832090910154848352601590915260409091208054600160a060020a0390921691859081106130a357fe5b60009182526020808320919091018054600160a060020a031916600160a060020a0394909416939093179092558381526015909152604090206000198201906130ec908261555b565b50600019810183146131425760008281526015602052604081208054859260149290918490811061311957fe5b6000918252602080832090910154600160a060020a031683528201929092526040019020600501555b600160a060020a0386166000908152601460205260408120818155600181018054600160a060020a031916905560028101805474ffffffffffffffffffffffffffffffffffffffffff191690559061319d600383018261557f565b6131ab6004830160006155a4565b60058201600090555050505050505050565b601254610100900460ff1681565b6000611a298383602060405190810160405280600081525061160f565b60ff811660009081526013602090815260409182902080548351818402810184019094528084526060939283018282801561226857602002820191906000526020600020908154600160a060020a0316815260019091019060200180831161224a5750505050509050919050565b6060600b600101805480602002602001604051908101604052809291908181526020018280548015611bf457602002820191906000526020600020905b8154600160a060020a03168152600190910190602001808311613293575050505050905090565b600160a060020a03818116600090815260146020908152604080832080546001820154600283015460039093018054855181880281018801909652808652969788978897889760609795841695938416947401000000000000000000000000000000000000000090940460ff169392909183919083018282801561337b57602002820191906000526020600020906000905b825461010083900a900460ff1681526020600192830181810494850194909303909202910180841161334c5790505b505050505090509450945094509450945091939590929450565b600754600160a060020a031681565b601254610100900460ff1615613404576040805160e560020a62461bcd02815260206004820152600e60248201527f4d696e74696e672066726f7a656e000000000000000000000000000000000000604482015290519081900360640190fd5b604080518082018252601481527f667265657a654d696e74696e67416c6c6f776564000000000000000000000000602080830191825260095493517f2f0019f2000000000000000000000000000000000000000000000000000000008152600481019182528351602482015283519394600160a060020a031693632f0019f29386939283926044909101919080838360005b838110156134ae578181015183820152602001613496565b50505050905090810190601f1680156134db5780820380516001836020036101000a031916815260200191505b5092505050602060405180830381600087803b1580156134fa57600080fd5b505af115801561350e573d6000803e3d6000fd5b505050506040513d602081101561352457600080fd5b5051151561353157600080fd5b600554620100009004600160a060020a0316331461354e57600080fd5b6012805461ff0019166101001790556040805142815290517fac303fba0a810d910a7ec5499d828c1bdc0b91117ee0d547ff7c59ff4ae3f11b9181900360200190a150565b600554600090620100009004600160a060020a031633146135b357600080fd5b50815b6135d16135c9848463ffffffff614ba316565b600c54614e41565b811015611a0757600c54811080156136135750600c80546136119190839081106135f757fe5b600091825260209091200154600160a060020a031661207b565b155b1561368c5773__TokenLib______________________________631e4465b6600b836040518363ffffffff1660e060020a028152600401808381526020018281526020019250505060006040518083038186803b15801561367357600080fd5b505af4158015613687573d6000803e3d6000fd5b505050505b6001016135b6565b600954600160a060020a031681565b600854600160a060020a031681565b600f805460408051602060026001851615610100026000190190941693909304601f810184900484028201840190925281815292918301828280156113545780601f1061132957610100808354040283529160200191611354565b336000908152600260209081526040808320600160a060020a0386168452909152812054613741908363ffffffff614ba316565b336000818152600260209081526040808320600160a060020a0389168085529083529281902085905580519485525191937f8c5be1e5ebec7d5bd14f71427d1e84f3dd0314c0f7b2291e5b200ac8c7c3b925929081900390910190a350600192915050565b600160a060020a03918216600090815260026020908152604080832093909416825291909152205490565b60125460ff1681565b60006137e8858585856147b7565b151561382c576040805160e560020a62461bcd02815260206004820152601260248201526000805160206156d8833981519152604482015290519081900360640190fd5b613837858585614e57565b151561384257600080fd5b506001949350505050565b600061385d858585856000614fbc565b95945050505050565b600554620100009004600160a060020a0316331461388357600080fd5b61388c81615304565b50565b600554620100009004600160a060020a031633146138ac57600080fd5b6006546040805160e060020a63bf40fac1028152602060048201819052600e60248301527f4d6f64756c65526567697374727900000000000000000000000000000000000060448301529151600160a060020a039093169263bf40fac1926064808401939192918290030181600087803b15801561392957600080fd5b505af115801561393d573d6000803e3d6000fd5b505050506040513d602081101561395357600080fd5b505160078054600160a060020a031916600160a060020a039283161790556006546040805160e060020a63bf40fac1028152602060048201819052601560248301527f5365637572697479546f6b656e5265676973747279000000000000000000000060448301529151929093169263bf40fac192606480830193928290030181600087803b1580156139e557600080fd5b505af11580156139f9573d6000803e3d6000fd5b505050506040513d6020811015613a0f57600080fd5b505160088054600160a060020a031916600160a060020a039283161790556006546040805160e060020a63bf40fac1028152602060048201819052600f60248301527f466561747572655265676973747279000000000000000000000000000000000060448301529151929093169263bf40fac192606480830193928290030181600087803b158015613aa157600080fd5b505af1158015613ab5573d6000803e3d6000fd5b505050506040513d6020811015613acb57600080fd5b505160098054600160a060020a031916600160a060020a039283161781556006546040805160e060020a63bf40fac102815260206004820181905260248201949094527f506f6c79546f6b656e000000000000000000000000000000000000000000000060448201529051919093169263bf40fac19260648083019391928290030181600087803b158015613b5f57600080fd5b505af1158015613b73573d6000803e3d6000fd5b505050506040513d6020811015613b8957600080fd5b5051600a8054600160a060020a031916600160a060020a03909216919091179055565b60006060600080600060606000600560029054906101000a9004600160a060020a0316600160a060020a031633600160a060020a0316141515613bee57600080fd5b600554610100900460ff1615613c0357600080fd5b6005805461ff001916610100179055600754604080517fdc659907000000000000000000000000000000000000000000000000000000008152600160a060020a038f811660048301529151919092169163dc65990791602480830192600092919082900301818387803b158015613c7957600080fd5b505af1158015613c8d573d6000803e3d6000fd5b505050508b965086600160a060020a031663b4579d606040518163ffffffff1660e060020a028152600401600060405180830381600087803b158015613cd257600080fd5b505af1158015613ce6573d6000803e3d6000fd5b505050506040513d6000823e601f3d908101601f191682016040526020811015613d0f57600080fd5b810190808051640100000000811115613d2757600080fd5b82016020810184811115613d3a57600080fd5b8151856020820283011164010000000082111715613d5757600080fd5b5050929190505050955086600160a060020a031663a5e9d7c96040518163ffffffff1660e060020a028152600401602060405180830381600087803b158015613d9f57600080fd5b505af1158015613db3573d6000803e3d6000fd5b505050506040513d6020811015613dc957600080fd5b5051945088851115613e25576040805160e560020a62461bcd02815260206004820152600d60248201527f436f737420746f6f206869676800000000000000000000000000000000000000604482015290519081900360640190fd5b600a54604080517f095ea7b3000000000000000000000000000000000000000000000000000000008152600160a060020a038f81166004830152602482018990529151919092169163095ea7b39160448083019260209291908290030181600087803b158015613e9457600080fd5b505af1158015613ea8573d6000803e3d6000fd5b505050506040513d6020811015613ebe57600080fd5b50511515613f16576040805160e560020a62461bcd02815260206004820152601260248201527f496e73756666696369656e742066756e64730000000000000000000000000000604482015290519081900360640190fd5b6040517e774360000000000000000000000000000000000000000000000000000000008152602060048201908152602482018c9052600160a060020a0389169162774360918e918e9190819060440184848082843782019150509350505050602060405180830381600087803b158015613f8f57600080fd5b505af1158015613fa3573d6000803e3d6000fd5b505050506040513d6020811015613fb957600080fd5b5051600160a060020a038082166000908152601460205260409020600101549195501615614031576040805160e560020a62461bcd02815260206004820152600d60248201527f4d6f64756c652065786973747300000000000000000000000000000000000000604482015290519081900360640190fd5b600a54604080517f095ea7b3000000000000000000000000000000000000000000000000000000008152600160a060020a038781166004830152602482018c90529151919092169163095ea7b39160448083019260209291908290030181600087803b1580156140a057600080fd5b505af11580156140b4573d6000803e3d6000fd5b505050506040513d60208110156140ca57600080fd5b50511515614122576040805160e560020a62461bcd02815260206004820152601260248201527f496e73756666696369656e742066756e64730000000000000000000000000000604482015290519081900360640190fd5b86600160a060020a03166317d7de7c6040518163ffffffff1660e060020a028152600401602060405180830381600087803b15801561416057600080fd5b505af1158015614174573d6000803e3d6000fd5b505050506040513d602081101561418a57600080fd5b5051865160408051828152602083810282010190915291945080156141b9578160200160208202803883390190505b509150600090505b8551811015614277576013600087838151811015156141dc57fe5b602090810290910181015160ff16825281019190915260400160002054825183908390811061420757fe5b60209081029091010152855160139060009088908490811061422557fe5b60209081029190910181015160ff168252818101929092526040016000908120805460018082018355918352929091209091018054600160a060020a031916600160a060020a038716179055016141c1565b60e0604051908101604052808460001916815260200185600160a060020a031681526020018d600160a060020a03168152602001600015158152602001878152602001838152602001601560008660001916600019168152602001908152602001600020805490508152506014600086600160a060020a0316600160a060020a031681526020019081526020016000206000820151816000019060001916905560208201518160010160006101000a815481600160a060020a030219169083600160a060020a0316021790555060408201518160020160006101000a815481600160a060020a030219169083600160a060020a0316021790555060608201518160020160146101000a81548160ff02191690831515021790555060808201518160030190805190602001906143ad9291906155c2565b5060a082015180516143c9916004840191602090910190615664565b5060c082015181600501559050506015600084600019166000191681526020019081526020016000208490806001815401808255809150509060018203906000526020600020016000909192909190916101000a815481600160a060020a030219169083600160a060020a03160217905550507fa902846e90aed52d2fbbaeb545287d4605aa25564cab74181fab117022d9eeb986848e87898d426040518080602001886000191660001916815260200187600160a060020a0316600160a060020a0316815260200186600160a060020a0316600160a060020a03168152602001858152602001848152602001838152602001828103825289818151815260200191508051906020019060200280838360005b838110156144f45781810151838201526020016144dc565b505050509050019850505050505050505060405180910390a150506005805461ff001916905550505050505050505050565b60125463010000009004600160a060020a031681565b600554620100009004600160a060020a0316331461455957600080fd5b600a54600554604080517fa9059cbb00000000000000000000000000000000000000000000000000000000815262010000909204600160a060020a03908116600484015260248301859052905192169163a9059cbb916044808201926020929091908290030181600087803b1580156145d157600080fd5b505af11580156145e5573d6000803e3d6000fd5b505050506040513d60208110156145fb57600080fd5b5051151561388c576040805160e560020a62461bcd02815260206004820152601460248201527f496e73756666696369656e742062616c616e6365000000000000000000000000604482015290519081900360640190fd5b600554600090600490620100009004600160a060020a0316331415614702576011546000191161468257600080fd5b6011805460019081018255601880549182018155600052427fb13d2d76d1f4b7be834882e410b3e3a8afaf69f83600ae24db354391d2378d2e9091018190559054604080519283525190917f624ea167e477f9d39f7f4094b9dfe2e6346eb4a7aada54338db51abd554c4b9f919081900360200190a26011549150611469565b61470c3382614a0a565b151561471757600080fd5b6011546000191161472757600080fd5b6011805460019081018255601880549182018155600052427fb13d2d76d1f4b7be834882e410b3e3a8afaf69f83600ae24db354391d2378d2e9091018190559054604080519283525190917f624ea167e477f9d39f7f4094b9dfe2e6346eb4a7aada54338db51abd554c4b9f919081900360200190a2505060115490565b6000828211156147b157fe5b50900390565b60006147c4858585615390565b6147cd8561545c565b6147d68461545c565b61385d858585856001614fbc565b6000600160a060020a03831615156147fb57600080fd5b3360009081526020819052604090205482111561481757600080fd5b33600090815260208190526040902054614837908363ffffffff6147a516565b3360009081526020819052604080822092909255600160a060020a03851681522054614869908363ffffffff614ba316565b600160a060020a038416600081815260208181526040918290209390935580518581529051919233926000805160206156f88339815191529281900390910190a350600192915050565b600160a060020a0383166000908152602081905260408120548190841115614925576040805160e560020a62461bcd02815260206004820152600e60248201527f56616c756520746f6f2068696768000000000000000000000000000000000000604482015290519081900360640190fd5b61493285600086866147b7565b905061493c614bb6565b600160a060020a038516600090815260208190526040902054614965908563ffffffff6147a516565b600160a060020a038616600090815260208190526040902055600154614991908563ffffffff6147a516565b600155604080518581529051600160a060020a038716917f919f7e2092ffcc9d09f599be18d8152860b0c054df788a33bc549cdd9d0f15b1919081900360200190a2604080518581529051600091600160a060020a038816916000805160206156f88339815191529181900360200190a3949350505050565b600160a060020a0380831660008181526014602052604081206001015490928392911614614a82576040805160e560020a62461bcd02815260206004820152601060248201527f41646472657373206d69736d6174636800000000000000000000000000000000604482015290519081900360640190fd5b600160a060020a03841660009081526014602052604090206002015474010000000000000000000000000000000000000000900460ff1615614b0e576040805160e560020a62461bcd02815260206004820152600f60248201527f4d6f64756c652061726368697665640000000000000000000000000000000000604482015290519081900360640190fd5b5060005b600160a060020a038416600090815260146020526040902060030154811015614b9957600160a060020a0384166000908152601460205260409020600301805460ff8516919083908110614b6257fe5b60009182526020918290209181049091015460ff601f9092166101000a9004161415614b915760019150612065565b600101614b12565b5060009392505050565b81810182811015614bb057fe5b92915050565b73__TokenLib______________________________6307c20d976017614bda61152c565b6011546040518463ffffffff1660e060020a02815260040180848152602001838152602001828152602001935050505060006040518083038186803b158015614c2257600080fd5b505af41580156123dd573d6000803e3d6000fd5b60ff821660009081526013602052604081208054916060916000198401848110614c5c57fe5b600091825260208083209091015460ff88168352601390915260409091208054600160a060020a039092169186908110614c9257fe5b60009182526020808320919091018054600160a060020a031916600160a060020a03949094169390931790925560ff87168152601390915260409020600019840190614cde908261555b565b50600019830184146115255760ff851660009081526013602052604081208054601492919087908110614d0d57fe5b6000918252602080832090910154600160a060020a03168352828101939093526040918201902060030180548251818502810185019093528083529192909190830182828015614d9a57602002820191906000526020600020906000905b825461010083900a900460ff16815260206001928301818104948501949093039092029101808411614d6b5790505b50505050509150600090505b8151811015611525578460ff168282815181101515614dc157fe5b9060200190602002015160ff161415614e395760ff8516600090815260136020526040812080548692601492909184908110614df957fe5b6000918252602080832090910154600160a060020a031683528201929092526040019020600401805483908110614e2c57fe5b6000918252602090912001555b600101614da6565b6000818310614e505781611a29565b5090919050565b6000600160a060020a0383161515614e6e57600080fd5b600160a060020a038416600090815260208190526040902054821115614e9357600080fd5b600160a060020a0384166000908152600260209081526040808320338452909152902054821115614ec357600080fd5b600160a060020a038416600090815260208190526040902054614eec908363ffffffff6147a516565b600160a060020a038086166000908152602081905260408082209390935590851681522054614f21908363ffffffff614ba316565b600160a060020a03808516600090815260208181526040808320949094559187168152600282528281203382529091522054614f63908363ffffffff6147a516565b600160a060020a03808616600081815260026020908152604080832033845282529182902094909455805186815290519287169391926000805160206156f8833981519152929181900390910190a35060019392505050565b6000806000806000806000808a60105481811515614fd657fe5b061561502c576040805160e560020a62461bcd02815260206004820152601560248201527f496e636f7272656374206772616e756c61726974790000000000000000000000604482015290519081900360640190fd5b60125460ff1615156152ee57600260005260136020527f0b9d2c0c271bb30544eb78c59bdaebdae2728e5f65814c07768a0abe90ed192354151561507357600198506152f3565b60009750600096506000955060009450600092505b600260005260136020527f0b9d2c0c271bb30544eb78c59bdaebdae2728e5f65814c07768a0abe90ed19235460ff841610156152c057600260005260136020527f0b9d2c0c271bb30544eb78c59bdaebdae2728e5f65814c07768a0abe90ed1923805460ff85169081106150f857fe5b6000918252602080832090910154600160a060020a0316808352601490915260409091206002015490945060ff740100000000000000000000000000000000000000009091041615156152b5576001945083600160a060020a031663de6ee1bc8f8f8f8f8f6040518663ffffffff1660e060020a0281526004018086600160a060020a0316600160a060020a0316815260200185600160a060020a0316600160a060020a031681526020018481526020018060200183151515158152602001828103825284818151815260200191508051906020019080838360005b838110156151ec5781810151838201526020016151d4565b50505050905090810190601f1680156152195780820380516001836020036101000a031916815260200191505b509650505050505050602060405180830381600087803b15801561523c57600080fd5b505af1158015615250573d6000803e3d6000fd5b505050506040513d602081101561526657600080fd5b50519150600082600381111561527857fe5b141561528357600197505b600282600381111561529157fe5b141561529c57600196505b60038260038111156152aa57fe5b14156152b557600195505b600190920191615088565b846152cc5760016152e7565b856152e457876152dc57866152df565b60005b6152e7565b60015b98506152f3565b600098505b505050505050505095945050505050565b600160a060020a038116151561531957600080fd5b600554604051600160a060020a038084169262010000900416907f8be0079c531659141344cd1fd0a4f28419497f9722a3daafe3b4186f6b6457e090600090a360058054600160a060020a03909216620100000275ffffffffffffffffffffffffffffffffffffffff000019909216919091179055565b73__TokenLib______________________________6317dd222c600b8585856153b88861207b565b6153c18a61207b565b6040518763ffffffff1660e060020a0281526004018087815260200186600160a060020a0316600160a060020a0316815260200185600160a060020a0316600160a060020a03168152602001848152602001838152602001828152602001965050505050505060006040518083038186803b15801561543f57600080fd5b505af4158015615453573d6000803e3d6000fd5b50505050505050565b600160a060020a038116600090815260166020526040902073__TokenLib______________________________906307c20d97906154998461207b565b6011546040518463ffffffff1660e060020a02815260040180848152602001838152602001828152602001935050505060006040518083038186803b15801561151157600080fd5b828054600181600116156101000203166002900490600052602060002090601f016020900481019282601f106155225782800160ff1982351617855561554f565b8280016001018555821561554f579182015b8281111561554f578235825591602001919060010190615534565b5061146992915061569f565b815481835581811115611a0757600083815260209020611a0791810190830161569f565b50805460008255601f01602090049060005260206000209081019061388c919061569f565b508054600082559060005260206000209081019061388c919061569f565b82805482825590600052602060002090601f016020900481019282156156585791602002820160005b8382111561562957835183826101000a81548160ff021916908360ff16021790555092602001926001016020816000010492830192600103026155eb565b80156156565782816101000a81549060ff0219169055600101602081600001049283019260010302615629565b505b506114699291506156b9565b82805482825590600052602060002090810192821561554f579160200282015b8281111561554f578251825591602001919060010190615684565b61153091905b8082111561146957600081556001016156a5565b61153091905b8082111561146957805460ff191681556001016156bf56005472616e73666572206e6f742076616c69640000000000000000000000000000ddf252ad1be2c89b69c2b068fc378daa952ba7f163c4a11628f55a4df523b3efa165627a7a72305820a4a585f570b9271aef2da70ac8f7e337ba3ad4d5c802cd936febb4656c38653a0029",
  "source": "pragma solidity ^0.4.24;\n\nimport \"openzeppelin-solidity/contracts/math/Math.sol\";\nimport \"../interfaces/IERC20.sol\";\nimport \"../interfaces/IModule.sol\";\nimport \"../interfaces/IModuleFactory.sol\";\nimport \"../interfaces/IModuleRegistry.sol\";\nimport \"../interfaces/IFeatureRegistry.sol\";\nimport \"../modules/TransferManager/ITransferManager.sol\";\nimport \"../RegistryUpdater.sol\";\nimport \"../libraries/Util.sol\";\nimport \"openzeppelin-solidity/contracts/ReentrancyGuard.sol\";\nimport \"openzeppelin-solidity/contracts/token/ERC20/StandardToken.sol\";\nimport \"openzeppelin-solidity/contracts/token/ERC20/DetailedERC20.sol\";\nimport \"../libraries/TokenLib.sol\";\n\n/**\n* @title Security Token contract\n* @notice SecurityToken is an ERC20 token with added capabilities:\n* @notice - Implements the ST-20 Interface\n* @notice - Transfers are restricted\n* @notice - Modules can be attached to it to control its behaviour\n* @notice - ST should not be deployed directly, but rather the SecurityTokenRegistry should be used\n* @notice - ST does not inherit from ISecurityToken due to:\n* @notice - https://github.com/ethereum/solidity/issues/4847\n*/\ncontract SecurityToken is StandardToken, DetailedERC20, ReentrancyGuard, RegistryUpdater {\n    using SafeMath for uint256;\n\n    TokenLib.InvestorDataStorage investorData;\n\n    // Used to hold the semantic version data\n    struct SemanticVersion {\n        uint8 major;\n        uint8 minor;\n        uint8 patch;\n    }\n\n    SemanticVersion securityTokenVersion;\n\n    // off-chain data \n    string public tokenDetails;\n\n    uint8 constant PERMISSION_KEY = 1;\n    uint8 constant TRANSFER_KEY = 2;\n    uint8 constant MINT_KEY = 3;\n    uint8 constant CHECKPOINT_KEY = 4;\n    uint8 constant BURN_KEY = 5;\n\n    uint256 public granularity;\n\n    // Value of current checkpoint\n    uint256 public currentCheckpointId;\n\n    // Used to temporarily halt all transactions\n    bool public transfersFrozen;\n\n    // Used to permanently halt all minting\n    bool public mintingFrozen;\n\n    // Use to permanently halt controller actions\n    bool public controllerDisabled;\n\n    // address whitelisted by issuer as controller\n    address public controller;\n\n    // Records added modules - module list should be order agnostic!\n    mapping (uint8 => address[]) modules;\n\n    // Records information about the module\n    mapping (address => TokenLib.ModuleData) modulesToData;\n\n    // Records added module names - module list should be order agnostic!\n    mapping (bytes32 => address[]) names;\n\n    // Map each investor to a series of checkpoints\n    mapping (address => TokenLib.Checkpoint[]) checkpointBalances;\n\n    // List of checkpoints that relate to total supply\n    TokenLib.Checkpoint[] checkpointTotalSupply;\n\n    // Times at which each checkpoint was created\n    uint256[] checkpointTimes;\n\n    // Emit at the time when module get added\n    event ModuleAdded(\n        uint8[] _types,\n        bytes32 _name,\n        address _moduleFactory,\n        address _module,\n        uint256 _moduleCost,\n        uint256 _budget,\n        uint256 _timestamp\n    );\n\n    // Emit when the token details get updated\n    event UpdateTokenDetails(string _oldDetails, string _newDetails);\n    // Emit when the granularity get changed\n    event GranularityChanged(uint256 _oldGranularity, uint256 _newGranularity);\n    // Emit when Module get archived from the securityToken\n    event ModuleArchived(uint8[] _types, address _module, uint256 _timestamp);\n    // Emit when Module get unarchived from the securityToken\n    event ModuleUnarchived(uint8[] _types, address _module, uint256 _timestamp);\n    // Emit when Module get removed from the securityToken\n    event ModuleRemoved(uint8[] _types, address _module, uint256 _timestamp);\n    // Emit when the budget allocated to a module is changed\n    event ModuleBudgetChanged(uint8[] _moduleTypes, address _module, uint256 _oldBudget, uint256 _budget);\n    // Emit when transfers are frozen or unfrozen\n    event FreezeTransfers(bool _status, uint256 _timestamp);\n    // Emit when new checkpoint created\n    event CheckpointCreated(uint256 indexed _checkpointId, uint256 _timestamp);\n    // Emit when is permanently frozen by the issuer\n    event FreezeMinting(uint256 _timestamp);\n    // Change the STR address in the event of a upgrade\n    event ChangeSTRAddress(address indexed _oldAddress, address indexed _newAddress);\n    // Events to log minting and burning\n    event Minted(address indexed _to, uint256 _value);\n    event Burnt(address indexed _from, uint256 _value);\n\n    // Events to log controller actions\n    event SetController(address indexed _oldController, address indexed _newController);\n    event ForceTransfer(address indexed _controller, address indexed _from, address indexed _to, uint256 _value, bool _verifyTransfer, bytes _data);\n    event ForceBurn(address indexed _controller, address indexed _from, uint256 _value, bool _verifyTransfer, bytes _data);\n    event DisableController(uint256 _timestamp);\n\n    function _isModule(address _module, uint8 _type) internal view returns (bool) {\n        require(modulesToData[_module].module == _module, \"Address mismatch\");\n        require(!modulesToData[_module].isArchived, \"Module archived\");\n        for (uint256 i = 0; i < modulesToData[_module].moduleTypes.length; i++) {\n            if (modulesToData[_module].moduleTypes[i] == _type) {\n                return true;\n            }\n        }\n        return false;\n    }\n\n    // Require msg.sender to be the specified module type\n    modifier onlyModule(uint8 _type) {\n        require(_isModule(msg.sender, _type));\n        _;\n    }\n\n    // Require msg.sender to be the specified module type or the owner of the token\n    modifier onlyModuleOrOwner(uint8 _type) {\n        if (msg.sender == owner) {\n            _;\n        } else {\n            require(_isModule(msg.sender, _type));\n            _;\n        }\n    }\n\n    modifier checkGranularity(uint256 _value) {\n        require(_value % granularity == 0, \"Incorrect granularity\");\n        _;\n    }\n\n    modifier isMintingAllowed() {\n        require(!mintingFrozen, \"Minting frozen\");\n        _;\n    }\n\n    modifier isEnabled(string _nameKey) {\n        require(IFeatureRegistry(featureRegistry).getFeatureStatus(_nameKey));\n        _;\n    }\n\n    /**\n     * @notice Revert if called by an account which is not a controller\n     */\n    modifier onlyController() {\n        require(msg.sender == controller, \"Not controller\");\n        require(!controllerDisabled, \"Controller disabled\");\n        _;\n    }\n\n    /**\n     * @notice Constructor\n     * @param _name Name of the SecurityToken\n     * @param _symbol Symbol of the Token\n     * @param _decimals Decimals for the securityToken\n     * @param _granularity granular level of the token\n     * @param _tokenDetails Details of the token that are stored off-chain\n     * @param _polymathRegistry Contract address of the polymath registry\n     */\n    constructor (\n        string _name,\n        string _symbol,\n        uint8 _decimals,\n        uint256 _granularity,\n        string _tokenDetails,\n        address _polymathRegistry\n    )\n    public\n    DetailedERC20(_name, _symbol, _decimals)\n    RegistryUpdater(_polymathRegistry)\n    {\n        //When it is created, the owner is the STR\n        updateFromRegistry();\n        tokenDetails = _tokenDetails;\n        granularity = _granularity;\n        securityTokenVersion = SemanticVersion(0,0,2);\n    }\n\n    /**\n     * @notice Attachs a module to the SecurityToken\n     * @dev  E.G.: On deployment (through the STR) ST gets a TransferManager module attached to it\n     * @dev to control restrictions on transfers.\n     * @param _moduleFactory is the address of the module factory to be added\n     * @param _data is data packed into bytes used to further configure the module (See STO usage)\n     * @param _maxCost max amount of POLY willing to pay to the module.\n     * @param _budget max amount of ongoing POLY willing to assign to the module.\n     */\n    function addModule(\n        address _moduleFactory,\n        bytes _data,\n        uint256 _maxCost,\n        uint256 _budget\n    ) external onlyOwner nonReentrant {\n        //Check that the module factory exists in the ModuleRegistry - will throw otherwise\n        IModuleRegistry(moduleRegistry).useModule(_moduleFactory);\n        IModuleFactory moduleFactory = IModuleFactory(_moduleFactory);\n        uint8[] memory moduleTypes = moduleFactory.getTypes();\n        uint256 moduleCost = moduleFactory.getSetupCost();\n        require(moduleCost <= _maxCost, \"Cost too high\");\n        //Approve fee for module\n        require(ERC20(polyToken).approve(_moduleFactory, moduleCost), \"Insufficient funds\");\n        //Creates instance of module from factory\n        address module = moduleFactory.deploy(_data);\n        require(modulesToData[module].module == address(0), \"Module exists\");\n        //Approve ongoing budget\n        require(ERC20(polyToken).approve(module, _budget), \"Insufficient funds\");\n        //Add to SecurityToken module map\n        bytes32 moduleName = moduleFactory.getName();\n        uint256[] memory moduleIndexes = new uint256[](moduleTypes.length);\n        uint256 i;\n        for (i = 0; i < moduleTypes.length; i++) {\n            moduleIndexes[i] = modules[moduleTypes[i]].length;\n            modules[moduleTypes[i]].push(module);\n        }\n        modulesToData[module] = TokenLib.ModuleData(moduleName, module, _moduleFactory, false, moduleTypes, moduleIndexes, names[moduleName].length);\n        names[moduleName].push(module);\n        //Emit log event\n        emit ModuleAdded(moduleTypes, moduleName, _moduleFactory, module, moduleCost, _budget, now);\n    }\n\n    /**\n    * @notice Archives a module attached to the SecurityToken\n    * @param _module address of module to archive\n    */\n    function archiveModule(address _module) external onlyOwner {\n        TokenLib.archiveModule(modulesToData[_module], _module);\n    }\n\n    /**\n    * @notice Unarchives a module attached to the SecurityToken\n    * @param _module address of module to unarchive\n    */\n    function unarchiveModule(address _module) external onlyOwner {\n        TokenLib.unarchiveModule(modulesToData[_module], _module);\n    }\n\n    /**\n    * @notice Removes a module attached to the SecurityToken\n    * @param _module address of module to unarchive\n    */\n    function removeModule(address _module) external onlyOwner {\n        require(modulesToData[_module].isArchived, \"Module archived\");\n        require(modulesToData[_module].module != address(0), \"Module missing\");\n        emit ModuleRemoved(modulesToData[_module].moduleTypes, _module, now);\n        // Remove from module type list\n        uint8[] memory moduleTypes = modulesToData[_module].moduleTypes;\n        for (uint256 i = 0; i < moduleTypes.length; i++) {\n            _removeModuleWithIndex(moduleTypes[i], modulesToData[_module].moduleIndexes[i]);\n            /* modulesToData[_module].moduleType[moduleTypes[i]] = false; */\n        }\n        // Remove from module names list\n        uint256 index = modulesToData[_module].nameIndex;\n        bytes32 name = modulesToData[_module].name;\n        uint256 length = names[name].length;\n        names[name][index] = names[name][length - 1];\n        names[name].length = length - 1;\n        if ((length - 1) != index) {\n            modulesToData[names[name][index]].nameIndex = index;\n        }\n        // Remove from modulesToData\n        delete modulesToData[_module];\n    }\n\n    /**\n    * @notice Internal - Removes a module attached to the SecurityToken by index\n    */\n    function _removeModuleWithIndex(uint8 _type, uint256 _index) internal {\n        uint256 length = modules[_type].length;\n        modules[_type][_index] = modules[_type][length - 1];\n        modules[_type].length = length - 1;\n\n        if ((length - 1) != _index) {\n            //Need to find index of _type in moduleTypes of module we are moving\n            uint8[] memory newTypes = modulesToData[modules[_type][_index]].moduleTypes;\n            for (uint256 i = 0; i < newTypes.length; i++) {\n                if (newTypes[i] == _type) {\n                    modulesToData[modules[_type][_index]].moduleIndexes[i] = _index;\n                }\n            }\n        }\n    }\n\n    /**\n     * @notice Returns the data associated to a module\n     * @param _module address of the module\n     * @return bytes32 name\n     * @return address module address\n     * @return address module factory address\n     * @return bool module archived\n     * @return uint8 module type\n     */\n    function getModule(address _module) external view returns (bytes32, address, address, bool, uint8[]) {\n        return (modulesToData[_module].name,\n        modulesToData[_module].module,\n        modulesToData[_module].moduleFactory,\n        modulesToData[_module].isArchived,\n        modulesToData[_module].moduleTypes);\n    }\n\n    /**\n     * @notice returns a list of modules that match the provided name\n     * @param _name name of the module\n     * @return address[] list of modules with this name\n     */\n    function getModulesByName(bytes32 _name) external view returns (address[]) {\n        return names[_name];\n    }\n\n    /**\n     * @notice returns a list of modules that match the provided module type\n     * @param _type type of the module\n     * @return address[] list of modules with this type\n     */\n    function getModulesByType(uint8 _type) external view returns (address[]) {\n        return modules[_type];\n    }\n\n    /**\n    * @notice allows the owner to withdraw unspent POLY stored by them on the ST.\n    * @dev Owner can transfer POLY to the ST which will be used to pay for modules that require a POLY fee.\n    * @param _value amount of POLY to withdraw\n    */\n    function withdrawPoly(uint256 _value) external onlyOwner {\n        require(ERC20(polyToken).transfer(owner, _value), \"Insufficient balance\");\n    }\n\n    /**\n    * @notice allows owner to approve more POLY to one of the modules\n    * @param _module module address\n    * @param _budget new budget\n    */\n    function changeModuleBudget(address _module, uint256 _budget) external onlyOwner {\n        require(modulesToData[_module].module != address(0), \"Module missing\");\n        uint256 _currentAllowance = IERC20(polyToken).allowance(address(this), _module);\n        if (_budget < _currentAllowance) {\n            require(IERC20(polyToken).decreaseApproval(_module, _currentAllowance.sub(_budget)), \"Insufficient balance\");\n        } else {\n            require(IERC20(polyToken).increaseApproval(_module, _budget.sub(_currentAllowance)), \"Insufficient balance\");\n        }\n        emit ModuleBudgetChanged(modulesToData[_module].moduleTypes, _module, _currentAllowance, _budget);\n    }\n\n    /**\n     * @notice updates the tokenDetails associated with the token\n     * @param _newTokenDetails New token details\n     */\n    function updateTokenDetails(string _newTokenDetails) external onlyOwner {\n        emit UpdateTokenDetails(tokenDetails, _newTokenDetails);\n        tokenDetails = _newTokenDetails;\n    }\n\n    /**\n    * @notice allows owner to change token granularity\n    * @param _granularity granularity level of the token\n    */\n    function changeGranularity(uint256 _granularity) external onlyOwner {\n        require(_granularity != 0, \"Incorrect granularity\");\n        emit GranularityChanged(granularity, _granularity);\n        granularity = _granularity;\n    }\n\n    /**\n    * @notice keeps track of the number of non-zero token holders\n    * @param _from sender of transfer\n    * @param _to receiver of transfer\n    * @param _value value of transfer\n    */\n    function _adjustInvestorCount(address _from, address _to, uint256 _value) internal {\n        TokenLib.adjustInvestorCount(investorData, _from, _to, _value, balanceOf(_to), balanceOf(_from));\n    }\n\n    /**\n    * @notice removes addresses with zero balances from the investors list\n    * @param _start Index in investor list at which to start removing zero balances\n    * @param _iters Max number of iterations of the for loop\n    * NB - pruning this list will mean you may not be able to iterate over investors on-chain as of a historical checkpoint\n    */\n    function pruneInvestors(uint256 _start, uint256 _iters) external onlyOwner {\n        for (uint256 i = _start; i < Math.min256(_start.add(_iters), investorData.investors.length); i++) {\n            if ((i < investorData.investors.length) && (balanceOf(investorData.investors[i]) == 0)) {\n                TokenLib.pruneInvestors(investorData, i);\n            }\n        }\n    }\n\n    /**\n     * @notice returns an array of investors\n     * NB - this length may differ from investorCount if list has not been pruned of zero balance investors\n     * @return length\n     */\n    function getInvestors() external view returns(address[]) {\n        return investorData.investors;\n    }\n\n    /**\n     * @notice returns the investor count\n     */\n    function getInvestorCount() external view returns(uint256) {\n        return investorData.investorCount;\n    }\n\n    /**\n     * @notice freezes transfers\n     */\n    function freezeTransfers() external onlyOwner {\n        require(!transfersFrozen, \"transfers already frozen\");\n        transfersFrozen = true;\n        emit FreezeTransfers(true, now);\n    }\n\n    /**\n     * @notice unfreeze transfers\n     */\n    function unfreezeTransfers() external onlyOwner {\n        require(transfersFrozen, \"transfer are not fronzen\");\n        transfersFrozen = false;\n        emit FreezeTransfers(false, now);\n    }\n\n    /**\n     * @notice Internal - adjusts totalSupply at checkpoint after minting or burning tokens\n     */\n    function _adjustTotalSupplyCheckpoints() internal {\n        TokenLib.adjustCheckpoints(checkpointTotalSupply, totalSupply(), currentCheckpointId);\n    }\n\n    /**\n     * @notice Internal - adjusts token holder balance at checkpoint after a token transfer\n     * @param _investor address of the token holder affected\n     */\n    function _adjustBalanceCheckpoints(address _investor) internal {\n        TokenLib.adjustCheckpoints(checkpointBalances[_investor], balanceOf(_investor), currentCheckpointId);\n    }\n\n    /**\n     * @notice Overloaded version of the transfer function\n     * @param _to receiver of transfer\n     * @param _value value of transfer\n     * @return bool success\n     */\n    function transfer(address _to, uint256 _value) public returns (bool success) {\n        return transferWithData(_to, _value, \"\");\n    }\n\n    /**\n     * @notice Overloaded version of the transfer function\n     * @param _to receiver of transfer\n     * @param _value value of transfer\n     * @param _data data to indicate validation\n     * @return bool success\n     */\n    function transferWithData(address _to, uint256 _value, bytes _data) public returns (bool success) {\n        require(_updateTransfer(msg.sender, _to, _value, _data), \"Transfer not valid\");\n        require(super.transfer(_to, _value));\n        return true;\n    }\n\n    /**\n     * @notice Overloaded version of the transferFrom function\n     * @param _from sender of transfer\n     * @param _to receiver of transfer\n     * @param _value value of transfer\n     * @return bool success\n     */\n    function transferFrom(address _from, address _to, uint256 _value) public returns(bool) {\n        return transferFromWithData(_from, _to, _value, \"\");\n    }\n\n    /**\n     * @notice Overloaded version of the transferFrom function\n     * @param _from sender of transfer\n     * @param _to receiver of transfer\n     * @param _value value of transfer\n     * @param _data data to indicate validation\n     * @return bool success\n     */\n    function transferFromWithData(address _from, address _to, uint256 _value, bytes _data) public returns(bool) {\n        require(_updateTransfer(_from, _to, _value, _data), \"Transfer not valid\");\n        require(super.transferFrom(_from, _to, _value));\n        return true;\n    }\n\n    /**\n     * @notice Updates internal variables when performing a transfer\n     * @param _from sender of transfer\n     * @param _to receiver of transfer\n     * @param _value value of transfer\n     * @param _data data to indicate validation\n     * @return bool success\n     */\n    function _updateTransfer(address _from, address _to, uint256 _value, bytes _data) internal returns(bool) {\n        _adjustInvestorCount(_from, _to, _value);\n        _adjustBalanceCheckpoints(_from);\n        _adjustBalanceCheckpoints(_to);\n        return _verifyTransfer(_from, _to, _value, _data, true);\n    }\n\n    /**\n     * @notice validate transfer with TransferManager module if it exists\n     * @dev TransferManager module has a key of 2\n     * @param _from sender of transfer\n     * @param _to receiver of transfer\n     * @param _value value of transfer\n     * @param _data data to indicate validation\n     * @param _isTransfer whether transfer is being executed\n     * @return bool\n     */\n    function _verifyTransfer(\n        address _from,\n        address _to,\n        uint256 _value,\n        bytes _data,\n        bool _isTransfer\n        ) internal checkGranularity(_value) returns (bool) {\n        if (!transfersFrozen) {\n            if (modules[TRANSFER_KEY].length == 0) {\n                return true;\n            }\n            bool isInvalid = false;\n            bool isValid = false;\n            bool isForceValid = false;\n            bool unarchived = false;\n            address module;\n            for (uint8 i = 0; i < modules[TRANSFER_KEY].length; i++) {\n                module = modules[TRANSFER_KEY][i];\n                if (!modulesToData[module].isArchived) {\n                    unarchived = true;\n                    ITransferManager.Result valid = ITransferManager(module).verifyTransfer(_from, _to, _value, _data, _isTransfer);\n                    if (valid == ITransferManager.Result.INVALID) {\n                        isInvalid = true;\n                    }\n                    if (valid == ITransferManager.Result.VALID) {\n                        isValid = true;\n                    }\n                    if (valid == ITransferManager.Result.FORCE_VALID) {\n                        isForceValid = true;\n                    }\n                }\n            }\n            // If no unarchived modules, return true by default\n            return unarchived ? (isForceValid ? true : (isInvalid ? false : isValid)) : true;\n        }\n        return false;\n    }\n\n    /**\n     * @notice validates a transfer with a TransferManager module if it exists\n     * @dev TransferManager module has a key of 2\n     * @param _from sender of transfer\n     * @param _to receiver of transfer\n     * @param _value value of transfer\n     * @param _data data to indicate validation\n     * @return bool\n     */\n    function verifyTransfer(address _from, address _to, uint256 _value, bytes _data) public returns (bool) {\n        return _verifyTransfer(_from, _to, _value, _data, false);\n    }\n\n    /**\n     * @notice Permanently freeze minting of this security token.\n     * @dev It MUST NOT be possible to increase `totalSuppy` after this function is called.\n     */\n    function freezeMinting() external isMintingAllowed() isEnabled(\"freezeMintingAllowed\") onlyOwner {\n        mintingFrozen = true;\n        emit FreezeMinting(now);\n    }\n\n    /**\n     * @notice mints new tokens and assigns them to the target _investor.\n     * @dev Can only be called by the issuer or STO attached to the token\n     * @param _investor Address where the minted tokens will be delivered\n     * @param _value Number of tokens be minted\n     * @return success\n     */\n    function mint(address _investor, uint256 _value) public returns (bool success) {\n        return mintWithData(_investor, _value, \"\");\n    }\n\n    /**\n     * @notice mints new tokens and assigns them to the target _investor.\n     * @dev Can only be called by the issuer or STO attached to the token\n     * @param _investor Address where the minted tokens will be delivered\n     * @param _value Number of tokens be minted\n     * @param _data data to indicate validation\n     * @return success\n     */\n    function mintWithData(\n        address _investor,\n        uint256 _value,\n        bytes _data\n        ) public onlyModuleOrOwner(MINT_KEY) isMintingAllowed() returns (bool success) {\n        require(_investor != address(0), \"Investor is 0\");\n        require(_updateTransfer(address(0), _investor, _value, _data), \"Transfer not valid\");\n        _adjustTotalSupplyCheckpoints();\n        totalSupply_ = totalSupply_.add(_value);\n        balances[_investor] = balances[_investor].add(_value);\n        emit Minted(_investor, _value);\n        emit Transfer(address(0), _investor, _value);\n        return true;\n    }\n\n    /**\n     * @notice mints new tokens and assigns them to the target _investor.\n     * @dev Can only be called by the issuer or STO attached to the token.\n     * @param _investors A list of addresses to whom the minted tokens will be dilivered\n     * @param _values A list of number of tokens get minted and transfer to corresponding address of the investor from _investor[] list\n     * @return success\n     */\n    function mintMulti(address[] _investors, uint256[] _values) external onlyModuleOrOwner(MINT_KEY) returns (bool success) {\n        require(_investors.length == _values.length, \"Incorrect inputs\");\n        for (uint256 i = 0; i < _investors.length; i++) {\n            mint(_investors[i], _values[i]);\n        }\n        return true;\n    }\n\n    /**\n     * @notice Validate permissions with PermissionManager if it exists, If no Permission return false\n     * @dev Note that IModule withPerm will allow ST owner all permissions anyway\n     * @dev this allows individual modules to override this logic if needed (to not allow ST owner all permissions)\n     * @param _delegate address of delegate\n     * @param _module address of PermissionManager module\n     * @param _perm the permissions\n     * @return success\n     */\n    function checkPermission(address _delegate, address _module, bytes32 _perm) public view returns(bool) {\n        return TokenLib.checkPermission(modules[PERMISSION_KEY], _delegate, _module, _perm);\n    }\n\n    function _burn(address _from, uint256 _value, bytes _data) internal returns(bool) {\n        require(_value <= balances[_from], \"Value too high\");\n        bool verified = _updateTransfer(_from, address(0), _value, _data);\n        _adjustTotalSupplyCheckpoints();\n        balances[_from] = balances[_from].sub(_value);\n        totalSupply_ = totalSupply_.sub(_value);\n        emit Burnt(_from, _value);\n        emit Transfer(_from, address(0), _value);\n        return verified;\n    }\n\n    /**\n     * @notice Burn function used to burn the securityToken\n     * @param _value No. of tokens that get burned\n     * @param _data data to indicate validation\n     */\n    function burnWithData(uint256 _value, bytes _data) public onlyModule(BURN_KEY) {\n        require(_burn(msg.sender, _value, _data), \"Burn not valid\");\n    }\n\n    /**\n     * @notice Burn function used to burn the securityToken on behalf of someone else\n     * @param _from Address for whom to burn tokens\n     * @param _value No. of tokens that get burned\n     * @param _data data to indicate validation\n     */\n    function burnFromWithData(address _from, uint256 _value, bytes _data) public onlyModule(BURN_KEY) {\n        require(_value <= allowed[_from][msg.sender], \"Value too high\");\n        allowed[_from][msg.sender] = allowed[_from][msg.sender].sub(_value);\n        require(_burn(_from, _value, _data), \"Burn not valid\");\n    }\n\n    /**\n     * @notice Creates a checkpoint that can be used to query historical balances / totalSuppy\n     * @return uint256\n     */\n    function createCheckpoint() external onlyModuleOrOwner(CHECKPOINT_KEY) returns(uint256) {\n        require(currentCheckpointId < 2**256 - 1);\n        currentCheckpointId = currentCheckpointId + 1;\n        checkpointTimes.push(now);\n        emit CheckpointCreated(currentCheckpointId, now);\n        return currentCheckpointId;\n    }\n\n    /**\n     * @notice Gets list of times that checkpoints were created\n     * @return List of checkpoint times\n     */\n    function getCheckpointTimes() external view returns(uint256[]) {\n        return checkpointTimes;\n    }\n\n    /**\n     * @notice Queries totalSupply as of a defined checkpoint\n     * @param _checkpointId Checkpoint ID to query\n     * @return uint256\n     */\n    function totalSupplyAt(uint256 _checkpointId) external view returns(uint256) {\n        require(_checkpointId <= currentCheckpointId);\n        return TokenLib.getValueAt(checkpointTotalSupply, _checkpointId, totalSupply());\n    }\n\n    /**\n     * @notice Queries balances as of a defined checkpoint\n     * @param _investor Investor to query balance for\n     * @param _checkpointId Checkpoint ID to query as of\n     */\n    function balanceOfAt(address _investor, uint256 _checkpointId) public view returns(uint256) {\n        require(_checkpointId <= currentCheckpointId);\n        return TokenLib.getValueAt(checkpointBalances[_investor], _checkpointId, balanceOf(_investor));\n    }\n\n    /**\n     * @notice Used by the issuer to set the controller addresses\n     * @param _controller address of the controller\n     */\n    function setController(address _controller) public onlyOwner {\n        require(!controllerDisabled,\"Controller functions are disabled\");\n        emit SetController(controller, _controller);\n        controller = _controller;\n    }\n\n    /**\n     * @notice Use by the issuer to permanently disable controller functionality\n     * @dev enabled via feature switch \"disableControllerAllowed\"\n     */\n    function disableController() external isEnabled(\"disableControllerAllowed\") onlyOwner {\n        require(!controllerDisabled,\"Controller functions are disabled\");\n        controllerDisabled = true;\n        delete controller;\n        emit DisableController(now);\n    }\n\n    /**\n     * @notice Use by a controller to execute a forced transfer\n     * @param _from address from which to take tokens\n     * @param _to address where to send tokens\n     * @param _value amount of tokens to transfer\n     * @param _data data to indicate validation\n     * @param _log data attached to the transfer by controller to emit in event\n     */\n    function forceTransfer(address _from, address _to, uint256 _value, bytes _data, bytes _log) public onlyController {\n        require(_to != address(0));\n        require(_value <= balances[_from]);\n        bool verified = _updateTransfer(_from, _to, _value, _data);\n        balances[_from] = balances[_from].sub(_value);\n        balances[_to] = balances[_to].add(_value);\n        emit ForceTransfer(msg.sender, _from, _to, _value, verified, _log);\n        emit Transfer(_from, _to, _value);\n    }\n\n    /**\n     * @notice Use by a controller to execute a forced burn\n     * @param _from address from which to take tokens\n     * @param _value amount of tokens to transfer\n     * @param _data data to indicate validation\n     * @param _log data attached to the transfer by controller to emit in event\n     */\n    function forceBurn(address _from, uint256 _value, bytes _data, bytes _log) public onlyController {\n        bool verified = _burn(_from, _value, _data);\n        emit ForceBurn(msg.sender, _from, _value, verified, _log);\n    }\n\n    /**\n     * @notice Returns the version of the SecurityToken\n     */\n    function getVersion() external view returns(uint8[]) {\n        uint8[] memory _version = new uint8[](3);\n        _version[0] = securityTokenVersion.major;\n        _version[1] = securityTokenVersion.minor;\n        _version[2] = securityTokenVersion.patch;\n        return _version;\n    }\n\n}\n",
  "sourcePath": "/Users/jere/Code/polymath-apps/packages/polymath-shared/scripts/generateLocalBlockchain/contracts/tokens/SecurityToken.sol",
  "compiler": {
    "name": "solc",
    "version": "0.4.24+commit.e67f0147.Emscripten.clang"
  },
  "schemaVersion": "2.0.1",
  "updatedAt": "2018-10-10T20:29:25.181Z"
}