{
  "contractName": "SingleTradeVolumeRestrictionManager",
  "abi": [
    {
      "constant": true,
      "inputs": [],
      "name": "allowPrimaryIssuance",
      "outputs": [
        {
          "name": "",
          "type": "bool"
        }
      ],
      "payable": false,
      "stateMutability": "view",
      "type": "function"
    },
    {
      "constant": true,
      "inputs": [],
      "name": "ADMIN",
      "outputs": [
        {
          "name": "",
          "type": "bytes32"
        }
      ],
      "payable": false,
      "stateMutability": "view",
      "type": "function"
    },
    {
      "constant": false,
      "inputs": [],
      "name": "unpause",
      "outputs": [],
      "payable": false,
      "stateMutability": "nonpayable",
      "type": "function"
    },
    {
      "constant": true,
      "inputs": [],
      "name": "globalTransferLimitInTokens",
      "outputs": [
        {
          "name": "",
          "type": "uint256"
        }
      ],
      "payable": false,
      "stateMutability": "view",
      "type": "function"
    },
    {
      "constant": true,
      "inputs": [],
      "name": "paused",
      "outputs": [
        {
          "name": "",
          "type": "bool"
        }
      ],
      "payable": false,
      "stateMutability": "view",
      "type": "function"
    },
    {
      "constant": false,
      "inputs": [
        {
          "name": "_amount",
          "type": "uint256"
        }
      ],
      "name": "takeFee",
      "outputs": [
        {
          "name": "",
          "type": "bool"
        }
      ],
      "payable": false,
      "stateMutability": "nonpayable",
      "type": "function"
    },
    {
      "constant": true,
      "inputs": [],
      "name": "polyToken",
      "outputs": [
        {
          "name": "",
          "type": "address"
        }
      ],
      "payable": false,
      "stateMutability": "view",
      "type": "function"
    },
    {
      "constant": true,
      "inputs": [],
      "name": "isTransferLimitInPercentage",
      "outputs": [
        {
          "name": "",
          "type": "bool"
        }
      ],
      "payable": false,
      "stateMutability": "view",
      "type": "function"
    },
    {
      "constant": false,
      "inputs": [],
      "name": "pause",
      "outputs": [],
      "payable": false,
      "stateMutability": "nonpayable",
      "type": "function"
    },
    {
      "constant": true,
      "inputs": [
        {
          "name": "",
          "type": "address"
        }
      ],
      "name": "exemptWallets",
      "outputs": [
        {
          "name": "",
          "type": "bool"
        }
      ],
      "payable": false,
      "stateMutability": "view",
      "type": "function"
    },
    {
      "constant": true,
      "inputs": [],
      "name": "securityToken",
      "outputs": [
        {
          "name": "",
          "type": "address"
        }
      ],
      "payable": false,
      "stateMutability": "view",
      "type": "function"
    },
    {
      "constant": true,
      "inputs": [],
      "name": "factory",
      "outputs": [
        {
          "name": "",
          "type": "address"
        }
      ],
      "payable": false,
      "stateMutability": "view",
      "type": "function"
    },
    {
      "constant": true,
      "inputs": [],
      "name": "FEE_ADMIN",
      "outputs": [
        {
          "name": "",
          "type": "bytes32"
        }
      ],
      "payable": false,
      "stateMutability": "view",
      "type": "function"
    },
    {
      "constant": true,
      "inputs": [
        {
          "name": "",
          "type": "address"
        }
      ],
      "name": "specialTransferLimitsInTokens",
      "outputs": [
        {
          "name": "",
          "type": "uint256"
        }
      ],
      "payable": false,
      "stateMutability": "view",
      "type": "function"
    },
    {
      "constant": true,
      "inputs": [
        {
          "name": "",
          "type": "address"
        }
      ],
      "name": "specialTransferLimitsInPercentages",
      "outputs": [
        {
          "name": "",
          "type": "uint256"
        }
      ],
      "payable": false,
      "stateMutability": "view",
      "type": "function"
    },
    {
      "constant": true,
      "inputs": [],
      "name": "globalTransferLimitInPercentage",
      "outputs": [
        {
          "name": "",
          "type": "uint256"
        }
      ],
      "payable": false,
      "stateMutability": "view",
      "type": "function"
    },
    {
      "inputs": [
        {
          "name": "_securityToken",
          "type": "address"
        },
        {
          "name": "_polyAddress",
          "type": "address"
        }
      ],
      "payable": false,
      "stateMutability": "nonpayable",
      "type": "constructor"
    },
    {
      "anonymous": false,
      "inputs": [
        {
          "indexed": false,
          "name": "_wallet",
          "type": "address"
        }
      ],
      "name": "ExemptWalletAdded",
      "type": "event"
    },
    {
      "anonymous": false,
      "inputs": [
        {
          "indexed": false,
          "name": "_wallet",
          "type": "address"
        }
      ],
      "name": "ExemptWalletRemoved",
      "type": "event"
    },
    {
      "anonymous": false,
      "inputs": [
        {
          "indexed": false,
          "name": "_wallet",
          "type": "address"
        },
        {
          "indexed": false,
          "name": "_amount",
          "type": "uint256"
        }
      ],
      "name": "TransferLimitInTokensSet",
      "type": "event"
    },
    {
      "anonymous": false,
      "inputs": [
        {
          "indexed": false,
          "name": "_wallet",
          "type": "address"
        },
        {
          "indexed": false,
          "name": "_percentage",
          "type": "uint256"
        }
      ],
      "name": "TransferLimitInPercentageSet",
      "type": "event"
    },
    {
      "anonymous": false,
      "inputs": [
        {
          "indexed": false,
          "name": "_wallet",
          "type": "address"
        }
      ],
      "name": "TransferLimitInPercentageRemoved",
      "type": "event"
    },
    {
      "anonymous": false,
      "inputs": [
        {
          "indexed": false,
          "name": "_wallet",
          "type": "address"
        }
      ],
      "name": "TransferLimitInTokensRemoved",
      "type": "event"
    },
    {
      "anonymous": false,
      "inputs": [
        {
          "indexed": false,
          "name": "_amount",
          "type": "uint256"
        },
        {
          "indexed": false,
          "name": "_oldAmount",
          "type": "uint256"
        }
      ],
      "name": "GlobalTransferLimitInTokensSet",
      "type": "event"
    },
    {
      "anonymous": false,
      "inputs": [
        {
          "indexed": false,
          "name": "_percentage",
          "type": "uint256"
        },
        {
          "indexed": false,
          "name": "_oldPercentage",
          "type": "uint256"
        }
      ],
      "name": "GlobalTransferLimitInPercentageSet",
      "type": "event"
    },
    {
      "anonymous": false,
      "inputs": [],
      "name": "TransferLimitChangedToTokens",
      "type": "event"
    },
    {
      "anonymous": false,
      "inputs": [],
      "name": "TransferLimitChangedtoPercentage",
      "type": "event"
    },
    {
      "anonymous": false,
      "inputs": [
        {
          "indexed": false,
          "name": "_allowPrimaryIssuance",
          "type": "bool"
        },
        {
          "indexed": false,
          "name": "_timestamp",
          "type": "uint256"
        }
      ],
      "name": "SetAllowPrimaryIssuance",
      "type": "event"
    },
    {
      "anonymous": false,
      "inputs": [
        {
          "indexed": false,
          "name": "_timestammp",
          "type": "uint256"
        }
      ],
      "name": "Pause",
      "type": "event"
    },
    {
      "anonymous": false,
      "inputs": [
        {
          "indexed": false,
          "name": "_timestamp",
          "type": "uint256"
        }
      ],
      "name": "Unpause",
      "type": "event"
    },
    {
      "constant": false,
      "inputs": [
        {
          "name": "_from",
          "type": "address"
        },
        {
          "name": "",
          "type": "address"
        },
        {
          "name": "_amount",
          "type": "uint256"
        },
        {
          "name": "",
          "type": "bytes"
        },
        {
          "name": "",
          "type": "bool"
        }
      ],
      "name": "verifyTransfer",
      "outputs": [
        {
          "name": "",
          "type": "uint8"
        }
      ],
      "payable": false,
      "stateMutability": "nonpayable",
      "type": "function"
    },
    {
      "constant": false,
      "inputs": [
        {
          "name": "_isTransferLimitInPercentage",
          "type": "bool"
        },
        {
          "name": "_globalTransferLimitInPercentageOrToken",
          "type": "uint256"
        },
        {
          "name": "_allowPrimaryIssuance",
          "type": "bool"
        }
      ],
      "name": "configure",
      "outputs": [],
      "payable": false,
      "stateMutability": "nonpayable",
      "type": "function"
    },
    {
      "constant": false,
      "inputs": [
        {
          "name": "_allowPrimaryIssuance",
          "type": "bool"
        }
      ],
      "name": "setAllowPrimaryIssuance",
      "outputs": [],
      "payable": false,
      "stateMutability": "nonpayable",
      "type": "function"
    },
    {
      "constant": false,
      "inputs": [
        {
          "name": "_newGlobalTransferLimitInPercentage",
          "type": "uint256"
        }
      ],
      "name": "changeTransferLimitToPercentage",
      "outputs": [],
      "payable": false,
      "stateMutability": "nonpayable",
      "type": "function"
    },
    {
      "constant": false,
      "inputs": [
        {
          "name": "_newGlobalTransferLimit",
          "type": "uint256"
        }
      ],
      "name": "changeTransferLimitToTokens",
      "outputs": [],
      "payable": false,
      "stateMutability": "nonpayable",
      "type": "function"
    },
    {
      "constant": false,
      "inputs": [
        {
          "name": "_newGlobalTransferLimitInTokens",
          "type": "uint256"
        }
      ],
      "name": "changeGlobalLimitInTokens",
      "outputs": [],
      "payable": false,
      "stateMutability": "nonpayable",
      "type": "function"
    },
    {
      "constant": false,
      "inputs": [
        {
          "name": "_newGlobalTransferLimitInPercentage",
          "type": "uint256"
        }
      ],
      "name": "changeGlobalLimitInPercentage",
      "outputs": [],
      "payable": false,
      "stateMutability": "nonpayable",
      "type": "function"
    },
    {
      "constant": false,
      "inputs": [
        {
          "name": "_wallet",
          "type": "address"
        }
      ],
      "name": "addExemptWallet",
      "outputs": [],
      "payable": false,
      "stateMutability": "nonpayable",
      "type": "function"
    },
    {
      "constant": false,
      "inputs": [
        {
          "name": "_wallet",
          "type": "address"
        }
      ],
      "name": "removeExemptWallet",
      "outputs": [],
      "payable": false,
      "stateMutability": "nonpayable",
      "type": "function"
    },
    {
      "constant": false,
      "inputs": [
        {
          "name": "_wallets",
          "type": "address[]"
        }
      ],
      "name": "addExemptWalletMulti",
      "outputs": [],
      "payable": false,
      "stateMutability": "nonpayable",
      "type": "function"
    },
    {
      "constant": false,
      "inputs": [
        {
          "name": "_wallets",
          "type": "address[]"
        }
      ],
      "name": "removeExemptWalletMulti",
      "outputs": [],
      "payable": false,
      "stateMutability": "nonpayable",
      "type": "function"
    },
    {
      "constant": false,
      "inputs": [
        {
          "name": "_wallet",
          "type": "address"
        },
        {
          "name": "_transferLimit",
          "type": "uint256"
        }
      ],
      "name": "setTransferLimitInTokens",
      "outputs": [],
      "payable": false,
      "stateMutability": "nonpayable",
      "type": "function"
    },
    {
      "constant": false,
      "inputs": [
        {
          "name": "_wallet",
          "type": "address"
        },
        {
          "name": "_transferLimitInPercentage",
          "type": "uint256"
        }
      ],
      "name": "setTransferLimitInPercentage",
      "outputs": [],
      "payable": false,
      "stateMutability": "nonpayable",
      "type": "function"
    },
    {
      "constant": false,
      "inputs": [
        {
          "name": "_wallet",
          "type": "address"
        }
      ],
      "name": "removeTransferLimitInPercentage",
      "outputs": [],
      "payable": false,
      "stateMutability": "nonpayable",
      "type": "function"
    },
    {
      "constant": false,
      "inputs": [
        {
          "name": "_wallet",
          "type": "address"
        }
      ],
      "name": "removeTransferLimitInTokens",
      "outputs": [],
      "payable": false,
      "stateMutability": "nonpayable",
      "type": "function"
    },
    {
      "constant": false,
      "inputs": [
        {
          "name": "_wallets",
          "type": "address[]"
        },
        {
          "name": "_transferLimits",
          "type": "uint256[]"
        }
      ],
      "name": "setTransferLimitInTokensMulti",
      "outputs": [],
      "payable": false,
      "stateMutability": "nonpayable",
      "type": "function"
    },
    {
      "constant": false,
      "inputs": [
        {
          "name": "_wallets",
          "type": "address[]"
        },
        {
          "name": "_transferLimitsInPercentage",
          "type": "uint256[]"
        }
      ],
      "name": "setTransferLimitInPercentageMulti",
      "outputs": [],
      "payable": false,
      "stateMutability": "nonpayable",
      "type": "function"
    },
    {
      "constant": false,
      "inputs": [
        {
          "name": "_wallets",
          "type": "address[]"
        }
      ],
      "name": "removeTransferLimitInTokensMulti",
      "outputs": [],
      "payable": false,
      "stateMutability": "nonpayable",
      "type": "function"
    },
    {
      "constant": false,
      "inputs": [
        {
          "name": "_wallets",
          "type": "address[]"
        }
      ],
      "name": "removeTransferLimitInPercentageMulti",
      "outputs": [],
      "payable": false,
      "stateMutability": "nonpayable",
      "type": "function"
    },
    {
      "constant": true,
      "inputs": [],
      "name": "getInitFunction",
      "outputs": [
        {
          "name": "",
          "type": "bytes4"
        }
      ],
      "payable": false,
      "stateMutability": "pure",
      "type": "function"
    },
    {
      "constant": true,
      "inputs": [],
      "name": "getPermissions",
      "outputs": [
        {
          "name": "",
          "type": "bytes32[]"
        }
      ],
      "payable": false,
      "stateMutability": "view",
      "type": "function"
    }
  ],
  "bytecode": "0x60806040526002805460a060020a60ff02191690556005805460ff1916600117905534801561002d57600080fd5b50604051604080613c4083398101604052805160209091015160018054600160a060020a03938416600160a060020a0319918216179091556000805482163317905560028054939092169216919091179055613bb28061008e6000396000f3006080604052600436106101b35763ffffffff60e060020a60003504166301e8153b81146101b85780631613ec9d146101de57806321c4a69c146102285780632a0acc6a146102515780632f3b64de1461027857806338fad08c146102905780633a62b672146102e55780633f4ba83a146102fd57806343c43de314610312578063567bc329146103335780635c975abb146103485780635e05642f1461035d5780635f7619a4146103eb5780636faa22a5146104035780637f7605f01461043457806381cf9d0b146104495780638456cb591461046b57806384625ea114610480578063893f749b146104a4578063958ad473146104c5578063a26faecd146104dd578063b84dfbd2146104fe578063c3a07df614610513578063c45a015514610578578063c667a49c1461058d578063d4575320146105e2578063d7008fd714610603578063d70afa9614610691578063de6ee1bc146106a6578063e4d5a4911461073d578063e66e788714610757578063e8d260941461076f578063e9a8ce24146107c4578063ee6560d8146107e5578063eec703af14610806578063fa6ced7f1461081b578063ff9450d414610870575b600080fd5b3480156101c457600080fd5b506101dc600160a060020a0360043516602435610891565b005b3480156101ea57600080fd5b506101f3610b76565b604080517fffffffff000000000000000000000000000000000000000000000000000000009092168252519081900360200190f35b34801561023457600080fd5b5061023d610bab565b604080519115158252519081900360200190f35b34801561025d57600080fd5b50610266610bb4565b60408051918252519081900360200190f35b34801561028457600080fd5b506101dc600435610bc3565b34801561029c57600080fd5b50604080516020600480358082013583810280860185019096528085526101dc95369593946024949385019291829185019084908082843750949750610e6c9650505050505050565b3480156102f157600080fd5b506101dc600435611078565b34801561030957600080fd5b506101dc6112ec565b34801561031e57600080fd5b506101dc600160a060020a03600435166113d4565b34801561033f57600080fd5b50610266611638565b34801561035457600080fd5b5061023d61163e565b34801561036957600080fd5b50604080516020600480358082013583810280860185019096528085526101dc95369593946024949385019291829185019084908082843750506040805187358901803560208181028481018201909552818452989b9a99890198929750908201955093508392508501908490808284375094975061164e9650505050505050565b3480156103f757600080fd5b5061023d600435611881565b34801561040f57600080fd5b50610418611b9d565b60408051600160a060020a039092168252519081900360200190f35b34801561044057600080fd5b5061023d611bac565b34801561045557600080fd5b506101dc60043515156024356044351515611bbc565b34801561047757600080fd5b506101dc611c83565b34801561048c57600080fd5b506101dc600160a060020a0360043516602435611d69565b3480156104b057600080fd5b5061023d600160a060020a036004351661203e565b3480156104d157600080fd5b506101dc600435612053565b3480156104e957600080fd5b506101dc600160a060020a03600435166122ba565b34801561050a57600080fd5b50610418612527565b34801561051f57600080fd5b50610528612536565b60408051602080825283518183015283519192839290830191858101910280838360005b8381101561056457818101518382015260200161054c565b505050509050019250505060405180910390f35b34801561058457600080fd5b50610418612585565b34801561059957600080fd5b50604080516020600480358082013583810280860185019096528085526101dc953695939460249493850192918291850190849080828437509497506125949650505050505050565b3480156105ee57600080fd5b506101dc600160a060020a0360043516612799565b34801561060f57600080fd5b50604080516020600480358082013583810280860185019096528085526101dc95369593946024949385019291829185019084908082843750506040805187358901803560208181028481018201909552818452989b9a998901989297509082019550935083925085019084908082843750949750612a009650505050505050565b34801561069d57600080fd5b50610266612c2b565b3480156106b257600080fd5b50604080516020601f60643560048181013592830184900484028501840190955281845261071994600160a060020a038135811695602480359092169560443595369560849401918190840183828082843750949750505050913515159250612c4f915050565b6040518082600381111561072957fe5b60ff16815260200191505060405180910390f35b34801561074957600080fd5b506101dc6004351515612e7f565b34801561076357600080fd5b506101dc6004356130b3565b34801561077b57600080fd5b50604080516020600480358082013583810280860185019096528085526101dc953695939460249493850192918291850190849080828437509497506132f09650505050505050565b3480156107d057600080fd5b50610266600160a060020a03600435166134f5565b3480156107f157600080fd5b50610266600160a060020a0360043516613507565b34801561081257600080fd5b50610266613519565b34801561082757600080fd5b50604080516020600480358082013583810280860185019096528085526101dc9536959394602494938501929182918501908490808284375094975061351f9650505050505050565b34801561087c57600080fd5b506101dc600160a060020a0360043516613724565b60d960020a6420a226a4a702600080600160009054906101000a9004600160a060020a0316600160a060020a0316638da5cb5b6040518163ffffffff1660e060020a028152600401602060405180830381600087803b1580156108f357600080fd5b505af1158015610907573d6000803e3d6000fd5b505050506040513d602081101561091d57600080fd5b505160005433600160a060020a0392831681149450911614905081806109405750805b806109d057506001546040805160e060020a638658b8b9028152336004820152306024820152604481018690529051600160a060020a0390921691638658b8b9916064808201926020929091908290030181600087803b1580156109a357600080fd5b505af11580156109b7573d6000803e3d6000fd5b505050506040513d60208110156109cd57600080fd5b50515b1515610a14576040805160e560020a62461bcd0281526020600482015260176024820152600080516020613b67833981519152604482015290519081900360640190fd5b60008411610a92576040805160e560020a62461bcd02815260206004820152602760248201527f5472616e73666572206c696d69742068617320746f206265206772656174657260448201527f207468616e203000000000000000000000000000000000000000000000000000606482015290519081900360840190fd5b60025460a860020a900460ff1615610b1a576040805160e560020a62461bcd02815260206004820152602260248201527f5472616e73666572206c696d6974206e6f7420696e20746f6b656e20616d6f7560448201527f6e74000000000000000000000000000000000000000000000000000000000000606482015290519081900360840190fd5b600160a060020a0385166000818152600760209081526040918290208790558151928352820186905280517ff3a684e8eb611437fe20ba3b967a9018228869015d3324db0313db1a0401c5569281900390910190a15050505050565b604080517f636f6e66696775726528626f6f6c2c75696e743235362c626f6f6c29000000008152905190819003601c01902090565b60055460ff1681565b60d960020a6420a226a4a70281565b60d960020a6420a226a4a702600080600160009054906101000a9004600160a060020a0316600160a060020a0316638da5cb5b6040518163ffffffff1660e060020a028152600401602060405180830381600087803b158015610c2557600080fd5b505af1158015610c39573d6000803e3d6000fd5b505050506040513d6020811015610c4f57600080fd5b505160005433600160a060020a039283168114945091161490508180610c725750805b80610d0257506001546040805160e060020a638658b8b9028152336004820152306024820152604481018690529051600160a060020a0390921691638658b8b9916064808201926020929091908290030181600087803b158015610cd557600080fd5b505af1158015610ce9573d6000803e3d6000fd5b505050506040513d6020811015610cff57600080fd5b50515b1515610d46576040805160e560020a62461bcd0281526020600482015260176024820152600080516020613b67833981519152604482015290519081900360640190fd5b60025460a860020a900460ff1615610da8576040805160e560020a62461bcd02815260206004820181905260248201527f5472616e73666572206c696d6974206e6f742073657420696e20746f6b656e73604482015290519081900360640190fd5b60008411610e26576040805160e560020a62461bcd02815260206004820152602760248201527f5472616e73666572206c696d69742068617320746f206772656174657220746860448201527f616e207a65726f00000000000000000000000000000000000000000000000000606482015290519081900360840190fd5b60035460408051868152602081019290925280517f8352dcd605eb30dcadac192c17b4395a1ca6c20005ba6f3eb1d47c7f5a93c5fc9281900390910190a1505050600355565b600060d960020a6420a226a4a702600080600160009054906101000a9004600160a060020a0316600160a060020a0316638da5cb5b6040518163ffffffff1660e060020a028152600401602060405180830381600087803b158015610ed057600080fd5b505af1158015610ee4573d6000803e3d6000fd5b505050506040513d6020811015610efa57600080fd5b505160005433600160a060020a039283168114945091161490508180610f1d5750805b80610fad57506001546040805160e060020a638658b8b9028152336004820152306024820152604481018690529051600160a060020a0390921691638658b8b9916064808201926020929091908290030181600087803b158015610f8057600080fd5b505af1158015610f94573d6000803e3d6000fd5b505050506040513d6020811015610faa57600080fd5b50515b1515610ff1576040805160e560020a62461bcd0281526020600482015260176024820152600080516020613b67833981519152604482015290519081900360640190fd5b8451600010611038576040805160e560020a62461bcd0281526020600482015260176024820152600080516020613b47833981519152604482015290519081900360640190fd5b600093505b845184101561107157611066858581518110151561105757fe5b90602001906020020151613724565b60019093019261103d565b5050505050565b60d960020a6420a226a4a702600080600160009054906101000a9004600160a060020a0316600160a060020a0316638da5cb5b6040518163ffffffff1660e060020a028152600401602060405180830381600087803b1580156110da57600080fd5b505af11580156110ee573d6000803e3d6000fd5b505050506040513d602081101561110457600080fd5b505160005433600160a060020a0392831681149450911614905081806111275750805b806111b757506001546040805160e060020a638658b8b9028152336004820152306024820152604481018690529051600160a060020a0390921691638658b8b9916064808201926020929091908290030181600087803b15801561118a57600080fd5b505af115801561119e573d6000803e3d6000fd5b505050506040513d60208110156111b457600080fd5b50515b15156111fb576040805160e560020a62461bcd0281526020600482015260176024820152600080516020613b67833981519152604482015290519081900360640190fd5b60025460a860020a900460ff161515611283576040805160e560020a62461bcd028152602060048201526024808201527f5472616e73666572206c696d6974206e6f742073657420696e2050657263656e60448201527f7461676500000000000000000000000000000000000000000000000000000000606482015290519081900360840190fd5b60008411801561129b5750670de0b6b3a76400008411155b15156112a657600080fd5b60045460408051868152602081019290925280517f9657d031eb2a834ca5df9c940b65c8edb2fedc31f396af8af3a1574337177de29281900390910190a1505050600455565b600160009054906101000a9004600160a060020a0316600160a060020a0316638da5cb5b6040518163ffffffff1660e060020a028152600401602060405180830381600087803b15801561133f57600080fd5b505af1158015611353573d6000803e3d6000fd5b505050506040513d602081101561136957600080fd5b5051600160a060020a031633146113ca576040805160e560020a62461bcd02815260206004820152601360248201527f53656e646572206973206e6f74206f776e657200000000000000000000000000604482015290519081900360640190fd5b6113d2613991565b565b60d960020a6420a226a4a702600080600160009054906101000a9004600160a060020a0316600160a060020a0316638da5cb5b6040518163ffffffff1660e060020a028152600401602060405180830381600087803b15801561143657600080fd5b505af115801561144a573d6000803e3d6000fd5b505050506040513d602081101561146057600080fd5b505160005433600160a060020a0392831681149450911614905081806114835750805b8061151357506001546040805160e060020a638658b8b9028152336004820152306024820152604481018690529051600160a060020a0390921691638658b8b9916064808201926020929091908290030181600087803b1580156114e657600080fd5b505af11580156114fa573d6000803e3d6000fd5b505050506040513d602081101561151057600080fd5b50515b1515611557576040805160e560020a62461bcd0281526020600482015260176024820152600080516020613b67833981519152604482015290519081900360640190fd5b600160a060020a03841615156115dd576040805160e560020a62461bcd02815260206004820152602760248201527f57616c6c657420616464726573732063616e6e6f742062652061207a65726f2060448201527f6164647265737300000000000000000000000000000000000000000000000000606482015290519081900360840190fd5b600160a060020a038416600081815260066020908152604091829020805460ff19169055815192835290517fc3556578af891db554a994f93e2a7e32a027de8f5e7fbf2a2a92e59f6573bd759281900390910190a150505050565b60035481565b60025460a060020a900460ff1681565b600060d960020a6420a226a4a702600080600160009054906101000a9004600160a060020a0316600160a060020a0316638da5cb5b6040518163ffffffff1660e060020a028152600401602060405180830381600087803b1580156116b257600080fd5b505af11580156116c6573d6000803e3d6000fd5b505050506040513d60208110156116dc57600080fd5b505160005433600160a060020a0392831681149450911614905081806116ff5750805b8061178f57506001546040805160e060020a638658b8b9028152336004820152306024820152604481018690529051600160a060020a0390921691638658b8b9916064808201926020929091908290030181600087803b15801561176257600080fd5b505af1158015611776573d6000803e3d6000fd5b505050506040513d602081101561178c57600080fd5b50515b15156117d3576040805160e560020a62461bcd0281526020600482015260176024820152600080516020613b67833981519152604482015290519081900360640190fd5b855160001061181a576040805160e560020a62461bcd0281526020600482015260176024820152600080516020613b47833981519152604482015290519081900360640190fd5b845186511461182857600080fd5b600093505b85518410156118795761186e868581518110151561184757fe5b90602001906020020151868681518110151561185f57fe5b90602001906020020151611d69565b60019093019261182d565b505050505050565b60007f4645455f41444d494e0000000000000000000000000000000000000000000000600080600160009054906101000a9004600160a060020a0316600160a060020a0316638da5cb5b6040518163ffffffff1660e060020a028152600401602060405180830381600087803b1580156118fa57600080fd5b505af115801561190e573d6000803e3d6000fd5b505050506040513d602081101561192457600080fd5b505160005433600160a060020a0392831681149450911614905081806119475750805b806119d757506001546040805160e060020a638658b8b9028152336004820152306024820152604481018690529051600160a060020a0390921691638658b8b9916064808201926020929091908290030181600087803b1580156119aa57600080fd5b505af11580156119be573d6000803e3d6000fd5b505050506040513d60208110156119d457600080fd5b50515b1515611a1b576040805160e560020a62461bcd0281526020600482015260176024820152600080516020613b67833981519152604482015290519081900360640190fd5b60025460015460008054604080517f8da5cb5b0000000000000000000000000000000000000000000000000000000081529051600160a060020a03958616956323b872dd95811694931692638da5cb5b92600480820193602093909283900390910190829087803b158015611a8f57600080fd5b505af1158015611aa3573d6000803e3d6000fd5b505050506040513d6020811015611ab957600080fd5b50516040805160e060020a63ffffffff8616028152600160a060020a039384166004820152929091166024830152604482018990525160648083019260209291908290030181600087803b158015611b1057600080fd5b505af1158015611b24573d6000803e3d6000fd5b505050506040513d6020811015611b3a57600080fd5b50511515611b92576040805160e560020a62461bcd02815260206004820152601260248201527f556e61626c6520746f2074616b65206665650000000000000000000000000000604482015290519081900360640190fd5b506001949350505050565b600254600160a060020a031681565b60025460a860020a900460ff1681565b600054600160a060020a03163314611c1e576040805160e560020a62461bcd02815260206004820152601560248201527f53656e646572206973206e6f7420666163746f72790000000000000000000000604482015290519081900360640190fd5b6002805475ff000000000000000000000000000000000000000000191660a860020a8515158102919091179182905560ff91041615611c6557611c6082611078565b611c6e565b611c6e82610bc3565b6005805460ff19169115159190911790555050565b600160009054906101000a9004600160a060020a0316600160a060020a0316638da5cb5b6040518163ffffffff1660e060020a028152600401602060405180830381600087803b158015611cd657600080fd5b505af1158015611cea573d6000803e3d6000fd5b505050506040513d6020811015611d0057600080fd5b5051600160a060020a03163314611d61576040805160e560020a62461bcd02815260206004820152601360248201527f53656e646572206973206e6f74206f776e657200000000000000000000000000604482015290519081900360640190fd5b6113d2613a47565b60d960020a6420a226a4a702600080600160009054906101000a9004600160a060020a0316600160a060020a0316638da5cb5b6040518163ffffffff1660e060020a028152600401602060405180830381600087803b158015611dcb57600080fd5b505af1158015611ddf573d6000803e3d6000fd5b505050506040513d6020811015611df557600080fd5b505160005433600160a060020a039283168114945091161490508180611e185750805b80611ea857506001546040805160e060020a638658b8b9028152336004820152306024820152604481018690529051600160a060020a0390921691638658b8b9916064808201926020929091908290030181600087803b158015611e7b57600080fd5b505af1158015611e8f573d6000803e3d6000fd5b505050506040513d6020811015611ea557600080fd5b50515b1515611eec576040805160e560020a62461bcd0281526020600482015260176024820152600080516020613b67833981519152604482015290519081900360640190fd5b60025460a860020a900460ff161515611f4f576040805160e560020a62461bcd02815260206004820181905260248201527f5472616e73666572206c696d6974206e6f7420696e2070657263656e74616765604482015290519081900360640190fd5b600084118015611f675750670de0b6b3a76400008411155b1515611fe2576040805160e560020a62461bcd028152602060048201526024808201527f5472616e73666572206c696d6974206e6f7420696e207265717569726564207260448201527f616e676500000000000000000000000000000000000000000000000000000000606482015290519081900360840190fd5b600160a060020a0385166000818152600860209081526040918290208790558151928352820186905280517fe2c0268c1a2988af3f29ec6b082af2f13e79d3c05dba09f61e541dc2f42e99d89281900390910190a15050505050565b60066020526000908152604090205460ff1681565b60d960020a6420a226a4a702600080600160009054906101000a9004600160a060020a0316600160a060020a0316638da5cb5b6040518163ffffffff1660e060020a028152600401602060405180830381600087803b1580156120b557600080fd5b505af11580156120c9573d6000803e3d6000fd5b505050506040513d60208110156120df57600080fd5b505160005433600160a060020a0392831681149450911614905081806121025750805b8061219257506001546040805160e060020a638658b8b9028152336004820152306024820152604481018690529051600160a060020a0390921691638658b8b9916064808201926020929091908290030181600087803b15801561216557600080fd5b505af1158015612179573d6000803e3d6000fd5b505050506040513d602081101561218f57600080fd5b50515b15156121d6576040805160e560020a62461bcd0281526020600482015260176024820152600080516020613b67833981519152604482015290519081900360640190fd5b60025460a860020a900460ff161561225d576040805160e560020a62461bcd028152602060048201526024808201527f5472616e73666572206c696d697420616c726561647920696e2070657263656e60448201527f7461676500000000000000000000000000000000000000000000000000000000606482015290519081900360840190fd5b6002805475ff000000000000000000000000000000000000000000191660a860020a17905561228b84611078565b6040517f4ab0283d199de774ad6d945ef835c154ef2f35c0cd3dc1001c454c250ebb54d890600090a150505050565b60d960020a6420a226a4a702600080600160009054906101000a9004600160a060020a0316600160a060020a0316638da5cb5b6040518163ffffffff1660e060020a028152600401602060405180830381600087803b15801561231c57600080fd5b505af1158015612330573d6000803e3d6000fd5b505050506040513d602081101561234657600080fd5b505160005433600160a060020a0392831681149450911614905081806123695750805b806123f957506001546040805160e060020a638658b8b9028152336004820152306024820152604481018690529051600160a060020a0390921691638658b8b9916064808201926020929091908290030181600087803b1580156123cc57600080fd5b505af11580156123e0573d6000803e3d6000fd5b505050506040513d60208110156123f657600080fd5b50515b151561243d576040805160e560020a62461bcd0281526020600482015260176024820152600080516020613b67833981519152604482015290519081900360640190fd5b600160a060020a038416600090815260086020526040812054116124d1576040805160e560020a62461bcd02815260206004820152602d60248201527f57616c6c6574204164647265737320646f6573206e6f7420686176652061207460448201527f72616e73666572206c696d697400000000000000000000000000000000000000606482015290519081900360840190fd5b600160a060020a038416600081815260086020908152604080832092909255815192835290517fc8f5b9ec87dc796e445c033c8e5fcd554ae055960b6782a8d0178faa677a36759281900390910190a150505050565b600154600160a060020a031681565b6040805160018082528183019092526060918291906020808301908038833901905050905060d960020a6420a226a4a70281600081518110151561257657fe5b60209081029091010152905090565b600054600160a060020a031681565b600060d960020a6420a226a4a702600080600160009054906101000a9004600160a060020a0316600160a060020a0316638da5cb5b6040518163ffffffff1660e060020a028152600401602060405180830381600087803b1580156125f857600080fd5b505af115801561260c573d6000803e3d6000fd5b505050506040513d602081101561262257600080fd5b505160005433600160a060020a0392831681149450911614905081806126455750805b806126d557506001546040805160e060020a638658b8b9028152336004820152306024820152604481018690529051600160a060020a0390921691638658b8b9916064808201926020929091908290030181600087803b1580156126a857600080fd5b505af11580156126bc573d6000803e3d6000fd5b505050506040513d60208110156126d257600080fd5b50515b1515612719576040805160e560020a62461bcd0281526020600482015260176024820152600080516020613b67833981519152604482015290519081900360640190fd5b8451600010612760576040805160e560020a62461bcd0281526020600482015260176024820152600080516020613b47833981519152604482015290519081900360640190fd5b600093505b84518410156110715761278e858581518110151561277f57fe5b906020019060200201516113d4565b600190930192612765565b60d960020a6420a226a4a702600080600160009054906101000a9004600160a060020a0316600160a060020a0316638da5cb5b6040518163ffffffff1660e060020a028152600401602060405180830381600087803b1580156127fb57600080fd5b505af115801561280f573d6000803e3d6000fd5b505050506040513d602081101561282557600080fd5b505160005433600160a060020a0392831681149450911614905081806128485750805b806128d857506001546040805160e060020a638658b8b9028152336004820152306024820152604481018690529051600160a060020a0390921691638658b8b9916064808201926020929091908290030181600087803b1580156128ab57600080fd5b505af11580156128bf573d6000803e3d6000fd5b505050506040513d60208110156128d557600080fd5b50515b151561291c576040805160e560020a62461bcd0281526020600482015260176024820152600080516020613b67833981519152604482015290519081900360640190fd5b600160a060020a03841615156129a2576040805160e560020a62461bcd02815260206004820152602760248201527f57616c6c657420616464726573732063616e6e6f742062652061207a65726f2060448201527f6164647265737300000000000000000000000000000000000000000000000000606482015290519081900360840190fd5b600160a060020a038416600081815260066020908152604091829020805460ff19166001179055815192835290517f316f0539205c18a5ab1d72c1837188ad2a77fdd5fb8729626d708b9ee9eeb8b29281900390910190a150505050565b600060d960020a6420a226a4a702600080600160009054906101000a9004600160a060020a0316600160a060020a0316638da5cb5b6040518163ffffffff1660e060020a028152600401602060405180830381600087803b158015612a6457600080fd5b505af1158015612a78573d6000803e3d6000fd5b505050506040513d6020811015612a8e57600080fd5b505160005433600160a060020a039283168114945091161490508180612ab15750805b80612b4157506001546040805160e060020a638658b8b9028152336004820152306024820152604481018690529051600160a060020a0390921691638658b8b9916064808201926020929091908290030181600087803b158015612b1457600080fd5b505af1158015612b28573d6000803e3d6000fd5b505050506040513d6020811015612b3e57600080fd5b50515b1515612b85576040805160e560020a62461bcd0281526020600482015260176024820152600080516020613b67833981519152604482015290519081900360640190fd5b8551600010612bcc576040805160e560020a62461bcd0281526020600482015260176024820152600080516020613b47833981519152604482015290519081900360640190fd5b8451865114612bda57600080fd5b600093505b855184101561187957612c208685815181101515612bf957fe5b906020019060200201518686815181101515612c1157fe5b90602001906020020151610891565b600190930192612bdf565b7f4645455f41444d494e000000000000000000000000000000000000000000000081565b600160a060020a038516600090815260066020526040812054819060ff1680612c81575060025460a060020a900460ff165b15612c8f5760019150612e75565b600160a060020a038716158015612ca8575060055460ff165b15612cb65760019150612e75565b60025460a860020a900460ff1615612e1857600160a060020a0387166000908152600860205260408120541115612db557600160a060020a0380881660009081526008602090815260408083205460015482517f18160ddd00000000000000000000000000000000000000000000000000000000815292519195612dac959116936318160ddd936004808201949293918390030190829087803b158015612d5c57600080fd5b505af1158015612d70573d6000803e3d6000fd5b505050506040513d6020811015612d8657600080fd5b5051612da088670de0b6b3a764000063ffffffff613b0216565b9063ffffffff613b3116565b11159050612e13565b600454612e0e600160009054906101000a9004600160a060020a0316600160a060020a03166318160ddd6040518163ffffffff1660e060020a028152600401602060405180830381600087803b158015612d5c57600080fd5b111590505b612e61565b600160a060020a0387166000908152600760205260408120541115612e595750600160a060020a038616600090815260076020526040902054841115612e61565b506003548411155b8015612e705760019150612e75565b600091505b5095945050505050565b60d960020a6420a226a4a702600080600160009054906101000a9004600160a060020a0316600160a060020a0316638da5cb5b6040518163ffffffff1660e060020a028152600401602060405180830381600087803b158015612ee157600080fd5b505af1158015612ef5573d6000803e3d6000fd5b505050506040513d6020811015612f0b57600080fd5b505160005433600160a060020a039283168114945091161490508180612f2e5750805b80612fbe57506001546040805160e060020a638658b8b9028152336004820152306024820152604481018690529051600160a060020a0390921691638658b8b9916064808201926020929091908290030181600087803b158015612f9157600080fd5b505af1158015612fa5573d6000803e3d6000fd5b505050506040513d6020811015612fbb57600080fd5b50515b1515613002576040805160e560020a62461bcd0281526020600482015260176024820152600080516020613b67833981519152604482015290519081900360640190fd5b60055460ff1615158415151415613063576040805160e560020a62461bcd02815260206004820152601360248201527f4d757374206368616e67652073657474696e6700000000000000000000000000604482015290519081900360640190fd5b6005805460ff19168515159081179091556040805191825242602083015280517f18c46e6020c4726ca5632d0d9151af91a57008e48735d9c6283621f37fae3db59281900390910190a150505050565b60d960020a6420a226a4a702600080600160009054906101000a9004600160a060020a0316600160a060020a0316638da5cb5b6040518163ffffffff1660e060020a028152600401602060405180830381600087803b15801561311557600080fd5b505af1158015613129573d6000803e3d6000fd5b505050506040513d602081101561313f57600080fd5b505160005433600160a060020a0392831681149450911614905081806131625750805b806131f257506001546040805160e060020a638658b8b9028152336004820152306024820152604481018690529051600160a060020a0390921691638658b8b9916064808201926020929091908290030181600087803b1580156131c557600080fd5b505af11580156131d9573d6000803e3d6000fd5b505050506040513d60208110156131ef57600080fd5b50515b1515613236576040805160e560020a62461bcd0281526020600482015260176024820152600080516020613b67833981519152604482015290519081900360640190fd5b60025460a860020a900460ff161515613299576040805160e560020a62461bcd02815260206004820181905260248201527f5472616e73666572206c696d697420616c726561647920696e20746f6b656e73604482015290519081900360640190fd5b6002805475ff000000000000000000000000000000000000000000191690556132c184610bc3565b6040517fae6b200cd6766f522ab5e916ea573857eafcb425e284817d88bbc986c951f64790600090a150505050565b600060d960020a6420a226a4a702600080600160009054906101000a9004600160a060020a0316600160a060020a0316638da5cb5b6040518163ffffffff1660e060020a028152600401602060405180830381600087803b15801561335457600080fd5b505af1158015613368573d6000803e3d6000fd5b505050506040513d602081101561337e57600080fd5b505160005433600160a060020a0392831681149450911614905081806133a15750805b8061343157506001546040805160e060020a638658b8b9028152336004820152306024820152604481018690529051600160a060020a0390921691638658b8b9916064808201926020929091908290030181600087803b15801561340457600080fd5b505af1158015613418573d6000803e3d6000fd5b505050506040513d602081101561342e57600080fd5b50515b1515613475576040805160e560020a62461bcd0281526020600482015260176024820152600080516020613b67833981519152604482015290519081900360640190fd5b84516000106134bc576040805160e560020a62461bcd0281526020600482015260176024820152600080516020613b47833981519152604482015290519081900360640190fd5b600093505b8451841015611071576134ea85858151811015156134db57fe5b906020019060200201516122ba565b6001909301926134c1565b60076020526000908152604090205481565b60086020526000908152604090205481565b60045481565b600060d960020a6420a226a4a702600080600160009054906101000a9004600160a060020a0316600160a060020a0316638da5cb5b6040518163ffffffff1660e060020a028152600401602060405180830381600087803b15801561358357600080fd5b505af1158015613597573d6000803e3d6000fd5b505050506040513d60208110156135ad57600080fd5b505160005433600160a060020a0392831681149450911614905081806135d05750805b8061366057506001546040805160e060020a638658b8b9028152336004820152306024820152604481018690529051600160a060020a0390921691638658b8b9916064808201926020929091908290030181600087803b15801561363357600080fd5b505af1158015613647573d6000803e3d6000fd5b505050506040513d602081101561365d57600080fd5b50515b15156136a4576040805160e560020a62461bcd0281526020600482015260176024820152600080516020613b67833981519152604482015290519081900360640190fd5b84516000106136eb576040805160e560020a62461bcd0281526020600482015260176024820152600080516020613b47833981519152604482015290519081900360640190fd5b600093505b845184101561107157613719858581518110151561370a57fe5b90602001906020020151612799565b6001909301926136f0565b60d960020a6420a226a4a702600080600160009054906101000a9004600160a060020a0316600160a060020a0316638da5cb5b6040518163ffffffff1660e060020a028152600401602060405180830381600087803b15801561378657600080fd5b505af115801561379a573d6000803e3d6000fd5b505050506040513d60208110156137b057600080fd5b505160005433600160a060020a0392831681149450911614905081806137d35750805b8061386357506001546040805160e060020a638658b8b9028152336004820152306024820152604481018690529051600160a060020a0390921691638658b8b9916064808201926020929091908290030181600087803b15801561383657600080fd5b505af115801561384a573d6000803e3d6000fd5b505050506040513d602081101561386057600080fd5b50515b15156138a7576040805160e560020a62461bcd0281526020600482015260176024820152600080516020613b67833981519152604482015290519081900360640190fd5b600160a060020a0384166000908152600760205260408120541161393b576040805160e560020a62461bcd02815260206004820152602d60248201527f57616c6c6574204164647265737320646f6573206e6f7420686176652061207460448201527f72616e73666572206c696d697400000000000000000000000000000000000000606482015290519081900360840190fd5b600160a060020a038416600081815260076020908152604080832092909255815192835290517f7c1d5d39521e3802a21959ceb2b28e510393855700204568197de33c85eaf8609281900390910190a150505050565b60025460a060020a900460ff1615156139f4576040805160e560020a62461bcd02815260206004820152601660248201527f436f6e7472616374206973206e6f742070617573656400000000000000000000604482015290519081900360640190fd5b6002805474ff0000000000000000000000000000000000000000191690556040805142815290517faaa520fdd7d2c83061d632fa017b0432407e798818af63ea908589fceda39ab79181900360200190a1565b60025460a060020a900460ff1615613aa9576040805160e560020a62461bcd02815260206004820152601260248201527f436f6e7472616374206973207061757365640000000000000000000000000000604482015290519081900360640190fd5b6002805474ff0000000000000000000000000000000000000000191660a060020a1790556040805142815290517f68b095021b1f40fe513109f513c66692f0b3219aee674a69f4efc57badb8201d9181900360200190a1565b6000821515613b1357506000613b2b565b50818102818382811515613b2357fe5b0414613b2b57fe5b92915050565b60008183811515613b3e57fe5b049392505050560057616c6c6574732063616e6e6f7420626520656d7074790000000000000000005065726d697373696f6e20636865636b206661696c6564000000000000000000a165627a7a72305820fde447b468f93ed389491ffdbaadc66be1b3bacdf4d20444cd976f41e04cca640029",
  "source": "pragma solidity ^0.4.24;\nimport \"./ITransferManager.sol\";\nimport \"openzeppelin-solidity/contracts/math/SafeMath.sol\";\n\n/**\n * @title Transfer Manager for limiting volume of tokens in a single trade\n */\n\ncontract SingleTradeVolumeRestrictionManager is ITransferManager {\n    using SafeMath for uint256;\n\n    bytes32 constant public ADMIN = \"ADMIN\";\n\n    bool public isTransferLimitInPercentage;\n\n    uint256 public globalTransferLimitInTokens;\n\n    // should be multipled by 10^16. if the transfer percentage is 20%, then globalTransferLimitInPercentage should be 20*10^16\n    uint256 public globalTransferLimitInPercentage;\n\n    // Ignore transactions which are part of the primary issuance\n    bool public allowPrimaryIssuance = true;\n\n    //mapping to store the wallets that are exempted from the volume restriction\n    mapping(address => bool) public exemptWallets;\n\n    //addresses on this list have special transfer restrictions apart from global\n    mapping(address => uint) public specialTransferLimitsInTokens;\n\n    mapping(address => uint) public specialTransferLimitsInPercentages;\n\n    event ExemptWalletAdded(address _wallet);\n    event ExemptWalletRemoved(address _wallet);\n    event TransferLimitInTokensSet(address _wallet, uint256 _amount);\n    event TransferLimitInPercentageSet(address _wallet, uint _percentage);\n    event TransferLimitInPercentageRemoved(address _wallet);\n    event TransferLimitInTokensRemoved(address _wallet);\n    event GlobalTransferLimitInTokensSet(uint256 _amount, uint256 _oldAmount);\n    event GlobalTransferLimitInPercentageSet(uint256 _percentage, uint256 _oldPercentage);\n    event TransferLimitChangedToTokens();\n    event TransferLimitChangedtoPercentage();\n    event SetAllowPrimaryIssuance(bool _allowPrimaryIssuance, uint256 _timestamp);\n\n    /**\n     * @notice Constructor\n     * @param _securityToken Address of the security token\n     * @param _polyAddress Address of the polytoken\n    */\n    constructor(address _securityToken, address _polyAddress) public\n    Module(_securityToken, _polyAddress)\n    {\n\n    }\n\n    /// @notice Used to verify the transfer transaction according to the rule implemented in the transfer manager\n    function verifyTransfer(address _from, address /* _to */, uint256 _amount, bytes /* _data */, bool /* _isTransfer */) public returns(Result) {\n        bool validTransfer;\n\n        if (exemptWallets[_from] || paused) return Result.NA;\n\n        if (_from == address(0) && allowPrimaryIssuance) {\n            return Result.NA;\n        }\n\n        if (isTransferLimitInPercentage) {\n            if(specialTransferLimitsInPercentages[_from] > 0) {\n                validTransfer = (_amount.mul(10**18).div(ISecurityToken(securityToken).totalSupply())) <= specialTransferLimitsInPercentages[_from];\n            } else {\n                validTransfer = (_amount.mul(10**18).div(ISecurityToken(securityToken).totalSupply())) <= globalTransferLimitInPercentage;\n            }\n        } else  {\n          if (specialTransferLimitsInTokens[_from] > 0) {\n              validTransfer = _amount <= specialTransferLimitsInTokens[_from];\n          } else {\n              validTransfer = _amount <= globalTransferLimitInTokens;\n          }\n        }\n        if (validTransfer) return Result.NA;\n        return Result.INVALID;\n    }\n\n    /**\n    * @notice Used to intialize the variables of the contract\n    * @param _isTransferLimitInPercentage true if the transfer limit is in percentage else false\n    * @param _globalTransferLimitInPercentageOrToken transfer limit per single transaction.\n    */\n    function configure(bool _isTransferLimitInPercentage, uint256 _globalTransferLimitInPercentageOrToken, bool _allowPrimaryIssuance) public onlyFactory {\n        isTransferLimitInPercentage = _isTransferLimitInPercentage;\n        if (isTransferLimitInPercentage) {\n            changeGlobalLimitInPercentage(_globalTransferLimitInPercentageOrToken);\n        } else {\n            changeGlobalLimitInTokens(_globalTransferLimitInPercentageOrToken);\n        }\n        allowPrimaryIssuance = _allowPrimaryIssuance;\n    }\n\n    /**\n    * @notice sets whether or not to consider primary issuance transfers\n    * @param _allowPrimaryIssuance whether to allow all primary issuance transfers\n    */\n    function setAllowPrimaryIssuance(bool _allowPrimaryIssuance) public withPerm(ADMIN) {\n        require(_allowPrimaryIssuance != allowPrimaryIssuance, \"Must change setting\");\n        allowPrimaryIssuance = _allowPrimaryIssuance;\n        emit SetAllowPrimaryIssuance(_allowPrimaryIssuance, now);\n    }\n\n    /**\n    * @notice Changes the manager to use transfer limit as Percentages\n    * @param _newGlobalTransferLimitInPercentage uint256 new global Transfer Limit In Percentage.\n    * @dev specialTransferLimits set for wallets have to re-configured\n    */\n    function changeTransferLimitToPercentage(uint256 _newGlobalTransferLimitInPercentage) public withPerm(ADMIN) {\n        require(!isTransferLimitInPercentage, \"Transfer limit already in percentage\");\n        isTransferLimitInPercentage = true;\n        changeGlobalLimitInPercentage(_newGlobalTransferLimitInPercentage);\n        emit TransferLimitChangedtoPercentage();\n    }\n\n    /**\n    * @notice Changes the manager to use transfer limit as tokens\n    * @param _newGlobalTransferLimit uint256 new global Transfer Limit in tokens.\n    * @dev specialTransferLimits set for wallets have to re-configured\n    */\n    function changeTransferLimitToTokens(uint _newGlobalTransferLimit) public withPerm(ADMIN) {\n        require(isTransferLimitInPercentage, \"Transfer limit already in tokens\");\n        isTransferLimitInPercentage = false;\n        changeGlobalLimitInTokens(_newGlobalTransferLimit);\n        emit TransferLimitChangedToTokens();\n    }\n    /**\n    * @notice Change the global transfer limit\n    * @param _newGlobalTransferLimitInTokens new transfer limit in tokens\n    * @dev This function can be used only when The manager is configured to use limits in tokens\n    */\n    function changeGlobalLimitInTokens(uint256 _newGlobalTransferLimitInTokens) public withPerm(ADMIN) {\n        require(!isTransferLimitInPercentage, \"Transfer limit not set in tokens\");\n        require(_newGlobalTransferLimitInTokens > 0, \"Transfer limit has to greater than zero\");\n        emit GlobalTransferLimitInTokensSet(_newGlobalTransferLimitInTokens, globalTransferLimitInTokens);\n        globalTransferLimitInTokens = _newGlobalTransferLimitInTokens;\n\n    }\n\n    /**\n    * @notice Change the global transfer limit\n    * @param _newGlobalTransferLimitInPercentage new transfer limit in percentage.\n    * Multiply the percentage by 10^16. Eg 22% will be 22*10^16\n    * @dev This function can be used only when The manager is configured to use limits in percentage\n    */\n    function changeGlobalLimitInPercentage(uint256 _newGlobalTransferLimitInPercentage) public withPerm(ADMIN) {\n        require(isTransferLimitInPercentage, \"Transfer limit not set in Percentage\");\n        require(_newGlobalTransferLimitInPercentage > 0 &&  _newGlobalTransferLimitInPercentage <= 100 * 10 ** 16);\n        emit GlobalTransferLimitInPercentageSet(_newGlobalTransferLimitInPercentage, globalTransferLimitInPercentage);\n        globalTransferLimitInPercentage = _newGlobalTransferLimitInPercentage;\n\n    }\n\n    /**\n    * @notice add an exempt wallet\n    * @param _wallet exempt wallet address\n    */\n    function addExemptWallet(address _wallet) public withPerm(ADMIN) {\n        require(_wallet != address(0), \"Wallet address cannot be a zero address\");\n        exemptWallets[_wallet] = true;\n        emit ExemptWalletAdded(_wallet);\n    }\n\n    /**\n    * @notice remove an exempt wallet\n    * @param _wallet exempt wallet address\n    */\n    function removeExemptWallet(address _wallet) public withPerm(ADMIN) {\n        require(_wallet != address(0), \"Wallet address cannot be a zero address\");\n        exemptWallets[_wallet] = false;\n        emit ExemptWalletRemoved(_wallet);\n    }\n\n    /**\n    * @notice adds an array of exempt wallet\n    * @param _wallets array of exempt wallet addresses\n    */\n    function addExemptWalletMulti(address[] _wallets) public withPerm(ADMIN) {\n        require(_wallets.length > 0, \"Wallets cannot be empty\");\n        for (uint256 i = 0; i < _wallets.length; i++) {\n            addExemptWallet(_wallets[i]);\n        }\n    }\n\n    /**\n    * @notice removes an array of exempt wallet\n    * @param _wallets array of exempt wallet addresses\n    */\n    function removeExemptWalletMulti(address[] _wallets) public withPerm(ADMIN) {\n        require(_wallets.length > 0, \"Wallets cannot be empty\");\n        for (uint256 i = 0; i < _wallets.length; i++) {\n            removeExemptWallet(_wallets[i]);\n        }\n    }\n\n    /**\n    * @notice set transfer limit per wallet\n    * @param _wallet wallet address\n    * @param _transferLimit transfer limit for the wallet in tokens\n    * @dev the manager has to be configured to use limits in tokens\n    */\n    function setTransferLimitInTokens(address _wallet, uint _transferLimit) public withPerm(ADMIN) {\n        require(_transferLimit > 0, \"Transfer limit has to be greater than 0\");\n        require(!isTransferLimitInPercentage, \"Transfer limit not in token amount\");\n        specialTransferLimitsInTokens[_wallet] = _transferLimit;\n        emit TransferLimitInTokensSet(_wallet, _transferLimit);\n    }\n\n    /**\n    * @notice set transfer limit for a wallet\n    * @param _wallet wallet address\n    * @param _transferLimitInPercentage transfer limit for the wallet in percentage.\n    * Multiply the percentage by 10^16. Eg 22% will be 22*10^16\n    * @dev The manager has to be configured to use percentages\n    */\n    function setTransferLimitInPercentage(address _wallet, uint _transferLimitInPercentage) public withPerm(ADMIN) {\n        require(isTransferLimitInPercentage, \"Transfer limit not in percentage\");\n        require(_transferLimitInPercentage > 0 && _transferLimitInPercentage <= 100 * 10 ** 16, \"Transfer limit not in required range\");\n        specialTransferLimitsInPercentages[_wallet] = _transferLimitInPercentage;\n        emit TransferLimitInPercentageSet(_wallet, _transferLimitInPercentage);\n    }\n\n\n    /**\n    * @notice removes transfer limit set in percentage for a wallet\n    * @param _wallet wallet address\n    */\n    function removeTransferLimitInPercentage(address _wallet) public withPerm(ADMIN) {\n        require(specialTransferLimitsInPercentages[_wallet] > 0 , \"Wallet Address does not have a transfer limit\");\n        specialTransferLimitsInPercentages[_wallet] = 0;\n        emit TransferLimitInPercentageRemoved(_wallet);\n    }\n\n    /**\n    * @notice removes transfer limit set in tokens for a wallet\n    * @param _wallet wallet address\n    */\n    function removeTransferLimitInTokens(address _wallet) public withPerm(ADMIN) {\n        require(specialTransferLimitsInTokens[_wallet] > 0 , \"Wallet Address does not have a transfer limit\");\n        specialTransferLimitsInTokens[_wallet] = 0;\n        emit TransferLimitInTokensRemoved(_wallet);\n    }\n\n    /**\n    * @notice sets transfer limits for an array of wallet\n    * @param _wallets array of wallet addresses\n    * @param _transferLimits array of transfer limits for each wallet in tokens\n    * @dev The manager has to be configured to use tokens as limit\n    */\n    function setTransferLimitInTokensMulti(address[] _wallets, uint[] _transferLimits) public withPerm(ADMIN) {\n        require(_wallets.length  > 0, \"Wallets cannot be empty\");\n        require(_wallets.length == _transferLimits.length);\n        for (uint256 i=0; i < _wallets.length; i++ ) {\n            setTransferLimitInTokens(_wallets[i], _transferLimits[i]);\n        }\n    }\n\n    /**\n    * @notice sets transfer limits for an array of wallet\n    * @param _wallets array of wallet addresses\n    * @param _transferLimitsInPercentage array of transfer limits for each wallet in percentages\n    * The percentage has to be multipled by 10 ** 16. Eg: 20% would be 20 * 10 ** 16\n    * @dev The manager has to be configured to use percentage as limit\n    */\n    function setTransferLimitInPercentageMulti(address[] _wallets, uint[] _transferLimitsInPercentage) public withPerm(ADMIN) {\n        require(_wallets.length > 0, \"Wallets cannot be empty\");\n        require(_wallets.length == _transferLimitsInPercentage.length);\n        for (uint256 i=0; i < _wallets.length; i++) {\n            setTransferLimitInPercentage(_wallets[i], _transferLimitsInPercentage[i]);\n        }\n    }\n\n    /**\n    * @notice removes transfer limits set in tokens for an array of wallet\n    * @param _wallets array of wallet addresses\n    */\n    function removeTransferLimitInTokensMulti(address[] _wallets) public withPerm(ADMIN) {\n        require(_wallets.length > 0, \"Wallets cannot be empty\");\n        for (uint i = 0; i < _wallets.length; i++) {\n            removeTransferLimitInTokens(_wallets[i]);\n        }\n    }\n\n    /**\n    * @notice removes transfer limits set in percentage for an array of wallet\n    * @param _wallets array of wallet addresses\n    */\n    function removeTransferLimitInPercentageMulti(address[] _wallets) public withPerm(ADMIN) {\n        require(_wallets.length > 0, \"Wallets cannot be empty\");\n        for (uint i = 0; i < _wallets.length; i++) {\n            removeTransferLimitInPercentage(_wallets[i]);\n        }\n    }\n\n    /**\n    * @notice This function returns the signature of configure function\n    */\n    function getInitFunction() public pure returns (bytes4) {\n        return bytes4(keccak256(\"configure(bool,uint256,bool)\"));\n    }\n\n    /**\n    * @notice Return the permissions flag that are associated with SingleTradeVolumeRestrictionManager\n    */\n    function getPermissions() public view returns(bytes32[]) {\n        bytes32[] memory allPermissions = new bytes32[](1);\n        allPermissions[0] = ADMIN;\n        return allPermissions;\n    }\n}",
  "sourcePath": "/Users/rafaelvidaurre/Code/polymath/polymath-apps/packages/polymath-shared/scripts/generateLocalBlockchain/contracts/modules/TransferManager/SingleTradeVolumeRestrictionManager.sol",
  "compiler": {
    "name": "solc",
    "version": "0.4.24+commit.e67f0147.Emscripten.clang"
  },
  "schemaVersion": "2.0.1",
  "updatedAt": "2018-10-10T21:31:06.479Z"
}