{
  "contractName": "STFactory",
  "abi": [
    {
      "constant": true,
      "inputs": [],
      "name": "transferManagerFactory",
      "outputs": [
        {
          "name": "",
          "type": "address"
        }
      ],
      "payable": false,
      "stateMutability": "view",
      "type": "function"
    },
    {
      "inputs": [
        {
          "name": "_transferManagerFactory",
          "type": "address"
        }
      ],
      "payable": false,
      "stateMutability": "nonpayable",
      "type": "constructor"
    },
    {
      "constant": false,
      "inputs": [
        {
          "name": "_name",
          "type": "string"
        },
        {
          "name": "_symbol",
          "type": "string"
        },
        {
          "name": "_decimals",
          "type": "uint8"
        },
        {
          "name": "_tokenDetails",
          "type": "string"
        },
        {
          "name": "_issuer",
          "type": "address"
        },
        {
          "name": "_divisible",
          "type": "bool"
        },
        {
          "name": "_polymathRegistry",
          "type": "address"
        }
      ],
      "name": "deployToken",
      "outputs": [
        {
          "name": "",
          "type": "address"
        }
      ],
      "payable": false,
      "stateMutability": "nonpayable",
      "type": "function"
    }
  ],
  "bytecode": "0x608060405234801561001057600080fd5b5060405160208061600e833981016040525160008054600160a060020a03909216600160a060020a0319909216919091179055615fbc806100526000396000f30060806040526004361061004b5763ffffffff7c0100000000000000000000000000000000000000000000000000000000600035041663225da7e58114610050578063c85fd4f814610081575b600080fd5b34801561005c57600080fd5b506100656100d8565b60408051600160a060020a039092168252519081900360200190f35b34801561008d57600080fd5b50610065602460048035828101929082013591813580830192908201359160ff6044351691606435908101910135600160a060020a0360843581169060a43515159060c435166100e7565b600054600160a060020a031681565b6000808b8b8b8b8b88610100578c60ff16600a0a610103565b60015b8c8c8a61010e6102de565b60ff8616604082015260608101859052600160a060020a03821660a082015260c0808252810189905280602081016080820160e083018d8d8082843790910185810384528b815260200190508b8b808284379091018581038352878152602001905087878082843782019150509c50505050505050505050505050604051809103906000f0801580156101a5573d6000803e3d6000fd5b5060008054604080517ff5efbd2d000000000000000000000000000000000000000000000000000000008152600160a060020a0392831660048201526044810184905260648101849052608060248201526084810184905290519394509084169263f5efbd2d9260c48084019391929182900301818387803b15801561022a57600080fd5b505af115801561023e573d6000803e3d6000fd5b5050505080600160a060020a031663f2fde38b866040518263ffffffff167c01000000000000000000000000000000000000000000000000000000000281526004018082600160a060020a0316600160a060020a03168152602001915050600060405180830381600087803b1580156102b657600080fd5b505af11580156102ca573d6000803e3d6000fd5b50929e9d5050505050505050505050505050565b604051615ca2806102ef83390190560060806040526005805461ff00191690553480156200001c57600080fd5b5060405162005ca238038062005ca28339810160409081528151602080840151928401516060850151608086015160a0870151948701805190979687019693959294919093019282918891889188916200007d916003919086019062000538565b5081516200009390600490602085019062000538565b506005805460ff191660ff92909216919091176201000060b060020a0319163362010000021790555050600160a060020a03811615156200013557604080517f08c379a000000000000000000000000000000000000000000000000000000000815260206004820152600f60248201527f496e76616c696420616464726573730000000000000000000000000000000000604482015290519081900360640190fd5b60068054600160a060020a031916600160a060020a039290921691909117905562000168640100000000620001b6810204565b81516200017d90600f90602085019062000538565b50505060105550506040805160608101825260008082526020820152600291015250600e805462ffffff191662020000179055620005dd565b600554620100009004600160a060020a03163314620001d457600080fd5b600654604080517fbf40fac1000000000000000000000000000000000000000000000000000000008152602060048201819052600e60248301527f4d6f64756c65526567697374727900000000000000000000000000000000000060448301529151600160a060020a039093169263bf40fac1926064808401939192918290030181600087803b1580156200026857600080fd5b505af11580156200027d573d6000803e3d6000fd5b505050506040513d60208110156200029457600080fd5b505160078054600160a060020a031916600160a060020a03928316179055600654604080517fbf40fac1000000000000000000000000000000000000000000000000000000008152602060048201819052601560248301527f5365637572697479546f6b656e5265676973747279000000000000000000000060448301529151929093169263bf40fac192606480830193928290030181600087803b1580156200033d57600080fd5b505af115801562000352573d6000803e3d6000fd5b505050506040513d60208110156200036957600080fd5b505160088054600160a060020a031916600160a060020a03928316179055600654604080517fbf40fac1000000000000000000000000000000000000000000000000000000008152602060048201819052600f60248301527f466561747572655265676973747279000000000000000000000000000000000060448301529151929093169263bf40fac192606480830193928290030181600087803b1580156200041257600080fd5b505af115801562000427573d6000803e3d6000fd5b505050506040513d60208110156200043e57600080fd5b505160098054600160a060020a031916600160a060020a03928316178155600654604080517fbf40fac100000000000000000000000000000000000000000000000000000000815260206004820181905260248201949094527f506f6c79546f6b656e000000000000000000000000000000000000000000000060448201529051919093169263bf40fac19260648083019391928290030181600087803b158015620004e957600080fd5b505af1158015620004fe573d6000803e3d6000fd5b505050506040513d60208110156200051557600080fd5b5051600a8054600160a060020a031916600160a060020a03909216919091179055565b828054600181600116156101000203166002900490600052602060002090601f016020900481019282601f106200057b57805160ff1916838001178555620005ab565b82800160010185558215620005ab579182015b82811115620005ab5782518255916020019190600101906200058e565b50620005b9929150620005bd565b5090565b620005da91905b80821115620005b95760008155600101620005c4565b90565b6156b580620005ed6000396000f3006080604052600436106102d15763ffffffff60e060020a6000350416630150246081146102d657806306fdde03146102ed578063095ea7b3146103775780630d8e6e2c146103af57806312ef7fe21461041457806318160ddd14610435578063210a8d0e1461045c57806323b872dd146104745780632535f7621461049e5780633052eed814610507578063313ce5671461052257806331c420d41461054d5780633576857e1461056257806338777af2146105835780633c9dcebe1461062a5780633f5535861461068857806340c10f19146106a057806346e4959d146106c45780634c6041d3146106f05780634ee2cd7e146107055780635488cc8014610729578063556f0dc71461073e5780635c49de5e1461075357806362b348c31461080057806366188463146108295780636faa22a51461084d57806370a082311461087e578063715018a61461089f57806373826a93146108b4578063764387bd146108d457806377282b70146108ec5780637a802c71146109015780637d6ae27b146109165780638658b8b91461097f578063869e50c7146109a95780638da5cb5b146109be57806392eefe9b146109d357806395d89b41146109f4578063960524e314610a0957806396adfe4214610a1e578063981b24d014610a87578063a063246114610a9f578063a1db978214610ac0578063a284de0214610ae4578063a9059cbb14610af9578063ac90b42214610b1d578063b2f5a54c14610b38578063b5de8d4c14610b4d578063b95459e414610bf3578063c013f30f14610c08578063caf90dab14610c1d578063ce4dbdff14610c32578063d6abe11014610c47578063d73dd62314610c5c578063dd62ed3e14610c80578063e45b813414610ca7578063ee532f3114610cbc578063f1d74b0f14610d2b578063f2fde38b14610d9a578063f433262f14610dbb578063f5efbd2d14610dd0578063f77c479114610e03578063ff0b9c9014610e18575b600080fd5b3480156102e257600080fd5b506102eb610e2d565b005b3480156102f957600080fd5b50610302610ef0565b6040805160208082528351818301528351919283929083019185019080838360005b8381101561033c578181015183820152602001610324565b50505050905090810190601f1680156103695780820380516001836020036101000a031916815260200191505b509250505060405180910390f35b34801561038357600080fd5b5061039b600160a060020a0360043516602435610f7e565b604080519115158252519081900360200190f35b3480156103bb57600080fd5b506103c4610fe4565b60408051602080825283518183015283519192839290830191858101910280838360005b838110156104005781810151838201526020016103e8565b505050509050019250505060405180910390f35b34801561042057600080fd5b506102eb600160a060020a036004351661108f565b34801561044157600080fd5b5061044a61114e565b60408051918252519081900360200190f35b34801561046857600080fd5b506102eb600435611155565b34801561048057600080fd5b5061039b600160a060020a036004358116906024351660443561120b565b3480156104aa57600080fd5b50604080516020600460443581810135601f810184900484028501840190955284845261039b948235600160a060020a03169460248035953695946064949201919081908401838280828437509497506112319650505050505050565b34801561051357600080fd5b506103c46004356024356112a2565b34801561052e57600080fd5b506105376113b3565b6040805160ff9092168252519081900360200190f35b34801561055957600080fd5b506102eb6113bc565b34801561056e57600080fd5b506102eb600160a060020a036004351661147c565b34801561058f57600080fd5b50604080516020600460443581810135601f81018490048402850184019095528484526102eb948235600160a060020a031694602480359536959460649492019190819084018382808284375050604080516020601f89358b018035918201839004830284018301909452808352979a9998810197919650918201945092508291508401838280828437509497506115209650505050505050565b34801561063657600080fd5b5060408051602060046024803582810135601f81018590048502860185019096528585526102eb9583359536956044949193909101919081908401838280828437509497506116c29650505050505050565b34801561069457600080fd5b506103c460043561173f565b3480156106ac57600080fd5b5061039b600160a060020a0360043516602435611850565b3480156106d057600080fd5b5061039b6024600480358281019290820135918135918201910135611874565b3480156106fc57600080fd5b506103c4611928565b34801561071157600080fd5b5061044a600160a060020a0360043516602435611980565b34801561073557600080fd5b5061044a611a48565b34801561074a57600080fd5b5061044a611a4e565b34801561075f57600080fd5b50604080516020601f6064356004818101359283018490048402850184019095528184526102eb94600160a060020a03813581169560248035909216956044359536956084940191819084018382808284375050604080516020601f89358b018035918201839004830284018301909452808352979a999881019791965091820194509250829150840183828082843750949750611a549650505050505050565b34801561080c57600080fd5b506102eb600160a060020a03600435166024356044351515611cfc565b34801561083557600080fd5b5061039b600160a060020a036004351660243561212b565b34801561085957600080fd5b5061086261221d565b60408051600160a060020a039092168252519081900360200190f35b34801561088a57600080fd5b5061044a600160a060020a036004351661222c565b3480156108ab57600080fd5b506102eb612247565b3480156108c057600080fd5b506102eb60048035602481019101356122c2565b3480156108e057600080fd5b506103c46004356123b9565b3480156108f857600080fd5b50610862612425565b34801561090d57600080fd5b5061039b612434565b34801561092257600080fd5b50604080516020600460443581810135601f81018490048402850184019095528484526102eb948235600160a060020a03169460248035953695946064949201919081908401838280828437509497506124439650505050505050565b34801561098b57600080fd5b5061039b600160a060020a0360043581169060243516604435612594565b3480156109b557600080fd5b506102eb61273a565b3480156109ca57600080fd5b506108626128fd565b3480156109df57600080fd5b506102eb600160a060020a0360043516612912565b348015610a0057600080fd5b506103026129bf565b348015610a1557600080fd5b5061044a612a1a565b348015610a2a57600080fd5b50604080516020600460443581810135601f810184900484028501840190955284845261039b948235600160a060020a0316946024803595369594606494920191908190840183828082843750949750612a209650505050505050565b348015610a9357600080fd5b5061044a600435612e16565b348015610aab57600080fd5b506102eb600160a060020a0360043516612ec4565b348015610acc57600080fd5b506102eb600160a060020a0360043516602435613339565b348015610af057600080fd5b5061039b61341b565b348015610b0557600080fd5b5061039b600160a060020a0360043516602435613429565b348015610b2957600080fd5b506103c460ff60043516613446565b348015610b4457600080fd5b506103c46134b4565b348015610b5957600080fd5b50610b6e600160a060020a0360043516613518565b60408051868152600160a060020a0380871660208084019190915290861692820192909252831515606082015260a06080820181815284519183019190915283519192909160c0840191858101910280838360005b83811015610bdb578181015183820152602001610bc3565b50505050905001965050505050505060405180910390f35b348015610bff57600080fd5b506108626135e2565b348015610c1457600080fd5b506102eb6135f1565b348015610c2957600080fd5b506108626137e0565b348015610c3e57600080fd5b506108626137ef565b348015610c5357600080fd5b506103026137fe565b348015610c6857600080fd5b5061039b600160a060020a0360043516602435613859565b348015610c8c57600080fd5b5061044a600160a060020a03600435811690602435166138f2565b348015610cb357600080fd5b5061039b61391d565b348015610cc857600080fd5b50604080516020601f60643560048181013592830184900484028501840190955281845261039b94600160a060020a0381358116956024803590921695604435953695608494019181908401838280828437509497506139269650505050505050565b348015610d3757600080fd5b50604080516020601f60643560048181013592830184900484028501840190955281845261039b94600160a060020a0381358116956024803590921695604435953695608494019181908401838280828437509497506139999650505050505050565b348015610da657600080fd5b506102eb600160a060020a03600435166139b2565b348015610dc757600080fd5b506102eb6139db565b348015610ddc57600080fd5b506102eb60048035600160a060020a03169060248035908101910135604435606435613cf8565b348015610e0f57600080fd5b506108626145e3565b348015610e2457600080fd5b5061044a6145f9565b600554620100009004600160a060020a03163314610e4a57600080fd5b60125460ff1615610ea5576040805160e560020a62461bcd02815260206004820152600e60248201527f416c72656164792066726f7a656e000000000000000000000000000000000000604482015290519081900360640190fd5b6012805460ff191660019081179091556040805191825242602083015280517f04f1ca1e602280d208c2c7ff2646257c29fd92371788c49a8a5c27de99a2bcda9281900390910190a1565b6003805460408051602060026001851615610100026000190190941693909304601f81018490048402820184019092528181529291830182828015610f765780601f10610f4b57610100808354040283529160200191610f76565b820191906000526020600020905b815481529060010190602001808311610f5957829003601f168201915b505050505081565b336000818152600260209081526040808320600160a060020a038716808552908352818420869055815186815291519394909390927f8c5be1e5ebec7d5bd14f71427d1e84f3dd0314c0f7b2291e5b200ac8c7c3b925928290030190a350600192915050565b604080516003808252608082019092526060918291906020820183803883395050600e54825192935060ff1691839150600090811061101f57fe5b60ff92831660209182029092010152600e548251610100909104909116908290600190811061104a57fe5b60ff92831660209182029092010152600e54825162010000909104909116908290600290811061107657fe5b60ff9092166020928302909101909101529050805b5090565b600554620100009004600160a060020a031633146110ac57600080fd5b600160a060020a03811660008181526014602052604080822081517f4e5ba926000000000000000000000000000000000000000000000000000000008152600481019190915260248101939093525173__TokenLib______________________________92634e5ba926926044808301939192829003018186803b15801561113357600080fd5b505af4158015611147573d6000803e3d6000fd5b5050505050565b6001545b90565b600554620100009004600160a060020a0316331461117257600080fd5b8015156111c9576040805160e560020a62461bcd02815260206004820152601360248201527f496e76616c6964206772616e756c617269747900000000000000000000000000604482015290519081900360640190fd5b601054604080519182526020820183905280517f7728e5c461dd94b32a33e149f4ef6b674a7eff704cac77b26937eaced90f00389281900390910190a1601055565b60006112298484846020604051908101604052806000815250613926565b949350505050565b600061123f3385858561474b565b1515611283576040805160e560020a62461bcd028152602060048201526010602482015260008051602061564a833981519152604482015290519081900360640190fd5b61128d84846147b5565b151561129857600080fd5b5060019392505050565b600c5460609081906000908190851115611306576040805160e560020a62461bcd02815260206004820152600b60248201527f496e76616c696420656e64000000000000000000000000000000000000000000604482015290519081900360640190fd5b611316858763ffffffff61488416565b60405190808252806020026020018201604052801561133f578160200160208202803883390190505b509250600091508590505b848110156113a957600c80548290811061136057fe5b6000918252602090912001548351600160a060020a039091169084908490811061138657fe5b600160a060020a039092166020928302909101909101526001918201910161134a565b5090949350505050565b60055460ff1681565b600554620100009004600160a060020a031633146113d957600080fd5b60125460ff161515611435576040805160e560020a62461bcd02815260206004820152600a60248201527f4e6f742066726f7a656e00000000000000000000000000000000000000000000604482015290519081900360640190fd5b6012805460ff19169055604080516000815242602082015281517f04f1ca1e602280d208c2c7ff2646257c29fd92371788c49a8a5c27de99a2bcda929181900390910190a1565b600554620100009004600160a060020a0316331461149957600080fd5b600160a060020a03811660008181526014602052604080822081517fe486dd3b000000000000000000000000000000000000000000000000000000008152600481019190915260248101939093525173__TokenLib______________________________9263e486dd3b926044808301939192829003018186803b15801561113357600080fd5b60125460009063010000009004600160a060020a0316331461158c576040805160e560020a62461bcd02815260206004820152600e60248201527f4e6f7420636f6e74726f6c6c6572000000000000000000000000000000000000604482015290519081900360640190fd5b60125462010000900460ff16156115ed576040805160e560020a62461bcd02815260206004820152601360248201527f436f6e74726f6c6c65722064697361626c656400000000000000000000000000604482015290519081900360640190fd5b6115f8858585614896565b905084600160a060020a031633600160a060020a03167f27e232e0b8b07b7d0a09164e51186c4fb62c881eb6327305713f40282a16caf3868486604051808481526020018315151515815260200180602001828103825283818151815260200191508051906020019080838360005b8381101561167f578181015183820152602001611667565b50505050905090810190601f1680156116ac5780820380516001836020036101000a031916815260200191505b5094505050505060405180910390a35050505050565b60056116ce33826149ed565b15156116d957600080fd5b6116e4338484614896565b151561173a576040805160e560020a62461bcd02815260206004820152600c60248201527f4275726e20696e76616c69640000000000000000000000000000000000000000604482015290519081900360640190fd5b505050565b6060600080825b600c5482101561179857600c8054600091611780918590811061176557fe5b600091825260209091200154600160a060020a031687611980565b111561178d576001909201915b600190910190611746565b826040519080825280602002602001820160405280156117c2578160200160208202803883390190505b50905060009250600091505b600c5482101561122957600c80546000916117ed918590811061176557fe5b111561184557600c80548390811061180157fe5b6000918252602090912001548151600160a060020a039091169082908590811061182757fe5b600160a060020a039092166020928302909101909101526001909201915b6001909101906117ce565b600061186d83836020604051908101604052806000815250612a20565b9392505050565b6000808483146118ce576040805160e560020a62461bcd02815260206004820152601060248201527f496e636f727265637420696e7075747300000000000000000000000000000000604482015290519081900360640190fd5b5060005b8481101561191c576119138686838181106118e957fe5b90506020020135600160a060020a0316858584818110151561190757fe5b90506020020135611850565b506001016118d2565b50600195945050505050565b6060601880548060200260200160405190810160405280929190818152602001828054801561197657602002820191906000526020600020905b815481526020019060010190808311611962575b5050505050905090565b60115460009082111561199257600080fd5b600160a060020a038316600090815260166020526040902073__TokenLib______________________________9063b58ae1e290846119d08761222c565b6040518463ffffffff1660e060020a02815260040180848152602001838152602001828152602001935050505060206040518083038186803b158015611a1557600080fd5b505af4158015611a29573d6000803e3d6000fd5b505050506040513d6020811015611a3f57600080fd5b50519392505050565b60115481565b60105481565b60125460009063010000009004600160a060020a03163314611ac0576040805160e560020a62461bcd02815260206004820152600e60248201527f4e6f7420636f6e74726f6c6c6572000000000000000000000000000000000000604482015290519081900360640190fd5b60125462010000900460ff1615611b21576040805160e560020a62461bcd02815260206004820152601360248201527f436f6e74726f6c6c65722064697361626c656400000000000000000000000000604482015290519081900360640190fd5b600160a060020a0385161515611b3657600080fd5b600160a060020a038616600090815260208190526040902054841115611b5b57600080fd5b611b678686868661474b565b600160a060020a038716600090815260208190526040902054909150611b93908563ffffffff61488416565b600160a060020a038088166000908152602081905260408082209390935590871681522054611bc8908563ffffffff614b7516565b60008087600160a060020a0316600160a060020a031681526020019081526020016000208190555084600160a060020a031686600160a060020a031633600160a060020a03167ff38eab8c5ef9ca0b5df51f887249efab0c1e0bb6272a62cc9d330800ee7ddf6b878587604051808481526020018315151515815260200180602001828103825283818151815260200191508051906020019080838360005b83811015611c7f578181015183820152602001611c67565b50505050905090810190601f168015611cac5780820380516001836020036101000a031916815260200191505b5094505050505060405180910390a484600160a060020a031686600160a060020a031660008051602061566a833981519152866040518082815260200191505060405180910390a3505050505050565b6005546000908190620100009004600160a060020a03163314611d1e57600080fd5b600160a060020a03858116600090815260146020526040902060010154161515611d92576040805160e560020a62461bcd02815260206004820152600e60248201527f4d6f64756c65206d697373696e67000000000000000000000000000000000000604482015290519081900360640190fd5b600a54604080517fdd62ed3e000000000000000000000000000000000000000000000000000000008152306004820152600160a060020a0388811660248301529151919092169163dd62ed3e9160448083019260209291908290030181600087803b158015611e0057600080fd5b505af1158015611e14573d6000803e3d6000fd5b505050506040513d6020811015611e2a57600080fd5b505191508215611f3c57600a54604080517fd73dd623000000000000000000000000000000000000000000000000000000008152600160a060020a038881166004830152602482018890529151919092169163d73dd6239160448083019260209291908290030181600087803b158015611ea357600080fd5b505af1158015611eb7573d6000803e3d6000fd5b505050506040513d6020811015611ecd57600080fd5b50511515611f25576040805160e560020a62461bcd02815260206004820152601560248201527f496e637265617365417070726f76616c206661696c0000000000000000000000604482015290519081900360640190fd5b611f35828563ffffffff614b7516565b9050612040565b600a54604080517f66188463000000000000000000000000000000000000000000000000000000008152600160a060020a038881166004830152602482018890529151919092169163661884639160448083019260209291908290030181600087803b158015611fab57600080fd5b505af1158015611fbf573d6000803e3d6000fd5b505050506040513d6020811015611fd557600080fd5b5051151561202d576040805160e560020a62461bcd02815260206004820152601660248201527f496e73756666696369656e7420616c6c6f77616e636500000000000000000000604482015290519081900360640190fd5b61203d828563ffffffff61488416565b90505b7fa00a1c33ebb7433724919cb1059328c16265f935ef84a13442045da3e81c0ccc6014600087600160a060020a0316600160a060020a03168152602001908152602001600020600301868484604051808060200185600160a060020a0316600160a060020a03168152602001848152602001838152602001828103825286818154815260200191508054801561211357602002820191906000526020600020906000905b825461010083900a900460ff168152602060019283018181049485019490930390920291018084116120e45790505b50509550505050505060405180910390a15050505050565b336000908152600260209081526040808320600160a060020a03861684529091528120548083111561218057336000908152600260209081526040808320600160a060020a03881684529091528120556121b5565b612190818463ffffffff61488416565b336000908152600260209081526040808320600160a060020a03891684529091529020555b336000818152600260209081526040808320600160a060020a0389168085529083529281902054815190815290519293927f8c5be1e5ebec7d5bd14f71427d1e84f3dd0314c0f7b2291e5b200ac8c7c3b925929181900390910190a3600191505b5092915050565b600a54600160a060020a031681565b600160a060020a031660009081526020819052604090205490565b600554620100009004600160a060020a0316331461226457600080fd5b60055460405162010000909104600160a060020a0316907ff8df31144d9c2f0f6b59d69b8b98abd5459d07f2742c4df920b25aae33c6482090600090a26005805475ffffffffffffffffffffffffffffffffffffffff000019169055565b600554620100009004600160a060020a031633146122df57600080fd5b60408051818152600f8054600260001961010060018416150201909116049282018390527f4f5dc3feea8c186b1481cfe57c28df8871a61e3be16f7d65c60504cfd63440679290918591859190819060208201906060830190879080156123875780601f1061235c57610100808354040283529160200191612387565b820191906000526020600020905b81548152906001019060200180831161236a57829003601f168201915b50508381038252848152602001858580828437604051920182900397509095505050505050a161173a600f8383615453565b60008181526015602090815260409182902080548351818402810184019094528084526060939283018282801561241957602002820191906000526020600020905b8154600160a060020a031681526001909101906020018083116123fb575b50505050509050919050565b600654600160a060020a031681565b60125462010000900460ff1681565b600561244f33826149ed565b151561245a57600080fd5b600160a060020a03841660009081526002602090815260408083203384529091529020548311156124d5576040805160e560020a62461bcd02815260206004820152600e60248201527f56616c756520746f6f2068696768000000000000000000000000000000000000604482015290519081900360640190fd5b600160a060020a0384166000908152600260209081526040808320338452909152902054612509908463ffffffff61488416565b600160a060020a0385166000908152600260209081526040808320338452909152902055612538848484614896565b151561258e576040805160e560020a62461bcd02815260206004820152600c60248201527f4275726e20696e76616c69640000000000000000000000000000000000000000604482015290519081900360640190fd5b50505050565b6000805b600160005260136020527f4155c2f711f2cdd34f8262ab8fb9b7020a700fe7b6948222152f7670d1fdf34d5481101561272d576001600090815260136020527f4155c2f711f2cdd34f8262ab8fb9b7020a700fe7b6948222152f7670d1fdf34d805460149291908490811061260957fe5b6000918252602080832090910154600160a060020a0316835282019290925260400190206002015460ff60a060020a90910416151561272557600160005260136020908152604080517f84c0b0ef0000000000000000000000000000000000000000000000000000000081527f4155c2f711f2cdd34f8262ab8fb9b7020a700fe7b6948222152f7670d1fdf34d6004820152600160a060020a0380891660248301528716604482015260648101869052905173__TokenLib______________________________926384c0b0ef9260848082019391829003018186803b1580156126f257600080fd5b505af4158015612706573d6000803e3d6000fd5b505050506040513d602081101561271c57600080fd5b50519150612732565b600101612598565b600091505b509392505050565b604080518082018252601881527f64697361626c65436f6e74726f6c6c6572416c6c6f7765640000000000000000602080830191825260095493517f2f0019f2000000000000000000000000000000000000000000000000000000008152600481019182528351602482015283519394600160a060020a031693632f0019f29386939283926044909101919080838360005b838110156127e45781810151838201526020016127cc565b50505050905090810190601f1680156128115780820380516001836020036101000a031916815260200191505b5092505050602060405180830381600087803b15801561283057600080fd5b505af1158015612844573d6000803e3d6000fd5b505050506040513d602081101561285a57600080fd5b5051151561286757600080fd5b600554620100009004600160a060020a0316331461288457600080fd5b60125462010000900460ff161561289a57600080fd5b6012805476ffffffffffffffffffffffffffffffffffffffff0000001962ff00001990911662010000171690556040805142815290517f6d4b279f1788f74ba2f47792247cede2c5081366419a8d2e0d4b651182edbe6a9181900360200190a150565b600554620100009004600160a060020a031681565b600554620100009004600160a060020a0316331461292f57600080fd5b60125462010000900460ff161561294557600080fd5b601254604051600160a060020a03808416926301000000900416907f9fdb07212c6f92fd298affc4000712177664bc3c4cae5f61098d42da6d05be1e90600090a360128054600160a060020a0390921663010000000276ffffffffffffffffffffffffffffffffffffffff00000019909216919091179055565b6004805460408051602060026001851615610100026000190190941693909304601f81018490048402820184019092528181529291830182828015610f765780601f10610f4b57610100808354040283529160200191610f76565b600d5490565b600554600090600390620100009004600160a060020a0316331415612c1f57601254610100900460ff1615612a9f576040805160e560020a62461bcd02815260206004820152600e60248201527f4d696e74696e672066726f7a656e000000000000000000000000000000000000604482015290519081900360640190fd5b600160a060020a0385161515612aff576040805160e560020a62461bcd02815260206004820152600d60248201527f496e766573746f72206973203000000000000000000000000000000000000000604482015290519081900360640190fd5b612b0c600086868661474b565b1515612b50576040805160e560020a62461bcd028152602060048201526010602482015260008051602061564a833981519152604482015290519081900360640190fd5b612b58614b88565b600154612b6b908563ffffffff614b7516565b600155600160a060020a038516600090815260208190526040902054612b97908563ffffffff614b7516565b600160a060020a03861660008181526020818152604091829020939093558051878152905191927f30385c845b448a36257a6a1716e6ad2e1bc2cbe333cde1e69fe849ad6511adfe92918290030190a2604080518581529051600160a060020a0387169160009160008051602061566a8339815191529181900360200190a360019150612732565b612c2933826149ed565b1515612c3457600080fd5b601254610100900460ff1615612c94576040805160e560020a62461bcd02815260206004820152600e60248201527f4d696e74696e672066726f7a656e000000000000000000000000000000000000604482015290519081900360640190fd5b600160a060020a0385161515612cf4576040805160e560020a62461bcd02815260206004820152600d60248201527f496e766573746f72206973203000000000000000000000000000000000000000604482015290519081900360640190fd5b612d01600086868661474b565b1515612d45576040805160e560020a62461bcd028152602060048201526010602482015260008051602061564a833981519152604482015290519081900360640190fd5b612d4d614b88565b600154612d60908563ffffffff614b7516565b600155600160a060020a038516600090815260208190526040902054612d8c908563ffffffff614b7516565b600160a060020a03861660008181526020818152604091829020939093558051878152905191927f30385c845b448a36257a6a1716e6ad2e1bc2cbe333cde1e69fe849ad6511adfe92918290030190a2604080518581529051600160a060020a0387169160009160008051602061566a8339815191529181900360200190a3506001949350505050565b601154600090821115612e2857600080fd5b73__TokenLib______________________________63b58ae1e2601784612e4d61114e565b6040518463ffffffff1660e060020a02815260040180848152602001838152602001828152602001935050505060206040518083038186803b158015612e9257600080fd5b505af4158015612ea6573d6000803e3d6000fd5b505050506040513d6020811015612ebc57600080fd5b505192915050565b600554606090600090819081908190620100009004600160a060020a03163314612eed57600080fd5b600160a060020a03861660009081526014602052604090206002015460a060020a900460ff161515612f69576040805160e560020a62461bcd02815260206004820152600c60248201527f4e6f742061726368697665640000000000000000000000000000000000000000604482015290519081900360640190fd5b600160a060020a03868116600090815260146020526040902060010154161515612fdd576040805160e560020a62461bcd02815260206004820152600e60248201527f4d6f64756c65206d697373696e67000000000000000000000000000000000000604482015290519081900360640190fd5b7f51b49bea2e14e62ed58a6d53c2a092b2f7a04dc7d826763ae2fa3301b982fc286014600088600160a060020a0316600160a060020a031681526020019081526020016000206003018742604051808060200184600160a060020a0316600160a060020a0316815260200183815260200182810382528581815481526020019150805480156130a957602002820191906000526020600020906000905b825461010083900a900460ff1681526020600192830181810494850194909303909202910180841161307a5790505b505094505050505060405180910390a1600160a060020a0386166000908152601460209081526040918290206003018054835181840281018401909452808452909183018282801561313857602002820191906000526020600020906000905b825461010083900a900460ff168152602060019283018181049485019490930390920291018084116131095790505b50505050509450600093505b84518410156131ac576131a1858581518110151561315e57fe5b6020908102909101810151600160a060020a03891660009081526014909252604090912060040180548790811061319157fe5b9060005260206000200154614c08565b600190930192613144565b505050600160a060020a0383166000908152601460209081526040808320600581015490548085526015909352922080549060001982018281106131ec57fe5b6000918252602080832090910154848352601590915260409091208054600160a060020a03909216918590811061321f57fe5b60009182526020808320919091018054600160a060020a031916600160a060020a03949094169390931790925583815260159091526040902060001982019061326890826154cd565b50600019810183146132be5760008281526015602052604081208054859260149290918490811061329557fe5b6000918252602080832090910154600160a060020a031683528201929092526040019020600501555b600160a060020a0386166000908152601460205260408120818155600181018054600160a060020a031916905560028101805474ffffffffffffffffffffffffffffffffffffffffff191690559061331960038301826154f1565b613327600483016000615516565b60058201600090555050505050505050565b600554600090620100009004600160a060020a0316331461335957600080fd5b600160a060020a038316151561336e57600080fd5b50600554604080517fa9059cbb000000000000000000000000000000000000000000000000000000008152600160a060020a036201000090930483166004820152602481018490529051849283169163a9059cbb9160448083019260209291908290030181600087803b1580156133e457600080fd5b505af11580156133f8573d6000803e3d6000fd5b505050506040513d602081101561340e57600080fd5b5051151561173a57600080fd5b601254610100900460ff1681565b600061186d83836020604051908101604052806000815250611231565b60ff811660009081526013602090815260409182902080548351818402810184019094528084526060939283018282801561241957602002820191906000526020600020908154600160a060020a031681526001909101906020018083116123fb5750505050509050919050565b6060600b60010180548060200260200160405190810160405280929190818152602001828054801561197657602002820191906000526020600020905b8154600160a060020a031681526001909101906020018083116134f1575050505050905090565b600160a060020a038181166000908152601460209081526040808320805460018201546002830154600390930180548551818802810188019096528086529697889788978897606097958416959384169460a060020a90940460ff16939290918391908301828280156135c857602002820191906000526020600020906000905b825461010083900a900460ff168152602060019283018181049485019490930390920291018084116135995790505b505050505090509450945094509450945091939590929450565b600754600160a060020a031681565b601254610100900460ff1615613651576040805160e560020a62461bcd02815260206004820152600e60248201527f4d696e74696e672066726f7a656e000000000000000000000000000000000000604482015290519081900360640190fd5b604080518082018252601481527f667265657a654d696e74696e67416c6c6f776564000000000000000000000000602080830191825260095493517f2f0019f2000000000000000000000000000000000000000000000000000000008152600481019182528351602482015283519394600160a060020a031693632f0019f29386939283926044909101919080838360005b838110156136fb5781810151838201526020016136e3565b50505050905090810190601f1680156137285780820380516001836020036101000a031916815260200191505b5092505050602060405180830381600087803b15801561374757600080fd5b505af115801561375b573d6000803e3d6000fd5b505050506040513d602081101561377157600080fd5b5051151561377e57600080fd5b600554620100009004600160a060020a0316331461379b57600080fd5b6012805461ff0019166101001790556040805142815290517fac303fba0a810d910a7ec5499d828c1bdc0b91117ee0d547ff7c59ff4ae3f11b9181900360200190a150565b600954600160a060020a031681565b600854600160a060020a031681565b600f805460408051602060026001851615610100026000190190941693909304601f81018490048402820184019092528181529291830182828015610f765780601f10610f4b57610100808354040283529160200191610f76565b336000908152600260209081526040808320600160a060020a038616845290915281205461388d908363ffffffff614b7516565b336000818152600260209081526040808320600160a060020a0389168085529083529281902085905580519485525191937f8c5be1e5ebec7d5bd14f71427d1e84f3dd0314c0f7b2291e5b200ac8c7c3b925929081900390910190a350600192915050565b600160a060020a03918216600090815260026020908152604080832093909416825291909152205490565b60125460ff1681565b60006139348585858561474b565b1515613978576040805160e560020a62461bcd028152602060048201526010602482015260008051602061564a833981519152604482015290519081900360640190fd5b613983858585614e13565b151561398e57600080fd5b506001949350505050565b60006139a9858585856000614f78565b95945050505050565b600554620100009004600160a060020a031633146139cf57600080fd5b6139d881615276565b50565b600554620100009004600160a060020a031633146139f857600080fd5b6006546040805160e060020a63bf40fac1028152602060048201819052600e60248301527f4d6f64756c65526567697374727900000000000000000000000000000000000060448301529151600160a060020a039093169263bf40fac1926064808401939192918290030181600087803b158015613a7557600080fd5b505af1158015613a89573d6000803e3d6000fd5b505050506040513d6020811015613a9f57600080fd5b505160078054600160a060020a031916600160a060020a039283161790556006546040805160e060020a63bf40fac1028152602060048201819052601560248301527f5365637572697479546f6b656e5265676973747279000000000000000000000060448301529151929093169263bf40fac192606480830193928290030181600087803b158015613b3157600080fd5b505af1158015613b45573d6000803e3d6000fd5b505050506040513d6020811015613b5b57600080fd5b505160088054600160a060020a031916600160a060020a039283161790556006546040805160e060020a63bf40fac1028152602060048201819052600f60248301527f466561747572655265676973747279000000000000000000000000000000000060448301529151929093169263bf40fac192606480830193928290030181600087803b158015613bed57600080fd5b505af1158015613c01573d6000803e3d6000fd5b505050506040513d6020811015613c1757600080fd5b505160098054600160a060020a031916600160a060020a039283161781556006546040805160e060020a63bf40fac102815260206004820181905260248201949094527f506f6c79546f6b656e000000000000000000000000000000000000000000000060448201529051919093169263bf40fac19260648083019391928290030181600087803b158015613cab57600080fd5b505af1158015613cbf573d6000803e3d6000fd5b505050506040513d6020811015613cd557600080fd5b5051600a8054600160a060020a031916600160a060020a03909216919091179055565b60006060600080600060606000600560029054906101000a9004600160a060020a0316600160a060020a031633600160a060020a0316141515613d3a57600080fd5b600554610100900460ff1615613d4f57600080fd5b6005805461ff001916610100179055600754604080517fdc659907000000000000000000000000000000000000000000000000000000008152600160a060020a038f811660048301529151919092169163dc65990791602480830192600092919082900301818387803b158015613dc557600080fd5b505af1158015613dd9573d6000803e3d6000fd5b505050508b965086600160a060020a031663b4579d606040518163ffffffff1660e060020a028152600401600060405180830381600087803b158015613e1e57600080fd5b505af1158015613e32573d6000803e3d6000fd5b505050506040513d6000823e601f3d908101601f191682016040526020811015613e5b57600080fd5b810190808051640100000000811115613e7357600080fd5b82016020810184811115613e8657600080fd5b8151856020820283011164010000000082111715613ea357600080fd5b5050929190505050955086600160a060020a031663a5e9d7c96040518163ffffffff1660e060020a028152600401602060405180830381600087803b158015613eeb57600080fd5b505af1158015613eff573d6000803e3d6000fd5b505050506040513d6020811015613f1557600080fd5b5051945088851115613f71576040805160e560020a62461bcd02815260206004820152600c60248201527f496e76616c696420636f73740000000000000000000000000000000000000000604482015290519081900360640190fd5b600a54604080517f095ea7b3000000000000000000000000000000000000000000000000000000008152600160a060020a038f81166004830152602482018990529151919092169163095ea7b39160448083019260209291908290030181600087803b158015613fe057600080fd5b505af1158015613ff4573d6000803e3d6000fd5b505050506040513d602081101561400a57600080fd5b50506040517e774360000000000000000000000000000000000000000000000000000000008152602060048201908152602482018c9052600160a060020a0389169162774360918e918e9190819060440184848082843782019150509350505050602060405180830381600087803b15801561408557600080fd5b505af1158015614099573d6000803e3d6000fd5b505050506040513d60208110156140af57600080fd5b5051600160a060020a038082166000908152601460205260409020600101549195501615614127576040805160e560020a62461bcd02815260206004820152600d60248201527f4d6f64756c652065786973747300000000000000000000000000000000000000604482015290519081900360640190fd5b600a54604080517f095ea7b3000000000000000000000000000000000000000000000000000000008152600160a060020a038781166004830152602482018c90529151919092169163095ea7b39160448083019260209291908290030181600087803b15801561419657600080fd5b505af11580156141aa573d6000803e3d6000fd5b505050506040513d60208110156141c057600080fd5b5050604080517f17d7de7c0000000000000000000000000000000000000000000000000000000081529051600160a060020a038916916317d7de7c9160048083019260209291908290030181600087803b15801561421d57600080fd5b505af1158015614231573d6000803e3d6000fd5b505050506040513d602081101561424757600080fd5b505186516040805182815260208381028201019091529194508015614276578160200160208202803883390190505b509150600090505b85518110156143345760136000878381518110151561429957fe5b602090810290910181015160ff1682528101919091526040016000205482518390839081106142c457fe5b6020908102909101015285516013906000908890849081106142e257fe5b60209081029190910181015160ff168252818101929092526040016000908120805460018082018355918352929091209091018054600160a060020a031916600160a060020a0387161790550161427e565b60e0604051908101604052808460001916815260200185600160a060020a031681526020018d600160a060020a03168152602001600015158152602001878152602001838152602001601560008660001916600019168152602001908152602001600020805490508152506014600086600160a060020a0316600160a060020a031681526020019081526020016000206000820151816000019060001916905560208201518160010160006101000a815481600160a060020a030219169083600160a060020a0316021790555060408201518160020160006101000a815481600160a060020a030219169083600160a060020a0316021790555060608201518160020160146101000a81548160ff021916908315150217905550608082015181600301908051906020019061446a929190615534565b5060a082015180516144869160048401916020909101906155d6565b5060c082015181600501559050506015600084600019166000191681526020019081526020016000208490806001815401808255809150509060018203906000526020600020016000909192909190916101000a815481600160a060020a030219169083600160a060020a03160217905550507fa902846e90aed52d2fbbaeb545287d4605aa25564cab74181fab117022d9eeb986848e87898d426040518080602001886000191660001916815260200187600160a060020a0316600160a060020a0316815260200186600160a060020a0316600160a060020a03168152602001858152602001848152602001838152602001828103825289818151815260200191508051906020019060200280838360005b838110156145b1578181015183820152602001614599565b505050509050019850505050505050505060405180910390a150506005805461ff001916905550505050505050505050565b60125463010000009004600160a060020a031681565b600554600090600490620100009004600160a060020a03163314156146a8576011546000191161462857600080fd5b6011805460019081018255601880549182018155600052427fb13d2d76d1f4b7be834882e410b3e3a8afaf69f83600ae24db354391d2378d2e9091018190559054604080519283525190917f624ea167e477f9d39f7f4094b9dfe2e6346eb4a7aada54338db51abd554c4b9f919081900360200190a2601154915061108b565b6146b233826149ed565b15156146bd57600080fd5b601154600019116146cd57600080fd5b6011805460019081018255601880549182018155600052427fb13d2d76d1f4b7be834882e410b3e3a8afaf69f83600ae24db354391d2378d2e9091018190559054604080519283525190917f624ea167e477f9d39f7f4094b9dfe2e6346eb4a7aada54338db51abd554c4b9f919081900360200190a2505060115490565b6005546000908190610100900460ff161561476557600080fd5b6005805461ff00191661010017905561477f868686615302565b61478d868686866001614f78565b9050614798866153ce565b6147a1856153ce565b6005805461ff001916905595945050505050565b6000600160a060020a03831615156147cc57600080fd5b336000908152602081905260409020548211156147e857600080fd5b33600090815260208190526040902054614808908363ffffffff61488416565b3360009081526020819052604080822092909255600160a060020a0385168152205461483a908363ffffffff614b7516565b600160a060020a0384166000818152602081815260409182902093909355805185815290519192339260008051602061566a8339815191529281900390910190a350600192915050565b60008282111561489057fe5b50900390565b600160a060020a0383166000908152602081905260408120548190841115614908576040805160e560020a62461bcd02815260206004820152600e60248201527f56616c756520746f6f2068696768000000000000000000000000000000000000604482015290519081900360640190fd5b614915856000868661474b565b905061491f614b88565b600160a060020a038516600090815260208190526040902054614948908563ffffffff61488416565b600160a060020a038616600090815260208190526040902055600154614974908563ffffffff61488416565b600155604080518581529051600160a060020a038716917f919f7e2092ffcc9d09f599be18d8152860b0c054df788a33bc549cdd9d0f15b1919081900360200190a2604080518581529051600091600160a060020a0388169160008051602061566a8339815191529181900360200190a3949350505050565b600160a060020a0380831660008181526014602052604081206001015490928392911614614a65576040805160e560020a62461bcd02815260206004820152600d60248201527f57726f6e67206164647265737300000000000000000000000000000000000000604482015290519081900360640190fd5b600160a060020a03841660009081526014602052604090206002015460a060020a900460ff1615614ae0576040805160e560020a62461bcd02815260206004820152600f60248201527f4d6f64756c652061726368697665640000000000000000000000000000000000604482015290519081900360640190fd5b5060005b600160a060020a038416600090815260146020526040902060030154811015614b6b57600160a060020a0384166000908152601460205260409020600301805460ff8516919083908110614b3457fe5b60009182526020918290209181049091015460ff601f9092166101000a9004161415614b635760019150612216565b600101614ae4565b5060009392505050565b81810182811015614b8257fe5b92915050565b73__TokenLib______________________________6307c20d976017614bac61114e565b6011546040518463ffffffff1660e060020a02815260040180848152602001838152602001828152602001935050505060006040518083038186803b158015614bf457600080fd5b505af415801561258e573d6000803e3d6000fd5b60ff821660009081526013602052604081208054916060916000198401848110614c2e57fe5b600091825260208083209091015460ff88168352601390915260409091208054600160a060020a039092169186908110614c6457fe5b60009182526020808320919091018054600160a060020a031916600160a060020a03949094169390931790925560ff87168152601390915260409020600019840190614cb090826154cd565b50600019830184146111475760ff851660009081526013602052604081208054601492919087908110614cdf57fe5b6000918252602080832090910154600160a060020a03168352828101939093526040918201902060030180548251818502810185019093528083529192909190830182828015614d6c57602002820191906000526020600020906000905b825461010083900a900460ff16815260206001928301818104948501949093039092029101808411614d3d5790505b50505050509150600090505b8151811015611147578460ff168282815181101515614d9357fe5b9060200190602002015160ff161415614e0b5760ff8516600090815260136020526040812080548692601492909184908110614dcb57fe5b6000918252602080832090910154600160a060020a031683528201929092526040019020600401805483908110614dfe57fe5b6000918252602090912001555b600101614d78565b6000600160a060020a0383161515614e2a57600080fd5b600160a060020a038416600090815260208190526040902054821115614e4f57600080fd5b600160a060020a0384166000908152600260209081526040808320338452909152902054821115614e7f57600080fd5b600160a060020a038416600090815260208190526040902054614ea8908363ffffffff61488416565b600160a060020a038086166000908152602081905260408082209390935590851681522054614edd908363ffffffff614b7516565b600160a060020a03808516600090815260208181526040808320949094559187168152600282528281203382529091522054614f1f908363ffffffff61488416565b600160a060020a038086166000818152600260209081526040808320338452825291829020949094558051868152905192871693919260008051602061566a833981519152929181900390910190a35060019392505050565b6000806000806000806000808a60105481811515614f9257fe5b0615614fe8576040805160e560020a62461bcd02815260206004820152601360248201527f496e76616c6964206772616e756c617269747900000000000000000000000000604482015290519081900360640190fd5b60125460ff1615156152605760009750600096506000955060009450600092505b600260005260136020527f0b9d2c0c271bb30544eb78c59bdaebdae2728e5f65814c07768a0abe90ed19235483101561523257600260005260136020527f0b9d2c0c271bb30544eb78c59bdaebdae2728e5f65814c07768a0abe90ed192380548490811061507357fe5b6000918252602080832090910154600160a060020a0316808352601490915260409091206002015490945060ff60a060020a909104161515615227576001945083600160a060020a031663de6ee1bc8f8f8f8f8f6040518663ffffffff1660e060020a0281526004018086600160a060020a0316600160a060020a0316815260200185600160a060020a0316600160a060020a031681526020018481526020018060200183151515158152602001828103825284818151815260200191508051906020019080838360005b8381101561515657818101518382015260200161513e565b50505050905090810190601f1680156151835780820380516001836020036101000a031916815260200191505b509650505050505050602060405180830381600087803b1580156151a657600080fd5b505af11580156151ba573d6000803e3d6000fd5b505050506040513d60208110156151d057600080fd5b5051915060008260038111156151e257fe5b14156151f15760019750615227565b60028260038111156151ff57fe5b141561520e5760019650615227565b600382600381111561521c57fe5b141561522757600195505b600190920191615009565b8461523e576001615259565b85615256578761524e5786615251565b60005b615259565b60015b9850615265565b600098505b505050505050505095945050505050565b600160a060020a038116151561528b57600080fd5b600554604051600160a060020a038084169262010000900416907f8be0079c531659141344cd1fd0a4f28419497f9722a3daafe3b4186f6b6457e090600090a360058054600160a060020a03909216620100000275ffffffffffffffffffffffffffffffffffffffff000019909216919091179055565b73__TokenLib______________________________6317dd222c600b85858561532a8861222c565b6153338a61222c565b6040518763ffffffff1660e060020a0281526004018087815260200186600160a060020a0316600160a060020a0316815260200185600160a060020a0316600160a060020a03168152602001848152602001838152602001828152602001965050505050505060006040518083038186803b1580156153b157600080fd5b505af41580156153c5573d6000803e3d6000fd5b50505050505050565b600160a060020a038116600090815260166020526040902073__TokenLib______________________________906307c20d979061540b8461222c565b6011546040518463ffffffff1660e060020a02815260040180848152602001838152602001828152602001935050505060006040518083038186803b15801561113357600080fd5b828054600181600116156101000203166002900490600052602060002090601f016020900481019282601f106154945782800160ff198235161785556154c1565b828001600101855582156154c1579182015b828111156154c15782358255916020019190600101906154a6565b5061108b929150615611565b81548183558181111561173a5760008381526020902061173a918101908301615611565b50805460008255601f0160209004906000526020600020908101906139d89190615611565b50805460008255906000526020600020908101906139d89190615611565b82805482825590600052602060002090601f016020900481019282156155ca5791602002820160005b8382111561559b57835183826101000a81548160ff021916908360ff160217905550926020019260010160208160000104928301926001030261555d565b80156155c85782816101000a81549060ff021916905560010160208160000104928301926001030261559b565b505b5061108b92915061562b565b8280548282559060005260206000209081019282156154c1579160200282015b828111156154c15782518255916020019190600101906155f6565b61115291905b8082111561108b5760008155600101615617565b61115291905b8082111561108b57805460ff1916815560010161563156005472616e7366657220696e76616c696400000000000000000000000000000000ddf252ad1be2c89b69c2b068fc378daa952ba7f163c4a11628f55a4df523b3efa165627a7a723058204b6fb136aa29ffd79e704e45b349469361c1013b0e8b314ed0ab8371960e1b110029a165627a7a72305820af697271f14aca2a8bbf9fe0771f77bde4f64673a89138f9e5bff8796294b93e0029",
  "source": "pragma solidity ^0.4.24;\n\nimport \"./SecurityToken.sol\";\nimport \"../interfaces/ISTFactory.sol\";\n\n/**\n * @title Proxy for deploying SecurityToken instances\n */\ncontract STFactory is ISTFactory {\n\n    address public transferManagerFactory;\n\n    constructor (address _transferManagerFactory) public {\n        transferManagerFactory = _transferManagerFactory;\n    }\n\n    /**\n     * @notice deploys the token and adds default modules like the GeneralTransferManager.\n     * Future versions of the proxy can attach different modules or pass different parameters.\n     */\n    function deployToken(\n        string _name,\n        string _symbol,\n        uint8 _decimals,\n        string _tokenDetails,\n        address _issuer,\n        bool _divisible,\n        address _polymathRegistry\n        ) external returns (address) {\n        address newSecurityTokenAddress = new SecurityToken(\n            _name,\n            _symbol,\n            _decimals,\n            _divisible ? 1 : uint256(10)**_decimals,\n            _tokenDetails,\n            _polymathRegistry\n        );\n        SecurityToken(newSecurityTokenAddress).addModule(transferManagerFactory, \"\", 0, 0);\n        SecurityToken(newSecurityTokenAddress).transferOwnership(_issuer);\n        return newSecurityTokenAddress;\n    }\n}\n",
  "sourcePath": "/Users/jere/Code/polymath-apps/packages/polymath-shared/scripts/generateLocalBlockchain/contracts/tokens/STFactory.sol",
  "compiler": {
    "name": "solc",
    "version": "0.4.24+commit.e67f0147.Emscripten.clang"
  },
  "schemaVersion": "2.0.1",
  "updatedAt": "2018-10-26T23:03:16.739Z"
}