{
  "contractName": "TickerRegistry",
  "abi": [
    {
      "constant": true,
      "inputs": [],
      "name": "expiryLimit",
      "outputs": [
        {
          "name": "",
          "type": "uint256"
        }
      ],
      "payable": false,
      "stateMutability": "view",
      "type": "function"
    },
    {
      "constant": true,
      "inputs": [],
      "name": "registrationFee",
      "outputs": [
        {
          "name": "",
          "type": "uint256"
        }
      ],
      "payable": false,
      "stateMutability": "view",
      "type": "function"
    },
    {
      "constant": true,
      "inputs": [],
      "name": "tickerRegistry",
      "outputs": [
        {
          "name": "",
          "type": "address"
        }
      ],
      "payable": false,
      "stateMutability": "view",
      "type": "function"
    },
    {
      "constant": true,
      "inputs": [],
      "name": "paused",
      "outputs": [
        {
          "name": "",
          "type": "bool"
        }
      ],
      "payable": false,
      "stateMutability": "view",
      "type": "function"
    },
    {
      "constant": true,
      "inputs": [],
      "name": "polyToken",
      "outputs": [
        {
          "name": "",
          "type": "address"
        }
      ],
      "payable": false,
      "stateMutability": "view",
      "type": "function"
    },
    {
      "constant": false,
      "inputs": [],
      "name": "renounceOwnership",
      "outputs": [],
      "payable": false,
      "stateMutability": "nonpayable",
      "type": "function"
    },
    {
      "constant": true,
      "inputs": [],
      "name": "polymathRegistry",
      "outputs": [
        {
          "name": "",
          "type": "address"
        }
      ],
      "payable": false,
      "stateMutability": "view",
      "type": "function"
    },
    {
      "constant": false,
      "inputs": [
        {
          "name": "_tokenContract",
          "type": "address"
        }
      ],
      "name": "reclaimERC20",
      "outputs": [],
      "payable": false,
      "stateMutability": "nonpayable",
      "type": "function"
    },
    {
      "constant": true,
      "inputs": [],
      "name": "owner",
      "outputs": [
        {
          "name": "",
          "type": "address"
        }
      ],
      "payable": false,
      "stateMutability": "view",
      "type": "function"
    },
    {
      "constant": true,
      "inputs": [],
      "name": "moduleRegistry",
      "outputs": [
        {
          "name": "",
          "type": "address"
        }
      ],
      "payable": false,
      "stateMutability": "view",
      "type": "function"
    },
    {
      "constant": true,
      "inputs": [],
      "name": "securityTokenRegistry",
      "outputs": [
        {
          "name": "",
          "type": "address"
        }
      ],
      "payable": false,
      "stateMutability": "view",
      "type": "function"
    },
    {
      "constant": false,
      "inputs": [
        {
          "name": "_newOwner",
          "type": "address"
        }
      ],
      "name": "transferOwnership",
      "outputs": [],
      "payable": false,
      "stateMutability": "nonpayable",
      "type": "function"
    },
    {
      "constant": false,
      "inputs": [],
      "name": "updateFromRegistry",
      "outputs": [],
      "payable": false,
      "stateMutability": "nonpayable",
      "type": "function"
    },
    {
      "inputs": [
        {
          "name": "_polymathRegistry",
          "type": "address"
        },
        {
          "name": "_registrationFee",
          "type": "uint256"
        }
      ],
      "payable": false,
      "stateMutability": "nonpayable",
      "type": "constructor"
    },
    {
      "anonymous": false,
      "inputs": [
        {
          "indexed": true,
          "name": "_owner",
          "type": "address"
        },
        {
          "indexed": false,
          "name": "_symbol",
          "type": "string"
        },
        {
          "indexed": false,
          "name": "_name",
          "type": "string"
        },
        {
          "indexed": false,
          "name": "_swarmHash",
          "type": "bytes32"
        },
        {
          "indexed": true,
          "name": "_timestamp",
          "type": "uint256"
        }
      ],
      "name": "LogRegisterTicker",
      "type": "event"
    },
    {
      "anonymous": false,
      "inputs": [
        {
          "indexed": false,
          "name": "_oldExpiry",
          "type": "uint256"
        },
        {
          "indexed": false,
          "name": "_newExpiry",
          "type": "uint256"
        }
      ],
      "name": "LogChangeExpiryLimit",
      "type": "event"
    },
    {
      "anonymous": false,
      "inputs": [
        {
          "indexed": false,
          "name": "_oldFee",
          "type": "uint256"
        },
        {
          "indexed": false,
          "name": "_newFee",
          "type": "uint256"
        }
      ],
      "name": "LogChangePolyRegistrationFee",
      "type": "event"
    },
    {
      "anonymous": false,
      "inputs": [
        {
          "indexed": true,
          "name": "previousOwner",
          "type": "address"
        }
      ],
      "name": "OwnershipRenounced",
      "type": "event"
    },
    {
      "anonymous": false,
      "inputs": [
        {
          "indexed": true,
          "name": "previousOwner",
          "type": "address"
        },
        {
          "indexed": true,
          "name": "newOwner",
          "type": "address"
        }
      ],
      "name": "OwnershipTransferred",
      "type": "event"
    },
    {
      "anonymous": false,
      "inputs": [
        {
          "indexed": false,
          "name": "_timestammp",
          "type": "uint256"
        }
      ],
      "name": "Pause",
      "type": "event"
    },
    {
      "anonymous": false,
      "inputs": [
        {
          "indexed": false,
          "name": "_timestamp",
          "type": "uint256"
        }
      ],
      "name": "Unpause",
      "type": "event"
    },
    {
      "constant": false,
      "inputs": [
        {
          "name": "_owner",
          "type": "address"
        },
        {
          "name": "_symbol",
          "type": "string"
        },
        {
          "name": "_tokenName",
          "type": "string"
        },
        {
          "name": "_swarmHash",
          "type": "bytes32"
        }
      ],
      "name": "registerTicker",
      "outputs": [],
      "payable": false,
      "stateMutability": "nonpayable",
      "type": "function"
    },
    {
      "constant": false,
      "inputs": [
        {
          "name": "_newExpiry",
          "type": "uint256"
        }
      ],
      "name": "changeExpiryLimit",
      "outputs": [],
      "payable": false,
      "stateMutability": "nonpayable",
      "type": "function"
    },
    {
      "constant": false,
      "inputs": [
        {
          "name": "_symbol",
          "type": "string"
        },
        {
          "name": "_owner",
          "type": "address"
        },
        {
          "name": "_tokenName",
          "type": "string"
        }
      ],
      "name": "checkValidity",
      "outputs": [
        {
          "name": "",
          "type": "bool"
        }
      ],
      "payable": false,
      "stateMutability": "nonpayable",
      "type": "function"
    },
    {
      "constant": false,
      "inputs": [
        {
          "name": "_symbol",
          "type": "string"
        },
        {
          "name": "_owner",
          "type": "address"
        },
        {
          "name": "_tokenName",
          "type": "string"
        },
        {
          "name": "_swarmHash",
          "type": "bytes32"
        }
      ],
      "name": "isReserved",
      "outputs": [
        {
          "name": "",
          "type": "bool"
        }
      ],
      "payable": false,
      "stateMutability": "nonpayable",
      "type": "function"
    },
    {
      "constant": true,
      "inputs": [
        {
          "name": "_symbol",
          "type": "string"
        }
      ],
      "name": "getDetails",
      "outputs": [
        {
          "name": "",
          "type": "address"
        },
        {
          "name": "",
          "type": "uint256"
        },
        {
          "name": "",
          "type": "string"
        },
        {
          "name": "",
          "type": "bytes32"
        },
        {
          "name": "",
          "type": "bool"
        }
      ],
      "payable": false,
      "stateMutability": "view",
      "type": "function"
    },
    {
      "constant": false,
      "inputs": [
        {
          "name": "_registrationFee",
          "type": "uint256"
        }
      ],
      "name": "changePolyRegistrationFee",
      "outputs": [],
      "payable": false,
      "stateMutability": "nonpayable",
      "type": "function"
    },
    {
      "constant": false,
      "inputs": [],
      "name": "unpause",
      "outputs": [],
      "payable": false,
      "stateMutability": "nonpayable",
      "type": "function"
    },
    {
      "constant": false,
      "inputs": [],
      "name": "pause",
      "outputs": [],
      "payable": false,
      "stateMutability": "nonpayable",
      "type": "function"
    }
  ],
  "bytecode": "0x60806040526000805460ff191690556213c68060065534801561002157600080fd5b506040516040806125668339810160405280516020909101516000805461010060a860020a031916336101000217905581600160a060020a038116151561006757600080fd5b60018054600160a060020a031916600160a060020a0392909216919091179055600855506124cc8061009a6000396000f30060806040526004361061011c5763ffffffff7c010000000000000000000000000000000000000000000000000000000060003504166307a8af6f81146101215780631328fd8f1461014857806314c44e0914610243578063208b080f146102585780632a858126146102725780633f4ba83a146102a35780635b30717c146102b85780635c975abb146102d05780636faa22a5146102f9578063715018a61461030e57806377282b70146103235780638456cb59146103385780638905fd4f1461034d5780638da5cb5b1461036e578063ac1e765b14610383578063b95459e414610429578063c95840081461043e578063ce4dbdff146104e5578063ce9af2b9146104fa578063f2fde38b146105a2578063f433262f146105c3575b600080fd5b34801561012d57600080fd5b506101366105d8565b60408051918252519081900360200190f35b34801561015457600080fd5b506040805160206004803580820135601f81018490048402850184019095528484526101a19436949293602493928401919081908401838280828437509497506105de9650505050505050565b60408051600160a060020a0387168152602080820187905260608201859052831515608083015260a0928201838152865193830193909352855191929160c084019187019080838360005b838110156102045781810151838201526020016101ec565b50505050905090810190601f1680156102315780820380516001836020036101000a031916815260200191505b50965050505050505060405180910390f35b34801561024f57600080fd5b506101366109ab565b34801561026457600080fd5b506102706004356109b1565b005b34801561027e57600080fd5b50610287610a97565b60408051600160a060020a039092168252519081900360200190f35b3480156102af57600080fd5b50610270610aa6565b3480156102c457600080fd5b50610270600435610acc565b3480156102dc57600080fd5b506102e5610b39565b604080519115158252519081900360200190f35b34801561030557600080fd5b50610287610b42565b34801561031a57600080fd5b50610270610b51565b34801561032f57600080fd5b50610287610bc7565b34801561034457600080fd5b50610270610bd6565b34801561035957600080fd5b50610270600160a060020a0360043516610bfa565b34801561037a57600080fd5b50610287610d73565b34801561038f57600080fd5b506040805160206004803580820135601f81018490048402850184019095528484526102e594369492936024939284019190819084018382808284375050604080516020601f818a01358b0180359182018390048302840183018552818452989b600160a060020a038b35169b909a909994019750919550918201935091508190840183828082843750949750610d879650505050505050565b34801561043557600080fd5b506102876111a9565b34801561044a57600080fd5b5060408051602060046024803582810135601f8101859004850286018501909652858552610270958335600160a060020a031695369560449491939091019190819084018382808284375050604080516020601f89358b018035918201839004830284018301909452808352979a99988101979196509182019450925082915084018382808284375094975050933594506111b89350505050565b3480156104f157600080fd5b506102876116da565b34801561050657600080fd5b506040805160206004803580820135601f81018490048402850184019095528484526102e594369492936024939284019190819084018382808284375050604080516020601f818a01358b0180359182018390048302840183018552818452989b600160a060020a038b35169b909a90999401975091955091820193509150819084018382808284375094975050933594506116e99350505050565b3480156105ae57600080fd5b50610270600160a060020a0360043516611b48565b3480156105cf57600080fd5b50610270611b70565b60065481565b600080606060008060606105f187611e8a565b90506007816040518082805190602001908083835b602083106106255780518252601f199092019160209182019101610606565b51815160001960209485036101000a0190811690199190911617905292019485525060405193849003019092206004015460ff16151560011491508190506106db5750426106d96006546007846040518082805190602001908083835b602083106106a15780518252601f199092019160209182019101610682565b51815160209384036101000a600019018019909216911617905292019485525060405193849003019092206001015492915050611fec565b115b15610983576007816040518082805190602001908083835b602083106107125780518252601f1990920191602091820191016106f3565b51815160209384036101000a60001901801990921691161790529201948552506040519384900381018420548551600160a060020a039091169460079450869350918291908401908083835b6020831061077d5780518252601f19909201916020918201910161075e565b51815160209384036101000a60001901801990921691161790529201948552506040519384900381018420600101548651909460079450879350918291908401908083835b602083106107e15780518252601f1990920191602091820191016107c2565b6001836020036101000a03801982511681845116808217855250505050505090500191505090815260200160405180910390206002016007846040518082805190602001908083835b602083106108495780518252601f19909201916020918201910161082a565b51815160209384036101000a60001901801990921691161790529201948552506040519384900381018420600301548851909460079450899350918291908401908083835b602083106108ad5780518252601f19909201916020918201910161088e565b518151600019602094850361010090810a82019283169219939093169190911790925294909201968752604080519788900382018820600401548a54601f600260018316159098029095011695909504928301829004820288018201905281875260ff90931695945087935091840190508282801561096d5780601f106109425761010080835404028352916020019161096d565b820191906000526020600020905b81548152906001019060200180831161095057829003601f168201915b50505050509250955095509550955095506109a1565b60408051602081019091526000808252965086955093508492508291505b5091939590929450565b60085481565b600080546101009004600160a060020a031633146109ce57600080fd5b62015180821015610a4f576040805160e560020a62461bcd02815260206004820152602c60248201527f4578706972792073686f756c642067726561746572207468616e206f7220657160448201527f75616c20746f2031206461790000000000000000000000000000000000000000606482015290519081900360840190fd5b506006805490829055604080518281526020810184905281517f56097c2b95f5ff3dd5079c032872d82d5e8b5709a9b6e5fde0472253f9f94be1929181900390910190a15050565b600454600160a060020a031681565b6000546101009004600160a060020a03163314610ac257600080fd5b610aca611fff565b565b6000546101009004600160a060020a03163314610ae857600080fd5b600854811415610af757600080fd5b600854604080519182526020820183905280517f57306ced45fbc41943378e67622b8fb30ae72b8af9f874f08a4ad963d0c144989281900390910190a1600855565b60005460ff1681565b600554600160a060020a031681565b6000546101009004600160a060020a03163314610b6d57600080fd5b60008054604051610100909104600160a060020a0316917ff8df31144d9c2f0f6b59d69b8b98abd5459d07f2742c4df920b25aae33c6482091a26000805474ffffffffffffffffffffffffffffffffffffffff0019169055565b600154600160a060020a031681565b6000546101009004600160a060020a03163314610bf257600080fd5b610aca61209a565b6000805481906101009004600160a060020a03163314610c1957600080fd5b600160a060020a0383161515610c2e57600080fd5b604080517f70a082310000000000000000000000000000000000000000000000000000000081523060048201529051849350600160a060020a038416916370a082319160248083019260209291908290030181600087803b158015610c9257600080fd5b505af1158015610ca6573d6000803e3d6000fd5b505050506040513d6020811015610cbc57600080fd5b505160008054604080517fa9059cbb000000000000000000000000000000000000000000000000000000008152610100909204600160a060020a03908116600484015260248301859052905193945085169263a9059cbb92604480840193602093929083900390910190829087803b158015610d3757600080fd5b505af1158015610d4b573d6000803e3d6000fd5b505050506040513d6020811015610d6157600080fd5b50511515610d6e57600080fd5b505050565b6000546101009004600160a060020a031681565b60006060610d9485611e8a565b600354909150600160a060020a03163314610e1f576040805160e560020a62461bcd02815260206004820152603360248201527f6d73672e73656e6465722073686f756c64206265205365637572697479546f6b60448201527f656e526567697374727920636f6e747261637400000000000000000000000000606482015290519081900360840190fd5b6007816040518082805190602001908083835b60208310610e515780518252601f199092019160209182019101610e32565b51815160001960209485036101000a0190811690199190911617905292019485525060405193849003019092206004015460ff161515600114159150610f099050576040805160e560020a62461bcd02815260206004820152602660248201527f53796d626f6c207374617475732073686f756c64206e6f7420657175616c207460448201527f6f20747275650000000000000000000000000000000000000000000000000000606482015290519081900360840190fd5b83600160a060020a03166007826040518082805190602001908083835b60208310610f455780518252601f199092019160209182019101610f26565b51815160209384036101000a6000190180199092169116179052920194855250604051938490030190922054600160a060020a03169290921491506110239050576040805160e560020a62461bcd028152602060048201526044602482018190527f4f776e6572206f66207468652073796d626f6c2073686f756c64206d61746368908201527f656420776974682074686520726571756573746564206973737565722061646460648201527f7265737300000000000000000000000000000000000000000000000000000000608482015290519081900360a40190fd5b4261105b600654600784604051808280519060200190808383602083106106a15780518252601f199092019160209182019101610682565b10156110b1576040805160e560020a62461bcd02815260206004820152601c60248201527f5469636b65722073686f756c64206e6f74206265206578706972656400000000604482015290519081900360640190fd5b826007826040518082805190602001908083835b602083106110e45780518252601f1990920191602091820191016110c5565b51815160209384036101000a60001901801990921691161790529201948552506040519384900381019093208451611129956002909201949190910192509050612405565b5060016007826040518082805190602001908083835b6020831061115e5780518252601f19909201916020918201910161113f565b51815160209384036101000a60001901801990921691161790529201948552506040519384900301909220600401805460ff1916931515939093179092555060019695505050505050565b600254600160a060020a031681565b60005460609060ff1615611216576040805160e560020a62461bcd02815260206004820152601260248201527f436f6e7472616374206973207061757365640000000000000000000000000000604482015290519081900360640190fd5b600160a060020a0385161515611276576040805160e560020a62461bcd02815260206004820152601660248201527f4f776e65722073686f756c64206e6f7420626520307800000000000000000000604482015290519081900360640190fd5b600084511180156112895750600a845111155b1515611305576040805160e560020a62461bcd02815260206004820152602a60248201527f5469636b6572206c656e6774682073686f756c6420616c77617973206265747760448201527f65656e2030202620313000000000000000000000000000000000000000000000606482015290519081900360840190fd5b6000600854111561145457600554600854604080517f23b872dd000000000000000000000000000000000000000000000000000000008152336004820152306024820152604481019290925251600160a060020a03909216916323b872dd916064808201926020929091908290030181600087803b15801561138657600080fd5b505af115801561139a573d6000803e3d6000fd5b505050506040513d60208110156113b057600080fd5b50511515611454576040805160e560020a62461bcd02815260206004820152604260248201527f4661696c6564207472616e7366657246726f6d2062656361757365206f66207360448201527f7566666963656e7420416c6c6f77616e6365206973206e6f742070726f76696460648201527f6564000000000000000000000000000000000000000000000000000000000000608482015290519081900360a40190fd5b61145d84611e8a565b905061146881612137565b15156114be576040805160e560020a62461bcd02815260206004820152601a60248201527f5469636b657220697320616c7265616479207265736572766564000000000000604482015290519081900360640190fd5b60a06040519081016040528086600160a060020a0316815260200142815260200184815260200183600019168152602001600015158152506007826040518082805190602001908083835b602083106115285780518252601f199092019160209182019101611509565b51815160209384036101000a60001901801990921691161790529201948552506040805194859003820190942085518154600160a060020a031916600160a060020a039091161781558582015160018201559385015180516115939450600286019350910190612405565b5060608281015160038301556080928301516004909201805460ff1916921515929092179091556040805190810185905281815283519181019190915282514292600160a060020a038916927f8ccd225709fb15de014a9f1362ef5605e3c2182147b11f46e10dc8e2d72ac1bd92869289928992909182916020808401928401919088019080838360005b8381101561163657818101518382015260200161161e565b50505050905090810190601f1680156116635780820380516001836020036101000a031916815260200191505b50838103825285518152855160209182019187019080838360005b8381101561169657818101518382015260200161167e565b50505050905090810190601f1680156116c35780820380516001836020036101000a031916815260200191505b509550505050505060405180910390a35050505050565b600354600160a060020a031681565b600060606116f686611e8a565b600354909150600160a060020a03163314611781576040805160e560020a62461bcd02815260206004820152603360248201527f6d73672e73656e6465722073686f756c64206265205365637572697479546f6b60448201527f656e526567697374727920636f6e747261637400000000000000000000000000606482015290519081900360840190fd5b84600160a060020a03166007826040518082805190602001908083835b602083106117bd5780518252601f19909201916020918201910161179e565b51815160209384036101000a6000190180199092169116179052920194855250604051938490030190922054600160a060020a031692909214915050801561180b575061180986612137565b155b1561188e5760016007826040518082805190602001908083835b602083106118445780518252601f199092019160209182019101611825565b51815160209384036101000a60001901801990921691161790529201948552506040519384900301909220600401805460ff1916931515939093179092555060009250611b3f9050565b6000600160a060020a03166007826040518082805190602001908083835b602083106118cb5780518252601f1990920191602091820191016118ac565b51815160209384036101000a6000190180199092169116179052920194855250604051938490030190922054600160a060020a0316929092149150819050611917575061191781612137565b15611b3a5760a06040519081016040528086600160a060020a0316815260200142815260200185815260200184600019168152602001600115158152506007826040518082805190602001908083835b602083106119865780518252601f199092019160209182019101611967565b51815160209384036101000a60001901801990921691161790529201948552506040805194859003820190942085518154600160a060020a031916600160a060020a039091161781558582015160018201559385015180516119f19450600286019350910190612405565b5060608281015160038301556080928301516004909201805460ff1916921515929092179091556040805190810186905281815283519181019190915282514292600160a060020a038916927f8ccd225709fb15de014a9f1362ef5605e3c2182147b11f46e10dc8e2d72ac1bd9286928a928a92909182916020808401928401919088019080838360005b83811015611a94578181015183820152602001611a7c565b50505050905090810190601f168015611ac15780820380516001836020036101000a031916815260200191505b50838103825285518152855160209182019187019080838360005b83811015611af4578181015183820152602001611adc565b50505050905090810190601f168015611b215780820380516001836020036101000a031916815260200191505b509550505050505060405180910390a360009150611b3f565b600191505b50949350505050565b6000546101009004600160a060020a03163314611b6457600080fd5b611b6d8161237d565b50565b6000546101009004600160a060020a03163314611b8c57600080fd5b6001546040805160e060020a63bf40fac1028152602060048201819052600e60248301527f4d6f64756c65526567697374727900000000000000000000000000000000000060448301529151600160a060020a039093169263bf40fac1926064808401939192918290030181600087803b158015611c0957600080fd5b505af1158015611c1d573d6000803e3d6000fd5b505050506040513d6020811015611c3357600080fd5b505160028054600160a060020a031916600160a060020a039283161790556001546040805160e060020a63bf40fac1028152602060048201819052601560248301527f5365637572697479546f6b656e5265676973747279000000000000000000000060448301529151929093169263bf40fac192606480830193928290030181600087803b158015611cc557600080fd5b505af1158015611cd9573d6000803e3d6000fd5b505050506040513d6020811015611cef57600080fd5b505160038054600160a060020a031916600160a060020a039283161790556001546040805160e060020a63bf40fac1028152602060048201819052600e60248301527f5469636b6572526567697374727900000000000000000000000000000000000060448301529151929093169263bf40fac192606480830193928290030181600087803b158015611d8157600080fd5b505af1158015611d95573d6000803e3d6000fd5b505050506040513d6020811015611dab57600080fd5b505160048054600160a060020a031916600160a060020a039283161781556001546040805160e060020a63bf40fac10281526020938101849052600960248201527f506f6c79546f6b656e000000000000000000000000000000000000000000000060448201529051919093169263bf40fac19260648083019391928290030181600087803b158015611e3d57600080fd5b505af1158015611e51573d6000803e3d6000fd5b505050506040513d6020811015611e6757600080fd5b505160058054600160a060020a031916600160a060020a03909216919091179055565b6060816000805b8251821015611fe3578282815181101515611ea857fe5b01602001517f0100000000000000000000000000000000000000000000000000000000000000908190040290507f61000000000000000000000000000000000000000000000000000000000000007fff00000000000000000000000000000000000000000000000000000000000000821610801590611f6957507f7a000000000000000000000000000000000000000000000000000000000000007fff00000000000000000000000000000000000000000000000000000000000000821611155b15611f9957601f197f01000000000000000000000000000000000000000000000000000000000000009182900401025b808383815181101515611fa857fe5b9060200101907effffffffffffffffffffffffffffffffffffffffffffffffffffffffffffff1916908160001a905350600190910190611e91565b50909392505050565b81810182811015611ff957fe5b92915050565b60005460ff16151561205b576040805160e560020a62461bcd02815260206004820152601660248201527f436f6e7472616374206973206e6f742070617573656400000000000000000000604482015290519081900360640190fd5b6000805460ff191690556040805142815290517faaa520fdd7d2c83061d632fa017b0432407e798818af63ea908589fceda39ab79181900360200190a1565b60005460ff16156120f5576040805160e560020a62461bcd02815260206004820152601260248201527f436f6e7472616374206973207061757365640000000000000000000000000000604482015290519081900360640190fd5b6000805460ff191660011790556040805142815290517f68b095021b1f40fe513109f513c66692f0b3219aee674a69f4efc57badb8201d9181900360200190a1565b600080600160a060020a03166007836040518082805190602001908083835b602083106121755780518252601f199092019160209182019101612156565b51815160209384036101000a6000190180199092169116179052920194855250604051938490030190922054600160a060020a03169290921491506123749050576121ed600654600784604051808280519060200190808383602083106106a15780518252601f199092019160209182019101610682565b4211801561226657506007826040518082805190602001908083835b602083106122285780518252601f199092019160209182019101612209565b51815160001960209485036101000a0190811690199190911617905292019485525060405193849003019092206004015460ff161515600114159150505b1561236c576040805160a0810182526000808252602080830182905283518082018552828152838501526060830182905260808301919091529151845191926007928692918291908401908083835b602083106122d45780518252601f1990920191602091820191016122b5565b51815160209384036101000a60001901801990921691161790529201948552506040805194859003820190942085518154600160a060020a031916600160a060020a0390911617815585820151600182015593850151805161233f9450600286019350910190612405565b50606082015160038201556080909101516004909101805460ff1916911515919091179055506001612378565b506000612378565b5060015b919050565b600160a060020a038116151561239257600080fd5b60008054604051600160a060020a038085169361010090930416917f8be0079c531659141344cd1fd0a4f28419497f9722a3daafe3b4186f6b6457e091a360008054600160a060020a039092166101000274ffffffffffffffffffffffffffffffffffffffff0019909216919091179055565b828054600181600116156101000203166002900490600052602060002090601f016020900481019282601f1061244657805160ff1916838001178555612473565b82800160010185558215612473579182015b82811115612473578251825591602001919060010190612458565b5061247f929150612483565b5090565b61249d91905b8082111561247f5760008155600101612489565b905600a165627a7a72305820456178b013f819d8fa5f421e04dca60787e39a88ba61d882aa8c2b4fd4d0b7550029",
  "source": "pragma solidity ^0.4.24;\n\nimport \"openzeppelin-solidity/contracts/math/SafeMath.sol\";\nimport \"openzeppelin-solidity/contracts/token/ERC20/ERC20.sol\";\nimport \"./interfaces/ITickerRegistry.sol\";\nimport \"./helpers/Util.sol\";\nimport \"./Pausable.sol\";\nimport \"./RegistryUpdater.sol\";\nimport \"./ReclaimTokens.sol\";\n\n/**\n * @title Registry contract for issuers to reserve their security token symbols\n * @notice Allows issuers to reserve their token symbols ahead of actually generating their security token.\n * @dev SecurityTokenRegistry would reference this contract and ensure that a token symbol exists here and only its owner can deploy the token with that symbol.\n */\ncontract TickerRegistry is ITickerRegistry, Util, Pausable, RegistryUpdater, ReclaimTokens {\n\n    using SafeMath for uint256;\n    // constant variable to check the validity to use the symbol\n    // For now it's value is 15 days;\n    uint256 public expiryLimit = 15 * 1 days;\n\n    // Details of the symbol that get registered with the polymath platform\n    struct SymbolDetails {\n        address owner;\n        uint256 timestamp;\n        string tokenName;\n        bytes32 swarmHash;\n        bool status;\n    }\n\n    // Storage of symbols correspond to their details.\n    mapping(string => SymbolDetails) registeredSymbols;\n\n    // Emit after the symbol registration\n    event LogRegisterTicker(address indexed _owner, string _symbol, string _name, bytes32 _swarmHash, uint256 indexed _timestamp);\n    // Emit when the token symbol expiry get changed\n    event LogChangeExpiryLimit(uint256 _oldExpiry, uint256 _newExpiry);\n\n    // Registration fee in POLY base 18 decimals\n    uint256 public registrationFee;\n    // Emit when changePolyRegistrationFee is called\n    event LogChangePolyRegistrationFee(uint256 _oldFee, uint256 _newFee);\n\n    constructor (address _polymathRegistry, uint256 _registrationFee) public\n    RegistryUpdater(_polymathRegistry)\n    {\n        registrationFee = _registrationFee;\n    }\n\n    /**\n     * @notice Register the token symbol for its particular owner\n     * @notice Once the token symbol is registered to its owner then no other issuer can claim\n     * @notice its ownership. If the symbol expires and its issuer hasn't used it, then someone else can take it.\n     * @param _symbol token symbol\n     * @param _tokenName Name of the token\n     * @param _owner Address of the owner of the token\n     * @param _swarmHash Off-chain details of the issuer and token\n     */\n    function registerTicker(address _owner, string _symbol, string _tokenName, bytes32 _swarmHash) public whenNotPaused {\n        require(_owner != address(0), \"Owner should not be 0x\");\n        require(bytes(_symbol).length > 0 && bytes(_symbol).length <= 10, \"Ticker length should always between 0 & 10\");\n        if(registrationFee > 0)\n            require(ERC20(polyToken).transferFrom(msg.sender, this, registrationFee), \"Failed transferFrom because of sufficent Allowance is not provided\");\n        string memory symbol = upper(_symbol);\n        require(expiryCheck(symbol), \"Ticker is already reserved\");\n        registeredSymbols[symbol] = SymbolDetails(_owner, now, _tokenName, _swarmHash, false);\n        emit LogRegisterTicker (_owner, symbol, _tokenName, _swarmHash, now);\n    }\n\n    /**\n     * @notice Change the expiry time for the token symbol\n     * @param _newExpiry new time period for token symbol expiry\n     */\n    function changeExpiryLimit(uint256 _newExpiry) public onlyOwner {\n        require(_newExpiry >= 1 days, \"Expiry should greater than or equal to 1 day\");\n        uint256 _oldExpiry = expiryLimit;\n        expiryLimit = _newExpiry;\n        emit LogChangeExpiryLimit(_oldExpiry, _newExpiry);\n    }\n\n    /**\n     * @notice Check the validity of the symbol\n     * @param _symbol token symbol\n     * @param _owner address of the owner\n     * @param _tokenName Name of the token\n     * @return bool\n     */\n    function checkValidity(string _symbol, address _owner, string _tokenName) public returns(bool) {\n        string memory symbol = upper(_symbol);\n        require(msg.sender == securityTokenRegistry, \"msg.sender should be SecurityTokenRegistry contract\");\n        require(registeredSymbols[symbol].status != true, \"Symbol status should not equal to true\");\n        require(registeredSymbols[symbol].owner == _owner, \"Owner of the symbol should matched with the requested issuer address\");\n        require(registeredSymbols[symbol].timestamp.add(expiryLimit) >= now, \"Ticker should not be expired\");\n        registeredSymbols[symbol].tokenName = _tokenName;\n        registeredSymbols[symbol].status = true;\n        return true;\n    }\n\n    /**\n     * @notice Check the symbol is reserved or not\n     * @param _symbol Symbol of the token\n     * @param _owner Owner of the token\n     * @param _tokenName Name of the token\n     * @param _swarmHash off-chain hash\n     * @return bool\n     */\n     function isReserved(string _symbol, address _owner, string _tokenName, bytes32 _swarmHash) public returns(bool) {\n        string memory symbol = upper(_symbol);\n        require(msg.sender == securityTokenRegistry, \"msg.sender should be SecurityTokenRegistry contract\");\n        if (registeredSymbols[symbol].owner == _owner && !expiryCheck(_symbol)) {\n            registeredSymbols[symbol].status = true;\n            return false;\n        }\n        else if (registeredSymbols[symbol].owner == address(0) || expiryCheck(symbol)) {\n            registeredSymbols[symbol] = SymbolDetails(_owner, now, _tokenName, _swarmHash, true);\n            emit LogRegisterTicker (_owner, symbol, _tokenName, _swarmHash, now);\n            return false;\n        } else\n            return true;\n     }\n\n    /**\n     * @notice Returns the owner and timestamp for a given symbol\n     * @param _symbol symbol\n     * @return address\n     * @return uint256\n     * @return string\n     * @return bytes32\n     * @return bool\n     */\n    function getDetails(string _symbol) public view returns (address, uint256, string, bytes32, bool) {\n        string memory symbol = upper(_symbol);\n        if (registeredSymbols[symbol].status == true||registeredSymbols[symbol].timestamp.add(expiryLimit) > now) {\n            return\n            (\n                registeredSymbols[symbol].owner,\n                registeredSymbols[symbol].timestamp,\n                registeredSymbols[symbol].tokenName,\n                registeredSymbols[symbol].swarmHash,\n                registeredSymbols[symbol].status\n            );\n        }else\n            return (address(0), uint256(0), \"\", bytes32(0), false);\n    }\n\n    /**\n     * @notice To re-initialize the token symbol details if symbol validity expires\n     * @param _symbol token symbol\n     * @return bool\n     */\n    function expiryCheck(string _symbol) internal returns(bool) {\n        if (registeredSymbols[_symbol].owner != address(0)) {\n            if (now > registeredSymbols[_symbol].timestamp.add(expiryLimit) && registeredSymbols[_symbol].status != true) {\n                registeredSymbols[_symbol] = SymbolDetails(address(0), uint256(0), \"\", bytes32(0), false);\n                return true;\n            }else\n                return false;\n        }\n        return true;\n    }\n\n    /**\n     * @notice set the ticker registration fee in POLY tokens\n     * @param _registrationFee registration fee in POLY tokens (base 18 decimals)\n     */\n    function changePolyRegistrationFee(uint256 _registrationFee) public onlyOwner {\n        require(registrationFee != _registrationFee);\n        emit LogChangePolyRegistrationFee(registrationFee, _registrationFee);\n        registrationFee = _registrationFee;\n    }\n\n     /**\n     * @notice pause registration function\n     */\n    function unpause() public onlyOwner  {\n        _unpause();\n    }\n\n    /**\n     * @notice unpause registration function\n     */\n    function pause() public onlyOwner {\n        _pause();\n    }\n\n}\n",
  "sourcePath": "/Users/rafaelvidaurre/Code/polymath/polymath-apps/node_modules/polymath-core/contracts/TickerRegistry.sol",
  "compiler": {
    "name": "solc",
    "version": "0.4.24+commit.e67f0147.Emscripten.clang"
  },
  "schemaVersion": "2.0.1",
  "updatedAt": "2018-09-24T19:06:12.011Z"
}