{
  "contractName": "TokenLib",
  "abi": [
    {
      "anonymous": false,
      "inputs": [
        {
          "indexed": false,
          "name": "_types",
          "type": "uint8[]"
        },
        {
          "indexed": false,
          "name": "_module",
          "type": "address"
        },
        {
          "indexed": false,
          "name": "_timestamp",
          "type": "uint256"
        }
      ],
      "name": "ModuleArchived",
      "type": "event"
    },
    {
      "anonymous": false,
      "inputs": [
        {
          "indexed": false,
          "name": "_types",
          "type": "uint8[]"
        },
        {
          "indexed": false,
          "name": "_module",
          "type": "address"
        },
        {
          "indexed": false,
          "name": "_timestamp",
          "type": "uint256"
        }
      ],
      "name": "ModuleUnarchived",
      "type": "event"
    },
    {
      "constant": false,
      "inputs": [
        {
          "name": "_moduleData",
          "type": "TokenLib.ModuleData storage"
        },
        {
          "name": "_module",
          "type": "address"
        }
      ],
      "name": "archiveModule",
      "outputs": [],
      "payable": false,
      "stateMutability": "nonpayable",
      "type": "function"
    },
    {
      "constant": false,
      "inputs": [
        {
          "name": "_moduleData",
          "type": "TokenLib.ModuleData storage"
        },
        {
          "name": "_module",
          "type": "address"
        }
      ],
      "name": "unarchiveModule",
      "outputs": [],
      "payable": false,
      "stateMutability": "nonpayable",
      "type": "function"
    },
    {
      "constant": true,
      "inputs": [
        {
          "name": "_modules",
          "type": "address[] storage"
        },
        {
          "name": "_delegate",
          "type": "address"
        },
        {
          "name": "_module",
          "type": "address"
        },
        {
          "name": "_perm",
          "type": "bytes32"
        }
      ],
      "name": "checkPermission",
      "outputs": [
        {
          "name": "",
          "type": "bool"
        }
      ],
      "payable": false,
      "stateMutability": "view",
      "type": "function"
    },
    {
      "constant": true,
      "inputs": [
        {
          "name": "_checkpoints",
          "type": "TokenLib.Checkpoint[] storage"
        },
        {
          "name": "_checkpointId",
          "type": "uint256"
        },
        {
          "name": "_currentValue",
          "type": "uint256"
        }
      ],
      "name": "getValueAt",
      "outputs": [
        {
          "name": "",
          "type": "uint256"
        }
      ],
      "payable": false,
      "stateMutability": "view",
      "type": "function"
    },
    {
      "constant": false,
      "inputs": [
        {
          "name": "_checkpoints",
          "type": "TokenLib.Checkpoint[] storage"
        },
        {
          "name": "_newValue",
          "type": "uint256"
        },
        {
          "name": "_currentCheckpointId",
          "type": "uint256"
        }
      ],
      "name": "adjustCheckpoints",
      "outputs": [],
      "payable": false,
      "stateMutability": "nonpayable",
      "type": "function"
    },
    {
      "constant": false,
      "inputs": [
        {
          "name": "_investorData",
          "type": "TokenLib.InvestorDataStorage storage"
        },
        {
          "name": "_from",
          "type": "address"
        },
        {
          "name": "_to",
          "type": "address"
        },
        {
          "name": "_value",
          "type": "uint256"
        },
        {
          "name": "_balanceTo",
          "type": "uint256"
        },
        {
          "name": "_balanceFrom",
          "type": "uint256"
        }
      ],
      "name": "adjustInvestorCount",
      "outputs": [],
      "payable": false,
      "stateMutability": "nonpayable",
      "type": "function"
    },
    {
      "constant": false,
      "inputs": [
        {
          "name": "_investorData",
          "type": "TokenLib.InvestorDataStorage storage"
        },
        {
          "name": "_index",
          "type": "uint256"
        }
      ],
      "name": "pruneInvestors",
      "outputs": [],
      "payable": false,
      "stateMutability": "nonpayable",
      "type": "function"
    }
  ],
  "bytecode": "0x610b07610030600b82828239805160001a6073146000811461002057610022565bfe5b5030600052607381538281f30073000000000000000000000000000000000000000030146080604052600436106100995763ffffffff7c010000000000000000000000000000000000000000000000000000000060003504166307c20d97811461009e57806317dd222c146100be5780631e4465b6146100f15780634e5ba9261461010c57806384c0b0ef14610130578063b58ae1e214610164578063e486dd3b14610187575b600080fd5b8180156100aa57600080fd5b506100bc6004356024356044356101ab565b005b8180156100ca57600080fd5b506100bc600435600160a060020a036024358116906044351660643560843560a435610233565b8180156100fd57600080fd5b506100bc60043560243561034b565b81801561011857600080fd5b506100bc600435600160a060020a036024351661041f565b610150600435600160a060020a036024358116906044351660643561056f565b604080519115158252519081900360200190f35b610175600435602435604435610677565b60408051918252519081900360200190f35b81801561019357600080fd5b506100bc600435600160a060020a0360243516610810565b8015156101b75761022e565b825460001080156101eb575082548190849060001981019081106101d757fe5b906000526020600020906002020160000154145b156101f55761022e565b60408051808201909152818152602080820184815285546001818101885560008881529390932093516002909102909301928355519101555b505050565b821580610251575083600160a060020a031685600160a060020a0316145b1561025b57610343565b811580156102715750600160a060020a03841615155b1561029257600286015461028c90600163ffffffff6109da16565b60028701555b808314156102b65760028601546102b090600163ffffffff610a3b16565b60028701555b600160a060020a03841660009081526020879052604090205460ff161580156102e75750600160a060020a03841615155b156103435760018681018054808301825560009182526020808320909101805473ffffffffffffffffffffffffffffffffffffffff1916600160a060020a038916908117909155825288905260409020805460ff191690911790555b505050505050565b6000826000016000846001018481548110151561036457fe5b600091825260208083209190910154600160a060020a031683528201929092526040019020805460ff191691151591909117905560018201805460001981019081106103ac57fe5b600091825260209091200154600183018054600160a060020a0390921691839081106103d457fe5b6000918252602090912001805473ffffffffffffffffffffffffffffffffffffffff1916600160a060020a03929092169190911790556001820180549061022e906000198301610a9b565b600282015474010000000000000000000000000000000000000000900460ff161515610495576040805160e560020a62461bcd02815260206004820152601160248201527f4d6f64756c6520756e6172636869766564000000000000000000000000000000604482015290519081900360640190fd5b7f69aa158182e215a2a46d92c014393158ddfe3c36f1b3f139de0f347b8f2028d1826003018242604051808060200184600160a060020a0316600160a060020a03168152602001838152602001828103825285818154815260200191508054801561053d57602002820191906000526020600020906000905b825461010083900a900460ff1681526020600192830181810494850194909303909202910180841161050e5790505b505094505050505060405180910390a150600201805474ff000000000000000000000000000000000000000019169055565b835460009081901515610585576000915061066e565b5060005b855460ff8216101561066957858160ff168154811015156105a657fe5b6000918252602080832090910154604080517f8658b8b9000000000000000000000000000000000000000000000000000000008152600160a060020a038a8116600483015289811660248301526044820189905291519190921693638658b8b993606480850194919392918390030190829087803b15801561062757600080fd5b505af115801561063b573d6000803e3d6000fd5b505050506040513d602081101561065157600080fd5b505115610661576001915061066e565b600101610589565b600091505b50949350505050565b600080808085151561068c5760009350610806565b8654151561069c57849350610806565b858760008154811015156106ac57fe5b6000918252602090912060029091020154106106ea578660008154811015156106d157fe5b9060005260206000209060020201600101549350610806565b86548690889060001981019081106106fe57fe5b906000526020600020906002020160000154101561071e57849350610806565b865486908890600019810190811061073257fe5b906000526020600020906002020160000154141561075c578654879060001981019081106106d157fe5b8654600093506000190191505b828211156107e357600282840104905085878281548110151561078857fe5b90600052602060002090600202016000015414156107a8578091506107e3565b8587828154811015156107b757fe5b90600052602060002090600202016000015410156107da578060010192506107de565b8091505b610769565b86828154811015156107f157fe5b90600052602060002090600202016001015493505b5050509392505050565b600282015474010000000000000000000000000000000000000000900460ff1615610885576040805160e560020a62461bcd02815260206004820152600f60248201527f4d6f64756c652061726368697665640000000000000000000000000000000000604482015290519081900360640190fd5b6001820154600160a060020a031615156108e9576040805160e560020a62461bcd02815260206004820152600e60248201527f4d6f64756c65206d697373696e67000000000000000000000000000000000000604482015290519081900360640190fd5b7f3f87f1a417fa1b32950c68247a8db7d7a3e503e04a6ed914e081c4cf8c4dd480826003018242604051808060200184600160a060020a0316600160a060020a03168152602001838152602001828103825285818154815260200191508054801561099157602002820191906000526020600020906000905b825461010083900a900460ff168152602060019283018181049485019490930390920291018084116109625790505b505094505050505060405180910390a150600201805474ff0000000000000000000000000000000000000000191674010000000000000000000000000000000000000000179055565b81810182811015610a35576040805160e560020a62461bcd02815260206004820152600c60248201527f616464206f766572666c6f770000000000000000000000000000000000000000604482015290519081900360640190fd5b92915050565b600082821115610a95576040805160e560020a62461bcd02815260206004820152600c60248201527f737562206f766572666c6f770000000000000000000000000000000000000000604482015290519081900360640190fd5b50900390565b81548183558181111561022e5760008381526020902061022e918101908301610ad891905b80821115610ad45760008155600101610ac0565b5090565b905600a165627a7a7230582031536e94915cccec237a98f2cdc9fbdaa883d76bf01aed88db1caeeefc66fb930029",
  "source": "pragma solidity ^0.4.24;\n\nimport \"../modules/PermissionManager/IPermissionManager.sol\";\nimport \"./KindMath.sol\";\n\nlibrary TokenLib {\n\n    using KindMath for uint256;\n\n    // Struct for module data\n    struct ModuleData {\n        bytes32 name;\n        address module;\n        address moduleFactory;\n        bool isArchived;\n        uint8[] moduleTypes;\n        uint256[] moduleIndexes;\n        uint256 nameIndex;\n    }\n\n    // Structures to maintain checkpoints of balances for governance / dividends\n    struct Checkpoint {\n        uint256 checkpointId;\n        uint256 value;\n    }\n\n    struct InvestorDataStorage {\n        // List of investors (may not be pruned to remove old investors with current zero balances)\n        mapping (address => bool) investorListed;\n        // List of token holders\n        address[] investors;\n        // Total number of non-zero token holders\n        uint256 investorCount;\n    }\n\n    // Emit when Module is archived from the SecurityToken\n    event ModuleArchived(uint8[] _types, address _module, uint256 _timestamp);\n    // Emit when Module is unarchived from the SecurityToken\n    event ModuleUnarchived(uint8[] _types, address _module, uint256 _timestamp);\n\n    /**\n    * @notice Archives a module attached to the SecurityToken\n    * @param _moduleData storage data\n    * @param _module address of module to archive\n    */\n    function archiveModule(ModuleData storage _moduleData, address _module) public {\n        require(!_moduleData.isArchived, \"Module archived\");\n        require(_moduleData.module != address(0), \"Module missing\");\n        emit ModuleArchived(_moduleData.moduleTypes, _module, now);\n        _moduleData.isArchived = true;\n    }\n\n    /**\n    * @notice Unarchives a module attached to the SecurityToken\n    * @param _moduleData storage data\n    * @param _module address of module to unarchive\n    */\n    function unarchiveModule(ModuleData storage _moduleData, address _module) public {\n        require(_moduleData.isArchived, \"Module unarchived\");\n        emit ModuleUnarchived(_moduleData.moduleTypes, _module, now);\n        _moduleData.isArchived = false;\n    }\n\n    /**\n     * @notice Validate permissions with PermissionManager if it exists. If there's no permission return false\n     * @dev Note that IModule withPerm will allow ST owner all permissions by default\n     * @dev this allows individual modules to override this logic if needed (to not allow ST owner all permissions)\n     * @param _modules is the modules to check permissions on\n     * @param _delegate is the address of the delegate\n     * @param _module is the address of the PermissionManager module\n     * @param _perm is the permissions data\n     * @return success\n     */\n    function checkPermission(address[] storage _modules, address _delegate, address _module, bytes32 _perm) public view returns(bool) {\n        if (_modules.length == 0) {\n            return false;\n        }\n\n        for (uint8 i = 0; i < _modules.length; i++) {\n            if (IPermissionManager(_modules[i]).checkPermission(_delegate, _module, _perm)) {\n                return true;\n            }\n        }\n\n        return false;\n    }\n\n    /**\n     * @notice Queries a value at a defined checkpoint\n     * @param _checkpoints is array of Checkpoint objects\n     * @param _checkpointId is the Checkpoint ID to query\n     * @param _currentValue is the Current value of checkpoint\n     * @return uint256\n     */\n    function getValueAt(Checkpoint[] storage _checkpoints, uint256 _checkpointId, uint256 _currentValue) public view returns(uint256) {\n        //Checkpoint id 0 is when the token is first created - everyone has a zero balance\n        if (_checkpointId == 0) {\n            return 0;\n        }\n        if (_checkpoints.length == 0) {\n            return _currentValue;\n        }\n        if (_checkpoints[0].checkpointId >= _checkpointId) {\n            return _checkpoints[0].value;\n        }\n        if (_checkpoints[_checkpoints.length - 1].checkpointId < _checkpointId) {\n            return _currentValue;\n        }\n        if (_checkpoints[_checkpoints.length - 1].checkpointId == _checkpointId) {\n            return _checkpoints[_checkpoints.length - 1].value;\n        }\n        uint256 min = 0;\n        uint256 max = _checkpoints.length - 1;\n        while (max > min) {\n            uint256 mid = (max + min) / 2;\n            if (_checkpoints[mid].checkpointId == _checkpointId) {\n                max = mid;\n                break;\n            }\n            if (_checkpoints[mid].checkpointId < _checkpointId) {\n                min = mid + 1;\n            } else {\n                max = mid;\n            }\n        }\n        return _checkpoints[max].value;\n    }\n\n    /**\n     * @notice Stores the changes to the checkpoint objects\n     * @param _checkpoints is the affected checkpoint object array\n     * @param _newValue is the new value that needs to be stored\n     */\n    function adjustCheckpoints(TokenLib.Checkpoint[] storage _checkpoints, uint256 _newValue, uint256 _currentCheckpointId) public {\n        //No checkpoints set yet\n        if (_currentCheckpointId == 0) {\n            return;\n        }\n        //No new checkpoints since last update\n        if ((_checkpoints.length > 0) && (_checkpoints[_checkpoints.length - 1].checkpointId == _currentCheckpointId)) {\n            return;\n        }\n        //New checkpoint, so record balance\n        _checkpoints.push(\n            TokenLib.Checkpoint({\n                checkpointId: _currentCheckpointId,\n                value: _newValue\n            })\n        );\n    }\n\n    /**\n    * @notice keeps track of the number of non-zero token holders\n    * @param _investorData Date releated to investor metrics\n    * @param _from sender of transfer\n    * @param _to receiver of transfer\n    * @param _value value of transfer\n    * @param _balanceTo balance of the _to address\n    * @param _balanceFrom balance of the _from address\n    */\n    function adjustInvestorCount(\n        InvestorDataStorage storage _investorData,\n        address _from,\n        address _to,\n        uint256 _value,\n        uint256 _balanceTo,\n        uint256 _balanceFrom\n        ) public  {\n        if ((_value == 0) || (_from == _to)) {\n            return;\n        }\n        // Check whether receiver is a new token holder\n        if ((_balanceTo == 0) && (_to != address(0))) {\n            _investorData.investorCount = (_investorData.investorCount).add(1);\n        }\n        // Check whether sender is moving all of their tokens\n        if (_value == _balanceFrom) {\n            _investorData.investorCount = (_investorData.investorCount).sub(1);\n        }\n        //Also adjust investor list\n        if (!_investorData.investorListed[_to] && (_to != address(0))) {\n            _investorData.investors.push(_to);\n            _investorData.investorListed[_to] = true;\n        }\n\n    }\n\n     /**\n    * @notice removes addresses with zero balances from the investors list\n    * @param _investorData is the date related to investor metrics\n    * @param _index is the index in investor list\n    * NB - pruning this list will mean you may not be able to iterate over investors on-chain as of a historical checkpoint\n    */\n    function pruneInvestors(InvestorDataStorage storage _investorData, uint256 _index) public {\n        _investorData.investorListed[_investorData.investors[_index]] = false;\n        _investorData.investors[_index] = _investorData.investors[_investorData.investors.length - 1];\n        _investorData.investors.length--;\n    }\n\n}\n",
  "sourcePath": "/Users/jere/Code/polymath-apps/packages/polymath-shared/scripts/generateLocalBlockchain/contracts/libraries/TokenLib.sol",
  "compiler": {
    "name": "solc",
    "version": "0.4.24+commit.e67f0147.Emscripten.clang"
  },
  "schemaVersion": "2.0.1",
  "updatedAt": "2018-10-23T22:45:13.050Z"
}