{
  "contractName": "TrackedRedemption",
  "abi": [
    {
      "constant": false,
      "inputs": [
        {
          "name": "_amount",
          "type": "uint256"
        }
      ],
      "name": "takeFee",
      "outputs": [
        {
          "name": "",
          "type": "bool"
        }
      ],
      "payable": false,
      "stateMutability": "nonpayable",
      "type": "function"
    },
    {
      "constant": true,
      "inputs": [],
      "name": "polyToken",
      "outputs": [
        {
          "name": "",
          "type": "address"
        }
      ],
      "payable": false,
      "stateMutability": "view",
      "type": "function"
    },
    {
      "constant": true,
      "inputs": [],
      "name": "securityToken",
      "outputs": [
        {
          "name": "",
          "type": "address"
        }
      ],
      "payable": false,
      "stateMutability": "view",
      "type": "function"
    },
    {
      "constant": true,
      "inputs": [],
      "name": "factory",
      "outputs": [
        {
          "name": "",
          "type": "address"
        }
      ],
      "payable": false,
      "stateMutability": "view",
      "type": "function"
    },
    {
      "constant": true,
      "inputs": [],
      "name": "FEE_ADMIN",
      "outputs": [
        {
          "name": "",
          "type": "bytes32"
        }
      ],
      "payable": false,
      "stateMutability": "view",
      "type": "function"
    },
    {
      "inputs": [
        {
          "name": "_securityToken",
          "type": "address"
        },
        {
          "name": "_polyAddress",
          "type": "address"
        }
      ],
      "payable": false,
      "stateMutability": "nonpayable",
      "type": "constructor"
    },
    {
      "anonymous": false,
      "inputs": [
        {
          "indexed": false,
          "name": "_investor",
          "type": "address"
        },
        {
          "indexed": false,
          "name": "_value",
          "type": "uint256"
        },
        {
          "indexed": false,
          "name": "_timestamp",
          "type": "uint256"
        }
      ],
      "name": "Redeemed",
      "type": "event"
    },
    {
      "constant": true,
      "inputs": [],
      "name": "getInitFunction",
      "outputs": [
        {
          "name": "",
          "type": "bytes4"
        }
      ],
      "payable": false,
      "stateMutability": "pure",
      "type": "function"
    },
    {
      "constant": false,
      "inputs": [
        {
          "name": "_value",
          "type": "uint256"
        }
      ],
      "name": "redeemTokens",
      "outputs": [],
      "payable": false,
      "stateMutability": "nonpayable",
      "type": "function"
    },
    {
      "constant": true,
      "inputs": [],
      "name": "getPermissions",
      "outputs": [
        {
          "name": "",
          "type": "bytes32[]"
        }
      ],
      "payable": false,
      "stateMutability": "view",
      "type": "function"
    }
  ],
  "bytecode": "0x608060405234801561001057600080fd5b5060405160408061078283398101604052805160209091015160018054600160a060020a03938416600160a060020a0319918216179091556000805482163317905560028054939092169216919091179055610711806100716000396000f3006080604052600436106100745763ffffffff60e060020a6000350416631613ec9d81146100795780635f7619a4146100c35780636faa22a5146100ef578063a6e158f814610120578063b84dfbd21461013a578063c3a07df61461014f578063c45a0155146101b4578063d70afa96146101c9575b600080fd5b34801561008557600080fd5b5061008e6101f0565b604080517fffffffff000000000000000000000000000000000000000000000000000000009092168252519081900360200190f35b3480156100cf57600080fd5b506100db6004356101f5565b604080519115158252519081900360200190f35b3480156100fb57600080fd5b50610104610567565b60408051600160a060020a039092168252519081900360200190f35b34801561012c57600080fd5b50610138600435610576565b005b34801561014657600080fd5b5061010461067e565b34801561015b57600080fd5b5061016461068d565b60408051602080825283518183015283519192839290830191858101910280838360005b838110156101a0578181015183820152602001610188565b505050509050019250505060405180910390f35b3480156101c057600080fd5b5061010461069f565b3480156101d557600080fd5b506101de6106ae565b60408051918252519081900360200190f35b600090565b60007f4645455f41444d494e0000000000000000000000000000000000000000000000600080600160009054906101000a9004600160a060020a0316600160a060020a0316638da5cb5b6040518163ffffffff1660e060020a028152600401602060405180830381600087803b15801561026e57600080fd5b505af1158015610282573d6000803e3d6000fd5b505050506040513d602081101561029857600080fd5b505160005433600160a060020a0392831681149450911614905081806102bb5750805b806103615750600154604080517f8658b8b9000000000000000000000000000000000000000000000000000000008152336004820152306024820152604481018690529051600160a060020a0390921691638658b8b9916064808201926020929091908290030181600087803b15801561033457600080fd5b505af1158015610348573d6000803e3d6000fd5b505050506040513d602081101561035e57600080fd5b50515b15156103ce57604080517f08c379a000000000000000000000000000000000000000000000000000000000815260206004820152601760248201527f5065726d697373696f6e20636865636b206661696c6564000000000000000000604482015290519081900360640190fd5b60025460015460008054604080517f8da5cb5b0000000000000000000000000000000000000000000000000000000081529051600160a060020a03958616956323b872dd95811694931692638da5cb5b92600480820193602093909283900390910190829087803b15801561044257600080fd5b505af1158015610456573d6000803e3d6000fd5b505050506040513d602081101561046c57600080fd5b50516040805160e060020a63ffffffff8616028152600160a060020a039384166004820152929091166024830152604482018990525160648083019260209291908290030181600087803b1580156104c357600080fd5b505af11580156104d7573d6000803e3d6000fd5b505050506040513d60208110156104ed57600080fd5b5051151561055c57604080517f08c379a000000000000000000000000000000000000000000000000000000000815260206004820152601260248201527f556e61626c6520746f2074616b65206665650000000000000000000000000000604482015290519081900360640190fd5b506001949350505050565b600254600160a060020a031681565b600154604080517f7d6ae27b00000000000000000000000000000000000000000000000000000000815233600482015260248101849052606060448201526000606482018190529151600160a060020a0390931692637d6ae27b9260a48084019391929182900301818387803b1580156105ef57600080fd5b505af1158015610603573d6000803e3d6000fd5b505033600090815260036020526040902054610628925090508263ffffffff6106d216565b33600081815260036020908152604091829020939093558051918252918101839052428183015290517ff3a670cd3af7d64b488926880889d08a8585a138ff455227af6737339a1ec2629181900360600190a150565b600154600160a060020a031681565b60408051600081526020810190915290565b600054600160a060020a031681565b7f4645455f41444d494e000000000000000000000000000000000000000000000081565b818101828110156106df57fe5b929150505600a165627a7a72305820e158c5cd1523b877c4c46db159d6e6473885f145202ea10ac1a0b87ce2ce561d0029",
  "source": "pragma solidity ^0.4.24;\n\nimport \"../../Burn/IBurn.sol\";\nimport \"../../Module.sol\";\nimport \"../../../interfaces/ISecurityToken.sol\";\nimport \"openzeppelin-solidity/contracts/math/SafeMath.sol\";\n\n/**\n * @title Burn module for burning tokens and keeping track of burnt amounts\n */\ncontract TrackedRedemption is IBurn, Module {\n    using SafeMath for uint256;\n\n    mapping (address => uint256) redeemedTokens;\n\n    event Redeemed(address _investor, uint256 _value, uint256 _timestamp);\n\n    /**\n     * @notice Constructor\n     * @param _securityToken Address of the security token\n     * @param _polyAddress Address of the polytoken\n     */\n    constructor (address _securityToken, address _polyAddress) public\n    Module(_securityToken, _polyAddress)\n    {\n    }\n\n    /**\n     * @notice This function returns the signature of configure function\n     */\n    function getInitFunction() public pure returns (bytes4) {\n        return bytes4(0);\n    }\n\n    /**\n     * @notice To redeem tokens and track redemptions\n     * @param _value The number of tokens to redeem\n     */\n    function redeemTokens(uint256 _value) public {\n        ISecurityToken(securityToken).burnFromWithData(msg.sender, _value, \"\");\n        redeemedTokens[msg.sender] = redeemedTokens[msg.sender].add(_value);\n        /*solium-disable-next-line security/no-block-members*/\n        emit Redeemed(msg.sender, _value, now);\n    }\n\n    /**\n     * @notice Returns the permissions flag that are associated with CountTransferManager\n     */\n    function getPermissions() public view returns(bytes32[]) {\n        bytes32[] memory allPermissions = new bytes32[](0);\n        return allPermissions;\n    }\n}\n",
  "sourcePath": "/Users/jere/Code/polymath-apps/packages/polymath-shared/scripts/generateLocalBlockchain/contracts/modules/Experimental/Burn/TrackedRedemption.sol",
  "compiler": {
    "name": "solc",
    "version": "0.4.24+commit.e67f0147.Emscripten.clang"
  },
  "schemaVersion": "2.0.1",
  "updatedAt": "2018-11-05T19:10:15.709Z"
}