{
  "contractName": "USDTieredSTO",
  "abi": [
    {
      "constant": true,
      "inputs": [
        {
          "name": "",
          "type": "uint256"
        }
      ],
      "name": "ratePerTier",
      "outputs": [
        {
          "name": "",
          "type": "uint256"
        }
      ],
      "payable": false,
      "stateMutability": "view",
      "type": "function"
    },
    {
      "constant": true,
      "inputs": [
        {
          "name": "",
          "type": "uint256"
        }
      ],
      "name": "mintedPerTierDiscountPoly",
      "outputs": [
        {
          "name": "",
          "type": "uint256"
        }
      ],
      "payable": false,
      "stateMutability": "view",
      "type": "function"
    },
    {
      "constant": true,
      "inputs": [],
      "name": "allowBeneficialInvestments",
      "outputs": [
        {
          "name": "",
          "type": "bool"
        }
      ],
      "payable": false,
      "stateMutability": "view",
      "type": "function"
    },
    {
      "constant": true,
      "inputs": [],
      "name": "endTime",
      "outputs": [
        {
          "name": "",
          "type": "uint256"
        }
      ],
      "payable": false,
      "stateMutability": "view",
      "type": "function"
    },
    {
      "constant": false,
      "inputs": [],
      "name": "unpause",
      "outputs": [],
      "payable": false,
      "stateMutability": "nonpayable",
      "type": "function"
    },
    {
      "constant": true,
      "inputs": [],
      "name": "nonAccreditedLimitUSD",
      "outputs": [
        {
          "name": "",
          "type": "uint256"
        }
      ],
      "payable": false,
      "stateMutability": "view",
      "type": "function"
    },
    {
      "constant": true,
      "inputs": [
        {
          "name": "",
          "type": "uint256"
        }
      ],
      "name": "tokensPerTierDiscountPoly",
      "outputs": [
        {
          "name": "",
          "type": "uint256"
        }
      ],
      "payable": false,
      "stateMutability": "view",
      "type": "function"
    },
    {
      "constant": true,
      "inputs": [],
      "name": "wallet",
      "outputs": [
        {
          "name": "",
          "type": "address"
        }
      ],
      "payable": false,
      "stateMutability": "view",
      "type": "function"
    },
    {
      "constant": true,
      "inputs": [],
      "name": "paused",
      "outputs": [
        {
          "name": "",
          "type": "bool"
        }
      ],
      "payable": false,
      "stateMutability": "view",
      "type": "function"
    },
    {
      "constant": false,
      "inputs": [
        {
          "name": "_amount",
          "type": "uint256"
        }
      ],
      "name": "takeFee",
      "outputs": [
        {
          "name": "",
          "type": "bool"
        }
      ],
      "payable": false,
      "stateMutability": "nonpayable",
      "type": "function"
    },
    {
      "constant": true,
      "inputs": [],
      "name": "totalTokensSold",
      "outputs": [
        {
          "name": "",
          "type": "uint256"
        }
      ],
      "payable": false,
      "stateMutability": "view",
      "type": "function"
    },
    {
      "constant": true,
      "inputs": [],
      "name": "finalAmountReturned",
      "outputs": [
        {
          "name": "",
          "type": "uint256"
        }
      ],
      "payable": false,
      "stateMutability": "view",
      "type": "function"
    },
    {
      "constant": true,
      "inputs": [],
      "name": "polyToken",
      "outputs": [
        {
          "name": "",
          "type": "address"
        }
      ],
      "payable": false,
      "stateMutability": "view",
      "type": "function"
    },
    {
      "constant": true,
      "inputs": [
        {
          "name": "",
          "type": "uint256"
        }
      ],
      "name": "ratePerTierDiscountPoly",
      "outputs": [
        {
          "name": "",
          "type": "uint256"
        }
      ],
      "payable": false,
      "stateMutability": "view",
      "type": "function"
    },
    {
      "constant": true,
      "inputs": [],
      "name": "startTime",
      "outputs": [
        {
          "name": "",
          "type": "uint256"
        }
      ],
      "payable": false,
      "stateMutability": "view",
      "type": "function"
    },
    {
      "constant": true,
      "inputs": [
        {
          "name": "",
          "type": "address"
        }
      ],
      "name": "accredited",
      "outputs": [
        {
          "name": "",
          "type": "bool"
        }
      ],
      "payable": false,
      "stateMutability": "view",
      "type": "function"
    },
    {
      "constant": false,
      "inputs": [],
      "name": "pause",
      "outputs": [],
      "payable": false,
      "stateMutability": "nonpayable",
      "type": "function"
    },
    {
      "constant": true,
      "inputs": [
        {
          "name": "",
          "type": "address"
        },
        {
          "name": "",
          "type": "uint8"
        }
      ],
      "name": "investorInvested",
      "outputs": [
        {
          "name": "",
          "type": "uint256"
        }
      ],
      "payable": false,
      "stateMutability": "view",
      "type": "function"
    },
    {
      "constant": false,
      "inputs": [
        {
          "name": "_tokenContract",
          "type": "address"
        }
      ],
      "name": "reclaimERC20",
      "outputs": [],
      "payable": false,
      "stateMutability": "nonpayable",
      "type": "function"
    },
    {
      "constant": true,
      "inputs": [
        {
          "name": "",
          "type": "uint256"
        }
      ],
      "name": "mintedPerTierTotal",
      "outputs": [
        {
          "name": "",
          "type": "uint256"
        }
      ],
      "payable": false,
      "stateMutability": "view",
      "type": "function"
    },
    {
      "constant": true,
      "inputs": [],
      "name": "isFinalized",
      "outputs": [
        {
          "name": "",
          "type": "bool"
        }
      ],
      "payable": false,
      "stateMutability": "view",
      "type": "function"
    },
    {
      "constant": true,
      "inputs": [],
      "name": "ETH_ORACLE",
      "outputs": [
        {
          "name": "",
          "type": "string"
        }
      ],
      "payable": false,
      "stateMutability": "view",
      "type": "function"
    },
    {
      "constant": true,
      "inputs": [
        {
          "name": "_fundRaiseType",
          "type": "uint8"
        }
      ],
      "name": "getRaised",
      "outputs": [
        {
          "name": "",
          "type": "uint256"
        }
      ],
      "payable": false,
      "stateMutability": "view",
      "type": "function"
    },
    {
      "constant": true,
      "inputs": [],
      "name": "POLY_ORACLE",
      "outputs": [
        {
          "name": "",
          "type": "string"
        }
      ],
      "payable": false,
      "stateMutability": "view",
      "type": "function"
    },
    {
      "constant": true,
      "inputs": [],
      "name": "pausedTime",
      "outputs": [
        {
          "name": "",
          "type": "uint256"
        }
      ],
      "payable": false,
      "stateMutability": "view",
      "type": "function"
    },
    {
      "constant": true,
      "inputs": [],
      "name": "securityToken",
      "outputs": [
        {
          "name": "",
          "type": "address"
        }
      ],
      "payable": false,
      "stateMutability": "view",
      "type": "function"
    },
    {
      "constant": true,
      "inputs": [],
      "name": "factory",
      "outputs": [
        {
          "name": "",
          "type": "address"
        }
      ],
      "payable": false,
      "stateMutability": "view",
      "type": "function"
    },
    {
      "constant": true,
      "inputs": [
        {
          "name": "",
          "type": "uint8"
        }
      ],
      "name": "fundsRaised",
      "outputs": [
        {
          "name": "",
          "type": "uint256"
        }
      ],
      "payable": false,
      "stateMutability": "view",
      "type": "function"
    },
    {
      "constant": true,
      "inputs": [
        {
          "name": "",
          "type": "address"
        }
      ],
      "name": "investorInvestedUSD",
      "outputs": [
        {
          "name": "",
          "type": "uint256"
        }
      ],
      "payable": false,
      "stateMutability": "view",
      "type": "function"
    },
    {
      "constant": true,
      "inputs": [
        {
          "name": "",
          "type": "uint8"
        },
        {
          "name": "",
          "type": "uint256"
        }
      ],
      "name": "mintedPerTier",
      "outputs": [
        {
          "name": "",
          "type": "uint256"
        }
      ],
      "payable": false,
      "stateMutability": "view",
      "type": "function"
    },
    {
      "constant": true,
      "inputs": [
        {
          "name": "",
          "type": "uint8"
        }
      ],
      "name": "fundRaiseTypes",
      "outputs": [
        {
          "name": "",
          "type": "bool"
        }
      ],
      "payable": false,
      "stateMutability": "view",
      "type": "function"
    },
    {
      "constant": true,
      "inputs": [],
      "name": "currentTier",
      "outputs": [
        {
          "name": "",
          "type": "uint8"
        }
      ],
      "payable": false,
      "stateMutability": "view",
      "type": "function"
    },
    {
      "constant": true,
      "inputs": [],
      "name": "FEE_ADMIN",
      "outputs": [
        {
          "name": "",
          "type": "bytes32"
        }
      ],
      "payable": false,
      "stateMutability": "view",
      "type": "function"
    },
    {
      "constant": true,
      "inputs": [],
      "name": "reserveWallet",
      "outputs": [
        {
          "name": "",
          "type": "address"
        }
      ],
      "payable": false,
      "stateMutability": "view",
      "type": "function"
    },
    {
      "constant": true,
      "inputs": [],
      "name": "investorCount",
      "outputs": [
        {
          "name": "",
          "type": "uint256"
        }
      ],
      "payable": false,
      "stateMutability": "view",
      "type": "function"
    },
    {
      "constant": true,
      "inputs": [
        {
          "name": "",
          "type": "address"
        }
      ],
      "name": "nonAccreditedLimitUSDOverride",
      "outputs": [
        {
          "name": "",
          "type": "uint256"
        }
      ],
      "payable": false,
      "stateMutability": "view",
      "type": "function"
    },
    {
      "constant": true,
      "inputs": [],
      "name": "minimumInvestmentUSD",
      "outputs": [
        {
          "name": "",
          "type": "uint256"
        }
      ],
      "payable": false,
      "stateMutability": "view",
      "type": "function"
    },
    {
      "constant": true,
      "inputs": [],
      "name": "usdToken",
      "outputs": [
        {
          "name": "",
          "type": "address"
        }
      ],
      "payable": false,
      "stateMutability": "view",
      "type": "function"
    },
    {
      "constant": true,
      "inputs": [
        {
          "name": "",
          "type": "uint256"
        }
      ],
      "name": "tokensPerTierTotal",
      "outputs": [
        {
          "name": "",
          "type": "uint256"
        }
      ],
      "payable": false,
      "stateMutability": "view",
      "type": "function"
    },
    {
      "constant": true,
      "inputs": [],
      "name": "fundsRaisedUSD",
      "outputs": [
        {
          "name": "",
          "type": "uint256"
        }
      ],
      "payable": false,
      "stateMutability": "view",
      "type": "function"
    },
    {
      "inputs": [
        {
          "name": "_securityToken",
          "type": "address"
        },
        {
          "name": "_polyAddress",
          "type": "address"
        },
        {
          "name": "_factory",
          "type": "address"
        }
      ],
      "payable": false,
      "stateMutability": "nonpayable",
      "type": "constructor"
    },
    {
      "payable": true,
      "stateMutability": "payable",
      "type": "fallback"
    },
    {
      "anonymous": false,
      "inputs": [
        {
          "indexed": false,
          "name": "_allowed",
          "type": "bool"
        }
      ],
      "name": "SetAllowBeneficialInvestments",
      "type": "event"
    },
    {
      "anonymous": false,
      "inputs": [
        {
          "indexed": false,
          "name": "_investor",
          "type": "address"
        },
        {
          "indexed": false,
          "name": "_limit",
          "type": "uint256"
        }
      ],
      "name": "SetNonAccreditedLimit",
      "type": "event"
    },
    {
      "anonymous": false,
      "inputs": [
        {
          "indexed": false,
          "name": "_investor",
          "type": "address"
        },
        {
          "indexed": false,
          "name": "_accredited",
          "type": "bool"
        }
      ],
      "name": "SetAccredited",
      "type": "event"
    },
    {
      "anonymous": false,
      "inputs": [
        {
          "indexed": true,
          "name": "_purchaser",
          "type": "address"
        },
        {
          "indexed": true,
          "name": "_beneficiary",
          "type": "address"
        },
        {
          "indexed": false,
          "name": "_tokens",
          "type": "uint256"
        },
        {
          "indexed": false,
          "name": "_usdAmount",
          "type": "uint256"
        },
        {
          "indexed": false,
          "name": "_tierPrice",
          "type": "uint256"
        },
        {
          "indexed": false,
          "name": "_tier",
          "type": "uint8"
        }
      ],
      "name": "TokenPurchase",
      "type": "event"
    },
    {
      "anonymous": false,
      "inputs": [
        {
          "indexed": true,
          "name": "_purchaser",
          "type": "address"
        },
        {
          "indexed": true,
          "name": "_beneficiary",
          "type": "address"
        },
        {
          "indexed": false,
          "name": "_usdAmount",
          "type": "uint256"
        },
        {
          "indexed": false,
          "name": "_fundRaiseType",
          "type": "uint8"
        },
        {
          "indexed": false,
          "name": "_receivedValue",
          "type": "uint256"
        },
        {
          "indexed": false,
          "name": "_spentValue",
          "type": "uint256"
        },
        {
          "indexed": false,
          "name": "_rate",
          "type": "uint256"
        }
      ],
      "name": "FundsReceived",
      "type": "event"
    },
    {
      "anonymous": false,
      "inputs": [
        {
          "indexed": true,
          "name": "_purchaser",
          "type": "address"
        },
        {
          "indexed": true,
          "name": "_beneficiary",
          "type": "address"
        },
        {
          "indexed": false,
          "name": "_usdAmount",
          "type": "uint256"
        },
        {
          "indexed": false,
          "name": "_receivedValue",
          "type": "uint256"
        },
        {
          "indexed": false,
          "name": "_spentValue",
          "type": "uint256"
        },
        {
          "indexed": false,
          "name": "_rate",
          "type": "uint256"
        }
      ],
      "name": "FundsReceivedPOLY",
      "type": "event"
    },
    {
      "anonymous": false,
      "inputs": [
        {
          "indexed": true,
          "name": "_owner",
          "type": "address"
        },
        {
          "indexed": true,
          "name": "_wallet",
          "type": "address"
        },
        {
          "indexed": false,
          "name": "_tokens",
          "type": "uint256"
        },
        {
          "indexed": false,
          "name": "_tier",
          "type": "uint8"
        }
      ],
      "name": "ReserveTokenMint",
      "type": "event"
    },
    {
      "anonymous": false,
      "inputs": [
        {
          "indexed": true,
          "name": "_wallet",
          "type": "address"
        },
        {
          "indexed": true,
          "name": "_reserveWallet",
          "type": "address"
        },
        {
          "indexed": true,
          "name": "_usdToken",
          "type": "address"
        }
      ],
      "name": "SetAddresses",
      "type": "event"
    },
    {
      "anonymous": false,
      "inputs": [
        {
          "indexed": false,
          "name": "_nonAccreditedLimitUSD",
          "type": "uint256"
        },
        {
          "indexed": false,
          "name": "_minimumInvestmentUSD",
          "type": "uint256"
        }
      ],
      "name": "SetLimits",
      "type": "event"
    },
    {
      "anonymous": false,
      "inputs": [
        {
          "indexed": false,
          "name": "_startTime",
          "type": "uint256"
        },
        {
          "indexed": false,
          "name": "_endTime",
          "type": "uint256"
        }
      ],
      "name": "SetTimes",
      "type": "event"
    },
    {
      "anonymous": false,
      "inputs": [
        {
          "indexed": false,
          "name": "_ratePerTier",
          "type": "uint256[]"
        },
        {
          "indexed": false,
          "name": "_ratePerTierDiscountPoly",
          "type": "uint256[]"
        },
        {
          "indexed": false,
          "name": "_tokensPerTierTotal",
          "type": "uint256[]"
        },
        {
          "indexed": false,
          "name": "_tokensPerTierDiscountPoly",
          "type": "uint256[]"
        }
      ],
      "name": "SetTiers",
      "type": "event"
    },
    {
      "anonymous": false,
      "inputs": [
        {
          "indexed": false,
          "name": "_fundRaiseTypes",
          "type": "uint8[]"
        }
      ],
      "name": "SetFundRaiseTypes",
      "type": "event"
    },
    {
      "anonymous": false,
      "inputs": [
        {
          "indexed": false,
          "name": "_timestammp",
          "type": "uint256"
        }
      ],
      "name": "Pause",
      "type": "event"
    },
    {
      "anonymous": false,
      "inputs": [
        {
          "indexed": false,
          "name": "_timestamp",
          "type": "uint256"
        }
      ],
      "name": "Unpause",
      "type": "event"
    },
    {
      "constant": false,
      "inputs": [
        {
          "name": "_startTime",
          "type": "uint256"
        },
        {
          "name": "_endTime",
          "type": "uint256"
        },
        {
          "name": "_ratePerTier",
          "type": "uint256[]"
        },
        {
          "name": "_ratePerTierDiscountPoly",
          "type": "uint256[]"
        },
        {
          "name": "_tokensPerTierTotal",
          "type": "uint256[]"
        },
        {
          "name": "_tokensPerTierDiscountPoly",
          "type": "uint256[]"
        },
        {
          "name": "_nonAccreditedLimitUSD",
          "type": "uint256"
        },
        {
          "name": "_minimumInvestmentUSD",
          "type": "uint256"
        },
        {
          "name": "_fundRaiseTypes",
          "type": "uint8[]"
        },
        {
          "name": "_wallet",
          "type": "address"
        },
        {
          "name": "_reserveWallet",
          "type": "address"
        },
        {
          "name": "_usdToken",
          "type": "address"
        }
      ],
      "name": "configure",
      "outputs": [],
      "payable": false,
      "stateMutability": "nonpayable",
      "type": "function"
    },
    {
      "constant": false,
      "inputs": [
        {
          "name": "_fundRaiseTypes",
          "type": "uint8[]"
        }
      ],
      "name": "modifyFunding",
      "outputs": [],
      "payable": false,
      "stateMutability": "nonpayable",
      "type": "function"
    },
    {
      "constant": false,
      "inputs": [
        {
          "name": "_nonAccreditedLimitUSD",
          "type": "uint256"
        },
        {
          "name": "_minimumInvestmentUSD",
          "type": "uint256"
        }
      ],
      "name": "modifyLimits",
      "outputs": [],
      "payable": false,
      "stateMutability": "nonpayable",
      "type": "function"
    },
    {
      "constant": false,
      "inputs": [
        {
          "name": "_ratePerTier",
          "type": "uint256[]"
        },
        {
          "name": "_ratePerTierDiscountPoly",
          "type": "uint256[]"
        },
        {
          "name": "_tokensPerTierTotal",
          "type": "uint256[]"
        },
        {
          "name": "_tokensPerTierDiscountPoly",
          "type": "uint256[]"
        }
      ],
      "name": "modifyTiers",
      "outputs": [],
      "payable": false,
      "stateMutability": "nonpayable",
      "type": "function"
    },
    {
      "constant": false,
      "inputs": [
        {
          "name": "_startTime",
          "type": "uint256"
        },
        {
          "name": "_endTime",
          "type": "uint256"
        }
      ],
      "name": "modifyTimes",
      "outputs": [],
      "payable": false,
      "stateMutability": "nonpayable",
      "type": "function"
    },
    {
      "constant": false,
      "inputs": [
        {
          "name": "_wallet",
          "type": "address"
        },
        {
          "name": "_reserveWallet",
          "type": "address"
        },
        {
          "name": "_usdToken",
          "type": "address"
        }
      ],
      "name": "modifyAddresses",
      "outputs": [],
      "payable": false,
      "stateMutability": "nonpayable",
      "type": "function"
    },
    {
      "constant": false,
      "inputs": [],
      "name": "finalize",
      "outputs": [],
      "payable": false,
      "stateMutability": "nonpayable",
      "type": "function"
    },
    {
      "constant": false,
      "inputs": [
        {
          "name": "_investors",
          "type": "address[]"
        },
        {
          "name": "_accredited",
          "type": "bool[]"
        }
      ],
      "name": "changeAccredited",
      "outputs": [],
      "payable": false,
      "stateMutability": "nonpayable",
      "type": "function"
    },
    {
      "constant": false,
      "inputs": [
        {
          "name": "_investors",
          "type": "address[]"
        },
        {
          "name": "_nonAccreditedLimit",
          "type": "uint256[]"
        }
      ],
      "name": "changeNonAccreditedLimit",
      "outputs": [],
      "payable": false,
      "stateMutability": "nonpayable",
      "type": "function"
    },
    {
      "constant": false,
      "inputs": [
        {
          "name": "_allowBeneficialInvestments",
          "type": "bool"
        }
      ],
      "name": "changeAllowBeneficialInvestments",
      "outputs": [],
      "payable": false,
      "stateMutability": "nonpayable",
      "type": "function"
    },
    {
      "constant": false,
      "inputs": [
        {
          "name": "_beneficiary",
          "type": "address"
        }
      ],
      "name": "buyWithETH",
      "outputs": [],
      "payable": true,
      "stateMutability": "payable",
      "type": "function"
    },
    {
      "constant": false,
      "inputs": [
        {
          "name": "_beneficiary",
          "type": "address"
        },
        {
          "name": "_investedPOLY",
          "type": "uint256"
        }
      ],
      "name": "buyWithPOLY",
      "outputs": [],
      "payable": false,
      "stateMutability": "nonpayable",
      "type": "function"
    },
    {
      "constant": false,
      "inputs": [
        {
          "name": "_beneficiary",
          "type": "address"
        },
        {
          "name": "_investedDAI",
          "type": "uint256"
        }
      ],
      "name": "buyWithUSD",
      "outputs": [],
      "payable": false,
      "stateMutability": "nonpayable",
      "type": "function"
    },
    {
      "constant": true,
      "inputs": [],
      "name": "isOpen",
      "outputs": [
        {
          "name": "",
          "type": "bool"
        }
      ],
      "payable": false,
      "stateMutability": "view",
      "type": "function"
    },
    {
      "constant": true,
      "inputs": [],
      "name": "capReached",
      "outputs": [
        {
          "name": "",
          "type": "bool"
        }
      ],
      "payable": false,
      "stateMutability": "view",
      "type": "function"
    },
    {
      "constant": true,
      "inputs": [
        {
          "name": "_fundRaiseType",
          "type": "uint8"
        }
      ],
      "name": "getRate",
      "outputs": [
        {
          "name": "",
          "type": "uint256"
        }
      ],
      "payable": false,
      "stateMutability": "view",
      "type": "function"
    },
    {
      "constant": true,
      "inputs": [
        {
          "name": "_fundRaiseType",
          "type": "uint8"
        },
        {
          "name": "_amount",
          "type": "uint256"
        }
      ],
      "name": "convertToUSD",
      "outputs": [
        {
          "name": "",
          "type": "uint256"
        }
      ],
      "payable": false,
      "stateMutability": "view",
      "type": "function"
    },
    {
      "constant": true,
      "inputs": [
        {
          "name": "_fundRaiseType",
          "type": "uint8"
        },
        {
          "name": "_amount",
          "type": "uint256"
        }
      ],
      "name": "convertFromUSD",
      "outputs": [
        {
          "name": "",
          "type": "uint256"
        }
      ],
      "payable": false,
      "stateMutability": "view",
      "type": "function"
    },
    {
      "constant": true,
      "inputs": [],
      "name": "getTokensSold",
      "outputs": [
        {
          "name": "",
          "type": "uint256"
        }
      ],
      "payable": false,
      "stateMutability": "view",
      "type": "function"
    },
    {
      "constant": true,
      "inputs": [],
      "name": "getTokensMinted",
      "outputs": [
        {
          "name": "",
          "type": "uint256"
        }
      ],
      "payable": false,
      "stateMutability": "view",
      "type": "function"
    },
    {
      "constant": true,
      "inputs": [
        {
          "name": "_fundRaiseType",
          "type": "uint8"
        }
      ],
      "name": "getTokensSoldFor",
      "outputs": [
        {
          "name": "",
          "type": "uint256"
        }
      ],
      "payable": false,
      "stateMutability": "view",
      "type": "function"
    },
    {
      "constant": true,
      "inputs": [],
      "name": "getNumberOfTiers",
      "outputs": [
        {
          "name": "",
          "type": "uint256"
        }
      ],
      "payable": false,
      "stateMutability": "view",
      "type": "function"
    },
    {
      "constant": true,
      "inputs": [],
      "name": "getPermissions",
      "outputs": [
        {
          "name": "",
          "type": "bytes32[]"
        }
      ],
      "payable": false,
      "stateMutability": "view",
      "type": "function"
    },
    {
      "constant": true,
      "inputs": [],
      "name": "getInitFunction",
      "outputs": [
        {
          "name": "",
          "type": "bytes4"
        }
      ],
      "payable": false,
      "stateMutability": "pure",
      "type": "function"
    }
  ],
  "bytecode": "0x6002805460a060020a60ff0219169055600b805460ff1916905560c0604052600d60808190527f506f6c795573644f7261636c650000000000000000000000000000000000000060a09081526200005a91600c9190620002d3565b5060408051808201909152600c8082527f4574685573644f7261636c6500000000000000000000000000000000000000006020909201918252620000a191600d91620002d3565b50600f805460a060020a60ff0219169055348015620000bf57600080fd5b5060405160608062004db18339810160409081528151602080840151929093015160018054600160a060020a03808516600160a060020a03199283161783556000805483163317815560028054928816929093169190911782557f555344000000000000000000000000000000000000000000000000000000000090527fd31548e11fd1d25b66b1be12e0983b20fe23dc8bde0873602017983a13152a10909552600d805493959293620001a4937f3c6917af81dcfbc8d0661a7b7f4a7647ca2c28a594f63a9e62a60f0a5ea8c73d9382161561010002600019019091160462000358565b507f55534400000000000000000000000000000000000000000000000000000000006000527f12f44f96e4768474247b978d99d369344c4b727b9839ae4f4cc0905a1d1a2eaf602052600c805462000231917f111a4207c1729dbd6c6850794194641c131f5ae661a7697967188ccce7b93dc8916002610100600183161502600019019091160462000358565b50600160a060020a0381161515620002aa57604080517f08c379a000000000000000000000000000000000000000000000000000000000815260206004820152601060248201527f496e2d76616c6964206164647265737300000000000000000000000000000000604482015290519081900360640190fd5b60008054600160a060020a031916600160a060020a039290921691909117905550620003f29050565b828054600181600116156101000203166002900490600052602060002090601f016020900481019282601f106200031657805160ff191683800117855562000346565b8280016001018555821562000346579182015b828111156200034657825182559160200191906001019062000329565b5062000354929150620003d2565b5090565b828054600181600116156101000203166002900490600052602060002090601f016020900481019282601f1062000393578054855562000346565b828001600101855582156200034657600052602060002091601f016020900482015b8281111562000346578254825591600101919060010190620003b5565b620003ef91905b80821115620003545760008155600101620003d9565b90565b6149af80620004026000396000f3006080604052600436106102dc5763ffffffff60e060020a600035041663033258ea81146102e75780631613ec9d146103115780631998af961461035b578063234c685e146103885780632df413e2146103a05780633197cbb6146103c95780633a3adf87146103de5780633a4fd45c146103f95780633e2769a11461040e5780633f4ba83a14610432578063441b9e4a14610447578063444aa92f1461046157806347535d7b146104755780634b385a421461048a5780634bb278f31461049f5780634f935945146104b4578063521ced30146104c9578063521eb273146104e15780635b66629d146105125780635c975abb146105365780635f7619a41461054b57806363b20117146105635780636c41027f146105785780636faa22a51461058d57806370465155146105a257806370dc8752146105ba57806378e97925146106ba5780637b06bc7c146106cf5780638320fc4e146106f05780638456cb591461077e578063877baeaa146107935780638784b1c2146107b15780638905fd4f146107d85780638be11260146107f95780638c9844cb146108115780638d4e40831461082f57806397a8feee146108445780639a7cc135146108ce578063a8955ed6146108e9578063b0ff041e146108fe578063b2cca39d14610a69578063b391844614610a7e578063b39f8ae414610a99578063b7ebae0b14610ab4578063b84dfbd214610acf578063bf11664814610ae4578063c3a07df614610b39578063c45a015514610b9e578063c4d2c6bd14610bb3578063c513933814610bce578063c6b5f57a14610bef578063d143a37914610c0d578063d679677a14610c28578063d69f6bae14610c53578063d70afa9614610c68578063d72b11bd14610c7d578063d7e64c0014610c92578063eaa32c4014610ca7578063ec47740f14610cc8578063ee7c0db014610cdd578063f897a22b14610cf2578063fbe8d9fe14610d07578063fbf69f9514610d95578063ff18ead314610dad575b6102e533610dc2565b005b3480156102f357600080fd5b506102ff60043561104c565b60408051918252519081900360200190f35b34801561031d57600080fd5b5061032661106b565b604080517fffffffff000000000000000000000000000000000000000000000000000000009092168252519081900360200190f35b34801561036757600080fd5b506102e5600160a060020a0360043581169060243581169060443516611090565b34801561039457600080fd5b506102ff60043561132c565b3480156103ac57600080fd5b506103b561133a565b604080519115158252519081900360200190f35b3480156103d557600080fd5b506102ff61134a565b3480156103ea57600080fd5b506102e5600435602435611350565b34801561040557600080fd5b506102ff611488565b34801561041a57600080fd5b506102e5600160a060020a036004351660243561148e565b34801561043e57600080fd5b506102e56114d8565b34801561045357600080fd5b506102e560043515156115ae565b6102e5600160a060020a0360043516610dc2565b34801561048157600080fd5b506103b5611751565b34801561049657600080fd5b506102ff6117a5565b3480156104ab57600080fd5b506102e56117ab565b3480156104c057600080fd5b506103b5611ad6565b3480156104d557600080fd5b506102ff600435611b2f565b3480156104ed57600080fd5b506104f6611b3d565b60408051600160a060020a039092168252519081900360200190f35b34801561051e57600080fd5b506102e5600160a060020a0360043516602435611b4c565b34801561054257600080fd5b506103b5611c26565b34801561055757600080fd5b506103b5600435611c36565b34801561056f57600080fd5b506102ff611f64565b34801561058457600080fd5b506102ff611f6a565b34801561059957600080fd5b506104f6611f70565b3480156105ae57600080fd5b506102ff600435611f7f565b3480156105c657600080fd5b50604080516020600480358082013583810280860185019096528085526102e595369593946024949385019291829185019084908082843750506040805187358901803560208181028481018201909552818452989b9a998901989297509082019550935083925085019084908082843750506040805187358901803560208181028481018201909552818452989b9a998901989297509082019550935083925085019084908082843750506040805187358901803560208181028481018201909552818452989b9a998901989297509082019550935083925085019084908082843750949750611f8d9650505050505050565b3480156106c657600080fd5b506102ff6125fd565b3480156106db57600080fd5b506103b5600160a060020a0360043516612603565b3480156106fc57600080fd5b50604080516020600480358082013583810280860185019096528085526102e595369593946024949385019291829185019084908082843750506040805187358901803560208181028481018201909552818452989b9a9989019892975090820195509350839250850190849080828437509497506126189650505050505050565b34801561078a57600080fd5b506102e56127d5565b34801561079f57600080fd5b506102ff60ff600435166024356128b7565b3480156107bd57600080fd5b506102ff600160a060020a036004351660ff602435166128d7565b3480156107e457600080fd5b506102e5600160a060020a03600435166128f4565b34801561080557600080fd5b506102ff600435612b0b565b34801561081d57600080fd5b506102ff60ff60043516602435612b19565b34801561083b57600080fd5b506103b5612b31565b34801561085057600080fd5b50610859612b3a565b6040805160208082528351818301528351919283929083019185019080838360005b8381101561089357818101518382015260200161087b565b50505050905090810190601f1680156108c05780820380516001836020036101000a031916815260200191505b509250505060405180910390f35b3480156108da57600080fd5b506102ff60ff60043516612bc8565b3480156108f557600080fd5b50610859612bf7565b34801561090a57600080fd5b5060408051602060046044358181013583810280860185019096528085526102e5958335956024803596369695606495939492019291829185019084908082843750506040805187358901803560208181028481018201909552818452989b9a998901989297509082019550935083925085019084908082843750506040805187358901803560208181028481018201909552818452989b9a998901989297509082019550935083925085019084908082843750506040805187358901803560208181028481018201909552818452989b9a9989019892975090820195509350839250850190849080828437505060408051818801358901803560208181028481018201909552818452989b8a359b8a8c01359b919a9099506060909101975092955090820193509182918501908490808284375094975050600160a060020a03853581169650602086013581169560400135169350612c5292505050565b348015610a7557600080fd5b506102ff612cf6565b348015610a8a57600080fd5b506102ff60ff60043516612cfc565b348015610aa557600080fd5b506102e5600435602435612d92565b348015610ac057600080fd5b506102ff60ff60043516612f3d565b348015610adb57600080fd5b506104f66130af565b348015610af057600080fd5b50604080516020600480358082013583810280860185019096528085526102e5953695939460249493850192918291850190849080828437509497506130be9650505050505050565b348015610b4557600080fd5b50610b4e6132db565b60408051602080825283518183015283519192839290830191858101910280838360005b83811015610b8a578181015183820152602001610b72565b505050509050019250505060405180910390f35b348015610baa57600080fd5b506104f66132f0565b348015610bbf57600080fd5b506102ff60ff600435166132ff565b348015610bda57600080fd5b506102ff600160a060020a0360043516613311565b348015610bfb57600080fd5b506102ff60ff60043516602435613323565b348015610c1957600080fd5b506103b560ff60043516613353565b348015610c3457600080fd5b50610c3d613368565b6040805160ff9092168252519081900360200190f35b348015610c5f57600080fd5b506102ff613371565b348015610c7457600080fd5b506102ff6133a8565b348015610c8957600080fd5b506104f66133cc565b348015610c9e57600080fd5b506102ff6133db565b348015610cb357600080fd5b506102ff600160a060020a03600435166133e1565b348015610cd457600080fd5b506102ff6133f3565b348015610ce957600080fd5b506102ff6133f9565b348015610cfe57600080fd5b506104f661341f565b348015610d1357600080fd5b50604080516020600480358082013583810280860185019096528085526102e595369593946024949385019291829185019084908082843750506040805187358901803560208181028481018201909552818452989b9a99890198929750908201955093508392508501908490808284375094975061342e9650505050505050565b348015610da157600080fd5b506102ff600435613640565b348015610db957600080fd5b506102ff61364e565b6000808080610dfa7f455448000000000000000000000000000000000000000000000000000000000060ea60020a621554d102613654565b600160a060020a03161415610e59576040805160e560020a62461bcd02815260206004820152601560248201527f496e76616c696420455448555344204f7261636c650000000000000000000000604482015290519081900360640190fd5b6000805260036020527f3617319a054d772f909f7c479a2cebe5066e836a939412e32403c99029b92eff5460ff161515610e9257600080fd5b610e9c6000612f3d565b9250610eab8434856000613801565b600160a060020a0386166000908152601c60205260408120929450909250610ef1918391805b60ff1681526020810191909152604001600020549063ffffffff613d5516565b600160a060020a0385166000908152601c60209081526040808320838052909152812091909155610f2790829060049080610ed1565b600080805260046020527f17ef568e3e12ab5b9c7254a8d58478811de00f9e6eb34345acd53bf8fd09d3ec91909155601054604051600160a060020a03909116916108fc841502918491818181858888f19350505050158015610f8e573d6000803e3d6000fd5b50336108fc610fa3348463ffffffff613d6216565b6040518115909202916000818181858888f19350505050158015610fcb573d6000803e3d6000fd5b5083600160a060020a031633600160a060020a03167fa5a66b45c30fa6510eb2c3ccbe3c500d21863c7cc3e37d2dc85bb28db7775bd18460003486896040518086815260200185600281111561101d57fe5b60ff1681526020018481526020018381526020018281526020019550505050505060405180910390a350505050565b601280548290811061105a57fe5b600091825260209091200154905081565b7fb0ff041e000000000000000000000000000000000000000000000000000000005b90565b600160009054906101000a9004600160a060020a0316600160a060020a0316638da5cb5b6040518163ffffffff1660e060020a028152600401602060405180830381600087803b1580156110e357600080fd5b505af11580156110f7573d6000803e3d6000fd5b505050506040513d602081101561110d57600080fd5b5051600160a060020a031633148061112f5750600054600160a060020a031633145b1515611173576040805160e560020a62461bcd02815260206004820152601e6024820152600080516020614944833981519152604482015290519081900360640190fd5b600554421061118157600080fd5b600160a060020a038316158015906111a15750600160a060020a03821615155b15156111f7576040805160e560020a62461bcd02815260206004820152601960248201527f30782061646472657373206973206e6f7420616c6c6f77656400000000000000604482015290519081900360640190fd5b600260005260036020527fc3a24b0501bd2c13a7e57f2db4369ec4c223447539fc0724a9d55ac4a06ebd4d5460ff16156112b157600160a060020a03811615156112b1576040805160e560020a62461bcd02815260206004820152602260248201527f307820757364546f6b656e2061646472657373206973206e6f7420616c6c6f7760448201527f6564000000000000000000000000000000000000000000000000000000000000606482015290519081900360840190fd5b6010805473ffffffffffffffffffffffffffffffffffffffff19908116600160a060020a03868116918217909355601180548316868516908117909155600f80549093169385169384179092556040517fbbfb274df95bebde0669697bf0d15986b4ad73e11c495ae4e2d08d1bc5c90bad90600090a4505050565b601880548290811061105a57fe5b600f5460a060020a900460ff1681565b60065481565b600160009054906101000a9004600160a060020a0316600160a060020a0316638da5cb5b6040518163ffffffff1660e060020a028152600401602060405180830381600087803b1580156113a357600080fd5b505af11580156113b7573d6000803e3d6000fd5b505050506040513d60208110156113cd57600080fd5b5051600160a060020a03163314806113ef5750600054600160a060020a031633145b1515611433576040805160e560020a62461bcd02815260206004820152601e6024820152600080516020614944833981519152604482015290519081900360640190fd5b600554421061144157600080fd5b6020818155601e8390556040805183815291820184905280517f6edefa108617056bef120162b4dc9ced4920b9a10f2dcc512c4c60fee6e7e6939281900390910190a15050565b60145490565b600260005260036020527fc3a24b0501bd2c13a7e57f2db4369ec4c223447539fc0724a9d55ac4a06ebd4d5460ff1615156114c857600080fd5b6114d482826002613d74565b5050565b600160009054906101000a9004600160a060020a0316600160a060020a0316638da5cb5b6040518163ffffffff1660e060020a028152600401602060405180830381600087803b15801561152b57600080fd5b505af115801561153f573d6000803e3d6000fd5b505050506040513d602081101561155557600080fd5b5051600160a060020a031633146115a4576040805160e560020a62461bcd0281526020600482015260136024820152600080516020614964833981519152604482015290519081900360640190fd5b6115ac614012565b565b600160009054906101000a9004600160a060020a0316600160a060020a0316638da5cb5b6040518163ffffffff1660e060020a028152600401602060405180830381600087803b15801561160157600080fd5b505af1158015611615573d6000803e3d6000fd5b505050506040513d602081101561162b57600080fd5b5051600160a060020a0316331461167a576040805160e560020a62461bcd0281526020600482015260136024820152600080516020614964833981519152604482015290519081900360640190fd5b600f5460a060020a900460ff16151581151514156116e2576040805160e560020a62461bcd02815260206004820152600f60248201527f56616c756520756e6368616e6765640000000000000000000000000000000000604482015290519081900360640190fd5b600f805482151560a060020a90810274ff0000000000000000000000000000000000000000199092169190911791829055604080519190920460ff161515815290517fea6eddcb8f2bf55dfb29aef4bd48214ef0798b9eae2e1bbb25dac99ecf6da6ae9181900360200190a150565b60215460009060ff16156117675750600061108d565b6005544210156117795750600061108d565b600654421061178a5750600061108d565b611792611ad6565b1561179f5750600061108d565b50600190565b601e5481565b600080600080600160009054906101000a9004600160a060020a0316600160a060020a0316638da5cb5b6040518163ffffffff1660e060020a028152600401602060405180830381600087803b15801561180457600080fd5b505af1158015611818573d6000803e3d6000fd5b505050506040513d602081101561182e57600080fd5b5051600160a060020a0316331461187d576040805160e560020a62461bcd0281526020600482015260136024820152600080516020614964833981519152604482015290519081900360640190fd5b60215460ff161561188d57600080fd5b506021805460ff1916600117905560005b60145460ff82161015611ac9576118f660168260ff168154811015156118c057fe5b906000526020600020015460148360ff168154811015156118dd57fe5b9060005260206000200154613d6290919063ffffffff16565b9150611908848363ffffffff613d5516565b935061193960168260ff1681548110151561191f57fe5b906000526020600020015484613d5590919063ffffffff16565b92506000821115611ac1576014805460ff831690811061195557fe5b906000526020600020015460168260ff1681548110151561197257fe5b6000918252602080832090910192909255600154601154604080517f40c10f19000000000000000000000000000000000000000000000000000000008152600160a060020a03928316600482015260248101889052905191909216936340c10f19936044808501949293928390030190829087803b1580156119f357600080fd5b505af1158015611a07573d6000803e3d6000fd5b505050506040513d6020811015611a1d57600080fd5b50511515611a75576040805160e560020a62461bcd02815260206004820152601060248201527f4572726f7220696e206d696e74696e6700000000000000000000000000000000604482015290519081900360640190fd5b6011546040805184815260ff841660208201528151600160a060020a039093169233927f3fe90b9084dca94f68309b6502066809bd1bc300808660a97214823388af5e4b928290030190a35b60010161189e565b5050602291909155600a55565b60215460009060ff1615611aee57506022541561108d565b601480546000198101908110611b0057fe5b600091825260209091200154601680546000198101908110611b1e57fe5b906000526020600020015414905090565b601580548290811061105a57fe5b601054600160a060020a031681565b6000611b817f504f4c590000000000000000000000000000000000000000000000000000000060ea60020a621554d102613654565b600160a060020a03161415611be0576040805160e560020a62461bcd02815260206004820152601660248201527f496e76616c696420504f4c59555344204f7261636c6500000000000000000000604482015290519081900360640190fd5b600160005260036020527fa15bc60c955c405d20d9149c709e2460f1c2d9a497496a7f46004d1772c3054c5460ff161515611c1a57600080fd5b6114d482826001613d74565b60025460a060020a900460ff1681565b60007f4645455f41444d494e0000000000000000000000000000000000000000000000600080600160009054906101000a9004600160a060020a0316600160a060020a0316638da5cb5b6040518163ffffffff1660e060020a028152600401602060405180830381600087803b158015611caf57600080fd5b505af1158015611cc3573d6000803e3d6000fd5b505050506040513d6020811015611cd957600080fd5b505160005433600160a060020a039283168114945091161490508180611cfc5750805b80611da25750600154604080517f8658b8b9000000000000000000000000000000000000000000000000000000008152336004820152306024820152604481018690529051600160a060020a0390921691638658b8b9916064808201926020929091908290030181600087803b158015611d7557600080fd5b505af1158015611d89573d6000803e3d6000fd5b505050506040513d6020811015611d9f57600080fd5b50515b1515611df8576040805160e560020a62461bcd02815260206004820152601760248201527f5065726d697373696f6e20636865636b206661696c6564000000000000000000604482015290519081900360640190fd5b600254600154600080546040805160e060020a638da5cb5b0281529051600160a060020a03958616956323b872dd95811694931692638da5cb5b92600480820193602093909283900390910190829087803b158015611e5657600080fd5b505af1158015611e6a573d6000803e3d6000fd5b505050506040513d6020811015611e8057600080fd5b50516040805160e060020a63ffffffff8616028152600160a060020a039384166004820152929091166024830152604482018990525160648083019260209291908290030181600087803b158015611ed757600080fd5b505af1158015611eeb573d6000803e3d6000fd5b505050506040513d6020811015611f0157600080fd5b50511515611f59576040805160e560020a62461bcd02815260206004820152601260248201527f556e61626c6520746f2074616b65206665650000000000000000000000000000604482015290519081900360640190fd5b506001949350505050565b600a5481565b60225481565b600254600160a060020a031681565b601380548290811061105a57fe5b6001546040805160e060020a638da5cb5b0281529051600092600160a060020a031691638da5cb5b91600480830192602092919082900301818787803b158015611fd657600080fd5b505af1158015611fea573d6000803e3d6000fd5b505050506040513d602081101561200057600080fd5b5051600160a060020a03163314806120225750600054600160a060020a031633145b1515612066576040805160e560020a62461bcd02815260206004820152601e6024820152600080516020614944833981519152604482015290519081900360640190fd5b600554421061207457600080fd5b825160001061208257600080fd5b8251855114612101576040805160e560020a62461bcd02815260206004820152602260248201527f4d69736d6174636820622f77207261746573202620746f6b656e73202f20746960448201527f6572000000000000000000000000000000000000000000000000000000000000606482015290519081900360840190fd5b8251845114612180576040805160e560020a62461bcd02815260206004820152602b60248201527f4d69736d6174636820622f7720646973636f756e74207261746573202620746f60448201527f6b656e73202f2074696572000000000000000000000000000000000000000000606482015290519081900360840190fd5b82518251146121ff576040805160e560020a62461bcd02815260206004820152603360248201527f4d69736d6174636820622f7720646973636f756e7420746f6b656e73202f207460448201527f696572202620746f6b656e73202f207469657200000000000000000000000000606482015290519081900360840190fd5b5060005b84518160ff16101561245f576000858260ff1681518110151561222257fe5b6020908102909101015111612281576040805160e560020a62461bcd02815260206004820152600860248201527f52617465203e2030000000000000000000000000000000000000000000000000604482015290519081900360640190fd5b6000838260ff1681518110151561229457fe5b60209081029091010151116122f3576040805160e560020a62461bcd02815260206004820152601360248201527f546f6b656e73207065722074696572203e203000000000000000000000000000604482015290519081900360640190fd5b828160ff1681518110151561230457fe5b90602001906020020151828260ff1681518110151561231f57fe5b6020908102909101015111156123a5576040805160e560020a62461bcd02815260206004820152602c60248201527f446973636f756e74656420746f6b656e73202f2074696572203c3d20746f207460448201527f6f6b656e73202f20746965720000000000000000000000000000000000000000606482015290519081900360840190fd5b848160ff168151811015156123b657fe5b90602001906020020151848260ff168151811015156123d157fe5b602090810290910101511115612457576040805160e560020a62461bcd02815260206004820152602560248201527f446973636f756e7465642072617465202f2074696572203c3d2072617465202f60448201527f2074696572000000000000000000000000000000000000000000000000000000606482015290519081900360840190fd5b600101612203565b84516124729060129060208801906148e8565b5083516124869060139060208701906148e8565b50825161249a9060149060208601906148e8565b5081516124ae9060159060208501906148e8565b507fbdbb624542b4a708b5fed87894a55c10945f2676a45a28f9da59597118247496858585856040518080602001806020018060200180602001858103855289818151815260200191508051906020019060200280838360005b83811015612520578181015183820152602001612508565b50505050905001858103845288818151815260200191508051906020019060200280838360005b8381101561255f578181015183820152602001612547565b50505050905001858103835287818151815260200191508051906020019060200280838360005b8381101561259e578181015183820152602001612586565b50505050905001858103825286818151815260200191508051906020019060200280838360005b838110156125dd5781810151838201526020016125c5565b505050509050019850505050505050505060405180910390a15050505050565b60055481565b601d6020526000908152604090205460ff1681565b6001546040805160e060020a638da5cb5b0281529051600092600160a060020a031691638da5cb5b91600480830192602092919082900301818787803b15801561266157600080fd5b505af1158015612675573d6000803e3d6000fd5b505050506040513d602081101561268b57600080fd5b5051600160a060020a031633146126da576040805160e560020a62461bcd0281526020600482015260136024820152600080516020614964833981519152604482015290519081900360640190fd5b81518351146126e857600080fd5b5060005b82518110156127d057818181518110151561270357fe5b90602001906020020151601d6000858481518110151561271f57fe5b602090810291909101810151600160a060020a03168252810191909152604001600020805460ff191691151591909117905582517f5bc4e4d4bde98d5a327e2a911b87c042b79ec57d32ddca3bf73e76cdc77de7eb9084908390811061278157fe5b90602001906020020151838381518110151561279957fe5b602090810290910181015160408051600160a060020a039094168452901515918301919091528051918290030190a16001016126ec565b505050565b600160009054906101000a9004600160a060020a0316600160a060020a0316638da5cb5b6040518163ffffffff1660e060020a028152600401602060405180830381600087803b15801561282857600080fd5b505af115801561283c573d6000803e3d6000fd5b505050506040513d602081101561285257600080fd5b5051600160a060020a031633146128a1576040805160e560020a62461bcd0281526020600482015260136024820152600080516020614964833981519152604482015290519081900360640190fd5b60065442106128af57600080fd5b6115ac6140c8565b6000806128c384612f3d565b90506128cf8382614183565b949350505050565b601c60209081526000928352604080842090915290825290205481565b600080600160009054906101000a9004600160a060020a0316600160a060020a0316638da5cb5b6040518163ffffffff1660e060020a028152600401602060405180830381600087803b15801561294a57600080fd5b505af115801561295e573d6000803e3d6000fd5b505050506040513d602081101561297457600080fd5b5051600160a060020a031633146129c3576040805160e560020a62461bcd0281526020600482015260136024820152600080516020614964833981519152604482015290519081900360640190fd5b600160a060020a03831615156129d857600080fd5b604080517f70a082310000000000000000000000000000000000000000000000000000000081523060048201529051849350600160a060020a038416916370a082319160248083019260209291908290030181600087803b158015612a3c57600080fd5b505af1158015612a50573d6000803e3d6000fd5b505050506040513d6020811015612a6657600080fd5b5051604080517fa9059cbb000000000000000000000000000000000000000000000000000000008152336004820152602481018390529051919250600160a060020a0384169163a9059cbb916044808201926020929091908290030181600087803b158015612ad457600080fd5b505af1158015612ae8573d6000803e3d6000fd5b505050506040513d6020811015612afe57600080fd5b505115156127d057600080fd5b601680548290811061105a57fe5b600080612b2584612f3d565b90506128cf83826141ba565b60215460ff1681565b600d805460408051602060026001851615610100026000190190941693909304601f81018490048402820184019092528181529291830182828015612bc05780601f10612b9557610100808354040283529160200191612bc0565b820191906000526020600020905b815481529060010190602001808311612ba357829003601f168201915b505050505081565b600060046000836002811115612bda57fe5b60ff1660ff1681526020019081526020016000205490505b919050565b600c805460408051602060026001851615610100026000190190941693909304601f81018490048402820184019092528181529291830182828015612bc05780601f10612b9557610100808354040283529160200191612bc0565b600054600160a060020a03163314612cb4576040805160e560020a62461bcd02815260206004820152601560248201527f53656e646572206973206e6f7420666163746f72790000000000000000000000604482015290519081900360640190fd5b612cbe8c8c612d92565b612cca8a8a8a8a611f8d565b612cd3846130be565b612cde838383611090565b612ce88686611350565b505050505050505050505050565b60075481565b600080805b60176000856002811115612d1157fe5b60ff90811682526020820192909252604001600020549082161015612d8b57612d8160176000866002811115612d4357fe5b60ff1660ff1681526020019081526020016000208260ff16815481101515612d6757fe5b906000526020600020015483613d5590919063ffffffff16565b9150600101612d01565b5092915050565b600160009054906101000a9004600160a060020a0316600160a060020a0316638da5cb5b6040518163ffffffff1660e060020a028152600401602060405180830381600087803b158015612de557600080fd5b505af1158015612df9573d6000803e3d6000fd5b505050506040513d6020811015612e0f57600080fd5b5051600160a060020a0316331480612e315750600054600160a060020a031633145b1515612e75576040805160e560020a62461bcd02815260206004820152601e6024820152600080516020614944833981519152604482015290519081900360640190fd5b6005541580612e85575060055442105b1515612e9057600080fd5b8181118015612e9e57504282115b1515612ef4576040805160e560020a62461bcd02815260206004820152600d60248201527f496e76616c69642074696d657300000000000000000000000000000000000000604482015290519081900360640190fd5b60058290556006819055604080518381526020810183905281517f2eae0d0a99cbf5ab05babf7ee1f4bdf6e9bb99ffdca04682fa54f6682d5d80fe929181900390910190a15050565b600080826002811115612f4c57fe5b1415612ff557612f857f455448000000000000000000000000000000000000000000000000000000000060ea60020a621554d102613654565b600160a060020a03166398d5fdca6040518163ffffffff1660e060020a028152600401602060405180830381600087803b158015612fc257600080fd5b505af1158015612fd6573d6000803e3d6000fd5b505050506040513d6020811015612fec57600080fd5b50519050612bf2565b600182600281111561300357fe5b141561303c57612f857f504f4c590000000000000000000000000000000000000000000000000000000060ea60020a621554d102613654565b600282600281111561304a57fe5b141561305f5750670de0b6b3a7640000612bf2565b6040805160e560020a62461bcd02815260206004820152601160248201527f496e636f72726563742066756e64696e67000000000000000000000000000000604482015290519081900360640190fd5b600154600160a060020a031681565b600080600160009054906101000a9004600160a060020a0316600160a060020a0316638da5cb5b6040518163ffffffff1660e060020a028152600401602060405180830381600087803b15801561311457600080fd5b505af1158015613128573d6000803e3d6000fd5b505050506040513d602081101561313e57600080fd5b5051600160a060020a03163314806131605750600054600160a060020a031633145b15156131a4576040805160e560020a62461bcd02815260206004820152601e6024820152600080516020614944833981519152604482015290519081900360640190fd5b60055442106131b257600080fd5b6131bb836141db565b6131c3611488565b9150816040519080825280602002602001820160405280156131ef578160200160208202803883390190505b508051613204916016916020909101906148e8565b508160405190808252806020026020018201604052801561322f578160200160208202803883390190505b508051613244916018916020909101906148e8565b50600090505b82518160ff1610156127d05781604051908082528060200260200182016040528015613280578160200160208202803883390190505b5060176000858460ff1681518110151561329657fe5b9060200190602002015160028111156132ab57fe5b60ff1660ff16815260200190815260200160002090805190602001906132d29291906148e8565b5060010161324a565b604080516000815260208101909152805b5090565b600054600160a060020a031681565b60046020526000908152604090205481565b601b6020526000908152604090205481565b60176020528160005260406000208181548110151561333e57fe5b90600052602060002001600091509150505481565b60036020526000908152604090205460ff1681565b60195460ff1681565b600080805b60165460ff821610156133a25761339860168260ff16815481101515612d6757fe5b9150600101613376565b50919050565b7f4645455f41444d494e000000000000000000000000000000000000000000000081565b601154600160a060020a031681565b60085481565b601f6020526000908152604090205481565b60205481565b60215460009060ff16156134105750600a5461108d565b613418613371565b905061108d565b600f54600160a060020a031681565b6001546040805160e060020a638da5cb5b0281529051600092600160a060020a031691638da5cb5b91600480830192602092919082900301818787803b15801561347757600080fd5b505af115801561348b573d6000803e3d6000fd5b505050506040513d60208110156134a157600080fd5b5051600160a060020a031633146134f0576040805160e560020a62461bcd0281526020600482015260136024820152600080516020614964833981519152604482015290519081900360640190fd5b81518351146134fe57600080fd5b5060005b82518110156127d0576000828281518110151561351b57fe5b602090810290910101511161357a576040805160e560020a62461bcd02815260206004820152601060248201527f4c696d69742063616e2774206265203000000000000000000000000000000000604482015290519081900360640190fd5b818181518110151561358857fe5b90602001906020020151601f600085848151811015156135a457fe5b6020908102909101810151600160a060020a031682528101919091526040016000205582517fcde9ad1085e6403dc0f4aec5ed3e0e505e5cd00bc639943be2601cfedc6ce80f908490839081106135f757fe5b90602001906020020151838381518110151561360f57fe5b602090810290910181015160408051600160a060020a039094168452918301528051918290030190a1600101613502565b601480548290811061105a57fe5b601a5481565b600154604080517f77282b700000000000000000000000000000000000000000000000000000000081529051600092600160a060020a0316916377282b7091600480830192602092919082900301818787803b1580156136b357600080fd5b505af11580156136c7573d6000803e3d6000fd5b505050506040513d60208110156136dd57600080fd5b50516000848152600e6020908152604080832086845282529182902091517fbf40fac10000000000000000000000000000000000000000000000000000000081526004810191825282546002610100600183161502600019019091160460248201819052600160a060020a039094169363bf40fac19392918291604490910190849080156137ac5780601f10613781576101008083540402835291602001916137ac565b820191906000526020600020905b81548152906001019060200180831161378f57829003601f168201915b505092505050602060405180830381600087803b1580156137cc57600080fd5b505af11580156137e0573d6000803e3d6000fd5b505050506040513d60208110156137f657600080fd5b505190505b92915050565b600b54600090819081908190819081908190819060ff161561382257600080fd5b600b805460ff1916600117905560025460a060020a900460ff1615613891576040805160e560020a62461bcd02815260206004820152601260248201527f436f6e7472616374206973207061757365640000000000000000000000000000604482015290519081900360640190fd5b600f5460a060020a900460ff16151561390457600160a060020a038c163314613904576040805160e560020a62461bcd02815260206004820152601d60248201527f42656e6566696369617279206d757374206d617463682066756e646572000000604482015290519081900360640190fd5b61390c611751565b1515613962576040805160e560020a62461bcd02815260206004820152600f60248201527f53544f206973206e6f74206f70656e0000000000000000000000000000000000604482015290519081900360640190fd5b60008b116139ba576040805160e560020a62461bcd02815260206004820152601260248201527f4e6f2066756e647320776572652073656e740000000000000000000000000000604482015290519081900360640190fd5b6139c48a8c614183565b60208054600160a060020a038f166000908152601b909252604090912054919750879650906139fa90879063ffffffff613d5516565b1015613a76576040805160e560020a62461bcd02815260206004820152602760248201527f546f74616c20696e766573746d656e74203c206d696e696d756d496e7665737460448201527f6d656e7455534400000000000000000000000000000000000000000000000000606482015290519081900360840190fd5b600160a060020a038c166000908152601d602052604090205460ff161515613bcf57600160a060020a038c166000908152601f602052604090205415613ad457600160a060020a038c166000908152601f6020526040902054613ad8565b601e545b600160a060020a038d166000908152601b60205260409020549094508411613b70576040805160e560020a62461bcd02815260206004820152602960248201527f4e6f6e2d6163637265646974656420696e766573746f7220686173207265616360448201527f686564206c696d69740000000000000000000000000000000000000000000000606482015290519081900360840190fd5b600160a060020a038c166000908152601b60205260409020548490613b9c90889063ffffffff613d5516565b1115613bcf57600160a060020a038c166000908152601b6020526040902054613bcc90859063ffffffff613d6216565b95505b60195460ff1691505b60125460ff83161015613c895760195460ff838116911614613c04576019805460ff191660ff84161790555b6014805460ff8416908110613c1557fe5b906000526020600020015460168360ff16815481101515613c3257fe5b90600052602060002001541015613c7157613c6e613c618d84613c5b8a8863ffffffff613d6216565b8d61439c565b849063ffffffff613d5516565b92505b82861415613c7e57613c89565b600190910190613bd8565b6000831115613d1457600160a060020a038c166000908152601b60205260409020541515613cbb576008805460010190555b600160a060020a038c166000908152601b6020526040902054613ce4908463ffffffff613d5516565b600160a060020a038d166000908152601b6020526040902055601a54613d10908463ffffffff613d5516565b601a555b821515613d2357506000613d39565b613d36613d3084876141ba565b8c614183565b90505b600b805460ff19169055919b919a509098505050505050505050565b818101828110156137fb57fe5b600082821115613d6e57fe5b50900390565b60008080806001856002811115613d8757fe5b1480613d9e57506002856002811115613d9c57fe5b145b1515613df4576040805160e560020a62461bcd02815260206004820152601460248201527f504f4c5920262044414920737570706f72746564000000000000000000000000604482015290519081900360640190fd5b613dfd85612f3d565b9350613e0b87878688613801565b600160a060020a0389166000908152601c60205260408120929550909350613e3b918491886002811115610ed157fe5b600160a060020a0388166000908152601c6020526040812090876002811115613e6057fe5b60ff1660ff16815260200190815260200160002081905550613e8c8260046000886002811115610ed157fe5b60046000876002811115613e9c57fe5b60ff1681526020810191909152604001600020556001856002811115613ebe57fe5b14613ed457600f54600160a060020a0316613ee1565b600254600160a060020a03165b601054604080517f23b872dd000000000000000000000000000000000000000000000000000000008152336004820152600160a060020a039283166024820152604481018690529051929350908316916323b872dd916064808201926020929091908290030181600087803b158015613f5957600080fd5b505af1158015613f6d573d6000803e3d6000fd5b505050506040513d6020811015613f8357600080fd5b50511515613f9057600080fd5b86600160a060020a031633600160a060020a03167fa5a66b45c30fa6510eb2c3ccbe3c500d21863c7cc3e37d2dc85bb28db7775bd185888a878a60405180868152602001856002811115613fe057fe5b60ff1681526020018481526020018381526020018281526020019550505050505060405180910390a350505050505050565b60025460a060020a900460ff161515614075576040805160e560020a62461bcd02815260206004820152601660248201527f436f6e7472616374206973206e6f742070617573656400000000000000000000604482015290519081900360640190fd5b6002805474ff0000000000000000000000000000000000000000191690556040805142815290517faaa520fdd7d2c83061d632fa017b0432407e798818af63ea908589fceda39ab79181900360200190a1565b60025460a060020a900460ff161561412a576040805160e560020a62461bcd02815260206004820152601260248201527f436f6e7472616374206973207061757365640000000000000000000000000000604482015290519081900360640190fd5b6002805474ff0000000000000000000000000000000000000000191660a060020a1790556040805142815290517f68b095021b1f40fe513109f513c66692f0b3219aee674a69f4efc57badb8201d9181900360200190a1565b6000670de0b6b3a76400006141a961419b8585614728565b6706f05b59d3b20000613d55565b8115156141b257fe5b049392505050565b6000816141a96141d285670de0b6b3a7640000614728565b60028504613d55565b6000808251111515614237576040805160e560020a62461bcd02815260206004820152601860248201527f52616973652074797065206e6f74207370656369666965640000000000000000604482015290519081900360640190fd5b5060036020527f3617319a054d772f909f7c479a2cebe5066e836a939412e32403c99029b92eff805460ff199081169091557fa15bc60c955c405d20d9149c709e2460f1c2d9a497496a7f46004d1772c3054c805482169055600260009081527fc3a24b0501bd2c13a7e57f2db4369ec4c223447539fc0724a9d55ac4a06ebd4d80549092169091555b81518160ff16101561432357600160036000848460ff168151811015156142e457fe5b9060200190602002015160028111156142f957fe5b60ff1681526020810191909152604001600020805460ff19169115159190911790556001016142c1565b7fe5724f42dd9f217c97b3768212ed6d6692c0135e252387d61b98af28fecd9b02826040518080602001828103825283818151815260200191508051906020019060200280838360005b8381101561438557818101518382015260200161436d565b505050509050019250505060405180910390a15050565b600080808085818060018860028111156143b257fe5b1480156143f557506018805460ff8c169081106143cb57fe5b906000526020600020015460158b60ff168154811015156143e857fe5b9060005260206000200154115b156145d85761442c60188b60ff1681548110151561440f57fe5b906000526020600020015460158c60ff168154811015156118dd57fe5b915061446060168b60ff1681548110151561444357fe5b906000526020600020015460148c60ff168154811015156118dd57fe5b90508181101561449d576144938b60138c60ff1681548110151561448057fe5b906000526020600020015483868e614751565b90965093506144cc565b6144c68b60138c60ff168154811015156144b357fe5b906000526020600020015484868e614751565b90965093505b6144dc838763ffffffff613d6216565b925061450d8460188c60ff168154811015156144f457fe5b9060005260206000200154613d5590919063ffffffff16565b6018805460ff8d1690811061451e57fe5b600091825260208220019190915561455c90859060179060015b60ff1660ff1681526020019081526020016000208c60ff168154811015156144f457fe5b600160005260176020527ff36d6bc9642eb6fb6ee9998b09ce990566df752ab06e11f8de7ab633bbd57b8f805460ff8d1690811061459657fe5b90600052602060002001819055506145ba8460168c60ff168154811015156144f457fe5b6016805460ff8d169081106145cb57fe5b6000918252602090912001555b6000831180156146195750600061461760168c60ff168154811015156145fa57fe5b906000526020600020015460148d60ff168154811015156118dd57fe5b115b15614719576146788b60128c60ff1681548110151561463457fe5b906000526020600020015461467160168e60ff1681548110151561465457fe5b906000526020600020015460148f60ff168154811015156118dd57fe5b868e614751565b909550935061468d868663ffffffff613d5516565b95506146a384601760008b600281111561453857fe5b601760008a60028111156146b357fe5b60ff1660ff1681526020019081526020016000208b60ff168154811015156146d757fe5b90600052602060002001819055506146fb8460168c60ff168154811015156144f457fe5b6016805460ff8d1690811061470c57fe5b6000918252602090912001555b50939998505050505050505050565b6000821515614739575060006137fb565b5081810281838281151561474957fe5b04146137fb57fe5b6000806000806000614763878a6141ba565b92508783111561478c57614777888a614183565b915086821115614785578691505b5086614792565b50859050815b600154604080517f40c10f19000000000000000000000000000000000000000000000000000000008152600160a060020a038d8116600483015260248201859052915191909216916340c10f199160448083019260209291908290030181600087803b15801561480157600080fd5b505af1158015614815573d6000803e3d6000fd5b505050506040513d602081101561482b57600080fd5b50511515614883576040805160e560020a62461bcd02815260206004820152601060248201527f4572726f7220696e206d696e74696e6700000000000000000000000000000000604482015290519081900360640190fd5b60408051828152602081018490528082018b905260ff881660608201529051600160a060020a038c169133917f4ca2c8a2cd727df794a09c03500fc3eabcb8a8d7c481e70bdccf06bb7975a5bc9181900360800190a390999098509650505050505050565b828054828255906000526020600020908101928215614923579160200282015b82811115614923578251825591602001919060010190614908565b506132ec9261108d9250905b808211156132ec576000815560010161492f560053656e646572206973206e6f7420666163746f7279206f72206f776e6572000053656e646572206973206e6f74206f776e657200000000000000000000000000a165627a7a72305820c394bc9822ba47ea9ccd6256f778a079c6448b88fa573a54e5fd901e4487b9680029",
  "source": "pragma solidity ^0.4.24;\n\nimport \"./ISTO.sol\";\nimport \"../../interfaces/ISecurityToken.sol\";\nimport \"../../interfaces/IOracle.sol\";\nimport \"../../RegistryUpdater.sol\";\nimport \"../../libraries/DecimalMath.sol\";\nimport \"openzeppelin-solidity/contracts/math/SafeMath.sol\";\nimport \"openzeppelin-solidity/contracts/ReentrancyGuard.sol\";\n\n/**\n * @title STO module for standard capped crowdsale\n */\ncontract USDTieredSTO is ISTO, ReentrancyGuard {\n    using SafeMath for uint256;\n\n    /////////////\n    // Storage //\n    /////////////\n\n    string public POLY_ORACLE = \"PolyUsdOracle\";\n    string public ETH_ORACLE = \"EthUsdOracle\";\n    mapping (bytes32 => mapping (bytes32 => string)) oracleKeys;\n\n    IERC20 public usdToken;\n\n    // Determine whether users can invest on behalf of a beneficiary\n    bool public allowBeneficialInvestments = false;\n\n    // Address where ETH, POLY & DAI funds are delivered\n    address public wallet;\n\n    // Address of issuer reserve wallet for unsold tokens\n    address public reserveWallet;\n\n    // How many token units a buyer gets per USD per tier (multiplied by 10**18)\n    uint256[] public ratePerTier;\n\n    // How many token units a buyer gets per USD per tier (multiplied by 10**18) when investing in POLY up to tokensPerTierDiscountPoly\n    uint256[] public ratePerTierDiscountPoly;\n\n    // How many tokens are available in each tier (relative to totalSupply)\n    uint256[] public tokensPerTierTotal;\n\n    // How many token units are available in each tier (relative to totalSupply) at the ratePerTierDiscountPoly rate\n    uint256[] public tokensPerTierDiscountPoly;\n\n    // How many tokens have been minted in each tier (relative to totalSupply)\n    uint256[] public mintedPerTierTotal;\n\n    // How many tokens have been minted in each tier (relative to totalSupply) for each fund raise type\n    mapping (uint8 => uint256[]) public mintedPerTier;\n\n    // How many tokens have been minted in each tier (relative to totalSupply) at discounted POLY rate\n    uint256[] public mintedPerTierDiscountPoly;\n\n    // Current tier\n    uint8 public currentTier;\n\n    // Amount of USD funds raised\n    uint256 public fundsRaisedUSD;\n\n    // Amount in USD invested by each address\n    mapping (address => uint256) public investorInvestedUSD;\n\n    // Amount in fund raise type invested by each investor\n    mapping (address => mapping (uint8 => uint256)) public investorInvested;\n\n    // List of accredited investors\n    mapping (address => bool) public accredited;\n\n    // Default limit in USD for non-accredited investors multiplied by 10**18\n    uint256 public nonAccreditedLimitUSD;\n\n    // Overrides for default limit in USD for non-accredited investors multiplied by 10**18\n    mapping (address => uint256) public nonAccreditedLimitUSDOverride;\n\n    // Minimum investable amount in USD\n    uint256 public minimumInvestmentUSD;\n\n    // Whether or not the STO has been finalized\n    bool public isFinalized;\n\n    // Final amount of tokens returned to issuer\n    uint256 public finalAmountReturned;\n\n    ////////////\n    // Events //\n    ////////////\n\n    event SetAllowBeneficialInvestments(bool _allowed);\n    event SetNonAccreditedLimit(address _investor, uint256 _limit);\n    event SetAccredited(address _investor, bool _accredited);\n    event TokenPurchase(address indexed _purchaser, address indexed _beneficiary, uint256 _tokens, uint256 _usdAmount, uint256 _tierPrice, uint8 _tier);\n    event FundsReceived(address indexed _purchaser, address indexed _beneficiary, uint256 _usdAmount, FundRaiseType _fundRaiseType, uint256 _receivedValue, uint256 _spentValue, uint256 _rate);\n    event FundsReceivedPOLY(address indexed _purchaser, address indexed _beneficiary, uint256 _usdAmount, uint256 _receivedValue, uint256 _spentValue, uint256 _rate);\n    event ReserveTokenMint(address indexed _owner, address indexed _wallet, uint256 _tokens, uint8 _tier);\n\n    event SetAddresses(\n        address indexed _wallet,\n        address indexed _reserveWallet,\n        address indexed _usdToken\n    );\n    event SetLimits(\n        uint256 _nonAccreditedLimitUSD,\n        uint256 _minimumInvestmentUSD\n    );\n    event SetTimes(\n        uint256 _startTime,\n        uint256 _endTime\n    );\n    event SetTiers(\n        uint256[] _ratePerTier,\n        uint256[] _ratePerTierDiscountPoly,\n        uint256[] _tokensPerTierTotal,\n        uint256[] _tokensPerTierDiscountPoly\n    );\n\n    ///////////////\n    // Modifiers //\n    ///////////////\n\n    modifier validETH {\n        require(_getOracle(bytes32(\"ETH\"), bytes32(\"USD\")) != address(0), \"Invalid ETHUSD Oracle\");\n        require(fundRaiseTypes[uint8(FundRaiseType.ETH)]);\n        _;\n    }\n\n    modifier validPOLY {\n        require(_getOracle(bytes32(\"POLY\"), bytes32(\"USD\")) != address(0), \"Invalid POLYUSD Oracle\");\n        require(fundRaiseTypes[uint8(FundRaiseType.POLY)]);\n        _;\n    }\n\n    modifier validDAI {\n        require(fundRaiseTypes[uint8(FundRaiseType.DAI)]);\n        _;\n    }\n\n    ///////////////////////\n    // STO Configuration //\n    ///////////////////////\n\n    constructor (address _securityToken, address _polyAddress, address _factory) public Module(_securityToken, _polyAddress) {\n        oracleKeys[bytes32(\"ETH\")][bytes32(\"USD\")] = ETH_ORACLE;\n        oracleKeys[bytes32(\"POLY\")][bytes32(\"USD\")] = POLY_ORACLE;\n        require(_factory != address(0), \"In-valid address\");\n        factory = _factory;\n    }\n\n    /**\n     * @notice Function used to intialize the contract variables\n     * @param _startTime Unix timestamp at which offering get started\n     * @param _endTime Unix timestamp at which offering get ended\n     * @param _ratePerTier Rate (in USD) per tier (* 10**18)\n     * @param _tokensPerTierTotal Tokens available in each tier\n     * @param _nonAccreditedLimitUSD Limit in USD (* 10**18) for non-accredited investors\n     * @param _minimumInvestmentUSD Minimun investment in USD (* 10**18)\n     * @param _fundRaiseTypes Types of currency used to collect the funds\n     * @param _wallet Ethereum account address to hold the funds\n     * @param _reserveWallet Ethereum account address to receive unsold tokens\n     * @param _usdToken Contract address of the stable coin\n     */\n    function configure(\n        uint256 _startTime,\n        uint256 _endTime,\n        uint256[] _ratePerTier,\n        uint256[] _ratePerTierDiscountPoly,\n        uint256[] _tokensPerTierTotal,\n        uint256[] _tokensPerTierDiscountPoly,\n        uint256 _nonAccreditedLimitUSD,\n        uint256 _minimumInvestmentUSD,\n        FundRaiseType[] _fundRaiseTypes,\n        address _wallet,\n        address _reserveWallet,\n        address _usdToken\n    ) public onlyFactory {\n        modifyTimes(_startTime, _endTime);\n        // NB - modifyTiers must come before modifyFunding\n        modifyTiers(_ratePerTier, _ratePerTierDiscountPoly, _tokensPerTierTotal, _tokensPerTierDiscountPoly);\n        // NB - modifyFunding must come before modifyAddresses\n        modifyFunding(_fundRaiseTypes);\n        modifyAddresses(_wallet, _reserveWallet, _usdToken);\n        modifyLimits(_nonAccreditedLimitUSD, _minimumInvestmentUSD);\n    }\n\n    function modifyFunding(FundRaiseType[] _fundRaiseTypes) public onlyFactoryOrOwner {\n        require(now < startTime);\n        _setFundRaiseType(_fundRaiseTypes);\n        uint256 length = getNumberOfTiers();\n        mintedPerTierTotal = new uint256[](length);\n        mintedPerTierDiscountPoly = new uint256[](length);\n        for (uint8 i = 0; i < _fundRaiseTypes.length; i++) {\n            mintedPerTier[uint8(_fundRaiseTypes[i])] = new uint256[](length);\n        }\n    }\n\n    function modifyLimits(\n        uint256 _nonAccreditedLimitUSD,\n        uint256 _minimumInvestmentUSD\n    ) public onlyFactoryOrOwner {\n        require(now < startTime);\n        minimumInvestmentUSD = _minimumInvestmentUSD;\n        nonAccreditedLimitUSD = _nonAccreditedLimitUSD;\n        emit SetLimits(minimumInvestmentUSD, nonAccreditedLimitUSD);\n    }\n\n    function modifyTiers(\n        uint256[] _ratePerTier,\n        uint256[] _ratePerTierDiscountPoly,\n        uint256[] _tokensPerTierTotal,\n        uint256[] _tokensPerTierDiscountPoly\n    ) public onlyFactoryOrOwner {\n        require(now < startTime);\n        require(_tokensPerTierTotal.length > 0);\n        require(_ratePerTier.length == _tokensPerTierTotal.length, \"Mismatch b/w rates & tokens / tier\");\n        require(_ratePerTierDiscountPoly.length == _tokensPerTierTotal.length, \"Mismatch b/w discount rates & tokens / tier\");\n        require(_tokensPerTierDiscountPoly.length == _tokensPerTierTotal.length, \"Mismatch b/w discount tokens / tier & tokens / tier\");\n        for (uint8 i = 0; i < _ratePerTier.length; i++) {\n            require(_ratePerTier[i] > 0, \"Rate > 0\");\n            require(_tokensPerTierTotal[i] > 0, \"Tokens per tier > 0\");\n            require(_tokensPerTierDiscountPoly[i] <= _tokensPerTierTotal[i], \"Discounted tokens / tier <= to tokens / tier\");\n            require(_ratePerTierDiscountPoly[i] <= _ratePerTier[i], \"Discounted rate / tier <= rate / tier\");\n        }\n        ratePerTier = _ratePerTier;\n        ratePerTierDiscountPoly = _ratePerTierDiscountPoly;\n        tokensPerTierTotal = _tokensPerTierTotal;\n        tokensPerTierDiscountPoly = _tokensPerTierDiscountPoly;\n        emit SetTiers(_ratePerTier, _ratePerTierDiscountPoly, _tokensPerTierTotal, _tokensPerTierDiscountPoly);\n    }\n\n    function modifyTimes(\n        uint256 _startTime,\n        uint256 _endTime\n    ) public onlyFactoryOrOwner {\n        require((startTime == 0) || (now < startTime));\n        require((_endTime > _startTime) && (_startTime > now), \"Invalid times\");\n        startTime = _startTime;\n        endTime = _endTime;\n        emit SetTimes(_startTime, _endTime);\n    }\n\n    function modifyAddresses(\n        address _wallet,\n        address _reserveWallet,\n        address _usdToken\n    ) public onlyFactoryOrOwner {\n        require(now < startTime);\n        require(_wallet != address(0) && _reserveWallet != address(0), \"0x address is not allowed\");\n        if (fundRaiseTypes[uint8(FundRaiseType.DAI)]) {\n            require(_usdToken != address(0), \"0x usdToken address is not allowed\");\n        }\n        wallet = _wallet;\n        reserveWallet = _reserveWallet;\n        usdToken = IERC20(_usdToken);\n        emit SetAddresses(_wallet, _reserveWallet, _usdToken);\n    }\n\n    ////////////////////\n    // STO Management //\n    ////////////////////\n\n    /**\n     * @notice Finalize the STO and mint remaining tokens to reserve address\n     * @notice Reserve address must be whitelisted to successfully finalize\n     */\n    function finalize() public onlyOwner {\n        require(!isFinalized);\n        isFinalized = true;\n        uint256 tempReturned;\n        uint256 tempSold;\n        uint256 remainingTokens;\n        for (uint8 i = 0; i < tokensPerTierTotal.length; i++) {\n            remainingTokens = tokensPerTierTotal[i].sub(mintedPerTierTotal[i]);\n            tempReturned = tempReturned.add(remainingTokens);\n            tempSold = tempSold.add(mintedPerTierTotal[i]);\n            if (remainingTokens > 0) {\n                mintedPerTierTotal[i] = tokensPerTierTotal[i];\n                require(ISecurityToken(securityToken).mint(reserveWallet, remainingTokens), \"Error in minting\");\n                emit ReserveTokenMint(msg.sender, reserveWallet, remainingTokens, i);\n            }\n        }\n        finalAmountReturned = tempReturned;\n        totalTokensSold = tempSold;\n    }\n\n    /**\n     * @notice Modify the list of accredited addresses\n     * @param _investors Array of investor addresses to modify\n     * @param _accredited Array of bools specifying accreditation status\n     */\n    function changeAccredited(address[] _investors, bool[] _accredited) public onlyOwner {\n        require(_investors.length == _accredited.length);\n        for (uint256 i = 0; i < _investors.length; i++) {\n            accredited[_investors[i]] = _accredited[i];\n            emit SetAccredited(_investors[i], _accredited[i]);\n        }\n    }\n\n    /**\n     * @notice Modify the list of overrides for non-accredited limits in USD\n     * @param _investors Array of investor addresses to modify\n     * @param _nonAccreditedLimit Array of uints specifying non-accredited limits\n     */\n    function changeNonAccreditedLimit(address[] _investors, uint256[] _nonAccreditedLimit) public onlyOwner {\n        //nonAccreditedLimitUSDOverride\n        require(_investors.length == _nonAccreditedLimit.length);\n        for (uint256 i = 0; i < _investors.length; i++) {\n            require(_nonAccreditedLimit[i] > 0, \"Limit can't be 0\");\n            nonAccreditedLimitUSDOverride[_investors[i]] = _nonAccreditedLimit[i];\n            emit SetNonAccreditedLimit(_investors[i], _nonAccreditedLimit[i]);\n        }\n    }\n\n    /**\n     * @notice Function to set allowBeneficialInvestments (allow beneficiary to be different to funder)\n     * @param _allowBeneficialInvestments Boolean to allow or disallow beneficial investments\n     */\n    function changeAllowBeneficialInvestments(bool _allowBeneficialInvestments) public onlyOwner {\n        require(_allowBeneficialInvestments != allowBeneficialInvestments, \"Value unchanged\");\n        allowBeneficialInvestments = _allowBeneficialInvestments;\n        emit SetAllowBeneficialInvestments(allowBeneficialInvestments);\n    }\n\n    //////////////////////////\n    // Investment Functions //\n    //////////////////////////\n\n    /**\n    * @notice fallback function - assumes ETH being invested\n    */\n    function () external payable {\n        buyWithETH(msg.sender);\n    }\n\n    /**\n      * @notice Purchase tokens using ETH\n      * @param _beneficiary Address where security tokens will be sent\n      */\n    function buyWithETH(address _beneficiary) public payable validETH {\n        uint256 rate = getRate(FundRaiseType.ETH);\n        (uint256 spentUSD, uint256 spentValue) = _buyTokens(_beneficiary, msg.value, rate, FundRaiseType.ETH);\n        // Modify storage\n        investorInvested[_beneficiary][uint8(FundRaiseType.ETH)] = investorInvested[_beneficiary][uint8(FundRaiseType.ETH)].add(spentValue);\n        fundsRaised[uint8(FundRaiseType.ETH)] = fundsRaised[uint8(FundRaiseType.ETH)].add(spentValue);\n        // Forward ETH to issuer wallet\n        wallet.transfer(spentValue);\n        // Refund excess ETH to investor wallet\n        msg.sender.transfer(msg.value.sub(spentValue));\n        emit FundsReceived(msg.sender, _beneficiary, spentUSD, FundRaiseType.ETH, msg.value, spentValue, rate);\n    }\n\n    /**\n      * @notice Purchase tokens using POLY\n      * @param _beneficiary Address where security tokens will be sent\n      * @param _investedPOLY Amount of POLY invested\n      */\n    function buyWithPOLY(address _beneficiary, uint256 _investedPOLY) public validPOLY {\n        _buyWithTokens(_beneficiary, _investedPOLY, FundRaiseType.POLY);\n    }\n\n    /**\n      * @notice Purchase tokens using POLY\n      * @param _beneficiary Address where security tokens will be sent\n      * @param _investedDAI Amount of POLY invested\n      */\n    function buyWithUSD(address _beneficiary, uint256 _investedDAI) public validDAI {\n        _buyWithTokens(_beneficiary, _investedDAI, FundRaiseType.DAI);\n    }\n\n    function _buyWithTokens(address _beneficiary, uint256 _tokenAmount, FundRaiseType _fundRaiseType) internal {\n        require(_fundRaiseType == FundRaiseType.POLY || _fundRaiseType == FundRaiseType.DAI, \"POLY & DAI supported\");\n        uint256 rate = getRate(_fundRaiseType);\n        (uint256 spentUSD, uint256 spentValue) = _buyTokens(_beneficiary, _tokenAmount, rate, _fundRaiseType);\n        // Modify storage\n        investorInvested[_beneficiary][uint8(_fundRaiseType)] = investorInvested[_beneficiary][uint8(_fundRaiseType)].add(spentValue);\n        fundsRaised[uint8(_fundRaiseType)] = fundsRaised[uint8(_fundRaiseType)].add(spentValue);\n        // Forward DAI to issuer wallet\n        IERC20 token = _fundRaiseType == FundRaiseType.POLY ? polyToken : usdToken;\n        require(token.transferFrom(msg.sender, wallet, spentValue));\n        emit FundsReceived(msg.sender, _beneficiary, spentUSD, _fundRaiseType, _tokenAmount, spentValue, rate);\n    }\n\n    /**\n      * @notice Low level token purchase\n      * @param _beneficiary Address where security tokens will be sent\n      * @param _investmentValue Amount of POLY, ETH or DAI invested\n      * @param _fundRaiseType Fund raise type (POLY, ETH, DAI)\n      */\n    function _buyTokens(address _beneficiary, uint256 _investmentValue, uint256 _rate, FundRaiseType _fundRaiseType) internal nonReentrant whenNotPaused returns(uint256, uint256) {\n        if (!allowBeneficialInvestments) {\n            require(_beneficiary == msg.sender, \"Beneficiary must match funder\");\n        }\n\n        require(isOpen(), \"STO is not open\");\n        require(_investmentValue > 0, \"No funds were sent\");\n\n        uint256 investedUSD = DecimalMath.mul(_rate, _investmentValue);\n        uint256 originalUSD = investedUSD;\n\n        // Check for minimum investment\n        require(investedUSD.add(investorInvestedUSD[_beneficiary]) >= minimumInvestmentUSD, \"Total investment < minimumInvestmentUSD\");\n\n        // Check for non-accredited cap\n        if (!accredited[_beneficiary]) {\n            uint256 investorLimitUSD = (nonAccreditedLimitUSDOverride[_beneficiary] == 0) ? nonAccreditedLimitUSD : nonAccreditedLimitUSDOverride[_beneficiary];\n            require(investorInvestedUSD[_beneficiary] < investorLimitUSD, \"Non-accredited investor has reached limit\");\n            if (investedUSD.add(investorInvestedUSD[_beneficiary]) > investorLimitUSD)\n                investedUSD = investorLimitUSD.sub(investorInvestedUSD[_beneficiary]);\n        }\n        uint256 spentUSD;\n        // Iterate over each tier and process payment\n        for (uint8 i = currentTier; i < ratePerTier.length; i++) {\n            // Update current tier if needed\n            if (currentTier != i)\n                currentTier = i;\n            // If there are tokens remaining, process investment\n            if (mintedPerTierTotal[i] < tokensPerTierTotal[i])\n                spentUSD = spentUSD.add(_calculateTier(_beneficiary, i, investedUSD.sub(spentUSD), _fundRaiseType));\n            // If all funds have been spent, exit the loop\n            if (investedUSD == spentUSD)\n                break;\n        }\n\n        // Modify storage\n        if (spentUSD > 0) {\n            if (investorInvestedUSD[_beneficiary] == 0)\n                investorCount = investorCount + 1;\n            investorInvestedUSD[_beneficiary] = investorInvestedUSD[_beneficiary].add(spentUSD);\n            fundsRaisedUSD = fundsRaisedUSD.add(spentUSD);\n        }\n\n        // Calculate spent in base currency (ETH, DAI or POLY)\n        uint256 spentValue;\n        if (spentUSD == 0) {\n            spentValue = 0;\n        } else {\n            spentValue = DecimalMath.mul(DecimalMath.div(spentUSD, originalUSD), _investmentValue);\n        }\n\n        // Return calculated amounts\n        return (spentUSD, spentValue);\n    }\n\n    function _calculateTier(address _beneficiary, uint8 _tier, uint256 _investedUSD, FundRaiseType _fundRaiseType) internal returns(uint256) {\n        // First purchase any discounted tokens if POLY investment\n        uint256 spentUSD;\n        uint256 tierSpentUSD;\n        uint256 tierPurchasedTokens;\n        uint256 investedUSD = _investedUSD;\n        // Check whether there are any remaining discounted tokens\n        if ((_fundRaiseType == FundRaiseType.POLY) && (tokensPerTierDiscountPoly[_tier] > mintedPerTierDiscountPoly[_tier])) {\n            uint256 discountRemaining = tokensPerTierDiscountPoly[_tier].sub(mintedPerTierDiscountPoly[_tier]);\n            uint256 totalRemaining = tokensPerTierTotal[_tier].sub(mintedPerTierTotal[_tier]);\n            if (totalRemaining < discountRemaining)\n                (spentUSD, tierPurchasedTokens) = _purchaseTier(_beneficiary, ratePerTierDiscountPoly[_tier], totalRemaining, investedUSD, _tier);\n            else\n                (spentUSD, tierPurchasedTokens) = _purchaseTier(_beneficiary, ratePerTierDiscountPoly[_tier], discountRemaining, investedUSD, _tier);\n            investedUSD = investedUSD.sub(spentUSD);\n            mintedPerTierDiscountPoly[_tier] = mintedPerTierDiscountPoly[_tier].add(tierPurchasedTokens);\n            mintedPerTier[uint8(FundRaiseType.POLY)][_tier] = mintedPerTier[uint8(FundRaiseType.POLY)][_tier].add(tierPurchasedTokens);\n            mintedPerTierTotal[_tier] = mintedPerTierTotal[_tier].add(tierPurchasedTokens);\n        }\n        // Now, if there is any remaining USD to be invested, purchase at non-discounted rate\n        if ((investedUSD > 0) && (tokensPerTierTotal[_tier].sub(mintedPerTierTotal[_tier]) > 0)) {\n            (tierSpentUSD, tierPurchasedTokens) = _purchaseTier(_beneficiary, ratePerTier[_tier], tokensPerTierTotal[_tier].sub(mintedPerTierTotal[_tier]), investedUSD, _tier);\n            spentUSD = spentUSD.add(tierSpentUSD);\n            mintedPerTier[uint8(_fundRaiseType)][_tier] = mintedPerTier[uint8(_fundRaiseType)][_tier].add(tierPurchasedTokens);\n            mintedPerTierTotal[_tier] = mintedPerTierTotal[_tier].add(tierPurchasedTokens);\n        }\n        return spentUSD;\n    }\n\n    function _purchaseTier(address _beneficiary, uint256 _tierPrice, uint256 _tierRemaining, uint256 _investedUSD, uint8 _tier) internal returns(uint256, uint256) {\n        uint256 maximumTokens = DecimalMath.div(_investedUSD, _tierPrice);\n        uint256 spentUSD;\n        uint256 purchasedTokens;\n        if (maximumTokens > _tierRemaining) {\n            spentUSD = DecimalMath.mul(_tierRemaining, _tierPrice);\n            // In case of rounding issues, ensure that spentUSD is never more than investedUSD\n            if (spentUSD > _investedUSD) {\n                spentUSD = _investedUSD;\n            }\n            purchasedTokens = _tierRemaining;\n        } else {\n            spentUSD = _investedUSD;\n            purchasedTokens = maximumTokens;\n        }\n        require(ISecurityToken(securityToken).mint(_beneficiary, purchasedTokens), \"Error in minting\");\n        emit TokenPurchase(msg.sender, _beneficiary, purchasedTokens, spentUSD, _tierPrice, _tier);\n        return (spentUSD, purchasedTokens);\n    }\n\n    /////////////\n    // Getters //\n    /////////////\n\n    /**\n     * @notice This function returns whether or not the STO is in fundraising mode (open)\n     * @return bool Whether the STO is accepting investments\n     */\n    function isOpen() public view returns(bool) {\n        if (isFinalized)\n            return false;\n        if (now < startTime)\n            return false;\n        if (now >= endTime)\n            return false;\n        if (capReached())\n            return false;\n        return true;\n    }\n\n    /**\n     * @notice Checks whether the cap has been reached.\n     * @return bool Whether the cap was reached\n     */\n    function capReached() public view returns (bool) {\n        if (isFinalized) {\n            return (finalAmountReturned == 0);\n        }\n        return (mintedPerTierTotal[mintedPerTierTotal.length - 1] == tokensPerTierTotal[tokensPerTierTotal.length - 1]);\n    }\n\n    function getRate(FundRaiseType _fundRaiseType) public view returns (uint256) {\n        if (_fundRaiseType == FundRaiseType.ETH) {\n            return IOracle(_getOracle(bytes32(\"ETH\"), bytes32(\"USD\"))).getPrice();\n        } else if (_fundRaiseType == FundRaiseType.POLY) {\n            return IOracle(_getOracle(bytes32(\"POLY\"), bytes32(\"USD\"))).getPrice();\n        } else if (_fundRaiseType == FundRaiseType.DAI) {\n            return 1 * 10**18;\n        } else {\n            revert(\"Incorrect funding\");\n        }\n    }\n\n    /**\n     * @notice This function converts from ETH or POLY to USD\n     * @param _fundRaiseType Currency key\n     * @param _amount Value to convert to USD\n     * @return uint256 Value in USD\n     */\n    function convertToUSD(FundRaiseType _fundRaiseType, uint256 _amount) public view returns(uint256) {\n        uint256 rate = getRate(_fundRaiseType);\n        return DecimalMath.mul(_amount, rate);\n    }\n\n    /**\n     * @notice This function converts from USD to ETH or POLY\n     * @param _fundRaiseType Currency key\n     * @param _amount Value to convert from USD\n     * @return uint256 Value in ETH or POLY\n     */\n    function convertFromUSD(FundRaiseType _fundRaiseType, uint256 _amount) public view returns(uint256) {\n        uint256 rate = getRate(_fundRaiseType);\n        return DecimalMath.div(_amount, rate);\n    }\n\n    /**\n     * @notice Return the total no. of tokens sold\n     * @return uint256 Total number of tokens sold\n     */\n    function getTokensSold() public view returns (uint256) {\n        if (isFinalized)\n            return totalTokensSold;\n        else\n            return getTokensMinted();\n    }\n\n    /**\n     * @notice Return the total no. of tokens minted\n     * @return uint256 Total number of tokens minted\n     */\n    function getTokensMinted() public view returns (uint256) {\n        uint256 tokensMinted;\n        for (uint8 i = 0; i < mintedPerTierTotal.length; i++) {\n            tokensMinted = tokensMinted.add(mintedPerTierTotal[i]);\n        }\n        return tokensMinted;\n    }\n\n    /**\n     * @notice Return the total no. of tokens sold for ETH\n     * @return uint256 Total number of tokens sold for ETH\n     */\n    function getTokensSoldFor(FundRaiseType _fundRaiseType) public view returns (uint256) {\n        uint256 tokensSold;\n        for (uint8 i = 0; i < mintedPerTier[uint8(_fundRaiseType)].length; i++) {\n            tokensSold = tokensSold.add(mintedPerTier[uint8(_fundRaiseType)][i]);\n        }\n        return tokensSold;\n    }\n\n    /**\n     * @notice Return the total no. of tiers\n     * @return uint256 Total number of tiers\n     */\n    function getNumberOfTiers() public view returns (uint256) {\n        return tokensPerTierTotal.length;\n    }\n\n    /**\n     * @notice Return the permissions flag that are associated with STO\n     */\n    function getPermissions() public view returns(bytes32[]) {\n        bytes32[] memory allPermissions = new bytes32[](0);\n        return allPermissions;\n    }\n\n    /**\n     * @notice This function returns the signature of configure function\n     * @return bytes4 Configure function signature\n     */\n    function getInitFunction() public pure returns (bytes4) {\n        return 0xb0ff041e;\n    }\n\n    function _getOracle(bytes32 _currency, bytes32 _denominatedCurrency) internal view returns (address) {\n        return PolymathRegistry(RegistryUpdater(securityToken).polymathRegistry()).getAddress(oracleKeys[_currency][_denominatedCurrency]);\n    }\n\n}\n",
  "sourcePath": "/Users/jere/Code/polymath-apps/packages/polymath-shared/scripts/generateLocalBlockchain/contracts/modules/STO/USDTieredSTO.sol",
  "compiler": {
    "name": "solc",
    "version": "0.4.24+commit.e67f0147.Emscripten.clang"
  },
  "schemaVersion": "2.0.1",
  "updatedAt": "2018-10-23T18:29:22.809Z"
}