{
  "contractName": "USDTieredSTO",
  "abi": [
    {
      "constant": true,
      "inputs": [
        {
          "name": "",
          "type": "uint256"
        }
      ],
      "name": "ratePerTier",
      "outputs": [
        {
          "name": "",
          "type": "uint256"
        }
      ],
      "payable": false,
      "stateMutability": "view",
      "type": "function"
    },
    {
      "constant": true,
      "inputs": [
        {
          "name": "",
          "type": "uint256"
        }
      ],
      "name": "mintedPerTierDiscountPoly",
      "outputs": [
        {
          "name": "",
          "type": "uint256"
        }
      ],
      "payable": false,
      "stateMutability": "view",
      "type": "function"
    },
    {
      "constant": true,
      "inputs": [],
      "name": "allowBeneficialInvestments",
      "outputs": [
        {
          "name": "",
          "type": "bool"
        }
      ],
      "payable": false,
      "stateMutability": "view",
      "type": "function"
    },
    {
      "constant": true,
      "inputs": [],
      "name": "endTime",
      "outputs": [
        {
          "name": "",
          "type": "uint256"
        }
      ],
      "payable": false,
      "stateMutability": "view",
      "type": "function"
    },
    {
      "constant": false,
      "inputs": [],
      "name": "unpause",
      "outputs": [],
      "payable": false,
      "stateMutability": "nonpayable",
      "type": "function"
    },
    {
      "constant": true,
      "inputs": [],
      "name": "nonAccreditedLimitUSD",
      "outputs": [
        {
          "name": "",
          "type": "uint256"
        }
      ],
      "payable": false,
      "stateMutability": "view",
      "type": "function"
    },
    {
      "constant": true,
      "inputs": [
        {
          "name": "",
          "type": "uint256"
        }
      ],
      "name": "tokensPerTierDiscountPoly",
      "outputs": [
        {
          "name": "",
          "type": "uint256"
        }
      ],
      "payable": false,
      "stateMutability": "view",
      "type": "function"
    },
    {
      "constant": true,
      "inputs": [],
      "name": "wallet",
      "outputs": [
        {
          "name": "",
          "type": "address"
        }
      ],
      "payable": false,
      "stateMutability": "view",
      "type": "function"
    },
    {
      "constant": true,
      "inputs": [],
      "name": "paused",
      "outputs": [
        {
          "name": "",
          "type": "bool"
        }
      ],
      "payable": false,
      "stateMutability": "view",
      "type": "function"
    },
    {
      "constant": false,
      "inputs": [
        {
          "name": "_amount",
          "type": "uint256"
        }
      ],
      "name": "takeFee",
      "outputs": [
        {
          "name": "",
          "type": "bool"
        }
      ],
      "payable": false,
      "stateMutability": "nonpayable",
      "type": "function"
    },
    {
      "constant": true,
      "inputs": [],
      "name": "totalTokensSold",
      "outputs": [
        {
          "name": "",
          "type": "uint256"
        }
      ],
      "payable": false,
      "stateMutability": "view",
      "type": "function"
    },
    {
      "constant": true,
      "inputs": [],
      "name": "finalAmountReturned",
      "outputs": [
        {
          "name": "",
          "type": "uint256"
        }
      ],
      "payable": false,
      "stateMutability": "view",
      "type": "function"
    },
    {
      "constant": true,
      "inputs": [],
      "name": "polyToken",
      "outputs": [
        {
          "name": "",
          "type": "address"
        }
      ],
      "payable": false,
      "stateMutability": "view",
      "type": "function"
    },
    {
      "constant": true,
      "inputs": [
        {
          "name": "",
          "type": "uint256"
        }
      ],
      "name": "ratePerTierDiscountPoly",
      "outputs": [
        {
          "name": "",
          "type": "uint256"
        }
      ],
      "payable": false,
      "stateMutability": "view",
      "type": "function"
    },
    {
      "constant": true,
      "inputs": [],
      "name": "startTime",
      "outputs": [
        {
          "name": "",
          "type": "uint256"
        }
      ],
      "payable": false,
      "stateMutability": "view",
      "type": "function"
    },
    {
      "constant": true,
      "inputs": [
        {
          "name": "",
          "type": "address"
        }
      ],
      "name": "accredited",
      "outputs": [
        {
          "name": "",
          "type": "bool"
        }
      ],
      "payable": false,
      "stateMutability": "view",
      "type": "function"
    },
    {
      "constant": false,
      "inputs": [],
      "name": "pause",
      "outputs": [],
      "payable": false,
      "stateMutability": "nonpayable",
      "type": "function"
    },
    {
      "constant": true,
      "inputs": [
        {
          "name": "",
          "type": "address"
        },
        {
          "name": "",
          "type": "uint8"
        }
      ],
      "name": "investorInvested",
      "outputs": [
        {
          "name": "",
          "type": "uint256"
        }
      ],
      "payable": false,
      "stateMutability": "view",
      "type": "function"
    },
    {
      "constant": false,
      "inputs": [
        {
          "name": "_tokenContract",
          "type": "address"
        }
      ],
      "name": "reclaimERC20",
      "outputs": [],
      "payable": false,
      "stateMutability": "nonpayable",
      "type": "function"
    },
    {
      "constant": true,
      "inputs": [
        {
          "name": "",
          "type": "uint256"
        }
      ],
      "name": "mintedPerTierTotal",
      "outputs": [
        {
          "name": "",
          "type": "uint256"
        }
      ],
      "payable": false,
      "stateMutability": "view",
      "type": "function"
    },
    {
      "constant": true,
      "inputs": [],
      "name": "isFinalized",
      "outputs": [
        {
          "name": "",
          "type": "bool"
        }
      ],
      "payable": false,
      "stateMutability": "view",
      "type": "function"
    },
    {
      "constant": true,
      "inputs": [],
      "name": "ETH_ORACLE",
      "outputs": [
        {
          "name": "",
          "type": "string"
        }
      ],
      "payable": false,
      "stateMutability": "view",
      "type": "function"
    },
    {
      "constant": true,
      "inputs": [
        {
          "name": "_fundRaiseType",
          "type": "uint8"
        }
      ],
      "name": "getRaised",
      "outputs": [
        {
          "name": "",
          "type": "uint256"
        }
      ],
      "payable": false,
      "stateMutability": "view",
      "type": "function"
    },
    {
      "constant": true,
      "inputs": [],
      "name": "POLY_ORACLE",
      "outputs": [
        {
          "name": "",
          "type": "string"
        }
      ],
      "payable": false,
      "stateMutability": "view",
      "type": "function"
    },
    {
      "constant": true,
      "inputs": [],
      "name": "pausedTime",
      "outputs": [
        {
          "name": "",
          "type": "uint256"
        }
      ],
      "payable": false,
      "stateMutability": "view",
      "type": "function"
    },
    {
      "constant": true,
      "inputs": [],
      "name": "securityToken",
      "outputs": [
        {
          "name": "",
          "type": "address"
        }
      ],
      "payable": false,
      "stateMutability": "view",
      "type": "function"
    },
    {
      "constant": true,
      "inputs": [],
      "name": "factory",
      "outputs": [
        {
          "name": "",
          "type": "address"
        }
      ],
      "payable": false,
      "stateMutability": "view",
      "type": "function"
    },
    {
      "constant": true,
      "inputs": [
        {
          "name": "",
          "type": "uint8"
        }
      ],
      "name": "fundsRaised",
      "outputs": [
        {
          "name": "",
          "type": "uint256"
        }
      ],
      "payable": false,
      "stateMutability": "view",
      "type": "function"
    },
    {
      "constant": true,
      "inputs": [
        {
          "name": "",
          "type": "address"
        }
      ],
      "name": "investorInvestedUSD",
      "outputs": [
        {
          "name": "",
          "type": "uint256"
        }
      ],
      "payable": false,
      "stateMutability": "view",
      "type": "function"
    },
    {
      "constant": true,
      "inputs": [
        {
          "name": "",
          "type": "uint8"
        },
        {
          "name": "",
          "type": "uint256"
        }
      ],
      "name": "mintedPerTier",
      "outputs": [
        {
          "name": "",
          "type": "uint256"
        }
      ],
      "payable": false,
      "stateMutability": "view",
      "type": "function"
    },
    {
      "constant": true,
      "inputs": [
        {
          "name": "",
          "type": "uint8"
        }
      ],
      "name": "fundRaiseTypes",
      "outputs": [
        {
          "name": "",
          "type": "bool"
        }
      ],
      "payable": false,
      "stateMutability": "view",
      "type": "function"
    },
    {
      "constant": true,
      "inputs": [],
      "name": "currentTier",
      "outputs": [
        {
          "name": "",
          "type": "uint8"
        }
      ],
      "payable": false,
      "stateMutability": "view",
      "type": "function"
    },
    {
      "constant": true,
      "inputs": [],
      "name": "FEE_ADMIN",
      "outputs": [
        {
          "name": "",
          "type": "bytes32"
        }
      ],
      "payable": false,
      "stateMutability": "view",
      "type": "function"
    },
    {
      "constant": true,
      "inputs": [],
      "name": "reserveWallet",
      "outputs": [
        {
          "name": "",
          "type": "address"
        }
      ],
      "payable": false,
      "stateMutability": "view",
      "type": "function"
    },
    {
      "constant": true,
      "inputs": [],
      "name": "investorCount",
      "outputs": [
        {
          "name": "",
          "type": "uint256"
        }
      ],
      "payable": false,
      "stateMutability": "view",
      "type": "function"
    },
    {
      "constant": true,
      "inputs": [
        {
          "name": "",
          "type": "address"
        }
      ],
      "name": "nonAccreditedLimitUSDOverride",
      "outputs": [
        {
          "name": "",
          "type": "uint256"
        }
      ],
      "payable": false,
      "stateMutability": "view",
      "type": "function"
    },
    {
      "constant": true,
      "inputs": [],
      "name": "minimumInvestmentUSD",
      "outputs": [
        {
          "name": "",
          "type": "uint256"
        }
      ],
      "payable": false,
      "stateMutability": "view",
      "type": "function"
    },
    {
      "constant": true,
      "inputs": [],
      "name": "usdToken",
      "outputs": [
        {
          "name": "",
          "type": "address"
        }
      ],
      "payable": false,
      "stateMutability": "view",
      "type": "function"
    },
    {
      "constant": true,
      "inputs": [
        {
          "name": "",
          "type": "uint256"
        }
      ],
      "name": "tokensPerTierTotal",
      "outputs": [
        {
          "name": "",
          "type": "uint256"
        }
      ],
      "payable": false,
      "stateMutability": "view",
      "type": "function"
    },
    {
      "constant": true,
      "inputs": [],
      "name": "fundsRaisedUSD",
      "outputs": [
        {
          "name": "",
          "type": "uint256"
        }
      ],
      "payable": false,
      "stateMutability": "view",
      "type": "function"
    },
    {
      "inputs": [
        {
          "name": "_securityToken",
          "type": "address"
        },
        {
          "name": "_polyAddress",
          "type": "address"
        },
        {
          "name": "_factory",
          "type": "address"
        }
      ],
      "payable": false,
      "stateMutability": "nonpayable",
      "type": "constructor"
    },
    {
      "payable": true,
      "stateMutability": "payable",
      "type": "fallback"
    },
    {
      "anonymous": false,
      "inputs": [
        {
          "indexed": false,
          "name": "_allowed",
          "type": "bool"
        }
      ],
      "name": "SetAllowBeneficialInvestments",
      "type": "event"
    },
    {
      "anonymous": false,
      "inputs": [
        {
          "indexed": false,
          "name": "_investor",
          "type": "address"
        },
        {
          "indexed": false,
          "name": "_limit",
          "type": "uint256"
        }
      ],
      "name": "SetNonAccreditedLimit",
      "type": "event"
    },
    {
      "anonymous": false,
      "inputs": [
        {
          "indexed": false,
          "name": "_investor",
          "type": "address"
        },
        {
          "indexed": false,
          "name": "_accredited",
          "type": "bool"
        }
      ],
      "name": "SetAccredited",
      "type": "event"
    },
    {
      "anonymous": false,
      "inputs": [
        {
          "indexed": true,
          "name": "_purchaser",
          "type": "address"
        },
        {
          "indexed": true,
          "name": "_beneficiary",
          "type": "address"
        },
        {
          "indexed": false,
          "name": "_tokens",
          "type": "uint256"
        },
        {
          "indexed": false,
          "name": "_usdAmount",
          "type": "uint256"
        },
        {
          "indexed": false,
          "name": "_tierPrice",
          "type": "uint256"
        },
        {
          "indexed": false,
          "name": "_tier",
          "type": "uint8"
        }
      ],
      "name": "TokenPurchase",
      "type": "event"
    },
    {
      "anonymous": false,
      "inputs": [
        {
          "indexed": true,
          "name": "_purchaser",
          "type": "address"
        },
        {
          "indexed": true,
          "name": "_beneficiary",
          "type": "address"
        },
        {
          "indexed": false,
          "name": "_usdAmount",
          "type": "uint256"
        },
        {
          "indexed": false,
          "name": "_fundRaiseType",
          "type": "uint8"
        },
        {
          "indexed": false,
          "name": "_receivedValue",
          "type": "uint256"
        },
        {
          "indexed": false,
          "name": "_spentValue",
          "type": "uint256"
        },
        {
          "indexed": false,
          "name": "_rate",
          "type": "uint256"
        }
      ],
      "name": "FundsReceived",
      "type": "event"
    },
    {
      "anonymous": false,
      "inputs": [
        {
          "indexed": true,
          "name": "_purchaser",
          "type": "address"
        },
        {
          "indexed": true,
          "name": "_beneficiary",
          "type": "address"
        },
        {
          "indexed": false,
          "name": "_usdAmount",
          "type": "uint256"
        },
        {
          "indexed": false,
          "name": "_receivedValue",
          "type": "uint256"
        },
        {
          "indexed": false,
          "name": "_spentValue",
          "type": "uint256"
        },
        {
          "indexed": false,
          "name": "_rate",
          "type": "uint256"
        }
      ],
      "name": "FundsReceivedPOLY",
      "type": "event"
    },
    {
      "anonymous": false,
      "inputs": [
        {
          "indexed": true,
          "name": "_owner",
          "type": "address"
        },
        {
          "indexed": true,
          "name": "_wallet",
          "type": "address"
        },
        {
          "indexed": false,
          "name": "_tokens",
          "type": "uint256"
        },
        {
          "indexed": false,
          "name": "_latestTier",
          "type": "uint8"
        }
      ],
      "name": "ReserveTokenMint",
      "type": "event"
    },
    {
      "anonymous": false,
      "inputs": [
        {
          "indexed": true,
          "name": "_wallet",
          "type": "address"
        },
        {
          "indexed": true,
          "name": "_reserveWallet",
          "type": "address"
        },
        {
          "indexed": true,
          "name": "_usdToken",
          "type": "address"
        }
      ],
      "name": "SetAddresses",
      "type": "event"
    },
    {
      "anonymous": false,
      "inputs": [
        {
          "indexed": false,
          "name": "_nonAccreditedLimitUSD",
          "type": "uint256"
        },
        {
          "indexed": false,
          "name": "_minimumInvestmentUSD",
          "type": "uint256"
        }
      ],
      "name": "SetLimits",
      "type": "event"
    },
    {
      "anonymous": false,
      "inputs": [
        {
          "indexed": false,
          "name": "_startTime",
          "type": "uint256"
        },
        {
          "indexed": false,
          "name": "_endTime",
          "type": "uint256"
        }
      ],
      "name": "SetTimes",
      "type": "event"
    },
    {
      "anonymous": false,
      "inputs": [
        {
          "indexed": false,
          "name": "_ratePerTier",
          "type": "uint256[]"
        },
        {
          "indexed": false,
          "name": "_ratePerTierDiscountPoly",
          "type": "uint256[]"
        },
        {
          "indexed": false,
          "name": "_tokensPerTierTotal",
          "type": "uint256[]"
        },
        {
          "indexed": false,
          "name": "_tokensPerTierDiscountPoly",
          "type": "uint256[]"
        }
      ],
      "name": "SetTiers",
      "type": "event"
    },
    {
      "anonymous": false,
      "inputs": [
        {
          "indexed": false,
          "name": "_fundRaiseTypes",
          "type": "uint8[]"
        }
      ],
      "name": "SetFundRaiseTypes",
      "type": "event"
    },
    {
      "anonymous": false,
      "inputs": [
        {
          "indexed": false,
          "name": "_timestammp",
          "type": "uint256"
        }
      ],
      "name": "Pause",
      "type": "event"
    },
    {
      "anonymous": false,
      "inputs": [
        {
          "indexed": false,
          "name": "_timestamp",
          "type": "uint256"
        }
      ],
      "name": "Unpause",
      "type": "event"
    },
    {
      "constant": false,
      "inputs": [
        {
          "name": "_startTime",
          "type": "uint256"
        },
        {
          "name": "_endTime",
          "type": "uint256"
        },
        {
          "name": "_ratePerTier",
          "type": "uint256[]"
        },
        {
          "name": "_ratePerTierDiscountPoly",
          "type": "uint256[]"
        },
        {
          "name": "_tokensPerTierTotal",
          "type": "uint256[]"
        },
        {
          "name": "_tokensPerTierDiscountPoly",
          "type": "uint256[]"
        },
        {
          "name": "_nonAccreditedLimitUSD",
          "type": "uint256"
        },
        {
          "name": "_minimumInvestmentUSD",
          "type": "uint256"
        },
        {
          "name": "_fundRaiseTypes",
          "type": "uint8[]"
        },
        {
          "name": "_wallet",
          "type": "address"
        },
        {
          "name": "_reserveWallet",
          "type": "address"
        },
        {
          "name": "_usdToken",
          "type": "address"
        }
      ],
      "name": "configure",
      "outputs": [],
      "payable": false,
      "stateMutability": "nonpayable",
      "type": "function"
    },
    {
      "constant": false,
      "inputs": [
        {
          "name": "_fundRaiseTypes",
          "type": "uint8[]"
        }
      ],
      "name": "modifyFunding",
      "outputs": [],
      "payable": false,
      "stateMutability": "nonpayable",
      "type": "function"
    },
    {
      "constant": false,
      "inputs": [
        {
          "name": "_nonAccreditedLimitUSD",
          "type": "uint256"
        },
        {
          "name": "_minimumInvestmentUSD",
          "type": "uint256"
        }
      ],
      "name": "modifyLimits",
      "outputs": [],
      "payable": false,
      "stateMutability": "nonpayable",
      "type": "function"
    },
    {
      "constant": false,
      "inputs": [
        {
          "name": "_ratePerTier",
          "type": "uint256[]"
        },
        {
          "name": "_ratePerTierDiscountPoly",
          "type": "uint256[]"
        },
        {
          "name": "_tokensPerTierTotal",
          "type": "uint256[]"
        },
        {
          "name": "_tokensPerTierDiscountPoly",
          "type": "uint256[]"
        }
      ],
      "name": "modifyTiers",
      "outputs": [],
      "payable": false,
      "stateMutability": "nonpayable",
      "type": "function"
    },
    {
      "constant": false,
      "inputs": [
        {
          "name": "_startTime",
          "type": "uint256"
        },
        {
          "name": "_endTime",
          "type": "uint256"
        }
      ],
      "name": "modifyTimes",
      "outputs": [],
      "payable": false,
      "stateMutability": "nonpayable",
      "type": "function"
    },
    {
      "constant": false,
      "inputs": [
        {
          "name": "_wallet",
          "type": "address"
        },
        {
          "name": "_reserveWallet",
          "type": "address"
        },
        {
          "name": "_usdToken",
          "type": "address"
        }
      ],
      "name": "modifyAddresses",
      "outputs": [],
      "payable": false,
      "stateMutability": "nonpayable",
      "type": "function"
    },
    {
      "constant": false,
      "inputs": [],
      "name": "finalize",
      "outputs": [],
      "payable": false,
      "stateMutability": "nonpayable",
      "type": "function"
    },
    {
      "constant": false,
      "inputs": [
        {
          "name": "_investors",
          "type": "address[]"
        },
        {
          "name": "_accredited",
          "type": "bool[]"
        }
      ],
      "name": "changeAccredited",
      "outputs": [],
      "payable": false,
      "stateMutability": "nonpayable",
      "type": "function"
    },
    {
      "constant": false,
      "inputs": [
        {
          "name": "_investors",
          "type": "address[]"
        },
        {
          "name": "_nonAccreditedLimit",
          "type": "uint256[]"
        }
      ],
      "name": "changeNonAccreditedLimit",
      "outputs": [],
      "payable": false,
      "stateMutability": "nonpayable",
      "type": "function"
    },
    {
      "constant": false,
      "inputs": [
        {
          "name": "_allowBeneficialInvestments",
          "type": "bool"
        }
      ],
      "name": "changeAllowBeneficialInvestments",
      "outputs": [],
      "payable": false,
      "stateMutability": "nonpayable",
      "type": "function"
    },
    {
      "constant": false,
      "inputs": [
        {
          "name": "_beneficiary",
          "type": "address"
        }
      ],
      "name": "buyWithETH",
      "outputs": [],
      "payable": true,
      "stateMutability": "payable",
      "type": "function"
    },
    {
      "constant": false,
      "inputs": [
        {
          "name": "_beneficiary",
          "type": "address"
        },
        {
          "name": "_investedPOLY",
          "type": "uint256"
        }
      ],
      "name": "buyWithPOLY",
      "outputs": [],
      "payable": false,
      "stateMutability": "nonpayable",
      "type": "function"
    },
    {
      "constant": false,
      "inputs": [
        {
          "name": "_beneficiary",
          "type": "address"
        },
        {
          "name": "_investedDAI",
          "type": "uint256"
        }
      ],
      "name": "buyWithUSD",
      "outputs": [],
      "payable": false,
      "stateMutability": "nonpayable",
      "type": "function"
    },
    {
      "constant": true,
      "inputs": [],
      "name": "isOpen",
      "outputs": [
        {
          "name": "",
          "type": "bool"
        }
      ],
      "payable": false,
      "stateMutability": "view",
      "type": "function"
    },
    {
      "constant": true,
      "inputs": [],
      "name": "capReached",
      "outputs": [
        {
          "name": "",
          "type": "bool"
        }
      ],
      "payable": false,
      "stateMutability": "view",
      "type": "function"
    },
    {
      "constant": true,
      "inputs": [
        {
          "name": "_fundRaiseType",
          "type": "uint8"
        }
      ],
      "name": "getRate",
      "outputs": [
        {
          "name": "",
          "type": "uint256"
        }
      ],
      "payable": false,
      "stateMutability": "view",
      "type": "function"
    },
    {
      "constant": true,
      "inputs": [
        {
          "name": "_fundRaiseType",
          "type": "uint8"
        },
        {
          "name": "_amount",
          "type": "uint256"
        }
      ],
      "name": "convertToUSD",
      "outputs": [
        {
          "name": "",
          "type": "uint256"
        }
      ],
      "payable": false,
      "stateMutability": "view",
      "type": "function"
    },
    {
      "constant": true,
      "inputs": [
        {
          "name": "_fundRaiseType",
          "type": "uint8"
        },
        {
          "name": "_amount",
          "type": "uint256"
        }
      ],
      "name": "convertFromUSD",
      "outputs": [
        {
          "name": "",
          "type": "uint256"
        }
      ],
      "payable": false,
      "stateMutability": "view",
      "type": "function"
    },
    {
      "constant": true,
      "inputs": [],
      "name": "getTokensSold",
      "outputs": [
        {
          "name": "",
          "type": "uint256"
        }
      ],
      "payable": false,
      "stateMutability": "view",
      "type": "function"
    },
    {
      "constant": true,
      "inputs": [],
      "name": "getTokensMinted",
      "outputs": [
        {
          "name": "",
          "type": "uint256"
        }
      ],
      "payable": false,
      "stateMutability": "view",
      "type": "function"
    },
    {
      "constant": true,
      "inputs": [
        {
          "name": "_fundRaiseType",
          "type": "uint8"
        }
      ],
      "name": "getTokensSoldFor",
      "outputs": [
        {
          "name": "",
          "type": "uint256"
        }
      ],
      "payable": false,
      "stateMutability": "view",
      "type": "function"
    },
    {
      "constant": true,
      "inputs": [],
      "name": "getNumberOfTiers",
      "outputs": [
        {
          "name": "",
          "type": "uint256"
        }
      ],
      "payable": false,
      "stateMutability": "view",
      "type": "function"
    },
    {
      "constant": true,
      "inputs": [],
      "name": "getPermissions",
      "outputs": [
        {
          "name": "",
          "type": "bytes32[]"
        }
      ],
      "payable": false,
      "stateMutability": "view",
      "type": "function"
    },
    {
      "constant": true,
      "inputs": [],
      "name": "getInitFunction",
      "outputs": [
        {
          "name": "",
          "type": "bytes4"
        }
      ],
      "payable": false,
      "stateMutability": "pure",
      "type": "function"
    }
  ],
  "bytecode": "0x6002805460a060020a60ff0219169055600b805460ff1916905560c0604052600d60808190527f506f6c795573644f7261636c650000000000000000000000000000000000000060a09081526200005a91600c9190620002d3565b5060408051808201909152600c8082527f4574685573644f7261636c6500000000000000000000000000000000000000006020909201918252620000a191600d91620002d3565b50600f805460a060020a60ff0219169055348015620000bf57600080fd5b50604051606080620052ac8339810160409081528151602080840151929093015160018054600160a060020a03808516600160a060020a03199283161783556000805483163317815560028054928816929093169190911782557f555344000000000000000000000000000000000000000000000000000000000090527fd31548e11fd1d25b66b1be12e0983b20fe23dc8bde0873602017983a13152a10909552600d805493959293620001a4937f3c6917af81dcfbc8d0661a7b7f4a7647ca2c28a594f63a9e62a60f0a5ea8c73d9382161561010002600019019091160462000358565b507f55534400000000000000000000000000000000000000000000000000000000006000527f12f44f96e4768474247b978d99d369344c4b727b9839ae4f4cc0905a1d1a2eaf602052600c805462000231917f111a4207c1729dbd6c6850794194641c131f5ae661a7697967188ccce7b93dc8916002610100600183161502600019019091160462000358565b50600160a060020a0381161515620002aa57604080517f08c379a000000000000000000000000000000000000000000000000000000000815260206004820152601060248201527f496e2d76616c6964206164647265737300000000000000000000000000000000604482015290519081900360640190fd5b60008054600160a060020a031916600160a060020a039290921691909117905550620003f29050565b828054600181600116156101000203166002900490600052602060002090601f016020900481019282601f106200031657805160ff191683800117855562000346565b8280016001018555821562000346579182015b828111156200034657825182559160200191906001019062000329565b5062000354929150620003d2565b5090565b828054600181600116156101000203166002900490600052602060002090601f016020900481019282601f1062000393578054855562000346565b828001600101855582156200034657600052602060002091601f016020900482015b8281111562000346578254825591600101919060010190620003b5565b620003ef91905b80821115620003545760008155600101620003d9565b90565b614eaa80620004026000396000f3006080604052600436106102dc5763ffffffff60e060020a600035041663033258ea81146102e75780631613ec9d146103115780631998af961461035b578063234c685e146103885780632df413e2146103a05780633197cbb6146103c95780633a3adf87146103de5780633a4fd45c146103f95780633e2769a11461040e5780633f4ba83a14610432578063441b9e4a14610447578063444aa92f1461046157806347535d7b146104755780634b385a421461048a5780634bb278f31461049f5780634f935945146104b4578063521ced30146104c9578063521eb273146104e15780635b66629d146105125780635c975abb146105365780635f7619a41461054b57806363b20117146105635780636c41027f146105785780636faa22a51461058d57806370465155146105a257806370dc8752146105ba57806378e97925146106ba5780637b06bc7c146106cf5780638320fc4e146106f05780638456cb591461077e578063877baeaa146107935780638784b1c2146107b15780638905fd4f146107d85780638be11260146107f95780638c9844cb146108115780638d4e40831461082f57806397a8feee146108445780639a7cc135146108ce578063a8955ed6146108e9578063b0ff041e146108fe578063b2cca39d14610a69578063b391844614610a7e578063b39f8ae414610a99578063b7ebae0b14610ab4578063b84dfbd214610acf578063bf11664814610ae4578063c3a07df614610b39578063c45a015514610b9e578063c4d2c6bd14610bb3578063c513933814610bce578063c6b5f57a14610bef578063d143a37914610c0d578063d679677a14610c28578063d69f6bae14610c53578063d70afa9614610c68578063d72b11bd14610c7d578063d7e64c0014610c92578063eaa32c4014610ca7578063ec47740f14610cc8578063ee7c0db014610cdd578063f897a22b14610cf2578063fbe8d9fe14610d07578063fbf69f9514610d95578063ff18ead314610dad575b6102e533610dc2565b005b3480156102f357600080fd5b506102ff6004356110bd565b60408051918252519081900360200190f35b34801561031d57600080fd5b506103266110dc565b604080517fffffffff000000000000000000000000000000000000000000000000000000009092168252519081900360200190f35b34801561036757600080fd5b506102e5600160a060020a0360043581169060243581169060443516611101565b34801561039457600080fd5b506102ff6004356113b0565b3480156103ac57600080fd5b506103b56113be565b604080519115158252519081900360200190f35b3480156103d557600080fd5b506102ff6113ce565b3480156103ea57600080fd5b506102e56004356024356113d4565b34801561040557600080fd5b506102ff611545565b34801561041a57600080fd5b506102e5600160a060020a036004351660243561154b565b34801561043e57600080fd5b506102e5611606565b34801561045357600080fd5b506102e560043515156116dc565b6102e5600160a060020a0360043516610dc2565b34801561048157600080fd5b506103b561187f565b34801561049657600080fd5b506102ff6118d3565b3480156104ab57600080fd5b506102e56118d9565b3480156104c057600080fd5b506103b5611c51565b3480156104d557600080fd5b506102ff600435611caa565b3480156104ed57600080fd5b506104f6611cb8565b60408051600160a060020a039092168252519081900360200190f35b34801561051e57600080fd5b506102e5600160a060020a0360043516602435611cc7565b34801561054257600080fd5b506103b5611e11565b34801561055757600080fd5b506103b5600435611e21565b34801561056f57600080fd5b506102ff61214f565b34801561058457600080fd5b506102ff612155565b34801561059957600080fd5b506104f661215b565b3480156105ae57600080fd5b506102ff60043561216a565b3480156105c657600080fd5b50604080516020600480358082013583810280860185019096528085526102e595369593946024949385019291829185019084908082843750506040805187358901803560208181028481018201909552818452989b9a998901989297509082019550935083925085019084908082843750506040805187358901803560208181028481018201909552818452989b9a998901989297509082019550935083925085019084908082843750506040805187358901803560208181028481018201909552818452989b9a9989019892975090820195509350839250850190849080828437509497506121789650505050505050565b3480156106c657600080fd5b506102ff61286c565b3480156106db57600080fd5b506103b5600160a060020a0360043516612872565b3480156106fc57600080fd5b50604080516020600480358082013583810280860185019096528085526102e595369593946024949385019291829185019084908082843750506040805187358901803560208181028481018201909552818452989b9a9989019892975090820195509350839250850190849080828437509497506128879650505050505050565b34801561078a57600080fd5b506102e5612a8f565b34801561079f57600080fd5b506102ff60ff60043516602435612bbc565b3480156107bd57600080fd5b506102ff600160a060020a036004351660ff60243516612bdc565b3480156107e457600080fd5b506102e5600160a060020a0360043516612bf9565b34801561080557600080fd5b506102ff600435612ea6565b34801561081d57600080fd5b506102ff60ff60043516602435612eb4565b34801561083b57600080fd5b506103b5612ecc565b34801561085057600080fd5b50610859612ed5565b6040805160208082528351818301528351919283929083019185019080838360005b8381101561089357818101518382015260200161087b565b50505050905090810190601f1680156108c05780820380516001836020036101000a031916815260200191505b509250505060405180910390f35b3480156108da57600080fd5b506102ff60ff60043516612f63565b3480156108f557600080fd5b50610859612f92565b34801561090a57600080fd5b5060408051602060046044358181013583810280860185019096528085526102e5958335956024803596369695606495939492019291829185019084908082843750506040805187358901803560208181028481018201909552818452989b9a998901989297509082019550935083925085019084908082843750506040805187358901803560208181028481018201909552818452989b9a998901989297509082019550935083925085019084908082843750506040805187358901803560208181028481018201909552818452989b9a9989019892975090820195509350839250850190849080828437505060408051818801358901803560208181028481018201909552818452989b8a359b8a8c01359b919a9099506060909101975092955090820193509182918501908490808284375094975050600160a060020a03853581169650602086013581169560400135169350612fed92505050565b348015610a7557600080fd5b506102ff613091565b348015610a8a57600080fd5b506102ff60ff60043516613097565b348015610aa557600080fd5b506102e560043560243561312d565b348015610ac057600080fd5b506102ff60ff60043516613323565b348015610adb57600080fd5b506104f6613495565b348015610af057600080fd5b50604080516020600480358082013583810280860185019096528085526102e5953695939460249493850192918291850190849080828437509497506134a49650505050505050565b348015610b4557600080fd5b50610b4e6136fa565b60408051602080825283518183015283519192839290830191858101910280838360005b83811015610b8a578181015183820152602001610b72565b505050509050019250505060405180910390f35b348015610baa57600080fd5b506104f661370f565b348015610bbf57600080fd5b506102ff60ff6004351661371e565b348015610bda57600080fd5b506102ff600160a060020a0360043516613730565b348015610bfb57600080fd5b506102ff60ff60043516602435613742565b348015610c1957600080fd5b506103b560ff60043516613772565b348015610c3457600080fd5b50610c3d613787565b6040805160ff9092168252519081900360200190f35b348015610c5f57600080fd5b506102ff613790565b348015610c7457600080fd5b506102ff6137c7565b348015610c8957600080fd5b506104f66137eb565b348015610c9e57600080fd5b506102ff6137fa565b348015610cb357600080fd5b506102ff600160a060020a0360043516613800565b348015610cd457600080fd5b506102ff613812565b348015610ce957600080fd5b506102ff613818565b348015610cfe57600080fd5b506104f661383e565b348015610d1357600080fd5b50604080516020600480358082013583810280860185019096528085526102e595369593946024949385019291829185019084908082843750506040805187358901803560208181028481018201909552818452989b9a99890198929750908201955093508392508501908490808284375094975061384d9650505050505050565b348015610da157600080fd5b506102ff600435613aaa565b348015610db957600080fd5b506102ff613ab8565b6000808080610dfa7f455448000000000000000000000000000000000000000000000000000000000060ea60020a621554d102613abe565b600160a060020a03161415610e59576040805160e560020a62461bcd02815260206004820152601560248201527f496e76616c696420455448555344204f7261636c650000000000000000000000604482015290519081900360640190fd5b6000805260036020527f3617319a054d772f909f7c479a2cebe5066e836a939412e32403c99029b92eff5460ff161515610f03576040805160e560020a62461bcd02815260206004820152602360248201527f46756e6420726169736520696e204554482073686f756c6420626520616c6c6f60448201527f7765640000000000000000000000000000000000000000000000000000000000606482015290519081900360840190fd5b610f0d6000613323565b9250610f1c8434856000613c6b565b600160a060020a0386166000908152601c60205260408120929450909250610f62918391805b60ff1681526020810191909152604001600020549063ffffffff6141e516565b600160a060020a0385166000908152601c60209081526040808320838052909152812091909155610f9890829060049080610f42565b600080805260046020527f17ef568e3e12ab5b9c7254a8d58478811de00f9e6eb34345acd53bf8fd09d3ec91909155601054604051600160a060020a03909116916108fc841502918491818181858888f19350505050158015610fff573d6000803e3d6000fd5b50336108fc611014348463ffffffff6141f216565b6040518115909202916000818181858888f1935050505015801561103c573d6000803e3d6000fd5b5083600160a060020a031633600160a060020a03167fa5a66b45c30fa6510eb2c3ccbe3c500d21863c7cc3e37d2dc85bb28db7775bd18460003486896040518086815260200185600281111561108e57fe5b60ff1681526020018481526020018381526020018281526020019550505050505060405180910390a350505050565b60128054829081106110cb57fe5b600091825260209091200154905081565b7fb0ff041e000000000000000000000000000000000000000000000000000000005b90565b600160009054906101000a9004600160a060020a0316600160a060020a0316638da5cb5b6040518163ffffffff1660e060020a028152600401602060405180830381600087803b15801561115457600080fd5b505af1158015611168573d6000803e3d6000fd5b505050506040513d602081101561117e57600080fd5b5051600160a060020a03163314806111a05750600054600160a060020a031633145b15156111e4576040805160e560020a62461bcd02815260206004820152601e6024820152600080516020614e1f833981519152604482015290519081900360640190fd5b600554421061122b576040805160e560020a62461bcd0281526020600482015260186024820152600080516020614e3f833981519152604482015290519081900360640190fd5b600160a060020a0383161580159061124b5750600160a060020a03821615155b15156112a1576040805160e560020a62461bcd02815260206004820152600f60248201527f496e76616c696420616464726573730000000000000000000000000000000000604482015290519081900360640190fd5b600260005260036020527fc3a24b0501bd2c13a7e57f2db4369ec4c223447539fc0724a9d55ac4a06ebd4d5460ff161561133557600160a060020a0381161515611335576040805160e560020a62461bcd02815260206004820152600f60248201527f496e76616c696420616464726573730000000000000000000000000000000000604482015290519081900360640190fd5b6010805473ffffffffffffffffffffffffffffffffffffffff19908116600160a060020a03868116918217909355601180548316868516908117909155600f80549093169385169384179092556040517fbbfb274df95bebde0669697bf0d15986b4ad73e11c495ae4e2d08d1bc5c90bad90600090a4505050565b60188054829081106110cb57fe5b600f5460a060020a900460ff1681565b60065481565b600160009054906101000a9004600160a060020a0316600160a060020a0316638da5cb5b6040518163ffffffff1660e060020a028152600401602060405180830381600087803b15801561142757600080fd5b505af115801561143b573d6000803e3d6000fd5b505050506040513d602081101561145157600080fd5b5051600160a060020a03163314806114735750600054600160a060020a031633145b15156114b7576040805160e560020a62461bcd02815260206004820152601e6024820152600080516020614e1f833981519152604482015290519081900360640190fd5b60055442106114fe576040805160e560020a62461bcd0281526020600482015260186024820152600080516020614e3f833981519152604482015290519081900360640190fd5b6020818155601e8390556040805183815291820184905280517f6edefa108617056bef120162b4dc9ced4920b9a10f2dcc512c4c60fee6e7e6939281900390910190a15050565b60145490565b600260005260036020527fc3a24b0501bd2c13a7e57f2db4369ec4c223447539fc0724a9d55ac4a06ebd4d5460ff1615156115f6576040805160e560020a62461bcd02815260206004820152602360248201527f46756e6420726169736520696e204441492073686f756c6420626520616c6c6f60448201527f7765640000000000000000000000000000000000000000000000000000000000606482015290519081900360840190fd5b61160282826002614204565b5050565b600160009054906101000a9004600160a060020a0316600160a060020a0316638da5cb5b6040518163ffffffff1660e060020a028152600401602060405180830381600087803b15801561165957600080fd5b505af115801561166d573d6000803e3d6000fd5b505050506040513d602081101561168357600080fd5b5051600160a060020a031633146116d2576040805160e560020a62461bcd0281526020600482015260136024820152600080516020614e5f833981519152604482015290519081900360640190fd5b6116da6144ed565b565b600160009054906101000a9004600160a060020a0316600160a060020a0316638da5cb5b6040518163ffffffff1660e060020a028152600401602060405180830381600087803b15801561172f57600080fd5b505af1158015611743573d6000803e3d6000fd5b505050506040513d602081101561175957600080fd5b5051600160a060020a031633146117a8576040805160e560020a62461bcd0281526020600482015260136024820152600080516020614e5f833981519152604482015290519081900360640190fd5b600f5460a060020a900460ff1615158115151415611810576040805160e560020a62461bcd02815260206004820152600f60248201527f56616c756520756e6368616e6765640000000000000000000000000000000000604482015290519081900360640190fd5b600f805482151560a060020a90810274ff0000000000000000000000000000000000000000199092169190911791829055604080519190920460ff161515815290517fea6eddcb8f2bf55dfb29aef4bd48214ef0798b9eae2e1bbb25dac99ecf6da6ae9181900360200190a150565b60215460009060ff1615611895575060006110fe565b6005544210156118a7575060006110fe565b60065442106118b8575060006110fe565b6118c0611c51565b156118cd575060006110fe565b50600190565b601e5481565b600080600080600160009054906101000a9004600160a060020a0316600160a060020a0316638da5cb5b6040518163ffffffff1660e060020a028152600401602060405180830381600087803b15801561193257600080fd5b505af1158015611946573d6000803e3d6000fd5b505050506040513d602081101561195c57600080fd5b5051600160a060020a031633146119ab576040805160e560020a62461bcd0281526020600482015260136024820152600080516020614e5f833981519152604482015290519081900360640190fd5b60215460ff1615611a06576040805160e560020a62461bcd02815260206004820152601860248201527f53544f20697320616c72656164792066696e616c697a65640000000000000000604482015290519081900360640190fd5b506021805460ff1916600117905560005b60145460ff82161015611b0057611a6f60168260ff16815481101515611a3957fe5b906000526020600020015460148360ff16815481101515611a5657fe5b90600052602060002001546141f290919063ffffffff16565b9150611a81848363ffffffff6141e516565b9350611ab260168260ff16815481101515611a9857fe5b9060005260206000200154846141e590919063ffffffff16565b92506000821115611af8576014805460ff8316908110611ace57fe5b906000526020600020015460168260ff16815481101515611aeb57fe5b6000918252602090912001555b600101611a17565b600154601154604080517f40c10f19000000000000000000000000000000000000000000000000000000008152600160a060020a03928316600482015260248101889052905191909216916340c10f199160448083019260209291908290030181600087803b158015611b7257600080fd5b505af1158015611b86573d6000803e3d6000fd5b505050506040513d6020811015611b9c57600080fd5b50511515611bf4576040805160e560020a62461bcd02815260206004820152601060248201527f4572726f7220696e206d696e74696e6700000000000000000000000000000000604482015290519081900360640190fd5b6011546019546040805187815260ff90921660208301528051600160a060020a039093169233927f3fe90b9084dca94f68309b6502066809bd1bc300808660a97214823388af5e4b92908290030190a35050602291909155600a55565b60215460009060ff1615611c695750602254156110fe565b601480546000198101908110611c7b57fe5b600091825260209091200154601680546000198101908110611c9957fe5b906000526020600020015414905090565b60158054829081106110cb57fe5b601054600160a060020a031681565b6000611cfc7f504f4c590000000000000000000000000000000000000000000000000000000060ea60020a621554d102613abe565b600160a060020a03161415611d5b576040805160e560020a62461bcd02815260206004820152601660248201527f496e76616c696420504f4c59555344204f7261636c6500000000000000000000604482015290519081900360640190fd5b600160005260036020527fa15bc60c955c405d20d9149c709e2460f1c2d9a497496a7f46004d1772c3054c5460ff161515611e05576040805160e560020a62461bcd028152602060048201526024808201527f46756e6420726169736520696e20504f4c592073686f756c6420626520616c6c60448201527f6f77656400000000000000000000000000000000000000000000000000000000606482015290519081900360840190fd5b61160282826001614204565b60025460a060020a900460ff1681565b60007f4645455f41444d494e0000000000000000000000000000000000000000000000600080600160009054906101000a9004600160a060020a0316600160a060020a0316638da5cb5b6040518163ffffffff1660e060020a028152600401602060405180830381600087803b158015611e9a57600080fd5b505af1158015611eae573d6000803e3d6000fd5b505050506040513d6020811015611ec457600080fd5b505160005433600160a060020a039283168114945091161490508180611ee75750805b80611f8d5750600154604080517f8658b8b9000000000000000000000000000000000000000000000000000000008152336004820152306024820152604481018690529051600160a060020a0390921691638658b8b9916064808201926020929091908290030181600087803b158015611f6057600080fd5b505af1158015611f74573d6000803e3d6000fd5b505050506040513d6020811015611f8a57600080fd5b50515b1515611fe3576040805160e560020a62461bcd02815260206004820152601760248201527f5065726d697373696f6e20636865636b206661696c6564000000000000000000604482015290519081900360640190fd5b600254600154600080546040805160e060020a638da5cb5b0281529051600160a060020a03958616956323b872dd95811694931692638da5cb5b92600480820193602093909283900390910190829087803b15801561204157600080fd5b505af1158015612055573d6000803e3d6000fd5b505050506040513d602081101561206b57600080fd5b50516040805160e060020a63ffffffff8616028152600160a060020a039384166004820152929091166024830152604482018990525160648083019260209291908290030181600087803b1580156120c257600080fd5b505af11580156120d6573d6000803e3d6000fd5b505050506040513d60208110156120ec57600080fd5b50511515612144576040805160e560020a62461bcd02815260206004820152601260248201527f556e61626c6520746f2074616b65206665650000000000000000000000000000604482015290519081900360640190fd5b506001949350505050565b600a5481565b60225481565b600254600160a060020a031681565b60138054829081106110cb57fe5b6001546040805160e060020a638da5cb5b0281529051600092600160a060020a031691638da5cb5b91600480830192602092919082900301818787803b1580156121c157600080fd5b505af11580156121d5573d6000803e3d6000fd5b505050506040513d60208110156121eb57600080fd5b5051600160a060020a031633148061220d5750600054600160a060020a031633145b1515612251576040805160e560020a62461bcd02815260206004820152601e6024820152600080516020614e1f833981519152604482015290519081900360640190fd5b6005544210612298576040805160e560020a62461bcd0281526020600482015260186024820152600080516020614e3f833981519152604482015290519081900360640190fd5b82516000106122f1576040805160e560020a62461bcd02815260206004820152601460248201527f4c656e6774682073686f756c64206265203e2030000000000000000000000000604482015290519081900360640190fd5b8251855114612370576040805160e560020a62461bcd02815260206004820152602260248201527f4d69736d6174636820622f77207261746573202620746f6b656e73202f20746960448201527f6572000000000000000000000000000000000000000000000000000000000000606482015290519081900360840190fd5b82518451146123ef576040805160e560020a62461bcd02815260206004820152602b60248201527f4d69736d6174636820622f7720646973636f756e74207261746573202620746f60448201527f6b656e73202f2074696572000000000000000000000000000000000000000000606482015290519081900360840190fd5b825182511461246e576040805160e560020a62461bcd02815260206004820152603360248201527f4d69736d6174636820622f7720646973636f756e7420746f6b656e73202f207460448201527f696572202620746f6b656e73202f207469657200000000000000000000000000606482015290519081900360840190fd5b5060005b84518160ff1610156126ce576000858260ff1681518110151561249157fe5b60209081029091010151116124f0576040805160e560020a62461bcd02815260206004820152600860248201527f52617465203e2030000000000000000000000000000000000000000000000000604482015290519081900360640190fd5b6000838260ff1681518110151561250357fe5b6020908102909101015111612562576040805160e560020a62461bcd02815260206004820152601360248201527f546f6b656e73207065722074696572203e203000000000000000000000000000604482015290519081900360640190fd5b828160ff1681518110151561257357fe5b90602001906020020151828260ff1681518110151561258e57fe5b602090810290910101511115612614576040805160e560020a62461bcd02815260206004820152602960248201527f446973636f756e74656420746f6b656e73202f2074696572203c3d20746f6b6560448201527f6e73202f20746965720000000000000000000000000000000000000000000000606482015290519081900360840190fd5b848160ff1681518110151561262557fe5b90602001906020020151848260ff1681518110151561264057fe5b6020908102909101015111156126c6576040805160e560020a62461bcd02815260206004820152602560248201527f446973636f756e7465642072617465202f2074696572203c3d2072617465202f60448201527f2074696572000000000000000000000000000000000000000000000000000000606482015290519081900360840190fd5b600101612472565b84516126e1906012906020880190614dc3565b5083516126f5906013906020870190614dc3565b508251612709906014906020860190614dc3565b50815161271d906015906020850190614dc3565b507fbdbb624542b4a708b5fed87894a55c10945f2676a45a28f9da59597118247496858585856040518080602001806020018060200180602001858103855289818151815260200191508051906020019060200280838360005b8381101561278f578181015183820152602001612777565b50505050905001858103845288818151815260200191508051906020019060200280838360005b838110156127ce5781810151838201526020016127b6565b50505050905001858103835287818151815260200191508051906020019060200280838360005b8381101561280d5781810151838201526020016127f5565b50505050905001858103825286818151815260200191508051906020019060200280838360005b8381101561284c578181015183820152602001612834565b505050509050019850505050505050505060405180910390a15050505050565b60055481565b601d6020526000908152604090205460ff1681565b6001546040805160e060020a638da5cb5b0281529051600092600160a060020a031691638da5cb5b91600480830192602092919082900301818787803b1580156128d057600080fd5b505af11580156128e4573d6000803e3d6000fd5b505050506040513d60208110156128fa57600080fd5b5051600160a060020a03163314612949576040805160e560020a62461bcd0281526020600482015260136024820152600080516020614e5f833981519152604482015290519081900360640190fd5b81518351146129a2576040805160e560020a62461bcd02815260206004820152601560248201527f4172726179206c656e677468206d69736d617463680000000000000000000000604482015290519081900360640190fd5b5060005b8251811015612a8a5781818151811015156129bd57fe5b90602001906020020151601d600085848151811015156129d957fe5b602090810291909101810151600160a060020a03168252810191909152604001600020805460ff191691151591909117905582517f5bc4e4d4bde98d5a327e2a911b87c042b79ec57d32ddca3bf73e76cdc77de7eb90849083908110612a3b57fe5b906020019060200201518383815181101515612a5357fe5b602090810290910181015160408051600160a060020a039094168452901515918301919091528051918290030190a16001016129a6565b505050565b600160009054906101000a9004600160a060020a0316600160a060020a0316638da5cb5b6040518163ffffffff1660e060020a028152600401602060405180830381600087803b158015612ae257600080fd5b505af1158015612af6573d6000803e3d6000fd5b505050506040513d6020811015612b0c57600080fd5b5051600160a060020a03163314612b5b576040805160e560020a62461bcd0281526020600482015260136024820152600080516020614e5f833981519152604482015290519081900360640190fd5b6006544210612bb4576040805160e560020a62461bcd02815260206004820152601660248201527f53544f20686173206265656e2066696e616c697a656400000000000000000000604482015290519081900360640190fd5b6116da6145a3565b600080612bc884613323565b9050612bd4838261465e565b949350505050565b601c60209081526000928352604080842090915290825290205481565b600080600160009054906101000a9004600160a060020a0316600160a060020a0316638da5cb5b6040518163ffffffff1660e060020a028152600401602060405180830381600087803b158015612c4f57600080fd5b505af1158015612c63573d6000803e3d6000fd5b505050506040513d6020811015612c7957600080fd5b5051600160a060020a03163314612cc8576040805160e560020a62461bcd0281526020600482015260136024820152600080516020614e5f833981519152604482015290519081900360640190fd5b600160a060020a0383161515612d28576040805160e560020a62461bcd02815260206004820152600f60248201527f496e76616c696420616464726573730000000000000000000000000000000000604482015290519081900360640190fd5b604080517f70a082310000000000000000000000000000000000000000000000000000000081523060048201529051849350600160a060020a038416916370a082319160248083019260209291908290030181600087803b158015612d8c57600080fd5b505af1158015612da0573d6000803e3d6000fd5b505050506040513d6020811015612db657600080fd5b5051604080517fa9059cbb000000000000000000000000000000000000000000000000000000008152336004820152602481018390529051919250600160a060020a0384169163a9059cbb916044808201926020929091908290030181600087803b158015612e2457600080fd5b505af1158015612e38573d6000803e3d6000fd5b505050506040513d6020811015612e4e57600080fd5b50511515612a8a576040805160e560020a62461bcd02815260206004820152600f60248201527f5472616e73666572206661696c65640000000000000000000000000000000000604482015290519081900360640190fd5b60168054829081106110cb57fe5b600080612ec084613323565b9050612bd48382614695565b60215460ff1681565b600d805460408051602060026001851615610100026000190190941693909304601f81018490048402820184019092528181529291830182828015612f5b5780601f10612f3057610100808354040283529160200191612f5b565b820191906000526020600020905b815481529060010190602001808311612f3e57829003601f168201915b505050505081565b600060046000836002811115612f7557fe5b60ff1660ff1681526020019081526020016000205490505b919050565b600c805460408051602060026001851615610100026000190190941693909304601f81018490048402820184019092528181529291830182828015612f5b5780601f10612f3057610100808354040283529160200191612f5b565b600054600160a060020a0316331461304f576040805160e560020a62461bcd02815260206004820152601560248201527f53656e646572206973206e6f7420666163746f72790000000000000000000000604482015290519081900360640190fd5b6130598c8c61312d565b6130658a8a8a8a612178565b61306e846134a4565b613079838383611101565b61308386866113d4565b505050505050505050505050565b60075481565b600080805b601760008560028111156130ac57fe5b60ff908116825260208201929092526040016000205490821610156131265761311c601760008660028111156130de57fe5b60ff1660ff1681526020019081526020016000208260ff1681548110151561310257fe5b9060005260206000200154836141e590919063ffffffff16565b915060010161309c565b5092915050565b600160009054906101000a9004600160a060020a0316600160a060020a0316638da5cb5b6040518163ffffffff1660e060020a028152600401602060405180830381600087803b15801561318057600080fd5b505af1158015613194573d6000803e3d6000fd5b505050506040513d60208110156131aa57600080fd5b5051600160a060020a03163314806131cc5750600054600160a060020a031633145b1515613210576040805160e560020a62461bcd02815260206004820152601e6024820152600080516020614e1f833981519152604482015290519081900360640190fd5b6005541580613220575060055442105b1515613276576040805160e560020a62461bcd02815260206004820152601160248201527f496e76616c696420737461727454696d65000000000000000000000000000000604482015290519081900360640190fd5b818111801561328457504282115b15156132da576040805160e560020a62461bcd02815260206004820152600d60248201527f496e76616c69642074696d657300000000000000000000000000000000000000604482015290519081900360640190fd5b60058290556006819055604080518381526020810183905281517f2eae0d0a99cbf5ab05babf7ee1f4bdf6e9bb99ffdca04682fa54f6682d5d80fe929181900390910190a15050565b60008082600281111561333257fe5b14156133db5761336b7f455448000000000000000000000000000000000000000000000000000000000060ea60020a621554d102613abe565b600160a060020a03166398d5fdca6040518163ffffffff1660e060020a028152600401602060405180830381600087803b1580156133a857600080fd5b505af11580156133bc573d6000803e3d6000fd5b505050506040513d60208110156133d257600080fd5b50519050612f8d565b60018260028111156133e957fe5b14156134225761336b7f504f4c590000000000000000000000000000000000000000000000000000000060ea60020a621554d102613abe565b600282600281111561343057fe5b14156134455750670de0b6b3a7640000612f8d565b6040805160e560020a62461bcd02815260206004820152601160248201527f496e636f72726563742066756e64696e67000000000000000000000000000000604482015290519081900360640190fd5b600154600160a060020a031681565b600080600160009054906101000a9004600160a060020a0316600160a060020a0316638da5cb5b6040518163ffffffff1660e060020a028152600401602060405180830381600087803b1580156134fa57600080fd5b505af115801561350e573d6000803e3d6000fd5b505050506040513d602081101561352457600080fd5b5051600160a060020a03163314806135465750600054600160a060020a031633145b151561358a576040805160e560020a62461bcd02815260206004820152601e6024820152600080516020614e1f833981519152604482015290519081900360640190fd5b60055442106135d1576040805160e560020a62461bcd0281526020600482015260186024820152600080516020614e3f833981519152604482015290519081900360640190fd5b6135da836146b6565b6135e2611545565b91508160405190808252806020026020018201604052801561360e578160200160208202803883390190505b50805161362391601691602090910190614dc3565b508160405190808252806020026020018201604052801561364e578160200160208202803883390190505b50805161366391601891602090910190614dc3565b50600090505b82518160ff161015612a8a578160405190808252806020026020018201604052801561369f578160200160208202803883390190505b5060176000858460ff168151811015156136b557fe5b9060200190602002015160028111156136ca57fe5b60ff1660ff16815260200190815260200160002090805190602001906136f1929190614dc3565b50600101613669565b604080516000815260208101909152805b5090565b600054600160a060020a031681565b60046020526000908152604090205481565b601b6020526000908152604090205481565b60176020528160005260406000208181548110151561375d57fe5b90600052602060002001600091509150505481565b60036020526000908152604090205460ff1681565b60195460ff1681565b600080805b60165460ff821610156137c1576137b760168260ff1681548110151561310257fe5b9150600101613795565b50919050565b7f4645455f41444d494e000000000000000000000000000000000000000000000081565b601154600160a060020a031681565b60085481565b601f6020526000908152604090205481565b60205481565b60215460009060ff161561382f5750600a546110fe565b613837613790565b90506110fe565b600f54600160a060020a031681565b6001546040805160e060020a638da5cb5b0281529051600092600160a060020a031691638da5cb5b91600480830192602092919082900301818787803b15801561389657600080fd5b505af11580156138aa573d6000803e3d6000fd5b505050506040513d60208110156138c057600080fd5b5051600160a060020a0316331461390f576040805160e560020a62461bcd0281526020600482015260136024820152600080516020614e5f833981519152604482015290519081900360640190fd5b8151835114613968576040805160e560020a62461bcd02815260206004820152601560248201527f4172726179206c656e677468206d69736d617463680000000000000000000000604482015290519081900360640190fd5b5060005b8251811015612a8a576000828281518110151561398557fe5b60209081029091010151116139e4576040805160e560020a62461bcd02815260206004820152601260248201527f4c696d69742063616e206e6f7420626520300000000000000000000000000000604482015290519081900360640190fd5b81818151811015156139f257fe5b90602001906020020151601f60008584815181101515613a0e57fe5b6020908102909101810151600160a060020a031682528101919091526040016000205582517fcde9ad1085e6403dc0f4aec5ed3e0e505e5cd00bc639943be2601cfedc6ce80f90849083908110613a6157fe5b906020019060200201518383815181101515613a7957fe5b602090810290910181015160408051600160a060020a039094168452918301528051918290030190a160010161396c565b60148054829081106110cb57fe5b601a5481565b600154604080517f77282b700000000000000000000000000000000000000000000000000000000081529051600092600160a060020a0316916377282b7091600480830192602092919082900301818787803b158015613b1d57600080fd5b505af1158015613b31573d6000803e3d6000fd5b505050506040513d6020811015613b4757600080fd5b50516000848152600e6020908152604080832086845282529182902091517fbf40fac10000000000000000000000000000000000000000000000000000000081526004810191825282546002610100600183161502600019019091160460248201819052600160a060020a039094169363bf40fac1939291829160449091019084908015613c165780601f10613beb57610100808354040283529160200191613c16565b820191906000526020600020905b815481529060010190602001808311613bf957829003601f168201915b505092505050602060405180830381600087803b158015613c3657600080fd5b505af1158015613c4a573d6000803e3d6000fd5b505050506040513d6020811015613c6057600080fd5b505190505b92915050565b600b54600090819081908190819081908190819060ff1615613c8c57600080fd5b600b805460ff1916600117905560025460a060020a900460ff1615613cfb576040805160e560020a62461bcd02815260206004820152601260248201527f436f6e7472616374206973207061757365640000000000000000000000000000604482015290519081900360640190fd5b600f5460a060020a900460ff161515613d9457600160a060020a038c163314613d94576040805160e560020a62461bcd02815260206004820152602160248201527f42656e656669636961727920646f6573206e6f74206d617463682066756e646560448201527f7200000000000000000000000000000000000000000000000000000000000000606482015290519081900360840190fd5b613d9c61187f565b1515613df2576040805160e560020a62461bcd02815260206004820152600f60248201527f53544f206973206e6f74206f70656e0000000000000000000000000000000000604482015290519081900360640190fd5b60008b11613e4a576040805160e560020a62461bcd02815260206004820152601260248201527f4e6f2066756e647320776572652073656e740000000000000000000000000000604482015290519081900360640190fd5b613e548a8c61465e565b60208054600160a060020a038f166000908152601b90925260409091205491975087965090613e8a90879063ffffffff6141e516565b1015613f06576040805160e560020a62461bcd02815260206004820152602760248201527f546f74616c20696e766573746d656e74203c206d696e696d756d496e7665737460448201527f6d656e7455534400000000000000000000000000000000000000000000000000606482015290519081900360840190fd5b600160a060020a038c166000908152601d602052604090205460ff16151561405f57600160a060020a038c166000908152601f602052604090205415613f6457600160a060020a038c166000908152601f6020526040902054613f68565b601e545b600160a060020a038d166000908152601b60205260409020549094508411614000576040805160e560020a62461bcd02815260206004820152602960248201527f4e6f6e2d6163637265646974656420696e766573746f7220686173207265616360448201527f686564206c696d69740000000000000000000000000000000000000000000000606482015290519081900360840190fd5b600160a060020a038c166000908152601b6020526040902054849061402c90889063ffffffff6141e516565b111561405f57600160a060020a038c166000908152601b602052604090205461405c90859063ffffffff6141f216565b95505b60195460ff1691505b60125460ff831610156141195760195460ff838116911614614094576019805460ff191660ff84161790555b6014805460ff84169081106140a557fe5b906000526020600020015460168360ff168154811015156140c257fe5b90600052602060002001541015614101576140fe6140f18d846140eb8a8863ffffffff6141f216565b8d614877565b849063ffffffff6141e516565b92505b8286141561410e57614119565b600190910190614068565b60008311156141a457600160a060020a038c166000908152601b6020526040902054151561414b576008805460010190555b600160a060020a038c166000908152601b6020526040902054614174908463ffffffff6141e516565b600160a060020a038d166000908152601b6020526040902055601a546141a0908463ffffffff6141e516565b601a555b8215156141b3575060006141c9565b6141c66141c08487614695565b8c61465e565b90505b600b805460ff19169055919b919a509098505050505050505050565b81810182811015613c6557fe5b6000828211156141fe57fe5b50900390565b6000808080600185600281111561421757fe5b148061422e5750600285600281111561422c57fe5b145b1515614284576040805160e560020a62461bcd02815260206004820152601460248201527f504f4c5920262044414920737570706f72746564000000000000000000000000604482015290519081900360640190fd5b61428d85613323565b935061429b87878688613c6b565b600160a060020a0389166000908152601c602052604081209295509093506142cb918491886002811115610f4257fe5b600160a060020a0388166000908152601c60205260408120908760028111156142f057fe5b60ff1660ff1681526020019081526020016000208190555061431c8260046000886002811115610f4257fe5b6004600087600281111561432c57fe5b60ff168152602081019190915260400160002055600185600281111561434e57fe5b1461436457600f54600160a060020a0316614371565b600254600160a060020a03165b601054604080517f23b872dd000000000000000000000000000000000000000000000000000000008152336004820152600160a060020a039283166024820152604481018690529051929350908316916323b872dd916064808201926020929091908290030181600087803b1580156143e957600080fd5b505af11580156143fd573d6000803e3d6000fd5b505050506040513d602081101561441357600080fd5b5051151561446b576040805160e560020a62461bcd02815260206004820152600f60248201527f5472616e73666572206661696c65640000000000000000000000000000000000604482015290519081900360640190fd5b86600160a060020a031633600160a060020a03167fa5a66b45c30fa6510eb2c3ccbe3c500d21863c7cc3e37d2dc85bb28db7775bd185888a878a604051808681526020018560028111156144bb57fe5b60ff1681526020018481526020018381526020018281526020019550505050505060405180910390a350505050505050565b60025460a060020a900460ff161515614550576040805160e560020a62461bcd02815260206004820152601660248201527f436f6e7472616374206973206e6f742070617573656400000000000000000000604482015290519081900360640190fd5b6002805474ff0000000000000000000000000000000000000000191690556040805142815290517faaa520fdd7d2c83061d632fa017b0432407e798818af63ea908589fceda39ab79181900360200190a1565b60025460a060020a900460ff1615614605576040805160e560020a62461bcd02815260206004820152601260248201527f436f6e7472616374206973207061757365640000000000000000000000000000604482015290519081900360640190fd5b6002805474ff0000000000000000000000000000000000000000191660a060020a1790556040805142815290517f68b095021b1f40fe513109f513c66692f0b3219aee674a69f4efc57badb8201d9181900360200190a1565b6000670de0b6b3a76400006146846146768585614c03565b6706f05b59d3b200006141e5565b81151561468d57fe5b049392505050565b6000816146846146ad85670de0b6b3a7640000614c03565b600285046141e5565b6000808251111515614712576040805160e560020a62461bcd02815260206004820152601b60248201527f52616973652074797065206973206e6f74207370656369666965640000000000604482015290519081900360640190fd5b5060036020527f3617319a054d772f909f7c479a2cebe5066e836a939412e32403c99029b92eff805460ff199081169091557fa15bc60c955c405d20d9149c709e2460f1c2d9a497496a7f46004d1772c3054c805482169055600260009081527fc3a24b0501bd2c13a7e57f2db4369ec4c223447539fc0724a9d55ac4a06ebd4d80549092169091555b81518160ff1610156147fe57600160036000848460ff168151811015156147bf57fe5b9060200190602002015160028111156147d457fe5b60ff1681526020810191909152604001600020805460ff191691151591909117905560010161479c565b7fe5724f42dd9f217c97b3768212ed6d6692c0135e252387d61b98af28fecd9b02826040518080602001828103825283818151815260200191508051906020019060200280838360005b83811015614860578181015183820152602001614848565b505050509050019250505060405180910390a15050565b6000808080858180600188600281111561488d57fe5b1480156148d057506018805460ff8c169081106148a657fe5b906000526020600020015460158b60ff168154811015156148c357fe5b9060005260206000200154115b15614ab35761490760188b60ff168154811015156148ea57fe5b906000526020600020015460158c60ff16815481101515611a5657fe5b915061493b60168b60ff1681548110151561491e57fe5b906000526020600020015460148c60ff16815481101515611a5657fe5b9050818110156149785761496e8b60138c60ff1681548110151561495b57fe5b906000526020600020015483868e614c2c565b90965093506149a7565b6149a18b60138c60ff1681548110151561498e57fe5b906000526020600020015484868e614c2c565b90965093505b6149b7838763ffffffff6141f216565b92506149e88460188c60ff168154811015156149cf57fe5b90600052602060002001546141e590919063ffffffff16565b6018805460ff8d169081106149f957fe5b6000918252602082200191909155614a3790859060179060015b60ff1660ff1681526020019081526020016000208c60ff168154811015156149cf57fe5b600160005260176020527ff36d6bc9642eb6fb6ee9998b09ce990566df752ab06e11f8de7ab633bbd57b8f805460ff8d16908110614a7157fe5b9060005260206000200181905550614a958460168c60ff168154811015156149cf57fe5b6016805460ff8d16908110614aa657fe5b6000918252602090912001555b600083118015614af457506000614af260168c60ff16815481101515614ad557fe5b906000526020600020015460148d60ff16815481101515611a5657fe5b115b15614bf457614b538b60128c60ff16815481101515614b0f57fe5b9060005260206000200154614b4c60168e60ff16815481101515614b2f57fe5b906000526020600020015460148f60ff16815481101515611a5657fe5b868e614c2c565b9095509350614b68868663ffffffff6141e516565b9550614b7e84601760008b6002811115614a1357fe5b601760008a6002811115614b8e57fe5b60ff1660ff1681526020019081526020016000208b60ff16815481101515614bb257fe5b9060005260206000200181905550614bd68460168c60ff168154811015156149cf57fe5b6016805460ff8d16908110614be757fe5b6000918252602090912001555b50939998505050505050505050565b6000821515614c1457506000613c65565b50818102818382811515614c2457fe5b0414613c6557fe5b6000806000806000614c3e878a614695565b925087831115614c6757614c52888a61465e565b915086821115614c60578691505b5086614c6d565b50859050815b600154604080517f40c10f19000000000000000000000000000000000000000000000000000000008152600160a060020a038d8116600483015260248201859052915191909216916340c10f199160448083019260209291908290030181600087803b158015614cdc57600080fd5b505af1158015614cf0573d6000803e3d6000fd5b505050506040513d6020811015614d0657600080fd5b50511515614d5e576040805160e560020a62461bcd02815260206004820152601060248201527f4572726f7220696e206d696e74696e6700000000000000000000000000000000604482015290519081900360640190fd5b60408051828152602081018490528082018b905260ff881660608201529051600160a060020a038c169133917f4ca2c8a2cd727df794a09c03500fc3eabcb8a8d7c481e70bdccf06bb7975a5bc9181900360800190a390999098509650505050505050565b828054828255906000526020600020908101928215614dfe579160200282015b82811115614dfe578251825591602001919060010190614de3565b5061370b926110fe9250905b8082111561370b5760008155600101614e0a560053656e646572206973206e6f7420666163746f7279206f72206f776e6572000053544f2073686f756c646e27742062652073746172746564000000000000000053656e646572206973206e6f74206f776e657200000000000000000000000000a165627a7a723058206cdb79895bd84ea6346cb3073d9ecf02d29bf2f2e12b483d7613ca5146f0e8d30029",
  "source": "pragma solidity ^0.4.24;\n\nimport \"./ISTO.sol\";\nimport \"../../interfaces/ISecurityToken.sol\";\nimport \"../../interfaces/IOracle.sol\";\nimport \"../../RegistryUpdater.sol\";\nimport \"../../libraries/DecimalMath.sol\";\nimport \"openzeppelin-solidity/contracts/math/SafeMath.sol\";\nimport \"openzeppelin-solidity/contracts/ReentrancyGuard.sol\";\n\n/**\n * @title STO module for standard capped crowdsale\n */\ncontract USDTieredSTO is ISTO, ReentrancyGuard {\n    using SafeMath for uint256;\n\n    /////////////\n    // Storage //\n    /////////////\n\n    string public POLY_ORACLE = \"PolyUsdOracle\";\n    string public ETH_ORACLE = \"EthUsdOracle\";\n    mapping (bytes32 => mapping (bytes32 => string)) oracleKeys;\n\n    IERC20 public usdToken;\n\n    // Determine whether users can invest on behalf of a beneficiary\n    bool public allowBeneficialInvestments = false;\n\n    // Address where ETH, POLY & DAI funds are delivered\n    address public wallet;\n\n    // Address of issuer reserve wallet for unsold tokens\n    address public reserveWallet;\n\n    // How many token units a buyer gets per USD per tier (multiplied by 10**18)\n    uint256[] public ratePerTier;\n\n    // How many token units a buyer gets per USD per tier (multiplied by 10**18) when investing in POLY up to tokensPerTierDiscountPoly\n    uint256[] public ratePerTierDiscountPoly;\n\n    // How many tokens are available in each tier (relative to totalSupply)\n    uint256[] public tokensPerTierTotal;\n\n    // How many token units are available in each tier (relative to totalSupply) at the ratePerTierDiscountPoly rate\n    uint256[] public tokensPerTierDiscountPoly;\n\n    // How many tokens have been minted in each tier (relative to totalSupply)\n    uint256[] public mintedPerTierTotal;\n\n    // How many tokens have been minted in each tier (relative to totalSupply) for each fund raise type\n    mapping (uint8 => uint256[]) public mintedPerTier;\n\n    // How many tokens have been minted in each tier (relative to totalSupply) at discounted POLY rate\n    uint256[] public mintedPerTierDiscountPoly;\n\n    // Current tier\n    uint8 public currentTier;\n\n    // Amount of USD funds raised\n    uint256 public fundsRaisedUSD;\n\n    // Amount in USD invested by each address\n    mapping (address => uint256) public investorInvestedUSD;\n\n    // Amount in fund raise type invested by each investor\n    mapping (address => mapping (uint8 => uint256)) public investorInvested;\n\n    // List of accredited investors\n    mapping (address => bool) public accredited;\n\n    // Default limit in USD for non-accredited investors multiplied by 10**18\n    uint256 public nonAccreditedLimitUSD;\n\n    // Overrides for default limit in USD for non-accredited investors multiplied by 10**18\n    mapping (address => uint256) public nonAccreditedLimitUSDOverride;\n\n    // Minimum investable amount in USD\n    uint256 public minimumInvestmentUSD;\n\n    // Whether or not the STO has been finalized\n    bool public isFinalized;\n\n    // Final amount of tokens returned to issuer\n    uint256 public finalAmountReturned;\n\n    ////////////\n    // Events //\n    ////////////\n\n    event SetAllowBeneficialInvestments(bool _allowed);\n    event SetNonAccreditedLimit(address _investor, uint256 _limit);\n    event SetAccredited(address _investor, bool _accredited);\n    event TokenPurchase(\n        address indexed _purchaser,\n        address indexed _beneficiary,\n        uint256 _tokens,\n        uint256 _usdAmount,\n        uint256 _tierPrice,\n        uint8 _tier\n    );\n    event FundsReceived(\n        address indexed _purchaser,\n        address indexed _beneficiary,\n        uint256 _usdAmount,\n        FundRaiseType _fundRaiseType,\n        uint256 _receivedValue,\n        uint256 _spentValue,\n        uint256 _rate\n    );\n    event FundsReceivedPOLY(\n        address indexed _purchaser,\n        address indexed _beneficiary,\n        uint256 _usdAmount,\n        uint256 _receivedValue,\n        uint256 _spentValue,\n        uint256 _rate\n    );\n    event ReserveTokenMint(address indexed _owner, address indexed _wallet, uint256 _tokens, uint8 _latestTier);\n\n    event SetAddresses(\n        address indexed _wallet,\n        address indexed _reserveWallet,\n        address indexed _usdToken\n    );\n    event SetLimits(\n        uint256 _nonAccreditedLimitUSD,\n        uint256 _minimumInvestmentUSD\n    );\n    event SetTimes(\n        uint256 _startTime,\n        uint256 _endTime\n    );\n    event SetTiers(\n        uint256[] _ratePerTier,\n        uint256[] _ratePerTierDiscountPoly,\n        uint256[] _tokensPerTierTotal,\n        uint256[] _tokensPerTierDiscountPoly\n    );\n\n    ///////////////\n    // Modifiers //\n    ///////////////\n\n    modifier validETH {\n        require(_getOracle(bytes32(\"ETH\"), bytes32(\"USD\")) != address(0), \"Invalid ETHUSD Oracle\");\n        require(fundRaiseTypes[uint8(FundRaiseType.ETH)], \"Fund raise in ETH should be allowed\");\n        _;\n    }\n\n    modifier validPOLY {\n        require(_getOracle(bytes32(\"POLY\"), bytes32(\"USD\")) != address(0), \"Invalid POLYUSD Oracle\");\n        require(fundRaiseTypes[uint8(FundRaiseType.POLY)], \"Fund raise in POLY should be allowed\");\n        _;\n    }\n\n    modifier validDAI {\n        require(fundRaiseTypes[uint8(FundRaiseType.DAI)], \"Fund raise in DAI should be allowed\");\n        _;\n    }\n\n    ///////////////////////\n    // STO Configuration //\n    ///////////////////////\n\n    constructor (address _securityToken, address _polyAddress, address _factory) public Module(_securityToken, _polyAddress) {\n        oracleKeys[bytes32(\"ETH\")][bytes32(\"USD\")] = ETH_ORACLE;\n        oracleKeys[bytes32(\"POLY\")][bytes32(\"USD\")] = POLY_ORACLE;\n        require(_factory != address(0), \"In-valid address\");\n        factory = _factory;\n    }\n\n    /**\n     * @notice Function used to intialize the contract variables\n     * @param _startTime Unix timestamp at which offering get started\n     * @param _endTime Unix timestamp at which offering get ended\n     * @param _ratePerTier Rate (in USD) per tier (* 10**18)\n     * @param _tokensPerTierTotal Tokens available in each tier\n     * @param _nonAccreditedLimitUSD Limit in USD (* 10**18) for non-accredited investors\n     * @param _minimumInvestmentUSD Minimun investment in USD (* 10**18)\n     * @param _fundRaiseTypes Types of currency used to collect the funds\n     * @param _wallet Ethereum account address to hold the funds\n     * @param _reserveWallet Ethereum account address to receive unsold tokens\n     * @param _usdToken Contract address of the stable coin\n     */\n    function configure(\n        uint256 _startTime,\n        uint256 _endTime,\n        uint256[] _ratePerTier,\n        uint256[] _ratePerTierDiscountPoly,\n        uint256[] _tokensPerTierTotal,\n        uint256[] _tokensPerTierDiscountPoly,\n        uint256 _nonAccreditedLimitUSD,\n        uint256 _minimumInvestmentUSD,\n        FundRaiseType[] _fundRaiseTypes,\n        address _wallet,\n        address _reserveWallet,\n        address _usdToken\n    ) public onlyFactory {\n        modifyTimes(_startTime, _endTime);\n        // NB - modifyTiers must come before modifyFunding\n        modifyTiers(_ratePerTier, _ratePerTierDiscountPoly, _tokensPerTierTotal, _tokensPerTierDiscountPoly);\n        // NB - modifyFunding must come before modifyAddresses\n        modifyFunding(_fundRaiseTypes);\n        modifyAddresses(_wallet, _reserveWallet, _usdToken);\n        modifyLimits(_nonAccreditedLimitUSD, _minimumInvestmentUSD);\n    }\n\n    function modifyFunding(FundRaiseType[] _fundRaiseTypes) public onlyFactoryOrOwner {\n        /*solium-disable-next-line security/no-block-members*/\n        require(now < startTime, \"STO shouldn't be started\");\n        _setFundRaiseType(_fundRaiseTypes);\n        uint256 length = getNumberOfTiers();\n        mintedPerTierTotal = new uint256[](length);\n        mintedPerTierDiscountPoly = new uint256[](length);\n        for (uint8 i = 0; i < _fundRaiseTypes.length; i++) {\n            mintedPerTier[uint8(_fundRaiseTypes[i])] = new uint256[](length);\n        }\n    }\n\n    function modifyLimits(\n        uint256 _nonAccreditedLimitUSD,\n        uint256 _minimumInvestmentUSD\n    ) public onlyFactoryOrOwner {\n        /*solium-disable-next-line security/no-block-members*/\n        require(now < startTime, \"STO shouldn't be started\");\n        minimumInvestmentUSD = _minimumInvestmentUSD;\n        nonAccreditedLimitUSD = _nonAccreditedLimitUSD;\n        emit SetLimits(minimumInvestmentUSD, nonAccreditedLimitUSD);\n    }\n\n    function modifyTiers(\n        uint256[] _ratePerTier,\n        uint256[] _ratePerTierDiscountPoly,\n        uint256[] _tokensPerTierTotal,\n        uint256[] _tokensPerTierDiscountPoly\n    ) public onlyFactoryOrOwner {\n        /*solium-disable-next-line security/no-block-members*/\n        require(now < startTime, \"STO shouldn't be started\");\n        require(_tokensPerTierTotal.length > 0, \"Length should be > 0\");\n        require(_ratePerTier.length == _tokensPerTierTotal.length, \"Mismatch b/w rates & tokens / tier\");\n        require(_ratePerTierDiscountPoly.length == _tokensPerTierTotal.length, \"Mismatch b/w discount rates & tokens / tier\");\n        require(_tokensPerTierDiscountPoly.length == _tokensPerTierTotal.length, \"Mismatch b/w discount tokens / tier & tokens / tier\");\n        for (uint8 i = 0; i < _ratePerTier.length; i++) {\n            require(_ratePerTier[i] > 0, \"Rate > 0\");\n            require(_tokensPerTierTotal[i] > 0, \"Tokens per tier > 0\");\n            require(_tokensPerTierDiscountPoly[i] <= _tokensPerTierTotal[i], \"Discounted tokens / tier <= tokens / tier\");\n            require(_ratePerTierDiscountPoly[i] <= _ratePerTier[i], \"Discounted rate / tier <= rate / tier\");\n        }\n        ratePerTier = _ratePerTier;\n        ratePerTierDiscountPoly = _ratePerTierDiscountPoly;\n        tokensPerTierTotal = _tokensPerTierTotal;\n        tokensPerTierDiscountPoly = _tokensPerTierDiscountPoly;\n        emit SetTiers(_ratePerTier, _ratePerTierDiscountPoly, _tokensPerTierTotal, _tokensPerTierDiscountPoly);\n    }\n\n    function modifyTimes(\n        uint256 _startTime,\n        uint256 _endTime\n    ) public onlyFactoryOrOwner {\n        /*solium-disable-next-line security/no-block-members*/\n        require((startTime == 0) || (now < startTime), \"Invalid startTime\");\n        /*solium-disable-next-line security/no-block-members*/\n        require((_endTime > _startTime) && (_startTime > now), \"Invalid times\");\n        startTime = _startTime;\n        endTime = _endTime;\n        emit SetTimes(_startTime, _endTime);\n    }\n\n    function modifyAddresses(\n        address _wallet,\n        address _reserveWallet,\n        address _usdToken\n    ) public onlyFactoryOrOwner {\n        /*solium-disable-next-line security/no-block-members*/\n        require(now < startTime, \"STO shouldn't be started\");\n        require(_wallet != address(0) && _reserveWallet != address(0), \"Invalid address\");\n        if (fundRaiseTypes[uint8(FundRaiseType.DAI)]) {\n            require(_usdToken != address(0), \"Invalid address\");\n        }\n        wallet = _wallet;\n        reserveWallet = _reserveWallet;\n        usdToken = IERC20(_usdToken);\n        emit SetAddresses(_wallet, _reserveWallet, _usdToken);\n    }\n\n    ////////////////////\n    // STO Management //\n    ////////////////////\n\n    /**\n     * @notice Finalizes the STO and mint remaining tokens to reserve address\n     * @notice Reserve address must be whitelisted to successfully finalize\n     */\n    function finalize() public onlyOwner {\n        require(!isFinalized, \"STO is already finalized\");\n        isFinalized = true;\n        uint256 tempReturned;\n        uint256 tempSold;\n        uint256 remainingTokens;\n        for (uint8 i = 0; i < tokensPerTierTotal.length; i++) {\n            remainingTokens = tokensPerTierTotal[i].sub(mintedPerTierTotal[i]);\n            tempReturned = tempReturned.add(remainingTokens);\n            tempSold = tempSold.add(mintedPerTierTotal[i]);\n            if (remainingTokens > 0) {\n                mintedPerTierTotal[i] = tokensPerTierTotal[i];\n            }\n        }\n        require(ISecurityToken(securityToken).mint(reserveWallet, tempReturned), \"Error in minting\");\n        emit ReserveTokenMint(msg.sender, reserveWallet, tempReturned, currentTier);\n        finalAmountReturned = tempReturned;\n        totalTokensSold = tempSold;\n    }\n\n    /**\n     * @notice Modifies the list of accredited addresses\n     * @param _investors Array of investor addresses to modify\n     * @param _accredited Array of bools specifying accreditation status\n     */\n    function changeAccredited(address[] _investors, bool[] _accredited) public onlyOwner {\n        require(_investors.length == _accredited.length, \"Array length mismatch\");\n        for (uint256 i = 0; i < _investors.length; i++) {\n            accredited[_investors[i]] = _accredited[i];\n            emit SetAccredited(_investors[i], _accredited[i]);\n        }\n    }\n\n    /**\n     * @notice Modifies the list of overrides for non-accredited limits in USD\n     * @param _investors Array of investor addresses to modify\n     * @param _nonAccreditedLimit Array of uints specifying non-accredited limits\n     */\n    function changeNonAccreditedLimit(address[] _investors, uint256[] _nonAccreditedLimit) public onlyOwner {\n        //nonAccreditedLimitUSDOverride\n        require(_investors.length == _nonAccreditedLimit.length, \"Array length mismatch\");\n        for (uint256 i = 0; i < _investors.length; i++) {\n            require(_nonAccreditedLimit[i] > 0, \"Limit can not be 0\");\n            nonAccreditedLimitUSDOverride[_investors[i]] = _nonAccreditedLimit[i];\n            emit SetNonAccreditedLimit(_investors[i], _nonAccreditedLimit[i]);\n        }\n    }\n\n    /**\n     * @notice Function to set allowBeneficialInvestments (allow beneficiary to be different to funder)\n     * @param _allowBeneficialInvestments Boolean to allow or disallow beneficial investments\n     */\n    function changeAllowBeneficialInvestments(bool _allowBeneficialInvestments) public onlyOwner {\n        require(_allowBeneficialInvestments != allowBeneficialInvestments, \"Value unchanged\");\n        allowBeneficialInvestments = _allowBeneficialInvestments;\n        emit SetAllowBeneficialInvestments(allowBeneficialInvestments);\n    }\n\n    //////////////////////////\n    // Investment Functions //\n    //////////////////////////\n\n    /**\n    * @notice fallback function - assumes ETH being invested\n    */\n    function () external payable {\n        buyWithETH(msg.sender);\n    }\n\n    /**\n      * @notice Purchase tokens using ETH\n      * @param _beneficiary Address where security tokens will be sent\n      */\n    function buyWithETH(address _beneficiary) public payable validETH {\n        uint256 rate = getRate(FundRaiseType.ETH);\n        (uint256 spentUSD, uint256 spentValue) = _buyTokens(_beneficiary, msg.value, rate, FundRaiseType.ETH);\n        // Modify storage\n        investorInvested[_beneficiary][uint8(FundRaiseType.ETH)] = investorInvested[_beneficiary][uint8(FundRaiseType.ETH)].add(spentValue);\n        fundsRaised[uint8(FundRaiseType.ETH)] = fundsRaised[uint8(FundRaiseType.ETH)].add(spentValue);\n        // Forward ETH to issuer wallet\n        wallet.transfer(spentValue);\n        // Refund excess ETH to investor wallet\n        msg.sender.transfer(msg.value.sub(spentValue));\n        emit FundsReceived(msg.sender, _beneficiary, spentUSD, FundRaiseType.ETH, msg.value, spentValue, rate);\n    }\n\n    /**\n      * @notice Purchase tokens using POLY\n      * @param _beneficiary Address where security tokens will be sent\n      * @param _investedPOLY Amount of POLY invested\n      */\n    function buyWithPOLY(address _beneficiary, uint256 _investedPOLY) public validPOLY {\n        _buyWithTokens(_beneficiary, _investedPOLY, FundRaiseType.POLY);\n    }\n\n    /**\n      * @notice Purchase tokens using POLY\n      * @param _beneficiary Address where security tokens will be sent\n      * @param _investedDAI Amount of POLY invested\n      */\n    function buyWithUSD(address _beneficiary, uint256 _investedDAI) public validDAI {\n        _buyWithTokens(_beneficiary, _investedDAI, FundRaiseType.DAI);\n    }\n\n    function _buyWithTokens(address _beneficiary, uint256 _tokenAmount, FundRaiseType _fundRaiseType) internal {\n        require(_fundRaiseType == FundRaiseType.POLY || _fundRaiseType == FundRaiseType.DAI, \"POLY & DAI supported\");\n        uint256 rate = getRate(_fundRaiseType);\n        (uint256 spentUSD, uint256 spentValue) = _buyTokens(_beneficiary, _tokenAmount, rate, _fundRaiseType);\n        // Modify storage\n        investorInvested[_beneficiary][uint8(_fundRaiseType)] = investorInvested[_beneficiary][uint8(_fundRaiseType)].add(spentValue);\n        fundsRaised[uint8(_fundRaiseType)] = fundsRaised[uint8(_fundRaiseType)].add(spentValue);\n        // Forward DAI to issuer wallet\n        IERC20 token = _fundRaiseType == FundRaiseType.POLY ? polyToken : usdToken;\n        require(token.transferFrom(msg.sender, wallet, spentValue), \"Transfer failed\");\n        emit FundsReceived(msg.sender, _beneficiary, spentUSD, _fundRaiseType, _tokenAmount, spentValue, rate);\n    }\n\n    /**\n      * @notice Low level token purchase\n      * @param _beneficiary Address where security tokens will be sent\n      * @param _investmentValue Amount of POLY, ETH or DAI invested\n      * @param _fundRaiseType Fund raise type (POLY, ETH, DAI)\n      */\n    function _buyTokens(\n        address _beneficiary,\n        uint256 _investmentValue,\n        uint256 _rate,\n        FundRaiseType _fundRaiseType\n    )\n        internal\n        nonReentrant\n        whenNotPaused\n        returns(uint256, uint256)\n    {\n        if (!allowBeneficialInvestments) {\n            require(_beneficiary == msg.sender, \"Beneficiary does not match funder\");\n        }\n\n        require(isOpen(), \"STO is not open\");\n        require(_investmentValue > 0, \"No funds were sent\");\n\n        uint256 investedUSD = DecimalMath.mul(_rate, _investmentValue);\n        uint256 originalUSD = investedUSD;\n\n        // Check for minimum investment\n        require(investedUSD.add(investorInvestedUSD[_beneficiary]) >= minimumInvestmentUSD, \"Total investment < minimumInvestmentUSD\");\n\n        // Check for non-accredited cap\n        if (!accredited[_beneficiary]) {\n            uint256 investorLimitUSD = (nonAccreditedLimitUSDOverride[_beneficiary] == 0) ? nonAccreditedLimitUSD : nonAccreditedLimitUSDOverride[_beneficiary];\n            require(investorInvestedUSD[_beneficiary] < investorLimitUSD, \"Non-accredited investor has reached limit\");\n            if (investedUSD.add(investorInvestedUSD[_beneficiary]) > investorLimitUSD)\n                investedUSD = investorLimitUSD.sub(investorInvestedUSD[_beneficiary]);\n        }\n        uint256 spentUSD;\n        // Iterate over each tier and process payment\n        for (uint8 i = currentTier; i < ratePerTier.length; i++) {\n            // Update current tier if needed\n            if (currentTier != i)\n                currentTier = i;\n            // If there are tokens remaining, process investment\n            if (mintedPerTierTotal[i] < tokensPerTierTotal[i])\n                spentUSD = spentUSD.add(_calculateTier(_beneficiary, i, investedUSD.sub(spentUSD), _fundRaiseType));\n            // If all funds have been spent, exit the loop\n            if (investedUSD == spentUSD)\n                break;\n        }\n\n        // Modify storage\n        if (spentUSD > 0) {\n            if (investorInvestedUSD[_beneficiary] == 0)\n                investorCount = investorCount + 1;\n            investorInvestedUSD[_beneficiary] = investorInvestedUSD[_beneficiary].add(spentUSD);\n            fundsRaisedUSD = fundsRaisedUSD.add(spentUSD);\n        }\n\n        // Calculate spent in base currency (ETH, DAI or POLY)\n        uint256 spentValue;\n        if (spentUSD == 0) {\n            spentValue = 0;\n        } else {\n            spentValue = DecimalMath.mul(DecimalMath.div(spentUSD, originalUSD), _investmentValue);\n        }\n\n        // Return calculated amounts\n        return (spentUSD, spentValue);\n    }\n\n    function _calculateTier(\n        address _beneficiary,\n        uint8 _tier,\n        uint256 _investedUSD,\n        FundRaiseType _fundRaiseType\n    ) \n        internal\n        returns(uint256)\n     {\n        // First purchase any discounted tokens if POLY investment\n        uint256 spentUSD;\n        uint256 tierSpentUSD;\n        uint256 tierPurchasedTokens;\n        uint256 investedUSD = _investedUSD;\n        // Check whether there are any remaining discounted tokens\n        if ((_fundRaiseType == FundRaiseType.POLY) && (tokensPerTierDiscountPoly[_tier] > mintedPerTierDiscountPoly[_tier])) {\n            uint256 discountRemaining = tokensPerTierDiscountPoly[_tier].sub(mintedPerTierDiscountPoly[_tier]);\n            uint256 totalRemaining = tokensPerTierTotal[_tier].sub(mintedPerTierTotal[_tier]);\n            if (totalRemaining < discountRemaining)\n                (spentUSD, tierPurchasedTokens) = _purchaseTier(_beneficiary, ratePerTierDiscountPoly[_tier], totalRemaining, investedUSD, _tier);\n            else\n                (spentUSD, tierPurchasedTokens) = _purchaseTier(_beneficiary, ratePerTierDiscountPoly[_tier], discountRemaining, investedUSD, _tier);\n            investedUSD = investedUSD.sub(spentUSD);\n            mintedPerTierDiscountPoly[_tier] = mintedPerTierDiscountPoly[_tier].add(tierPurchasedTokens);\n            mintedPerTier[uint8(FundRaiseType.POLY)][_tier] = mintedPerTier[uint8(FundRaiseType.POLY)][_tier].add(tierPurchasedTokens);\n            mintedPerTierTotal[_tier] = mintedPerTierTotal[_tier].add(tierPurchasedTokens);\n        }\n        // Now, if there is any remaining USD to be invested, purchase at non-discounted rate\n        if ((investedUSD > 0) && (tokensPerTierTotal[_tier].sub(mintedPerTierTotal[_tier]) > 0)) {\n            (tierSpentUSD, tierPurchasedTokens) = _purchaseTier(_beneficiary, ratePerTier[_tier], tokensPerTierTotal[_tier].sub(mintedPerTierTotal[_tier]), investedUSD, _tier);\n            spentUSD = spentUSD.add(tierSpentUSD);\n            mintedPerTier[uint8(_fundRaiseType)][_tier] = mintedPerTier[uint8(_fundRaiseType)][_tier].add(tierPurchasedTokens);\n            mintedPerTierTotal[_tier] = mintedPerTierTotal[_tier].add(tierPurchasedTokens);\n        }\n        return spentUSD;\n    }\n\n    function _purchaseTier(\n        address _beneficiary,\n        uint256 _tierPrice,\n        uint256 _tierRemaining,\n        uint256 _investedUSD,\n        uint8 _tier\n    )\n        internal\n        returns(uint256, uint256)\n    {\n        uint256 maximumTokens = DecimalMath.div(_investedUSD, _tierPrice);\n        uint256 spentUSD;\n        uint256 purchasedTokens;\n        if (maximumTokens > _tierRemaining) {\n            spentUSD = DecimalMath.mul(_tierRemaining, _tierPrice);\n            // In case of rounding issues, ensure that spentUSD is never more than investedUSD\n            if (spentUSD > _investedUSD) {\n                spentUSD = _investedUSD;\n            }\n            purchasedTokens = _tierRemaining;\n        } else {\n            spentUSD = _investedUSD;\n            purchasedTokens = maximumTokens;\n        }\n        require(ISecurityToken(securityToken).mint(_beneficiary, purchasedTokens), \"Error in minting\");\n        emit TokenPurchase(msg.sender, _beneficiary, purchasedTokens, spentUSD, _tierPrice, _tier);\n        return (spentUSD, purchasedTokens);\n    }\n\n    /////////////\n    // Getters //\n    /////////////\n\n    /**\n     * @notice This function returns whether or not the STO is in fundraising mode (open)\n     * @return bool Whether the STO is accepting investments\n     */\n    function isOpen() public view returns(bool) {\n        if (isFinalized)\n            return false;\n        /*solium-disable-next-line security/no-block-members*/\n        if (now < startTime)\n            return false;\n        /*solium-disable-next-line security/no-block-members*/\n        if (now >= endTime)\n            return false;\n        if (capReached())\n            return false;\n        return true;\n    }\n\n    /**\n     * @notice Checks whether the cap has been reached.\n     * @return bool Whether the cap was reached\n     */\n    function capReached() public view returns (bool) {\n        if (isFinalized) {\n            return (finalAmountReturned == 0);\n        }\n        return (mintedPerTierTotal[mintedPerTierTotal.length - 1] == tokensPerTierTotal[tokensPerTierTotal.length - 1]);\n    }\n\n    function getRate(FundRaiseType _fundRaiseType) public view returns (uint256) {\n        if (_fundRaiseType == FundRaiseType.ETH) {\n            return IOracle(_getOracle(bytes32(\"ETH\"), bytes32(\"USD\"))).getPrice();\n        } else if (_fundRaiseType == FundRaiseType.POLY) {\n            return IOracle(_getOracle(bytes32(\"POLY\"), bytes32(\"USD\"))).getPrice();\n        } else if (_fundRaiseType == FundRaiseType.DAI) {\n            return 1 * 10**18;\n        } else {\n            revert(\"Incorrect funding\");\n        }\n    }\n\n    /**\n     * @notice This function converts from ETH or POLY to USD\n     * @param _fundRaiseType Currency key\n     * @param _amount Value to convert to USD\n     * @return uint256 Value in USD\n     */\n    function convertToUSD(FundRaiseType _fundRaiseType, uint256 _amount) public view returns(uint256) {\n        uint256 rate = getRate(_fundRaiseType);\n        return DecimalMath.mul(_amount, rate);\n    }\n\n    /**\n     * @notice This function converts from USD to ETH or POLY\n     * @param _fundRaiseType Currency key\n     * @param _amount Value to convert from USD\n     * @return uint256 Value in ETH or POLY\n     */\n    function convertFromUSD(FundRaiseType _fundRaiseType, uint256 _amount) public view returns(uint256) {\n        uint256 rate = getRate(_fundRaiseType);\n        return DecimalMath.div(_amount, rate);\n    }\n\n    /**\n     * @notice Return the total no. of tokens sold\n     * @return uint256 Total number of tokens sold\n     */\n    function getTokensSold() public view returns (uint256) {\n        if (isFinalized)\n            return totalTokensSold;\n        else\n            return getTokensMinted();\n    }\n\n    /**\n     * @notice Return the total no. of tokens minted\n     * @return uint256 Total number of tokens minted\n     */\n    function getTokensMinted() public view returns (uint256) {\n        uint256 tokensMinted;\n        for (uint8 i = 0; i < mintedPerTierTotal.length; i++) {\n            tokensMinted = tokensMinted.add(mintedPerTierTotal[i]);\n        }\n        return tokensMinted;\n    }\n\n    /**\n     * @notice Return the total no. of tokens sold for ETH\n     * @return uint256 Total number of tokens sold for ETH\n     */\n    function getTokensSoldFor(FundRaiseType _fundRaiseType) public view returns (uint256) {\n        uint256 tokensSold;\n        for (uint8 i = 0; i < mintedPerTier[uint8(_fundRaiseType)].length; i++) {\n            tokensSold = tokensSold.add(mintedPerTier[uint8(_fundRaiseType)][i]);\n        }\n        return tokensSold;\n    }\n\n    /**\n     * @notice Return the total no. of tiers\n     * @return uint256 Total number of tiers\n     */\n    function getNumberOfTiers() public view returns (uint256) {\n        return tokensPerTierTotal.length;\n    }\n\n    /**\n     * @notice Return the permissions flag that are associated with STO\n     */\n    function getPermissions() public view returns(bytes32[]) {\n        bytes32[] memory allPermissions = new bytes32[](0);\n        return allPermissions;\n    }\n\n    /**\n     * @notice This function returns the signature of configure function\n     * @return bytes4 Configure function signature\n     */\n    function getInitFunction() public pure returns (bytes4) {\n        return 0xb0ff041e;\n    }\n\n    function _getOracle(bytes32 _currency, bytes32 _denominatedCurrency) internal view returns (address) {\n        return PolymathRegistry(RegistryUpdater(securityToken).polymathRegistry()).getAddress(oracleKeys[_currency][_denominatedCurrency]);\n    }\n\n}\n",
  "sourcePath": "/Users/jere/Code/polymath-apps/packages/polymath-shared/scripts/generateLocalBlockchain/contracts/modules/STO/USDTieredSTO.sol",
  "compiler": {
    "name": "solc",
    "version": "0.4.24+commit.e67f0147.Emscripten.clang"
  },
  "schemaVersion": "2.0.1",
  "updatedAt": "2018-11-22T19:42:57.049Z"
}