{
  "contractName": "USDTieredSTOFactory",
  "abi": [
    {
      "constant": true,
      "inputs": [],
      "name": "monthlySubscriptionCost",
      "outputs": [
        {
          "name": "",
          "type": "uint256"
        }
      ],
      "payable": false,
      "stateMutability": "view",
      "type": "function"
    },
    {
      "constant": true,
      "inputs": [],
      "name": "name",
      "outputs": [
        {
          "name": "",
          "type": "bytes32"
        }
      ],
      "payable": false,
      "stateMutability": "view",
      "type": "function"
    },
    {
      "constant": false,
      "inputs": [
        {
          "name": "_newTitle",
          "type": "string"
        }
      ],
      "name": "changeTitle",
      "outputs": [],
      "payable": false,
      "stateMutability": "nonpayable",
      "type": "function"
    },
    {
      "constant": false,
      "inputs": [
        {
          "name": "_newSubscriptionCost",
          "type": "uint256"
        }
      ],
      "name": "changeFactorySubscriptionFee",
      "outputs": [],
      "payable": false,
      "stateMutability": "nonpayable",
      "type": "function"
    },
    {
      "constant": true,
      "inputs": [],
      "name": "title",
      "outputs": [
        {
          "name": "",
          "type": "string"
        }
      ],
      "payable": false,
      "stateMutability": "view",
      "type": "function"
    },
    {
      "constant": true,
      "inputs": [],
      "name": "version",
      "outputs": [
        {
          "name": "",
          "type": "string"
        }
      ],
      "payable": false,
      "stateMutability": "view",
      "type": "function"
    },
    {
      "constant": false,
      "inputs": [
        {
          "name": "_newSetupCost",
          "type": "uint256"
        }
      ],
      "name": "changeFactorySetupFee",
      "outputs": [],
      "payable": false,
      "stateMutability": "nonpayable",
      "type": "function"
    },
    {
      "constant": false,
      "inputs": [
        {
          "name": "_newVersion",
          "type": "string"
        }
      ],
      "name": "changeVersion",
      "outputs": [],
      "payable": false,
      "stateMutability": "nonpayable",
      "type": "function"
    },
    {
      "constant": true,
      "inputs": [],
      "name": "polyToken",
      "outputs": [
        {
          "name": "",
          "type": "address"
        }
      ],
      "payable": false,
      "stateMutability": "view",
      "type": "function"
    },
    {
      "constant": false,
      "inputs": [],
      "name": "renounceOwnership",
      "outputs": [],
      "payable": false,
      "stateMutability": "nonpayable",
      "type": "function"
    },
    {
      "constant": true,
      "inputs": [],
      "name": "description",
      "outputs": [
        {
          "name": "",
          "type": "string"
        }
      ],
      "payable": false,
      "stateMutability": "view",
      "type": "function"
    },
    {
      "constant": true,
      "inputs": [],
      "name": "setupCost",
      "outputs": [
        {
          "name": "",
          "type": "uint256"
        }
      ],
      "payable": false,
      "stateMutability": "view",
      "type": "function"
    },
    {
      "constant": true,
      "inputs": [],
      "name": "getLowerSTVersionBounds",
      "outputs": [
        {
          "name": "",
          "type": "uint8[]"
        }
      ],
      "payable": false,
      "stateMutability": "view",
      "type": "function"
    },
    {
      "constant": false,
      "inputs": [
        {
          "name": "_newName",
          "type": "bytes32"
        }
      ],
      "name": "changeName",
      "outputs": [],
      "payable": false,
      "stateMutability": "nonpayable",
      "type": "function"
    },
    {
      "constant": true,
      "inputs": [],
      "name": "owner",
      "outputs": [
        {
          "name": "",
          "type": "address"
        }
      ],
      "payable": false,
      "stateMutability": "view",
      "type": "function"
    },
    {
      "constant": false,
      "inputs": [
        {
          "name": "_newUsageCost",
          "type": "uint256"
        }
      ],
      "name": "changeFactoryUsageFee",
      "outputs": [],
      "payable": false,
      "stateMutability": "nonpayable",
      "type": "function"
    },
    {
      "constant": true,
      "inputs": [],
      "name": "usageCost",
      "outputs": [
        {
          "name": "",
          "type": "uint256"
        }
      ],
      "payable": false,
      "stateMutability": "view",
      "type": "function"
    },
    {
      "constant": true,
      "inputs": [],
      "name": "USDTieredSTOProxyAddress",
      "outputs": [
        {
          "name": "",
          "type": "address"
        }
      ],
      "payable": false,
      "stateMutability": "view",
      "type": "function"
    },
    {
      "constant": false,
      "inputs": [
        {
          "name": "_newDesc",
          "type": "string"
        }
      ],
      "name": "changeDescription",
      "outputs": [],
      "payable": false,
      "stateMutability": "nonpayable",
      "type": "function"
    },
    {
      "constant": false,
      "inputs": [
        {
          "name": "_newOwner",
          "type": "address"
        }
      ],
      "name": "transferOwnership",
      "outputs": [],
      "payable": false,
      "stateMutability": "nonpayable",
      "type": "function"
    },
    {
      "constant": true,
      "inputs": [],
      "name": "getUpperSTVersionBounds",
      "outputs": [
        {
          "name": "",
          "type": "uint8[]"
        }
      ],
      "payable": false,
      "stateMutability": "view",
      "type": "function"
    },
    {
      "constant": false,
      "inputs": [
        {
          "name": "_boundType",
          "type": "string"
        },
        {
          "name": "_newVersion",
          "type": "uint8[]"
        }
      ],
      "name": "changeSTVersionBounds",
      "outputs": [],
      "payable": false,
      "stateMutability": "nonpayable",
      "type": "function"
    },
    {
      "inputs": [
        {
          "name": "_polyAddress",
          "type": "address"
        },
        {
          "name": "_setupCost",
          "type": "uint256"
        },
        {
          "name": "_usageCost",
          "type": "uint256"
        },
        {
          "name": "_subscriptionCost",
          "type": "uint256"
        },
        {
          "name": "_proxyFactoryAddress",
          "type": "address"
        }
      ],
      "payable": false,
      "stateMutability": "nonpayable",
      "type": "constructor"
    },
    {
      "anonymous": false,
      "inputs": [
        {
          "indexed": false,
          "name": "_oldSetupCost",
          "type": "uint256"
        },
        {
          "indexed": false,
          "name": "_newSetupCost",
          "type": "uint256"
        },
        {
          "indexed": false,
          "name": "_moduleFactory",
          "type": "address"
        }
      ],
      "name": "ChangeFactorySetupFee",
      "type": "event"
    },
    {
      "anonymous": false,
      "inputs": [
        {
          "indexed": false,
          "name": "_oldUsageCost",
          "type": "uint256"
        },
        {
          "indexed": false,
          "name": "_newUsageCost",
          "type": "uint256"
        },
        {
          "indexed": false,
          "name": "_moduleFactory",
          "type": "address"
        }
      ],
      "name": "ChangeFactoryUsageFee",
      "type": "event"
    },
    {
      "anonymous": false,
      "inputs": [
        {
          "indexed": false,
          "name": "_oldSubscriptionCost",
          "type": "uint256"
        },
        {
          "indexed": false,
          "name": "_newMonthlySubscriptionCost",
          "type": "uint256"
        },
        {
          "indexed": false,
          "name": "_moduleFactory",
          "type": "address"
        }
      ],
      "name": "ChangeFactorySubscriptionFee",
      "type": "event"
    },
    {
      "anonymous": false,
      "inputs": [
        {
          "indexed": false,
          "name": "_module",
          "type": "address"
        },
        {
          "indexed": true,
          "name": "_moduleName",
          "type": "bytes32"
        },
        {
          "indexed": true,
          "name": "_moduleFactory",
          "type": "address"
        },
        {
          "indexed": false,
          "name": "_creator",
          "type": "address"
        },
        {
          "indexed": false,
          "name": "_timestamp",
          "type": "uint256"
        }
      ],
      "name": "GenerateModuleFromFactory",
      "type": "event"
    },
    {
      "anonymous": false,
      "inputs": [
        {
          "indexed": false,
          "name": "_boundType",
          "type": "string"
        },
        {
          "indexed": false,
          "name": "_major",
          "type": "uint8"
        },
        {
          "indexed": false,
          "name": "_minor",
          "type": "uint8"
        },
        {
          "indexed": false,
          "name": "_patch",
          "type": "uint8"
        }
      ],
      "name": "ChangeSTVersionBound",
      "type": "event"
    },
    {
      "anonymous": false,
      "inputs": [
        {
          "indexed": true,
          "name": "previousOwner",
          "type": "address"
        }
      ],
      "name": "OwnershipRenounced",
      "type": "event"
    },
    {
      "anonymous": false,
      "inputs": [
        {
          "indexed": true,
          "name": "previousOwner",
          "type": "address"
        },
        {
          "indexed": true,
          "name": "newOwner",
          "type": "address"
        }
      ],
      "name": "OwnershipTransferred",
      "type": "event"
    },
    {
      "anonymous": false,
      "inputs": [
        {
          "indexed": false,
          "name": "_module",
          "type": "address"
        },
        {
          "indexed": true,
          "name": "_moduleName",
          "type": "bytes32"
        },
        {
          "indexed": true,
          "name": "_moduleFactory",
          "type": "address"
        },
        {
          "indexed": false,
          "name": "_creator",
          "type": "address"
        },
        {
          "indexed": false,
          "name": "_setupCost",
          "type": "uint256"
        },
        {
          "indexed": false,
          "name": "_timestamp",
          "type": "uint256"
        }
      ],
      "name": "GenerateModuleFromFactory",
      "type": "event"
    },
    {
      "constant": false,
      "inputs": [
        {
          "name": "_data",
          "type": "bytes"
        }
      ],
      "name": "deploy",
      "outputs": [
        {
          "name": "",
          "type": "address"
        }
      ],
      "payable": false,
      "stateMutability": "nonpayable",
      "type": "function"
    },
    {
      "constant": true,
      "inputs": [],
      "name": "getTypes",
      "outputs": [
        {
          "name": "",
          "type": "uint8[]"
        }
      ],
      "payable": false,
      "stateMutability": "view",
      "type": "function"
    },
    {
      "constant": true,
      "inputs": [],
      "name": "getName",
      "outputs": [
        {
          "name": "",
          "type": "bytes32"
        }
      ],
      "payable": false,
      "stateMutability": "view",
      "type": "function"
    },
    {
      "constant": true,
      "inputs": [],
      "name": "getDescription",
      "outputs": [
        {
          "name": "",
          "type": "string"
        }
      ],
      "payable": false,
      "stateMutability": "view",
      "type": "function"
    },
    {
      "constant": true,
      "inputs": [],
      "name": "getTitle",
      "outputs": [
        {
          "name": "",
          "type": "string"
        }
      ],
      "payable": false,
      "stateMutability": "view",
      "type": "function"
    },
    {
      "constant": true,
      "inputs": [],
      "name": "getVersion",
      "outputs": [
        {
          "name": "",
          "type": "string"
        }
      ],
      "payable": false,
      "stateMutability": "view",
      "type": "function"
    },
    {
      "constant": true,
      "inputs": [],
      "name": "getSetupCost",
      "outputs": [
        {
          "name": "",
          "type": "uint256"
        }
      ],
      "payable": false,
      "stateMutability": "view",
      "type": "function"
    },
    {
      "constant": true,
      "inputs": [],
      "name": "getInstructions",
      "outputs": [
        {
          "name": "",
          "type": "string"
        }
      ],
      "payable": false,
      "stateMutability": "view",
      "type": "function"
    },
    {
      "constant": true,
      "inputs": [],
      "name": "getTags",
      "outputs": [
        {
          "name": "",
          "type": "bytes32[]"
        }
      ],
      "payable": false,
      "stateMutability": "view",
      "type": "function"
    }
  ],
  "bytecode": "0x60806040523480156200001157600080fd5b5060405160a08062001f9b8339810160409081528151602083015191830151606084015160809094015160008054600160a060020a0319908116331790915560018054600160a060020a03808716919093161790556002859055600383905560048690559294919281161515620000e957604080517f08c379a000000000000000000000000000000000000000000000000000000000815260206004820152601960248201527f30782061646472657373206973206e6f7420616c6c6f77656400000000000000604482015290519081900360640190fd5b600a8054600160a060020a031916600160a060020a0383161790556040805180820190915260058082527f312e302e3000000000000000000000000000000000000000000000000000000060209092019182526200014a91600691620002fe565b507f55534454696572656453544f000000000000000000000000000000000000000060075560408051808201909152600e8082527f555344205469657265642053544f0000000000000000000000000000000000006020909201918252620001b591600891620002fe565b5060408051808201909152600e8082527f555344205469657265642053544f0000000000000000000000000000000000006020909201918252620001fc91600591620002fe565b50620002196000808064010000000062001b13620002e382021704565b604080517f6c6f776572426f756e640000000000000000000000000000000000000000000081526009600a820152905190819003602a019020805462ffffff9290921662ffffff19909216919091179055620002866000808064010000000062001b13620002e382021704565b604080517f7570706572426f756e640000000000000000000000000000000000000000000081526009600a820152905190819003602a019020805462ffffff9290921662ffffff1990921691909117905550620003a39350505050565b60ff9081169181166101000292166201000002919091171790565b828054600181600116156101000203166002900490600052602060002090601f016020900481019282601f106200034157805160ff191683800117855562000371565b8280016001018555821562000371579182015b828111156200037157825182559160200191906001019062000354565b506200037f92915062000383565b5090565b620003a091905b808211156200037f57600081556001016200038a565b90565b611be880620003b36000396000f3006080604052600436106101705763ffffffff60e060020a600035041662774360811461017557806306184a25146101b157806306fdde03146101d85780630d8e6e2c146101ed57806317d7de7c146102775780631a0925411461028c5780632dbe07c7146102a15780633ae192bd146102fc5780634a79d50c1461031457806354fd4d501461032957806358a191c31461033e57806364bb432c146103565780636faa22a5146103af578063715018a6146103c45780637284e416146103d95780637e363ffa146103ee5780638677768f14610403578063898855ed146104685780638da5cb5b14610480578063995d9ab714610495578063a5e9d7c9146104aa578063aac67b05146104bf578063b4579d60146104d7578063d54c4726146104ec578063d6a4007614610501578063e0d5497014610516578063e61204131461052b578063f2fde38b14610584578063f7862999146105a5578063fb972456146105ba578063ff3c1a8f146105e6575b600080fd5b34801561018157600080fd5b5061019560048035602481019101356105fb565b60408051600160a060020a039092168252519081900360200190f35b3480156101bd57600080fd5b506101c6610a7f565b60408051918252519081900360200190f35b3480156101e457600080fd5b506101c6610a85565b3480156101f957600080fd5b50610202610a8b565b6040805160208082528351818301528351919283929083019185019080838360005b8381101561023c578181015183820152602001610224565b50505050905090810190601f1680156102695780820380516001836020036101000a031916815260200191505b509250505060405180910390f35b34801561028357600080fd5b506101c6610b22565b34801561029857600080fd5b50610202610b28565b3480156102ad57600080fd5b506040805160206004803580820135601f81018490048402850184019095528484526102fa943694929360249392840191908190840183828082843750949750610b899650505050505050565b005b34801561030857600080fd5b506102fa600435610bc5565b34801561032057600080fd5b50610202610c22565b34801561033557600080fd5b50610202610cb0565b34801561034a57600080fd5b506102fa600435610d0b565b34801561036257600080fd5b506040805160206004803580820135601f81018490048402850184019095528484526102fa943694929360249392840191908190840183828082843750949750610d689650505050505050565b3480156103bb57600080fd5b50610195610da0565b3480156103d057600080fd5b506102fa610daf565b3480156103e557600080fd5b50610202610e1b565b3480156103fa57600080fd5b506101c6610e76565b34801561040f57600080fd5b50610418610e7c565b60408051602080825283518183015283519192839290830191858101910280838360005b8381101561045457818101518382015260200161043c565b505050509050019250505060405180910390f35b34801561047457600080fd5b506102fa600435610ecc565b34801561048c57600080fd5b50610195610ef4565b3480156104a157600080fd5b50610418610f03565b3480156104b657600080fd5b506101c661101c565b3480156104cb57600080fd5b506102fa600435611022565b3480156104e357600080fd5b5061041861107f565b3480156104f857600080fd5b506101c66110cb565b34801561050d57600080fd5b506101956110d1565b34801561052257600080fd5b506102026110e0565b34801561053757600080fd5b506040805160206004803580820135601f81018490048402850184019095528484526102fa9436949293602493928401919081908401838280828437509497506111179650505050505050565b34801561059057600080fd5b506102fa600160a060020a036004351661114f565b3480156105b157600080fd5b50610418611172565b3480156105c657600080fd5b506102fa60246004803582810192908201359181359182019101356111bd565b3480156105f257600080fd5b506102026116fc565b600080600060025411156107305760015460008054600254604080517f23b872dd000000000000000000000000000000000000000000000000000000008152336004820152600160a060020a03938416602482015260448101929092525191909316926323b872dd9260648083019360209390929083900390910190829087803b15801561068857600080fd5b505af115801561069c573d6000803e3d6000fd5b505050506040513d60208110156106b257600080fd5b50511515610730576040805160e560020a62461bcd02815260206004820152602360248201527f537566666963656e7420416c6c6f77616e6365206973206e6f742070726f766960448201527f6465640000000000000000000000000000000000000000000000000000000000606482015290519081900360840190fd5b600a54600160a060020a03161515610792576040805160e560020a62461bcd02815260206004820181905260248201527f50726f787920636f6e74726163742073686f756c64206265207072652d736574604482015290519081900360640190fd5b600a54600154604080517fb9f6f066000000000000000000000000000000000000000000000000000000008152336004820152600160a060020a0392831660248201523060448201529051919092169163b9f6f0669160648083019260209291908290030181600087803b15801561080957600080fd5b505af115801561081d573d6000803e3d6000fd5b505050506040513d602081101561083357600080fd5b5051600a54604080517f6d91f826000000000000000000000000000000000000000000000000000000008152600160a060020a0380851660048301529151939450911691636d91f826916024808201926020929091908290030181600087803b15801561089f57600080fd5b505af11580156108b3573d6000803e3d6000fd5b505050506040513d60208110156108c957600080fd5b5051604080516020601f87018190048102820181019092528581527bffffffffffffffffffffffffffffffffffffffffffffffffffffffff19909216916109249187908790819084018382808284375061175d945050505050565b7bffffffffffffffffffffffffffffffffffffffffffffffffffffffff191614610998576040805160e560020a62461bcd02815260206004820152600c60248201527f496e76616c696420646174610000000000000000000000000000000000000000604482015290519081900360640190fd5b80600160a060020a03168484604051808383808284378201915050925050506000604051808303816000865af19150501515610a1e576040805160e560020a62461bcd02815260206004820152601260248201527f556e7375636365737366756c6c2063616c6c0000000000000000000000000000604482015290519081900360640190fd5b30610a27610b22565b60025460408051600160a060020a038616815233602082015280820192909252426060830152517fb68b4973fbce93f056103272c1f3f53b607527138d7e323b7b94f7ac169ebf779181900360800190a39392505050565b60045481565b60075481565b60068054604080516020601f6002600019610100600188161502019095169490940493840181900481028201810190925282815260609390929091830182828015610b175780601f10610aec57610100808354040283529160200191610b17565b820191906000526020600020905b815481529060010190602001808311610afa57829003601f168201915b505050505090505b90565b60075490565b60058054604080516020601f6002600019610100600188161502019095169490940493840181900481028201810190925282815260609390929091830182828015610b175780601f10610aec57610100808354040283529160200191610b17565b600054600160a060020a03163314610ba057600080fd5b8051600010610bae57600080fd5b8051610bc1906008906020840190611b2e565b5050565b600054600160a060020a03163314610bdc57600080fd5b60045460408051918252602082018390523082820152517fb14468ff50b0c356f5373be0ef0791de71449aaf8ac5ca096049b7ac79d0b1139181900360600190a1600455565b6008805460408051602060026001851615610100026000190190941693909304601f81018490048402820184019092528181529291830182828015610ca85780601f10610c7d57610100808354040283529160200191610ca8565b820191906000526020600020905b815481529060010190602001808311610c8b57829003601f168201915b505050505081565b6006805460408051602060026001851615610100026000190190941693909304601f81018490048402820184019092528181529291830182828015610ca85780601f10610c7d57610100808354040283529160200191610ca8565b600054600160a060020a03163314610d2257600080fd5b60025460408051918252602082018390523082820152517f9672983540fb671cd7c0c946255b4dc769a3e557a25ef91ca7c98995c8d694b69181900360600190a1600255565b600054600160a060020a03163314610d7f57600080fd5b8051600010610d8d57600080fd5b8051610bc1906006906020840190611b2e565b600154600160a060020a031681565b600054600160a060020a03163314610dc657600080fd5b60008054604051600160a060020a03909116917ff8df31144d9c2f0f6b59d69b8b98abd5459d07f2742c4df920b25aae33c6482091a26000805473ffffffffffffffffffffffffffffffffffffffff19169055565b6005805460408051602060026001851615610100026000190190941693909304601f81018490048402820184019092528181529291830182828015610ca85780601f10610c7d57610100808354040283529160200191610ca8565b60025481565b604080517f6c6f776572426f756e640000000000000000000000000000000000000000000081526009600a820152905190819003602a01902054606090610ec79062ffffff166117de565b905090565b600054600160a060020a03163314610ee357600080fd5b801515610eef57600080fd5b600755565b600054600160a060020a031681565b60408051600480825260a08201909252606091829190602082016080803883390190505090507f5553440000000000000000000000000000000000000000000000000000000000816000815181101515610f5957fe5b6020908102909101015280517f54696572656400000000000000000000000000000000000000000000000000009082906001908110610f9457fe5b6020908102909101015280517f504f4c59000000000000000000000000000000000000000000000000000000009082906002908110610fcf57fe5b6020908102909101015280517f4554480000000000000000000000000000000000000000000000000000000000908290600390811061100a57fe5b602090810290910101529050805b5090565b60025490565b600054600160a060020a0316331461103957600080fd5b60035460408051918252602082018390523082820152517fc39ec4e85127e00b5b203f9c40814616d5977d8de85e6e0717e5ca4b0896206c9181900360600190a1600355565b6040805160018082528183019092526060918291906020808301908038833901905050905060038160008151811015156110b557fe5b60ff909216602092830290910190910152905090565b60035481565b600a54600160a060020a031681565b60408051808201909152601d81527f496e697469616c69736573206120555344207469657265642053544f2e000000602082015290565b600054600160a060020a0316331461112e57600080fd5b805160001061113c57600080fd5b8051610bc1906005906020840190611b2e565b600054600160a060020a0316331461116657600080fd5b61116f81611883565b50565b604080517f7570706572426f756e640000000000000000000000000000000000000000000081526009600a820152905190819003602a01902054606090610ec79062ffffff166117de565b600054606090600160a060020a031633146111d757600080fd5b60405160200180807f6c6f776572426f756e6400000000000000000000000000000000000000000000815250600a0190506040516020818303038152906040526040518082805190602001908083835b602083106112465780518252601f199092019160209182019101611227565b51815160209384036101000a600019018019909216911617905260405191909301819003812094508993508892019050808383808284378201915050925050506040516020818303038152906040526040518082805190602001908083835b602083106112c45780518252601f1990920191602091820191016112a5565b6001836020036101000a038019825116818451168082178552505050505050905001915050604051809103902060001916148061141c575060405160200180807f7570706572426f756e6400000000000000000000000000000000000000000000815250600a0190506040516020818303038152906040526040518082805190602001908083835b6020831061136b5780518252601f19909201916020918201910161134c565b51815160209384036101000a600019018019909216911617905260405191909301819003812094508993508892019050808383808284378201915050925050506040516020818303038152906040526040518082805190602001908083835b602083106113e95780518252601f1990920191602091820191016113ca565b6001836020036101000a038019825116818451168082178552505050505050905001915050604051809103902060001916145b1515611472576040805160e560020a62461bcd02815260206004820152601a60248201527f4d75737420626520612076616c696420626f756e642074797065000000000000604482015290519081900360640190fd5b6003821461147f57600080fd5b600062ffffff1660098686604051808383808284379091019485525050604051928390036020019092205462ffffff169290921491506115a59050576114f060098686604051808383808284379091019485525050604051928390036020019092205462ffffff1691506117de9050565b90506115298184848080602002602001604051908101604052809392919081815260200183836020028082843750611900945050505050565b15156115a5576040805160e560020a62461bcd02815260206004820152602260248201527f4661696c65642062656361757365206f6620696e2d76616c696420766572736960448201527f6f6e000000000000000000000000000000000000000000000000000000000000606482015290519081900360840190fd5b6115f6838360008181106115b557fe5b9050602002013560ff168484600181811015156115ce57fe5b9050602002013560ff168585600281811015156115e757fe5b9050602002013560ff16611b13565b6009868660405180838380828437909101948552505060405192839003602001909220805462ffffff9490941662ffffff1990941693909317909255507f5b67e16edaf7fc70c8d065ea6e70b97ed944d98fe593b04d682216615a3b04db905085858585600081811061166557fe5b9050602002013560ff1686866001818110151561167e57fe5b9050602002013560ff1687876002818110151561169757fe5b9050602002013560ff1660405180806020018560ff1660ff1681526020018460ff1660ff1681526020018360ff1660ff168152602001828103825287878281815260200192508082843760405192018290039850909650505050505050a15050505050565b60088054604080516020601f6002600019610100600188161502019095169490940493840181900481028201810190925282815260609390929091830182828015610b175780601f10610aec57610100808354040283529160200191610b17565b60008060006004845110611772576004611775565b83515b9150600090505b818110156117d75780600183030360080260020a848281518110151561179e57fe5b90602001015160f860020a900460f860020a0260f860020a9004028360e060020a90040160e060020a029250808060010191505061177c565b5050919050565b6040805160038082526080820190925260609182919060208201838038833950508151919250506201000062ffffff851604908290600090811061181e57fe5b60ff909216602092830290910190910152805161010062ffffff851604908290600190811061184957fe5b60ff909216602092830290910190910152805183908290600290811061186b57fe5b60ff9092166020928302909101909101529050919050565b600160a060020a038116151561189857600080fd5b60008054604051600160a060020a03808516939216917f8be0079c531659141344cd1fd0a4f28419497f9722a3daafe3b4186f6b6457e091a36000805473ffffffffffffffffffffffffffffffffffffffff1916600160a060020a0392909216919091179055565b600060606000808551604051908082528060200260200182016040528015611932578160200160208202803883390190505b50925060009150600090505b85518160ff1610156119de57848160ff1681518110151561195b57fe5b9060200190602002015160ff16868260ff1681518110151561197957fe5b9060200190602002015160ff1610156119b3576001838260ff1681518110151561199f57fe5b9115156020928302909101909101526119d6565b6000838260ff168151811015156119c657fe5b9115156020928302909101909101525b60010161193e565b5060005b85518160ff161015611af95760ff81161515611a7b57848160ff16815181101515611a0957fe5b9060200190602002015160ff16868260ff16815181101515611a2757fe5b6020908102909101015160ff1611611a6d57826000815181101515611a4857fe5b9060200190602002015115611a6257816003019150611af9565b600190910190611a76565b60009350611b0a565b611af1565b826001820360ff16815181101515611a8f57fe5b9060200190602002015115611aa957600190910190611af1565b848160ff16815181101515611aba57fe5b9060200190602002015160ff16868260ff16815181101515611ad857fe5b6020908102909101015160ff1611611a6d576001909101905b6001016119e2565b85518260ff161415611b0a57600193505b50505092915050565b60ff9081169181166101000292166201000002919091171790565b828054600181600116156101000203166002900490600052602060002090601f016020900481019282601f10611b6f57805160ff1916838001178555611b9c565b82800160010185558215611b9c579182015b82811115611b9c578251825591602001919060010190611b81565b5061101892610b1f9250905b808211156110185760008155600101611ba85600a165627a7a72305820c47826d83caafc3afecd3db9e460db42bcf48d73ae8b8db7e420333572dab79e0029",
  "source": "pragma solidity ^0.4.24;\n\nimport \"../../interfaces/IUSDTieredSTOProxy.sol\";\nimport \"../ModuleFactory.sol\";\nimport \"../../libraries/Util.sol\";\n\n/**\n * @title Factory for deploying CappedSTO module\n */\ncontract USDTieredSTOFactory is ModuleFactory {\n\n    address public USDTieredSTOProxyAddress;\n\n    /**\n     * @notice Constructor\n     * @param _polyAddress Address of the polytoken\n     */\n    constructor (address _polyAddress, uint256 _setupCost, uint256 _usageCost, uint256 _subscriptionCost, address _proxyFactoryAddress) public\n    ModuleFactory(_polyAddress, _setupCost, _usageCost, _subscriptionCost)\n    {\n        require(_proxyFactoryAddress != address(0), \"0x address is not allowed\");\n        USDTieredSTOProxyAddress = _proxyFactoryAddress;\n        version = \"1.0.0\";\n        name = \"USDTieredSTO\";\n        title = \"USD Tiered STO\";\n        description = \"USD Tiered STO\";\n        compatibleSTVersionRange[\"lowerBound\"] = VersionUtils.pack(uint8(0), uint8(0), uint8(0));\n        compatibleSTVersionRange[\"upperBound\"] = VersionUtils.pack(uint8(0), uint8(0), uint8(0));\n    }\n\n     /**\n     * @notice used to launch the Module with the help of factory\n     * @return address Contract address of the Module\n     */\n    function deploy(bytes _data) external returns(address) {\n        if(setupCost > 0)\n            require(polyToken.transferFrom(msg.sender, owner, setupCost), \"Sufficent Allowance is not provided\");\n        require(USDTieredSTOProxyAddress != address(0), \"Proxy contract should be pre-set\");\n        //Check valid bytes - can only call module init function\n        address usdTieredSTO = IUSDTieredSTOProxy(USDTieredSTOProxyAddress).deploySTO(msg.sender, address(polyToken), address(this));\n        //Checks that _data is valid (not calling anything it shouldn't)\n        require(Util.getSig(_data) == IUSDTieredSTOProxy(USDTieredSTOProxyAddress).getInitFunction(usdTieredSTO), \"Invalid data\");\n        require(address(usdTieredSTO).call(_data), \"Unsuccessfull call\");\n        emit GenerateModuleFromFactory(usdTieredSTO, getName(), address(this), msg.sender, setupCost, now);\n        return address(usdTieredSTO);\n        // return 0xca35b7d915458ef540ade6068dfe2f44e8fa733c;\n    }\n\n    /**\n     * @notice Type of the Module factory\n     */\n    function getTypes() external view returns(uint8[]) {\n        uint8[] memory res = new uint8[](1);\n        res[0] = 3;\n        return res;\n    }\n\n    /**\n     * @notice Get the name of the Module\n     */\n    function getName() public view returns(bytes32) {\n        return name;\n    }\n\n    /**\n     * @notice Get the description of the Module\n     */\n    function getDescription() external view returns(string) {\n        return description;\n    }\n\n    /**\n     * @notice Get the title of the Module\n     */\n    function getTitle() external view returns(string) {\n        return title;\n    }\n\n    /**\n     * @notice Get the version of the Module\n     */\n    function getVersion() external view returns(string) {\n        return version;\n    }\n\n    /**\n     * @notice Get the setup cost of the module\n     */\n    function getSetupCost() external view returns (uint256) {\n        return setupCost;\n    }\n\n    /**\n     * @notice Get the Instructions that helped to used the module\n     */\n    function getInstructions() external view returns(string) {\n        return \"Initialises a USD tiered STO.\";\n    }\n\n    /**\n     * @notice Get the tags related to the module factory\n     */\n    function getTags() external view returns(bytes32[]) {\n        bytes32[] memory availableTags = new bytes32[](4);\n        availableTags[0] = \"USD\";\n        availableTags[1] = \"Tiered\";\n        availableTags[2] = \"POLY\";\n        availableTags[3] = \"ETH\";\n        return availableTags;\n    }\n\n}\n",
  "sourcePath": "/Users/jere/Code/polymath-apps/packages/polymath-shared/scripts/generateLocalBlockchain/contracts/modules/STO/USDTieredSTOFactory.sol",
  "compiler": {
    "name": "solc",
    "version": "0.4.24+commit.e67f0147.Emscripten.clang"
  },
  "schemaVersion": "2.0.1",
  "updatedAt": "2018-10-23T22:45:12.997Z"
}