{
  "contractName": "USDTieredSTO",
  "abi": [
    {
      "constant": true,
      "inputs": [
        {
          "name": "",
          "type": "uint256"
        }
      ],
      "name": "ratePerTier",
      "outputs": [
        {
          "name": "",
          "type": "uint256"
        }
      ],
      "payable": false,
      "stateMutability": "view",
      "type": "function"
    },
    {
      "constant": true,
      "inputs": [],
      "name": "fundsRaisedPOLY",
      "outputs": [
        {
          "name": "",
          "type": "uint256"
        }
      ],
      "payable": false,
      "stateMutability": "view",
      "type": "function"
    },
    {
      "constant": true,
      "inputs": [
        {
          "name": "",
          "type": "uint256"
        }
      ],
      "name": "mintedPerTierDiscountPoly",
      "outputs": [
        {
          "name": "",
          "type": "uint256"
        }
      ],
      "payable": false,
      "stateMutability": "view",
      "type": "function"
    },
    {
      "constant": true,
      "inputs": [],
      "name": "endTime",
      "outputs": [
        {
          "name": "",
          "type": "uint256"
        }
      ],
      "payable": false,
      "stateMutability": "view",
      "type": "function"
    },
    {
      "constant": true,
      "inputs": [
        {
          "name": "",
          "type": "uint256"
        }
      ],
      "name": "mintedPerTierETH",
      "outputs": [
        {
          "name": "",
          "type": "uint256"
        }
      ],
      "payable": false,
      "stateMutability": "view",
      "type": "function"
    },
    {
      "constant": false,
      "inputs": [],
      "name": "unpause",
      "outputs": [],
      "payable": false,
      "stateMutability": "nonpayable",
      "type": "function"
    },
    {
      "constant": true,
      "inputs": [],
      "name": "nonAccreditedLimitUSD",
      "outputs": [
        {
          "name": "",
          "type": "uint256"
        }
      ],
      "payable": false,
      "stateMutability": "view",
      "type": "function"
    },
    {
      "constant": true,
      "inputs": [
        {
          "name": "",
          "type": "uint256"
        }
      ],
      "name": "tokensPerTierDiscountPoly",
      "outputs": [
        {
          "name": "",
          "type": "uint256"
        }
      ],
      "payable": false,
      "stateMutability": "view",
      "type": "function"
    },
    {
      "constant": true,
      "inputs": [],
      "name": "wallet",
      "outputs": [
        {
          "name": "",
          "type": "address"
        }
      ],
      "payable": false,
      "stateMutability": "view",
      "type": "function"
    },
    {
      "constant": true,
      "inputs": [],
      "name": "paused",
      "outputs": [
        {
          "name": "",
          "type": "bool"
        }
      ],
      "payable": false,
      "stateMutability": "view",
      "type": "function"
    },
    {
      "constant": false,
      "inputs": [
        {
          "name": "_amount",
          "type": "uint256"
        }
      ],
      "name": "takeFee",
      "outputs": [
        {
          "name": "",
          "type": "bool"
        }
      ],
      "payable": false,
      "stateMutability": "nonpayable",
      "type": "function"
    },
    {
      "constant": true,
      "inputs": [],
      "name": "finalAmountReturned",
      "outputs": [
        {
          "name": "",
          "type": "uint256"
        }
      ],
      "payable": false,
      "stateMutability": "view",
      "type": "function"
    },
    {
      "constant": true,
      "inputs": [],
      "name": "polyToken",
      "outputs": [
        {
          "name": "",
          "type": "address"
        }
      ],
      "payable": false,
      "stateMutability": "view",
      "type": "function"
    },
    {
      "constant": true,
      "inputs": [
        {
          "name": "",
          "type": "uint256"
        }
      ],
      "name": "ratePerTierDiscountPoly",
      "outputs": [
        {
          "name": "",
          "type": "uint256"
        }
      ],
      "payable": false,
      "stateMutability": "view",
      "type": "function"
    },
    {
      "constant": true,
      "inputs": [],
      "name": "finalAmountSold",
      "outputs": [
        {
          "name": "",
          "type": "uint256"
        }
      ],
      "payable": false,
      "stateMutability": "view",
      "type": "function"
    },
    {
      "constant": true,
      "inputs": [],
      "name": "fundsRaisedETH",
      "outputs": [
        {
          "name": "",
          "type": "uint256"
        }
      ],
      "payable": false,
      "stateMutability": "view",
      "type": "function"
    },
    {
      "constant": true,
      "inputs": [],
      "name": "startTime",
      "outputs": [
        {
          "name": "",
          "type": "uint256"
        }
      ],
      "payable": false,
      "stateMutability": "view",
      "type": "function"
    },
    {
      "constant": true,
      "inputs": [
        {
          "name": "",
          "type": "address"
        }
      ],
      "name": "accredited",
      "outputs": [
        {
          "name": "",
          "type": "bool"
        }
      ],
      "payable": false,
      "stateMutability": "view",
      "type": "function"
    },
    {
      "constant": false,
      "inputs": [],
      "name": "pause",
      "outputs": [],
      "payable": false,
      "stateMutability": "nonpayable",
      "type": "function"
    },
    {
      "constant": false,
      "inputs": [
        {
          "name": "_tokenContract",
          "type": "address"
        }
      ],
      "name": "reclaimERC20",
      "outputs": [],
      "payable": false,
      "stateMutability": "nonpayable",
      "type": "function"
    },
    {
      "constant": true,
      "inputs": [
        {
          "name": "",
          "type": "uint256"
        }
      ],
      "name": "mintedPerTierTotal",
      "outputs": [
        {
          "name": "",
          "type": "uint256"
        }
      ],
      "payable": false,
      "stateMutability": "view",
      "type": "function"
    },
    {
      "constant": true,
      "inputs": [],
      "name": "isFinalized",
      "outputs": [
        {
          "name": "",
          "type": "bool"
        }
      ],
      "payable": false,
      "stateMutability": "view",
      "type": "function"
    },
    {
      "constant": true,
      "inputs": [],
      "name": "ETH_ORACLE",
      "outputs": [
        {
          "name": "",
          "type": "string"
        }
      ],
      "payable": false,
      "stateMutability": "view",
      "type": "function"
    },
    {
      "constant": true,
      "inputs": [
        {
          "name": "",
          "type": "uint256"
        }
      ],
      "name": "mintedPerTierRegularPoly",
      "outputs": [
        {
          "name": "",
          "type": "uint256"
        }
      ],
      "payable": false,
      "stateMutability": "view",
      "type": "function"
    },
    {
      "constant": true,
      "inputs": [
        {
          "name": "_beneficiary",
          "type": "address"
        },
        {
          "name": "_fundsAmount",
          "type": "uint256"
        }
      ],
      "name": "verifyInvestment",
      "outputs": [
        {
          "name": "",
          "type": "bool"
        }
      ],
      "payable": false,
      "stateMutability": "view",
      "type": "function"
    },
    {
      "constant": true,
      "inputs": [],
      "name": "POLY_ORACLE",
      "outputs": [
        {
          "name": "",
          "type": "string"
        }
      ],
      "payable": false,
      "stateMutability": "view",
      "type": "function"
    },
    {
      "constant": true,
      "inputs": [],
      "name": "pausedTime",
      "outputs": [
        {
          "name": "",
          "type": "uint256"
        }
      ],
      "payable": false,
      "stateMutability": "view",
      "type": "function"
    },
    {
      "constant": true,
      "inputs": [],
      "name": "securityToken",
      "outputs": [
        {
          "name": "",
          "type": "address"
        }
      ],
      "payable": false,
      "stateMutability": "view",
      "type": "function"
    },
    {
      "constant": true,
      "inputs": [
        {
          "name": "",
          "type": "address"
        }
      ],
      "name": "investorInvestedPOLY",
      "outputs": [
        {
          "name": "",
          "type": "uint256"
        }
      ],
      "payable": false,
      "stateMutability": "view",
      "type": "function"
    },
    {
      "constant": true,
      "inputs": [],
      "name": "factory",
      "outputs": [
        {
          "name": "",
          "type": "address"
        }
      ],
      "payable": false,
      "stateMutability": "view",
      "type": "function"
    },
    {
      "constant": true,
      "inputs": [
        {
          "name": "",
          "type": "address"
        }
      ],
      "name": "investorInvestedUSD",
      "outputs": [
        {
          "name": "",
          "type": "uint256"
        }
      ],
      "payable": false,
      "stateMutability": "view",
      "type": "function"
    },
    {
      "constant": true,
      "inputs": [],
      "name": "currentTier",
      "outputs": [
        {
          "name": "",
          "type": "uint8"
        }
      ],
      "payable": false,
      "stateMutability": "view",
      "type": "function"
    },
    {
      "constant": true,
      "inputs": [],
      "name": "FEE_ADMIN",
      "outputs": [
        {
          "name": "",
          "type": "bytes32"
        }
      ],
      "payable": false,
      "stateMutability": "view",
      "type": "function"
    },
    {
      "constant": true,
      "inputs": [],
      "name": "reserveWallet",
      "outputs": [
        {
          "name": "",
          "type": "address"
        }
      ],
      "payable": false,
      "stateMutability": "view",
      "type": "function"
    },
    {
      "constant": true,
      "inputs": [],
      "name": "investorCount",
      "outputs": [
        {
          "name": "",
          "type": "uint256"
        }
      ],
      "payable": false,
      "stateMutability": "view",
      "type": "function"
    },
    {
      "constant": true,
      "inputs": [],
      "name": "minimumInvestmentUSD",
      "outputs": [
        {
          "name": "",
          "type": "uint256"
        }
      ],
      "payable": false,
      "stateMutability": "view",
      "type": "function"
    },
    {
      "constant": true,
      "inputs": [
        {
          "name": "",
          "type": "uint8"
        }
      ],
      "name": "fundRaiseType",
      "outputs": [
        {
          "name": "",
          "type": "bool"
        }
      ],
      "payable": false,
      "stateMutability": "view",
      "type": "function"
    },
    {
      "constant": true,
      "inputs": [
        {
          "name": "",
          "type": "uint256"
        }
      ],
      "name": "tokensPerTierTotal",
      "outputs": [
        {
          "name": "",
          "type": "uint256"
        }
      ],
      "payable": false,
      "stateMutability": "view",
      "type": "function"
    },
    {
      "constant": true,
      "inputs": [
        {
          "name": "",
          "type": "address"
        }
      ],
      "name": "investorInvestedETH",
      "outputs": [
        {
          "name": "",
          "type": "uint256"
        }
      ],
      "payable": false,
      "stateMutability": "view",
      "type": "function"
    },
    {
      "constant": true,
      "inputs": [],
      "name": "fundsRaisedUSD",
      "outputs": [
        {
          "name": "",
          "type": "uint256"
        }
      ],
      "payable": false,
      "stateMutability": "view",
      "type": "function"
    },
    {
      "inputs": [
        {
          "name": "_securityToken",
          "type": "address"
        },
        {
          "name": "_polyAddress",
          "type": "address"
        }
      ],
      "payable": false,
      "stateMutability": "nonpayable",
      "type": "constructor"
    },
    {
      "payable": true,
      "stateMutability": "payable",
      "type": "fallback"
    },
    {
      "anonymous": false,
      "inputs": [
        {
          "indexed": true,
          "name": "_purchaser",
          "type": "address"
        },
        {
          "indexed": true,
          "name": "_beneficiary",
          "type": "address"
        },
        {
          "indexed": false,
          "name": "_tokens",
          "type": "uint256"
        },
        {
          "indexed": false,
          "name": "_usdAmount",
          "type": "uint256"
        },
        {
          "indexed": false,
          "name": "_tierPrice",
          "type": "uint256"
        },
        {
          "indexed": false,
          "name": "_tier",
          "type": "uint8"
        }
      ],
      "name": "TokenPurchase",
      "type": "event"
    },
    {
      "anonymous": false,
      "inputs": [
        {
          "indexed": true,
          "name": "_purchaser",
          "type": "address"
        },
        {
          "indexed": true,
          "name": "_beneficiary",
          "type": "address"
        },
        {
          "indexed": false,
          "name": "_usdAmount",
          "type": "uint256"
        },
        {
          "indexed": false,
          "name": "_receivedValue",
          "type": "uint256"
        },
        {
          "indexed": false,
          "name": "_spentValue",
          "type": "uint256"
        },
        {
          "indexed": false,
          "name": "_rate",
          "type": "uint256"
        }
      ],
      "name": "FundsReceivedETH",
      "type": "event"
    },
    {
      "anonymous": false,
      "inputs": [
        {
          "indexed": true,
          "name": "_purchaser",
          "type": "address"
        },
        {
          "indexed": true,
          "name": "_beneficiary",
          "type": "address"
        },
        {
          "indexed": false,
          "name": "_usdAmount",
          "type": "uint256"
        },
        {
          "indexed": false,
          "name": "_receivedValue",
          "type": "uint256"
        },
        {
          "indexed": false,
          "name": "_spentValue",
          "type": "uint256"
        },
        {
          "indexed": false,
          "name": "_rate",
          "type": "uint256"
        }
      ],
      "name": "FundsReceivedPOLY",
      "type": "event"
    },
    {
      "anonymous": false,
      "inputs": [
        {
          "indexed": true,
          "name": "_owner",
          "type": "address"
        },
        {
          "indexed": true,
          "name": "_wallet",
          "type": "address"
        },
        {
          "indexed": false,
          "name": "_tokens",
          "type": "uint256"
        },
        {
          "indexed": false,
          "name": "_tier",
          "type": "uint8"
        }
      ],
      "name": "ReserveTokenMint",
      "type": "event"
    },
    {
      "anonymous": false,
      "inputs": [
        {
          "indexed": true,
          "name": "_wallet",
          "type": "address"
        },
        {
          "indexed": true,
          "name": "_reserveWallet",
          "type": "address"
        }
      ],
      "name": "SetAddresses",
      "type": "event"
    },
    {
      "anonymous": false,
      "inputs": [
        {
          "indexed": false,
          "name": "_nonAccreditedLimitUSD",
          "type": "uint256"
        },
        {
          "indexed": false,
          "name": "_minimumInvestmentUSD",
          "type": "uint256"
        }
      ],
      "name": "SetLimits",
      "type": "event"
    },
    {
      "anonymous": false,
      "inputs": [
        {
          "indexed": false,
          "name": "_fundRaiseTypes",
          "type": "uint8[]"
        }
      ],
      "name": "SetFunding",
      "type": "event"
    },
    {
      "anonymous": false,
      "inputs": [
        {
          "indexed": false,
          "name": "_startTime",
          "type": "uint256"
        },
        {
          "indexed": false,
          "name": "_endTime",
          "type": "uint256"
        }
      ],
      "name": "SetTimes",
      "type": "event"
    },
    {
      "anonymous": false,
      "inputs": [
        {
          "indexed": false,
          "name": "_ratePerTier",
          "type": "uint256[]"
        },
        {
          "indexed": false,
          "name": "_ratePerTierDiscountPoly",
          "type": "uint256[]"
        },
        {
          "indexed": false,
          "name": "_tokensPerTierTotal",
          "type": "uint256[]"
        },
        {
          "indexed": false,
          "name": "_tokensPerTierDiscountPoly",
          "type": "uint256[]"
        }
      ],
      "name": "SetTiers",
      "type": "event"
    },
    {
      "anonymous": false,
      "inputs": [
        {
          "indexed": false,
          "name": "_timestammp",
          "type": "uint256"
        }
      ],
      "name": "Pause",
      "type": "event"
    },
    {
      "anonymous": false,
      "inputs": [
        {
          "indexed": false,
          "name": "_timestamp",
          "type": "uint256"
        }
      ],
      "name": "Unpause",
      "type": "event"
    },
    {
      "constant": false,
      "inputs": [
        {
          "name": "_startTime",
          "type": "uint256"
        },
        {
          "name": "_endTime",
          "type": "uint256"
        },
        {
          "name": "_ratePerTier",
          "type": "uint256[]"
        },
        {
          "name": "_ratePerTierDiscountPoly",
          "type": "uint256[]"
        },
        {
          "name": "_tokensPerTierTotal",
          "type": "uint256[]"
        },
        {
          "name": "_tokensPerTierDiscountPoly",
          "type": "uint256[]"
        },
        {
          "name": "_nonAccreditedLimitUSD",
          "type": "uint256"
        },
        {
          "name": "_minimumInvestmentUSD",
          "type": "uint256"
        },
        {
          "name": "_fundRaiseTypes",
          "type": "uint8[]"
        },
        {
          "name": "_wallet",
          "type": "address"
        },
        {
          "name": "_reserveWallet",
          "type": "address"
        }
      ],
      "name": "configure",
      "outputs": [],
      "payable": false,
      "stateMutability": "nonpayable",
      "type": "function"
    },
    {
      "constant": false,
      "inputs": [
        {
          "name": "_fundRaiseTypes",
          "type": "uint8[]"
        }
      ],
      "name": "modifyFunding",
      "outputs": [],
      "payable": false,
      "stateMutability": "nonpayable",
      "type": "function"
    },
    {
      "constant": false,
      "inputs": [
        {
          "name": "_nonAccreditedLimitUSD",
          "type": "uint256"
        },
        {
          "name": "_minimumInvestmentUSD",
          "type": "uint256"
        }
      ],
      "name": "modifyLimits",
      "outputs": [],
      "payable": false,
      "stateMutability": "nonpayable",
      "type": "function"
    },
    {
      "constant": false,
      "inputs": [
        {
          "name": "_ratePerTier",
          "type": "uint256[]"
        },
        {
          "name": "_ratePerTierDiscountPoly",
          "type": "uint256[]"
        },
        {
          "name": "_tokensPerTierTotal",
          "type": "uint256[]"
        },
        {
          "name": "_tokensPerTierDiscountPoly",
          "type": "uint256[]"
        }
      ],
      "name": "modifyTiers",
      "outputs": [],
      "payable": false,
      "stateMutability": "nonpayable",
      "type": "function"
    },
    {
      "constant": false,
      "inputs": [
        {
          "name": "_startTime",
          "type": "uint256"
        },
        {
          "name": "_endTime",
          "type": "uint256"
        }
      ],
      "name": "modifyTimes",
      "outputs": [],
      "payable": false,
      "stateMutability": "nonpayable",
      "type": "function"
    },
    {
      "constant": false,
      "inputs": [
        {
          "name": "_wallet",
          "type": "address"
        },
        {
          "name": "_reserveWallet",
          "type": "address"
        }
      ],
      "name": "modifyAddresses",
      "outputs": [],
      "payable": false,
      "stateMutability": "nonpayable",
      "type": "function"
    },
    {
      "constant": false,
      "inputs": [],
      "name": "finalize",
      "outputs": [],
      "payable": false,
      "stateMutability": "nonpayable",
      "type": "function"
    },
    {
      "constant": false,
      "inputs": [
        {
          "name": "_investors",
          "type": "address[]"
        },
        {
          "name": "_accredited",
          "type": "bool[]"
        }
      ],
      "name": "changeAccredited",
      "outputs": [],
      "payable": false,
      "stateMutability": "nonpayable",
      "type": "function"
    },
    {
      "constant": false,
      "inputs": [
        {
          "name": "_beneficiary",
          "type": "address"
        }
      ],
      "name": "buyWithETH",
      "outputs": [],
      "payable": true,
      "stateMutability": "payable",
      "type": "function"
    },
    {
      "constant": false,
      "inputs": [
        {
          "name": "_beneficiary",
          "type": "address"
        },
        {
          "name": "_investedPOLY",
          "type": "uint256"
        }
      ],
      "name": "buyWithPOLY",
      "outputs": [],
      "payable": false,
      "stateMutability": "nonpayable",
      "type": "function"
    },
    {
      "constant": true,
      "inputs": [],
      "name": "isOpen",
      "outputs": [
        {
          "name": "",
          "type": "bool"
        }
      ],
      "payable": false,
      "stateMutability": "view",
      "type": "function"
    },
    {
      "constant": true,
      "inputs": [
        {
          "name": "_currency",
          "type": "bytes32"
        },
        {
          "name": "_amount",
          "type": "uint256"
        }
      ],
      "name": "convertToUSD",
      "outputs": [
        {
          "name": "",
          "type": "uint256"
        }
      ],
      "payable": false,
      "stateMutability": "view",
      "type": "function"
    },
    {
      "constant": true,
      "inputs": [
        {
          "name": "_currency",
          "type": "bytes32"
        },
        {
          "name": "_amount",
          "type": "uint256"
        }
      ],
      "name": "convertFromUSD",
      "outputs": [
        {
          "name": "",
          "type": "uint256"
        }
      ],
      "payable": false,
      "stateMutability": "view",
      "type": "function"
    },
    {
      "constant": true,
      "inputs": [],
      "name": "capReached",
      "outputs": [
        {
          "name": "",
          "type": "bool"
        }
      ],
      "payable": false,
      "stateMutability": "view",
      "type": "function"
    },
    {
      "constant": true,
      "inputs": [],
      "name": "getRaisedEther",
      "outputs": [
        {
          "name": "",
          "type": "uint256"
        }
      ],
      "payable": false,
      "stateMutability": "view",
      "type": "function"
    },
    {
      "constant": true,
      "inputs": [],
      "name": "getRaisedPOLY",
      "outputs": [
        {
          "name": "",
          "type": "uint256"
        }
      ],
      "payable": false,
      "stateMutability": "view",
      "type": "function"
    },
    {
      "constant": true,
      "inputs": [],
      "name": "getRaisedUSD",
      "outputs": [
        {
          "name": "",
          "type": "uint256"
        }
      ],
      "payable": false,
      "stateMutability": "view",
      "type": "function"
    },
    {
      "constant": true,
      "inputs": [],
      "name": "getNumberInvestors",
      "outputs": [
        {
          "name": "",
          "type": "uint256"
        }
      ],
      "payable": false,
      "stateMutability": "view",
      "type": "function"
    },
    {
      "constant": true,
      "inputs": [],
      "name": "getTokensSold",
      "outputs": [
        {
          "name": "",
          "type": "uint256"
        }
      ],
      "payable": false,
      "stateMutability": "view",
      "type": "function"
    },
    {
      "constant": true,
      "inputs": [],
      "name": "getTokensMinted",
      "outputs": [
        {
          "name": "",
          "type": "uint256"
        }
      ],
      "payable": false,
      "stateMutability": "view",
      "type": "function"
    },
    {
      "constant": true,
      "inputs": [],
      "name": "getTokensSoldForETH",
      "outputs": [
        {
          "name": "",
          "type": "uint256"
        }
      ],
      "payable": false,
      "stateMutability": "view",
      "type": "function"
    },
    {
      "constant": true,
      "inputs": [],
      "name": "getTokensSoldForPOLY",
      "outputs": [
        {
          "name": "",
          "type": "uint256"
        }
      ],
      "payable": false,
      "stateMutability": "view",
      "type": "function"
    },
    {
      "constant": true,
      "inputs": [],
      "name": "getNumberOfTiers",
      "outputs": [
        {
          "name": "",
          "type": "uint256"
        }
      ],
      "payable": false,
      "stateMutability": "view",
      "type": "function"
    },
    {
      "constant": true,
      "inputs": [],
      "name": "getPermissions",
      "outputs": [
        {
          "name": "",
          "type": "bytes32[]"
        }
      ],
      "payable": false,
      "stateMutability": "view",
      "type": "function"
    },
    {
      "constant": true,
      "inputs": [],
      "name": "getInitFunction",
      "outputs": [
        {
          "name": "",
          "type": "bytes4"
        }
      ],
      "payable": false,
      "stateMutability": "pure",
      "type": "function"
    }
  ],
  "bytecode": "0x6002805460a060020a60ff02191690556007805460ff1916905560c0604052600d60808190527f506f6c795573644f7261636c650000000000000000000000000000000000000060a09081526200005a916008919062000223565b5060408051808201909152600c8082527f4574685573644f7261636c6500000000000000000000000000000000000000006020909201918252620000a19160099162000223565b50348015620000af57600080fd5b506040516040806200477b83398101604052805160209182015160018054600160a060020a03808516600160a060020a03199283161783556000805483163317815560028054928616929093169190911782557f555344000000000000000000000000000000000000000000000000000000000090527f1538f2a84824c545ea4387d759caa1528e74c66be2c96d2bb2c65a8afefec96190945260098054939492936200018d937fd4fa3e6515440d1607187aa3825c171067fdd6b2ce7a41d609711b450ea5341593821615610100026000190190911604620002a8565b507f55534400000000000000000000000000000000000000000000000000000000006000527fc1864db95bb0c45afb3d2c4cc7f9511ca42d0453d71c75bad547a7580fbbe364602052600880546200021a917f805d8a1ed8467a279fbd911243550313f3316498aad51f5ddc09a6d5e70fc1b79160026101006001831615026000190190911604620002a8565b50505062000342565b828054600181600116156101000203166002900490600052602060002090601f016020900481019282601f106200026657805160ff191683800117855562000296565b8280016001018555821562000296579182015b828111156200029657825182559160200191906001019062000279565b50620002a492915062000322565b5090565b828054600181600116156101000203166002900490600052602060002090601f016020900481019282601f10620002e3578054855562000296565b828001600101855582156200029657600052602060002091601f016020900482015b828111156200029657825482559160010191906001019062000305565b6200033f91905b80821115620002a4576000815560010162000329565b90565b61442980620003526000396000f3006080604052600436106102e75763ffffffff60e060020a600035041663033258ea81146102f25780630f452aaa1461031c5780631613ec9d1461033157806318c5ab3c1461037b578063234c685e146103905780632de2d279146103a85780633197cbb6146103cf57806331f1968a146103e457806335ff3a51146103fc57806338c59de9146104115780633a3adf87146104265780633a4fd45c146104415780633f4ba83a14610456578063444aa92f1461046b57806347535d7b1461047f5780634b385a42146104a85780634bb278f3146104bd5780634f935945146104d2578063521ced30146104e7578063521eb273146104ff5780635b66629d146105305780635c975abb146105545780635f7619a4146105695780636c41027f146105815780636faa22a51461059657806370465155146105ab57806370dc8752146105c3578063741fd8db146106c357806378912d41146106d857806378e97925146106ed5780637b06bc7c146107025780638012522b146107235780638320fc4e146107385780638456cb59146107c65780638905fd4f146107db5780638be11260146107fc5780638d4e40831461081457806397a8feee1461082957806398727239146108b357806399066ee0146108ce578063a3fb8f15146108e6578063a412f87c146108fb578063a8955ed61461091f578063b2cca39d14610934578063b307366014610949578063b39f8ae414610964578063b84dfbd21461097f578063bf11664814610994578063bf8ac4a1146109e9578063c3a07df614610a0a578063c45a015514610a6f578063c513933814610a84578063d31d4f2d14610aa5578063d679677a14610c0c578063d69f6bae14610c37578063d70afa9614610c4c578063d72b11bd14610c61578063d7e64c0014610c76578063e0d5070514610c8b578063ec47740f14610ca0578063eda524bc14610cb5578063ee7c0db014610cd0578063fbf69f9514610ce5578063fd19780e14610cfd578063ff18ead314610d1e575b6102f033610d33565b005b3480156102fe57600080fd5b5061030a600435610fdc565b60408051918252519081900360200190f35b34801561032857600080fd5b5061030a610ffb565b34801561033d57600080fd5b50610346611002565b604080517fffffffff000000000000000000000000000000000000000000000000000000009092168252519081900360200190f35b34801561038757600080fd5b5061030a6110a8565b34801561039c57600080fd5b5061030a6004356110ae565b3480156103b457600080fd5b506102f0600160a060020a03600435811690602435166110bc565b3480156103db57600080fd5b5061030a6111a4565b3480156103f057600080fd5b5061030a6004356111aa565b34801561040857600080fd5b5061030a6111b8565b34801561041d57600080fd5b5061030a6111be565b34801561043257600080fd5b506102f06004356024356111c4565b34801561044d57600080fd5b5061030a6112a8565b34801561046257600080fd5b506102f06112ae565b6102f0600160a060020a0360043516610d33565b34801561048b57600080fd5b50610494611384565b604080519115158252519081900360200190f35b3480156104b457600080fd5b5061030a6113d8565b3480156104c957600080fd5b506102f06113de565b3480156104de57600080fd5b50610494611709565b3480156104f357600080fd5b5061030a600435611762565b34801561050b57600080fd5b50610514611770565b60408051600160a060020a039092168252519081900360200190f35b34801561053c57600080fd5b506102f0600160a060020a036004351660243561177f565b34801561056057600080fd5b50610494611a62565b34801561057557600080fd5b50610494600435611a72565b34801561058d57600080fd5b5061030a611db1565b3480156105a257600080fd5b50610514611db7565b3480156105b757600080fd5b5061030a600435611dc6565b3480156105cf57600080fd5b50604080516020600480358082013583810280860185019096528085526102f095369593946024949385019291829185019084908082843750506040805187358901803560208181028481018201909552818452989b9a998901989297509082019550935083925085019084908082843750506040805187358901803560208181028481018201909552818452989b9a998901989297509082019550935083925085019084908082843750506040805187358901803560208181028481018201909552818452989b9a998901989297509082019550935083925085019084908082843750949750611dd49650505050505050565b3480156106cf57600080fd5b5061030a611ec0565b3480156106e457600080fd5b5061030a611ec6565b3480156106f957600080fd5b5061030a611ecc565b34801561070e57600080fd5b50610494600160a060020a0360043516611ed2565b34801561072f57600080fd5b5061030a611ee7565b34801561074457600080fd5b50604080516020600480358082013583810280860185019096528085526102f095369593946024949385019291829185019084908082843750506040805187358901803560208181028481018201909552818452989b9a998901989297509082019550935083925085019084908082843750949750611f649650505050505050565b3480156107d257600080fd5b506102f06120c0565b3480156107e757600080fd5b506102f0600160a060020a03600435166121a2565b34801561080857600080fd5b5061030a6004356123b9565b34801561082057600080fd5b506104946123c7565b34801561083557600080fd5b5061083e6123d0565b6040805160208082528351818301528351919283929083019185019080838360005b83811015610878578181015183820152602001610860565b50505050905090810190601f1680156108a55780820380516001836020036101000a031916815260200191505b509250505060405180910390f35b3480156108bf57600080fd5b5061030a60043560243561245e565b3480156108da57600080fd5b5061030a6004356124f1565b3480156108f257600080fd5b5061030a6124ff565b34801561090757600080fd5b50610494600160a060020a0360043516602435612505565b34801561092b57600080fd5b5061083e6125ab565b34801561094057600080fd5b5061030a612606565b34801561095557600080fd5b5061030a60043560243561260c565b34801561097057600080fd5b506102f0600435602435612697565b34801561098b57600080fd5b5061051461277b565b3480156109a057600080fd5b50604080516020600480358082013583810280860185019096528085526102f09536959394602494938501929182918501908490808284375094975061278a9650505050505050565b3480156109f557600080fd5b5061030a600160a060020a0360043516612870565b348015610a1657600080fd5b50610a1f612882565b60408051602080825283518183015283519192839290830191858101910280838360005b83811015610a5b578181015183820152602001610a43565b505050509050019250505060405180910390f35b348015610a7b57600080fd5b50610514612897565b348015610a9057600080fd5b5061030a600160a060020a03600435166128a6565b348015610ab157600080fd5b5060408051602060046044358181013583810280860185019096528085526102f0958335956024803596369695606495939492019291829185019084908082843750506040805187358901803560208181028481018201909552818452989b9a998901989297509082019550935083925085019084908082843750506040805187358901803560208181028481018201909552818452989b9a998901989297509082019550935083925085019084908082843750506040805187358901803560208181028481018201909552818452989b9a9989019892975090820195509350839250850190849080828437505060408051818801358901803560208181028481018201909552818452989b8a359b8a8c01359b919a9099506060909101975092955090820193509182918501908490808284375094975050600160a060020a0385358116965060209095013590941693506128b892505050565b348015610c1857600080fd5b50610c2161295a565b6040805160ff9092168252519081900360200190f35b348015610c4357600080fd5b5061030a612963565b348015610c5857600080fd5b5061030a6129ae565b348015610c6d57600080fd5b506105146129d2565b348015610c8257600080fd5b5061030a6129e1565b348015610c9757600080fd5b5061030a6129e7565b348015610cac57600080fd5b5061030a612a18565b348015610cc157600080fd5b5061049460ff60043516612a1e565b348015610cdc57600080fd5b5061030a612a33565b348015610cf157600080fd5b5061030a600435612a59565b348015610d0957600080fd5b5061030a600160a060020a0360043516612a67565b348015610d2a57600080fd5b5061030a612a79565b6000808080610d6b7f455448000000000000000000000000000000000000000000000000000000000060ea60020a621554d102612a7f565b600160a060020a03161415610dca576040805160e560020a62461bcd02815260206004820152601560248201527f496e76616c696420455448555344204f7261636c650000000000000000000000604482015290519081900360640190fd5b6000805260036020527f3617319a054d772f909f7c479a2cebe5066e836a939412e32403c99029b92eff5460ff161515610e0357600080fd5b610e367f455448000000000000000000000000000000000000000000000000000000000060ea60020a621554d102612a7f565b600160a060020a03166398d5fdca6040518163ffffffff1660e060020a028152600401602060405180830381600087803b158015610e7357600080fd5b505af1158015610e87573d6000803e3d6000fd5b505050506040513d6020811015610e9d57600080fd5b50519250610eae8434856000612c2a565b600160a060020a0386166000908152601b60205260409020549193509150610edc908263ffffffff6130ed16565b600160a060020a0385166000908152601b6020526040902055601754610f08908263ffffffff6130ed16565b601755600b54604051600160a060020a039091169082156108fc029083906000818181858888f19350505050158015610f45573d6000803e3d6000fd5b50336108fc610f5a348463ffffffff6130fa16565b6040518115909202916000818181858888f19350505050158015610f82573d6000803e3d6000fd5b5060408051838152346020820152808201839052606081018590529051600160a060020a0386169133917f5f372621e8d889047836045b485ab1ff1bb016bfb5a974b676386c803ed2711f9181900360800190a350505050565b600d805482908110610fea57fe5b600091825260209091200154905081565b6016545b90565b604080517f636f6e6669677572652875696e743235362c75696e743235362c75696e74323581527f365b5d2c75696e743235365b5d2c75696e743235365b5d2c75696e743235365b60208201527f5d2c75696e743235362c75696e743235362c75696e74385b5d2c616464726573818301527f732c6164647265737329000000000000000000000000000000000000000000006060820152905190819003606a01902090565b60185481565b6014805482908110610fea57fe5b600160009054906101000a9004600160a060020a0316600160a060020a0316638da5cb5b6040518163ffffffff1660e060020a028152600401602060405180830381600087803b15801561110f57600080fd5b505af1158015611123573d6000803e3d6000fd5b505050506040513d602081101561113957600080fd5b5051600160a060020a03163314611188576040805160e560020a62461bcd02815260206004820152601360248201526000805160206143de833981519152604482015290519081900360640190fd5b600454421061119657600080fd5b6111a0828261310c565b5050565b60055481565b6012805482908110610fea57fe5b60175490565b60195490565b600160009054906101000a9004600160a060020a0316600160a060020a0316638da5cb5b6040518163ffffffff1660e060020a028152600401602060405180830381600087803b15801561121757600080fd5b505af115801561122b573d6000803e3d6000fd5b505050506040513d602081101561124157600080fd5b5051600160a060020a03163314611290576040805160e560020a62461bcd02815260206004820152601360248201526000805160206143de833981519152604482015290519081900360640190fd5b600454421061129e57600080fd5b6111a08282613283565b600f5490565b600160009054906101000a9004600160a060020a0316600160a060020a0316638da5cb5b6040518163ffffffff1660e060020a028152600401602060405180830381600087803b15801561130157600080fd5b505af1158015611315573d6000803e3d6000fd5b505050506040513d602081101561132b57600080fd5b5051600160a060020a0316331461137a576040805160e560020a62461bcd02815260206004820152601360248201526000805160206143de833981519152604482015290519081900360640190fd5b6113826132cc565b565b60205460009060ff161561139a57506000610fff565b6004544210156113ac57506000610fff565b60055442106113bd57506000610fff565b6113c5611709565b156113d257506000610fff565b50600190565b601e5481565b600080600080600160009054906101000a9004600160a060020a0316600160a060020a0316638da5cb5b6040518163ffffffff1660e060020a028152600401602060405180830381600087803b15801561143757600080fd5b505af115801561144b573d6000803e3d6000fd5b505050506040513d602081101561146157600080fd5b5051600160a060020a031633146114b0576040805160e560020a62461bcd02815260206004820152601360248201526000805160206143de833981519152604482015290519081900360640190fd5b60205460ff16156114c057600080fd5b506020805460ff1916600117905560005b600f5460ff821610156116fc5761152960118260ff168154811015156114f357fe5b9060005260206000200154600f8360ff1681548110151561151057fe5b90600052602060002001546130fa90919063ffffffff16565b915061153b848363ffffffff6130ed16565b935061156c60118260ff1681548110151561155257fe5b9060005260206000200154846130ed90919063ffffffff16565b925060008211156116f457600f805460ff831690811061158857fe5b906000526020600020015460118260ff168154811015156115a557fe5b6000918252602080832090910192909255600154600c54604080517f40c10f19000000000000000000000000000000000000000000000000000000008152600160a060020a03928316600482015260248101889052905191909216936340c10f19936044808501949293928390030190829087803b15801561162657600080fd5b505af115801561163a573d6000803e3d6000fd5b505050506040513d602081101561165057600080fd5b505115156116a8576040805160e560020a62461bcd02815260206004820152601b60248201527f4572726f7220696e206d696e74696e672074686520746f6b656e730000000000604482015290519081900360640190fd5b600c546040805184815260ff841660208201528151600160a060020a039093169233927f3fe90b9084dca94f68309b6502066809bd1bc300808660a97214823388af5e4b928290030190a35b6001016114d1565b5050602291909155602155565b60205460009060ff1615611721575060225415610fff565b600f8054600019810190811061173357fe5b60009182526020909120015460118054600019810190811061175157fe5b906000526020600020015414905090565b6010805482908110610fea57fe5b600b54600160a060020a031681565b60008080806117b77f504f4c590000000000000000000000000000000000000000000000000000000060ea60020a621554d102612a7f565b600160a060020a03161415611816576040805160e560020a62461bcd02815260206004820152601560248201527f496e76616c696420455448555344204f7261636c650000000000000000000000604482015290519081900360640190fd5b600160005260036020527fa15bc60c955c405d20d9149c709e2460f1c2d9a497496a7f46004d1772c3054c5460ff16151561185057600080fd5b6118837f504f4c590000000000000000000000000000000000000000000000000000000060ea60020a621554d102612a7f565b600160a060020a03166398d5fdca6040518163ffffffff1660e060020a028152600401602060405180830381600087803b1580156118c057600080fd5b505af11580156118d4573d6000803e3d6000fd5b505050506040513d60208110156118ea57600080fd5b505192506118fb8585856001612c2a565b600160a060020a0387166000908152601c60205260409020549193509150611929908263ffffffff6130ed16565b600160a060020a0386166000908152601c6020526040902055601854611955908263ffffffff6130ed16565b601855600254600b54604080517f23b872dd000000000000000000000000000000000000000000000000000000008152336004820152600160a060020a03928316602482015260448101859052905191909216916323b872dd9160648083019260209291908290030181600087803b1580156119d057600080fd5b505af11580156119e4573d6000803e3d6000fd5b505050506040513d60208110156119fa57600080fd5b50511515611a0757600080fd5b6040805183815260208101869052808201839052606081018590529051600160a060020a0387169133917f77a8bcb3b2d99f11dd00b2028e33c38a54659130ca030d57088beb8d5ed6f5699181900360800190a35050505050565b60025460a060020a900460ff1681565b60007f4645455f41444d494e0000000000000000000000000000000000000000000000600080600160009054906101000a9004600160a060020a0316600160a060020a0316638da5cb5b6040518163ffffffff1660e060020a028152600401602060405180830381600087803b158015611aeb57600080fd5b505af1158015611aff573d6000803e3d6000fd5b505050506040513d6020811015611b1557600080fd5b505160005433600160a060020a039283168114945091161490508180611b385750805b80611bde5750600154604080517f8658b8b9000000000000000000000000000000000000000000000000000000008152336004820152306024820152604481018690529051600160a060020a0390921691638658b8b9916064808201926020929091908290030181600087803b158015611bb157600080fd5b505af1158015611bc5573d6000803e3d6000fd5b505050506040513d6020811015611bdb57600080fd5b50515b1515611c34576040805160e560020a62461bcd02815260206004820152601760248201527f5065726d697373696f6e20636865636b206661696c6564000000000000000000604482015290519081900360640190fd5b60025460008054604080517f8da5cb5b0000000000000000000000000000000000000000000000000000000081529051600160a060020a03948516946323b872dd94309490911692638da5cb5b9260048083019360209383900390910190829087803b158015611ca357600080fd5b505af1158015611cb7573d6000803e3d6000fd5b505050506040513d6020811015611ccd57600080fd5b50516040805160e060020a63ffffffff8616028152600160a060020a039384166004820152929091166024830152604482018990525160648083019260209291908290030181600087803b158015611d2457600080fd5b505af1158015611d38573d6000803e3d6000fd5b505050506040513d6020811015611d4e57600080fd5b50511515611da6576040805160e560020a62461bcd02815260206004820152601260248201527f556e61626c6520746f2074616b65206665650000000000000000000000000000604482015290519081900360640190fd5b506001949350505050565b60225481565b600254600160a060020a031681565b600e805482908110610fea57fe5b600160009054906101000a9004600160a060020a0316600160a060020a0316638da5cb5b6040518163ffffffff1660e060020a028152600401602060405180830381600087803b158015611e2757600080fd5b505af1158015611e3b573d6000803e3d6000fd5b505050506040513d6020811015611e5157600080fd5b5051600160a060020a03163314611ea0576040805160e560020a62461bcd02815260206004820152601360248201526000805160206143de833981519152604482015290519081900360640190fd5b6004544210611eae57600080fd5b611eba84848484613382565b50505050565b60215481565b60175481565b60045481565b601d6020526000908152604090205460ff1681565b600080805b60135460ff82161015611f5e57611f5460148260ff16815481101515611f0e57fe5b9060005260206000200154611f4860138460ff16815481101515611f2e57fe5b9060005260206000200154856130ed90919063ffffffff16565b9063ffffffff6130ed16565b9150600101611eec565b50919050565b600154604080517f8da5cb5b0000000000000000000000000000000000000000000000000000000081529051600092600160a060020a031691638da5cb5b91600480830192602092919082900301818787803b158015611fc357600080fd5b505af1158015611fd7573d6000803e3d6000fd5b505050506040513d6020811015611fed57600080fd5b5051600160a060020a0316331461203c576040805160e560020a62461bcd02815260206004820152601360248201526000805160206143de833981519152604482015290519081900360640190fd5b815183511461204a57600080fd5b5060005b82518110156120bb57818181518110151561206557fe5b90602001906020020151601d6000858481518110151561208157fe5b602090810291909101810151600160a060020a03168252810191909152604001600020805460ff191691151591909117905560010161204e565b505050565b600160009054906101000a9004600160a060020a0316600160a060020a0316638da5cb5b6040518163ffffffff1660e060020a028152600401602060405180830381600087803b15801561211357600080fd5b505af1158015612127573d6000803e3d6000fd5b505050506040513d602081101561213d57600080fd5b5051600160a060020a0316331461218c576040805160e560020a62461bcd02815260206004820152601360248201526000805160206143de833981519152604482015290519081900360640190fd5b600554421061219a57600080fd5b611382613aaa565b600080600160009054906101000a9004600160a060020a0316600160a060020a0316638da5cb5b6040518163ffffffff1660e060020a028152600401602060405180830381600087803b1580156121f857600080fd5b505af115801561220c573d6000803e3d6000fd5b505050506040513d602081101561222257600080fd5b5051600160a060020a03163314612271576040805160e560020a62461bcd02815260206004820152601360248201526000805160206143de833981519152604482015290519081900360640190fd5b600160a060020a038316151561228657600080fd5b604080517f70a082310000000000000000000000000000000000000000000000000000000081523060048201529051849350600160a060020a038416916370a082319160248083019260209291908290030181600087803b1580156122ea57600080fd5b505af11580156122fe573d6000803e3d6000fd5b505050506040513d602081101561231457600080fd5b5051604080517fa9059cbb000000000000000000000000000000000000000000000000000000008152336004820152602481018390529051919250600160a060020a0384169163a9059cbb916044808201926020929091908290030181600087803b15801561238257600080fd5b505af1158015612396573d6000803e3d6000fd5b505050506040513d60208110156123ac57600080fd5b505115156120bb57600080fd5b6011805482908110610fea57fe5b60205460ff1681565b6009805460408051602060026001851615610100026000190190941693909304601f810184900484028201840190925281815292918301828280156124565780601f1061242b57610100808354040283529160200191612456565b820191906000526020600020905b81548152906001019060200180831161243957829003601f168201915b505050505081565b6000806124748460ea60020a621554d102612a7f565b600160a060020a03166398d5fdca6040518163ffffffff1660e060020a028152600401602060405180830381600087803b1580156124b157600080fd5b505af11580156124c5573d6000803e3d6000fd5b505050506040513d60208110156124db57600080fd5b505190506124e98382613b65565b949350505050565b6013805482908110610fea57fe5b60185490565b600254604080517fdd62ed3e000000000000000000000000000000000000000000000000000000008152600160a060020a03858116600483015230602483015291516000938593169163dd62ed3e91604480830192602092919082900301818887803b15801561257457600080fd5b505af1158015612588573d6000803e3d6000fd5b505050506040513d602081101561259e57600080fd5b5051101590505b92915050565b6008805460408051602060026001851615610100026000190190941693909304601f810184900484028201840190925281815292918301828280156124565780601f1061242b57610100808354040283529160200191612456565b60065481565b6000806126228460ea60020a621554d102612a7f565b600160a060020a03166398d5fdca6040518163ffffffff1660e060020a028152600401602060405180830381600087803b15801561265f57600080fd5b505af1158015612673573d6000803e3d6000fd5b505050506040513d602081101561268957600080fd5b505190506124e98382613ba0565b600160009054906101000a9004600160a060020a0316600160a060020a0316638da5cb5b6040518163ffffffff1660e060020a028152600401602060405180830381600087803b1580156126ea57600080fd5b505af11580156126fe573d6000803e3d6000fd5b505050506040513d602081101561271457600080fd5b5051600160a060020a03163314612763576040805160e560020a62461bcd02815260206004820152601360248201526000805160206143de833981519152604482015290519081900360640190fd5b600454421061277157600080fd5b6111a08282613bc0565b600154600160a060020a031681565b600160009054906101000a9004600160a060020a0316600160a060020a0316638da5cb5b6040518163ffffffff1660e060020a028152600401602060405180830381600087803b1580156127dd57600080fd5b505af11580156127f1573d6000803e3d6000fd5b505050506040513d602081101561280757600080fd5b5051600160a060020a03163314612856576040805160e560020a62461bcd02815260206004820152601360248201526000805160206143de833981519152604482015290519081900360640190fd5b600454421061286457600080fd5b61286d81613cb7565b50565b601c6020526000908152604090205481565b604080516000815260208101909152805b5090565b600054600160a060020a031681565b601a6020526000908152604090205481565b600054600160a060020a0316331461291a576040805160e560020a62461bcd02815260206004820152601560248201527f53656e646572206973206e6f7420666163746f72790000000000000000000000604482015290519081900360640190fd5b61292383613cb7565b61292d828261310c565b61293989898989613382565b6129438b8b613bc0565b61294d8585613283565b5050505050505050505050565b60155460ff1681565b600080805b60115460ff82161015611f5e576129a460118260ff1681548110151561298a57fe5b9060005260206000200154836130ed90919063ffffffff16565b9150600101612968565b7f4645455f41444d494e000000000000000000000000000000000000000000000081565b600c54600160a060020a031681565b60195481565b600080805b60125460ff82161015611f5e57612a0e60128260ff1681548110151561298a57fe5b91506001016129ec565b601f5481565b60036020526000908152604090205460ff1681565b60205460009060ff1615612a4a5750602154610fff565b612a52612963565b9050610fff565b600f805482908110610fea57fe5b601b6020526000908152604090205481565b60165481565b600154604080517f77282b700000000000000000000000000000000000000000000000000000000081529051600092600160a060020a0316916377282b7091600480830192602092919082900301818787803b158015612ade57600080fd5b505af1158015612af2573d6000803e3d6000fd5b505050506040513d6020811015612b0857600080fd5b50516000848152600a6020908152604080832086845282529182902091517fbf40fac10000000000000000000000000000000000000000000000000000000081526004810191825282546002610100600183161502600019019091160460248201819052600160a060020a039094169363bf40fac1939291829160449091019084908015612bd75780601f10612bac57610100808354040283529160200191612bd7565b820191906000526020600020905b815481529060010190602001808311612bba57829003601f168201915b505092505050602060405180830381600087803b158015612bf757600080fd5b505af1158015612c0b573d6000803e3d6000fd5b505050506040513d6020811015612c2157600080fd5b50519392505050565b60075460009081908190819081908190819060ff1615612c4957600080fd5b6007805460ff1916600117905560025460a060020a900460ff1615612cb8576040805160e560020a62461bcd02815260206004820152601260248201527f436f6e7472616374206973207061757365640000000000000000000000000000604482015290519081900360640190fd5b612cc0611384565b1515612d16576040805160e560020a62461bcd02815260206004820152600f60248201527f53544f206973206e6f74206f70656e0000000000000000000000000000000000604482015290519081900360640190fd5b60008a11612d6e576040805160e560020a62461bcd02815260206004820181905260248201527f4e6f2066756e647320776572652073656e7420746f2062757920746f6b656e73604482015290519081900360640190fd5b612d78898b613b65565b601f54600160a060020a038d166000908152601a602052604090205491965086955090612dac90869063ffffffff6130ed16565b1015612e28576040805160e560020a62461bcd02815260206004820152602f60248201527f546f74616c20696e766573746d656e74206c657373207468616e206d696e696d60448201527f756d496e766573746d656e745553440000000000000000000000000000000000606482015290519081900360840190fd5b600160a060020a038b166000908152601d602052604090205460ff161515612f6857601e54600160a060020a038c166000908152601a602052604090205410612f07576040805160e560020a62461bcd02815260206004820152604160248201527f4e6f6e2d6163637265646974656420696e766573746f722068617320616c726560448201527f6164792072656163686564206e6f6e416363726564697465644c696d6974555360648201527f4400000000000000000000000000000000000000000000000000000000000000608482015290519081900360a40190fd5b601e54600160a060020a038c166000908152601a6020526040902054612f3490879063ffffffff6130ed16565b1115612f6857600160a060020a038b166000908152601a6020526040902054601e54612f659163ffffffff6130fa16565b94505b60155460ff1691505b600d5460ff831610156130225760155460ff838116911614612f9d576015805460ff191660ff84161790555b600f805460ff8416908110612fae57fe5b906000526020600020015460118360ff16815481101515612fcb57fe5b9060005260206000200154101561300a57613007612ffa8c84612ff4898863ffffffff6130fa16565b8c613ea0565b849063ffffffff6130ed16565b92505b8285141561301757613022565b600190910190612f71565b60008311156130ad57600160a060020a038b166000908152601a60205260409020541515613054576019805460010190555b600160a060020a038b166000908152601a602052604090205461307d908463ffffffff6130ed16565b600160a060020a038c166000908152601a60205260409020556016546130a9908463ffffffff6130ed16565b6016555b8215156130bc575060006130d2565b6130cf6130c98486613ba0565b8b613b65565b90505b6007805460ff19169055919a91995090975050505050505050565b818101828110156125a557fe5b60008282111561310657fe5b50900390565b600160a060020a0382161515613192576040805160e560020a62461bcd02815260206004820152602860248201527f5a65726f2061646472657373206973206e6f74207065726d697474656420666f60448201527f722077616c6c6574000000000000000000000000000000000000000000000000606482015290519081900360840190fd5b600160a060020a0381161515613218576040805160e560020a62461bcd02815260206004820152602860248201527f5a65726f2061646472657373206973206e6f74207065726d697474656420666f60448201527f722077616c6c6574000000000000000000000000000000000000000000000000606482015290519081900360840190fd5b600b805473ffffffffffffffffffffffffffffffffffffffff19908116600160a060020a03858116918217909355600c80549092169284169283179091556040517f1cbc7a9637cabbc21164f4e6f293a9e760d1f651ad2b0f5614dec80dd807d0bd90600090a35050565b601f819055601e829055604080518281526020810184905281517f6edefa108617056bef120162b4dc9ced4920b9a10f2dcc512c4c60fee6e7e693929181900390910190a15050565b60025460a060020a900460ff16151561332f576040805160e560020a62461bcd02815260206004820152601660248201527f436f6e7472616374206973206e6f742070617573656400000000000000000000604482015290519081900360640190fd5b6002805474ff0000000000000000000000000000000000000000191690556040805142815290517faaa520fdd7d2c83061d632fa017b0432407e798818af63ea908589fceda39ab79181900360200190a1565b600080835111151561339357600080fd5b8251855114613412576040805160e560020a62461bcd02815260206004820152602a60248201527f4d69736d61746368206265747765656e20726174657320616e6420746f6b656e60448201527f7320706572207469657200000000000000000000000000000000000000000000606482015290519081900360840190fd5b8251845114613491576040805160e560020a62461bcd02815260206004820152603360248201527f4d69736d61746368206265747765656e20646973636f756e742072617465732060448201527f616e6420746f6b656e7320706572207469657200000000000000000000000000606482015290519081900360840190fd5b8251825114613510576040805160e560020a62461bcd02815260206004820152603d60248201527f4d69736d61746368206265747765656e20646973636f756e7420746f6b656e7360448201527f20706572207469657220616e6420746f6b656e73207065722074696572000000606482015290519081900360840190fd5b5060005b84518160ff161015613808576000858260ff1681518110151561353357fe5b60209081029091010151116135b8576040805160e560020a62461bcd02815260206004820152602660248201527f52617465206f6620746f6b656e2073686f756c6420626520677265617465722060448201527f7468616e20300000000000000000000000000000000000000000000000000000606482015290519081900360840190fd5b6000838260ff168151811015156135cb57fe5b6020908102909101015111613650576040805160e560020a62461bcd02815260206004820152602860248201527f546f6b656e732070657220746965722073686f756c642062652067726561746560448201527f72207468616e2030000000000000000000000000000000000000000000000000606482015290519081900360840190fd5b828160ff1681518110151561366157fe5b90602001906020020151828260ff1681518110151561367c57fe5b602090810290910101511115613728576040805160e560020a62461bcd02815260206004820152604a60248201527f446973636f756e74656420746f6b656e732070657220746965722073686f756c60448201527f64206265206c657373207468616e206f7220657175616c20746f20746f6b656e60648201527f7320706572207469657200000000000000000000000000000000000000000000608482015290519081900360a40190fd5b848160ff1681518110151561373957fe5b90602001906020020151848260ff1681518110151561375457fe5b602090810290910101511115613800576040805160e560020a62461bcd02815260206004820152604660248201527f446973636f756e74656420726174652070657220746965722073686f756c642060448201527f6265206c657373207468616e206f7220657175616c20746f207261746520706560648201527f7220746965720000000000000000000000000000000000000000000000000000608482015290519081900360a40190fd5b600101613514565b8451604051908082528060200260200182016040528015613833578160200160208202803883390190505b50805161384891601191602090910190614382565b508451604051908082528060200260200182016040528015613874578160200160208202803883390190505b50805161388991601291602090910190614382565b5084516040519080825280602002602001820160405280156138b5578160200160208202803883390190505b5080516138ca91601391602090910190614382565b5084516040519080825280602002602001820160405280156138f6578160200160208202803883390190505b50805161390b91601491602090910190614382565b50845161391f90600d906020880190614382565b50835161393390600e906020870190614382565b50825161394790600f906020860190614382565b50815161395b906010906020850190614382565b507fbdbb624542b4a708b5fed87894a55c10945f2676a45a28f9da59597118247496858585856040518080602001806020018060200180602001858103855289818151815260200191508051906020019060200280838360005b838110156139cd5781810151838201526020016139b5565b50505050905001858103845288818151815260200191508051906020019060200280838360005b83811015613a0c5781810151838201526020016139f4565b50505050905001858103835287818151815260200191508051906020019060200280838360005b83811015613a4b578181015183820152602001613a33565b50505050905001858103825286818151815260200191508051906020019060200280838360005b83811015613a8a578181015183820152602001613a72565b505050509050019850505050505050505060405180910390a15050505050565b60025460a060020a900460ff1615613b0c576040805160e560020a62461bcd02815260206004820152601260248201527f436f6e7472616374206973207061757365640000000000000000000000000000604482015290519081900360640190fd5b6002805474ff0000000000000000000000000000000000000000191660a060020a1790556040805142815290517f68b095021b1f40fe513109f513c66692f0b3219aee674a69f4efc57badb8201d9181900360200190a1565b6000670de0b6b3a7640000613b8f613b7d85856141c2565b6002670de0b6b3a76400005b046130ed565b811515613b9857fe5b049392505050565b600081613b8f613bb885670de0b6b3a76400006141c2565b600285613b89565b818111613c17576040805160e560020a62461bcd02815260206004820152601d60248201527f4461746520706172616d657465727320617265206e6f742076616c6964000000604482015290519081900360640190fd5b428211613c6e576040805160e560020a62461bcd02815260206004820181905260248201527f53746172742054696d65206d75737420626520696e2074686520667574757265604482015290519081900360640190fd5b60048290556005819055604080518381526020810183905281517f2eae0d0a99cbf5ab05babf7ee1f4bdf6e9bb99ffdca04682fa54f6682d5d80fe929181900390910190a15050565b6000808251118015613cca575060038251105b1515613d45576040805160e560020a62461bcd028152602060048201526024808201527f4e6f2066756e642072616973696e672063757272656e6369657320737065636960448201527f6669656400000000000000000000000000000000000000000000000000000000606482015290519081900360840190fd5b5060036020527fa15bc60c955c405d20d9149c709e2460f1c2d9a497496a7f46004d1772c3054c805460ff1990811690915560008080527f3617319a054d772f909f7c479a2cebe5066e836a939412e32403c99029b92eff80549092169091555b81518160ff161015613e27576002828260ff16815181101515613dc557fe5b6020908102909101015160ff1610613ddc57600080fd5b600160036000848460ff16815181101515613df357fe5b60209081029190910181015160ff168252810191909152604001600020805460ff1916911515919091179055600101613da6565b7fd7e8f0636144d99ce6bc808676ae1afc565e1864aed7fe1c394437c8eb8f6f14826040518080602001828103825283818151815260200191508051906020019060200280838360005b83811015613e89578181015183820152602001613e71565b505050509050019250505060405180910390a15050565b600080600080600080868015613eec57506014805460ff8b16908110613ec257fe5b906000526020600020015460108a60ff16815481101515613edf57fe5b9060005260206000200154115b1561405757613f2360148a60ff16815481101515613f0657fe5b906000526020600020015460108b60ff1681548110151561151057fe5b9150613f5760118a60ff16815481101515613f3a57fe5b9060005260206000200154600f8b60ff1681548110151561151057fe5b905081811015613f9457613f8a8a600e8b60ff16815481101515613f7757fe5b9060005260206000200154838b8d6141eb565b9095509250613fc3565b613fbd8a600e8b60ff16815481101515613faa57fe5b9060005260206000200154848b8d6141eb565b90955092505b613fd3888663ffffffff6130fa16565b97506140048360148b60ff16815481101515613feb57fe5b90600052602060002001546130ed90919063ffffffff16565b6014805460ff8c1690811061401557fe5b90600052602060002001819055506140398360118b60ff16815481101515613feb57fe5b6011805460ff8c1690811061404a57fe5b6000918252602090912001555b6000881180156140985750600061409660118b60ff1681548110151561407957fe5b9060005260206000200154600f8c60ff1681548110151561151057fe5b115b156141b4576140f78a600d8b60ff168154811015156140b357fe5b90600052602060002001546140f060118d60ff168154811015156140d357fe5b9060005260206000200154600f8e60ff1681548110151561151057fe5b8b8d6141eb565b909450925061410c858563ffffffff6130ed16565b9450861561414c5761412a8360138b60ff16815481101515613feb57fe5b6013805460ff8c1690811061413b57fe5b600091825260209091200155614180565b6141628360128b60ff16815481101515613feb57fe5b6012805460ff8c1690811061417357fe5b6000918252602090912001555b6141968360118b60ff16815481101515613feb57fe5b6011805460ff8c169081106141a757fe5b6000918252602090912001555b509298975050505050505050565b60008215156141d3575060006125a5565b508181028183828115156141e357fe5b04146125a557fe5b60008060008060006141fd878a613ba0565b92508783111561422657614211888a613b65565b91508682111561421f578691505b508661422c565b50859050815b600154604080517f40c10f19000000000000000000000000000000000000000000000000000000008152600160a060020a038d8116600483015260248201859052915191909216916340c10f199160448083019260209291908290030181600087803b15801561429b57600080fd5b505af11580156142af573d6000803e3d6000fd5b505050506040513d60208110156142c557600080fd5b5051151561431d576040805160e560020a62461bcd02815260206004820152601b60248201527f4572726f7220696e206d696e74696e672074686520746f6b656e730000000000604482015290519081900360640190fd5b60408051828152602081018490528082018b905260ff881660608201529051600160a060020a038c169133917f4ca2c8a2cd727df794a09c03500fc3eabcb8a8d7c481e70bdccf06bb7975a5bc9181900360800190a390999098509650505050505050565b8280548282559060005260206000209081019282156143bd579160200282015b828111156143bd5782518255916020019190600101906143a2565b5061289392610fff9250905b8082111561289357600081556001016143c9560053656e646572206973206e6f74206f776e657200000000000000000000000000a165627a7a72305820ada4a5e3d610f6d69f0c9cc03638c959e38a0a473ff7c1808ab2c7e1a5f0a8040029",
  "source": "pragma solidity ^0.4.24;\n\nimport \"./ISTO.sol\";\nimport \"../../interfaces/IST20.sol\";\nimport \"../../interfaces/IOracle.sol\";\nimport \"../../RegistryUpdater.sol\";\nimport \"../../interfaces/ISecurityTokenRegistry.sol\";\nimport \"openzeppelin-solidity/contracts/math/SafeMath.sol\";\nimport \"openzeppelin-solidity/contracts/ReentrancyGuard.sol\";\n\n/**\n * @title STO module for standard capped crowdsale\n */\ncontract USDTieredSTO is ISTO, ReentrancyGuard {\n    using SafeMath for uint256;\n\n    /////////////\n    // Storage //\n    /////////////\n\n    string public POLY_ORACLE = \"PolyUsdOracle\";\n    string public ETH_ORACLE = \"EthUsdOracle\";\n    mapping (bytes32 => mapping (bytes32 => string)) oracleKeys;\n\n    // Address where ETH & POLY funds are delivered\n    address public wallet;\n\n    // Address of issuer reserve wallet for unsold tokens\n    address public reserveWallet;\n\n    // How many token units a buyer gets per USD per tier (multiplied by 10**18)\n    uint256[] public ratePerTier;\n\n    // How many token units a buyer gets per USD per tier (multiplied by 10**18) when investing in POLY up to tokensPerTierDiscountPoly\n    uint256[] public ratePerTierDiscountPoly;\n\n    // How many tokens are available in each tier (relative to totalSupply)\n    uint256[] public tokensPerTierTotal;\n\n    // How many token units are available in each tier (relative to totalSupply) at the ratePerTierDiscountPoly rate\n    uint256[] public tokensPerTierDiscountPoly;\n\n    // How many tokens have been minted in each tier (relative to totalSupply)\n    uint256[] public mintedPerTierTotal;\n\n    // How many tokens have been minted in each tier (relative to totalSupply) at ETH rate\n    uint256[] public mintedPerTierETH;\n\n    // How many tokens have been minted in each tier (relative to totalSupply) at regular POLY rate\n    uint256[] public mintedPerTierRegularPoly;\n\n    // How many tokens have been minted in each tier (relative to totalSupply) at discounted POLY rate\n    uint256[] public mintedPerTierDiscountPoly;\n\n    // Current tier\n    uint8 public currentTier;\n\n    // Amount of USD funds raised\n    uint256 public fundsRaisedUSD;\n\n    // Amount of ETH funds raised\n    uint256 public fundsRaisedETH;\n\n    // Amount of POLY funds raised\n    uint256 public fundsRaisedPOLY;\n\n    // Number of individual investors\n    uint256 public investorCount;\n\n    // Amount in USD invested by each address\n    mapping (address => uint256) public investorInvestedUSD;\n\n    // Amount in ETH invested by each address\n    mapping (address => uint256) public investorInvestedETH;\n\n    // Amount in POLY invested by each address\n    mapping (address => uint256) public investorInvestedPOLY;\n\n    // List of accredited investors\n    mapping (address => bool) public accredited;\n\n    // Limit in USD for non-accredited investors multiplied by 10**18\n    uint256 public nonAccreditedLimitUSD;\n\n    // Minimum investable amount in USD\n    uint256 public minimumInvestmentUSD;\n\n    // Whether or not the STO has been finalized\n    bool public isFinalized;\n\n    // Final amount of tokens sold\n    uint256 public finalAmountSold;\n\n    // Final amount of tokens returned to issuer\n    uint256 public finalAmountReturned;\n\n    ////////////\n    // Events //\n    ////////////\n\n    event TokenPurchase(address indexed _purchaser, address indexed _beneficiary, uint256 _tokens, uint256 _usdAmount, uint256 _tierPrice, uint8 _tier);\n    event FundsReceivedETH(address indexed _purchaser, address indexed _beneficiary, uint256 _usdAmount, uint256 _receivedValue, uint256 _spentValue, uint256 _rate);\n    event FundsReceivedPOLY(address indexed _purchaser, address indexed _beneficiary, uint256 _usdAmount, uint256 _receivedValue, uint256 _spentValue, uint256 _rate);\n    event ReserveTokenMint(address indexed _owner, address indexed _wallet, uint256 _tokens, uint8 _tier);\n    event SetAddresses(\n        address indexed _wallet,\n        address indexed _reserveWallet\n    );\n    event SetLimits(\n        uint256 _nonAccreditedLimitUSD,\n        uint256 _minimumInvestmentUSD\n    );\n    event SetFunding(\n        uint8[] _fundRaiseTypes\n    );\n    event SetTimes(\n        uint256 _startTime,\n        uint256 _endTime\n    );\n    event SetTiers(\n        uint256[] _ratePerTier,\n        uint256[] _ratePerTierDiscountPoly,\n        uint256[] _tokensPerTierTotal,\n        uint256[] _tokensPerTierDiscountPoly\n    );\n\n    ///////////////\n    // Modifiers //\n    ///////////////\n\n    modifier validETH {\n        require(getOracle(bytes32(\"ETH\"), bytes32(\"USD\")) != address(0), \"Invalid ETHUSD Oracle\");\n        require(fundRaiseType[uint8(FundRaiseType.ETH)]);\n        _;\n    }\n\n    modifier validPOLY {\n        require(getOracle(bytes32(\"POLY\"), bytes32(\"USD\")) != address(0), \"Invalid ETHUSD Oracle\");\n        require(fundRaiseType[uint8(FundRaiseType.POLY)]);\n        _;\n    }\n\n    ///////////////////////\n    // STO Configuration //\n    ///////////////////////\n\n    constructor (address _securityToken, address _polyAddress) public IModule(_securityToken, _polyAddress) {\n        oracleKeys[bytes32(\"ETH\")][bytes32(\"USD\")] = ETH_ORACLE;\n        oracleKeys[bytes32(\"POLY\")][bytes32(\"USD\")] = POLY_ORACLE;\n    }\n\n    /**\n     * @notice Function used to intialize the contract variables\n     * @param _startTime Unix timestamp at which offering get started\n     * @param _endTime Unix timestamp at which offering get ended\n     * @param _ratePerTier Rate (in USD) per tier (* 10**18)\n     * @param _tokensPerTierTotal Tokens available in each tier\n     * @param _nonAccreditedLimitUSD Limit in USD (* 10**18) for non-accredited investors\n     * @param _minimumInvestmentUSD Minimun investment in USD (* 10**18)\n     * @param _fundRaiseTypes Types of currency used to collect the funds\n     * @param _wallet Ethereum account address to hold the funds\n     * @param _reserveWallet Ethereum account address to receive unsold tokens\n     */\n    function configure(\n        uint256 _startTime,\n        uint256 _endTime,\n        uint256[] _ratePerTier,\n        uint256[] _ratePerTierDiscountPoly,\n        uint256[] _tokensPerTierTotal,\n        uint256[] _tokensPerTierDiscountPoly,\n        uint256 _nonAccreditedLimitUSD,\n        uint256 _minimumInvestmentUSD,\n        uint8[] _fundRaiseTypes,\n        address _wallet,\n        address _reserveWallet\n    ) public onlyFactory {\n        _configureFunding(_fundRaiseTypes);\n        _configureAddresses(_wallet, _reserveWallet);\n        _configureTiers(_ratePerTier, _ratePerTierDiscountPoly, _tokensPerTierTotal, _tokensPerTierDiscountPoly);\n        _configureTimes(_startTime, _endTime);\n        _configureLimits(_nonAccreditedLimitUSD, _minimumInvestmentUSD);\n    }\n\n    function modifyFunding(uint8[] _fundRaiseTypes) public onlyOwner {\n        require(now < startTime);\n        _configureFunding(_fundRaiseTypes);\n    }\n\n    function modifyLimits(\n        uint256 _nonAccreditedLimitUSD,\n        uint256 _minimumInvestmentUSD\n    ) public onlyOwner {\n        require(now < startTime);\n        _configureLimits(_nonAccreditedLimitUSD, _minimumInvestmentUSD);\n    }\n\n    function modifyTiers(\n        uint256[] _ratePerTier,\n        uint256[] _ratePerTierDiscountPoly,\n        uint256[] _tokensPerTierTotal,\n        uint256[] _tokensPerTierDiscountPoly\n    ) public onlyOwner {\n        require(now < startTime);\n        _configureTiers(_ratePerTier, _ratePerTierDiscountPoly, _tokensPerTierTotal, _tokensPerTierDiscountPoly);\n    }\n\n    function modifyTimes(\n        uint256 _startTime,\n        uint256 _endTime\n    ) public onlyOwner {\n        require(now < startTime);\n        _configureTimes(_startTime, _endTime);\n    }\n\n    function modifyAddresses(\n        address _wallet,\n        address _reserveWallet\n    ) public onlyOwner {\n        require(now < startTime);\n        _configureAddresses(_wallet, _reserveWallet);\n    }\n\n    function _configureFunding(uint8[] _fundRaiseTypes) internal {\n        require(_fundRaiseTypes.length > 0 && _fundRaiseTypes.length < 3, \"No fund raising currencies specified\");\n        fundRaiseType[uint8(FundRaiseType.POLY)] = false;\n        fundRaiseType[uint8(FundRaiseType.ETH)] = false;\n        for (uint8 j = 0; j < _fundRaiseTypes.length; j++) {\n            require(_fundRaiseTypes[j] < 2);\n            fundRaiseType[_fundRaiseTypes[j]] = true;\n        }\n        emit SetFunding(_fundRaiseTypes);\n    }\n\n    function _configureLimits(\n        uint256 _nonAccreditedLimitUSD,\n        uint256 _minimumInvestmentUSD\n    ) internal {\n        minimumInvestmentUSD = _minimumInvestmentUSD;\n        nonAccreditedLimitUSD = _nonAccreditedLimitUSD;\n        emit SetLimits(minimumInvestmentUSD, nonAccreditedLimitUSD);\n    }\n\n    function _configureTiers(\n        uint256[] _ratePerTier,\n        uint256[] _ratePerTierDiscountPoly,\n        uint256[] _tokensPerTierTotal,\n        uint256[] _tokensPerTierDiscountPoly\n    ) internal {\n        require(_tokensPerTierTotal.length > 0);\n        require(_ratePerTier.length == _tokensPerTierTotal.length, \"Mismatch between rates and tokens per tier\");\n        require(_ratePerTierDiscountPoly.length == _tokensPerTierTotal.length, \"Mismatch between discount rates and tokens per tier\");\n        require(_tokensPerTierDiscountPoly.length == _tokensPerTierTotal.length, \"Mismatch between discount tokens per tier and tokens per tier\");\n        for (uint8 i = 0; i < _ratePerTier.length; i++) {\n            require(_ratePerTier[i] > 0, \"Rate of token should be greater than 0\");\n            require(_tokensPerTierTotal[i] > 0, \"Tokens per tier should be greater than 0\");\n            require(_tokensPerTierDiscountPoly[i] <= _tokensPerTierTotal[i], \"Discounted tokens per tier should be less than or equal to tokens per tier\");\n            require(_ratePerTierDiscountPoly[i] <= _ratePerTier[i], \"Discounted rate per tier should be less than or equal to rate per tier\");\n        }\n        mintedPerTierTotal = new uint256[](_ratePerTier.length);\n        mintedPerTierETH = new uint256[](_ratePerTier.length);\n        mintedPerTierRegularPoly = new uint256[](_ratePerTier.length);\n        mintedPerTierDiscountPoly = new uint256[](_ratePerTier.length);\n        ratePerTier = _ratePerTier;\n        ratePerTierDiscountPoly = _ratePerTierDiscountPoly;\n        tokensPerTierTotal = _tokensPerTierTotal;\n        tokensPerTierDiscountPoly = _tokensPerTierDiscountPoly;\n        emit SetTiers(_ratePerTier, _ratePerTierDiscountPoly, _tokensPerTierTotal, _tokensPerTierDiscountPoly);\n    }\n\n    function _configureTimes(\n        uint256 _startTime,\n        uint256 _endTime\n    ) internal {\n        require(_endTime > _startTime, \"Date parameters are not valid\");\n        require(_startTime > now, \"Start Time must be in the future\");\n        startTime = _startTime;\n        endTime = _endTime;\n        emit SetTimes(_startTime, _endTime);\n    }\n\n    function _configureAddresses(\n        address _wallet,\n        address _reserveWallet\n    ) internal {\n        require(_wallet != address(0), \"Zero address is not permitted for wallet\");\n        require(_reserveWallet != address(0), \"Zero address is not permitted for wallet\");\n        wallet = _wallet;\n        reserveWallet = _reserveWallet;\n        emit SetAddresses(_wallet, _reserveWallet);\n    }\n\n    ////////////////////\n    // STO Management //\n    ////////////////////\n\n    /**\n     * @notice Finalize the STO and mint remaining tokens to reserve address\n     * @notice Reserve address must be whitelisted to successfully finalize\n     */\n    function finalize() public onlyOwner {\n        require(!isFinalized);\n        isFinalized = true;\n        uint256 tempReturned;\n        uint256 tempSold;\n        uint256 remainingTokens;\n        for (uint8 i = 0; i < tokensPerTierTotal.length; i++) {\n            remainingTokens = tokensPerTierTotal[i].sub(mintedPerTierTotal[i]);\n            tempReturned = tempReturned.add(remainingTokens);\n            tempSold = tempSold.add(mintedPerTierTotal[i]);\n            if (remainingTokens > 0) {\n                mintedPerTierTotal[i] = tokensPerTierTotal[i];\n                require(IST20(securityToken).mint(reserveWallet, remainingTokens), \"Error in minting the tokens\");\n                emit ReserveTokenMint(msg.sender, reserveWallet, remainingTokens, i);\n            }\n        }\n        finalAmountReturned = tempReturned;\n        finalAmountSold = tempSold;\n    }\n\n    /**\n     * @notice Modify the list of accredited addresses\n     * @param _investors Array of investor addresses to modify\n     * @param _accredited Array of bools specifying accreditation status\n     */\n    function changeAccredited(address[] _investors, bool[] _accredited) public onlyOwner {\n        require(_investors.length == _accredited.length);\n        for (uint256 i = 0; i < _investors.length; i++) {\n            accredited[_investors[i]] = _accredited[i];\n        }\n    }\n\n    //////////////////////////\n    // Investment Functions //\n    //////////////////////////\n\n    /**\n    * @notice fallback function - assumes ETH being invested\n    */\n    function () external payable {\n        buyWithETH(msg.sender);\n    }\n\n    /**\n      * @notice Purchase tokens using ETH\n      * @param _beneficiary Address where security tokens will be sent\n      */\n    function buyWithETH(address _beneficiary) public payable validETH {\n        uint256 rate = IOracle(getOracle(bytes32(\"ETH\"), bytes32(\"USD\"))).getPrice();\n        (uint256 spentUSD, uint256 spentValue) = _buyTokens(_beneficiary, msg.value, rate, false);\n        // Modify storage\n        investorInvestedETH[_beneficiary] = investorInvestedETH[_beneficiary].add(spentValue);\n        fundsRaisedETH = fundsRaisedETH.add(spentValue);\n        // Forward ETH to issuer wallet\n        wallet.transfer(spentValue);\n        // Refund excess ETH to investor wallet\n        msg.sender.transfer(msg.value.sub(spentValue));\n        emit FundsReceivedETH(msg.sender, _beneficiary, spentUSD, msg.value, spentValue, rate);\n    }\n\n    /**\n      * @notice Purchase tokens using POLY\n      * @param _beneficiary Address where security tokens will be sent\n      * @param _investedPOLY Amount of POLY invested\n      */\n    function buyWithPOLY(address _beneficiary, uint256 _investedPOLY) public validPOLY {\n        uint256 rate = IOracle(getOracle(bytes32(\"POLY\"), bytes32(\"USD\"))).getPrice();\n        (uint256 spentUSD, uint256 spentValue) = _buyTokens(_beneficiary, _investedPOLY, rate, true);\n        // Modify storage\n        investorInvestedPOLY[_beneficiary] = investorInvestedPOLY[_beneficiary].add(spentValue);\n        fundsRaisedPOLY = fundsRaisedPOLY.add(spentValue);\n        // Forward POLY to issuer wallet\n        require(polyToken.transferFrom(msg.sender, wallet, spentValue));\n        emit FundsReceivedPOLY(msg.sender, _beneficiary, spentUSD, _investedPOLY, spentValue, rate);\n    }\n\n    /**\n      * @notice Low level token purchase\n      * @param _beneficiary Address where security tokens will be sent\n      * @param _investmentValue Amount of POLY or ETH invested\n      * @param _isPOLY Investment method\n      */\n    function _buyTokens(address _beneficiary, uint256 _investmentValue, uint256 _rate, bool _isPOLY) internal nonReentrant whenNotPaused returns(uint256, uint256) {\n        require(isOpen(), \"STO is not open\");\n        require(_investmentValue > 0, \"No funds were sent to buy tokens\");\n\n        uint256 investedUSD = decimalMul(_rate, _investmentValue);\n        uint256 originalUSD = investedUSD;\n\n        // Check for minimum investment\n        require(investedUSD.add(investorInvestedUSD[_beneficiary]) >= minimumInvestmentUSD, \"Total investment less than minimumInvestmentUSD\");\n\n        // Check for non-accredited cap\n        if (!accredited[_beneficiary]) {\n            require(investorInvestedUSD[_beneficiary] < nonAccreditedLimitUSD, \"Non-accredited investor has already reached nonAccreditedLimitUSD\");\n            if (investedUSD.add(investorInvestedUSD[_beneficiary]) > nonAccreditedLimitUSD)\n                investedUSD = nonAccreditedLimitUSD.sub(investorInvestedUSD[_beneficiary]);\n        }\n\n        uint256 spentUSD;\n        // Iterate over each tier and process payment\n        for (uint8 i = currentTier; i < ratePerTier.length; i++) {\n            // Update current tier if needed\n            if (currentTier != i)\n                currentTier = i;\n            // If there are tokens remaining, process investment\n            if (mintedPerTierTotal[i] < tokensPerTierTotal[i])\n                spentUSD = spentUSD.add(_calculateTier(_beneficiary, i, investedUSD.sub(spentUSD), _isPOLY));\n            // If all funds have been spent, exit the loop\n            if (investedUSD == spentUSD)\n                break;\n        }\n\n        // Modify storage\n        if (spentUSD > 0) {\n            if (investorInvestedUSD[_beneficiary] == 0)\n                investorCount = investorCount + 1;\n            investorInvestedUSD[_beneficiary] = investorInvestedUSD[_beneficiary].add(spentUSD);\n            fundsRaisedUSD = fundsRaisedUSD.add(spentUSD);\n        }\n\n        // Calculate spent in base currency (ETH or POLY)\n        uint256 spentValue;\n        if (spentUSD == 0) {\n            spentValue = 0;\n        } else {\n            spentValue = decimalMul(decimalDiv(spentUSD, originalUSD), _investmentValue);\n        }\n\n        // Return calculated amounts\n        return (spentUSD, spentValue);\n    }\n\n    function _calculateTier(address _beneficiary, uint8 _tier, uint256 _investedUSD, bool _isPOLY) internal returns(uint256) {\n        // First purchase any discounted tokens if POLY investment\n        uint256 spentUSD;\n        uint256 tierSpentUSD;\n        uint256 tierPurchasedTokens;\n        // Check whether there are any remaining discounted tokens\n        if (_isPOLY && tokensPerTierDiscountPoly[_tier] > mintedPerTierDiscountPoly[_tier]) {\n            uint256 discountRemaining = tokensPerTierDiscountPoly[_tier].sub(mintedPerTierDiscountPoly[_tier]);\n            uint256 totalRemaining = tokensPerTierTotal[_tier].sub(mintedPerTierTotal[_tier]);\n            if (totalRemaining < discountRemaining)\n                (spentUSD, tierPurchasedTokens) = _purchaseTier(_beneficiary, ratePerTierDiscountPoly[_tier], totalRemaining, _investedUSD, _tier);\n            else\n                (spentUSD, tierPurchasedTokens) = _purchaseTier(_beneficiary, ratePerTierDiscountPoly[_tier], discountRemaining, _investedUSD, _tier);\n            _investedUSD = _investedUSD.sub(spentUSD);\n            mintedPerTierDiscountPoly[_tier] = mintedPerTierDiscountPoly[_tier].add(tierPurchasedTokens);\n            mintedPerTierTotal[_tier] = mintedPerTierTotal[_tier].add(tierPurchasedTokens);\n        }\n        // Now, if there is any remaining USD to be invested, purchase at non-discounted rate\n        if ((_investedUSD > 0) && (tokensPerTierTotal[_tier].sub(mintedPerTierTotal[_tier]) > 0)) {\n            (tierSpentUSD, tierPurchasedTokens) = _purchaseTier(_beneficiary, ratePerTier[_tier], tokensPerTierTotal[_tier].sub(mintedPerTierTotal[_tier]), _investedUSD, _tier);\n            spentUSD = spentUSD.add(tierSpentUSD);\n            if (_isPOLY)\n                mintedPerTierRegularPoly[_tier] = mintedPerTierRegularPoly[_tier].add(tierPurchasedTokens);\n            else\n                mintedPerTierETH[_tier] = mintedPerTierETH[_tier].add(tierPurchasedTokens);\n            mintedPerTierTotal[_tier] = mintedPerTierTotal[_tier].add(tierPurchasedTokens);\n        }\n        return spentUSD;\n    }\n\n    function _purchaseTier(address _beneficiary, uint256 _tierPrice, uint256 _tierRemaining, uint256 _investedUSD, uint8 _tier) internal returns(uint256, uint256) {\n        uint256 maximumTokens = decimalDiv(_investedUSD, _tierPrice);\n        uint256 spentUSD;\n        uint256 purchasedTokens;\n        if (maximumTokens > _tierRemaining) {\n            spentUSD = decimalMul(_tierRemaining, _tierPrice);\n            // In case of rounding issues, ensure that spentUSD is never more than investedUSD\n            if (spentUSD > _investedUSD) {\n                spentUSD = _investedUSD;\n            }\n            purchasedTokens = _tierRemaining;\n        } else {\n            spentUSD = _investedUSD;\n            purchasedTokens = maximumTokens;\n        }\n        require(IST20(securityToken).mint(_beneficiary, purchasedTokens), \"Error in minting the tokens\");\n        emit TokenPurchase(msg.sender, _beneficiary, purchasedTokens, spentUSD, _tierPrice, _tier);\n        return (spentUSD, purchasedTokens);\n    }\n\n    /////////////\n    // Getters //\n    /////////////\n\n    /**\n     * @notice This function returns whether or not the STO is in fundraising mode (open)\n     * @return bool Whether the STO is accepting investments\n     */\n    function isOpen() public view returns(bool) {\n        if (isFinalized)\n            return false;\n        if (now < startTime)\n            return false;\n        if (now >= endTime)\n            return false;\n        if (capReached())\n            return false;\n        return true;\n    }\n\n    /**\n     * @notice This function converts from ETH or POLY to USD\n     * @param _currency Currency key\n     * @param _amount Value to convert to USD\n     * @return uint256 Value in USD\n     */\n    function convertToUSD(bytes32 _currency, uint256 _amount) public view returns(uint256) {\n        uint256 rate = IOracle(getOracle(_currency, bytes32(\"USD\"))).getPrice();\n        return decimalMul(_amount, rate);\n    }\n\n    /**\n     * @notice This function converts from USD to ETH or POLY\n     * @param _currency Currency key\n     * @param _amount Value to convert from USD\n     * @return uint256 Value in ETH or POLY\n     */\n    function convertFromUSD(bytes32 _currency, uint256 _amount) public view returns(uint256) {\n        uint256 rate = IOracle(getOracle(_currency, bytes32(\"USD\"))).getPrice();\n        return decimalDiv(_amount, rate);\n    }\n\n    /**\n     * @notice Checks whether the cap has been reached.\n     * @return bool Whether the cap was reached\n     */\n    function capReached() public view returns (bool) {\n        if (isFinalized) {\n            return (finalAmountReturned == 0);\n        }\n        return (mintedPerTierTotal[mintedPerTierTotal.length - 1] == tokensPerTierTotal[tokensPerTierTotal.length - 1]);\n    }\n\n    /**\n     * @notice Return ETH raised by the STO\n     * @return uint256 Amount of ETH raised\n     */\n    function getRaisedEther() public view returns (uint256) {\n        return fundsRaisedETH;\n    }\n\n    /**\n     * @notice Return POLY raised by the STO\n     * @return uint256 Amount of POLY raised\n     */\n    function getRaisedPOLY() public view returns (uint256) {\n        return fundsRaisedPOLY;\n    }\n\n    /**\n     * @notice Return USD raised by the STO\n     * @return uint256 Amount of USD raised\n     */\n    function getRaisedUSD() public view returns (uint256) {\n        return fundsRaisedUSD;\n    }\n\n    /**\n     * @notice Return the total no. of investors\n     * @return uint256 Investor count\n     */\n    function getNumberInvestors() public view returns (uint256) {\n        return investorCount;\n    }\n\n    /**\n     * @notice Return the total no. of tokens sold\n     * @return uint256 Total number of tokens sold\n     */\n    function getTokensSold() public view returns (uint256) {\n        if (isFinalized)\n            return finalAmountSold;\n        else\n            return getTokensMinted();\n    }\n\n    /**\n     * @notice Return the total no. of tokens minted\n     * @return uint256 Total number of tokens minted\n     */\n    function getTokensMinted() public view returns (uint256) {\n        uint256 tokensMinted;\n        for (uint8 i = 0; i < mintedPerTierTotal.length; i++) {\n            tokensMinted = tokensMinted.add(mintedPerTierTotal[i]);\n        }\n        return tokensMinted;\n    }\n\n    /**\n     * @notice Return the total no. of tokens sold for ETH\n     * @return uint256 Total number of tokens sold for ETH\n     */\n    function getTokensSoldForETH() public view returns (uint256) {\n        uint256 tokensSold;\n        for (uint8 i = 0; i < mintedPerTierETH.length; i++) {\n            tokensSold = tokensSold.add(mintedPerTierETH[i]);\n        }\n        return tokensSold;\n    }\n\n    /**\n     * @notice Return the total no. of tokens sold for POLY\n     * @return uint256 Total number of tokens sold for POLY\n     */\n    function getTokensSoldForPOLY() public view returns (uint256) {\n        uint256 tokensSold;\n        for (uint8 i = 0; i < mintedPerTierRegularPoly.length; i++) {\n            tokensSold = tokensSold.add(mintedPerTierRegularPoly[i]).add(mintedPerTierDiscountPoly[i]);\n        }\n        return tokensSold;\n    }\n\n    /**\n     * @notice Return the total no. of tiers\n     * @return uint256 Total number of tiers\n     */\n    function getNumberOfTiers() public view returns (uint256) {\n        return tokensPerTierTotal.length;\n    }\n\n    /**\n     * @notice Return the permissions flag that are associated with STO\n     */\n    function getPermissions() public view returns(bytes32[]) {\n        bytes32[] memory allPermissions = new bytes32[](0);\n        return allPermissions;\n    }\n\n    /**\n     * @notice This function returns the signature of configure function\n     * @return bytes4 Configure function signature\n     */\n    function getInitFunction() public pure returns (bytes4) {\n        return bytes4(keccak256(\"configure(uint256,uint256,uint256[],uint256[],uint256[],uint256[],uint256,uint256,uint8[],address,address)\"));\n    }\n\n    uint constant DECIMALS = 10 ** 18;\n\n    /**\n     * @notice This function multiplies two decimals represented as (decimal * 10**DECIMALS)\n     * @return uint256 Result of multiplication represented as (decimal * 10**DECIMALS)\n     */\n    function decimalMul(uint256 x, uint256 y) internal pure returns (uint256 z) {\n        z = SafeMath.add(SafeMath.mul(x, y), DECIMALS / 2) / DECIMALS;\n    }\n\n    /**\n     * @notice This function divides two decimals represented as (decimal * 10**DECIMALS)\n     * @return uint256 Result of division represented as (decimal * 10**DECIMALS)\n     */\n    function decimalDiv(uint256 x, uint256 y) internal pure returns (uint256 z) {\n        z = SafeMath.add(SafeMath.mul(x, DECIMALS), y / 2) / y;\n    }\n\n    function getOracle(bytes32 _currency, bytes32 _denominatedCurrency) internal view returns (address) {\n        return PolymathRegistry(RegistryUpdater(securityToken).polymathRegistry()).getAddress(oracleKeys[_currency][_denominatedCurrency]);\n    }\n\n}\n",
  "sourcePath": "/Users/rafaelvidaurre/Code/polymath/polymath-apps/packages/polymath-shared/contracts/modules/STO/USDTieredSTO.sol",
  "compiler": {
    "name": "solc",
    "version": "0.4.24+commit.e67f0147.Emscripten.clang"
  },
  "schemaVersion": "2.0.1",
  "updatedAt": "2018-09-20T22:48:17.337Z"
}