{
  "contractName": "SecurityTokenRegistry",
  "abi": [
    {
      "constant": true,
      "inputs": [],
      "name": "registrationFee",
      "outputs": [
        {
          "name": "",
          "type": "uint256"
        }
      ],
      "payable": false,
      "stateMutability": "view",
      "type": "function"
    },
    {
      "constant": true,
      "inputs": [],
      "name": "tickerRegistry",
      "outputs": [
        {
          "name": "",
          "type": "address"
        }
      ],
      "payable": false,
      "stateMutability": "view",
      "type": "function"
    },
    {
      "constant": true,
      "inputs": [],
      "name": "protocolVersion",
      "outputs": [
        {
          "name": "",
          "type": "bytes32"
        }
      ],
      "payable": false,
      "stateMutability": "view",
      "type": "function"
    },
    {
      "constant": true,
      "inputs": [],
      "name": "paused",
      "outputs": [
        {
          "name": "",
          "type": "bool"
        }
      ],
      "payable": false,
      "stateMutability": "view",
      "type": "function"
    },
    {
      "constant": true,
      "inputs": [],
      "name": "polyToken",
      "outputs": [
        {
          "name": "",
          "type": "address"
        }
      ],
      "payable": false,
      "stateMutability": "view",
      "type": "function"
    },
    {
      "constant": false,
      "inputs": [],
      "name": "renounceOwnership",
      "outputs": [],
      "payable": false,
      "stateMutability": "nonpayable",
      "type": "function"
    },
    {
      "constant": true,
      "inputs": [
        {
          "name": "",
          "type": "bytes32"
        }
      ],
      "name": "protocolVersionST",
      "outputs": [
        {
          "name": "",
          "type": "address"
        }
      ],
      "payable": false,
      "stateMutability": "view",
      "type": "function"
    },
    {
      "constant": true,
      "inputs": [],
      "name": "polymathRegistry",
      "outputs": [
        {
          "name": "",
          "type": "address"
        }
      ],
      "payable": false,
      "stateMutability": "view",
      "type": "function"
    },
    {
      "constant": false,
      "inputs": [
        {
          "name": "_tokenContract",
          "type": "address"
        }
      ],
      "name": "reclaimERC20",
      "outputs": [],
      "payable": false,
      "stateMutability": "nonpayable",
      "type": "function"
    },
    {
      "constant": true,
      "inputs": [],
      "name": "owner",
      "outputs": [
        {
          "name": "",
          "type": "address"
        }
      ],
      "payable": false,
      "stateMutability": "view",
      "type": "function"
    },
    {
      "constant": true,
      "inputs": [],
      "name": "moduleRegistry",
      "outputs": [
        {
          "name": "",
          "type": "address"
        }
      ],
      "payable": false,
      "stateMutability": "view",
      "type": "function"
    },
    {
      "constant": true,
      "inputs": [],
      "name": "securityTokenRegistry",
      "outputs": [
        {
          "name": "",
          "type": "address"
        }
      ],
      "payable": false,
      "stateMutability": "view",
      "type": "function"
    },
    {
      "constant": false,
      "inputs": [
        {
          "name": "_newOwner",
          "type": "address"
        }
      ],
      "name": "transferOwnership",
      "outputs": [],
      "payable": false,
      "stateMutability": "nonpayable",
      "type": "function"
    },
    {
      "constant": false,
      "inputs": [],
      "name": "updateFromRegistry",
      "outputs": [],
      "payable": false,
      "stateMutability": "nonpayable",
      "type": "function"
    },
    {
      "inputs": [
        {
          "name": "_polymathRegistry",
          "type": "address"
        },
        {
          "name": "_stVersionProxy",
          "type": "address"
        },
        {
          "name": "_registrationFee",
          "type": "uint256"
        }
      ],
      "payable": false,
      "stateMutability": "nonpayable",
      "type": "constructor"
    },
    {
      "anonymous": false,
      "inputs": [
        {
          "indexed": false,
          "name": "_oldFee",
          "type": "uint256"
        },
        {
          "indexed": false,
          "name": "_newFee",
          "type": "uint256"
        }
      ],
      "name": "LogChangePolyRegisterationFee",
      "type": "event"
    },
    {
      "anonymous": false,
      "inputs": [
        {
          "indexed": false,
          "name": "_ticker",
          "type": "string"
        },
        {
          "indexed": true,
          "name": "_securityTokenAddress",
          "type": "address"
        },
        {
          "indexed": true,
          "name": "_owner",
          "type": "address"
        }
      ],
      "name": "LogNewSecurityToken",
      "type": "event"
    },
    {
      "anonymous": false,
      "inputs": [
        {
          "indexed": false,
          "name": "_name",
          "type": "string"
        },
        {
          "indexed": false,
          "name": "_symbol",
          "type": "string"
        },
        {
          "indexed": false,
          "name": "_securityToken",
          "type": "address"
        },
        {
          "indexed": false,
          "name": "_addedAt",
          "type": "uint256"
        }
      ],
      "name": "LogAddCustomSecurityToken",
      "type": "event"
    },
    {
      "anonymous": false,
      "inputs": [
        {
          "indexed": true,
          "name": "previousOwner",
          "type": "address"
        }
      ],
      "name": "OwnershipRenounced",
      "type": "event"
    },
    {
      "anonymous": false,
      "inputs": [
        {
          "indexed": true,
          "name": "previousOwner",
          "type": "address"
        },
        {
          "indexed": true,
          "name": "newOwner",
          "type": "address"
        }
      ],
      "name": "OwnershipTransferred",
      "type": "event"
    },
    {
      "anonymous": false,
      "inputs": [
        {
          "indexed": false,
          "name": "_timestammp",
          "type": "uint256"
        }
      ],
      "name": "Pause",
      "type": "event"
    },
    {
      "anonymous": false,
      "inputs": [
        {
          "indexed": false,
          "name": "_timestamp",
          "type": "uint256"
        }
      ],
      "name": "Unpause",
      "type": "event"
    },
    {
      "constant": false,
      "inputs": [
        {
          "name": "_name",
          "type": "string"
        },
        {
          "name": "_symbol",
          "type": "string"
        },
        {
          "name": "_tokenDetails",
          "type": "string"
        },
        {
          "name": "_divisible",
          "type": "bool"
        }
      ],
      "name": "generateSecurityToken",
      "outputs": [],
      "payable": false,
      "stateMutability": "nonpayable",
      "type": "function"
    },
    {
      "constant": false,
      "inputs": [
        {
          "name": "_name",
          "type": "string"
        },
        {
          "name": "_symbol",
          "type": "string"
        },
        {
          "name": "_owner",
          "type": "address"
        },
        {
          "name": "_securityToken",
          "type": "address"
        },
        {
          "name": "_tokenDetails",
          "type": "string"
        },
        {
          "name": "_swarmHash",
          "type": "bytes32"
        }
      ],
      "name": "addCustomSecurityToken",
      "outputs": [],
      "payable": false,
      "stateMutability": "nonpayable",
      "type": "function"
    },
    {
      "constant": false,
      "inputs": [
        {
          "name": "_stVersionProxyAddress",
          "type": "address"
        },
        {
          "name": "_version",
          "type": "bytes32"
        }
      ],
      "name": "setProtocolVersion",
      "outputs": [],
      "payable": false,
      "stateMutability": "nonpayable",
      "type": "function"
    },
    {
      "constant": true,
      "inputs": [
        {
          "name": "_symbol",
          "type": "string"
        }
      ],
      "name": "getSecurityTokenAddress",
      "outputs": [
        {
          "name": "",
          "type": "address"
        }
      ],
      "payable": false,
      "stateMutability": "view",
      "type": "function"
    },
    {
      "constant": true,
      "inputs": [
        {
          "name": "_securityToken",
          "type": "address"
        }
      ],
      "name": "getSecurityTokenData",
      "outputs": [
        {
          "name": "",
          "type": "string"
        },
        {
          "name": "",
          "type": "address"
        },
        {
          "name": "",
          "type": "string"
        }
      ],
      "payable": false,
      "stateMutability": "view",
      "type": "function"
    },
    {
      "constant": true,
      "inputs": [
        {
          "name": "_securityToken",
          "type": "address"
        }
      ],
      "name": "isSecurityToken",
      "outputs": [
        {
          "name": "",
          "type": "bool"
        }
      ],
      "payable": false,
      "stateMutability": "view",
      "type": "function"
    },
    {
      "constant": false,
      "inputs": [
        {
          "name": "_registrationFee",
          "type": "uint256"
        }
      ],
      "name": "changePolyRegisterationFee",
      "outputs": [],
      "payable": false,
      "stateMutability": "nonpayable",
      "type": "function"
    },
    {
      "constant": false,
      "inputs": [],
      "name": "unpause",
      "outputs": [],
      "payable": false,
      "stateMutability": "nonpayable",
      "type": "function"
    },
    {
      "constant": false,
      "inputs": [],
      "name": "pause",
      "outputs": [],
      "payable": false,
      "stateMutability": "nonpayable",
      "type": "function"
    }
  ],
  "bytecode": "0x60806040527f302e302e310000000000000000000000000000000000000000000000000000006000556004805460ff1916905534801561003e57600080fd5b50604051606080620021f18339810160409081528151602083015191909201516004805461010060a860020a031916336101000217905582600160a060020a038116151561008b57600080fd5b60058054600160a060020a031916600160a060020a0392909216919091179055600a8190556100e3827f302e302e310000000000000000000000000000000000000000000000000000006401000000006100eb810204565b505050610138565b6004546101009004600160a060020a0316331461010757600080fd5b60008181559081526001602052604090208054600160a060020a031916600160a060020a0392909216919091179055565b6120a980620001486000396000f3006080604052600436106101325763ffffffff7c0100000000000000000000000000000000000000000000000000000000600035041663095408a7811461013757806314c44e091461022b5780631dd14317146102525780632a858126146102765780632ae9c600146102a75780633f4ba83a146102bc5780635c975abb146102d15780636faa22a5146102fa578063715018a61461030f57806375f9f5971461032457806377282b701461033c5780638456cb59146103515780638905fd4f146103665780638da5cb5b146103875780638f9bbf161461039c578063a79094b7146104b4578063b95459e4146104cc578063c37792b5146104e1578063ce4dbdff146105ba578063d300a968146105cf578063f2fde38b146105f0578063f433262f14610611578063fb621f1414610626575b600080fd5b34801561014357600080fd5b506040805160206004803580820135601f810184900484028501840190955284845261022994369492936024939284019190819084018382808284375050604080516020601f89358b018035918201839004830284018301909452808352979a99988101979196509182019450925082915084018382808284375050604080516020888301358a018035601f8101839004830284018301909452838352979a8935600160a060020a039081169b8b8401359091169a91999098506060909101965091945090810192508190840183828082843750949750509335945061067f9350505050565b005b34801561023757600080fd5b50610240610c48565b60408051918252519081900360200190f35b34801561025e57600080fd5b50610229600160a060020a0360043516602435610c4e565b34801561028257600080fd5b5061028b610c9b565b60408051600160a060020a039092168252519081900360200190f35b3480156102b357600080fd5b50610240610caa565b3480156102c857600080fd5b50610229610cb0565b3480156102dd57600080fd5b506102e6610cd6565b604080519115158252519081900360200190f35b34801561030657600080fd5b5061028b610cdf565b34801561031b57600080fd5b50610229610cee565b34801561033057600080fd5b5061028b600435610d66565b34801561034857600080fd5b5061028b610d81565b34801561035d57600080fd5b50610229610d90565b34801561037257600080fd5b50610229600160a060020a0360043516610db4565b34801561039357600080fd5b5061028b610f2e565b3480156103a857600080fd5b506103bd600160a060020a0360043516610f42565b604051808060200184600160a060020a0316600160a060020a0316815260200180602001838103835286818151815260200191508051906020019080838360005b838110156104165781810151838201526020016103fe565b50505050905090810190601f1680156104435780820380516001836020036101000a031916815260200191505b50838103825284518152845160209182019186019080838360005b8381101561047657818101518382015260200161045e565b50505050905090810190601f1680156104a35780820380516001836020036101000a031916815260200191505b509550505050505060405180910390f35b3480156104c057600080fd5b50610229600435611119565b3480156104d857600080fd5b5061028b611186565b3480156104ed57600080fd5b506040805160206004803580820135601f810184900484028501840190955284845261022994369492936024939284019190819084018382808284375050604080516020601f89358b018035918201839004830284018301909452808352979a99988101979196509182019450925082915084018382808284375050604080516020601f89358b018035918201839004830284018301909452808352979a999881019791965091820194509250829150840183828082843750949750505050913515159250611195915050565b3480156105c657600080fd5b5061028b6118d2565b3480156105db57600080fd5b506102e6600160a060020a03600435166118e1565b3480156105fc57600080fd5b50610229600160a060020a0360043516611994565b34801561061d57600080fd5b506102296119bc565b34801561063257600080fd5b506040805160206004803580820135601f810184900484028501840190955284845261028b943694929360249392840191908190840183828082843750949750611cd69650505050505050565b6004546060906101009004600160a060020a0316331461069e57600080fd5b60045460ff16156106ae57600080fd5b600087511180156106c0575060008651115b151561073c576040805160e560020a62461bcd02815260206004820152603660248201527f4e616d6520616e642053796d626f6c20737472696e67206c656e67746820736860448201527f6f756c642062652067726561746572207468616e203000000000000000000000606482015290519081900360840190fd5b61074586611d55565b9050600160a060020a038416158015906107d457506000600160a060020a03166003826040518082805190602001908083835b602083106107975780518252601f199092019160209182019101610778565b51815160209384036101000a6000190180199092169116179052920194855250604051938490030190922054600160a060020a0316929092149150505b1515610876576040805160e560020a62461bcd02815260206004820152605160248201527f53796d626f6c20697320616c72656164792061742074686520706f6c796d617460448201527f68206e6574776f726b206f7220656e746572656420736563757269747920746f60648201527f6b656e2061646472657373206973203078000000000000000000000000000000608482015290519081900360a40190fd5b600160a060020a038516151561088b57600080fd5b6008546040517fce9af2b9000000000000000000000000000000000000000000000000000000008152600160a060020a03878116602483015260648201859052608060048301908152845160848401528451919093169263ce9af2b99285928a928d9289928291604481019160a490910190602089019080838360005b83811015610920578181015183820152602001610908565b50505050905090810190601f16801561094d5780820380516001836020036101000a031916815260200191505b50838103825285518152855160209182019187019080838360005b83811015610980578181015183820152602001610968565b50505050905090810190601f1680156109ad5780820380516001836020036101000a031916815260200191505b509650505050505050602060405180830381600087803b1580156109d057600080fd5b505af11580156109e4573d6000803e3d6000fd5b505050506040513d60208110156109fa57600080fd5b505115610a51576040805160e560020a62461bcd02815260206004820152601e60248201527f547279696e6720746f20757365206e6f6e2d76616c69642073796d626f6c0000604482015290519081900360640190fd5b836003826040518082805190602001908083835b60208310610a845780518252601f199092019160209182019101610a65565b51815160209384036101000a60001901801990921691161790529201948552506040805194859003820185208054600160a060020a031916600160a060020a039788161790558481018152868552848201899052948916600090815260028252949094208351805194959194610b009450859350910190611fe2565b506020828101518051610b199260018501920190611fe2565b509050507f64b91bbee335851d4f490bc9a6d0a60e9da265c67d0258e9f300b8a933ecb3408782864260405180806020018060200185600160a060020a0316600160a060020a03168152602001848152602001838103835287818151815260200191508051906020019080838360005b83811015610ba1578181015183820152602001610b89565b50505050905090810190601f168015610bce5780820380516001836020036101000a031916815260200191505b50838103825286518152865160209182019188019080838360005b83811015610c01578181015183820152602001610be9565b50505050905090810190601f168015610c2e5780820380516001836020036101000a031916815260200191505b50965050505050505060405180910390a150505050505050565b600a5481565b6004546101009004600160a060020a03163314610c6a57600080fd5b60008181559081526001602052604090208054600160a060020a031916600160a060020a0392909216919091179055565b600854600160a060020a031681565b60005481565b6004546101009004600160a060020a03163314610ccc57600080fd5b610cd4611eb7565b565b60045460ff1681565b600954600160a060020a031681565b6004546101009004600160a060020a03163314610d0a57600080fd5b600454604051610100909104600160a060020a0316907ff8df31144d9c2f0f6b59d69b8b98abd5459d07f2742c4df920b25aae33c6482090600090a26004805474ffffffffffffffffffffffffffffffffffffffff0019169055565b600160205260009081526040902054600160a060020a031681565b600554600160a060020a031681565b6004546101009004600160a060020a03163314610dac57600080fd5b610cd4611f07565b60045460009081906101009004600160a060020a03163314610dd557600080fd5b600160a060020a0383161515610dea57600080fd5b604080517f70a082310000000000000000000000000000000000000000000000000000000081523060048201529051849350600160a060020a038416916370a082319160248083019260209291908290030181600087803b158015610e4e57600080fd5b505af1158015610e62573d6000803e3d6000fd5b505050506040513d6020811015610e7857600080fd5b505160048054604080517fa9059cbb000000000000000000000000000000000000000000000000000000008152600160a060020a03610100909304831693810193909352602483018490525192935084169163a9059cbb916044808201926020929091908290030181600087803b158015610ef257600080fd5b505af1158015610f06573d6000803e3d6000fd5b505050506040513d6020811015610f1c57600080fd5b50511515610f2957600080fd5b505050565b6004546101009004600160a060020a031681565b600160a060020a038116600081815260026020908152604080832081517f8da5cb5b0000000000000000000000000000000000000000000000000000000081529151606095869492939092638da5cb5b9260048084019382900301818987803b158015610fae57600080fd5b505af1158015610fc2573d6000803e3d6000fd5b505050506040513d6020811015610fd857600080fd5b5051600160a060020a03861660009081526002602081815260409283902085548451600180831615610100026000190190921694909404601f8101849004840285018401909552848452019285918301828280156110775780601f1061104c57610100808354040283529160200191611077565b820191906000526020600020905b81548152906001019060200180831161105a57829003601f168201915b5050845460408051602060026001851615610100026000190190941693909304601f8101849004840282018401909252818152959850869450925084019050828280156111055780601f106110da57610100808354040283529160200191611105565b820191906000526020600020905b8154815290600101906020018083116110e857829003601f168201915b505050505090509250925092509193909250565b6004546101009004600160a060020a0316331461113557600080fd5b600a5481141561114457600080fd5b600a54604080519182526020820183905280517fc999477ee25ca441ffa3217ee90d84865b6d945f40e1d625dc2e8982ed22d3a19281900390910190a1600a55565b600654600160a060020a031681565b60045460609060009060ff16156111ab57600080fd5b600086511180156111bd575060008551115b1515611239576040805160e560020a62461bcd02815260206004820152603660248201527f4e616d6520616e642053796d626f6c20737472696e67206c656e67746820736860448201527f6f756c642062652067726561746572207468616e203000000000000000000000606482015290519081900360840190fd5b6008546040517fac1e765b0000000000000000000000000000000000000000000000000000000081523360248201819052606060048301908152885160648401528851600160a060020a039094169363ac1e765b938a93928c9290918291604482019160840190602088019080838360005b838110156112c35781810151838201526020016112ab565b50505050905090810190601f1680156112f05780820380516001836020036101000a031916815260200191505b50838103825284518152845160209182019186019080838360005b8381101561132357818101518382015260200161130b565b50505050905090810190601f1680156113505780820380516001836020036101000a031916815260200191505b5095505050505050602060405180830381600087803b15801561137257600080fd5b505af1158015611386573d6000803e3d6000fd5b505050506040513d602081101561139c57600080fd5b505115156113f4576040805160e560020a62461bcd02815260206004820152601e60248201527f547279696e6720746f20757365206e6f6e2d76616c69642073796d626f6c0000604482015290519081900360640190fd5b6000600a54111561154357600954600a54604080517f23b872dd000000000000000000000000000000000000000000000000000000008152336004820152306024820152604481019290925251600160a060020a03909216916323b872dd916064808201926020929091908290030181600087803b15801561147557600080fd5b505af1158015611489573d6000803e3d6000fd5b505050506040513d602081101561149f57600080fd5b50511515611543576040805160e560020a62461bcd02815260206004820152604260248201527f4661696c6564207472616e7366657246726f6d2062656361757365206f66207360448201527f7566666963656e7420416c6c6f77616e6365206973206e6f742070726f76696460648201527f6564000000000000000000000000000000000000000000000000000000000000608482015290519081900360a40190fd5b61154c85611d55565b6000805481526001602090815260408083205460055491517fc85fd4f800000000000000000000000000000000000000000000000000000000815260126044820181905233608483018190528a151560a4840152600160a060020a0394851660c4840181905260e0600485019081528f5160e48601528f51999b50959094169763c85fd4f8978f978c9794968f9694958f959194909384936024840193606481019361010490910192918e01918190849084905b83811015611618578181015183820152602001611600565b50505050905090810190601f1680156116455780820380516001836020036101000a031916815260200191505b5084810383528a5181528a516020918201918c019080838360005b83811015611678578181015183820152602001611660565b50505050905090810190601f1680156116a55780820380516001836020036101000a031916815260200191505b5084810382528851815288516020918201918a019080838360005b838110156116d85781810151838201526020016116c0565b50505050905090810190601f1680156117055780820380516001836020036101000a031916815260200191505b509a5050505050505050505050602060405180830381600087803b15801561172c57600080fd5b505af1158015611740573d6000803e3d6000fd5b505050506040513d602081101561175657600080fd5b50516040805180820182528481526020818101889052600160a060020a03841660009081526002825292909220815180519495509193909261179c928492910190611fe2565b5060208281015180516117b59260018501920190611fe2565b50905050806003836040518082805190602001908083835b602083106117ec5780518252601f1990920191602091820191016117cd565b51815160209384036101000a60001901801990921691161790529201948552506040805194859003820185208054600160a060020a031916600160a060020a03978816179055818552875185830152875133968816957f2510d802a0818e71139a7680a6388bcffcd3fa686e02a0f7319488c5bdb38fcb95508994509283928301919085019080838360005b83811015611890578181015183820152602001611878565b50505050905090810190601f1680156118bd5780820380516001836020036101000a031916815260200191505b509250505060405180910390a3505050505050565b600754600160a060020a031681565b60408051600160a060020a038316600090815260026020819052928120805491937fc5d2460186f7233c927e7db2dcc703c0e500b653ca82273b7bfad8045d85a47093919282918491610100600182161502600019011604801561197c5780601f1061195a57610100808354040283529182019161197c565b820191906000526020600020905b815481529060010190602001808311611968575b50506040519081900390209290921415949350505050565b6004546101009004600160a060020a031633146119b057600080fd5b6119b981611f59565b50565b6004546101009004600160a060020a031633146119d857600080fd5b6005546040805160e060020a63bf40fac1028152602060048201819052600e60248301527f4d6f64756c65526567697374727900000000000000000000000000000000000060448301529151600160a060020a039093169263bf40fac1926064808401939192918290030181600087803b158015611a5557600080fd5b505af1158015611a69573d6000803e3d6000fd5b505050506040513d6020811015611a7f57600080fd5b505160068054600160a060020a031916600160a060020a039283161790556005546040805160e060020a63bf40fac1028152602060048201819052601560248301527f5365637572697479546f6b656e5265676973747279000000000000000000000060448301529151929093169263bf40fac192606480830193928290030181600087803b158015611b1157600080fd5b505af1158015611b25573d6000803e3d6000fd5b505050506040513d6020811015611b3b57600080fd5b505160078054600160a060020a031916600160a060020a039283161790556005546040805160e060020a63bf40fac1028152602060048201819052600e60248301527f5469636b6572526567697374727900000000000000000000000000000000000060448301529151929093169263bf40fac192606480830193928290030181600087803b158015611bcd57600080fd5b505af1158015611be1573d6000803e3d6000fd5b505050506040513d6020811015611bf757600080fd5b505160088054600160a060020a031916600160a060020a039283161790556005546040805160e060020a63bf40fac1028152602060048201819052600960248301527f506f6c79546f6b656e000000000000000000000000000000000000000000000060448301529151929093169263bf40fac192606480830193928290030181600087803b158015611c8957600080fd5b505af1158015611c9d573d6000803e3d6000fd5b505050506040513d6020811015611cb357600080fd5b505160098054600160a060020a031916600160a060020a03909216919091179055565b60006060611ce383611d55565b90506003816040518082805190602001908083835b60208310611d175780518252601f199092019160209182019101611cf8565b51815160209384036101000a6000190180199092169116179052920194855250604051938490030190922054600160a060020a031695945050505050565b6060816000805b8251821015611eae578282815181101515611d7357fe5b01602001517f0100000000000000000000000000000000000000000000000000000000000000908190040290507f61000000000000000000000000000000000000000000000000000000000000007fff00000000000000000000000000000000000000000000000000000000000000821610801590611e3457507f7a000000000000000000000000000000000000000000000000000000000000007fff00000000000000000000000000000000000000000000000000000000000000821611155b15611e6457601f197f01000000000000000000000000000000000000000000000000000000000000009182900401025b808383815181101515611e7357fe5b9060200101907effffffffffffffffffffffffffffffffffffffffffffffffffffffffffffff1916908160001a905350600190910190611d5c565b50909392505050565b60045460ff161515611ec857600080fd5b6004805460ff191690556040805142815290517faaa520fdd7d2c83061d632fa017b0432407e798818af63ea908589fceda39ab79181900360200190a1565b60045460ff1615611f1757600080fd5b6004805460ff191660011790556040805142815290517f68b095021b1f40fe513109f513c66692f0b3219aee674a69f4efc57badb8201d9181900360200190a1565b600160a060020a0381161515611f6e57600080fd5b600454604051600160a060020a0380841692610100900416907f8be0079c531659141344cd1fd0a4f28419497f9722a3daafe3b4186f6b6457e090600090a360048054600160a060020a039092166101000274ffffffffffffffffffffffffffffffffffffffff0019909216919091179055565b828054600181600116156101000203166002900490600052602060002090601f016020900481019282601f1061202357805160ff1916838001178555612050565b82800160010185558215612050579182015b82811115612050578251825591602001919060010190612035565b5061205c929150612060565b5090565b61207a91905b8082111561205c5760008155600101612066565b905600a165627a7a72305820b04467d631674ddd51636a4a2162bc15501eede47d5d748b68cffd4fd8032bf40029",
  "source": "pragma solidity ^0.4.24;\n\nimport \"./interfaces/ITickerRegistry.sol\";\nimport \"./tokens/SecurityToken.sol\";\nimport \"./interfaces/ISTProxy.sol\";\nimport \"./interfaces/ISecurityTokenRegistry.sol\";\nimport \"./Pausable.sol\";\nimport \"./RegistryUpdater.sol\";\nimport \"./ReclaimTokens.sol\";\nimport \"./helpers/Util.sol\";\n\n/**\n * @title Registry contract for issuers to register their security tokens\n */\ncontract SecurityTokenRegistry is ISecurityTokenRegistry, Util, Pausable, RegistryUpdater, ReclaimTokens {\n\n    // Registration fee in POLY base 18 decimals\n    uint256 public registrationFee;\n    // Emit when changePolyRegisterationFee is called\n    event LogChangePolyRegisterationFee(uint256 _oldFee, uint256 _newFee);\n\n    // Emit at the time of launching of new security token\n    event LogNewSecurityToken(string _ticker, address indexed _securityTokenAddress, address indexed _owner);\n    event LogAddCustomSecurityToken(string _name, string _symbol, address _securityToken, uint256 _addedAt);\n\n    constructor (\n        address _polymathRegistry,\n        address _stVersionProxy,\n        uint256 _registrationFee\n    )\n    public\n    RegistryUpdater(_polymathRegistry)\n    {\n        registrationFee = _registrationFee;\n        // By default, the STR version is set to 0.0.1\n        setProtocolVersion(_stVersionProxy, \"0.0.1\");\n    }\n\n    /**\n     * @notice Creates a new Security Token and saves it to the registry\n     * @param _name Name of the token\n     * @param _symbol Ticker symbol of the security token\n     * @param _tokenDetails off-chain details of the token\n     * @param _divisible Set to true if token is divisible\n     */\n    function generateSecurityToken(string _name, string _symbol, string _tokenDetails, bool _divisible) public whenNotPaused {\n        require(bytes(_name).length > 0 && bytes(_symbol).length > 0, \"Name and Symbol string length should be greater than 0\");\n        require(ITickerRegistry(tickerRegistry).checkValidity(_symbol, msg.sender, _name), \"Trying to use non-valid symbol\");\n        if(registrationFee > 0)\n            require(ERC20(polyToken).transferFrom(msg.sender, this, registrationFee), \"Failed transferFrom because of sufficent Allowance is not provided\");\n        string memory symbol = upper(_symbol);\n        address newSecurityTokenAddress = ISTProxy(protocolVersionST[protocolVersion]).deployToken(\n            _name,\n            symbol,\n            18,\n            _tokenDetails,\n            msg.sender,\n            _divisible,\n            polymathRegistry\n        );\n\n        securityTokens[newSecurityTokenAddress] = SecurityTokenData(symbol, _tokenDetails);\n        symbols[symbol] = newSecurityTokenAddress;\n        emit LogNewSecurityToken(symbol, newSecurityTokenAddress, msg.sender);\n    }\n\n    /**\n     * @notice Add a new custom (Token should follow the ISecurityToken interface) Security Token and saves it to the registry\n     * @param _name Name of the token\n     * @param _symbol Ticker symbol of the security token\n     * @param _owner Owner of the token\n     * @param _securityToken Address of the securityToken\n     * @param _tokenDetails off-chain details of the token\n     * @param _swarmHash off-chain details about the issuer company\n     */\n    function addCustomSecurityToken(string _name, string _symbol, address _owner, address _securityToken, string _tokenDetails, bytes32 _swarmHash) public onlyOwner whenNotPaused {\n        require(bytes(_name).length > 0 && bytes(_symbol).length > 0, \"Name and Symbol string length should be greater than 0\");\n        string memory symbol = upper(_symbol);\n        require(_securityToken != address(0) && symbols[symbol] == address(0), \"Symbol is already at the polymath network or entered security token address is 0x\");\n        require(_owner != address(0));\n        require(!(ITickerRegistry(tickerRegistry).isReserved(symbol, _owner, _name, _swarmHash)), \"Trying to use non-valid symbol\");\n        symbols[symbol] = _securityToken;\n        securityTokens[_securityToken] = SecurityTokenData(symbol, _tokenDetails);\n        emit LogAddCustomSecurityToken(_name, symbol, _securityToken, now);\n    }\n\n    /**\n    * @notice Changes the protocol version and the SecurityToken contract\n    * @notice Used only by Polymath to upgrade the SecurityToken contract and add more functionalities to future versions\n    * @notice Changing versions does not affect existing tokens.\n    */\n    function setProtocolVersion(address _stVersionProxyAddress, bytes32 _version) public onlyOwner {\n        protocolVersion = _version;\n        protocolVersionST[_version] = _stVersionProxyAddress;\n    }\n\n    //////////////////////////////\n    ///////// Get Functions\n    //////////////////////////////\n    /**\n     * @notice Get security token address by ticker name\n     * @param _symbol Symbol of the Scurity token\n     * @return address\n     */\n    function getSecurityTokenAddress(string _symbol) public view returns (address) {\n        string memory __symbol = upper(_symbol);\n        return symbols[__symbol];\n    }\n\n     /**\n     * @notice Get security token data by its address\n     * @param _securityToken Address of the Scurity token\n     * @return string\n     * @return address\n     * @return string\n     */\n    function getSecurityTokenData(address _securityToken) public view returns (string, address, string) {\n        return (\n            securityTokens[_securityToken].symbol,\n            ISecurityToken(_securityToken).owner(),\n            securityTokens[_securityToken].tokenDetails\n        );\n    }\n\n    /**\n    * @notice Check that Security Token is registered\n    * @param _securityToken Address of the Scurity token\n    * @return bool\n    */\n    function isSecurityToken(address _securityToken) public view returns (bool) {\n        return (keccak256(bytes(securityTokens[_securityToken].symbol)) != keccak256(\"\"));\n    }\n\n    /**\n     * @notice set the ticker registration fee in POLY tokens\n     * @param _registrationFee registration fee in POLY tokens (base 18 decimals)\n     */\n    function changePolyRegisterationFee(uint256 _registrationFee) public onlyOwner {\n        require(registrationFee != _registrationFee);\n        emit LogChangePolyRegisterationFee(registrationFee, _registrationFee);\n        registrationFee = _registrationFee;\n    }\n\n     /**\n     * @notice pause registration function\n     */\n    function unpause() public onlyOwner  {\n        _unpause();\n    }\n\n    /**\n     * @notice unpause registration function\n     */\n    function pause() public onlyOwner {\n        _pause();\n    }\n\n}\n",
  "sourcePath": "/Users/rafaelvidaurre/Code/polymath/polymath-apps/packages/polymath-shared/scripts/generateLocalBlockchain/contracts/SecurityTokenRegistry.sol",
  "compiler": {
    "name": "solc",
    "version": "0.4.24+commit.e67f0147.Emscripten.clang"
  },
  "schemaVersion": "2.0.1",
  "updatedAt": "2018-10-18T19:17:51.263Z"
}